{
  "_format": "hh-sol-artifact-1",
  "contractName": "AutomatedFunctionsConsumer",
  "sourceName": "contracts/mock/mockAutomatedFunctionsConsumer.sol",
  "abi": [
    {
      "inputs": [
        {
          "internalType": "address",
          "name": "_deployer",
          "type": "address"
        },
        {
          "internalType": "address",
          "name": "_farmer",
          "type": "address"
        },
        {
          "internalType": "uint256",
          "name": "_humidityLimit",
          "type": "uint256"
        },
        {
          "internalType": "uint256",
          "name": "_maxSampleQuantity",
          "type": "uint256"
        },
        {
          "internalType": "uint256",
          "name": "_reparationValue",
          "type": "uint256"
        },
        {
          "internalType": "uint256",
          "name": "_interval",
          "type": "uint256"
        },
        {
          "internalType": "address",
          "name": "_router",
          "type": "address"
        },
        {
          "internalType": "uint64",
          "name": "_subscriptionId",
          "type": "uint64"
        },
        {
          "internalType": "address",
          "name": "_registry",
          "type": "address"
        },
        {
          "internalType": "address",
          "name": "_sepoliaLINKAddress",
          "type": "address"
        },
        {
          "internalType": "address",
          "name": "_sepoliaRegistrarAddress",
          "type": "address"
        },
        {
          "internalType": "uint32",
          "name": "_fulfillGasLimit",
          "type": "uint32"
        }
      ],
      "stateMutability": "payable",
      "type": "constructor"
    },
    {
      "inputs": [
        {
          "internalType": "address",
          "name": "caller",
          "type": "address"
        },
        {
          "internalType": "address",
          "name": "owner",
          "type": "address"
        },
        {
          "internalType": "address",
          "name": "automationRegistry",
          "type": "address"
        }
      ],
      "name": "NotAllowedCaller",
      "type": "error"
    },
    {
      "inputs": [
        {
          "internalType": "bytes32",
          "name": "requestId",
          "type": "bytes32"
        }
      ],
      "name": "UnexpectedRequestID",
      "type": "error"
    },
    {
      "anonymous": false,
      "inputs": [
        {
          "indexed": false,
          "internalType": "uint8",
          "name": "controlFlag",
          "type": "uint8"
        }
      ],
      "name": "ControlFlagValue",
      "type": "event"
    },
    {
      "anonymous": false,
      "inputs": [
        {
          "indexed": true,
          "internalType": "bytes32",
          "name": "requestId",
          "type": "bytes32"
        },
        {
          "indexed": false,
          "internalType": "bytes",
          "name": "result",
          "type": "bytes"
        },
        {
          "indexed": false,
          "internalType": "bytes",
          "name": "err",
          "type": "bytes"
        }
      ],
      "name": "OCRResponse",
      "type": "event"
    },
    {
      "anonymous": false,
      "inputs": [
        {
          "indexed": true,
          "internalType": "address",
          "name": "from",
          "type": "address"
        },
        {
          "indexed": true,
          "internalType": "address",
          "name": "to",
          "type": "address"
        }
      ],
      "name": "OwnershipTransferRequested",
      "type": "event"
    },
    {
      "anonymous": false,
      "inputs": [
        {
          "indexed": true,
          "internalType": "address",
          "name": "from",
          "type": "address"
        },
        {
          "indexed": true,
          "internalType": "address",
          "name": "to",
          "type": "address"
        }
      ],
      "name": "OwnershipTransferred",
      "type": "event"
    },
    {
      "anonymous": false,
      "inputs": [
        {
          "indexed": false,
          "internalType": "bytes32",
          "name": "requestId",
          "type": "bytes32"
        }
      ],
      "name": "RequestIdUpdated",
      "type": "event"
    },
    {
      "anonymous": false,
      "inputs": [
        {
          "indexed": false,
          "internalType": "string",
          "name": "reason",
          "type": "string"
        }
      ],
      "name": "RequestRevertedWithErrorMsg",
      "type": "event"
    },
    {
      "anonymous": false,
      "inputs": [
        {
          "indexed": false,
          "internalType": "bytes",
          "name": "data",
          "type": "bytes"
        }
      ],
      "name": "RequestRevertedWithoutErrorMsg",
      "type": "event"
    },
    {
      "anonymous": false,
      "inputs": [
        {
          "indexed": true,
          "internalType": "bytes32",
          "name": "id",
          "type": "bytes32"
        }
      ],
      "name": "RequestSent",
      "type": "event"
    },
    {
      "anonymous": false,
      "inputs": [
        {
          "indexed": true,
          "internalType": "bytes32",
          "name": "requestId",
          "type": "bytes32"
        },
        {
          "indexed": false,
          "internalType": "bytes",
          "name": "response",
          "type": "bytes"
        },
        {
          "indexed": false,
          "internalType": "bytes",
          "name": "err",
          "type": "bytes"
        }
      ],
      "name": "Response",
      "type": "event"
    },
    {
      "anonymous": false,
      "inputs": [
        {
          "indexed": false,
          "internalType": "uint256",
          "name": "length",
          "type": "uint256"
        }
      ],
      "name": "sampleStorageLength",
      "type": "event"
    },
    {
      "anonymous": false,
      "inputs": [
        {
          "indexed": false,
          "internalType": "address",
          "name": "upkeepAddress",
          "type": "address"
        }
      ],
      "name": "upkeepCreated",
      "type": "event"
    },
    {
      "anonymous": false,
      "inputs": [
        {
          "indexed": false,
          "internalType": "uint256",
          "name": "upkeepId",
          "type": "uint256"
        }
      ],
      "name": "upkeepRegistered",
      "type": "event"
    },
    {
      "inputs": [],
      "name": "REQUEST_DATA_VERSION",
      "outputs": [
        {
          "internalType": "uint16",
          "name": "",
          "type": "uint16"
        }
      ],
      "stateMutability": "view",
      "type": "function"
    },
    {
      "inputs": [],
      "name": "acceptOwnership",
      "outputs": [],
      "stateMutability": "nonpayable",
      "type": "function"
    },
    {
      "inputs": [
        {
          "internalType": "bytes",
          "name": "",
          "type": "bytes"
        }
      ],
      "name": "checkUpkeep",
      "outputs": [
        {
          "internalType": "bool",
          "name": "upkeepNeeded",
          "type": "bool"
        },
        {
          "internalType": "bytes",
          "name": "performData",
          "type": "bytes"
        }
      ],
      "stateMutability": "view",
      "type": "function"
    },
    {
      "inputs": [],
      "name": "computationCBOR",
      "outputs": [
        {
          "internalType": "bytes",
          "name": "",
          "type": "bytes"
        }
      ],
      "stateMutability": "view",
      "type": "function"
    },
    {
      "inputs": [],
      "name": "contractBalance",
      "outputs": [
        {
          "internalType": "uint256",
          "name": "",
          "type": "uint256"
        }
      ],
      "stateMutability": "view",
      "type": "function"
    },
    {
      "inputs": [],
      "name": "donID",
      "outputs": [
        {
          "internalType": "bytes32",
          "name": "",
          "type": "bytes32"
        }
      ],
      "stateMutability": "view",
      "type": "function"
    },
    {
      "inputs": [],
      "name": "farmer",
      "outputs": [
        {
          "internalType": "address",
          "name": "",
          "type": "address"
        }
      ],
      "stateMutability": "view",
      "type": "function"
    },
    {
      "inputs": [],
      "name": "fulfillGasLimit",
      "outputs": [
        {
          "internalType": "uint32",
          "name": "",
          "type": "uint32"
        }
      ],
      "stateMutability": "view",
      "type": "function"
    },
    {
      "inputs": [
        {
          "internalType": "bytes32",
          "name": "requestId",
          "type": "bytes32"
        },
        {
          "internalType": "bytes",
          "name": "response",
          "type": "bytes"
        },
        {
          "internalType": "bytes",
          "name": "err",
          "type": "bytes"
        }
      ],
      "name": "fulfillRequest",
      "outputs": [],
      "stateMutability": "nonpayable",
      "type": "function"
    },
    {
      "inputs": [],
      "name": "gasLimit",
      "outputs": [
        {
          "internalType": "uint32",
          "name": "",
          "type": "uint32"
        }
      ],
      "stateMutability": "view",
      "type": "function"
    },
    {
      "inputs": [],
      "name": "humidityLimit",
      "outputs": [
        {
          "internalType": "uint256",
          "name": "",
          "type": "uint256"
        }
      ],
      "stateMutability": "view",
      "type": "function"
    },
    {
      "inputs": [],
      "name": "institution",
      "outputs": [
        {
          "internalType": "address",
          "name": "",
          "type": "address"
        }
      ],
      "stateMutability": "view",
      "type": "function"
    },
    {
      "inputs": [],
      "name": "interval",
      "outputs": [
        {
          "internalType": "uint256",
          "name": "",
          "type": "uint256"
        }
      ],
      "stateMutability": "view",
      "type": "function"
    },
    {
      "inputs": [],
      "name": "lastUpkeepTimeStamp",
      "outputs": [
        {
          "internalType": "uint256",
          "name": "",
          "type": "uint256"
        }
      ],
      "stateMutability": "view",
      "type": "function"
    },
    {
      "inputs": [],
      "name": "latestError",
      "outputs": [
        {
          "internalType": "bytes",
          "name": "",
          "type": "bytes"
        }
      ],
      "stateMutability": "view",
      "type": "function"
    },
    {
      "inputs": [],
      "name": "latestRequestId",
      "outputs": [
        {
          "internalType": "bytes32",
          "name": "",
          "type": "bytes32"
        }
      ],
      "stateMutability": "view",
      "type": "function"
    },
    {
      "inputs": [],
      "name": "latestResponse",
      "outputs": [
        {
          "internalType": "bytes",
          "name": "",
          "type": "bytes"
        }
      ],
      "stateMutability": "view",
      "type": "function"
    },
    {
      "inputs": [],
      "name": "maxSampleQuantity",
      "outputs": [
        {
          "internalType": "uint256",
          "name": "",
          "type": "uint256"
        }
      ],
      "stateMutability": "view",
      "type": "function"
    },
    {
      "inputs": [],
      "name": "owner",
      "outputs": [
        {
          "internalType": "address",
          "name": "",
          "type": "address"
        }
      ],
      "stateMutability": "view",
      "type": "function"
    },
    {
      "inputs": [
        {
          "internalType": "bytes",
          "name": "",
          "type": "bytes"
        },
        {
          "internalType": "uint256",
          "name": "mockSampleStorageLength",
          "type": "uint256"
        }
      ],
      "name": "performUpkeep",
      "outputs": [],
      "stateMutability": "nonpayable",
      "type": "function"
    },
    {
      "inputs": [],
      "name": "registry",
      "outputs": [
        {
          "internalType": "address",
          "name": "",
          "type": "address"
        }
      ],
      "stateMutability": "view",
      "type": "function"
    },
    {
      "inputs": [],
      "name": "reparationValue",
      "outputs": [
        {
          "internalType": "uint256",
          "name": "",
          "type": "uint256"
        }
      ],
      "stateMutability": "view",
      "type": "function"
    },
    {
      "inputs": [],
      "name": "request",
      "outputs": [
        {
          "internalType": "bytes",
          "name": "",
          "type": "bytes"
        }
      ],
      "stateMutability": "view",
      "type": "function"
    },
    {
      "inputs": [],
      "name": "requestCBOR",
      "outputs": [
        {
          "internalType": "bytes",
          "name": "",
          "type": "bytes"
        }
      ],
      "stateMutability": "view",
      "type": "function"
    },
    {
      "inputs": [],
      "name": "requestId",
      "outputs": [
        {
          "internalType": "bytes32",
          "name": "",
          "type": "bytes32"
        }
      ],
      "stateMutability": "view",
      "type": "function"
    },
    {
      "inputs": [
        {
          "internalType": "bytes32",
          "name": "",
          "type": "bytes32"
        },
        {
          "internalType": "uint256",
          "name": "",
          "type": "uint256"
        }
      ],
      "name": "requests",
      "outputs": [
        {
          "internalType": "uint64",
          "name": "subscriptionId",
          "type": "uint64"
        },
        {
          "internalType": "bytes",
          "name": "data",
          "type": "bytes"
        },
        {
          "internalType": "uint16",
          "name": "DATA_VERSION",
          "type": "uint16"
        },
        {
          "internalType": "uint32",
          "name": "callbackGasLimit",
          "type": "uint32"
        },
        {
          "internalType": "bytes32",
          "name": "donId",
          "type": "bytes32"
        }
      ],
      "stateMutability": "view",
      "type": "function"
    },
    {
      "inputs": [],
      "name": "responseCounter",
      "outputs": [
        {
          "internalType": "uint256",
          "name": "",
          "type": "uint256"
        }
      ],
      "stateMutability": "view",
      "type": "function"
    },
    {
      "inputs": [],
      "name": "router",
      "outputs": [
        {
          "internalType": "address",
          "name": "",
          "type": "address"
        }
      ],
      "stateMutability": "view",
      "type": "function"
    },
    {
      "inputs": [],
      "name": "s_lastError",
      "outputs": [
        {
          "internalType": "bytes",
          "name": "",
          "type": "bytes"
        }
      ],
      "stateMutability": "view",
      "type": "function"
    },
    {
      "inputs": [],
      "name": "s_lastRequestId",
      "outputs": [
        {
          "internalType": "bytes32",
          "name": "",
          "type": "bytes32"
        }
      ],
      "stateMutability": "view",
      "type": "function"
    },
    {
      "inputs": [],
      "name": "s_lastResponse",
      "outputs": [
        {
          "internalType": "bytes",
          "name": "",
          "type": "bytes"
        }
      ],
      "stateMutability": "view",
      "type": "function"
    },
    {
      "inputs": [],
      "name": "s_requestCounter",
      "outputs": [
        {
          "internalType": "uint256",
          "name": "",
          "type": "uint256"
        }
      ],
      "stateMutability": "view",
      "type": "function"
    },
    {
      "inputs": [],
      "name": "s_responseCounter",
      "outputs": [
        {
          "internalType": "uint256",
          "name": "",
          "type": "uint256"
        }
      ],
      "stateMutability": "view",
      "type": "function"
    },
    {
      "inputs": [],
      "name": "s_upkeepCounter",
      "outputs": [
        {
          "internalType": "uint256",
          "name": "",
          "type": "uint256"
        }
      ],
      "stateMutability": "view",
      "type": "function"
    },
    {
      "inputs": [
        {
          "internalType": "uint256",
          "name": "",
          "type": "uint256"
        }
      ],
      "name": "sampleStorage",
      "outputs": [
        {
          "internalType": "bytes",
          "name": "",
          "type": "bytes"
        }
      ],
      "stateMutability": "view",
      "type": "function"
    },
    {
      "inputs": [],
      "name": "sepoliaLINKAddress",
      "outputs": [
        {
          "internalType": "address",
          "name": "",
          "type": "address"
        }
      ],
      "stateMutability": "view",
      "type": "function"
    },
    {
      "inputs": [],
      "name": "sepoliaRegistrarAddress",
      "outputs": [
        {
          "internalType": "address",
          "name": "",
          "type": "address"
        }
      ],
      "stateMutability": "view",
      "type": "function"
    },
    {
      "inputs": [
        {
          "internalType": "bytes",
          "name": "receivedCBOR",
          "type": "bytes"
        }
      ],
      "name": "setComputation",
      "outputs": [],
      "stateMutability": "nonpayable",
      "type": "function"
    },
    {
      "inputs": [
        {
          "internalType": "bytes",
          "name": "newRequestCBOR",
          "type": "bytes"
        },
        {
          "internalType": "uint64",
          "name": "_subscriptionId",
          "type": "uint64"
        },
        {
          "internalType": "bytes32",
          "name": "_donID",
          "type": "bytes32"
        }
      ],
      "name": "setRequest",
      "outputs": [],
      "stateMutability": "nonpayable",
      "type": "function"
    },
    {
      "inputs": [],
      "name": "subscriptionId",
      "outputs": [
        {
          "internalType": "uint64",
          "name": "",
          "type": "uint64"
        }
      ],
      "stateMutability": "view",
      "type": "function"
    },
    {
      "inputs": [
        {
          "internalType": "address",
          "name": "to",
          "type": "address"
        }
      ],
      "name": "transferOwnership",
      "outputs": [],
      "stateMutability": "nonpayable",
      "type": "function"
    },
    {
      "inputs": [],
      "name": "upkeepContract",
      "outputs": [
        {
          "internalType": "address",
          "name": "",
          "type": "address"
        }
      ],
      "stateMutability": "view",
      "type": "function"
    },
    {
      "inputs": [],
      "name": "upkeepCounter",
      "outputs": [
        {
          "internalType": "uint256",
          "name": "",
          "type": "uint256"
        }
      ],
      "stateMutability": "view",
      "type": "function"
    },
    {
      "inputs": [],
      "name": "upkeepId",
      "outputs": [
        {
          "internalType": "uint256",
          "name": "",
          "type": "uint256"
        }
      ],
      "stateMutability": "view",
      "type": "function"
    }
  ],
  "bytecode": "0x60806001600160401b03601f62001f3238819003918201601f191684019183831185841017620001d15780859261018094604052833981010312620001cc576200004982620001e7565b6200005760208401620001e7565b9260408101519060608101519260808201519160a0810151936200007e60c08301620001e7565b60e0830151978816809803620001cc576200009d6101008401620001e7565b98620000ad6101208501620001e7565b91610160620000c06101408701620001e7565b9501519763ffffffff89168903620001cc57600180556001600160a01b0396871697881562000187576bffffffff00000000000000009a88968780968c60018060a01b03199d8e60035416176003558d601c541617601c55168b601d541617601d55602055602155601f55600a551685600c541617600c5581600954991685600d541617600d551683601a541617601a551690601b541617601b5560401b169160018060601b0319161717600955426018556001600e55604051611d359081620001fd8239f35b60405162461bcd60e51b815260206004820152601860248201527f43616e6e6f7420736574206f776e657220746f207a65726f00000000000000006044820152606490fd5b600080fd5b634e487b7160e01b600052604160045260246000fd5b51906001600160a01b0382168203620001cc5756fe608060408181526004918236101561001657600080fd5b600092833560e01c9182626d6cae1461168b57508163089ea02e1461166c57816309c1ba2e146116435781631243bcc31461161b5781631aa46f59146115fc57816324b93e3e146115d6578163277e221314611588578163338cdca1146114de57816336e6a92f14611349578163381fc4b51461132a5781633944ea3a1461128057816339b0512214610e4757816343cd3d8614610e2857816348802b9214610e0957816348bd6f0514610dea5781634b0795a814610d405781635d641dfc14610d245781635e0611f114610cfc578163688ecfd114610cde5781636baa48fe14610cb65781636e04ff0d14610c115781636e74336b14610bf257816379ba509714610b365781637ae4e3fb14610b175781637b10399914610aef5781637d95f68a146109675781638b7afe2e1461094c5781638da5cb5b14610924578163947a36fb146109055781639655e6d81461086e578163a309713914610850578163a3d3c0d214610831578163b1e2174914610812578163b8a4836e14610573578163bd4ca97b14610542578163bef3a2f014610498578163d1384eb614610470578163d2aa789f14610451578163d811fcf014610429578163f2fde38b1461035c57508063f5c1279b1461033e578063f68016b71461031a578063f887ea40146102f35763fffeb84e1461020857600080fd5b346102ef57816003193601126102ef5780519082600854610228816116f2565b808552916001918083169081156102c7575060011461026a575b5050506102548261026694038361172c565b5191829160208352602083019061195f565b0390f35b9450600885527ff3f7a9fe364faab93b216da50a3214154f22a0a2b415b23a84c8169e8b636ee35b8286106102af575050506102548260206102669582010194610242565b80546020878701810191909152909501948101610292565b61026697508693506020925061025494915060ff191682840152151560051b82010194610242565b5080fd5b50346102ef57816003193601126102ef576020906001600160a01b03600c54169051908152f35b50346102ef57816003193601126102ef5760209063ffffffff601054169051908152f35b50346102ef57816003193601126102ef576020906015549051908152f35b91905034610425576020366003190112610425578135916001600160a01b03918284168094036104215761038e611a45565b3384146103de57508273ffffffffffffffffffffffffffffffffffffffff19825416179055600354167fed8889f560326eb138920d842192f0eb3dd22b4f139c87a2c57538e05bae12788380a380f35b906020606492519162461bcd60e51b8352820152601760248201527f43616e6e6f74207472616e7366657220746f2073656c660000000000000000006044820152fd5b8480fd5b8280fd5b5050346102ef57816003193601126102ef576020906001600160a01b03601d54169051908152f35b5050346102ef57816003193601126102ef57602090600e549051908152f35b5050346102ef57816003193601126102ef576020906001600160a01b03601c54169051908152f35b5050346102ef57816003193601126102ef57805190826007546104ba816116f2565b808552916001918083169081156102c757506001146104e5575050506102548261026694038361172c565b9450600785527fa66cc928b5edb82af9bd49922954155ab7b0942694bea4ce44661d9a8736c6885b82861061052a575050506102548260206102669582010194610242565b8054602087870181019190915290950194810161050d565b5050346102ef57816003193601126102ef5761026690610560611822565b905191829160208352602083019061195f565b8383346102ef57806003193601126102ef5767ffffffffffffffff90833582811161080e576105a5903690860161199f565b50506001600160a01b038060035416908133141580610800575b6107bf575050600e541561077d578051916020928381018181108382111761076a5790859184525260185442034281116106b957600a5410156107285742601855601954600181018091116106b957601955602435602154116000146106cc57610641906009541663ffffffff601054166011549161063c611764565b611bad565b80601255808455601654600181018091116106b9577fd3faffad7ef1f2c31a43a6d3c3ca68805a12ad17c4e6d65ed29f86103c8a925f9495507f94d22f84ecc32bb8dd315dfdf3e823f4cb62c2eb803a2d4a470b57e7c42d5d769184916016558351908152a160ff601e5460a01c169051908152a180f35b602485601188634e487b7160e01b835252fd5b61064190740100000000000000000000000000000000000000007fffffffffffffffffffffff00ffffffffffffffffffffffffffffffffffffffff601e541617601e556009541663ffffffff601054166011549161063c611822565b6064858484519162461bcd60e51b8352820152601560248201527f54696d6520696e74657276616c206e6f74206d657400000000000000000000006044820152fd5b602486604189634e487b7160e01b835252fd5b5162461bcd60e51b8152602081850152601560248201527f55706b656570206e6f74207265676973746572656400000000000000000000006044820152606490fd5b918591606493601e54169151927f426fbc71000000000000000000000000000000000000000000000000000000008452339084015260248301526044820152fd5b5080601e54163314156105bf565b8380fd5b5050346102ef57816003193601126102ef576020906012549051908152f35b5050346102ef57816003193601126102ef576020906019549051908152f35b5050346102ef57816003193601126102ef5760209081549051908152f35b905034610425578160031936011261042557602435903583526002602052818320805482101561080e57906108a291611a29565b509067ffffffffffffffff825416906108bd600184016118bb565b9263ffffffff60036002830154920154916108e98451968796875260a0602088015260a087019061195f565b9361ffff82169086015260101c16606084015260808301520390f35b5050346102ef57816003193601126102ef57602090600a549051908152f35b5050346102ef57816003193601126102ef576020906001600160a01b03600354169051908152f35b5050346102ef57816003193601126102ef5751478152602090f35b8334610aec57602091826003193601126102ef5767ffffffffffffffff813581811161080e5761099a903690840161199f565b9290916109a5611a45565b8311610ad957506109b76024546116f2565b601f8111610a7b575b508293601f83116001146109fd57509282938293926109f2575b50508160011b916000199060031b1c19161760245580f35b0135905083806109da565b601f198316947f7cd332d19b93bcabe3cce7ca0c18a052f57e5fd03b4758a09f30f5ddc4b22ec4929185905b878210610a63575050836001959610610a49575b505050811b0160245580f35b0135600019600384901b60f8161c19169055838080610a3d565b80600184968294958701358155019501920190610a29565b7f7cd332d19b93bcabe3cce7ca0c18a052f57e5fd03b4758a09f30f5ddc4b22ec4601f840160051c810191868510610acf575b601f0160051c01905b818110610ac457506109c0565b848155600101610ab7565b9091508190610aae565b836041602492634e487b7160e01b835252fd5b80fd5b5050346102ef57816003193601126102ef576020906001600160a01b03600d54169051908152f35b5050346102ef57816003193601126102ef576020906021549051908152f35b919050346104255782600319360112610425578154916001600160a01b03918284163303610baf57506003549273ffffffffffffffffffffffffffffffffffffffff199033828616176003551690553391167f8be0079c531659141344cd1fd0a4f28419497f9722a3daafe3b4186f6b6457e08380a380f35b906020606492519162461bcd60e51b8352820152601660248201527f4d7573742062652070726f706f736564206f776e6572000000000000000000006044820152fd5b5050346102ef57816003193601126102ef576020906011549051908152f35b91905034610425576020918260031936011261080e57803567ffffffffffffffff811161042157610c4590369083016119d2565b50601854420390428211610ca35750600a54109080519384928352818484015260609384518093850152815b838110610c8e575050828201840152601f01601f19168101030190f35b60808101518782018701528694508101610c71565b846011602492634e487b7160e01b835252fd5b5050346102ef57816003193601126102ef576020906001600160a01b03601b54169051908152f35b5050346102ef57816003193601126102ef5761026690610560611764565b5050346102ef57816003193601126102ef576020906001600160a01b03601e54169051908152f35b5050346102ef57816003193601126102ef576020905160018152f35b5050346102ef57816003193601126102ef5780519082601454610d62816116f2565b808552916001918083169081156102c75750600114610d8d575050506102548261026694038361172c565b9450601485527fce6d7b5282bd9a3661ae061feed1dbda4e52ab073b1f9285be6e155d9c38d4ec5b828610610dd2575050506102548260206102669582010194610242565b80546020878701810191909152909501948101610db5565b5050346102ef57816003193601126102ef57602090601f549051908152f35b5050346102ef57816003193601126102ef576020906016549051908152f35b5050346102ef57816003193601126102ef576020906017549051908152f35b8383346102ef5760603660031901126102ef57602480359167ffffffffffffffff9283811161042157610e7d90369087016119d2565b9160443584811161127c57610e9590369088016119d2565b93835181811161117e57610eaa6007546116f2565b90601f9182811161121c575b5080602083821160011461119b578991611190575b508160011b916000199060031b1c1916176007555b855191821161117e578190610ef66008546116f2565b818111611111575b506020908211600114611090578791611085575b508160011b916000199060031b1c1916176008555b600b546001810180911161107357600b55601e5460a01c60ff1661101a576022546801000000000000000081101561100857806001610f6992016022556116a5565b919091610ff857507f7bab0ec163b5c132c72b8146ac4d6e067e82ed58f8b131150aa71c9258911562939495610fa284610ff293611a9d565b7fb8c1b3113292644df2bf7f437c82a485b897c95ec146ca6ca3dea2ec2f674ad960206022548551908152a15b610fe2835194848695865285019061195f565b908382036020850152359561195f565b0390a280f35b858088634e487b7160e01b825252fd5b5084604187634e487b7160e01b835252fd5b50610ff27f7bab0ec163b5c132c72b8146ac4d6e067e82ed58f8b131150aa71c92589115629394957fb8c1b3113292644df2bf7f437c82a485b897c95ec146ca6ca3dea2ec2f674ad960206021548551908152a1610fcf565b5084601187634e487b7160e01b835252fd5b905085015188610f12565b600888527ff3f7a9fe364faab93b216da50a3214154f22a0a2b415b23a84c8169e8b636ee39150601f198316885b8181106110f9575090836001949392106110e0575b5050811b01600855610f27565b87015160001960f88460031b161c1916905588806110d3565b9192602060018192868c0151815501940192016110be565b909150600888527ff3f7a9fe364faab93b216da50a3214154f22a0a2b415b23a84c8169e8b636ee38280850160051c82019260208610611175575b938594939291930160051c01905b8181106111675750610efe565b89815584935060010161115a565b9250819261114c565b828760418a634e487b7160e01b835252fd5b90508601518a610ecb565b60078a527fa66cc928b5edb82af9bd49922954155ab7b0942694bea4ce44661d9a8736c6889150601f1983168a5b818110611204575090836001949392106111eb575b5050811b01600755610ee0565b88015160001960f88460031b161c191690558a806111de565b9192602060018192868d0151815501940192016111c9565b600789527fa66cc928b5edb82af9bd49922954155ab7b0942694bea4ce44661d9a8736c6888380840160051c82019260208510611273575b0160051c01905b8181106112685750610eb6565b89815560010161125b565b92508192611254565b8580fd5b5050346102ef57816003193601126102ef57805190826013546112a2816116f2565b808552916001918083169081156102c757506001146112cd575050506102548261026694038361172c565b9450601385527f66de8ffda797e3de9c05e8fc57b3bf0ec28a930d40b0d285d93c06501cf6a0905b828610611312575050506102548260206102669582010194610242565b805460208787018101919091529095019481016112f5565b5050346102ef57816003193601126102ef57602090600b549051908152f35b8334610aec576060366003190112610aec5767ffffffffffffffff82358181116104255761137a903690850161199f565b90936024359280841680940361042157611392611a45565b8211610ad957506113a46005546116f2565b601f811161147f575b5082601f8211600114611401578394829394926113f6575b50508160011b916000199060031b1c1916176005555b67ffffffffffffffff19600954161760095560443560115580f35b0135905084806113c5565b601f198216947f036b6384b5eca791c62761152d0c79bb0604c104a5fb6f4eb0703f3154bb3db091855b87811061146757508360019596971061144d575b505050811b016005556113db565b0135600019600384901b60f8161c1916905584808061143f565b9092602060018192868601358155019401910161142b565b7f036b6384b5eca791c62761152d0c79bb0604c104a5fb6f4eb0703f3154bb3db0601f830160051c810191602084106114d4575b601f0160051c01905b8181106114c957506113ad565b8481556001016114bc565b90915081906114b3565b5050346102ef57816003193601126102ef5780519082600f54611500816116f2565b808552916001918083169081156102c7575060011461152b575050506102548261026694038361172c565b9450600f85527f8d1108e10bcb7c27dddfc02ed9d693a074039d026cf4ea4240b40f7d581ac8025b828610611570575050506102548260206102669582010194610242565b80546020878701810191909152909501948101611553565b828434610aec576020366003190112610aec5782356022548110156102ef576115b0906116a5565b9390936115c45761026683610560866118bb565b9080602492634e487b7160e01b825252fd5b5050346102ef57816003193601126102ef576009548151911c63ffffffff168152602090f35b5050346102ef57816003193601126102ef576020906006549051908152f35b5050346102ef57816003193601126102ef576020906001600160a01b03601a54169051908152f35b5050346102ef57816003193601126102ef5760209067ffffffffffffffff600954169051908152f35b5050346102ef57816003193601126102ef576020906018549051908152f35b8490346102ef57816003193601126102ef57602091548152f35b6022548110156116dc5760226000527f61035b26e3e9eee00e0d72fd1ee8ddca6894550dca6916ea2ac6baa90d11e5100190600090565b634e487b7160e01b600052603260045260246000fd5b90600182811c92168015611722575b602083101461170c57565b634e487b7160e01b600052602260045260246000fd5b91607f1691611701565b90601f8019910116810190811067ffffffffffffffff82111761174e57604052565b634e487b7160e01b600052604160045260246000fd5b6040519060008260055491611778836116f2565b8083529260019081811690811561180057506001146117a1575b5061179f9250038361172c565b565b6005600090815291507f036b6384b5eca791c62761152d0c79bb0604c104a5fb6f4eb0703f3154bb3db05b8483106117e5575061179f935050810160200138611792565b81935090816020925483858a010152019101909185926117cc565b90506020925061179f94915060ff191682840152151560051b82010138611792565b6040519060008260245491611836836116f2565b80835292600190818116908115611800575060011461185c575061179f9250038361172c565b6024600090815291507f7cd332d19b93bcabe3cce7ca0c18a052f57e5fd03b4758a09f30f5ddc4b22ec45b8483106118a0575061179f935050810160200138611792565b81935090816020925483858a01015201910190918592611887565b90604051918260008254926118cf846116f2565b90818452600194858116908160001461193c57506001146118f9575b505061179f9250038361172c565b9093915060005260209081600020936000915b81831061192457505061179f935082010138806118eb565b8554888401850152948501948794509183019161190c565b91505061179f94506020925060ff191682840152151560051b82010138806118eb565b919082519283825260005b84811061198b575050826000602080949584010152601f8019910116010190565b60208183018101518483018201520161196a565b9181601f840112156119cd5782359167ffffffffffffffff83116119cd57602083818601950101116119cd57565b600080fd5b81601f820112156119cd5780359067ffffffffffffffff821161174e5760405192611a07601f8401601f19166020018561172c565b828452602083830101116119cd57816000926020809301838601378301015290565b80548210156116dc5760005260206000209060021b0190600090565b6001600160a01b03600354163303611a5957565b606460405162461bcd60e51b815260206004820152601660248201527f4f6e6c792063616c6c61626c65206279206f776e6572000000000000000000006044820152fd5b919091825167ffffffffffffffff811161174e57611abb82546116f2565b601f8111611b65575b50602080601f8311600114611b01575081929394600092611af6575b50508160011b916000199060031b1c1916179055565b015190503880611ae0565b90601f198316958460005282600020926000905b888210611b4d57505083600195969710611b34575b505050811b019055565b015160001960f88460031b161c19169055388080611b2a565b80600185968294968601518155019501930190611b15565b600083815260208120601f840160051c81019260208510611ba3575b601f0160051c01915b828110611b98575050611ac4565b818155600101611b8a565b9092508290611b81565b9290926040519260a0840167ffffffffffffffff958582108783111761174e57869160405216845260208401918252604084019160019081845263ffffffff606087019316835260808601948552815496600097808955838101808211611ceb578455885260026020526040882080549068010000000000000000821015611cd75790611c3e918582018155611a29565b979097611cc457927f1131472297a800fee664d1d89cfa8f7676ff07189ecc53f80bbb5f4969099db89897969492611c8f9260039795511667ffffffffffffffff1989541617885551908701611a9d565b61ffff6002860192511665ffffffff00008354925160101b169165ffffffffffff19161717905551910155805491818392a290565b602489634e487b7160e01b815280600452fd5b60248a634e487b7160e01b81526041600452fd5b60248a634e487b7160e01b81526011600452fdfea2646970667358221220ee4e94de7366525c2ae673b6f5ed823efd6f043d48f7ab3bf3f711fca9f46c5d64736f6c63430008130033",
  "linkReferences": {},
  "deployedLinkReferences": {}
}