{
  "_format": "hh-sol-artifact-1",
  "contractName": "AutomatedFunctionsConsumer",
  "sourceName": "contracts/mock/mockAutomatedFunctionsConsumer.sol",
  "abi": [
    {
      "inputs": [
        {
          "internalType": "address",
          "name": "_deployer",
          "type": "address"
        },
        {
          "internalType": "address",
          "name": "_farmer",
          "type": "address"
        },
        {
          "internalType": "uint256",
          "name": "_humidityLimit",
          "type": "uint256"
        },
        {
          "internalType": "uint256",
          "name": "_sampleMaxSize",
          "type": "uint256"
        },
        {
          "internalType": "uint256",
          "name": "_reparationValue",
          "type": "uint256"
        },
        {
          "internalType": "uint256",
          "name": "_updateInterval",
          "type": "uint256"
        },
        {
          "internalType": "address",
          "name": "router",
          "type": "address"
        },
        {
          "internalType": "uint64",
          "name": "_subscriptionId",
          "type": "uint64"
        },
        {
          "internalType": "address",
          "name": "_registry",
          "type": "address"
        },
        {
          "internalType": "address",
          "name": "sepoliaLINKAddress",
          "type": "address"
        },
        {
          "internalType": "address",
          "name": "sepoliaRegistrarAddress",
          "type": "address"
        },
        {
          "internalType": "uint32",
          "name": "_fulfillGasLimit",
          "type": "uint32"
        }
      ],
      "stateMutability": "payable",
      "type": "constructor"
    },
    {
      "inputs": [],
      "name": "EmptyArgs",
      "type": "error"
    },
    {
      "inputs": [],
      "name": "EmptySource",
      "type": "error"
    },
    {
      "inputs": [],
      "name": "NoInlineSecrets",
      "type": "error"
    },
    {
      "inputs": [
        {
          "internalType": "address",
          "name": "caller",
          "type": "address"
        },
        {
          "internalType": "address",
          "name": "owner",
          "type": "address"
        },
        {
          "internalType": "address",
          "name": "automationRegistry",
          "type": "address"
        }
      ],
      "name": "NotAllowedCaller",
      "type": "error"
    },
    {
      "inputs": [],
      "name": "OnlyRouterCanFulfill",
      "type": "error"
    },
    {
      "inputs": [
        {
          "internalType": "bytes32",
          "name": "requestId",
          "type": "bytes32"
        }
      ],
      "name": "UnexpectedRequestID",
      "type": "error"
    },
    {
      "anonymous": false,
      "inputs": [
        {
          "indexed": true,
          "internalType": "bytes32",
          "name": "requestId",
          "type": "bytes32"
        },
        {
          "indexed": false,
          "internalType": "bytes",
          "name": "result",
          "type": "bytes"
        },
        {
          "indexed": false,
          "internalType": "bytes",
          "name": "err",
          "type": "bytes"
        }
      ],
      "name": "OCRResponse",
      "type": "event"
    },
    {
      "anonymous": false,
      "inputs": [
        {
          "indexed": true,
          "internalType": "address",
          "name": "from",
          "type": "address"
        },
        {
          "indexed": true,
          "internalType": "address",
          "name": "to",
          "type": "address"
        }
      ],
      "name": "OwnershipTransferRequested",
      "type": "event"
    },
    {
      "anonymous": false,
      "inputs": [
        {
          "indexed": true,
          "internalType": "address",
          "name": "from",
          "type": "address"
        },
        {
          "indexed": true,
          "internalType": "address",
          "name": "to",
          "type": "address"
        }
      ],
      "name": "OwnershipTransferred",
      "type": "event"
    },
    {
      "anonymous": false,
      "inputs": [
        {
          "indexed": true,
          "internalType": "bytes32",
          "name": "id",
          "type": "bytes32"
        }
      ],
      "name": "RequestFulfilled",
      "type": "event"
    },
    {
      "anonymous": false,
      "inputs": [
        {
          "indexed": false,
          "internalType": "string",
          "name": "reason",
          "type": "string"
        }
      ],
      "name": "RequestRevertedWithErrorMsg",
      "type": "event"
    },
    {
      "anonymous": false,
      "inputs": [
        {
          "indexed": false,
          "internalType": "bytes",
          "name": "data",
          "type": "bytes"
        }
      ],
      "name": "RequestRevertedWithoutErrorMsg",
      "type": "event"
    },
    {
      "anonymous": false,
      "inputs": [
        {
          "indexed": true,
          "internalType": "bytes32",
          "name": "id",
          "type": "bytes32"
        }
      ],
      "name": "RequestSent",
      "type": "event"
    },
    {
      "anonymous": false,
      "inputs": [
        {
          "indexed": true,
          "internalType": "bytes32",
          "name": "requestId",
          "type": "bytes32"
        },
        {
          "indexed": false,
          "internalType": "bytes",
          "name": "response",
          "type": "bytes"
        },
        {
          "indexed": false,
          "internalType": "bytes",
          "name": "err",
          "type": "bytes"
        }
      ],
      "name": "Response",
      "type": "event"
    },
    {
      "anonymous": false,
      "inputs": [
        {
          "indexed": false,
          "internalType": "address",
          "name": "upkeepAddress",
          "type": "address"
        }
      ],
      "name": "upkeepCreated",
      "type": "event"
    },
    {
      "anonymous": false,
      "inputs": [
        {
          "indexed": false,
          "internalType": "uint256",
          "name": "upkeepId",
          "type": "uint256"
        }
      ],
      "name": "upkeepRegistered",
      "type": "event"
    },
    {
      "inputs": [],
      "name": "acceptOwnership",
      "outputs": [],
      "stateMutability": "nonpayable",
      "type": "function"
    },
    {
      "inputs": [
        {
          "internalType": "bytes",
          "name": "",
          "type": "bytes"
        }
      ],
      "name": "checkUpkeep",
      "outputs": [
        {
          "internalType": "bool",
          "name": "upkeepNeeded",
          "type": "bool"
        },
        {
          "internalType": "bytes",
          "name": "",
          "type": "bytes"
        }
      ],
      "stateMutability": "view",
      "type": "function"
    },
    {
      "inputs": [],
      "name": "contractBalance",
      "outputs": [
        {
          "internalType": "uint256",
          "name": "",
          "type": "uint256"
        }
      ],
      "stateMutability": "view",
      "type": "function"
    },
    {
      "inputs": [],
      "name": "donID",
      "outputs": [
        {
          "internalType": "bytes32",
          "name": "",
          "type": "bytes32"
        }
      ],
      "stateMutability": "view",
      "type": "function"
    },
    {
      "inputs": [],
      "name": "farmer",
      "outputs": [
        {
          "internalType": "address",
          "name": "",
          "type": "address"
        }
      ],
      "stateMutability": "view",
      "type": "function"
    },
    {
      "inputs": [],
      "name": "fulfillGasLimit",
      "outputs": [
        {
          "internalType": "uint32",
          "name": "",
          "type": "uint32"
        }
      ],
      "stateMutability": "view",
      "type": "function"
    },
    {
      "inputs": [],
      "name": "gasLimit",
      "outputs": [
        {
          "internalType": "uint32",
          "name": "",
          "type": "uint32"
        }
      ],
      "stateMutability": "view",
      "type": "function"
    },
    {
      "inputs": [
        {
          "internalType": "bytes32",
          "name": "requestId",
          "type": "bytes32"
        },
        {
          "internalType": "bytes",
          "name": "response",
          "type": "bytes"
        },
        {
          "internalType": "bytes",
          "name": "err",
          "type": "bytes"
        }
      ],
      "name": "handleOracleFulfillment",
      "outputs": [],
      "stateMutability": "nonpayable",
      "type": "function"
    },
    {
      "inputs": [],
      "name": "humidityLimit",
      "outputs": [
        {
          "internalType": "uint256",
          "name": "",
          "type": "uint256"
        }
      ],
      "stateMutability": "view",
      "type": "function"
    },
    {
      "inputs": [],
      "name": "institution",
      "outputs": [
        {
          "internalType": "address",
          "name": "",
          "type": "address"
        }
      ],
      "stateMutability": "view",
      "type": "function"
    },
    {
      "inputs": [],
      "name": "lastUpkeepTimeStamp",
      "outputs": [
        {
          "internalType": "uint256",
          "name": "",
          "type": "uint256"
        }
      ],
      "stateMutability": "view",
      "type": "function"
    },
    {
      "inputs": [],
      "name": "latestError",
      "outputs": [
        {
          "internalType": "bytes",
          "name": "",
          "type": "bytes"
        }
      ],
      "stateMutability": "view",
      "type": "function"
    },
    {
      "inputs": [],
      "name": "latestRequestId",
      "outputs": [
        {
          "internalType": "bytes32",
          "name": "",
          "type": "bytes32"
        }
      ],
      "stateMutability": "view",
      "type": "function"
    },
    {
      "inputs": [],
      "name": "latestResponse",
      "outputs": [
        {
          "internalType": "bytes",
          "name": "",
          "type": "bytes"
        }
      ],
      "stateMutability": "view",
      "type": "function"
    },
    {
      "inputs": [],
      "name": "owner",
      "outputs": [
        {
          "internalType": "address",
          "name": "",
          "type": "address"
        }
      ],
      "stateMutability": "view",
      "type": "function"
    },
    {
      "inputs": [
        {
          "internalType": "bytes",
          "name": "",
          "type": "bytes"
        }
      ],
      "name": "performUpkeep",
      "outputs": [],
      "stateMutability": "nonpayable",
      "type": "function"
    },
    {
      "inputs": [],
      "name": "registry",
      "outputs": [
        {
          "internalType": "contract IAutomationRegistryConsumer",
          "name": "",
          "type": "address"
        }
      ],
      "stateMutability": "view",
      "type": "function"
    },
    {
      "inputs": [],
      "name": "reparationValue",
      "outputs": [
        {
          "internalType": "uint256",
          "name": "",
          "type": "uint256"
        }
      ],
      "stateMutability": "view",
      "type": "function"
    },
    {
      "inputs": [],
      "name": "request",
      "outputs": [
        {
          "internalType": "bytes",
          "name": "",
          "type": "bytes"
        }
      ],
      "stateMutability": "view",
      "type": "function"
    },
    {
      "inputs": [],
      "name": "requestCBOR",
      "outputs": [
        {
          "internalType": "bytes",
          "name": "",
          "type": "bytes"
        }
      ],
      "stateMutability": "view",
      "type": "function"
    },
    {
      "inputs": [],
      "name": "responseCounter",
      "outputs": [
        {
          "internalType": "uint256",
          "name": "",
          "type": "uint256"
        }
      ],
      "stateMutability": "view",
      "type": "function"
    },
    {
      "inputs": [],
      "name": "s_lastError",
      "outputs": [
        {
          "internalType": "bytes",
          "name": "",
          "type": "bytes"
        }
      ],
      "stateMutability": "view",
      "type": "function"
    },
    {
      "inputs": [],
      "name": "s_lastRequestId",
      "outputs": [
        {
          "internalType": "bytes32",
          "name": "",
          "type": "bytes32"
        }
      ],
      "stateMutability": "view",
      "type": "function"
    },
    {
      "inputs": [],
      "name": "s_lastResponse",
      "outputs": [
        {
          "internalType": "bytes",
          "name": "",
          "type": "bytes"
        }
      ],
      "stateMutability": "view",
      "type": "function"
    },
    {
      "inputs": [],
      "name": "s_requestCounter",
      "outputs": [
        {
          "internalType": "uint256",
          "name": "",
          "type": "uint256"
        }
      ],
      "stateMutability": "view",
      "type": "function"
    },
    {
      "inputs": [],
      "name": "s_responseCounter",
      "outputs": [
        {
          "internalType": "uint256",
          "name": "",
          "type": "uint256"
        }
      ],
      "stateMutability": "view",
      "type": "function"
    },
    {
      "inputs": [],
      "name": "s_upkeepCounter",
      "outputs": [
        {
          "internalType": "uint256",
          "name": "",
          "type": "uint256"
        }
      ],
      "stateMutability": "view",
      "type": "function"
    },
    {
      "inputs": [],
      "name": "sampleMaxSize",
      "outputs": [
        {
          "internalType": "uint256",
          "name": "",
          "type": "uint256"
        }
      ],
      "stateMutability": "view",
      "type": "function"
    },
    {
      "inputs": [
        {
          "internalType": "uint256",
          "name": "",
          "type": "uint256"
        }
      ],
      "name": "sampleStorage",
      "outputs": [
        {
          "internalType": "string",
          "name": "",
          "type": "string"
        }
      ],
      "stateMutability": "view",
      "type": "function"
    },
    {
      "inputs": [
        {
          "internalType": "bytes",
          "name": "newRequestCBOR",
          "type": "bytes"
        },
        {
          "internalType": "uint64",
          "name": "_subscriptionId",
          "type": "uint64"
        },
        {
          "internalType": "uint32",
          "name": "_fulfillGasLimit",
          "type": "uint32"
        },
        {
          "internalType": "bytes32",
          "name": "_donID",
          "type": "bytes32"
        },
        {
          "internalType": "uint256",
          "name": "_updateInterval",
          "type": "uint256"
        }
      ],
      "name": "setRequest",
      "outputs": [],
      "stateMutability": "nonpayable",
      "type": "function"
    },
    {
      "inputs": [],
      "name": "subscriptionId",
      "outputs": [
        {
          "internalType": "uint64",
          "name": "",
          "type": "uint64"
        }
      ],
      "stateMutability": "view",
      "type": "function"
    },
    {
      "inputs": [
        {
          "internalType": "address",
          "name": "to",
          "type": "address"
        }
      ],
      "name": "transferOwnership",
      "outputs": [],
      "stateMutability": "nonpayable",
      "type": "function"
    },
    {
      "inputs": [],
      "name": "updateInterval",
      "outputs": [
        {
          "internalType": "uint256",
          "name": "",
          "type": "uint256"
        }
      ],
      "stateMutability": "view",
      "type": "function"
    },
    {
      "inputs": [],
      "name": "upkeepContract",
      "outputs": [
        {
          "internalType": "address",
          "name": "",
          "type": "address"
        }
      ],
      "stateMutability": "view",
      "type": "function"
    },
    {
      "inputs": [],
      "name": "upkeepCounter",
      "outputs": [
        {
          "internalType": "uint256",
          "name": "",
          "type": "uint256"
        }
      ],
      "stateMutability": "view",
      "type": "function"
    },
    {
      "inputs": [],
      "name": "upkeepId",
      "outputs": [
        {
          "internalType": "uint256",
          "name": "",
          "type": "uint256"
        }
      ],
      "stateMutability": "view",
      "type": "function"
    }
  ],
  "bytecode": "0x6001600160401b0360c0601f620032c438819003918201601f191683019184831184841017620001cc5780849261018094604052833981010312620001c7576200004981620001e2565b916200005860208301620001e2565b604083015160608401519160808501519360a0860151926200007d60c08801620001e2565b9260e0880151928316809303620001c757610160620000a06101008a01620001e2565b98620000b06101208201620001e2565b50620000c06101408201620001e2565b5001519363ffffffff85168503620001c7576001600160a01b039081166080529889169081156200018257899060018060a01b0319928084600054161760005583601654161760165516906017541617601755601a556bffffffff00000000000000006006549260401b169160018060601b0319161717600655600755601b556019551660a052426008556040516130cc9081620001f882396080518181816103db01528181611ad20152611cc4015260a0518181816110c20152611d100152f35b60405162461bcd60e51b815260206004820152601860248201527f43616e6e6f7420736574206f776e657220746f207a65726f00000000000000006044820152606490fd5b600080fd5b634e487b7160e01b600052604160045260246000fd5b51906001600160a01b0382168203620001c75756fe6080604052600436101561001257600080fd5b60003560e01c8063089ea02e1461025757806309c1ba2e146102525780630ca761751461024d5780631aa46f591461024857806324b93e3e14610243578063277e22131461023e578063338cdca114610239578063381fc4b5146102345780633944ea3a1461022f57806343cd3d861461022a5780634585e33b14610225578063472cbbb01461022057806348802b921461021b57806348bd6f05146102165780634b0795a8146102115780635e0611f11461020c578063688ecfd1146102075780636e04ff0d146102025780636e74336b146101fd57806379ba5097146101f85780637b103999146101f35780638b7afe2e146101ee5780638da5cb5b146101e9578063a3097139146101e4578063a3d3c0d2146101df578063b1e21749146101da578063bef3a2f0146101d5578063d1384eb6146101d0578063d2aa789f146101cb578063d811fcf0146101c6578063ebf14a55146101c1578063f2fde38b146101bc578063f5c1279b146101b7578063f68016b7146101b2578063fd2c80ae146101ad5763fffeb84e146101a857600080fd5b6113e7565b6113c9565b6113a5565b611387565b6112b4565b611296565b61126f565b611251565b61122a565b611183565b611165565b611147565b611129565b611102565b6110e6565b6110a2565b610fc2565b610fa4565b610f2b565b610e84565b610e5d565b610db6565b610d98565b610d7a565b610bc3565b610af7565b610aab565b610a04565b6109e6565b610905565b61089c565b6105fa565b6105dc565b610382565b61028a565b61026c565b600091031261026757565b600080fd5b34610267576000366003190112610267576020600854604051908152f35b3461026757600036600319011261026757602067ffffffffffffffff60065416604051908152f35b634e487b7160e01b600052604160045260246000fd5b67ffffffffffffffff81116102dc57604052565b6102b2565b6040810190811067ffffffffffffffff8211176102dc57604052565b90601f8019910116810190811067ffffffffffffffff8211176102dc57604052565b67ffffffffffffffff81116102dc57601f01601f191660200190565b81601f82011215610267578035906103528261031f565b9261036060405194856102fd565b8284526020838301011161026757816000926020809301838601378301015290565b3461026757606036600319011261026757600480359067ffffffffffffffff90602435828111610267576103b9903690830161033b565b604435838111610267576103d0903690840161033b565b906001600160a01b037f00000000000000000000000000000000000000000000000000000000000000001633036105b35780519384116102dc578261041f8561041a889654610689565b6114fd565b602080601f8711600114610509575094807f7bab0ec163b5c132c72b8146ac4d6e067e82ed58f8b131150aa71c925891156295966000916104fe575b508160011b916000199060031b1c19161790555b61047882612d4f565b61048b610486600a546116ed565b600a55565b60ff610499600b5460ff1690565b166104e0576104a781612e5c565b6104b660405192839283612f59565b0390a27f85e1543bf2f84fe80c6badbce3648c8539ad1df4d2b3d822938ca0538be727e6600080a2005b6104f16104ec82612e39565b601e55565b6104f9612fc9565b6104a7565b90508301513861045b565b600460005290601f1987167f8a35acfbc15ff81a39ae7d344fd709f28e8600b4aa8c65c6b64bfe7fe36bd19b926000905b8282106105975750509187917f7bab0ec163b5c132c72b8146ac4d6e067e82ed58f8b131150aa71c925891156297986001941061057e575b5050811b01905561046f565b85015160001960f88460031b161c191690553880610572565b8684015185558a9850600190940193928301929081019061053a565b826040517fc6829f83000000000000000000000000000000000000000000000000000000008152fd5b34610267576000366003190112610267576020600354604051908152f35b3461026757600036600319011261026757602060065463ffffffff6040519160401c168152f35b634e487b7160e01b600052603260045260246000fd5b601c5481101561066e57601c6000527f0e4562a10381dec21b205ed72637e6b1b523bdd0e4d4d50af5cd23dd4500a2110190600090565b610621565b634e487b7160e01b600052600060045260246000fd5b90600182811c921680156106b9575b60208310146106a357565b634e487b7160e01b600052602260045260246000fd5b91607f1691610698565b60405190600082601d54916106d783610689565b8083529260019081811690811561075f5750600114610700575b506106fe925003836102fd565b565b601d600090815291507f6d4407e7be21f808e6509aa9fa9143369579dd7d760fe20a2c09680fc146134f5b84831061074457506106fe9350508101602001386106f1565b81935090816020925483858a0101520191019091859261072b565b9050602092506106fe94915060ff191682840152151560051b820101386106f1565b906040519182600082549261079584610689565b90818452600194858116908160001461080257506001146107bf575b50506106fe925003836102fd565b9093915060005260209081600020936000915b8183106107ea5750506106fe935082010138806107b1565b855488840185015294850194879450918301916107d2565b9150506106fe94506020925060ff191682840152151560051b82010138806107b1565b60005b82811061083757506000910152565b608081015182820152602001610828565b919082519283825260005b848110610874575050826000602080949584010152601f8019910116010190565b602081830181015184830182015201610853565b906020610899928181520190610848565b90565b3461026757602036600319011261026757600435601c54811015610267576108ed61090191601c6000527f0e4562a10381dec21b205ed72637e6b1b523bdd0e4d4d50af5cd23dd4500a21101610781565b604051918291602083526020830190610848565b0390f35b34610267576000806003193601126109e3576040519080600d5461092881610689565b808552916001918083169081156109b9575060011461095e575b61090185610952818703826102fd565b60405191829182610888565b9250600d83527fd7b6990105719101dabeb77144f2a3385c8033acd3af97e9423a695e81ad1eb55b8284106109a157505050810160200161095282610901610942565b80546020858701810191909152909301928101610986565b8695506109019693506020925061095294915060ff191682840152151560051b8201019293610942565b80fd5b34610267576000366003190112610267576020600a54604051908152f35b34610267576000806003193601126109e3576040519080601154610a2781610689565b808552916001918083169081156109b95750600114610a505761090185610952818703826102fd565b9250601183527f31ecc21a745e3968a04e9570e4425bc18fa8019c68028196b546d1669c200c685b828410610a9357505050810160200161095282610901610942565b80546020858701810191909152909301928101610a78565b34610267576000366003190112610267576020601554604051908152f35b9181601f840112156102675782359167ffffffffffffffff8311610267576020838186019501011161026757565b346102675760203660031901126102675760043567ffffffffffffffff811161026757610b28903690600401610ac9565b50506000546001600160a01b03163381141580610b99575b610b4e57610b4c611a2f565b005b6018546040517f426fbc710000000000000000000000000000000000000000000000000000000081523360048201526001600160a01b03928316602482015291166044820152606490fd5b50610bbb610baf6018546001600160a01b031690565b6001600160a01b031690565b331415610b40565b346102675760a03660031901126102675767ffffffffffffffff60043581811161026757610bf5903690600401610ac9565b60243592918383168403610267576044359263ffffffff8416840361026757610c1c61148e565b82116102dc57610c3682610c31600254610689565b61155e565b600090601f8311600114610cd6579180610cb59592610c8a94600092610ccb575b50508160011b916000199060031b1c19161760025567ffffffffffffffff1667ffffffffffffffff196006541617600655565b6bffffffff00000000000000006006549160401b16906bffffffff0000000000000000191617600655565b610cc0606435600f55565b610b4c608435600755565b013590503880610c57565b60026000527f405787fa12a823e0f2b7631cc41b3ba8828b3321ca811111fa75cd3aa3bb5ace91601f198416815b818110610d625750926001928592610c8a96610cb5999610610d48575b505050811b0160025567ffffffffffffffff1667ffffffffffffffff196006541617600655565b0135600019600384901b60f8161c19169055388080610d21565b91936020600181928787013581550195019201610d04565b34610267576000366003190112610267576020601454604051908152f35b34610267576000366003190112610267576020601954604051908152f35b34610267576000806003193601126109e3576040519080601254610dd981610689565b808552916001918083169081156109b95750600114610e025761090185610952818703826102fd565b9250601283527fbb8a6a4669ba250d26cd7a459eca9d215f8307e33aebe50379bc5a3617ec34445b828410610e4557505050810160200161095282610901610942565b80546020858701810191909152909301928101610e2a565b346102675760003660031901126102675760206001600160a01b0360185416604051908152f35b34610267576000806003193601126109e3576040519080600254610ea781610689565b808552916001918083169081156109b95750600114610ed05761090185610952818703826102fd565b9250600283527f405787fa12a823e0f2b7631cc41b3ba8828b3321ca811111fa75cd3aa3bb5ace5b828410610f1357505050810160200161095282610901610942565b80546020858701810191909152909301928101610ef8565b346102675760203660031901126102675760043567ffffffffffffffff811161026757610f5c90369060040161033b565b506008544203428111610f9f5760075410604051908152604060208201526060818151806040830152610f9181848401610825565b601f01601f19168101030190f35b611644565b34610267576000366003190112610267576020600f54604051908152f35b34610267576000806003193601126109e3576001600160a01b038060015416330361105e5781546001600160a01b03166000805473ffffffffffffffffffffffffffffffffffffffff1916331790559061103473ffffffffffffffffffffffffffffffffffffffff1960015416600155565b3391167f8be0079c531659141344cd1fd0a4f28419497f9722a3daafe3b4186f6b6457e08380a380f35b606460405162461bcd60e51b815260206004820152601660248201527f4d7573742062652070726f706f736564206f776e6572000000000000000000006044820152fd5b346102675760003660031901126102675760206040516001600160a01b037f0000000000000000000000000000000000000000000000000000000000000000168152f35b3461026757600036600319011261026757602047604051908152f35b346102675760003660031901126102675760206001600160a01b0360005416604051908152f35b34610267576000366003190112610267576020601a54604051908152f35b34610267576000366003190112610267576020600954604051908152f35b34610267576000366003190112610267576020601054604051908152f35b34610267576000806003193601126109e35760405190806004546111a681610689565b808552916001918083169081156109b957506001146111cf5761090185610952818703826102fd565b9250600483527f8a35acfbc15ff81a39ae7d344fd709f28e8600b4aa8c65c6b64bfe7fe36bd19b5b82841061121257505050810160200161095282610901610942565b805460208587018101919091529093019281016111f7565b346102675760003660031901126102675760206001600160a01b0360165416604051908152f35b34610267576000366003190112610267576020600c54604051908152f35b346102675760003660031901126102675760206001600160a01b0360175416604051908152f35b34610267576000366003190112610267576020601b54604051908152f35b34610267576020366003190112610267576004356001600160a01b038116809103610267576112e161148e565b338114611343578073ffffffffffffffffffffffffffffffffffffffff19600154161760015561131c610baf6000546001600160a01b031690565b7fed8889f560326eb138920d842192f0eb3dd22b4f139c87a2c57538e05bae1278600080a3005b606460405162461bcd60e51b815260206004820152601760248201527f43616e6e6f74207472616e7366657220746f2073656c660000000000000000006044820152fd5b34610267576000366003190112610267576020601354604051908152f35b3461026757600036600319011261026757602063ffffffff600e5416604051908152f35b34610267576000366003190112610267576020600754604051908152f35b34610267576000806003193601126109e357604051908060055461140a81610689565b808552916001918083169081156109b957506001146114335761090185610952818703826102fd565b9250600583527f036b6384b5eca791c62761152d0c79bb0604c104a5fb6f4eb0703f3154bb3db05b82841061147657505050810160200161095282610901610942565b8054602085870181019190915290930192810161145b565b6001600160a01b036000541633036114a257565b606460405162461bcd60e51b815260206004820152601660248201527f4f6e6c792063616c6c61626c65206279206f776e6572000000000000000000006044820152fd5b8181106114f1575050565b600081556001016114e6565b90601f821161150a575050565b6106fe9160046000527f8a35acfbc15ff81a39ae7d344fd709f28e8600b4aa8c65c6b64bfe7fe36bd19b906020601f840160051c83019310611554575b601f0160051c01906114e6565b9091508190611547565b90601f821161156b575050565b6106fe9160026000527f405787fa12a823e0f2b7631cc41b3ba8828b3321ca811111fa75cd3aa3bb5ace906020601f840160051c8301931061155457601f0160051c01906114e6565b90601f82116115c1575050565b6106fe9160056000527f036b6384b5eca791c62761152d0c79bb0604c104a5fb6f4eb0703f3154bb3db0906020601f840160051c8301931061155457601f0160051c01906114e6565b9190601f811161161957505050565b6106fe926000526020600020906020601f840160051c8301931061155457601f0160051c01906114e6565b634e487b7160e01b600052601160045260246000fd5b601f19810191908211610f9f57565b60606008544203428111610f9f576007541091565b604051906020820182811067ffffffffffffffff8211176102dc5760405260008252565b156116a957565b606460405162461bcd60e51b815260206004820152601560248201527f54696d6520696e74657276616c206e6f74206d657400000000000000000000006044820152fd5b9060018201809211610f9f57565b9060208201809211610f9f57565b91908201809211610f9f57565b1561171d57565b606460405162461bcd60e51b815260206004820152601560248201527f55706b656570206e6f74207265676973746572656400000000000000000000006044820152fd5b6040519060e0820182811067ffffffffffffffff8211176102dc57604052606060c08360008152600060208201526000604082015282808201528260808201528260a08201520152565b601c549067ffffffffffffffff82116102dc576040519160206117d3818360051b01856102fd565b81845280840190601c6000527f0e4562a10381dec21b205ed72637e6b1b523bdd0e4d4d50af5cd23dd4500a2116000925b848410611812575050505050565b600183819261182085610781565b815201920193019290611804565b90816020910312610267575190565b9061186b60809367ffffffffffffffff63ffffffff939897969816845260a0602085015260a0840190610848565b95600160408401521660608201520152565b6040513d6000823e3d90fd5b60009060033d1161189657565b905060046000803e60005160e01c90565b600060443d1061089957604051600319913d83016004833e815167ffffffffffffffff918282113d6024840111176119055781840194855193841161190d573d850101602084870101116119055750610899929101602001906102fd565b949350505050565b50949350505050565b3d15611941573d906119278261031f565b9161193560405193846102fd565b82523d6000602084013e565b606090565b9067ffffffffffffffff909493929416815260209360a08583015260006002549561197087610689565b908160a08601526001978881169081600014611a0657506001146119aa575b5050604083019590955263ffffffff16606082015260800152565b600260009081529250877f405787fa12a823e0f2b7631cc41b3ba8828b3321ca811111fa75cd3aa3bb5ace5b8385106119f15750505050820160c0018163ffffffff61198f565b805487860160c00152938201938991016119d6565b60ff191660c08781019190915292151560051b8601909201925083915063ffffffff905061198f565b611a3761167e565b50611a49611a43611669565b506116a2565b611a5242600855565b611a65611a606009546116ed565b600955565b601b54601c541015611c1457611a84611a7f6013546116ed565b601355565b60065467ffffffffffffffff166020611aa2600e5463ffffffff1690565b600f5492611ac4604051948593849363230e93b160e11b855260048501611946565b038160006001600160a01b037f0000000000000000000000000000000000000000000000000000000000000000165af160009181611be4575b50611ba157506001611b0d611889565b6308c379a014611b4f575b611b1e57565b7f9c4bfa18304482256875c29fabb1a44a5ecd325f214ea17bab8f31e869faf4c8611b4a610952611916565b0390a1565b611b576118a7565b80611b63575b50611b18565b90507f2ba61e3733e7ac99181c22307780f651ec8fd92fe661a84dfbe711710b2dc36c611b9860009260405191829182610888565b0390a138611b5d565b611baa81601055565b611bbd611bb86014546116ed565b601455565b7f1131472297a800fee664d1d89cfa8f7676ff07189ecc53f80bbb5f4969099db8600080a2565b611c0691925060203d8111611c0d575b611bfe81836102fd565b81019061182e565b9038611afd565b503d611bf4565b611c21600c541515611716565b611c33600160ff19600b541617600b55565b611c65611c3e611761565b611c4f611c496106c3565b82612250565b611c60611c5a6117ab565b82612291565b612065565b611c73611a7f6013546116ed565b60065467ffffffffffffffff16611caf611c92600e5463ffffffff1690565b600f549060405194859463230e93b160e11b86526004860161183d565b036000916020816001600160a01b03938186867f0000000000000000000000000000000000000000000000000000000000000000165af1839181611e64575b50611e2457506001611cfe611889565b6308c379a014611dd3575b611d9f575b7f000000000000000000000000000000000000000000000000000000000000000016600c54813b15611d9b576040517f8765ecbe000000000000000000000000000000000000000000000000000000008152600481019190915291908290602490829084905af18015611d9657611d83575b50565b80611d906106fe926102c8565b8061025c565b61187d565b8280fd5b7f9c4bfa18304482256875c29fabb1a44a5ecd325f214ea17bab8f31e869faf4c8611dcb610952611916565b0390a1611d0e565b611ddb6118a7565b80611de7575b50611d09565b90507f2ba61e3733e7ac99181c22307780f651ec8fd92fe661a84dfbe711710b2dc36c611e1b849260405191829182610888565b0390a138611de1565b611e2d81601055565b611e3b611bb86014546116ed565b7f1131472297a800fee664d1d89cfa8f7676ff07189ecc53f80bbb5f4969099db88380a2611d0e565b611e7d91925060203d8111611c0d57611bfe81836102fd565b9038611cee565b60405190611e91826102e1565b600c82527f636f64654c6f636174696f6e00000000000000000000000000000000000000006020830152565b634e487b7160e01b600052602160045260246000fd5b60031115611edd57565b611ebd565b60405190611eef826102e1565b600882527f6c616e67756167650000000000000000000000000000000000000000000000006020830152565b60011115611edd57565b60405190611f32826102e1565b600682527f736f7572636500000000000000000000000000000000000000000000000000006020830152565b60405190611f6b826102e1565b600482527f61726773000000000000000000000000000000000000000000000000000000006020830152565b6000198114610f9f5760010190565b805182101561066e5760209160051b010190565b60405190611fc7826102e1565b600f82527f736563726574734c6f636174696f6e00000000000000000000000000000000006020830152565b60405190612000826102e1565b600782527f73656372657473000000000000000000000000000000000000000000000000006020830152565b60405190612039826102e1565b600982527f62797465734172677300000000000000000000000000000000000000000000006020830152565b61206d6122e2565b9061207f612079611e84565b83612a0e565b61209c815161208d81611ed3565b61209681611ed3565b83612384565b6120a7612079611ee2565b6120c160408201516120b881611f1b565b61209681611f1b565b6120cc612079611f25565b6120da606082015183612a0e565b60a081018051516121f7575b50608081019081515161215f575b60c0915001805151612107575b50515190565b9161211361207961202c565b61211c82612a93565b60005b8351805182101561214c579061214261213b8261214794611fa6565b518561295b565b611f97565b61211f565b5050915061215981612b1f565b38612101565b60208101805161216e81611ed3565b61217781611ed3565b156121cd5760c0926121b06121c892612197612191611fba565b88612a0e565b516121a181611ed3565b6121aa81611ed3565b86612384565b6121c16121bb611ff3565b86612a0e565b518461295b565b6120f4565b60046040517fa80d31f7000000000000000000000000000000000000000000000000000000008152fd5b92612209612203611f5e565b84612a0e565b61221283612a93565b60005b8451805182101561223d57906121426122318261223894611fa6565b5186612a0e565b612215565b5050925061224a82612b1f565b386120e6565b815115612267576000808252604082015260600152565b60046040517f22ce3edd000000000000000000000000000000000000000000000000000000008152fd5b81511561229e5760a00152565b60046040517ffe936cb7000000000000000000000000000000000000000000000000000000008152fd5b604051906122d5826102e1565b6000602083606081520152565b6040516122ee816102e1565b6122f66122c8565b80825260208201600081526123096122c8565b506101006020830152604051809252600082526101208201918210610267576000916040525290565b9061233b6122c8565b50601f81168061236a575b50806020830152604051908183526000825281016020019081106102675760405290565b60200360208111610f9f578101809111610f9f5738612346565b908151916123906122c8565b508251516001810190818111610f9f5760208501518110156123e9575b60c260206106fe96519283010153805182116123e1575b5050604051916020830152602082526123dc826102e1565b61295b565b5238806123c4565b8160011b9482860460021483151715610f9f5760208161241b6106fe9861241460c295519184612332565b50826128a3565b50965050506123ad565b908160011b9180830460021490151715610f9f57565b6124436122c8565b508051516001810190818111610f9f57602083015181101561247c575b605b6020845192830101538051821161247857505090565b5290565b8160011b82810460021483151715610f9f576124a59061249e85519186612332565b50846128a3565b50612460565b6124b36122c8565b508051516001810190818111610f9f5760208301518110156124e8575b605a6020845192830101538051821161247857505090565b8160011b82810460021483151715610f9f5761250a9061249e85519186612332565b506124d0565b6125186122c8565b508051516001810190818111610f9f57602083015181101561254d575b60596020845192830101538051821161247857505090565b8160011b82810460021483151715610f9f5761256f9061249e85519186612332565b50612535565b61257d6122c8565b508051516001810190818111610f9f5760208301518110156125b2575b60586020845192830101538051821161247857505090565b8160011b82810460021483151715610f9f576125d49061249e85519186612332565b5061259a565b6125e26122c8565b508051516001810190818111610f9f576020830151811015612617575b607b6020845192830101538051821161247857505090565b8160011b82810460021483151715610f9f576126399061249e85519186612332565b506125ff565b6126476122c8565b508051516001810190818111610f9f57602083015181101561267c575b607a6020845192830101538051821161247857505090565b8160011b82810460021483151715610f9f5761269e9061249e85519186612332565b50612664565b6126ac6122c8565b508051516001810190818111610f9f5760208301518110156126e1575b60796020845192830101538051821161247857505090565b8160011b82810460021483151715610f9f576127039061249e85519186612332565b506126c9565b6127116122c8565b508051516001810190818111610f9f576020830151811015612746575b60786020845192830101538051821161247857505090565b8160011b82810460021483151715610f9f576127689061249e85519186612332565b5061272e565b906127776122c8565b508151516001810191828211610f9f5760208401518210156127aa575b6020845192830101538051821161247857505090565b8260011b83810460021484151715610f9f576127d3906127cc86519187612332565b50856128a3565b50612794565b906127e682519183612332565b506127ef6122c8565b508051906127fb6122c8565b506128098151831115612954565b825151926128178385611709565b91602092828480940151821161288c575b5183815197820101968211612884575b505001915b8181101561285e5760001991036101000a0190811990511690825116179052565b919261287961287361287f92865181526116fb565b946116fb565b9261165a565b61283d565b523880612838565b61289e61289883612425565b826127d9565b612828565b906128ac6122c8565b5080516128b76122c8565b506128c58251821115612954565b825151916128d38284611709565b602091829182870151811161293d575b865183815197820101968211612935575b505001915b8181101561291b5760001991036101000a019081199051169082511617905290565b919261287961287361293092865181526116fb565b6128f9565b5238806128f4565b61294f61294982612425565b886127d9565b6128e3565b1561026757565b8151611d8092919067ffffffffffffffff811690601782116129935761298b9150604060ff84519216179061276e565b505b516128a3565b5060ff81116129b8576129b2906129aa8351612575565b508251612ce9565b5061298d565b61ffff81116129d7576129b2906129cf8351612510565b508251612c82565b63ffffffff81116129f8576129b2906129f083516124ab565b508251612c19565b6129b290612a06835161243b565b508251612bac565b8151611d8092919067ffffffffffffffff81169060178211612a3e5761298b9150606060ff84519216179061276e565b5060ff8111612a55576129b2906129aa8351612709565b61ffff8111612a6c576129b2906129cf83516126a4565b63ffffffff8111612a85576129b2906129f0835161263f565b6129b290612a0683516125da565b805190612a9e6122c8565b508151516001810190818111610f9f576020840151811015612aec575b609f6020809551928301015380518211612ae4575b50500180519060018201809211610f9f5752565b523880612ad0565b8160011b9382850460021483151715610f9f57602081612b158297612414609f95519184612332565b5095505050612abb565b805190612b2a6122c8565b508151516001810190818111610f9f576020840151811015612b79575b60ff6020809551928301015380518211612b71575b5050018051600019810191908211610f9f5752565b523880612b5c565b8160011b9382850460021483151715610f9f57602081612ba2829761241460ff95519184612332565b5095505050612b47565b90612bb56122c8565b50815151806008019182600811610f9f5760208401518311612bf8575b60088451928301019067ffffffffffffffff198251161790528051821161247857505090565b8260011b83810460021484151715610f9f57612c1490856127d9565b612bd2565b90612c226122c8565b50815151806004019182600411610f9f5760208401518311612c61575b60048451928301019063ffffffff198251161790528051821161247857505090565b8260011b83810460021484151715610f9f57612c7d90856127d9565b612c3f565b90612c8b6122c8565b50815151806002019182600211610f9f5760208401518311612cc8575b60028451928301019061ffff198251161790528051821161247857505090565b8260011b83810460021484151715610f9f57612ce490856127d9565b612ca8565b90612cf26122c8565b50815151806001019182600111610f9f5760208401518311612d2e575b60018451928301019060ff198251161790528051821161247857505090565b8260011b83810460021484151715610f9f57612d4a90856127d9565b612d0f565b90815167ffffffffffffffff81116102dc57612d7581612d70600554610689565b6115b4565b602080601f8311600114612db15750819293600092612da6575b50508160011b916000199060031b1c191617600555565b015190503880612d8f565b90601f19831694612de460056000527f036b6384b5eca791c62761152d0c79bb0604c104a5fb6f4eb0703f3154bb3db090565b926000905b878210612e21575050836001959610612e08575b505050811b01600555565b015160001960f88460031b161c19169055388080612dfd565b80600185968294968601518155019501930190612de9565b602081519101519060208110612e4d575090565b6000199060200360031b1b1690565b601c54680100000000000000008110156102dc57612e81600191828101601c55610637565b929092612f545780519067ffffffffffffffff82116102dc57612eae82612ea88654610689565b8661160a565b60209081601f8411600114612eea5750928293918392600094612edf575b50501b916000199060031b1c1916179055565b015192503880612ecc565b919083601f198116612f0188600052602060002090565b946000905b88838310612f3a5750505010612f21575b505050811b019055565b015160001960f88460031b161c19169055388080612f17565b858701518855909601959485019487935090810190612f06565b610673565b9091612f7061089993604084526040840190610848565b916020818403910152610848565b15612f8557565b606460405162461bcd60e51b815260206004820152601b60248201527f4572726f20616f207061676172206120696e64656e697a6163616f00000000006044820152fd5b601e54601a541115613007576106fe6000808080612ff5610baf610baf6017546001600160a01b031690565b47905af1613001611916565b50612f7e565b60008080806001600160a01b036016541647905af1613024611916565b501561302c57565b608460405162461bcd60e51b815260206004820152602d60248201527f4572726f20616f207265746f726e6172206f732066756e646f7320706172612060448201527f6120696e73746974756963616f000000000000000000000000000000000000006064820152fdfea2646970667358221220cc8009dfe7bec07a20df5bc39458d8ebcd6c886be4026a6b83fa75e14a32ad4c64736f6c63430008130033",
  "linkReferences": {},
  "deployedLinkReferences": {}
}