{
  "_format": "hh-sol-artifact-1",
  "contractName": "AutomatedFunctionsConsumer",
  "sourceName": "contracts/mock/mockAutomatedFunctionsConsumer.sol",
  "abi": [
    {
      "inputs": [
        {
          "internalType": "address",
          "name": "_deployer",
          "type": "address"
        },
        {
          "internalType": "address",
          "name": "_farmer",
          "type": "address"
        },
        {
          "internalType": "uint256",
          "name": "_humidityLimit",
          "type": "uint256"
        },
        {
          "internalType": "uint256",
          "name": "_sampleMaxSize",
          "type": "uint256"
        },
        {
          "internalType": "uint256",
          "name": "_reparationValue",
          "type": "uint256"
        },
        {
          "internalType": "uint256",
          "name": "_interval",
          "type": "uint256"
        },
        {
          "internalType": "address",
          "name": "_router",
          "type": "address"
        },
        {
          "internalType": "uint64",
          "name": "_subscriptionId",
          "type": "uint64"
        },
        {
          "internalType": "address",
          "name": "_registry",
          "type": "address"
        },
        {
          "internalType": "address",
          "name": "_sepoliaLINKAddress",
          "type": "address"
        },
        {
          "internalType": "address",
          "name": "_sepoliaRegistrarAddress",
          "type": "address"
        },
        {
          "internalType": "uint32",
          "name": "_fulfillGasLimit",
          "type": "uint32"
        }
      ],
      "stateMutability": "payable",
      "type": "constructor"
    },
    {
      "inputs": [
        {
          "internalType": "address",
          "name": "caller",
          "type": "address"
        },
        {
          "internalType": "address",
          "name": "owner",
          "type": "address"
        },
        {
          "internalType": "address",
          "name": "automationRegistry",
          "type": "address"
        }
      ],
      "name": "NotAllowedCaller",
      "type": "error"
    },
    {
      "inputs": [
        {
          "internalType": "bytes32",
          "name": "requestId",
          "type": "bytes32"
        }
      ],
      "name": "UnexpectedRequestID",
      "type": "error"
    },
    {
      "anonymous": false,
      "inputs": [
        {
          "indexed": false,
          "internalType": "uint8",
          "name": "controlFlag",
          "type": "uint8"
        }
      ],
      "name": "ControlFlagValue",
      "type": "event"
    },
    {
      "anonymous": false,
      "inputs": [
        {
          "indexed": true,
          "internalType": "bytes32",
          "name": "requestId",
          "type": "bytes32"
        },
        {
          "indexed": false,
          "internalType": "bytes",
          "name": "result",
          "type": "bytes"
        },
        {
          "indexed": false,
          "internalType": "bytes",
          "name": "err",
          "type": "bytes"
        }
      ],
      "name": "OCRResponse",
      "type": "event"
    },
    {
      "anonymous": false,
      "inputs": [
        {
          "indexed": true,
          "internalType": "address",
          "name": "from",
          "type": "address"
        },
        {
          "indexed": true,
          "internalType": "address",
          "name": "to",
          "type": "address"
        }
      ],
      "name": "OwnershipTransferRequested",
      "type": "event"
    },
    {
      "anonymous": false,
      "inputs": [
        {
          "indexed": true,
          "internalType": "address",
          "name": "from",
          "type": "address"
        },
        {
          "indexed": true,
          "internalType": "address",
          "name": "to",
          "type": "address"
        }
      ],
      "name": "OwnershipTransferred",
      "type": "event"
    },
    {
      "anonymous": false,
      "inputs": [
        {
          "indexed": false,
          "internalType": "bytes32",
          "name": "requestId",
          "type": "bytes32"
        }
      ],
      "name": "RequestIdUpdated",
      "type": "event"
    },
    {
      "anonymous": false,
      "inputs": [
        {
          "indexed": false,
          "internalType": "string",
          "name": "reason",
          "type": "string"
        }
      ],
      "name": "RequestRevertedWithErrorMsg",
      "type": "event"
    },
    {
      "anonymous": false,
      "inputs": [
        {
          "indexed": false,
          "internalType": "bytes",
          "name": "data",
          "type": "bytes"
        }
      ],
      "name": "RequestRevertedWithoutErrorMsg",
      "type": "event"
    },
    {
      "anonymous": false,
      "inputs": [
        {
          "indexed": true,
          "internalType": "bytes32",
          "name": "id",
          "type": "bytes32"
        }
      ],
      "name": "RequestSent",
      "type": "event"
    },
    {
      "anonymous": false,
      "inputs": [
        {
          "indexed": true,
          "internalType": "bytes32",
          "name": "requestId",
          "type": "bytes32"
        },
        {
          "indexed": false,
          "internalType": "bytes",
          "name": "response",
          "type": "bytes"
        },
        {
          "indexed": false,
          "internalType": "bytes",
          "name": "err",
          "type": "bytes"
        }
      ],
      "name": "Response",
      "type": "event"
    },
    {
      "anonymous": false,
      "inputs": [
        {
          "indexed": false,
          "internalType": "uint256",
          "name": "length",
          "type": "uint256"
        }
      ],
      "name": "sampleStorageLength",
      "type": "event"
    },
    {
      "anonymous": false,
      "inputs": [
        {
          "indexed": false,
          "internalType": "address",
          "name": "upkeepAddress",
          "type": "address"
        }
      ],
      "name": "upkeepCreated",
      "type": "event"
    },
    {
      "anonymous": false,
      "inputs": [
        {
          "indexed": false,
          "internalType": "uint256",
          "name": "upkeepId",
          "type": "uint256"
        }
      ],
      "name": "upkeepRegistered",
      "type": "event"
    },
    {
      "inputs": [],
      "name": "REQUEST_DATA_VERSION",
      "outputs": [
        {
          "internalType": "uint16",
          "name": "",
          "type": "uint16"
        }
      ],
      "stateMutability": "view",
      "type": "function"
    },
    {
      "inputs": [],
      "name": "acceptOwnership",
      "outputs": [],
      "stateMutability": "nonpayable",
      "type": "function"
    },
    {
      "inputs": [
        {
          "internalType": "bytes",
          "name": "",
          "type": "bytes"
        }
      ],
      "name": "checkUpkeep",
      "outputs": [
        {
          "internalType": "bool",
          "name": "upkeepNeeded",
          "type": "bool"
        },
        {
          "internalType": "bytes",
          "name": "performData",
          "type": "bytes"
        }
      ],
      "stateMutability": "view",
      "type": "function"
    },
    {
      "inputs": [],
      "name": "computationCBOR",
      "outputs": [
        {
          "internalType": "bytes",
          "name": "",
          "type": "bytes"
        }
      ],
      "stateMutability": "view",
      "type": "function"
    },
    {
      "inputs": [],
      "name": "contractBalance",
      "outputs": [
        {
          "internalType": "uint256",
          "name": "",
          "type": "uint256"
        }
      ],
      "stateMutability": "view",
      "type": "function"
    },
    {
      "inputs": [],
      "name": "donID",
      "outputs": [
        {
          "internalType": "bytes32",
          "name": "",
          "type": "bytes32"
        }
      ],
      "stateMutability": "view",
      "type": "function"
    },
    {
      "inputs": [],
      "name": "farmer",
      "outputs": [
        {
          "internalType": "address",
          "name": "",
          "type": "address"
        }
      ],
      "stateMutability": "view",
      "type": "function"
    },
    {
      "inputs": [],
      "name": "fulfillGasLimit",
      "outputs": [
        {
          "internalType": "uint32",
          "name": "",
          "type": "uint32"
        }
      ],
      "stateMutability": "view",
      "type": "function"
    },
    {
      "inputs": [
        {
          "internalType": "bytes32",
          "name": "requestId",
          "type": "bytes32"
        },
        {
          "internalType": "bytes",
          "name": "response",
          "type": "bytes"
        },
        {
          "internalType": "bytes",
          "name": "err",
          "type": "bytes"
        }
      ],
      "name": "fulfillRequest",
      "outputs": [],
      "stateMutability": "nonpayable",
      "type": "function"
    },
    {
      "inputs": [],
      "name": "gasLimit",
      "outputs": [
        {
          "internalType": "uint32",
          "name": "",
          "type": "uint32"
        }
      ],
      "stateMutability": "view",
      "type": "function"
    },
    {
      "inputs": [],
      "name": "humidityLimit",
      "outputs": [
        {
          "internalType": "uint256",
          "name": "",
          "type": "uint256"
        }
      ],
      "stateMutability": "view",
      "type": "function"
    },
    {
      "inputs": [],
      "name": "institution",
      "outputs": [
        {
          "internalType": "address",
          "name": "",
          "type": "address"
        }
      ],
      "stateMutability": "view",
      "type": "function"
    },
    {
      "inputs": [],
      "name": "interval",
      "outputs": [
        {
          "internalType": "uint256",
          "name": "",
          "type": "uint256"
        }
      ],
      "stateMutability": "view",
      "type": "function"
    },
    {
      "inputs": [],
      "name": "lastUpkeepTimeStamp",
      "outputs": [
        {
          "internalType": "uint256",
          "name": "",
          "type": "uint256"
        }
      ],
      "stateMutability": "view",
      "type": "function"
    },
    {
      "inputs": [],
      "name": "latestError",
      "outputs": [
        {
          "internalType": "bytes",
          "name": "",
          "type": "bytes"
        }
      ],
      "stateMutability": "view",
      "type": "function"
    },
    {
      "inputs": [],
      "name": "latestRequestId",
      "outputs": [
        {
          "internalType": "bytes32",
          "name": "",
          "type": "bytes32"
        }
      ],
      "stateMutability": "view",
      "type": "function"
    },
    {
      "inputs": [],
      "name": "latestResponse",
      "outputs": [
        {
          "internalType": "bytes",
          "name": "",
          "type": "bytes"
        }
      ],
      "stateMutability": "view",
      "type": "function"
    },
    {
      "inputs": [],
      "name": "owner",
      "outputs": [
        {
          "internalType": "address",
          "name": "",
          "type": "address"
        }
      ],
      "stateMutability": "view",
      "type": "function"
    },
    {
      "inputs": [
        {
          "internalType": "bytes",
          "name": "",
          "type": "bytes"
        },
        {
          "internalType": "uint256",
          "name": "mockSampleStorageLength",
          "type": "uint256"
        }
      ],
      "name": "performUpkeep",
      "outputs": [],
      "stateMutability": "nonpayable",
      "type": "function"
    },
    {
      "inputs": [],
      "name": "registry",
      "outputs": [
        {
          "internalType": "address",
          "name": "",
          "type": "address"
        }
      ],
      "stateMutability": "view",
      "type": "function"
    },
    {
      "inputs": [],
      "name": "reparationValue",
      "outputs": [
        {
          "internalType": "uint256",
          "name": "",
          "type": "uint256"
        }
      ],
      "stateMutability": "view",
      "type": "function"
    },
    {
      "inputs": [],
      "name": "request",
      "outputs": [
        {
          "internalType": "bytes",
          "name": "",
          "type": "bytes"
        }
      ],
      "stateMutability": "view",
      "type": "function"
    },
    {
      "inputs": [],
      "name": "requestCBOR",
      "outputs": [
        {
          "internalType": "bytes",
          "name": "",
          "type": "bytes"
        }
      ],
      "stateMutability": "view",
      "type": "function"
    },
    {
      "inputs": [],
      "name": "requestId",
      "outputs": [
        {
          "internalType": "bytes32",
          "name": "",
          "type": "bytes32"
        }
      ],
      "stateMutability": "view",
      "type": "function"
    },
    {
      "inputs": [
        {
          "internalType": "bytes32",
          "name": "",
          "type": "bytes32"
        },
        {
          "internalType": "uint256",
          "name": "",
          "type": "uint256"
        }
      ],
      "name": "requests",
      "outputs": [
        {
          "internalType": "uint64",
          "name": "subscriptionId",
          "type": "uint64"
        },
        {
          "internalType": "bytes",
          "name": "data",
          "type": "bytes"
        },
        {
          "internalType": "uint16",
          "name": "DATA_VERSION",
          "type": "uint16"
        },
        {
          "internalType": "uint32",
          "name": "callbackGasLimit",
          "type": "uint32"
        },
        {
          "internalType": "bytes32",
          "name": "donId",
          "type": "bytes32"
        }
      ],
      "stateMutability": "view",
      "type": "function"
    },
    {
      "inputs": [],
      "name": "responseCounter",
      "outputs": [
        {
          "internalType": "uint256",
          "name": "",
          "type": "uint256"
        }
      ],
      "stateMutability": "view",
      "type": "function"
    },
    {
      "inputs": [],
      "name": "router",
      "outputs": [
        {
          "internalType": "address",
          "name": "",
          "type": "address"
        }
      ],
      "stateMutability": "view",
      "type": "function"
    },
    {
      "inputs": [],
      "name": "s_lastError",
      "outputs": [
        {
          "internalType": "bytes",
          "name": "",
          "type": "bytes"
        }
      ],
      "stateMutability": "view",
      "type": "function"
    },
    {
      "inputs": [],
      "name": "s_lastRequestId",
      "outputs": [
        {
          "internalType": "bytes32",
          "name": "",
          "type": "bytes32"
        }
      ],
      "stateMutability": "view",
      "type": "function"
    },
    {
      "inputs": [],
      "name": "s_lastResponse",
      "outputs": [
        {
          "internalType": "bytes",
          "name": "",
          "type": "bytes"
        }
      ],
      "stateMutability": "view",
      "type": "function"
    },
    {
      "inputs": [],
      "name": "s_requestCounter",
      "outputs": [
        {
          "internalType": "uint256",
          "name": "",
          "type": "uint256"
        }
      ],
      "stateMutability": "view",
      "type": "function"
    },
    {
      "inputs": [],
      "name": "s_responseCounter",
      "outputs": [
        {
          "internalType": "uint256",
          "name": "",
          "type": "uint256"
        }
      ],
      "stateMutability": "view",
      "type": "function"
    },
    {
      "inputs": [],
      "name": "s_upkeepCounter",
      "outputs": [
        {
          "internalType": "uint256",
          "name": "",
          "type": "uint256"
        }
      ],
      "stateMutability": "view",
      "type": "function"
    },
    {
      "inputs": [],
      "name": "sampleMaxSize",
      "outputs": [
        {
          "internalType": "uint256",
          "name": "",
          "type": "uint256"
        }
      ],
      "stateMutability": "view",
      "type": "function"
    },
    {
      "inputs": [
        {
          "internalType": "uint256",
          "name": "",
          "type": "uint256"
        }
      ],
      "name": "sampleStorage",
      "outputs": [
        {
          "internalType": "string",
          "name": "",
          "type": "string"
        }
      ],
      "stateMutability": "view",
      "type": "function"
    },
    {
      "inputs": [],
      "name": "sepoliaLINKAddress",
      "outputs": [
        {
          "internalType": "address",
          "name": "",
          "type": "address"
        }
      ],
      "stateMutability": "view",
      "type": "function"
    },
    {
      "inputs": [],
      "name": "sepoliaRegistrarAddress",
      "outputs": [
        {
          "internalType": "address",
          "name": "",
          "type": "address"
        }
      ],
      "stateMutability": "view",
      "type": "function"
    },
    {
      "inputs": [
        {
          "internalType": "bytes",
          "name": "receivedCBOR",
          "type": "bytes"
        }
      ],
      "name": "setComputation",
      "outputs": [],
      "stateMutability": "nonpayable",
      "type": "function"
    },
    {
      "inputs": [
        {
          "internalType": "bytes",
          "name": "newRequestCBOR",
          "type": "bytes"
        },
        {
          "internalType": "uint64",
          "name": "_subscriptionId",
          "type": "uint64"
        },
        {
          "internalType": "bytes32",
          "name": "_donID",
          "type": "bytes32"
        }
      ],
      "name": "setRequest",
      "outputs": [],
      "stateMutability": "nonpayable",
      "type": "function"
    },
    {
      "inputs": [],
      "name": "subscriptionId",
      "outputs": [
        {
          "internalType": "uint64",
          "name": "",
          "type": "uint64"
        }
      ],
      "stateMutability": "view",
      "type": "function"
    },
    {
      "inputs": [
        {
          "internalType": "address",
          "name": "to",
          "type": "address"
        }
      ],
      "name": "transferOwnership",
      "outputs": [],
      "stateMutability": "nonpayable",
      "type": "function"
    },
    {
      "inputs": [],
      "name": "upkeepContract",
      "outputs": [
        {
          "internalType": "address",
          "name": "",
          "type": "address"
        }
      ],
      "stateMutability": "view",
      "type": "function"
    },
    {
      "inputs": [],
      "name": "upkeepCounter",
      "outputs": [
        {
          "internalType": "uint256",
          "name": "",
          "type": "uint256"
        }
      ],
      "stateMutability": "view",
      "type": "function"
    },
    {
      "inputs": [],
      "name": "upkeepId",
      "outputs": [
        {
          "internalType": "uint256",
          "name": "",
          "type": "uint256"
        }
      ],
      "stateMutability": "view",
      "type": "function"
    }
  ],
  "bytecode": "0x60806001600160401b03601f620025a538819003918201601f191684019183831185841017620001d15780859261018094604052833981010312620001cc576200004982620001e7565b6200005760208401620001e7565b9260408101519060608101519260808201519160a0810151936200007e60c08301620001e7565b60e0830151978816809803620001cc576200009d6101008401620001e7565b98620000ad6101208501620001e7565b91610160620000c06101408701620001e7565b9501519763ffffffff89168903620001cc57600180556001600160a01b0396871697881562000187576bffffffff00000000000000009a88968780968c60018060a01b03199d8e60035416176003558d601c541617601c55168b601d541617601d55602055602155601f55600a551685600c541617600c5581600954991685600d541617600d551683601a541617601a551690601b541617601b5560401b169160018060601b0319161717600955426018556001600e556040516123a89081620001fd8239f35b60405162461bcd60e51b815260206004820152601860248201527f43616e6e6f7420736574206f776e657220746f207a65726f00000000000000006044820152606490fd5b600080fd5b634e487b7160e01b600052604160045260246000fd5b51906001600160a01b0382168203620001cc5756fe6080604052600436101561001257600080fd5b60003560e01c80626d6cae146102d6578063089ea02e146102d157806309c1ba2e146102cc5780631243bcc3146102c75780631aa46f59146102c257806324b93e3e146102bd578063277e2213146102b8578063338cdca1146102b357806336e6a92f146102ae578063381fc4b5146102a95780633944ea3a146102a457806339b051221461029f57806343cd3d861461029a57806348802b921461029557806348bd6f05146102905780634b0795a81461028b5780635d641dfc146102865780635e0611f114610281578063688ecfd11461027c5780636baa48fe146102775780636e04ff0d146102725780636e74336b1461026d57806379ba5097146102685780637b103999146102635780637d95f68a1461025e5780638b7afe2e146102595780638da5cb5b14610254578063947a36fb1461024f5780639655e6d81461024a578063a309713914610245578063a3d3c0d214610240578063b1e217491461023b578063b8a4836e14610236578063bd4ca97b14610231578063bef3a2f01461022c578063d1384eb614610227578063d2aa789f14610222578063d811fcf01461021d578063ebf14a5514610218578063f2fde38b14610213578063f5c1279b1461020e578063f68016b714610209578063f887ea40146102045763fffeb84e146101ff57600080fd5b611609565b6115e2565b6115be565b6115a0565b6114c1565b6114a3565b61147c565b61145e565b611437565b611390565b611374565b6112cd565b6112af565b611291565b611274565b6111f8565b61117c565b611155565b611139565b61101e565b610ff7565b610f16565b610ef8565b610e7f565b610e58565b610e28565b610e01565b610de5565b610d3e565b610d20565b610d02565b610ce4565b610b83565b610a79565b610a5b565b6108f1565b6107ee565b610501565b610384565b610366565b61033f565b610317565b6102f9565b346102f45760003660031901126102f4576020600054604051908152f35b600080fd5b346102f45760003660031901126102f4576020601854604051908152f35b346102f45760003660031901126102f457602067ffffffffffffffff60095416604051908152f35b346102f45760003660031901126102f45760206001600160a01b03601a5416604051908152f35b346102f45760003660031901126102f4576020600654604051908152f35b346102f45760003660031901126102f457602060095463ffffffff6040519160401c168152f35b634e487b7160e01b600052603260045260246000fd5b6022548110156103f85760226000527f61035b26e3e9eee00e0d72fd1ee8ddca6894550dca6916ea2ac6baa90d11e5100190600090565b6103ab565b634e487b7160e01b600052600060045260246000fd5b90600182811c92168015610443575b602083101461042d57565b634e487b7160e01b600052602260045260246000fd5b91607f1691610422565b634e487b7160e01b600052604160045260246000fd5b90601f8019910116810190811067ffffffffffffffff82111761048557604052565b61044d565b60005b82811061049c57506000910152565b60808101518282015260200161048d565b919082519283825260005b8481106104d9575050826000602080949584010152601f8019910116010190565b6020818301810151848301820152016104b8565b9060206104fe9281815201906104ad565b90565b346102f4576020806003193601126102f4576004356022548110156102f45760226000527f61035b26e3e9eee00e0d72fd1ee8ddca6894550dca6916ea2ac6baa90d11e510019060405190600092805461055a81610413565b808552916001918083169081156105d15750600114610594575b6105908561058481890382610463565b604051918291826104ed565b0390f35b6000908152838120939550925b8284106105be575050508161059093610584928201019338610574565b80548585018701529285019281016105a1565b60ff191686860152505050151560051b82010191506105848161059038610574565b604051906000826005549161060783610413565b8083529260019081811690811561068f5750600114610630575b5061062e92500383610463565b565b6005600090815291507f036b6384b5eca791c62761152d0c79bb0604c104a5fb6f4eb0703f3154bb3db05b848310610674575061062e935050810160200138610621565b81935090816020925483858a0101520191019091859261065b565b90506020925061062e94915060ff191682840152151560051b82010138610621565b60405190600082602454916106c583610413565b8083529260019081811690811561068f57506001146106eb575061062e92500383610463565b6024600090815291507f7cd332d19b93bcabe3cce7ca0c18a052f57e5fd03b4758a09f30f5ddc4b22ec45b84831061072f575061062e935050810160200138610621565b81935090816020925483858a01015201910190918592610716565b906040519182600082549261075e84610413565b9081845260019485811690816000146107cb5750600114610788575b505061062e92500383610463565b9093915060005260209081600020936000915b8183106107b357505061062e9350820101388061077a565b8554888401850152948501948794509183019161079b565b91505061062e94506020925060ff191682840152151560051b820101388061077a565b346102f4576000806003193601126108c0576040519080600f5461081181610413565b80855291600191808316908115610896575060011461083b575b6105908561058481870382610463565b9250600f83527f8d1108e10bcb7c27dddfc02ed9d693a074039d026cf4ea4240b40f7d581ac8025b82841061087e5750505081016020016105848261059061082b565b80546020858701810191909152909301928101610863565b8695506105909693506020925061058494915060ff191682840152151560051b820101929361082b565b80fd5b9181601f840112156102f45782359167ffffffffffffffff83116102f457602083818601950101116102f457565b346102f45760603660031901126102f45767ffffffffffffffff6004358181116102f4576109239036906004016108c3565b91906024359180831683036102f45761093a6116b0565b8311610485576109548361094f600554610413565b61171f565b600090601f84116001146109bb576109a39391600091836109b0575b50508160011b916000199060031b1c19161760055567ffffffffffffffff1667ffffffffffffffff196009541617600955565b6109ae604435601155565b005b013590503880610970565b60056000527f036b6384b5eca791c62761152d0c79bb0604c104a5fb6f4eb0703f3154bb3db091601f198516815b818110610a4357509160019391866109a3979410610a29575b505050811b0160055567ffffffffffffffff1667ffffffffffffffff196009541617600955565b0135600019600384901b60f8161c19169055388080610a02565b919360206001819287870135815501950192016109e9565b346102f45760003660031901126102f4576020600b54604051908152f35b346102f4576000806003193601126108c0576040519080601354610a9c81610413565b808552916001918083169081156108965750600114610ac5576105908561058481870382610463565b9250601383527f66de8ffda797e3de9c05e8fc57b3bf0ec28a930d40b0d285d93c06501cf6a0905b828410610b085750505081016020016105848261059061082b565b80546020858701810191909152909301928101610aed565b67ffffffffffffffff811161048557601f01601f191660200190565b81601f820112156102f457803590610b5382610b20565b92610b616040519485610463565b828452602083830101116102f457816000926020809301838601378301015290565b346102f45760603660031901126102f45767ffffffffffffffff6024358181116102f457610bb5903690600401610b3c565b906044359081116102f457610cc1610bf27f7bab0ec163b5c132c72b8146ac4d6e067e82ed58f8b131150aa71c9258911562923690600401610b3c565b610bfb84611b3b565b610c0481611c25565b610c17610c12600b546119a2565b600b55565b601e5460a01c60ff16610cc657610c2d8461222c565b610c67610c62610c3c86611d32565b517fff000000000000000000000000000000000000000000000000000000000000001690565b61229c565b610c7884610c73611d3f565b612315565b610c8184611d89565b6022546040519081527fb8c1b3113292644df2bf7f437c82a485b897c95ec146ca6ca3dea2ec2f674ad990602090a15b6040519182916004359583611e86565b0390a2005b610cd7610cd285611d0f565b602555565b610cdf611f26565b610cb1565b346102f45760003660031901126102f4576020601754604051908152f35b346102f45760003660031901126102f4576020601654604051908152f35b346102f45760003660031901126102f4576020601f54604051908152f35b346102f4576000806003193601126108c0576040519080601454610d6181610413565b808552916001918083169081156108965750600114610d8a576105908561058481870382610463565b9250601483527fce6d7b5282bd9a3661ae061feed1dbda4e52ab073b1f9285be6e155d9c38d4ec5b828410610dcd5750505081016020016105848261059061082b565b80546020858701810191909152909301928101610db2565b346102f45760003660031901126102f457602060405160018152f35b346102f45760003660031901126102f45760206001600160a01b03601e5416604051908152f35b346102f45760003660031901126102f457610590610e446105f3565b6040519182916020835260208301906104ad565b346102f45760003660031901126102f45760206001600160a01b03601b5416604051908152f35b346102f45760203660031901126102f45760043567ffffffffffffffff81116102f457610eb0903690600401610b3c565b506018544203428111610ef357600a5410604051908152604060208201526060818151806040830152610ee58184840161048a565b601f01601f19168101030190f35b6118bc565b346102f45760003660031901126102f4576020601154604051908152f35b346102f4576000806003193601126108c0576001600160a01b0380600454163303610fb3576003546001600160a01b03166003805473ffffffffffffffffffffffffffffffffffffffff19163317905590610f8973ffffffffffffffffffffffffffffffffffffffff1960045416600455565b3391167f8be0079c531659141344cd1fd0a4f28419497f9722a3daafe3b4186f6b6457e08380a380f35b606460405162461bcd60e51b815260206004820152601660248201527f4d7573742062652070726f706f736564206f776e6572000000000000000000006044820152fd5b346102f45760003660031901126102f45760206001600160a01b03600d5416604051908152f35b346102f4576020806003193601126102f45767ffffffffffffffff6004358181116102f4576110519036906004016108c3565b9161105a6116b0565b8211610485576110748261106f602454610413565b611780565b600092601f83116001146110b257509181926000926110a7575b5050600019600383901b1c191660019190911b17602455005b01359050388061108e565b90601f198316936110e560246000527f7cd332d19b93bcabe3cce7ca0c18a052f57e5fd03b4758a09f30f5ddc4b22ec490565b9281905b8682106111215750508360019510611107575b505050811b01602455005b0135600019600384901b60f8161c191690553880806110fc565b806001849682949587013581550195019201906110e9565b346102f45760003660031901126102f457602047604051908152f35b346102f45760003660031901126102f45760206001600160a01b0360035416604051908152f35b346102f45760003660031901126102f4576020600a54604051908152f35b80548210156103f85760005260206000209060021b0190600090565b919361ffff6111e760809598979667ffffffffffffffff63ffffffff9516865260a0602087015260a08601906104ad565b971660408401521660608201520152565b346102f45760403660031901126102f457602435600435600052600260205260406000209081548110156102f45761122f9161119a565b5067ffffffffffffffff8154169061059061124c6001830161074a565b91600360028201549101549060405194859461ffff63ffffffff8460101c16931691866111b6565b346102f45760003660031901126102f45760208054604051908152f35b346102f45760003660031901126102f4576020601954604051908152f35b346102f45760003660031901126102f4576020601254604051908152f35b346102f45760403660031901126102f45760043567ffffffffffffffff81116102f4576112fe9036906004016108c3565b50506001600160a01b0380600354168033141580611366575b611326576109ae6024356119b0565b606491601e5416604051917f426fbc7100000000000000000000000000000000000000000000000000000000835233600484015260248301526044820152fd5b5081601e5416331415611317565b346102f45760003660031901126102f457610590610e446106b1565b346102f4576000806003193601126108c05760405190806007546113b381610413565b8085529160019180831690811561089657506001146113dc576105908561058481870382610463565b9250600783527fa66cc928b5edb82af9bd49922954155ab7b0942694bea4ce44661d9a8736c6885b82841061141f5750505081016020016105848261059061082b565b80546020858701810191909152909301928101611404565b346102f45760003660031901126102f45760206001600160a01b03601c5416604051908152f35b346102f45760003660031901126102f4576020600e54604051908152f35b346102f45760003660031901126102f45760206001600160a01b03601d5416604051908152f35b346102f45760003660031901126102f4576020602154604051908152f35b346102f45760203660031901126102f4576004356001600160a01b0381168091036102f4576114ee6116b0565b33811461155c578073ffffffffffffffffffffffffffffffffffffffff1960045416176004556115356115296003546001600160a01b031690565b6001600160a01b031690565b7fed8889f560326eb138920d842192f0eb3dd22b4f139c87a2c57538e05bae1278600080a3005b606460405162461bcd60e51b815260206004820152601760248201527f43616e6e6f74207472616e7366657220746f2073656c660000000000000000006044820152fd5b346102f45760003660031901126102f4576020601554604051908152f35b346102f45760003660031901126102f457602063ffffffff60105416604051908152f35b346102f45760003660031901126102f45760206001600160a01b03600c5416604051908152f35b346102f4576000806003193601126108c057604051908060085461162c81610413565b808552916001918083169081156108965750600114611655576105908561058481870382610463565b9250600883527ff3f7a9fe364faab93b216da50a3214154f22a0a2b415b23a84c8169e8b636ee35b8284106116985750505081016020016105848261059061082b565b8054602085870181019190915290930192810161167d565b6001600160a01b036003541633036116c457565b606460405162461bcd60e51b815260206004820152601660248201527f4f6e6c792063616c6c61626c65206279206f776e6572000000000000000000006044820152fd5b818110611713575050565b60008155600101611708565b90601f821161172c575050565b61062e9160056000527f036b6384b5eca791c62761152d0c79bb0604c104a5fb6f4eb0703f3154bb3db0906020601f840160051c83019310611776575b601f0160051c0190611708565b9091508190611769565b90601f821161178d575050565b61062e9160246000527f7cd332d19b93bcabe3cce7ca0c18a052f57e5fd03b4758a09f30f5ddc4b22ec4906020601f840160051c8301931061177657601f0160051c0190611708565b90601f82116117e3575050565b61062e9160076000527fa66cc928b5edb82af9bd49922954155ab7b0942694bea4ce44661d9a8736c688906020601f840160051c8301931061177657601f0160051c0190611708565b90601f8211611839575050565b61062e9160086000527ff3f7a9fe364faab93b216da50a3214154f22a0a2b415b23a84c8169e8b636ee3906020601f840160051c8301931061177657601f0160051c0190611708565b9190601f811161189157505050565b61062e926000526020600020906020601f840160051c8301931061177657601f0160051c0190611708565b634e487b7160e01b600052601160045260246000fd5b6018544203428111610ef357600a541090606090565b156118ef57565b606460405162461bcd60e51b815260206004820152601560248201527f55706b656570206e6f74207265676973746572656400000000000000000000006044820152fd5b604051906020820182811067ffffffffffffffff8211176104855760405260008252565b1561195e57565b606460405162461bcd60e51b815260206004820152601560248201527f54696d6520696e74657276616c206e6f74206d657400000000000000000000006044820152fd5b9060018201809211610ef357565b6119bd600e5415156118e8565b6119c5611933565b506119d76119d16118d2565b50611957565b6119e042601855565b6119f36119ee6019546119a2565b601955565b6021541115611ac957611a34611a2f611a1560095467ffffffffffffffff1690565b60105463ffffffff1660115491611a2a6105f3565b611ff3565b601255565b601254600055611a4d611a486016546119a2565b601655565b6000546040519081527f94d22f84ecc32bb8dd315dfdf3e823f4cb62c2eb803a2d4a470b57e7c42d5d7690602090a17fd3faffad7ef1f2c31a43a6d3c3ca68805a12ad17c4e6d65ed29f86103c8a925f611ac4611ab0601e5460ff9060a01c1690565b60405160ff90911681529081906020820190565b0390a1565b611b0d740100000000000000000000000000000000000000007fffffffffffffffffffffff00ffffffffffffffffffffffffffffffffffffffff601e541617601e55565b611a34611a2f611b2660095467ffffffffffffffff1690565b60105463ffffffff1660115491611a2a6106b1565b90815167ffffffffffffffff811161048557611b6181611b5c600754610413565b6117d6565b602080601f8311600114611b9d5750819293600092611b92575b50508160011b916000199060031b1c191617600755565b015190503880611b7b565b90601f19831694611bd060076000527fa66cc928b5edb82af9bd49922954155ab7b0942694bea4ce44661d9a8736c68890565b926000905b878210611c0d575050836001959610611bf4575b505050811b01600755565b015160001960f88460031b161c19169055388080611be9565b80600185968294968601518155019501930190611bd5565b90815167ffffffffffffffff811161048557611c4b81611c46600854610413565b61182c565b602080601f8311600114611c875750819293600092611c7c575b50508160011b916000199060031b1c191617600855565b015190503880611c65565b90601f19831694611cba60086000527ff3f7a9fe364faab93b216da50a3214154f22a0a2b415b23a84c8169e8b636ee390565b926000905b878210611cf7575050836001959610611cde575b505050811b01600855565b015160001960f88460031b161c19169055388080611cd3565b80600185968294968601518155019501930190611cbf565b602081519101519060208110611d23575090565b6000199060200360031b1b1690565b8051156103f85760200190565b604051906040820182811067ffffffffffffffff82111761048557604052601082527f726573706f6e736520737472696e673a000000000000000000000000000000006020830152565b6022546801000000000000000081101561048557611dae6001918281016022556103c1565b929092611e815780519067ffffffffffffffff821161048557611ddb82611dd58654610413565b86611882565b60209081601f8411600114611e175750928293918392600094611e0c575b50501b916000199060031b1c1916179055565b015192503880611df9565b919083601f198116611e2e88600052602060002090565b946000905b88838310611e675750505010611e4e575b505050811b019055565b015160001960f88460031b161c19169055388080611e44565b858701518855909601959485019487935090810190611e33565b6103fd565b9091611e9d6104fe936040845260408401906104ad565b9160208184039101526104ad565b3d15611ed6573d90611ebc82610b20565b91611eca6040519384610463565b82523d6000602084013e565b606090565b15611ee257565b606460405162461bcd60e51b815260206004820152601b60248201527f4572726f20616f207061676172206120696e64656e697a6163616f00000000006044820152fd5b6025546020541115611f645761062e6000808080611f52611529611529601d546001600160a01b031690565b47905af1611f5e611eab565b50611edb565b60008080806001600160a01b03601c541647905af1611f81611eab565b5015611f8957565b608460405162461bcd60e51b815260206004820152602d60248201527f4572726f20616f207265746f726e6172206f732066756e646f7320706172612060448201527f6120696e73746974756963616f000000000000000000000000000000000000006064820152fd5b91909392936040519160a0830167ffffffffffffffff92848210848311176104855783916040521683526020938484019081526040840192600180855263ffffffff606087019416845260808601988952805496600097808955612056816119a2565b8355885260028152604088208054680100000000000000008110156104855761208391848201815561119a565b979097611e8157836120af915116889067ffffffffffffffff1667ffffffffffffffff19825416179055565b81870193518051938411610485576120d1846120cb8754610413565b87611882565b81601f851160011461218f575093838060039895612159957f1131472297a800fee664d1d89cfa8f7676ff07189ecc53f80bbb5f4969099db89d9e9995612176998e94612184575b50501b91600019908a1b1c19161790555b61214f61213d60028901945161ffff1690565b845461ffff191661ffff909116178455565b5163ffffffff1690565b65ffffffff000082549160101b169065ffffffff00001916179055565b51910155805491818392a290565b015192503880612119565b9190601f9493941984166121a887600052602060002090565b938b905b828210612215575050937f1131472297a800fee664d1d89cfa8f7676ff07189ecc53f80bbb5f4969099db89b9c9793612176979360039a97938361215998106121fd575b505050811b01905561212a565b0151600019838c1b60f8161c191690553880806121f0565b8088869782949787015181550196019401906121ac565b61227361228161062e926040519283917f0be77f560000000000000000000000000000000000000000000000000000000060208401526020602484015260448301906104ad565b03601f198101835282610463565b600080916020815191016a636f6e736f6c652e6c6f675afa50565b7fff00000000000000000000000000000000000000000000000000000000000000604051917f6e18a12800000000000000000000000000000000000000000000000000000000602084015216602482015260248152606081019080821067ffffffffffffffff8311176104855761062e91604052612281565b6122816123609161227361062e946040519485937f4b5c42770000000000000000000000000000000000000000000000000000000060208601526040602486015260648501906104ad565b838103602319016044850152906104ad56fea2646970667358221220abea7425c9a604b5b6db3db15de022214a1a59268d1b34ecf240a8f32f31610864736f6c63430008130033",
  "linkReferences": {},
  "deployedLinkReferences": {}
}