{
  "_format": "hh-sol-artifact-1",
  "contractName": "AutomatedFunctionsConsumer",
  "sourceName": "contracts/mock/mockAutomatedFunctionsConsumer.sol",
  "abi": [
    {
      "inputs": [
        {
          "internalType": "address",
          "name": "_deployer",
          "type": "address"
        },
        {
          "internalType": "address",
          "name": "_farmer",
          "type": "address"
        },
        {
          "internalType": "uint256",
          "name": "_humidityLimit",
          "type": "uint256"
        },
        {
          "internalType": "uint256",
          "name": "_sampleMaxSize",
          "type": "uint256"
        },
        {
          "internalType": "uint256",
          "name": "_reparationValue",
          "type": "uint256"
        },
        {
          "internalType": "uint256",
          "name": "_updateInterval",
          "type": "uint256"
        },
        {
          "internalType": "address",
          "name": "router",
          "type": "address"
        },
        {
          "internalType": "uint64",
          "name": "_subscriptionId",
          "type": "uint64"
        },
        {
          "internalType": "address",
          "name": "_registry",
          "type": "address"
        },
        {
          "internalType": "address",
          "name": "sepoliaLINKAddress",
          "type": "address"
        },
        {
          "internalType": "address",
          "name": "sepoliaRegistrarAddress",
          "type": "address"
        },
        {
          "internalType": "uint32",
          "name": "_fulfillGasLimit",
          "type": "uint32"
        }
      ],
      "stateMutability": "payable",
      "type": "constructor"
    },
    {
      "inputs": [
        {
          "internalType": "address",
          "name": "caller",
          "type": "address"
        },
        {
          "internalType": "address",
          "name": "owner",
          "type": "address"
        },
        {
          "internalType": "address",
          "name": "automationRegistry",
          "type": "address"
        }
      ],
      "name": "NotAllowedCaller",
      "type": "error"
    },
    {
      "inputs": [
        {
          "internalType": "bytes32",
          "name": "requestId",
          "type": "bytes32"
        }
      ],
      "name": "UnexpectedRequestID",
      "type": "error"
    },
    {
      "anonymous": false,
      "inputs": [
        {
          "indexed": true,
          "internalType": "bytes32",
          "name": "requestId",
          "type": "bytes32"
        },
        {
          "indexed": false,
          "internalType": "bytes",
          "name": "result",
          "type": "bytes"
        },
        {
          "indexed": false,
          "internalType": "bytes",
          "name": "err",
          "type": "bytes"
        }
      ],
      "name": "OCRResponse",
      "type": "event"
    },
    {
      "anonymous": false,
      "inputs": [
        {
          "indexed": true,
          "internalType": "address",
          "name": "from",
          "type": "address"
        },
        {
          "indexed": true,
          "internalType": "address",
          "name": "to",
          "type": "address"
        }
      ],
      "name": "OwnershipTransferRequested",
      "type": "event"
    },
    {
      "anonymous": false,
      "inputs": [
        {
          "indexed": true,
          "internalType": "address",
          "name": "from",
          "type": "address"
        },
        {
          "indexed": true,
          "internalType": "address",
          "name": "to",
          "type": "address"
        }
      ],
      "name": "OwnershipTransferred",
      "type": "event"
    },
    {
      "anonymous": false,
      "inputs": [
        {
          "indexed": false,
          "internalType": "string",
          "name": "reason",
          "type": "string"
        }
      ],
      "name": "RequestRevertedWithErrorMsg",
      "type": "event"
    },
    {
      "anonymous": false,
      "inputs": [
        {
          "indexed": false,
          "internalType": "bytes",
          "name": "data",
          "type": "bytes"
        }
      ],
      "name": "RequestRevertedWithoutErrorMsg",
      "type": "event"
    },
    {
      "anonymous": false,
      "inputs": [
        {
          "indexed": true,
          "internalType": "bytes32",
          "name": "id",
          "type": "bytes32"
        }
      ],
      "name": "RequestSent",
      "type": "event"
    },
    {
      "anonymous": false,
      "inputs": [
        {
          "indexed": true,
          "internalType": "bytes32",
          "name": "requestId",
          "type": "bytes32"
        },
        {
          "indexed": false,
          "internalType": "bytes",
          "name": "response",
          "type": "bytes"
        },
        {
          "indexed": false,
          "internalType": "bytes",
          "name": "err",
          "type": "bytes"
        }
      ],
      "name": "Response",
      "type": "event"
    },
    {
      "anonymous": false,
      "inputs": [
        {
          "indexed": false,
          "internalType": "address",
          "name": "upkeepAddress",
          "type": "address"
        }
      ],
      "name": "upkeepCreated",
      "type": "event"
    },
    {
      "anonymous": false,
      "inputs": [
        {
          "indexed": false,
          "internalType": "uint256",
          "name": "upkeepId",
          "type": "uint256"
        }
      ],
      "name": "upkeepRegistered",
      "type": "event"
    },
    {
      "inputs": [],
      "name": "REQUEST_DATA_VERSION",
      "outputs": [
        {
          "internalType": "uint16",
          "name": "",
          "type": "uint16"
        }
      ],
      "stateMutability": "view",
      "type": "function"
    },
    {
      "inputs": [],
      "name": "acceptOwnership",
      "outputs": [],
      "stateMutability": "nonpayable",
      "type": "function"
    },
    {
      "inputs": [
        {
          "internalType": "bytes",
          "name": "",
          "type": "bytes"
        }
      ],
      "name": "checkUpkeep",
      "outputs": [
        {
          "internalType": "bool",
          "name": "upkeepNeeded",
          "type": "bool"
        },
        {
          "internalType": "bytes",
          "name": "",
          "type": "bytes"
        }
      ],
      "stateMutability": "view",
      "type": "function"
    },
    {
      "inputs": [],
      "name": "contractBalance",
      "outputs": [
        {
          "internalType": "uint256",
          "name": "",
          "type": "uint256"
        }
      ],
      "stateMutability": "view",
      "type": "function"
    },
    {
      "inputs": [],
      "name": "donID",
      "outputs": [
        {
          "internalType": "bytes32",
          "name": "",
          "type": "bytes32"
        }
      ],
      "stateMutability": "view",
      "type": "function"
    },
    {
      "inputs": [],
      "name": "farmer",
      "outputs": [
        {
          "internalType": "address",
          "name": "",
          "type": "address"
        }
      ],
      "stateMutability": "view",
      "type": "function"
    },
    {
      "inputs": [],
      "name": "fulfillGasLimit",
      "outputs": [
        {
          "internalType": "uint32",
          "name": "",
          "type": "uint32"
        }
      ],
      "stateMutability": "view",
      "type": "function"
    },
    {
      "inputs": [],
      "name": "gasLimit",
      "outputs": [
        {
          "internalType": "uint32",
          "name": "",
          "type": "uint32"
        }
      ],
      "stateMutability": "view",
      "type": "function"
    },
    {
      "inputs": [],
      "name": "humidityLimit",
      "outputs": [
        {
          "internalType": "uint256",
          "name": "",
          "type": "uint256"
        }
      ],
      "stateMutability": "view",
      "type": "function"
    },
    {
      "inputs": [],
      "name": "institution",
      "outputs": [
        {
          "internalType": "address",
          "name": "",
          "type": "address"
        }
      ],
      "stateMutability": "view",
      "type": "function"
    },
    {
      "inputs": [],
      "name": "lastUpkeepTimeStamp",
      "outputs": [
        {
          "internalType": "uint256",
          "name": "",
          "type": "uint256"
        }
      ],
      "stateMutability": "view",
      "type": "function"
    },
    {
      "inputs": [],
      "name": "latestError",
      "outputs": [
        {
          "internalType": "bytes",
          "name": "",
          "type": "bytes"
        }
      ],
      "stateMutability": "view",
      "type": "function"
    },
    {
      "inputs": [],
      "name": "latestRequestId",
      "outputs": [
        {
          "internalType": "bytes32",
          "name": "",
          "type": "bytes32"
        }
      ],
      "stateMutability": "view",
      "type": "function"
    },
    {
      "inputs": [],
      "name": "latestResponse",
      "outputs": [
        {
          "internalType": "bytes",
          "name": "",
          "type": "bytes"
        }
      ],
      "stateMutability": "view",
      "type": "function"
    },
    {
      "inputs": [],
      "name": "owner",
      "outputs": [
        {
          "internalType": "address",
          "name": "",
          "type": "address"
        }
      ],
      "stateMutability": "view",
      "type": "function"
    },
    {
      "inputs": [
        {
          "internalType": "bytes",
          "name": "",
          "type": "bytes"
        }
      ],
      "name": "performUpkeep",
      "outputs": [],
      "stateMutability": "nonpayable",
      "type": "function"
    },
    {
      "inputs": [],
      "name": "registry",
      "outputs": [
        {
          "internalType": "address",
          "name": "",
          "type": "address"
        }
      ],
      "stateMutability": "view",
      "type": "function"
    },
    {
      "inputs": [],
      "name": "reparationValue",
      "outputs": [
        {
          "internalType": "uint256",
          "name": "",
          "type": "uint256"
        }
      ],
      "stateMutability": "view",
      "type": "function"
    },
    {
      "inputs": [],
      "name": "request",
      "outputs": [
        {
          "internalType": "bytes",
          "name": "",
          "type": "bytes"
        }
      ],
      "stateMutability": "view",
      "type": "function"
    },
    {
      "inputs": [],
      "name": "requestCBOR",
      "outputs": [
        {
          "internalType": "bytes",
          "name": "",
          "type": "bytes"
        }
      ],
      "stateMutability": "view",
      "type": "function"
    },
    {
      "inputs": [],
      "name": "requestId",
      "outputs": [
        {
          "internalType": "bytes32",
          "name": "",
          "type": "bytes32"
        }
      ],
      "stateMutability": "view",
      "type": "function"
    },
    {
      "inputs": [
        {
          "internalType": "bytes32",
          "name": "",
          "type": "bytes32"
        },
        {
          "internalType": "uint256",
          "name": "",
          "type": "uint256"
        }
      ],
      "name": "requests",
      "outputs": [
        {
          "internalType": "uint64",
          "name": "subscriptionId",
          "type": "uint64"
        },
        {
          "internalType": "bytes",
          "name": "data",
          "type": "bytes"
        },
        {
          "internalType": "uint16",
          "name": "DATA_VERSION",
          "type": "uint16"
        },
        {
          "internalType": "uint32",
          "name": "callbackGasLimit",
          "type": "uint32"
        },
        {
          "internalType": "bytes32",
          "name": "donId",
          "type": "bytes32"
        }
      ],
      "stateMutability": "view",
      "type": "function"
    },
    {
      "inputs": [],
      "name": "responseCounter",
      "outputs": [
        {
          "internalType": "uint256",
          "name": "",
          "type": "uint256"
        }
      ],
      "stateMutability": "view",
      "type": "function"
    },
    {
      "inputs": [],
      "name": "s_lastError",
      "outputs": [
        {
          "internalType": "bytes",
          "name": "",
          "type": "bytes"
        }
      ],
      "stateMutability": "view",
      "type": "function"
    },
    {
      "inputs": [],
      "name": "s_lastRequestId",
      "outputs": [
        {
          "internalType": "bytes32",
          "name": "",
          "type": "bytes32"
        }
      ],
      "stateMutability": "view",
      "type": "function"
    },
    {
      "inputs": [],
      "name": "s_lastResponse",
      "outputs": [
        {
          "internalType": "bytes",
          "name": "",
          "type": "bytes"
        }
      ],
      "stateMutability": "view",
      "type": "function"
    },
    {
      "inputs": [],
      "name": "s_requestCounter",
      "outputs": [
        {
          "internalType": "uint256",
          "name": "",
          "type": "uint256"
        }
      ],
      "stateMutability": "view",
      "type": "function"
    },
    {
      "inputs": [],
      "name": "s_responseCounter",
      "outputs": [
        {
          "internalType": "uint256",
          "name": "",
          "type": "uint256"
        }
      ],
      "stateMutability": "view",
      "type": "function"
    },
    {
      "inputs": [],
      "name": "s_upkeepCounter",
      "outputs": [
        {
          "internalType": "uint256",
          "name": "",
          "type": "uint256"
        }
      ],
      "stateMutability": "view",
      "type": "function"
    },
    {
      "inputs": [],
      "name": "sampleMaxSize",
      "outputs": [
        {
          "internalType": "uint256",
          "name": "",
          "type": "uint256"
        }
      ],
      "stateMutability": "view",
      "type": "function"
    },
    {
      "inputs": [
        {
          "internalType": "uint256",
          "name": "",
          "type": "uint256"
        }
      ],
      "name": "sampleStorage",
      "outputs": [
        {
          "internalType": "string",
          "name": "",
          "type": "string"
        }
      ],
      "stateMutability": "view",
      "type": "function"
    },
    {
      "inputs": [
        {
          "internalType": "bytes",
          "name": "newRequestCBOR",
          "type": "bytes"
        },
        {
          "internalType": "uint64",
          "name": "_subscriptionId",
          "type": "uint64"
        },
        {
          "internalType": "uint32",
          "name": "_fulfillGasLimit",
          "type": "uint32"
        },
        {
          "internalType": "bytes32",
          "name": "_donID",
          "type": "bytes32"
        },
        {
          "internalType": "uint256",
          "name": "_updateInterval",
          "type": "uint256"
        }
      ],
      "name": "setRequest",
      "outputs": [],
      "stateMutability": "nonpayable",
      "type": "function"
    },
    {
      "inputs": [],
      "name": "subscriptionId",
      "outputs": [
        {
          "internalType": "uint64",
          "name": "",
          "type": "uint64"
        }
      ],
      "stateMutability": "view",
      "type": "function"
    },
    {
      "inputs": [
        {
          "internalType": "address",
          "name": "to",
          "type": "address"
        }
      ],
      "name": "transferOwnership",
      "outputs": [],
      "stateMutability": "nonpayable",
      "type": "function"
    },
    {
      "inputs": [],
      "name": "updateInterval",
      "outputs": [
        {
          "internalType": "uint256",
          "name": "",
          "type": "uint256"
        }
      ],
      "stateMutability": "view",
      "type": "function"
    },
    {
      "inputs": [],
      "name": "upkeepContract",
      "outputs": [
        {
          "internalType": "address",
          "name": "",
          "type": "address"
        }
      ],
      "stateMutability": "view",
      "type": "function"
    },
    {
      "inputs": [],
      "name": "upkeepCounter",
      "outputs": [
        {
          "internalType": "uint256",
          "name": "",
          "type": "uint256"
        }
      ],
      "stateMutability": "view",
      "type": "function"
    },
    {
      "inputs": [],
      "name": "upkeepId",
      "outputs": [
        {
          "internalType": "uint256",
          "name": "",
          "type": "uint256"
        }
      ],
      "stateMutability": "view",
      "type": "function"
    }
  ],
  "bytecode": "0x60806001600160401b03601f620018b538819003918201601f191684019183831185841017620001c15780859261018094604052833981010312620001bc576200004982620001d7565b906200005860208401620001d7565b60408401519260608501519260808601519460a0870151936200007e60c08901620001d7565b5060e0880151928316809303620001bc57610160620000a16101008a01620001d7565b98620000b16101208201620001d7565b50620000c16101408201620001d7565b5001519363ffffffff85168503620001bc5760006001556001600160a01b03908116918215620001775760018060a01b031992808460035416176003558360195416176019551690601a541617601a55601d556bffffffff00000000000000006009549260401b169160018060601b0319161717600955600a55601e55601c55600e5490610100600160a81b039060081b1690610100600160a81b03191617600e5542600b556040516116c89081620001ed8239f35b60405162461bcd60e51b815260206004820152601860248201527f43616e6e6f7420736574206f776e657220746f207a65726f00000000000000006044820152606490fd5b600080fd5b634e487b7160e01b600052604160045260246000fd5b51906001600160a01b0382168203620001bc5756fe608060408181526004918236101561001657600080fd5b600092833560e01c9182626d6cae146111c557508163089ea02e146111a657816309c1ba2e1461117d5781631aa46f591461115e57816324b93e3e14611138578163277e221314611038578163338cdca114610f8e578163381fc4b514610f6f5781633944ea3a14610ec557816343cd3d8614610ea65781634585e33b14610c3d578163472cbbb014610a5057816348802b9214610a3157816348bd6f0514610a125781634b0795a8146109685781635d641dfc1461094c5781635e0611f114610924578163688ecfd1146108f35781636e04ff0d146107f85781636e74336b146107d957816379ba50971461071d5781637b103999146106f25781638b7afe2e146106d75781638da5cb5b146106af5781639655e6d814610573578163a309713914610554578163a3d3c0d214610535578163b1e2174914610516578163bef3a2f01461046c578163d1384eb614610444578163d2aa789f14610425578163d811fcf0146103fd578163ebf14a55146103de578163f2fde38b1461031157508063f5c1279b146102f3578063f68016b7146102cf578063fd2c80ae146102b15763fffeb84e146101c657600080fd5b346102ad57816003193601126102ad57805190826008546101e6816111df565b808552916001918083169081156102855750600114610228575b50505061021282610224940383611219565b51918291602083526020830190611251565b0390f35b9450600885527ff3f7a9fe364faab93b216da50a3214154f22a0a2b415b23a84c8169e8b636ee35b82861061026d575050506102128260206102249582010194610200565b80546020878701810191909152909501948101610250565b61022497508693506020925061021294915060ff191682840152151560051b82010194610200565b5080fd5b50346102ad57816003193601126102ad57602090600a549051908152f35b50346102ad57816003193601126102ad5760209063ffffffff601154169051908152f35b50346102ad57816003193601126102ad576020906016549051908152f35b919050346103da5760203660031901126103da578135916001600160a01b03918284168094036103d6576103436113b4565b33841461039357508273ffffffffffffffffffffffffffffffffffffffff19825416179055600354167fed8889f560326eb138920d842192f0eb3dd22b4f139c87a2c57538e05bae12788380a380f35b906020606492519162461bcd60e51b8352820152601760248201527f43616e6e6f74207472616e7366657220746f2073656c660000000000000000006044820152fd5b8480fd5b8280fd5b5050346102ad57816003193601126102ad57602090601e549051908152f35b5050346102ad57816003193601126102ad576020906001600160a01b03601a54169051908152f35b5050346102ad57816003193601126102ad57602090600f549051908152f35b5050346102ad57816003193601126102ad576020906001600160a01b03601954169051908152f35b5050346102ad57816003193601126102ad578051908260075461048e816111df565b8085529160019180831690811561028557506001146104b95750505061021282610224940383611219565b9450600785527fa66cc928b5edb82af9bd49922954155ab7b0942694bea4ce44661d9a8736c6885b8286106104fe575050506102128260206102249582010194610200565b805460208787018101919091529095019481016104e1565b5050346102ad57816003193601126102ad576020906013549051908152f35b5050346102ad57816003193601126102ad57602090600c549051908152f35b5050346102ad57816003193601126102ad57602090601d549051908152f35b8383346102ad57806003193601126102ad57602435923582526020926002845281832080548210156106ab57906105a991611382565b509167ffffffffffffffff83541692600180820192868551948593838254926105d1846111df565b80885293838116908115610685575060011461063f575b505050505063ffffffff92916105ff910384611219565b610623600360028301549201549360a08651988998895288015260a0870190611251565b9361ffff82169086015260101c16606084015260808301520390f35b81528381209695945091905b81831061066d575093945091925090820101866105ff63ffffffff8a806105e8565b8654888401850152958601958794509183019161064b565b60ff19168689015250505050151560051b8301019050866105ff63ffffffff8a806105e8565b8380fd5b5050346102ad57816003193601126102ad576020906001600160a01b03600354169051908152f35b5050346102ad57816003193601126102ad5751478152602090f35b5050346102ad57816003193601126102ad576020906001600160a01b03600e5460081c169051908152f35b919050346103da57826003193601126103da578154916001600160a01b0391828416330361079657506003549273ffffffffffffffffffffffffffffffffffffffff199033828616176003551690553391167f8be0079c531659141344cd1fd0a4f28419497f9722a3daafe3b4186f6b6457e08380a380f35b906020606492519162461bcd60e51b8352820152601660248201527f4d7573742062652070726f706f736564206f776e6572000000000000000000006044820152fd5b5050346102ad57816003193601126102ad576020906012549051908152f35b9050346103da57602091826003193601126106ab5767ffffffffffffffff9180358381116108ef57366023820112156108ef57808201359384116108dc578251601f1994879291610850601f83018816890182611219565b81815236602483850101116106ab5781602489940184830137010152600b544203904282116108c95750600a92919254109180519485938452818585015260609485518093860152815b8381106108b4575050838201850152601f01168101030190f35b6080810151888201880152879550810161089a565b856011602492634e487b7160e01b835252fd5b602486604184634e487b7160e01b835252fd5b8580fd5b5050346102ad57816003193601126102ad5761022490610911611291565b9051918291602083526020830190611251565b5050346102ad57816003193601126102ad576020906001600160a01b03601b54169051908152f35b5050346102ad57816003193601126102ad576020905160018152f35b5050346102ad57816003193601126102ad578051908260155461098a816111df565b8085529160019180831690811561028557506001146109b55750505061021282610224940383611219565b9450601585527f55f448fdea98c4d29eb340757ef0a66cd03dbb9538908a6a81d96026b71ec4755b8286106109fa575050506102128260206102249582010194610200565b805460208787018101919091529095019481016109dd565b5050346102ad57816003193601126102ad57602090601c549051908152f35b5050346102ad57816003193601126102ad576020906017549051908152f35b9050346103da5760a03660031901126103da5767ffffffffffffffff81358181116103d657610a82903690840161134f565b9060243593838516809503610c39576044359363ffffffff85168503610c3557610aaa6113b4565b8311610c225750610abc6005546111df565b601f8111610bc3575b508590601f8311600114610b36576bffffffff0000000000000000939291879183610b2b575b50508160011b916000199060031b1c1916176005555b600954931b16916bffffffffffffffffffffffff19161717600955606435601255608435600a5580f35b013590503880610aeb565b7f036b6384b5eca791c62761152d0c79bb0604c104a5fb6f4eb0703f3154bb3db091601f198416885b818110610bab57509160019391856bffffffff000000000000000097969410610b91575b505050811b01600555610b01565b0135600019600384901b60f8161c19169055388080610b83565b91936020600181928787013581550195019201610b5f565b7f036b6384b5eca791c62761152d0c79bb0604c104a5fb6f4eb0703f3154bb3db0601f840160051c81019160208510610c18575b601f0160051c01905b818110610c0d5750610ac5565b878155600101610c00565b9091508190610bf7565b866041602492634e487b7160e01b835252fd5b8780fd5b8680fd5b9050346103da5760203660031901126103da5767ffffffffffffffff81358181116103d657610c6f903690840161134f565b50506001600160a01b038060035416908133141580610e98575b610e5857505082516020810181811083821117610e4557908591855252600b544203428111610d3d57600a541015610e025742600b55600c5492600193848101809111610def57600c55601e54601f541015610d505750601654838101809111610d3d5790610d13916016556009541663ffffffff6011541660125491610d0e611291565b61140c565b601355601754918201809211610d2a575060175580f35b826011602492634e487b7160e01b835252fd5b602485601185634e487b7160e01b835252fd5b600f5415610dad57508260ff19600e541617600e55601654838101809111610d3d5790610d93916016556009541663ffffffff6011541660125491610d0e611291565b508254601355601754918201809211610d2a575060175580f35b5162461bcd60e51b8152602081840152601560248201527f55706b656570206e6f74207265676973746572656400000000000000000000006044820152606490fd5b602486601186634e487b7160e01b835252fd5b506020606492519162461bcd60e51b8352820152601560248201527f54696d6520696e74657276616c206e6f74206d657400000000000000000000006044820152fd5b602486604186634e487b7160e01b835252fd5b6064949250601b54169151927f426fbc71000000000000000000000000000000000000000000000000000000008452339084015260248301526044820152fd5b5080601b5416331415610c89565b5050346102ad57816003193601126102ad576020906018549051908152f35b5050346102ad57816003193601126102ad5780519082601454610ee7816111df565b808552916001918083169081156102855750600114610f125750505061021282610224940383611219565b9450601485527fce6d7b5282bd9a3661ae061feed1dbda4e52ab073b1f9285be6e155d9c38d4ec5b828610610f57575050506102128260206102249582010194610200565b80546020878701810191909152909501948101610f3a565b5050346102ad57816003193601126102ad57602090600d549051908152f35b5050346102ad57816003193601126102ad5780519082601054610fb0816111df565b808552916001918083169081156102855750600114610fdb5750505061021282610224940383611219565b9450601085527f1b6847dc741a1b0cd08d278845f9d819d87b734759afb55fe2de5cb82a9ae6725b828610611020575050506102128260206102249582010194610200565b80546020878701810191909152909501948101611003565b919050346103da57602091826003193601126106ab5735601f548110156106ab57601f84527fa03837a25210ee280c2113ff4b77ca23440b19d4866cca721c801278fd08d80701815193849181815490611091826111df565b9283865260019288848216918260001461110e5750506001146110d0575b8588610224896110c1848a0385611219565b51928284938452830190611251565b87945081939291528383205b8284106110f657505050820101816110c1610224386110af565b8054848a0186015288955087949093019281016110dc565b60ff19168882015294151560051b870190940194508593506110c1925061022491503890506110af565b5050346102ad57816003193601126102ad576009548151911c63ffffffff168152602090f35b5050346102ad57816003193601126102ad576020906006549051908152f35b5050346102ad57816003193601126102ad5760209067ffffffffffffffff600954169051908152f35b5050346102ad57816003193601126102ad57602090600b549051908152f35b8490346102ad57816003193601126102ad57602091548152f35b90600182811c9216801561120f575b60208310146111f957565b634e487b7160e01b600052602260045260246000fd5b91607f16916111ee565b90601f8019910116810190811067ffffffffffffffff82111761123b57604052565b634e487b7160e01b600052604160045260246000fd5b919082519283825260005b84811061127d575050826000602080949584010152601f8019910116010190565b60208183018101518483018201520161125c565b60405190600082600554916112a5836111df565b8083529260019081811690811561132d57506001146112ce575b506112cc92500383611219565b565b6005600090815291507f036b6384b5eca791c62761152d0c79bb0604c104a5fb6f4eb0703f3154bb3db05b84831061131257506112cc9350508101602001386112bf565b81935090816020925483858a010152019101909185926112f9565b9050602092506112cc94915060ff191682840152151560051b820101386112bf565b9181601f8401121561137d5782359167ffffffffffffffff831161137d576020838186019501011161137d57565b600080fd5b805482101561139e5760005260206000209060021b0190600090565b634e487b7160e01b600052603260045260246000fd5b6001600160a01b036003541633036113c857565b606460405162461bcd60e51b815260206004820152601660248201527f4f6e6c792063616c6c61626c65206279206f776e6572000000000000000000006044820152fd5b91909392936040519160a0830167ffffffffffffffff928482108483111761123b5783916040521683526020938484019081526040840192600180855263ffffffff60608701941684526080860198895280549660009780895582810180821161167e578355885260028152604088208054906801000000000000000082101561166a579061149f918482018155611382565b979097611657578390511667ffffffffffffffff1988541617875581870193518051938411611643576114d285546111df565b601f81116115fd575b5081601f851160011461156f57509280600397959381937f1131472297a800fee664d1d89cfa8f7676ff07189ecc53f80bbb5f4969099db89c9d98968c94611564575b50501b9160001990881b1c19161790555b61ffff6002860192511665ffffffff00008354925160101b169165ffffffffffff19161717905551910155805491818392a290565b01519250388061151e565b9190601f949394198416868b52838b20938b905b8282106115e6575050917f1131472297a800fee664d1d89cfa8f7676ff07189ecc53f80bbb5f4969099db89b9c979593918560039a989694106115ce575b505050811b01905561152f565b0151600019838a1b60f8161c191690553880806115c1565b808886978294978701518155019601940190611583565b858a52828a20601f860160051c810191848710611639575b601f0160051c019084905b82811061162e5750506114db565b8b8155018490611620565b9091508190611615565b602489634e487b7160e01b81526041600452fd5b602489634e487b7160e01b815280600452fd5b60248a634e487b7160e01b81526041600452fd5b60248a634e487b7160e01b81526011600452fdfea2646970667358221220f3f0cd0f4bb3280c54fb87298221812c8115a18ab2362ca390b29e445bf68c4064736f6c63430008130033",
  "linkReferences": {},
  "deployedLinkReferences": {}
}