{
  "_format": "hh-sol-artifact-1",
  "contractName": "AutomatedFunctionsConsumer",
  "sourceName": "contracts/mock/mockAutomatedFunctionsConsumer.sol",
  "abi": [
    {
      "inputs": [
        {
          "internalType": "address",
          "name": "_deployer",
          "type": "address"
        },
        {
          "internalType": "address",
          "name": "_farmer",
          "type": "address"
        },
        {
          "internalType": "uint256",
          "name": "_humidityLimit",
          "type": "uint256"
        },
        {
          "internalType": "uint256",
          "name": "_sampleMaxSize",
          "type": "uint256"
        },
        {
          "internalType": "uint256",
          "name": "_reparationValue",
          "type": "uint256"
        },
        {
          "internalType": "uint256",
          "name": "_interval",
          "type": "uint256"
        },
        {
          "internalType": "address",
          "name": "_router",
          "type": "address"
        },
        {
          "internalType": "uint64",
          "name": "_subscriptionId",
          "type": "uint64"
        },
        {
          "internalType": "address",
          "name": "_registry",
          "type": "address"
        },
        {
          "internalType": "address",
          "name": "_sepoliaLINKAddress",
          "type": "address"
        },
        {
          "internalType": "address",
          "name": "_sepoliaRegistrarAddress",
          "type": "address"
        },
        {
          "internalType": "uint32",
          "name": "_fulfillGasLimit",
          "type": "uint32"
        }
      ],
      "stateMutability": "payable",
      "type": "constructor"
    },
    {
      "inputs": [
        {
          "internalType": "address",
          "name": "caller",
          "type": "address"
        },
        {
          "internalType": "address",
          "name": "owner",
          "type": "address"
        },
        {
          "internalType": "address",
          "name": "automationRegistry",
          "type": "address"
        }
      ],
      "name": "NotAllowedCaller",
      "type": "error"
    },
    {
      "inputs": [
        {
          "internalType": "bytes32",
          "name": "requestId",
          "type": "bytes32"
        }
      ],
      "name": "UnexpectedRequestID",
      "type": "error"
    },
    {
      "anonymous": false,
      "inputs": [
        {
          "indexed": true,
          "internalType": "bytes32",
          "name": "requestId",
          "type": "bytes32"
        },
        {
          "indexed": false,
          "internalType": "bytes",
          "name": "result",
          "type": "bytes"
        },
        {
          "indexed": false,
          "internalType": "bytes",
          "name": "err",
          "type": "bytes"
        }
      ],
      "name": "OCRResponse",
      "type": "event"
    },
    {
      "anonymous": false,
      "inputs": [
        {
          "indexed": true,
          "internalType": "address",
          "name": "from",
          "type": "address"
        },
        {
          "indexed": true,
          "internalType": "address",
          "name": "to",
          "type": "address"
        }
      ],
      "name": "OwnershipTransferRequested",
      "type": "event"
    },
    {
      "anonymous": false,
      "inputs": [
        {
          "indexed": true,
          "internalType": "address",
          "name": "from",
          "type": "address"
        },
        {
          "indexed": true,
          "internalType": "address",
          "name": "to",
          "type": "address"
        }
      ],
      "name": "OwnershipTransferred",
      "type": "event"
    },
    {
      "anonymous": false,
      "inputs": [
        {
          "indexed": false,
          "internalType": "string",
          "name": "reason",
          "type": "string"
        }
      ],
      "name": "RequestRevertedWithErrorMsg",
      "type": "event"
    },
    {
      "anonymous": false,
      "inputs": [
        {
          "indexed": false,
          "internalType": "bytes",
          "name": "data",
          "type": "bytes"
        }
      ],
      "name": "RequestRevertedWithoutErrorMsg",
      "type": "event"
    },
    {
      "anonymous": false,
      "inputs": [
        {
          "indexed": true,
          "internalType": "bytes32",
          "name": "id",
          "type": "bytes32"
        }
      ],
      "name": "RequestSent",
      "type": "event"
    },
    {
      "anonymous": false,
      "inputs": [
        {
          "indexed": true,
          "internalType": "bytes32",
          "name": "requestId",
          "type": "bytes32"
        },
        {
          "indexed": false,
          "internalType": "bytes",
          "name": "response",
          "type": "bytes"
        },
        {
          "indexed": false,
          "internalType": "bytes",
          "name": "err",
          "type": "bytes"
        }
      ],
      "name": "Response",
      "type": "event"
    },
    {
      "anonymous": false,
      "inputs": [
        {
          "indexed": false,
          "internalType": "address",
          "name": "upkeepAddress",
          "type": "address"
        }
      ],
      "name": "upkeepCreated",
      "type": "event"
    },
    {
      "anonymous": false,
      "inputs": [
        {
          "indexed": false,
          "internalType": "uint256",
          "name": "upkeepId",
          "type": "uint256"
        }
      ],
      "name": "upkeepRegistered",
      "type": "event"
    },
    {
      "inputs": [],
      "name": "REQUEST_DATA_VERSION",
      "outputs": [
        {
          "internalType": "uint16",
          "name": "",
          "type": "uint16"
        }
      ],
      "stateMutability": "view",
      "type": "function"
    },
    {
      "inputs": [],
      "name": "acceptOwnership",
      "outputs": [],
      "stateMutability": "nonpayable",
      "type": "function"
    },
    {
      "inputs": [
        {
          "internalType": "bytes",
          "name": "",
          "type": "bytes"
        }
      ],
      "name": "checkUpkeep",
      "outputs": [
        {
          "internalType": "bool",
          "name": "upkeepNeeded",
          "type": "bool"
        },
        {
          "internalType": "bytes",
          "name": "performData",
          "type": "bytes"
        }
      ],
      "stateMutability": "view",
      "type": "function"
    },
    {
      "inputs": [],
      "name": "computationCBOR",
      "outputs": [
        {
          "internalType": "bytes",
          "name": "",
          "type": "bytes"
        }
      ],
      "stateMutability": "view",
      "type": "function"
    },
    {
      "inputs": [],
      "name": "contractBalance",
      "outputs": [
        {
          "internalType": "uint256",
          "name": "",
          "type": "uint256"
        }
      ],
      "stateMutability": "view",
      "type": "function"
    },
    {
      "inputs": [],
      "name": "donID",
      "outputs": [
        {
          "internalType": "bytes32",
          "name": "",
          "type": "bytes32"
        }
      ],
      "stateMutability": "view",
      "type": "function"
    },
    {
      "inputs": [],
      "name": "farmer",
      "outputs": [
        {
          "internalType": "address",
          "name": "",
          "type": "address"
        }
      ],
      "stateMutability": "view",
      "type": "function"
    },
    {
      "inputs": [],
      "name": "fulfillGasLimit",
      "outputs": [
        {
          "internalType": "uint32",
          "name": "",
          "type": "uint32"
        }
      ],
      "stateMutability": "view",
      "type": "function"
    },
    {
      "inputs": [],
      "name": "gasLimit",
      "outputs": [
        {
          "internalType": "uint32",
          "name": "",
          "type": "uint32"
        }
      ],
      "stateMutability": "view",
      "type": "function"
    },
    {
      "inputs": [],
      "name": "humidityLimit",
      "outputs": [
        {
          "internalType": "uint256",
          "name": "",
          "type": "uint256"
        }
      ],
      "stateMutability": "view",
      "type": "function"
    },
    {
      "inputs": [],
      "name": "institution",
      "outputs": [
        {
          "internalType": "address",
          "name": "",
          "type": "address"
        }
      ],
      "stateMutability": "view",
      "type": "function"
    },
    {
      "inputs": [],
      "name": "interval",
      "outputs": [
        {
          "internalType": "uint256",
          "name": "",
          "type": "uint256"
        }
      ],
      "stateMutability": "view",
      "type": "function"
    },
    {
      "inputs": [],
      "name": "lastUpkeepTimeStamp",
      "outputs": [
        {
          "internalType": "uint256",
          "name": "",
          "type": "uint256"
        }
      ],
      "stateMutability": "view",
      "type": "function"
    },
    {
      "inputs": [],
      "name": "latestError",
      "outputs": [
        {
          "internalType": "bytes",
          "name": "",
          "type": "bytes"
        }
      ],
      "stateMutability": "view",
      "type": "function"
    },
    {
      "inputs": [],
      "name": "latestRequestId",
      "outputs": [
        {
          "internalType": "bytes32",
          "name": "",
          "type": "bytes32"
        }
      ],
      "stateMutability": "view",
      "type": "function"
    },
    {
      "inputs": [],
      "name": "latestResponse",
      "outputs": [
        {
          "internalType": "bytes",
          "name": "",
          "type": "bytes"
        }
      ],
      "stateMutability": "view",
      "type": "function"
    },
    {
      "inputs": [],
      "name": "owner",
      "outputs": [
        {
          "internalType": "address",
          "name": "",
          "type": "address"
        }
      ],
      "stateMutability": "view",
      "type": "function"
    },
    {
      "inputs": [
        {
          "internalType": "bytes",
          "name": "",
          "type": "bytes"
        }
      ],
      "name": "performUpkeep",
      "outputs": [],
      "stateMutability": "nonpayable",
      "type": "function"
    },
    {
      "inputs": [],
      "name": "registry",
      "outputs": [
        {
          "internalType": "address",
          "name": "",
          "type": "address"
        }
      ],
      "stateMutability": "view",
      "type": "function"
    },
    {
      "inputs": [],
      "name": "reparationValue",
      "outputs": [
        {
          "internalType": "uint256",
          "name": "",
          "type": "uint256"
        }
      ],
      "stateMutability": "view",
      "type": "function"
    },
    {
      "inputs": [],
      "name": "request",
      "outputs": [
        {
          "internalType": "bytes",
          "name": "",
          "type": "bytes"
        }
      ],
      "stateMutability": "view",
      "type": "function"
    },
    {
      "inputs": [],
      "name": "requestCBOR",
      "outputs": [
        {
          "internalType": "bytes",
          "name": "",
          "type": "bytes"
        }
      ],
      "stateMutability": "view",
      "type": "function"
    },
    {
      "inputs": [],
      "name": "requestId",
      "outputs": [
        {
          "internalType": "bytes32",
          "name": "",
          "type": "bytes32"
        }
      ],
      "stateMutability": "view",
      "type": "function"
    },
    {
      "inputs": [
        {
          "internalType": "bytes32",
          "name": "",
          "type": "bytes32"
        },
        {
          "internalType": "uint256",
          "name": "",
          "type": "uint256"
        }
      ],
      "name": "requests",
      "outputs": [
        {
          "internalType": "uint64",
          "name": "subscriptionId",
          "type": "uint64"
        },
        {
          "internalType": "bytes",
          "name": "data",
          "type": "bytes"
        },
        {
          "internalType": "uint16",
          "name": "DATA_VERSION",
          "type": "uint16"
        },
        {
          "internalType": "uint32",
          "name": "callbackGasLimit",
          "type": "uint32"
        },
        {
          "internalType": "bytes32",
          "name": "donId",
          "type": "bytes32"
        }
      ],
      "stateMutability": "view",
      "type": "function"
    },
    {
      "inputs": [],
      "name": "responseCounter",
      "outputs": [
        {
          "internalType": "uint256",
          "name": "",
          "type": "uint256"
        }
      ],
      "stateMutability": "view",
      "type": "function"
    },
    {
      "inputs": [],
      "name": "router",
      "outputs": [
        {
          "internalType": "address",
          "name": "",
          "type": "address"
        }
      ],
      "stateMutability": "view",
      "type": "function"
    },
    {
      "inputs": [],
      "name": "s_lastError",
      "outputs": [
        {
          "internalType": "bytes",
          "name": "",
          "type": "bytes"
        }
      ],
      "stateMutability": "view",
      "type": "function"
    },
    {
      "inputs": [],
      "name": "s_lastRequestId",
      "outputs": [
        {
          "internalType": "bytes32",
          "name": "",
          "type": "bytes32"
        }
      ],
      "stateMutability": "view",
      "type": "function"
    },
    {
      "inputs": [],
      "name": "s_lastResponse",
      "outputs": [
        {
          "internalType": "bytes",
          "name": "",
          "type": "bytes"
        }
      ],
      "stateMutability": "view",
      "type": "function"
    },
    {
      "inputs": [],
      "name": "s_requestCounter",
      "outputs": [
        {
          "internalType": "uint256",
          "name": "",
          "type": "uint256"
        }
      ],
      "stateMutability": "view",
      "type": "function"
    },
    {
      "inputs": [],
      "name": "s_responseCounter",
      "outputs": [
        {
          "internalType": "uint256",
          "name": "",
          "type": "uint256"
        }
      ],
      "stateMutability": "view",
      "type": "function"
    },
    {
      "inputs": [],
      "name": "s_upkeepCounter",
      "outputs": [
        {
          "internalType": "uint256",
          "name": "",
          "type": "uint256"
        }
      ],
      "stateMutability": "view",
      "type": "function"
    },
    {
      "inputs": [],
      "name": "sampleMaxSize",
      "outputs": [
        {
          "internalType": "uint256",
          "name": "",
          "type": "uint256"
        }
      ],
      "stateMutability": "view",
      "type": "function"
    },
    {
      "inputs": [
        {
          "internalType": "uint256",
          "name": "",
          "type": "uint256"
        }
      ],
      "name": "sampleStorage",
      "outputs": [
        {
          "internalType": "string",
          "name": "",
          "type": "string"
        }
      ],
      "stateMutability": "view",
      "type": "function"
    },
    {
      "inputs": [],
      "name": "sepoliaLINKAddress",
      "outputs": [
        {
          "internalType": "address",
          "name": "",
          "type": "address"
        }
      ],
      "stateMutability": "view",
      "type": "function"
    },
    {
      "inputs": [],
      "name": "sepoliaRegistrarAddress",
      "outputs": [
        {
          "internalType": "address",
          "name": "",
          "type": "address"
        }
      ],
      "stateMutability": "view",
      "type": "function"
    },
    {
      "inputs": [
        {
          "internalType": "bytes",
          "name": "receivedCBOR",
          "type": "bytes"
        }
      ],
      "name": "setComputation",
      "outputs": [],
      "stateMutability": "nonpayable",
      "type": "function"
    },
    {
      "inputs": [
        {
          "internalType": "bytes",
          "name": "newRequestCBOR",
          "type": "bytes"
        },
        {
          "internalType": "uint64",
          "name": "_subscriptionId",
          "type": "uint64"
        },
        {
          "internalType": "bytes32",
          "name": "_donID",
          "type": "bytes32"
        }
      ],
      "name": "setRequest",
      "outputs": [],
      "stateMutability": "nonpayable",
      "type": "function"
    },
    {
      "inputs": [],
      "name": "subscriptionId",
      "outputs": [
        {
          "internalType": "uint64",
          "name": "",
          "type": "uint64"
        }
      ],
      "stateMutability": "view",
      "type": "function"
    },
    {
      "inputs": [
        {
          "internalType": "address",
          "name": "to",
          "type": "address"
        }
      ],
      "name": "transferOwnership",
      "outputs": [],
      "stateMutability": "nonpayable",
      "type": "function"
    },
    {
      "inputs": [],
      "name": "upkeepContract",
      "outputs": [
        {
          "internalType": "address",
          "name": "",
          "type": "address"
        }
      ],
      "stateMutability": "view",
      "type": "function"
    },
    {
      "inputs": [],
      "name": "upkeepCounter",
      "outputs": [
        {
          "internalType": "uint256",
          "name": "",
          "type": "uint256"
        }
      ],
      "stateMutability": "view",
      "type": "function"
    },
    {
      "inputs": [],
      "name": "upkeepId",
      "outputs": [
        {
          "internalType": "uint256",
          "name": "",
          "type": "uint256"
        }
      ],
      "stateMutability": "view",
      "type": "function"
    }
  ],
  "bytecode": "0x60806001600160401b03601f62001b4c38819003918201601f191684019183831185841017620001cd5780859261018094604052833981010312620001c8576200004982620001e3565b6200005760208401620001e3565b9260408101519060608101519260808201519160a0810151936200007e60c08301620001e3565b60e0830151978816809803620001c8576200009d6101008401620001e3565b98620000ad6101208501620001e3565b91610160620000c06101408701620001e3565b9501519763ffffffff89168903620001c85760006001556001600160a01b0396871697881562000183576bffffffff00000000000000009a88968780968c60018060a01b03199d8e60035416176003558d601c541617601c55168b601d541617601d55602055602155601f55600a551685600c541617600c5581600954991685600d541617600d551683601a541617601a551690601b541617601b5560401b169160018060601b0319161717600955426018556040516119539081620001f98239f35b60405162461bcd60e51b815260206004820152601860248201527f43616e6e6f7420736574206f776e657220746f207a65726f00000000000000006044820152606490fd5b600080fd5b634e487b7160e01b600052604160045260246000fd5b51906001600160a01b0382168203620001c85756fe608060408181526004918236101561001657600080fd5b600092833560e01c9182626d6cae146113b757508163089ea02e1461139857816309c1ba2e1461136f5781631243bcc3146113475781631aa46f591461132857816324b93e3e14611302578163277e221314611202578163338cdca11461115857816336e6a92f14610fc3578163381fc4b514610fa45781633944ea3a14610efa57816343cd3d8614610edb5781634585e33b14610c7957816348802b9214610c5a57816348bd6f0514610c3b5781634b0795a814610b915781635d641dfc14610b755781635e0611f114610b4d578163688ecfd114610b2f5781636baa48fe14610b075781636e04ff0d14610a0c5781636e74336b146109ed57816379ba5097146109315781637b103999146109095781637d95f68a146107815781638b7afe2e146107665781638da5cb5b1461073e578163947a36fb1461071f5781639655e6d8146105e3578163a3097139146105c5578163a3d3c0d2146105a6578163b1e2174914610587578163bd4ca97b14610556578163bef3a2f0146104ac578163d1384eb614610484578163d2aa789f14610465578163d811fcf01461043d578163ebf14a551461041e578163f2fde38b1461035157508063f5c1279b14610333578063f68016b71461030f578063f887ea40146102e85763fffeb84e146101fd57600080fd5b346102e457816003193601126102e4578051908260085461021d816113d1565b808552916001918083169081156102bc575060011461025f575b5050506102498261025b94038361140b565b51918291602083526020830190611443565b0390f35b9450600885527ff3f7a9fe364faab93b216da50a3214154f22a0a2b415b23a84c8169e8b636ee35b8286106102a45750505061024982602061025b9582010194610237565b80546020878701810191909152909501948101610287565b61025b97508693506020925061024994915060ff191682840152151560051b82010194610237565b5080fd5b50346102e457816003193601126102e4576020906001600160a01b03600c54169051908152f35b50346102e457816003193601126102e45760209063ffffffff601054169051908152f35b50346102e457816003193601126102e4576020906015549051908152f35b9190503461041a57602036600319011261041a578135916001600160a01b03918284168094036104165761038361163f565b3384146103d357508273ffffffffffffffffffffffffffffffffffffffff19825416179055600354167fed8889f560326eb138920d842192f0eb3dd22b4f139c87a2c57538e05bae12788380a380f35b906020606492519162461bcd60e51b8352820152601760248201527f43616e6e6f74207472616e7366657220746f2073656c660000000000000000006044820152fd5b8480fd5b8280fd5b5050346102e457816003193601126102e4576020906021549051908152f35b5050346102e457816003193601126102e4576020906001600160a01b03601d54169051908152f35b5050346102e457816003193601126102e457602090600e549051908152f35b5050346102e457816003193601126102e4576020906001600160a01b03601c54169051908152f35b5050346102e457816003193601126102e457805190826007546104ce816113d1565b808552916001918083169081156102bc57506001146104f9575050506102498261025b94038361140b565b9450600785527fa66cc928b5edb82af9bd49922954155ab7b0942694bea4ce44661d9a8736c6885b82861061053e5750505061024982602061025b9582010194610237565b80546020878701810191909152909501948101610521565b5050346102e457816003193601126102e45761025b90610574611483565b9051918291602083526020830190611443565b5050346102e457816003193601126102e4576020906012549051908152f35b5050346102e457816003193601126102e4576020906019549051908152f35b5050346102e457816003193601126102e45760209081549051908152f35b8383346102e457806003193601126102e4576024359235825260209260028452818320805482101561071b57906106199161160d565b509167ffffffffffffffff8354169260018082019286855194859383825492610641846113d1565b808852938381169081156106f557506001146106af575b505050505063ffffffff929161066f91038461140b565b610693600360028301549201549360a08651988998895288015260a0870190611443565b9361ffff82169086015260101c16606084015260808301520390f35b81528381209695945091905b8183106106dd5750939450919250908201018661066f63ffffffff8a80610658565b865488840185015295860195879450918301916106bb565b60ff19168689015250505050151560051b83010190508661066f63ffffffff8a80610658565b8380fd5b5050346102e457816003193601126102e457602090600a549051908152f35b5050346102e457816003193601126102e4576020906001600160a01b03600354169051908152f35b5050346102e457816003193601126102e45751478152602090f35b833461090657602091826003193601126102e45767ffffffffffffffff813581811161071b576107b490369084016115da565b9290916107bf61163f565b83116108f357506107d16024546113d1565b601f8111610895575b508293601f8311600114610817575092829382939261080c575b50508160011b916000199060031b1c19161760245580f35b0135905083806107f4565b601f198316947f7cd332d19b93bcabe3cce7ca0c18a052f57e5fd03b4758a09f30f5ddc4b22ec4929185905b87821061087d575050836001959610610863575b505050811b0160245580f35b0135600019600384901b60f8161c19169055838080610857565b80600184968294958701358155019501920190610843565b7f7cd332d19b93bcabe3cce7ca0c18a052f57e5fd03b4758a09f30f5ddc4b22ec4601f840160051c8101918685106108e9575b601f0160051c01905b8181106108de57506107da565b8481556001016108d1565b90915081906108c8565b836041602492634e487b7160e01b835252fd5b80fd5b5050346102e457816003193601126102e4576020906001600160a01b03600d54169051908152f35b9190503461041a578260031936011261041a578154916001600160a01b039182841633036109aa57506003549273ffffffffffffffffffffffffffffffffffffffff199033828616176003551690553391167f8be0079c531659141344cd1fd0a4f28419497f9722a3daafe3b4186f6b6457e08380a380f35b906020606492519162461bcd60e51b8352820152601660248201527f4d7573742062652070726f706f736564206f776e6572000000000000000000006044820152fd5b5050346102e457816003193601126102e4576020906011549051908152f35b90503461041a576020918260031936011261071b5767ffffffffffffffff918035838111610b035736602382011215610b035780820135938411610af0578251601f1994879291610a64601f8301881689018261140b565b818152366024838501011161071b5781602489940184830137010152601854420390428211610add5750600a92919254109180519485938452818585015260609485518093860152815b838110610ac8575050838201850152601f01168101030190f35b60808101518882018801528795508101610aae565b856011602492634e487b7160e01b835252fd5b602486604184634e487b7160e01b835252fd5b8580fd5b5050346102e457816003193601126102e4576020906001600160a01b03601b54169051908152f35b5050346102e457816003193601126102e45761025b90610574611541565b5050346102e457816003193601126102e4576020906001600160a01b03601e54169051908152f35b5050346102e457816003193601126102e4576020905160018152f35b5050346102e457816003193601126102e45780519082601454610bb3816113d1565b808552916001918083169081156102bc5750600114610bde575050506102498261025b94038361140b565b9450601485527fce6d7b5282bd9a3661ae061feed1dbda4e52ab073b1f9285be6e155d9c38d4ec5b828610610c235750505061024982602061025b9582010194610237565b80546020878701810191909152909501948101610c06565b5050346102e457816003193601126102e457602090601f549051908152f35b5050346102e457816003193601126102e4576020906016549051908152f35b9190503461041a57602036600319011261041a5767ffffffffffffffff90823582811161041657610cad90369085016115da565b50506001600160a01b038060035416908133141580610ecd575b610e8d575050600e5415610e4b5780516020810181811084821117610e38579085918352526018544203428111610e2557600a541015610de357504260185560195460018101809111610dd0576019556021546022541015610d7457610d45906009541663ffffffff6010541660115491610d40611541565b611697565b8060125582556016549060018201809211610d61575060165580f35b826011602492634e487b7160e01b835252fd5b610d4590740100000000000000000000000000000000000000007fffffffffffffffffffffff00ffffffffffffffffffffffffffffffffffffffff601e541617601e556009541663ffffffff6010541660115491610d40611483565b602484601185634e487b7160e01b835252fd5b5162461bcd60e51b8152602081840152601560248201527f54696d6520696e74657276616c206e6f74206d657400000000000000000000006044820152606490fd5b602485601186634e487b7160e01b835252fd5b602486604187634e487b7160e01b835252fd5b5162461bcd60e51b8152602081840152601560248201527f55706b656570206e6f74207265676973746572656400000000000000000000006044820152606490fd5b6064949350601e54169151927f426fbc71000000000000000000000000000000000000000000000000000000008452339084015260248301526044820152fd5b5080601e5416331415610cc7565b5050346102e457816003193601126102e4576020906017549051908152f35b5050346102e457816003193601126102e45780519082601354610f1c816113d1565b808552916001918083169081156102bc5750600114610f47575050506102498261025b94038361140b565b9450601385527f66de8ffda797e3de9c05e8fc57b3bf0ec28a930d40b0d285d93c06501cf6a0905b828610610f8c5750505061024982602061025b9582010194610237565b80546020878701810191909152909501948101610f6f565b5050346102e457816003193601126102e457602090600b549051908152f35b83346109065760603660031901126109065767ffffffffffffffff823581811161041a57610ff490369085016115da565b9093602435928084168094036104165761100c61163f565b82116108f3575061101e6005546113d1565b601f81116110f9575b5082601f821160011461107b57839482939492611070575b50508160011b916000199060031b1c1916176005555b67ffffffffffffffff19600954161760095560443560115580f35b01359050848061103f565b601f198216947f036b6384b5eca791c62761152d0c79bb0604c104a5fb6f4eb0703f3154bb3db091855b8781106110e15750836001959697106110c7575b505050811b01600555611055565b0135600019600384901b60f8161c191690558480806110b9565b909260206001819286860135815501940191016110a5565b7f036b6384b5eca791c62761152d0c79bb0604c104a5fb6f4eb0703f3154bb3db0601f830160051c8101916020841061114e575b601f0160051c01905b8181106111435750611027565b848155600101611136565b909150819061112d565b5050346102e457816003193601126102e45780519082600f5461117a816113d1565b808552916001918083169081156102bc57506001146111a5575050506102498261025b94038361140b565b9450600f85527f8d1108e10bcb7c27dddfc02ed9d693a074039d026cf4ea4240b40f7d581ac8025b8286106111ea5750505061024982602061025b9582010194610237565b805460208787018101919091529095019481016111cd565b9190503461041a576020918260031936011261071b573560225481101561071b57602284527f61035b26e3e9eee00e0d72fd1ee8ddca6894550dca6916ea2ac6baa90d11e5100181519384918181549061125b826113d1565b928386526001928884821691826000146112d857505060011461129a575b858861025b8961128b848a038561140b565b51928284938452830190611443565b87945081939291528383205b8284106112c0575050508201018161128b61025b38611279565b8054848a0186015288955087949093019281016112a6565b60ff19168882015294151560051b8701909401945085935061128b925061025b9150389050611279565b5050346102e457816003193601126102e4576009548151911c63ffffffff168152602090f35b5050346102e457816003193601126102e4576020906006549051908152f35b5050346102e457816003193601126102e4576020906001600160a01b03601a54169051908152f35b5050346102e457816003193601126102e45760209067ffffffffffffffff600954169051908152f35b5050346102e457816003193601126102e4576020906018549051908152f35b8490346102e457816003193601126102e457602091548152f35b90600182811c92168015611401575b60208310146113eb57565b634e487b7160e01b600052602260045260246000fd5b91607f16916113e0565b90601f8019910116810190811067ffffffffffffffff82111761142d57604052565b634e487b7160e01b600052604160045260246000fd5b919082519283825260005b84811061146f575050826000602080949584010152601f8019910116010190565b60208183018101518483018201520161144e565b6040519060008260245491611497836113d1565b8083529260019081811690811561151f57506001146114c0575b506114be9250038361140b565b565b6024600090815291507f7cd332d19b93bcabe3cce7ca0c18a052f57e5fd03b4758a09f30f5ddc4b22ec45b84831061150457506114be9350508101602001386114b1565b81935090816020925483858a010152019101909185926114eb565b9050602092506114be94915060ff191682840152151560051b820101386114b1565b6040519060008260055491611555836113d1565b8083529260019081811690811561151f575060011461157b57506114be9250038361140b565b6005600090815291507f036b6384b5eca791c62761152d0c79bb0604c104a5fb6f4eb0703f3154bb3db05b8483106115bf57506114be9350508101602001386114b1565b81935090816020925483858a010152019101909185926115a6565b9181601f840112156116085782359167ffffffffffffffff8311611608576020838186019501011161160857565b600080fd5b80548210156116295760005260206000209060021b0190600090565b634e487b7160e01b600052603260045260246000fd5b6001600160a01b0360035416330361165357565b606460405162461bcd60e51b815260206004820152601660248201527f4f6e6c792063616c6c61626c65206279206f776e6572000000000000000000006044820152fd5b91909392936040519160a0830167ffffffffffffffff928482108483111761142d5783916040521683526020938484019081526040840192600180855263ffffffff60608701941684526080860198895280549660009780895582810180821161190957835588526002815260408820805490680100000000000000008210156118f5579061172a91848201815561160d565b9790976118e2578390511667ffffffffffffffff19885416178755818701935180519384116118ce5761175d85546113d1565b601f8111611888575b5081601f85116001146117fa57509280600397959381937f1131472297a800fee664d1d89cfa8f7676ff07189ecc53f80bbb5f4969099db89c9d98968c946117ef575b50501b9160001990881b1c19161790555b61ffff6002860192511665ffffffff00008354925160101b169165ffffffffffff19161717905551910155805491818392a290565b0151925038806117a9565b9190601f949394198416868b52838b20938b905b828210611871575050917f1131472297a800fee664d1d89cfa8f7676ff07189ecc53f80bbb5f4969099db89b9c979593918560039a98969410611859575b505050811b0190556117ba565b0151600019838a1b60f8161c1916905538808061184c565b80888697829497870151815501960194019061180e565b858a52828a20601f860160051c8101918487106118c4575b601f0160051c019084905b8281106118b9575050611766565b8b81550184906118ab565b90915081906118a0565b602489634e487b7160e01b81526041600452fd5b602489634e487b7160e01b815280600452fd5b60248a634e487b7160e01b81526041600452fd5b60248a634e487b7160e01b81526011600452fdfea26469706673582212201a1a311a9025fc3256cb65e8b048c6cbcfe8955c09950f8681cee19e849bf88764736f6c63430008130033",
  "linkReferences": {},
  "deployedLinkReferences": {}
}