{
  "_format": "hh-sol-artifact-1",
  "contractName": "AutomatedFunctionsConsumer",
  "sourceName": "contracts/mock/mockAutomatedFunctionsConsumer.sol",
  "abi": [
    {
      "inputs": [
        {
          "internalType": "address",
          "name": "_deployer",
          "type": "address"
        },
        {
          "internalType": "address",
          "name": "_farmer",
          "type": "address"
        },
        {
          "internalType": "uint256",
          "name": "_humidityLimit",
          "type": "uint256"
        },
        {
          "internalType": "uint256",
          "name": "_sampleMaxSize",
          "type": "uint256"
        },
        {
          "internalType": "uint256",
          "name": "_reparationValue",
          "type": "uint256"
        },
        {
          "internalType": "uint256",
          "name": "_interval",
          "type": "uint256"
        },
        {
          "internalType": "address",
          "name": "_router",
          "type": "address"
        },
        {
          "internalType": "uint64",
          "name": "_subscriptionId",
          "type": "uint64"
        },
        {
          "internalType": "address",
          "name": "_registry",
          "type": "address"
        },
        {
          "internalType": "address",
          "name": "_sepoliaLINKAddress",
          "type": "address"
        },
        {
          "internalType": "address",
          "name": "_sepoliaRegistrarAddress",
          "type": "address"
        },
        {
          "internalType": "uint32",
          "name": "_fulfillGasLimit",
          "type": "uint32"
        }
      ],
      "stateMutability": "payable",
      "type": "constructor"
    },
    {
      "inputs": [
        {
          "internalType": "address",
          "name": "caller",
          "type": "address"
        },
        {
          "internalType": "address",
          "name": "owner",
          "type": "address"
        },
        {
          "internalType": "address",
          "name": "automationRegistry",
          "type": "address"
        }
      ],
      "name": "NotAllowedCaller",
      "type": "error"
    },
    {
      "inputs": [
        {
          "internalType": "bytes32",
          "name": "requestId",
          "type": "bytes32"
        }
      ],
      "name": "UnexpectedRequestID",
      "type": "error"
    },
    {
      "anonymous": false,
      "inputs": [
        {
          "indexed": true,
          "internalType": "bytes32",
          "name": "requestId",
          "type": "bytes32"
        },
        {
          "indexed": false,
          "internalType": "bytes",
          "name": "result",
          "type": "bytes"
        },
        {
          "indexed": false,
          "internalType": "bytes",
          "name": "err",
          "type": "bytes"
        }
      ],
      "name": "OCRResponse",
      "type": "event"
    },
    {
      "anonymous": false,
      "inputs": [
        {
          "indexed": true,
          "internalType": "address",
          "name": "from",
          "type": "address"
        },
        {
          "indexed": true,
          "internalType": "address",
          "name": "to",
          "type": "address"
        }
      ],
      "name": "OwnershipTransferRequested",
      "type": "event"
    },
    {
      "anonymous": false,
      "inputs": [
        {
          "indexed": true,
          "internalType": "address",
          "name": "from",
          "type": "address"
        },
        {
          "indexed": true,
          "internalType": "address",
          "name": "to",
          "type": "address"
        }
      ],
      "name": "OwnershipTransferred",
      "type": "event"
    },
    {
      "anonymous": false,
      "inputs": [
        {
          "indexed": false,
          "internalType": "string",
          "name": "reason",
          "type": "string"
        }
      ],
      "name": "RequestRevertedWithErrorMsg",
      "type": "event"
    },
    {
      "anonymous": false,
      "inputs": [
        {
          "indexed": false,
          "internalType": "bytes",
          "name": "data",
          "type": "bytes"
        }
      ],
      "name": "RequestRevertedWithoutErrorMsg",
      "type": "event"
    },
    {
      "anonymous": false,
      "inputs": [
        {
          "indexed": true,
          "internalType": "bytes32",
          "name": "id",
          "type": "bytes32"
        }
      ],
      "name": "RequestSent",
      "type": "event"
    },
    {
      "anonymous": false,
      "inputs": [
        {
          "indexed": true,
          "internalType": "bytes32",
          "name": "requestId",
          "type": "bytes32"
        },
        {
          "indexed": false,
          "internalType": "bytes",
          "name": "response",
          "type": "bytes"
        },
        {
          "indexed": false,
          "internalType": "bytes",
          "name": "err",
          "type": "bytes"
        }
      ],
      "name": "Response",
      "type": "event"
    },
    {
      "anonymous": false,
      "inputs": [
        {
          "indexed": false,
          "internalType": "address",
          "name": "upkeepAddress",
          "type": "address"
        }
      ],
      "name": "upkeepCreated",
      "type": "event"
    },
    {
      "anonymous": false,
      "inputs": [
        {
          "indexed": false,
          "internalType": "uint256",
          "name": "upkeepId",
          "type": "uint256"
        }
      ],
      "name": "upkeepRegistered",
      "type": "event"
    },
    {
      "inputs": [],
      "name": "REQUEST_DATA_VERSION",
      "outputs": [
        {
          "internalType": "uint16",
          "name": "",
          "type": "uint16"
        }
      ],
      "stateMutability": "view",
      "type": "function"
    },
    {
      "inputs": [],
      "name": "acceptOwnership",
      "outputs": [],
      "stateMutability": "nonpayable",
      "type": "function"
    },
    {
      "inputs": [
        {
          "internalType": "bytes",
          "name": "",
          "type": "bytes"
        }
      ],
      "name": "checkUpkeep",
      "outputs": [
        {
          "internalType": "bool",
          "name": "upkeepNeeded",
          "type": "bool"
        },
        {
          "internalType": "bytes",
          "name": "performData",
          "type": "bytes"
        }
      ],
      "stateMutability": "view",
      "type": "function"
    },
    {
      "inputs": [],
      "name": "computationCBOR",
      "outputs": [
        {
          "internalType": "bytes",
          "name": "",
          "type": "bytes"
        }
      ],
      "stateMutability": "view",
      "type": "function"
    },
    {
      "inputs": [],
      "name": "contractBalance",
      "outputs": [
        {
          "internalType": "uint256",
          "name": "",
          "type": "uint256"
        }
      ],
      "stateMutability": "view",
      "type": "function"
    },
    {
      "inputs": [],
      "name": "donID",
      "outputs": [
        {
          "internalType": "bytes32",
          "name": "",
          "type": "bytes32"
        }
      ],
      "stateMutability": "view",
      "type": "function"
    },
    {
      "inputs": [],
      "name": "farmer",
      "outputs": [
        {
          "internalType": "address",
          "name": "",
          "type": "address"
        }
      ],
      "stateMutability": "view",
      "type": "function"
    },
    {
      "inputs": [],
      "name": "fulfillGasLimit",
      "outputs": [
        {
          "internalType": "uint32",
          "name": "",
          "type": "uint32"
        }
      ],
      "stateMutability": "view",
      "type": "function"
    },
    {
      "inputs": [],
      "name": "gasLimit",
      "outputs": [
        {
          "internalType": "uint32",
          "name": "",
          "type": "uint32"
        }
      ],
      "stateMutability": "view",
      "type": "function"
    },
    {
      "inputs": [],
      "name": "humidityLimit",
      "outputs": [
        {
          "internalType": "uint256",
          "name": "",
          "type": "uint256"
        }
      ],
      "stateMutability": "view",
      "type": "function"
    },
    {
      "inputs": [],
      "name": "institution",
      "outputs": [
        {
          "internalType": "address",
          "name": "",
          "type": "address"
        }
      ],
      "stateMutability": "view",
      "type": "function"
    },
    {
      "inputs": [],
      "name": "interval",
      "outputs": [
        {
          "internalType": "uint256",
          "name": "",
          "type": "uint256"
        }
      ],
      "stateMutability": "view",
      "type": "function"
    },
    {
      "inputs": [],
      "name": "lastUpkeepTimeStamp",
      "outputs": [
        {
          "internalType": "uint256",
          "name": "",
          "type": "uint256"
        }
      ],
      "stateMutability": "view",
      "type": "function"
    },
    {
      "inputs": [],
      "name": "latestError",
      "outputs": [
        {
          "internalType": "bytes",
          "name": "",
          "type": "bytes"
        }
      ],
      "stateMutability": "view",
      "type": "function"
    },
    {
      "inputs": [],
      "name": "latestRequestId",
      "outputs": [
        {
          "internalType": "bytes32",
          "name": "",
          "type": "bytes32"
        }
      ],
      "stateMutability": "view",
      "type": "function"
    },
    {
      "inputs": [],
      "name": "latestResponse",
      "outputs": [
        {
          "internalType": "bytes",
          "name": "",
          "type": "bytes"
        }
      ],
      "stateMutability": "view",
      "type": "function"
    },
    {
      "inputs": [],
      "name": "owner",
      "outputs": [
        {
          "internalType": "address",
          "name": "",
          "type": "address"
        }
      ],
      "stateMutability": "view",
      "type": "function"
    },
    {
      "inputs": [
        {
          "internalType": "bytes",
          "name": "",
          "type": "bytes"
        }
      ],
      "name": "performUpkeep",
      "outputs": [],
      "stateMutability": "nonpayable",
      "type": "function"
    },
    {
      "inputs": [],
      "name": "registry",
      "outputs": [
        {
          "internalType": "address",
          "name": "",
          "type": "address"
        }
      ],
      "stateMutability": "view",
      "type": "function"
    },
    {
      "inputs": [],
      "name": "reparationValue",
      "outputs": [
        {
          "internalType": "uint256",
          "name": "",
          "type": "uint256"
        }
      ],
      "stateMutability": "view",
      "type": "function"
    },
    {
      "inputs": [],
      "name": "request",
      "outputs": [
        {
          "internalType": "bytes",
          "name": "",
          "type": "bytes"
        }
      ],
      "stateMutability": "view",
      "type": "function"
    },
    {
      "inputs": [],
      "name": "requestCBOR",
      "outputs": [
        {
          "internalType": "bytes",
          "name": "",
          "type": "bytes"
        }
      ],
      "stateMutability": "view",
      "type": "function"
    },
    {
      "inputs": [],
      "name": "requestId",
      "outputs": [
        {
          "internalType": "bytes32",
          "name": "",
          "type": "bytes32"
        }
      ],
      "stateMutability": "view",
      "type": "function"
    },
    {
      "inputs": [
        {
          "internalType": "bytes32",
          "name": "",
          "type": "bytes32"
        },
        {
          "internalType": "uint256",
          "name": "",
          "type": "uint256"
        }
      ],
      "name": "requests",
      "outputs": [
        {
          "internalType": "uint64",
          "name": "subscriptionId",
          "type": "uint64"
        },
        {
          "internalType": "bytes",
          "name": "data",
          "type": "bytes"
        },
        {
          "internalType": "uint16",
          "name": "DATA_VERSION",
          "type": "uint16"
        },
        {
          "internalType": "uint32",
          "name": "callbackGasLimit",
          "type": "uint32"
        },
        {
          "internalType": "bytes32",
          "name": "donId",
          "type": "bytes32"
        }
      ],
      "stateMutability": "view",
      "type": "function"
    },
    {
      "inputs": [],
      "name": "responseCounter",
      "outputs": [
        {
          "internalType": "uint256",
          "name": "",
          "type": "uint256"
        }
      ],
      "stateMutability": "view",
      "type": "function"
    },
    {
      "inputs": [],
      "name": "router",
      "outputs": [
        {
          "internalType": "address",
          "name": "",
          "type": "address"
        }
      ],
      "stateMutability": "view",
      "type": "function"
    },
    {
      "inputs": [],
      "name": "s_lastError",
      "outputs": [
        {
          "internalType": "bytes",
          "name": "",
          "type": "bytes"
        }
      ],
      "stateMutability": "view",
      "type": "function"
    },
    {
      "inputs": [],
      "name": "s_lastRequestId",
      "outputs": [
        {
          "internalType": "bytes32",
          "name": "",
          "type": "bytes32"
        }
      ],
      "stateMutability": "view",
      "type": "function"
    },
    {
      "inputs": [],
      "name": "s_lastResponse",
      "outputs": [
        {
          "internalType": "bytes",
          "name": "",
          "type": "bytes"
        }
      ],
      "stateMutability": "view",
      "type": "function"
    },
    {
      "inputs": [],
      "name": "s_requestCounter",
      "outputs": [
        {
          "internalType": "uint256",
          "name": "",
          "type": "uint256"
        }
      ],
      "stateMutability": "view",
      "type": "function"
    },
    {
      "inputs": [],
      "name": "s_responseCounter",
      "outputs": [
        {
          "internalType": "uint256",
          "name": "",
          "type": "uint256"
        }
      ],
      "stateMutability": "view",
      "type": "function"
    },
    {
      "inputs": [],
      "name": "s_upkeepCounter",
      "outputs": [
        {
          "internalType": "uint256",
          "name": "",
          "type": "uint256"
        }
      ],
      "stateMutability": "view",
      "type": "function"
    },
    {
      "inputs": [],
      "name": "sampleMaxSize",
      "outputs": [
        {
          "internalType": "uint256",
          "name": "",
          "type": "uint256"
        }
      ],
      "stateMutability": "view",
      "type": "function"
    },
    {
      "inputs": [
        {
          "internalType": "uint256",
          "name": "",
          "type": "uint256"
        }
      ],
      "name": "sampleStorage",
      "outputs": [
        {
          "internalType": "string",
          "name": "",
          "type": "string"
        }
      ],
      "stateMutability": "view",
      "type": "function"
    },
    {
      "inputs": [],
      "name": "sepoliaLINKAddress",
      "outputs": [
        {
          "internalType": "address",
          "name": "",
          "type": "address"
        }
      ],
      "stateMutability": "view",
      "type": "function"
    },
    {
      "inputs": [],
      "name": "sepoliaRegistrarAddress",
      "outputs": [
        {
          "internalType": "address",
          "name": "",
          "type": "address"
        }
      ],
      "stateMutability": "view",
      "type": "function"
    },
    {
      "inputs": [
        {
          "internalType": "bytes",
          "name": "receivedCBOR",
          "type": "bytes"
        }
      ],
      "name": "setComputation",
      "outputs": [],
      "stateMutability": "nonpayable",
      "type": "function"
    },
    {
      "inputs": [
        {
          "internalType": "bytes",
          "name": "newRequestCBOR",
          "type": "bytes"
        },
        {
          "internalType": "uint64",
          "name": "_subscriptionId",
          "type": "uint64"
        },
        {
          "internalType": "uint32",
          "name": "_fulfillGasLimit",
          "type": "uint32"
        },
        {
          "internalType": "bytes32",
          "name": "_donID",
          "type": "bytes32"
        }
      ],
      "name": "setRequest",
      "outputs": [],
      "stateMutability": "nonpayable",
      "type": "function"
    },
    {
      "inputs": [],
      "name": "subscriptionId",
      "outputs": [
        {
          "internalType": "uint64",
          "name": "",
          "type": "uint64"
        }
      ],
      "stateMutability": "view",
      "type": "function"
    },
    {
      "inputs": [
        {
          "internalType": "address",
          "name": "to",
          "type": "address"
        }
      ],
      "name": "transferOwnership",
      "outputs": [],
      "stateMutability": "nonpayable",
      "type": "function"
    },
    {
      "inputs": [],
      "name": "upkeepContract",
      "outputs": [
        {
          "internalType": "address",
          "name": "",
          "type": "address"
        }
      ],
      "stateMutability": "view",
      "type": "function"
    },
    {
      "inputs": [],
      "name": "upkeepCounter",
      "outputs": [
        {
          "internalType": "uint256",
          "name": "",
          "type": "uint256"
        }
      ],
      "stateMutability": "view",
      "type": "function"
    },
    {
      "inputs": [],
      "name": "upkeepId",
      "outputs": [
        {
          "internalType": "uint256",
          "name": "",
          "type": "uint256"
        }
      ],
      "stateMutability": "view",
      "type": "function"
    }
  ],
  "bytecode": "0x60806001600160401b03601f62001b9e38819003918201601f191684019183831185841017620001cd5780859261018094604052833981010312620001c8576200004982620001e3565b6200005760208401620001e3565b9260408101519060608101519260808201519160a0810151936200007e60c08301620001e3565b60e0830151978816809803620001c8576200009d6101008401620001e3565b98620000ad6101208501620001e3565b91610160620000c06101408701620001e3565b9501519763ffffffff89168903620001c85760006001556001600160a01b0396871697881562000183576bffffffff00000000000000009a88968780968c60018060a01b03199d8e60035416176003558d601c541617601c55168b601d541617601d55602055602155601f55600a551685600c541617600c5581600954991685600d541617600d551683601a541617601a551690601b541617601b5560401b169160018060601b0319161717600955426018556040516119a59081620001f98239f35b60405162461bcd60e51b815260206004820152601860248201527f43616e6e6f7420736574206f776e657220746f207a65726f00000000000000006044820152606490fd5b600080fd5b634e487b7160e01b600052604160045260246000fd5b51906001600160a01b0382168203620001c85756fe608060408181526004918236101561001657600080fd5b600092833560e01c9182626d6cae1461140957508163089ea02e146113ea57816309c1ba2e146113c15781631243bcc3146113995781631aa46f591461137a57816324b93e3e14611354578163277e221314611254578163338cdca1146111aa578163381fc4b51461118b5781633944ea3a146110e157816343cd3d86146110c25781634585e33b14610e6057816348802b9214610e4157816348bd6f0514610e225781634b0795a814610d785781635d641dfc14610d5c5781635e0611f114610d34578163688ecfd114610d165781636baa48fe14610cee5781636e04ff0d14610bf35781636e74336b14610bd457816379ba509714610b185781637b10399914610af05781637d95f68a146109685781638b7afe2e1461094d5781638da5cb5b14610925578163947a36fb146109065781639655e6d8146107ca578163a3097139146107ac578163a3d3c0d21461078d578163b1e217491461076e578163bd4ca97b1461073d578163bef3a2f014610693578163d1384eb61461066b578163d2aa789f1461064c578163d811fcf014610624578163ebf14a5514610605578163f1f7d2341461041e578163f2fde38b1461035157508063f5c1279b14610333578063f68016b71461030f578063f887ea40146102e85763fffeb84e146101fd57600080fd5b346102e457816003193601126102e4578051908260085461021d81611423565b808552916001918083169081156102bc575060011461025f575b5050506102498261025b94038361145d565b51918291602083526020830190611495565b0390f35b9450600885527ff3f7a9fe364faab93b216da50a3214154f22a0a2b415b23a84c8169e8b636ee35b8286106102a45750505061024982602061025b9582010194610237565b80546020878701810191909152909501948101610287565b61025b97508693506020925061024994915060ff191682840152151560051b82010194610237565b5080fd5b50346102e457816003193601126102e4576020906001600160a01b03600c54169051908152f35b50346102e457816003193601126102e45760209063ffffffff601054169051908152f35b50346102e457816003193601126102e4576020906015549051908152f35b9190503461041a57602036600319011261041a578135916001600160a01b039182841680940361041657610383611691565b3384146103d357508273ffffffffffffffffffffffffffffffffffffffff19825416179055600354167fed8889f560326eb138920d842192f0eb3dd22b4f139c87a2c57538e05bae12788380a380f35b906020606492519162461bcd60e51b8352820152601760248201527f43616e6e6f74207472616e7366657220746f2073656c660000000000000000006044820152fd5b8480fd5b8280fd5b90503461041a57608036600319011261041a5767ffffffffffffffff813581811161041657610450903690840161162c565b9060243593838516809503610601576044359363ffffffff851685036105fd57610478611691565b83116105ea575061048a600554611423565b601f811161058b575b508590601f83116001146104fe576bffffffff00000000000000009392918791836104f3575b50508160011b916000199060031b1c1916176005555b600954931b16916bffffffffffffffffffffffff1916171760095560643560115580f35b0135905038806104b9565b7f036b6384b5eca791c62761152d0c79bb0604c104a5fb6f4eb0703f3154bb3db091601f198416885b81811061057357509160019391856bffffffff000000000000000097969410610559575b505050811b016005556104cf565b0135600019600384901b60f8161c1916905538808061054b565b91936020600181928787013581550195019201610527565b7f036b6384b5eca791c62761152d0c79bb0604c104a5fb6f4eb0703f3154bb3db0601f840160051c810191602085106105e0575b601f0160051c01905b8181106105d55750610493565b8781556001016105c8565b90915081906105bf565b866041602492634e487b7160e01b835252fd5b8780fd5b8680fd5b5050346102e457816003193601126102e4576020906021549051908152f35b5050346102e457816003193601126102e4576020906001600160a01b03601d54169051908152f35b5050346102e457816003193601126102e457602090600e549051908152f35b5050346102e457816003193601126102e4576020906001600160a01b03601c54169051908152f35b5050346102e457816003193601126102e457805190826007546106b581611423565b808552916001918083169081156102bc57506001146106e0575050506102498261025b94038361145d565b9450600785527fa66cc928b5edb82af9bd49922954155ab7b0942694bea4ce44661d9a8736c6885b8286106107255750505061024982602061025b9582010194610237565b80546020878701810191909152909501948101610708565b5050346102e457816003193601126102e45761025b9061075b6114d5565b9051918291602083526020830190611495565b5050346102e457816003193601126102e4576020906012549051908152f35b5050346102e457816003193601126102e4576020906019549051908152f35b5050346102e457816003193601126102e45760209081549051908152f35b8383346102e457806003193601126102e4576024359235825260209260028452818320805482101561090257906108009161165f565b509167ffffffffffffffff835416926001808201928685519485938382549261082884611423565b808852938381169081156108dc5750600114610896575b505050505063ffffffff929161085691038461145d565b61087a600360028301549201549360a08651988998895288015260a0870190611495565b9361ffff82169086015260101c16606084015260808301520390f35b81528381209695945091905b8183106108c45750939450919250908201018661085663ffffffff8a8061083f565b865488840185015295860195879450918301916108a2565b60ff19168689015250505050151560051b83010190508661085663ffffffff8a8061083f565b8380fd5b5050346102e457816003193601126102e457602090600a549051908152f35b5050346102e457816003193601126102e4576020906001600160a01b03600354169051908152f35b5050346102e457816003193601126102e45751478152602090f35b8334610aed57602091826003193601126102e45767ffffffffffffffff81358181116109025761099b903690840161162c565b9290916109a6611691565b8311610ada57506109b8602454611423565b601f8111610a7c575b508293601f83116001146109fe57509282938293926109f3575b50508160011b916000199060031b1c19161760245580f35b0135905083806109db565b601f198316947f7cd332d19b93bcabe3cce7ca0c18a052f57e5fd03b4758a09f30f5ddc4b22ec4929185905b878210610a64575050836001959610610a4a575b505050811b0160245580f35b0135600019600384901b60f8161c19169055838080610a3e565b80600184968294958701358155019501920190610a2a565b7f7cd332d19b93bcabe3cce7ca0c18a052f57e5fd03b4758a09f30f5ddc4b22ec4601f840160051c810191868510610ad0575b601f0160051c01905b818110610ac557506109c1565b848155600101610ab8565b9091508190610aaf565b836041602492634e487b7160e01b835252fd5b80fd5b5050346102e457816003193601126102e4576020906001600160a01b03600d54169051908152f35b9190503461041a578260031936011261041a578154916001600160a01b03918284163303610b9157506003549273ffffffffffffffffffffffffffffffffffffffff199033828616176003551690553391167f8be0079c531659141344cd1fd0a4f28419497f9722a3daafe3b4186f6b6457e08380a380f35b906020606492519162461bcd60e51b8352820152601660248201527f4d7573742062652070726f706f736564206f776e6572000000000000000000006044820152fd5b5050346102e457816003193601126102e4576020906011549051908152f35b90503461041a57602091826003193601126109025767ffffffffffffffff918035838111610cea5736602382011215610cea5780820135938411610cd7578251601f1994879291610c4b601f8301881689018261145d565b81815236602483850101116109025781602489940184830137010152601854420390428211610cc45750600a92919254109180519485938452818585015260609485518093860152815b838110610caf575050838201850152601f01168101030190f35b60808101518882018801528795508101610c95565b856011602492634e487b7160e01b835252fd5b602486604184634e487b7160e01b835252fd5b8580fd5b5050346102e457816003193601126102e4576020906001600160a01b03601b54169051908152f35b5050346102e457816003193601126102e45761025b9061075b611593565b5050346102e457816003193601126102e4576020906001600160a01b03601e54169051908152f35b5050346102e457816003193601126102e4576020905160018152f35b5050346102e457816003193601126102e45780519082601454610d9a81611423565b808552916001918083169081156102bc5750600114610dc5575050506102498261025b94038361145d565b9450601485527fce6d7b5282bd9a3661ae061feed1dbda4e52ab073b1f9285be6e155d9c38d4ec5b828610610e0a5750505061024982602061025b9582010194610237565b80546020878701810191909152909501948101610ded565b5050346102e457816003193601126102e457602090601f549051908152f35b5050346102e457816003193601126102e4576020906016549051908152f35b9190503461041a57602036600319011261041a5767ffffffffffffffff90823582811161041657610e94903690850161162c565b50506001600160a01b0380600354169081331415806110b4575b611074575050600e5415611032578051602081018181108482111761101f57908591835252601854420342811161100c57600a541015610fca57504260185560195460018101809111610fb7576019556021546022541015610f5b57610f2c906009541663ffffffff6010541660115491610f27611593565b6116e9565b8060125582556016549060018201809211610f48575060165580f35b826011602492634e487b7160e01b835252fd5b610f2c90740100000000000000000000000000000000000000007fffffffffffffffffffffff00ffffffffffffffffffffffffffffffffffffffff601e541617601e556009541663ffffffff6010541660115491610f276114d5565b602484601185634e487b7160e01b835252fd5b5162461bcd60e51b8152602081840152601560248201527f54696d6520696e74657276616c206e6f74206d657400000000000000000000006044820152606490fd5b602485601186634e487b7160e01b835252fd5b602486604187634e487b7160e01b835252fd5b5162461bcd60e51b8152602081840152601560248201527f55706b656570206e6f74207265676973746572656400000000000000000000006044820152606490fd5b6064949350601e54169151927f426fbc71000000000000000000000000000000000000000000000000000000008452339084015260248301526044820152fd5b5080601e5416331415610eae565b5050346102e457816003193601126102e4576020906017549051908152f35b5050346102e457816003193601126102e4578051908260135461110381611423565b808552916001918083169081156102bc575060011461112e575050506102498261025b94038361145d565b9450601385527f66de8ffda797e3de9c05e8fc57b3bf0ec28a930d40b0d285d93c06501cf6a0905b8286106111735750505061024982602061025b9582010194610237565b80546020878701810191909152909501948101611156565b5050346102e457816003193601126102e457602090600b549051908152f35b5050346102e457816003193601126102e45780519082600f546111cc81611423565b808552916001918083169081156102bc57506001146111f7575050506102498261025b94038361145d565b9450600f85527f8d1108e10bcb7c27dddfc02ed9d693a074039d026cf4ea4240b40f7d581ac8025b82861061123c5750505061024982602061025b9582010194610237565b8054602087870181019190915290950194810161121f565b9190503461041a5760209182600319360112610902573560225481101561090257602284527f61035b26e3e9eee00e0d72fd1ee8ddca6894550dca6916ea2ac6baa90d11e510018151938491818154906112ad82611423565b9283865260019288848216918260001461132a5750506001146112ec575b858861025b896112dd848a038561145d565b51928284938452830190611495565b87945081939291528383205b82841061131257505050820101816112dd61025b386112cb565b8054848a0186015288955087949093019281016112f8565b60ff19168882015294151560051b870190940194508593506112dd925061025b91503890506112cb565b5050346102e457816003193601126102e4576009548151911c63ffffffff168152602090f35b5050346102e457816003193601126102e4576020906006549051908152f35b5050346102e457816003193601126102e4576020906001600160a01b03601a54169051908152f35b5050346102e457816003193601126102e45760209067ffffffffffffffff600954169051908152f35b5050346102e457816003193601126102e4576020906018549051908152f35b8490346102e457816003193601126102e457602091548152f35b90600182811c92168015611453575b602083101461143d57565b634e487b7160e01b600052602260045260246000fd5b91607f1691611432565b90601f8019910116810190811067ffffffffffffffff82111761147f57604052565b634e487b7160e01b600052604160045260246000fd5b919082519283825260005b8481106114c1575050826000602080949584010152601f8019910116010190565b6020818301810151848301820152016114a0565b60405190600082602454916114e983611423565b808352926001908181169081156115715750600114611512575b506115109250038361145d565b565b6024600090815291507f7cd332d19b93bcabe3cce7ca0c18a052f57e5fd03b4758a09f30f5ddc4b22ec45b8483106115565750611510935050810160200138611503565b81935090816020925483858a0101520191019091859261153d565b90506020925061151094915060ff191682840152151560051b82010138611503565b60405190600082600554916115a783611423565b8083529260019081811690811561157157506001146115cd57506115109250038361145d565b6005600090815291507f036b6384b5eca791c62761152d0c79bb0604c104a5fb6f4eb0703f3154bb3db05b8483106116115750611510935050810160200138611503565b81935090816020925483858a010152019101909185926115f8565b9181601f8401121561165a5782359167ffffffffffffffff831161165a576020838186019501011161165a57565b600080fd5b805482101561167b5760005260206000209060021b0190600090565b634e487b7160e01b600052603260045260246000fd5b6001600160a01b036003541633036116a557565b606460405162461bcd60e51b815260206004820152601660248201527f4f6e6c792063616c6c61626c65206279206f776e6572000000000000000000006044820152fd5b91909392936040519160a0830167ffffffffffffffff928482108483111761147f5783916040521683526020938484019081526040840192600180855263ffffffff60608701941684526080860198895280549660009780895582810180821161195b5783558852600281526040882080549068010000000000000000821015611947579061177c91848201815561165f565b979097611934578390511667ffffffffffffffff1988541617875581870193518051938411611920576117af8554611423565b601f81116118da575b5081601f851160011461184c57509280600397959381937f1131472297a800fee664d1d89cfa8f7676ff07189ecc53f80bbb5f4969099db89c9d98968c94611841575b50501b9160001990881b1c19161790555b61ffff6002860192511665ffffffff00008354925160101b169165ffffffffffff19161717905551910155805491818392a290565b0151925038806117fb565b9190601f949394198416868b52838b20938b905b8282106118c3575050917f1131472297a800fee664d1d89cfa8f7676ff07189ecc53f80bbb5f4969099db89b9c979593918560039a989694106118ab575b505050811b01905561180c565b0151600019838a1b60f8161c1916905538808061189e565b808886978294978701518155019601940190611860565b858a52828a20601f860160051c810191848710611916575b601f0160051c019084905b82811061190b5750506117b8565b8b81550184906118fd565b90915081906118f2565b602489634e487b7160e01b81526041600452fd5b602489634e487b7160e01b815280600452fd5b60248a634e487b7160e01b81526041600452fd5b60248a634e487b7160e01b81526011600452fdfea264697066735822122062dfc87f40006fb164d678a23b417123a63fe84136c636b9598cc0bc5d4c661164736f6c63430008130033",
  "linkReferences": {},
  "deployedLinkReferences": {}
}