{
  "_format": "hh-sol-artifact-1",
  "contractName": "AutomatedFunctionsConsumer",
  "sourceName": "contracts/mock/mockAutomatedFunctionsConsumer.sol",
  "abi": [
    {
      "inputs": [
        {
          "internalType": "address",
          "name": "_deployer",
          "type": "address"
        },
        {
          "internalType": "address",
          "name": "_farmer",
          "type": "address"
        },
        {
          "internalType": "uint256",
          "name": "_humidityLimit",
          "type": "uint256"
        },
        {
          "internalType": "uint256",
          "name": "_sampleMaxSize",
          "type": "uint256"
        },
        {
          "internalType": "uint256",
          "name": "_reparationValue",
          "type": "uint256"
        },
        {
          "internalType": "uint256",
          "name": "_interval",
          "type": "uint256"
        },
        {
          "internalType": "address",
          "name": "_router",
          "type": "address"
        },
        {
          "internalType": "uint64",
          "name": "_subscriptionId",
          "type": "uint64"
        },
        {
          "internalType": "address",
          "name": "_registry",
          "type": "address"
        },
        {
          "internalType": "address",
          "name": "_sepoliaLINKAddress",
          "type": "address"
        },
        {
          "internalType": "address",
          "name": "_sepoliaRegistrarAddress",
          "type": "address"
        },
        {
          "internalType": "uint32",
          "name": "_fulfillGasLimit",
          "type": "uint32"
        }
      ],
      "stateMutability": "payable",
      "type": "constructor"
    },
    {
      "inputs": [
        {
          "internalType": "address",
          "name": "caller",
          "type": "address"
        },
        {
          "internalType": "address",
          "name": "owner",
          "type": "address"
        },
        {
          "internalType": "address",
          "name": "automationRegistry",
          "type": "address"
        }
      ],
      "name": "NotAllowedCaller",
      "type": "error"
    },
    {
      "inputs": [
        {
          "internalType": "bytes32",
          "name": "requestId",
          "type": "bytes32"
        }
      ],
      "name": "UnexpectedRequestID",
      "type": "error"
    },
    {
      "anonymous": false,
      "inputs": [
        {
          "indexed": false,
          "internalType": "uint8",
          "name": "controlFlag",
          "type": "uint8"
        }
      ],
      "name": "ControlFlagValue",
      "type": "event"
    },
    {
      "anonymous": false,
      "inputs": [
        {
          "indexed": true,
          "internalType": "bytes32",
          "name": "requestId",
          "type": "bytes32"
        },
        {
          "indexed": false,
          "internalType": "bytes",
          "name": "result",
          "type": "bytes"
        },
        {
          "indexed": false,
          "internalType": "bytes",
          "name": "err",
          "type": "bytes"
        }
      ],
      "name": "OCRResponse",
      "type": "event"
    },
    {
      "anonymous": false,
      "inputs": [
        {
          "indexed": true,
          "internalType": "address",
          "name": "from",
          "type": "address"
        },
        {
          "indexed": true,
          "internalType": "address",
          "name": "to",
          "type": "address"
        }
      ],
      "name": "OwnershipTransferRequested",
      "type": "event"
    },
    {
      "anonymous": false,
      "inputs": [
        {
          "indexed": true,
          "internalType": "address",
          "name": "from",
          "type": "address"
        },
        {
          "indexed": true,
          "internalType": "address",
          "name": "to",
          "type": "address"
        }
      ],
      "name": "OwnershipTransferred",
      "type": "event"
    },
    {
      "anonymous": false,
      "inputs": [
        {
          "indexed": false,
          "internalType": "bytes32",
          "name": "requestId",
          "type": "bytes32"
        }
      ],
      "name": "RequestIdUpdated",
      "type": "event"
    },
    {
      "anonymous": false,
      "inputs": [
        {
          "indexed": false,
          "internalType": "string",
          "name": "reason",
          "type": "string"
        }
      ],
      "name": "RequestRevertedWithErrorMsg",
      "type": "event"
    },
    {
      "anonymous": false,
      "inputs": [
        {
          "indexed": false,
          "internalType": "bytes",
          "name": "data",
          "type": "bytes"
        }
      ],
      "name": "RequestRevertedWithoutErrorMsg",
      "type": "event"
    },
    {
      "anonymous": false,
      "inputs": [
        {
          "indexed": true,
          "internalType": "bytes32",
          "name": "id",
          "type": "bytes32"
        }
      ],
      "name": "RequestSent",
      "type": "event"
    },
    {
      "anonymous": false,
      "inputs": [
        {
          "indexed": true,
          "internalType": "bytes32",
          "name": "requestId",
          "type": "bytes32"
        },
        {
          "indexed": false,
          "internalType": "bytes",
          "name": "response",
          "type": "bytes"
        },
        {
          "indexed": false,
          "internalType": "bytes",
          "name": "err",
          "type": "bytes"
        }
      ],
      "name": "Response",
      "type": "event"
    },
    {
      "anonymous": false,
      "inputs": [
        {
          "indexed": false,
          "internalType": "address",
          "name": "upkeepAddress",
          "type": "address"
        }
      ],
      "name": "upkeepCreated",
      "type": "event"
    },
    {
      "anonymous": false,
      "inputs": [
        {
          "indexed": false,
          "internalType": "uint256",
          "name": "upkeepId",
          "type": "uint256"
        }
      ],
      "name": "upkeepRegistered",
      "type": "event"
    },
    {
      "inputs": [],
      "name": "REQUEST_DATA_VERSION",
      "outputs": [
        {
          "internalType": "uint16",
          "name": "",
          "type": "uint16"
        }
      ],
      "stateMutability": "view",
      "type": "function"
    },
    {
      "inputs": [],
      "name": "acceptOwnership",
      "outputs": [],
      "stateMutability": "nonpayable",
      "type": "function"
    },
    {
      "inputs": [
        {
          "internalType": "bytes",
          "name": "",
          "type": "bytes"
        }
      ],
      "name": "checkUpkeep",
      "outputs": [
        {
          "internalType": "bool",
          "name": "upkeepNeeded",
          "type": "bool"
        },
        {
          "internalType": "bytes",
          "name": "performData",
          "type": "bytes"
        }
      ],
      "stateMutability": "view",
      "type": "function"
    },
    {
      "inputs": [],
      "name": "computationCBOR",
      "outputs": [
        {
          "internalType": "bytes",
          "name": "",
          "type": "bytes"
        }
      ],
      "stateMutability": "view",
      "type": "function"
    },
    {
      "inputs": [],
      "name": "contractBalance",
      "outputs": [
        {
          "internalType": "uint256",
          "name": "",
          "type": "uint256"
        }
      ],
      "stateMutability": "view",
      "type": "function"
    },
    {
      "inputs": [],
      "name": "donID",
      "outputs": [
        {
          "internalType": "bytes32",
          "name": "",
          "type": "bytes32"
        }
      ],
      "stateMutability": "view",
      "type": "function"
    },
    {
      "inputs": [],
      "name": "farmer",
      "outputs": [
        {
          "internalType": "address",
          "name": "",
          "type": "address"
        }
      ],
      "stateMutability": "view",
      "type": "function"
    },
    {
      "inputs": [],
      "name": "fulfillGasLimit",
      "outputs": [
        {
          "internalType": "uint32",
          "name": "",
          "type": "uint32"
        }
      ],
      "stateMutability": "view",
      "type": "function"
    },
    {
      "inputs": [],
      "name": "gasLimit",
      "outputs": [
        {
          "internalType": "uint32",
          "name": "",
          "type": "uint32"
        }
      ],
      "stateMutability": "view",
      "type": "function"
    },
    {
      "inputs": [],
      "name": "humidityLimit",
      "outputs": [
        {
          "internalType": "uint256",
          "name": "",
          "type": "uint256"
        }
      ],
      "stateMutability": "view",
      "type": "function"
    },
    {
      "inputs": [],
      "name": "institution",
      "outputs": [
        {
          "internalType": "address",
          "name": "",
          "type": "address"
        }
      ],
      "stateMutability": "view",
      "type": "function"
    },
    {
      "inputs": [],
      "name": "interval",
      "outputs": [
        {
          "internalType": "uint256",
          "name": "",
          "type": "uint256"
        }
      ],
      "stateMutability": "view",
      "type": "function"
    },
    {
      "inputs": [],
      "name": "lastUpkeepTimeStamp",
      "outputs": [
        {
          "internalType": "uint256",
          "name": "",
          "type": "uint256"
        }
      ],
      "stateMutability": "view",
      "type": "function"
    },
    {
      "inputs": [],
      "name": "latestError",
      "outputs": [
        {
          "internalType": "bytes",
          "name": "",
          "type": "bytes"
        }
      ],
      "stateMutability": "view",
      "type": "function"
    },
    {
      "inputs": [],
      "name": "latestRequestId",
      "outputs": [
        {
          "internalType": "bytes32",
          "name": "",
          "type": "bytes32"
        }
      ],
      "stateMutability": "view",
      "type": "function"
    },
    {
      "inputs": [],
      "name": "latestResponse",
      "outputs": [
        {
          "internalType": "bytes",
          "name": "",
          "type": "bytes"
        }
      ],
      "stateMutability": "view",
      "type": "function"
    },
    {
      "inputs": [],
      "name": "owner",
      "outputs": [
        {
          "internalType": "address",
          "name": "",
          "type": "address"
        }
      ],
      "stateMutability": "view",
      "type": "function"
    },
    {
      "inputs": [
        {
          "internalType": "bytes",
          "name": "",
          "type": "bytes"
        },
        {
          "internalType": "uint256",
          "name": "mockSampleStorageLength",
          "type": "uint256"
        }
      ],
      "name": "performUpkeep",
      "outputs": [],
      "stateMutability": "nonpayable",
      "type": "function"
    },
    {
      "inputs": [],
      "name": "registry",
      "outputs": [
        {
          "internalType": "address",
          "name": "",
          "type": "address"
        }
      ],
      "stateMutability": "view",
      "type": "function"
    },
    {
      "inputs": [],
      "name": "reparationValue",
      "outputs": [
        {
          "internalType": "uint256",
          "name": "",
          "type": "uint256"
        }
      ],
      "stateMutability": "view",
      "type": "function"
    },
    {
      "inputs": [],
      "name": "request",
      "outputs": [
        {
          "internalType": "bytes",
          "name": "",
          "type": "bytes"
        }
      ],
      "stateMutability": "view",
      "type": "function"
    },
    {
      "inputs": [],
      "name": "requestCBOR",
      "outputs": [
        {
          "internalType": "bytes",
          "name": "",
          "type": "bytes"
        }
      ],
      "stateMutability": "view",
      "type": "function"
    },
    {
      "inputs": [],
      "name": "requestId",
      "outputs": [
        {
          "internalType": "bytes32",
          "name": "",
          "type": "bytes32"
        }
      ],
      "stateMutability": "view",
      "type": "function"
    },
    {
      "inputs": [
        {
          "internalType": "bytes32",
          "name": "",
          "type": "bytes32"
        },
        {
          "internalType": "uint256",
          "name": "",
          "type": "uint256"
        }
      ],
      "name": "requests",
      "outputs": [
        {
          "internalType": "uint64",
          "name": "subscriptionId",
          "type": "uint64"
        },
        {
          "internalType": "bytes",
          "name": "data",
          "type": "bytes"
        },
        {
          "internalType": "uint16",
          "name": "DATA_VERSION",
          "type": "uint16"
        },
        {
          "internalType": "uint32",
          "name": "callbackGasLimit",
          "type": "uint32"
        },
        {
          "internalType": "bytes32",
          "name": "donId",
          "type": "bytes32"
        }
      ],
      "stateMutability": "view",
      "type": "function"
    },
    {
      "inputs": [],
      "name": "responseCounter",
      "outputs": [
        {
          "internalType": "uint256",
          "name": "",
          "type": "uint256"
        }
      ],
      "stateMutability": "view",
      "type": "function"
    },
    {
      "inputs": [],
      "name": "router",
      "outputs": [
        {
          "internalType": "address",
          "name": "",
          "type": "address"
        }
      ],
      "stateMutability": "view",
      "type": "function"
    },
    {
      "inputs": [],
      "name": "s_lastError",
      "outputs": [
        {
          "internalType": "bytes",
          "name": "",
          "type": "bytes"
        }
      ],
      "stateMutability": "view",
      "type": "function"
    },
    {
      "inputs": [],
      "name": "s_lastRequestId",
      "outputs": [
        {
          "internalType": "bytes32",
          "name": "",
          "type": "bytes32"
        }
      ],
      "stateMutability": "view",
      "type": "function"
    },
    {
      "inputs": [],
      "name": "s_lastResponse",
      "outputs": [
        {
          "internalType": "bytes",
          "name": "",
          "type": "bytes"
        }
      ],
      "stateMutability": "view",
      "type": "function"
    },
    {
      "inputs": [],
      "name": "s_requestCounter",
      "outputs": [
        {
          "internalType": "uint256",
          "name": "",
          "type": "uint256"
        }
      ],
      "stateMutability": "view",
      "type": "function"
    },
    {
      "inputs": [],
      "name": "s_responseCounter",
      "outputs": [
        {
          "internalType": "uint256",
          "name": "",
          "type": "uint256"
        }
      ],
      "stateMutability": "view",
      "type": "function"
    },
    {
      "inputs": [],
      "name": "s_upkeepCounter",
      "outputs": [
        {
          "internalType": "uint256",
          "name": "",
          "type": "uint256"
        }
      ],
      "stateMutability": "view",
      "type": "function"
    },
    {
      "inputs": [],
      "name": "sampleMaxSize",
      "outputs": [
        {
          "internalType": "uint256",
          "name": "",
          "type": "uint256"
        }
      ],
      "stateMutability": "view",
      "type": "function"
    },
    {
      "inputs": [
        {
          "internalType": "uint256",
          "name": "",
          "type": "uint256"
        }
      ],
      "name": "sampleStorage",
      "outputs": [
        {
          "internalType": "string",
          "name": "",
          "type": "string"
        }
      ],
      "stateMutability": "view",
      "type": "function"
    },
    {
      "inputs": [],
      "name": "sepoliaLINKAddress",
      "outputs": [
        {
          "internalType": "address",
          "name": "",
          "type": "address"
        }
      ],
      "stateMutability": "view",
      "type": "function"
    },
    {
      "inputs": [],
      "name": "sepoliaRegistrarAddress",
      "outputs": [
        {
          "internalType": "address",
          "name": "",
          "type": "address"
        }
      ],
      "stateMutability": "view",
      "type": "function"
    },
    {
      "inputs": [
        {
          "internalType": "bytes",
          "name": "receivedCBOR",
          "type": "bytes"
        }
      ],
      "name": "setComputation",
      "outputs": [],
      "stateMutability": "nonpayable",
      "type": "function"
    },
    {
      "inputs": [
        {
          "internalType": "bytes",
          "name": "newRequestCBOR",
          "type": "bytes"
        },
        {
          "internalType": "uint64",
          "name": "_subscriptionId",
          "type": "uint64"
        },
        {
          "internalType": "bytes32",
          "name": "_donID",
          "type": "bytes32"
        }
      ],
      "name": "setRequest",
      "outputs": [],
      "stateMutability": "nonpayable",
      "type": "function"
    },
    {
      "inputs": [],
      "name": "subscriptionId",
      "outputs": [
        {
          "internalType": "uint64",
          "name": "",
          "type": "uint64"
        }
      ],
      "stateMutability": "view",
      "type": "function"
    },
    {
      "inputs": [
        {
          "internalType": "address",
          "name": "to",
          "type": "address"
        }
      ],
      "name": "transferOwnership",
      "outputs": [],
      "stateMutability": "nonpayable",
      "type": "function"
    },
    {
      "inputs": [],
      "name": "upkeepContract",
      "outputs": [
        {
          "internalType": "address",
          "name": "",
          "type": "address"
        }
      ],
      "stateMutability": "view",
      "type": "function"
    },
    {
      "inputs": [],
      "name": "upkeepCounter",
      "outputs": [
        {
          "internalType": "uint256",
          "name": "",
          "type": "uint256"
        }
      ],
      "stateMutability": "view",
      "type": "function"
    },
    {
      "inputs": [],
      "name": "upkeepId",
      "outputs": [
        {
          "internalType": "uint256",
          "name": "",
          "type": "uint256"
        }
      ],
      "stateMutability": "view",
      "type": "function"
    }
  ],
  "bytecode": "0x60806001600160401b03601f62001b8938819003918201601f191684019183831185841017620001d15780859261018094604052833981010312620001cc576200004982620001e7565b6200005760208401620001e7565b9260408101519060608101519260808201519160a0810151936200007e60c08301620001e7565b60e0830151978816809803620001cc576200009d6101008401620001e7565b98620000ad6101208501620001e7565b91610160620000c06101408701620001e7565b9501519763ffffffff89168903620001cc57600180556001600160a01b0396871697881562000187576bffffffff00000000000000009a88968780968c60018060a01b03199d8e60035416176003558d601c541617601c55168b601d541617601d55602055602155601f55600a551685600c541617600c5581600954991685600d541617600d551683601a541617601a551690601b541617601b5560401b169160018060601b0319161717600955426018556001600e5560405161198c9081620001fd8239f35b60405162461bcd60e51b815260206004820152601860248201527f43616e6e6f7420736574206f776e657220746f207a65726f00000000000000006044820152606490fd5b600080fd5b634e487b7160e01b600052604160045260246000fd5b51906001600160a01b0382168203620001cc5756fe608060408181526004918236101561001657600080fd5b600092833560e01c9182626d6cae146113f057508163089ea02e146113d157816309c1ba2e146113a85781631243bcc3146113805781631aa46f591461136157816324b93e3e1461133b578163277e22131461123b578163338cdca11461119157816336e6a92f14610ffc578163381fc4b514610fdd5781633944ea3a14610f3357816343cd3d8614610f1457816348802b9214610ef557816348bd6f0514610ed65781634b0795a814610e2c5781635d641dfc14610e105781635e0611f114610de8578163688ecfd114610dca5781636baa48fe14610da25781636e04ff0d14610ca75781636e74336b14610c8857816379ba509714610bcc5781637b10399914610ba45781637d95f68a14610a1c5781638b7afe2e14610a015781638da5cb5b146109d9578163947a36fb146109ba5781639655e6d814610882578163a309713914610864578163a3d3c0d214610845578163b1e2174914610826578163b8a4836e14610587578163bd4ca97b14610556578163bef3a2f0146104ac578163d1384eb614610484578163d2aa789f14610465578163d811fcf01461043d578163ebf14a551461041e578163f2fde38b1461035157508063f5c1279b14610333578063f68016b71461030f578063f887ea40146102e85763fffeb84e146101fd57600080fd5b346102e457816003193601126102e4578051908260085461021d8161140a565b808552916001918083169081156102bc575060011461025f575b5050506102498261025b940383611444565b5191829160208352602083019061147c565b0390f35b9450600885527ff3f7a9fe364faab93b216da50a3214154f22a0a2b415b23a84c8169e8b636ee35b8286106102a45750505061024982602061025b9582010194610237565b80546020878701810191909152909501948101610287565b61025b97508693506020925061024994915060ff191682840152151560051b82010194610237565b5080fd5b50346102e457816003193601126102e4576020906001600160a01b03600c54169051908152f35b50346102e457816003193601126102e45760209063ffffffff601054169051908152f35b50346102e457816003193601126102e4576020906015549051908152f35b9190503461041a57602036600319011261041a578135916001600160a01b039182841680940361041657610383611678565b3384146103d357508273ffffffffffffffffffffffffffffffffffffffff19825416179055600354167fed8889f560326eb138920d842192f0eb3dd22b4f139c87a2c57538e05bae12788380a380f35b906020606492519162461bcd60e51b8352820152601760248201527f43616e6e6f74207472616e7366657220746f2073656c660000000000000000006044820152fd5b8480fd5b8280fd5b5050346102e457816003193601126102e4576020906021549051908152f35b5050346102e457816003193601126102e4576020906001600160a01b03601d54169051908152f35b5050346102e457816003193601126102e457602090600e549051908152f35b5050346102e457816003193601126102e4576020906001600160a01b03601c54169051908152f35b5050346102e457816003193601126102e457805190826007546104ce8161140a565b808552916001918083169081156102bc57506001146104f9575050506102498261025b940383611444565b9450600785527fa66cc928b5edb82af9bd49922954155ab7b0942694bea4ce44661d9a8736c6885b82861061053e5750505061024982602061025b9582010194610237565b80546020878701810191909152909501948101610521565b5050346102e457816003193601126102e45761025b9061057461157a565b905191829160208352602083019061147c565b8383346102e457806003193601126102e45767ffffffffffffffff908335828111610822576105b99036908601611613565b50506001600160a01b038060035416908133141580610814575b6107d3575050600e5415610791578051916020928381018181108382111761077e5790859184525260185442034281116106cd57600a54101561073c5742601855601954600181018091116106cd57601955602435602154116000146106e057610655906009541663ffffffff60105416601154916106506114bc565b6116d0565b80601255808455601654600181018091116106cd577fd3faffad7ef1f2c31a43a6d3c3ca68805a12ad17c4e6d65ed29f86103c8a925f9495507f94d22f84ecc32bb8dd315dfdf3e823f4cb62c2eb803a2d4a470b57e7c42d5d769184916016558351908152a160ff601e5460a01c169051908152a180f35b602485601188634e487b7160e01b835252fd5b61065590740100000000000000000000000000000000000000007fffffffffffffffffffffff00ffffffffffffffffffffffffffffffffffffffff601e541617601e556009541663ffffffff601054166011549161065061157a565b6064858484519162461bcd60e51b8352820152601560248201527f54696d6520696e74657276616c206e6f74206d657400000000000000000000006044820152fd5b602486604189634e487b7160e01b835252fd5b5162461bcd60e51b8152602081850152601560248201527f55706b656570206e6f74207265676973746572656400000000000000000000006044820152606490fd5b918591606493601e54169151927f426fbc71000000000000000000000000000000000000000000000000000000008452339084015260248301526044820152fd5b5080601e54163314156105d3565b8380fd5b5050346102e457816003193601126102e4576020906012549051908152f35b5050346102e457816003193601126102e4576020906019549051908152f35b5050346102e457816003193601126102e45760209081549051908152f35b8383346102e457806003193601126102e4576024359235825260209260028452818320805482101561082257906108b891611646565b509167ffffffffffffffff83541692600180820192868551948593838254926108e08461140a565b80885293838116908115610994575060011461094e575b505050505063ffffffff929161090e910384611444565b610932600360028301549201549360a08651988998895288015260a087019061147c565b9361ffff82169086015260101c16606084015260808301520390f35b81528381209695945091905b81831061097c5750939450919250908201018661090e63ffffffff8a806108f7565b8654888401850152958601958794509183019161095a565b60ff19168689015250505050151560051b83010190508661090e63ffffffff8a806108f7565b5050346102e457816003193601126102e457602090600a549051908152f35b5050346102e457816003193601126102e4576020906001600160a01b03600354169051908152f35b5050346102e457816003193601126102e45751478152602090f35b8334610ba157602091826003193601126102e45767ffffffffffffffff813581811161082257610a4f9036908401611613565b929091610a5a611678565b8311610b8e5750610a6c60245461140a565b601f8111610b30575b508293601f8311600114610ab25750928293829392610aa7575b50508160011b916000199060031b1c19161760245580f35b013590508380610a8f565b601f198316947f7cd332d19b93bcabe3cce7ca0c18a052f57e5fd03b4758a09f30f5ddc4b22ec4929185905b878210610b18575050836001959610610afe575b505050811b0160245580f35b0135600019600384901b60f8161c19169055838080610af2565b80600184968294958701358155019501920190610ade565b7f7cd332d19b93bcabe3cce7ca0c18a052f57e5fd03b4758a09f30f5ddc4b22ec4601f840160051c810191868510610b84575b601f0160051c01905b818110610b795750610a75565b848155600101610b6c565b9091508190610b63565b836041602492634e487b7160e01b835252fd5b80fd5b5050346102e457816003193601126102e4576020906001600160a01b03600d54169051908152f35b9190503461041a578260031936011261041a578154916001600160a01b03918284163303610c4557506003549273ffffffffffffffffffffffffffffffffffffffff199033828616176003551690553391167f8be0079c531659141344cd1fd0a4f28419497f9722a3daafe3b4186f6b6457e08380a380f35b906020606492519162461bcd60e51b8352820152601660248201527f4d7573742062652070726f706f736564206f776e6572000000000000000000006044820152fd5b5050346102e457816003193601126102e4576020906011549051908152f35b90503461041a57602091826003193601126108225767ffffffffffffffff918035838111610d9e5736602382011215610d9e5780820135938411610d8b578251601f1994879291610cff601f83018816890182611444565b81815236602483850101116108225781602489940184830137010152601854420390428211610d785750600a92919254109180519485938452818585015260609485518093860152815b838110610d63575050838201850152601f01168101030190f35b60808101518882018801528795508101610d49565b856011602492634e487b7160e01b835252fd5b602486604184634e487b7160e01b835252fd5b8580fd5b5050346102e457816003193601126102e4576020906001600160a01b03601b54169051908152f35b5050346102e457816003193601126102e45761025b906105746114bc565b5050346102e457816003193601126102e4576020906001600160a01b03601e54169051908152f35b5050346102e457816003193601126102e4576020905160018152f35b5050346102e457816003193601126102e45780519082601454610e4e8161140a565b808552916001918083169081156102bc5750600114610e79575050506102498261025b940383611444565b9450601485527fce6d7b5282bd9a3661ae061feed1dbda4e52ab073b1f9285be6e155d9c38d4ec5b828610610ebe5750505061024982602061025b9582010194610237565b80546020878701810191909152909501948101610ea1565b5050346102e457816003193601126102e457602090601f549051908152f35b5050346102e457816003193601126102e4576020906016549051908152f35b5050346102e457816003193601126102e4576020906017549051908152f35b5050346102e457816003193601126102e45780519082601354610f558161140a565b808552916001918083169081156102bc5750600114610f80575050506102498261025b940383611444565b9450601385527f66de8ffda797e3de9c05e8fc57b3bf0ec28a930d40b0d285d93c06501cf6a0905b828610610fc55750505061024982602061025b9582010194610237565b80546020878701810191909152909501948101610fa8565b5050346102e457816003193601126102e457602090600b549051908152f35b8334610ba1576060366003190112610ba15767ffffffffffffffff823581811161041a5761102d9036908501611613565b90936024359280841680940361041657611045611678565b8211610b8e575061105760055461140a565b601f8111611132575b5082601f82116001146110b4578394829394926110a9575b50508160011b916000199060031b1c1916176005555b67ffffffffffffffff19600954161760095560443560115580f35b013590508480611078565b601f198216947f036b6384b5eca791c62761152d0c79bb0604c104a5fb6f4eb0703f3154bb3db091855b87811061111a575083600195969710611100575b505050811b0160055561108e565b0135600019600384901b60f8161c191690558480806110f2565b909260206001819286860135815501940191016110de565b7f036b6384b5eca791c62761152d0c79bb0604c104a5fb6f4eb0703f3154bb3db0601f830160051c81019160208410611187575b601f0160051c01905b81811061117c5750611060565b84815560010161116f565b9091508190611166565b5050346102e457816003193601126102e45780519082600f546111b38161140a565b808552916001918083169081156102bc57506001146111de575050506102498261025b940383611444565b9450600f85527f8d1108e10bcb7c27dddfc02ed9d693a074039d026cf4ea4240b40f7d581ac8025b8286106112235750505061024982602061025b9582010194610237565b80546020878701810191909152909501948101611206565b9190503461041a5760209182600319360112610822573560225481101561082257602284527f61035b26e3e9eee00e0d72fd1ee8ddca6894550dca6916ea2ac6baa90d11e510018151938491818154906112948261140a565b928386526001928884821691826000146113115750506001146112d3575b858861025b896112c4848a0385611444565b5192828493845283019061147c565b87945081939291528383205b8284106112f957505050820101816112c461025b386112b2565b8054848a0186015288955087949093019281016112df565b60ff19168882015294151560051b870190940194508593506112c4925061025b91503890506112b2565b5050346102e457816003193601126102e4576009548151911c63ffffffff168152602090f35b5050346102e457816003193601126102e4576020906006549051908152f35b5050346102e457816003193601126102e4576020906001600160a01b03601a54169051908152f35b5050346102e457816003193601126102e45760209067ffffffffffffffff600954169051908152f35b5050346102e457816003193601126102e4576020906018549051908152f35b8490346102e457816003193601126102e457602091548152f35b90600182811c9216801561143a575b602083101461142457565b634e487b7160e01b600052602260045260246000fd5b91607f1691611419565b90601f8019910116810190811067ffffffffffffffff82111761146657604052565b634e487b7160e01b600052604160045260246000fd5b919082519283825260005b8481106114a8575050826000602080949584010152601f8019910116010190565b602081830181015184830182015201611487565b60405190600082600554916114d08361140a565b8083529260019081811690811561155857506001146114f9575b506114f792500383611444565b565b6005600090815291507f036b6384b5eca791c62761152d0c79bb0604c104a5fb6f4eb0703f3154bb3db05b84831061153d57506114f79350508101602001386114ea565b81935090816020925483858a01015201910190918592611524565b9050602092506114f794915060ff191682840152151560051b820101386114ea565b604051906000826024549161158e8361140a565b8083529260019081811690811561155857506001146115b457506114f792500383611444565b6024600090815291507f7cd332d19b93bcabe3cce7ca0c18a052f57e5fd03b4758a09f30f5ddc4b22ec45b8483106115f857506114f79350508101602001386114ea565b81935090816020925483858a010152019101909185926115df565b9181601f840112156116415782359167ffffffffffffffff8311611641576020838186019501011161164157565b600080fd5b80548210156116625760005260206000209060021b0190600090565b634e487b7160e01b600052603260045260246000fd5b6001600160a01b0360035416330361168c57565b606460405162461bcd60e51b815260206004820152601660248201527f4f6e6c792063616c6c61626c65206279206f776e6572000000000000000000006044820152fd5b91909392936040519160a0830167ffffffffffffffff92848210848311176114665783916040521683526020938484019081526040840192600180855263ffffffff606087019416845260808601988952805496600097808955828101808211611942578355885260028152604088208054906801000000000000000082101561192e5790611763918482018155611646565b97909761191b578390511667ffffffffffffffff198854161787558187019351805193841161190757611796855461140a565b601f81116118c1575b5081601f851160011461183357509280600397959381937f1131472297a800fee664d1d89cfa8f7676ff07189ecc53f80bbb5f4969099db89c9d98968c94611828575b50501b9160001990881b1c19161790555b61ffff6002860192511665ffffffff00008354925160101b169165ffffffffffff19161717905551910155805491818392a290565b0151925038806117e2565b9190601f949394198416868b52838b20938b905b8282106118aa575050917f1131472297a800fee664d1d89cfa8f7676ff07189ecc53f80bbb5f4969099db89b9c979593918560039a98969410611892575b505050811b0190556117f3565b0151600019838a1b60f8161c19169055388080611885565b808886978294978701518155019601940190611847565b858a52828a20601f860160051c8101918487106118fd575b601f0160051c019084905b8281106118f257505061179f565b8b81550184906118e4565b90915081906118d9565b602489634e487b7160e01b81526041600452fd5b602489634e487b7160e01b815280600452fd5b60248a634e487b7160e01b81526041600452fd5b60248a634e487b7160e01b81526011600452fdfea264697066735822122075fe0d11e69c59d5f61a533b36094ba73e96b46d161cb02c8383128afc03902364736f6c63430008130033",
  "linkReferences": {},
  "deployedLinkReferences": {}
}