{
  "_format": "hh-sol-artifact-1",
  "contractName": "AutomatedFunctionsConsumer",
  "sourceName": "contracts/mock/mockAutomatedFunctionsConsumer.sol",
  "abi": [
    {
      "inputs": [
        {
          "internalType": "address",
          "name": "_deployer",
          "type": "address"
        },
        {
          "internalType": "address",
          "name": "_farmer",
          "type": "address"
        },
        {
          "internalType": "uint256",
          "name": "_humidityLimit",
          "type": "uint256"
        },
        {
          "internalType": "uint256",
          "name": "_maxSampleQuantity",
          "type": "uint256"
        },
        {
          "internalType": "uint256",
          "name": "_reparationValue",
          "type": "uint256"
        },
        {
          "internalType": "uint256",
          "name": "_interval",
          "type": "uint256"
        },
        {
          "internalType": "address",
          "name": "_router",
          "type": "address"
        },
        {
          "internalType": "uint64",
          "name": "_subscriptionId",
          "type": "uint64"
        },
        {
          "internalType": "address",
          "name": "_registry",
          "type": "address"
        },
        {
          "internalType": "address",
          "name": "_sepoliaLINKAddress",
          "type": "address"
        },
        {
          "internalType": "address",
          "name": "_sepoliaRegistrarAddress",
          "type": "address"
        },
        {
          "internalType": "uint32",
          "name": "_fulfillGasLimit",
          "type": "uint32"
        }
      ],
      "stateMutability": "payable",
      "type": "constructor"
    },
    {
      "inputs": [
        {
          "internalType": "address",
          "name": "caller",
          "type": "address"
        },
        {
          "internalType": "address",
          "name": "owner",
          "type": "address"
        },
        {
          "internalType": "address",
          "name": "automationRegistry",
          "type": "address"
        }
      ],
      "name": "NotAllowedCaller",
      "type": "error"
    },
    {
      "inputs": [
        {
          "internalType": "bytes32",
          "name": "requestId",
          "type": "bytes32"
        }
      ],
      "name": "UnexpectedRequestID",
      "type": "error"
    },
    {
      "anonymous": false,
      "inputs": [
        {
          "indexed": false,
          "internalType": "uint8",
          "name": "controlFlag",
          "type": "uint8"
        }
      ],
      "name": "ControlFlagValue",
      "type": "event"
    },
    {
      "anonymous": false,
      "inputs": [
        {
          "indexed": true,
          "internalType": "bytes32",
          "name": "requestId",
          "type": "bytes32"
        },
        {
          "indexed": false,
          "internalType": "bytes",
          "name": "result",
          "type": "bytes"
        },
        {
          "indexed": false,
          "internalType": "bytes",
          "name": "err",
          "type": "bytes"
        }
      ],
      "name": "OCRResponse",
      "type": "event"
    },
    {
      "anonymous": false,
      "inputs": [
        {
          "indexed": true,
          "internalType": "address",
          "name": "from",
          "type": "address"
        },
        {
          "indexed": true,
          "internalType": "address",
          "name": "to",
          "type": "address"
        }
      ],
      "name": "OwnershipTransferRequested",
      "type": "event"
    },
    {
      "anonymous": false,
      "inputs": [
        {
          "indexed": true,
          "internalType": "address",
          "name": "from",
          "type": "address"
        },
        {
          "indexed": true,
          "internalType": "address",
          "name": "to",
          "type": "address"
        }
      ],
      "name": "OwnershipTransferred",
      "type": "event"
    },
    {
      "anonymous": false,
      "inputs": [
        {
          "indexed": false,
          "internalType": "bytes32",
          "name": "requestId",
          "type": "bytes32"
        }
      ],
      "name": "RequestIdUpdated",
      "type": "event"
    },
    {
      "anonymous": false,
      "inputs": [
        {
          "indexed": false,
          "internalType": "string",
          "name": "reason",
          "type": "string"
        }
      ],
      "name": "RequestRevertedWithErrorMsg",
      "type": "event"
    },
    {
      "anonymous": false,
      "inputs": [
        {
          "indexed": false,
          "internalType": "bytes",
          "name": "data",
          "type": "bytes"
        }
      ],
      "name": "RequestRevertedWithoutErrorMsg",
      "type": "event"
    },
    {
      "anonymous": false,
      "inputs": [
        {
          "indexed": true,
          "internalType": "bytes32",
          "name": "id",
          "type": "bytes32"
        }
      ],
      "name": "RequestSent",
      "type": "event"
    },
    {
      "anonymous": false,
      "inputs": [
        {
          "indexed": true,
          "internalType": "bytes32",
          "name": "requestId",
          "type": "bytes32"
        },
        {
          "indexed": false,
          "internalType": "bytes",
          "name": "response",
          "type": "bytes"
        },
        {
          "indexed": false,
          "internalType": "bytes",
          "name": "err",
          "type": "bytes"
        }
      ],
      "name": "Response",
      "type": "event"
    },
    {
      "anonymous": false,
      "inputs": [
        {
          "indexed": false,
          "internalType": "uint256",
          "name": "length",
          "type": "uint256"
        }
      ],
      "name": "sampleStorageLength",
      "type": "event"
    },
    {
      "anonymous": false,
      "inputs": [
        {
          "indexed": false,
          "internalType": "address",
          "name": "upkeepAddress",
          "type": "address"
        }
      ],
      "name": "upkeepCreated",
      "type": "event"
    },
    {
      "anonymous": false,
      "inputs": [
        {
          "indexed": false,
          "internalType": "uint256",
          "name": "upkeepId",
          "type": "uint256"
        }
      ],
      "name": "upkeepRegistered",
      "type": "event"
    },
    {
      "inputs": [],
      "name": "REQUEST_DATA_VERSION",
      "outputs": [
        {
          "internalType": "uint16",
          "name": "",
          "type": "uint16"
        }
      ],
      "stateMutability": "view",
      "type": "function"
    },
    {
      "inputs": [],
      "name": "acceptOwnership",
      "outputs": [],
      "stateMutability": "nonpayable",
      "type": "function"
    },
    {
      "inputs": [
        {
          "internalType": "bytes",
          "name": "",
          "type": "bytes"
        }
      ],
      "name": "checkUpkeep",
      "outputs": [
        {
          "internalType": "bool",
          "name": "upkeepNeeded",
          "type": "bool"
        },
        {
          "internalType": "bytes",
          "name": "performData",
          "type": "bytes"
        }
      ],
      "stateMutability": "view",
      "type": "function"
    },
    {
      "inputs": [],
      "name": "computationCBOR",
      "outputs": [
        {
          "internalType": "bytes",
          "name": "",
          "type": "bytes"
        }
      ],
      "stateMutability": "view",
      "type": "function"
    },
    {
      "inputs": [],
      "name": "contractBalance",
      "outputs": [
        {
          "internalType": "uint256",
          "name": "",
          "type": "uint256"
        }
      ],
      "stateMutability": "view",
      "type": "function"
    },
    {
      "inputs": [],
      "name": "donID",
      "outputs": [
        {
          "internalType": "bytes32",
          "name": "",
          "type": "bytes32"
        }
      ],
      "stateMutability": "view",
      "type": "function"
    },
    {
      "inputs": [],
      "name": "farmer",
      "outputs": [
        {
          "internalType": "address",
          "name": "",
          "type": "address"
        }
      ],
      "stateMutability": "view",
      "type": "function"
    },
    {
      "inputs": [],
      "name": "fulfillGasLimit",
      "outputs": [
        {
          "internalType": "uint32",
          "name": "",
          "type": "uint32"
        }
      ],
      "stateMutability": "view",
      "type": "function"
    },
    {
      "inputs": [
        {
          "internalType": "bytes32",
          "name": "requestId",
          "type": "bytes32"
        },
        {
          "internalType": "bytes",
          "name": "response",
          "type": "bytes"
        },
        {
          "internalType": "bytes",
          "name": "err",
          "type": "bytes"
        }
      ],
      "name": "fulfillRequest",
      "outputs": [],
      "stateMutability": "nonpayable",
      "type": "function"
    },
    {
      "inputs": [],
      "name": "gasLimit",
      "outputs": [
        {
          "internalType": "uint32",
          "name": "",
          "type": "uint32"
        }
      ],
      "stateMutability": "view",
      "type": "function"
    },
    {
      "inputs": [],
      "name": "humidityLimit",
      "outputs": [
        {
          "internalType": "uint256",
          "name": "",
          "type": "uint256"
        }
      ],
      "stateMutability": "view",
      "type": "function"
    },
    {
      "inputs": [],
      "name": "institution",
      "outputs": [
        {
          "internalType": "address",
          "name": "",
          "type": "address"
        }
      ],
      "stateMutability": "view",
      "type": "function"
    },
    {
      "inputs": [],
      "name": "interval",
      "outputs": [
        {
          "internalType": "uint256",
          "name": "",
          "type": "uint256"
        }
      ],
      "stateMutability": "view",
      "type": "function"
    },
    {
      "inputs": [],
      "name": "lastUpkeepTimeStamp",
      "outputs": [
        {
          "internalType": "uint256",
          "name": "",
          "type": "uint256"
        }
      ],
      "stateMutability": "view",
      "type": "function"
    },
    {
      "inputs": [],
      "name": "latestError",
      "outputs": [
        {
          "internalType": "bytes",
          "name": "",
          "type": "bytes"
        }
      ],
      "stateMutability": "view",
      "type": "function"
    },
    {
      "inputs": [],
      "name": "latestRequestId",
      "outputs": [
        {
          "internalType": "bytes32",
          "name": "",
          "type": "bytes32"
        }
      ],
      "stateMutability": "view",
      "type": "function"
    },
    {
      "inputs": [],
      "name": "latestResponse",
      "outputs": [
        {
          "internalType": "bytes",
          "name": "",
          "type": "bytes"
        }
      ],
      "stateMutability": "view",
      "type": "function"
    },
    {
      "inputs": [],
      "name": "maxSampleQuantity",
      "outputs": [
        {
          "internalType": "uint256",
          "name": "",
          "type": "uint256"
        }
      ],
      "stateMutability": "view",
      "type": "function"
    },
    {
      "inputs": [],
      "name": "owner",
      "outputs": [
        {
          "internalType": "address",
          "name": "",
          "type": "address"
        }
      ],
      "stateMutability": "view",
      "type": "function"
    },
    {
      "inputs": [
        {
          "internalType": "bytes",
          "name": "",
          "type": "bytes"
        },
        {
          "internalType": "uint256",
          "name": "mockSampleStorageLength",
          "type": "uint256"
        }
      ],
      "name": "performUpkeep",
      "outputs": [],
      "stateMutability": "nonpayable",
      "type": "function"
    },
    {
      "inputs": [],
      "name": "registry",
      "outputs": [
        {
          "internalType": "address",
          "name": "",
          "type": "address"
        }
      ],
      "stateMutability": "view",
      "type": "function"
    },
    {
      "inputs": [],
      "name": "reparationValue",
      "outputs": [
        {
          "internalType": "uint256",
          "name": "",
          "type": "uint256"
        }
      ],
      "stateMutability": "view",
      "type": "function"
    },
    {
      "inputs": [],
      "name": "request",
      "outputs": [
        {
          "internalType": "bytes",
          "name": "",
          "type": "bytes"
        }
      ],
      "stateMutability": "view",
      "type": "function"
    },
    {
      "inputs": [],
      "name": "requestCBOR",
      "outputs": [
        {
          "internalType": "bytes",
          "name": "",
          "type": "bytes"
        }
      ],
      "stateMutability": "view",
      "type": "function"
    },
    {
      "inputs": [],
      "name": "requestId",
      "outputs": [
        {
          "internalType": "bytes32",
          "name": "",
          "type": "bytes32"
        }
      ],
      "stateMutability": "view",
      "type": "function"
    },
    {
      "inputs": [
        {
          "internalType": "bytes32",
          "name": "",
          "type": "bytes32"
        },
        {
          "internalType": "uint256",
          "name": "",
          "type": "uint256"
        }
      ],
      "name": "requests",
      "outputs": [
        {
          "internalType": "uint64",
          "name": "subscriptionId",
          "type": "uint64"
        },
        {
          "internalType": "bytes",
          "name": "data",
          "type": "bytes"
        },
        {
          "internalType": "uint16",
          "name": "DATA_VERSION",
          "type": "uint16"
        },
        {
          "internalType": "uint32",
          "name": "callbackGasLimit",
          "type": "uint32"
        },
        {
          "internalType": "bytes32",
          "name": "donId",
          "type": "bytes32"
        }
      ],
      "stateMutability": "view",
      "type": "function"
    },
    {
      "inputs": [],
      "name": "responseCounter",
      "outputs": [
        {
          "internalType": "uint256",
          "name": "",
          "type": "uint256"
        }
      ],
      "stateMutability": "view",
      "type": "function"
    },
    {
      "inputs": [],
      "name": "router",
      "outputs": [
        {
          "internalType": "address",
          "name": "",
          "type": "address"
        }
      ],
      "stateMutability": "view",
      "type": "function"
    },
    {
      "inputs": [],
      "name": "s_lastError",
      "outputs": [
        {
          "internalType": "bytes",
          "name": "",
          "type": "bytes"
        }
      ],
      "stateMutability": "view",
      "type": "function"
    },
    {
      "inputs": [],
      "name": "s_lastRequestId",
      "outputs": [
        {
          "internalType": "bytes32",
          "name": "",
          "type": "bytes32"
        }
      ],
      "stateMutability": "view",
      "type": "function"
    },
    {
      "inputs": [],
      "name": "s_lastResponse",
      "outputs": [
        {
          "internalType": "bytes",
          "name": "",
          "type": "bytes"
        }
      ],
      "stateMutability": "view",
      "type": "function"
    },
    {
      "inputs": [],
      "name": "s_requestCounter",
      "outputs": [
        {
          "internalType": "uint256",
          "name": "",
          "type": "uint256"
        }
      ],
      "stateMutability": "view",
      "type": "function"
    },
    {
      "inputs": [],
      "name": "s_responseCounter",
      "outputs": [
        {
          "internalType": "uint256",
          "name": "",
          "type": "uint256"
        }
      ],
      "stateMutability": "view",
      "type": "function"
    },
    {
      "inputs": [],
      "name": "s_upkeepCounter",
      "outputs": [
        {
          "internalType": "uint256",
          "name": "",
          "type": "uint256"
        }
      ],
      "stateMutability": "view",
      "type": "function"
    },
    {
      "inputs": [
        {
          "internalType": "uint256",
          "name": "",
          "type": "uint256"
        }
      ],
      "name": "sampleStorage",
      "outputs": [
        {
          "internalType": "bytes",
          "name": "",
          "type": "bytes"
        }
      ],
      "stateMutability": "view",
      "type": "function"
    },
    {
      "inputs": [],
      "name": "sepoliaLINKAddress",
      "outputs": [
        {
          "internalType": "address",
          "name": "",
          "type": "address"
        }
      ],
      "stateMutability": "view",
      "type": "function"
    },
    {
      "inputs": [],
      "name": "sepoliaRegistrarAddress",
      "outputs": [
        {
          "internalType": "address",
          "name": "",
          "type": "address"
        }
      ],
      "stateMutability": "view",
      "type": "function"
    },
    {
      "inputs": [
        {
          "internalType": "bytes",
          "name": "receivedCBOR",
          "type": "bytes"
        }
      ],
      "name": "setComputation",
      "outputs": [],
      "stateMutability": "nonpayable",
      "type": "function"
    },
    {
      "inputs": [
        {
          "internalType": "bytes",
          "name": "newRequestCBOR",
          "type": "bytes"
        },
        {
          "internalType": "uint64",
          "name": "_subscriptionId",
          "type": "uint64"
        },
        {
          "internalType": "bytes32",
          "name": "_donID",
          "type": "bytes32"
        }
      ],
      "name": "setRequest",
      "outputs": [],
      "stateMutability": "nonpayable",
      "type": "function"
    },
    {
      "inputs": [],
      "name": "subscriptionId",
      "outputs": [
        {
          "internalType": "uint64",
          "name": "",
          "type": "uint64"
        }
      ],
      "stateMutability": "view",
      "type": "function"
    },
    {
      "inputs": [
        {
          "internalType": "address",
          "name": "to",
          "type": "address"
        }
      ],
      "name": "transferOwnership",
      "outputs": [],
      "stateMutability": "nonpayable",
      "type": "function"
    },
    {
      "inputs": [],
      "name": "upkeepContract",
      "outputs": [
        {
          "internalType": "address",
          "name": "",
          "type": "address"
        }
      ],
      "stateMutability": "view",
      "type": "function"
    },
    {
      "inputs": [],
      "name": "upkeepCounter",
      "outputs": [
        {
          "internalType": "uint256",
          "name": "",
          "type": "uint256"
        }
      ],
      "stateMutability": "view",
      "type": "function"
    },
    {
      "inputs": [],
      "name": "upkeepId",
      "outputs": [
        {
          "internalType": "uint256",
          "name": "",
          "type": "uint256"
        }
      ],
      "stateMutability": "view",
      "type": "function"
    },
    {
      "inputs": [
        {
          "internalType": "uint256",
          "name": "mockMean",
          "type": "uint256"
        }
      ],
      "name": "verifyIndex",
      "outputs": [],
      "stateMutability": "nonpayable",
      "type": "function"
    },
    {
      "stateMutability": "payable",
      "type": "receive"
    }
  ],
  "bytecode": "0x60806001600160401b03601f6200209f38819003918201601f191684019183831185841017620001d15780859261018094604052833981010312620001cc576200004982620001e7565b6200005760208401620001e7565b9260408101519060608101519260808201519160a0810151936200007e60c08301620001e7565b60e0830151978816809803620001cc576200009d6101008401620001e7565b98620000ad6101208501620001e7565b91610160620000c06101408701620001e7565b9501519763ffffffff89168903620001cc57600180556001600160a01b0396871697881562000187576bffffffff00000000000000009a88968780968c60018060a01b03199d8e60035416176003558d601c541617601c55168b601d541617601d55602055602155601f55600a551685600c541617600c5581600954991685600d541617600d551683601a541617601a551690601b541617601b5560401b169160018060601b0319161717600955426018556001600e55604051611ea29081620001fd8239f35b60405162461bcd60e51b815260206004820152601860248201527f43616e6e6f7420736574206f776e657220746f207a65726f00000000000000006044820152606490fd5b600080fd5b634e487b7160e01b600052604160045260246000fd5b51906001600160a01b0382168203620001cc5756fe6080604081815260049182361015610022575b505050361561002057600080fd5b005b600092833560e01c9182626d6cae146117bc57508163089ea02e1461179d57816309c1ba2e146117745781631243bcc31461174c5781631aa46f591461172d57816324b93e3e14611707578163277e2213146116b9578163338cdca11461160f57816336e6a92f1461147a578163381fc4b51461145b5781633944ea3a146113b157816339b0512214610f7857816343cd3d8614610f5957816348802b9214610f3a57816348bd6f0514610f1b5781634b0795a814610e715781635d641dfc14610e555781635e0611f114610e2d578163688ecfd114610e0f5781636baa48fe14610de75781636e04ff0d14610d425781636e74336b14610d2357816379ba509714610c675781637ae4e3fb14610c485781637b10399914610c205781637d95f68a14610a985781638b7afe2e14610a7d5781638da5cb5b14610a55578163947a36fb14610a365781639655e6d81461099f578163a309713914610981578163a3d3c0d214610962578163b1e2174914610943578163b8a4836e146106a4578163b997dcc21461058b578163bd4ca97b1461055a578163bef3a2f0146104b0578163d1384eb614610488578163d2aa789f14610469578163d811fcf014610441578163f2fde38b1461037457508063f5c1279b14610356578063f68016b714610332578063f887ea401461030b5763fffeb84e146102205780610012565b346103075781600319360112610307578051908260085461024081611823565b808552916001918083169081156102df5750600114610282575b50505061026c8261027e94038361185d565b51918291602083526020830190611a90565b0390f35b9450600885527ff3f7a9fe364faab93b216da50a3214154f22a0a2b415b23a84c8169e8b636ee35b8286106102c75750505061026c82602061027e958201019461025a565b805460208787018101919091529095019481016102aa565b61027e97508693506020925061026c94915060ff191682840152151560051b8201019461025a565b5080fd5b50346103075781600319360112610307576020906001600160a01b03600c54169051908152f35b503461030757816003193601126103075760209063ffffffff601054169051908152f35b50346103075781600319360112610307576020906015549051908152f35b9190503461043d57602036600319011261043d578135916001600160a01b0391828416809403610439576103a6611b82565b3384146103f657508273ffffffffffffffffffffffffffffffffffffffff19825416179055600354167fed8889f560326eb138920d842192f0eb3dd22b4f139c87a2c57538e05bae12788380a380f35b906020606492519162461bcd60e51b8352820152601760248201527f43616e6e6f74207472616e7366657220746f2073656c660000000000000000006044820152fd5b8480fd5b8280fd5b5050346103075781600319360112610307576020906001600160a01b03601d54169051908152f35b505034610307578160031936011261030757602090600e549051908152f35b5050346103075781600319360112610307576020906001600160a01b03601c54169051908152f35b505034610307578160031936011261030757805190826007546104d281611823565b808552916001918083169081156102df57506001146104fd5750505061026c8261027e94038361185d565b9450600785527fa66cc928b5edb82af9bd49922954155ab7b0942694bea4ce44661d9a8736c6885b8286106105425750505061026c82602061027e958201019461025a565b80546020878701810191909152909501948101610525565b50503461030757816003193601126103075761027e90610578611953565b9051918291602083526020830190611a90565b9190503461043d57602036600319011261043d576020548235101561061457828080806001600160a01b03601d541647905af16105c6611bda565b50156105d157505080f35b906020606492519162461bcd60e51b8352820152601b60248201527f4572726f20616f207061676172206120696e64656e697a6163616f00000000006044820152fd5b828080806001600160a01b03601c541647905af1610630611bda565b501561063b57505080f35b906020608492519162461bcd60e51b8352820152602d60248201527f4572726f20616f207265746f726e6172206f732066756e646f7320706172612060448201527f6120696e73746974756963616f000000000000000000000000000000000000006064820152fd5b83833461030757806003193601126103075767ffffffffffffffff90833582811161093f576106d69036908601611ad0565b50506001600160a01b038060035416908133141580610931575b6108f0575050600e54156108ae578051916020928381018181108382111761089b5790859184525260185442034281116107ea57600a5410156108595742601855601954600181018091116107ea57601955602435602154116000146107fd57610772906009541663ffffffff601054166011549161076d611895565b611d1a565b80601255808455601654600181018091116107ea577fd3faffad7ef1f2c31a43a6d3c3ca68805a12ad17c4e6d65ed29f86103c8a925f9495507f94d22f84ecc32bb8dd315dfdf3e823f4cb62c2eb803a2d4a470b57e7c42d5d769184916016558351908152a160ff601e5460a01c169051908152a180f35b602485601188634e487b7160e01b835252fd5b61077290740100000000000000000000000000000000000000007fffffffffffffffffffffff00ffffffffffffffffffffffffffffffffffffffff601e541617601e556009541663ffffffff601054166011549161076d611953565b6064858484519162461bcd60e51b8352820152601560248201527f54696d6520696e74657276616c206e6f74206d657400000000000000000000006044820152fd5b602486604189634e487b7160e01b835252fd5b5162461bcd60e51b8152602081850152601560248201527f55706b656570206e6f74207265676973746572656400000000000000000000006044820152606490fd5b918591606493601e54169151927f426fbc71000000000000000000000000000000000000000000000000000000008452339084015260248301526044820152fd5b5080601e54163314156106f0565b8380fd5b5050346103075781600319360112610307576020906012549051908152f35b5050346103075781600319360112610307576020906019549051908152f35b50503461030757816003193601126103075760209081549051908152f35b90503461043d578160031936011261043d57602435903583526002602052818320805482101561093f57906109d391611b66565b509067ffffffffffffffff825416906109ee600184016119ec565b9263ffffffff6003600283015492015491610a1a8451968796875260a0602088015260a0870190611a90565b9361ffff82169086015260101c16606084015260808301520390f35b505034610307578160031936011261030757602090600a549051908152f35b5050346103075781600319360112610307576020906001600160a01b03600354169051908152f35b50503461030757816003193601126103075751478152602090f35b8334610c1d57602091826003193601126103075767ffffffffffffffff813581811161093f57610acb9036908401611ad0565b929091610ad6611b82565b8311610c0a5750610ae8602454611823565b601f8111610bac575b508293601f8311600114610b2e5750928293829392610b23575b50508160011b916000199060031b1c19161760245580f35b013590508380610b0b565b601f198316947f7cd332d19b93bcabe3cce7ca0c18a052f57e5fd03b4758a09f30f5ddc4b22ec4929185905b878210610b94575050836001959610610b7a575b505050811b0160245580f35b0135600019600384901b60f8161c19169055838080610b6e565b80600184968294958701358155019501920190610b5a565b7f7cd332d19b93bcabe3cce7ca0c18a052f57e5fd03b4758a09f30f5ddc4b22ec4601f840160051c810191868510610c00575b601f0160051c01905b818110610bf55750610af1565b848155600101610be8565b9091508190610bdf565b836041602492634e487b7160e01b835252fd5b80fd5b5050346103075781600319360112610307576020906001600160a01b03600d54169051908152f35b5050346103075781600319360112610307576020906021549051908152f35b9190503461043d578260031936011261043d578154916001600160a01b03918284163303610ce057506003549273ffffffffffffffffffffffffffffffffffffffff199033828616176003551690553391167f8be0079c531659141344cd1fd0a4f28419497f9722a3daafe3b4186f6b6457e08380a380f35b906020606492519162461bcd60e51b8352820152601660248201527f4d7573742062652070726f706f736564206f776e6572000000000000000000006044820152fd5b5050346103075781600319360112610307576020906011549051908152f35b9190503461043d576020918260031936011261093f57803567ffffffffffffffff811161043957610d769036908301611b1f565b50601854420390428211610dd45750600a54109080519384928352818484015260609384518093850152815b838110610dbf575050828201840152601f01601f19168101030190f35b60808101518782018701528694508101610da2565b846011602492634e487b7160e01b835252fd5b5050346103075781600319360112610307576020906001600160a01b03601b54169051908152f35b50503461030757816003193601126103075761027e90610578611895565b5050346103075781600319360112610307576020906001600160a01b03601e54169051908152f35b5050346103075781600319360112610307576020905160018152f35b50503461030757816003193601126103075780519082601454610e9381611823565b808552916001918083169081156102df5750600114610ebe5750505061026c8261027e94038361185d565b9450601485527fce6d7b5282bd9a3661ae061feed1dbda4e52ab073b1f9285be6e155d9c38d4ec5b828610610f035750505061026c82602061027e958201019461025a565b80546020878701810191909152909501948101610ee6565b505034610307578160031936011261030757602090601f549051908152f35b5050346103075781600319360112610307576020906016549051908152f35b5050346103075781600319360112610307576020906017549051908152f35b83833461030757606036600319011261030757602480359167ffffffffffffffff9283811161043957610fae9036908701611b1f565b916044358481116113ad57610fc69036908801611b1f565b9383518181116112af57610fdb600754611823565b90601f9182811161134d575b508060208382116001146112cc5789916112c1575b508160011b916000199060031b1c1916176007555b85519182116112af578190611027600854611823565b818111611242575b5060209082116001146111c15787916111b6575b508160011b916000199060031b1c1916176008555b600b54600181018091116111a457600b55601e5460a01c60ff1661114b57602254680100000000000000008110156111395780600161109a92016022556117d6565b91909161112957507f7bab0ec163b5c132c72b8146ac4d6e067e82ed58f8b131150aa71c92589115629394956110d38461112393611c0a565b7fb8c1b3113292644df2bf7f437c82a485b897c95ec146ca6ca3dea2ec2f674ad960206022548551908152a15b6111138351948486958652850190611a90565b9083820360208501523595611a90565b0390a280f35b858088634e487b7160e01b825252fd5b5084604187634e487b7160e01b835252fd5b506111237f7bab0ec163b5c132c72b8146ac4d6e067e82ed58f8b131150aa71c92589115629394957fb8c1b3113292644df2bf7f437c82a485b897c95ec146ca6ca3dea2ec2f674ad960206021548551908152a1611100565b5084601187634e487b7160e01b835252fd5b905085015188611043565b600888527ff3f7a9fe364faab93b216da50a3214154f22a0a2b415b23a84c8169e8b636ee39150601f198316885b81811061122a57509083600194939210611211575b5050811b01600855611058565b87015160001960f88460031b161c191690558880611204565b9192602060018192868c0151815501940192016111ef565b909150600888527ff3f7a9fe364faab93b216da50a3214154f22a0a2b415b23a84c8169e8b636ee38280850160051c820192602086106112a6575b938594939291930160051c01905b818110611298575061102f565b89815584935060010161128b565b9250819261127d565b828760418a634e487b7160e01b835252fd5b90508601518a610ffc565b60078a527fa66cc928b5edb82af9bd49922954155ab7b0942694bea4ce44661d9a8736c6889150601f1983168a5b8181106113355750908360019493921061131c575b5050811b01600755611011565b88015160001960f88460031b161c191690558a8061130f565b9192602060018192868d0151815501940192016112fa565b600789527fa66cc928b5edb82af9bd49922954155ab7b0942694bea4ce44661d9a8736c6888380840160051c820192602085106113a4575b0160051c01905b8181106113995750610fe7565b89815560010161138c565b92508192611385565b8580fd5b505034610307578160031936011261030757805190826013546113d381611823565b808552916001918083169081156102df57506001146113fe5750505061026c8261027e94038361185d565b9450601385527f66de8ffda797e3de9c05e8fc57b3bf0ec28a930d40b0d285d93c06501cf6a0905b8286106114435750505061026c82602061027e958201019461025a565b80546020878701810191909152909501948101611426565b505034610307578160031936011261030757602090600b549051908152f35b8334610c1d576060366003190112610c1d5767ffffffffffffffff823581811161043d576114ab9036908501611ad0565b909360243592808416809403610439576114c3611b82565b8211610c0a57506114d5600554611823565b601f81116115b0575b5082601f821160011461153257839482939492611527575b50508160011b916000199060031b1c1916176005555b67ffffffffffffffff19600954161760095560443560115580f35b0135905084806114f6565b601f198216947f036b6384b5eca791c62761152d0c79bb0604c104a5fb6f4eb0703f3154bb3db091855b87811061159857508360019596971061157e575b505050811b0160055561150c565b0135600019600384901b60f8161c19169055848080611570565b9092602060018192868601358155019401910161155c565b7f036b6384b5eca791c62761152d0c79bb0604c104a5fb6f4eb0703f3154bb3db0601f830160051c81019160208410611605575b601f0160051c01905b8181106115fa57506114de565b8481556001016115ed565b90915081906115e4565b50503461030757816003193601126103075780519082600f5461163181611823565b808552916001918083169081156102df575060011461165c5750505061026c8261027e94038361185d565b9450600f85527f8d1108e10bcb7c27dddfc02ed9d693a074039d026cf4ea4240b40f7d581ac8025b8286106116a15750505061026c82602061027e958201019461025a565b80546020878701810191909152909501948101611684565b828434610c1d576020366003190112610c1d578235602254811015610307576116e1906117d6565b9390936116f55761027e83610578866119ec565b9080602492634e487b7160e01b825252fd5b5050346103075781600319360112610307576009548151911c63ffffffff168152602090f35b5050346103075781600319360112610307576020906006549051908152f35b5050346103075781600319360112610307576020906001600160a01b03601a54169051908152f35b50503461030757816003193601126103075760209067ffffffffffffffff600954169051908152f35b5050346103075781600319360112610307576020906018549051908152f35b849034610307578160031936011261030757602091548152f35b60225481101561180d5760226000527f61035b26e3e9eee00e0d72fd1ee8ddca6894550dca6916ea2ac6baa90d11e5100190600090565b634e487b7160e01b600052603260045260246000fd5b90600182811c92168015611853575b602083101461183d57565b634e487b7160e01b600052602260045260246000fd5b91607f1691611832565b90601f8019910116810190811067ffffffffffffffff82111761187f57604052565b634e487b7160e01b600052604160045260246000fd5b60405190600082600554916118a983611823565b8083529260019081811690811561193157506001146118d2575b506118d09250038361185d565b565b6005600090815291507f036b6384b5eca791c62761152d0c79bb0604c104a5fb6f4eb0703f3154bb3db05b84831061191657506118d09350508101602001386118c3565b81935090816020925483858a010152019101909185926118fd565b9050602092506118d094915060ff191682840152151560051b820101386118c3565b604051906000826024549161196783611823565b80835292600190818116908115611931575060011461198d57506118d09250038361185d565b6024600090815291507f7cd332d19b93bcabe3cce7ca0c18a052f57e5fd03b4758a09f30f5ddc4b22ec45b8483106119d157506118d09350508101602001386118c3565b81935090816020925483858a010152019101909185926119b8565b9060405191826000825492611a0084611823565b908184526001948581169081600014611a6d5750600114611a2a575b50506118d09250038361185d565b9093915060005260209081600020936000915b818310611a555750506118d093508201013880611a1c565b85548884018501529485019487945091830191611a3d565b9150506118d094506020925060ff191682840152151560051b8201013880611a1c565b919082519283825260005b848110611abc575050826000602080949584010152601f8019910116010190565b602081830181015184830182015201611a9b565b9181601f84011215611afe5782359167ffffffffffffffff8311611afe5760208381860195010111611afe57565b600080fd5b67ffffffffffffffff811161187f57601f01601f191660200190565b81601f82011215611afe57803590611b3682611b03565b92611b44604051948561185d565b82845260208383010111611afe57816000926020809301838601378301015290565b805482101561180d5760005260206000209060021b0190600090565b6001600160a01b03600354163303611b9657565b606460405162461bcd60e51b815260206004820152601660248201527f4f6e6c792063616c6c61626c65206279206f776e6572000000000000000000006044820152fd5b3d15611c05573d90611beb82611b03565b91611bf9604051938461185d565b82523d6000602084013e565b606090565b919091825167ffffffffffffffff811161187f57611c288254611823565b601f8111611cd2575b50602080601f8311600114611c6e575081929394600092611c63575b50508160011b916000199060031b1c1916179055565b015190503880611c4d565b90601f198316958460005282600020926000905b888210611cba57505083600195969710611ca1575b505050811b019055565b015160001960f88460031b161c19169055388080611c97565b80600185968294968601518155019501930190611c82565b600083815260208120601f840160051c81019260208510611d10575b601f0160051c01915b828110611d05575050611c31565b818155600101611cf7565b9092508290611cee565b9290926040519260a0840167ffffffffffffffff958582108783111761187f57869160405216845260208401918252604084019160019081845263ffffffff606087019316835260808601948552815496600097808955838101808211611e58578455885260026020526040882080549068010000000000000000821015611e445790611dab918582018155611b66565b979097611e3157927f1131472297a800fee664d1d89cfa8f7676ff07189ecc53f80bbb5f4969099db89897969492611dfc9260039795511667ffffffffffffffff1989541617885551908701611c0a565b61ffff6002860192511665ffffffff00008354925160101b169165ffffffffffff19161717905551910155805491818392a290565b602489634e487b7160e01b815280600452fd5b60248a634e487b7160e01b81526041600452fd5b60248a634e487b7160e01b81526011600452fdfea264697066735822122025defc40eca035afc320df3d9eff94354abf7baee6353e0756044fe8eee75e4764736f6c63430008130033",
  "linkReferences": {},
  "deployedLinkReferences": {}
}