{
  "_format": "hh-sol-artifact-1",
  "contractName": "AutomatedFunctionsConsumer",
  "sourceName": "contracts/mock/mockAutomatedFunctionsConsumer.sol",
  "abi": [
    {
      "inputs": [
        {
          "internalType": "address",
          "name": "_deployer",
          "type": "address"
        },
        {
          "internalType": "address",
          "name": "_farmer",
          "type": "address"
        },
        {
          "internalType": "uint256",
          "name": "_humidityLimit",
          "type": "uint256"
        },
        {
          "internalType": "uint256",
          "name": "_sampleMaxSize",
          "type": "uint256"
        },
        {
          "internalType": "uint256",
          "name": "_reparationValue",
          "type": "uint256"
        },
        {
          "internalType": "uint256",
          "name": "_interval",
          "type": "uint256"
        },
        {
          "internalType": "address",
          "name": "_router",
          "type": "address"
        },
        {
          "internalType": "uint64",
          "name": "_subscriptionId",
          "type": "uint64"
        },
        {
          "internalType": "address",
          "name": "_registry",
          "type": "address"
        },
        {
          "internalType": "address",
          "name": "_sepoliaLINKAddress",
          "type": "address"
        },
        {
          "internalType": "address",
          "name": "_sepoliaRegistrarAddress",
          "type": "address"
        },
        {
          "internalType": "uint32",
          "name": "_fulfillGasLimit",
          "type": "uint32"
        }
      ],
      "stateMutability": "payable",
      "type": "constructor"
    },
    {
      "inputs": [
        {
          "internalType": "address",
          "name": "caller",
          "type": "address"
        },
        {
          "internalType": "address",
          "name": "owner",
          "type": "address"
        },
        {
          "internalType": "address",
          "name": "automationRegistry",
          "type": "address"
        }
      ],
      "name": "NotAllowedCaller",
      "type": "error"
    },
    {
      "inputs": [
        {
          "internalType": "bytes32",
          "name": "requestId",
          "type": "bytes32"
        }
      ],
      "name": "UnexpectedRequestID",
      "type": "error"
    },
    {
      "anonymous": false,
      "inputs": [
        {
          "indexed": true,
          "internalType": "bytes32",
          "name": "requestId",
          "type": "bytes32"
        },
        {
          "indexed": false,
          "internalType": "bytes",
          "name": "result",
          "type": "bytes"
        },
        {
          "indexed": false,
          "internalType": "bytes",
          "name": "err",
          "type": "bytes"
        }
      ],
      "name": "OCRResponse",
      "type": "event"
    },
    {
      "anonymous": false,
      "inputs": [
        {
          "indexed": true,
          "internalType": "address",
          "name": "from",
          "type": "address"
        },
        {
          "indexed": true,
          "internalType": "address",
          "name": "to",
          "type": "address"
        }
      ],
      "name": "OwnershipTransferRequested",
      "type": "event"
    },
    {
      "anonymous": false,
      "inputs": [
        {
          "indexed": true,
          "internalType": "address",
          "name": "from",
          "type": "address"
        },
        {
          "indexed": true,
          "internalType": "address",
          "name": "to",
          "type": "address"
        }
      ],
      "name": "OwnershipTransferred",
      "type": "event"
    },
    {
      "anonymous": false,
      "inputs": [
        {
          "indexed": false,
          "internalType": "string",
          "name": "reason",
          "type": "string"
        }
      ],
      "name": "RequestRevertedWithErrorMsg",
      "type": "event"
    },
    {
      "anonymous": false,
      "inputs": [
        {
          "indexed": false,
          "internalType": "bytes",
          "name": "data",
          "type": "bytes"
        }
      ],
      "name": "RequestRevertedWithoutErrorMsg",
      "type": "event"
    },
    {
      "anonymous": false,
      "inputs": [
        {
          "indexed": true,
          "internalType": "bytes32",
          "name": "id",
          "type": "bytes32"
        }
      ],
      "name": "RequestSent",
      "type": "event"
    },
    {
      "anonymous": false,
      "inputs": [
        {
          "indexed": true,
          "internalType": "bytes32",
          "name": "requestId",
          "type": "bytes32"
        },
        {
          "indexed": false,
          "internalType": "bytes",
          "name": "response",
          "type": "bytes"
        },
        {
          "indexed": false,
          "internalType": "bytes",
          "name": "err",
          "type": "bytes"
        }
      ],
      "name": "Response",
      "type": "event"
    },
    {
      "anonymous": false,
      "inputs": [
        {
          "indexed": false,
          "internalType": "address",
          "name": "upkeepAddress",
          "type": "address"
        }
      ],
      "name": "upkeepCreated",
      "type": "event"
    },
    {
      "anonymous": false,
      "inputs": [
        {
          "indexed": false,
          "internalType": "uint256",
          "name": "upkeepId",
          "type": "uint256"
        }
      ],
      "name": "upkeepRegistered",
      "type": "event"
    },
    {
      "inputs": [],
      "name": "REQUEST_DATA_VERSION",
      "outputs": [
        {
          "internalType": "uint16",
          "name": "",
          "type": "uint16"
        }
      ],
      "stateMutability": "view",
      "type": "function"
    },
    {
      "inputs": [],
      "name": "acceptOwnership",
      "outputs": [],
      "stateMutability": "nonpayable",
      "type": "function"
    },
    {
      "inputs": [
        {
          "internalType": "bytes",
          "name": "",
          "type": "bytes"
        }
      ],
      "name": "checkUpkeep",
      "outputs": [
        {
          "internalType": "bool",
          "name": "upkeepNeeded",
          "type": "bool"
        },
        {
          "internalType": "bytes",
          "name": "performData",
          "type": "bytes"
        }
      ],
      "stateMutability": "view",
      "type": "function"
    },
    {
      "inputs": [],
      "name": "computationCBOR",
      "outputs": [
        {
          "internalType": "bytes",
          "name": "",
          "type": "bytes"
        }
      ],
      "stateMutability": "view",
      "type": "function"
    },
    {
      "inputs": [],
      "name": "contractBalance",
      "outputs": [
        {
          "internalType": "uint256",
          "name": "",
          "type": "uint256"
        }
      ],
      "stateMutability": "view",
      "type": "function"
    },
    {
      "inputs": [],
      "name": "donID",
      "outputs": [
        {
          "internalType": "bytes32",
          "name": "",
          "type": "bytes32"
        }
      ],
      "stateMutability": "view",
      "type": "function"
    },
    {
      "inputs": [],
      "name": "farmer",
      "outputs": [
        {
          "internalType": "address",
          "name": "",
          "type": "address"
        }
      ],
      "stateMutability": "view",
      "type": "function"
    },
    {
      "inputs": [],
      "name": "fulfillGasLimit",
      "outputs": [
        {
          "internalType": "uint32",
          "name": "",
          "type": "uint32"
        }
      ],
      "stateMutability": "view",
      "type": "function"
    },
    {
      "inputs": [],
      "name": "gasLimit",
      "outputs": [
        {
          "internalType": "uint32",
          "name": "",
          "type": "uint32"
        }
      ],
      "stateMutability": "view",
      "type": "function"
    },
    {
      "inputs": [],
      "name": "humidityLimit",
      "outputs": [
        {
          "internalType": "uint256",
          "name": "",
          "type": "uint256"
        }
      ],
      "stateMutability": "view",
      "type": "function"
    },
    {
      "inputs": [],
      "name": "institution",
      "outputs": [
        {
          "internalType": "address",
          "name": "",
          "type": "address"
        }
      ],
      "stateMutability": "view",
      "type": "function"
    },
    {
      "inputs": [],
      "name": "interval",
      "outputs": [
        {
          "internalType": "uint256",
          "name": "",
          "type": "uint256"
        }
      ],
      "stateMutability": "view",
      "type": "function"
    },
    {
      "inputs": [],
      "name": "lastUpkeepTimeStamp",
      "outputs": [
        {
          "internalType": "uint256",
          "name": "",
          "type": "uint256"
        }
      ],
      "stateMutability": "view",
      "type": "function"
    },
    {
      "inputs": [],
      "name": "latestError",
      "outputs": [
        {
          "internalType": "bytes",
          "name": "",
          "type": "bytes"
        }
      ],
      "stateMutability": "view",
      "type": "function"
    },
    {
      "inputs": [],
      "name": "latestRequestId",
      "outputs": [
        {
          "internalType": "bytes32",
          "name": "",
          "type": "bytes32"
        }
      ],
      "stateMutability": "view",
      "type": "function"
    },
    {
      "inputs": [],
      "name": "latestResponse",
      "outputs": [
        {
          "internalType": "bytes",
          "name": "",
          "type": "bytes"
        }
      ],
      "stateMutability": "view",
      "type": "function"
    },
    {
      "inputs": [],
      "name": "owner",
      "outputs": [
        {
          "internalType": "address",
          "name": "",
          "type": "address"
        }
      ],
      "stateMutability": "view",
      "type": "function"
    },
    {
      "inputs": [
        {
          "internalType": "bytes",
          "name": "",
          "type": "bytes"
        }
      ],
      "name": "performUpkeep",
      "outputs": [],
      "stateMutability": "nonpayable",
      "type": "function"
    },
    {
      "inputs": [],
      "name": "registry",
      "outputs": [
        {
          "internalType": "address",
          "name": "",
          "type": "address"
        }
      ],
      "stateMutability": "view",
      "type": "function"
    },
    {
      "inputs": [],
      "name": "reparationValue",
      "outputs": [
        {
          "internalType": "uint256",
          "name": "",
          "type": "uint256"
        }
      ],
      "stateMutability": "view",
      "type": "function"
    },
    {
      "inputs": [],
      "name": "request",
      "outputs": [
        {
          "internalType": "bytes",
          "name": "",
          "type": "bytes"
        }
      ],
      "stateMutability": "view",
      "type": "function"
    },
    {
      "inputs": [],
      "name": "requestCBOR",
      "outputs": [
        {
          "internalType": "bytes",
          "name": "",
          "type": "bytes"
        }
      ],
      "stateMutability": "view",
      "type": "function"
    },
    {
      "inputs": [],
      "name": "requestId",
      "outputs": [
        {
          "internalType": "bytes32",
          "name": "",
          "type": "bytes32"
        }
      ],
      "stateMutability": "view",
      "type": "function"
    },
    {
      "inputs": [
        {
          "internalType": "bytes32",
          "name": "",
          "type": "bytes32"
        },
        {
          "internalType": "uint256",
          "name": "",
          "type": "uint256"
        }
      ],
      "name": "requests",
      "outputs": [
        {
          "internalType": "uint64",
          "name": "subscriptionId",
          "type": "uint64"
        },
        {
          "internalType": "bytes",
          "name": "data",
          "type": "bytes"
        },
        {
          "internalType": "uint16",
          "name": "DATA_VERSION",
          "type": "uint16"
        },
        {
          "internalType": "uint32",
          "name": "callbackGasLimit",
          "type": "uint32"
        },
        {
          "internalType": "bytes32",
          "name": "donId",
          "type": "bytes32"
        }
      ],
      "stateMutability": "view",
      "type": "function"
    },
    {
      "inputs": [],
      "name": "responseCounter",
      "outputs": [
        {
          "internalType": "uint256",
          "name": "",
          "type": "uint256"
        }
      ],
      "stateMutability": "view",
      "type": "function"
    },
    {
      "inputs": [],
      "name": "router",
      "outputs": [
        {
          "internalType": "address",
          "name": "",
          "type": "address"
        }
      ],
      "stateMutability": "view",
      "type": "function"
    },
    {
      "inputs": [],
      "name": "s_lastError",
      "outputs": [
        {
          "internalType": "bytes",
          "name": "",
          "type": "bytes"
        }
      ],
      "stateMutability": "view",
      "type": "function"
    },
    {
      "inputs": [],
      "name": "s_lastRequestId",
      "outputs": [
        {
          "internalType": "bytes32",
          "name": "",
          "type": "bytes32"
        }
      ],
      "stateMutability": "view",
      "type": "function"
    },
    {
      "inputs": [],
      "name": "s_lastResponse",
      "outputs": [
        {
          "internalType": "bytes",
          "name": "",
          "type": "bytes"
        }
      ],
      "stateMutability": "view",
      "type": "function"
    },
    {
      "inputs": [],
      "name": "s_requestCounter",
      "outputs": [
        {
          "internalType": "uint256",
          "name": "",
          "type": "uint256"
        }
      ],
      "stateMutability": "view",
      "type": "function"
    },
    {
      "inputs": [],
      "name": "s_responseCounter",
      "outputs": [
        {
          "internalType": "uint256",
          "name": "",
          "type": "uint256"
        }
      ],
      "stateMutability": "view",
      "type": "function"
    },
    {
      "inputs": [],
      "name": "s_upkeepCounter",
      "outputs": [
        {
          "internalType": "uint256",
          "name": "",
          "type": "uint256"
        }
      ],
      "stateMutability": "view",
      "type": "function"
    },
    {
      "inputs": [],
      "name": "sampleMaxSize",
      "outputs": [
        {
          "internalType": "uint256",
          "name": "",
          "type": "uint256"
        }
      ],
      "stateMutability": "view",
      "type": "function"
    },
    {
      "inputs": [
        {
          "internalType": "uint256",
          "name": "",
          "type": "uint256"
        }
      ],
      "name": "sampleStorage",
      "outputs": [
        {
          "internalType": "string",
          "name": "",
          "type": "string"
        }
      ],
      "stateMutability": "view",
      "type": "function"
    },
    {
      "inputs": [],
      "name": "sepoliaLINKAddress",
      "outputs": [
        {
          "internalType": "address",
          "name": "",
          "type": "address"
        }
      ],
      "stateMutability": "view",
      "type": "function"
    },
    {
      "inputs": [],
      "name": "sepoliaRegistrarAddress",
      "outputs": [
        {
          "internalType": "address",
          "name": "",
          "type": "address"
        }
      ],
      "stateMutability": "view",
      "type": "function"
    },
    {
      "inputs": [
        {
          "internalType": "bytes",
          "name": "receivedCBOR",
          "type": "bytes"
        }
      ],
      "name": "setComputation",
      "outputs": [],
      "stateMutability": "nonpayable",
      "type": "function"
    },
    {
      "inputs": [
        {
          "internalType": "bytes",
          "name": "newRequestCBOR",
          "type": "bytes"
        },
        {
          "internalType": "uint64",
          "name": "_subscriptionId",
          "type": "uint64"
        },
        {
          "internalType": "bytes32",
          "name": "_donID",
          "type": "bytes32"
        }
      ],
      "name": "setRequest",
      "outputs": [],
      "stateMutability": "nonpayable",
      "type": "function"
    },
    {
      "inputs": [],
      "name": "subscriptionId",
      "outputs": [
        {
          "internalType": "uint64",
          "name": "",
          "type": "uint64"
        }
      ],
      "stateMutability": "view",
      "type": "function"
    },
    {
      "inputs": [
        {
          "internalType": "address",
          "name": "to",
          "type": "address"
        }
      ],
      "name": "transferOwnership",
      "outputs": [],
      "stateMutability": "nonpayable",
      "type": "function"
    },
    {
      "inputs": [],
      "name": "upkeepContract",
      "outputs": [
        {
          "internalType": "address",
          "name": "",
          "type": "address"
        }
      ],
      "stateMutability": "view",
      "type": "function"
    },
    {
      "inputs": [],
      "name": "upkeepCounter",
      "outputs": [
        {
          "internalType": "uint256",
          "name": "",
          "type": "uint256"
        }
      ],
      "stateMutability": "view",
      "type": "function"
    },
    {
      "inputs": [],
      "name": "upkeepId",
      "outputs": [
        {
          "internalType": "uint256",
          "name": "",
          "type": "uint256"
        }
      ],
      "stateMutability": "view",
      "type": "function"
    }
  ],
  "bytecode": "0x6080604052610180620020f180380380916200001b82620000cc565b60803912620000b1576200002e6200011d565b6200003862000134565b9060c0519160e05192610100519361012051620000546200014b565b61016051916001600160401b0383168303620000b157620000a1976200007962000163565b94620000846200017b565b966200008f62000193565b986200009a620001ab565b9a6200020a565b604051611c5390816200049e8239f35b600080fd5b634e487b7160e01b600052604160045260246000fd5b6080601f91909101601f19168101906001600160401b03821190821017620000f357604052565b620000b6565b601f909101601f19168101906001600160401b03821190821017620000f357604052565b608051906001600160a01b0382168203620000b157565b60a051906001600160a01b0382168203620000b157565b61014051906001600160a01b0382168203620000b157565b61018051906001600160a01b0382168203620000b157565b6101a051906001600160a01b0382168203620000b157565b6101c051906001600160a01b0382168203620000b157565b6101e0519063ffffffff82168203620000b157565b60408051919082016001600160401b03811183821017620000f357604052601d82527f636f6e7374727563746f7220626c6f636b2e74696d657374616d703a200000006020830152565b98959a999793969190949a600060015560018060a01b038a16918215620003bb57620003989c620002be6200034b9a620002b962000307986200036d9f620002c396620002af620003299e6200028d620002b494620002e59d60018060a01b0319600354161760035560018060a01b031660018060a01b0319601c541617601c55565b601d80546001600160a01b0319166001600160a01b0392909216919091179055565b602055565b602155565b601f55565b600a55565b600c80546001600160a01b0319166001600160a01b0392909216919091179055565b600980546001600160401b0319166001600160401b0392909216919091179055565b600d80546001600160a01b0319166001600160a01b0392909216919091179055565b601a80546001600160a01b0319166001600160a01b0392909216919091179055565b601b80546001600160a01b0319166001600160a01b0392909216919091179055565b6bffffffff00000000000000006009549160401b16906bffffffff0000000000000000191617600955565b620003a242601855565b620003b9601854620003b3620001c0565b62000400565b565b60405162461bcd60e51b815260206004820152601860248201527f43616e6e6f7420736574206f776e657220746f207a65726f00000000000000006044820152606490fd5b919060405190602090632d839cb360e21b828401526040602484015284519182606485015260005b8381106200046d575050620003b993945082826084926000846200046796850101526044830152601f80199101168101036064810184520182620000f9565b62000482565b86810182015185820160840152810162000428565b600080916020815191016a636f6e736f6c652e6c6f675afa5056fe6080604052600436101561001257600080fd5b60003560e01c80626d6cae146102c6578063089ea02e146102c157806309c1ba2e146102bc5780631243bcc3146102b75780631aa46f59146102b257806324b93e3e146102ad578063277e2213146102a8578063338cdca1146102a357806336e6a92f1461029e578063381fc4b5146102995780633944ea3a1461029457806343cd3d861461028f5780634585e33b1461028a57806348802b921461028557806348bd6f05146102805780634b0795a81461027b5780635d641dfc146102765780635e0611f114610271578063688ecfd11461026c5780636baa48fe146102675780636e04ff0d146102625780636e74336b1461025d57806379ba5097146102585780637b103999146102535780637d95f68a1461024e5780638b7afe2e146102495780638da5cb5b14610244578063947a36fb1461023f5780639655e6d81461023a578063a309713914610235578063a3d3c0d214610230578063b1e217491461022b578063bd4ca97b14610226578063bef3a2f014610221578063d1384eb61461021c578063d2aa789f14610217578063d811fcf014610212578063ebf14a551461020d578063f2fde38b14610208578063f5c1279b14610203578063f68016b7146101fe578063f887ea40146101f95763fffeb84e146101f457600080fd5b61152c565b611505565b6114e1565b6114c3565b6113e4565b6113c6565b61139f565b611381565b61135a565b6112b3565b611297565b611279565b61125b565b61123e565b6111c2565b611130565b611109565b6110ed565b610ffb565b610fd4565b610ef3565b610ed5565b610e52565b610df6565b610dc6565b610d9f565b610d83565b610cdc565b610cbe565b610ca0565b610b15565b610ac8565b610a21565b610a03565b610888565b610785565b610498565b610374565b610356565b61032f565b610307565b6102e9565b346102e45760003660031901126102e4576020600054604051908152f35b600080fd5b346102e45760003660031901126102e4576020601854604051908152f35b346102e45760003660031901126102e457602067ffffffffffffffff60095416604051908152f35b346102e45760003660031901126102e45760206001600160a01b03601a5416604051908152f35b346102e45760003660031901126102e4576020600654604051908152f35b346102e45760003660031901126102e457602060095463ffffffff6040519160401c168152f35b634e487b7160e01b600052600060045260246000fd5b90600182811c921680156103e1575b60208310146103cb57565b634e487b7160e01b600052602260045260246000fd5b91607f16916103c0565b634e487b7160e01b600052604160045260246000fd5b6040810190811067ffffffffffffffff82111761041d57604052565b6103eb565b90601f8019910116810190811067ffffffffffffffff82111761041d57604052565b919082519283825260005b848110610470575050826000602080949584010152601f8019910116010190565b60208183018101518483018201520161044f565b906020610495928181520190610444565b90565b346102e4576020806003193601126102e4576004356022548110156102e45760226000527f61035b26e3e9eee00e0d72fd1ee8ddca6894550dca6916ea2ac6baa90d11e51001906040519060009280546104f1816103b1565b80855291600191808316908115610568575060011461052b575b6105278561051b81890382610422565b60405191829182610484565b0390f35b6000908152838120939550925b82841061055557505050816105279361051b92820101933861050b565b8054858501870152928501928101610538565b60ff191686860152505050151560051b820101915061051b816105273861050b565b604051906000826005549161059e836103b1565b8083529260019081811690811561062657506001146105c7575b506105c592500383610422565b565b6005600090815291507f036b6384b5eca791c62761152d0c79bb0604c104a5fb6f4eb0703f3154bb3db05b84831061060b57506105c59350508101602001386105b8565b81935090816020925483858a010152019101909185926105f2565b9050602092506105c594915060ff191682840152151560051b820101386105b8565b604051906000826024549161065c836103b1565b80835292600190818116908115610626575060011461068257506105c592500383610422565b6024600090815291507f7cd332d19b93bcabe3cce7ca0c18a052f57e5fd03b4758a09f30f5ddc4b22ec45b8483106106c657506105c59350508101602001386105b8565b81935090816020925483858a010152019101909185926106ad565b90604051918260008254926106f5846103b1565b908184526001948581169081600014610762575060011461071f575b50506105c592500383610422565b9093915060005260209081600020936000915b81831061074a5750506105c593508201013880610711565b85548884018501529485019487945091830191610732565b9150506105c594506020925060ff191682840152151560051b8201013880610711565b346102e457600080600319360112610857576040519080600f546107a8816103b1565b8085529160019180831690811561082d57506001146107d2575b6105278561051b81870382610422565b9250600f83527f8d1108e10bcb7c27dddfc02ed9d693a074039d026cf4ea4240b40f7d581ac8025b82841061081557505050810160200161051b826105276107c2565b805460208587018101919091529093019281016107fa565b8695506105279693506020925061051b94915060ff191682840152151560051b82010192936107c2565b80fd5b9181601f840112156102e45782359167ffffffffffffffff83116102e457602083818601950101116102e457565b346102e45760603660031901126102e45767ffffffffffffffff6004358181116102e4576108ba90369060040161085a565b91906024359180831683036102e4576108d16115d3565b831161041d576108eb836108e66005546103b1565b61162b565b600090601f84116001146109635761093a939160009183610958575b50508160011b916000199060031b1c19161760055567ffffffffffffffff1667ffffffffffffffff196009541617600955565b610945604435601155565b61095642610951611785565b611ba6565b005b013590503880610907565b60056000527f036b6384b5eca791c62761152d0c79bb0604c104a5fb6f4eb0703f3154bb3db091601f198516815b8181106109eb575091600193918661093a9794106109d1575b505050811b0160055567ffffffffffffffff1667ffffffffffffffff196009541617600955565b0135600019600384901b60f8161c191690553880806109aa565b91936020600181928787013581550195019201610991565b346102e45760003660031901126102e4576020600b54604051908152f35b346102e457600080600319360112610857576040519080601354610a44816103b1565b8085529160019180831690811561082d5750600114610a6d576105278561051b81870382610422565b9250601383527f66de8ffda797e3de9c05e8fc57b3bf0ec28a930d40b0d285d93c06501cf6a0905b828410610ab057505050810160200161051b826105276107c2565b80546020858701810191909152909301928101610a95565b346102e45760003660031901126102e4576020601754604051908152f35b60206003198201126102e4576004359067ffffffffffffffff82116102e457610b119160040161085a565b9091565b346102e457610b2336610ae6565b50506001600160a01b0380600354168033141580610c92575b610c5257610b4d600e5415156118c4565b610b55611761565b50610b67610b616117d4565b5061190f565b610b7042601855565b610b83610b7e60195461195a565b601955565b6021546022541015610be057610bc7610bc2610ba860095467ffffffffffffffff1690565b60105463ffffffff1660115491610bbd61058a565b611968565b601255565b601254600055610956610bdb60165461195a565b601655565b610c24740100000000000000000000000000000000000000007fffffffffffffffffffffff00ffffffffffffffffffffffffffffffffffffffff601e541617601e55565b610bc7610bc2610c3d60095467ffffffffffffffff1690565b60105463ffffffff1660115491610bbd610648565b606491601e5416604051917f426fbc7100000000000000000000000000000000000000000000000000000000835233600484015260248301526044820152fd5b5081601e5416331415610b3c565b346102e45760003660031901126102e4576020601654604051908152f35b346102e45760003660031901126102e4576020601f54604051908152f35b346102e457600080600319360112610857576040519080601454610cff816103b1565b8085529160019180831690811561082d5750600114610d28576105278561051b81870382610422565b9250601483527fce6d7b5282bd9a3661ae061feed1dbda4e52ab073b1f9285be6e155d9c38d4ec5b828410610d6b57505050810160200161051b826105276107c2565b80546020858701810191909152909301928101610d50565b346102e45760003660031901126102e457602060405160018152f35b346102e45760003660031901126102e45760206001600160a01b03601e5416604051908152f35b346102e45760003660031901126102e457610527610de261058a565b604051918291602083526020830190610444565b346102e45760003660031901126102e45760206001600160a01b03601b5416604051908152f35b67ffffffffffffffff811161041d57601f01601f191660200190565b6040906104959392151581528160208201520190610444565b346102e45760203660031901126102e45760043567ffffffffffffffff81116102e457366023820112156102e457806004013590610e8f82610e1d565b91610e9d6040519384610422565b80835236602482840101116102e4576000928160246020940184830137010152610ec56117d4565b9061052760405192839283610e39565b346102e45760003660031901126102e4576020601154604051908152f35b346102e457600080600319360112610857576001600160a01b0380600454163303610f90576003546001600160a01b03166003805473ffffffffffffffffffffffffffffffffffffffff19163317905590610f6673ffffffffffffffffffffffffffffffffffffffff1960045416600455565b3391167f8be0079c531659141344cd1fd0a4f28419497f9722a3daafe3b4186f6b6457e08380a380f35b606460405162461bcd60e51b815260206004820152601660248201527f4d7573742062652070726f706f736564206f776e6572000000000000000000006044820152fd5b346102e45760003660031901126102e45760206001600160a01b03600d5416604051908152f35b346102e45761100936610ae6565b6110116115d3565b67ffffffffffffffff811161041d576110348161102f6024546103b1565b61169c565b6000601f821160011461106f578192600092611064575b5050600019600383901b1c191660019190911b17602455005b01359050388061104b565b6024600052601f198216927f7cd332d19b93bcabe3cce7ca0c18a052f57e5fd03b4758a09f30f5ddc4b22ec491805b8581106110d5575083600195106110bb575b505050811b01602455005b0135600019600384901b60f8161c191690553880806110b0565b9092602060018192868601358155019401910161109e565b346102e45760003660031901126102e457602047604051908152f35b346102e45760003660031901126102e45760206001600160a01b0360035416604051908152f35b346102e45760003660031901126102e4576020600a54604051908152f35b805482101561116a5760005260206000209060021b0190600090565b634e487b7160e01b600052603260045260246000fd5b919361ffff6111b160809598979667ffffffffffffffff63ffffffff9516865260a0602087015260a0860190610444565b971660408401521660608201520152565b346102e45760403660031901126102e457602435600435600052600260205260406000209081548110156102e4576111f99161114e565b5067ffffffffffffffff81541690610527611216600183016106e1565b91600360028201549101549060405194859461ffff63ffffffff8460101c1693169186611180565b346102e45760003660031901126102e45760208054604051908152f35b346102e45760003660031901126102e4576020601954604051908152f35b346102e45760003660031901126102e4576020601254604051908152f35b346102e45760003660031901126102e457610527610de2610648565b346102e4576000806003193601126108575760405190806007546112d6816103b1565b8085529160019180831690811561082d57506001146112ff576105278561051b81870382610422565b9250600783527fa66cc928b5edb82af9bd49922954155ab7b0942694bea4ce44661d9a8736c6885b82841061134257505050810160200161051b826105276107c2565b80546020858701810191909152909301928101611327565b346102e45760003660031901126102e45760206001600160a01b03601c5416604051908152f35b346102e45760003660031901126102e4576020600e54604051908152f35b346102e45760003660031901126102e45760206001600160a01b03601d5416604051908152f35b346102e45760003660031901126102e4576020602154604051908152f35b346102e45760203660031901126102e4576004356001600160a01b0381168091036102e4576114116115d3565b33811461147f578073ffffffffffffffffffffffffffffffffffffffff19600454161760045561145861144c6003546001600160a01b031690565b6001600160a01b031690565b7fed8889f560326eb138920d842192f0eb3dd22b4f139c87a2c57538e05bae1278600080a3005b606460405162461bcd60e51b815260206004820152601760248201527f43616e6e6f74207472616e7366657220746f2073656c660000000000000000006044820152fd5b346102e45760003660031901126102e4576020601554604051908152f35b346102e45760003660031901126102e457602063ffffffff60105416604051908152f35b346102e45760003660031901126102e45760206001600160a01b03600c5416604051908152f35b346102e45760008060031936011261085757604051908060085461154f816103b1565b8085529160019180831690811561082d5750600114611578576105278561051b81870382610422565b9250600883527ff3f7a9fe364faab93b216da50a3214154f22a0a2b415b23a84c8169e8b636ee35b8284106115bb57505050810160200161051b826105276107c2565b805460208587018101919091529093019281016115a0565b6001600160a01b036003541633036115e757565b606460405162461bcd60e51b815260206004820152601660248201527f4f6e6c792063616c6c61626c65206279206f776e6572000000000000000000006044820152fd5b601f8111611637575050565b600090600582527f036b6384b5eca791c62761152d0c79bb0604c104a5fb6f4eb0703f3154bb3db0906020601f850160051c83019410611692575b601f0160051c01915b82811061168757505050565b81815560010161167b565b9092508290611672565b601f81116116a8575050565b600090602482527f7cd332d19b93bcabe3cce7ca0c18a052f57e5fd03b4758a09f30f5ddc4b22ec4906020601f850160051c83019410611703575b601f0160051c01915b8281106116f857505050565b8181556001016116ec565b90925082906116e3565b90601f811161171b57505050565b600091825260208220906020601f850160051c83019410611757575b601f0160051c01915b82811061174c57505050565b818155600101611740565b9092508290611737565b604051906020820182811067ffffffffffffffff82111761041d5760405260008252565b6040519061179282610401565b601c82527f7365745265717565737420626c6f636b2e74696d657374616d703a20000000006020830152565b634e487b7160e01b600052601160045260246000fd5b60185442034281116118bf57600a54106118246040516117f381610401565b601d81527f636865636b55706b65657020626c6f636b2e74696d657374616d703a2000000060208201524290611ba6565b6118b96118a06118b460405161183981610401565b601481527f75706b6565704e65656465642076616c75653a2000000000000000000000000060208201526040519283917fc3b55635000000000000000000000000000000000000000000000000000000006020840152604060248401526064830190610444565b85604483015203601f198101835282610422565b611c02565b90606090565b6117be565b156118cb57565b606460405162461bcd60e51b815260206004820152601560248201527f55706b656570206e6f74207265676973746572656400000000000000000000006044820152fd5b1561191657565b606460405162461bcd60e51b815260206004820152601560248201527f54696d6520696e74657276616c206e6f74206d657400000000000000000000006044820152fd5b90600182018092116118bf57565b91909392936040519160a0830167ffffffffffffffff928482108483111761041d5783916040521683526020938484019081526040840192600180855263ffffffff6060870194168452608086019889528054966000978089556119cb8161195a565b83558852600281526040882080546801000000000000000081101561041d576119f891848201815561114e565b979097611ba15783611a24915116889067ffffffffffffffff1667ffffffffffffffff19825416179055565b8187019351805193841161041d57611a4684611a4087546103b1565b8761170d565b81601f8511600114611b04575093838060039895611ace957f1131472297a800fee664d1d89cfa8f7676ff07189ecc53f80bbb5f4969099db89d9e9995611aeb998e94611af9575b50501b91600019908a1b1c19161790555b611ac4611ab260028901945161ffff1690565b845461ffff191661ffff909116178455565b5163ffffffff1690565b65ffffffff000082549160101b169065ffffffff00001916179055565b51910155805491818392a290565b015192503880611a8e565b9190601f949394198416611b1d87600052602060002090565b938b905b828210611b8a575050937f1131472297a800fee664d1d89cfa8f7676ff07189ecc53f80bbb5f4969099db89b9c9793611aeb979360039a979383611ace9810611b72575b505050811b019055611a9f565b0151600019838c1b60f8161c19169055388080611b65565b808886978294978701518155019601940190611b21565b61039b565b6118b4611bee916105c5936040519384927fb60e72cc000000000000000000000000000000000000000000000000000000006020850152604060248501526064840190610444565b90604483015203601f198101835282610422565b600080916020815191016a636f6e736f6c652e6c6f675afa5056fea2646970667358221220165769047f611a03b49baf99e48e6a569a2841bd69be648bb1bd9c3608638be564736f6c63430008130033",
  "linkReferences": {},
  "deployedLinkReferences": {}
}