{
  "_format": "hh-sol-artifact-1",
  "contractName": "Institution",
  "sourceName": "contracts/Institution.sol",
  "abi": [
    {
      "inputs": [
        {
          "internalType": "address",
          "name": "_owner",
          "type": "address"
        },
        {
          "internalType": "string",
          "name": "_institutionName",
          "type": "string"
        }
      ],
      "stateMutability": "nonpayable",
      "type": "constructor"
    },
    {
      "inputs": [],
      "name": "NotOwner",
      "type": "error"
    },
    {
      "anonymous": false,
      "inputs": [
        {
          "indexed": false,
          "internalType": "address",
          "name": "insuranceContractAddress",
          "type": "address"
        }
      ],
      "name": "InsuranceContractCreated",
      "type": "event"
    },
    {
      "inputs": [
        {
          "internalType": "address",
          "name": "_farmerAddr",
          "type": "address"
        }
      ],
      "name": "blacklistAddr",
      "outputs": [],
      "stateMutability": "nonpayable",
      "type": "function"
    },
    {
      "inputs": [],
      "name": "contractBalance",
      "outputs": [
        {
          "internalType": "uint256",
          "name": "",
          "type": "uint256"
        }
      ],
      "stateMutability": "view",
      "type": "function"
    },
    {
      "inputs": [
        {
          "internalType": "address",
          "name": "",
          "type": "address"
        },
        {
          "internalType": "uint256",
          "name": "",
          "type": "uint256"
        }
      ],
      "name": "contracts",
      "outputs": [
        {
          "internalType": "contract AutomatedFunctionsConsumer",
          "name": "",
          "type": "address"
        }
      ],
      "stateMutability": "view",
      "type": "function"
    },
    {
      "inputs": [
        {
          "internalType": "address",
          "name": "_deployer",
          "type": "address"
        },
        {
          "internalType": "address",
          "name": "_farmer",
          "type": "address"
        },
        {
          "internalType": "uint256",
          "name": "_humidityLimit",
          "type": "uint256"
        },
        {
          "internalType": "uint256",
          "name": "_sampleMaxSize",
          "type": "uint256"
        },
        {
          "internalType": "uint256",
          "name": "_reparationValue",
          "type": "uint256"
        },
        {
          "internalType": "uint256",
          "name": "_updateInterval",
          "type": "uint256"
        },
        {
          "internalType": "address",
          "name": "router",
          "type": "address"
        },
        {
          "internalType": "uint64",
          "name": "_subscriptionId",
          "type": "uint64"
        },
        {
          "internalType": "address",
          "name": "_registry",
          "type": "address"
        },
        {
          "internalType": "address",
          "name": "_sepoliaLINKAddress",
          "type": "address"
        },
        {
          "internalType": "address",
          "name": "_sepoliaRegistrarAddress",
          "type": "address"
        },
        {
          "internalType": "uint96",
          "name": "_upkeepFundAmount",
          "type": "uint96"
        },
        {
          "internalType": "uint32",
          "name": "_fulfillGasLimit",
          "type": "uint32"
        }
      ],
      "name": "createInsuranceContract",
      "outputs": [],
      "stateMutability": "nonpayable",
      "type": "function"
    },
    {
      "inputs": [
        {
          "internalType": "uint256",
          "name": "_index",
          "type": "uint256"
        }
      ],
      "name": "getInsurance",
      "outputs": [
        {
          "internalType": "contract AutomatedFunctionsConsumer",
          "name": "",
          "type": "address"
        }
      ],
      "stateMutability": "view",
      "type": "function"
    },
    {
      "inputs": [],
      "name": "i_owner",
      "outputs": [
        {
          "internalType": "address",
          "name": "",
          "type": "address"
        }
      ],
      "stateMutability": "view",
      "type": "function"
    },
    {
      "inputs": [],
      "name": "id",
      "outputs": [
        {
          "internalType": "string",
          "name": "",
          "type": "string"
        }
      ],
      "stateMutability": "view",
      "type": "function"
    },
    {
      "inputs": [],
      "name": "institutionName",
      "outputs": [
        {
          "internalType": "string",
          "name": "",
          "type": "string"
        }
      ],
      "stateMutability": "view",
      "type": "function"
    },
    {
      "inputs": [
        {
          "internalType": "address",
          "name": "_farmerAddr",
          "type": "address"
        }
      ],
      "name": "isWhiteListed",
      "outputs": [
        {
          "internalType": "bool",
          "name": "",
          "type": "bool"
        }
      ],
      "stateMutability": "view",
      "type": "function"
    },
    {
      "inputs": [
        {
          "internalType": "string",
          "name": "_name",
          "type": "string"
        },
        {
          "internalType": "string",
          "name": "_description",
          "type": "string"
        }
      ],
      "name": "registerInfo",
      "outputs": [],
      "stateMutability": "nonpayable",
      "type": "function"
    },
    {
      "inputs": [
        {
          "internalType": "address",
          "name": "",
          "type": "address"
        }
      ],
      "name": "whitelist",
      "outputs": [
        {
          "internalType": "bool",
          "name": "",
          "type": "bool"
        }
      ],
      "stateMutability": "view",
      "type": "function"
    },
    {
      "inputs": [
        {
          "internalType": "address",
          "name": "_farmerAddr",
          "type": "address"
        }
      ],
      "name": "whitelistAddr",
      "outputs": [],
      "stateMutability": "nonpayable",
      "type": "function"
    },
    {
      "inputs": [],
      "name": "withdraw",
      "outputs": [],
      "stateMutability": "nonpayable",
      "type": "function"
    },
    {
      "stateMutability": "payable",
      "type": "receive"
    }
  ],
  "bytecode": "0x60a060405234620002485762004af5803803806200001d816200024d565b928339810190604081830312620002485780516001600160a01b038116810362000248576020828101516001600160401b039391929184821162000248570193601f91818387011215620002485785518581116200021d57601f19966200008a828601891687016200024d565b938285528683830101116200024857859060005b838110620002335750506000918401015260805280519384116200021d57600054926001938481811c9116801562000212575b82821014620001fc57838111620001b1575b5080928511600114620001475750839450908392916000946200013b575b50501b916000199060031b1c1916176000555b60405161488190816200027482396080518181816103aa0152818161054c01526108cd0152f35b01519250388062000101565b9294849081166000805284600020946000905b888383106200019657505050106200017c575b505050811b0160005562000114565b015160001960f88460031b161c191690553880806200016d565b8587015188559096019594850194879350908101906200015a565b60008052816000208480880160051c820192848910620001f2575b0160051c019085905b828110620001e5575050620000e3565b60008155018590620001d5565b92508192620001cc565b634e487b7160e01b600052602260045260246000fd5b90607f1690620000d1565b634e487b7160e01b600052604160045260246000fd5b8181018301518682018401528792016200009e565b600080fd5b6040519190601f01601f191682016001600160401b038111838210176200021d5760405256fe608060405260043610156200001d575b36156200001b57600080fd5b005b60003560e01c8063080a57f914620001065780633a133e2c14620001005780633ccfd60b14620000fa5780636a4ac97914620000f45780636f9170f614620000ee57806385fae60214620000e85780638a699f0014620000e25780638b7afe2e14620000dc5780639b19251a14620000d6578063af640d0f14620000d0578063dba6335f14620000ca578063de5e5b7b14620000c45763ed23f8c3036200000f57620009f7565b62000923565b620008ab565b620007f8565b620007b5565b62000797565b62000759565b62000711565b62000667565b620004ef565b6200038c565b62000297565b62000187565b600435906001600160a01b03821682036200012357565b600080fd5b60c435906001600160a01b03821682036200012357565b61010435906001600160a01b03821682036200012357565b61012435906001600160a01b03821682036200012357565b61014435906001600160a01b03821682036200012357565b346200012357602036600319011262000123576001600160a01b03620001ac6200010c565b166000908152600360205260409020805460ff19166001179055005b90600182811c92168015620001fa575b6020831014620001e457565b634e487b7160e01b600052602260045260246000fd5b91607f1691620001d8565b634e487b7160e01b600052604160045260246000fd5b90601f8019910116810190811067ffffffffffffffff8211176200023e57604052565b62000205565b60005b838110620002585750506000910152565b818101518382015260200162000247565b604091602082526200028b815180928160208601526020868601910162000244565b601f01601f1916010190565b346200012357600080600319360112620003895760405190808054620002bd81620001c8565b808552916001918083169081156200035c5750600114620002fd575b620002f985620002ec818703826200021b565b6040519182918262000269565b0390f35b80809450527f290decd9548b62a8d60345a988386fc84ba6bc95484008f6362f93160ef3e5635b82841062000343575050508101602001620002ec82620002f9620002d9565b8054602085870181019190915290930192810162000324565b869550620002f996935060209250620002ec94915060ff191682840152151560051b8201019293620002d9565b80fd5b34620001235760008060031936011262000389576001600160a01b037f0000000000000000000000000000000000000000000000000000000000000000168033036200045b57818080809347905af13d1562000455573d620003ee8162000485565b90620003fe60405192836200021b565b81528260203d92013e5b15620004115780f35b606460405162461bcd60e51b815260206004820152600f60248201527f4f2073617175652066616c686f752e00000000000000000000000000000000006044820152fd5b62000408565b60046040517f30cd7471000000000000000000000000000000000000000000000000000000008152fd5b67ffffffffffffffff81116200023e57601f01601f191660200190565b81601f820112156200012357803590620004bc8262000485565b92620004cc60405194856200021b565b828452602083830101116200012357816000926020809301838601378301015290565b3462000123576040366003190112620001235767ffffffffffffffff600435818111620001235762000526903690600401620004a2565b602435828111620001235762000541903690600401620004a2565b916001600160a01b037f00000000000000000000000000000000000000000000000000000000000000001633036200045b5760405182818094516200058d816020978880960162000244565b810160028152030190209183519182116200023e57620005ba82620005b38554620001c8565b8562000a48565b80601f8311600114620005f85750819293600092620005ec575b5050600019600383901b1c191660019190911b179055005b015190503880620005d4565b90601f198316946200060f85600052602060002090565b926000905b8782106200064e57505083600195961062000634575b505050811b019055005b015160001960f88460031b161c191690553880806200062a565b8060018596829496860151815501950193019062000614565b346200012357602036600319011262000123576001600160a01b036200068c6200010c565b16600052600360205260ff6040600020541660405160208101917f32458eed000000000000000000000000000000000000000000000000000000008352151590816024820152602481526060810181811067ffffffffffffffff8211176200023e576040525160209260009182916a636f6e736f6c652e6c6f675afa50604051908152f35b3462000123576020366003190112620001235733600052600460205260206001600160a01b03620007496004356040600020620009c8565b9190546040519260031b1c168152f35b346200012357602036600319011262000123576001600160a01b036200077e6200010c565b166000908152600360205260409020805460ff19169055005b34620001235760003660031901126200012357602047604051908152f35b346200012357602036600319011262000123576001600160a01b03620007da6200010c565b166000526003602052602060ff604060002054166040519015158152f35b3462000123576000806003193601126200038957604051908060018054916200082183620001c8565b808652928281169081156200035c57506001146200084c57620002f985620002ec818703826200021b565b92508083527fb10e2d527612073b26eecdfd717e6a320cf44b4afac2b0732d9fcbe2b7fa0cf65b82841062000892575050508101602001620002ec82620002f9620002d9565b8054602085870181019190915290930192810162000873565b3462000123576000366003190112620001235760206040516001600160a01b037f0000000000000000000000000000000000000000000000000000000000000000168152f35b61016435906bffffffffffffffffffffffff821682036200012357565b610184359063ffffffff821682036200012357565b3462000123576101a03660031901126200012357620009416200010c565b602435906001600160a01b038216820362000123576200096062000128565b9160e4359267ffffffffffffffff8416840362000123576200001b93620009866200013f565b6200099062000157565b916200099b6200016f565b93620009a6620008f1565b95620009b16200090e565b9760a4359160843591606435916044359162000b9b565b8054821015620009e15760005260206000200190600090565b634e487b7160e01b600052603260045260246000fd5b3462000123576040366003190112620001235762000a146200010c565b602435906001600160a01b0380911660005260046020526040600020805483101562000123576020926200074991620009c8565b90601f811162000a5757505050565b600091825260208220906020601f850160051c8301941062000a96575b601f0160051c01915b82811062000a8a57505050565b81815560010162000a7d565b909250829062000a74565b9a98959196929d9c9b99979490936101a08c019e8c6001600160a01b03809a81809916835216906020015260408d015260608c015260808b015260a08a01521660c088015267ffffffffffffffff1660e087015216610100850152610120840162000b13916001600160a01b03169052565b6001600160a01b03166101408301526bffffffffffffffffffffffff166101608201526101800162000b499163ffffffff169052565b565b6040513d6000823e3d90fd5b8054680100000000000000008110156200023e5762000b7c91600182018155620009c8565b819291549060031b916001600160a01b03809116831b921b1916179055565b96909b958c9b959a949a9993999892986001600160a01b03809d16600052600360205260ff604060002054161562000c79576040519a613b68908c67ffffffffffffffff838281810110920111176200023e578f9b8d9c8f939c8d8f62000c099f62000ce482390162000aa1565b0391f0801562000c735762000c5d8162000c577fa155a575082ecf596e5a22a44834be92670605d1d0832000305888ba02a462d9956001600160a01b03166000526004602052604060002090565b62000b57565b60405191166001600160a01b03168152602090a1565b62000b4b565b608460405162461bcd60e51b815260206004820152602160248201527f456e64657265636f206e616f2065737461206e61206c69737461206272616e6360448201527f61000000000000000000000000000000000000000000000000000000000000006064820152fdfe60c06040908082526101a08162003b688038038091620000208285620002e8565b8339810103126200026a5762000036816200030c565b9062000045602082016200030c565b90838101519260608201519260808301519360a0840151916200006b60c086016200030c565b9560e08601519160018060401b039485841684036200026a576200009361010089016200030c565b92620000a36101208a016200030c565b95620000b36101408b016200030c565b6101608b0151909c6001600160601b0382169b90918c90036200026a5761018001519463ffffffff861686036200026a576001600160a01b039c8d166080528a8d1615620002a45791899593918d6bffffffff0000000000000000969460018060a01b03199d8e83821690600054161760005560165490610100600160a81b039060081b1690610100600160a81b03191617601655168c6017541617601755601a55601b5560195560075589600654941660a0528b1b1692169060018060601b031916171760065586519161073a9081840190848210908211176200028e57868060609486946200342e8639169889835216602082015285898201520301906000f09081156200028357602093604492168091600854161760085560008651958694859363095ea7b360e01b8552600485015260248401525af18015620002785762000234575b5042600d555161310c90816200032282396080518181816103ef01528181611b1c0152611d01015260a0518181816110fb0152611d4d0152f35b6020813d6020116200026f575b816200025060209383620002e8565b810103126200026a5751801515036200026a5738620001fa565b600080fd5b3d915062000241565b82513d6000823e3d90fd5b85513d6000823e3d90fd5b634e487b7160e01b600052604160045260246000fd5b8e5162461bcd60e51b815260206004820152601860248201527f43616e6e6f7420736574206f776e657220746f207a65726f00000000000000006044820152606490fd5b601f909101601f19168101906001600160401b038211908210176200028e57604052565b51906001600160a01b03821682036200026a5756fe6080604052600436101561001b575b361561001957600080fd5b005b60003560e01c8063089ea02e1461026b57806309c1ba2e146102665780630ca76175146102615780631aa46f591461025c57806324b93e3e14610257578063277e2213146102525780632fc2a7b91461024d578063338cdca114610248578063381fc4b5146102435780633944ea3a1461023e57806343cd3d86146102395780634585e33b14610234578063472cbbb01461022f57806348802b921461022a57806348bd6f05146102255780634b0795a8146102205780635e0611f11461021b578063688ecfd1146102165780636e04ff0d146102115780636e74336b1461020c57806379ba5097146102075780637b103999146102025780638b7afe2e146101fd5780638da5cb5b146101f8578063a3097139146101f3578063a3d3c0d2146101ee578063b1e21749146101e9578063bef3a2f0146101e4578063d1384eb6146101df578063d2aa789f146101da578063d811fcf0146101d5578063ebf14a55146101d0578063f2fde38b146101cb578063f5c1279b146101c6578063f68016b7146101c1578063fd2c80ae146101bc5763fffeb84e0361000e57611423565b611405565b6113e1565b6113c3565b6112f0565b6112d2565b6112ab565b61128d565b611263565b6111bc565b61119e565b611180565b611162565b61113b565b61111f565b6110db565b610ffb565b610fdd565b610f64565b610ebd565b610e96565b610def565b610dd1565b610db3565b610bfc565b610b32565b610ae6565b610a3f565b610a21565b610940565b610919565b6108b0565b61060e565b6105f0565b610396565b61029e565b610280565b600091031261027b57565b600080fd5b3461027b57600036600319011261027b576020600d54604051908152f35b3461027b57600036600319011261027b57602067ffffffffffffffff60065416604051908152f35b634e487b7160e01b600052604160045260246000fd5b67ffffffffffffffff81116102f057604052565b6102c6565b6040810190811067ffffffffffffffff8211176102f057604052565b90601f8019910116810190811067ffffffffffffffff8211176102f057604052565b67ffffffffffffffff81116102f057601f01601f191660200190565b81601f8201121561027b5780359061036682610333565b926103746040519485610311565b8284526020838301011161027b57816000926020809301838601378301015290565b3461027b57606036600319011261027b57600480359067ffffffffffffffff9060243582811161027b576103cd903690830161034f565b60443583811161027b576103e4903690840161034f565b906001600160a01b037f00000000000000000000000000000000000000000000000000000000000000001633036105c75780519384116102f057826104338561042e88965461069d565b611539565b602080601f871160011461051d575094807f7bab0ec163b5c132c72b8146ac4d6e067e82ed58f8b131150aa71c92589115629596600091610512575b508160011b916000199060031b1c19161790555b61048c82612d8c565b61049f61049a600f54611775565b600f55565b60ff6104ad60165460ff1690565b166104f4576104bb81612e99565b6104ca60405192839283612f96565b0390a27f85e1543bf2f84fe80c6badbce3648c8539ad1df4d2b3d822938ca0538be727e6600080a2005b61050561050082612e76565b601e55565b61050d613006565b6104bb565b90508301513861046f565b600460005290601f1987167f8a35acfbc15ff81a39ae7d344fd709f28e8600b4aa8c65c6b64bfe7fe36bd19b926000905b8282106105ab5750509187917f7bab0ec163b5c132c72b8146ac4d6e067e82ed58f8b131150aa71c9258911562979860019410610592575b5050811b019055610483565b85015160001960f88460031b161c191690553880610586565b8684015185558a9850600190940193928301929081019061054e565b826040517fc6829f83000000000000000000000000000000000000000000000000000000008152fd5b3461027b57600036600319011261027b576020600354604051908152f35b3461027b57600036600319011261027b57602060065463ffffffff6040519160401c168152f35b634e487b7160e01b600052603260045260246000fd5b601c5481101561068257601c6000527f0e4562a10381dec21b205ed72637e6b1b523bdd0e4d4d50af5cd23dd4500a2110190600090565b610635565b634e487b7160e01b600052600060045260246000fd5b90600182811c921680156106cd575b60208310146106b757565b634e487b7160e01b600052602260045260246000fd5b91607f16916106ac565b60405190600082601d54916106eb8361069d565b808352926001908181169081156107735750600114610714575b5061071292500383610311565b565b601d600090815291507f6d4407e7be21f808e6509aa9fa9143369579dd7d760fe20a2c09680fc146134f5b8483106107585750610712935050810160200138610705565b81935090816020925483858a0101520191019091859261073f565b90506020925061071294915060ff191682840152151560051b82010138610705565b90604051918260008254926107a98461069d565b90818452600194858116908160001461081657506001146107d3575b505061071292500383610311565b9093915060005260209081600020936000915b8183106107fe575050610712935082010138806107c5565b855488840185015294850194879450918301916107e6565b91505061071294506020925060ff191682840152151560051b82010138806107c5565b60005b82811061084b57506000910152565b60808101518282015260200161083c565b919082519283825260005b848110610888575050826000602080949584010152601f8019910116010190565b602081830181015184830182015201610867565b9060206108ad92818152019061085c565b90565b3461027b57602036600319011261027b57600435601c5481101561027b5761090161091591601c6000527f0e4562a10381dec21b205ed72637e6b1b523bdd0e4d4d50af5cd23dd4500a21101610795565b60405191829160208352602083019061085c565b0390f35b3461027b57600036600319011261027b5760206001600160a01b0360085416604051908152f35b3461027b57600080600319360112610a1e576040519080600a546109638161069d565b808552916001918083169081156109f45750600114610999575b6109158561098d81870382610311565b6040519182918261089c565b9250600a83527fc65a7bb8d6351c1cf70c95a316cc6a92839c986682d98bc35f958f4883f9d2a85b8284106109dc57505050810160200161098d8261091561097d565b805460208587018101919091529093019281016109c1565b8695506109159693506020925061098d94915060ff191682840152151560051b820101929361097d565b80fd5b3461027b57600036600319011261027b576020600f54604051908152f35b3461027b57600080600319360112610a1e576040519080601154610a628161069d565b808552916001918083169081156109f45750600114610a8b576109158561098d81870382610311565b9250601183527f31ecc21a745e3968a04e9570e4425bc18fa8019c68028196b546d1669c200c685b828410610ace57505050810160200161098d8261091561097d565b80546020858701810191909152909301928101610ab3565b3461027b57600036600319011261027b576020601554604051908152f35b9181601f8401121561027b5782359167ffffffffffffffff831161027b576020838186019501011161027b57565b3461027b57602036600319011261027b5760043567ffffffffffffffff811161027b57610b63903690600401610b04565b50506000546001600160a01b03163381141580610bd2575b610b8757610019611a6c565b6018546040517f426fbc710000000000000000000000000000000000000000000000000000000081523360048201526001600160a01b03928316602482015291166044820152606490fd5b50610bf4610be86018546001600160a01b031690565b6001600160a01b031690565b331415610b7b565b3461027b5760a036600319011261027b5767ffffffffffffffff60043581811161027b57610c2e903690600401610b04565b6024359291838316840361027b576044359263ffffffff8416840361027b57610c556114ca565b82116102f057610c6f82610c6a60025461069d565b61159a565b600090601f8311600114610d0f579180610cee9592610cc394600092610d04575b50508160011b916000199060031b1c19161760025567ffffffffffffffff1667ffffffffffffffff196006541617600655565b6bffffffff00000000000000006006549160401b16906bffffffff0000000000000000191617600655565b610cf9606435600c55565b610019608435600755565b013590503880610c90565b60026000527f405787fa12a823e0f2b7631cc41b3ba8828b3321ca811111fa75cd3aa3bb5ace91601f198416815b818110610d9b5750926001928592610cc396610cee999610610d81575b505050811b0160025567ffffffffffffffff1667ffffffffffffffff196006541617600655565b0135600019600384901b60f8161c19169055388080610d5a565b91936020600181928787013581550195019201610d3d565b3461027b57600036600319011261027b576020601454604051908152f35b3461027b57600036600319011261027b576020601954604051908152f35b3461027b57600080600319360112610a1e576040519080601254610e128161069d565b808552916001918083169081156109f45750600114610e3b576109158561098d81870382610311565b9250601283527fbb8a6a4669ba250d26cd7a459eca9d215f8307e33aebe50379bc5a3617ec34445b828410610e7e57505050810160200161098d8261091561097d565b80546020858701810191909152909301928101610e63565b3461027b57600036600319011261027b5760206001600160a01b0360185416604051908152f35b3461027b57600080600319360112610a1e576040519080600254610ee08161069d565b808552916001918083169081156109f45750600114610f09576109158561098d81870382610311565b9250600283527f405787fa12a823e0f2b7631cc41b3ba8828b3321ca811111fa75cd3aa3bb5ace5b828410610f4c57505050810160200161098d8261091561097d565b80546020858701810191909152909301928101610f31565b3461027b57602036600319011261027b5760043567ffffffffffffffff811161027b57610f9590369060040161034f565b50600d544203428111610fd85760075410604051908152604060208201526060818151806040830152610fca81848401610839565b601f01601f19168101030190f35b611680565b3461027b57600036600319011261027b576020600c54604051908152f35b3461027b57600080600319360112610a1e576001600160a01b03806001541633036110975781546001600160a01b03166000805473ffffffffffffffffffffffffffffffffffffffff1916331790559061106d73ffffffffffffffffffffffffffffffffffffffff1960015416600155565b3391167f8be0079c531659141344cd1fd0a4f28419497f9722a3daafe3b4186f6b6457e08380a380f35b606460405162461bcd60e51b815260206004820152601660248201527f4d7573742062652070726f706f736564206f776e6572000000000000000000006044820152fd5b3461027b57600036600319011261027b5760206040516001600160a01b037f0000000000000000000000000000000000000000000000000000000000000000168152f35b3461027b57600036600319011261027b57602047604051908152f35b3461027b57600036600319011261027b5760206001600160a01b0360005416604051908152f35b3461027b57600036600319011261027b576020601a54604051908152f35b3461027b57600036600319011261027b576020600e54604051908152f35b3461027b57600036600319011261027b576020601054604051908152f35b3461027b57600080600319360112610a1e5760405190806004546111df8161069d565b808552916001918083169081156109f45750600114611208576109158561098d81870382610311565b9250600483527f8a35acfbc15ff81a39ae7d344fd709f28e8600b4aa8c65c6b64bfe7fe36bd19b5b82841061124b57505050810160200161098d8261091561097d565b80546020858701810191909152909301928101611230565b3461027b57600036600319011261027b5760206001600160a01b0360165460081c16604051908152f35b3461027b57600036600319011261027b576020600954604051908152f35b3461027b57600036600319011261027b5760206001600160a01b0360175416604051908152f35b3461027b57600036600319011261027b576020601b54604051908152f35b3461027b57602036600319011261027b576004356001600160a01b03811680910361027b5761131d6114ca565b33811461137f578073ffffffffffffffffffffffffffffffffffffffff196001541617600155611358610be86000546001600160a01b031690565b7fed8889f560326eb138920d842192f0eb3dd22b4f139c87a2c57538e05bae1278600080a3005b606460405162461bcd60e51b815260206004820152601760248201527f43616e6e6f74207472616e7366657220746f2073656c660000000000000000006044820152fd5b3461027b57600036600319011261027b576020601354604051908152f35b3461027b57600036600319011261027b57602063ffffffff600b5416604051908152f35b3461027b57600036600319011261027b576020600754604051908152f35b3461027b57600080600319360112610a1e5760405190806005546114468161069d565b808552916001918083169081156109f4575060011461146f576109158561098d81870382610311565b9250600583527f036b6384b5eca791c62761152d0c79bb0604c104a5fb6f4eb0703f3154bb3db05b8284106114b257505050810160200161098d8261091561097d565b80546020858701810191909152909301928101611497565b6001600160a01b036000541633036114de57565b606460405162461bcd60e51b815260206004820152601660248201527f4f6e6c792063616c6c61626c65206279206f776e6572000000000000000000006044820152fd5b81811061152d575050565b60008155600101611522565b90601f8211611546575050565b6107129160046000527f8a35acfbc15ff81a39ae7d344fd709f28e8600b4aa8c65c6b64bfe7fe36bd19b906020601f840160051c83019310611590575b601f0160051c0190611522565b9091508190611583565b90601f82116115a7575050565b6107129160026000527f405787fa12a823e0f2b7631cc41b3ba8828b3321ca811111fa75cd3aa3bb5ace906020601f840160051c8301931061159057601f0160051c0190611522565b90601f82116115fd575050565b6107129160056000527f036b6384b5eca791c62761152d0c79bb0604c104a5fb6f4eb0703f3154bb3db0906020601f840160051c8301931061159057601f0160051c0190611522565b9190601f811161165557505050565b610712926000526020600020906020601f840160051c8301931061159057601f0160051c0190611522565b634e487b7160e01b600052601160045260246000fd5b601f19810191908211610fd857565b600d544203428111610fd8576007541090606090565b156116c257565b606460405162461bcd60e51b815260206004820152601560248201527f55706b656570206e6f74207265676973746572656400000000000000000000006044820152fd5b604051906020820182811067ffffffffffffffff8211176102f05760405260008252565b1561173157565b606460405162461bcd60e51b815260206004820152601560248201527f54696d6520696e74657276616c206e6f74206d657400000000000000000000006044820152fd5b9060018201809211610fd857565b9060208201809211610fd857565b91908201809211610fd857565b6040519060e0820182811067ffffffffffffffff8211176102f057604052606060c08360008152600060208201526000604082015282808201528260808201528260a08201520152565b601c549067ffffffffffffffff82116102f057604051916020611810818360051b0185610311565b81845280840190601c6000527f0e4562a10381dec21b205ed72637e6b1b523bdd0e4d4d50af5cd23dd4500a2116000925b84841061184f575050505050565b600183819261185d85610795565b815201920193019290611841565b9081602091031261027b575190565b906118a860809367ffffffffffffffff63ffffffff939897969816845260a0602085015260a084019061085c565b95600160408401521660608201520152565b6040513d6000823e3d90fd5b60009060033d116118d357565b905060046000803e60005160e01c90565b600060443d106108ad57604051600319913d83016004833e815167ffffffffffffffff918282113d6024840111176119425781840194855193841161194a573d8501016020848701011161194257506108ad92910160200190610311565b949350505050565b50949350505050565b3d1561197e573d9061196482610333565b916119726040519384610311565b82523d6000602084013e565b606090565b9067ffffffffffffffff909493929416815260209360a0858301526000600254956119ad8761069d565b908160a08601526001978881169081600014611a4357506001146119e7575b5050604083019590955263ffffffff16606082015260800152565b600260009081529250877f405787fa12a823e0f2b7631cc41b3ba8828b3321ca811111fa75cd3aa3bb5ace5b838510611a2e5750505050820160c0018163ffffffff6119cc565b805487860160c0015293820193899101611a13565b60ff191660c08781019190915292151560051b8601909201925083915063ffffffff90506119cc565b611a7960095415156116bb565b611a81611706565b50611a93611a8d6116a5565b5061172a565b611a9c42600d55565b611aaf611aaa600e54611775565b600e55565b601b54601c541015611c5e57611ace611ac9601354611775565b601355565b60065467ffffffffffffffff166020611aec600b5463ffffffff1690565b600c5492611b0e604051948593849363230e93b160e11b855260048501611983565b038160006001600160a01b037f0000000000000000000000000000000000000000000000000000000000000000165af160009181611c2e575b50611beb57506001611b576118c6565b6308c379a014611b99575b611b6857565b7f9c4bfa18304482256875c29fabb1a44a5ecd325f214ea17bab8f31e869faf4c8611b9461098d611953565b0390a1565b611ba16118e4565b80611bad575b50611b62565b90507f2ba61e3733e7ac99181c22307780f651ec8fd92fe661a84dfbe711710b2dc36c611be26000926040519182918261089c565b0390a138611ba7565b611bf481601055565b611c07611c02601454611775565b601455565b7f1131472297a800fee664d1d89cfa8f7676ff07189ecc53f80bbb5f4969099db8600080a2565b611c5091925060203d8111611c57575b611c488183610311565b81019061186b565b9038611b47565b503d611c3e565b611c70600160ff196016541617601655565b611ca2611c7b61179e565b611c8c611c866106d7565b8261228d565b611c9d611c976117e8565b826122ce565b6120a2565b611cb0611ac9601354611775565b60065467ffffffffffffffff16611cec611ccf600b5463ffffffff1690565b600c549060405194859463230e93b160e11b86526004860161187a565b036000916020816001600160a01b03938186867f0000000000000000000000000000000000000000000000000000000000000000165af1839181611ea1575b50611e6157506001611d3b6118c6565b6308c379a014611e10575b611ddc575b7f000000000000000000000000000000000000000000000000000000000000000016600954813b15611dd8576040517f8765ecbe000000000000000000000000000000000000000000000000000000008152600481019190915291908290602490829084905af18015611dd357611dc0575b50565b80611dcd610712926102dc565b80610270565b6118ba565b8280fd5b7f9c4bfa18304482256875c29fabb1a44a5ecd325f214ea17bab8f31e869faf4c8611e0861098d611953565b0390a1611d4b565b611e186118e4565b80611e24575b50611d46565b90507f2ba61e3733e7ac99181c22307780f651ec8fd92fe661a84dfbe711710b2dc36c611e5884926040519182918261089c565b0390a138611e1e565b611e6a81601055565b611e78611c02601454611775565b7f1131472297a800fee664d1d89cfa8f7676ff07189ecc53f80bbb5f4969099db88380a2611d4b565b611eba91925060203d8111611c5757611c488183610311565b9038611d2b565b60405190611ece826102f5565b600c82527f636f64654c6f636174696f6e00000000000000000000000000000000000000006020830152565b634e487b7160e01b600052602160045260246000fd5b60031115611f1a57565b611efa565b60405190611f2c826102f5565b600882527f6c616e67756167650000000000000000000000000000000000000000000000006020830152565b60011115611f1a57565b60405190611f6f826102f5565b600682527f736f7572636500000000000000000000000000000000000000000000000000006020830152565b60405190611fa8826102f5565b600482527f61726773000000000000000000000000000000000000000000000000000000006020830152565b6000198114610fd85760010190565b80518210156106825760209160051b010190565b60405190612004826102f5565b600f82527f736563726574734c6f636174696f6e00000000000000000000000000000000006020830152565b6040519061203d826102f5565b600782527f73656372657473000000000000000000000000000000000000000000000000006020830152565b60405190612076826102f5565b600982527f62797465734172677300000000000000000000000000000000000000000000006020830152565b6120aa61231f565b906120bc6120b6611ec1565b83612a4b565b6120d981516120ca81611f10565b6120d381611f10565b836123c1565b6120e46120b6611f1f565b6120fe60408201516120f581611f58565b6120d381611f58565b6121096120b6611f62565b612117606082015183612a4b565b60a08101805151612234575b50608081019081515161219c575b60c0915001805151612144575b50515190565b916121506120b6612069565b61215982612ad0565b60005b83518051821015612189579061217f6121788261218494611fe3565b5185612998565b611fd4565b61215c565b5050915061219681612b5c565b3861213e565b6020810180516121ab81611f10565b6121b481611f10565b1561220a5760c0926121ed612205926121d46121ce611ff7565b88612a4b565b516121de81611f10565b6121e781611f10565b866123c1565b6121fe6121f8612030565b86612a4b565b5184612998565b612131565b60046040517fa80d31f7000000000000000000000000000000000000000000000000000000008152fd5b92612246612240611f9b565b84612a4b565b61224f83612ad0565b60005b8451805182101561227a579061217f61226e8261227594611fe3565b5186612a4b565b612252565b5050925061228782612b5c565b38612123565b8151156122a4576000808252604082015260600152565b60046040517f22ce3edd000000000000000000000000000000000000000000000000000000008152fd5b8151156122db5760a00152565b60046040517ffe936cb7000000000000000000000000000000000000000000000000000000008152fd5b60405190612312826102f5565b6000602083606081520152565b60405161232b816102f5565b612333612305565b8082526020820160008152612346612305565b50610100602083015260405180925260008252610120820191821061027b576000916040525290565b90612378612305565b50601f8116806123a7575b508060208301526040519081835260008252810160200190811061027b5760405290565b60200360208111610fd8578101809111610fd85738612383565b908151916123cd612305565b508251516001810190818111610fd8576020850151811015612426575b60c26020610712965192830101538051821161241e575b505060405191602083015260208252612419826102f5565b612998565b523880612401565b8160011b9482860460021483151715610fd8576020816124586107129861245160c29551918461236f565b50826128e0565b50965050506123ea565b908160011b9180830460021490151715610fd857565b612480612305565b508051516001810190818111610fd85760208301518110156124b9575b605b602084519283010153805182116124b557505090565b5290565b8160011b82810460021483151715610fd8576124e2906124db8551918661236f565b50846128e0565b5061249d565b6124f0612305565b508051516001810190818111610fd8576020830151811015612525575b605a602084519283010153805182116124b557505090565b8160011b82810460021483151715610fd857612547906124db8551918661236f565b5061250d565b612555612305565b508051516001810190818111610fd857602083015181101561258a575b6059602084519283010153805182116124b557505090565b8160011b82810460021483151715610fd8576125ac906124db8551918661236f565b50612572565b6125ba612305565b508051516001810190818111610fd85760208301518110156125ef575b6058602084519283010153805182116124b557505090565b8160011b82810460021483151715610fd857612611906124db8551918661236f565b506125d7565b61261f612305565b508051516001810190818111610fd8576020830151811015612654575b607b602084519283010153805182116124b557505090565b8160011b82810460021483151715610fd857612676906124db8551918661236f565b5061263c565b612684612305565b508051516001810190818111610fd85760208301518110156126b9575b607a602084519283010153805182116124b557505090565b8160011b82810460021483151715610fd8576126db906124db8551918661236f565b506126a1565b6126e9612305565b508051516001810190818111610fd857602083015181101561271e575b6079602084519283010153805182116124b557505090565b8160011b82810460021483151715610fd857612740906124db8551918661236f565b50612706565b61274e612305565b508051516001810190818111610fd8576020830151811015612783575b6078602084519283010153805182116124b557505090565b8160011b82810460021483151715610fd8576127a5906124db8551918661236f565b5061276b565b906127b4612305565b508151516001810191828211610fd85760208401518210156127e7575b602084519283010153805182116124b557505090565b8260011b83810460021484151715610fd857612810906128098651918761236f565b50856128e0565b506127d1565b906128238251918361236f565b5061282c612305565b50805190612838612305565b506128468151831115612991565b825151926128548385611791565b9160209282848094015182116128c9575b51838151978201019682116128c1575b505001915b8181101561289b5760001991036101000a0190811990511690825116179052565b91926128b66128b06128bc9286518152611783565b94611783565b92611696565b61287a565b523880612875565b6128db6128d583612462565b82612816565b612865565b906128e9612305565b5080516128f4612305565b506129028251821115612991565b825151916129108284611791565b602091829182870151811161297a575b865183815197820101968211612972575b505001915b818110156129585760001991036101000a019081199051169082511617905290565b91926128b66128b061296d9286518152611783565b612936565b523880612931565b61298c61298682612462565b88612816565b612920565b1561027b57565b8151611dbd92919067ffffffffffffffff811690601782116129d0576129c89150604060ff8451921617906127ab565b505b516128e0565b5060ff81116129f5576129ef906129e783516125b2565b508251612d26565b506129ca565b61ffff8111612a14576129ef90612a0c835161254d565b508251612cbf565b63ffffffff8111612a35576129ef90612a2d83516124e8565b508251612c56565b6129ef90612a438351612478565b508251612be9565b8151611dbd92919067ffffffffffffffff81169060178211612a7b576129c89150606060ff8451921617906127ab565b5060ff8111612a92576129ef906129e78351612746565b61ffff8111612aa9576129ef90612a0c83516126e1565b63ffffffff8111612ac2576129ef90612a2d835161267c565b6129ef90612a438351612617565b805190612adb612305565b508151516001810190818111610fd8576020840151811015612b29575b609f6020809551928301015380518211612b21575b50500180519060018201809211610fd85752565b523880612b0d565b8160011b9382850460021483151715610fd857602081612b528297612451609f9551918461236f565b5095505050612af8565b805190612b67612305565b508151516001810190818111610fd8576020840151811015612bb6575b60ff6020809551928301015380518211612bae575b5050018051600019810191908211610fd85752565b523880612b99565b8160011b9382850460021483151715610fd857602081612bdf829761245160ff9551918461236f565b5095505050612b84565b90612bf2612305565b50815151806008019182600811610fd85760208401518311612c35575b60088451928301019067ffffffffffffffff19825116179052805182116124b557505090565b8260011b83810460021484151715610fd857612c519085612816565b612c0f565b90612c5f612305565b50815151806004019182600411610fd85760208401518311612c9e575b60048451928301019063ffffffff19825116179052805182116124b557505090565b8260011b83810460021484151715610fd857612cba9085612816565b612c7c565b90612cc8612305565b50815151806002019182600211610fd85760208401518311612d05575b60028451928301019061ffff19825116179052805182116124b557505090565b8260011b83810460021484151715610fd857612d219085612816565b612ce5565b90612d2f612305565b50815151806001019182600111610fd85760208401518311612d6b575b60018451928301019060ff19825116179052805182116124b557505090565b8260011b83810460021484151715610fd857612d879085612816565b612d4c565b90815167ffffffffffffffff81116102f057612db281612dad60055461069d565b6115f0565b602080601f8311600114612dee5750819293600092612de3575b50508160011b916000199060031b1c191617600555565b015190503880612dcc565b90601f19831694612e2160056000527f036b6384b5eca791c62761152d0c79bb0604c104a5fb6f4eb0703f3154bb3db090565b926000905b878210612e5e575050836001959610612e45575b505050811b01600555565b015160001960f88460031b161c19169055388080612e3a565b80600185968294968601518155019501930190612e26565b602081519101519060208110612e8a575090565b6000199060200360031b1b1690565b601c54680100000000000000008110156102f057612ebe600191828101601c5561064b565b929092612f915780519067ffffffffffffffff82116102f057612eeb82612ee5865461069d565b86611646565b60209081601f8411600114612f275750928293918392600094612f1c575b50501b916000199060031b1c1916179055565b015192503880612f09565b919083601f198116612f3e88600052602060002090565b946000905b88838310612f775750505010612f5e575b505050811b019055565b015160001960f88460031b161c19169055388080612f54565b858701518855909601959485019487935090810190612f43565b610687565b9091612fad6108ad9360408452604084019061085c565b91602081840391015261085c565b15612fc257565b606460405162461bcd60e51b815260206004820152601b60248201527f4572726f20616f207061676172206120696e64656e697a6163616f00000000006044820152fd5b601e54601a541115613044576107126000808080613032610be8610be86017546001600160a01b031690565b47905af161303e611953565b50612fbb565b60008080806001600160a01b0360165460081c1647905af1613064611953565b501561306c57565b608460405162461bcd60e51b815260206004820152602d60248201527f4572726f20616f207265746f726e6172206f732066756e646f7320706172612060448201527f6120696e73746974756963616f000000000000000000000000000000000000006064820152fdfea2646970667358221220525b9af37eb0db29a69ff6a33f34ecac6e51fbc58e18407371a2e65ab53d23fc64736f6c6343000813003360c0346100bc57601f61073a38819003918201601f19168301916001600160401b038311848410176100c1578084926060946040528339810103126100bc57610047816100d7565b906040610056602083016100d7565b9101516001600160601b03811692908390036100bc5760805260a052600180546001600160601b03191691909117905560405161064e90816100ec8239608051818181610114015281816101990152610373015260a0518181816101dc015261033b0152f35b600080fd5b634e487b7160e01b600052604160045260246000fd5b51906001600160a01b03821682036100bc5756fe60806040818152600436101561001457600080fd5b600091823560e01c90816301619d3d1461020057508063442b1278146101bd5780637d253aff1461017a578063b60d4288146100a95763bc61a4731461005957600080fd5b346100a557600319916020368401126100a2576004359267ffffffffffffffff84116100a5576101409084360301126100a2575061009b6020926004016102e6565b9051908152f35b80fd5b5080fd5b50346100a557816003193601126100a5576bffffffffffffffffffffffff60015416908051917f23b872dd0000000000000000000000000000000000000000000000000000000083523360048401523060248401526044830152602082606481866001600160a01b037f0000000000000000000000000000000000000000000000000000000000000000165af19081156101715750610146575080f35b6101669060203d811161016a575b61015e818361022a565b810190610262565b5080f35b503d610154565b513d84823e3d90fd5b50346100a557816003193601126100a557602090516001600160a01b037f0000000000000000000000000000000000000000000000000000000000000000168152f35b50346100a557816003193601126100a557602090516001600160a01b037f0000000000000000000000000000000000000000000000000000000000000000168152f35b8390346100a557816003193601126100a5576020906bffffffffffffffffffffffff600154168152f35b90601f8019910116810190811067ffffffffffffffff82111761024c57604052565b634e487b7160e01b600052604160045260246000fd5b9081602091031261027a5751801515810361027a5790565b600080fd5b9035601e198236030181121561027a57016020813591019167ffffffffffffffff821161027a57813603831361027a57565b908060209392818452848401376000828201840152601f01601f1916010190565b35906001600160a01b038216820361027a57565b90600091610120810135906bffffffffffffffffffffffff82168092036105ed5760408051917f095ea7b30000000000000000000000000000000000000000000000000000000083526001600160a01b0390817f00000000000000000000000000000000000000000000000000000000000000001680600486015285602486015260209485816044818c887f0000000000000000000000000000000000000000000000000000000000000000165af1801561060e576105f1575b508351957f3f678e11000000000000000000000000000000000000000000000000000000008752856004880152886103ee6103db858061027f565b61014060248c01526101648b01916102b1565b916104126103fe8987018761027f565b6023198c8703810160448e015295916102b1565b958061041f8988016102d2565b1660648b0152606086013563ffffffff81168091036105ed5760848b0152610449608087016102d2565b1660a48a015260a08501359060ff82168092036105e9576104d08a9687956104c06104b46104968e9c8a9860c48a015261048660c087018761027f565b90868b84030160e48c01526102b1565b6104a360e086018661027f565b90858a8403016101048b01526102b1565b9261010081019061027f565b91868403016101248701526102b1565b9061014483015203925af19283156105df5785936105ac575b50821561054f573385528482528420908154916801000000000000000083101561053b57600183018082558310156105275794839495815220015590565b602486634e487b7160e01b81526032600452fd5b602486634e487b7160e01b81526041600452fd5b6064925051907f08c379a00000000000000000000000000000000000000000000000000000000082526004820152601560248201527f6175746f2d617070726f76652064697361626c656400000000000000000000006044820152fd5b9092508181813d83116105d8575b6105c4818361022a565b810103126105d4575191386104e9565b8480fd5b503d6105ba565b81513d87823e3d90fd5b8280fd5b8380fd5b61060790863d881161016a5761015e818361022a565b50386103a0565b85513d8b823e3d90fdfea26469706673582212209ca455be61c45d9c7e515967f303b8ab4a822792fd7267d08664d38b1d82e42764736f6c63430008130033a264697066735822122084aa53aa1a5d5734b0769f388d98f927ce5c225ce7b23a82d1a680e3e9026bca64736f6c63430008130033",
  "linkReferences": {},
  "deployedLinkReferences": {}
}