{
  "_format": "hh-sol-artifact-1",
  "contractName": "Institution",
  "sourceName": "contracts/Institution.sol",
  "abi": [
    {
      "inputs": [
        {
          "internalType": "address",
          "name": "_owner",
          "type": "address"
        },
        {
          "internalType": "string[2][]",
          "name": "infoArray",
          "type": "string[2][]"
        }
      ],
      "stateMutability": "nonpayable",
      "type": "constructor"
    },
    {
      "inputs": [],
      "name": "NotOwner",
      "type": "error"
    },
    {
      "anonymous": false,
      "inputs": [
        {
          "indexed": false,
          "internalType": "address",
          "name": "insuranceContractAddress",
          "type": "address"
        }
      ],
      "name": "InsuranceContractCreated",
      "type": "event"
    },
    {
      "inputs": [
        {
          "internalType": "address",
          "name": "",
          "type": "address"
        }
      ],
      "name": "blacklist",
      "outputs": [
        {
          "internalType": "bool",
          "name": "",
          "type": "bool"
        }
      ],
      "stateMutability": "view",
      "type": "function"
    },
    {
      "inputs": [
        {
          "internalType": "address",
          "name": "_farmerAddr",
          "type": "address"
        }
      ],
      "name": "blacklistAddr",
      "outputs": [],
      "stateMutability": "nonpayable",
      "type": "function"
    },
    {
      "inputs": [],
      "name": "contractBalance",
      "outputs": [
        {
          "internalType": "uint256",
          "name": "",
          "type": "uint256"
        }
      ],
      "stateMutability": "view",
      "type": "function"
    },
    {
      "inputs": [
        {
          "internalType": "address",
          "name": "",
          "type": "address"
        },
        {
          "internalType": "uint256",
          "name": "",
          "type": "uint256"
        }
      ],
      "name": "contracts",
      "outputs": [
        {
          "internalType": "contract AutomatedFunctionsConsumer",
          "name": "",
          "type": "address"
        }
      ],
      "stateMutability": "view",
      "type": "function"
    },
    {
      "inputs": [
        {
          "internalType": "address",
          "name": "_deployer",
          "type": "address"
        },
        {
          "internalType": "address",
          "name": "_farmer",
          "type": "address"
        },
        {
          "internalType": "string",
          "name": "_farmName",
          "type": "string"
        },
        {
          "internalType": "uint256",
          "name": "_humidityLimit",
          "type": "uint256"
        },
        {
          "internalType": "uint256",
          "name": "_sampleMaxSize",
          "type": "uint256"
        },
        {
          "internalType": "uint256",
          "name": "_reparationValue",
          "type": "uint256"
        },
        {
          "internalType": "uint256",
          "name": "_updateInterval",
          "type": "uint256"
        },
        {
          "internalType": "address",
          "name": "router",
          "type": "address"
        },
        {
          "internalType": "address",
          "name": "_registry",
          "type": "address"
        },
        {
          "internalType": "address",
          "name": "_sepoliaLINKAddress",
          "type": "address"
        },
        {
          "internalType": "address",
          "name": "_sepoliaRegistrarAddress",
          "type": "address"
        },
        {
          "internalType": "uint32",
          "name": "_fulfillGasLimit",
          "type": "uint32"
        },
        {
          "internalType": "bytes32",
          "name": "_donID",
          "type": "bytes32"
        },
        {
          "internalType": "string",
          "name": "_metricJS",
          "type": "string"
        }
      ],
      "name": "createInsuranceContract",
      "outputs": [],
      "stateMutability": "nonpayable",
      "type": "function"
    },
    {
      "inputs": [
        {
          "internalType": "address",
          "name": "",
          "type": "address"
        }
      ],
      "name": "farmerExists",
      "outputs": [
        {
          "internalType": "bool",
          "name": "",
          "type": "bool"
        }
      ],
      "stateMutability": "view",
      "type": "function"
    },
    {
      "inputs": [
        {
          "internalType": "uint8",
          "name": "",
          "type": "uint8"
        },
        {
          "internalType": "uint256",
          "name": "",
          "type": "uint256"
        }
      ],
      "name": "farmers",
      "outputs": [
        {
          "internalType": "address",
          "name": "",
          "type": "address"
        }
      ],
      "stateMutability": "view",
      "type": "function"
    },
    {
      "inputs": [],
      "name": "getAllFarmers",
      "outputs": [
        {
          "internalType": "address[]",
          "name": "",
          "type": "address[]"
        }
      ],
      "stateMutability": "view",
      "type": "function"
    },
    {
      "inputs": [
        {
          "internalType": "address",
          "name": "_farmerAddress",
          "type": "address"
        }
      ],
      "name": "getAllInsuranceContracts",
      "outputs": [
        {
          "internalType": "contract AutomatedFunctionsConsumer[]",
          "name": "",
          "type": "address[]"
        }
      ],
      "stateMutability": "view",
      "type": "function"
    },
    {
      "inputs": [],
      "name": "im_owner",
      "outputs": [
        {
          "internalType": "address",
          "name": "",
          "type": "address"
        }
      ],
      "stateMutability": "view",
      "type": "function"
    },
    {
      "inputs": [
        {
          "internalType": "string",
          "name": "",
          "type": "string"
        }
      ],
      "name": "info",
      "outputs": [
        {
          "internalType": "string",
          "name": "",
          "type": "string"
        }
      ],
      "stateMutability": "view",
      "type": "function"
    },
    {
      "inputs": [
        {
          "internalType": "uint256",
          "name": "",
          "type": "uint256"
        }
      ],
      "name": "infoKeys",
      "outputs": [
        {
          "internalType": "string",
          "name": "",
          "type": "string"
        }
      ],
      "stateMutability": "view",
      "type": "function"
    },
    {
      "inputs": [],
      "name": "institutionName",
      "outputs": [
        {
          "internalType": "string",
          "name": "",
          "type": "string"
        }
      ],
      "stateMutability": "view",
      "type": "function"
    },
    {
      "inputs": [
        {
          "internalType": "string[2][]",
          "name": "infoArray",
          "type": "string[2][]"
        }
      ],
      "name": "registerInfo",
      "outputs": [],
      "stateMutability": "nonpayable",
      "type": "function"
    },
    {
      "inputs": [
        {
          "internalType": "address",
          "name": "",
          "type": "address"
        }
      ],
      "name": "whitelist",
      "outputs": [
        {
          "internalType": "bool",
          "name": "",
          "type": "bool"
        }
      ],
      "stateMutability": "view",
      "type": "function"
    },
    {
      "inputs": [
        {
          "internalType": "address",
          "name": "_farmerAddr",
          "type": "address"
        }
      ],
      "name": "whitelistAddr",
      "outputs": [],
      "stateMutability": "nonpayable",
      "type": "function"
    },
    {
      "inputs": [
        {
          "internalType": "uint256",
          "name": "amount",
          "type": "uint256"
        }
      ],
      "name": "withdraw",
      "outputs": [],
      "stateMutability": "nonpayable",
      "type": "function"
    },
    {
      "stateMutability": "payable",
      "type": "receive"
    }
  ],
  "bytecode": "0x60a060405234620002e157620059f3803803806200001d81620002fb565b9283396040828281010312620002e1578151906001600160a01b0382168203620002e1576020830151926001600160401b038411620002e157818101601f858301011215620002e15780840151936001600160401b038511620001a1578460051b9160206200008e818501620002fb565b809781520193808201602085858501010111620002e157602083830101945b60208585850101018610620001de57878760805260005b8151811015620001b7576200011b6020620000e0838562000346565b5101516200010b6020620000f5858762000346565b5151816040519382858094519384920162000321565b810160028152030190206200035b565b62000127818362000346565b5151600190815468010000000000000000811015620001a1578281018084558110156200018b5762000162926000526020600020016200035b565b60001981146200017557600101620000c4565b634e487b7160e01b600052601160045260246000fd5b634e487b7160e01b600052603260045260246000fd5b634e487b7160e01b600052604160045260246000fd5b6040516155499081620004aa8239608051818181610232015281816104850152610cf40152f35b85516001600160401b038111620002e157828401603f8287870101011215620002e15760408051919082016001600160401b03811183821017620002e65760405281848601606083898901010111620002e1576020828888010101905b606083898901010182106200025c57505050815260209586019501620000ad565b81516001600160401b038111620002e15783898901010190868801603f83011215620002e1576020820151906001600160401b038211620002e657620002ac601f8301601f1916602001620002fb565b828152888a0160408486010111620002e157620002d56020949385946040868501910162000321565b8152019101906200023b565b600080fd5b60246000634e487b7160e01b81526041600452fd5b6040519190601f01601f191682016001600160401b03811183821017620001a157604052565b60005b838110620003355750506000910152565b818101518382015260200162000324565b80518210156200018b5760209160051b010190565b81519091906001600160401b038111620001a157825460019283821691841c8215620004a0575b602092838210146200048a57601f81116200043c575b5081601f8411600114620003d55750928293918392600094620003c9575b50501b916000199060031b1c1916179055565b015192503880620003b6565b919083601f1981168760005284600020946000905b8883831062000421575050501062000407575b505050811b019055565b015160001960f88460031b161c19169055388080620003fd565b858701518855909601959485019487935090810190620003ea565b8560005282600020601f850160051c8101918486106200047f575b601f0160051c019085905b8281106200047257505062000398565b6000815501859062000462565b909150819062000457565b634e487b7160e01b600052602260045260246000fd5b607f166200038256fe608060405260043610156200001d575b36156200001b57600080fd5b005b60003560e01c8063080a57f91462000e8957806317fab0a01462000da85780632e1a7d4d1462000cd75780633a133e2c1462000be85780633f0f912d1462000b2b5780634224cf561462000ae8578063536954e414620009f557806366fbd01514620006c25780638a699f00146200066d5780638b7afe2e146200064f57806390c067cd14620005fb57806390f6d37814620004ec5780639b19251a14620004a9578063af6081de1462000463578063dfb50e641462000197578063ed23f8c314620001365763f9f92be4036200000f57346200013157602036600319011262000131576001600160a01b036200011362000ede565b166000526004602052602060ff604060002054166040519015158152f35b600080fd5b346200013157604036600319011262000131576200015362000ede565b602435906001600160a01b038091166000526005602052604060002080548310156200013157602092620001879162001059565b9190546040519260031b1c168152f35b3462000131576020366003190112620001315767ffffffffffffffff60043511620001315736602360043501121562000131576004356004013567ffffffffffffffff81116200044d578060051b9060405190620001f9602084018362000ef5565b81526020810160249236848260043501011162000131578360043501915b84826004350101831062000376575050506001600160a01b037f00000000000000000000000000000000000000000000000000000000000000001633036200034c5760005b81518110156200001b57620002b3602062000278838562001072565b510151620002a360206200028d858762001072565b5151816040519382858094519384920162000f82565b8101600281520301902062001087565b620002bf818362001072565b51516001805468010000000000000000811015620003375781620002e792820190556200100b565b9190916200032257620002fa9162001087565b60001981146200030d576001016200025c565b82634e487b7160e01b60005260116004526000fd5b84634e487b7160e01b60005260006004526000fd5b85634e487b7160e01b60005260416004526000fd5b60046040517f30cd7471000000000000000000000000000000000000000000000000000000008152fd5b823567ffffffffffffffff8111620001315736604382600435010112156200013157604051906040820182811067ffffffffffffffff821117620004385760405260043581016064019082368311620001315790889493929185826004350101905b838210620003f6575050509082525060209384019301905062000217565b9091929394955067ffffffffffffffff82351162000131576020809162000427368d86358860043501010162000f35565b8152019101899594939291620003d8565b87634e487b7160e01b60005260416004526000fd5b634e487b7160e01b600052604160045260246000fd5b3462000131576000366003190112620001315760206040516001600160a01b037f0000000000000000000000000000000000000000000000000000000000000000168152f35b346200013157602036600319011262000131576001600160a01b03620004ce62000ede565b166000526003602052602060ff604060002054166040519015158152f35b346200013157602080600319360112620001315760043590600191825481101562000131576200051c906200100b565b620005e5576040518093600090835493620005378562000fa7565b94858552868382169182600014620005c15750506001146200057e575b5050620005649250038362000ef5565b6200057a60405192828493845283019062000fe4565b0390f35b85925060005281600020906000915b858310620005a8575050620005649350820101858062000554565b805483890185015287945086939092019181016200058d565b92509350506200056494915060ff191682840152151560051b820101858062000554565b634e487b7160e01b600052600060045260246000fd5b3462000131576040366003190112620001315760043560ff8116809103620001315760243590600052600660205260406000209081548110156200013157620001876001600160a01b039160209362001059565b34620001315760003660031901126200013157602047604051908152f35b346200013157602036600319011262000131576001600160a01b036200069262000ede565b166000526003602052604060002060ff199081815416905560046020526001604060002091825416179055600080f35b3462000131576101c0806003193601126200013157620006e162000ede565b90602435916001600160a01b0390818416809403620001315767ffffffffffffffff9260443584811162000131576200071f90369060040162000f35565b9060e43592848416809403620001315761010435858116809103620001315761012435968688168098036200013157610144359087821680920362000131576101643563ffffffff811680910362000131576101a43582811162000131576200078d90369060040162000f35565b928b60005260209a60038c5260ff60406000205416156200098b576040519861436c90818b01958b8710908711176200044d578a998f8f8f620008449c620007eb968f620011a8903916895288015280604088015286019062000fe4565b956064356060860152608435608086015260a4359a8b60a087015260c43560c087015260e0860152610100850152610120840152610140830152610160820152610184356101808201526101a081840391015262000fe4565b0391f09283156200097f57806000526005835260406000209384546801000000000000000095868210156200044d578162000889916001620008ab9401815562001059565b94909216809483549060031b916001600160a01b03809116831b921b19161790565b9055806000526007835260ff6040600020541615620008f1575b7fa155a575082ecf596e5a22a44834be92670605d1d0832000305888ba02a462d98383604051908152a1005b600080526006835260406000208054948510156200044d576200095f6200094186849360017fa155a575082ecf596e5a22a44834be92670605d1d0832000305888ba02a462d99901815562001059565b819391549060031b916001600160a01b03809116831b921b19161790565b9055600052600782526040600020600160ff1982541617905583620008c5565b6040513d6000823e3d90fd5b60848c6040519062461bcd60e51b82526004820152602160248201527f456e64657265636f206e616f2065737461206e61206c69737461206272616e6360448201527f61000000000000000000000000000000000000000000000000000000000000006064820152fd5b34620001315760003660031901126200013157600660209081526040517f54cdd369e4e8a8515e52ca72ec816c2101831ad1f18bf44102ed171459c9b4f8805480835260009182528284019182917ff1ca0f4808f7f0c52440675894727c9e66265266cd1e1f5015f8b745ca2de5f3915b8682821062000aca57868662000a7f8288038362000ef5565b604051928392818401908285525180915260408401929160005b82811062000aa957505050500390f35b83516001600160a01b03168552869550938101939281019260010162000a99565b83546001600160a01b03168552909301926001928301920162000a66565b346200013157602036600319011262000131576001600160a01b0362000b0d62000ede565b166000526007602052602060ff604060002054166040519015158152f35b34620001315760208060031936011262000131576001600160a01b03908162000b5362000ede565b1660005260058152604060002060405191828183549182815201908193600052826000209060005b81811062000bd1575050508362000b9491038462000ef5565b60405192818401908285525180915260408401929160005b82811062000bba5785850386f35b835187168552938101939281019260010162000bac565b825488168452928401926001928301920162000b7b565b346200013157600036600319011262000131576040516000805462000c0d8162000fa7565b8084529060019081811690811562000cae575060011462000c51575b6200057a8462000c3c8186038262000ef5565b60405191829160208352602083019062000fe4565b600080805292507f290decd9548b62a8d60345a988386fc84ba6bc95484008f6362f93160ef3e5635b82841062000c9557505050810160200162000c3c8262000c29565b8054602085870181019190915290930192810162000c7a565b60ff191660208087019190915292151560051b8501909201925062000c3c915083905062000c29565b346200013157602036600319011262000131576001600160a01b037f0000000000000000000000000000000000000000000000000000000000000000168033036200034c57600080808093600435905af13d1562000da2573d62000d3b8162000f18565b9062000d4b604051928362000ef5565b8152600060203d92013e5b1562000d5e57005b606460405162461bcd60e51b815260206004820152601060248201527f5769746864726177206661696c65642e000000000000000000000000000000006044820152fd5b62000d56565b346200013157602080600319360112620001315760043567ffffffffffffffff811162000131578162000de462000df892369060040162000f35565b816040519382858094519384920162000f82565b810160028152030190209060405191826000825462000e178162000fa7565b93848452600191868382169182600014620005c157505060011462000e46575050620005649250038362000ef5565b85925060005281600020906000915b85831062000e70575050620005649350820101858062000554565b8054838901850152879450869390920191810162000e55565b346200013157602036600319011262000131576001600160a01b0362000eae62000ede565b166000526003602052604060002060ff199060018282541617905560046020526040600020908154169055600080f35b600435906001600160a01b03821682036200013157565b90601f8019910116810190811067ffffffffffffffff8211176200044d57604052565b67ffffffffffffffff81116200044d57601f01601f191660200190565b81601f82011215620001315780359062000f4f8262000f18565b9262000f5f604051948562000ef5565b828452602083830101116200013157816000926020809301838601378301015290565b60005b83811062000f965750506000910152565b818101518382015260200162000f85565b90600182811c9216801562000fd9575b602083101462000fc357565b634e487b7160e01b600052602260045260246000fd5b91607f169162000fb7565b9060209162000fff8151809281855285808601910162000f82565b601f01601f1916010190565b600154811015620010435760016000527fb10e2d527612073b26eecdfd717e6a320cf44b4afac2b0732d9fcbe2b7fa0cf60190600090565b634e487b7160e01b600052603260045260246000fd5b8054821015620010435760005260206000200190600090565b8051821015620010435760209160051b010190565b919091825167ffffffffffffffff81116200044d57620010a8825462000fa7565b601f81116200115a575b50602080601f8311600114620010f2575081929394600092620010e6575b50508160011b916000199060031b1c1916179055565b015190503880620010d0565b90601f198316958460005282600020926000905b888210620011415750508360019596971062001127575b505050811b019055565b015160001960f88460031b161c191690553880806200111d565b8060018596829496860151815501950193019062001106565b600083815260208120601f840160051c810192602085106200119c575b601f0160051c01915b82811062001190575050620010b2565b81815560010162001180565b90925082906200117756fe60c06040526200436c80380380620000178162000538565b92833981016101c082820312620005335762000033826200055e565b62000041602084016200055e565b60408401516001600160401b0381116200053357836200006391860162000573565b93606081015194608082015160a083015160c0840151916200008860e086016200055e565b986200009861010087016200055e565b94620000a861012088016200055e565b97620000b861014089016200055e565b996101608901519863ffffffff8a168a0362000533576101808101516101a0820151909d906001600160401b0381116200053357620000f8920162000573565b6001600160a01b039d8e166080529c811615620004ee57600080546001600160a01b03199081166001600160a01b039390931692831790915560028054909116909117905560118054610100600160a81b03191660089290921b610100600160a81b03169190911790558051906001600160401b038211620003e25760125490600182811c92168015620004e3575b6020831014620003c15781601f84931162000482575b50602090601f83116001146200040457600092620003f8575b50508160011b916000199060031b1c1916176012555b6014556015556013556005556001600160a01b0390811660a0526004805463ffffffff60401b191660409390931b6bffffffff00000000000000001692909217909155600680546001600160a01b031990811693831693909317905560078054909216921691909117905542600c55600b5580516001600160401b038111620003e257601754600181811c91168015620003d7575b6020821014620003c157601f811162000357575b50602091601f8211600114620002ed57918192600092620002e1575b50508160011b916000199060031b1c1916176017555b60ff1960115416601155604051613d669081620005e6823960805181818161075a0152610d6c015260a051818181610fbe015261142f0152f35b01519050388062000291565b601f19821692601760005260206000209160005b8581106200033e5750836001951062000324575b505050811b01601755620002a7565b015160001960f88460031b161c1916905538808062000315565b9192602060018192868501518155019401920162000301565b60176000527fc624b66cc0138b8fabc209247f72d758e1cf3343756d543badbf24212bed8c15601f830160051c81019160208410620003b6575b601f0160051c01905b818110620003a9575062000275565b600081556001016200039a565b909150819062000391565b634e487b7160e01b600052602260045260246000fd5b90607f169062000261565b634e487b7160e01b600052604160045260246000fd5b015190503880620001b6565b6012600090815293506000805160206200434c83398151915291905b601f198416851062000466576001945083601f198116106200044c575b505050811b01601255620001cc565b015160001960f88460031b161c191690553880806200043d565b8181015183556020948501946001909301929091019062000420565b60126000529091506000805160206200434c833981519152601f840160051c810160208510620004db575b90849392915b601f830160051c82018110620004cb5750506200019d565b60008155859450600101620004b3565b5080620004ad565b91607f169162000187565b60405162461bcd60e51b815260206004820152601860248201527f43616e6e6f7420736574206f776e657220746f207a65726f00000000000000006044820152606490fd5b600080fd5b6040519190601f01601f191682016001600160401b03811183821017620003e257604052565b51906001600160a01b03821682036200053357565b919080601f84011215620005335782516001600160401b038111620003e257602090620005a9601f8201601f1916830162000538565b92818452828287010111620005335760005b818110620005d157508260009394955001015290565b8581018301518482018401528201620005bb56fe608060405260043610156200001d575b36156200001b57600080fd5b005b60003560e01c806303e7810314620002a4578063089ea02e146200029e57806309c1ba2e14620002985780630ca7617514620002925780631243bcc3146200028c57806324b93e3e14620002865780632fc2a7b91462000280578063338cdca1146200027a578063381fc4b514620002745780633f678e11146200026e5780634305b96214620002685780634585e33b146200026257806348802b92146200025c57806348bd6f05146200025657806362ed90361462000250578063688ecfd1146200024a5780636baa48fe14620002445780636e04ff0d146200023e5780636e74336b146200023857806379ba509714620002325780637b103999146200022c5780638b7afe2e14620002265780638d7e6d2d14620002205780638da5cb5b146200021a578063a30971391462000214578063a3d3c0d2146200020e578063b1e217491462000208578063cff0888a1462000202578063d2aa789f14620001fc578063d5f3948814620001f6578063d811fcf014620001f0578063ea7b4f7714620001ea578063ebf14a5514620001e4578063f2fde38b14620001de578063f5ce1f2614620001d85763fd2c80ae036200000f5762001b18565b62001aa0565b62001951565b62001905565b620018c5565b62001899565b62001870565b62001850565b620017be565b6200179e565b6200177e565b6200175e565b62001735565b620014a7565b62001453565b6200140d565b62001329565b62001309565b6200128b565b62001262565b620011ad565b62001087565b62001067565b62001047565b62000ca9565b62000bc9565b62000a2d565b62000a0d565b62000958565b6200092f565b62000906565b620008dd565b620006fc565b62000668565b62000648565b62000551565b6000910312620002b657565b600080fd5b634e487b7160e01b600052600060045260246000fd5b90600182811c9216801562000303575b6020831014620002ed57565b634e487b7160e01b600052602260045260246000fd5b91607f1691620002e1565b634e487b7160e01b600052604160045260246000fd5b67ffffffffffffffff81116200033957604052565b6200030e565b6040810190811067ffffffffffffffff8211176200033957604052565b90601f8019910116810190811067ffffffffffffffff8211176200033957604052565b60405190600082601754916200039583620002d1565b80835292600190818116908115620004255750600114620003c2575b50620003c0925003836200035c565b565b6017600090815291507fc624b66cc0138b8fabc209247f72d758e1cf3343756d543badbf24212bed8c155b848310620004095750620003c0935050810160200138620003b1565b81935090816020925483858a01015201910190918592620003ed565b905060209250620003c094915060ff191682840152151560051b82010138620003b1565b90604051918260008254926200045f84620002d1565b908184526001948581169081600014620004d457506001146200048d575b5050620003c0925003836200035c565b9093915060005260209081600020936000915b818310620004bb575050620003c0935082010138806200047d565b85548884018501529485019487945091830191620004a0565b915050620003c094506020925060ff191682840152151560051b82010138806200047d565b919082519283825260005b84811062000526575050826000602080949584010152601f8019910116010190565b60208183018101518483018201520162000504565b9060206200054e928181520190620004f9565b90565b34620002b657600080600319360112620006455760405190806012546200057881620002d1565b80855291600191808316908115620006185750600114620005b8575b620005b485620005a7818703826200035c565b604051918291826200053b565b0390f35b9250601283527fbb8a6a4669ba250d26cd7a459eca9d215f8307e33aebe50379bc5a3617ec34445b828410620005ff575050508101602001620005a782620005b462000594565b80546020858701810191909152909301928101620005e0565b869550620005b496935060209250620005a794915060ff191682840152151560051b820101929362000594565b80fd5b34620002b6576000366003190112620002b6576020600c54604051908152f35b34620002b6576000366003190112620002b657602067ffffffffffffffff60045416604051908152f35b67ffffffffffffffff81116200033957601f01601f191660200190565b81601f82011215620002b657803590620006c98262000692565b92620006d960405194856200035c565b82845260208383010111620002b657816000926020809301838601378301015290565b34620002b6576060366003190112620002b65767ffffffffffffffff602435818111620002b65762000733903690600401620006af565b90604435908111620002b6576200074f903690600401620006af565b506001600160a01b037f0000000000000000000000000000000000000000000000000000000000000000163303620008b35760115460ff166200086a576200083c620007c6620007c07f5b3884247b2d692220a28e85c6452382a57294c08a90bce16e4978698181adb693620031be565b620032fc565b600080526016602052620007fb817f0263c2b778d062355049effc2dece97bc6547ff8a88a3258daa512061c2153dd620031e2565b60016000526016602052620005a77f4c4dc693d7db52f85fe052106f4b4b920e78e8ef37dee82878a60ab8585faf496200083542620032fc565b90620031e2565b0390a15b6004357f85e1543bf2f84fe80c6badbce3648c8539ad1df4d2b3d822938ca0538be727e6600080a2005b6020620008987f5f45b8e77291dfc632c52ceb5f6e5b643b77e04e0a683db296eaf8d71e41e16592620031be565b80601855604051908152a1620008ad620034cf565b62000840565b60046040517fc6829f83000000000000000000000000000000000000000000000000000000008152fd5b34620002b6576000366003190112620002b65760206001600160a01b0360065416604051908152f35b34620002b6576000366003190112620002b657602060045463ffffffff6040519160401c168152f35b34620002b6576000366003190112620002b65760206001600160a01b0360085416604051908152f35b34620002b65760008060031936011262000645576040519080600a546200097f81620002d1565b80855291600191808316908115620006185750600114620009ad57620005b485620005a7818703826200035c565b9250600a83527fc65a7bb8d6351c1cf70c95a316cc6a92839c986682d98bc35f958f4883f9d2a85b828410620009f4575050508101602001620005a782620005b462000594565b80546020858701810191909152909301928101620009d5565b34620002b6576000366003190112620002b6576020600e54604051908152f35b34620002b657600319602036820112620002b6576004359067ffffffffffffffff8211620002b657610140908236030112620002b657602062000ad860009262000a9c62000a9062000a906001600160a01b03600854166001600160a01b031690565b6001600160a01b031690565b906040519485809481937f24380aa800000000000000000000000000000000000000000000000000000000835230906004016004840162001cfa565b03925af1801562000b5d5762000af79160009162000b28575b50600955565b6009546040519081527f7623383a750b4166574a1b2dff61440ed0dfa3708cbe620c58339cca510d1af990602090a1005b62000b4e915060203d811162000b55575b62000b4581836200035c565b81019062001c82565b3862000af1565b503d62000b39565b62001c5c565b602080820190808352835180925260408301928160408460051b8301019501936000915b84831062000b985750505050505090565b909192939495848062000bb8600193603f198682030187528a51620004f9565b980193019301919493929062000b87565b34620002b6576000806003193601126200064557808052602060168152604082209182549067ffffffffffffffff82116200033957926040519262000c14818460051b01856200035c565b82845280840191855280852094915b83831062000c3b5760405180620005b4878262000b63565b600182819262000c4b8962000449565b81520196019201919462000c23565b906020600319830112620002b65760043567ffffffffffffffff92838211620002b65780602383011215620002b6578160040135938411620002b65760248483010111620002b6576024019190565b34620002b65762000cba3662000c5a565b505062000ccb600954151562001ea4565b62000cd542600c55565b62000ceb62000ce6600d5462001ef0565b600d55565b6015546000805260166020527f0263c2b778d062355049effc2dece97bc6547ff8a88a3258daa512061c2153dd54101562000eb75762000d5e6020600454600b5490604051938492839263230e93b160e11b845267ffffffffffffffff63ffffffff8260401c1691166004850162002081565b038160006001600160a01b037f0000000000000000000000000000000000000000000000000000000000000000165af16000918162000e92575b5062000e4b5750600162000dab62001fb8565b6308c379a01462000df2575b62000dbe57005b7f9c4bfa18304482256875c29fabb1a44a5ecd325f214ea17bab8f31e869faf4c862000ded620005a76200204c565b0390a1005b62000dfc62001fd7565b8062000e0a575b5062000db7565b90507f2ba61e3733e7ac99181c22307780f651ec8fd92fe661a84dfbe711710b2dc36c62000e41600092604051918291826200053b565b0390a13862000e03565b62000e5581600f55565b62000e6b62000e6660105462001ef0565b601055565b7f1131472297a800fee664d1d89cfa8f7676ff07189ecc53f80bbb5f4969099db8600080a2005b62000eaf91925060203d811162000b555762000b4581836200035c565b903862000d98565b60ff62000ec660115460ff1690565b1662000f855762000edf600160ff196011541617601155565b62000f4762000eed62001f2b565b62000f0262000efb6200037f565b82620025a3565b60008052601660205262000f4162000f3a7f0263c2b778d062355049effc2dece97bc6547ff8a88a3258daa512061c2153dd62001bf5565b82620025e5565b62002366565b6020600454600b549262000d5e604051948593849363230e93b160e11b855267ffffffffffffffff63ffffffff8360401c1692166004860162001f76565b6009546040518181527f8b7f9ec922f0b687c5e247d2d3d200d803f027d886a5a0bdf49c6747b9c9ec4c90602090a16001600160a01b037f000000000000000000000000000000000000000000000000000000000000000016803b15620002b6576040517fc804802200000000000000000000000000000000000000000000000000000000815260048101929092526000908290602490829084905af1801562000b5d576200103057005b80620010406200001b9262000324565b80620002aa565b34620002b6576000366003190112620002b6576020601054604051908152f35b34620002b6576000366003190112620002b6576020601354604051908152f35b34620002b657602080600319360112620002b65767ffffffffffffffff600435818111620002b657620010bf903690600401620006af565b9182519182116200033957620010e282620010dc600354620002d1565b62001b51565b80601f8311600114620011215750819260009262001115575b50508160011b916000199060031b1c191617600355600080f35b015190503880620010fb565b90601f198316936200115560036000527fc2575a0e9e593c00f959f8c92f12db2869c3395a3b0502d05e2516446f71f85b90565b926000905b8682106200119457505083600195106200117a575b505050811b01600355005b015160001960f88460031b161c191690553880806200116f565b806001859682949686015181550195019301906200115a565b34620002b65760008060031936011262000645576040519080600354620011d481620002d1565b808552916001918083169081156200061857506001146200120257620005b485620005a7818703826200035c565b9250600383527fc2575a0e9e593c00f959f8c92f12db2869c3395a3b0502d05e2516446f71f85b5b82841062001249575050508101602001620005a782620005b462000594565b805460208587018101919091529093019281016200122a565b34620002b6576000366003190112620002b65760206001600160a01b0360075416604051908152f35b34620002b6576200129c3662000c5a565b5050600c54420342811162001303576005541060405190815260206040818301528160609182519081604084015260005b828110620012ed5750506000828201840152601f01601f19168101030190f35b60808101518682018601528593508101620012cd565b62001e7e565b34620002b6576000366003190112620002b6576020600b54604051908152f35b34620002b65760008060031936011262000645576001600160a01b0380600154163303620013c95781546001600160a01b03166000805473ffffffffffffffffffffffffffffffffffffffff191633179055906200139f73ffffffffffffffffffffffffffffffffffffffff1960015416600155565b3391167f8be0079c531659141344cd1fd0a4f28419497f9722a3daafe3b4186f6b6457e08380a380f35b606460405162461bcd60e51b815260206004820152601660248201527f4d7573742062652070726f706f736564206f776e6572000000000000000000006044820152fd5b34620002b6576000366003190112620002b65760206040516001600160a01b037f0000000000000000000000000000000000000000000000000000000000000000168152f35b34620002b6576000366003190112620002b657602047604051908152f35b600435906bffffffffffffffffffffffff82168203620002b657565b35906bffffffffffffffffffffffff82168203620002b657565b34620002b6576020366003190112620002b657620014c462001471565b6006546001600160a01b031690620014e46007546001600160a01b031690565b91604051926107658085019185831067ffffffffffffffff8411176200033957859362001542938693620035cc87396001600160a01b039182168152911660208201526bffffffffffffffffffffffff909116604082015260600190565b0360009283f0801562000b5d576200161091620015846020926001600160a01b031673ffffffffffffffffffffffffffffffffffffffff196008541617600855565b6200159f62000a9062000a906006546001600160a01b031690565b620015b662000a906008546001600160a01b031690565b856040518096819582947f095ea7b3000000000000000000000000000000000000000000000000000000008452600484019092916bffffffffffffffffffffffff6020916001600160a01b03604085019616845216910152565b03925af1801562000b5d5762001700575b506200163962000a906008546001600160a01b031690565b803b15620016fc576040517f230244080000000000000000000000000000000000000000000000000000000081523060048201529082908290602490829084905af1801562000b5d57620016e5575b507f3583c1105fd29a46b4d92ceeaff8be03cba58a11cce44a3b7da77bbc3798edc4620016df620016c562000a906008546001600160a01b031690565b6040516001600160a01b0390911681529081906020820190565b0390a180f35b8062001040620016f59262000324565b3862001688565b5080fd5b620017259060203d81116200172d575b6200171c81836200035c565b81019062001c68565b503862001621565b503d62001710565b34620002b6576000366003190112620002b65760206001600160a01b0360005416604051908152f35b34620002b6576000366003190112620002b6576020601454604051908152f35b34620002b6576000366003190112620002b6576020600d54604051908152f35b34620002b6576000366003190112620002b6576020600f54604051908152f35b34620002b6576000806003193601126200064557600190818152602060168152604082209182549167ffffffffffffffff8311620003395760405193916200180d600585901b8301866200035c565b8385529182528082208185015b848410620018325760405180620005b4888262000b63565b86838192620018418562000449565b8152019201930192906200181a565b34620002b6576000366003190112620002b6576020600954604051908152f35b34620002b6576000366003190112620002b65760206001600160a01b0360025416604051908152f35b34620002b6576000366003190112620002b65760206001600160a01b0360115460081c16604051908152f35b34620002b6576020366003190112620002b65760043567ffffffffffffffff8116809103620002b65767ffffffffffffffff196004541617600455600080f35b34620002b6576000366003190112620002b6576020601554604051908152f35b600435906001600160a01b0382168203620002b657565b35906001600160a01b0382168203620002b657565b34620002b6576020366003190112620002b6576200196e62001925565b6001600160a01b0380600054169182330362001a18571690338214620019d4578173ffffffffffffffffffffffffffffffffffffffff1960015416176001557fed8889f560326eb138920d842192f0eb3dd22b4f139c87a2c57538e05bae1278600080a3005b606460405162461bcd60e51b815260206004820152601760248201527f43616e6e6f74207472616e7366657220746f2073656c660000000000000000006044820152fd5b606460405162461bcd60e51b815260206004820152601660248201527f4f6e6c792063616c6c61626c65206279206f776e6572000000000000000000006044820152fd5b359060ff82168203620002b657565b634e487b7160e01b600052603260045260246000fd5b805482101562001a9a5760005260206000200190600090565b62001a6b565b34620002b6576040366003190112620002b65760043560ff8116809103620002b6576024359060005260166020526040600020908154811015620002b65762001ae99162001a81565b62001b125762001afd620005b49162000449565b604051918291602083526020830190620004f9565b620002bb565b34620002b6576000366003190112620002b6576020600554604051908152f35b81811062001b44575050565b6000815560010162001b38565b90601f821162001b5f575050565b620003c09160036000527fc2575a0e9e593c00f959f8c92f12db2869c3395a3b0502d05e2516446f71f85b906020601f840160051c8301931062001bac575b601f0160051c019062001b38565b909150819062001b9e565b9190601f811162001bc757505050565b620003c0926000526020600020906020601f840160051c8301931062001bac57601f0160051c019062001b38565b90815467ffffffffffffffff8111620003395760405192602062001c1f818460051b01866200035c565b82855260009182528082208186015b84841062001c3d575050505050565b600183819262001c4d8562000449565b81520192019301929062001c2e565b6040513d6000823e3d90fd5b90816020910312620002b657518015158103620002b65790565b90816020910312620002b6575190565b9035601e1982360301811215620002b657016020813591019167ffffffffffffffff8211620002b6578136038313620002b657565b908060209392818452848401376000828201840152601f01601f1916010190565b359063ffffffff82168203620002b657565b92916020620003c0926040865262001e6e62001e5862001d3c62001e508962001d24868062001c92565b93906101409485604085015261018084019162001cc7565b9262001e0962001d6862001d538a8a018a62001c92565b603f1986890381016060880152979162001cc7565b62001d8a62001d7a60408b016200193c565b6001600160a01b03166080860152565b62001da962001d9c60608b0162001ce8565b63ffffffff1660a0860152565b62001dcb62001dbb60808b016200193c565b6001600160a01b031660c0860152565b62001de762001ddd60a08b0162001a5c565b60ff1660e0860152565b62001df660c08a018a62001c92565b8583038801610100968701529062001cc7565b938c62001e4062001e3662001e2260e08c018c62001c92565b610120999186868403018b87015262001cc7565b948a018a62001c92565b9390928286030191015262001cc7565b93016200148d565b6bffffffffffffffffffffffff16610160880152565b9401906001600160a01b03169052565b634e487b7160e01b600052601160045260246000fd5b601f198101919082116200130357565b1562001eac57565b606460405162461bcd60e51b815260206004820152601560248201527f55706b656570206e6f74207265676973746572656400000000000000000000006044820152fd5b90600182018092116200130357565b90602082018092116200130357565b60300190816030116200130357565b919082018092116200130357565b6040519060e0820182811067ffffffffffffffff8211176200033957604052606060c08360008152600060208201526000604082015282808201528260808201528260a08201520152565b9062001fa660809367ffffffffffffffff63ffffffff939897969816845260a0602085015260a0840190620004f9565b95600160408401521660608201520152565b60009060033d1162001fc657565b905060046000803e60005160e01c90565b600060443d106200054e57604051600319913d83016004833e815167ffffffffffffffff918282113d6024840111176200203b5781840194855193841162002043573d850101602084870101116200203b57506200054e929101602001906200035c565b949350505050565b50949350505050565b3d156200207c573d90620020608262000692565b916200207060405193846200035c565b82523d6000602084013e565b606090565b9067ffffffffffffffff909493929416815260209360a085830152600060035495620020ad87620002d1565b908160a08601526001978881169081600014620021485750600114620020e9575b5050604083019590955263ffffffff16606082015260800152565b600360009081529250877fc2575a0e9e593c00f959f8c92f12db2869c3395a3b0502d05e2516446f71f85b5b838510620021325750505050820160c0018163ffffffff620020ce565b805487860160c001529382019389910162002115565b60ff191660c08781019190915292151560051b8601909201925083915063ffffffff9050620020ce565b6040519062002181826200033f565b600c82527f636f64654c6f636174696f6e00000000000000000000000000000000000000006020830152565b634e487b7160e01b600052602160045260246000fd5b60031115620021ce57565b620021ad565b60405190620021e3826200033f565b600882527f6c616e67756167650000000000000000000000000000000000000000000000006020830152565b60011115620021ce57565b6040519062002229826200033f565b600682527f736f7572636500000000000000000000000000000000000000000000000000006020830152565b6040519062002264826200033f565b600482527f61726773000000000000000000000000000000000000000000000000000000006020830152565b6000198114620013035760010190565b805182101562001a9a5760209160051b010190565b60405190620022c4826200033f565b600f82527f736563726574734c6f636174696f6e00000000000000000000000000000000006020830152565b60405190620022ff826200033f565b600782527f73656372657473000000000000000000000000000000000000000000000000006020830152565b604051906200233a826200033f565b600982527f62797465734172677300000000000000000000000000000000000000000000006020830152565b6200237062002639565b90620023866200237f62002172565b8362002e2e565b620023a981516200239781620021c3565b620023a281620021c3565b83620026e9565b620023b76200237f620021d4565b620023d66040820151620023cb816200220f565b620023a2816200220f565b620023e46200237f6200221a565b620023f460608201518362002e2e565b60a081018051516200253a575b5060808101908151516200248c575b60c091500180515162002424575b50515190565b91620024336200237f6200232b565b6200243e8262002ec6565b60005b835180518210156200247657906200246a62002462826200247094620022a0565b518562002d5f565b62002290565b62002441565b50509150620024858162002f5e565b386200241e565b6020810180516200249d81620021c3565b620024a881620021c3565b15620025105760c092620024ed6200250a92620024cf620024c8620022b5565b8862002e2e565b51620024db81620021c3565b620024e681620021c3565b86620026e9565b62002502620024fb620022f0565b8662002e2e565b518462002d5f565b62002410565b60046040517fa80d31f7000000000000000000000000000000000000000000000000000000008152fd5b92620025506200254962002255565b8462002e2e565b6200255b8362002ec6565b60005b845180518210156200258d57906200246a6200257f826200258794620022a0565b518662002e2e565b6200255e565b505092506200259c8262002f5e565b3862002401565b815115620025bb576000808252604082015260600152565b60046040517f22ce3edd000000000000000000000000000000000000000000000000000000008152fd5b815115620025f35760a00152565b60046040517ffe936cb7000000000000000000000000000000000000000000000000000000008152fd5b604051906200262c826200033f565b6000602083606081520152565b60405162002647816200033f565b620026516200261d565b8082526020820160008152620026666200261d565b506101006020830152604051809252600082526101208201918210620002b6576000916040525290565b906200269b6200261d565b50601f811680620026cc575b5080602083015260405190818352600082528101602001908110620002b65760405290565b6020036020811162001303578101809111620013035738620026a7565b90815191620026f76200261d565b5082515160018101908181116200130357602085015181101562002758575b60c26020620003c096519283010153805182116200274f575b50506040519160208301526020825262002749826200033f565b62002d5f565b5238806200272f565b8160011b9482860460021483151715620013035760208162002790620003c0986200278860c29551918462002690565b508262002c90565b509650505062002716565b908160011b91808304600214901517156200130357565b620027bc6200261d565b50805151600181019081811162001303576020830151811015620027f8575b605b60208451928301015380518211620027f457505090565b5290565b8160011b82810460021483151715620013035762002826906200281e8551918662002690565b508462002c90565b50620027db565b620028376200261d565b508051516001810190818111620013035760208301518110156200286f575b605a60208451928301015380518211620027f457505090565b8160011b82810460021483151715620013035762002895906200281e8551918662002690565b5062002856565b620028a66200261d565b50805151600181019081811162001303576020830151811015620028de575b605960208451928301015380518211620027f457505090565b8160011b82810460021483151715620013035762002904906200281e8551918662002690565b50620028c5565b620029156200261d565b508051516001810190818111620013035760208301518110156200294d575b605860208451928301015380518211620027f457505090565b8160011b82810460021483151715620013035762002973906200281e8551918662002690565b5062002934565b620029846200261d565b50805151600181019081811162001303576020830151811015620029bc575b607b60208451928301015380518211620027f457505090565b8160011b828104600214831517156200130357620029e2906200281e8551918662002690565b50620029a3565b620029f36200261d565b5080515160018101908181116200130357602083015181101562002a2b575b607a60208451928301015380518211620027f457505090565b8160011b82810460021483151715620013035762002a51906200281e8551918662002690565b5062002a12565b62002a626200261d565b5080515160018101908181116200130357602083015181101562002a9a575b607960208451928301015380518211620027f457505090565b8160011b82810460021483151715620013035762002ac0906200281e8551918662002690565b5062002a81565b62002ad16200261d565b5080515160018101908181116200130357602083015181101562002b09575b607860208451928301015380518211620027f457505090565b8160011b82810460021483151715620013035762002b2f906200281e8551918662002690565b5062002af0565b9062002b416200261d565b5081515160018101918282116200130357602084015182101562002b77575b60208451928301015380518211620027f457505090565b8260011b83810460021484151715620013035762002ba59062002b9d8651918762002690565b508562002c90565b5062002b60565b9062002bbb8251918362002690565b5062002bc66200261d565b5080519062002bd46200261d565b5062002be4815183111562002d57565b8251519262002bf4838562001f1d565b91602092828480940151821162002c74575b518381519782010196821162002c6b575b505001915b8181101562002c3e5760001991036101000a0190811990511690825116179052565b919262002c5e62002c5762002c65928651815262001eff565b9462001eff565b9262001e94565b62002c1c565b52388062002c17565b62002c8a62002c83836200279b565b8262002bac565b62002c06565b9062002c9b6200261d565b50805162002ca86200261d565b5062002cb8825182111562002d57565b8251519162002cc8828462001f1d565b602091829182870151811162002d3b575b86518381519782010196821162002d32575b505001915b8181101562002d135760001991036101000a019081199051169082511617905290565b919262002c5e62002c5762002d2c928651815262001eff565b62002cf0565b52388062002ceb565b62002d5162002d4a826200279b565b8862002bac565b62002cd9565b15620002b657565b815162002d9c92919067ffffffffffffffff8116906017821162002d9f5762002d939150604060ff84519216179062002b36565b505b5162002c90565b50565b5060ff811162002dca5762002dc39062002dba83516200290b565b5082516200314f565b5062002d95565b61ffff811162002dee5762002dc39062002de583516200289c565b508251620030df565b63ffffffff811162002e145762002dc39062002e0b83516200282d565b5082516200306d565b62002dc39062002e258351620027b2565b50825162002ff7565b815162002d9c92919067ffffffffffffffff8116906017821162002e625762002d939150606060ff84519216179062002b36565b5060ff811162002e7d5762002dc39062002dba835162002ac7565b61ffff811162002e985762002dc39062002de5835162002a58565b63ffffffff811162002eb55762002dc39062002e0b8351620029e9565b62002dc39062002e2583516200297a565b80519062002ed36200261d565b5081515160018101908181116200130357602084015181101562002f26575b609f602080955192830101538051821162002f1d575b50500180519060018201809211620013035752565b52388062002f08565b8160011b9382850460021483151715620013035760208162002f53829762002788609f9551918462002690565b509550505062002ef2565b80519062002f6b6200261d565b5081515160018101908181116200130357602084015181101562002fbf575b60ff602080955192830101538051821162002fb6575b5050018051600019810191908211620013035752565b52388062002fa0565b8160011b9382850460021483151715620013035760208162002fec82976200278860ff9551918462002690565b509550505062002f8a565b90620030026200261d565b5081515180600801918260081162001303576020840151831162003048575b60088451928301019067ffffffffffffffff1982511617905280518211620027f457505090565b8260011b83810460021484151715620013035762003067908562002bac565b62003021565b90620030786200261d565b50815151806004019182600411620013035760208401518311620030ba575b60048451928301019063ffffffff1982511617905280518211620027f457505090565b8260011b838104600214841517156200130357620030d9908562002bac565b62003097565b90620030ea6200261d565b508151518060020191826002116200130357602084015183116200312a575b60028451928301019061ffff1982511617905280518211620027f457505090565b8260011b83810460021484151715620013035762003149908562002bac565b62003109565b906200315a6200261d565b5081515180600101918260011162001303576020840151831162003199575b60018451928301019060ff1982511617905280518211620027f457505090565b8260011b838104600214841517156200130357620031b8908562002bac565b62003179565b602081519101519060208110620031d3575090565b6000199060200360031b1b1690565b80546801000000000000000081101562000339576200320990600192838201815562001a81565b92909262001b125780519067ffffffffffffffff821162000339576200323c82620032358654620002d1565b8662001bb7565b60209081601f84116001146200327b57509282939183926000946200326f575b50501b916000199060031b1c1916179055565b0151925038806200325c565b919083601f1981166200329388600052602060002090565b946000905b88838310620032cf5750505010620032b5575b505050811b019055565b015160001960f88460031b161c19169055388080620032ab565b85870151885590960195948501948793509081019062003298565b90815181101562001a9a570160200190565b8015620033d557806000908282935b620033be57506200331c8362000692565b926200332c60405194856200035c565b80845281601f196200333e8362000692565b013660208701375b620033515750505090565b600019810190811162001303578091600a91620033b4620033aa620033826200337c86860662001f0e565b60ff1690565b60f81b7fff000000000000000000000000000000000000000000000000000000000000001690565b861a9187620032ea565b5304908162003346565b92620033cc600a9162002290565b9304806200330b565b50604051620033e4816200033f565b600181527f3000000000000000000000000000000000000000000000000000000000000000602082015290565b156200341957565b608460405162461bcd60e51b815260206004820152602d60248201527f4572726f20616f207265746f726e6172206f732066756e646f7320706172612060448201527f6120696e73746974756963616f000000000000000000000000000000000000006064820152fd5b156200348b57565b606460405162461bcd60e51b815260206004820152601b60248201527f4572726f20616f207061676172206120696e64656e697a6163616f00000000006044820152fd5b60185460145411156200355a576200351960008080806200350462000a9062000a906011546001600160a01b039060081c1690565b47905af1620035126200204c565b5062003483565b7fb42dbb74b29856930805877a4e3c62f2d7191b2c872bba1d7f7b2630334dc13562003555620016c56011546001600160a01b039060081c1690565b0390a1565b6200359360008080806200357e62000a9062000a906002546001600160a01b031690565b47905af16200358c6200204c565b5062003411565b7fb42dbb74b29856930805877a4e3c62f2d7191b2c872bba1d7f7b2630334dc13562003555620016c56002546001600160a01b03169056fe60c0346100ba57601f61076538819003918201601f19168301916001600160401b038311848410176100bf578084926060946040528339810103126100ba57610047816100d5565b906040610056602083016100d5565b9101516001600160601b03811692908390036100ba5760805260a052600180546001600160601b03191691909117905560405161067b90816100ea82396080518181816077015281816101c701526103a3015260a05181818160be015261036a0152f35b600080fd5b634e487b7160e01b600052604160045260246000fd5b51906001600160a01b03821682036100ba5756fe60806040818152600436101561001457600080fd5b600091823560e01c90816301619d3d1461022d57508063230244081461014a57806324380aa8146100e2578063442b12781461009f57637d253aff1461005957600080fd5b3461009b578160031936011261009b57602090516001600160a01b037f0000000000000000000000000000000000000000000000000000000000000000168152f35b5080fd5b503461009b578160031936011261009b57602090516001600160a01b037f0000000000000000000000000000000000000000000000000000000000000000168152f35b503461009b576003198181360112610142576004359067ffffffffffffffff82116101465761014090823603011261014257602435926001600160a01b038416840361013f575060209261013891600401610313565b9051908152f35b80fd5b8280fd5b8380fd5b503461009b57602036600319011261009b57600435906001600160a01b03918281168091036101465760209060646bffffffffffffffffffffffff600154169186855196879485937f23b872dd000000000000000000000000000000000000000000000000000000008552600485015230602485015260448401527f0000000000000000000000000000000000000000000000000000000000000000165af190811561022457506101f9575080f35b6102199060203d811161021d575b6102118183610270565b8101906102a8565b5080f35b503d610207565b513d84823e3d90fd5b83903461009b578160031936011261009b576020906bffffffffffffffffffffffff600154168152f35b35906001600160a01b038216820361026b57565b600080fd5b90601f8019910116810190811067ffffffffffffffff82111761029257604052565b634e487b7160e01b600052604160045260246000fd5b9081602091031261026b5751801515810361026b5790565b9035601e198236030181121561026b57016020813591019167ffffffffffffffff821161026b57813603831361026b57565b908060209392818452848401376000828201840152601f01601f1916010190565b9190916000926101208201356bffffffffffffffffffffffff8116809103610641576040908151927f095ea7b30000000000000000000000000000000000000000000000000000000084526001600160a01b0391827f0000000000000000000000000000000000000000000000000000000000000000169586600487015281602487015260209586816044818d897f0000000000000000000000000000000000000000000000000000000000000000165af180156106375761061a575b508451967f3f678e1100000000000000000000000000000000000000000000000000000000885286600489015261041d61040a83806102c0565b61014060248c01526101648b01916102f2565b8a61044161042d8a8601866102c0565b6023198d8603810160448f015294916102f2565b948761044e8a8701610257565b1660648c0152606085013563ffffffff81168091036101425760848c01528761047960808701610257565b1660a48c015260a08501359060ff8216809203610142576105018c9687956104f16104e58f9b6104c7908a9860c48a01526104b760c08701876102c0565b90868b84030160e48c01526102f2565b6104d460e08601866102c0565b90858a8403016101048b01526102f2565b926101008101906102c0565b91868403016101248701526102f2565b9061014483015203925af19485156106105787956105dd575b508415610580571685528482528420908154916801000000000000000083101561056c57600183018082558310156105585794839495815220015590565b602486634e487b7160e01b81526032600452fd5b602486634e487b7160e01b81526041600452fd5b6064848451907f08c379a00000000000000000000000000000000000000000000000000000000082526004820152601560248201527f6175746f2d617070726f76652064697361626c656400000000000000000000006044820152fd5b9094508381813d8311610609575b6105f58183610270565b810103126106055751933861051a565b8680fd5b503d6105eb565b83513d89823e3d90fd5b61063090873d891161021d576102118183610270565b50386103d0565b86513d8c823e3d90fd5b8480fdfea2646970667358221220b5d5e549faa0f06e6b4c0d541d8329af501ee63625d5b872cb2297c6dbd1556d64736f6c63430008130033a2646970667358221220462cedc0977cd28b9a576e1c6f4e4a09aca5588bf6ddea972eb7592817e6fc4e64736f6c63430008130033bb8a6a4669ba250d26cd7a459eca9d215f8307e33aebe50379bc5a3617ec3444a26469706673582212203e69f4e4ea752be10d0d518c9afd0c82a67db385c7786dfa76b0df2b54b7428a64736f6c63430008130033",
  "linkReferences": {},
  "deployedLinkReferences": {}
}