{
  "_format": "hh-sol-artifact-1",
  "contractName": "AutomatedFunctionsConsumer",
  "sourceName": "contracts/AutomatedFunctionsConsumer.sol",
  "abi": [
    {
      "inputs": [
        {
          "internalType": "address",
          "name": "_deployer",
          "type": "address"
        },
        {
          "internalType": "address",
          "name": "_farmer",
          "type": "address"
        },
        {
          "internalType": "uint256",
          "name": "_humidityLimit",
          "type": "uint256"
        },
        {
          "internalType": "uint256",
          "name": "_sampleMaxSize",
          "type": "uint256"
        },
        {
          "internalType": "uint256",
          "name": "_reparationValue",
          "type": "uint256"
        },
        {
          "internalType": "uint256",
          "name": "_updateInterval",
          "type": "uint256"
        },
        {
          "internalType": "address",
          "name": "router",
          "type": "address"
        },
        {
          "internalType": "uint64",
          "name": "_subscriptionId",
          "type": "uint64"
        },
        {
          "internalType": "address",
          "name": "_registry",
          "type": "address"
        },
        {
          "internalType": "address",
          "name": "_sepoliaLINKAddress",
          "type": "address"
        },
        {
          "internalType": "address",
          "name": "_sepoliaRegistrarAddress",
          "type": "address"
        },
        {
          "internalType": "uint32",
          "name": "_fulfillGasLimit",
          "type": "uint32"
        },
        {
          "internalType": "bytes32",
          "name": "_donID",
          "type": "bytes32"
        },
        {
          "internalType": "bytes",
          "name": "_requestCBOR",
          "type": "bytes"
        },
        {
          "internalType": "string",
          "name": "_computationJS",
          "type": "string"
        }
      ],
      "stateMutability": "payable",
      "type": "constructor"
    },
    {
      "inputs": [],
      "name": "EmptyArgs",
      "type": "error"
    },
    {
      "inputs": [],
      "name": "EmptySource",
      "type": "error"
    },
    {
      "inputs": [],
      "name": "NoInlineSecrets",
      "type": "error"
    },
    {
      "inputs": [
        {
          "internalType": "address",
          "name": "caller",
          "type": "address"
        },
        {
          "internalType": "address",
          "name": "owner",
          "type": "address"
        },
        {
          "internalType": "address",
          "name": "automationRegistry",
          "type": "address"
        }
      ],
      "name": "NotAllowedCaller",
      "type": "error"
    },
    {
      "inputs": [],
      "name": "OnlyRouterCanFulfill",
      "type": "error"
    },
    {
      "inputs": [
        {
          "internalType": "bytes32",
          "name": "requestId",
          "type": "bytes32"
        }
      ],
      "name": "UnexpectedRequestID",
      "type": "error"
    },
    {
      "anonymous": false,
      "inputs": [
        {
          "indexed": false,
          "internalType": "uint96",
          "name": "amountRetrieved",
          "type": "uint96"
        }
      ],
      "name": "LINKsRetrieved",
      "type": "event"
    },
    {
      "anonymous": false,
      "inputs": [
        {
          "indexed": true,
          "internalType": "bytes32",
          "name": "requestId",
          "type": "bytes32"
        },
        {
          "indexed": false,
          "internalType": "bytes",
          "name": "result",
          "type": "bytes"
        },
        {
          "indexed": false,
          "internalType": "bytes",
          "name": "err",
          "type": "bytes"
        }
      ],
      "name": "OCRResponse",
      "type": "event"
    },
    {
      "anonymous": false,
      "inputs": [
        {
          "indexed": true,
          "internalType": "address",
          "name": "from",
          "type": "address"
        },
        {
          "indexed": true,
          "internalType": "address",
          "name": "to",
          "type": "address"
        }
      ],
      "name": "OwnershipTransferRequested",
      "type": "event"
    },
    {
      "anonymous": false,
      "inputs": [
        {
          "indexed": true,
          "internalType": "address",
          "name": "from",
          "type": "address"
        },
        {
          "indexed": true,
          "internalType": "address",
          "name": "to",
          "type": "address"
        }
      ],
      "name": "OwnershipTransferred",
      "type": "event"
    },
    {
      "anonymous": false,
      "inputs": [
        {
          "indexed": true,
          "internalType": "bytes32",
          "name": "id",
          "type": "bytes32"
        }
      ],
      "name": "RequestFulfilled",
      "type": "event"
    },
    {
      "anonymous": false,
      "inputs": [
        {
          "indexed": false,
          "internalType": "string",
          "name": "reason",
          "type": "string"
        }
      ],
      "name": "RequestRevertedWithErrorMsg",
      "type": "event"
    },
    {
      "anonymous": false,
      "inputs": [
        {
          "indexed": false,
          "internalType": "bytes",
          "name": "data",
          "type": "bytes"
        }
      ],
      "name": "RequestRevertedWithoutErrorMsg",
      "type": "event"
    },
    {
      "anonymous": false,
      "inputs": [
        {
          "indexed": true,
          "internalType": "bytes32",
          "name": "id",
          "type": "bytes32"
        }
      ],
      "name": "RequestSent",
      "type": "event"
    },
    {
      "anonymous": false,
      "inputs": [
        {
          "indexed": true,
          "internalType": "bytes32",
          "name": "requestId",
          "type": "bytes32"
        },
        {
          "indexed": false,
          "internalType": "bytes",
          "name": "response",
          "type": "bytes"
        },
        {
          "indexed": false,
          "internalType": "bytes",
          "name": "err",
          "type": "bytes"
        }
      ],
      "name": "Response",
      "type": "event"
    },
    {
      "anonymous": false,
      "inputs": [
        {
          "indexed": false,
          "internalType": "string",
          "name": "responseAsString",
          "type": "string"
        }
      ],
      "name": "responseString",
      "type": "event"
    },
    {
      "anonymous": false,
      "inputs": [
        {
          "indexed": false,
          "internalType": "address",
          "name": "upkeepAddress",
          "type": "address"
        }
      ],
      "name": "upkeepCreated",
      "type": "event"
    },
    {
      "anonymous": false,
      "inputs": [
        {
          "indexed": false,
          "internalType": "uint256",
          "name": "upkeepId",
          "type": "uint256"
        }
      ],
      "name": "upkeepRegistered",
      "type": "event"
    },
    {
      "inputs": [],
      "name": "acceptOwnership",
      "outputs": [],
      "stateMutability": "nonpayable",
      "type": "function"
    },
    {
      "inputs": [
        {
          "internalType": "uint96",
          "name": "amount",
          "type": "uint96"
        }
      ],
      "name": "approveLINK",
      "outputs": [],
      "stateMutability": "nonpayable",
      "type": "function"
    },
    {
      "inputs": [],
      "name": "c_upkeep",
      "outputs": [
        {
          "internalType": "contract Upkeep",
          "name": "",
          "type": "address"
        }
      ],
      "stateMutability": "view",
      "type": "function"
    },
    {
      "inputs": [
        {
          "internalType": "bytes",
          "name": "",
          "type": "bytes"
        }
      ],
      "name": "checkUpkeep",
      "outputs": [
        {
          "internalType": "bool",
          "name": "upkeepNeeded",
          "type": "bool"
        },
        {
          "internalType": "bytes",
          "name": "performData",
          "type": "bytes"
        }
      ],
      "stateMutability": "view",
      "type": "function"
    },
    {
      "inputs": [],
      "name": "contractBalance",
      "outputs": [
        {
          "internalType": "uint256",
          "name": "",
          "type": "uint256"
        }
      ],
      "stateMutability": "view",
      "type": "function"
    },
    {
      "inputs": [
        {
          "internalType": "uint96",
          "name": "upkeepFundAmount",
          "type": "uint96"
        }
      ],
      "name": "createUpkeep",
      "outputs": [],
      "stateMutability": "nonpayable",
      "type": "function"
    },
    {
      "inputs": [],
      "name": "deployer",
      "outputs": [
        {
          "internalType": "address",
          "name": "",
          "type": "address"
        }
      ],
      "stateMutability": "view",
      "type": "function"
    },
    {
      "inputs": [],
      "name": "donID",
      "outputs": [
        {
          "internalType": "bytes32",
          "name": "",
          "type": "bytes32"
        }
      ],
      "stateMutability": "view",
      "type": "function"
    },
    {
      "inputs": [],
      "name": "farmer",
      "outputs": [
        {
          "internalType": "address",
          "name": "",
          "type": "address"
        }
      ],
      "stateMutability": "view",
      "type": "function"
    },
    {
      "inputs": [],
      "name": "fulfillGasLimit",
      "outputs": [
        {
          "internalType": "uint32",
          "name": "",
          "type": "uint32"
        }
      ],
      "stateMutability": "view",
      "type": "function"
    },
    {
      "inputs": [],
      "name": "gasLimit",
      "outputs": [
        {
          "internalType": "uint32",
          "name": "",
          "type": "uint32"
        }
      ],
      "stateMutability": "view",
      "type": "function"
    },
    {
      "inputs": [
        {
          "internalType": "bytes32",
          "name": "requestId",
          "type": "bytes32"
        },
        {
          "internalType": "bytes",
          "name": "response",
          "type": "bytes"
        },
        {
          "internalType": "bytes",
          "name": "err",
          "type": "bytes"
        }
      ],
      "name": "handleOracleFulfillment",
      "outputs": [],
      "stateMutability": "nonpayable",
      "type": "function"
    },
    {
      "inputs": [],
      "name": "humidityLimit",
      "outputs": [
        {
          "internalType": "uint256",
          "name": "",
          "type": "uint256"
        }
      ],
      "stateMutability": "view",
      "type": "function"
    },
    {
      "inputs": [],
      "name": "lastUpkeepTimeStamp",
      "outputs": [
        {
          "internalType": "uint256",
          "name": "",
          "type": "uint256"
        }
      ],
      "stateMutability": "view",
      "type": "function"
    },
    {
      "inputs": [],
      "name": "latestError",
      "outputs": [
        {
          "internalType": "bytes",
          "name": "",
          "type": "bytes"
        }
      ],
      "stateMutability": "view",
      "type": "function"
    },
    {
      "inputs": [],
      "name": "latestRequestId",
      "outputs": [
        {
          "internalType": "bytes32",
          "name": "",
          "type": "bytes32"
        }
      ],
      "stateMutability": "view",
      "type": "function"
    },
    {
      "inputs": [],
      "name": "latestResponse",
      "outputs": [
        {
          "internalType": "bytes",
          "name": "",
          "type": "bytes"
        }
      ],
      "stateMutability": "view",
      "type": "function"
    },
    {
      "inputs": [],
      "name": "owner",
      "outputs": [
        {
          "internalType": "address",
          "name": "",
          "type": "address"
        }
      ],
      "stateMutability": "view",
      "type": "function"
    },
    {
      "inputs": [
        {
          "internalType": "bytes",
          "name": "",
          "type": "bytes"
        }
      ],
      "name": "performUpkeep",
      "outputs": [],
      "stateMutability": "nonpayable",
      "type": "function"
    },
    {
      "inputs": [
        {
          "components": [
            {
              "internalType": "string",
              "name": "name",
              "type": "string"
            },
            {
              "internalType": "bytes",
              "name": "encryptedEmail",
              "type": "bytes"
            },
            {
              "internalType": "address",
              "name": "upkeepContract",
              "type": "address"
            },
            {
              "internalType": "uint32",
              "name": "gasLimit",
              "type": "uint32"
            },
            {
              "internalType": "address",
              "name": "adminAddress",
              "type": "address"
            },
            {
              "internalType": "uint8",
              "name": "triggerType",
              "type": "uint8"
            },
            {
              "internalType": "bytes",
              "name": "checkData",
              "type": "bytes"
            },
            {
              "internalType": "bytes",
              "name": "triggerConfig",
              "type": "bytes"
            },
            {
              "internalType": "bytes",
              "name": "offchainConfig",
              "type": "bytes"
            },
            {
              "internalType": "uint96",
              "name": "amount",
              "type": "uint96"
            }
          ],
          "internalType": "struct RegistrationParams",
          "name": "params",
          "type": "tuple"
        }
      ],
      "name": "registerUpkeep",
      "outputs": [],
      "stateMutability": "nonpayable",
      "type": "function"
    },
    {
      "inputs": [],
      "name": "registry",
      "outputs": [
        {
          "internalType": "contract IAutomationRegistryConsumer",
          "name": "",
          "type": "address"
        }
      ],
      "stateMutability": "view",
      "type": "function"
    },
    {
      "inputs": [],
      "name": "reparationValue",
      "outputs": [
        {
          "internalType": "uint256",
          "name": "",
          "type": "uint256"
        }
      ],
      "stateMutability": "view",
      "type": "function"
    },
    {
      "inputs": [],
      "name": "request",
      "outputs": [
        {
          "internalType": "bytes",
          "name": "",
          "type": "bytes"
        }
      ],
      "stateMutability": "view",
      "type": "function"
    },
    {
      "inputs": [],
      "name": "requestCBOR",
      "outputs": [
        {
          "internalType": "bytes",
          "name": "",
          "type": "bytes"
        }
      ],
      "stateMutability": "view",
      "type": "function"
    },
    {
      "inputs": [],
      "name": "responseCounter",
      "outputs": [
        {
          "internalType": "uint256",
          "name": "",
          "type": "uint256"
        }
      ],
      "stateMutability": "view",
      "type": "function"
    },
    {
      "inputs": [],
      "name": "s_lastError",
      "outputs": [
        {
          "internalType": "bytes",
          "name": "",
          "type": "bytes"
        }
      ],
      "stateMutability": "view",
      "type": "function"
    },
    {
      "inputs": [],
      "name": "s_lastRequestId",
      "outputs": [
        {
          "internalType": "bytes32",
          "name": "",
          "type": "bytes32"
        }
      ],
      "stateMutability": "view",
      "type": "function"
    },
    {
      "inputs": [],
      "name": "s_lastResponse",
      "outputs": [
        {
          "internalType": "bytes",
          "name": "",
          "type": "bytes"
        }
      ],
      "stateMutability": "view",
      "type": "function"
    },
    {
      "inputs": [],
      "name": "s_requestCounter",
      "outputs": [
        {
          "internalType": "uint256",
          "name": "",
          "type": "uint256"
        }
      ],
      "stateMutability": "view",
      "type": "function"
    },
    {
      "inputs": [],
      "name": "s_responseCounter",
      "outputs": [
        {
          "internalType": "uint256",
          "name": "",
          "type": "uint256"
        }
      ],
      "stateMutability": "view",
      "type": "function"
    },
    {
      "inputs": [],
      "name": "s_upkeepCounter",
      "outputs": [
        {
          "internalType": "uint256",
          "name": "",
          "type": "uint256"
        }
      ],
      "stateMutability": "view",
      "type": "function"
    },
    {
      "inputs": [],
      "name": "sampleMaxSize",
      "outputs": [
        {
          "internalType": "uint256",
          "name": "",
          "type": "uint256"
        }
      ],
      "stateMutability": "view",
      "type": "function"
    },
    {
      "inputs": [
        {
          "internalType": "uint256",
          "name": "",
          "type": "uint256"
        }
      ],
      "name": "sampleStorage",
      "outputs": [
        {
          "internalType": "string",
          "name": "",
          "type": "string"
        }
      ],
      "stateMutability": "view",
      "type": "function"
    },
    {
      "inputs": [],
      "name": "sepoliaLINKAddress",
      "outputs": [
        {
          "internalType": "address",
          "name": "",
          "type": "address"
        }
      ],
      "stateMutability": "view",
      "type": "function"
    },
    {
      "inputs": [],
      "name": "sepoliaRegistrarAddress",
      "outputs": [
        {
          "internalType": "address",
          "name": "",
          "type": "address"
        }
      ],
      "stateMutability": "view",
      "type": "function"
    },
    {
      "inputs": [],
      "name": "subscriptionId",
      "outputs": [
        {
          "internalType": "uint64",
          "name": "",
          "type": "uint64"
        }
      ],
      "stateMutability": "view",
      "type": "function"
    },
    {
      "inputs": [
        {
          "internalType": "address",
          "name": "to",
          "type": "address"
        }
      ],
      "name": "transferOwnership",
      "outputs": [],
      "stateMutability": "nonpayable",
      "type": "function"
    },
    {
      "inputs": [],
      "name": "updateInterval",
      "outputs": [
        {
          "internalType": "uint256",
          "name": "",
          "type": "uint256"
        }
      ],
      "stateMutability": "view",
      "type": "function"
    },
    {
      "inputs": [],
      "name": "upkeepCounter",
      "outputs": [
        {
          "internalType": "uint256",
          "name": "",
          "type": "uint256"
        }
      ],
      "stateMutability": "view",
      "type": "function"
    },
    {
      "inputs": [],
      "name": "upkeepId",
      "outputs": [
        {
          "internalType": "uint256",
          "name": "",
          "type": "uint256"
        }
      ],
      "stateMutability": "view",
      "type": "function"
    },
    {
      "stateMutability": "payable",
      "type": "receive"
    }
  ],
  "bytecode": "0x60c0604052620048a580380390816200001881620004f0565b9182396101e0818381010312620004eb57620000348162000516565b90620000436020820162000516565b91604082015190606083015190608084015160a0850151916200006960c0870162000516565b60e0870151909790936001600160401b0385168503620004eb5762000092610100890162000516565b93620000a26101208a0162000516565b96620000b26101408b0162000516565b986101608b01519463ffffffff86168603620004eb576101808c01516101a08d0151909c906001600160401b038111620004eb578f8201601f828401011215620004eb578f906200011091830190602081850151918501016200052b565b6101c0820151909f906001600160401b038111620004eb57820190808301601f83011215620004eb576200014c9201906020815191016200052b565b6001600160a01b039d8e166080529c871615620004a657600080546001600160a01b03199081166001600160a01b03998a1690811790925560028054821690921790915560198054610100600160a81b031916600893841b610100600160a81b0316179055601b92909255601c92909255601a92909255919091556007805494841660a0526001600160601b03199094166001600160401b039586161760409290921b6bffffffff0000000000000000169190911790925560098054831694821694909417909355600a80549091169390921692909217905542601055600f919091558251908111620003e4576003906200024882546200058b565b601f811162000470575b506020601f8211600114620004065781929394600092620003fa575b50508160011b9160001990841b1c19161781555b8151906001600160401b038211620003e457620002a1601e546200058b565b601f811162000396575b506020601f83116001146200031c57829360009362000310575b50508260011b92600019911b1c191617601e555b6040516142a39081620005e28239608051818181610487015281816120d101526122d7015260a05181818161120601526134cc0152f35b015191503880620002c5565b601e600090815260008051602062004885833981519152929190601f198516905b8181106200037d575094846001961062000362575b50505050811b01601e55620002d9565b01519060f884600019921b161c191690553880808062000352565b9193602060018192878a0151815501950192016200033d565b601e600052620003d29060008051602062004885833981519152601f850160051c81019160208610620003d9575b601f0160051c0190620005c8565b38620002ab565b9091508190620003c4565b634e487b7160e01b600052604160045260246000fd5b0151905038806200026e565b601f198216908360005260206000209160005b81811062000457575095836001959697106200043e575b505050811b01815562000282565b015160001983861b60f8161c1916905538808062000430565b9192602060018192868b01518155019401920162000419565b6200049f90836000526020600020601f840160051c81019160208510620003d957601f0160051c0190620005c8565b3862000252565b60405162461bcd60e51b815260206004820152601860248201527f43616e6e6f7420736574206f776e657220746f207a65726f00000000000000006044820152606490fd5b600080fd5b6040519190601f01601f191682016001600160401b03811183821017620003e457604052565b51906001600160a01b0382168203620004eb57565b919291906001600160401b038111620003e45760209162000555601f8301601f19168401620004f0565b9482865282820111620004eb5760005b828110620005795750509060009184010152565b81810151868201850152830162000565565b90600182811c92168015620005bd575b6020831014620005a757565b634e487b7160e01b600052602260045260246000fd5b91607f16916200059b565b818110620005d4575050565b60008155600101620005c856fe608060405260043610156200001d575b36156200001b57600080fd5b005b60003560e01c8063089ea02e14620002ec57806309c1ba2e14620002e65780630ca7617514620002e05780631243bcc314620002da5780631aa46f5914620002d457806324b93e3e14620002ce578063277e221314620002c85780632fc2a7b914620002c2578063338cdca114620002bc578063381fc4b514620002b65780633944ea3a14620002b05780633f678e1114620002aa57806343cd3d8614620002a45780634585e33b146200029e57806348802b92146200029857806348bd6f0514620002925780634b0795a8146200028c578063688ecfd114620002865780636baa48fe14620002805780636e04ff0d146200027a5780636e74336b146200027457806379ba5097146200026e5780637b10399914620002685780638b7afe2e14620002625780638d7e6d2d146200025c5780638da5cb5b1462000256578063a30971391462000250578063a3d3c0d2146200024a578063b1e217491462000244578063bef3a2f0146200023e578063c5e146881462000238578063d2aa789f1462000232578063d5f39488146200022c578063d811fcf01462000226578063ebf14a551462000220578063f2fde38b146200021a578063f5c1279b1462000214578063f68016b7146200020e578063fd2c80ae14620002085763fffeb84e036200000f57620018d8565b620018b8565b62001892565b62001872565b62001799565b6200174d565b62001721565b620016f8565b620016d8565b6200162a565b62001575565b62001555565b62001535565b62001515565b620014ec565b6200126c565b6200122a565b620011e4565b62001100565b620010e0565b6200105e565b62001035565b62000f80565b62000ecb565b62000eab565b62000e8b565b62000da6565b62000d86565b62000c50565b62000b9b565b62000b7b565b62000a88565b62000a5f565b620009ef565b62000728565b62000708565b620006df565b62000428565b62000323565b62000303565b6000910312620002fe57565b600080fd5b34620002fe576000366003190112620002fe576020601054604051908152f35b34620002fe576000366003190112620002fe57602067ffffffffffffffff60075416604051908152f35b634e487b7160e01b600052604160045260246000fd5b67ffffffffffffffff81116200037857604052565b6200034d565b6040810190811067ffffffffffffffff8211176200037857604052565b90601f8019910116810190811067ffffffffffffffff8211176200037857604052565b67ffffffffffffffff81116200037857601f01601f191660200190565b81601f82011215620002fe57803590620003f582620003be565b926200040560405194856200039b565b82845260208383010111620002fe57816000926020809301838601378301015290565b34620002fe576060366003190112620002fe5760043567ffffffffffffffff602435818111620002fe5762000462903690600401620003db565b604435828111620002fe576200047d903690600401620003db565b6001600160a01b037f0000000000000000000000000000000000000000000000000000000000000000163303620006b557815192831162000378578391620004d284620004cc600554620007bb565b6200368f565b60209384601f8211600114620006055750807f7bab0ec163b5c132c72b8146ac4d6e067e82ed58f8b131150aa71c92589115629495600091620005f9575b508160011b916000199060031b1c1916176005555b62000530826200378d565b620005466200054160125462001d11565b601255565b60ff6200055560195460ff1690565b16620005d5576200056681620038a8565b7f600739f161e06a7cdf9a4d034647e5c55e40454d12eb86768deb9f55b1644cdb60405180620005978482620009d9565b0390a1620005ab60405192839283620039b7565b0390a27f85e1543bf2f84fe80c6badbce3648c8539ad1df4d2b3d822938ca0538be727e6600080a2005b620005e9620005e48262003884565b601f55565b620005f362003a2c565b62000566565b90508201513862000510565b600560005294601f1982167f036b6384b5eca791c62761152d0c79bb0604c104a5fb6f4eb0703f3154bb3db0966000905b828210620006985750509582916001937f7bab0ec163b5c132c72b8146ac4d6e067e82ed58f8b131150aa71c92589115629798106200067e575b5050811b0160055562000525565b84015160001960f88460031b161c19169055388062000670565b858401518955600190980197899750928301929081019062000636565b60046040517fc6829f83000000000000000000000000000000000000000000000000000000008152fd5b34620002fe576000366003190112620002fe5760206001600160a01b0360095416604051908152f35b34620002fe576000366003190112620002fe576020600454604051908152f35b34620002fe576000366003190112620002fe57602060075463ffffffff6040519160401c168152f35b634e487b7160e01b600052603260045260246000fd5b601d548110156200079f57601d6000527f6d4407e7be21f808e6509aa9fa9143369579dd7d760fe20a2c09680fc146134f0190600090565b62000751565b634e487b7160e01b600052600060045260246000fd5b90600182811c92168015620007ed575b6020831014620007d757565b634e487b7160e01b600052602260045260246000fd5b91607f1691620007cb565b60405190600082601e54916200080e83620007bb565b808352926001908181169081156200089e57506001146200083b575b5062000839925003836200039b565b565b601e600090815291507f50bb669a95c7b50b7e8a6f09454034b2b14cf2b85c730dca9a539ca82cb6e3505b848310620008825750620008399350508101602001386200082a565b81935090816020925483858a0101520191019091859262000866565b9050602092506200083994915060ff191682840152151560051b820101386200082a565b9060405191826000825492620008d884620007bb565b9081845260019485811690816000146200094d575060011462000906575b505062000839925003836200039b565b9093915060005260209081600020936000915b818310620009345750506200083993508201013880620008f6565b8554888401850152948501948794509183019162000919565b9150506200083994506020925060ff191682840152151560051b8201013880620008f6565b60005b8281106200098557506000910152565b60808101518282015260200162000975565b919082519283825260005b848110620009c4575050826000602080949584010152601f8019910116010190565b602081830181015184830182015201620009a2565b906020620009ec92818152019062000997565b90565b34620002fe576020366003190112620002fe57600435601d54811015620002fe5762000a4662000a5b91601d6000527f6d4407e7be21f808e6509aa9fa9143369579dd7d760fe20a2c09680fc146134f01620008c2565b60405191829160208352602083019062000997565b0390f35b34620002fe576000366003190112620002fe5760206001600160a01b03600b5416604051908152f35b34620002fe5760008060031936011262000b78576040519080600d5462000aaf81620007bb565b8085529160019180831690811562000b4b575060011462000aeb575b62000a5b8562000ade818703826200039b565b60405191829182620009d9565b9250600d83527fd7b6990105719101dabeb77144f2a3385c8033acd3af97e9423a695e81ad1eb55b82841062000b3257505050810160200162000ade8262000a5b62000acb565b8054602085870181019190915290930192810162000b13565b86955062000a5b9693506020925062000ade94915060ff191682840152151560051b820101929362000acb565b80fd5b34620002fe576000366003190112620002fe576020601254604051908152f35b34620002fe5760008060031936011262000b7857604051908060145462000bc281620007bb565b8085529160019180831690811562000b4b575060011462000bf05762000a5b8562000ade818703826200039b565b9250601483527fce6d7b5282bd9a3661ae061feed1dbda4e52ab073b1f9285be6e155d9c38d4ec5b82841062000c3757505050810160200162000ade8262000a5b62000acb565b8054602085870181019190915290930192810162000c18565b34620002fe57600319602036820112620002fe576004359067ffffffffffffffff8211620002fe57610140908236030112620002fe57602062000cfb60009262000cbf62000cb362000cb36001600160a01b03600b54166001600160a01b031690565b6001600160a01b031690565b906040519485809481937f24380aa800000000000000000000000000000000000000000000000000000000835230906004016004840162001a93565b03925af1801562000d805762000d1a9160009162000d4b575b50600c55565b600c546040519081527f7623383a750b4166574a1b2dff61440ed0dfa3708cbe620c58339cca510d1af990602090a1005b62000d71915060203d811162000d78575b62000d6881836200039b565b81019062001a0c565b3862000d14565b503d62000d5c565b62001a00565b34620002fe576000366003190112620002fe576020601854604051908152f35b34620002fe576020366003190112620002fe5760043567ffffffffffffffff808211620002fe5736602383011215620002fe578160040135908111620002fe5736910160240111620002fe576001600160a01b0380600054169081331415908162000e7b575b5062000e1c576200001b6200200e565b62000e3362000cb3600b546001600160a01b031690565b6040517f426fbc710000000000000000000000000000000000000000000000000000000081523360048201526001600160a01b03928316602482015291166044820152606490fd5b9050600b54163314153862000e0c565b34620002fe576000366003190112620002fe576020601754604051908152f35b34620002fe576000366003190112620002fe576020601a54604051908152f35b34620002fe5760008060031936011262000b7857604051908060155462000ef281620007bb565b8085529160019180831690811562000b4b575060011462000f205762000a5b8562000ade818703826200039b565b9250601583527f55f448fdea98c4d29eb340757ef0a66cd03dbb9538908a6a81d96026b71ec4755b82841062000f6757505050810160200162000ade8262000a5b62000acb565b8054602085870181019190915290930192810162000f48565b34620002fe5760008060031936011262000b7857604051908060035462000fa781620007bb565b8085529160019180831690811562000b4b575060011462000fd55762000a5b8562000ade818703826200039b565b9250600383527fc2575a0e9e593c00f959f8c92f12db2869c3395a3b0502d05e2516446f71f85b5b8284106200101c57505050810160200162000ade8262000a5b62000acb565b8054602085870181019190915290930192810162000ffd565b34620002fe576000366003190112620002fe5760206001600160a01b03600a5416604051908152f35b34620002fe576020366003190112620002fe5760043567ffffffffffffffff8111620002fe5762001094903690600401620003db565b506010544203428111620010da5760085410604051908152604060208201526060818151806040830152620010cc8184840162000972565b601f01601f19168101030190f35b62001c17565b34620002fe576000366003190112620002fe576020600f54604051908152f35b34620002fe5760008060031936011262000b78576001600160a01b0380600154163303620011a05781546001600160a01b03166000805473ffffffffffffffffffffffffffffffffffffffff191633179055906200117673ffffffffffffffffffffffffffffffffffffffff1960015416600155565b3391167f8be0079c531659141344cd1fd0a4f28419497f9722a3daafe3b4186f6b6457e08380a380f35b606460405162461bcd60e51b815260206004820152601660248201527f4d7573742062652070726f706f736564206f776e6572000000000000000000006044820152fd5b34620002fe576000366003190112620002fe5760206040516001600160a01b037f0000000000000000000000000000000000000000000000000000000000000000168152f35b34620002fe576000366003190112620002fe57602047604051908152f35b6bffffffffffffffffffffffff811603620002fe57565b3590620008398262001248565b34620002fe576020366003190112620002fe576004356200128d8162001248565b6009546001600160a01b031690620012ad600a546001600160a01b031690565b91604051926107658085019185831067ffffffffffffffff841117620003785785936200130b93869362003b0987396001600160a01b039182168152911660208201526bffffffffffffffffffffffff909116604082015260600190565b0360009283f0801562000d8057620013c0916200134d6020926001600160a01b031673ffffffffffffffffffffffffffffffffffffffff19600b541617600b55565b6200136862000cb362000cb36009546001600160a01b031690565b6200137f62000cb3600b546001600160a01b031690565b8560405180968195829463095ea7b360e01b8452600484019092916bffffffffffffffffffffffff6020916001600160a01b03604085019616845216910152565b03925af1801562000d8057620014b7575b50620013e962000cb3600b546001600160a01b031690565b803b15620014b3576040517f230244080000000000000000000000000000000000000000000000000000000081523060048201529082908290602490829084905af1801562000d805762001495575b507f3583c1105fd29a46b4d92ceeaff8be03cba58a11cce44a3b7da77bbc3798edc46200148f6200147562000cb3600b546001600160a01b031690565b6040516001600160a01b0390911681529081906020820190565b0390a180f35b80620014a5620014ac9262000363565b80620002f2565b3862001438565b5080fd5b620014dc9060203d8111620014e4575b620014d381836200039b565b810190620019e6565b5038620013d1565b503d620014c7565b34620002fe576000366003190112620002fe5760206001600160a01b0360005416604051908152f35b34620002fe576000366003190112620002fe576020601b54604051908152f35b34620002fe576000366003190112620002fe576020601154604051908152f35b34620002fe576000366003190112620002fe576020601354604051908152f35b34620002fe5760008060031936011262000b785760405190806005546200159c81620007bb565b8085529160019180831690811562000b4b5750600114620015ca5762000a5b8562000ade818703826200039b565b9250600583527f036b6384b5eca791c62761152d0c79bb0604c104a5fb6f4eb0703f3154bb3db05b8284106200161157505050810160200162000ade8262000a5b62000acb565b80546020858701810191909152909301928101620015f2565b34620002fe576020366003190112620002fe5760006020620016ab600435620016538162001248565b6200165d6200198d565b6001600160a01b03600954169060405194858094819363095ea7b360e01b835233600484019092916bffffffffffffffffffffffff6020916001600160a01b03604085019616845216910152565b03925af1801562000d8057620016bd57005b6200001b9060203d8111620014e457620014d381836200039b565b34620002fe576000366003190112620002fe576020600c54604051908152f35b34620002fe576000366003190112620002fe5760206001600160a01b0360025416604051908152f35b34620002fe576000366003190112620002fe5760206001600160a01b0360195460081c16604051908152f35b34620002fe576000366003190112620002fe576020601c54604051908152f35b600435906001600160a01b0382168203620002fe57565b35906001600160a01b0382168203620002fe57565b34620002fe576020366003190112620002fe576001600160a01b03620017be6200176d565b620017c86200198d565b163381146200182e578073ffffffffffffffffffffffffffffffffffffffff1960015416176001556200180762000cb36000546001600160a01b031690565b7fed8889f560326eb138920d842192f0eb3dd22b4f139c87a2c57538e05bae1278600080a3005b606460405162461bcd60e51b815260206004820152601760248201527f43616e6e6f74207472616e7366657220746f2073656c660000000000000000006044820152fd5b34620002fe576000366003190112620002fe576020601654604051908152f35b34620002fe576000366003190112620002fe57602063ffffffff600e5416604051908152f35b34620002fe576000366003190112620002fe576020600854604051908152f35b34620002fe5760008060031936011262000b78576040519080600654620018ff81620007bb565b8085529160019180831690811562000b4b57506001146200192d5762000a5b8562000ade818703826200039b565b9250600683527ff652222313e28459528d920b65115c16c04f3efc82aaedc97be59f3f377c0d3f5b8284106200197457505050810160200162000ade8262000a5b62000acb565b8054602085870181019190915290930192810162001955565b6001600160a01b03600054163303620019a257565b606460405162461bcd60e51b815260206004820152601660248201527f4f6e6c792063616c6c61626c65206279206f776e6572000000000000000000006044820152fd5b90816020910312620002fe57518015158103620002fe5790565b6040513d6000823e3d90fd5b90816020910312620002fe575190565b9035601e1982360301811215620002fe57016020813591019167ffffffffffffffff8211620002fe578136038313620002fe57565b908060209392818452848401376000828201840152601f01601f1916010190565b359063ffffffff82168203620002fe57565b359060ff82168203620002fe57565b9291602062000839926040865262001c0762001bf162001ad562001be98962001abd868062001a1c565b93906101409485604085015261018084019162001a51565b9262001ba262001b0162001aec8a8a018a62001a1c565b603f1986890381016060880152979162001a51565b62001b2362001b1360408b0162001784565b6001600160a01b03166080860152565b62001b4262001b3560608b0162001a72565b63ffffffff1660a0860152565b62001b6462001b5460808b0162001784565b6001600160a01b031660c0860152565b62001b8062001b7660a08b0162001a84565b60ff1660e0860152565b62001b8f60c08a018a62001a1c565b8583038801610100968701529062001a51565b938c62001bd962001bcf62001bbb60e08c018c62001a1c565b610120999186868403018b87015262001a51565b948a018a62001a1c565b9390928286030191015262001a51565b93016200125f565b6bffffffffffffffffffffffff16610160880152565b9401906001600160a01b03169052565b634e487b7160e01b600052601160045260246000fd5b601f19810191908211620010da57565b6010544203428111620010da576008541090606090565b1562001c5c57565b606460405162461bcd60e51b815260206004820152601560248201527f55706b656570206e6f74207265676973746572656400000000000000000000006044820152fd5b604051906020820182811067ffffffffffffffff821117620003785760405260008252565b1562001ccd57565b606460405162461bcd60e51b815260206004820152601560248201527f54696d6520696e74657276616c206e6f74206d657400000000000000000000006044820152fd5b9060018201809211620010da57565b9060208201809211620010da57565b91908201809211620010da57565b6040519060e0820182811067ffffffffffffffff8211176200037857604052606060c08360008152600060208201526000604082015282808201528260808201528260a08201520152565b601d549067ffffffffffffffff8211620003785760405191602062001db3818360051b01856200039b565b81845280840190601d6000527f6d4407e7be21f808e6509aa9fa9143369579dd7d760fe20a2c09680fc146134f6000925b84841062001df3575050505050565b600183819262001e0385620008c2565b81520192019301929062001de4565b9062001e4260809367ffffffffffffffff63ffffffff939897969816845260a0602085015260a084019062000997565b95600160408401521660608201520152565b60009060033d1162001e6257565b905060046000803e60005160e01c90565b600060443d10620009ec57604051600319913d83016004833e815167ffffffffffffffff918282113d60248401111762001ed75781840194855193841162001edf573d8501016020848701011162001ed75750620009ec929101602001906200039b565b949350505050565b50949350505050565b3d1562001f18573d9062001efc82620003be565b9162001f0c60405193846200039b565b82523d6000602084013e565b606090565b9067ffffffffffffffff909493929416815260209360a08583015260006003549562001f4987620007bb565b908160a0860152600197888116908160001462001fe4575060011462001f85575b5050604083019590955263ffffffff16606082015260800152565b600360009081529250877fc2575a0e9e593c00f959f8c92f12db2869c3395a3b0502d05e2516446f71f85b5b83851062001fce5750505050820160c0018163ffffffff62001f6a565b805487860160c001529382019389910162001fb1565b60ff191660c08781019190915292151560051b8601909201925083915063ffffffff905062001f6a565b6200201d600c54151562001c54565b6200202762001ca0565b506200203d6200203662001c3d565b5062001cc5565b6200204742601055565b6200205d6200205860115462001d11565b601155565b601c54601d5410156200221c57620020806200207b60165462001d11565b601655565b60075467ffffffffffffffff1660206200209f600e5463ffffffff1690565b600f5492620020c3604051948593849363230e93b160e11b85526004850162001f1d565b038160006001600160a01b037f0000000000000000000000000000000000000000000000000000000000000000165af160009181620021f7575b50620021b0575060016200211062001e54565b6308c379a01462002157575b6200212357565b7f9c4bfa18304482256875c29fabb1a44a5ecd325f214ea17bab8f31e869faf4c86200215262000ade62001ee8565b0390a1565b6200216162001e73565b806200216f575b506200211c565b90507f2ba61e3733e7ac99181c22307780f651ec8fd92fe661a84dfbe711710b2dc36c620021a660009260405191829182620009d9565b0390a13862002168565b620021ba81601355565b620021d0620021cb60175462001d11565b601755565b7f1131472297a800fee664d1d89cfa8f7676ff07189ecc53f80bbb5f4969099db8600080a2565b6200221491925060203d811162000d785762000d6881836200039b565b9038620020fd565b6200222f600160ff196019541617601955565b6200226d6200223d62001d3d565b620022526200224b620007f8565b826200285f565b620022676200226062001d88565b82620028a1565b62002622565b6200227e6200207b60165462001d11565b60206200229460075467ffffffffffffffff1690565b91620022a5600e5463ffffffff1690565b92620022c9600f54604051958694859463230e93b160e11b86526004860162001e12565b038160006001600160a01b037f0000000000000000000000000000000000000000000000000000000000000000165af16000918162002409575b50620023c3575060016200231662001e54565b6308c379a0146200236a575b62002332575b6200083962003492565b7f9c4bfa18304482256875c29fabb1a44a5ecd325f214ea17bab8f31e869faf4c86200236162000ade62001ee8565b0390a162002328565b6200237462001e73565b8062002382575b5062002322565b90507f2ba61e3733e7ac99181c22307780f651ec8fd92fe661a84dfbe711710b2dc36c620023b960009260405191829182620009d9565b0390a1386200237b565b620023cd81601355565b620023de620021cb60175462001d11565b7f1131472297a800fee664d1d89cfa8f7676ff07189ecc53f80bbb5f4969099db8600080a262002328565b6200242691925060203d811162000d785762000d6881836200039b565b903862002303565b604051906200243d826200037e565b600c82527f636f64654c6f636174696f6e00000000000000000000000000000000000000006020830152565b634e487b7160e01b600052602160045260246000fd5b600311156200248a57565b62002469565b604051906200249f826200037e565b600882527f6c616e67756167650000000000000000000000000000000000000000000000006020830152565b600111156200248a57565b60405190620024e5826200037e565b600682527f736f7572636500000000000000000000000000000000000000000000000000006020830152565b6040519062002520826200037e565b600482527f61726773000000000000000000000000000000000000000000000000000000006020830152565b6000198114620010da5760010190565b80518210156200079f5760209160051b010190565b6040519062002580826200037e565b600f82527f736563726574734c6f636174696f6e00000000000000000000000000000000006020830152565b60405190620025bb826200037e565b600782527f73656372657473000000000000000000000000000000000000000000000000006020830152565b60405190620025f6826200037e565b600982527f62797465734172677300000000000000000000000000000000000000000000006020830152565b6200262c620028f5565b90620026426200263b6200242e565b83620030ea565b62002665815162002653816200247f565b6200265e816200247f565b83620029a5565b620026736200263b62002490565b6200269260408201516200268781620024cb565b6200265e81620024cb565b620026a06200263b620024d6565b620026b0606082015183620030ea565b60a08101805151620027f6575b50608081019081515162002748575b60c0915001805151620026e0575b50515190565b91620026ef6200263b620025e7565b620026fa8262003182565b60005b83518051821015620027325790620027266200271e826200272c946200255c565b51856200301b565b6200254c565b620026fd565b5050915062002741816200321a565b38620026da565b60208101805162002759816200247f565b62002764816200247f565b15620027cc5760c092620027a9620027c6926200278b6200278462002571565b88620030ea565b5162002797816200247f565b620027a2816200247f565b86620029a5565b620027be620027b7620025ac565b86620030ea565b51846200301b565b620026cc565b60046040517fa80d31f7000000000000000000000000000000000000000000000000000000008152fd5b926200280c6200280562002511565b84620030ea565b620028178362003182565b60005b84518051821015620028495790620027266200283b8262002843946200255c565b5186620030ea565b6200281a565b5050925062002858826200321a565b38620026bd565b81511562002877576000808252604082015260600152565b60046040517f22ce3edd000000000000000000000000000000000000000000000000000000008152fd5b815115620028af5760a00152565b60046040517ffe936cb7000000000000000000000000000000000000000000000000000000008152fd5b60405190620028e8826200037e565b6000602083606081520152565b60405162002903816200037e565b6200290d620028d9565b808252602082016000815262002922620028d9565b506101006020830152604051809252600082526101208201918210620002fe576000916040525290565b9062002957620028d9565b50601f81168062002988575b5080602083015260405190818352600082528101602001908110620002fe5760405290565b60200360208111620010da578101809111620010da573862002963565b90815191620029b3620028d9565b508251516001810190818111620010da57602085015181101562002a14575b60c2602062000839965192830101538051821162002a0b575b50506040519160208301526020825262002a05826200037e565b6200301b565b523880620029eb565b8160011b9482860460021483151715620010da5760208162002a4c620008399862002a4460c2955191846200294c565b508262002f4c565b5096505050620029d2565b908160011b9180830460021490151715620010da57565b62002a78620028d9565b508051516001810190818111620010da57602083015181101562002ab4575b605b6020845192830101538051821162002ab057505090565b5290565b8160011b82810460021483151715620010da5762002ae29062002ada855191866200294c565b508462002f4c565b5062002a97565b62002af3620028d9565b508051516001810190818111620010da57602083015181101562002b2b575b605a6020845192830101538051821162002ab057505090565b8160011b82810460021483151715620010da5762002b519062002ada855191866200294c565b5062002b12565b62002b62620028d9565b508051516001810190818111620010da57602083015181101562002b9a575b60596020845192830101538051821162002ab057505090565b8160011b82810460021483151715620010da5762002bc09062002ada855191866200294c565b5062002b81565b62002bd1620028d9565b508051516001810190818111620010da57602083015181101562002c09575b60586020845192830101538051821162002ab057505090565b8160011b82810460021483151715620010da5762002c2f9062002ada855191866200294c565b5062002bf0565b62002c40620028d9565b508051516001810190818111620010da57602083015181101562002c78575b607b6020845192830101538051821162002ab057505090565b8160011b82810460021483151715620010da5762002c9e9062002ada855191866200294c565b5062002c5f565b62002caf620028d9565b508051516001810190818111620010da57602083015181101562002ce7575b607a6020845192830101538051821162002ab057505090565b8160011b82810460021483151715620010da5762002d0d9062002ada855191866200294c565b5062002cce565b62002d1e620028d9565b508051516001810190818111620010da57602083015181101562002d56575b60796020845192830101538051821162002ab057505090565b8160011b82810460021483151715620010da5762002d7c9062002ada855191866200294c565b5062002d3d565b62002d8d620028d9565b508051516001810190818111620010da57602083015181101562002dc5575b60786020845192830101538051821162002ab057505090565b8160011b82810460021483151715620010da5762002deb9062002ada855191866200294c565b5062002dac565b9062002dfd620028d9565b508151516001810191828211620010da57602084015182101562002e33575b6020845192830101538051821162002ab057505090565b8260011b83810460021484151715620010da5762002e619062002e59865191876200294c565b508562002f4c565b5062002e1c565b9062002e77825191836200294c565b5062002e82620028d9565b5080519062002e90620028d9565b5062002ea0815183111562003013565b8251519262002eb0838562001d2f565b91602092828480940151821162002f30575b518381519782010196821162002f27575b505001915b8181101562002efa5760001991036101000a0190811990511690825116179052565b919262002f1a62002f1362002f21928651815262001d20565b9462001d20565b9262001c2d565b62002ed8565b52388062002ed3565b62002f4662002f3f8362002a57565b8262002e68565b62002ec2565b9062002f57620028d9565b50805162002f64620028d9565b5062002f74825182111562003013565b8251519162002f84828462001d2f565b602091829182870151811162002ff7575b86518381519782010196821162002fee575b505001915b8181101562002fcf5760001991036101000a019081199051169082511617905290565b919262002f1a62002f1362002fe8928651815262001d20565b62002fac565b52388062002fa7565b6200300d620030068262002a57565b8862002e68565b62002f95565b15620002fe57565b81516200305892919067ffffffffffffffff811690601782116200305b576200304f9150604060ff84519216179062002df2565b505b5162002f4c565b50565b5060ff811162003086576200307f9062003076835162002bc7565b5082516200340b565b5062003051565b61ffff8111620030aa576200307f90620030a1835162002b58565b5082516200339b565b63ffffffff8111620030d0576200307f90620030c7835162002ae9565b50825162003329565b6200307f90620030e1835162002a6e565b508251620032b3565b81516200305892919067ffffffffffffffff811690601782116200311e576200304f9150606060ff84519216179062002df2565b5060ff811162003139576200307f9062003076835162002d83565b61ffff811162003154576200307f90620030a1835162002d14565b63ffffffff811162003171576200307f90620030c7835162002ca5565b6200307f90620030e1835162002c36565b8051906200318f620028d9565b508151516001810190818111620010da576020840151811015620031e2575b609f6020809551928301015380518211620031d9575b50500180519060018201809211620010da5752565b523880620031c4565b8160011b9382850460021483151715620010da576020816200320f829762002a44609f955191846200294c565b5095505050620031ae565b80519062003227620028d9565b508151516001810190818111620010da5760208401518110156200327b575b60ff602080955192830101538051821162003272575b5050018051600019810191908211620010da5752565b5238806200325c565b8160011b9382850460021483151715620010da57602081620032a8829762002a4460ff955191846200294c565b509550505062003246565b90620032be620028d9565b50815151806008019182600811620010da576020840151831162003304575b60088451928301019067ffffffffffffffff198251161790528051821162002ab057505090565b8260011b83810460021484151715620010da5762003323908562002e68565b620032dd565b9062003334620028d9565b50815151806004019182600411620010da576020840151831162003376575b60048451928301019063ffffffff198251161790528051821162002ab057505090565b8260011b83810460021484151715620010da5762003395908562002e68565b62003353565b90620033a6620028d9565b50815151806002019182600211620010da5760208401518311620033e6575b60028451928301019061ffff198251161790528051821162002ab057505090565b8260011b83810460021484151715620010da5762003405908562002e68565b620033c5565b9062003416620028d9565b50815151806001019182600111620010da576020840151831162003455575b60018451928301019060ff198251161790528051821162002ab057505090565b8260011b83810460021484151715620010da5762003474908562002e68565b62003435565b90816020910312620002fe5751620009ec8162001248565b600c546040517f1e010439000000000000000000000000000000000000000000000000000000008152600481018290526001600160a01b037f00000000000000000000000000000000000000000000000000000000000000001691602082602481865afa91821562000d80576000926200363f575b506002546001600160a01b031690833b15620002fe576040517f744bfe6100000000000000000000000000000000000000000000000000000000815260048101919091526001600160a01b0391909116602482015260008160448183875af1801562000d805762003628575b50600c5491803b15620002fe576040517fc804802200000000000000000000000000000000000000000000000000000000815260048101939093526000908390602490829084905af190811562000d80577f2a98573784ed2376aeff51a1ae44a63f3afbbef86ecf320075b3b4f7834854db92620021529262003611575b506040516bffffffffffffffffffffffff90911681529081906020820190565b80620014a5620036219262000363565b38620035f1565b80620014a5620036389262000363565b3862003573565b6200366691925060203d81116200366e575b6200365d81836200039b565b8101906200347a565b903862003507565b503d62003651565b81811062003682575050565b6000815560010162003676565b90601f82116200369d575050565b620008399160056000527f036b6384b5eca791c62761152d0c79bb0604c104a5fb6f4eb0703f3154bb3db0906020601f840160051c83019310620036ea575b601f0160051c019062003676565b9091508190620036dc565b90601f821162003703575050565b620008399160066000527ff652222313e28459528d920b65115c16c04f3efc82aaedc97be59f3f377c0d3f906020601f840160051c83019310620036ea57601f0160051c019062003676565b9190601f81116200375f57505050565b62000839926000526020600020906020601f840160051c83019310620036ea57601f0160051c019062003676565b90815167ffffffffffffffff81116200037857620037b881620037b2600654620007bb565b620036f5565b602080601f8311600114620037f75750819293600092620037eb575b50508160011b916000199060031b1c191617600655565b015190503880620037d4565b90601f198316946200382b60066000527ff652222313e28459528d920b65115c16c04f3efc82aaedc97be59f3f377c0d3f90565b926000905b8782106200386b57505083600195961062003851575b505050811b01600655565b015160001960f88460031b161c1916905538808062003846565b8060018596829496860151815501950193019062003830565b60208151910151906020811062003899575090565b6000199060200360031b1b1690565b601d54680100000000000000008110156200037857620038d0600191828101601d5562000767565b929092620039b15780519067ffffffffffffffff821162000378576200390382620038fc8654620007bb565b866200374f565b60209081601f841160011462003942575092829391839260009462003936575b50501b916000199060031b1c1916179055565b01519250388062003923565b919083601f1981166200395a88600052602060002090565b946000905b888383106200399657505050106200397c575b505050811b019055565b015160001960f88460031b161c1916905538808062003972565b8587015188559096019594850194879350908101906200395f565b620007a5565b9091620039d1620009ec9360408452604084019062000997565b91602081840391015262000997565b15620039e857565b606460405162461bcd60e51b815260206004820152601b60248201527f4572726f20616f207061676172206120696e64656e697a6163616f00000000006044820152fd5b601f54601b54111562003a765762000839600080808062003a6162000cb362000cb36019546001600160a01b039060081c1690565b47905af162003a6f62001ee8565b50620039e0565b60008080806001600160a01b036002541647905af162003a9562001ee8565b501562003a9e57565b608460405162461bcd60e51b815260206004820152602d60248201527f4572726f20616f207265746f726e6172206f732066756e646f7320706172612060448201527f6120696e73746974756963616f000000000000000000000000000000000000006064820152fdfe60c0346100ba57601f61076538819003918201601f19168301916001600160401b038311848410176100bf578084926060946040528339810103126100ba57610047816100d5565b906040610056602083016100d5565b9101516001600160601b03811692908390036100ba5760805260a052600180546001600160601b03191691909117905560405161067b90816100ea82396080518181816077015281816101c701526103a3015260a05181818160be015261036a0152f35b600080fd5b634e487b7160e01b600052604160045260246000fd5b51906001600160a01b03821682036100ba5756fe60806040818152600436101561001457600080fd5b600091823560e01c90816301619d3d1461022d57508063230244081461014a57806324380aa8146100e2578063442b12781461009f57637d253aff1461005957600080fd5b3461009b578160031936011261009b57602090516001600160a01b037f0000000000000000000000000000000000000000000000000000000000000000168152f35b5080fd5b503461009b578160031936011261009b57602090516001600160a01b037f0000000000000000000000000000000000000000000000000000000000000000168152f35b503461009b576003198181360112610142576004359067ffffffffffffffff82116101465761014090823603011261014257602435926001600160a01b038416840361013f575060209261013891600401610313565b9051908152f35b80fd5b8280fd5b8380fd5b503461009b57602036600319011261009b57600435906001600160a01b03918281168091036101465760209060646bffffffffffffffffffffffff600154169186855196879485937f23b872dd000000000000000000000000000000000000000000000000000000008552600485015230602485015260448401527f0000000000000000000000000000000000000000000000000000000000000000165af190811561022457506101f9575080f35b6102199060203d811161021d575b6102118183610270565b8101906102a8565b5080f35b503d610207565b513d84823e3d90fd5b83903461009b578160031936011261009b576020906bffffffffffffffffffffffff600154168152f35b35906001600160a01b038216820361026b57565b600080fd5b90601f8019910116810190811067ffffffffffffffff82111761029257604052565b634e487b7160e01b600052604160045260246000fd5b9081602091031261026b5751801515810361026b5790565b9035601e198236030181121561026b57016020813591019167ffffffffffffffff821161026b57813603831361026b57565b908060209392818452848401376000828201840152601f01601f1916010190565b9190916000926101208201356bffffffffffffffffffffffff8116809103610641576040908151927f095ea7b30000000000000000000000000000000000000000000000000000000084526001600160a01b0391827f0000000000000000000000000000000000000000000000000000000000000000169586600487015281602487015260209586816044818d897f0000000000000000000000000000000000000000000000000000000000000000165af180156106375761061a575b508451967f3f678e1100000000000000000000000000000000000000000000000000000000885286600489015261041d61040a83806102c0565b61014060248c01526101648b01916102f2565b8a61044161042d8a8601866102c0565b6023198d8603810160448f015294916102f2565b948761044e8a8701610257565b1660648c0152606085013563ffffffff81168091036101425760848c01528761047960808701610257565b1660a48c015260a08501359060ff8216809203610142576105018c9687956104f16104e58f9b6104c7908a9860c48a01526104b760c08701876102c0565b90868b84030160e48c01526102f2565b6104d460e08601866102c0565b90858a8403016101048b01526102f2565b926101008101906102c0565b91868403016101248701526102f2565b9061014483015203925af19485156106105787956105dd575b508415610580571685528482528420908154916801000000000000000083101561056c57600183018082558310156105585794839495815220015590565b602486634e487b7160e01b81526032600452fd5b602486634e487b7160e01b81526041600452fd5b6064848451907f08c379a00000000000000000000000000000000000000000000000000000000082526004820152601560248201527f6175746f2d617070726f76652064697361626c656400000000000000000000006044820152fd5b9094508381813d8311610609575b6105f58183610270565b810103126106055751933861051a565b8680fd5b503d6105eb565b83513d89823e3d90fd5b61063090873d891161021d576102118183610270565b50386103d0565b86513d8c823e3d90fd5b8480fdfea2646970667358221220135f5abeffc2aad8b9ce604c211350502f3bc6c96f518a5636136bb8bc2bb98864736f6c63430008130033a2646970667358221220a8b89df1e990e887392f72ef0ddb50226ac6fb8a81098ecc09e07e43ba353fb564736f6c6343000813003350bb669a95c7b50b7e8a6f09454034b2b14cf2b85c730dca9a539ca82cb6e350",
  "linkReferences": {},
  "deployedLinkReferences": {}
}