{
  "_format": "hh-sol-artifact-1",
  "contractName": "AutomatedFunctionsConsumer",
  "sourceName": "contracts/AutomatedFunctionsConsumer.sol",
  "abi": [
    {
      "inputs": [
        {
          "internalType": "address",
          "name": "_deployer",
          "type": "address"
        },
        {
          "internalType": "address",
          "name": "_farmer",
          "type": "address"
        },
        {
          "internalType": "uint256",
          "name": "_humidityLimit",
          "type": "uint256"
        },
        {
          "internalType": "uint256",
          "name": "_sampleMaxSize",
          "type": "uint256"
        },
        {
          "internalType": "uint256",
          "name": "_reparationValue",
          "type": "uint256"
        },
        {
          "internalType": "uint256",
          "name": "_updateInterval",
          "type": "uint256"
        },
        {
          "internalType": "address",
          "name": "router",
          "type": "address"
        },
        {
          "internalType": "uint64",
          "name": "_subscriptionId",
          "type": "uint64"
        },
        {
          "internalType": "address",
          "name": "_registry",
          "type": "address"
        },
        {
          "internalType": "address",
          "name": "sepoliaLINKAddress",
          "type": "address"
        },
        {
          "internalType": "address",
          "name": "sepoliaRegistrarAddress",
          "type": "address"
        },
        {
          "internalType": "uint32",
          "name": "_fulfillGasLimit",
          "type": "uint32"
        }
      ],
      "stateMutability": "payable",
      "type": "constructor"
    },
    {
      "inputs": [],
      "name": "EmptyArgs",
      "type": "error"
    },
    {
      "inputs": [],
      "name": "EmptySource",
      "type": "error"
    },
    {
      "inputs": [],
      "name": "NoInlineSecrets",
      "type": "error"
    },
    {
      "inputs": [
        {
          "internalType": "address",
          "name": "caller",
          "type": "address"
        },
        {
          "internalType": "address",
          "name": "owner",
          "type": "address"
        },
        {
          "internalType": "address",
          "name": "automationRegistry",
          "type": "address"
        }
      ],
      "name": "NotAllowedCaller",
      "type": "error"
    },
    {
      "inputs": [],
      "name": "OnlyRouterCanFulfill",
      "type": "error"
    },
    {
      "inputs": [
        {
          "internalType": "bytes32",
          "name": "requestId",
          "type": "bytes32"
        }
      ],
      "name": "UnexpectedRequestID",
      "type": "error"
    },
    {
      "anonymous": false,
      "inputs": [
        {
          "indexed": true,
          "internalType": "bytes32",
          "name": "requestId",
          "type": "bytes32"
        },
        {
          "indexed": false,
          "internalType": "bytes",
          "name": "result",
          "type": "bytes"
        },
        {
          "indexed": false,
          "internalType": "bytes",
          "name": "err",
          "type": "bytes"
        }
      ],
      "name": "OCRResponse",
      "type": "event"
    },
    {
      "anonymous": false,
      "inputs": [
        {
          "indexed": true,
          "internalType": "address",
          "name": "from",
          "type": "address"
        },
        {
          "indexed": true,
          "internalType": "address",
          "name": "to",
          "type": "address"
        }
      ],
      "name": "OwnershipTransferRequested",
      "type": "event"
    },
    {
      "anonymous": false,
      "inputs": [
        {
          "indexed": true,
          "internalType": "address",
          "name": "from",
          "type": "address"
        },
        {
          "indexed": true,
          "internalType": "address",
          "name": "to",
          "type": "address"
        }
      ],
      "name": "OwnershipTransferred",
      "type": "event"
    },
    {
      "anonymous": false,
      "inputs": [
        {
          "indexed": true,
          "internalType": "bytes32",
          "name": "id",
          "type": "bytes32"
        }
      ],
      "name": "RequestFulfilled",
      "type": "event"
    },
    {
      "anonymous": false,
      "inputs": [
        {
          "indexed": false,
          "internalType": "string",
          "name": "reason",
          "type": "string"
        }
      ],
      "name": "RequestRevertedWithErrorMsg",
      "type": "event"
    },
    {
      "anonymous": false,
      "inputs": [
        {
          "indexed": false,
          "internalType": "bytes",
          "name": "data",
          "type": "bytes"
        }
      ],
      "name": "RequestRevertedWithoutErrorMsg",
      "type": "event"
    },
    {
      "anonymous": false,
      "inputs": [
        {
          "indexed": true,
          "internalType": "bytes32",
          "name": "id",
          "type": "bytes32"
        }
      ],
      "name": "RequestSent",
      "type": "event"
    },
    {
      "anonymous": false,
      "inputs": [
        {
          "indexed": true,
          "internalType": "bytes32",
          "name": "requestId",
          "type": "bytes32"
        },
        {
          "indexed": false,
          "internalType": "bytes",
          "name": "response",
          "type": "bytes"
        },
        {
          "indexed": false,
          "internalType": "bytes",
          "name": "err",
          "type": "bytes"
        }
      ],
      "name": "Response",
      "type": "event"
    },
    {
      "anonymous": false,
      "inputs": [
        {
          "indexed": false,
          "internalType": "address",
          "name": "upkeepAddress",
          "type": "address"
        }
      ],
      "name": "upkeepCreated",
      "type": "event"
    },
    {
      "anonymous": false,
      "inputs": [
        {
          "indexed": false,
          "internalType": "uint256",
          "name": "upkeepId",
          "type": "uint256"
        }
      ],
      "name": "upkeepRegistered",
      "type": "event"
    },
    {
      "inputs": [],
      "name": "acceptOwnership",
      "outputs": [],
      "stateMutability": "nonpayable",
      "type": "function"
    },
    {
      "inputs": [
        {
          "internalType": "bytes",
          "name": "",
          "type": "bytes"
        }
      ],
      "name": "checkUpkeep",
      "outputs": [
        {
          "internalType": "bool",
          "name": "upkeepNeeded",
          "type": "bool"
        },
        {
          "internalType": "bytes",
          "name": "",
          "type": "bytes"
        }
      ],
      "stateMutability": "view",
      "type": "function"
    },
    {
      "inputs": [],
      "name": "contractBalance",
      "outputs": [
        {
          "internalType": "uint256",
          "name": "",
          "type": "uint256"
        }
      ],
      "stateMutability": "view",
      "type": "function"
    },
    {
      "inputs": [],
      "name": "donID",
      "outputs": [
        {
          "internalType": "bytes32",
          "name": "",
          "type": "bytes32"
        }
      ],
      "stateMutability": "view",
      "type": "function"
    },
    {
      "inputs": [],
      "name": "farmer",
      "outputs": [
        {
          "internalType": "address",
          "name": "",
          "type": "address"
        }
      ],
      "stateMutability": "view",
      "type": "function"
    },
    {
      "inputs": [],
      "name": "fulfillGasLimit",
      "outputs": [
        {
          "internalType": "uint32",
          "name": "",
          "type": "uint32"
        }
      ],
      "stateMutability": "view",
      "type": "function"
    },
    {
      "inputs": [],
      "name": "gasLimit",
      "outputs": [
        {
          "internalType": "uint32",
          "name": "",
          "type": "uint32"
        }
      ],
      "stateMutability": "view",
      "type": "function"
    },
    {
      "inputs": [
        {
          "internalType": "bytes32",
          "name": "requestId",
          "type": "bytes32"
        },
        {
          "internalType": "bytes",
          "name": "response",
          "type": "bytes"
        },
        {
          "internalType": "bytes",
          "name": "err",
          "type": "bytes"
        }
      ],
      "name": "handleOracleFulfillment",
      "outputs": [],
      "stateMutability": "nonpayable",
      "type": "function"
    },
    {
      "inputs": [],
      "name": "i_upkeep",
      "outputs": [
        {
          "internalType": "contract Upkeep",
          "name": "",
          "type": "address"
        }
      ],
      "stateMutability": "view",
      "type": "function"
    },
    {
      "inputs": [],
      "name": "institution",
      "outputs": [
        {
          "internalType": "address",
          "name": "",
          "type": "address"
        }
      ],
      "stateMutability": "view",
      "type": "function"
    },
    {
      "inputs": [],
      "name": "lastUpkeepTimeStamp",
      "outputs": [
        {
          "internalType": "uint256",
          "name": "",
          "type": "uint256"
        }
      ],
      "stateMutability": "view",
      "type": "function"
    },
    {
      "inputs": [],
      "name": "latestError",
      "outputs": [
        {
          "internalType": "bytes",
          "name": "",
          "type": "bytes"
        }
      ],
      "stateMutability": "view",
      "type": "function"
    },
    {
      "inputs": [],
      "name": "latestRequestId",
      "outputs": [
        {
          "internalType": "bytes32",
          "name": "",
          "type": "bytes32"
        }
      ],
      "stateMutability": "view",
      "type": "function"
    },
    {
      "inputs": [],
      "name": "latestResponse",
      "outputs": [
        {
          "internalType": "bytes",
          "name": "",
          "type": "bytes"
        }
      ],
      "stateMutability": "view",
      "type": "function"
    },
    {
      "inputs": [],
      "name": "owner",
      "outputs": [
        {
          "internalType": "address",
          "name": "",
          "type": "address"
        }
      ],
      "stateMutability": "view",
      "type": "function"
    },
    {
      "inputs": [
        {
          "internalType": "bytes",
          "name": "",
          "type": "bytes"
        }
      ],
      "name": "performUpkeep",
      "outputs": [],
      "stateMutability": "nonpayable",
      "type": "function"
    },
    {
      "inputs": [],
      "name": "registry",
      "outputs": [
        {
          "internalType": "contract IAutomationRegistryConsumer",
          "name": "",
          "type": "address"
        }
      ],
      "stateMutability": "view",
      "type": "function"
    },
    {
      "inputs": [],
      "name": "request",
      "outputs": [
        {
          "internalType": "bytes",
          "name": "",
          "type": "bytes"
        }
      ],
      "stateMutability": "view",
      "type": "function"
    },
    {
      "inputs": [],
      "name": "requestCBOR",
      "outputs": [
        {
          "internalType": "bytes",
          "name": "",
          "type": "bytes"
        }
      ],
      "stateMutability": "view",
      "type": "function"
    },
    {
      "inputs": [],
      "name": "responseCounter",
      "outputs": [
        {
          "internalType": "uint256",
          "name": "",
          "type": "uint256"
        }
      ],
      "stateMutability": "view",
      "type": "function"
    },
    {
      "inputs": [],
      "name": "s_lastError",
      "outputs": [
        {
          "internalType": "bytes",
          "name": "",
          "type": "bytes"
        }
      ],
      "stateMutability": "view",
      "type": "function"
    },
    {
      "inputs": [],
      "name": "s_lastRequestId",
      "outputs": [
        {
          "internalType": "bytes32",
          "name": "",
          "type": "bytes32"
        }
      ],
      "stateMutability": "view",
      "type": "function"
    },
    {
      "inputs": [],
      "name": "s_lastResponse",
      "outputs": [
        {
          "internalType": "bytes",
          "name": "",
          "type": "bytes"
        }
      ],
      "stateMutability": "view",
      "type": "function"
    },
    {
      "inputs": [],
      "name": "s_requestCounter",
      "outputs": [
        {
          "internalType": "uint256",
          "name": "",
          "type": "uint256"
        }
      ],
      "stateMutability": "view",
      "type": "function"
    },
    {
      "inputs": [],
      "name": "s_responseCounter",
      "outputs": [
        {
          "internalType": "uint256",
          "name": "",
          "type": "uint256"
        }
      ],
      "stateMutability": "view",
      "type": "function"
    },
    {
      "inputs": [],
      "name": "s_upkeepCounter",
      "outputs": [
        {
          "internalType": "uint256",
          "name": "",
          "type": "uint256"
        }
      ],
      "stateMutability": "view",
      "type": "function"
    },
    {
      "inputs": [],
      "name": "sampleMaxSize",
      "outputs": [
        {
          "internalType": "uint256",
          "name": "",
          "type": "uint256"
        }
      ],
      "stateMutability": "view",
      "type": "function"
    },
    {
      "inputs": [
        {
          "internalType": "uint256",
          "name": "",
          "type": "uint256"
        }
      ],
      "name": "sampleStorage",
      "outputs": [
        {
          "internalType": "string",
          "name": "",
          "type": "string"
        }
      ],
      "stateMutability": "view",
      "type": "function"
    },
    {
      "inputs": [
        {
          "internalType": "bytes",
          "name": "newRequestCBOR",
          "type": "bytes"
        },
        {
          "internalType": "uint64",
          "name": "_subscriptionId",
          "type": "uint64"
        },
        {
          "internalType": "uint32",
          "name": "_fulfillGasLimit",
          "type": "uint32"
        },
        {
          "internalType": "bytes32",
          "name": "_donID",
          "type": "bytes32"
        },
        {
          "internalType": "uint256",
          "name": "_updateInterval",
          "type": "uint256"
        }
      ],
      "name": "setRequest",
      "outputs": [],
      "stateMutability": "nonpayable",
      "type": "function"
    },
    {
      "inputs": [],
      "name": "subscriptionId",
      "outputs": [
        {
          "internalType": "uint64",
          "name": "",
          "type": "uint64"
        }
      ],
      "stateMutability": "view",
      "type": "function"
    },
    {
      "inputs": [
        {
          "internalType": "address",
          "name": "to",
          "type": "address"
        }
      ],
      "name": "transferOwnership",
      "outputs": [],
      "stateMutability": "nonpayable",
      "type": "function"
    },
    {
      "inputs": [],
      "name": "updateInterval",
      "outputs": [
        {
          "internalType": "uint256",
          "name": "",
          "type": "uint256"
        }
      ],
      "stateMutability": "view",
      "type": "function"
    },
    {
      "inputs": [],
      "name": "upkeepContract",
      "outputs": [
        {
          "internalType": "address",
          "name": "",
          "type": "address"
        }
      ],
      "stateMutability": "view",
      "type": "function"
    },
    {
      "inputs": [],
      "name": "upkeepCounter",
      "outputs": [
        {
          "internalType": "uint256",
          "name": "",
          "type": "uint256"
        }
      ],
      "stateMutability": "view",
      "type": "function"
    }
  ],
  "bytecode": "0x6001600160401b0360c0601f6200327438819003918201601f191683019184831184841017620001cc5780849261018094604052833981010312620001c7576200004981620001e2565b916200005860208301620001e2565b604083015160608401519160808501519360a0860151926200007d60c08801620001e2565b9260e0880151928316809303620001c757610160620000a06101008a01620001e2565b98620000b06101208201620001e2565b50620000c06101408201620001e2565b5001519363ffffffff85168503620001c7576001600160a01b039081166080529889169081156200018257899060018060a01b0319928084600054161760005583601654161760165516906017541617601755601a556bffffffff00000000000000006006549260401b169160018060601b0319161717600655600755601b556019551660a0524260085560405161307c9081620001f882396080518181816103bb01528181611a820152611c74015260a0518181816110ae0152611cc00152f35b60405162461bcd60e51b815260206004820152601860248201527f43616e6e6f7420736574206f776e657220746f207a65726f00000000000000006044820152606490fd5b600080fd5b634e487b7160e01b600052604160045260246000fd5b51906001600160a01b0382168203620001c75756fe6080604052600436101561001257600080fd5b60003560e01c8063089ea02e1461023757806309c1ba2e146102325780630ca761751461022d5780631aa46f591461022857806324b93e3e14610223578063277e22131461021e578063303b137c14610219578063338cdca114610214578063381fc4b51461020f5780633944ea3a1461020a57806343cd3d86146102055780634585e33b14610200578063472cbbb0146101fb57806348802b92146101f65780634b0795a8146101f15780635e0611f1146101ec578063688ecfd1146101e75780636e04ff0d146101e25780636e74336b146101dd57806379ba5097146101d85780637b103999146101d35780638b7afe2e146101ce5780638da5cb5b146101c9578063a3d3c0d2146101c4578063b1e21749146101bf578063bef3a2f0146101ba578063d1384eb6146101b5578063d811fcf0146101b0578063ebf14a55146101ab578063f2fde38b146101a6578063f5c1279b146101a1578063f68016b71461019c578063fd2c80ae146101975763fffeb84e1461019257600080fd5b611397565b611379565b611355565b611337565b611264565b611246565b61121f565b6111f8565b611151565b611133565b611115565b6110ee565b6110d2565b61108e565b610fae565b610f90565b610f17565b610e70565b610e49565b610da2565b610d84565b610bcd565b610b01565b610ab5565b610a0e565b6109f0565b61090f565b6108e5565b61087c565b6105da565b6105bc565b610362565b61026a565b61024c565b600091031261024757565b600080fd5b34610247576000366003190112610247576020600854604051908152f35b3461024757600036600319011261024757602067ffffffffffffffff60065416604051908152f35b634e487b7160e01b600052604160045260246000fd5b67ffffffffffffffff81116102bc57604052565b610292565b6040810190811067ffffffffffffffff8211176102bc57604052565b90601f8019910116810190811067ffffffffffffffff8211176102bc57604052565b67ffffffffffffffff81116102bc57601f01601f191660200190565b81601f8201121561024757803590610332826102ff565b9261034060405194856102dd565b8284526020838301011161024757816000926020809301838601378301015290565b3461024757606036600319011261024757600480359067ffffffffffffffff9060243582811161024757610399903690830161031b565b604435838111610247576103b0903690840161031b565b906001600160a01b037f00000000000000000000000000000000000000000000000000000000000000001633036105935780519384116102bc57826103ff856103fa889654610669565b6114ad565b602080601f87116001146104e9575094807f7bab0ec163b5c132c72b8146ac4d6e067e82ed58f8b131150aa71c925891156295966000916104de575b508160011b916000199060031b1c19161790555b61045882612cff565b61046b610466600a5461169d565b600a55565b60ff610479600b5460ff1690565b166104c05761048781612e0c565b61049660405192839283612f09565b0390a27f85e1543bf2f84fe80c6badbce3648c8539ad1df4d2b3d822938ca0538be727e6600080a2005b6104d16104cc82612de9565b601e55565b6104d9612f79565b610487565b90508301513861043b565b600460005290601f1987167f8a35acfbc15ff81a39ae7d344fd709f28e8600b4aa8c65c6b64bfe7fe36bd19b926000905b8282106105775750509187917f7bab0ec163b5c132c72b8146ac4d6e067e82ed58f8b131150aa71c925891156297986001941061055e575b5050811b01905561044f565b85015160001960f88460031b161c191690553880610552565b8684015185558a9850600190940193928301929081019061051a565b826040517fc6829f83000000000000000000000000000000000000000000000000000000008152fd5b34610247576000366003190112610247576020600354604051908152f35b3461024757600036600319011261024757602060065463ffffffff6040519160401c168152f35b634e487b7160e01b600052603260045260246000fd5b601c5481101561064e57601c6000527f0e4562a10381dec21b205ed72637e6b1b523bdd0e4d4d50af5cd23dd4500a2110190600090565b610601565b634e487b7160e01b600052600060045260246000fd5b90600182811c92168015610699575b602083101461068357565b634e487b7160e01b600052602260045260246000fd5b91607f1691610678565b60405190600082601d54916106b783610669565b8083529260019081811690811561073f57506001146106e0575b506106de925003836102dd565b565b601d600090815291507f6d4407e7be21f808e6509aa9fa9143369579dd7d760fe20a2c09680fc146134f5b84831061072457506106de9350508101602001386106d1565b81935090816020925483858a0101520191019091859261070b565b9050602092506106de94915060ff191682840152151560051b820101386106d1565b906040519182600082549261077584610669565b9081845260019485811690816000146107e2575060011461079f575b50506106de925003836102dd565b9093915060005260209081600020936000915b8183106107ca5750506106de93508201013880610791565b855488840185015294850194879450918301916107b2565b9150506106de94506020925060ff191682840152151560051b8201013880610791565b60005b82811061081757506000910152565b608081015182820152602001610808565b919082519283825260005b848110610854575050826000602080949584010152601f8019910116010190565b602081830181015184830182015201610833565b906020610879928181520190610828565b90565b3461024757602036600319011261024757600435601c54811015610247576108cd6108e191601c6000527f0e4562a10381dec21b205ed72637e6b1b523bdd0e4d4d50af5cd23dd4500a21101610761565b604051918291602083526020830190610828565b0390f35b346102475760003660031901126102475760206001600160a01b03600b5460081c16604051908152f35b34610247576000806003193601126109ed576040519080600d5461093281610669565b808552916001918083169081156109c35750600114610968575b6108e18561095c818703826102dd565b60405191829182610868565b9250600d83527fd7b6990105719101dabeb77144f2a3385c8033acd3af97e9423a695e81ad1eb55b8284106109ab57505050810160200161095c826108e161094c565b80546020858701810191909152909301928101610990565b8695506108e19693506020925061095c94915060ff191682840152151560051b820101929361094c565b80fd5b34610247576000366003190112610247576020600a54604051908152f35b34610247576000806003193601126109ed576040519080601154610a3181610669565b808552916001918083169081156109c35750600114610a5a576108e18561095c818703826102dd565b9250601183527f31ecc21a745e3968a04e9570e4425bc18fa8019c68028196b546d1669c200c685b828410610a9d57505050810160200161095c826108e161094c565b80546020858701810191909152909301928101610a82565b34610247576000366003190112610247576020601554604051908152f35b9181601f840112156102475782359167ffffffffffffffff8311610247576020838186019501011161024757565b346102475760203660031901126102475760043567ffffffffffffffff811161024757610b32903690600401610ad3565b50506000546001600160a01b03163381141580610ba3575b610b5857610b566119df565b005b6018546040517f426fbc710000000000000000000000000000000000000000000000000000000081523360048201526001600160a01b03928316602482015291166044820152606490fd5b50610bc5610bb96018546001600160a01b031690565b6001600160a01b031690565b331415610b4a565b346102475760a03660031901126102475767ffffffffffffffff60043581811161024757610bff903690600401610ad3565b60243592918383168403610247576044359263ffffffff8416840361024757610c2661143e565b82116102bc57610c4082610c3b600254610669565b61150e565b600090601f8311600114610ce0579180610cbf9592610c9494600092610cd5575b50508160011b916000199060031b1c19161760025567ffffffffffffffff1667ffffffffffffffff196006541617600655565b6bffffffff00000000000000006006549160401b16906bffffffff0000000000000000191617600655565b610cca606435600f55565b610b56608435600755565b013590503880610c61565b60026000527f405787fa12a823e0f2b7631cc41b3ba8828b3321ca811111fa75cd3aa3bb5ace91601f198416815b818110610d6c5750926001928592610c9496610cbf999610610d52575b505050811b0160025567ffffffffffffffff1667ffffffffffffffff196006541617600655565b0135600019600384901b60f8161c19169055388080610d2b565b91936020600181928787013581550195019201610d0e565b34610247576000366003190112610247576020601454604051908152f35b34610247576000806003193601126109ed576040519080601254610dc581610669565b808552916001918083169081156109c35750600114610dee576108e18561095c818703826102dd565b9250601283527fbb8a6a4669ba250d26cd7a459eca9d215f8307e33aebe50379bc5a3617ec34445b828410610e3157505050810160200161095c826108e161094c565b80546020858701810191909152909301928101610e16565b346102475760003660031901126102475760206001600160a01b0360185416604051908152f35b34610247576000806003193601126109ed576040519080600254610e9381610669565b808552916001918083169081156109c35750600114610ebc576108e18561095c818703826102dd565b9250600283527f405787fa12a823e0f2b7631cc41b3ba8828b3321ca811111fa75cd3aa3bb5ace5b828410610eff57505050810160200161095c826108e161094c565b80546020858701810191909152909301928101610ee4565b346102475760203660031901126102475760043567ffffffffffffffff811161024757610f4890369060040161031b565b506008544203428111610f8b5760075410604051908152604060208201526060818151806040830152610f7d81848401610805565b601f01601f19168101030190f35b6115f4565b34610247576000366003190112610247576020600f54604051908152f35b34610247576000806003193601126109ed576001600160a01b038060015416330361104a5781546001600160a01b03166000805473ffffffffffffffffffffffffffffffffffffffff1916331790559061102073ffffffffffffffffffffffffffffffffffffffff1960015416600155565b3391167f8be0079c531659141344cd1fd0a4f28419497f9722a3daafe3b4186f6b6457e08380a380f35b606460405162461bcd60e51b815260206004820152601660248201527f4d7573742062652070726f706f736564206f776e6572000000000000000000006044820152fd5b346102475760003660031901126102475760206040516001600160a01b037f0000000000000000000000000000000000000000000000000000000000000000168152f35b3461024757600036600319011261024757602047604051908152f35b346102475760003660031901126102475760206001600160a01b0360005416604051908152f35b34610247576000366003190112610247576020600954604051908152f35b34610247576000366003190112610247576020601054604051908152f35b34610247576000806003193601126109ed57604051908060045461117481610669565b808552916001918083169081156109c3575060011461119d576108e18561095c818703826102dd565b9250600483527f8a35acfbc15ff81a39ae7d344fd709f28e8600b4aa8c65c6b64bfe7fe36bd19b5b8284106111e057505050810160200161095c826108e161094c565b805460208587018101919091529093019281016111c5565b346102475760003660031901126102475760206001600160a01b0360165416604051908152f35b346102475760003660031901126102475760206001600160a01b0360175416604051908152f35b34610247576000366003190112610247576020601b54604051908152f35b34610247576020366003190112610247576004356001600160a01b0381168091036102475761129161143e565b3381146112f3578073ffffffffffffffffffffffffffffffffffffffff1960015416176001556112cc610bb96000546001600160a01b031690565b7fed8889f560326eb138920d842192f0eb3dd22b4f139c87a2c57538e05bae1278600080a3005b606460405162461bcd60e51b815260206004820152601760248201527f43616e6e6f74207472616e7366657220746f2073656c660000000000000000006044820152fd5b34610247576000366003190112610247576020601354604051908152f35b3461024757600036600319011261024757602063ffffffff600e5416604051908152f35b34610247576000366003190112610247576020600754604051908152f35b34610247576000806003193601126109ed5760405190806005546113ba81610669565b808552916001918083169081156109c357506001146113e3576108e18561095c818703826102dd565b9250600583527f036b6384b5eca791c62761152d0c79bb0604c104a5fb6f4eb0703f3154bb3db05b82841061142657505050810160200161095c826108e161094c565b8054602085870181019190915290930192810161140b565b6001600160a01b0360005416330361145257565b606460405162461bcd60e51b815260206004820152601660248201527f4f6e6c792063616c6c61626c65206279206f776e6572000000000000000000006044820152fd5b8181106114a1575050565b60008155600101611496565b90601f82116114ba575050565b6106de9160046000527f8a35acfbc15ff81a39ae7d344fd709f28e8600b4aa8c65c6b64bfe7fe36bd19b906020601f840160051c83019310611504575b601f0160051c0190611496565b90915081906114f7565b90601f821161151b575050565b6106de9160026000527f405787fa12a823e0f2b7631cc41b3ba8828b3321ca811111fa75cd3aa3bb5ace906020601f840160051c8301931061150457601f0160051c0190611496565b90601f8211611571575050565b6106de9160056000527f036b6384b5eca791c62761152d0c79bb0604c104a5fb6f4eb0703f3154bb3db0906020601f840160051c8301931061150457601f0160051c0190611496565b9190601f81116115c957505050565b6106de926000526020600020906020601f840160051c8301931061150457601f0160051c0190611496565b634e487b7160e01b600052601160045260246000fd5b601f19810191908211610f8b57565b60606008544203428111610f8b576007541091565b604051906020820182811067ffffffffffffffff8211176102bc5760405260008252565b1561165957565b606460405162461bcd60e51b815260206004820152601560248201527f54696d6520696e74657276616c206e6f74206d657400000000000000000000006044820152fd5b9060018201809211610f8b57565b9060208201809211610f8b57565b91908201809211610f8b57565b156116cd57565b606460405162461bcd60e51b815260206004820152601560248201527f55706b656570206e6f74207265676973746572656400000000000000000000006044820152fd5b6040519060e0820182811067ffffffffffffffff8211176102bc57604052606060c08360008152600060208201526000604082015282808201528260808201528260a08201520152565b601c549067ffffffffffffffff82116102bc57604051916020611783818360051b01856102dd565b81845280840190601c6000527f0e4562a10381dec21b205ed72637e6b1b523bdd0e4d4d50af5cd23dd4500a2116000925b8484106117c2575050505050565b60018381926117d085610761565b8152019201930192906117b4565b90816020910312610247575190565b9061181b60809367ffffffffffffffff63ffffffff939897969816845260a0602085015260a0840190610828565b95600160408401521660608201520152565b6040513d6000823e3d90fd5b60009060033d1161184657565b905060046000803e60005160e01c90565b600060443d1061087957604051600319913d83016004833e815167ffffffffffffffff918282113d6024840111176118b5578184019485519384116118bd573d850101602084870101116118b55750610879929101602001906102dd565b949350505050565b50949350505050565b3d156118f1573d906118d7826102ff565b916118e560405193846102dd565b82523d6000602084013e565b606090565b9067ffffffffffffffff909493929416815260209360a08583015260006002549561192087610669565b908160a086015260019788811690816000146119b6575060011461195a575b5050604083019590955263ffffffff16606082015260800152565b600260009081529250877f405787fa12a823e0f2b7631cc41b3ba8828b3321ca811111fa75cd3aa3bb5ace5b8385106119a15750505050820160c0018163ffffffff61193f565b805487860160c0015293820193899101611986565b60ff191660c08781019190915292151560051b8601909201925083915063ffffffff905061193f565b6119e761162e565b506119f96119f3611619565b50611652565b611a0242600855565b611a15611a1060095461169d565b600955565b601b54601c541015611bc457611a34611a2f60135461169d565b601355565b60065467ffffffffffffffff166020611a52600e5463ffffffff1690565b600f5492611a74604051948593849363230e93b160e11b8552600485016118f6565b038160006001600160a01b037f0000000000000000000000000000000000000000000000000000000000000000165af160009181611b94575b50611b5157506001611abd611839565b6308c379a014611aff575b611ace57565b7f9c4bfa18304482256875c29fabb1a44a5ecd325f214ea17bab8f31e869faf4c8611afa61095c6118c6565b0390a1565b611b07611857565b80611b13575b50611ac8565b90507f2ba61e3733e7ac99181c22307780f651ec8fd92fe661a84dfbe711710b2dc36c611b4860009260405191829182610868565b0390a138611b0d565b611b5a81601055565b611b6d611b6860145461169d565b601455565b7f1131472297a800fee664d1d89cfa8f7676ff07189ecc53f80bbb5f4969099db8600080a2565b611bb691925060203d8111611bbd575b611bae81836102dd565b8101906117de565b9038611aad565b503d611ba4565b611bd1600c5415156116c6565b611be3600160ff19600b541617600b55565b611c15611bee611711565b611bff611bf96106a3565b82612200565b611c10611c0a61175b565b82612241565b612015565b611c23611a2f60135461169d565b60065467ffffffffffffffff16611c5f611c42600e5463ffffffff1690565b600f549060405194859463230e93b160e11b8652600486016117ed565b036000916020816001600160a01b03938186867f0000000000000000000000000000000000000000000000000000000000000000165af1839181611e14575b50611dd457506001611cae611839565b6308c379a014611d83575b611d4f575b7f000000000000000000000000000000000000000000000000000000000000000016600c54813b15611d4b576040517f8765ecbe000000000000000000000000000000000000000000000000000000008152600481019190915291908290602490829084905af18015611d4657611d33575b50565b80611d406106de926102a8565b8061023c565b61182d565b8280fd5b7f9c4bfa18304482256875c29fabb1a44a5ecd325f214ea17bab8f31e869faf4c8611d7b61095c6118c6565b0390a1611cbe565b611d8b611857565b80611d97575b50611cb9565b90507f2ba61e3733e7ac99181c22307780f651ec8fd92fe661a84dfbe711710b2dc36c611dcb849260405191829182610868565b0390a138611d91565b611ddd81601055565b611deb611b6860145461169d565b7f1131472297a800fee664d1d89cfa8f7676ff07189ecc53f80bbb5f4969099db88380a2611cbe565b611e2d91925060203d8111611bbd57611bae81836102dd565b9038611c9e565b60405190611e41826102c1565b600c82527f636f64654c6f636174696f6e00000000000000000000000000000000000000006020830152565b634e487b7160e01b600052602160045260246000fd5b60031115611e8d57565b611e6d565b60405190611e9f826102c1565b600882527f6c616e67756167650000000000000000000000000000000000000000000000006020830152565b60011115611e8d57565b60405190611ee2826102c1565b600682527f736f7572636500000000000000000000000000000000000000000000000000006020830152565b60405190611f1b826102c1565b600482527f61726773000000000000000000000000000000000000000000000000000000006020830152565b6000198114610f8b5760010190565b805182101561064e5760209160051b010190565b60405190611f77826102c1565b600f82527f736563726574734c6f636174696f6e00000000000000000000000000000000006020830152565b60405190611fb0826102c1565b600782527f73656372657473000000000000000000000000000000000000000000000000006020830152565b60405190611fe9826102c1565b600982527f62797465734172677300000000000000000000000000000000000000000000006020830152565b61201d612292565b9061202f612029611e34565b836129be565b61204c815161203d81611e83565b61204681611e83565b83612334565b612057612029611e92565b612071604082015161206881611ecb565b61204681611ecb565b61207c612029611ed5565b61208a6060820151836129be565b60a081018051516121a7575b50608081019081515161210f575b60c09150018051516120b7575b50515190565b916120c3612029611fdc565b6120cc82612a43565b60005b835180518210156120fc57906120f26120eb826120f794611f56565b518561290b565b611f47565b6120cf565b5050915061210981612acf565b386120b1565b60208101805161211e81611e83565b61212781611e83565b1561217d5760c09261216061217892612147612141611f6a565b886129be565b5161215181611e83565b61215a81611e83565b86612334565b61217161216b611fa3565b866129be565b518461290b565b6120a4565b60046040517fa80d31f7000000000000000000000000000000000000000000000000000000008152fd5b926121b96121b3611f0e565b846129be565b6121c283612a43565b60005b845180518210156121ed57906120f26121e1826121e894611f56565b51866129be565b6121c5565b505092506121fa82612acf565b38612096565b815115612217576000808252604082015260600152565b60046040517f22ce3edd000000000000000000000000000000000000000000000000000000008152fd5b81511561224e5760a00152565b60046040517ffe936cb7000000000000000000000000000000000000000000000000000000008152fd5b60405190612285826102c1565b6000602083606081520152565b60405161229e816102c1565b6122a6612278565b80825260208201600081526122b9612278565b506101006020830152604051809252600082526101208201918210610247576000916040525290565b906122eb612278565b50601f81168061231a575b50806020830152604051908183526000825281016020019081106102475760405290565b60200360208111610f8b578101809111610f8b57386122f6565b90815191612340612278565b508251516001810190818111610f8b576020850151811015612399575b60c260206106de9651928301015380518211612391575b50506040519160208301526020825261238c826102c1565b61290b565b523880612374565b8160011b9482860460021483151715610f8b576020816123cb6106de986123c460c2955191846122e2565b5082612853565b509650505061235d565b908160011b9180830460021490151715610f8b57565b6123f3612278565b508051516001810190818111610f8b57602083015181101561242c575b605b6020845192830101538051821161242857505090565b5290565b8160011b82810460021483151715610f8b576124559061244e855191866122e2565b5084612853565b50612410565b612463612278565b508051516001810190818111610f8b576020830151811015612498575b605a6020845192830101538051821161242857505090565b8160011b82810460021483151715610f8b576124ba9061244e855191866122e2565b50612480565b6124c8612278565b508051516001810190818111610f8b5760208301518110156124fd575b60596020845192830101538051821161242857505090565b8160011b82810460021483151715610f8b5761251f9061244e855191866122e2565b506124e5565b61252d612278565b508051516001810190818111610f8b576020830151811015612562575b60586020845192830101538051821161242857505090565b8160011b82810460021483151715610f8b576125849061244e855191866122e2565b5061254a565b612592612278565b508051516001810190818111610f8b5760208301518110156125c7575b607b6020845192830101538051821161242857505090565b8160011b82810460021483151715610f8b576125e99061244e855191866122e2565b506125af565b6125f7612278565b508051516001810190818111610f8b57602083015181101561262c575b607a6020845192830101538051821161242857505090565b8160011b82810460021483151715610f8b5761264e9061244e855191866122e2565b50612614565b61265c612278565b508051516001810190818111610f8b576020830151811015612691575b60796020845192830101538051821161242857505090565b8160011b82810460021483151715610f8b576126b39061244e855191866122e2565b50612679565b6126c1612278565b508051516001810190818111610f8b5760208301518110156126f6575b60786020845192830101538051821161242857505090565b8160011b82810460021483151715610f8b576127189061244e855191866122e2565b506126de565b90612727612278565b508151516001810191828211610f8b57602084015182101561275a575b6020845192830101538051821161242857505090565b8260011b83810460021484151715610f8b576127839061277c865191876122e2565b5085612853565b50612744565b90612796825191836122e2565b5061279f612278565b508051906127ab612278565b506127b98151831115612904565b825151926127c783856116b9565b91602092828480940151821161283c575b5183815197820101968211612834575b505001915b8181101561280e5760001991036101000a0190811990511690825116179052565b919261282961282361282f92865181526116ab565b946116ab565b9261160a565b6127ed565b5238806127e8565b61284e612848836123d5565b82612789565b6127d8565b9061285c612278565b508051612867612278565b506128758251821115612904565b8251519161288382846116b9565b60209182918287015181116128ed575b8651838151978201019682116128e5575b505001915b818110156128cb5760001991036101000a019081199051169082511617905290565b91926128296128236128e092865181526116ab565b6128a9565b5238806128a4565b6128ff6128f9826123d5565b88612789565b612893565b1561024757565b8151611d3092919067ffffffffffffffff811690601782116129435761293b9150604060ff84519216179061271e565b505b51612853565b5060ff8111612968576129629061295a8351612525565b508251612c99565b5061293d565b61ffff8111612987576129629061297f83516124c0565b508251612c32565b63ffffffff81116129a857612962906129a0835161245b565b508251612bc9565b612962906129b683516123eb565b508251612b5c565b8151611d3092919067ffffffffffffffff811690601782116129ee5761293b9150606060ff84519216179061271e565b5060ff8111612a05576129629061295a83516126b9565b61ffff8111612a1c576129629061297f8351612654565b63ffffffff8111612a3557612962906129a083516125ef565b612962906129b6835161258a565b805190612a4e612278565b508151516001810190818111610f8b576020840151811015612a9c575b609f6020809551928301015380518211612a94575b50500180519060018201809211610f8b5752565b523880612a80565b8160011b9382850460021483151715610f8b57602081612ac582976123c4609f955191846122e2565b5095505050612a6b565b805190612ada612278565b508151516001810190818111610f8b576020840151811015612b29575b60ff6020809551928301015380518211612b21575b5050018051600019810191908211610f8b5752565b523880612b0c565b8160011b9382850460021483151715610f8b57602081612b5282976123c460ff955191846122e2565b5095505050612af7565b90612b65612278565b50815151806008019182600811610f8b5760208401518311612ba8575b60088451928301019067ffffffffffffffff198251161790528051821161242857505090565b8260011b83810460021484151715610f8b57612bc49085612789565b612b82565b90612bd2612278565b50815151806004019182600411610f8b5760208401518311612c11575b60048451928301019063ffffffff198251161790528051821161242857505090565b8260011b83810460021484151715610f8b57612c2d9085612789565b612bef565b90612c3b612278565b50815151806002019182600211610f8b5760208401518311612c78575b60028451928301019061ffff198251161790528051821161242857505090565b8260011b83810460021484151715610f8b57612c949085612789565b612c58565b90612ca2612278565b50815151806001019182600111610f8b5760208401518311612cde575b60018451928301019060ff198251161790528051821161242857505090565b8260011b83810460021484151715610f8b57612cfa9085612789565b612cbf565b90815167ffffffffffffffff81116102bc57612d2581612d20600554610669565b611564565b602080601f8311600114612d615750819293600092612d56575b50508160011b916000199060031b1c191617600555565b015190503880612d3f565b90601f19831694612d9460056000527f036b6384b5eca791c62761152d0c79bb0604c104a5fb6f4eb0703f3154bb3db090565b926000905b878210612dd1575050836001959610612db8575b505050811b01600555565b015160001960f88460031b161c19169055388080612dad565b80600185968294968601518155019501930190612d99565b602081519101519060208110612dfd575090565b6000199060200360031b1b1690565b601c54680100000000000000008110156102bc57612e31600191828101601c55610617565b929092612f045780519067ffffffffffffffff82116102bc57612e5e82612e588654610669565b866115ba565b60209081601f8411600114612e9a5750928293918392600094612e8f575b50501b916000199060031b1c1916179055565b015192503880612e7c565b919083601f198116612eb188600052602060002090565b946000905b88838310612eea5750505010612ed1575b505050811b019055565b015160001960f88460031b161c19169055388080612ec7565b858701518855909601959485019487935090810190612eb6565b610653565b9091612f2061087993604084526040840190610828565b916020818403910152610828565b15612f3557565b606460405162461bcd60e51b815260206004820152601b60248201527f4572726f20616f207061676172206120696e64656e697a6163616f00000000006044820152fd5b601e54601a541115612fb7576106de6000808080612fa5610bb9610bb96017546001600160a01b031690565b47905af1612fb16118c6565b50612f2e565b60008080806001600160a01b036016541647905af1612fd46118c6565b5015612fdc57565b608460405162461bcd60e51b815260206004820152602d60248201527f4572726f20616f207265746f726e6172206f732066756e646f7320706172612060448201527f6120696e73746974756963616f000000000000000000000000000000000000006064820152fdfea264697066735822122000cc37c7fd80c448b43b0fa62cb6f7852c1c82f41a3a821c1d7f911c055c582564736f6c63430008130033",
  "linkReferences": {},
  "deployedLinkReferences": {}
}