{
  "_format": "hh-sol-artifact-1",
  "contractName": "AutomatedFunctionsConsumer",
  "sourceName": "contracts/AutomatedFunctionsConsumer.sol",
  "abi": [
    {
      "inputs": [
        {
          "internalType": "address",
          "name": "_deployer",
          "type": "address"
        },
        {
          "internalType": "address",
          "name": "_farmer",
          "type": "address"
        },
        {
          "internalType": "uint256",
          "name": "_humidityLimit",
          "type": "uint256"
        },
        {
          "internalType": "uint256",
          "name": "_sampleMaxSize",
          "type": "uint256"
        },
        {
          "internalType": "uint256",
          "name": "_reparationValue",
          "type": "uint256"
        },
        {
          "internalType": "uint256",
          "name": "_updateInterval",
          "type": "uint256"
        },
        {
          "internalType": "address",
          "name": "router",
          "type": "address"
        },
        {
          "internalType": "uint64",
          "name": "_subscriptionId",
          "type": "uint64"
        },
        {
          "internalType": "address",
          "name": "_registry",
          "type": "address"
        },
        {
          "internalType": "address",
          "name": "_sepoliaLINKAddress",
          "type": "address"
        },
        {
          "internalType": "address",
          "name": "_sepoliaRegistrarAddress",
          "type": "address"
        },
        {
          "internalType": "uint32",
          "name": "_fulfillGasLimit",
          "type": "uint32"
        }
      ],
      "stateMutability": "payable",
      "type": "constructor"
    },
    {
      "inputs": [],
      "name": "EmptyArgs",
      "type": "error"
    },
    {
      "inputs": [],
      "name": "EmptySource",
      "type": "error"
    },
    {
      "inputs": [],
      "name": "NoInlineSecrets",
      "type": "error"
    },
    {
      "inputs": [
        {
          "internalType": "address",
          "name": "caller",
          "type": "address"
        },
        {
          "internalType": "address",
          "name": "owner",
          "type": "address"
        },
        {
          "internalType": "address",
          "name": "automationRegistry",
          "type": "address"
        }
      ],
      "name": "NotAllowedCaller",
      "type": "error"
    },
    {
      "inputs": [],
      "name": "OnlyRouterCanFulfill",
      "type": "error"
    },
    {
      "inputs": [
        {
          "internalType": "bytes32",
          "name": "requestId",
          "type": "bytes32"
        }
      ],
      "name": "UnexpectedRequestID",
      "type": "error"
    },
    {
      "anonymous": false,
      "inputs": [
        {
          "indexed": true,
          "internalType": "bytes32",
          "name": "requestId",
          "type": "bytes32"
        },
        {
          "indexed": false,
          "internalType": "bytes",
          "name": "result",
          "type": "bytes"
        },
        {
          "indexed": false,
          "internalType": "bytes",
          "name": "err",
          "type": "bytes"
        }
      ],
      "name": "OCRResponse",
      "type": "event"
    },
    {
      "anonymous": false,
      "inputs": [
        {
          "indexed": true,
          "internalType": "address",
          "name": "from",
          "type": "address"
        },
        {
          "indexed": true,
          "internalType": "address",
          "name": "to",
          "type": "address"
        }
      ],
      "name": "OwnershipTransferRequested",
      "type": "event"
    },
    {
      "anonymous": false,
      "inputs": [
        {
          "indexed": true,
          "internalType": "address",
          "name": "from",
          "type": "address"
        },
        {
          "indexed": true,
          "internalType": "address",
          "name": "to",
          "type": "address"
        }
      ],
      "name": "OwnershipTransferred",
      "type": "event"
    },
    {
      "anonymous": false,
      "inputs": [
        {
          "indexed": true,
          "internalType": "bytes32",
          "name": "id",
          "type": "bytes32"
        }
      ],
      "name": "RequestFulfilled",
      "type": "event"
    },
    {
      "anonymous": false,
      "inputs": [
        {
          "indexed": false,
          "internalType": "string",
          "name": "reason",
          "type": "string"
        }
      ],
      "name": "RequestRevertedWithErrorMsg",
      "type": "event"
    },
    {
      "anonymous": false,
      "inputs": [
        {
          "indexed": false,
          "internalType": "bytes",
          "name": "data",
          "type": "bytes"
        }
      ],
      "name": "RequestRevertedWithoutErrorMsg",
      "type": "event"
    },
    {
      "anonymous": false,
      "inputs": [
        {
          "indexed": true,
          "internalType": "bytes32",
          "name": "id",
          "type": "bytes32"
        }
      ],
      "name": "RequestSent",
      "type": "event"
    },
    {
      "anonymous": false,
      "inputs": [
        {
          "indexed": true,
          "internalType": "bytes32",
          "name": "requestId",
          "type": "bytes32"
        },
        {
          "indexed": false,
          "internalType": "bytes",
          "name": "response",
          "type": "bytes"
        },
        {
          "indexed": false,
          "internalType": "bytes",
          "name": "err",
          "type": "bytes"
        }
      ],
      "name": "Response",
      "type": "event"
    },
    {
      "anonymous": false,
      "inputs": [
        {
          "indexed": false,
          "internalType": "address",
          "name": "upkeepAddress",
          "type": "address"
        }
      ],
      "name": "upkeepCreated",
      "type": "event"
    },
    {
      "anonymous": false,
      "inputs": [
        {
          "indexed": false,
          "internalType": "uint256",
          "name": "upkeepId",
          "type": "uint256"
        }
      ],
      "name": "upkeepRegistered",
      "type": "event"
    },
    {
      "inputs": [],
      "name": "acceptOwnership",
      "outputs": [],
      "stateMutability": "nonpayable",
      "type": "function"
    },
    {
      "inputs": [
        {
          "internalType": "uint96",
          "name": "amount",
          "type": "uint96"
        }
      ],
      "name": "approveLINK",
      "outputs": [],
      "stateMutability": "nonpayable",
      "type": "function"
    },
    {
      "inputs": [],
      "name": "c_upkeep",
      "outputs": [
        {
          "internalType": "contract Upkeep",
          "name": "",
          "type": "address"
        }
      ],
      "stateMutability": "view",
      "type": "function"
    },
    {
      "inputs": [
        {
          "internalType": "bytes",
          "name": "",
          "type": "bytes"
        }
      ],
      "name": "checkUpkeep",
      "outputs": [
        {
          "internalType": "bool",
          "name": "upkeepNeeded",
          "type": "bool"
        },
        {
          "internalType": "bytes",
          "name": "performData",
          "type": "bytes"
        }
      ],
      "stateMutability": "view",
      "type": "function"
    },
    {
      "inputs": [],
      "name": "contractBalance",
      "outputs": [
        {
          "internalType": "uint256",
          "name": "",
          "type": "uint256"
        }
      ],
      "stateMutability": "view",
      "type": "function"
    },
    {
      "inputs": [
        {
          "internalType": "uint96",
          "name": "upkeepFundAmount",
          "type": "uint96"
        }
      ],
      "name": "createUpkeep",
      "outputs": [],
      "stateMutability": "nonpayable",
      "type": "function"
    },
    {
      "inputs": [],
      "name": "donID",
      "outputs": [
        {
          "internalType": "bytes32",
          "name": "",
          "type": "bytes32"
        }
      ],
      "stateMutability": "view",
      "type": "function"
    },
    {
      "inputs": [],
      "name": "farmer",
      "outputs": [
        {
          "internalType": "address",
          "name": "",
          "type": "address"
        }
      ],
      "stateMutability": "view",
      "type": "function"
    },
    {
      "inputs": [],
      "name": "fulfillGasLimit",
      "outputs": [
        {
          "internalType": "uint32",
          "name": "",
          "type": "uint32"
        }
      ],
      "stateMutability": "view",
      "type": "function"
    },
    {
      "inputs": [],
      "name": "gasLimit",
      "outputs": [
        {
          "internalType": "uint32",
          "name": "",
          "type": "uint32"
        }
      ],
      "stateMutability": "view",
      "type": "function"
    },
    {
      "inputs": [
        {
          "internalType": "bytes32",
          "name": "requestId",
          "type": "bytes32"
        },
        {
          "internalType": "bytes",
          "name": "response",
          "type": "bytes"
        },
        {
          "internalType": "bytes",
          "name": "err",
          "type": "bytes"
        }
      ],
      "name": "handleOracleFulfillment",
      "outputs": [],
      "stateMutability": "nonpayable",
      "type": "function"
    },
    {
      "inputs": [],
      "name": "humidityLimit",
      "outputs": [
        {
          "internalType": "uint256",
          "name": "",
          "type": "uint256"
        }
      ],
      "stateMutability": "view",
      "type": "function"
    },
    {
      "inputs": [],
      "name": "institution",
      "outputs": [
        {
          "internalType": "address",
          "name": "",
          "type": "address"
        }
      ],
      "stateMutability": "view",
      "type": "function"
    },
    {
      "inputs": [],
      "name": "lastUpkeepTimeStamp",
      "outputs": [
        {
          "internalType": "uint256",
          "name": "",
          "type": "uint256"
        }
      ],
      "stateMutability": "view",
      "type": "function"
    },
    {
      "inputs": [],
      "name": "latestError",
      "outputs": [
        {
          "internalType": "bytes",
          "name": "",
          "type": "bytes"
        }
      ],
      "stateMutability": "view",
      "type": "function"
    },
    {
      "inputs": [],
      "name": "latestRequestId",
      "outputs": [
        {
          "internalType": "bytes32",
          "name": "",
          "type": "bytes32"
        }
      ],
      "stateMutability": "view",
      "type": "function"
    },
    {
      "inputs": [],
      "name": "latestResponse",
      "outputs": [
        {
          "internalType": "bytes",
          "name": "",
          "type": "bytes"
        }
      ],
      "stateMutability": "view",
      "type": "function"
    },
    {
      "inputs": [],
      "name": "owner",
      "outputs": [
        {
          "internalType": "address",
          "name": "",
          "type": "address"
        }
      ],
      "stateMutability": "view",
      "type": "function"
    },
    {
      "inputs": [
        {
          "internalType": "bytes",
          "name": "",
          "type": "bytes"
        }
      ],
      "name": "performUpkeep",
      "outputs": [],
      "stateMutability": "nonpayable",
      "type": "function"
    },
    {
      "inputs": [
        {
          "components": [
            {
              "internalType": "string",
              "name": "name",
              "type": "string"
            },
            {
              "internalType": "bytes",
              "name": "encryptedEmail",
              "type": "bytes"
            },
            {
              "internalType": "address",
              "name": "upkeepContract",
              "type": "address"
            },
            {
              "internalType": "uint32",
              "name": "gasLimit",
              "type": "uint32"
            },
            {
              "internalType": "address",
              "name": "adminAddress",
              "type": "address"
            },
            {
              "internalType": "uint8",
              "name": "triggerType",
              "type": "uint8"
            },
            {
              "internalType": "bytes",
              "name": "checkData",
              "type": "bytes"
            },
            {
              "internalType": "bytes",
              "name": "triggerConfig",
              "type": "bytes"
            },
            {
              "internalType": "bytes",
              "name": "offchainConfig",
              "type": "bytes"
            },
            {
              "internalType": "uint96",
              "name": "amount",
              "type": "uint96"
            }
          ],
          "internalType": "struct RegistrationParams",
          "name": "params",
          "type": "tuple"
        }
      ],
      "name": "registerUpkeep",
      "outputs": [],
      "stateMutability": "nonpayable",
      "type": "function"
    },
    {
      "inputs": [],
      "name": "registry",
      "outputs": [
        {
          "internalType": "contract IAutomationRegistryConsumer",
          "name": "",
          "type": "address"
        }
      ],
      "stateMutability": "view",
      "type": "function"
    },
    {
      "inputs": [],
      "name": "reparationValue",
      "outputs": [
        {
          "internalType": "uint256",
          "name": "",
          "type": "uint256"
        }
      ],
      "stateMutability": "view",
      "type": "function"
    },
    {
      "inputs": [],
      "name": "request",
      "outputs": [
        {
          "internalType": "bytes",
          "name": "",
          "type": "bytes"
        }
      ],
      "stateMutability": "view",
      "type": "function"
    },
    {
      "inputs": [],
      "name": "requestCBOR",
      "outputs": [
        {
          "internalType": "bytes",
          "name": "",
          "type": "bytes"
        }
      ],
      "stateMutability": "view",
      "type": "function"
    },
    {
      "inputs": [],
      "name": "responseCounter",
      "outputs": [
        {
          "internalType": "uint256",
          "name": "",
          "type": "uint256"
        }
      ],
      "stateMutability": "view",
      "type": "function"
    },
    {
      "inputs": [],
      "name": "s_lastError",
      "outputs": [
        {
          "internalType": "bytes",
          "name": "",
          "type": "bytes"
        }
      ],
      "stateMutability": "view",
      "type": "function"
    },
    {
      "inputs": [],
      "name": "s_lastRequestId",
      "outputs": [
        {
          "internalType": "bytes32",
          "name": "",
          "type": "bytes32"
        }
      ],
      "stateMutability": "view",
      "type": "function"
    },
    {
      "inputs": [],
      "name": "s_lastResponse",
      "outputs": [
        {
          "internalType": "bytes",
          "name": "",
          "type": "bytes"
        }
      ],
      "stateMutability": "view",
      "type": "function"
    },
    {
      "inputs": [],
      "name": "s_requestCounter",
      "outputs": [
        {
          "internalType": "uint256",
          "name": "",
          "type": "uint256"
        }
      ],
      "stateMutability": "view",
      "type": "function"
    },
    {
      "inputs": [],
      "name": "s_responseCounter",
      "outputs": [
        {
          "internalType": "uint256",
          "name": "",
          "type": "uint256"
        }
      ],
      "stateMutability": "view",
      "type": "function"
    },
    {
      "inputs": [],
      "name": "s_upkeepCounter",
      "outputs": [
        {
          "internalType": "uint256",
          "name": "",
          "type": "uint256"
        }
      ],
      "stateMutability": "view",
      "type": "function"
    },
    {
      "inputs": [],
      "name": "sampleMaxSize",
      "outputs": [
        {
          "internalType": "uint256",
          "name": "",
          "type": "uint256"
        }
      ],
      "stateMutability": "view",
      "type": "function"
    },
    {
      "inputs": [
        {
          "internalType": "uint256",
          "name": "",
          "type": "uint256"
        }
      ],
      "name": "sampleStorage",
      "outputs": [
        {
          "internalType": "string",
          "name": "",
          "type": "string"
        }
      ],
      "stateMutability": "view",
      "type": "function"
    },
    {
      "inputs": [],
      "name": "sepoliaLINKAddress",
      "outputs": [
        {
          "internalType": "address",
          "name": "",
          "type": "address"
        }
      ],
      "stateMutability": "view",
      "type": "function"
    },
    {
      "inputs": [],
      "name": "sepoliaRegistrarAddress",
      "outputs": [
        {
          "internalType": "address",
          "name": "",
          "type": "address"
        }
      ],
      "stateMutability": "view",
      "type": "function"
    },
    {
      "inputs": [
        {
          "internalType": "bytes",
          "name": "newRequestCBOR",
          "type": "bytes"
        },
        {
          "internalType": "uint64",
          "name": "_subscriptionId",
          "type": "uint64"
        },
        {
          "internalType": "uint32",
          "name": "_fulfillGasLimit",
          "type": "uint32"
        },
        {
          "internalType": "bytes32",
          "name": "_donID",
          "type": "bytes32"
        },
        {
          "internalType": "uint256",
          "name": "_updateInterval",
          "type": "uint256"
        }
      ],
      "name": "setRequest",
      "outputs": [],
      "stateMutability": "nonpayable",
      "type": "function"
    },
    {
      "inputs": [],
      "name": "subscriptionId",
      "outputs": [
        {
          "internalType": "uint64",
          "name": "",
          "type": "uint64"
        }
      ],
      "stateMutability": "view",
      "type": "function"
    },
    {
      "inputs": [
        {
          "internalType": "address",
          "name": "to",
          "type": "address"
        }
      ],
      "name": "transferOwnership",
      "outputs": [],
      "stateMutability": "nonpayable",
      "type": "function"
    },
    {
      "inputs": [],
      "name": "updateInterval",
      "outputs": [
        {
          "internalType": "uint256",
          "name": "",
          "type": "uint256"
        }
      ],
      "stateMutability": "view",
      "type": "function"
    },
    {
      "inputs": [],
      "name": "upkeepContract",
      "outputs": [
        {
          "internalType": "address",
          "name": "",
          "type": "address"
        }
      ],
      "stateMutability": "view",
      "type": "function"
    },
    {
      "inputs": [],
      "name": "upkeepCounter",
      "outputs": [
        {
          "internalType": "uint256",
          "name": "",
          "type": "uint256"
        }
      ],
      "stateMutability": "view",
      "type": "function"
    },
    {
      "inputs": [],
      "name": "upkeepId",
      "outputs": [
        {
          "internalType": "uint256",
          "name": "",
          "type": "uint256"
        }
      ],
      "stateMutability": "view",
      "type": "function"
    },
    {
      "stateMutability": "payable",
      "type": "receive"
    }
  ],
  "bytecode": "0x60c06001600160401b03601f6200456338819003918201601f191684019183831185841017620002025780859261018094604052833981010312620001fd57620000498262000218565b91620000586020820162000218565b60408201519260608301519060808401519060a0850151956200007e60c0870162000218565b9660e0870151928316809303620001fd576200009e610100880162000218565b93620000ae610120890162000218565b95610160620000c16101408b0162000218565b9901519363ffffffff85168503620001fd576001600160a01b039a8b166080528b8b169b8c15620001b8578b998a91600160a01b60019003199e8f600054161760005560185490600160a81b61010090039060081b1690600160a81b6101009003191617601855168c6019541617601955601c55601d55601b5560075584600654931660a05260401b6bffffffff00000000000000001691600160601b6001900319161717600655168360085416176008551690600954161760095542600f5560405161433590816200022e82396080518181816104ad0152818161242b015261262c015260a05181818161141e015261267e0152f35b60405162461bcd60e51b815260206004820152601860248201527f43616e6e6f7420736574206f776e657220746f207a65726f00000000000000006044820152606490fd5b600080fd5b634e487b7160e01b600052604160045260246000fd5b51906001600160a01b0382168203620001fd5756fe608060405260043610156200001d575b36156200001b57600080fd5b005b60003560e01c8063089ea02e146200031057806309c1ba2e146200030a5780630ca7617514620003045780631243bcc314620002fe5780631aa46f5914620002f857806324b93e3e14620002f2578063277e221314620002ec5780632fc2a7b914620002e6578063338cdca114620002e0578063381fc4b514620002da5780633944ea3a14620002d45780633f678e1114620002ce57806343cd3d8614620002c85780634585e33b14620002c2578063472cbbb014620002bc57806348802b9214620002b657806348bd6f0514620002b05780634b0795a814620002aa5780635e0611f114620002a4578063688ecfd1146200029e5780636baa48fe14620002985780636e04ff0d14620002925780636e74336b146200028c57806379ba509714620002865780637b10399914620002805780638b7afe2e146200027a5780638d7e6d2d14620002745780638da5cb5b146200026e578063a30971391462000268578063a3d3c0d21462000262578063b1e21749146200025c578063bef3a2f01462000256578063c5e146881462000250578063d1384eb6146200024a578063d2aa789f1462000244578063d811fcf0146200023e578063ebf14a551462000238578063f2fde38b1462000232578063f5c1279b146200022c578063f68016b71462000226578063fd2c80ae14620002205763fffeb84e036200000f5762001af0565b62001ad0565b62001aaa565b62001a8a565b620019b1565b62001965565b6200193c565b6200191c565b620018f0565b62001846565b62001791565b62001771565b62001751565b62001731565b62001708565b62001496565b62001442565b620013fc565b62001318565b620012f8565b62001276565b6200124d565b62001198565b6200116f565b620010ba565b6200109a565b6200107a565b62000eaf565b62000dbf565b62000d6e565b62000c3e565b62000b89565b62000b69565b62000a76565b62000a4d565b620009dd565b62000716565b620006f6565b620006cd565b6200044c565b62000347565b62000327565b60009103126200032257565b600080fd5b346200032257600036600319011262000322576020600f54604051908152f35b34620003225760003660031901126200032257602067ffffffffffffffff60065416604051908152f35b634e487b7160e01b600052604160045260246000fd5b67ffffffffffffffff81116200039c57604052565b62000371565b6040810190811067ffffffffffffffff8211176200039c57604052565b90601f8019910116810190811067ffffffffffffffff8211176200039c57604052565b67ffffffffffffffff81116200039c57601f01601f191660200190565b81601f8201121562000322578035906200041982620003e2565b92620004296040519485620003bf565b828452602083830101116200032257816000926020809301838601378301015290565b34620003225760603660031901126200032257600480359067ffffffffffffffff906024358281116200032257620004889036908301620003ff565b6044358381116200032257620004a29036908401620003ff565b906001600160a01b037f0000000000000000000000000000000000000000000000000000000000000000163303620006a45780519384116200039c5782620004f785620004f1889654620007a9565b62001e19565b602080601f8711600114620005f5575094807f7bab0ec163b5c132c72b8146ac4d6e067e82ed58f8b131150aa71c92589115629596600091620005e9575b508160011b916000199060031b1c19161790555b62000554826200384b565b6200056a620005656011546200206b565b601155565b60ff6200057960185460ff1690565b16620005c5576200058a8162003966565b6200059b6040519283928362003a75565b0390a27f85e1543bf2f84fe80c6badbce3648c8539ad1df4d2b3d822938ca0538be727e6600080a2005b620005d9620005d48262003942565b602055565b620005e362003aea565b6200058a565b90508301513862000535565b600460005290601f1987167f8a35acfbc15ff81a39ae7d344fd709f28e8600b4aa8c65c6b64bfe7fe36bd19b926000905b828210620006875750509187917f7bab0ec163b5c132c72b8146ac4d6e067e82ed58f8b131150aa71c92589115629798600194106200066d575b5050811b01905562000549565b85015160001960f88460031b161c19169055388062000660565b8684015185558a9850600190940193928301929081019062000626565b826040517fc6829f83000000000000000000000000000000000000000000000000000000008152fd5b3462000322576000366003190112620003225760206001600160a01b0360085416604051908152f35b346200032257600036600319011262000322576020600354604051908152f35b34620003225760003660031901126200032257602060065463ffffffff6040519160401c168152f35b634e487b7160e01b600052603260045260246000fd5b601e548110156200078d57601e6000527f50bb669a95c7b50b7e8a6f09454034b2b14cf2b85c730dca9a539ca82cb6e3500190600090565b6200073f565b634e487b7160e01b600052600060045260246000fd5b90600182811c92168015620007db575b6020831014620007c557565b634e487b7160e01b600052602260045260246000fd5b91607f1691620007b9565b60405190600082601f5491620007fc83620007a9565b808352926001908181169081156200088c575060011462000829575b506200082792500383620003bf565b565b601f600090815291507fa03837a25210ee280c2113ff4b77ca23440b19d4866cca721c801278fd08d8075b8483106200087057506200082793505081016020013862000818565b81935090816020925483858a0101520191019091859262000854565b9050602092506200082794915060ff191682840152151560051b8201013862000818565b9060405191826000825492620008c684620007a9565b9081845260019485811690816000146200093b5750600114620008f4575b50506200082792500383620003bf565b9093915060005260209081600020936000915b818310620009225750506200082793508201013880620008e4565b8554888401850152948501948794509183019162000907565b9150506200082794506020925060ff191682840152151560051b8201013880620008e4565b60005b8281106200097357506000910152565b60808101518282015260200162000963565b919082519283825260005b848110620009b2575050826000602080949584010152601f8019910116010190565b60208183018101518483018201520162000990565b906020620009da92818152019062000985565b90565b34620003225760203660031901126200032257600435601e54811015620003225762000a3462000a4991601e6000527f50bb669a95c7b50b7e8a6f09454034b2b14cf2b85c730dca9a539ca82cb6e35001620008b0565b60405191829160208352602083019062000985565b0390f35b3462000322576000366003190112620003225760206001600160a01b03600a5416604051908152f35b34620003225760008060031936011262000b66576040519080600c5462000a9d81620007a9565b8085529160019180831690811562000b39575060011462000ad9575b62000a498562000acc81870382620003bf565b60405191829182620009c7565b9250600c83527fdf6966c971051c3d54ec59162606531493a51404a002842f56009d7e5cf4a8c75b82841062000b2057505050810160200162000acc8262000a4962000ab9565b8054602085870181019190915290930192810162000b01565b86955062000a499693506020925062000acc94915060ff191682840152151560051b820101929362000ab9565b80fd5b346200032257600036600319011262000322576020601154604051908152f35b34620003225760008060031936011262000b6657604051908060135462000bb081620007a9565b8085529160019180831690811562000b39575060011462000bde5762000a498562000acc81870382620003bf565b9250601383527f66de8ffda797e3de9c05e8fc57b3bf0ec28a930d40b0d285d93c06501cf6a0905b82841062000c2557505050810160200162000acc8262000a4962000ab9565b8054602085870181019190915290930192810162000c06565b34620003225760031960203682011262000322576004359067ffffffffffffffff821162000322576101409082360301126200032257602062000ce360009262000ca962000c9d6001600160a01b03600a54166001600160a01b031690565b6001600160a01b031690565b906040519485809481937fbc61a4730000000000000000000000000000000000000000000000000000000083526004016004830162001c99565b03925af1801562000d685762000d029160009162000d33575b50600b55565b600b546040519081527f7623383a750b4166574a1b2dff61440ed0dfa3708cbe620c58339cca510d1af990602090a1005b62000d59915060203d811162000d60575b62000d508183620003bf565b81019062001c24565b3862000cfc565b503d62000d44565b62001c18565b346200032257600036600319011262000322576020601754604051908152f35b9181601f84011215620003225782359167ffffffffffffffff83116200032257602083818601950101116200032257565b3462000322576020366003190112620003225760043567ffffffffffffffff8111620003225762000df590369060040162000d8e565b50506000546001600160a01b0316338114158062000e68575b62000e1d576200001b62002368565b601a546040517f426fbc710000000000000000000000000000000000000000000000000000000081523360048201526001600160a01b03928316602482015291166044820152606490fd5b5062000e8062000c9d601a546001600160a01b031690565b33141562000e0e565b6044359063ffffffff821682036200032257565b359063ffffffff821682036200032257565b34620003225760a0366003190112620003225767ffffffffffffffff600435818111620003225762000ee690369060040162000d8e565b60243592918383168403620003225762000eff62000e89565b9262000f0a62001ba5565b82116200039c5762000f298262000f23600254620007a9565b62001e7f565b600090601f831160011462000fd057918062000fac959262000f819460009262000fc4575b50508160011b916000199060031b1c19161760025567ffffffffffffffff1667ffffffffffffffff196006541617600655565b6bffffffff00000000000000006006549160401b16906bffffffff0000000000000000191617600655565b62000fb8606435600e55565b6200001b608435600755565b01359050388062000f4e565b60026000527f405787fa12a823e0f2b7631cc41b3ba8828b3321ca811111fa75cd3aa3bb5ace91601f198416815b81811062001061575092600192859262000f819662000fac99961062001046575b505050811b0160025567ffffffffffffffff1667ffffffffffffffff196006541617600655565b0135600019600384901b60f8161c191690553880806200101f565b9193602060018192878701358155019501920162000ffe565b346200032257600036600319011262000322576020601654604051908152f35b346200032257600036600319011262000322576020601b54604051908152f35b34620003225760008060031936011262000b66576040519080601454620010e181620007a9565b8085529160019180831690811562000b3957506001146200110f5762000a498562000acc81870382620003bf565b9250601483527fce6d7b5282bd9a3661ae061feed1dbda4e52ab073b1f9285be6e155d9c38d4ec5b8284106200115657505050810160200162000acc8262000a4962000ab9565b8054602085870181019190915290930192810162001137565b3462000322576000366003190112620003225760206001600160a01b03601a5416604051908152f35b34620003225760008060031936011262000b66576040519080600254620011bf81620007a9565b8085529160019180831690811562000b395750600114620011ed5762000a498562000acc81870382620003bf565b9250600283527f405787fa12a823e0f2b7631cc41b3ba8828b3321ca811111fa75cd3aa3bb5ace5b8284106200123457505050810160200162000acc8262000a4962000ab9565b8054602085870181019190915290930192810162001215565b3462000322576000366003190112620003225760206001600160a01b0360095416604051908152f35b3462000322576020366003190112620003225760043567ffffffffffffffff81116200032257620012ac903690600401620003ff565b50600f544203428111620012f25760075410604051908152604060208201526060818151806040830152620012e48184840162000960565b601f01601f19168101030190f35b62001f71565b346200032257600036600319011262000322576020600e54604051908152f35b34620003225760008060031936011262000b66576001600160a01b0380600154163303620013b85781546001600160a01b03166000805473ffffffffffffffffffffffffffffffffffffffff191633179055906200138e73ffffffffffffffffffffffffffffffffffffffff1960015416600155565b3391167f8be0079c531659141344cd1fd0a4f28419497f9722a3daafe3b4186f6b6457e08380a380f35b606460405162461bcd60e51b815260206004820152601660248201527f4d7573742062652070726f706f736564206f776e6572000000000000000000006044820152fd5b3462000322576000366003190112620003225760206040516001600160a01b037f0000000000000000000000000000000000000000000000000000000000000000168152f35b34620003225760003660031901126200032257602047604051908152f35b600435906bffffffffffffffffffffffff821682036200032257565b35906bffffffffffffffffffffffff821682036200032257565b34620003225760203660031901126200032257620014b362001460565b6008546001600160a01b031690620014d36009546001600160a01b031690565b916040519261073a8085019185831067ffffffffffffffff8411176200039c5785936200153193869362003bc687396001600160a01b039182168152911660208201526bffffffffffffffffffffffff909116604082015260600190565b0360009283f0801562000d6857620015e691620015736020926001600160a01b031673ffffffffffffffffffffffffffffffffffffffff19600a541617600a55565b6200158e62000c9d62000c9d6008546001600160a01b031690565b620015a562000c9d600a546001600160a01b031690565b8560405180968195829463095ea7b360e01b8452600484019092916bffffffffffffffffffffffff6020916001600160a01b03604085019616845216910152565b03925af1801562000d6857620016d3575b50806200161062000c9d600a546001600160a01b031690565b803b15620016d05781906004604051809481937fb60d42880000000000000000000000000000000000000000000000000000000083525af1801562000d6857620016b2575b507f3583c1105fd29a46b4d92ceeaff8be03cba58a11cce44a3b7da77bbc3798edc4620016ac6200169262000c9d600a546001600160a01b031690565b6040516001600160a01b0390911681529081906020820190565b0390a180f35b80620016c2620016c99262000387565b8062000316565b3862001655565b50fd5b620016f89060203d811162001700575b620016ef8183620003bf565b81019062001bfe565b5038620015f7565b503d620016e3565b3462000322576000366003190112620003225760206001600160a01b0360005416604051908152f35b346200032257600036600319011262000322576020601c54604051908152f35b346200032257600036600319011262000322576020601054604051908152f35b346200032257600036600319011262000322576020601254604051908152f35b34620003225760008060031936011262000b66576040519080600454620017b881620007a9565b8085529160019180831690811562000b395750600114620017e65762000a498562000acc81870382620003bf565b9250600483527f8a35acfbc15ff81a39ae7d344fd709f28e8600b4aa8c65c6b64bfe7fe36bd19b5b8284106200182d57505050810160200162000acc8262000a4962000ab9565b805460208587018101919091529093019281016200180e565b3462000322576020366003190112620003225760006020620018c36200186b62001460565b6200187562001ba5565b6001600160a01b03600854169060405194858094819363095ea7b360e01b835233600484019092916bffffffffffffffffffffffff6020916001600160a01b03604085019616845216910152565b03925af1801562000d6857620018d557005b6200001b9060203d81116200170057620016ef8183620003bf565b3462000322576000366003190112620003225760206001600160a01b0360185460081c16604051908152f35b346200032257600036600319011262000322576020600b54604051908152f35b3462000322576000366003190112620003225760206001600160a01b0360195416604051908152f35b346200032257600036600319011262000322576020601d54604051908152f35b600435906001600160a01b03821682036200032257565b35906001600160a01b03821682036200032257565b346200032257602036600319011262000322576001600160a01b03620019d662001985565b620019e062001ba5565b1633811462001a46578073ffffffffffffffffffffffffffffffffffffffff19600154161760015562001a1f62000c9d6000546001600160a01b031690565b7fed8889f560326eb138920d842192f0eb3dd22b4f139c87a2c57538e05bae1278600080a3005b606460405162461bcd60e51b815260206004820152601760248201527f43616e6e6f74207472616e7366657220746f2073656c660000000000000000006044820152fd5b346200032257600036600319011262000322576020601554604051908152f35b34620003225760003660031901126200032257602063ffffffff600d5416604051908152f35b346200032257600036600319011262000322576020600754604051908152f35b34620003225760008060031936011262000b6657604051908060055462001b1781620007a9565b8085529160019180831690811562000b39575060011462001b455762000a498562000acc81870382620003bf565b9250600583527f036b6384b5eca791c62761152d0c79bb0604c104a5fb6f4eb0703f3154bb3db05b82841062001b8c57505050810160200162000acc8262000a4962000ab9565b8054602085870181019190915290930192810162001b6d565b6001600160a01b0360005416330362001bba57565b606460405162461bcd60e51b815260206004820152601660248201527f4f6e6c792063616c6c61626c65206279206f776e6572000000000000000000006044820152fd5b908160209103126200032257518015158103620003225790565b6040513d6000823e3d90fd5b9081602091031262000322575190565b9035601e19823603018112156200032257016020813591019167ffffffffffffffff8211620003225781360383136200032257565b908060209392818452848401376000828201840152601f01601f1916010190565b359060ff821682036200032257565b620009da906020815262001cce62001ded62001cb6858062001c34565b92906101409384602087015261016086019162001c69565b62001de562001d9d62001cfe62001ce960208a018a62001c34565b601f19898703810160408b0152959162001c69565b62001d2062001d1060408b016200199c565b6001600160a01b03166060890152565b62001d3f62001d3260608b0162000e9d565b63ffffffff166080890152565b62001d6162001d5160808b016200199c565b6001600160a01b031660a0890152565b62001d7d62001d7360a08b0162001c8a565b60ff1660c0890152565b62001d8c60c08a018a62001c34565b90858984030160e08a015262001c69565b62001dd262001dc862001db460e08b018b62001c34565b6101009491878b840301868c015262001c69565b9189018962001c34565b9061012094888403018589015262001c69565b95016200147c565b6bffffffffffffffffffffffff16910152565b81811062001e0c575050565b6000815560010162001e00565b90601f821162001e27575050565b620008279160046000527f8a35acfbc15ff81a39ae7d344fd709f28e8600b4aa8c65c6b64bfe7fe36bd19b906020601f840160051c8301931062001e74575b601f0160051c019062001e00565b909150819062001e66565b90601f821162001e8d575050565b620008279160026000527f405787fa12a823e0f2b7631cc41b3ba8828b3321ca811111fa75cd3aa3bb5ace906020601f840160051c8301931062001e7457601f0160051c019062001e00565b90601f821162001ee7575050565b620008279160056000527f036b6384b5eca791c62761152d0c79bb0604c104a5fb6f4eb0703f3154bb3db0906020601f840160051c8301931062001e7457601f0160051c019062001e00565b9190601f811162001f4357505050565b62000827926000526020600020906020601f840160051c8301931062001e7457601f0160051c019062001e00565b634e487b7160e01b600052601160045260246000fd5b601f19810191908211620012f257565b600f544203428111620012f2576007541090606090565b1562001fb657565b606460405162461bcd60e51b815260206004820152601560248201527f55706b656570206e6f74207265676973746572656400000000000000000000006044820152fd5b604051906020820182811067ffffffffffffffff8211176200039c5760405260008252565b156200202757565b606460405162461bcd60e51b815260206004820152601560248201527f54696d6520696e74657276616c206e6f74206d657400000000000000000000006044820152fd5b9060018201809211620012f257565b9060208201809211620012f257565b91908201809211620012f257565b6040519060e0820182811067ffffffffffffffff8211176200039c57604052606060c08360008152600060208201526000604082015282808201528260808201528260a08201520152565b601e549067ffffffffffffffff82116200039c576040519160206200210d818360051b0185620003bf565b81845280840190601e6000527f50bb669a95c7b50b7e8a6f09454034b2b14cf2b85c730dca9a539ca82cb6e3506000925b8484106200214d575050505050565b60018381926200215d85620008b0565b8152019201930192906200213e565b906200219c60809367ffffffffffffffff63ffffffff939897969816845260a0602085015260a084019062000985565b95600160408401521660608201520152565b60009060033d11620021bc57565b905060046000803e60005160e01c90565b600060443d10620009da57604051600319913d83016004833e815167ffffffffffffffff918282113d602484011117620022315781840194855193841162002239573d85010160208487010111620022315750620009da92910160200190620003bf565b949350505050565b50949350505050565b3d1562002272573d906200225682620003e2565b91620022666040519384620003bf565b82523d6000602084013e565b606090565b9067ffffffffffffffff909493929416815260209360a085830152600060025495620022a387620007a9565b908160a086015260019788811690816000146200233e5750600114620022df575b5050604083019590955263ffffffff16606082015260800152565b600260009081529250877f405787fa12a823e0f2b7631cc41b3ba8828b3321ca811111fa75cd3aa3bb5ace5b838510620023285750505050820160c0018163ffffffff620022c4565b805487860160c00152938201938991016200230b565b60ff191660c08781019190915292151560051b8601909201925083915063ffffffff9050620022c4565b62002377600b54151562001fae565b6200238162001ffa565b50620023976200239062001f97565b506200201f565b620023a142600f55565b620023b7620023b26010546200206b565b601055565b601d54601e5410156200257657620023da620023d56015546200206b565b601555565b60065467ffffffffffffffff166020620023f9600d5463ffffffff1690565b600e54926200241d604051948593849363230e93b160e11b85526004850162002277565b038160006001600160a01b037f0000000000000000000000000000000000000000000000000000000000000000165af16000918162002551575b506200250a575060016200246a620021ae565b6308c379a014620024b1575b6200247d57565b7f9c4bfa18304482256875c29fabb1a44a5ecd325f214ea17bab8f31e869faf4c8620024ac62000acc62002242565b0390a1565b620024bb620021cd565b80620024c9575b5062002476565b90507f2ba61e3733e7ac99181c22307780f651ec8fd92fe661a84dfbe711710b2dc36c6200250060009260405191829182620009c7565b0390a138620024c2565b6200251481601255565b6200252a620025256016546200206b565b601655565b7f1131472297a800fee664d1d89cfa8f7676ff07189ecc53f80bbb5f4969099db8600080a2565b6200256e91925060203d811162000d605762000d508183620003bf565b903862002457565b62002589600160ff196018541617601855565b620025c76200259762002097565b620025ac620025a5620007e6565b8262002c33565b620025c1620025ba620020e2565b8262002c75565b620029f6565b620025d8620023d56015546200206b565b60065467ffffffffffffffff1662002617620025f9600d5463ffffffff1690565b600e549060405194859463230e93b160e11b8652600486016200216c565b036000916020816001600160a01b03938186867f0000000000000000000000000000000000000000000000000000000000000000165af1839181620027dd575b5062002798575060016200266a620021ae565b6308c379a01462002740575b62002708575b7f000000000000000000000000000000000000000000000000000000000000000016600b54813b1562002704576040517f8765ecbe000000000000000000000000000000000000000000000000000000008152600481019190915291908290602490829084905af1801562000d6857620026f4575b50565b80620016c2620008279262000387565b8280fd5b7f9c4bfa18304482256875c29fabb1a44a5ecd325f214ea17bab8f31e869faf4c86200273762000acc62002242565b0390a16200267c565b6200274a620021cd565b8062002758575b5062002676565b90507f2ba61e3733e7ac99181c22307780f651ec8fd92fe661a84dfbe711710b2dc36c6200278e849260405191829182620009c7565b0390a13862002751565b620027a281601255565b620027b3620025256016546200206b565b7f1131472297a800fee664d1d89cfa8f7676ff07189ecc53f80bbb5f4969099db88380a26200267c565b620027fa91925060203d811162000d605762000d508183620003bf565b903862002657565b604051906200281182620003a2565b600c82527f636f64654c6f636174696f6e00000000000000000000000000000000000000006020830152565b634e487b7160e01b600052602160045260246000fd5b600311156200285e57565b6200283d565b604051906200287382620003a2565b600882527f6c616e67756167650000000000000000000000000000000000000000000000006020830152565b600111156200285e57565b60405190620028b982620003a2565b600682527f736f7572636500000000000000000000000000000000000000000000000000006020830152565b60405190620028f482620003a2565b600482527f61726773000000000000000000000000000000000000000000000000000000006020830152565b6000198114620012f25760010190565b80518210156200078d5760209160051b010190565b604051906200295482620003a2565b600f82527f736563726574734c6f636174696f6e00000000000000000000000000000000006020830152565b604051906200298f82620003a2565b600782527f73656372657473000000000000000000000000000000000000000000000000006020830152565b60405190620029ca82620003a2565b600982527f62797465734172677300000000000000000000000000000000000000000000006020830152565b62002a0062002cc9565b9062002a1662002a0f62002802565b83620034bb565b62002a39815162002a278162002853565b62002a328162002853565b8362002d79565b62002a4762002a0f62002864565b62002a66604082015162002a5b816200289f565b62002a32816200289f565b62002a7462002a0f620028aa565b62002a84606082015183620034bb565b60a0810180515162002bca575b50608081019081515162002b1c575b60c091500180515162002ab4575b50515190565b9162002ac362002a0f620029bb565b62002ace8262003553565b60005b8351805182101562002b06579062002afa62002af28262002b009462002930565b5185620033ef565b62002920565b62002ad1565b5050915062002b1581620035eb565b3862002aae565b60208101805162002b2d8162002853565b62002b388162002853565b1562002ba05760c09262002b7d62002b9a9262002b5f62002b5862002945565b88620034bb565b5162002b6b8162002853565b62002b768162002853565b8662002d79565b62002b9262002b8b62002980565b86620034bb565b5184620033ef565b62002aa0565b60046040517fa80d31f7000000000000000000000000000000000000000000000000000000008152fd5b9262002be062002bd9620028e5565b84620034bb565b62002beb8362003553565b60005b8451805182101562002c1d579062002afa62002c0f8262002c179462002930565b5186620034bb565b62002bee565b5050925062002c2c82620035eb565b3862002a91565b81511562002c4b576000808252604082015260600152565b60046040517f22ce3edd000000000000000000000000000000000000000000000000000000008152fd5b81511562002c835760a00152565b60046040517ffe936cb7000000000000000000000000000000000000000000000000000000008152fd5b6040519062002cbc82620003a2565b6000602083606081520152565b60405162002cd781620003a2565b62002ce162002cad565b808252602082016000815262002cf662002cad565b50610100602083015260405180925260008252610120820191821062000322576000916040525290565b9062002d2b62002cad565b50601f81168062002d5c575b5080602083015260405190818352600082528101602001908110620003225760405290565b60200360208111620012f2578101809111620012f2573862002d37565b9081519162002d8762002cad565b508251516001810190818111620012f257602085015181101562002de8575b60c2602062000827965192830101538051821162002ddf575b50506040519160208301526020825262002dd982620003a2565b620033ef565b52388062002dbf565b8160011b9482860460021483151715620012f25760208162002e20620008279862002e1860c29551918462002d20565b508262003320565b509650505062002da6565b908160011b9180830460021490151715620012f257565b62002e4c62002cad565b508051516001810190818111620012f257602083015181101562002e88575b605b6020845192830101538051821162002e8457505090565b5290565b8160011b82810460021483151715620012f25762002eb69062002eae8551918662002d20565b508462003320565b5062002e6b565b62002ec762002cad565b508051516001810190818111620012f257602083015181101562002eff575b605a6020845192830101538051821162002e8457505090565b8160011b82810460021483151715620012f25762002f259062002eae8551918662002d20565b5062002ee6565b62002f3662002cad565b508051516001810190818111620012f257602083015181101562002f6e575b60596020845192830101538051821162002e8457505090565b8160011b82810460021483151715620012f25762002f949062002eae8551918662002d20565b5062002f55565b62002fa562002cad565b508051516001810190818111620012f257602083015181101562002fdd575b60586020845192830101538051821162002e8457505090565b8160011b82810460021483151715620012f257620030039062002eae8551918662002d20565b5062002fc4565b6200301462002cad565b508051516001810190818111620012f25760208301518110156200304c575b607b6020845192830101538051821162002e8457505090565b8160011b82810460021483151715620012f257620030729062002eae8551918662002d20565b5062003033565b6200308362002cad565b508051516001810190818111620012f2576020830151811015620030bb575b607a6020845192830101538051821162002e8457505090565b8160011b82810460021483151715620012f257620030e19062002eae8551918662002d20565b50620030a2565b620030f262002cad565b508051516001810190818111620012f25760208301518110156200312a575b60796020845192830101538051821162002e8457505090565b8160011b82810460021483151715620012f257620031509062002eae8551918662002d20565b5062003111565b6200316162002cad565b508051516001810190818111620012f257602083015181101562003199575b60786020845192830101538051821162002e8457505090565b8160011b82810460021483151715620012f257620031bf9062002eae8551918662002d20565b5062003180565b90620031d162002cad565b508151516001810191828211620012f257602084015182101562003207575b6020845192830101538051821162002e8457505090565b8260011b83810460021484151715620012f25762003235906200322d8651918762002d20565b508562003320565b50620031f0565b906200324b8251918362002d20565b506200325662002cad565b508051906200326462002cad565b50620032748151831115620033e7565b8251519262003284838562002089565b91602092828480940151821162003304575b5183815197820101968211620032fb575b505001915b81811015620032ce5760001991036101000a0190811990511690825116179052565b9192620032ee620032e7620032f592865181526200207a565b946200207a565b9262001f87565b620032ac565b523880620032a7565b6200331a620033138362002e2b565b826200323c565b62003296565b906200332b62002cad565b5080516200333862002cad565b50620033488251821115620033e7565b8251519162003358828462002089565b6020918291828701518111620033cb575b865183815197820101968211620033c2575b505001915b81811015620033a35760001991036101000a019081199051169082511617905290565b9192620032ee620032e7620033bc92865181526200207a565b62003380565b5238806200337b565b620033e1620033da8262002e2b565b886200323c565b62003369565b156200032257565b8151620026f192919067ffffffffffffffff811690601782116200342c57620034239150604060ff845192161790620031c6565b505b5162003320565b5060ff81116200345757620034509062003447835162002f9b565b508251620037dc565b5062003425565b61ffff81116200347b57620034509062003472835162002f2c565b5082516200376c565b63ffffffff8111620034a157620034509062003498835162002ebd565b508251620036fa565b6200345090620034b2835162002e42565b50825162003684565b8151620026f192919067ffffffffffffffff81169060178211620034ef57620034239150606060ff845192161790620031c6565b5060ff81116200350a57620034509062003447835162003157565b61ffff811162003525576200345090620034728351620030e8565b63ffffffff81116200354257620034509062003498835162003079565b6200345090620034b283516200300a565b8051906200356062002cad565b508151516001810190818111620012f2576020840151811015620035b3575b609f6020809551928301015380518211620035aa575b50500180519060018201809211620012f25752565b52388062003595565b8160011b9382850460021483151715620012f257602081620035e0829762002e18609f9551918462002d20565b50955050506200357f565b805190620035f862002cad565b508151516001810190818111620012f25760208401518110156200364c575b60ff602080955192830101538051821162003643575b5050018051600019810191908211620012f25752565b5238806200362d565b8160011b9382850460021483151715620012f25760208162003679829762002e1860ff9551918462002d20565b509550505062003617565b906200368f62002cad565b50815151806008019182600811620012f25760208401518311620036d5575b60088451928301019067ffffffffffffffff198251161790528051821162002e8457505090565b8260011b83810460021484151715620012f257620036f490856200323c565b620036ae565b906200370562002cad565b50815151806004019182600411620012f2576020840151831162003747575b60048451928301019063ffffffff198251161790528051821162002e8457505090565b8260011b83810460021484151715620012f2576200376690856200323c565b62003724565b906200377762002cad565b50815151806002019182600211620012f25760208401518311620037b7575b60028451928301019061ffff198251161790528051821162002e8457505090565b8260011b83810460021484151715620012f257620037d690856200323c565b62003796565b90620037e762002cad565b50815151806001019182600111620012f2576020840151831162003826575b60018451928301019060ff198251161790528051821162002e8457505090565b8260011b83810460021484151715620012f2576200384590856200323c565b62003806565b90815167ffffffffffffffff81116200039c57620038768162003870600554620007a9565b62001ed9565b602080601f8311600114620038b55750819293600092620038a9575b50508160011b916000199060031b1c191617600555565b01519050388062003892565b90601f19831694620038e960056000527f036b6384b5eca791c62761152d0c79bb0604c104a5fb6f4eb0703f3154bb3db090565b926000905b878210620039295750508360019596106200390f575b505050811b01600555565b015160001960f88460031b161c1916905538808062003904565b80600185968294968601518155019501930190620038ee565b60208151910151906020811062003957575090565b6000199060200360031b1b1690565b601e54680100000000000000008110156200039c576200398e600191828101601e5562000755565b92909262003a6f5780519067ffffffffffffffff82116200039c57620039c182620039ba8654620007a9565b8662001f33565b60209081601f841160011462003a005750928293918392600094620039f4575b50501b916000199060031b1c1916179055565b015192503880620039e1565b919083601f19811662003a1888600052602060002090565b946000905b8883831062003a54575050501062003a3a575b505050811b019055565b015160001960f88460031b161c1916905538808062003a30565b85870151885590960195948501948793509081019062003a1d565b62000793565b909162003a8f620009da9360408452604084019062000985565b91602081840391015262000985565b1562003aa657565b606460405162461bcd60e51b815260206004820152601b60248201527f4572726f20616f207061676172206120696e64656e697a6163616f00000000006044820152fd5b602054601c54111562003b305762000827600080808062003b1b62000c9d62000c9d6019546001600160a01b031690565b47905af162003b2962002242565b5062003a9e565b60008080806001600160a01b0360185460081c1647905af162003b5262002242565b501562003b5b57565b608460405162461bcd60e51b815260206004820152602d60248201527f4572726f20616f207265746f726e6172206f732066756e646f7320706172612060448201527f6120696e73746974756963616f000000000000000000000000000000000000006064820152fdfe60c0346100bc57601f61073a38819003918201601f19168301916001600160401b038311848410176100c1578084926060946040528339810103126100bc57610047816100d7565b906040610056602083016100d7565b9101516001600160601b03811692908390036100bc5760805260a052600180546001600160601b03191691909117905560405161064e90816100ec8239608051818181610114015281816101990152610373015260a0518181816101dc015261033b0152f35b600080fd5b634e487b7160e01b600052604160045260246000fd5b51906001600160a01b03821682036100bc5756fe60806040818152600436101561001457600080fd5b600091823560e01c90816301619d3d1461020057508063442b1278146101bd5780637d253aff1461017a578063b60d4288146100a95763bc61a4731461005957600080fd5b346100a557600319916020368401126100a2576004359267ffffffffffffffff84116100a5576101409084360301126100a2575061009b6020926004016102e6565b9051908152f35b80fd5b5080fd5b50346100a557816003193601126100a5576bffffffffffffffffffffffff60015416908051917f23b872dd0000000000000000000000000000000000000000000000000000000083523360048401523060248401526044830152602082606481866001600160a01b037f0000000000000000000000000000000000000000000000000000000000000000165af19081156101715750610146575080f35b6101669060203d811161016a575b61015e818361022a565b810190610262565b5080f35b503d610154565b513d84823e3d90fd5b50346100a557816003193601126100a557602090516001600160a01b037f0000000000000000000000000000000000000000000000000000000000000000168152f35b50346100a557816003193601126100a557602090516001600160a01b037f0000000000000000000000000000000000000000000000000000000000000000168152f35b8390346100a557816003193601126100a5576020906bffffffffffffffffffffffff600154168152f35b90601f8019910116810190811067ffffffffffffffff82111761024c57604052565b634e487b7160e01b600052604160045260246000fd5b9081602091031261027a5751801515810361027a5790565b600080fd5b9035601e198236030181121561027a57016020813591019167ffffffffffffffff821161027a57813603831361027a57565b908060209392818452848401376000828201840152601f01601f1916010190565b35906001600160a01b038216820361027a57565b90600091610120810135906bffffffffffffffffffffffff82168092036105ed5760408051917f095ea7b30000000000000000000000000000000000000000000000000000000083526001600160a01b0390817f00000000000000000000000000000000000000000000000000000000000000001680600486015285602486015260209485816044818c887f0000000000000000000000000000000000000000000000000000000000000000165af1801561060e576105f1575b508351957f3f678e11000000000000000000000000000000000000000000000000000000008752856004880152886103ee6103db858061027f565b61014060248c01526101648b01916102b1565b916104126103fe8987018761027f565b6023198c8703810160448e015295916102b1565b958061041f8988016102d2565b1660648b0152606086013563ffffffff81168091036105ed5760848b0152610449608087016102d2565b1660a48a015260a08501359060ff82168092036105e9576104d08a9687956104c06104b46104968e9c8a9860c48a015261048660c087018761027f565b90868b84030160e48c01526102b1565b6104a360e086018661027f565b90858a8403016101048b01526102b1565b9261010081019061027f565b91868403016101248701526102b1565b9061014483015203925af19283156105df5785936105ac575b50821561054f573385528482528420908154916801000000000000000083101561053b57600183018082558310156105275794839495815220015590565b602486634e487b7160e01b81526032600452fd5b602486634e487b7160e01b81526041600452fd5b6064925051907f08c379a00000000000000000000000000000000000000000000000000000000082526004820152601560248201527f6175746f2d617070726f76652064697361626c656400000000000000000000006044820152fd5b9092508181813d83116105d8575b6105c4818361022a565b810103126105d4575191386104e9565b8480fd5b503d6105ba565b81513d87823e3d90fd5b8280fd5b8380fd5b61060790863d881161016a5761015e818361022a565b50386103a0565b85513d8b823e3d90fdfea26469706673582212209ca455be61c45d9c7e515967f303b8ab4a822792fd7267d08664d38b1d82e42764736f6c63430008130033a2646970667358221220a13bd07937e29fd65bf8f7454f48cd2454140c2ff9e91cca4f6626b5a9f0512564736f6c63430008130033",
  "linkReferences": {},
  "deployedLinkReferences": {}
}