{
  "_format": "hh-sol-artifact-1",
  "contractName": "AutomatedFunctionsConsumer",
  "sourceName": "contracts/AutomatedFunctionsConsumer.sol",
  "abi": [
    {
      "inputs": [
        {
          "internalType": "address",
          "name": "_deployer",
          "type": "address"
        },
        {
          "internalType": "address",
          "name": "_farmer",
          "type": "address"
        },
        {
          "internalType": "string",
          "name": "_farmName",
          "type": "string"
        },
        {
          "internalType": "uint256",
          "name": "_humidityLimit",
          "type": "uint256"
        },
        {
          "internalType": "uint256",
          "name": "_sampleMaxSize",
          "type": "uint256"
        },
        {
          "internalType": "uint256",
          "name": "_reparationValue",
          "type": "uint256"
        },
        {
          "internalType": "uint256",
          "name": "_updateInterval",
          "type": "uint256"
        },
        {
          "internalType": "address",
          "name": "router",
          "type": "address"
        },
        {
          "internalType": "address",
          "name": "_registry",
          "type": "address"
        },
        {
          "internalType": "address",
          "name": "_sepoliaLINKAddress",
          "type": "address"
        },
        {
          "internalType": "address",
          "name": "_sepoliaRegistrarAddress",
          "type": "address"
        },
        {
          "internalType": "uint32",
          "name": "_fulfillGasLimit",
          "type": "uint32"
        },
        {
          "internalType": "bytes32",
          "name": "_donID",
          "type": "bytes32"
        },
        {
          "internalType": "string",
          "name": "_metricJS",
          "type": "string"
        }
      ],
      "stateMutability": "payable",
      "type": "constructor"
    },
    {
      "inputs": [],
      "name": "EmptyArgs",
      "type": "error"
    },
    {
      "inputs": [],
      "name": "EmptySource",
      "type": "error"
    },
    {
      "inputs": [],
      "name": "NoInlineSecrets",
      "type": "error"
    },
    {
      "inputs": [
        {
          "internalType": "address",
          "name": "caller",
          "type": "address"
        },
        {
          "internalType": "address",
          "name": "owner",
          "type": "address"
        },
        {
          "internalType": "address",
          "name": "automationRegistry",
          "type": "address"
        }
      ],
      "name": "NotAllowedCaller",
      "type": "error"
    },
    {
      "inputs": [],
      "name": "OnlyRouterCanFulfill",
      "type": "error"
    },
    {
      "inputs": [
        {
          "internalType": "bytes32",
          "name": "requestId",
          "type": "bytes32"
        }
      ],
      "name": "UnexpectedRequestID",
      "type": "error"
    },
    {
      "anonymous": false,
      "inputs": [
        {
          "indexed": false,
          "internalType": "uint96",
          "name": "amountRetrieved",
          "type": "uint96"
        }
      ],
      "name": "LINKsRetrieved",
      "type": "event"
    },
    {
      "anonymous": false,
      "inputs": [
        {
          "indexed": true,
          "internalType": "bytes32",
          "name": "requestId",
          "type": "bytes32"
        },
        {
          "indexed": false,
          "internalType": "bytes",
          "name": "result",
          "type": "bytes"
        },
        {
          "indexed": false,
          "internalType": "bytes",
          "name": "err",
          "type": "bytes"
        }
      ],
      "name": "OCRResponse",
      "type": "event"
    },
    {
      "anonymous": false,
      "inputs": [
        {
          "indexed": true,
          "internalType": "address",
          "name": "from",
          "type": "address"
        },
        {
          "indexed": true,
          "internalType": "address",
          "name": "to",
          "type": "address"
        }
      ],
      "name": "OwnershipTransferRequested",
      "type": "event"
    },
    {
      "anonymous": false,
      "inputs": [
        {
          "indexed": true,
          "internalType": "address",
          "name": "from",
          "type": "address"
        },
        {
          "indexed": true,
          "internalType": "address",
          "name": "to",
          "type": "address"
        }
      ],
      "name": "OwnershipTransferred",
      "type": "event"
    },
    {
      "anonymous": false,
      "inputs": [
        {
          "indexed": true,
          "internalType": "bytes32",
          "name": "id",
          "type": "bytes32"
        }
      ],
      "name": "RequestFulfilled",
      "type": "event"
    },
    {
      "anonymous": false,
      "inputs": [
        {
          "indexed": false,
          "internalType": "string",
          "name": "reason",
          "type": "string"
        }
      ],
      "name": "RequestRevertedWithErrorMsg",
      "type": "event"
    },
    {
      "anonymous": false,
      "inputs": [
        {
          "indexed": false,
          "internalType": "bytes",
          "name": "data",
          "type": "bytes"
        }
      ],
      "name": "RequestRevertedWithoutErrorMsg",
      "type": "event"
    },
    {
      "anonymous": false,
      "inputs": [
        {
          "indexed": true,
          "internalType": "bytes32",
          "name": "id",
          "type": "bytes32"
        }
      ],
      "name": "RequestSent",
      "type": "event"
    },
    {
      "anonymous": false,
      "inputs": [
        {
          "indexed": true,
          "internalType": "bytes32",
          "name": "requestId",
          "type": "bytes32"
        },
        {
          "indexed": false,
          "internalType": "bytes",
          "name": "response",
          "type": "bytes"
        },
        {
          "indexed": false,
          "internalType": "bytes",
          "name": "err",
          "type": "bytes"
        }
      ],
      "name": "Response",
      "type": "event"
    },
    {
      "anonymous": false,
      "inputs": [
        {
          "indexed": false,
          "internalType": "uint256",
          "name": "num",
          "type": "uint256"
        }
      ],
      "name": "avgCalculated",
      "type": "event"
    },
    {
      "anonymous": false,
      "inputs": [
        {
          "indexed": false,
          "internalType": "string",
          "name": "converted",
          "type": "string"
        }
      ],
      "name": "convertedResponse",
      "type": "event"
    },
    {
      "anonymous": false,
      "inputs": [
        {
          "indexed": false,
          "internalType": "uint256",
          "name": "counter",
          "type": "uint256"
        }
      ],
      "name": "performCalled",
      "type": "event"
    },
    {
      "anonymous": false,
      "inputs": [
        {
          "indexed": false,
          "internalType": "address",
          "name": "sndr",
          "type": "address"
        }
      ],
      "name": "sender",
      "type": "event"
    },
    {
      "anonymous": false,
      "inputs": [
        {
          "indexed": false,
          "internalType": "uint256",
          "name": "upkeepId",
          "type": "uint256"
        }
      ],
      "name": "upkeepCanceled",
      "type": "event"
    },
    {
      "anonymous": false,
      "inputs": [
        {
          "indexed": false,
          "internalType": "address",
          "name": "upkeepAddress",
          "type": "address"
        }
      ],
      "name": "upkeepCreated",
      "type": "event"
    },
    {
      "anonymous": false,
      "inputs": [
        {
          "indexed": false,
          "internalType": "uint256",
          "name": "upkeepId",
          "type": "uint256"
        }
      ],
      "name": "upkeepRegistered",
      "type": "event"
    },
    {
      "inputs": [],
      "name": "acceptOwnership",
      "outputs": [],
      "stateMutability": "nonpayable",
      "type": "function"
    },
    {
      "inputs": [],
      "name": "addressPaid",
      "outputs": [
        {
          "internalType": "uint8",
          "name": "",
          "type": "uint8"
        }
      ],
      "stateMutability": "view",
      "type": "function"
    },
    {
      "inputs": [],
      "name": "c_upkeep",
      "outputs": [
        {
          "internalType": "contract Upkeep",
          "name": "",
          "type": "address"
        }
      ],
      "stateMutability": "view",
      "type": "function"
    },
    {
      "inputs": [
        {
          "internalType": "bytes",
          "name": "",
          "type": "bytes"
        }
      ],
      "name": "checkUpkeep",
      "outputs": [
        {
          "internalType": "bool",
          "name": "upkeepNeeded",
          "type": "bool"
        },
        {
          "internalType": "bytes",
          "name": "",
          "type": "bytes"
        }
      ],
      "stateMutability": "view",
      "type": "function"
    },
    {
      "inputs": [],
      "name": "contractBalance",
      "outputs": [
        {
          "internalType": "uint256",
          "name": "",
          "type": "uint256"
        }
      ],
      "stateMutability": "view",
      "type": "function"
    },
    {
      "inputs": [
        {
          "internalType": "uint96",
          "name": "upkeepFundAmount",
          "type": "uint96"
        }
      ],
      "name": "createUpkeep",
      "outputs": [],
      "stateMutability": "nonpayable",
      "type": "function"
    },
    {
      "inputs": [],
      "name": "deployer",
      "outputs": [
        {
          "internalType": "address",
          "name": "",
          "type": "address"
        }
      ],
      "stateMutability": "view",
      "type": "function"
    },
    {
      "inputs": [],
      "name": "donID",
      "outputs": [
        {
          "internalType": "bytes32",
          "name": "",
          "type": "bytes32"
        }
      ],
      "stateMutability": "view",
      "type": "function"
    },
    {
      "inputs": [],
      "name": "farmName",
      "outputs": [
        {
          "internalType": "string",
          "name": "",
          "type": "string"
        }
      ],
      "stateMutability": "view",
      "type": "function"
    },
    {
      "inputs": [],
      "name": "farmer",
      "outputs": [
        {
          "internalType": "address",
          "name": "",
          "type": "address"
        }
      ],
      "stateMutability": "view",
      "type": "function"
    },
    {
      "inputs": [],
      "name": "fulfillGasLimit",
      "outputs": [
        {
          "internalType": "uint32",
          "name": "",
          "type": "uint32"
        }
      ],
      "stateMutability": "view",
      "type": "function"
    },
    {
      "inputs": [],
      "name": "getAllSamples",
      "outputs": [
        {
          "internalType": "string[]",
          "name": "",
          "type": "string[]"
        }
      ],
      "stateMutability": "view",
      "type": "function"
    },
    {
      "inputs": [],
      "name": "getAllSamplesTimestamps",
      "outputs": [
        {
          "internalType": "string[]",
          "name": "",
          "type": "string[]"
        }
      ],
      "stateMutability": "view",
      "type": "function"
    },
    {
      "inputs": [
        {
          "internalType": "bytes32",
          "name": "requestId",
          "type": "bytes32"
        },
        {
          "internalType": "bytes",
          "name": "response",
          "type": "bytes"
        },
        {
          "internalType": "bytes",
          "name": "err",
          "type": "bytes"
        }
      ],
      "name": "handleOracleFulfillment",
      "outputs": [],
      "stateMutability": "nonpayable",
      "type": "function"
    },
    {
      "inputs": [],
      "name": "humidityLimit",
      "outputs": [
        {
          "internalType": "uint256",
          "name": "",
          "type": "uint256"
        }
      ],
      "stateMutability": "view",
      "type": "function"
    },
    {
      "inputs": [],
      "name": "lastUpkeepTimeStamp",
      "outputs": [
        {
          "internalType": "uint256",
          "name": "",
          "type": "uint256"
        }
      ],
      "stateMutability": "view",
      "type": "function"
    },
    {
      "inputs": [],
      "name": "owner",
      "outputs": [
        {
          "internalType": "address",
          "name": "",
          "type": "address"
        }
      ],
      "stateMutability": "view",
      "type": "function"
    },
    {
      "inputs": [
        {
          "internalType": "bytes",
          "name": "",
          "type": "bytes"
        }
      ],
      "name": "performUpkeep",
      "outputs": [],
      "stateMutability": "nonpayable",
      "type": "function"
    },
    {
      "inputs": [
        {
          "components": [
            {
              "internalType": "string",
              "name": "name",
              "type": "string"
            },
            {
              "internalType": "bytes",
              "name": "encryptedEmail",
              "type": "bytes"
            },
            {
              "internalType": "address",
              "name": "upkeepContract",
              "type": "address"
            },
            {
              "internalType": "uint32",
              "name": "gasLimit",
              "type": "uint32"
            },
            {
              "internalType": "address",
              "name": "adminAddress",
              "type": "address"
            },
            {
              "internalType": "uint8",
              "name": "triggerType",
              "type": "uint8"
            },
            {
              "internalType": "bytes",
              "name": "checkData",
              "type": "bytes"
            },
            {
              "internalType": "bytes",
              "name": "triggerConfig",
              "type": "bytes"
            },
            {
              "internalType": "bytes",
              "name": "offchainConfig",
              "type": "bytes"
            },
            {
              "internalType": "uint96",
              "name": "amount",
              "type": "uint96"
            }
          ],
          "internalType": "struct RegistrationParams",
          "name": "params",
          "type": "tuple"
        }
      ],
      "name": "registerUpkeep",
      "outputs": [],
      "stateMutability": "nonpayable",
      "type": "function"
    },
    {
      "inputs": [],
      "name": "registry",
      "outputs": [
        {
          "internalType": "contract IAutomationRegistryConsumer",
          "name": "",
          "type": "address"
        }
      ],
      "stateMutability": "view",
      "type": "function"
    },
    {
      "inputs": [],
      "name": "reparationValue",
      "outputs": [
        {
          "internalType": "uint256",
          "name": "",
          "type": "uint256"
        }
      ],
      "stateMutability": "view",
      "type": "function"
    },
    {
      "inputs": [],
      "name": "request",
      "outputs": [
        {
          "internalType": "bytes",
          "name": "",
          "type": "bytes"
        }
      ],
      "stateMutability": "view",
      "type": "function"
    },
    {
      "inputs": [],
      "name": "requestCBOR",
      "outputs": [
        {
          "internalType": "bytes",
          "name": "",
          "type": "bytes"
        }
      ],
      "stateMutability": "view",
      "type": "function"
    },
    {
      "inputs": [],
      "name": "responseCounter",
      "outputs": [
        {
          "internalType": "uint256",
          "name": "",
          "type": "uint256"
        }
      ],
      "stateMutability": "view",
      "type": "function"
    },
    {
      "inputs": [],
      "name": "s_lastRequestId",
      "outputs": [
        {
          "internalType": "bytes32",
          "name": "",
          "type": "bytes32"
        }
      ],
      "stateMutability": "view",
      "type": "function"
    },
    {
      "inputs": [],
      "name": "s_requestCounter",
      "outputs": [
        {
          "internalType": "uint256",
          "name": "",
          "type": "uint256"
        }
      ],
      "stateMutability": "view",
      "type": "function"
    },
    {
      "inputs": [],
      "name": "sampleMaxSize",
      "outputs": [
        {
          "internalType": "uint256",
          "name": "",
          "type": "uint256"
        }
      ],
      "stateMutability": "view",
      "type": "function"
    },
    {
      "inputs": [
        {
          "internalType": "uint8",
          "name": "",
          "type": "uint8"
        },
        {
          "internalType": "uint256",
          "name": "",
          "type": "uint256"
        }
      ],
      "name": "sampleStorage",
      "outputs": [
        {
          "internalType": "string",
          "name": "",
          "type": "string"
        }
      ],
      "stateMutability": "view",
      "type": "function"
    },
    {
      "inputs": [],
      "name": "sepoliaLINKAddress",
      "outputs": [
        {
          "internalType": "address",
          "name": "",
          "type": "address"
        }
      ],
      "stateMutability": "view",
      "type": "function"
    },
    {
      "inputs": [],
      "name": "sepoliaRegistrarAddress",
      "outputs": [
        {
          "internalType": "address",
          "name": "",
          "type": "address"
        }
      ],
      "stateMutability": "view",
      "type": "function"
    },
    {
      "inputs": [
        {
          "internalType": "bytes",
          "name": "_requestCBOR",
          "type": "bytes"
        }
      ],
      "name": "setCBOR",
      "outputs": [],
      "stateMutability": "nonpayable",
      "type": "function"
    },
    {
      "inputs": [
        {
          "internalType": "uint64",
          "name": "_subscriptionId",
          "type": "uint64"
        }
      ],
      "name": "setSubscriptionId",
      "outputs": [],
      "stateMutability": "nonpayable",
      "type": "function"
    },
    {
      "inputs": [],
      "name": "subscriptionId",
      "outputs": [
        {
          "internalType": "uint64",
          "name": "",
          "type": "uint64"
        }
      ],
      "stateMutability": "view",
      "type": "function"
    },
    {
      "inputs": [
        {
          "internalType": "address",
          "name": "to",
          "type": "address"
        }
      ],
      "name": "transferOwnership",
      "outputs": [],
      "stateMutability": "nonpayable",
      "type": "function"
    },
    {
      "inputs": [],
      "name": "updateInterval",
      "outputs": [
        {
          "internalType": "uint256",
          "name": "",
          "type": "uint256"
        }
      ],
      "stateMutability": "view",
      "type": "function"
    },
    {
      "inputs": [],
      "name": "upkeepId",
      "outputs": [
        {
          "internalType": "uint256",
          "name": "",
          "type": "uint256"
        }
      ],
      "stateMutability": "view",
      "type": "function"
    },
    {
      "stateMutability": "payable",
      "type": "receive"
    }
  ],
  "bytecode": "0x60c06040526200431380380380620000178162000556565b92833981016101c082820312620005515762000033826200057c565b62000041602084016200057c565b60408401516001600160401b0381116200055157836200006391860162000591565b93606081015194608082015160a083015160c0840151916200008860e086016200057c565b986200009861010087016200057c565b94620000a861012088016200057c565b97620000b861014089016200057c565b996101608901519863ffffffff8a168a0362000551576101808101516101a0820151909d906001600160401b0381116200055157620000f8920162000591565b6001600160a01b039d8e166080529c8116156200050c57600080546001600160a01b03199081166001600160a01b039390931692831790915560028054909116909117905560108054610100600160a81b03191660089290921b610100600160a81b03169190911790558051906001600160401b038211620004005760115490600182811c9216801562000501575b6020831014620003df5781601f849311620004a0575b50602090601f8311600114620004225760009262000416575b50508160011b916000199060031b1c1916176011555b6013556014556012556005556001600160a01b0390811660a0526004805463ffffffff60401b191660409390931b6bffffffff0000000000000000169290921790915560068054610100600160a81b03191660089390931b610100600160a81b031692909217909155600780546001600160a01b0319169290911691909117905542600c55600b5580516001600160401b0381116200040057601654600181811c91168015620003f5575b6020821014620003df57601f811162000375575b50602091601f82116001146200030b57918192600092620002ff575b50508160011b916000199060031b1c1916176016555b60ff19806010541660105560065416600655604051613cef908162000604823960805181818161075a0152610d59015260a051818181610fab015261141c0152f35b015190503880620002a7565b601f19821692601660005260206000209160005b8581106200035c5750836001951062000342575b505050811b01601655620002bd565b015160001960f88460031b161c1916905538808062000333565b919260206001819286850151815501940192016200031f565b60166000527fd833147d7dc355ba459fc788f669e58cfaf9dc25ddcd0702e87d69c7b5124289601f830160051c81019160208410620003d4575b601f0160051c01905b818110620003c757506200028b565b60008155600101620003b8565b9091508190620003af565b634e487b7160e01b600052602260045260246000fd5b90607f169062000277565b634e487b7160e01b600052604160045260246000fd5b015190503880620001b6565b601160009081529350600080516020620042f383398151915291905b601f198416851062000484576001945083601f198116106200046a575b505050811b01601155620001cc565b015160001960f88460031b161c191690553880806200045b565b818101518355602094850194600190930192909101906200043e565b6011600052909150600080516020620042f3833981519152601f840160051c810160208510620004f9575b90849392915b601f830160051c82018110620004e95750506200019d565b60008155859450600101620004d1565b5080620004cb565b91607f169162000187565b60405162461bcd60e51b815260206004820152601860248201527f43616e6e6f7420736574206f776e657220746f207a65726f00000000000000006044820152606490fd5b600080fd5b6040519190601f01601f191682016001600160401b038111838210176200040057604052565b51906001600160a01b03821682036200055157565b919080601f84011215620005515782516001600160401b0381116200040057602090620005c7601f8201601f1916830162000556565b92818452828287010111620005515760005b818110620005ef57508260009394955001015290565b8581018301518482018401528201620005d956fe608060405260043610156200001d575b36156200001b57600080fd5b005b60003560e01c806303e7810314620002a4578063089ea02e146200029e57806309c1ba2e14620002985780630ca7617514620002925780631243bcc3146200028c57806324b93e3e14620002865780632fc2a7b91462000280578063338cdca1146200027a578063381fc4b514620002745780633f678e11146200026e5780634305b96214620002685780634585e33b146200026257806348802b92146200025c57806348bd6f05146200025657806362ed90361462000250578063688ecfd1146200024a5780636baa48fe14620002445780636e04ff0d146200023e5780636e74336b146200023857806379ba509714620002325780637b103999146200022c5780638b7afe2e14620002265780638d7e6d2d14620002205780638da5cb5b146200021a578063a30971391462000214578063b1e21749146200020e578063cff0888a1462000208578063d2aa789f1462000202578063d5f3948814620001fc578063d811fcf014620001f6578063ea7b4f7714620001f0578063ebf14a5514620001ea578063f2fde38b14620001e4578063f5ce1f2614620001de578063fd2c80ae14620001d85763fec15fd1036200000f5762001b0c565b62001aec565b62001a74565b62001925565b620018d9565b62001899565b6200186d565b62001844565b62001824565b62001792565b62001772565b62001752565b62001729565b62001494565b62001440565b620013fa565b62001316565b620012f6565b62001278565b6200124f565b6200119a565b62001074565b62001054565b62001034565b62000cac565b62000bcc565b62000a30565b62000a10565b6200095b565b62000932565b62000909565b620008dd565b620006fc565b62000668565b62000648565b62000551565b6000910312620002b657565b600080fd5b634e487b7160e01b600052600060045260246000fd5b90600182811c9216801562000303575b6020831014620002ed57565b634e487b7160e01b600052602260045260246000fd5b91607f1691620002e1565b634e487b7160e01b600052604160045260246000fd5b67ffffffffffffffff81116200033957604052565b6200030e565b6040810190811067ffffffffffffffff8211176200033957604052565b90601f8019910116810190811067ffffffffffffffff8211176200033957604052565b60405190600082601654916200039583620002d1565b80835292600190818116908115620004255750600114620003c2575b50620003c0925003836200035c565b565b6016600090815291507fd833147d7dc355ba459fc788f669e58cfaf9dc25ddcd0702e87d69c7b51242895b848310620004095750620003c0935050810160200138620003b1565b81935090816020925483858a01015201910190918592620003ed565b905060209250620003c094915060ff191682840152151560051b82010138620003b1565b90604051918260008254926200045f84620002d1565b908184526001948581169081600014620004d457506001146200048d575b5050620003c0925003836200035c565b9093915060005260209081600020936000915b818310620004bb575050620003c0935082010138806200047d565b85548884018501529485019487945091830191620004a0565b915050620003c094506020925060ff191682840152151560051b82010138806200047d565b919082519283825260005b84811062000526575050826000602080949584010152601f8019910116010190565b60208183018101518483018201520162000504565b9060206200054e928181520190620004f9565b90565b34620002b657600080600319360112620006455760405190806011546200057881620002d1565b80855291600191808316908115620006185750600114620005b8575b620005b485620005a7818703826200035c565b604051918291826200053b565b0390f35b9250601183527f31ecc21a745e3968a04e9570e4425bc18fa8019c68028196b546d1669c200c685b828410620005ff575050508101602001620005a782620005b462000594565b80546020858701810191909152909301928101620005e0565b869550620005b496935060209250620005a794915060ff191682840152151560051b820101929362000594565b80fd5b34620002b6576000366003190112620002b6576020600c54604051908152f35b34620002b6576000366003190112620002b657602067ffffffffffffffff60045416604051908152f35b67ffffffffffffffff81116200033957601f01601f191660200190565b81601f82011215620002b657803590620006c98262000692565b92620006d960405194856200035c565b82845260208383010111620002b657816000926020809301838601378301015290565b34620002b6576060366003190112620002b65767ffffffffffffffff602435818111620002b65762000733903690600401620006af565b90604435908111620002b6576200074f903690600401620006af565b506001600160a01b037f0000000000000000000000000000000000000000000000000000000000000000163303620008b35760105460ff166200086a576200083c620007c6620007c07f5b3884247b2d692220a28e85c6452382a57294c08a90bce16e4978698181adb693620031b5565b620032f3565b600080526015602052620007fb817fa31547ce6245cdb9ecea19cf8c7eb9f5974025bb4075011409251ae855b30aed620031d9565b60016000526015602052620005a77f27739e4bb5e6f8b5e4b57a047dca8767cc9b982a011081e086cbb0dfa9de818d6200083542620032f3565b90620031d9565b0390a15b6004357f85e1543bf2f84fe80c6badbce3648c8539ad1df4d2b3d822938ca0538be727e6600080a2005b6020620008987f5f45b8e77291dfc632c52ceb5f6e5b643b77e04e0a683db296eaf8d71e41e16592620031b5565b80601755604051908152a1620008ad62003454565b62000840565b60046040517fc6829f83000000000000000000000000000000000000000000000000000000008152fd5b34620002b6576000366003190112620002b65760206001600160a01b0360065460081c16604051908152f35b34620002b6576000366003190112620002b657602060045463ffffffff6040519160401c168152f35b34620002b6576000366003190112620002b65760206001600160a01b0360085416604051908152f35b34620002b65760008060031936011262000645576040519080600a546200098281620002d1565b80855291600191808316908115620006185750600114620009b057620005b485620005a7818703826200035c565b9250600a83527fc65a7bb8d6351c1cf70c95a316cc6a92839c986682d98bc35f958f4883f9d2a85b828410620009f7575050508101602001620005a782620005b462000594565b80546020858701810191909152909301928101620009d8565b34620002b6576000366003190112620002b6576020600d54604051908152f35b34620002b657600319602036820112620002b6576004359067ffffffffffffffff8211620002b657610140908236030112620002b657602062000adb60009262000a9f62000a9362000a936001600160a01b03600854166001600160a01b031690565b6001600160a01b031690565b906040519485809481937f24380aa800000000000000000000000000000000000000000000000000000000835230906004016004840162001cf1565b03925af1801562000b605762000afa9160009162000b2b575b50600955565b6009546040519081527f7623383a750b4166574a1b2dff61440ed0dfa3708cbe620c58339cca510d1af990602090a1005b62000b51915060203d811162000b58575b62000b4881836200035c565b81019062001c79565b3862000af4565b503d62000b3c565b62001c53565b602080820190808352835180925260408301928160408460051b8301019501936000915b84831062000b9b5750505050505090565b909192939495848062000bbb600193603f198682030187528a51620004f9565b980193019301919493929062000b8a565b34620002b6576000806003193601126200064557808052602060158152604082209182549067ffffffffffffffff82116200033957926040519262000c17818460051b01856200035c565b82845280840191855280852094915b83831062000c3e5760405180620005b4878262000b66565b600182819262000c4e8962000449565b81520196019201919462000c26565b906020600319830112620002b65760043567ffffffffffffffff92838211620002b65780602383011215620002b6578160040135938411620002b65760248483010111620002b6576024019190565b34620002b65762000cbd3662000c5d565b505062000cce600954151562001e9b565b62000cd842600c55565b6014546000805260156020527fa31547ce6245cdb9ecea19cf8c7eb9f5974025bb4075011409251ae855b30aed54101562000ea45762000d4b6020600454600b5490604051938492839263230e93b160e11b845267ffffffffffffffff63ffffffff8260401c1691166004850162002078565b038160006001600160a01b037f0000000000000000000000000000000000000000000000000000000000000000165af16000918162000e7f575b5062000e385750600162000d9862001faf565b6308c379a01462000ddf575b62000dab57005b7f9c4bfa18304482256875c29fabb1a44a5ecd325f214ea17bab8f31e869faf4c862000dda620005a762002043565b0390a1005b62000de962001fce565b8062000df7575b5062000da4565b90507f2ba61e3733e7ac99181c22307780f651ec8fd92fe661a84dfbe711710b2dc36c62000e2e600092604051918291826200053b565b0390a13862000df0565b62000e4281600e55565b62000e5862000e53600f5462001f74565b600f55565b7f1131472297a800fee664d1d89cfa8f7676ff07189ecc53f80bbb5f4969099db8600080a2005b62000e9c91925060203d811162000b585762000b4881836200035c565b903862000d85565b60ff62000eb360105460ff1690565b1662000f725762000ecc600160ff196010541617601055565b62000f3462000eda62001ee7565b62000eef62000ee86200037f565b826200259a565b60008052601560205262000f2e62000f277fa31547ce6245cdb9ecea19cf8c7eb9f5974025bb4075011409251ae855b30aed62001bec565b82620025dc565b6200235d565b6020600454600b549262000d4b604051948593849363230e93b160e11b855267ffffffffffffffff63ffffffff8360401c1692166004860162001f32565b6009546040518181527f8b7f9ec922f0b687c5e247d2d3d200d803f027d886a5a0bdf49c6747b9c9ec4c90602090a16001600160a01b037f000000000000000000000000000000000000000000000000000000000000000016803b15620002b6576040517fc804802200000000000000000000000000000000000000000000000000000000815260048101929092526000908290602490829084905af1801562000b60576200101d57005b806200102d6200001b9262000324565b80620002aa565b34620002b6576000366003190112620002b6576020600f54604051908152f35b34620002b6576000366003190112620002b6576020601254604051908152f35b34620002b657602080600319360112620002b65767ffffffffffffffff600435818111620002b657620010ac903690600401620006af565b9182519182116200033957620010cf82620010c9600354620002d1565b62001b48565b80601f83116001146200110e5750819260009262001102575b50508160011b916000199060031b1c191617600355600080f35b015190503880620010e8565b90601f198316936200114260036000527fc2575a0e9e593c00f959f8c92f12db2869c3395a3b0502d05e2516446f71f85b90565b926000905b86821062001181575050836001951062001167575b505050811b01600355005b015160001960f88460031b161c191690553880806200115c565b8060018596829496860151815501950193019062001147565b34620002b65760008060031936011262000645576040519080600354620011c181620002d1565b80855291600191808316908115620006185750600114620011ef57620005b485620005a7818703826200035c565b9250600383527fc2575a0e9e593c00f959f8c92f12db2869c3395a3b0502d05e2516446f71f85b5b82841062001236575050508101602001620005a782620005b462000594565b8054602085870181019190915290930192810162001217565b34620002b6576000366003190112620002b65760206001600160a01b0360075416604051908152f35b34620002b657620012893662000c5d565b5050600c544203428111620012f0576005541060405190815260206040818301528160609182519081604084015260005b828110620012da5750506000828201840152601f01601f19168101030190f35b60808101518682018601528593508101620012ba565b62001e75565b34620002b6576000366003190112620002b6576020600b54604051908152f35b34620002b65760008060031936011262000645576001600160a01b0380600154163303620013b65781546001600160a01b03166000805473ffffffffffffffffffffffffffffffffffffffff191633179055906200138c73ffffffffffffffffffffffffffffffffffffffff1960015416600155565b3391167f8be0079c531659141344cd1fd0a4f28419497f9722a3daafe3b4186f6b6457e08380a380f35b606460405162461bcd60e51b815260206004820152601660248201527f4d7573742062652070726f706f736564206f776e6572000000000000000000006044820152fd5b34620002b6576000366003190112620002b65760206040516001600160a01b037f0000000000000000000000000000000000000000000000000000000000000000168152f35b34620002b6576000366003190112620002b657602047604051908152f35b600435906bffffffffffffffffffffffff82168203620002b657565b35906bffffffffffffffffffffffff82168203620002b657565b34620002b6576020366003190112620002b657620014b16200145e565b60065460081c6001600160a01b031690620014d46007546001600160a01b031690565b91604051926107658085019185831067ffffffffffffffff84111762000339578593620015329386936200355587396001600160a01b039182168152911660208201526bffffffffffffffffffffffff909116604082015260600190565b0360009283f0801562000b60576200160491620015746020926001600160a01b031673ffffffffffffffffffffffffffffffffffffffff196008541617600855565b6200159362000a9362000a936006546001600160a01b039060081c1690565b620015aa62000a936008546001600160a01b031690565b856040518096819582947f095ea7b3000000000000000000000000000000000000000000000000000000008452600484019092916bffffffffffffffffffffffff6020916001600160a01b03604085019616845216910152565b03925af1801562000b6057620016f4575b506200162d62000a936008546001600160a01b031690565b803b15620016f0576040517f230244080000000000000000000000000000000000000000000000000000000081523060048201529082908290602490829084905af1801562000b6057620016d9575b507f3583c1105fd29a46b4d92ceeaff8be03cba58a11cce44a3b7da77bbc3798edc4620016d3620016b962000a936008546001600160a01b031690565b6040516001600160a01b0390911681529081906020820190565b0390a180f35b806200102d620016e99262000324565b386200167c565b5080fd5b620017199060203d811162001721575b6200171081836200035c565b81019062001c5f565b503862001615565b503d62001704565b34620002b6576000366003190112620002b65760206001600160a01b0360005416604051908152f35b34620002b6576000366003190112620002b6576020601354604051908152f35b34620002b6576000366003190112620002b6576020600e54604051908152f35b34620002b6576000806003193601126200064557600190818152602060158152604082209182549167ffffffffffffffff831162000339576040519391620017e1600585901b8301866200035c565b8385529182528082208185015b848410620018065760405180620005b4888262000b66565b86838192620018158562000449565b815201920193019290620017ee565b34620002b6576000366003190112620002b6576020600954604051908152f35b34620002b6576000366003190112620002b65760206001600160a01b0360025416604051908152f35b34620002b6576000366003190112620002b65760206001600160a01b0360105460081c16604051908152f35b34620002b6576020366003190112620002b65760043567ffffffffffffffff8116809103620002b65767ffffffffffffffff196004541617600455600080f35b34620002b6576000366003190112620002b6576020601454604051908152f35b600435906001600160a01b0382168203620002b657565b35906001600160a01b0382168203620002b657565b34620002b6576020366003190112620002b65762001942620018f9565b6001600160a01b03806000541691823303620019ec571690338214620019a8578173ffffffffffffffffffffffffffffffffffffffff1960015416176001557fed8889f560326eb138920d842192f0eb3dd22b4f139c87a2c57538e05bae1278600080a3005b606460405162461bcd60e51b815260206004820152601760248201527f43616e6e6f74207472616e7366657220746f2073656c660000000000000000006044820152fd5b606460405162461bcd60e51b815260206004820152601660248201527f4f6e6c792063616c6c61626c65206279206f776e6572000000000000000000006044820152fd5b359060ff82168203620002b657565b634e487b7160e01b600052603260045260246000fd5b805482101562001a6e5760005260206000200190600090565b62001a3f565b34620002b6576040366003190112620002b65760043560ff8116809103620002b6576024359060005260156020526040600020908154811015620002b65762001abd9162001a55565b62001ae65762001ad1620005b49162000449565b604051918291602083526020830190620004f9565b620002bb565b34620002b6576000366003190112620002b6576020600554604051908152f35b34620002b6576000366003190112620002b657602060ff60065416604051908152f35b81811062001b3b575050565b6000815560010162001b2f565b90601f821162001b56575050565b620003c09160036000527fc2575a0e9e593c00f959f8c92f12db2869c3395a3b0502d05e2516446f71f85b906020601f840160051c8301931062001ba3575b601f0160051c019062001b2f565b909150819062001b95565b9190601f811162001bbe57505050565b620003c0926000526020600020906020601f840160051c8301931062001ba357601f0160051c019062001b2f565b90815467ffffffffffffffff8111620003395760405192602062001c16818460051b01866200035c565b82855260009182528082208186015b84841062001c34575050505050565b600183819262001c448562000449565b81520192019301929062001c25565b6040513d6000823e3d90fd5b90816020910312620002b657518015158103620002b65790565b90816020910312620002b6575190565b9035601e1982360301811215620002b657016020813591019167ffffffffffffffff8211620002b6578136038313620002b657565b908060209392818452848401376000828201840152601f01601f1916010190565b359063ffffffff82168203620002b657565b92916020620003c0926040865262001e6562001e4f62001d3362001e478962001d1b868062001c89565b93906101409485604085015261018084019162001cbe565b9262001e0062001d5f62001d4a8a8a018a62001c89565b603f1986890381016060880152979162001cbe565b62001d8162001d7160408b0162001910565b6001600160a01b03166080860152565b62001da062001d9360608b0162001cdf565b63ffffffff1660a0860152565b62001dc262001db260808b0162001910565b6001600160a01b031660c0860152565b62001dde62001dd460a08b0162001a30565b60ff1660e0860152565b62001ded60c08a018a62001c89565b8583038801610100968701529062001cbe565b938c62001e3762001e2d62001e1960e08c018c62001c89565b610120999186868403018b87015262001cbe565b948a018a62001c89565b9390928286030191015262001cbe565b93016200147a565b6bffffffffffffffffffffffff16610160880152565b9401906001600160a01b03169052565b634e487b7160e01b600052601160045260246000fd5b601f19810191908211620012f057565b1562001ea357565b606460405162461bcd60e51b815260206004820152601560248201527f55706b656570206e6f74207265676973746572656400000000000000000000006044820152fd5b6040519060e0820182811067ffffffffffffffff8211176200033957604052606060c08360008152600060208201526000604082015282808201528260808201528260a08201520152565b9062001f6260809367ffffffffffffffff63ffffffff939897969816845260a0602085015260a0840190620004f9565b95600160408401521660608201520152565b9060018201809211620012f057565b9060208201809211620012f057565b6030019081603011620012f057565b91908201809211620012f057565b60009060033d1162001fbd57565b905060046000803e60005160e01c90565b600060443d106200054e57604051600319913d83016004833e815167ffffffffffffffff918282113d60248401111762002032578184019485519384116200203a573d850101602084870101116200203257506200054e929101602001906200035c565b949350505050565b50949350505050565b3d1562002073573d90620020578262000692565b916200206760405193846200035c565b82523d6000602084013e565b606090565b9067ffffffffffffffff909493929416815260209360a085830152600060035495620020a487620002d1565b908160a086015260019788811690816000146200213f5750600114620020e0575b5050604083019590955263ffffffff16606082015260800152565b600360009081529250877fc2575a0e9e593c00f959f8c92f12db2869c3395a3b0502d05e2516446f71f85b5b838510620021295750505050820160c0018163ffffffff620020c5565b805487860160c00152938201938991016200210c565b60ff191660c08781019190915292151560051b8601909201925083915063ffffffff9050620020c5565b6040519062002178826200033f565b600c82527f636f64654c6f636174696f6e00000000000000000000000000000000000000006020830152565b634e487b7160e01b600052602160045260246000fd5b60031115620021c557565b620021a4565b60405190620021da826200033f565b600882527f6c616e67756167650000000000000000000000000000000000000000000000006020830152565b60011115620021c557565b6040519062002220826200033f565b600682527f736f7572636500000000000000000000000000000000000000000000000000006020830152565b604051906200225b826200033f565b600482527f61726773000000000000000000000000000000000000000000000000000000006020830152565b6000198114620012f05760010190565b805182101562001a6e5760209160051b010190565b60405190620022bb826200033f565b600f82527f736563726574734c6f636174696f6e00000000000000000000000000000000006020830152565b60405190620022f6826200033f565b600782527f73656372657473000000000000000000000000000000000000000000000000006020830152565b6040519062002331826200033f565b600982527f62797465734172677300000000000000000000000000000000000000000000006020830152565b6200236762002630565b906200237d6200237662002169565b8362002e25565b620023a081516200238e81620021ba565b6200239981620021ba565b83620026e0565b620023ae62002376620021cb565b620023cd6040820151620023c28162002206565b620023998162002206565b620023db6200237662002211565b620023eb60608201518362002e25565b60a0810180515162002531575b50608081019081515162002483575b60c09150018051516200241b575b50515190565b916200242a6200237662002322565b620024358262002ebd565b60005b835180518210156200246d5790620024616200245982620024679462002297565b518562002d56565b62002287565b62002438565b505091506200247c8162002f55565b3862002415565b6020810180516200249481620021ba565b6200249f81620021ba565b15620025075760c092620024e46200250192620024c6620024bf620022ac565b8862002e25565b51620024d281620021ba565b620024dd81620021ba565b86620026e0565b620024f9620024f2620022e7565b8662002e25565b518462002d56565b62002407565b60046040517fa80d31f7000000000000000000000000000000000000000000000000000000008152fd5b9262002547620025406200224c565b8462002e25565b620025528362002ebd565b60005b845180518210156200258457906200246162002576826200257e9462002297565b518662002e25565b62002555565b50509250620025938262002f55565b38620023f8565b815115620025b2576000808252604082015260600152565b60046040517f22ce3edd000000000000000000000000000000000000000000000000000000008152fd5b815115620025ea5760a00152565b60046040517ffe936cb7000000000000000000000000000000000000000000000000000000008152fd5b6040519062002623826200033f565b6000602083606081520152565b6040516200263e816200033f565b6200264862002614565b80825260208201600081526200265d62002614565b506101006020830152604051809252600082526101208201918210620002b6576000916040525290565b906200269262002614565b50601f811680620026c3575b5080602083015260405190818352600082528101602001908110620002b65760405290565b60200360208111620012f0578101809111620012f057386200269e565b90815191620026ee62002614565b508251516001810190818111620012f05760208501518110156200274f575b60c26020620003c0965192830101538051821162002746575b50506040519160208301526020825262002740826200033f565b62002d56565b52388062002726565b8160011b9482860460021483151715620012f05760208162002787620003c0986200277f60c29551918462002687565b508262002c87565b50965050506200270d565b908160011b9180830460021490151715620012f057565b620027b362002614565b508051516001810190818111620012f0576020830151811015620027ef575b605b60208451928301015380518211620027eb57505090565b5290565b8160011b82810460021483151715620012f0576200281d90620028158551918662002687565b508462002c87565b50620027d2565b6200282e62002614565b508051516001810190818111620012f057602083015181101562002866575b605a60208451928301015380518211620027eb57505090565b8160011b82810460021483151715620012f0576200288c90620028158551918662002687565b506200284d565b6200289d62002614565b508051516001810190818111620012f0576020830151811015620028d5575b605960208451928301015380518211620027eb57505090565b8160011b82810460021483151715620012f057620028fb90620028158551918662002687565b50620028bc565b6200290c62002614565b508051516001810190818111620012f057602083015181101562002944575b605860208451928301015380518211620027eb57505090565b8160011b82810460021483151715620012f0576200296a90620028158551918662002687565b506200292b565b6200297b62002614565b508051516001810190818111620012f0576020830151811015620029b3575b607b60208451928301015380518211620027eb57505090565b8160011b82810460021483151715620012f057620029d990620028158551918662002687565b506200299a565b620029ea62002614565b508051516001810190818111620012f057602083015181101562002a22575b607a60208451928301015380518211620027eb57505090565b8160011b82810460021483151715620012f05762002a4890620028158551918662002687565b5062002a09565b62002a5962002614565b508051516001810190818111620012f057602083015181101562002a91575b607960208451928301015380518211620027eb57505090565b8160011b82810460021483151715620012f05762002ab790620028158551918662002687565b5062002a78565b62002ac862002614565b508051516001810190818111620012f057602083015181101562002b00575b607860208451928301015380518211620027eb57505090565b8160011b82810460021483151715620012f05762002b2690620028158551918662002687565b5062002ae7565b9062002b3862002614565b508151516001810191828211620012f057602084015182101562002b6e575b60208451928301015380518211620027eb57505090565b8260011b83810460021484151715620012f05762002b9c9062002b948651918762002687565b508562002c87565b5062002b57565b9062002bb28251918362002687565b5062002bbd62002614565b5080519062002bcb62002614565b5062002bdb815183111562002d4e565b8251519262002beb838562001fa1565b91602092828480940151821162002c6b575b518381519782010196821162002c62575b505001915b8181101562002c355760001991036101000a0190811990511690825116179052565b919262002c5562002c4e62002c5c928651815262001f83565b9462001f83565b9262001e8b565b62002c13565b52388062002c0e565b62002c8162002c7a8362002792565b8262002ba3565b62002bfd565b9062002c9262002614565b50805162002c9f62002614565b5062002caf825182111562002d4e565b8251519162002cbf828462001fa1565b602091829182870151811162002d32575b86518381519782010196821162002d29575b505001915b8181101562002d0a5760001991036101000a019081199051169082511617905290565b919262002c5562002c4e62002d23928651815262001f83565b62002ce7565b52388062002ce2565b62002d4862002d418262002792565b8862002ba3565b62002cd0565b15620002b657565b815162002d9392919067ffffffffffffffff8116906017821162002d965762002d8a9150604060ff84519216179062002b2d565b505b5162002c87565b50565b5060ff811162002dc15762002dba9062002db1835162002902565b50825162003146565b5062002d8c565b61ffff811162002de55762002dba9062002ddc835162002893565b508251620030d6565b63ffffffff811162002e0b5762002dba9062002e02835162002824565b50825162003064565b62002dba9062002e1c8351620027a9565b50825162002fee565b815162002d9392919067ffffffffffffffff8116906017821162002e595762002d8a9150606060ff84519216179062002b2d565b5060ff811162002e745762002dba9062002db1835162002abe565b61ffff811162002e8f5762002dba9062002ddc835162002a4f565b63ffffffff811162002eac5762002dba9062002e028351620029e0565b62002dba9062002e1c835162002971565b80519062002eca62002614565b508151516001810190818111620012f057602084015181101562002f1d575b609f602080955192830101538051821162002f14575b50500180519060018201809211620012f05752565b52388062002eff565b8160011b9382850460021483151715620012f05760208162002f4a82976200277f609f9551918462002687565b509550505062002ee9565b80519062002f6262002614565b508151516001810190818111620012f057602084015181101562002fb6575b60ff602080955192830101538051821162002fad575b5050018051600019810191908211620012f05752565b52388062002f97565b8160011b9382850460021483151715620012f05760208162002fe382976200277f60ff9551918462002687565b509550505062002f81565b9062002ff962002614565b50815151806008019182600811620012f057602084015183116200303f575b60088451928301019067ffffffffffffffff1982511617905280518211620027eb57505090565b8260011b83810460021484151715620012f0576200305e908562002ba3565b62003018565b906200306f62002614565b50815151806004019182600411620012f05760208401518311620030b1575b60048451928301019063ffffffff1982511617905280518211620027eb57505090565b8260011b83810460021484151715620012f057620030d0908562002ba3565b6200308e565b90620030e162002614565b50815151806002019182600211620012f0576020840151831162003121575b60028451928301019061ffff1982511617905280518211620027eb57505090565b8260011b83810460021484151715620012f05762003140908562002ba3565b62003100565b906200315162002614565b50815151806001019182600111620012f0576020840151831162003190575b60018451928301019060ff1982511617905280518211620027eb57505090565b8260011b83810460021484151715620012f057620031af908562002ba3565b62003170565b602081519101519060208110620031ca575090565b6000199060200360031b1b1690565b80546801000000000000000081101562000339576200320090600192838201815562001a55565b92909262001ae65780519067ffffffffffffffff8211620003395762003233826200322c8654620002d1565b8662001bae565b60209081601f841160011462003272575092829391839260009462003266575b50501b916000199060031b1c1916179055565b01519250388062003253565b919083601f1981166200328a88600052602060002090565b946000905b88838310620032c65750505010620032ac575b505050811b019055565b015160001960f88460031b161c19169055388080620032a2565b8587015188559096019594850194879350908101906200328f565b90815181101562001a6e570160200190565b8015620033cc57806000908282935b620033b55750620033138362000692565b926200332360405194856200035c565b80845281601f19620033358362000692565b013660208701375b620033485750505090565b6000198101908111620012f0578091600a91620033ab620033a1620033796200337386860662001f92565b60ff1690565b60f81b7fff000000000000000000000000000000000000000000000000000000000000001690565b861a9187620032e1565b530490816200333d565b92620033c3600a9162002287565b93048062003302565b50604051620033db816200033f565b600181527f3000000000000000000000000000000000000000000000000000000000000000602082015290565b156200341057565b606460405162461bcd60e51b815260206004820152601b60248201527f4572726f20616f207061676172206120696e64656e697a6163616f00000000006044820152fd5b6017546013541115620034b1576200349e60008080806200348962000a9362000a936010546001600160a01b039060081c1690565b47905af16200349762002043565b5062003408565b620003c0600160ff196006541617600655565b60008080806001600160a01b036002541647905af1620034d062002043565b5015620034ea57620003c0600260ff196006541617600655565b608460405162461bcd60e51b815260206004820152602d60248201527f4572726f20616f207265746f726e6172206f732066756e646f7320706172612060448201527f6120696e73746974756963616f000000000000000000000000000000000000006064820152fdfe60c0346100ba57601f61076538819003918201601f19168301916001600160401b038311848410176100bf578084926060946040528339810103126100ba57610047816100d5565b906040610056602083016100d5565b9101516001600160601b03811692908390036100ba5760805260a052600180546001600160601b03191691909117905560405161067b90816100ea82396080518181816077015281816101c701526103a3015260a05181818160be015261036a0152f35b600080fd5b634e487b7160e01b600052604160045260246000fd5b51906001600160a01b03821682036100ba5756fe60806040818152600436101561001457600080fd5b600091823560e01c90816301619d3d1461022d57508063230244081461014a57806324380aa8146100e2578063442b12781461009f57637d253aff1461005957600080fd5b3461009b578160031936011261009b57602090516001600160a01b037f0000000000000000000000000000000000000000000000000000000000000000168152f35b5080fd5b503461009b578160031936011261009b57602090516001600160a01b037f0000000000000000000000000000000000000000000000000000000000000000168152f35b503461009b576003198181360112610142576004359067ffffffffffffffff82116101465761014090823603011261014257602435926001600160a01b038416840361013f575060209261013891600401610313565b9051908152f35b80fd5b8280fd5b8380fd5b503461009b57602036600319011261009b57600435906001600160a01b03918281168091036101465760209060646bffffffffffffffffffffffff600154169186855196879485937f23b872dd000000000000000000000000000000000000000000000000000000008552600485015230602485015260448401527f0000000000000000000000000000000000000000000000000000000000000000165af190811561022457506101f9575080f35b6102199060203d811161021d575b6102118183610270565b8101906102a8565b5080f35b503d610207565b513d84823e3d90fd5b83903461009b578160031936011261009b576020906bffffffffffffffffffffffff600154168152f35b35906001600160a01b038216820361026b57565b600080fd5b90601f8019910116810190811067ffffffffffffffff82111761029257604052565b634e487b7160e01b600052604160045260246000fd5b9081602091031261026b5751801515810361026b5790565b9035601e198236030181121561026b57016020813591019167ffffffffffffffff821161026b57813603831361026b57565b908060209392818452848401376000828201840152601f01601f1916010190565b9190916000926101208201356bffffffffffffffffffffffff8116809103610641576040908151927f095ea7b30000000000000000000000000000000000000000000000000000000084526001600160a01b0391827f0000000000000000000000000000000000000000000000000000000000000000169586600487015281602487015260209586816044818d897f0000000000000000000000000000000000000000000000000000000000000000165af180156106375761061a575b508451967f3f678e1100000000000000000000000000000000000000000000000000000000885286600489015261041d61040a83806102c0565b61014060248c01526101648b01916102f2565b8a61044161042d8a8601866102c0565b6023198d8603810160448f015294916102f2565b948761044e8a8701610257565b1660648c0152606085013563ffffffff81168091036101425760848c01528761047960808701610257565b1660a48c015260a08501359060ff8216809203610142576105018c9687956104f16104e58f9b6104c7908a9860c48a01526104b760c08701876102c0565b90868b84030160e48c01526102f2565b6104d460e08601866102c0565b90858a8403016101048b01526102f2565b926101008101906102c0565b91868403016101248701526102f2565b9061014483015203925af19485156106105787956105dd575b508415610580571685528482528420908154916801000000000000000083101561056c57600183018082558310156105585794839495815220015590565b602486634e487b7160e01b81526032600452fd5b602486634e487b7160e01b81526041600452fd5b6064848451907f08c379a00000000000000000000000000000000000000000000000000000000082526004820152601560248201527f6175746f2d617070726f76652064697361626c656400000000000000000000006044820152fd5b9094508381813d8311610609575b6105f58183610270565b810103126106055751933861051a565b8680fd5b503d6105eb565b83513d89823e3d90fd5b61063090873d891161021d576102118183610270565b50386103d0565b86513d8c823e3d90fd5b8480fdfea2646970667358221220b5d5e549faa0f06e6b4c0d541d8329af501ee63625d5b872cb2297c6dbd1556d64736f6c63430008130033a2646970667358221220612924f944a919fb057a124299cb28690f62991a4a7c8189337036584a91eca164736f6c6343000813003331ecc21a745e3968a04e9570e4425bc18fa8019c68028196b546d1669c200c68",
  "linkReferences": {},
  "deployedLinkReferences": {}
}