{
  "_format": "hh-sol-artifact-1",
  "contractName": "AutomatedFunctionsConsumer",
  "sourceName": "contracts/AutomatedFunctionsConsumer.sol",
  "abi": [
    {
      "inputs": [
        {
          "internalType": "address",
          "name": "_deployer",
          "type": "address"
        },
        {
          "internalType": "address",
          "name": "_farmer",
          "type": "address"
        },
        {
          "internalType": "uint256",
          "name": "_humidityLimit",
          "type": "uint256"
        },
        {
          "internalType": "uint256",
          "name": "_sampleMaxSize",
          "type": "uint256"
        },
        {
          "internalType": "uint256",
          "name": "_reparationValue",
          "type": "uint256"
        },
        {
          "internalType": "uint256",
          "name": "_updateInterval",
          "type": "uint256"
        },
        {
          "internalType": "address",
          "name": "router",
          "type": "address"
        },
        {
          "internalType": "uint64",
          "name": "_subscriptionId",
          "type": "uint64"
        },
        {
          "internalType": "address",
          "name": "_registry",
          "type": "address"
        },
        {
          "internalType": "address",
          "name": "_sepoliaLINKAddress",
          "type": "address"
        },
        {
          "internalType": "address",
          "name": "_sepoliaRegistrarAddress",
          "type": "address"
        },
        {
          "internalType": "uint32",
          "name": "_fulfillGasLimit",
          "type": "uint32"
        }
      ],
      "stateMutability": "payable",
      "type": "constructor"
    },
    {
      "inputs": [],
      "name": "EmptyArgs",
      "type": "error"
    },
    {
      "inputs": [],
      "name": "EmptySource",
      "type": "error"
    },
    {
      "inputs": [],
      "name": "NoInlineSecrets",
      "type": "error"
    },
    {
      "inputs": [
        {
          "internalType": "address",
          "name": "caller",
          "type": "address"
        },
        {
          "internalType": "address",
          "name": "owner",
          "type": "address"
        },
        {
          "internalType": "address",
          "name": "automationRegistry",
          "type": "address"
        }
      ],
      "name": "NotAllowedCaller",
      "type": "error"
    },
    {
      "inputs": [],
      "name": "OnlyRouterCanFulfill",
      "type": "error"
    },
    {
      "inputs": [
        {
          "internalType": "bytes32",
          "name": "requestId",
          "type": "bytes32"
        }
      ],
      "name": "UnexpectedRequestID",
      "type": "error"
    },
    {
      "anonymous": false,
      "inputs": [
        {
          "indexed": true,
          "internalType": "bytes32",
          "name": "requestId",
          "type": "bytes32"
        },
        {
          "indexed": false,
          "internalType": "bytes",
          "name": "result",
          "type": "bytes"
        },
        {
          "indexed": false,
          "internalType": "bytes",
          "name": "err",
          "type": "bytes"
        }
      ],
      "name": "OCRResponse",
      "type": "event"
    },
    {
      "anonymous": false,
      "inputs": [
        {
          "indexed": true,
          "internalType": "address",
          "name": "from",
          "type": "address"
        },
        {
          "indexed": true,
          "internalType": "address",
          "name": "to",
          "type": "address"
        }
      ],
      "name": "OwnershipTransferRequested",
      "type": "event"
    },
    {
      "anonymous": false,
      "inputs": [
        {
          "indexed": true,
          "internalType": "address",
          "name": "from",
          "type": "address"
        },
        {
          "indexed": true,
          "internalType": "address",
          "name": "to",
          "type": "address"
        }
      ],
      "name": "OwnershipTransferred",
      "type": "event"
    },
    {
      "anonymous": false,
      "inputs": [
        {
          "indexed": true,
          "internalType": "bytes32",
          "name": "id",
          "type": "bytes32"
        }
      ],
      "name": "RequestFulfilled",
      "type": "event"
    },
    {
      "anonymous": false,
      "inputs": [
        {
          "indexed": false,
          "internalType": "string",
          "name": "reason",
          "type": "string"
        }
      ],
      "name": "RequestRevertedWithErrorMsg",
      "type": "event"
    },
    {
      "anonymous": false,
      "inputs": [
        {
          "indexed": false,
          "internalType": "bytes",
          "name": "data",
          "type": "bytes"
        }
      ],
      "name": "RequestRevertedWithoutErrorMsg",
      "type": "event"
    },
    {
      "anonymous": false,
      "inputs": [
        {
          "indexed": true,
          "internalType": "bytes32",
          "name": "id",
          "type": "bytes32"
        }
      ],
      "name": "RequestSent",
      "type": "event"
    },
    {
      "anonymous": false,
      "inputs": [
        {
          "indexed": true,
          "internalType": "bytes32",
          "name": "requestId",
          "type": "bytes32"
        },
        {
          "indexed": false,
          "internalType": "bytes",
          "name": "response",
          "type": "bytes"
        },
        {
          "indexed": false,
          "internalType": "bytes",
          "name": "err",
          "type": "bytes"
        }
      ],
      "name": "Response",
      "type": "event"
    },
    {
      "anonymous": false,
      "inputs": [
        {
          "indexed": false,
          "internalType": "address",
          "name": "upkeepAddress",
          "type": "address"
        }
      ],
      "name": "upkeepCreated",
      "type": "event"
    },
    {
      "anonymous": false,
      "inputs": [
        {
          "indexed": false,
          "internalType": "uint256",
          "name": "upkeepId",
          "type": "uint256"
        }
      ],
      "name": "upkeepRegistered",
      "type": "event"
    },
    {
      "inputs": [],
      "name": "acceptOwnership",
      "outputs": [],
      "stateMutability": "nonpayable",
      "type": "function"
    },
    {
      "inputs": [],
      "name": "c_upkeep",
      "outputs": [
        {
          "internalType": "contract Upkeep",
          "name": "",
          "type": "address"
        }
      ],
      "stateMutability": "view",
      "type": "function"
    },
    {
      "inputs": [
        {
          "internalType": "bytes",
          "name": "",
          "type": "bytes"
        }
      ],
      "name": "checkUpkeep",
      "outputs": [
        {
          "internalType": "bool",
          "name": "upkeepNeeded",
          "type": "bool"
        },
        {
          "internalType": "bytes",
          "name": "performData",
          "type": "bytes"
        }
      ],
      "stateMutability": "view",
      "type": "function"
    },
    {
      "inputs": [],
      "name": "contractBalance",
      "outputs": [
        {
          "internalType": "uint256",
          "name": "",
          "type": "uint256"
        }
      ],
      "stateMutability": "view",
      "type": "function"
    },
    {
      "inputs": [
        {
          "internalType": "uint96",
          "name": "upkeepFundAmount",
          "type": "uint96"
        }
      ],
      "name": "createUpkeep",
      "outputs": [],
      "stateMutability": "nonpayable",
      "type": "function"
    },
    {
      "inputs": [],
      "name": "donID",
      "outputs": [
        {
          "internalType": "bytes32",
          "name": "",
          "type": "bytes32"
        }
      ],
      "stateMutability": "view",
      "type": "function"
    },
    {
      "inputs": [],
      "name": "farmer",
      "outputs": [
        {
          "internalType": "address",
          "name": "",
          "type": "address"
        }
      ],
      "stateMutability": "view",
      "type": "function"
    },
    {
      "inputs": [],
      "name": "fulfillGasLimit",
      "outputs": [
        {
          "internalType": "uint32",
          "name": "",
          "type": "uint32"
        }
      ],
      "stateMutability": "view",
      "type": "function"
    },
    {
      "inputs": [],
      "name": "gasLimit",
      "outputs": [
        {
          "internalType": "uint32",
          "name": "",
          "type": "uint32"
        }
      ],
      "stateMutability": "view",
      "type": "function"
    },
    {
      "inputs": [
        {
          "internalType": "bytes32",
          "name": "requestId",
          "type": "bytes32"
        },
        {
          "internalType": "bytes",
          "name": "response",
          "type": "bytes"
        },
        {
          "internalType": "bytes",
          "name": "err",
          "type": "bytes"
        }
      ],
      "name": "handleOracleFulfillment",
      "outputs": [],
      "stateMutability": "nonpayable",
      "type": "function"
    },
    {
      "inputs": [],
      "name": "humidityLimit",
      "outputs": [
        {
          "internalType": "uint256",
          "name": "",
          "type": "uint256"
        }
      ],
      "stateMutability": "view",
      "type": "function"
    },
    {
      "inputs": [],
      "name": "institution",
      "outputs": [
        {
          "internalType": "address",
          "name": "",
          "type": "address"
        }
      ],
      "stateMutability": "view",
      "type": "function"
    },
    {
      "inputs": [],
      "name": "lastUpkeepTimeStamp",
      "outputs": [
        {
          "internalType": "uint256",
          "name": "",
          "type": "uint256"
        }
      ],
      "stateMutability": "view",
      "type": "function"
    },
    {
      "inputs": [],
      "name": "latestError",
      "outputs": [
        {
          "internalType": "bytes",
          "name": "",
          "type": "bytes"
        }
      ],
      "stateMutability": "view",
      "type": "function"
    },
    {
      "inputs": [],
      "name": "latestRequestId",
      "outputs": [
        {
          "internalType": "bytes32",
          "name": "",
          "type": "bytes32"
        }
      ],
      "stateMutability": "view",
      "type": "function"
    },
    {
      "inputs": [],
      "name": "latestResponse",
      "outputs": [
        {
          "internalType": "bytes",
          "name": "",
          "type": "bytes"
        }
      ],
      "stateMutability": "view",
      "type": "function"
    },
    {
      "inputs": [],
      "name": "owner",
      "outputs": [
        {
          "internalType": "address",
          "name": "",
          "type": "address"
        }
      ],
      "stateMutability": "view",
      "type": "function"
    },
    {
      "inputs": [
        {
          "internalType": "bytes",
          "name": "",
          "type": "bytes"
        }
      ],
      "name": "performUpkeep",
      "outputs": [],
      "stateMutability": "nonpayable",
      "type": "function"
    },
    {
      "inputs": [
        {
          "components": [
            {
              "internalType": "string",
              "name": "name",
              "type": "string"
            },
            {
              "internalType": "bytes",
              "name": "encryptedEmail",
              "type": "bytes"
            },
            {
              "internalType": "address",
              "name": "upkeepContract",
              "type": "address"
            },
            {
              "internalType": "uint32",
              "name": "gasLimit",
              "type": "uint32"
            },
            {
              "internalType": "address",
              "name": "adminAddress",
              "type": "address"
            },
            {
              "internalType": "uint8",
              "name": "triggerType",
              "type": "uint8"
            },
            {
              "internalType": "bytes",
              "name": "checkData",
              "type": "bytes"
            },
            {
              "internalType": "bytes",
              "name": "triggerConfig",
              "type": "bytes"
            },
            {
              "internalType": "bytes",
              "name": "offchainConfig",
              "type": "bytes"
            },
            {
              "internalType": "uint96",
              "name": "amount",
              "type": "uint96"
            }
          ],
          "internalType": "struct RegistrationParams",
          "name": "params",
          "type": "tuple"
        }
      ],
      "name": "registerUpkeep",
      "outputs": [],
      "stateMutability": "nonpayable",
      "type": "function"
    },
    {
      "inputs": [],
      "name": "registry",
      "outputs": [
        {
          "internalType": "contract IAutomationRegistryConsumer",
          "name": "",
          "type": "address"
        }
      ],
      "stateMutability": "view",
      "type": "function"
    },
    {
      "inputs": [],
      "name": "reparationValue",
      "outputs": [
        {
          "internalType": "uint256",
          "name": "",
          "type": "uint256"
        }
      ],
      "stateMutability": "view",
      "type": "function"
    },
    {
      "inputs": [],
      "name": "request",
      "outputs": [
        {
          "internalType": "bytes",
          "name": "",
          "type": "bytes"
        }
      ],
      "stateMutability": "view",
      "type": "function"
    },
    {
      "inputs": [],
      "name": "requestCBOR",
      "outputs": [
        {
          "internalType": "bytes",
          "name": "",
          "type": "bytes"
        }
      ],
      "stateMutability": "view",
      "type": "function"
    },
    {
      "inputs": [],
      "name": "responseCounter",
      "outputs": [
        {
          "internalType": "uint256",
          "name": "",
          "type": "uint256"
        }
      ],
      "stateMutability": "view",
      "type": "function"
    },
    {
      "inputs": [],
      "name": "s_lastError",
      "outputs": [
        {
          "internalType": "bytes",
          "name": "",
          "type": "bytes"
        }
      ],
      "stateMutability": "view",
      "type": "function"
    },
    {
      "inputs": [],
      "name": "s_lastRequestId",
      "outputs": [
        {
          "internalType": "bytes32",
          "name": "",
          "type": "bytes32"
        }
      ],
      "stateMutability": "view",
      "type": "function"
    },
    {
      "inputs": [],
      "name": "s_lastResponse",
      "outputs": [
        {
          "internalType": "bytes",
          "name": "",
          "type": "bytes"
        }
      ],
      "stateMutability": "view",
      "type": "function"
    },
    {
      "inputs": [],
      "name": "s_requestCounter",
      "outputs": [
        {
          "internalType": "uint256",
          "name": "",
          "type": "uint256"
        }
      ],
      "stateMutability": "view",
      "type": "function"
    },
    {
      "inputs": [],
      "name": "s_responseCounter",
      "outputs": [
        {
          "internalType": "uint256",
          "name": "",
          "type": "uint256"
        }
      ],
      "stateMutability": "view",
      "type": "function"
    },
    {
      "inputs": [],
      "name": "s_upkeepCounter",
      "outputs": [
        {
          "internalType": "uint256",
          "name": "",
          "type": "uint256"
        }
      ],
      "stateMutability": "view",
      "type": "function"
    },
    {
      "inputs": [],
      "name": "sampleMaxSize",
      "outputs": [
        {
          "internalType": "uint256",
          "name": "",
          "type": "uint256"
        }
      ],
      "stateMutability": "view",
      "type": "function"
    },
    {
      "inputs": [
        {
          "internalType": "uint256",
          "name": "",
          "type": "uint256"
        }
      ],
      "name": "sampleStorage",
      "outputs": [
        {
          "internalType": "string",
          "name": "",
          "type": "string"
        }
      ],
      "stateMutability": "view",
      "type": "function"
    },
    {
      "inputs": [],
      "name": "sepoliaLINKAddress",
      "outputs": [
        {
          "internalType": "address",
          "name": "",
          "type": "address"
        }
      ],
      "stateMutability": "view",
      "type": "function"
    },
    {
      "inputs": [],
      "name": "sepoliaRegistrarAddress",
      "outputs": [
        {
          "internalType": "address",
          "name": "",
          "type": "address"
        }
      ],
      "stateMutability": "view",
      "type": "function"
    },
    {
      "inputs": [
        {
          "internalType": "bytes",
          "name": "newRequestCBOR",
          "type": "bytes"
        },
        {
          "internalType": "uint64",
          "name": "_subscriptionId",
          "type": "uint64"
        },
        {
          "internalType": "uint32",
          "name": "_fulfillGasLimit",
          "type": "uint32"
        },
        {
          "internalType": "bytes32",
          "name": "_donID",
          "type": "bytes32"
        },
        {
          "internalType": "uint256",
          "name": "_updateInterval",
          "type": "uint256"
        }
      ],
      "name": "setRequest",
      "outputs": [],
      "stateMutability": "nonpayable",
      "type": "function"
    },
    {
      "inputs": [],
      "name": "subscriptionId",
      "outputs": [
        {
          "internalType": "uint64",
          "name": "",
          "type": "uint64"
        }
      ],
      "stateMutability": "view",
      "type": "function"
    },
    {
      "inputs": [
        {
          "internalType": "address",
          "name": "to",
          "type": "address"
        }
      ],
      "name": "transferOwnership",
      "outputs": [],
      "stateMutability": "nonpayable",
      "type": "function"
    },
    {
      "inputs": [],
      "name": "updateInterval",
      "outputs": [
        {
          "internalType": "uint256",
          "name": "",
          "type": "uint256"
        }
      ],
      "stateMutability": "view",
      "type": "function"
    },
    {
      "inputs": [],
      "name": "upkeepContract",
      "outputs": [
        {
          "internalType": "address",
          "name": "",
          "type": "address"
        }
      ],
      "stateMutability": "view",
      "type": "function"
    },
    {
      "inputs": [],
      "name": "upkeepCounter",
      "outputs": [
        {
          "internalType": "uint256",
          "name": "",
          "type": "uint256"
        }
      ],
      "stateMutability": "view",
      "type": "function"
    },
    {
      "inputs": [],
      "name": "upkeepId",
      "outputs": [
        {
          "internalType": "uint256",
          "name": "",
          "type": "uint256"
        }
      ],
      "stateMutability": "view",
      "type": "function"
    },
    {
      "stateMutability": "payable",
      "type": "receive"
    }
  ],
  "bytecode": "0x60c06001600160401b03601f620044c038819003918201601f191684019183831185841017620002025780859261018094604052833981010312620001fd57620000498262000218565b91620000586020820162000218565b60408201519260608301519060808401519060a0850151956200007e60c0870162000218565b9660e0870151928316809303620001fd576200009e610100880162000218565b93620000ae610120890162000218565b95610160620000c16101408b0162000218565b9901519363ffffffff85168503620001fd576001600160a01b039a8b166080528b8b169b8c15620001b8578b998a91600160a01b60019003199e8f600054161760005560185490600160a81b61010090039060081b1690600160a81b6101009003191617601855168c6019541617601955601c55601d55601b5560075584600654931660a05260401b6bffffffff00000000000000001691600160601b6001900319161717600655168360085416176008551690600954161760095542600f5560405161429290816200022e823960805181818161049b015281816123880152612589015260a05181818161140c01526125db0152f35b60405162461bcd60e51b815260206004820152601860248201527f43616e6e6f7420736574206f776e657220746f207a65726f00000000000000006044820152606490fd5b600080fd5b634e487b7160e01b600052604160045260246000fd5b51906001600160a01b0382168203620001fd5756fe608060405260043610156200001d575b36156200001b57600080fd5b005b60003560e01c8063089ea02e14620002fe57806309c1ba2e14620002f85780630ca7617514620002f25780631243bcc314620002ec5780631aa46f5914620002e657806324b93e3e14620002e0578063277e221314620002da5780632fc2a7b914620002d4578063338cdca114620002ce578063381fc4b514620002c85780633944ea3a14620002c25780633f678e1114620002bc57806343cd3d8614620002b65780634585e33b14620002b0578063472cbbb014620002aa57806348802b9214620002a457806348bd6f05146200029e5780634b0795a814620002985780635e0611f11462000292578063688ecfd1146200028c5780636baa48fe14620002865780636e04ff0d14620002805780636e74336b146200027a57806379ba509714620002745780637b103999146200026e5780638b7afe2e14620002685780638d7e6d2d14620002625780638da5cb5b146200025c578063a30971391462000256578063a3d3c0d21462000250578063b1e21749146200024a578063bef3a2f01462000244578063d1384eb6146200023e578063d2aa789f1462000238578063d811fcf01462000232578063ebf14a55146200022c578063f2fde38b1462000226578063f5c1279b1462000220578063f68016b7146200021a578063fd2c80ae14620002145763fffeb84e036200000f5762001a4d565b62001a2d565b62001a07565b620019e7565b6200190e565b620018c2565b62001899565b62001879565b6200184d565b62001798565b62001778565b62001758565b62001738565b6200170f565b62001484565b62001430565b620013ea565b62001306565b620012e6565b62001264565b6200123b565b62001186565b6200115d565b620010a8565b62001088565b62001068565b62000e9d565b62000dad565b62000d5c565b62000c2c565b62000b77565b62000b57565b62000a64565b62000a3b565b620009cb565b62000704565b620006e4565b620006bb565b6200043a565b62000335565b62000315565b60009103126200031057565b600080fd5b346200031057600036600319011262000310576020600f54604051908152f35b34620003105760003660031901126200031057602067ffffffffffffffff60065416604051908152f35b634e487b7160e01b600052604160045260246000fd5b67ffffffffffffffff81116200038a57604052565b6200035f565b6040810190811067ffffffffffffffff8211176200038a57604052565b90601f8019910116810190811067ffffffffffffffff8211176200038a57604052565b67ffffffffffffffff81116200038a57601f01601f191660200190565b81601f8201121562000310578035906200040782620003d0565b92620004176040519485620003ad565b828452602083830101116200031057816000926020809301838601378301015290565b34620003105760603660031901126200031057600480359067ffffffffffffffff906024358281116200031057620004769036908301620003ed565b6044358381116200031057620004909036908401620003ed565b906001600160a01b037f0000000000000000000000000000000000000000000000000000000000000000163303620006925780519384116200038a5782620004e585620004df88965462000797565b62001d76565b602080601f8711600114620005e3575094807f7bab0ec163b5c132c72b8146ac4d6e067e82ed58f8b131150aa71c92589115629596600091620005d7575b508160011b916000199060031b1c19161790555b6200054282620037a8565b620005586200055360115462001fc8565b601155565b60ff6200056760185460ff1690565b16620005b3576200057881620038c3565b6200058960405192839283620039d2565b0390a27f85e1543bf2f84fe80c6badbce3648c8539ad1df4d2b3d822938ca0538be727e6600080a2005b620005c7620005c2826200389f565b602055565b620005d162003a47565b62000578565b90508301513862000523565b600460005290601f1987167f8a35acfbc15ff81a39ae7d344fd709f28e8600b4aa8c65c6b64bfe7fe36bd19b926000905b828210620006755750509187917f7bab0ec163b5c132c72b8146ac4d6e067e82ed58f8b131150aa71c92589115629798600194106200065b575b5050811b01905562000537565b85015160001960f88460031b161c1916905538806200064e565b8684015185558a9850600190940193928301929081019062000614565b826040517fc6829f83000000000000000000000000000000000000000000000000000000008152fd5b3462000310576000366003190112620003105760206001600160a01b0360085416604051908152f35b346200031057600036600319011262000310576020600354604051908152f35b34620003105760003660031901126200031057602060065463ffffffff6040519160401c168152f35b634e487b7160e01b600052603260045260246000fd5b601e548110156200077b57601e6000527f50bb669a95c7b50b7e8a6f09454034b2b14cf2b85c730dca9a539ca82cb6e3500190600090565b6200072d565b634e487b7160e01b600052600060045260246000fd5b90600182811c92168015620007c9575b6020831014620007b357565b634e487b7160e01b600052602260045260246000fd5b91607f1691620007a7565b60405190600082601f5491620007ea8362000797565b808352926001908181169081156200087a575060011462000817575b506200081592500383620003ad565b565b601f600090815291507fa03837a25210ee280c2113ff4b77ca23440b19d4866cca721c801278fd08d8075b8483106200085e57506200081593505081016020013862000806565b81935090816020925483858a0101520191019091859262000842565b9050602092506200081594915060ff191682840152151560051b8201013862000806565b9060405191826000825492620008b48462000797565b908184526001948581169081600014620009295750600114620008e2575b50506200081592500383620003ad565b9093915060005260209081600020936000915b818310620009105750506200081593508201013880620008d2565b85548884018501529485019487945091830191620008f5565b9150506200081594506020925060ff191682840152151560051b8201013880620008d2565b60005b8281106200096157506000910152565b60808101518282015260200162000951565b919082519283825260005b848110620009a0575050826000602080949584010152601f8019910116010190565b6020818301810151848301820152016200097e565b906020620009c892818152019062000973565b90565b34620003105760203660031901126200031057600435601e54811015620003105762000a2262000a3791601e6000527f50bb669a95c7b50b7e8a6f09454034b2b14cf2b85c730dca9a539ca82cb6e350016200089e565b60405191829160208352602083019062000973565b0390f35b3462000310576000366003190112620003105760206001600160a01b03600a5416604051908152f35b34620003105760008060031936011262000b54576040519080600c5462000a8b8162000797565b8085529160019180831690811562000b27575060011462000ac7575b62000a378562000aba81870382620003ad565b60405191829182620009b5565b9250600c83527fdf6966c971051c3d54ec59162606531493a51404a002842f56009d7e5cf4a8c75b82841062000b0e57505050810160200162000aba8262000a3762000aa7565b8054602085870181019190915290930192810162000aef565b86955062000a379693506020925062000aba94915060ff191682840152151560051b820101929362000aa7565b80fd5b346200031057600036600319011262000310576020601154604051908152f35b34620003105760008060031936011262000b5457604051908060135462000b9e8162000797565b8085529160019180831690811562000b27575060011462000bcc5762000a378562000aba81870382620003ad565b9250601383527f66de8ffda797e3de9c05e8fc57b3bf0ec28a930d40b0d285d93c06501cf6a0905b82841062000c1357505050810160200162000aba8262000a3762000aa7565b8054602085870181019190915290930192810162000bf4565b34620003105760031960203682011262000310576004359067ffffffffffffffff821162000310576101409082360301126200031057602062000cd160009262000c9762000c8b6001600160a01b03600a54166001600160a01b031690565b6001600160a01b031690565b906040519485809481937fbc61a4730000000000000000000000000000000000000000000000000000000083526004016004830162001bf6565b03925af1801562000d565762000cf09160009162000d21575b50600b55565b600b546040519081527f7623383a750b4166574a1b2dff61440ed0dfa3708cbe620c58339cca510d1af990602090a1005b62000d47915060203d811162000d4e575b62000d3e8183620003ad565b81019062001b81565b3862000cea565b503d62000d32565b62001b5b565b346200031057600036600319011262000310576020601754604051908152f35b9181601f84011215620003105782359167ffffffffffffffff83116200031057602083818601950101116200031057565b3462000310576020366003190112620003105760043567ffffffffffffffff8111620003105762000de390369060040162000d7c565b50506000546001600160a01b0316338114158062000e56575b62000e0b576200001b620022c5565b601a546040517f426fbc710000000000000000000000000000000000000000000000000000000081523360048201526001600160a01b03928316602482015291166044820152606490fd5b5062000e6e62000c8b601a546001600160a01b031690565b33141562000dfc565b6044359063ffffffff821682036200031057565b359063ffffffff821682036200031057565b34620003105760a0366003190112620003105767ffffffffffffffff600435818111620003105762000ed490369060040162000d7c565b60243592918383168403620003105762000eed62000e77565b9262000ef862001b02565b82116200038a5762000f178262000f1160025462000797565b62001ddc565b600090601f831160011462000fbe57918062000f9a959262000f6f9460009262000fb2575b50508160011b916000199060031b1c19161760025567ffffffffffffffff1667ffffffffffffffff196006541617600655565b6bffffffff00000000000000006006549160401b16906bffffffff0000000000000000191617600655565b62000fa6606435600e55565b6200001b608435600755565b01359050388062000f3c565b60026000527f405787fa12a823e0f2b7631cc41b3ba8828b3321ca811111fa75cd3aa3bb5ace91601f198416815b8181106200104f575092600192859262000f6f9662000f9a99961062001034575b505050811b0160025567ffffffffffffffff1667ffffffffffffffff196006541617600655565b0135600019600384901b60f8161c191690553880806200100d565b9193602060018192878701358155019501920162000fec565b346200031057600036600319011262000310576020601654604051908152f35b346200031057600036600319011262000310576020601b54604051908152f35b34620003105760008060031936011262000b54576040519080601454620010cf8162000797565b8085529160019180831690811562000b275750600114620010fd5762000a378562000aba81870382620003ad565b9250601483527fce6d7b5282bd9a3661ae061feed1dbda4e52ab073b1f9285be6e155d9c38d4ec5b8284106200114457505050810160200162000aba8262000a3762000aa7565b8054602085870181019190915290930192810162001125565b3462000310576000366003190112620003105760206001600160a01b03601a5416604051908152f35b34620003105760008060031936011262000b54576040519080600254620011ad8162000797565b8085529160019180831690811562000b275750600114620011db5762000a378562000aba81870382620003ad565b9250600283527f405787fa12a823e0f2b7631cc41b3ba8828b3321ca811111fa75cd3aa3bb5ace5b8284106200122257505050810160200162000aba8262000a3762000aa7565b8054602085870181019190915290930192810162001203565b3462000310576000366003190112620003105760206001600160a01b0360095416604051908152f35b3462000310576020366003190112620003105760043567ffffffffffffffff811162000310576200129a903690600401620003ed565b50600f544203428111620012e05760075410604051908152604060208201526060818151806040830152620012d2818484016200094e565b601f01601f19168101030190f35b62001ece565b346200031057600036600319011262000310576020600e54604051908152f35b34620003105760008060031936011262000b54576001600160a01b0380600154163303620013a65781546001600160a01b03166000805473ffffffffffffffffffffffffffffffffffffffff191633179055906200137c73ffffffffffffffffffffffffffffffffffffffff1960015416600155565b3391167f8be0079c531659141344cd1fd0a4f28419497f9722a3daafe3b4186f6b6457e08380a380f35b606460405162461bcd60e51b815260206004820152601660248201527f4d7573742062652070726f706f736564206f776e6572000000000000000000006044820152fd5b3462000310576000366003190112620003105760206040516001600160a01b037f0000000000000000000000000000000000000000000000000000000000000000168152f35b34620003105760003660031901126200031057602047604051908152f35b600435906bffffffffffffffffffffffff821682036200031057565b35906bffffffffffffffffffffffff821682036200031057565b34620003105760203660031901126200031057620014a16200144e565b6008546001600160a01b031690620014c16009546001600160a01b031690565b916040519261073a8085019185831067ffffffffffffffff8411176200038a5785936200151f93869362003b2387396001600160a01b039182168152911660208201526bffffffffffffffffffffffff909116604082015260600190565b0360009283f0801562000d5657620015ed91620015616020926001600160a01b031673ffffffffffffffffffffffffffffffffffffffff19600a541617600a55565b6200157c62000c8b62000c8b6008546001600160a01b031690565b6200159362000c8b600a546001600160a01b031690565b856040518096819582947f095ea7b3000000000000000000000000000000000000000000000000000000008452600484019092916bffffffffffffffffffffffff6020916001600160a01b03604085019616845216910152565b03925af1801562000d5657620016da575b50806200161762000c8b600a546001600160a01b031690565b803b15620016d75781906004604051809481937fb60d42880000000000000000000000000000000000000000000000000000000083525af1801562000d5657620016b9575b507f3583c1105fd29a46b4d92ceeaff8be03cba58a11cce44a3b7da77bbc3798edc4620016b36200169962000c8b600a546001600160a01b031690565b6040516001600160a01b0390911681529081906020820190565b0390a180f35b80620016c9620016d09262000375565b8062000304565b386200165c565b50fd5b620016ff9060203d811162001707575b620016f68183620003ad565b81019062001b67565b5038620015fe565b503d620016ea565b3462000310576000366003190112620003105760206001600160a01b0360005416604051908152f35b346200031057600036600319011262000310576020601c54604051908152f35b346200031057600036600319011262000310576020601054604051908152f35b346200031057600036600319011262000310576020601254604051908152f35b34620003105760008060031936011262000b54576040519080600454620017bf8162000797565b8085529160019180831690811562000b275750600114620017ed5762000a378562000aba81870382620003ad565b9250600483527f8a35acfbc15ff81a39ae7d344fd709f28e8600b4aa8c65c6b64bfe7fe36bd19b5b8284106200183457505050810160200162000aba8262000a3762000aa7565b8054602085870181019190915290930192810162001815565b3462000310576000366003190112620003105760206001600160a01b0360185460081c16604051908152f35b346200031057600036600319011262000310576020600b54604051908152f35b3462000310576000366003190112620003105760206001600160a01b0360195416604051908152f35b346200031057600036600319011262000310576020601d54604051908152f35b600435906001600160a01b03821682036200031057565b35906001600160a01b03821682036200031057565b346200031057602036600319011262000310576001600160a01b0362001933620018e2565b6200193d62001b02565b16338114620019a3578073ffffffffffffffffffffffffffffffffffffffff1960015416176001556200197c62000c8b6000546001600160a01b031690565b7fed8889f560326eb138920d842192f0eb3dd22b4f139c87a2c57538e05bae1278600080a3005b606460405162461bcd60e51b815260206004820152601760248201527f43616e6e6f74207472616e7366657220746f2073656c660000000000000000006044820152fd5b346200031057600036600319011262000310576020601554604051908152f35b34620003105760003660031901126200031057602063ffffffff600d5416604051908152f35b346200031057600036600319011262000310576020600754604051908152f35b34620003105760008060031936011262000b5457604051908060055462001a748162000797565b8085529160019180831690811562000b27575060011462001aa25762000a378562000aba81870382620003ad565b9250600583527f036b6384b5eca791c62761152d0c79bb0604c104a5fb6f4eb0703f3154bb3db05b82841062001ae957505050810160200162000aba8262000a3762000aa7565b8054602085870181019190915290930192810162001aca565b6001600160a01b0360005416330362001b1757565b606460405162461bcd60e51b815260206004820152601660248201527f4f6e6c792063616c6c61626c65206279206f776e6572000000000000000000006044820152fd5b6040513d6000823e3d90fd5b908160209103126200031057518015158103620003105790565b9081602091031262000310575190565b9035601e19823603018112156200031057016020813591019167ffffffffffffffff8211620003105781360383136200031057565b908060209392818452848401376000828201840152601f01601f1916010190565b359060ff821682036200031057565b620009c8906020815262001c2b62001d4a62001c13858062001b91565b92906101409384602087015261016086019162001bc6565b62001d4262001cfa62001c5b62001c4660208a018a62001b91565b601f19898703810160408b0152959162001bc6565b62001c7d62001c6d60408b01620018f9565b6001600160a01b03166060890152565b62001c9c62001c8f60608b0162000e8b565b63ffffffff166080890152565b62001cbe62001cae60808b01620018f9565b6001600160a01b031660a0890152565b62001cda62001cd060a08b0162001be7565b60ff1660c0890152565b62001ce960c08a018a62001b91565b90858984030160e08a015262001bc6565b62001d2f62001d2562001d1160e08b018b62001b91565b6101009491878b840301868c015262001bc6565b9189018962001b91565b9061012094888403018589015262001bc6565b95016200146a565b6bffffffffffffffffffffffff16910152565b81811062001d69575050565b6000815560010162001d5d565b90601f821162001d84575050565b620008159160046000527f8a35acfbc15ff81a39ae7d344fd709f28e8600b4aa8c65c6b64bfe7fe36bd19b906020601f840160051c8301931062001dd1575b601f0160051c019062001d5d565b909150819062001dc3565b90601f821162001dea575050565b620008159160026000527f405787fa12a823e0f2b7631cc41b3ba8828b3321ca811111fa75cd3aa3bb5ace906020601f840160051c8301931062001dd157601f0160051c019062001d5d565b90601f821162001e44575050565b620008159160056000527f036b6384b5eca791c62761152d0c79bb0604c104a5fb6f4eb0703f3154bb3db0906020601f840160051c8301931062001dd157601f0160051c019062001d5d565b9190601f811162001ea057505050565b62000815926000526020600020906020601f840160051c8301931062001dd157601f0160051c019062001d5d565b634e487b7160e01b600052601160045260246000fd5b601f19810191908211620012e057565b600f544203428111620012e0576007541090606090565b1562001f1357565b606460405162461bcd60e51b815260206004820152601560248201527f55706b656570206e6f74207265676973746572656400000000000000000000006044820152fd5b604051906020820182811067ffffffffffffffff8211176200038a5760405260008252565b1562001f8457565b606460405162461bcd60e51b815260206004820152601560248201527f54696d6520696e74657276616c206e6f74206d657400000000000000000000006044820152fd5b9060018201809211620012e057565b9060208201809211620012e057565b91908201809211620012e057565b6040519060e0820182811067ffffffffffffffff8211176200038a57604052606060c08360008152600060208201526000604082015282808201528260808201528260a08201520152565b601e549067ffffffffffffffff82116200038a576040519160206200206a818360051b0185620003ad565b81845280840190601e6000527f50bb669a95c7b50b7e8a6f09454034b2b14cf2b85c730dca9a539ca82cb6e3506000925b848410620020aa575050505050565b6001838192620020ba856200089e565b8152019201930192906200209b565b90620020f960809367ffffffffffffffff63ffffffff939897969816845260a0602085015260a084019062000973565b95600160408401521660608201520152565b60009060033d116200211957565b905060046000803e60005160e01c90565b600060443d10620009c857604051600319913d83016004833e815167ffffffffffffffff918282113d6024840111176200218e5781840194855193841162002196573d850101602084870101116200218e5750620009c892910160200190620003ad565b949350505050565b50949350505050565b3d15620021cf573d90620021b382620003d0565b91620021c36040519384620003ad565b82523d6000602084013e565b606090565b9067ffffffffffffffff909493929416815260209360a085830152600060025495620022008762000797565b908160a086015260019788811690816000146200229b57506001146200223c575b5050604083019590955263ffffffff16606082015260800152565b600260009081529250877f405787fa12a823e0f2b7631cc41b3ba8828b3321ca811111fa75cd3aa3bb5ace5b838510620022855750505050820160c0018163ffffffff62002221565b805487860160c001529382019389910162002268565b60ff191660c08781019190915292151560051b8601909201925083915063ffffffff905062002221565b620022d4600b54151562001f0b565b620022de62001f57565b50620022f4620022ed62001ef4565b5062001f7c565b620022fe42600f55565b620023146200230f60105462001fc8565b601055565b601d54601e541015620024d357620023376200233260155462001fc8565b601555565b60065467ffffffffffffffff16602062002356600d5463ffffffff1690565b600e54926200237a604051948593849363230e93b160e11b855260048501620021d4565b038160006001600160a01b037f0000000000000000000000000000000000000000000000000000000000000000165af160009181620024ae575b506200246757506001620023c76200210b565b6308c379a0146200240e575b620023da57565b7f9c4bfa18304482256875c29fabb1a44a5ecd325f214ea17bab8f31e869faf4c86200240962000aba6200219f565b0390a1565b620024186200212a565b8062002426575b50620023d3565b90507f2ba61e3733e7ac99181c22307780f651ec8fd92fe661a84dfbe711710b2dc36c6200245d60009260405191829182620009b5565b0390a1386200241f565b6200247181601255565b620024876200248260165462001fc8565b601655565b7f1131472297a800fee664d1d89cfa8f7676ff07189ecc53f80bbb5f4969099db8600080a2565b620024cb91925060203d811162000d4e5762000d3e8183620003ad565b9038620023b4565b620024e6600160ff196018541617601855565b62002524620024f462001ff4565b6200250962002502620007d4565b8262002b90565b6200251e620025176200203f565b8262002bd2565b62002953565b620025356200233260155462001fc8565b60065467ffffffffffffffff166200257462002556600d5463ffffffff1690565b600e549060405194859463230e93b160e11b865260048601620020c9565b036000916020816001600160a01b03938186867f0000000000000000000000000000000000000000000000000000000000000000165af18391816200273a575b50620026f557506001620025c76200210b565b6308c379a0146200269d575b62002665575b7f000000000000000000000000000000000000000000000000000000000000000016600b54813b1562002661576040517f8765ecbe000000000000000000000000000000000000000000000000000000008152600481019190915291908290602490829084905af1801562000d565762002651575b50565b80620016c9620008159262000375565b8280fd5b7f9c4bfa18304482256875c29fabb1a44a5ecd325f214ea17bab8f31e869faf4c86200269462000aba6200219f565b0390a1620025d9565b620026a76200212a565b80620026b5575b50620025d3565b90507f2ba61e3733e7ac99181c22307780f651ec8fd92fe661a84dfbe711710b2dc36c620026eb849260405191829182620009b5565b0390a138620026ae565b620026ff81601255565b620027106200248260165462001fc8565b7f1131472297a800fee664d1d89cfa8f7676ff07189ecc53f80bbb5f4969099db88380a2620025d9565b6200275791925060203d811162000d4e5762000d3e8183620003ad565b9038620025b4565b604051906200276e8262000390565b600c82527f636f64654c6f636174696f6e00000000000000000000000000000000000000006020830152565b634e487b7160e01b600052602160045260246000fd5b60031115620027bb57565b6200279a565b60405190620027d08262000390565b600882527f6c616e67756167650000000000000000000000000000000000000000000000006020830152565b60011115620027bb57565b60405190620028168262000390565b600682527f736f7572636500000000000000000000000000000000000000000000000000006020830152565b60405190620028518262000390565b600482527f61726773000000000000000000000000000000000000000000000000000000006020830152565b6000198114620012e05760010190565b80518210156200077b5760209160051b010190565b60405190620028b18262000390565b600f82527f736563726574734c6f636174696f6e00000000000000000000000000000000006020830152565b60405190620028ec8262000390565b600782527f73656372657473000000000000000000000000000000000000000000000000006020830152565b60405190620029278262000390565b600982527f62797465734172677300000000000000000000000000000000000000000000006020830152565b6200295d62002c26565b90620029736200296c6200275f565b8362003418565b6200299681516200298481620027b0565b6200298f81620027b0565b8362002cd6565b620029a46200296c620027c1565b620029c36040820151620029b881620027fc565b6200298f81620027fc565b620029d16200296c62002807565b620029e160608201518362003418565b60a0810180515162002b27575b50608081019081515162002a79575b60c091500180515162002a11575b50515190565b9162002a206200296c62002918565b62002a2b82620034b0565b60005b8351805182101562002a63579062002a5762002a4f8262002a5d946200288d565b51856200334c565b6200287d565b62002a2e565b5050915062002a728162003548565b3862002a0b565b60208101805162002a8a81620027b0565b62002a9581620027b0565b1562002afd5760c09262002ada62002af79262002abc62002ab5620028a2565b8862003418565b5162002ac881620027b0565b62002ad381620027b0565b8662002cd6565b62002aef62002ae8620028dd565b8662003418565b51846200334c565b620029fd565b60046040517fa80d31f7000000000000000000000000000000000000000000000000000000008152fd5b9262002b3d62002b3662002842565b8462003418565b62002b4883620034b0565b60005b8451805182101562002b7a579062002a5762002b6c8262002b74946200288d565b518662003418565b62002b4b565b5050925062002b898262003548565b38620029ee565b81511562002ba8576000808252604082015260600152565b60046040517f22ce3edd000000000000000000000000000000000000000000000000000000008152fd5b81511562002be05760a00152565b60046040517ffe936cb7000000000000000000000000000000000000000000000000000000008152fd5b6040519062002c198262000390565b6000602083606081520152565b60405162002c348162000390565b62002c3e62002c0a565b808252602082016000815262002c5362002c0a565b50610100602083015260405180925260008252610120820191821062000310576000916040525290565b9062002c8862002c0a565b50601f81168062002cb9575b5080602083015260405190818352600082528101602001908110620003105760405290565b60200360208111620012e0578101809111620012e0573862002c94565b9081519162002ce462002c0a565b508251516001810190818111620012e057602085015181101562002d45575b60c2602062000815965192830101538051821162002d3c575b50506040519160208301526020825262002d368262000390565b6200334c565b52388062002d1c565b8160011b9482860460021483151715620012e05760208162002d7d620008159862002d7560c29551918462002c7d565b50826200327d565b509650505062002d03565b908160011b9180830460021490151715620012e057565b62002da962002c0a565b508051516001810190818111620012e057602083015181101562002de5575b605b6020845192830101538051821162002de157505090565b5290565b8160011b82810460021483151715620012e05762002e139062002e0b8551918662002c7d565b50846200327d565b5062002dc8565b62002e2462002c0a565b508051516001810190818111620012e057602083015181101562002e5c575b605a6020845192830101538051821162002de157505090565b8160011b82810460021483151715620012e05762002e829062002e0b8551918662002c7d565b5062002e43565b62002e9362002c0a565b508051516001810190818111620012e057602083015181101562002ecb575b60596020845192830101538051821162002de157505090565b8160011b82810460021483151715620012e05762002ef19062002e0b8551918662002c7d565b5062002eb2565b62002f0262002c0a565b508051516001810190818111620012e057602083015181101562002f3a575b60586020845192830101538051821162002de157505090565b8160011b82810460021483151715620012e05762002f609062002e0b8551918662002c7d565b5062002f21565b62002f7162002c0a565b508051516001810190818111620012e057602083015181101562002fa9575b607b6020845192830101538051821162002de157505090565b8160011b82810460021483151715620012e05762002fcf9062002e0b8551918662002c7d565b5062002f90565b62002fe062002c0a565b508051516001810190818111620012e057602083015181101562003018575b607a6020845192830101538051821162002de157505090565b8160011b82810460021483151715620012e0576200303e9062002e0b8551918662002c7d565b5062002fff565b6200304f62002c0a565b508051516001810190818111620012e057602083015181101562003087575b60796020845192830101538051821162002de157505090565b8160011b82810460021483151715620012e057620030ad9062002e0b8551918662002c7d565b506200306e565b620030be62002c0a565b508051516001810190818111620012e0576020830151811015620030f6575b60786020845192830101538051821162002de157505090565b8160011b82810460021483151715620012e0576200311c9062002e0b8551918662002c7d565b50620030dd565b906200312e62002c0a565b508151516001810191828211620012e057602084015182101562003164575b6020845192830101538051821162002de157505090565b8260011b83810460021484151715620012e05762003192906200318a8651918762002c7d565b50856200327d565b506200314d565b90620031a88251918362002c7d565b50620031b362002c0a565b50805190620031c162002c0a565b50620031d1815183111562003344565b82515192620031e1838562001fe6565b91602092828480940151821162003261575b518381519782010196821162003258575b505001915b818110156200322b5760001991036101000a0190811990511690825116179052565b91926200324b6200324462003252928651815262001fd7565b9462001fd7565b9262001ee4565b62003209565b52388062003204565b62003277620032708362002d88565b8262003199565b620031f3565b906200328862002c0a565b5080516200329562002c0a565b50620032a5825182111562003344565b82515191620032b5828462001fe6565b602091829182870151811162003328575b8651838151978201019682116200331f575b505001915b81811015620033005760001991036101000a019081199051169082511617905290565b91926200324b6200324462003319928651815262001fd7565b620032dd565b523880620032d8565b6200333e620033378262002d88565b8862003199565b620032c6565b156200031057565b81516200264e92919067ffffffffffffffff811690601782116200338957620033809150604060ff84519216179062003123565b505b516200327d565b5060ff8111620033b457620033ad90620033a4835162002ef8565b50825162003739565b5062003382565b61ffff8111620033d857620033ad90620033cf835162002e89565b508251620036c9565b63ffffffff8111620033fe57620033ad90620033f5835162002e1a565b50825162003657565b620033ad906200340f835162002d9f565b508251620035e1565b81516200264e92919067ffffffffffffffff811690601782116200344c57620033809150606060ff84519216179062003123565b5060ff81116200346757620033ad90620033a48351620030b4565b61ffff81116200348257620033ad90620033cf835162003045565b63ffffffff81116200349f57620033ad90620033f5835162002fd6565b620033ad906200340f835162002f67565b805190620034bd62002c0a565b508151516001810190818111620012e057602084015181101562003510575b609f602080955192830101538051821162003507575b50500180519060018201809211620012e05752565b523880620034f2565b8160011b9382850460021483151715620012e0576020816200353d829762002d75609f9551918462002c7d565b5095505050620034dc565b8051906200355562002c0a565b508151516001810190818111620012e0576020840151811015620035a9575b60ff6020809551928301015380518211620035a0575b5050018051600019810191908211620012e05752565b5238806200358a565b8160011b9382850460021483151715620012e057602081620035d6829762002d7560ff9551918462002c7d565b509550505062003574565b90620035ec62002c0a565b50815151806008019182600811620012e0576020840151831162003632575b60088451928301019067ffffffffffffffff198251161790528051821162002de157505090565b8260011b83810460021484151715620012e05762003651908562003199565b6200360b565b906200366262002c0a565b50815151806004019182600411620012e05760208401518311620036a4575b60048451928301019063ffffffff198251161790528051821162002de157505090565b8260011b83810460021484151715620012e057620036c3908562003199565b62003681565b90620036d462002c0a565b50815151806002019182600211620012e0576020840151831162003714575b60028451928301019061ffff198251161790528051821162002de157505090565b8260011b83810460021484151715620012e05762003733908562003199565b620036f3565b906200374462002c0a565b50815151806001019182600111620012e0576020840151831162003783575b60018451928301019060ff198251161790528051821162002de157505090565b8260011b83810460021484151715620012e057620037a2908562003199565b62003763565b90815167ffffffffffffffff81116200038a57620037d381620037cd60055462000797565b62001e36565b602080601f831160011462003812575081929360009262003806575b50508160011b916000199060031b1c191617600555565b015190503880620037ef565b90601f198316946200384660056000527f036b6384b5eca791c62761152d0c79bb0604c104a5fb6f4eb0703f3154bb3db090565b926000905b878210620038865750508360019596106200386c575b505050811b01600555565b015160001960f88460031b161c1916905538808062003861565b806001859682949686015181550195019301906200384b565b602081519101519060208110620038b4575090565b6000199060200360031b1b1690565b601e54680100000000000000008110156200038a57620038eb600191828101601e5562000743565b929092620039cc5780519067ffffffffffffffff82116200038a576200391e8262003917865462000797565b8662001e90565b60209081601f84116001146200395d575092829391839260009462003951575b50501b916000199060031b1c1916179055565b0151925038806200393e565b919083601f1981166200397588600052602060002090565b946000905b88838310620039b1575050501062003997575b505050811b019055565b015160001960f88460031b161c191690553880806200398d565b8587015188559096019594850194879350908101906200397a565b62000781565b9091620039ec620009c89360408452604084019062000973565b91602081840391015262000973565b1562003a0357565b606460405162461bcd60e51b815260206004820152601b60248201527f4572726f20616f207061676172206120696e64656e697a6163616f00000000006044820152fd5b602054601c54111562003a8d5762000815600080808062003a7862000c8b62000c8b6019546001600160a01b031690565b47905af162003a866200219f565b50620039fb565b60008080806001600160a01b0360185460081c1647905af162003aaf6200219f565b501562003ab857565b608460405162461bcd60e51b815260206004820152602d60248201527f4572726f20616f207265746f726e6172206f732066756e646f7320706172612060448201527f6120696e73746974756963616f000000000000000000000000000000000000006064820152fdfe60c0346100bc57601f61073a38819003918201601f19168301916001600160401b038311848410176100c1578084926060946040528339810103126100bc57610047816100d7565b906040610056602083016100d7565b9101516001600160601b03811692908390036100bc5760805260a052600180546001600160601b03191691909117905560405161064e90816100ec8239608051818181610114015281816101990152610373015260a0518181816101dc015261033b0152f35b600080fd5b634e487b7160e01b600052604160045260246000fd5b51906001600160a01b03821682036100bc5756fe60806040818152600436101561001457600080fd5b600091823560e01c90816301619d3d1461020057508063442b1278146101bd5780637d253aff1461017a578063b60d4288146100a95763bc61a4731461005957600080fd5b346100a557600319916020368401126100a2576004359267ffffffffffffffff84116100a5576101409084360301126100a2575061009b6020926004016102e6565b9051908152f35b80fd5b5080fd5b50346100a557816003193601126100a5576bffffffffffffffffffffffff60015416908051917f23b872dd0000000000000000000000000000000000000000000000000000000083523360048401523060248401526044830152602082606481866001600160a01b037f0000000000000000000000000000000000000000000000000000000000000000165af19081156101715750610146575080f35b6101669060203d811161016a575b61015e818361022a565b810190610262565b5080f35b503d610154565b513d84823e3d90fd5b50346100a557816003193601126100a557602090516001600160a01b037f0000000000000000000000000000000000000000000000000000000000000000168152f35b50346100a557816003193601126100a557602090516001600160a01b037f0000000000000000000000000000000000000000000000000000000000000000168152f35b8390346100a557816003193601126100a5576020906bffffffffffffffffffffffff600154168152f35b90601f8019910116810190811067ffffffffffffffff82111761024c57604052565b634e487b7160e01b600052604160045260246000fd5b9081602091031261027a5751801515810361027a5790565b600080fd5b9035601e198236030181121561027a57016020813591019167ffffffffffffffff821161027a57813603831361027a57565b908060209392818452848401376000828201840152601f01601f1916010190565b35906001600160a01b038216820361027a57565b90600091610120810135906bffffffffffffffffffffffff82168092036105ed5760408051917f095ea7b30000000000000000000000000000000000000000000000000000000083526001600160a01b0390817f00000000000000000000000000000000000000000000000000000000000000001680600486015285602486015260209485816044818c887f0000000000000000000000000000000000000000000000000000000000000000165af1801561060e576105f1575b508351957f3f678e11000000000000000000000000000000000000000000000000000000008752856004880152886103ee6103db858061027f565b61014060248c01526101648b01916102b1565b916104126103fe8987018761027f565b6023198c8703810160448e015295916102b1565b958061041f8988016102d2565b1660648b0152606086013563ffffffff81168091036105ed5760848b0152610449608087016102d2565b1660a48a015260a08501359060ff82168092036105e9576104d08a9687956104c06104b46104968e9c8a9860c48a015261048660c087018761027f565b90868b84030160e48c01526102b1565b6104a360e086018661027f565b90858a8403016101048b01526102b1565b9261010081019061027f565b91868403016101248701526102b1565b9061014483015203925af19283156105df5785936105ac575b50821561054f573385528482528420908154916801000000000000000083101561053b57600183018082558310156105275794839495815220015590565b602486634e487b7160e01b81526032600452fd5b602486634e487b7160e01b81526041600452fd5b6064925051907f08c379a00000000000000000000000000000000000000000000000000000000082526004820152601560248201527f6175746f2d617070726f76652064697361626c656400000000000000000000006044820152fd5b9092508181813d83116105d8575b6105c4818361022a565b810103126105d4575191386104e9565b8480fd5b503d6105ba565b81513d87823e3d90fd5b8280fd5b8380fd5b61060790863d881161016a5761015e818361022a565b50386103a0565b85513d8b823e3d90fdfea26469706673582212209ca455be61c45d9c7e515967f303b8ab4a822792fd7267d08664d38b1d82e42764736f6c63430008130033a2646970667358221220b5e8b6a5f62b80e4cac321f7b9c4f137f88b63dcc5a8e15ae9fa8b67fdbd7ea964736f6c63430008130033",
  "linkReferences": {},
  "deployedLinkReferences": {}
}