{
  "_format": "hh-sol-artifact-1",
  "contractName": "AutomatedFunctionsConsumer",
  "sourceName": "contracts/AutomatedFunctionsConsumer.sol",
  "abi": [
    {
      "inputs": [
        {
          "internalType": "address",
          "name": "_deployer",
          "type": "address"
        },
        {
          "internalType": "address",
          "name": "_farmer",
          "type": "address"
        },
        {
          "internalType": "uint256",
          "name": "_humidityLimit",
          "type": "uint256"
        },
        {
          "internalType": "uint256",
          "name": "_sampleMaxSize",
          "type": "uint256"
        },
        {
          "internalType": "uint256",
          "name": "_reparationValue",
          "type": "uint256"
        },
        {
          "internalType": "uint256",
          "name": "_updateInterval",
          "type": "uint256"
        },
        {
          "internalType": "address",
          "name": "router",
          "type": "address"
        },
        {
          "internalType": "uint64",
          "name": "_subscriptionId",
          "type": "uint64"
        },
        {
          "internalType": "address",
          "name": "_registry",
          "type": "address"
        },
        {
          "internalType": "address",
          "name": "_sepoliaLINKAddress",
          "type": "address"
        },
        {
          "internalType": "address",
          "name": "_sepoliaRegistrarAddress",
          "type": "address"
        },
        {
          "internalType": "uint32",
          "name": "_fulfillGasLimit",
          "type": "uint32"
        }
      ],
      "stateMutability": "payable",
      "type": "constructor"
    },
    {
      "inputs": [],
      "name": "EmptyArgs",
      "type": "error"
    },
    {
      "inputs": [],
      "name": "EmptySource",
      "type": "error"
    },
    {
      "inputs": [],
      "name": "NoInlineSecrets",
      "type": "error"
    },
    {
      "inputs": [
        {
          "internalType": "address",
          "name": "caller",
          "type": "address"
        },
        {
          "internalType": "address",
          "name": "owner",
          "type": "address"
        },
        {
          "internalType": "address",
          "name": "automationRegistry",
          "type": "address"
        }
      ],
      "name": "NotAllowedCaller",
      "type": "error"
    },
    {
      "inputs": [],
      "name": "OnlyRouterCanFulfill",
      "type": "error"
    },
    {
      "inputs": [
        {
          "internalType": "bytes32",
          "name": "requestId",
          "type": "bytes32"
        }
      ],
      "name": "UnexpectedRequestID",
      "type": "error"
    },
    {
      "anonymous": false,
      "inputs": [
        {
          "indexed": false,
          "internalType": "uint256",
          "name": "upkeepId",
          "type": "uint256"
        }
      ],
      "name": "LINKsRetrieved",
      "type": "event"
    },
    {
      "anonymous": false,
      "inputs": [
        {
          "indexed": true,
          "internalType": "bytes32",
          "name": "requestId",
          "type": "bytes32"
        },
        {
          "indexed": false,
          "internalType": "bytes",
          "name": "result",
          "type": "bytes"
        },
        {
          "indexed": false,
          "internalType": "bytes",
          "name": "err",
          "type": "bytes"
        }
      ],
      "name": "OCRResponse",
      "type": "event"
    },
    {
      "anonymous": false,
      "inputs": [
        {
          "indexed": true,
          "internalType": "address",
          "name": "from",
          "type": "address"
        },
        {
          "indexed": true,
          "internalType": "address",
          "name": "to",
          "type": "address"
        }
      ],
      "name": "OwnershipTransferRequested",
      "type": "event"
    },
    {
      "anonymous": false,
      "inputs": [
        {
          "indexed": true,
          "internalType": "address",
          "name": "from",
          "type": "address"
        },
        {
          "indexed": true,
          "internalType": "address",
          "name": "to",
          "type": "address"
        }
      ],
      "name": "OwnershipTransferred",
      "type": "event"
    },
    {
      "anonymous": false,
      "inputs": [
        {
          "indexed": true,
          "internalType": "bytes32",
          "name": "id",
          "type": "bytes32"
        }
      ],
      "name": "RequestFulfilled",
      "type": "event"
    },
    {
      "anonymous": false,
      "inputs": [
        {
          "indexed": false,
          "internalType": "string",
          "name": "reason",
          "type": "string"
        }
      ],
      "name": "RequestRevertedWithErrorMsg",
      "type": "event"
    },
    {
      "anonymous": false,
      "inputs": [
        {
          "indexed": false,
          "internalType": "bytes",
          "name": "data",
          "type": "bytes"
        }
      ],
      "name": "RequestRevertedWithoutErrorMsg",
      "type": "event"
    },
    {
      "anonymous": false,
      "inputs": [
        {
          "indexed": true,
          "internalType": "bytes32",
          "name": "id",
          "type": "bytes32"
        }
      ],
      "name": "RequestSent",
      "type": "event"
    },
    {
      "anonymous": false,
      "inputs": [
        {
          "indexed": true,
          "internalType": "bytes32",
          "name": "requestId",
          "type": "bytes32"
        },
        {
          "indexed": false,
          "internalType": "bytes",
          "name": "response",
          "type": "bytes"
        },
        {
          "indexed": false,
          "internalType": "bytes",
          "name": "err",
          "type": "bytes"
        }
      ],
      "name": "Response",
      "type": "event"
    },
    {
      "anonymous": false,
      "inputs": [
        {
          "indexed": false,
          "internalType": "address",
          "name": "upkeepAddress",
          "type": "address"
        }
      ],
      "name": "upkeepCreated",
      "type": "event"
    },
    {
      "anonymous": false,
      "inputs": [
        {
          "indexed": false,
          "internalType": "uint256",
          "name": "upkeepId",
          "type": "uint256"
        }
      ],
      "name": "upkeepRegistered",
      "type": "event"
    },
    {
      "inputs": [],
      "name": "acceptOwnership",
      "outputs": [],
      "stateMutability": "nonpayable",
      "type": "function"
    },
    {
      "inputs": [
        {
          "internalType": "uint96",
          "name": "amount",
          "type": "uint96"
        }
      ],
      "name": "approveLINK",
      "outputs": [],
      "stateMutability": "nonpayable",
      "type": "function"
    },
    {
      "inputs": [],
      "name": "c_upkeep",
      "outputs": [
        {
          "internalType": "contract Upkeep",
          "name": "",
          "type": "address"
        }
      ],
      "stateMutability": "view",
      "type": "function"
    },
    {
      "inputs": [
        {
          "internalType": "bytes",
          "name": "",
          "type": "bytes"
        }
      ],
      "name": "checkUpkeep",
      "outputs": [
        {
          "internalType": "bool",
          "name": "upkeepNeeded",
          "type": "bool"
        },
        {
          "internalType": "bytes",
          "name": "performData",
          "type": "bytes"
        }
      ],
      "stateMutability": "view",
      "type": "function"
    },
    {
      "inputs": [],
      "name": "contractBalance",
      "outputs": [
        {
          "internalType": "uint256",
          "name": "",
          "type": "uint256"
        }
      ],
      "stateMutability": "view",
      "type": "function"
    },
    {
      "inputs": [
        {
          "internalType": "uint96",
          "name": "upkeepFundAmount",
          "type": "uint96"
        }
      ],
      "name": "createUpkeep",
      "outputs": [],
      "stateMutability": "nonpayable",
      "type": "function"
    },
    {
      "inputs": [],
      "name": "deployer",
      "outputs": [
        {
          "internalType": "address",
          "name": "",
          "type": "address"
        }
      ],
      "stateMutability": "view",
      "type": "function"
    },
    {
      "inputs": [],
      "name": "donID",
      "outputs": [
        {
          "internalType": "bytes32",
          "name": "",
          "type": "bytes32"
        }
      ],
      "stateMutability": "view",
      "type": "function"
    },
    {
      "inputs": [],
      "name": "farmer",
      "outputs": [
        {
          "internalType": "address",
          "name": "",
          "type": "address"
        }
      ],
      "stateMutability": "view",
      "type": "function"
    },
    {
      "inputs": [],
      "name": "fulfillGasLimit",
      "outputs": [
        {
          "internalType": "uint32",
          "name": "",
          "type": "uint32"
        }
      ],
      "stateMutability": "view",
      "type": "function"
    },
    {
      "inputs": [],
      "name": "gasLimit",
      "outputs": [
        {
          "internalType": "uint32",
          "name": "",
          "type": "uint32"
        }
      ],
      "stateMutability": "view",
      "type": "function"
    },
    {
      "inputs": [
        {
          "internalType": "bytes32",
          "name": "requestId",
          "type": "bytes32"
        },
        {
          "internalType": "bytes",
          "name": "response",
          "type": "bytes"
        },
        {
          "internalType": "bytes",
          "name": "err",
          "type": "bytes"
        }
      ],
      "name": "handleOracleFulfillment",
      "outputs": [],
      "stateMutability": "nonpayable",
      "type": "function"
    },
    {
      "inputs": [],
      "name": "humidityLimit",
      "outputs": [
        {
          "internalType": "uint256",
          "name": "",
          "type": "uint256"
        }
      ],
      "stateMutability": "view",
      "type": "function"
    },
    {
      "inputs": [],
      "name": "lastUpkeepTimeStamp",
      "outputs": [
        {
          "internalType": "uint256",
          "name": "",
          "type": "uint256"
        }
      ],
      "stateMutability": "view",
      "type": "function"
    },
    {
      "inputs": [],
      "name": "latestError",
      "outputs": [
        {
          "internalType": "bytes",
          "name": "",
          "type": "bytes"
        }
      ],
      "stateMutability": "view",
      "type": "function"
    },
    {
      "inputs": [],
      "name": "latestRequestId",
      "outputs": [
        {
          "internalType": "bytes32",
          "name": "",
          "type": "bytes32"
        }
      ],
      "stateMutability": "view",
      "type": "function"
    },
    {
      "inputs": [],
      "name": "latestResponse",
      "outputs": [
        {
          "internalType": "bytes",
          "name": "",
          "type": "bytes"
        }
      ],
      "stateMutability": "view",
      "type": "function"
    },
    {
      "inputs": [],
      "name": "owner",
      "outputs": [
        {
          "internalType": "address",
          "name": "",
          "type": "address"
        }
      ],
      "stateMutability": "view",
      "type": "function"
    },
    {
      "inputs": [
        {
          "internalType": "bytes",
          "name": "",
          "type": "bytes"
        }
      ],
      "name": "performUpkeep",
      "outputs": [],
      "stateMutability": "nonpayable",
      "type": "function"
    },
    {
      "inputs": [
        {
          "components": [
            {
              "internalType": "string",
              "name": "name",
              "type": "string"
            },
            {
              "internalType": "bytes",
              "name": "encryptedEmail",
              "type": "bytes"
            },
            {
              "internalType": "address",
              "name": "upkeepContract",
              "type": "address"
            },
            {
              "internalType": "uint32",
              "name": "gasLimit",
              "type": "uint32"
            },
            {
              "internalType": "address",
              "name": "adminAddress",
              "type": "address"
            },
            {
              "internalType": "uint8",
              "name": "triggerType",
              "type": "uint8"
            },
            {
              "internalType": "bytes",
              "name": "checkData",
              "type": "bytes"
            },
            {
              "internalType": "bytes",
              "name": "triggerConfig",
              "type": "bytes"
            },
            {
              "internalType": "bytes",
              "name": "offchainConfig",
              "type": "bytes"
            },
            {
              "internalType": "uint96",
              "name": "amount",
              "type": "uint96"
            }
          ],
          "internalType": "struct RegistrationParams",
          "name": "params",
          "type": "tuple"
        }
      ],
      "name": "registerUpkeep",
      "outputs": [],
      "stateMutability": "nonpayable",
      "type": "function"
    },
    {
      "inputs": [],
      "name": "registry",
      "outputs": [
        {
          "internalType": "contract IAutomationRegistryConsumer",
          "name": "",
          "type": "address"
        }
      ],
      "stateMutability": "view",
      "type": "function"
    },
    {
      "inputs": [],
      "name": "reparationValue",
      "outputs": [
        {
          "internalType": "uint256",
          "name": "",
          "type": "uint256"
        }
      ],
      "stateMutability": "view",
      "type": "function"
    },
    {
      "inputs": [],
      "name": "request",
      "outputs": [
        {
          "internalType": "bytes",
          "name": "",
          "type": "bytes"
        }
      ],
      "stateMutability": "view",
      "type": "function"
    },
    {
      "inputs": [],
      "name": "requestCBOR",
      "outputs": [
        {
          "internalType": "bytes",
          "name": "",
          "type": "bytes"
        }
      ],
      "stateMutability": "view",
      "type": "function"
    },
    {
      "inputs": [],
      "name": "responseCounter",
      "outputs": [
        {
          "internalType": "uint256",
          "name": "",
          "type": "uint256"
        }
      ],
      "stateMutability": "view",
      "type": "function"
    },
    {
      "inputs": [],
      "name": "s_lastError",
      "outputs": [
        {
          "internalType": "bytes",
          "name": "",
          "type": "bytes"
        }
      ],
      "stateMutability": "view",
      "type": "function"
    },
    {
      "inputs": [],
      "name": "s_lastRequestId",
      "outputs": [
        {
          "internalType": "bytes32",
          "name": "",
          "type": "bytes32"
        }
      ],
      "stateMutability": "view",
      "type": "function"
    },
    {
      "inputs": [],
      "name": "s_lastResponse",
      "outputs": [
        {
          "internalType": "bytes",
          "name": "",
          "type": "bytes"
        }
      ],
      "stateMutability": "view",
      "type": "function"
    },
    {
      "inputs": [],
      "name": "s_requestCounter",
      "outputs": [
        {
          "internalType": "uint256",
          "name": "",
          "type": "uint256"
        }
      ],
      "stateMutability": "view",
      "type": "function"
    },
    {
      "inputs": [],
      "name": "s_responseCounter",
      "outputs": [
        {
          "internalType": "uint256",
          "name": "",
          "type": "uint256"
        }
      ],
      "stateMutability": "view",
      "type": "function"
    },
    {
      "inputs": [],
      "name": "s_upkeepCounter",
      "outputs": [
        {
          "internalType": "uint256",
          "name": "",
          "type": "uint256"
        }
      ],
      "stateMutability": "view",
      "type": "function"
    },
    {
      "inputs": [],
      "name": "sampleMaxSize",
      "outputs": [
        {
          "internalType": "uint256",
          "name": "",
          "type": "uint256"
        }
      ],
      "stateMutability": "view",
      "type": "function"
    },
    {
      "inputs": [
        {
          "internalType": "uint256",
          "name": "",
          "type": "uint256"
        }
      ],
      "name": "sampleStorage",
      "outputs": [
        {
          "internalType": "string",
          "name": "",
          "type": "string"
        }
      ],
      "stateMutability": "view",
      "type": "function"
    },
    {
      "inputs": [],
      "name": "sepoliaLINKAddress",
      "outputs": [
        {
          "internalType": "address",
          "name": "",
          "type": "address"
        }
      ],
      "stateMutability": "view",
      "type": "function"
    },
    {
      "inputs": [],
      "name": "sepoliaRegistrarAddress",
      "outputs": [
        {
          "internalType": "address",
          "name": "",
          "type": "address"
        }
      ],
      "stateMutability": "view",
      "type": "function"
    },
    {
      "inputs": [
        {
          "internalType": "bytes",
          "name": "newRequestCBOR",
          "type": "bytes"
        },
        {
          "internalType": "uint64",
          "name": "_subscriptionId",
          "type": "uint64"
        },
        {
          "internalType": "uint32",
          "name": "_fulfillGasLimit",
          "type": "uint32"
        },
        {
          "internalType": "bytes32",
          "name": "_donID",
          "type": "bytes32"
        },
        {
          "internalType": "uint256",
          "name": "_updateInterval",
          "type": "uint256"
        }
      ],
      "name": "setRequest",
      "outputs": [],
      "stateMutability": "nonpayable",
      "type": "function"
    },
    {
      "inputs": [],
      "name": "subscriptionId",
      "outputs": [
        {
          "internalType": "uint64",
          "name": "",
          "type": "uint64"
        }
      ],
      "stateMutability": "view",
      "type": "function"
    },
    {
      "inputs": [
        {
          "internalType": "address",
          "name": "to",
          "type": "address"
        }
      ],
      "name": "transferOwnership",
      "outputs": [],
      "stateMutability": "nonpayable",
      "type": "function"
    },
    {
      "inputs": [],
      "name": "updateInterval",
      "outputs": [
        {
          "internalType": "uint256",
          "name": "",
          "type": "uint256"
        }
      ],
      "stateMutability": "view",
      "type": "function"
    },
    {
      "inputs": [],
      "name": "upkeepContract",
      "outputs": [
        {
          "internalType": "address",
          "name": "",
          "type": "address"
        }
      ],
      "stateMutability": "view",
      "type": "function"
    },
    {
      "inputs": [],
      "name": "upkeepCounter",
      "outputs": [
        {
          "internalType": "uint256",
          "name": "",
          "type": "uint256"
        }
      ],
      "stateMutability": "view",
      "type": "function"
    },
    {
      "inputs": [],
      "name": "upkeepId",
      "outputs": [
        {
          "internalType": "uint256",
          "name": "",
          "type": "uint256"
        }
      ],
      "stateMutability": "view",
      "type": "function"
    },
    {
      "stateMutability": "payable",
      "type": "receive"
    }
  ],
  "bytecode": "0x6001600160401b0360c0601f6200464238819003918201601f191683019184831184841017620001fb5780849261018094604052833981010312620001f657620000498162000211565b90620000586020820162000211565b9260408201519060608301519460808401519160a0850151916200007f60c0870162000211565b60e0870151928316809303620001f6576200009e610100880162000211565b93620000ae610120890162000211565b95610160620000c16101408b0162000211565b9901519263ffffffff84168403620001f6576001600160a01b03908116608052998a169a8b15620001b1578a986bffffffff00000000000000009560018060a01b03199d8e81816000541617600055600254161760025560195490610100600160a81b039060081b1690610100600160a81b03191617601955601c55601d55601b5560085585600754941660a05260401b169160018060601b0319161717600755168360095416176009551690600a541617600a554260105560405161441b90816200022782396080518181816104ab0152818161242d0152612633015260a05181818161142001526137e00152f35b60405162461bcd60e51b815260206004820152601860248201527f43616e6e6f7420736574206f776e657220746f207a65726f00000000000000006044820152606490fd5b600080fd5b634e487b7160e01b600052604160045260246000fd5b51906001600160a01b0382168203620001f65756fe608060405260043610156200001d575b36156200001b57600080fd5b005b60003560e01c8063089ea02e146200031057806309c1ba2e146200030a5780630ca7617514620003045780631243bcc314620002fe5780631aa46f5914620002f857806324b93e3e14620002f2578063277e221314620002ec5780632fc2a7b914620002e6578063338cdca114620002e0578063381fc4b514620002da5780633944ea3a14620002d45780633f678e1114620002ce57806343cd3d8614620002c85780634585e33b14620002c2578063472cbbb014620002bc57806348802b9214620002b657806348bd6f0514620002b05780634b0795a814620002aa5780635e0611f114620002a4578063688ecfd1146200029e5780636baa48fe14620002985780636e04ff0d14620002925780636e74336b146200028c57806379ba509714620002865780637b10399914620002805780638b7afe2e146200027a5780638d7e6d2d14620002745780638da5cb5b146200026e578063a30971391462000268578063a3d3c0d21462000262578063b1e21749146200025c578063bef3a2f01462000256578063c5e146881462000250578063d2aa789f146200024a578063d5f394881462000244578063d811fcf0146200023e578063ebf14a551462000238578063f2fde38b1462000232578063f5c1279b146200022c578063f68016b71462000226578063fd2c80ae14620002205763fffeb84e036200000f5762001af2565b62001ad2565b62001aac565b62001a8c565b620019b3565b62001967565b6200193b565b62001912565b620018f2565b62001848565b62001793565b62001773565b62001753565b62001733565b6200170a565b62001498565b62001444565b620013fe565b6200131a565b620012fa565b62001278565b6200124f565b6200119a565b62001171565b620010bc565b6200109c565b6200107c565b62000eb1565b62000dc1565b62000d70565b62000c40565b62000b8b565b62000b6b565b62000a78565b62000a4f565b620009df565b62000718565b620006f8565b620006cf565b6200044c565b62000347565b62000327565b60009103126200032257565b600080fd5b346200032257600036600319011262000322576020601054604051908152f35b34620003225760003660031901126200032257602067ffffffffffffffff60075416604051908152f35b634e487b7160e01b600052604160045260246000fd5b67ffffffffffffffff81116200039c57604052565b62000371565b6040810190811067ffffffffffffffff8211176200039c57604052565b90601f8019910116810190811067ffffffffffffffff8211176200039c57604052565b67ffffffffffffffff81116200039c57601f01601f191660200190565b81601f8201121562000322578035906200041982620003e2565b92620004296040519485620003bf565b828452602083830101116200032257816000926020809301838601378301015290565b3462000322576060366003190112620003225760043567ffffffffffffffff602435818111620003225762000486903690600401620003ff565b6044358281116200032257620004a1903690600401620003ff565b6001600160a01b037f0000000000000000000000000000000000000000000000000000000000000000163303620006a55781519283116200039c578391620004f684620004f0600554620007ab565b62001e1b565b60209384601f8211600114620005f55750807f7bab0ec163b5c132c72b8146ac4d6e067e82ed58f8b131150aa71c92589115629495600091620005e9575b508160011b916000199060031b1c1916176005555b620005548262003930565b6200056a620005656012546200206d565b601255565b60ff6200057960195460ff1690565b16620005c5576200058a8162003a4b565b6200059b6040519283928362003b5a565b0390a27f85e1543bf2f84fe80c6badbce3648c8539ad1df4d2b3d822938ca0538be727e6600080a2005b620005d9620005d48262003a27565b602055565b620005e362003bcf565b6200058a565b90508201513862000534565b600560005294601f1982167f036b6384b5eca791c62761152d0c79bb0604c104a5fb6f4eb0703f3154bb3db0966000905b828210620006885750509582916001937f7bab0ec163b5c132c72b8146ac4d6e067e82ed58f8b131150aa71c92589115629798106200066e575b5050811b0160055562000549565b84015160001960f88460031b161c19169055388062000660565b858401518955600190980197899750928301929081019062000626565b60046040517fc6829f83000000000000000000000000000000000000000000000000000000008152fd5b3462000322576000366003190112620003225760206001600160a01b0360095416604051908152f35b346200032257600036600319011262000322576020600454604051908152f35b34620003225760003660031901126200032257602060075463ffffffff6040519160401c168152f35b634e487b7160e01b600052603260045260246000fd5b601e548110156200078f57601e6000527f50bb669a95c7b50b7e8a6f09454034b2b14cf2b85c730dca9a539ca82cb6e3500190600090565b62000741565b634e487b7160e01b600052600060045260246000fd5b90600182811c92168015620007dd575b6020831014620007c757565b634e487b7160e01b600052602260045260246000fd5b91607f1691620007bb565b60405190600082601f5491620007fe83620007ab565b808352926001908181169081156200088e57506001146200082b575b506200082992500383620003bf565b565b601f600090815291507fa03837a25210ee280c2113ff4b77ca23440b19d4866cca721c801278fd08d8075b848310620008725750620008299350508101602001386200081a565b81935090816020925483858a0101520191019091859262000856565b9050602092506200082994915060ff191682840152151560051b820101386200081a565b9060405191826000825492620008c884620007ab565b9081845260019485811690816000146200093d5750600114620008f6575b50506200082992500383620003bf565b9093915060005260209081600020936000915b818310620009245750506200082993508201013880620008e6565b8554888401850152948501948794509183019162000909565b9150506200082994506020925060ff191682840152151560051b8201013880620008e6565b60005b8281106200097557506000910152565b60808101518282015260200162000965565b919082519283825260005b848110620009b4575050826000602080949584010152601f8019910116010190565b60208183018101518483018201520162000992565b906020620009dc92818152019062000987565b90565b34620003225760203660031901126200032257600435601e54811015620003225762000a3662000a4b91601e6000527f50bb669a95c7b50b7e8a6f09454034b2b14cf2b85c730dca9a539ca82cb6e35001620008b2565b60405191829160208352602083019062000987565b0390f35b3462000322576000366003190112620003225760206001600160a01b03600b5416604051908152f35b34620003225760008060031936011262000b68576040519080600d5462000a9f81620007ab565b8085529160019180831690811562000b3b575060011462000adb575b62000a4b8562000ace81870382620003bf565b60405191829182620009c9565b9250600d83527fd7b6990105719101dabeb77144f2a3385c8033acd3af97e9423a695e81ad1eb55b82841062000b2257505050810160200162000ace8262000a4b62000abb565b8054602085870181019190915290930192810162000b03565b86955062000a4b9693506020925062000ace94915060ff191682840152151560051b820101929362000abb565b80fd5b346200032257600036600319011262000322576020601254604051908152f35b34620003225760008060031936011262000b6857604051908060145462000bb281620007ab565b8085529160019180831690811562000b3b575060011462000be05762000a4b8562000ace81870382620003bf565b9250601483527fce6d7b5282bd9a3661ae061feed1dbda4e52ab073b1f9285be6e155d9c38d4ec5b82841062000c2757505050810160200162000ace8262000a4b62000abb565b8054602085870181019190915290930192810162000c08565b34620003225760031960203682011262000322576004359067ffffffffffffffff821162000322576101409082360301126200032257602062000ce560009262000cab62000c9f6001600160a01b03600b54166001600160a01b031690565b6001600160a01b031690565b906040519485809481937fbc61a4730000000000000000000000000000000000000000000000000000000083526004016004830162001c9b565b03925af1801562000d6a5762000d049160009162000d35575b50600c55565b600c546040519081527f7623383a750b4166574a1b2dff61440ed0dfa3708cbe620c58339cca510d1af990602090a1005b62000d5b915060203d811162000d62575b62000d528183620003bf565b81019062001c26565b3862000cfe565b503d62000d46565b62001c1a565b346200032257600036600319011262000322576020601854604051908152f35b9181601f84011215620003225782359167ffffffffffffffff83116200032257602083818601950101116200032257565b3462000322576020366003190112620003225760043567ffffffffffffffff8111620003225762000df790369060040162000d90565b50506000546001600160a01b0316338114158062000e6a575b62000e1f576200001b6200236a565b601a546040517f426fbc710000000000000000000000000000000000000000000000000000000081523360048201526001600160a01b03928316602482015291166044820152606490fd5b5062000e8262000c9f601a546001600160a01b031690565b33141562000e10565b6044359063ffffffff821682036200032257565b359063ffffffff821682036200032257565b34620003225760a0366003190112620003225767ffffffffffffffff600435818111620003225762000ee890369060040162000d90565b60243592918383168403620003225762000f0162000e8b565b9262000f0c62001ba7565b82116200039c5762000f2b8262000f25600354620007ab565b62001e81565b600090601f831160011462000fd257918062000fae959262000f839460009262000fc6575b50508160011b916000199060031b1c19161760035567ffffffffffffffff1667ffffffffffffffff196007541617600755565b6bffffffff00000000000000006007549160401b16906bffffffff0000000000000000191617600755565b62000fba606435600f55565b6200001b608435600855565b01359050388062000f50565b60036000527fc2575a0e9e593c00f959f8c92f12db2869c3395a3b0502d05e2516446f71f85b91601f198416815b81811062001063575092600192859262000f839662000fae99961062001048575b505050811b0160035567ffffffffffffffff1667ffffffffffffffff196007541617600755565b0135600019600384901b60f8161c1916905538808062001021565b9193602060018192878701358155019501920162001000565b346200032257600036600319011262000322576020601754604051908152f35b346200032257600036600319011262000322576020601b54604051908152f35b34620003225760008060031936011262000b68576040519080601554620010e381620007ab565b8085529160019180831690811562000b3b5750600114620011115762000a4b8562000ace81870382620003bf565b9250601583527f55f448fdea98c4d29eb340757ef0a66cd03dbb9538908a6a81d96026b71ec4755b8284106200115857505050810160200162000ace8262000a4b62000abb565b8054602085870181019190915290930192810162001139565b3462000322576000366003190112620003225760206001600160a01b03601a5416604051908152f35b34620003225760008060031936011262000b68576040519080600354620011c181620007ab565b8085529160019180831690811562000b3b5750600114620011ef5762000a4b8562000ace81870382620003bf565b9250600383527fc2575a0e9e593c00f959f8c92f12db2869c3395a3b0502d05e2516446f71f85b5b8284106200123657505050810160200162000ace8262000a4b62000abb565b8054602085870181019190915290930192810162001217565b3462000322576000366003190112620003225760206001600160a01b03600a5416604051908152f35b3462000322576020366003190112620003225760043567ffffffffffffffff81116200032257620012ae903690600401620003ff565b506010544203428111620012f45760085410604051908152604060208201526060818151806040830152620012e68184840162000962565b601f01601f19168101030190f35b62001f73565b346200032257600036600319011262000322576020600f54604051908152f35b34620003225760008060031936011262000b68576001600160a01b0380600154163303620013ba5781546001600160a01b03166000805473ffffffffffffffffffffffffffffffffffffffff191633179055906200139073ffffffffffffffffffffffffffffffffffffffff1960015416600155565b3391167f8be0079c531659141344cd1fd0a4f28419497f9722a3daafe3b4186f6b6457e08380a380f35b606460405162461bcd60e51b815260206004820152601660248201527f4d7573742062652070726f706f736564206f776e6572000000000000000000006044820152fd5b3462000322576000366003190112620003225760206040516001600160a01b037f0000000000000000000000000000000000000000000000000000000000000000168152f35b34620003225760003660031901126200032257602047604051908152f35b600435906bffffffffffffffffffffffff821682036200032257565b35906bffffffffffffffffffffffff821682036200032257565b34620003225760203660031901126200032257620014b562001462565b6009546001600160a01b031690620014d5600a546001600160a01b031690565b916040519261073a8085019185831067ffffffffffffffff8411176200039c5785936200153393869362003cac87396001600160a01b039182168152911660208201526bffffffffffffffffffffffff909116604082015260600190565b0360009283f0801562000d6a57620015e891620015756020926001600160a01b031673ffffffffffffffffffffffffffffffffffffffff19600b541617600b55565b6200159062000c9f62000c9f6009546001600160a01b031690565b620015a762000c9f600b546001600160a01b031690565b8560405180968195829463095ea7b360e01b8452600484019092916bffffffffffffffffffffffff6020916001600160a01b03604085019616845216910152565b03925af1801562000d6a57620016d5575b50806200161262000c9f600b546001600160a01b031690565b803b15620016d25781906004604051809481937fb60d42880000000000000000000000000000000000000000000000000000000083525af1801562000d6a57620016b4575b507f3583c1105fd29a46b4d92ceeaff8be03cba58a11cce44a3b7da77bbc3798edc4620016ae6200169462000c9f600b546001600160a01b031690565b6040516001600160a01b0390911681529081906020820190565b0390a180f35b80620016c4620016cb9262000387565b8062000316565b3862001657565b50fd5b620016fa9060203d811162001702575b620016f18183620003bf565b81019062001c00565b5038620015f9565b503d620016e5565b3462000322576000366003190112620003225760206001600160a01b0360005416604051908152f35b346200032257600036600319011262000322576020601c54604051908152f35b346200032257600036600319011262000322576020601154604051908152f35b346200032257600036600319011262000322576020601354604051908152f35b34620003225760008060031936011262000b68576040519080600554620017ba81620007ab565b8085529160019180831690811562000b3b5750600114620017e85762000a4b8562000ace81870382620003bf565b9250600583527f036b6384b5eca791c62761152d0c79bb0604c104a5fb6f4eb0703f3154bb3db05b8284106200182f57505050810160200162000ace8262000a4b62000abb565b8054602085870181019190915290930192810162001810565b3462000322576020366003190112620003225760006020620018c56200186d62001462565b6200187762001ba7565b6001600160a01b03600954169060405194858094819363095ea7b360e01b835233600484019092916bffffffffffffffffffffffff6020916001600160a01b03604085019616845216910152565b03925af1801562000d6a57620018d757005b6200001b9060203d81116200170257620016f18183620003bf565b346200032257600036600319011262000322576020600c54604051908152f35b3462000322576000366003190112620003225760206001600160a01b0360025416604051908152f35b3462000322576000366003190112620003225760206001600160a01b0360195460081c16604051908152f35b346200032257600036600319011262000322576020601d54604051908152f35b600435906001600160a01b03821682036200032257565b35906001600160a01b03821682036200032257565b346200032257602036600319011262000322576001600160a01b03620019d862001987565b620019e262001ba7565b1633811462001a48578073ffffffffffffffffffffffffffffffffffffffff19600154161760015562001a2162000c9f6000546001600160a01b031690565b7fed8889f560326eb138920d842192f0eb3dd22b4f139c87a2c57538e05bae1278600080a3005b606460405162461bcd60e51b815260206004820152601760248201527f43616e6e6f74207472616e7366657220746f2073656c660000000000000000006044820152fd5b346200032257600036600319011262000322576020601654604051908152f35b34620003225760003660031901126200032257602063ffffffff600e5416604051908152f35b346200032257600036600319011262000322576020600854604051908152f35b34620003225760008060031936011262000b6857604051908060065462001b1981620007ab565b8085529160019180831690811562000b3b575060011462001b475762000a4b8562000ace81870382620003bf565b9250600683527ff652222313e28459528d920b65115c16c04f3efc82aaedc97be59f3f377c0d3f5b82841062001b8e57505050810160200162000ace8262000a4b62000abb565b8054602085870181019190915290930192810162001b6f565b6001600160a01b0360005416330362001bbc57565b606460405162461bcd60e51b815260206004820152601660248201527f4f6e6c792063616c6c61626c65206279206f776e6572000000000000000000006044820152fd5b908160209103126200032257518015158103620003225790565b6040513d6000823e3d90fd5b9081602091031262000322575190565b9035601e19823603018112156200032257016020813591019167ffffffffffffffff8211620003225781360383136200032257565b908060209392818452848401376000828201840152601f01601f1916010190565b359060ff821682036200032257565b620009dc906020815262001cd062001def62001cb8858062001c36565b92906101409384602087015261016086019162001c6b565b62001de762001d9f62001d0062001ceb60208a018a62001c36565b601f19898703810160408b0152959162001c6b565b62001d2262001d1260408b016200199e565b6001600160a01b03166060890152565b62001d4162001d3460608b0162000e9f565b63ffffffff166080890152565b62001d6362001d5360808b016200199e565b6001600160a01b031660a0890152565b62001d7f62001d7560a08b0162001c8c565b60ff1660c0890152565b62001d8e60c08a018a62001c36565b90858984030160e08a015262001c6b565b62001dd462001dca62001db660e08b018b62001c36565b6101009491878b840301868c015262001c6b565b9189018962001c36565b9061012094888403018589015262001c6b565b95016200147e565b6bffffffffffffffffffffffff16910152565b81811062001e0e575050565b6000815560010162001e02565b90601f821162001e29575050565b620008299160056000527f036b6384b5eca791c62761152d0c79bb0604c104a5fb6f4eb0703f3154bb3db0906020601f840160051c8301931062001e76575b601f0160051c019062001e02565b909150819062001e68565b90601f821162001e8f575050565b620008299160036000527fc2575a0e9e593c00f959f8c92f12db2869c3395a3b0502d05e2516446f71f85b906020601f840160051c8301931062001e7657601f0160051c019062001e02565b90601f821162001ee9575050565b620008299160066000527ff652222313e28459528d920b65115c16c04f3efc82aaedc97be59f3f377c0d3f906020601f840160051c8301931062001e7657601f0160051c019062001e02565b9190601f811162001f4557505050565b62000829926000526020600020906020601f840160051c8301931062001e7657601f0160051c019062001e02565b634e487b7160e01b600052601160045260246000fd5b601f19810191908211620012f457565b6010544203428111620012f4576008541090606090565b1562001fb857565b606460405162461bcd60e51b815260206004820152601560248201527f55706b656570206e6f74207265676973746572656400000000000000000000006044820152fd5b604051906020820182811067ffffffffffffffff8211176200039c5760405260008252565b156200202957565b606460405162461bcd60e51b815260206004820152601560248201527f54696d6520696e74657276616c206e6f74206d657400000000000000000000006044820152fd5b9060018201809211620012f457565b9060208201809211620012f457565b91908201809211620012f457565b6040519060e0820182811067ffffffffffffffff8211176200039c57604052606060c08360008152600060208201526000604082015282808201528260808201528260a08201520152565b601e549067ffffffffffffffff82116200039c576040519160206200210f818360051b0185620003bf565b81845280840190601e6000527f50bb669a95c7b50b7e8a6f09454034b2b14cf2b85c730dca9a539ca82cb6e3506000925b8484106200214f575050505050565b60018381926200215f85620008b2565b81520192019301929062002140565b906200219e60809367ffffffffffffffff63ffffffff939897969816845260a0602085015260a084019062000987565b95600160408401521660608201520152565b60009060033d11620021be57565b905060046000803e60005160e01c90565b600060443d10620009dc57604051600319913d83016004833e815167ffffffffffffffff918282113d60248401111762002233578184019485519384116200223b573d85010160208487010111620022335750620009dc92910160200190620003bf565b949350505050565b50949350505050565b3d1562002274573d906200225882620003e2565b91620022686040519384620003bf565b82523d6000602084013e565b606090565b9067ffffffffffffffff909493929416815260209360a085830152600060035495620022a587620007ab565b908160a08601526001978881169081600014620023405750600114620022e1575b5050604083019590955263ffffffff16606082015260800152565b600360009081529250877fc2575a0e9e593c00f959f8c92f12db2869c3395a3b0502d05e2516446f71f85b5b8385106200232a5750505050820160c0018163ffffffff620022c6565b805487860160c00152938201938991016200230d565b60ff191660c08781019190915292151560051b8601909201925083915063ffffffff9050620022c6565b62002379600c54151562001fb0565b6200238362001ffc565b50620023996200239262001f99565b5062002021565b620023a342601055565b620023b9620023b46011546200206d565b601155565b601d54601e5410156200257857620023dc620023d76016546200206d565b601655565b60075467ffffffffffffffff166020620023fb600e5463ffffffff1690565b600f54926200241f604051948593849363230e93b160e11b85526004850162002279565b038160006001600160a01b037f0000000000000000000000000000000000000000000000000000000000000000165af16000918162002553575b506200250c575060016200246c620021b0565b6308c379a014620024b3575b6200247f57565b7f9c4bfa18304482256875c29fabb1a44a5ecd325f214ea17bab8f31e869faf4c8620024ae62000ace62002244565b0390a1565b620024bd620021cf565b80620024cb575b5062002478565b90507f2ba61e3733e7ac99181c22307780f651ec8fd92fe661a84dfbe711710b2dc36c6200250260009260405191829182620009c9565b0390a138620024c4565b6200251681601355565b6200252c620025276017546200206d565b601755565b7f1131472297a800fee664d1d89cfa8f7676ff07189ecc53f80bbb5f4969099db8600080a2565b6200257091925060203d811162000d625762000d528183620003bf565b903862002459565b6200258b600160ff196019541617601955565b620025c96200259962002099565b620025ae620025a7620007e8565b8262002bbb565b620025c3620025bc620020e4565b8262002bfd565b6200297e565b620025da620023d76016546200206d565b6020620025f060075467ffffffffffffffff1690565b9162002601600e5463ffffffff1690565b9262002625600f54604051958694859463230e93b160e11b8652600486016200216e565b038160006001600160a01b037f0000000000000000000000000000000000000000000000000000000000000000165af16000918162002765575b506200271f5750600162002672620021b0565b6308c379a014620026c6575b6200268e575b62000829620037d6565b7f9c4bfa18304482256875c29fabb1a44a5ecd325f214ea17bab8f31e869faf4c8620026bd62000ace62002244565b0390a162002684565b620026d0620021cf565b80620026de575b506200267e565b90507f2ba61e3733e7ac99181c22307780f651ec8fd92fe661a84dfbe711710b2dc36c6200271560009260405191829182620009c9565b0390a138620026d7565b6200272981601355565b6200273a620025276017546200206d565b7f1131472297a800fee664d1d89cfa8f7676ff07189ecc53f80bbb5f4969099db8600080a262002684565b6200278291925060203d811162000d625762000d528183620003bf565b90386200265f565b604051906200279982620003a2565b600c82527f636f64654c6f636174696f6e00000000000000000000000000000000000000006020830152565b634e487b7160e01b600052602160045260246000fd5b60031115620027e657565b620027c5565b60405190620027fb82620003a2565b600882527f6c616e67756167650000000000000000000000000000000000000000000000006020830152565b60011115620027e657565b604051906200284182620003a2565b600682527f736f7572636500000000000000000000000000000000000000000000000000006020830152565b604051906200287c82620003a2565b600482527f61726773000000000000000000000000000000000000000000000000000000006020830152565b6000198114620012f45760010190565b80518210156200078f5760209160051b010190565b60405190620028dc82620003a2565b600f82527f736563726574734c6f636174696f6e00000000000000000000000000000000006020830152565b604051906200291782620003a2565b600782527f73656372657473000000000000000000000000000000000000000000000000006020830152565b604051906200295282620003a2565b600982527f62797465734172677300000000000000000000000000000000000000000000006020830152565b6200298862002c51565b906200299e620029976200278a565b8362003446565b620029c18151620029af81620027db565b620029ba81620027db565b8362002d01565b620029cf62002997620027ec565b620029ee6040820151620029e38162002827565b620029ba8162002827565b620029fc6200299762002832565b62002a0c60608201518362003446565b60a0810180515162002b52575b50608081019081515162002aa4575b60c091500180515162002a3c575b50515190565b9162002a4b6200299762002943565b62002a5682620034de565b60005b8351805182101562002a8e579062002a8262002a7a8262002a8894620028b8565b518562003377565b620028a8565b62002a59565b5050915062002a9d8162003576565b3862002a36565b60208101805162002ab581620027db565b62002ac081620027db565b1562002b285760c09262002b0562002b229262002ae762002ae0620028cd565b8862003446565b5162002af381620027db565b62002afe81620027db565b8662002d01565b62002b1a62002b1362002908565b8662003446565b518462003377565b62002a28565b60046040517fa80d31f7000000000000000000000000000000000000000000000000000000008152fd5b9262002b6862002b616200286d565b8462003446565b62002b7383620034de565b60005b8451805182101562002ba5579062002a8262002b978262002b9f94620028b8565b518662003446565b62002b76565b5050925062002bb48262003576565b3862002a19565b81511562002bd3576000808252604082015260600152565b60046040517f22ce3edd000000000000000000000000000000000000000000000000000000008152fd5b81511562002c0b5760a00152565b60046040517ffe936cb7000000000000000000000000000000000000000000000000000000008152fd5b6040519062002c4482620003a2565b6000602083606081520152565b60405162002c5f81620003a2565b62002c6962002c35565b808252602082016000815262002c7e62002c35565b50610100602083015260405180925260008252610120820191821062000322576000916040525290565b9062002cb362002c35565b50601f81168062002ce4575b5080602083015260405190818352600082528101602001908110620003225760405290565b60200360208111620012f4578101809111620012f4573862002cbf565b9081519162002d0f62002c35565b508251516001810190818111620012f457602085015181101562002d70575b60c2602062000829965192830101538051821162002d67575b50506040519160208301526020825262002d6182620003a2565b62003377565b52388062002d47565b8160011b9482860460021483151715620012f45760208162002da8620008299862002da060c29551918462002ca8565b5082620032a8565b509650505062002d2e565b908160011b9180830460021490151715620012f457565b62002dd462002c35565b508051516001810190818111620012f457602083015181101562002e10575b605b6020845192830101538051821162002e0c57505090565b5290565b8160011b82810460021483151715620012f45762002e3e9062002e368551918662002ca8565b5084620032a8565b5062002df3565b62002e4f62002c35565b508051516001810190818111620012f457602083015181101562002e87575b605a6020845192830101538051821162002e0c57505090565b8160011b82810460021483151715620012f45762002ead9062002e368551918662002ca8565b5062002e6e565b62002ebe62002c35565b508051516001810190818111620012f457602083015181101562002ef6575b60596020845192830101538051821162002e0c57505090565b8160011b82810460021483151715620012f45762002f1c9062002e368551918662002ca8565b5062002edd565b62002f2d62002c35565b508051516001810190818111620012f457602083015181101562002f65575b60586020845192830101538051821162002e0c57505090565b8160011b82810460021483151715620012f45762002f8b9062002e368551918662002ca8565b5062002f4c565b62002f9c62002c35565b508051516001810190818111620012f457602083015181101562002fd4575b607b6020845192830101538051821162002e0c57505090565b8160011b82810460021483151715620012f45762002ffa9062002e368551918662002ca8565b5062002fbb565b6200300b62002c35565b508051516001810190818111620012f457602083015181101562003043575b607a6020845192830101538051821162002e0c57505090565b8160011b82810460021483151715620012f457620030699062002e368551918662002ca8565b506200302a565b6200307a62002c35565b508051516001810190818111620012f4576020830151811015620030b2575b60796020845192830101538051821162002e0c57505090565b8160011b82810460021483151715620012f457620030d89062002e368551918662002ca8565b5062003099565b620030e962002c35565b508051516001810190818111620012f457602083015181101562003121575b60786020845192830101538051821162002e0c57505090565b8160011b82810460021483151715620012f457620031479062002e368551918662002ca8565b5062003108565b906200315962002c35565b508151516001810191828211620012f45760208401518210156200318f575b6020845192830101538051821162002e0c57505090565b8260011b83810460021484151715620012f457620031bd90620031b58651918762002ca8565b5085620032a8565b5062003178565b90620031d38251918362002ca8565b50620031de62002c35565b50805190620031ec62002c35565b50620031fc81518311156200336f565b825151926200320c83856200208b565b9160209282848094015182116200328c575b518381519782010196821162003283575b505001915b81811015620032565760001991036101000a0190811990511690825116179052565b9192620032766200326f6200327d92865181526200207c565b946200207c565b9262001f89565b62003234565b5238806200322f565b620032a26200329b8362002db3565b82620031c4565b6200321e565b90620032b362002c35565b508051620032c062002c35565b50620032d082518211156200336f565b82515191620032e082846200208b565b602091829182870151811162003353575b8651838151978201019682116200334a575b505001915b818110156200332b5760001991036101000a019081199051169082511617905290565b9192620032766200326f6200334492865181526200207c565b62003308565b52388062003303565b62003369620033628262002db3565b88620031c4565b620032f1565b156200032257565b8151620033b492919067ffffffffffffffff81169060178211620033b757620033ab9150604060ff8451921617906200314e565b505b51620032a8565b50565b5060ff8111620033e257620033db90620033d2835162002f23565b50825162003767565b50620033ad565b61ffff81116200340657620033db90620033fd835162002eb4565b508251620036f7565b63ffffffff81116200342c57620033db9062003423835162002e45565b50825162003685565b620033db906200343d835162002dca565b5082516200360f565b8151620033b492919067ffffffffffffffff811690601782116200347a57620033ab9150606060ff8451921617906200314e565b5060ff81116200349557620033db90620033d28351620030df565b61ffff8111620034b057620033db90620033fd835162003070565b63ffffffff8111620034cd57620033db9062003423835162003001565b620033db906200343d835162002f92565b805190620034eb62002c35565b508151516001810190818111620012f45760208401518110156200353e575b609f602080955192830101538051821162003535575b50500180519060018201809211620012f45752565b52388062003520565b8160011b9382850460021483151715620012f4576020816200356b829762002da0609f9551918462002ca8565b50955050506200350a565b8051906200358362002c35565b508151516001810190818111620012f4576020840151811015620035d7575b60ff6020809551928301015380518211620035ce575b5050018051600019810191908211620012f45752565b523880620035b8565b8160011b9382850460021483151715620012f45760208162003604829762002da060ff9551918462002ca8565b5095505050620035a2565b906200361a62002c35565b50815151806008019182600811620012f4576020840151831162003660575b60088451928301019067ffffffffffffffff198251161790528051821162002e0c57505090565b8260011b83810460021484151715620012f4576200367f9085620031c4565b62003639565b906200369062002c35565b50815151806004019182600411620012f45760208401518311620036d2575b60048451928301019063ffffffff198251161790528051821162002e0c57505090565b8260011b83810460021484151715620012f457620036f19085620031c4565b620036af565b906200370262002c35565b50815151806002019182600211620012f4576020840151831162003742575b60028451928301019061ffff198251161790528051821162002e0c57505090565b8260011b83810460021484151715620012f457620037619085620031c4565b62003721565b906200377262002c35565b50815151806001019182600111620012f45760208401518311620037b1575b60018451928301019060ff198251161790528051821162002e0c57505090565b8260011b83810460021484151715620012f457620037d09085620031c4565b62003791565b6001600160a01b037f000000000000000000000000000000000000000000000000000000000000000016600c5490620038176002546001600160a01b031690565b91813b1562000322576040517f744bfe6100000000000000000000000000000000000000000000000000000000815260048101919091526001600160a01b03929092166024830152600091828160448183865af1801562000d6a5762003919575b50600c54813b1562003915576040517fc8048022000000000000000000000000000000000000000000000000000000008152600481019190915291908290602490829084905af1801562000d6a57620038fe575b50600c546040519081527fb6ef47157135fe4b858411f89a368f4c4b6be5e85899980d3748484dabaac4cb90602090a1565b80620016c46200390e9262000387565b38620038cc565b8280fd5b80620016c4620039299262000387565b3862003878565b90815167ffffffffffffffff81116200039c576200395b8162003955600654620007ab565b62001edb565b602080601f83116001146200399a57508192936000926200398e575b50508160011b916000199060031b1c191617600655565b01519050388062003977565b90601f19831694620039ce60066000527ff652222313e28459528d920b65115c16c04f3efc82aaedc97be59f3f377c0d3f90565b926000905b87821062003a0e575050836001959610620039f4575b505050811b01600655565b015160001960f88460031b161c19169055388080620039e9565b80600185968294968601518155019501930190620039d3565b60208151910151906020811062003a3c575090565b6000199060200360031b1b1690565b601e54680100000000000000008110156200039c5762003a73600191828101601e5562000757565b92909262003b545780519067ffffffffffffffff82116200039c5762003aa68262003a9f8654620007ab565b8662001f35565b60209081601f841160011462003ae5575092829391839260009462003ad9575b50501b916000199060031b1c1916179055565b01519250388062003ac6565b919083601f19811662003afd88600052602060002090565b946000905b8883831062003b39575050501062003b1f575b505050811b019055565b015160001960f88460031b161c1916905538808062003b15565b85870151885590960195948501948793509081019062003b02565b62000795565b909162003b74620009dc9360408452604084019062000987565b91602081840391015262000987565b1562003b8b57565b606460405162461bcd60e51b815260206004820152601b60248201527f4572726f20616f207061676172206120696e64656e697a6163616f00000000006044820152fd5b602054601c54111562003c195762000829600080808062003c0462000c9f62000c9f6019546001600160a01b039060081c1690565b47905af162003c1262002244565b5062003b83565b60008080806001600160a01b036002541647905af162003c3862002244565b501562003c4157565b608460405162461bcd60e51b815260206004820152602d60248201527f4572726f20616f207265746f726e6172206f732066756e646f7320706172612060448201527f6120696e73746974756963616f000000000000000000000000000000000000006064820152fdfe60c0346100bc57601f61073a38819003918201601f19168301916001600160401b038311848410176100c1578084926060946040528339810103126100bc57610047816100d7565b906040610056602083016100d7565b9101516001600160601b03811692908390036100bc5760805260a052600180546001600160601b03191691909117905560405161064e90816100ec8239608051818181610114015281816101990152610373015260a0518181816101dc015261033b0152f35b600080fd5b634e487b7160e01b600052604160045260246000fd5b51906001600160a01b03821682036100bc5756fe60806040818152600436101561001457600080fd5b600091823560e01c90816301619d3d1461020057508063442b1278146101bd5780637d253aff1461017a578063b60d4288146100a95763bc61a4731461005957600080fd5b346100a557600319916020368401126100a2576004359267ffffffffffffffff84116100a5576101409084360301126100a2575061009b6020926004016102e6565b9051908152f35b80fd5b5080fd5b50346100a557816003193601126100a5576bffffffffffffffffffffffff60015416908051917f23b872dd0000000000000000000000000000000000000000000000000000000083523360048401523060248401526044830152602082606481866001600160a01b037f0000000000000000000000000000000000000000000000000000000000000000165af19081156101715750610146575080f35b6101669060203d811161016a575b61015e818361022a565b810190610262565b5080f35b503d610154565b513d84823e3d90fd5b50346100a557816003193601126100a557602090516001600160a01b037f0000000000000000000000000000000000000000000000000000000000000000168152f35b50346100a557816003193601126100a557602090516001600160a01b037f0000000000000000000000000000000000000000000000000000000000000000168152f35b8390346100a557816003193601126100a5576020906bffffffffffffffffffffffff600154168152f35b90601f8019910116810190811067ffffffffffffffff82111761024c57604052565b634e487b7160e01b600052604160045260246000fd5b9081602091031261027a5751801515810361027a5790565b600080fd5b9035601e198236030181121561027a57016020813591019167ffffffffffffffff821161027a57813603831361027a57565b908060209392818452848401376000828201840152601f01601f1916010190565b35906001600160a01b038216820361027a57565b90600091610120810135906bffffffffffffffffffffffff82168092036105ed5760408051917f095ea7b30000000000000000000000000000000000000000000000000000000083526001600160a01b0390817f00000000000000000000000000000000000000000000000000000000000000001680600486015285602486015260209485816044818c887f0000000000000000000000000000000000000000000000000000000000000000165af1801561060e576105f1575b508351957f3f678e11000000000000000000000000000000000000000000000000000000008752856004880152886103ee6103db858061027f565b61014060248c01526101648b01916102b1565b916104126103fe8987018761027f565b6023198c8703810160448e015295916102b1565b958061041f8988016102d2565b1660648b0152606086013563ffffffff81168091036105ed5760848b0152610449608087016102d2565b1660a48a015260a08501359060ff82168092036105e9576104d08a9687956104c06104b46104968e9c8a9860c48a015261048660c087018761027f565b90868b84030160e48c01526102b1565b6104a360e086018661027f565b90858a8403016101048b01526102b1565b9261010081019061027f565b91868403016101248701526102b1565b9061014483015203925af19283156105df5785936105ac575b50821561054f573385528482528420908154916801000000000000000083101561053b57600183018082558310156105275794839495815220015590565b602486634e487b7160e01b81526032600452fd5b602486634e487b7160e01b81526041600452fd5b6064925051907f08c379a00000000000000000000000000000000000000000000000000000000082526004820152601560248201527f6175746f2d617070726f76652064697361626c656400000000000000000000006044820152fd5b9092508181813d83116105d8575b6105c4818361022a565b810103126105d4575191386104e9565b8480fd5b503d6105ba565b81513d87823e3d90fd5b8280fd5b8380fd5b61060790863d881161016a5761015e818361022a565b50386103a0565b85513d8b823e3d90fdfea26469706673582212209ca455be61c45d9c7e515967f303b8ab4a822792fd7267d08664d38b1d82e42764736f6c63430008130033a2646970667358221220b83d491be35907b68cab5024d7061bb10f314e5024e81800a8a09562e9d95cde64736f6c63430008130033",
  "linkReferences": {},
  "deployedLinkReferences": {}
}