{
  "_format": "hh-sol-artifact-1",
  "contractName": "AutomatedFunctionsConsumer",
  "sourceName": "contracts/AutomatedFunctionsConsumer.sol",
  "abi": [
    {
      "inputs": [
        {
          "internalType": "address",
          "name": "_deployer",
          "type": "address"
        },
        {
          "internalType": "address",
          "name": "_farmer",
          "type": "address"
        },
        {
          "internalType": "uint256",
          "name": "_humidityLimit",
          "type": "uint256"
        },
        {
          "internalType": "uint256",
          "name": "_sampleMaxSize",
          "type": "uint256"
        },
        {
          "internalType": "uint256",
          "name": "_reparationValue",
          "type": "uint256"
        },
        {
          "internalType": "uint256",
          "name": "_updateInterval",
          "type": "uint256"
        },
        {
          "internalType": "address",
          "name": "router",
          "type": "address"
        },
        {
          "internalType": "uint64",
          "name": "_subscriptionId",
          "type": "uint64"
        },
        {
          "internalType": "address",
          "name": "_registry",
          "type": "address"
        },
        {
          "internalType": "address",
          "name": "sepoliaLINKAddress",
          "type": "address"
        },
        {
          "internalType": "address",
          "name": "sepoliaRegistrarAddress",
          "type": "address"
        },
        {
          "internalType": "uint32",
          "name": "_fulfillGasLimit",
          "type": "uint32"
        }
      ],
      "stateMutability": "payable",
      "type": "constructor"
    },
    {
      "inputs": [],
      "name": "EmptyArgs",
      "type": "error"
    },
    {
      "inputs": [],
      "name": "EmptySource",
      "type": "error"
    },
    {
      "inputs": [],
      "name": "NoInlineSecrets",
      "type": "error"
    },
    {
      "inputs": [
        {
          "internalType": "address",
          "name": "caller",
          "type": "address"
        },
        {
          "internalType": "address",
          "name": "owner",
          "type": "address"
        },
        {
          "internalType": "address",
          "name": "automationRegistry",
          "type": "address"
        }
      ],
      "name": "NotAllowedCaller",
      "type": "error"
    },
    {
      "inputs": [],
      "name": "OnlyRouterCanFulfill",
      "type": "error"
    },
    {
      "inputs": [
        {
          "internalType": "bytes32",
          "name": "requestId",
          "type": "bytes32"
        }
      ],
      "name": "UnexpectedRequestID",
      "type": "error"
    },
    {
      "anonymous": false,
      "inputs": [
        {
          "indexed": true,
          "internalType": "bytes32",
          "name": "requestId",
          "type": "bytes32"
        },
        {
          "indexed": false,
          "internalType": "bytes",
          "name": "result",
          "type": "bytes"
        },
        {
          "indexed": false,
          "internalType": "bytes",
          "name": "err",
          "type": "bytes"
        }
      ],
      "name": "OCRResponse",
      "type": "event"
    },
    {
      "anonymous": false,
      "inputs": [
        {
          "indexed": true,
          "internalType": "address",
          "name": "from",
          "type": "address"
        },
        {
          "indexed": true,
          "internalType": "address",
          "name": "to",
          "type": "address"
        }
      ],
      "name": "OwnershipTransferRequested",
      "type": "event"
    },
    {
      "anonymous": false,
      "inputs": [
        {
          "indexed": true,
          "internalType": "address",
          "name": "from",
          "type": "address"
        },
        {
          "indexed": true,
          "internalType": "address",
          "name": "to",
          "type": "address"
        }
      ],
      "name": "OwnershipTransferred",
      "type": "event"
    },
    {
      "anonymous": false,
      "inputs": [
        {
          "indexed": true,
          "internalType": "bytes32",
          "name": "id",
          "type": "bytes32"
        }
      ],
      "name": "RequestFulfilled",
      "type": "event"
    },
    {
      "anonymous": false,
      "inputs": [
        {
          "indexed": false,
          "internalType": "string",
          "name": "reason",
          "type": "string"
        }
      ],
      "name": "RequestRevertedWithErrorMsg",
      "type": "event"
    },
    {
      "anonymous": false,
      "inputs": [
        {
          "indexed": false,
          "internalType": "bytes",
          "name": "data",
          "type": "bytes"
        }
      ],
      "name": "RequestRevertedWithoutErrorMsg",
      "type": "event"
    },
    {
      "anonymous": false,
      "inputs": [
        {
          "indexed": true,
          "internalType": "bytes32",
          "name": "id",
          "type": "bytes32"
        }
      ],
      "name": "RequestSent",
      "type": "event"
    },
    {
      "anonymous": false,
      "inputs": [
        {
          "indexed": true,
          "internalType": "bytes32",
          "name": "requestId",
          "type": "bytes32"
        },
        {
          "indexed": false,
          "internalType": "bytes",
          "name": "response",
          "type": "bytes"
        },
        {
          "indexed": false,
          "internalType": "bytes",
          "name": "err",
          "type": "bytes"
        }
      ],
      "name": "Response",
      "type": "event"
    },
    {
      "anonymous": false,
      "inputs": [
        {
          "indexed": false,
          "internalType": "address",
          "name": "upkeepAddress",
          "type": "address"
        }
      ],
      "name": "upkeepCreated",
      "type": "event"
    },
    {
      "anonymous": false,
      "inputs": [
        {
          "indexed": false,
          "internalType": "uint256",
          "name": "upkeepId",
          "type": "uint256"
        }
      ],
      "name": "upkeepRegistered",
      "type": "event"
    },
    {
      "inputs": [],
      "name": "acceptOwnership",
      "outputs": [],
      "stateMutability": "nonpayable",
      "type": "function"
    },
    {
      "inputs": [
        {
          "internalType": "bytes",
          "name": "",
          "type": "bytes"
        }
      ],
      "name": "checkUpkeep",
      "outputs": [
        {
          "internalType": "bool",
          "name": "upkeepNeeded",
          "type": "bool"
        },
        {
          "internalType": "bytes",
          "name": "",
          "type": "bytes"
        }
      ],
      "stateMutability": "view",
      "type": "function"
    },
    {
      "inputs": [],
      "name": "contractBalance",
      "outputs": [
        {
          "internalType": "uint256",
          "name": "",
          "type": "uint256"
        }
      ],
      "stateMutability": "view",
      "type": "function"
    },
    {
      "inputs": [],
      "name": "donID",
      "outputs": [
        {
          "internalType": "bytes32",
          "name": "",
          "type": "bytes32"
        }
      ],
      "stateMutability": "view",
      "type": "function"
    },
    {
      "inputs": [],
      "name": "farmer",
      "outputs": [
        {
          "internalType": "address",
          "name": "",
          "type": "address"
        }
      ],
      "stateMutability": "view",
      "type": "function"
    },
    {
      "inputs": [],
      "name": "fulfillGasLimit",
      "outputs": [
        {
          "internalType": "uint32",
          "name": "",
          "type": "uint32"
        }
      ],
      "stateMutability": "view",
      "type": "function"
    },
    {
      "inputs": [],
      "name": "gasLimit",
      "outputs": [
        {
          "internalType": "uint32",
          "name": "",
          "type": "uint32"
        }
      ],
      "stateMutability": "view",
      "type": "function"
    },
    {
      "inputs": [
        {
          "internalType": "bytes32",
          "name": "requestId",
          "type": "bytes32"
        },
        {
          "internalType": "bytes",
          "name": "response",
          "type": "bytes"
        },
        {
          "internalType": "bytes",
          "name": "err",
          "type": "bytes"
        }
      ],
      "name": "handleOracleFulfillment",
      "outputs": [],
      "stateMutability": "nonpayable",
      "type": "function"
    },
    {
      "inputs": [],
      "name": "i_upkeep",
      "outputs": [
        {
          "internalType": "contract Upkeep",
          "name": "",
          "type": "address"
        }
      ],
      "stateMutability": "view",
      "type": "function"
    },
    {
      "inputs": [],
      "name": "institution",
      "outputs": [
        {
          "internalType": "address",
          "name": "",
          "type": "address"
        }
      ],
      "stateMutability": "view",
      "type": "function"
    },
    {
      "inputs": [],
      "name": "lastUpkeepTimeStamp",
      "outputs": [
        {
          "internalType": "uint256",
          "name": "",
          "type": "uint256"
        }
      ],
      "stateMutability": "view",
      "type": "function"
    },
    {
      "inputs": [],
      "name": "latestError",
      "outputs": [
        {
          "internalType": "bytes",
          "name": "",
          "type": "bytes"
        }
      ],
      "stateMutability": "view",
      "type": "function"
    },
    {
      "inputs": [],
      "name": "latestRequestId",
      "outputs": [
        {
          "internalType": "bytes32",
          "name": "",
          "type": "bytes32"
        }
      ],
      "stateMutability": "view",
      "type": "function"
    },
    {
      "inputs": [],
      "name": "latestResponse",
      "outputs": [
        {
          "internalType": "bytes",
          "name": "",
          "type": "bytes"
        }
      ],
      "stateMutability": "view",
      "type": "function"
    },
    {
      "inputs": [],
      "name": "owner",
      "outputs": [
        {
          "internalType": "address",
          "name": "",
          "type": "address"
        }
      ],
      "stateMutability": "view",
      "type": "function"
    },
    {
      "inputs": [
        {
          "internalType": "bytes",
          "name": "",
          "type": "bytes"
        }
      ],
      "name": "performUpkeep",
      "outputs": [],
      "stateMutability": "nonpayable",
      "type": "function"
    },
    {
      "inputs": [
        {
          "components": [
            {
              "internalType": "string",
              "name": "name",
              "type": "string"
            },
            {
              "internalType": "bytes",
              "name": "encryptedEmail",
              "type": "bytes"
            },
            {
              "internalType": "address",
              "name": "upkeepContract",
              "type": "address"
            },
            {
              "internalType": "uint32",
              "name": "gasLimit",
              "type": "uint32"
            },
            {
              "internalType": "address",
              "name": "adminAddress",
              "type": "address"
            },
            {
              "internalType": "uint8",
              "name": "triggerType",
              "type": "uint8"
            },
            {
              "internalType": "bytes",
              "name": "checkData",
              "type": "bytes"
            },
            {
              "internalType": "bytes",
              "name": "triggerConfig",
              "type": "bytes"
            },
            {
              "internalType": "bytes",
              "name": "offchainConfig",
              "type": "bytes"
            },
            {
              "internalType": "uint96",
              "name": "amount",
              "type": "uint96"
            }
          ],
          "internalType": "struct RegistrationParams",
          "name": "params",
          "type": "tuple"
        }
      ],
      "name": "registerUpkeep",
      "outputs": [],
      "stateMutability": "nonpayable",
      "type": "function"
    },
    {
      "inputs": [],
      "name": "registry",
      "outputs": [
        {
          "internalType": "contract IAutomationRegistryConsumer",
          "name": "",
          "type": "address"
        }
      ],
      "stateMutability": "view",
      "type": "function"
    },
    {
      "inputs": [],
      "name": "request",
      "outputs": [
        {
          "internalType": "bytes",
          "name": "",
          "type": "bytes"
        }
      ],
      "stateMutability": "view",
      "type": "function"
    },
    {
      "inputs": [],
      "name": "requestCBOR",
      "outputs": [
        {
          "internalType": "bytes",
          "name": "",
          "type": "bytes"
        }
      ],
      "stateMutability": "view",
      "type": "function"
    },
    {
      "inputs": [],
      "name": "responseCounter",
      "outputs": [
        {
          "internalType": "uint256",
          "name": "",
          "type": "uint256"
        }
      ],
      "stateMutability": "view",
      "type": "function"
    },
    {
      "inputs": [],
      "name": "s_lastError",
      "outputs": [
        {
          "internalType": "bytes",
          "name": "",
          "type": "bytes"
        }
      ],
      "stateMutability": "view",
      "type": "function"
    },
    {
      "inputs": [],
      "name": "s_lastRequestId",
      "outputs": [
        {
          "internalType": "bytes32",
          "name": "",
          "type": "bytes32"
        }
      ],
      "stateMutability": "view",
      "type": "function"
    },
    {
      "inputs": [],
      "name": "s_lastResponse",
      "outputs": [
        {
          "internalType": "bytes",
          "name": "",
          "type": "bytes"
        }
      ],
      "stateMutability": "view",
      "type": "function"
    },
    {
      "inputs": [],
      "name": "s_requestCounter",
      "outputs": [
        {
          "internalType": "uint256",
          "name": "",
          "type": "uint256"
        }
      ],
      "stateMutability": "view",
      "type": "function"
    },
    {
      "inputs": [],
      "name": "s_responseCounter",
      "outputs": [
        {
          "internalType": "uint256",
          "name": "",
          "type": "uint256"
        }
      ],
      "stateMutability": "view",
      "type": "function"
    },
    {
      "inputs": [],
      "name": "s_upkeepCounter",
      "outputs": [
        {
          "internalType": "uint256",
          "name": "",
          "type": "uint256"
        }
      ],
      "stateMutability": "view",
      "type": "function"
    },
    {
      "inputs": [],
      "name": "sampleMaxSize",
      "outputs": [
        {
          "internalType": "uint256",
          "name": "",
          "type": "uint256"
        }
      ],
      "stateMutability": "view",
      "type": "function"
    },
    {
      "inputs": [
        {
          "internalType": "uint256",
          "name": "",
          "type": "uint256"
        }
      ],
      "name": "sampleStorage",
      "outputs": [
        {
          "internalType": "string",
          "name": "",
          "type": "string"
        }
      ],
      "stateMutability": "view",
      "type": "function"
    },
    {
      "inputs": [
        {
          "internalType": "bytes",
          "name": "newRequestCBOR",
          "type": "bytes"
        },
        {
          "internalType": "uint64",
          "name": "_subscriptionId",
          "type": "uint64"
        },
        {
          "internalType": "uint32",
          "name": "_fulfillGasLimit",
          "type": "uint32"
        },
        {
          "internalType": "bytes32",
          "name": "_donID",
          "type": "bytes32"
        },
        {
          "internalType": "uint256",
          "name": "_updateInterval",
          "type": "uint256"
        }
      ],
      "name": "setRequest",
      "outputs": [],
      "stateMutability": "nonpayable",
      "type": "function"
    },
    {
      "inputs": [],
      "name": "subscriptionId",
      "outputs": [
        {
          "internalType": "uint64",
          "name": "",
          "type": "uint64"
        }
      ],
      "stateMutability": "view",
      "type": "function"
    },
    {
      "inputs": [
        {
          "internalType": "address",
          "name": "to",
          "type": "address"
        }
      ],
      "name": "transferOwnership",
      "outputs": [],
      "stateMutability": "nonpayable",
      "type": "function"
    },
    {
      "inputs": [],
      "name": "updateInterval",
      "outputs": [
        {
          "internalType": "uint256",
          "name": "",
          "type": "uint256"
        }
      ],
      "stateMutability": "view",
      "type": "function"
    },
    {
      "inputs": [],
      "name": "upkeepContract",
      "outputs": [
        {
          "internalType": "address",
          "name": "",
          "type": "address"
        }
      ],
      "stateMutability": "view",
      "type": "function"
    },
    {
      "inputs": [],
      "name": "upkeepCounter",
      "outputs": [
        {
          "internalType": "uint256",
          "name": "",
          "type": "uint256"
        }
      ],
      "stateMutability": "view",
      "type": "function"
    }
  ],
  "bytecode": "0x60c0601f1962003c7138819003601f810192909216830192916001600160401b0391838510838611176200028b5781610180928592604097885283398101031262000286576200004f82620002a1565b916200005e60208201620002a1565b9184820151916060810151608082015160a0830151916200008260c08501620002a1565b9260e0850151938685168095036200028657620000a36101008701620002a1565b94620000b36101208801620002a1565b98610160620000c66101408a01620002a1565b9801519263ffffffff8416840362000286576001600160a01b039081166080529b8c169a8b156200024257600080546001600160a01b03199081168e178255601680548216909e17909d5560178054909d16918e1691909117909b55601a55600680546001600160601b0319169091176bffffffff0000000000000000928d1b92909216919091179055600755601b55601955851660a05285519261062e808501938411858510176200022e57849287899593819362003643873916835216602082015203019082f0908115620002235750600b8054610100600160a81b031916600892831b610100600160a81b031617908190558351911c90911681527f3583c1105fd29a46b4d92ceeaff8be03cba58a11cce44a3b7da77bbc3798edc490602090a1426008555161338c9081620002b782396080518181816103cb01528181611da70152611f89015260a0518181816111ee0152611fd50152f35b8351903d90823e3d90fd5b634e487b7160e01b86526041600452602486fd5b8d5162461bcd60e51b815260206004820152601860248201527f43616e6e6f7420736574206f776e657220746f207a65726f00000000000000006044820152606490fd5b600080fd5b634e487b7160e01b600052604160045260246000fd5b51906001600160a01b0382168203620002865756fe6080604052600436101561001257600080fd5b60003560e01c8063089ea02e1461024757806309c1ba2e146102425780630ca761751461023d5780631aa46f591461023857806324b93e3e14610233578063277e22131461022e578063303b137c14610229578063338cdca114610224578063381fc4b51461021f5780633944ea3a1461021a5780633f678e111461021557806343cd3d86146102105780634585e33b1461020b578063472cbbb01461020657806348802b92146102015780634b0795a8146101fc5780635e0611f1146101f7578063688ecfd1146101f25780636e04ff0d146101ed5780636e74336b146101e857806379ba5097146101e35780637b103999146101de5780638b7afe2e146101d95780638da5cb5b146101d4578063a3d3c0d2146101cf578063b1e21749146101ca578063bef3a2f0146101c5578063d1384eb6146101c0578063d811fcf0146101bb578063ebf14a55146101b6578063f2fde38b146101b1578063f5c1279b146101ac578063f68016b7146101a7578063fd2c80ae146101a25763fffeb84e1461019d57600080fd5b6114fe565b6114e0565b6114bc565b61149e565b6113ce565b611386565b61135f565b611338565b611291565b611273565b611255565b61122e565b611212565b6111ce565b6110ee565b6110d0565b611057565b610fb0565b610f89565b610ee2565b610ec4565b610d15565b610c31565b610be5565b610ac5565b610a1e565b610a00565b61091f565b6108f5565b61088c565b6105ea565b6105cc565b610372565b61027a565b61025c565b600091031261025757565b600080fd5b34610257576000366003190112610257576020600854604051908152f35b3461025757600036600319011261025757602067ffffffffffffffff60065416604051908152f35b634e487b7160e01b600052604160045260246000fd5b67ffffffffffffffff81116102cc57604052565b6102a2565b6040810190811067ffffffffffffffff8211176102cc57604052565b90601f8019910116810190811067ffffffffffffffff8211176102cc57604052565b67ffffffffffffffff81116102cc57601f01601f191660200190565b81601f82011215610257578035906103428261030f565b9261035060405194856102ed565b8284526020838301011161025757816000926020809301838601378301015290565b3461025757606036600319011261025757600480359067ffffffffffffffff90602435828111610257576103a9903690830161032b565b604435838111610257576103c0903690840161032b565b906001600160a01b037f00000000000000000000000000000000000000000000000000000000000000001633036105a35780519384116102cc578261040f8561040a889654610679565b6117ed565b602080601f87116001146104f9575094807f7bab0ec163b5c132c72b8146ac4d6e067e82ed58f8b131150aa71c925891156295966000916104ee575b508160011b916000199060031b1c19161790555b6104688261300f565b61047b610476600a546119dd565b600a55565b60ff610489600b5460ff1690565b166104d0576104978161311c565b6104a660405192839283613219565b0390a27f85e1543bf2f84fe80c6badbce3648c8539ad1df4d2b3d822938ca0538be727e6600080a2005b6104e16104dc826130f9565b601e55565b6104e9613289565b610497565b90508301513861044b565b600460005290601f1987167f8a35acfbc15ff81a39ae7d344fd709f28e8600b4aa8c65c6b64bfe7fe36bd19b926000905b8282106105875750509187917f7bab0ec163b5c132c72b8146ac4d6e067e82ed58f8b131150aa71c925891156297986001941061056e575b5050811b01905561045f565b85015160001960f88460031b161c191690553880610562565b8684015185558a9850600190940193928301929081019061052a565b826040517fc6829f83000000000000000000000000000000000000000000000000000000008152fd5b34610257576000366003190112610257576020600354604051908152f35b3461025757600036600319011261025757602060065463ffffffff6040519160401c168152f35b634e487b7160e01b600052603260045260246000fd5b601c5481101561065e57601c6000527f0e4562a10381dec21b205ed72637e6b1b523bdd0e4d4d50af5cd23dd4500a2110190600090565b610611565b634e487b7160e01b600052600060045260246000fd5b90600182811c921680156106a9575b602083101461069357565b634e487b7160e01b600052602260045260246000fd5b91607f1691610688565b60405190600082601d54916106c783610679565b8083529260019081811690811561074f57506001146106f0575b506106ee925003836102ed565b565b601d600090815291507f6d4407e7be21f808e6509aa9fa9143369579dd7d760fe20a2c09680fc146134f5b84831061073457506106ee9350508101602001386106e1565b81935090816020925483858a0101520191019091859261071b565b9050602092506106ee94915060ff191682840152151560051b820101386106e1565b906040519182600082549261078584610679565b9081845260019485811690816000146107f257506001146107af575b50506106ee925003836102ed565b9093915060005260209081600020936000915b8183106107da5750506106ee935082010138806107a1565b855488840185015294850194879450918301916107c2565b9150506106ee94506020925060ff191682840152151560051b82010138806107a1565b60005b82811061082757506000910152565b608081015182820152602001610818565b919082519283825260005b848110610864575050826000602080949584010152601f8019910116010190565b602081830181015184830182015201610843565b906020610889928181520190610838565b90565b3461025757602036600319011261025757600435601c54811015610257576108dd6108f191601c6000527f0e4562a10381dec21b205ed72637e6b1b523bdd0e4d4d50af5cd23dd4500a21101610771565b604051918291602083526020830190610838565b0390f35b346102575760003660031901126102575760206001600160a01b03600b5460081c16604051908152f35b34610257576000806003193601126109fd576040519080600d5461094281610679565b808552916001918083169081156109d35750600114610978575b6108f18561096c818703826102ed565b60405191829182610878565b9250600d83527fd7b6990105719101dabeb77144f2a3385c8033acd3af97e9423a695e81ad1eb55b8284106109bb57505050810160200161096c826108f161095c565b805460208587018101919091529093019281016109a0565b8695506108f19693506020925061096c94915060ff191682840152151560051b820101929361095c565b80fd5b34610257576000366003190112610257576020600a54604051908152f35b34610257576000806003193601126109fd576040519080601154610a4181610679565b808552916001918083169081156109d35750600114610a6a576108f18561096c818703826102ed565b9250601183527f31ecc21a745e3968a04e9570e4425bc18fa8019c68028196b546d1669c200c685b828410610aad57505050810160200161096c826108f161095c565b80546020858701810191909152909301928101610a92565b3461025757600319602036820112610257576004359067ffffffffffffffff821161025757610140908236030112610257576020610b65600092610b2c610b206001600160a01b03600b5460081c166001600160a01b031690565b6001600160a01b031690565b906040519485809481937fbc61a47300000000000000000000000000000000000000000000000000000000835260040160048301611686565b03925af18015610be057610b8191600091610bb2575b50600c55565b600c546040519081527f7623383a750b4166574a1b2dff61440ed0dfa3708cbe620c58339cca510d1af990602090a1005b610bd3915060203d8111610bd9575b610bcb81836102ed565b8101906115fd565b38610b7b565b503d610bc1565b6117ca565b34610257576000366003190112610257576020601554604051908152f35b9181601f840112156102575782359167ffffffffffffffff8311610257576020838186019501011161025757565b346102575760203660031901126102575760043567ffffffffffffffff811161025757610c62903690600401610c03565b50506000546001600160a01b03163381141580610cd3575b610c8857610c86611d04565b005b6018546040517f426fbc710000000000000000000000000000000000000000000000000000000081523360048201526001600160a01b03928316602482015291166044820152606490fd5b50610ce9610b206018546001600160a01b031690565b331415610c7a565b6044359063ffffffff8216820361025757565b359063ffffffff8216820361025757565b346102575760a03660031901126102575767ffffffffffffffff60043581811161025757610d47903690600401610c03565b6024359291838316840361025757610d5d610cf1565b92610d666115a5565b82116102cc57610d8082610d7b600254610679565b61184e565b600090601f8311600114610e20579180610dff9592610dd494600092610e15575b50508160011b916000199060031b1c19161760025567ffffffffffffffff1667ffffffffffffffff196006541617600655565b6bffffffff00000000000000006006549160401b16906bffffffff0000000000000000191617600655565b610e0a606435600f55565b610c86608435600755565b013590503880610da1565b60026000527f405787fa12a823e0f2b7631cc41b3ba8828b3321ca811111fa75cd3aa3bb5ace91601f198416815b818110610eac5750926001928592610dd496610dff999610610e92575b505050811b0160025567ffffffffffffffff1667ffffffffffffffff196006541617600655565b0135600019600384901b60f8161c19169055388080610e6b565b91936020600181928787013581550195019201610e4e565b34610257576000366003190112610257576020601454604051908152f35b34610257576000806003193601126109fd576040519080601254610f0581610679565b808552916001918083169081156109d35750600114610f2e576108f18561096c818703826102ed565b9250601283527fbb8a6a4669ba250d26cd7a459eca9d215f8307e33aebe50379bc5a3617ec34445b828410610f7157505050810160200161096c826108f161095c565b80546020858701810191909152909301928101610f56565b346102575760003660031901126102575760206001600160a01b0360185416604051908152f35b34610257576000806003193601126109fd576040519080600254610fd381610679565b808552916001918083169081156109d35750600114610ffc576108f18561096c818703826102ed565b9250600283527f405787fa12a823e0f2b7631cc41b3ba8828b3321ca811111fa75cd3aa3bb5ace5b82841061103f57505050810160200161096c826108f161095c565b80546020858701810191909152909301928101611024565b346102575760203660031901126102575760043567ffffffffffffffff81116102575761108890369060040161032b565b5060085442034281116110cb57600754106040519081526040602082015260608181518060408301526110bd81848401610815565b601f01601f19168101030190f35b611934565b34610257576000366003190112610257576020600f54604051908152f35b34610257576000806003193601126109fd576001600160a01b038060015416330361118a5781546001600160a01b03166000805473ffffffffffffffffffffffffffffffffffffffff1916331790559061116073ffffffffffffffffffffffffffffffffffffffff1960015416600155565b3391167f8be0079c531659141344cd1fd0a4f28419497f9722a3daafe3b4186f6b6457e08380a380f35b606460405162461bcd60e51b815260206004820152601660248201527f4d7573742062652070726f706f736564206f776e6572000000000000000000006044820152fd5b346102575760003660031901126102575760206040516001600160a01b037f0000000000000000000000000000000000000000000000000000000000000000168152f35b3461025757600036600319011261025757602047604051908152f35b346102575760003660031901126102575760206001600160a01b0360005416604051908152f35b34610257576000366003190112610257576020600954604051908152f35b34610257576000366003190112610257576020601054604051908152f35b34610257576000806003193601126109fd5760405190806004546112b481610679565b808552916001918083169081156109d357506001146112dd576108f18561096c818703826102ed565b9250600483527f8a35acfbc15ff81a39ae7d344fd709f28e8600b4aa8c65c6b64bfe7fe36bd19b5b82841061132057505050810160200161096c826108f161095c565b80546020858701810191909152909301928101611305565b346102575760003660031901126102575760206001600160a01b0360165416604051908152f35b346102575760003660031901126102575760206001600160a01b0360175416604051908152f35b34610257576000366003190112610257576020601b54604051908152f35b600435906001600160a01b038216820361025757565b35906001600160a01b038216820361025757565b34610257576020366003190112610257576001600160a01b036113ef6113a4565b6113f76115a5565b1633811461145a578073ffffffffffffffffffffffffffffffffffffffff196001541617600155611433610b206000546001600160a01b031690565b7fed8889f560326eb138920d842192f0eb3dd22b4f139c87a2c57538e05bae1278600080a3005b606460405162461bcd60e51b815260206004820152601760248201527f43616e6e6f74207472616e7366657220746f2073656c660000000000000000006044820152fd5b34610257576000366003190112610257576020601354604051908152f35b3461025757600036600319011261025757602063ffffffff600e5416604051908152f35b34610257576000366003190112610257576020600754604051908152f35b34610257576000806003193601126109fd57604051908060055461152181610679565b808552916001918083169081156109d3575060011461154a576108f18561096c818703826102ed565b9250600583527f036b6384b5eca791c62761152d0c79bb0604c104a5fb6f4eb0703f3154bb3db05b82841061158d57505050810160200161096c826108f161095c565b80546020858701810191909152909301928101611572565b6001600160a01b036000541633036115b957565b606460405162461bcd60e51b815260206004820152601660248201527f4f6e6c792063616c6c61626c65206279206f776e6572000000000000000000006044820152fd5b90816020910312610257575190565b9035601e198236030181121561025757016020813591019167ffffffffffffffff821161025757813603831361025757565b908060209392818452848401376000828201840152601f01601f1916010190565b359060ff8216820361025757565b35906bffffffffffffffffffffffff8216820361025757565b61088990602081526116b56117b761169e858061160c565b92906101409384602087015261016086019161163e565b6117b061176f6116df6116cb60208a018a61160c565b601f19898703810160408b0152959161163e565b6116fe6116ee60408b016113ba565b6001600160a01b03166060890152565b61171a61170d60608b01610d04565b63ffffffff166080890152565b61173961172960808b016113ba565b6001600160a01b031660a0890152565b61175261174860a08b0161165f565b60ff1660c0890152565b61175f60c08a018a61160c565b90858984030160e08a015261163e565b61179e61179561178260e08b018b61160c565b6101009491878b840301868c015261163e565b9189018961160c565b9061012094888403018589015261163e565b950161166d565b6bffffffffffffffffffffffff16910152565b6040513d6000823e3d90fd5b8181106117e1575050565b600081556001016117d6565b90601f82116117fa575050565b6106ee9160046000527f8a35acfbc15ff81a39ae7d344fd709f28e8600b4aa8c65c6b64bfe7fe36bd19b906020601f840160051c83019310611844575b601f0160051c01906117d6565b9091508190611837565b90601f821161185b575050565b6106ee9160026000527f405787fa12a823e0f2b7631cc41b3ba8828b3321ca811111fa75cd3aa3bb5ace906020601f840160051c8301931061184457601f0160051c01906117d6565b90601f82116118b1575050565b6106ee9160056000527f036b6384b5eca791c62761152d0c79bb0604c104a5fb6f4eb0703f3154bb3db0906020601f840160051c8301931061184457601f0160051c01906117d6565b9190601f811161190957505050565b6106ee926000526020600020906020601f840160051c8301931061184457601f0160051c01906117d6565b634e487b7160e01b600052601160045260246000fd5b601f198101919082116110cb57565b606060085442034281116110cb576007541091565b604051906020820182811067ffffffffffffffff8211176102cc5760405260008252565b1561199957565b606460405162461bcd60e51b815260206004820152601560248201527f54696d6520696e74657276616c206e6f74206d657400000000000000000000006044820152fd5b90600182018092116110cb57565b90602082018092116110cb57565b919082018092116110cb57565b15611a0d57565b606460405162461bcd60e51b815260206004820152601560248201527f55706b656570206e6f74207265676973746572656400000000000000000000006044820152fd5b6040519060e0820182811067ffffffffffffffff8211176102cc57604052606060c08360008152600060208201526000604082015282808201528260808201528260a08201520152565b601c549067ffffffffffffffff82116102cc57604051916020611ac3818360051b01856102ed565b81845280840190601c6000527f0e4562a10381dec21b205ed72637e6b1b523bdd0e4d4d50af5cd23dd4500a2116000925b848410611b02575050505050565b6001838192611b1085610771565b815201920193019290611af4565b90611b4c60809367ffffffffffffffff63ffffffff939897969816845260a0602085015260a0840190610838565b95600160408401521660608201520152565b60009060033d11611b6b57565b905060046000803e60005160e01c90565b600060443d1061088957604051600319913d83016004833e815167ffffffffffffffff918282113d602484011117611bda57818401948551938411611be2573d85010160208487010111611bda5750610889929101602001906102ed565b949350505050565b50949350505050565b3d15611c16573d90611bfc8261030f565b91611c0a60405193846102ed565b82523d6000602084013e565b606090565b9067ffffffffffffffff909493929416815260209360a085830152600060025495611c4587610679565b908160a08601526001978881169081600014611cdb5750600114611c7f575b5050604083019590955263ffffffff16606082015260800152565b600260009081529250877f405787fa12a823e0f2b7631cc41b3ba8828b3321ca811111fa75cd3aa3bb5ace5b838510611cc65750505050820160c0018163ffffffff611c64565b805487860160c0015293820193899101611cab565b60ff191660c08781019190915292151560051b8601909201925083915063ffffffff9050611c64565b611d0c61196e565b50611d1e611d18611959565b50611992565b611d2742600855565b611d3a611d356009546119dd565b600955565b601b54601c541015611ed957611d59611d546013546119dd565b601355565b60065467ffffffffffffffff166020611d77600e5463ffffffff1690565b600f5492611d99604051948593849363230e93b160e11b855260048501611c1b565b038160006001600160a01b037f0000000000000000000000000000000000000000000000000000000000000000165af160009181611eb9575b50611e7657506001611de2611b5e565b6308c379a014611e24575b611df357565b7f9c4bfa18304482256875c29fabb1a44a5ecd325f214ea17bab8f31e869faf4c8611e1f61096c611beb565b0390a1565b611e2c611b7c565b80611e38575b50611ded565b90507f2ba61e3733e7ac99181c22307780f651ec8fd92fe661a84dfbe711710b2dc36c611e6d60009260405191829182610878565b0390a138611e32565b611e7f81601055565b611e92611e8d6014546119dd565b601455565b7f1131472297a800fee664d1d89cfa8f7676ff07189ecc53f80bbb5f4969099db8600080a2565b611ed291925060203d8111610bd957610bcb81836102ed565b9038611dd2565b611ee6600c541515611a06565b611ef8600160ff19600b541617600b55565b611f2a611f03611a51565b611f14611f0e6106b3565b82612510565b611f25611f1f611a9b565b82612551565b612325565b611f38611d546013546119dd565b60065467ffffffffffffffff16611f74611f57600e5463ffffffff1690565b600f549060405194859463230e93b160e11b865260048601611b1e565b036000916020816001600160a01b03938186867f0000000000000000000000000000000000000000000000000000000000000000165af1839181612124575b506120e457506001611fc3611b5e565b6308c379a014612093575b61205f575b7f000000000000000000000000000000000000000000000000000000000000000016600c54813b1561205b576040517f8765ecbe000000000000000000000000000000000000000000000000000000008152600481019190915291908290602490829084905af18015610be057612048575b50565b806120556106ee926102b8565b8061024c565b8280fd5b7f9c4bfa18304482256875c29fabb1a44a5ecd325f214ea17bab8f31e869faf4c861208b61096c611beb565b0390a1611fd3565b61209b611b7c565b806120a7575b50611fce565b90507f2ba61e3733e7ac99181c22307780f651ec8fd92fe661a84dfbe711710b2dc36c6120db849260405191829182610878565b0390a1386120a1565b6120ed81601055565b6120fb611e8d6014546119dd565b7f1131472297a800fee664d1d89cfa8f7676ff07189ecc53f80bbb5f4969099db88380a2611fd3565b61213d91925060203d8111610bd957610bcb81836102ed565b9038611fb3565b60405190612151826102d1565b600c82527f636f64654c6f636174696f6e00000000000000000000000000000000000000006020830152565b634e487b7160e01b600052602160045260246000fd5b6003111561219d57565b61217d565b604051906121af826102d1565b600882527f6c616e67756167650000000000000000000000000000000000000000000000006020830152565b6001111561219d57565b604051906121f2826102d1565b600682527f736f7572636500000000000000000000000000000000000000000000000000006020830152565b6040519061222b826102d1565b600482527f61726773000000000000000000000000000000000000000000000000000000006020830152565b60001981146110cb5760010190565b805182101561065e5760209160051b010190565b60405190612287826102d1565b600f82527f736563726574734c6f636174696f6e00000000000000000000000000000000006020830152565b604051906122c0826102d1565b600782527f73656372657473000000000000000000000000000000000000000000000000006020830152565b604051906122f9826102d1565b600982527f62797465734172677300000000000000000000000000000000000000000000006020830152565b61232d6125a2565b9061233f612339612144565b83612cce565b61235c815161234d81612193565b61235681612193565b83612644565b6123676123396121a2565b6123816040820151612378816121db565b612356816121db565b61238c6123396121e5565b61239a606082015183612cce565b60a081018051516124b7575b50608081019081515161241f575b60c09150018051516123c7575b50515190565b916123d36123396122ec565b6123dc82612d53565b60005b8351805182101561240c57906124026123fb8261240794612266565b5185612c1b565b612257565b6123df565b5050915061241981612ddf565b386123c1565b60208101805161242e81612193565b61243781612193565b1561248d5760c0926124706124889261245761245161227a565b88612cce565b5161246181612193565b61246a81612193565b86612644565b61248161247b6122b3565b86612cce565b5184612c1b565b6123b4565b60046040517fa80d31f7000000000000000000000000000000000000000000000000000000008152fd5b926124c96124c361221e565b84612cce565b6124d283612d53565b60005b845180518210156124fd57906124026124f1826124f894612266565b5186612cce565b6124d5565b5050925061250a82612ddf565b386123a6565b815115612527576000808252604082015260600152565b60046040517f22ce3edd000000000000000000000000000000000000000000000000000000008152fd5b81511561255e5760a00152565b60046040517ffe936cb7000000000000000000000000000000000000000000000000000000008152fd5b60405190612595826102d1565b6000602083606081520152565b6040516125ae816102d1565b6125b6612588565b80825260208201600081526125c9612588565b506101006020830152604051809252600082526101208201918210610257576000916040525290565b906125fb612588565b50601f81168061262a575b50806020830152604051908183526000825281016020019081106102575760405290565b602003602081116110cb5781018091116110cb5738612606565b90815191612650612588565b5082515160018101908181116110cb5760208501518110156126a9575b60c260206106ee96519283010153805182116126a1575b50506040519160208301526020825261269c826102d1565b612c1b565b523880612684565b8160011b94828604600214831517156110cb576020816126db6106ee986126d460c2955191846125f2565b5082612b63565b509650505061266d565b908160011b91808304600214901517156110cb57565b612703612588565b5080515160018101908181116110cb57602083015181101561273c575b605b6020845192830101538051821161273857505090565b5290565b8160011b828104600214831517156110cb576127659061275e855191866125f2565b5084612b63565b50612720565b612773612588565b5080515160018101908181116110cb5760208301518110156127a8575b605a6020845192830101538051821161273857505090565b8160011b828104600214831517156110cb576127ca9061275e855191866125f2565b50612790565b6127d8612588565b5080515160018101908181116110cb57602083015181101561280d575b60596020845192830101538051821161273857505090565b8160011b828104600214831517156110cb5761282f9061275e855191866125f2565b506127f5565b61283d612588565b5080515160018101908181116110cb576020830151811015612872575b60586020845192830101538051821161273857505090565b8160011b828104600214831517156110cb576128949061275e855191866125f2565b5061285a565b6128a2612588565b5080515160018101908181116110cb5760208301518110156128d7575b607b6020845192830101538051821161273857505090565b8160011b828104600214831517156110cb576128f99061275e855191866125f2565b506128bf565b612907612588565b5080515160018101908181116110cb57602083015181101561293c575b607a6020845192830101538051821161273857505090565b8160011b828104600214831517156110cb5761295e9061275e855191866125f2565b50612924565b61296c612588565b5080515160018101908181116110cb5760208301518110156129a1575b60796020845192830101538051821161273857505090565b8160011b828104600214831517156110cb576129c39061275e855191866125f2565b50612989565b6129d1612588565b5080515160018101908181116110cb576020830151811015612a06575b60786020845192830101538051821161273857505090565b8160011b828104600214831517156110cb57612a289061275e855191866125f2565b506129ee565b90612a37612588565b5081515160018101918282116110cb576020840151821015612a6a575b6020845192830101538051821161273857505090565b8260011b838104600214841517156110cb57612a9390612a8c865191876125f2565b5085612b63565b50612a54565b90612aa6825191836125f2565b50612aaf612588565b50805190612abb612588565b50612ac98151831115612c14565b82515192612ad783856119f9565b916020928284809401518211612b4c575b5183815197820101968211612b44575b505001915b81811015612b1e5760001991036101000a0190811990511690825116179052565b9192612b39612b33612b3f92865181526119eb565b946119eb565b9261194a565b612afd565b523880612af8565b612b5e612b58836126e5565b82612a99565b612ae8565b90612b6c612588565b508051612b77612588565b50612b858251821115612c14565b82515191612b9382846119f9565b6020918291828701518111612bfd575b865183815197820101968211612bf5575b505001915b81811015612bdb5760001991036101000a019081199051169082511617905290565b9192612b39612b33612bf092865181526119eb565b612bb9565b523880612bb4565b612c0f612c09826126e5565b88612a99565b612ba3565b1561025757565b815161204592919067ffffffffffffffff81169060178211612c5357612c4b9150604060ff845192161790612a2e565b505b51612b63565b5060ff8111612c7857612c7290612c6a8351612835565b508251612fa9565b50612c4d565b61ffff8111612c9757612c7290612c8f83516127d0565b508251612f42565b63ffffffff8111612cb857612c7290612cb0835161276b565b508251612ed9565b612c7290612cc683516126fb565b508251612e6c565b815161204592919067ffffffffffffffff81169060178211612cfe57612c4b9150606060ff845192161790612a2e565b5060ff8111612d1557612c7290612c6a83516129c9565b61ffff8111612d2c57612c7290612c8f8351612964565b63ffffffff8111612d4557612c7290612cb083516128ff565b612c7290612cc6835161289a565b805190612d5e612588565b5081515160018101908181116110cb576020840151811015612dac575b609f6020809551928301015380518211612da4575b505001805190600182018092116110cb5752565b523880612d90565b8160011b93828504600214831517156110cb57602081612dd582976126d4609f955191846125f2565b5095505050612d7b565b805190612dea612588565b5081515160018101908181116110cb576020840151811015612e39575b60ff6020809551928301015380518211612e31575b50500180516000198101919082116110cb5752565b523880612e1c565b8160011b93828504600214831517156110cb57602081612e6282976126d460ff955191846125f2565b5095505050612e07565b90612e75612588565b508151518060080191826008116110cb5760208401518311612eb8575b60088451928301019067ffffffffffffffff198251161790528051821161273857505090565b8260011b838104600214841517156110cb57612ed49085612a99565b612e92565b90612ee2612588565b508151518060040191826004116110cb5760208401518311612f21575b60048451928301019063ffffffff198251161790528051821161273857505090565b8260011b838104600214841517156110cb57612f3d9085612a99565b612eff565b90612f4b612588565b508151518060020191826002116110cb5760208401518311612f88575b60028451928301019061ffff198251161790528051821161273857505090565b8260011b838104600214841517156110cb57612fa49085612a99565b612f68565b90612fb2612588565b508151518060010191826001116110cb5760208401518311612fee575b60018451928301019060ff198251161790528051821161273857505090565b8260011b838104600214841517156110cb5761300a9085612a99565b612fcf565b90815167ffffffffffffffff81116102cc5761303581613030600554610679565b6118a4565b602080601f83116001146130715750819293600092613066575b50508160011b916000199060031b1c191617600555565b01519050388061304f565b90601f198316946130a460056000527f036b6384b5eca791c62761152d0c79bb0604c104a5fb6f4eb0703f3154bb3db090565b926000905b8782106130e15750508360019596106130c8575b505050811b01600555565b015160001960f88460031b161c191690553880806130bd565b806001859682949686015181550195019301906130a9565b60208151910151906020811061310d575090565b6000199060200360031b1b1690565b601c54680100000000000000008110156102cc57613141600191828101601c55610627565b9290926132145780519067ffffffffffffffff82116102cc5761316e826131688654610679565b866118fa565b60209081601f84116001146131aa575092829391839260009461319f575b50501b916000199060031b1c1916179055565b01519250388061318c565b919083601f1981166131c188600052602060002090565b946000905b888383106131fa57505050106131e1575b505050811b019055565b015160001960f88460031b161c191690553880806131d7565b8587015188559096019594850194879350908101906131c6565b610663565b909161323061088993604084526040840190610838565b916020818403910152610838565b1561324557565b606460405162461bcd60e51b815260206004820152601b60248201527f4572726f20616f207061676172206120696e64656e697a6163616f00000000006044820152fd5b601e54601a5411156132c7576106ee60008080806132b5610b20610b206017546001600160a01b031690565b47905af16132c1611beb565b5061323e565b60008080806001600160a01b036016541647905af16132e4611beb565b50156132ec57565b608460405162461bcd60e51b815260206004820152602d60248201527f4572726f20616f207265746f726e6172206f732066756e646f7320706172612060448201527f6120696e73746974756963616f000000000000000000000000000000000000006064820152fdfea2646970667358221220ce5ff509f7773651e22f76c3c5234fa69b10fc3253d084f470418d7890ff6f4a64736f6c6343000813003360c03461008757601f61062e38819003918201601f19168301916001600160401b0383118484101761008c57808492604094855283398101031261008757610052602061004b836100a2565b92016100a2565b9060805260a05260405161057790816100b7823960805181818160bf015261027e015260a05181818161010f01526102460152f35b600080fd5b634e487b7160e01b600052604160045260246000fd5b51906001600160a01b03821682036100875756fe608080604052600436101561001357600080fd5b600090813560e01c908163442b1278146100e3575080637d253aff146100925763bc61a4731461004257600080fd5b3461008b576003199060203683011261008b576004359167ffffffffffffffff831161008e5761014090833603011261008b576020610083836004016101e4565b604051908152f35b80fd5b5080fd5b503461008b578060031936011261008b57602060405173ffffffffffffffffffffffffffffffffffffffff7f0000000000000000000000000000000000000000000000000000000000000000168152f35b90503461008e578160031936011261008e5760209073ffffffffffffffffffffffffffffffffffffffff7f0000000000000000000000000000000000000000000000000000000000000000168152f35b90601f8019910116810190811067ffffffffffffffff82111761015557604052565b634e487b7160e01b600052604160045260246000fd5b9035601e198236030181121561019d57016020813591019167ffffffffffffffff821161019d57813603831361019d57565b600080fd5b908060209392818452848401376000828201840152601f01601f1916010190565b359073ffffffffffffffffffffffffffffffffffffffff8216820361019d57565b90600091610120810135906bffffffffffffffffffffffff82168092036104f85760408051917f095ea7b300000000000000000000000000000000000000000000000000000000835273ffffffffffffffffffffffffffffffffffffffff90817f00000000000000000000000000000000000000000000000000000000000000001680600486015285602486015260209485816044818c887f0000000000000000000000000000000000000000000000000000000000000000165af18015610537576104fc575b508351957f3f678e11000000000000000000000000000000000000000000000000000000008752856004880152886102f96102e6858061016b565b61014060248c01526101648b01916101a2565b9161031d6103098987018761016b565b6023198c8703810160448e015295916101a2565b958061032a8988016101c3565b1660648b0152606086013563ffffffff81168091036104f85760848b0152610354608087016101c3565b1660a48a015260a08501359060ff82168092036104f4576103db8a9687956103cb6103bf6103a18e9c8a9860c48a015261039160c087018761016b565b90868b84030160e48c01526101a2565b6103ae60e086018661016b565b90858a8403016101048b01526101a2565b9261010081019061016b565b91868403016101248701526101a2565b9061014483015203925af19283156104ea5785936104b7575b50821561045a573385528482528420908154916801000000000000000083101561044657600183018082558310156104325794839495815220015590565b602486634e487b7160e01b81526032600452fd5b602486634e487b7160e01b81526041600452fd5b6064925051907f08c379a00000000000000000000000000000000000000000000000000000000082526004820152601560248201527f6175746f2d617070726f76652064697361626c656400000000000000000000006044820152fd5b9092508181813d83116104e3575b6104cf8183610133565b810103126104df575191386103f4565b8480fd5b503d6104c5565b81513d87823e3d90fd5b8280fd5b8380fd5b8581813d8311610530575b6105118183610133565b8101031261052c57518015150361052857386102ab565b8780fd5b8880fd5b503d610507565b85513d8b823e3d90fdfea2646970667358221220203e0203b6245e9eea9665a381eaec57b6fe1350197ad7fa15f5a15f2c69d75f64736f6c63430008130033",
  "linkReferences": {},
  "deployedLinkReferences": {}
}