{
  "_format": "hh-sol-artifact-1",
  "contractName": "AutomatedFunctionsConsumer",
  "sourceName": "contracts/AutomatedFunctionsConsumer.sol",
  "abi": [
    {
      "inputs": [
        {
          "internalType": "address",
          "name": "_deployer",
          "type": "address"
        },
        {
          "internalType": "address",
          "name": "_farmer",
          "type": "address"
        },
        {
          "internalType": "uint256",
          "name": "_humidityLimit",
          "type": "uint256"
        },
        {
          "internalType": "uint256",
          "name": "_sampleMaxSize",
          "type": "uint256"
        },
        {
          "internalType": "uint256",
          "name": "_reparationValue",
          "type": "uint256"
        },
        {
          "internalType": "uint256",
          "name": "_updateInterval",
          "type": "uint256"
        },
        {
          "internalType": "address",
          "name": "router",
          "type": "address"
        },
        {
          "internalType": "uint64",
          "name": "_subscriptionId",
          "type": "uint64"
        },
        {
          "internalType": "address",
          "name": "_registry",
          "type": "address"
        },
        {
          "internalType": "address",
          "name": "sepoliaLINKAddress",
          "type": "address"
        },
        {
          "internalType": "address",
          "name": "sepoliaRegistrarAddress",
          "type": "address"
        },
        {
          "internalType": "uint32",
          "name": "_fulfillGasLimit",
          "type": "uint32"
        }
      ],
      "stateMutability": "payable",
      "type": "constructor"
    },
    {
      "inputs": [],
      "name": "EmptyArgs",
      "type": "error"
    },
    {
      "inputs": [],
      "name": "EmptySource",
      "type": "error"
    },
    {
      "inputs": [],
      "name": "NoInlineSecrets",
      "type": "error"
    },
    {
      "inputs": [
        {
          "internalType": "address",
          "name": "caller",
          "type": "address"
        },
        {
          "internalType": "address",
          "name": "owner",
          "type": "address"
        },
        {
          "internalType": "address",
          "name": "automationRegistry",
          "type": "address"
        }
      ],
      "name": "NotAllowedCaller",
      "type": "error"
    },
    {
      "inputs": [],
      "name": "OnlyRouterCanFulfill",
      "type": "error"
    },
    {
      "inputs": [
        {
          "internalType": "bytes32",
          "name": "requestId",
          "type": "bytes32"
        }
      ],
      "name": "UnexpectedRequestID",
      "type": "error"
    },
    {
      "anonymous": false,
      "inputs": [
        {
          "indexed": true,
          "internalType": "bytes32",
          "name": "requestId",
          "type": "bytes32"
        },
        {
          "indexed": false,
          "internalType": "bytes",
          "name": "result",
          "type": "bytes"
        },
        {
          "indexed": false,
          "internalType": "bytes",
          "name": "err",
          "type": "bytes"
        }
      ],
      "name": "OCRResponse",
      "type": "event"
    },
    {
      "anonymous": false,
      "inputs": [
        {
          "indexed": true,
          "internalType": "address",
          "name": "from",
          "type": "address"
        },
        {
          "indexed": true,
          "internalType": "address",
          "name": "to",
          "type": "address"
        }
      ],
      "name": "OwnershipTransferRequested",
      "type": "event"
    },
    {
      "anonymous": false,
      "inputs": [
        {
          "indexed": true,
          "internalType": "address",
          "name": "from",
          "type": "address"
        },
        {
          "indexed": true,
          "internalType": "address",
          "name": "to",
          "type": "address"
        }
      ],
      "name": "OwnershipTransferred",
      "type": "event"
    },
    {
      "anonymous": false,
      "inputs": [
        {
          "indexed": true,
          "internalType": "bytes32",
          "name": "id",
          "type": "bytes32"
        }
      ],
      "name": "RequestFulfilled",
      "type": "event"
    },
    {
      "anonymous": false,
      "inputs": [
        {
          "indexed": false,
          "internalType": "string",
          "name": "reason",
          "type": "string"
        }
      ],
      "name": "RequestRevertedWithErrorMsg",
      "type": "event"
    },
    {
      "anonymous": false,
      "inputs": [
        {
          "indexed": false,
          "internalType": "bytes",
          "name": "data",
          "type": "bytes"
        }
      ],
      "name": "RequestRevertedWithoutErrorMsg",
      "type": "event"
    },
    {
      "anonymous": false,
      "inputs": [
        {
          "indexed": true,
          "internalType": "bytes32",
          "name": "id",
          "type": "bytes32"
        }
      ],
      "name": "RequestSent",
      "type": "event"
    },
    {
      "anonymous": false,
      "inputs": [
        {
          "indexed": true,
          "internalType": "bytes32",
          "name": "requestId",
          "type": "bytes32"
        },
        {
          "indexed": false,
          "internalType": "bytes",
          "name": "response",
          "type": "bytes"
        },
        {
          "indexed": false,
          "internalType": "bytes",
          "name": "err",
          "type": "bytes"
        }
      ],
      "name": "Response",
      "type": "event"
    },
    {
      "anonymous": false,
      "inputs": [
        {
          "indexed": false,
          "internalType": "address",
          "name": "upkeepAddress",
          "type": "address"
        }
      ],
      "name": "upkeepCreated",
      "type": "event"
    },
    {
      "anonymous": false,
      "inputs": [
        {
          "indexed": false,
          "internalType": "uint256",
          "name": "upkeepId",
          "type": "uint256"
        }
      ],
      "name": "upkeepRegistered",
      "type": "event"
    },
    {
      "inputs": [],
      "name": "acceptOwnership",
      "outputs": [],
      "stateMutability": "nonpayable",
      "type": "function"
    },
    {
      "inputs": [
        {
          "internalType": "bytes",
          "name": "",
          "type": "bytes"
        }
      ],
      "name": "checkUpkeep",
      "outputs": [
        {
          "internalType": "bool",
          "name": "upkeepNeeded",
          "type": "bool"
        },
        {
          "internalType": "bytes",
          "name": "",
          "type": "bytes"
        }
      ],
      "stateMutability": "view",
      "type": "function"
    },
    {
      "inputs": [],
      "name": "contractBalance",
      "outputs": [
        {
          "internalType": "uint256",
          "name": "",
          "type": "uint256"
        }
      ],
      "stateMutability": "view",
      "type": "function"
    },
    {
      "inputs": [],
      "name": "donID",
      "outputs": [
        {
          "internalType": "bytes32",
          "name": "",
          "type": "bytes32"
        }
      ],
      "stateMutability": "view",
      "type": "function"
    },
    {
      "inputs": [],
      "name": "farmer",
      "outputs": [
        {
          "internalType": "address",
          "name": "",
          "type": "address"
        }
      ],
      "stateMutability": "view",
      "type": "function"
    },
    {
      "inputs": [],
      "name": "fulfillGasLimit",
      "outputs": [
        {
          "internalType": "uint32",
          "name": "",
          "type": "uint32"
        }
      ],
      "stateMutability": "view",
      "type": "function"
    },
    {
      "inputs": [],
      "name": "gasLimit",
      "outputs": [
        {
          "internalType": "uint32",
          "name": "",
          "type": "uint32"
        }
      ],
      "stateMutability": "view",
      "type": "function"
    },
    {
      "inputs": [
        {
          "internalType": "bytes32",
          "name": "requestId",
          "type": "bytes32"
        },
        {
          "internalType": "bytes",
          "name": "response",
          "type": "bytes"
        },
        {
          "internalType": "bytes",
          "name": "err",
          "type": "bytes"
        }
      ],
      "name": "handleOracleFulfillment",
      "outputs": [],
      "stateMutability": "nonpayable",
      "type": "function"
    },
    {
      "inputs": [],
      "name": "humidityLimit",
      "outputs": [
        {
          "internalType": "uint256",
          "name": "",
          "type": "uint256"
        }
      ],
      "stateMutability": "view",
      "type": "function"
    },
    {
      "inputs": [],
      "name": "i_upkeep",
      "outputs": [
        {
          "internalType": "contract Upkeep",
          "name": "",
          "type": "address"
        }
      ],
      "stateMutability": "view",
      "type": "function"
    },
    {
      "inputs": [],
      "name": "institution",
      "outputs": [
        {
          "internalType": "address",
          "name": "",
          "type": "address"
        }
      ],
      "stateMutability": "view",
      "type": "function"
    },
    {
      "inputs": [],
      "name": "lastUpkeepTimeStamp",
      "outputs": [
        {
          "internalType": "uint256",
          "name": "",
          "type": "uint256"
        }
      ],
      "stateMutability": "view",
      "type": "function"
    },
    {
      "inputs": [],
      "name": "latestError",
      "outputs": [
        {
          "internalType": "bytes",
          "name": "",
          "type": "bytes"
        }
      ],
      "stateMutability": "view",
      "type": "function"
    },
    {
      "inputs": [],
      "name": "latestRequestId",
      "outputs": [
        {
          "internalType": "bytes32",
          "name": "",
          "type": "bytes32"
        }
      ],
      "stateMutability": "view",
      "type": "function"
    },
    {
      "inputs": [],
      "name": "latestResponse",
      "outputs": [
        {
          "internalType": "bytes",
          "name": "",
          "type": "bytes"
        }
      ],
      "stateMutability": "view",
      "type": "function"
    },
    {
      "inputs": [],
      "name": "owner",
      "outputs": [
        {
          "internalType": "address",
          "name": "",
          "type": "address"
        }
      ],
      "stateMutability": "view",
      "type": "function"
    },
    {
      "inputs": [
        {
          "internalType": "bytes",
          "name": "",
          "type": "bytes"
        }
      ],
      "name": "performUpkeep",
      "outputs": [],
      "stateMutability": "nonpayable",
      "type": "function"
    },
    {
      "inputs": [],
      "name": "registry",
      "outputs": [
        {
          "internalType": "contract IAutomationRegistryConsumer",
          "name": "",
          "type": "address"
        }
      ],
      "stateMutability": "view",
      "type": "function"
    },
    {
      "inputs": [],
      "name": "reparationValue",
      "outputs": [
        {
          "internalType": "uint256",
          "name": "",
          "type": "uint256"
        }
      ],
      "stateMutability": "view",
      "type": "function"
    },
    {
      "inputs": [],
      "name": "request",
      "outputs": [
        {
          "internalType": "bytes",
          "name": "",
          "type": "bytes"
        }
      ],
      "stateMutability": "view",
      "type": "function"
    },
    {
      "inputs": [],
      "name": "requestCBOR",
      "outputs": [
        {
          "internalType": "bytes",
          "name": "",
          "type": "bytes"
        }
      ],
      "stateMutability": "view",
      "type": "function"
    },
    {
      "inputs": [],
      "name": "responseCounter",
      "outputs": [
        {
          "internalType": "uint256",
          "name": "",
          "type": "uint256"
        }
      ],
      "stateMutability": "view",
      "type": "function"
    },
    {
      "inputs": [],
      "name": "s_lastError",
      "outputs": [
        {
          "internalType": "bytes",
          "name": "",
          "type": "bytes"
        }
      ],
      "stateMutability": "view",
      "type": "function"
    },
    {
      "inputs": [],
      "name": "s_lastRequestId",
      "outputs": [
        {
          "internalType": "bytes32",
          "name": "",
          "type": "bytes32"
        }
      ],
      "stateMutability": "view",
      "type": "function"
    },
    {
      "inputs": [],
      "name": "s_lastResponse",
      "outputs": [
        {
          "internalType": "bytes",
          "name": "",
          "type": "bytes"
        }
      ],
      "stateMutability": "view",
      "type": "function"
    },
    {
      "inputs": [],
      "name": "s_requestCounter",
      "outputs": [
        {
          "internalType": "uint256",
          "name": "",
          "type": "uint256"
        }
      ],
      "stateMutability": "view",
      "type": "function"
    },
    {
      "inputs": [],
      "name": "s_responseCounter",
      "outputs": [
        {
          "internalType": "uint256",
          "name": "",
          "type": "uint256"
        }
      ],
      "stateMutability": "view",
      "type": "function"
    },
    {
      "inputs": [],
      "name": "s_upkeepCounter",
      "outputs": [
        {
          "internalType": "uint256",
          "name": "",
          "type": "uint256"
        }
      ],
      "stateMutability": "view",
      "type": "function"
    },
    {
      "inputs": [],
      "name": "sampleMaxSize",
      "outputs": [
        {
          "internalType": "uint256",
          "name": "",
          "type": "uint256"
        }
      ],
      "stateMutability": "view",
      "type": "function"
    },
    {
      "inputs": [
        {
          "internalType": "uint256",
          "name": "",
          "type": "uint256"
        }
      ],
      "name": "sampleStorage",
      "outputs": [
        {
          "internalType": "string",
          "name": "",
          "type": "string"
        }
      ],
      "stateMutability": "view",
      "type": "function"
    },
    {
      "inputs": [
        {
          "internalType": "bytes",
          "name": "newRequestCBOR",
          "type": "bytes"
        },
        {
          "internalType": "uint64",
          "name": "_subscriptionId",
          "type": "uint64"
        },
        {
          "internalType": "uint32",
          "name": "_fulfillGasLimit",
          "type": "uint32"
        },
        {
          "internalType": "bytes32",
          "name": "_donID",
          "type": "bytes32"
        },
        {
          "internalType": "uint256",
          "name": "_updateInterval",
          "type": "uint256"
        }
      ],
      "name": "setRequest",
      "outputs": [],
      "stateMutability": "nonpayable",
      "type": "function"
    },
    {
      "inputs": [],
      "name": "subscriptionId",
      "outputs": [
        {
          "internalType": "uint64",
          "name": "",
          "type": "uint64"
        }
      ],
      "stateMutability": "view",
      "type": "function"
    },
    {
      "inputs": [
        {
          "internalType": "address",
          "name": "to",
          "type": "address"
        }
      ],
      "name": "transferOwnership",
      "outputs": [],
      "stateMutability": "nonpayable",
      "type": "function"
    },
    {
      "inputs": [],
      "name": "updateInterval",
      "outputs": [
        {
          "internalType": "uint256",
          "name": "",
          "type": "uint256"
        }
      ],
      "stateMutability": "view",
      "type": "function"
    },
    {
      "inputs": [],
      "name": "upkeepContract",
      "outputs": [
        {
          "internalType": "address",
          "name": "",
          "type": "address"
        }
      ],
      "stateMutability": "view",
      "type": "function"
    },
    {
      "inputs": [],
      "name": "upkeepCounter",
      "outputs": [
        {
          "internalType": "uint256",
          "name": "",
          "type": "uint256"
        }
      ],
      "stateMutability": "view",
      "type": "function"
    },
    {
      "inputs": [],
      "name": "upkeepId",
      "outputs": [
        {
          "internalType": "uint256",
          "name": "",
          "type": "uint256"
        }
      ],
      "stateMutability": "view",
      "type": "function"
    }
  ],
  "bytecode": "0x60c06001600160401b03601f620032fc38819003918201601f191684019183831185841017620001ca5780859261018094604052833981010312620001c5576200004982620001e0565b6200005760208401620001e0565b906040840151906060850151608086015160a0870151916200007c60c08901620001e0565b9460e0890151978816809803620001c5576101606200009f6101008b01620001e0565b99620000af6101208201620001e0565b50620000bf6101408201620001e0565b5001519563ffffffff87168703620001c5576001600160a01b0390811660805294851680156200018057856bffffffff00000000000000009860018060a01b0319928084600054161760005583601654161760165516906017541617601755601a55601b55601955600755600654941660a05260401b169160018060601b0319161717600655426008556040516131069081620001f682396080518181816103eb01528181611b190152611cfe015260a0518181816110fc0152611d4a0152f35b60405162461bcd60e51b815260206004820152601860248201527f43616e6e6f7420736574206f776e657220746f207a65726f00000000000000006044820152606490fd5b600080fd5b634e487b7160e01b600052604160045260246000fd5b51906001600160a01b0382168203620001c55756fe6080604052600436101561001257600080fd5b60003560e01c8063089ea02e1461026757806309c1ba2e146102625780630ca761751461025d5780631aa46f591461025857806324b93e3e14610253578063277e22131461024e578063303b137c14610249578063338cdca114610244578063381fc4b51461023f5780633944ea3a1461023a57806343cd3d86146102355780634585e33b14610230578063472cbbb01461022b57806348802b921461022657806348bd6f05146102215780634b0795a81461021c5780635e0611f114610217578063688ecfd1146102125780636e04ff0d1461020d5780636e74336b1461020857806379ba5097146102035780637b103999146101fe5780638b7afe2e146101f95780638da5cb5b146101f4578063a3097139146101ef578063a3d3c0d2146101ea578063b1e21749146101e5578063bef3a2f0146101e0578063d1384eb6146101db578063d2aa789f146101d6578063d811fcf0146101d1578063ebf14a55146101cc578063f2fde38b146101c7578063f5c1279b146101c2578063f68016b7146101bd578063fd2c80ae146101b85763fffeb84e146101b357600080fd5b611421565b611403565b6113df565b6113c1565b6112ee565b6112d0565b6112a9565b61128b565b611264565b6111bd565b61119f565b611181565b611163565b61113c565b611120565b6110dc565b610ffc565b610fde565b610f65565b610ebe565b610e97565b610df0565b610dd2565b610db4565b610bfd565b610b31565b610ae5565b610a3e565b610a20565b61093f565b610915565b6108ac565b61060a565b6105ec565b610392565b61029a565b61027c565b600091031261027757565b600080fd5b34610277576000366003190112610277576020600854604051908152f35b3461027757600036600319011261027757602067ffffffffffffffff60065416604051908152f35b634e487b7160e01b600052604160045260246000fd5b67ffffffffffffffff81116102ec57604052565b6102c2565b6040810190811067ffffffffffffffff8211176102ec57604052565b90601f8019910116810190811067ffffffffffffffff8211176102ec57604052565b67ffffffffffffffff81116102ec57601f01601f191660200190565b81601f82011215610277578035906103628261032f565b92610370604051948561030d565b8284526020838301011161027757816000926020809301838601378301015290565b3461027757606036600319011261027757600480359067ffffffffffffffff90602435828111610277576103c9903690830161034b565b604435838111610277576103e0903690840161034b565b906001600160a01b037f00000000000000000000000000000000000000000000000000000000000000001633036105c35780519384116102ec578261042f8561042a889654610699565b611537565b602080601f8711600114610519575094807f7bab0ec163b5c132c72b8146ac4d6e067e82ed58f8b131150aa71c9258911562959660009161050e575b508160011b916000199060031b1c19161790555b61048882612d89565b61049b610496600a54611772565b600a55565b60ff6104a9600b5460ff1690565b166104f0576104b781612e96565b6104c660405192839283612f93565b0390a27f85e1543bf2f84fe80c6badbce3648c8539ad1df4d2b3d822938ca0538be727e6600080a2005b6105016104fc82612e73565b601e55565b610509613003565b6104b7565b90508301513861046b565b600460005290601f1987167f8a35acfbc15ff81a39ae7d344fd709f28e8600b4aa8c65c6b64bfe7fe36bd19b926000905b8282106105a75750509187917f7bab0ec163b5c132c72b8146ac4d6e067e82ed58f8b131150aa71c925891156297986001941061058e575b5050811b01905561047f565b85015160001960f88460031b161c191690553880610582565b8684015185558a9850600190940193928301929081019061054a565b826040517fc6829f83000000000000000000000000000000000000000000000000000000008152fd5b34610277576000366003190112610277576020600354604051908152f35b3461027757600036600319011261027757602060065463ffffffff6040519160401c168152f35b634e487b7160e01b600052603260045260246000fd5b601c5481101561067e57601c6000527f0e4562a10381dec21b205ed72637e6b1b523bdd0e4d4d50af5cd23dd4500a2110190600090565b610631565b634e487b7160e01b600052600060045260246000fd5b90600182811c921680156106c9575b60208310146106b357565b634e487b7160e01b600052602260045260246000fd5b91607f16916106a8565b60405190600082601d54916106e783610699565b8083529260019081811690811561076f5750600114610710575b5061070e9250038361030d565b565b601d600090815291507f6d4407e7be21f808e6509aa9fa9143369579dd7d760fe20a2c09680fc146134f5b848310610754575061070e935050810160200138610701565b81935090816020925483858a0101520191019091859261073b565b90506020925061070e94915060ff191682840152151560051b82010138610701565b90604051918260008254926107a584610699565b90818452600194858116908160001461081257506001146107cf575b505061070e9250038361030d565b9093915060005260209081600020936000915b8183106107fa57505061070e935082010138806107c1565b855488840185015294850194879450918301916107e2565b91505061070e94506020925060ff191682840152151560051b82010138806107c1565b60005b82811061084757506000910152565b608081015182820152602001610838565b919082519283825260005b848110610884575050826000602080949584010152601f8019910116010190565b602081830181015184830182015201610863565b9060206108a9928181520190610858565b90565b3461027757602036600319011261027757600435601c54811015610277576108fd61091191601c6000527f0e4562a10381dec21b205ed72637e6b1b523bdd0e4d4d50af5cd23dd4500a21101610791565b604051918291602083526020830190610858565b0390f35b346102775760003660031901126102775760206001600160a01b03600b5460081c16604051908152f35b3461027757600080600319360112610a1d576040519080600d5461096281610699565b808552916001918083169081156109f35750600114610998575b6109118561098c8187038261030d565b60405191829182610898565b9250600d83527fd7b6990105719101dabeb77144f2a3385c8033acd3af97e9423a695e81ad1eb55b8284106109db57505050810160200161098c8261091161097c565b805460208587018101919091529093019281016109c0565b8695506109119693506020925061098c94915060ff191682840152151560051b820101929361097c565b80fd5b34610277576000366003190112610277576020600a54604051908152f35b3461027757600080600319360112610a1d576040519080601154610a6181610699565b808552916001918083169081156109f35750600114610a8a576109118561098c8187038261030d565b9250601183527f31ecc21a745e3968a04e9570e4425bc18fa8019c68028196b546d1669c200c685b828410610acd57505050810160200161098c8261091161097c565b80546020858701810191909152909301928101610ab2565b34610277576000366003190112610277576020601554604051908152f35b9181601f840112156102775782359167ffffffffffffffff8311610277576020838186019501011161027757565b346102775760203660031901126102775760043567ffffffffffffffff811161027757610b62903690600401610b03565b50506000546001600160a01b03163381141580610bd3575b610b8857610b86611a69565b005b6018546040517f426fbc710000000000000000000000000000000000000000000000000000000081523360048201526001600160a01b03928316602482015291166044820152606490fd5b50610bf5610be96018546001600160a01b031690565b6001600160a01b031690565b331415610b7a565b346102775760a03660031901126102775767ffffffffffffffff60043581811161027757610c2f903690600401610b03565b60243592918383168403610277576044359263ffffffff8416840361027757610c566114c8565b82116102ec57610c7082610c6b600254610699565b611598565b600090601f8311600114610d10579180610cef9592610cc494600092610d05575b50508160011b916000199060031b1c19161760025567ffffffffffffffff1667ffffffffffffffff196006541617600655565b6bffffffff00000000000000006006549160401b16906bffffffff0000000000000000191617600655565b610cfa606435600f55565b610b86608435600755565b013590503880610c91565b60026000527f405787fa12a823e0f2b7631cc41b3ba8828b3321ca811111fa75cd3aa3bb5ace91601f198416815b818110610d9c5750926001928592610cc496610cef999610610d82575b505050811b0160025567ffffffffffffffff1667ffffffffffffffff196006541617600655565b0135600019600384901b60f8161c19169055388080610d5b565b91936020600181928787013581550195019201610d3e565b34610277576000366003190112610277576020601454604051908152f35b34610277576000366003190112610277576020601954604051908152f35b3461027757600080600319360112610a1d576040519080601254610e1381610699565b808552916001918083169081156109f35750600114610e3c576109118561098c8187038261030d565b9250601283527fbb8a6a4669ba250d26cd7a459eca9d215f8307e33aebe50379bc5a3617ec34445b828410610e7f57505050810160200161098c8261091161097c565b80546020858701810191909152909301928101610e64565b346102775760003660031901126102775760206001600160a01b0360185416604051908152f35b3461027757600080600319360112610a1d576040519080600254610ee181610699565b808552916001918083169081156109f35750600114610f0a576109118561098c8187038261030d565b9250600283527f405787fa12a823e0f2b7631cc41b3ba8828b3321ca811111fa75cd3aa3bb5ace5b828410610f4d57505050810160200161098c8261091161097c565b80546020858701810191909152909301928101610f32565b346102775760203660031901126102775760043567ffffffffffffffff811161027757610f9690369060040161034b565b506008544203428111610fd95760075410604051908152604060208201526060818151806040830152610fcb81848401610835565b601f01601f19168101030190f35b61167e565b34610277576000366003190112610277576020600f54604051908152f35b3461027757600080600319360112610a1d576001600160a01b03806001541633036110985781546001600160a01b03166000805473ffffffffffffffffffffffffffffffffffffffff1916331790559061106e73ffffffffffffffffffffffffffffffffffffffff1960015416600155565b3391167f8be0079c531659141344cd1fd0a4f28419497f9722a3daafe3b4186f6b6457e08380a380f35b606460405162461bcd60e51b815260206004820152601660248201527f4d7573742062652070726f706f736564206f776e6572000000000000000000006044820152fd5b346102775760003660031901126102775760206040516001600160a01b037f0000000000000000000000000000000000000000000000000000000000000000168152f35b3461027757600036600319011261027757602047604051908152f35b346102775760003660031901126102775760206001600160a01b0360005416604051908152f35b34610277576000366003190112610277576020601a54604051908152f35b34610277576000366003190112610277576020600954604051908152f35b34610277576000366003190112610277576020601054604051908152f35b3461027757600080600319360112610a1d5760405190806004546111e081610699565b808552916001918083169081156109f35750600114611209576109118561098c8187038261030d565b9250600483527f8a35acfbc15ff81a39ae7d344fd709f28e8600b4aa8c65c6b64bfe7fe36bd19b5b82841061124c57505050810160200161098c8261091161097c565b80546020858701810191909152909301928101611231565b346102775760003660031901126102775760206001600160a01b0360165416604051908152f35b34610277576000366003190112610277576020600c54604051908152f35b346102775760003660031901126102775760206001600160a01b0360175416604051908152f35b34610277576000366003190112610277576020601b54604051908152f35b34610277576020366003190112610277576004356001600160a01b0381168091036102775761131b6114c8565b33811461137d578073ffffffffffffffffffffffffffffffffffffffff196001541617600155611356610be96000546001600160a01b031690565b7fed8889f560326eb138920d842192f0eb3dd22b4f139c87a2c57538e05bae1278600080a3005b606460405162461bcd60e51b815260206004820152601760248201527f43616e6e6f74207472616e7366657220746f2073656c660000000000000000006044820152fd5b34610277576000366003190112610277576020601354604051908152f35b3461027757600036600319011261027757602063ffffffff600e5416604051908152f35b34610277576000366003190112610277576020600754604051908152f35b3461027757600080600319360112610a1d57604051908060055461144481610699565b808552916001918083169081156109f3575060011461146d576109118561098c8187038261030d565b9250600583527f036b6384b5eca791c62761152d0c79bb0604c104a5fb6f4eb0703f3154bb3db05b8284106114b057505050810160200161098c8261091161097c565b80546020858701810191909152909301928101611495565b6001600160a01b036000541633036114dc57565b606460405162461bcd60e51b815260206004820152601660248201527f4f6e6c792063616c6c61626c65206279206f776e6572000000000000000000006044820152fd5b81811061152b575050565b60008155600101611520565b90601f8211611544575050565b61070e9160046000527f8a35acfbc15ff81a39ae7d344fd709f28e8600b4aa8c65c6b64bfe7fe36bd19b906020601f840160051c8301931061158e575b601f0160051c0190611520565b9091508190611581565b90601f82116115a5575050565b61070e9160026000527f405787fa12a823e0f2b7631cc41b3ba8828b3321ca811111fa75cd3aa3bb5ace906020601f840160051c8301931061158e57601f0160051c0190611520565b90601f82116115fb575050565b61070e9160056000527f036b6384b5eca791c62761152d0c79bb0604c104a5fb6f4eb0703f3154bb3db0906020601f840160051c8301931061158e57601f0160051c0190611520565b9190601f811161165357505050565b61070e926000526020600020906020601f840160051c8301931061158e57601f0160051c0190611520565b634e487b7160e01b600052601160045260246000fd5b601f19810191908211610fd957565b60606008544203428111610fd9576007541091565b156116bf57565b606460405162461bcd60e51b815260206004820152601560248201527f55706b656570206e6f74207265676973746572656400000000000000000000006044820152fd5b604051906020820182811067ffffffffffffffff8211176102ec5760405260008252565b1561172e57565b606460405162461bcd60e51b815260206004820152601560248201527f54696d6520696e74657276616c206e6f74206d657400000000000000000000006044820152fd5b9060018201809211610fd957565b9060208201809211610fd957565b91908201809211610fd957565b6040519060e0820182811067ffffffffffffffff8211176102ec57604052606060c08360008152600060208201526000604082015282808201528260808201528260a08201520152565b601c549067ffffffffffffffff82116102ec5760405191602061180d818360051b018561030d565b81845280840190601c6000527f0e4562a10381dec21b205ed72637e6b1b523bdd0e4d4d50af5cd23dd4500a2116000925b84841061184c575050505050565b600183819261185a85610791565b81520192019301929061183e565b90816020910312610277575190565b906118a560809367ffffffffffffffff63ffffffff939897969816845260a0602085015260a0840190610858565b95600160408401521660608201520152565b6040513d6000823e3d90fd5b60009060033d116118d057565b905060046000803e60005160e01c90565b600060443d106108a957604051600319913d83016004833e815167ffffffffffffffff918282113d60248401111761193f57818401948551938411611947573d8501016020848701011161193f57506108a99291016020019061030d565b949350505050565b50949350505050565b3d1561197b573d906119618261032f565b9161196f604051938461030d565b82523d6000602084013e565b606090565b9067ffffffffffffffff909493929416815260209360a0858301526000600254956119aa87610699565b908160a08601526001978881169081600014611a4057506001146119e4575b5050604083019590955263ffffffff16606082015260800152565b600260009081529250877f405787fa12a823e0f2b7631cc41b3ba8828b3321ca811111fa75cd3aa3bb5ace5b838510611a2b5750505050820160c0018163ffffffff6119c9565b805487860160c0015293820193899101611a10565b60ff191660c08781019190915292151560051b8601909201925083915063ffffffff90506119c9565b611a76600c5415156116b8565b611a7e611703565b50611a90611a8a6116a3565b50611727565b611a9942600855565b611aac611aa7600954611772565b600955565b601b54601c541015611c5b57611acb611ac6601354611772565b601355565b60065467ffffffffffffffff166020611ae9600e5463ffffffff1690565b600f5492611b0b604051948593849363230e93b160e11b855260048501611980565b038160006001600160a01b037f0000000000000000000000000000000000000000000000000000000000000000165af160009181611c2b575b50611be857506001611b546118c3565b6308c379a014611b96575b611b6557565b7f9c4bfa18304482256875c29fabb1a44a5ecd325f214ea17bab8f31e869faf4c8611b9161098c611950565b0390a1565b611b9e6118e1565b80611baa575b50611b5f565b90507f2ba61e3733e7ac99181c22307780f651ec8fd92fe661a84dfbe711710b2dc36c611bdf60009260405191829182610898565b0390a138611ba4565b611bf181601055565b611c04611bff601454611772565b601455565b7f1131472297a800fee664d1d89cfa8f7676ff07189ecc53f80bbb5f4969099db8600080a2565b611c4d91925060203d8111611c54575b611c45818361030d565b810190611868565b9038611b44565b503d611c3b565b611c6d600160ff19600b541617600b55565b611c9f611c7861179b565b611c89611c836106d3565b8261228a565b611c9a611c946117e5565b826122cb565b61209f565b611cad611ac6601354611772565b60065467ffffffffffffffff16611ce9611ccc600e5463ffffffff1690565b600f549060405194859463230e93b160e11b865260048601611877565b036000916020816001600160a01b03938186867f0000000000000000000000000000000000000000000000000000000000000000165af1839181611e9e575b50611e5e57506001611d386118c3565b6308c379a014611e0d575b611dd9575b7f000000000000000000000000000000000000000000000000000000000000000016600c54813b15611dd5576040517f8765ecbe000000000000000000000000000000000000000000000000000000008152600481019190915291908290602490829084905af18015611dd057611dbd575b50565b80611dca61070e926102d8565b8061026c565b6118b7565b8280fd5b7f9c4bfa18304482256875c29fabb1a44a5ecd325f214ea17bab8f31e869faf4c8611e0561098c611950565b0390a1611d48565b611e156118e1565b80611e21575b50611d43565b90507f2ba61e3733e7ac99181c22307780f651ec8fd92fe661a84dfbe711710b2dc36c611e55849260405191829182610898565b0390a138611e1b565b611e6781601055565b611e75611bff601454611772565b7f1131472297a800fee664d1d89cfa8f7676ff07189ecc53f80bbb5f4969099db88380a2611d48565b611eb791925060203d8111611c5457611c45818361030d565b9038611d28565b60405190611ecb826102f1565b600c82527f636f64654c6f636174696f6e00000000000000000000000000000000000000006020830152565b634e487b7160e01b600052602160045260246000fd5b60031115611f1757565b611ef7565b60405190611f29826102f1565b600882527f6c616e67756167650000000000000000000000000000000000000000000000006020830152565b60011115611f1757565b60405190611f6c826102f1565b600682527f736f7572636500000000000000000000000000000000000000000000000000006020830152565b60405190611fa5826102f1565b600482527f61726773000000000000000000000000000000000000000000000000000000006020830152565b6000198114610fd95760010190565b805182101561067e5760209160051b010190565b60405190612001826102f1565b600f82527f736563726574734c6f636174696f6e00000000000000000000000000000000006020830152565b6040519061203a826102f1565b600782527f73656372657473000000000000000000000000000000000000000000000000006020830152565b60405190612073826102f1565b600982527f62797465734172677300000000000000000000000000000000000000000000006020830152565b6120a761231c565b906120b96120b3611ebe565b83612a48565b6120d681516120c781611f0d565b6120d081611f0d565b836123be565b6120e16120b3611f1c565b6120fb60408201516120f281611f55565b6120d081611f55565b6121066120b3611f5f565b612114606082015183612a48565b60a08101805151612231575b506080810190815151612199575b60c0915001805151612141575b50515190565b9161214d6120b3612066565b61215682612acd565b60005b83518051821015612186579061217c6121758261218194611fe0565b5185612995565b611fd1565b612159565b5050915061219381612b59565b3861213b565b6020810180516121a881611f0d565b6121b181611f0d565b156122075760c0926121ea612202926121d16121cb611ff4565b88612a48565b516121db81611f0d565b6121e481611f0d565b866123be565b6121fb6121f561202d565b86612a48565b5184612995565b61212e565b60046040517fa80d31f7000000000000000000000000000000000000000000000000000000008152fd5b9261224361223d611f98565b84612a48565b61224c83612acd565b60005b84518051821015612277579061217c61226b8261227294611fe0565b5186612a48565b61224f565b5050925061228482612b59565b38612120565b8151156122a1576000808252604082015260600152565b60046040517f22ce3edd000000000000000000000000000000000000000000000000000000008152fd5b8151156122d85760a00152565b60046040517ffe936cb7000000000000000000000000000000000000000000000000000000008152fd5b6040519061230f826102f1565b6000602083606081520152565b604051612328816102f1565b612330612302565b8082526020820160008152612343612302565b506101006020830152604051809252600082526101208201918210610277576000916040525290565b90612375612302565b50601f8116806123a4575b50806020830152604051908183526000825281016020019081106102775760405290565b60200360208111610fd9578101809111610fd95738612380565b908151916123ca612302565b508251516001810190818111610fd9576020850151811015612423575b60c2602061070e965192830101538051821161241b575b505060405191602083015260208252612416826102f1565b612995565b5238806123fe565b8160011b9482860460021483151715610fd95760208161245561070e9861244e60c29551918461236c565b50826128dd565b50965050506123e7565b908160011b9180830460021490151715610fd957565b61247d612302565b508051516001810190818111610fd95760208301518110156124b6575b605b602084519283010153805182116124b257505090565b5290565b8160011b82810460021483151715610fd9576124df906124d88551918661236c565b50846128dd565b5061249a565b6124ed612302565b508051516001810190818111610fd9576020830151811015612522575b605a602084519283010153805182116124b257505090565b8160011b82810460021483151715610fd957612544906124d88551918661236c565b5061250a565b612552612302565b508051516001810190818111610fd9576020830151811015612587575b6059602084519283010153805182116124b257505090565b8160011b82810460021483151715610fd9576125a9906124d88551918661236c565b5061256f565b6125b7612302565b508051516001810190818111610fd95760208301518110156125ec575b6058602084519283010153805182116124b257505090565b8160011b82810460021483151715610fd95761260e906124d88551918661236c565b506125d4565b61261c612302565b508051516001810190818111610fd9576020830151811015612651575b607b602084519283010153805182116124b257505090565b8160011b82810460021483151715610fd957612673906124d88551918661236c565b50612639565b612681612302565b508051516001810190818111610fd95760208301518110156126b6575b607a602084519283010153805182116124b257505090565b8160011b82810460021483151715610fd9576126d8906124d88551918661236c565b5061269e565b6126e6612302565b508051516001810190818111610fd957602083015181101561271b575b6079602084519283010153805182116124b257505090565b8160011b82810460021483151715610fd95761273d906124d88551918661236c565b50612703565b61274b612302565b508051516001810190818111610fd9576020830151811015612780575b6078602084519283010153805182116124b257505090565b8160011b82810460021483151715610fd9576127a2906124d88551918661236c565b50612768565b906127b1612302565b508151516001810191828211610fd95760208401518210156127e4575b602084519283010153805182116124b257505090565b8260011b83810460021484151715610fd95761280d906128068651918761236c565b50856128dd565b506127ce565b906128208251918361236c565b50612829612302565b50805190612835612302565b50612843815183111561298e565b82515192612851838561178e565b9160209282848094015182116128c6575b51838151978201019682116128be575b505001915b818110156128985760001991036101000a0190811990511690825116179052565b91926128b36128ad6128b99286518152611780565b94611780565b92611694565b612877565b523880612872565b6128d86128d28361245f565b82612813565b612862565b906128e6612302565b5080516128f1612302565b506128ff825182111561298e565b8251519161290d828461178e565b6020918291828701518111612977575b86518381519782010196821161296f575b505001915b818110156129555760001991036101000a019081199051169082511617905290565b91926128b36128ad61296a9286518152611780565b612933565b52388061292e565b6129896129838261245f565b88612813565b61291d565b1561027757565b8151611dba92919067ffffffffffffffff811690601782116129cd576129c59150604060ff8451921617906127a8565b505b516128dd565b5060ff81116129f2576129ec906129e483516125af565b508251612d23565b506129c7565b61ffff8111612a11576129ec90612a09835161254a565b508251612cbc565b63ffffffff8111612a32576129ec90612a2a83516124e5565b508251612c53565b6129ec90612a408351612475565b508251612be6565b8151611dba92919067ffffffffffffffff81169060178211612a78576129c59150606060ff8451921617906127a8565b5060ff8111612a8f576129ec906129e48351612743565b61ffff8111612aa6576129ec90612a0983516126de565b63ffffffff8111612abf576129ec90612a2a8351612679565b6129ec90612a408351612614565b805190612ad8612302565b508151516001810190818111610fd9576020840151811015612b26575b609f6020809551928301015380518211612b1e575b50500180519060018201809211610fd95752565b523880612b0a565b8160011b9382850460021483151715610fd957602081612b4f829761244e609f9551918461236c565b5095505050612af5565b805190612b64612302565b508151516001810190818111610fd9576020840151811015612bb3575b60ff6020809551928301015380518211612bab575b5050018051600019810191908211610fd95752565b523880612b96565b8160011b9382850460021483151715610fd957602081612bdc829761244e60ff9551918461236c565b5095505050612b81565b90612bef612302565b50815151806008019182600811610fd95760208401518311612c32575b60088451928301019067ffffffffffffffff19825116179052805182116124b257505090565b8260011b83810460021484151715610fd957612c4e9085612813565b612c0c565b90612c5c612302565b50815151806004019182600411610fd95760208401518311612c9b575b60048451928301019063ffffffff19825116179052805182116124b257505090565b8260011b83810460021484151715610fd957612cb79085612813565b612c79565b90612cc5612302565b50815151806002019182600211610fd95760208401518311612d02575b60028451928301019061ffff19825116179052805182116124b257505090565b8260011b83810460021484151715610fd957612d1e9085612813565b612ce2565b90612d2c612302565b50815151806001019182600111610fd95760208401518311612d68575b60018451928301019060ff19825116179052805182116124b257505090565b8260011b83810460021484151715610fd957612d849085612813565b612d49565b90815167ffffffffffffffff81116102ec57612daf81612daa600554610699565b6115ee565b602080601f8311600114612deb5750819293600092612de0575b50508160011b916000199060031b1c191617600555565b015190503880612dc9565b90601f19831694612e1e60056000527f036b6384b5eca791c62761152d0c79bb0604c104a5fb6f4eb0703f3154bb3db090565b926000905b878210612e5b575050836001959610612e42575b505050811b01600555565b015160001960f88460031b161c19169055388080612e37565b80600185968294968601518155019501930190612e23565b602081519101519060208110612e87575090565b6000199060200360031b1b1690565b601c54680100000000000000008110156102ec57612ebb600191828101601c55610647565b929092612f8e5780519067ffffffffffffffff82116102ec57612ee882612ee28654610699565b86611644565b60209081601f8411600114612f245750928293918392600094612f19575b50501b916000199060031b1c1916179055565b015192503880612f06565b919083601f198116612f3b88600052602060002090565b946000905b88838310612f745750505010612f5b575b505050811b019055565b015160001960f88460031b161c19169055388080612f51565b858701518855909601959485019487935090810190612f40565b610683565b9091612faa6108a993604084526040840190610858565b916020818403910152610858565b15612fbf57565b606460405162461bcd60e51b815260206004820152601b60248201527f4572726f20616f207061676172206120696e64656e697a6163616f00000000006044820152fd5b601e54601a5411156130415761070e600080808061302f610be9610be96017546001600160a01b031690565b47905af161303b611950565b50612fb8565b60008080806001600160a01b036016541647905af161305e611950565b501561306657565b608460405162461bcd60e51b815260206004820152602d60248201527f4572726f20616f207265746f726e6172206f732066756e646f7320706172612060448201527f6120696e73746974756963616f000000000000000000000000000000000000006064820152fdfea2646970667358221220c5d58b300538989b9670de974f98295424ee63f7b98e7f41e968ce7b24a42c1d64736f6c63430008130033",
  "linkReferences": {},
  "deployedLinkReferences": {}
}