{
  "_format": "hh-sol-artifact-1",
  "contractName": "Institution",
  "sourceName": "contracts/mock/mockInstitution.sol",
  "abi": [
    {
      "inputs": [
        {
          "internalType": "address",
          "name": "_owner",
          "type": "address"
        },
        {
          "internalType": "string",
          "name": "_institutionName",
          "type": "string"
        }
      ],
      "stateMutability": "nonpayable",
      "type": "constructor"
    },
    {
      "inputs": [],
      "name": "NotOwner",
      "type": "error"
    },
    {
      "anonymous": false,
      "inputs": [
        {
          "indexed": false,
          "internalType": "address",
          "name": "insuranceContractAddress",
          "type": "address"
        }
      ],
      "name": "InsuranceContractCreated",
      "type": "event"
    },
    {
      "inputs": [
        {
          "internalType": "address",
          "name": "_farmerAddr",
          "type": "address"
        }
      ],
      "name": "blacklistAddr",
      "outputs": [],
      "stateMutability": "nonpayable",
      "type": "function"
    },
    {
      "inputs": [],
      "name": "contractBalance",
      "outputs": [
        {
          "internalType": "uint256",
          "name": "",
          "type": "uint256"
        }
      ],
      "stateMutability": "view",
      "type": "function"
    },
    {
      "inputs": [
        {
          "internalType": "address",
          "name": "",
          "type": "address"
        },
        {
          "internalType": "uint256",
          "name": "",
          "type": "uint256"
        }
      ],
      "name": "contracts",
      "outputs": [
        {
          "internalType": "contract AutomatedFunctionsConsumer",
          "name": "",
          "type": "address"
        }
      ],
      "stateMutability": "view",
      "type": "function"
    },
    {
      "inputs": [
        {
          "internalType": "address",
          "name": "_deployer",
          "type": "address"
        },
        {
          "internalType": "address",
          "name": "_farmer",
          "type": "address"
        },
        {
          "internalType": "uint256",
          "name": "_humidityLimit",
          "type": "uint256"
        },
        {
          "internalType": "uint256",
          "name": "_sampleMaxSize",
          "type": "uint256"
        },
        {
          "internalType": "uint256",
          "name": "_reparationValue",
          "type": "uint256"
        },
        {
          "internalType": "uint256",
          "name": "_updateInterval",
          "type": "uint256"
        },
        {
          "internalType": "address",
          "name": "router",
          "type": "address"
        },
        {
          "internalType": "uint64",
          "name": "_subscriptionId",
          "type": "uint64"
        },
        {
          "internalType": "address",
          "name": "_registry",
          "type": "address"
        },
        {
          "internalType": "address",
          "name": "_sepoliaLINKAddress",
          "type": "address"
        },
        {
          "internalType": "address",
          "name": "_sepoliaRegistrarAddress",
          "type": "address"
        },
        {
          "internalType": "uint32",
          "name": "_fulfillGasLimit",
          "type": "uint32"
        }
      ],
      "name": "createInsuranceContract",
      "outputs": [],
      "stateMutability": "nonpayable",
      "type": "function"
    },
    {
      "inputs": [
        {
          "internalType": "uint256",
          "name": "_index",
          "type": "uint256"
        }
      ],
      "name": "getInsurance",
      "outputs": [
        {
          "internalType": "contract AutomatedFunctionsConsumer",
          "name": "",
          "type": "address"
        }
      ],
      "stateMutability": "view",
      "type": "function"
    },
    {
      "inputs": [],
      "name": "i_owner",
      "outputs": [
        {
          "internalType": "address",
          "name": "",
          "type": "address"
        }
      ],
      "stateMutability": "view",
      "type": "function"
    },
    {
      "inputs": [],
      "name": "id",
      "outputs": [
        {
          "internalType": "string",
          "name": "",
          "type": "string"
        }
      ],
      "stateMutability": "view",
      "type": "function"
    },
    {
      "inputs": [],
      "name": "institutionName",
      "outputs": [
        {
          "internalType": "string",
          "name": "",
          "type": "string"
        }
      ],
      "stateMutability": "view",
      "type": "function"
    },
    {
      "inputs": [
        {
          "internalType": "address",
          "name": "_farmerAddr",
          "type": "address"
        }
      ],
      "name": "isWhiteListed",
      "outputs": [
        {
          "internalType": "bool",
          "name": "",
          "type": "bool"
        }
      ],
      "stateMutability": "view",
      "type": "function"
    },
    {
      "inputs": [
        {
          "internalType": "string",
          "name": "_name",
          "type": "string"
        },
        {
          "internalType": "string",
          "name": "_description",
          "type": "string"
        }
      ],
      "name": "registerInfo",
      "outputs": [],
      "stateMutability": "nonpayable",
      "type": "function"
    },
    {
      "inputs": [
        {
          "internalType": "address",
          "name": "",
          "type": "address"
        }
      ],
      "name": "whitelist",
      "outputs": [
        {
          "internalType": "bool",
          "name": "",
          "type": "bool"
        }
      ],
      "stateMutability": "view",
      "type": "function"
    },
    {
      "inputs": [
        {
          "internalType": "address",
          "name": "_farmerAddr",
          "type": "address"
        }
      ],
      "name": "whitelistAddr",
      "outputs": [],
      "stateMutability": "nonpayable",
      "type": "function"
    },
    {
      "inputs": [],
      "name": "withdraw",
      "outputs": [],
      "stateMutability": "nonpayable",
      "type": "function"
    },
    {
      "stateMutability": "payable",
      "type": "receive"
    }
  ],
  "bytecode": "0x60a06040523462000248576200288d803803806200001d816200024d565b928339810190604081830312620002485780516001600160a01b038116810362000248576020828101516001600160401b039391929184821162000248570193601f91818387011215620002485785518581116200021d57601f19966200008a828601891687016200024d565b938285528683830101116200024857859060005b838110620002335750506000918401015260805280519384116200021d57600054926001938481811c9116801562000212575b82821014620001fc57838111620001b1575b5080928511600114620001475750839450908392916000946200013b575b50501b916000199060031b1c1916176000555b60405161261990816200027482396080518181816103aa0152818161054c015261097d0152f35b01519250388062000101565b9294849081166000805284600020946000905b888383106200019657505050106200017c575b505050811b0160005562000114565b015160001960f88460031b161c191690553880806200016d565b8587015188559096019594850194879350908101906200015a565b60008052816000208480880160051c820192848910620001f2575b0160051c019085905b828110620001e5575050620000e3565b60008155018590620001d5565b92508192620001cc565b634e487b7160e01b600052602260045260246000fd5b90607f1690620000d1565b634e487b7160e01b600052604160045260246000fd5b8181018301518682018401528792016200009e565b600080fd5b6040519190601f01601f191682016001600160401b038111838210176200021d5760405256fe608060405260043610156200001d575b36156200001b57600080fd5b005b60003560e01c8063080a57f914620001065780633a133e2c14620001005780633ccfd60b14620000fa5780636a4ac97914620000f45780636f9170f614620000ee57806377ad0b3414620000e857806385fae60214620000e25780638a699f0014620000dc5780638b7afe2e14620000d65780639b19251a14620000d0578063af640d0f14620000ca578063dba6335f14620000c45763ed23f8c3036200000f57620009d0565b6200095b565b620008a8565b62000865565b62000847565b62000809565b620007c1565b62000726565b62000667565b620004ef565b6200038c565b62000297565b62000187565b600435906001600160a01b03821682036200012357565b600080fd5b60c435906001600160a01b03821682036200012357565b61010435906001600160a01b03821682036200012357565b61012435906001600160a01b03821682036200012357565b61014435906001600160a01b03821682036200012357565b346200012357602036600319011262000123576001600160a01b03620001ac6200010c565b166000908152600360205260409020805460ff19166001179055005b90600182811c92168015620001fa575b6020831014620001e457565b634e487b7160e01b600052602260045260246000fd5b91607f1691620001d8565b634e487b7160e01b600052604160045260246000fd5b90601f8019910116810190811067ffffffffffffffff8211176200023e57604052565b62000205565b60005b838110620002585750506000910152565b818101518382015260200162000247565b604091602082526200028b815180928160208601526020868601910162000244565b601f01601f1916010190565b346200012357600080600319360112620003895760405190808054620002bd81620001c8565b808552916001918083169081156200035c5750600114620002fd575b620002f985620002ec818703826200021b565b6040519182918262000269565b0390f35b80809450527f290decd9548b62a8d60345a988386fc84ba6bc95484008f6362f93160ef3e5635b82841062000343575050508101602001620002ec82620002f9620002d9565b8054602085870181019190915290930192810162000324565b869550620002f996935060209250620002ec94915060ff191682840152151560051b8201019293620002d9565b80fd5b34620001235760008060031936011262000389576001600160a01b037f0000000000000000000000000000000000000000000000000000000000000000168033036200045b57818080809347905af13d1562000455573d620003ee8162000485565b90620003fe60405192836200021b565b81528260203d92013e5b15620004115780f35b606460405162461bcd60e51b815260206004820152600f60248201527f4f2073617175652066616c686f752e00000000000000000000000000000000006044820152fd5b62000408565b60046040517f30cd7471000000000000000000000000000000000000000000000000000000008152fd5b67ffffffffffffffff81116200023e57601f01601f191660200190565b81601f820112156200012357803590620004bc8262000485565b92620004cc60405194856200021b565b828452602083830101116200012357816000926020809301838601378301015290565b3462000123576040366003190112620001235767ffffffffffffffff600435818111620001235762000526903690600401620004a2565b602435828111620001235762000541903690600401620004a2565b916001600160a01b037f00000000000000000000000000000000000000000000000000000000000000001633036200045b5760405182818094516200058d816020978880960162000244565b810160028152030190209183519182116200023e57620005ba82620005b38554620001c8565b8562000a21565b80601f8311600114620005f85750819293600092620005ec575b5050600019600383901b1c191660019190911b179055005b015190503880620005d4565b90601f198316946200060f85600052602060002090565b926000905b8782106200064e57505083600195961062000634575b505050811b019055005b015160001960f88460031b161c191690553880806200062a565b8060018596829496860151815501950193019062000614565b346200012357602036600319011262000123576001600160a01b036200068c6200010c565b16600052600360205260ff6040600020541660405160208101917f32458eed000000000000000000000000000000000000000000000000000000008352151590816024820152602481526060810181811067ffffffffffffffff8211176200023e576040525160209260009182916a636f6e736f6c652e6c6f675afa50604051908152f35b610164359063ffffffff821682036200012357565b3462000123576101803660031901126200012357620007446200010c565b602435906001600160a01b038216820362000123576200076362000128565b9160e4359267ffffffffffffffff8416840362000123576200001b93620007896200013f565b906200079462000157565b926200079f6200016f565b94620007aa62000711565b9660a4359160843591606435916044359162000aca565b3462000123576020366003190112620001235733600052600460205260206001600160a01b03620007f96004356040600020620009a1565b9190546040519260031b1c168152f35b346200012357602036600319011262000123576001600160a01b036200082e6200010c565b166000908152600360205260409020805460ff19169055005b34620001235760003660031901126200012357602047604051908152f35b346200012357602036600319011262000123576001600160a01b036200088a6200010c565b166000526003602052602060ff604060002054166040519015158152f35b346200012357600080600319360112620003895760405190806001805491620008d183620001c8565b808652928281169081156200035c5750600114620008fc57620002f985620002ec818703826200021b565b92508083527fb10e2d527612073b26eecdfd717e6a320cf44b4afac2b0732d9fcbe2b7fa0cf65b82841062000942575050508101602001620002ec82620002f9620002d9565b8054602085870181019190915290930192810162000923565b3462000123576000366003190112620001235760206040516001600160a01b037f0000000000000000000000000000000000000000000000000000000000000000168152f35b8054821015620009ba5760005260206000200190600090565b634e487b7160e01b600052603260045260246000fd5b34620001235760403660031901126200012357620009ed6200010c565b602435906001600160a01b038091166000526004602052604060002080548310156200012357602092620007f991620009a1565b90601f811162000a3057505050565b600091825260208220906020601f850160051c8301941062000a6f575b601f0160051c01915b82811062000a6357505050565b81815560010162000a56565b909250829062000a4d565b6040513d6000823e3d90fd5b8054680100000000000000008110156200023e5762000aab91600182018155620009a1565b819291549060031b916001600160a01b03809116831b921b1916179055565b96909a94999398929791956001600160a01b039a8b8d16600052600360205260ff604060002054161562000c14576040519961196590818c01998c8b1067ffffffffffffffff8c11176200023e578f8d9c8f949c62000ba49d8f62000c7f90399a979296909194958b99949d9c9a966101808b019e6001600160a01b039b8c9a8b809a81809916845216602083015260408201526060015260808d015260a08c01521660c08a015267ffffffffffffffff1660e089015216610100870152166101208501521661014083015263ffffffff16906101600152565b0391f0801562000c0e5762000bf88162000bf27fa155a575082ecf596e5a22a44834be92670605d1d0832000305888ba02a462d9956001600160a01b03166000526004602052604060002090565b62000a86565b60405191166001600160a01b03168152602090a1565b62000a7a565b608460405162461bcd60e51b815260206004820152602160248201527f456e64657265636f206e616f2065737461206e61206c69737461206272616e6360448201527f61000000000000000000000000000000000000000000000000000000000000006064820152fdfe6001600160401b03610100601f6200196538819003918201601f191683019184831184841017620001e45780849261018094604052833981010312620001df576200004a81620001fa565b6200005860208301620001fa565b91604081015191606082015191608081015160a0820151936200007e60c08401620001fa565b9460e0840151988916809903620001df57610160620000a16101008601620001fa565b94620000b16101208201620001fa565b60a052620000c36101408201620001fa565b608052015163ffffffff81168103620001df5760006001556001600160a01b0360e08190528616156200019a5760018060a01b0319998a988960c05260e051809b819b82809b169081816003541617600355601c541617601c55168c601d541617601d556020556bffffffff00000000000000006009549260401b169160018060601b0319161717600955600a55602155601f551684600d541617600d55426018551682600c541617600c558060a0511682601a541617601a556080511690601b541617601b556040516117559081620002108239f35b60405162461bcd60e51b815260206004820152601860248201527f43616e6e6f7420736574206f776e657220746f207a65726f00000000000000006044820152606490fd5b600080fd5b634e487b7160e01b600052604160045260246000fd5b51906001600160a01b0382168203620001df5756fe608060408181526004918236101561001657600080fd5b600092833560e01c9182626d6cae1461125257508163089ea02e1461123357816309c1ba2e1461120a5781631243bcc3146111e25781631aa46f59146111c357816324b93e3e1461119d578163277e22131461109d578163338cdca114610ff3578163381fc4b514610fd45781633944ea3a14610f2a57816343cd3d8614610f0b5781634585e33b14610ca9578163472cbbb014610abc57816348802b9214610a9d57816348bd6f0514610a7e5781634b0795a8146109d45781635d641dfc146109b85781635e0611f114610990578163688ecfd11461095f5781636baa48fe146109375781636e04ff0d1461083c5781636e74336b1461081d57816379ba5097146107615781637b103999146107395781638b7afe2e1461071e5781638da5cb5b146106f65781639655e6d8146105ba578163a30971391461059c578163a3d3c0d21461057d578163b1e217491461055e578163bef3a2f0146104b4578163d1384eb61461048c578163d2aa789f1461046d578163d811fcf014610445578163ebf14a5514610426578163f2fde38b1461035957508063f5c1279b1461033b578063f68016b714610317578063f887ea40146102f0578063fd2c80ae146102d25763fffeb84e146101e757600080fd5b346102ce57816003193601126102ce57805190826008546102078161126c565b808552916001918083169081156102a65750600114610249575b505050610233826102459403836112a6565b519182916020835260208301906112de565b0390f35b9450600885527ff3f7a9fe364faab93b216da50a3214154f22a0a2b415b23a84c8169e8b636ee35b82861061028e575050506102338260206102459582010194610221565b80546020878701810191909152909501948101610271565b61024597508693506020925061023394915060ff191682840152151560051b82010194610221565b5080fd5b50346102ce57816003193601126102ce57602090600a549051908152f35b50346102ce57816003193601126102ce576020906001600160a01b03600c54169051908152f35b50346102ce57816003193601126102ce5760209063ffffffff601054169051908152f35b50346102ce57816003193601126102ce576020906015549051908152f35b91905034610422576020366003190112610422578135916001600160a01b039182841680940361041e5761038b611441565b3384146103db57508273ffffffffffffffffffffffffffffffffffffffff19825416179055600354167fed8889f560326eb138920d842192f0eb3dd22b4f139c87a2c57538e05bae12788380a380f35b906020606492519162461bcd60e51b8352820152601760248201527f43616e6e6f74207472616e7366657220746f2073656c660000000000000000006044820152fd5b8480fd5b8280fd5b5050346102ce57816003193601126102ce576020906021549051908152f35b5050346102ce57816003193601126102ce576020906001600160a01b03601d54169051908152f35b5050346102ce57816003193601126102ce57602090600e549051908152f35b5050346102ce57816003193601126102ce576020906001600160a01b03601c54169051908152f35b5050346102ce57816003193601126102ce57805190826007546104d68161126c565b808552916001918083169081156102a6575060011461050157505050610233826102459403836112a6565b9450600785527fa66cc928b5edb82af9bd49922954155ab7b0942694bea4ce44661d9a8736c6885b828610610546575050506102338260206102459582010194610221565b80546020878701810191909152909501948101610529565b5050346102ce57816003193601126102ce576020906012549051908152f35b5050346102ce57816003193601126102ce576020906019549051908152f35b5050346102ce57816003193601126102ce5760209081549051908152f35b8383346102ce57806003193601126102ce57602435923582526020926002845281832080548210156106f257906105f09161140f565b509167ffffffffffffffff83541692600180820192868551948593838254926106188461126c565b808852938381169081156106cc5750600114610686575b505050505063ffffffff92916106469103846112a6565b61066a600360028301549201549360a08651988998895288015260a08701906112de565b9361ffff82169086015260101c16606084015260808301520390f35b81528381209695945091905b8183106106b45750939450919250908201018661064663ffffffff8a8061062f565b86548884018501529586019587945091830191610692565b60ff19168689015250505050151560051b83010190508661064663ffffffff8a8061062f565b8380fd5b5050346102ce57816003193601126102ce576020906001600160a01b03600354169051908152f35b5050346102ce57816003193601126102ce5751478152602090f35b5050346102ce57816003193601126102ce576020906001600160a01b03600d54169051908152f35b919050346104225782600319360112610422578154916001600160a01b039182841633036107da57506003549273ffffffffffffffffffffffffffffffffffffffff199033828616176003551690553391167f8be0079c531659141344cd1fd0a4f28419497f9722a3daafe3b4186f6b6457e08380a380f35b906020606492519162461bcd60e51b8352820152601660248201527f4d7573742062652070726f706f736564206f776e6572000000000000000000006044820152fd5b5050346102ce57816003193601126102ce576020906011549051908152f35b90503461042257602091826003193601126106f25767ffffffffffffffff91803583811161093357366023820112156109335780820135938411610920578251601f1994879291610894601f830188168901826112a6565b81815236602483850101116106f2578160248994018483013701015260185442039042821161090d5750600a92919254109180519485938452818585015260609485518093860152815b8381106108f8575050838201850152601f01168101030190f35b608081015188820188015287955081016108de565b856011602492634e487b7160e01b835252fd5b602486604184634e487b7160e01b835252fd5b8580fd5b5050346102ce57816003193601126102ce576020906001600160a01b03601b54169051908152f35b5050346102ce57816003193601126102ce576102459061097d61131e565b90519182916020835260208301906112de565b5050346102ce57816003193601126102ce576020906001600160a01b03601e54169051908152f35b5050346102ce57816003193601126102ce576020905160018152f35b5050346102ce57816003193601126102ce57805190826014546109f68161126c565b808552916001918083169081156102a65750600114610a2157505050610233826102459403836112a6565b9450601485527fce6d7b5282bd9a3661ae061feed1dbda4e52ab073b1f9285be6e155d9c38d4ec5b828610610a66575050506102338260206102459582010194610221565b80546020878701810191909152909501948101610a49565b5050346102ce57816003193601126102ce57602090601f549051908152f35b5050346102ce57816003193601126102ce576020906016549051908152f35b9050346104225760a03660031901126104225767ffffffffffffffff813581811161041e57610aee90369084016113dc565b9060243593838516809503610ca5576044359363ffffffff85168503610ca157610b16611441565b8311610c8e5750610b2860055461126c565b601f8111610c2f575b508590601f8311600114610ba2576bffffffff0000000000000000939291879183610b97575b50508160011b916000199060031b1c1916176005555b600954931b16916bffffffffffffffffffffffff19161717600955606435601155608435600a5580f35b013590503880610b57565b7f036b6384b5eca791c62761152d0c79bb0604c104a5fb6f4eb0703f3154bb3db091601f198416885b818110610c1757509160019391856bffffffff000000000000000097969410610bfd575b505050811b01600555610b6d565b0135600019600384901b60f8161c19169055388080610bef565b91936020600181928787013581550195019201610bcb565b7f036b6384b5eca791c62761152d0c79bb0604c104a5fb6f4eb0703f3154bb3db0601f840160051c81019160208510610c84575b601f0160051c01905b818110610c795750610b31565b878155600101610c6c565b9091508190610c63565b866041602492634e487b7160e01b835252fd5b8780fd5b8680fd5b919050346104225760203660031901126104225767ffffffffffffffff90823582811161041e57610cdd90369085016113dc565b50506001600160a01b038060035416908133141580610efd575b610ebd575050600e5415610e7b5780516020810181811084821117610e68579085918352526018544203428111610e5557600a541015610e1357504260185560195460018101809111610e00576019556021546022541015610da457610d75906009541663ffffffff6010541660115491610d7061131e565b611499565b8060125582556016549060018201809211610d91575060165580f35b826011602492634e487b7160e01b835252fd5b610d7590740100000000000000000000000000000000000000007fffffffffffffffffffffff00ffffffffffffffffffffffffffffffffffffffff601e541617601e556009541663ffffffff6010541660115491610d7061131e565b602484601185634e487b7160e01b835252fd5b5162461bcd60e51b8152602081840152601560248201527f54696d6520696e74657276616c206e6f74206d657400000000000000000000006044820152606490fd5b602485601186634e487b7160e01b835252fd5b602486604187634e487b7160e01b835252fd5b5162461bcd60e51b8152602081840152601560248201527f55706b656570206e6f74207265676973746572656400000000000000000000006044820152606490fd5b6064949350601e54169151927f426fbc71000000000000000000000000000000000000000000000000000000008452339084015260248301526044820152fd5b5080601e5416331415610cf7565b5050346102ce57816003193601126102ce576020906017549051908152f35b5050346102ce57816003193601126102ce5780519082601354610f4c8161126c565b808552916001918083169081156102a65750600114610f7757505050610233826102459403836112a6565b9450601385527f66de8ffda797e3de9c05e8fc57b3bf0ec28a930d40b0d285d93c06501cf6a0905b828610610fbc575050506102338260206102459582010194610221565b80546020878701810191909152909501948101610f9f565b5050346102ce57816003193601126102ce57602090600b549051908152f35b5050346102ce57816003193601126102ce5780519082600f546110158161126c565b808552916001918083169081156102a6575060011461104057505050610233826102459403836112a6565b9450600f85527f8d1108e10bcb7c27dddfc02ed9d693a074039d026cf4ea4240b40f7d581ac8025b828610611085575050506102338260206102459582010194610221565b80546020878701810191909152909501948101611068565b9190503461042257602091826003193601126106f257356022548110156106f257602284527f61035b26e3e9eee00e0d72fd1ee8ddca6894550dca6916ea2ac6baa90d11e510018151938491818154906110f68261126c565b92838652600192888482169182600014611173575050600114611135575b858861024589611126848a03856112a6565b519282849384528301906112de565b87945081939291528383205b82841061115b575050508201018161112661024538611114565b8054848a018601528895508794909301928101611141565b60ff19168882015294151560051b8701909401945085935061112692506102459150389050611114565b5050346102ce57816003193601126102ce576009548151911c63ffffffff168152602090f35b5050346102ce57816003193601126102ce576020906006549051908152f35b5050346102ce57816003193601126102ce576020906001600160a01b03601a54169051908152f35b5050346102ce57816003193601126102ce5760209067ffffffffffffffff600954169051908152f35b5050346102ce57816003193601126102ce576020906018549051908152f35b8490346102ce57816003193601126102ce57602091548152f35b90600182811c9216801561129c575b602083101461128657565b634e487b7160e01b600052602260045260246000fd5b91607f169161127b565b90601f8019910116810190811067ffffffffffffffff8211176112c857604052565b634e487b7160e01b600052604160045260246000fd5b919082519283825260005b84811061130a575050826000602080949584010152601f8019910116010190565b6020818301810151848301820152016112e9565b60405190600082600554916113328361126c565b808352926001908181169081156113ba575060011461135b575b50611359925003836112a6565b565b6005600090815291507f036b6384b5eca791c62761152d0c79bb0604c104a5fb6f4eb0703f3154bb3db05b84831061139f575061135993505081016020013861134c565b81935090816020925483858a01015201910190918592611386565b90506020925061135994915060ff191682840152151560051b8201013861134c565b9181601f8401121561140a5782359167ffffffffffffffff831161140a576020838186019501011161140a57565b600080fd5b805482101561142b5760005260206000209060021b0190600090565b634e487b7160e01b600052603260045260246000fd5b6001600160a01b0360035416330361145557565b606460405162461bcd60e51b815260206004820152601660248201527f4f6e6c792063616c6c61626c65206279206f776e6572000000000000000000006044820152fd5b91909392936040519160a0830167ffffffffffffffff92848210848311176112c85783916040521683526020938484019081526040840192600180855263ffffffff60608701941684526080860198895280549660009780895582810180821161170b57835588526002815260408820805490680100000000000000008210156116f7579061152c91848201815561140f565b9790976116e4578390511667ffffffffffffffff19885416178755818701935180519384116116d05761155f855461126c565b601f811161168a575b5081601f85116001146115fc57509280600397959381937f1131472297a800fee664d1d89cfa8f7676ff07189ecc53f80bbb5f4969099db89c9d98968c946115f1575b50501b9160001990881b1c19161790555b61ffff6002860192511665ffffffff00008354925160101b169165ffffffffffff19161717905551910155805491818392a290565b0151925038806115ab565b9190601f949394198416868b52838b20938b905b828210611673575050917f1131472297a800fee664d1d89cfa8f7676ff07189ecc53f80bbb5f4969099db89b9c979593918560039a9896941061165b575b505050811b0190556115bc565b0151600019838a1b60f8161c1916905538808061164e565b808886978294978701518155019601940190611610565b858a52828a20601f860160051c8101918487106116c6575b601f0160051c019084905b8281106116bb575050611568565b8b81550184906116ad565b90915081906116a2565b602489634e487b7160e01b81526041600452fd5b602489634e487b7160e01b815280600452fd5b60248a634e487b7160e01b81526041600452fd5b60248a634e487b7160e01b81526011600452fdfea264697066735822122096f0e3302cdc684cc255edf837dc4a8215ea3a8079e6e89a7dc0c5d6bdd57d0e64736f6c63430008130033a2646970667358221220fd673419bf968957d0e0bc9beb2c285212e8b17e9050236d0edec5c89f7ad52164736f6c63430008130033",
  "linkReferences": {},
  "deployedLinkReferences": {}
}