{
  "_format": "hh-sol-artifact-1",
  "contractName": "Laboratory",
  "sourceName": "contracts/lab/Laboratory.sol",
  "abi": [
    {
      "inputs": [
        {
          "internalType": "bytes32",
          "name": "_incomingData",
          "type": "bytes32"
        }
      ],
      "stateMutability": "nonpayable",
      "type": "constructor"
    },
    {
      "inputs": [],
      "name": "counterBytes32",
      "outputs": [
        {
          "internalType": "bytes32",
          "name": "",
          "type": "bytes32"
        }
      ],
      "stateMutability": "view",
      "type": "function"
    },
    {
      "inputs": [],
      "name": "decodeCounter",
      "outputs": [],
      "stateMutability": "view",
      "type": "function"
    },
    {
      "inputs": [],
      "name": "decoded",
      "outputs": [
        {
          "internalType": "string",
          "name": "",
          "type": "string"
        }
      ],
      "stateMutability": "view",
      "type": "function"
    },
    {
      "inputs": [],
      "name": "funBits256",
      "outputs": [
        {
          "internalType": "uint256",
          "name": "",
          "type": "uint256"
        }
      ],
      "stateMutability": "view",
      "type": "function"
    },
    {
      "inputs": [],
      "name": "funBytes32",
      "outputs": [
        {
          "internalType": "bytes32",
          "name": "",
          "type": "bytes32"
        }
      ],
      "stateMutability": "view",
      "type": "function"
    },
    {
      "inputs": [],
      "name": "increaseCounter",
      "outputs": [],
      "stateMutability": "nonpayable",
      "type": "function"
    }
  ],
  "bytecode": "0x608060405234610172576107a9803803809161001a8261018d565b6080396020809112610172576080519060019081600255826000556040519281840152808352610049836101b3565b8251906001600160401b03821161016d5761006e826100696003546101f1565b61022b565b80601f83116001146100e4575081906100ca946000926100d9575b505081831b916000199060031b1c1916176003555b6100a9600254600155565b6100b460005461033c565b6100c46100bf61027f565b610392565b5461033c565b6040516103a590816104048239f35b015190503880610089565b60036000529193601f1985167fc2575a0e9e593c00f959f8c92f12db2869c3395a3b0502d05e2516446f71f85b936000905b82821061015657505091849391866100ca97941061013d575b505050811b0160035561009e565b015160001960f88460031b161c1916905538808061012f565b808786978294978701518155019601940190610116565b610177565b600080fd5b634e487b7160e01b600052604160045260246000fd5b6080601f91909101601f19168101906001600160401b0382119082101761016d57604052565b604081019081106001600160401b0382111761016d57604052565b601f909101601f19168101906001600160401b0382119082101761016d57604052565b90600182811c92168015610221575b602083101461020b57565b634e487b7160e01b600052602260045260246000fd5b91607f1691610200565b601f8111610237575050565b6000906003825260208220906020601f850160051c83019410610275575b601f0160051c01915b82811061026a57505050565b81815560010161025e565b9092508290610255565b6040519060008260035491610293836101f1565b80835260019380851690811561031b57506001146102bb575b506102b9925003836101ce565b565b600360009081527fc2575a0e9e593c00f959f8c92f12db2869c3395a3b0502d05e2516446f71f85b94602093509091905b8183106103035750506102b99350820101386102ac565b855488840185015294850194879450918301916102ec565b90506102b994506020925060ff191682840152151560051b820101386102ac565b6040516327b7cf8560e01b602082015260248082019290925290815260608101906001600160401b0382118183101761016d576102b9916040525b600080916020815191016a636f6e736f6c652e6c6f675afa50565b90604051602063104c13eb60e21b8183015280602483015283519384604484015260005b8581106103ef575050506103ea606482856000836102b9979884010152601f801991011681010360448101845201826101ce565b610377565b8181018301518482016064015282016103b656fe6080604052600436101561001257600080fd5b6000803560e01c9081630f72c1e11461007a575080631ab70f0d146100755780631fd9249c1461007057806383f48b8d1461006b578063b49004e9146100665763ffb941441461006157600080fd5b610351565b610312565b6102f4565b6101eb565b610101565b346100fe57806003193601126100fe5760015460a052602060805261009f60c0604052565b808060405160208101907f41304fac0000000000000000000000000000000000000000000000000000000082526100ea816100dc6024820161015c565b03601f198101835282610124565b51906a636f6e736f6c652e6c6f675afa5080f35b80fd5b3461011f57600036600319011261011f576020600154604051908152f35b600080fd5b90601f8019910116810190811067ffffffffffffffff82111761014657604052565b634e487b7160e01b600052604160045260246000fd5b90602091828152608051808483015260005b81811061018f575060409293506000838284010152601f8019910116010190565b60a081015183820160400152840161016e565b6020808252825181830181905290939260005b8281106101d757505060409293506000838284010152601f8019910116010190565b8181018601518482016040015285016101b5565b3461011f576000806003193601126100fe5760405190806003549060019180831c928082169283156102ea575b60209283861085146102d65785885260208801949081156102b5575060011461025c575b6102588761024c81890382610124565b604051918291826101a2565b0390f35b600360005294509192917fc2575a0e9e593c00f959f8c92f12db2869c3395a3b0502d05e2516446f71f85b5b8386106102a4575050509101905061024c82610258388061023c565b805485870152948201948101610288565b60ff191685525050505090151560051b01905061024c82610258388061023c565b602482634e487b7160e01b81526022600452fd5b93607f1693610218565b3461011f57600036600319011261011f576020600254604051908152f35b3461011f576000806003193601126100fe576002546001810180911161033d57600255805460015580f35b602482634e487b7160e01b81526011600452fd5b3461011f57600036600319011261011f576020600054604051908152f3fea2646970667358221220ab0c6cd1b62e8969442ba67d103225150fd916e2161d0a3bb21cc229ac31225b64736f6c63430008130033",
  "linkReferences": {},
  "deployedLinkReferences": {}
}