{
  "_format": "hh-sol-artifact-1",
  "contractName": "Laboratory",
  "sourceName": "contracts/lab/Laboratory.sol",
  "abi": [
    {
      "inputs": [
        {
          "internalType": "bytes32",
          "name": "_incomingData",
          "type": "bytes32"
        }
      ],
      "stateMutability": "nonpayable",
      "type": "constructor"
    },
    {
      "inputs": [],
      "name": "compare",
      "outputs": [
        {
          "internalType": "bool",
          "name": "",
          "type": "bool"
        }
      ],
      "stateMutability": "view",
      "type": "function"
    },
    {
      "inputs": [],
      "name": "counterBytes32",
      "outputs": [
        {
          "internalType": "bytes32",
          "name": "",
          "type": "bytes32"
        }
      ],
      "stateMutability": "view",
      "type": "function"
    },
    {
      "inputs": [],
      "name": "decoded",
      "outputs": [
        {
          "internalType": "string",
          "name": "",
          "type": "string"
        }
      ],
      "stateMutability": "view",
      "type": "function"
    },
    {
      "inputs": [],
      "name": "funBits256",
      "outputs": [
        {
          "internalType": "uint256",
          "name": "",
          "type": "uint256"
        }
      ],
      "stateMutability": "view",
      "type": "function"
    },
    {
      "inputs": [],
      "name": "funBytes32",
      "outputs": [
        {
          "internalType": "bytes32",
          "name": "",
          "type": "bytes32"
        }
      ],
      "stateMutability": "view",
      "type": "function"
    },
    {
      "inputs": [
        {
          "internalType": "string",
          "name": "data",
          "type": "string"
        }
      ],
      "name": "insert",
      "outputs": [],
      "stateMutability": "nonpayable",
      "type": "function"
    },
    {
      "inputs": [
        {
          "internalType": "uint256",
          "name": "",
          "type": "uint256"
        }
      ],
      "name": "sampleStorage",
      "outputs": [
        {
          "internalType": "string",
          "name": "",
          "type": "string"
        }
      ],
      "stateMutability": "view",
      "type": "function"
    },
    {
      "inputs": [],
      "name": "sampleStorageSize",
      "outputs": [
        {
          "internalType": "uint256",
          "name": "",
          "type": "uint256"
        }
      ],
      "stateMutability": "view",
      "type": "function"
    }
  ],
  "bytecode": "0x608060405234620001975762000a1880380380916200001e82620001b2565b60803960208091126200019757608051906001908160025560026005558260005560405192818401528083526200005583620001d9565b8251906001600160401b03821162000191576200007f826200007960035462000219565b62000256565b80601f83116001146200010257508190620000e694600092620000f6575b505081831b916000199060031b1c1916176003555b620000be600254600155565b620000cb60005462000378565b620000df620000d9620002af565b620003d0565b5462000378565b6040516105d09081620004488239f35b0151905038806200009d565b60036000529193601f1985167fc2575a0e9e593c00f959f8c92f12db2869c3395a3b0502d05e2516446f71f85b936000905b828210620001795750509184939186620000e69794106200015f575b505050811b01600355620000b2565b015160001960f88460031b161c1916905538808062000150565b80878697829497870151815501960194019062000134565b6200019c565b600080fd5b634e487b7160e01b600052604160045260246000fd5b6080601f91909101601f19168101906001600160401b038211908210176200019157604052565b604081019081106001600160401b038211176200019157604052565b601f909101601f19168101906001600160401b038211908210176200019157604052565b90600182811c921680156200024b575b60208310146200023557565b634e487b7160e01b600052602260045260246000fd5b91607f169162000229565b601f811162000263575050565b6000906003825260208220906020601f850160051c83019410620002a4575b601f0160051c01915b8281106200029857505050565b8181556001016200028b565b909250829062000282565b6040519060008260035491620002c58362000219565b808352600193808516908115620003555750600114620002f1575b50620002ef92500383620001f5565b565b600360009081527fc2575a0e9e593c00f959f8c92f12db2869c3395a3b0502d05e2516446f71f85b94602093509091905b8183106200033c575050620002ef935082010138620002e0565b8554888401850152948501948794509183019162000322565b9050620002ef94506020925060ff191682840152151560051b82010138620002e0565b6040516327b7cf8560e01b602082015260248082019290925290815260608101906001600160401b038211818310176200019157620002ef916040525b600080916020815191016a636f6e736f6c652e6c6f675afa50565b90604051602063104c13eb60e21b8183015280602483015283519384604484015260005b85811062000432575050506200042c60648285600083620002ef979884010152601f80199101168101036044810184520182620001f5565b620003b5565b818101830151848201606401528201620003f456fe608060408181526004918236101561001657600080fd5b600092833560e01c9182631ab70f0d14610498575081631fd9249c146103b2578163277e2213146102a55781633da0ac791461027f57816383f48b8d14610260578163b1498e29146100be578163c79b2aa51461009c575063ffb941441461007d57600080fd5b34610098578160031936011261009857602091549051908152f35b5080fd5b9050346100ba57826003193601126100ba5760209250549051908152f35b8280fd5b839034610098576020806003193601126100ba5781359067ffffffffffffffff9081831161025c573660238401121561025c578284013591821161025c576024903682848601011161025857845493680100000000000000008510156102465761012e6001958681018855610537565b969096610235575061014086546104b4565b601f81116101ef575b508691601f85116001146101875750918394918493889561017a575b5050501b916000199060031b1c191617905580f35b0101359250868080610165565b92909184601f198116888a52858a20958a905b898383106101d357505050106101b7575b50505050811b01905580f35b60001960f88660031b161c1992010135169055848080806101ab565b878601870135895590970196938401938893509081019061019a565b868852828820601f860160051c81019184871061022b575b601f0160051c019086905b828110610220575050610149565b898155018690610212565b9091508190610207565b87808592634e487b7160e01b825252fd5b8287604188634e487b7160e01b835252fd5b8580fd5b8480fd5b5050346100985781600319360112610098576020906002549051908152f35b50503461009857816003193601126100985760209061029c610584565b90519015158152f35b83833461009857602090816003193601126100ba57833584548110156103ae576102ce90610537565b61039c57815192849180546102e2816104b4565b8087529160019180831690811561037e5750600114610346575b50505050829003601f01601f191682019267ffffffffffffffff841183851017610333575082918261032f9252826104ee565b0390f35b80604186634e487b7160e01b6024945252fd5b8752828720929350869284905b83851061036a5750505050830101858080806102fc565b805488860183015293019284908201610353565b60ff191688860152505050151560051b8401019050858080806102fc565b6024848087634e487b7160e01b825252fd5b8380fd5b838334610098578160031936011261009857805190826003546103d4816104b4565b8085529060019081811690811561047a575060011461041f575b5050829003601f01601f191682019267ffffffffffffffff841183851017610333575082918261032f9252826104ee565b6003865290915084907fc2575a0e9e593c00f959f8c92f12db2869c3395a3b0502d05e2516446f71f85b5b8383106104615750506020915083010185806103ee565b81816020929493945483858a010152019101919061044a565b9150506020925060ff191682850152151560051b83010185806103ee565b8490346100985781600319360112610098576020906001548152f35b90600182811c921680156104e4575b60208310146104ce57565b634e487b7160e01b600052602260045260246000fd5b91607f16916104c3565b6020808252825181830181905290939260005b82811061052357505060409293506000838284010152601f8019910116010190565b818101860151848201604001528501610501565b60045481101561056e5760046000527f8a35acfbc15ff81a39ae7d344fd709f28e8600b4aa8c65c6b64bfe7fe36bd19b0190600090565b634e487b7160e01b600052603260045260246000fd5b600554600454101561059557600190565b60009056fea2646970667358221220bee8ad29ed5fc74e57554196c54a4c85b32a8fd9b361a271c1ccde220657fee464736f6c63430008130033",
  "linkReferences": {},
  "deployedLinkReferences": {}
}