{
  "_format": "hh-sol-artifact-1",
  "contractName": "Laboratory",
  "sourceName": "contracts/lab/Laboratory.sol",
  "abi": [
    {
      "inputs": [
        {
          "internalType": "bytes32",
          "name": "_incomingData",
          "type": "bytes32"
        }
      ],
      "stateMutability": "nonpayable",
      "type": "constructor"
    },
    {
      "inputs": [],
      "name": "counterBytes32",
      "outputs": [
        {
          "internalType": "bytes32",
          "name": "",
          "type": "bytes32"
        }
      ],
      "stateMutability": "view",
      "type": "function"
    },
    {
      "inputs": [],
      "name": "decoded",
      "outputs": [
        {
          "internalType": "string",
          "name": "",
          "type": "string"
        }
      ],
      "stateMutability": "view",
      "type": "function"
    },
    {
      "inputs": [],
      "name": "funBits256",
      "outputs": [
        {
          "internalType": "uint256",
          "name": "",
          "type": "uint256"
        }
      ],
      "stateMutability": "view",
      "type": "function"
    },
    {
      "inputs": [],
      "name": "funBytes32",
      "outputs": [
        {
          "internalType": "bytes32",
          "name": "",
          "type": "bytes32"
        }
      ],
      "stateMutability": "view",
      "type": "function"
    },
    {
      "inputs": [
        {
          "internalType": "string",
          "name": "data",
          "type": "string"
        }
      ],
      "name": "insert",
      "outputs": [],
      "stateMutability": "nonpayable",
      "type": "function"
    },
    {
      "inputs": [
        {
          "internalType": "uint256",
          "name": "",
          "type": "uint256"
        }
      ],
      "name": "sampleStorage",
      "outputs": [
        {
          "internalType": "string",
          "name": "",
          "type": "string"
        }
      ],
      "stateMutability": "view",
      "type": "function"
    },
    {
      "inputs": [],
      "name": "sampleStorageSize",
      "outputs": [
        {
          "internalType": "uint256",
          "name": "",
          "type": "uint256"
        }
      ],
      "stateMutability": "view",
      "type": "function"
    }
  ],
  "bytecode": "0x6080604052346200019257620009cc80380380916200001e82620001ad565b6080396020809112620001925760805190600190816002558260005560405192818401528083526200005083620001d4565b8251906001600160401b0382116200018c576200007a826200007460035462000214565b62000251565b80601f8311600114620000fd57508190620000e194600092620000f1575b505081831b916000199060031b1c1916176003555b620000b9600254600155565b620000c660005462000373565b620000da620000d4620002aa565b620003cb565b5462000373565b6040516105899081620004438239f35b01519050388062000098565b60036000529193601f1985167fc2575a0e9e593c00f959f8c92f12db2869c3395a3b0502d05e2516446f71f85b936000905b828210620001745750509184939186620000e19794106200015a575b505050811b01600355620000ad565b015160001960f88460031b161c191690553880806200014b565b8087869782949787015181550196019401906200012f565b62000197565b600080fd5b634e487b7160e01b600052604160045260246000fd5b6080601f91909101601f19168101906001600160401b038211908210176200018c57604052565b604081019081106001600160401b038211176200018c57604052565b601f909101601f19168101906001600160401b038211908210176200018c57604052565b90600182811c9216801562000246575b60208310146200023057565b634e487b7160e01b600052602260045260246000fd5b91607f169162000224565b601f81116200025e575050565b6000906003825260208220906020601f850160051c830194106200029f575b601f0160051c01915b8281106200029357505050565b81815560010162000286565b90925082906200027d565b6040519060008260035491620002c08362000214565b808352600193808516908115620003505750600114620002ec575b50620002ea92500383620001f0565b565b600360009081527fc2575a0e9e593c00f959f8c92f12db2869c3395a3b0502d05e2516446f71f85b94602093509091905b81831062000337575050620002ea935082010138620002db565b855488840185015294850194879450918301916200031d565b9050620002ea94506020925060ff191682840152151560051b82010138620002db565b6040516327b7cf8560e01b602082015260248082019290925290815260608101906001600160401b038211818310176200018c57620002ea916040525b600080916020815191016a636f6e736f6c652e6c6f675afa50565b90604051602063104c13eb60e21b8183015280602483015283519384604484015260005b8581106200042d575050506200042760648285600083620002ea979884010152601f80199101168101036044810184520182620001f0565b620003b0565b818101830151848201606401528201620003ef56fe608060408181526004918236101561001657600080fd5b600092833560e01c9182631ab70f0d14610467575081631fd9249c14610381578163277e22131461027457816383f48b8d14610255578163b1498e29146100b3578163c79b2aa514610091575063ffb941441461007257600080fd5b3461008d578160031936011261008d57602091549051908152f35b5080fd5b9050346100af57826003193601126100af5760209250549051908152f35b8280fd5b83903461008d576020806003193601126100af5781359067ffffffffffffffff9081831161025157366023840112156102515782840135918211610251576024903682848601011161024d578454936801000000000000000085101561023b576101236001958681018855610506565b96909661022a57506101358654610483565b601f81116101e4575b508691601f851160011461017c5750918394918493889561016f575b5050501b916000199060031b1c191617905580f35b010135925086808061015a565b92909184601f198116888a52858a20958a905b898383106101c857505050106101ac575b50505050811b01905580f35b60001960f88660031b161c1992010135169055848080806101a0565b878601870135895590970196938401938893509081019061018f565b868852828820601f860160051c810191848710610220575b601f0160051c019086905b82811061021557505061013e565b898155018690610207565b90915081906101fc565b87808592634e487b7160e01b825252fd5b8287604188634e487b7160e01b835252fd5b8580fd5b8480fd5b50503461008d578160031936011261008d576020906002549051908152f35b83833461008d57602090816003193601126100af578335845481101561037d5761029d90610506565b61036b57815192849180546102b181610483565b8087529160019180831690811561034d5750600114610315575b50505050829003601f01601f191682019267ffffffffffffffff84118385101761030257508291826102fe9252826104bd565b0390f35b80604186634e487b7160e01b6024945252fd5b8752828720929350869284905b8385106103395750505050830101858080806102cb565b805488860183015293019284908201610322565b60ff191688860152505050151560051b8401019050858080806102cb565b6024848087634e487b7160e01b825252fd5b8380fd5b83833461008d578160031936011261008d57805190826003546103a381610483565b8085529060019081811690811561044957506001146103ee575b5050829003601f01601f191682019267ffffffffffffffff84118385101761030257508291826102fe9252826104bd565b6003865290915084907fc2575a0e9e593c00f959f8c92f12db2869c3395a3b0502d05e2516446f71f85b5b8383106104305750506020915083010185806103bd565b81816020929493945483858a0101520191019190610419565b9150506020925060ff191682850152151560051b83010185806103bd565b84903461008d578160031936011261008d576020906001548152f35b90600182811c921680156104b3575b602083101461049d57565b634e487b7160e01b600052602260045260246000fd5b91607f1691610492565b6020808252825181830181905290939260005b8281106104f257505060409293506000838284010152601f8019910116010190565b8181018601518482016040015285016104d0565b60045481101561053d5760046000527f8a35acfbc15ff81a39ae7d344fd709f28e8600b4aa8c65c6b64bfe7fe36bd19b0190600090565b634e487b7160e01b600052603260045260246000fdfea26469706673582212205d0f3698abf989df423725ffe9f85d0d9e4b32a82c443e6769e15fd5cb3660ef64736f6c63430008130033",
  "linkReferences": {},
  "deployedLinkReferences": {}
}