{
  "_format": "hh-sol-artifact-1",
  "contractName": "Upkeep",
  "sourceName": "contracts/Upkeep.sol",
  "abi": [
    {
      "inputs": [
        {
          "internalType": "address",
          "name": "link",
          "type": "address"
        },
        {
          "internalType": "address",
          "name": "registrar",
          "type": "address"
        }
      ],
      "stateMutability": "nonpayable",
      "type": "constructor"
    },
    {
      "inputs": [],
      "name": "i_link",
      "outputs": [
        {
          "internalType": "address",
          "name": "",
          "type": "address"
        }
      ],
      "stateMutability": "view",
      "type": "function"
    },
    {
      "inputs": [],
      "name": "i_registrar",
      "outputs": [
        {
          "internalType": "address",
          "name": "",
          "type": "address"
        }
      ],
      "stateMutability": "view",
      "type": "function"
    },
    {
      "inputs": [
        {
          "components": [
            {
              "internalType": "string",
              "name": "name",
              "type": "string"
            },
            {
              "internalType": "bytes",
              "name": "encryptedEmail",
              "type": "bytes"
            },
            {
              "internalType": "address",
              "name": "upkeepContract",
              "type": "address"
            },
            {
              "internalType": "uint32",
              "name": "gasLimit",
              "type": "uint32"
            },
            {
              "internalType": "address",
              "name": "adminAddress",
              "type": "address"
            },
            {
              "internalType": "bytes",
              "name": "checkData",
              "type": "bytes"
            },
            {
              "internalType": "bytes",
              "name": "offchainConfig",
              "type": "bytes"
            },
            {
              "internalType": "uint96",
              "name": "amount",
              "type": "uint96"
            }
          ],
          "internalType": "struct RegistrationParams",
          "name": "params",
          "type": "tuple"
        }
      ],
      "name": "register",
      "outputs": [
        {
          "internalType": "uint256",
          "name": "",
          "type": "uint256"
        }
      ],
      "stateMutability": "nonpayable",
      "type": "function"
    }
  ],
  "bytecode": "0x60c03461008757601f61072038819003918201601f19168301916001600160401b0383118484101761008c57808492604094855283398101031261008757610052602061004b836100a2565b92016100a2565b9060805260a05260405161066990816100b78239608051818181607101526103e2015260a05181818161022501526103aa0152f35b600080fd5b634e487b7160e01b600052604160045260246000fd5b51906001600160a01b03821682036100875756fe608060408181526004918236101561001657600080fd5b600092833560e01c918263442b1278146101f95750816376a11e76146100995750637d253aff1461004657600080fd5b346100955781600319360112610095576020905173ffffffffffffffffffffffffffffffffffffffff7f0000000000000000000000000000000000000000000000000000000000000000168152f35b5080fd5b8284346101db57600319926020368501126100955780359067ffffffffffffffff908183116101de57610100809684360301126101de578451958601868110838211176101e6578552828101358281116101e2578301366023820112156101e25761010d9036906024848201359101610281565b865260248301358281116101e25761012a908236918601016102cd565b602087015261013b604484016102eb565b85870152606483013563ffffffff811681036101e2576060870152610162608484016102eb565b608087015260a48301358281116101e257610182908236918601016102cd565b60a087015260c48301359182116101de5760e492916101a59136918401016102cd565b60c08601520135906bffffffffffffffffffffffff821682036101db5750826101d49160e0602095015261034c565b9051908152f35b80fd5b8380fd5b8480fd5b602485604184634e487b7160e01b835252fd5b84903461009557816003193601126100955760209073ffffffffffffffffffffffffffffffffffffffff7f0000000000000000000000000000000000000000000000000000000000000000168152f35b90601f8019910116810190811067ffffffffffffffff82111761026b57604052565b634e487b7160e01b600052604160045260246000fd5b92919267ffffffffffffffff821161026b57604051916102ab601f8201601f191660200184610249565b8294818452818301116102c8578281602093846000960137010152565b600080fd5b9080601f830112156102c8578160206102e893359101610281565b90565b359073ffffffffffffffffffffffffffffffffffffffff821682036102c857565b919082519283825260005b848110610338575050826000602080949584010152601f8019910116010190565b602081830181015184830182015201610317565b9060009160e081016bffffffffffffffffffffffff908482825116936040928351947f095ea7b300000000000000000000000000000000000000000000000000000000865273ffffffffffffffffffffffffffffffffffffffff92837f000000000000000000000000000000000000000000000000000000000000000016978860048901526024880152602096878160448189897f0000000000000000000000000000000000000000000000000000000000000000165af18015610629576105ea575b50936104c19360c0989387936104d38a988987519d8e9a8b998a987f08b79da4000000000000000000000000000000000000000000000000000000008a528460048b0152806104886104708c6101248a51916101006024820152019061030c565b968801516023198d8903810160448f0152979061030c565b928701511660648b015263ffffffff60608701511660848b015260808601511660a48a015260a0850151848a83030160c48b015261030c565b920151908683030160e487015261030c565b91511661010483015203925af19283156105e05785936105b1575b5082156105545733855284825284209081549168010000000000000000831015610540576001830180825583101561052c5794839495815220015590565b602486634e487b7160e01b81526032600452fd5b602486634e487b7160e01b81526041600452fd5b6064925051907f08c379a00000000000000000000000000000000000000000000000000000000082526004820152601560248201527f6175746f2d617070726f76652064697361626c656400000000000000000000006044820152fd5b9092508181813d83116105d9575b6105c98183610249565b810103126101e2575191386104ee565b503d6105bf565b81513d87823e3d90fd5b8781819a95979394969a3d8311610622575b6106068183610249565b810103126100955751801515036101db5793919692903861040f565b503d6105fc565b87513d88823e3d90fdfea2646970667358221220bcc7c01c120ed188dfab907004fa879c1ff9498c303279b3ccaa0269ed26106564736f6c63430008130033",
  "linkReferences": {},
  "deployedLinkReferences": {}
}