{
  "_format": "hh-sol-artifact-1",
  "contractName": "Upkeep",
  "sourceName": "contracts/Upkeep.sol",
  "abi": [
    {
      "inputs": [
        {
          "internalType": "address",
          "name": "link",
          "type": "address"
        },
        {
          "internalType": "address",
          "name": "registrar",
          "type": "address"
        }
      ],
      "stateMutability": "nonpayable",
      "type": "constructor"
    },
    {
      "inputs": [],
      "name": "i_link",
      "outputs": [
        {
          "internalType": "address",
          "name": "",
          "type": "address"
        }
      ],
      "stateMutability": "view",
      "type": "function"
    },
    {
      "inputs": [],
      "name": "i_registrar",
      "outputs": [
        {
          "internalType": "address",
          "name": "",
          "type": "address"
        }
      ],
      "stateMutability": "view",
      "type": "function"
    },
    {
      "inputs": [
        {
          "components": [
            {
              "internalType": "string",
              "name": "name",
              "type": "string"
            },
            {
              "internalType": "bytes",
              "name": "encryptedEmail",
              "type": "bytes"
            },
            {
              "internalType": "address",
              "name": "upkeepContract",
              "type": "address"
            },
            {
              "internalType": "uint32",
              "name": "gasLimit",
              "type": "uint32"
            },
            {
              "internalType": "address",
              "name": "adminAddress",
              "type": "address"
            },
            {
              "internalType": "uint8",
              "name": "triggerType",
              "type": "uint8"
            },
            {
              "internalType": "bytes",
              "name": "checkData",
              "type": "bytes"
            },
            {
              "internalType": "bytes",
              "name": "triggerConfig",
              "type": "bytes"
            },
            {
              "internalType": "bytes",
              "name": "offchainConfig",
              "type": "bytes"
            },
            {
              "internalType": "uint96",
              "name": "amount",
              "type": "uint96"
            }
          ],
          "internalType": "struct RegistrationParams",
          "name": "params",
          "type": "tuple"
        }
      ],
      "name": "register",
      "outputs": [
        {
          "internalType": "uint256",
          "name": "",
          "type": "uint256"
        }
      ],
      "stateMutability": "nonpayable",
      "type": "function"
    }
  ],
  "bytecode": "0x60c03461008757601f61062e38819003918201601f19168301916001600160401b0383118484101761008c57808492604094855283398101031261008757610052602061004b836100a2565b92016100a2565b9060805260a05260405161057790816100b7823960805181818160bf015261027e015260a05181818161010f01526102460152f35b600080fd5b634e487b7160e01b600052604160045260246000fd5b51906001600160a01b03821682036100875756fe608080604052600436101561001357600080fd5b600090813560e01c908163442b1278146100e3575080637d253aff146100925763bc61a4731461004257600080fd5b3461008b576003199060203683011261008b576004359167ffffffffffffffff831161008e5761014090833603011261008b576020610083836004016101e4565b604051908152f35b80fd5b5080fd5b503461008b578060031936011261008b57602060405173ffffffffffffffffffffffffffffffffffffffff7f0000000000000000000000000000000000000000000000000000000000000000168152f35b90503461008e578160031936011261008e5760209073ffffffffffffffffffffffffffffffffffffffff7f0000000000000000000000000000000000000000000000000000000000000000168152f35b90601f8019910116810190811067ffffffffffffffff82111761015557604052565b634e487b7160e01b600052604160045260246000fd5b9035601e198236030181121561019d57016020813591019167ffffffffffffffff821161019d57813603831361019d57565b600080fd5b908060209392818452848401376000828201840152601f01601f1916010190565b359073ffffffffffffffffffffffffffffffffffffffff8216820361019d57565b90600091610120810135906bffffffffffffffffffffffff82168092036104f85760408051917f095ea7b300000000000000000000000000000000000000000000000000000000835273ffffffffffffffffffffffffffffffffffffffff90817f00000000000000000000000000000000000000000000000000000000000000001680600486015285602486015260209485816044818c887f0000000000000000000000000000000000000000000000000000000000000000165af18015610537576104fc575b508351957f3f678e11000000000000000000000000000000000000000000000000000000008752856004880152886102f96102e6858061016b565b61014060248c01526101648b01916101a2565b9161031d6103098987018761016b565b6023198c8703810160448e015295916101a2565b958061032a8988016101c3565b1660648b0152606086013563ffffffff81168091036104f85760848b0152610354608087016101c3565b1660a48a015260a08501359060ff82168092036104f4576103db8a9687956103cb6103bf6103a18e9c8a9860c48a015261039160c087018761016b565b90868b84030160e48c01526101a2565b6103ae60e086018661016b565b90858a8403016101048b01526101a2565b9261010081019061016b565b91868403016101248701526101a2565b9061014483015203925af19283156104ea5785936104b7575b50821561045a573385528482528420908154916801000000000000000083101561044657600183018082558310156104325794839495815220015590565b602486634e487b7160e01b81526032600452fd5b602486634e487b7160e01b81526041600452fd5b6064925051907f08c379a00000000000000000000000000000000000000000000000000000000082526004820152601560248201527f6175746f2d617070726f76652064697361626c656400000000000000000000006044820152fd5b9092508181813d83116104e3575b6104cf8183610133565b810103126104df575191386103f4565b8480fd5b503d6104c5565b81513d87823e3d90fd5b8280fd5b8380fd5b8581813d8311610530575b6105118183610133565b8101031261052c57518015150361052857386102ab565b8780fd5b8880fd5b503d610507565b85513d8b823e3d90fdfea2646970667358221220203e0203b6245e9eea9665a381eaec57b6fe1350197ad7fa15f5a15f2c69d75f64736f6c63430008130033",
  "linkReferences": {},
  "deployedLinkReferences": {}
}