{
  "_format": "hh-sol-artifact-1",
  "contractName": "InsuranceAPI",
  "sourceName": "contracts/InsuranceAPI.sol",
  "abi": [
    {
      "inputs": [
        {
          "internalType": "address",
          "name": "_owner",
          "type": "address"
        }
      ],
      "stateMutability": "nonpayable",
      "type": "constructor"
    },
    {
      "inputs": [],
      "name": "NotOwner",
      "type": "error"
    },
    {
      "anonymous": false,
      "inputs": [
        {
          "indexed": false,
          "internalType": "address",
          "name": "institutionAddress",
          "type": "address"
        }
      ],
      "name": "InstitutionCreated",
      "type": "event"
    },
    {
      "stateMutability": "payable",
      "type": "fallback"
    },
    {
      "inputs": [
        {
          "internalType": "string",
          "name": "_institutionName",
          "type": "string"
        }
      ],
      "name": "createInstitution",
      "outputs": [],
      "stateMutability": "nonpayable",
      "type": "function"
    },
    {
      "inputs": [],
      "name": "donate",
      "outputs": [],
      "stateMutability": "payable",
      "type": "function"
    },
    {
      "inputs": [
        {
          "internalType": "address",
          "name": "",
          "type": "address"
        }
      ],
      "name": "donators",
      "outputs": [
        {
          "internalType": "uint256",
          "name": "",
          "type": "uint256"
        }
      ],
      "stateMutability": "view",
      "type": "function"
    },
    {
      "inputs": [
        {
          "internalType": "uint256",
          "name": "",
          "type": "uint256"
        }
      ],
      "name": "donatorsAddresses",
      "outputs": [
        {
          "internalType": "address",
          "name": "",
          "type": "address"
        }
      ],
      "stateMutability": "view",
      "type": "function"
    },
    {
      "inputs": [],
      "name": "getAllDonators",
      "outputs": [
        {
          "internalType": "address[]",
          "name": "",
          "type": "address[]"
        }
      ],
      "stateMutability": "view",
      "type": "function"
    },
    {
      "inputs": [],
      "name": "getAllInstitution",
      "outputs": [
        {
          "internalType": "contract Institution[]",
          "name": "",
          "type": "address[]"
        }
      ],
      "stateMutability": "view",
      "type": "function"
    },
    {
      "inputs": [],
      "name": "im_owner",
      "outputs": [
        {
          "internalType": "address",
          "name": "",
          "type": "address"
        }
      ],
      "stateMutability": "view",
      "type": "function"
    },
    {
      "inputs": [],
      "name": "withdraw",
      "outputs": [],
      "stateMutability": "nonpayable",
      "type": "function"
    },
    {
      "stateMutability": "payable",
      "type": "receive"
    }
  ],
  "bytecode": "0x60a03461007157601f615f6238819003918201601f19168301916001600160401b038311848410176100765780849260209460405283398101031261007157516001600160a01b038116810361007157608052604051615ed5908161008d823960805181818161010901526102550152f35b600080fd5b634e487b7160e01b600052604160045260246000fdfe60406080815260048036101561002a575b5050361561002257610020610645565b005b610020610645565b600091823560e01c918263029bf701146103eb57826336a786ec1461033e5782633ccfd60b146102395782634f300b30146101f657826385aae38214610131578263af6081de146100e9578263d24f8cdd146100ab57505063ed88c68e146100925780610010565b806003193601126100a8576100a5610645565b80f35b80fd5b909150346100e55760203660031901126100e557356001600160a01b0381168091036100e557828291602094526001845220549051908152f35b8280fd5b83823461012d578160031936011261012d57602090516001600160a01b037f0000000000000000000000000000000000000000000000000000000000000000168152f35b5080fd5b5082346100a857806003193601126100a8579080519182906002549182855260208095018093600284527f405787fa12a823e0f2b7631cc41b3ba8828b3321ca811111fa75cd3aa3bb5ace90845b8181106101d957505050816101959103826105a4565b83519485948186019282875251809352850193925b8281106101b957505050500390f35b83516001600160a01b0316855286955093810193928101926001016101aa565b82546001600160a01b03168452928801926001928301920161017f565b909150346100e55760203660031901126100e55735916002548310156100a857506001600160a01b0361022a6020936105f8565b92905490519260031b1c168152f35b9150346100e557826003193601126100e5576001600160a01b037f00000000000000000000000000000000000000000000000000000000000000001680330361031757838080809347905af13d15610312573d610295816105dc565b906102a2845192836105a4565b81528460203d92013e5b156102b5578280f35b90602060649251917f08c379a0000000000000000000000000000000000000000000000000000000008352820152601060248201527f5769746864726177206661696c65642e000000000000000000000000000000006044820152fd5b6102ac565b50517f30cd7471000000000000000000000000000000000000000000000000000000008152fd5b5082346100a857806003193601126100a85790338252602091808352818120908251808584549182815201908194845286842090845b8181106103ce575050508161038a9103826105a4565b83519485948186019282875251809352850193925b8281106103ae57505050500390f35b83516001600160a01b03168552869550938101939281019260010161039f565b82546001600160a01b031684529288019260019283019201610374565b83823461012d57602090816003193601126100e557833567ffffffffffffffff8082116105a057366023830112156105a0578186013561042a816105dc565b92610437855194856105a4565b818452366024838301011161059c57818792602488930183870137840101528251916157d5808401928311848410176105895791839192620006cb833933815284868201528251808683015287935b878286106105705750506060935087848284010152601f80199101160103019084f09081156105675733845283835280842080549068010000000000000000821015610554576001820180825582101561054157859650906001600160a01b03917fea999c661f6c9b8cb04b763224104e50ffebeb622f731f760a183d91fdf86998965284872001921691827fffffffffffffffffffffffff000000000000000000000000000000000000000082541617905551908152a180f35b602486603289634e487b7160e01b835252fd5b602486604189634e487b7160e01b835252fd5b513d84823e3d90fd5b8582018101516060858801015290940193859350610486565b60248760418a634e487b7160e01b835252fd5b8680fd5b8480fd5b90601f8019910116810190811067ffffffffffffffff8211176105c657604052565b634e487b7160e01b600052604160045260246000fd5b67ffffffffffffffff81116105c657601f01601f191660200190565b60025481101561062f5760026000527f405787fa12a823e0f2b7631cc41b3ba8828b3321ca811111fa75cd3aa3bb5ace0190600090565b634e487b7160e01b600052603260045260246000fd5b60003381526001602052604081208054903482018092116106b6575560025490680100000000000000008210156106a2575080600161068792016002556105f8565b81549060031b906001600160a01b0333831b921b1916179055565b80634e487b7160e01b602492526041600452fd5b602483634e487b7160e01b81526011600452fdfe60a0604052346200024857620057d5803803806200001d816200024d565b928339810190604081830312620002485780516001600160a01b038116810362000248576020828101516001600160401b039391929184821162000248570193601f91818387011215620002485785518581116200021d57601f19966200008a828601891687016200024d565b938285528683830101116200024857859060005b838110620002335750506000918401015260805280519384116200021d57600054926001938481811c9116801562000212575b82821014620001fc57838111620001b1575b5080928511600114620001475750839450908392916000946200013b575b50501b916000199060031b1c1916176000555b60405161556190816200027482396080518181816101bf0152818161041201526108d50152f35b01519250388062000101565b9294849081166000805284600020946000905b888383106200019657505050106200017c575b505050811b0160005562000114565b015160001960f88460031b161c191690553880806200016d565b8587015188559096019594850194879350908101906200015a565b60008052816000208480880160051c820192848910620001f2575b0160051c019085905b828110620001e5575050620000e3565b60008155018590620001d5565b92508192620001cc565b634e487b7160e01b600052602260045260246000fd5b90607f1690620000d1565b634e487b7160e01b600052604160045260246000fd5b8181018301518682018401528792016200009e565b600080fd5b6040519190601f01601f191682016001600160401b038111838210176200021d5760405256fe608060405260043610156200001d575b36156200001b57600080fd5b005b60003560e01c8063080a57f91462000b4057806317fab0a01462000a615780633a133e2c14620009875780633ccfd60b14620008b85780633f0f912d14620007fb57806377ad0b3414620005dc5780638a699f00146200059e5780638b7afe2e146200058057806390f6d37814620004795780639b19251a1462000436578063af6081de14620003f0578063dfb50e6414620001245763ed23f8c3036200000f57346200011f5760403660031901126200011f57620000db62000b81565b602435906001600160a01b038091166000526004602052604060002080548310156200011f576020926200010f9162000d03565b9190546040519260031b1c168152f35b600080fd5b346200011f5760203660031901126200011f5767ffffffffffffffff600435116200011f573660236004350112156200011f576004356004013567ffffffffffffffff8111620003da578060051b906040519062000186602084018362000b98565b8152602081016024923684826004350101116200011f578360043501915b84826004350101831062000303575050506001600160a01b037f0000000000000000000000000000000000000000000000000000000000000000163303620002d95760005b81518110156200001b5762000240602062000205838562000d1c565b5101516200023060206200021a858762000d1c565b5151816040519382858094519384920162000c25565b8101600281520301902062000d31565b6200024c818362000d1c565b51516001805468010000000000000000811015620002c4578162000274928201905562000cb5565b919091620002af57620002879162000d31565b60001981146200029a57600101620001e9565b82634e487b7160e01b60005260116004526000fd5b84634e487b7160e01b60005260006004526000fd5b85634e487b7160e01b60005260416004526000fd5b60046040517f30cd7471000000000000000000000000000000000000000000000000000000008152fd5b823567ffffffffffffffff81116200011f5736604382600435010112156200011f57604051906040820182811067ffffffffffffffff821117620003c557604052600435810160640190823683116200011f5790889493929185826004350101905b838210620003835750505090825250602093840193019050620001a4565b9091929394955067ffffffffffffffff8235116200011f5760208091620003b4368d86358860043501010162000bd8565b815201910189959493929162000365565b87634e487b7160e01b60005260416004526000fd5b634e487b7160e01b600052604160045260246000fd5b346200011f5760003660031901126200011f5760206040516001600160a01b037f0000000000000000000000000000000000000000000000000000000000000000168152f35b346200011f5760203660031901126200011f576001600160a01b036200045b62000b81565b166000526003602052602060ff604060002054166040519015158152f35b346200011f576020806003193601126200011f576004359060019182548110156200011f57620004a99062000cb5565b9190916200056a5760405191600093815491620004c68362000c4a565b8086529282811690811562000545575060011462000503575b620004ff85620004f28189038262000b98565b6040519182918262000c87565b0390f35b6000908152838120939550925b828410620005315750505081620004ff93620004f2928201019385620004df565b805485850187015292850192810162000510565b60ff191686860152505050151560051b8201019150620004f281620004ff85620004df565b634e487b7160e01b600052600060045260246000fd5b346200011f5760003660031901126200011f57602047604051908152f35b346200011f5760203660031901126200011f576001600160a01b03620005c362000b81565b166000908152600360205260409020805460ff19169055005b346200011f57610180806003193601126200011f57620005fb62000b81565b602435916001600160a01b03918284168094036200011f576084359160c435918483168093036200011f5760e43567ffffffffffffffff908181168091036200011f57610104358781168091036200011f57610124358881168091036200011f5761014435918983168093036200011f57610164359363ffffffff85168095036200011f578b600052600360205260ff60406000205416156200079157604051986146da808b019788118b891017620003da578a988d9162000e528b391687528c6020880152604435604088015260643560608801528a608088015260a43560a088015260c087015260e0860152610100850152610120840152610140830152610160820152030191f09182156200078557600052600460205260406000209081549268010000000000000000841015620003da5781620007668560209560017fa155a575082ecf596e5a22a44834be92670605d1d0832000305888ba02a462d99801815562000d03565b939092169282549060031b9184831b921b1916179055604051908152a1005b6040513d6000823e3d90fd5b608460405162461bcd60e51b815260206004820152602160248201527f456e64657265636f206e616f2065737461206e61206c69737461206272616e6360448201527f61000000000000000000000000000000000000000000000000000000000000006064820152fd5b346200011f576020806003193601126200011f576001600160a01b0390816200082362000b81565b1660005260048152604060002060405191828183549182815201908193600052826000209060005b818110620008a157505050836200086491038462000b98565b60405192818401908285525180915260408401929160005b8281106200088a5785850386f35b83518716855293810193928101926001016200087c565b82548816845292840192600192830192016200084b565b346200011f5760003660031901126200011f576001600160a01b037f000000000000000000000000000000000000000000000000000000000000000016803303620002d95760008080809347905af13d1562000981573d6200091a8162000bbb565b906200092a604051928362000b98565b8152600060203d92013e5b156200093d57005b606460405162461bcd60e51b815260206004820152601060248201527f5769746864726177206661696c65642e000000000000000000000000000000006044820152fd5b62000935565b346200011f5760003660031901126200011f5760405160008054620009ac8162000c4a565b8084529060019081811690811562000a385750600114620009db575b620004ff84620004f28186038262000b98565b600080805292507f290decd9548b62a8d60345a988386fc84ba6bc95484008f6362f93160ef3e5635b82841062000a1f575050508101602001620004f282620009c8565b8054602085870181019190915290930192810162000a04565b60ff191660208087019190915292151560051b85019092019250620004f29150839050620009c8565b346200011f576020806003193601126200011f5760043567ffffffffffffffff81116200011f578162000a9d62000ab192369060040162000bd8565b816040519382858094519384920162000c25565b810160028152030190209060405190600092805462000ad08162000c4a565b8085529160019180831690811562000545575060011462000afe57620004ff85620004f28189038262000b98565b6000908152838120939550925b82841062000b2c5750505081620004ff93620004f2928201019385620004df565b805485850187015292850192810162000b0b565b346200011f5760203660031901126200011f576001600160a01b0362000b6562000b81565b166000908152600360205260409020805460ff19166001179055005b600435906001600160a01b03821682036200011f57565b90601f8019910116810190811067ffffffffffffffff821117620003da57604052565b67ffffffffffffffff8111620003da57601f01601f191660200190565b81601f820112156200011f5780359062000bf28262000bbb565b9262000c02604051948562000b98565b828452602083830101116200011f57816000926020809301838601378301015290565b60005b83811062000c395750506000910152565b818101518382015260200162000c28565b90600182811c9216801562000c7c575b602083101462000c6657565b634e487b7160e01b600052602260045260246000fd5b91607f169162000c5a565b6040916020825262000ca9815180928160208601526020868601910162000c25565b601f01601f1916010190565b60015481101562000ced5760016000527fb10e2d527612073b26eecdfd717e6a320cf44b4afac2b0732d9fcbe2b7fa0cf60190600090565b634e487b7160e01b600052603260045260246000fd5b805482101562000ced5760005260206000200190600090565b805182101562000ced5760209160051b010190565b919091825167ffffffffffffffff8111620003da5762000d52825462000c4a565b601f811162000e04575b50602080601f831160011462000d9c57508192939460009262000d90575b50508160011b916000199060031b1c1916179055565b01519050388062000d7a565b90601f198316958460005282600020926000905b88821062000deb5750508360019596971062000dd1575b505050811b019055565b015160001960f88460031b161c1916905538808062000dc7565b8060018596829496860151815501950193019062000db0565b600083815260208120601f840160051c8101926020851062000e46575b601f0160051c01915b82811062000e3a57505062000d5c565b81815560010162000e2a565b909250829062000e2156fe6001600160401b0360c0601f620046da38819003918201601f191683019184831184841017620001fb5780849261018094604052833981010312620001f657620000498162000211565b90620000586020820162000211565b9260408201519060608301519460808401519160a0850151916200007f60c0870162000211565b60e0870151928316809303620001f6576200009e610100880162000211565b93620000ae610120890162000211565b95610160620000c16101408b0162000211565b9901519263ffffffff84168403620001f6576001600160a01b03908116608052998a169a8b15620001b1578a986bffffffff00000000000000009560018060a01b03199d8e81816000541617600055600254161760025560195490610100600160a81b039060081b1690610100600160a81b03191617601955601c55601d55601b5560085585600754941660a05260401b169160018060601b0319161717600755168360095416176009551690600a541617600a55426010556040516144b390816200022782396080518181816104ab015281816124230152612629015260a051818181611420015261381e0152f35b60405162461bcd60e51b815260206004820152601860248201527f43616e6e6f7420736574206f776e657220746f207a65726f00000000000000006044820152606490fd5b600080fd5b634e487b7160e01b600052604160045260246000fd5b51906001600160a01b0382168203620001f65756fe608060405260043610156200001d575b36156200001b57600080fd5b005b60003560e01c8063089ea02e146200031057806309c1ba2e146200030a5780630ca7617514620003045780631243bcc314620002fe5780631aa46f5914620002f857806324b93e3e14620002f2578063277e221314620002ec5780632fc2a7b914620002e6578063338cdca114620002e0578063381fc4b514620002da5780633944ea3a14620002d45780633f678e1114620002ce57806343cd3d8614620002c85780634585e33b14620002c2578063472cbbb014620002bc57806348802b9214620002b657806348bd6f0514620002b05780634b0795a814620002aa5780635e0611f114620002a4578063688ecfd1146200029e5780636baa48fe14620002985780636e04ff0d14620002925780636e74336b146200028c57806379ba509714620002865780637b10399914620002805780638b7afe2e146200027a5780638d7e6d2d14620002745780638da5cb5b146200026e578063a30971391462000268578063a3d3c0d21462000262578063b1e21749146200025c578063bef3a2f01462000256578063c5e146881462000250578063d2aa789f146200024a578063d5f394881462000244578063d811fcf0146200023e578063ebf14a551462000238578063f2fde38b1462000232578063f5c1279b146200022c578063f68016b71462000226578063fd2c80ae14620002205763fffeb84e036200000f5762001ae8565b62001ac8565b62001aa2565b62001a82565b620019a9565b6200195d565b62001931565b62001908565b620018e8565b6200183a565b62001785565b62001765565b62001745565b62001725565b620016fc565b62001486565b62001444565b620013fe565b6200131a565b620012fa565b62001278565b6200124f565b6200119a565b62001171565b620010bc565b6200109c565b6200107c565b62000eb1565b62000dc1565b62000d70565b62000c40565b62000b8b565b62000b6b565b62000a78565b62000a4f565b620009df565b62000718565b620006f8565b620006cf565b6200044c565b62000347565b62000327565b60009103126200032257565b600080fd5b346200032257600036600319011262000322576020601054604051908152f35b34620003225760003660031901126200032257602067ffffffffffffffff60075416604051908152f35b634e487b7160e01b600052604160045260246000fd5b67ffffffffffffffff81116200039c57604052565b62000371565b6040810190811067ffffffffffffffff8211176200039c57604052565b90601f8019910116810190811067ffffffffffffffff8211176200039c57604052565b67ffffffffffffffff81116200039c57601f01601f191660200190565b81601f8201121562000322578035906200041982620003e2565b92620004296040519485620003bf565b828452602083830101116200032257816000926020809301838601378301015290565b3462000322576060366003190112620003225760043567ffffffffffffffff602435818111620003225762000486903690600401620003ff565b6044358281116200032257620004a1903690600401620003ff565b6001600160a01b037f0000000000000000000000000000000000000000000000000000000000000000163303620006a55781519283116200039c578391620004f684620004f0600554620007ab565b62001e11565b60209384601f8211600114620005f55750807f7bab0ec163b5c132c72b8146ac4d6e067e82ed58f8b131150aa71c92589115629495600091620005e9575b508160011b916000199060031b1c1916176005555b6200055482620039c8565b6200056a6200056560125462002063565b601255565b60ff6200057960195460ff1690565b16620005c5576200058a8162003ae3565b6200059b6040519283928362003bf2565b0390a27f85e1543bf2f84fe80c6badbce3648c8539ad1df4d2b3d822938ca0538be727e6600080a2005b620005d9620005d48262003abf565b602055565b620005e362003c67565b6200058a565b90508201513862000534565b600560005294601f1982167f036b6384b5eca791c62761152d0c79bb0604c104a5fb6f4eb0703f3154bb3db0966000905b828210620006885750509582916001937f7bab0ec163b5c132c72b8146ac4d6e067e82ed58f8b131150aa71c92589115629798106200066e575b5050811b0160055562000549565b84015160001960f88460031b161c19169055388062000660565b858401518955600190980197899750928301929081019062000626565b60046040517fc6829f83000000000000000000000000000000000000000000000000000000008152fd5b3462000322576000366003190112620003225760206001600160a01b0360095416604051908152f35b346200032257600036600319011262000322576020600454604051908152f35b34620003225760003660031901126200032257602060075463ffffffff6040519160401c168152f35b634e487b7160e01b600052603260045260246000fd5b601e548110156200078f57601e6000527f50bb669a95c7b50b7e8a6f09454034b2b14cf2b85c730dca9a539ca82cb6e3500190600090565b62000741565b634e487b7160e01b600052600060045260246000fd5b90600182811c92168015620007dd575b6020831014620007c757565b634e487b7160e01b600052602260045260246000fd5b91607f1691620007bb565b60405190600082601f5491620007fe83620007ab565b808352926001908181169081156200088e57506001146200082b575b506200082992500383620003bf565b565b601f600090815291507fa03837a25210ee280c2113ff4b77ca23440b19d4866cca721c801278fd08d8075b848310620008725750620008299350508101602001386200081a565b81935090816020925483858a0101520191019091859262000856565b9050602092506200082994915060ff191682840152151560051b820101386200081a565b9060405191826000825492620008c884620007ab565b9081845260019485811690816000146200093d5750600114620008f6575b50506200082992500383620003bf565b9093915060005260209081600020936000915b818310620009245750506200082993508201013880620008e6565b8554888401850152948501948794509183019162000909565b9150506200082994506020925060ff191682840152151560051b8201013880620008e6565b60005b8281106200097557506000910152565b60808101518282015260200162000965565b919082519283825260005b848110620009b4575050826000602080949584010152601f8019910116010190565b60208183018101518483018201520162000992565b906020620009dc92818152019062000987565b90565b34620003225760203660031901126200032257600435601e54811015620003225762000a3662000a4b91601e6000527f50bb669a95c7b50b7e8a6f09454034b2b14cf2b85c730dca9a539ca82cb6e35001620008b2565b60405191829160208352602083019062000987565b0390f35b3462000322576000366003190112620003225760206001600160a01b03600b5416604051908152f35b34620003225760008060031936011262000b68576040519080600d5462000a9f81620007ab565b8085529160019180831690811562000b3b575060011462000adb575b62000a4b8562000ace81870382620003bf565b60405191829182620009c9565b9250600d83527fd7b6990105719101dabeb77144f2a3385c8033acd3af97e9423a695e81ad1eb55b82841062000b2257505050810160200162000ace8262000a4b62000abb565b8054602085870181019190915290930192810162000b03565b86955062000a4b9693506020925062000ace94915060ff191682840152151560051b820101929362000abb565b80fd5b346200032257600036600319011262000322576020601254604051908152f35b34620003225760008060031936011262000b6857604051908060145462000bb281620007ab565b8085529160019180831690811562000b3b575060011462000be05762000a4b8562000ace81870382620003bf565b9250601483527fce6d7b5282bd9a3661ae061feed1dbda4e52ab073b1f9285be6e155d9c38d4ec5b82841062000c2757505050810160200162000ace8262000a4b62000abb565b8054602085870181019190915290930192810162000c08565b34620003225760031960203682011262000322576004359067ffffffffffffffff821162000322576101409082360301126200032257602062000ce560009262000cab62000c9f6001600160a01b03600b54166001600160a01b031690565b6001600160a01b031690565b906040519485809481937fbc61a4730000000000000000000000000000000000000000000000000000000083526004016004830162001c91565b03925af1801562000d6a5762000d049160009162000d35575b50600c55565b600c546040519081527f7623383a750b4166574a1b2dff61440ed0dfa3708cbe620c58339cca510d1af990602090a1005b62000d5b915060203d811162000d62575b62000d528183620003bf565b81019062001c1c565b3862000cfe565b503d62000d46565b62001c10565b346200032257600036600319011262000322576020601854604051908152f35b9181601f84011215620003225782359167ffffffffffffffff83116200032257602083818601950101116200032257565b3462000322576020366003190112620003225760043567ffffffffffffffff8111620003225762000df790369060040162000d90565b50506000546001600160a01b0316338114158062000e6a575b62000e1f576200001b62002360565b601a546040517f426fbc710000000000000000000000000000000000000000000000000000000081523360048201526001600160a01b03928316602482015291166044820152606490fd5b5062000e8262000c9f601a546001600160a01b031690565b33141562000e10565b6044359063ffffffff821682036200032257565b359063ffffffff821682036200032257565b34620003225760a0366003190112620003225767ffffffffffffffff600435818111620003225762000ee890369060040162000d90565b60243592918383168403620003225762000f0162000e8b565b9262000f0c62001b9d565b82116200039c5762000f2b8262000f25600354620007ab565b62001e77565b600090601f831160011462000fd257918062000fae959262000f839460009262000fc6575b50508160011b916000199060031b1c19161760035567ffffffffffffffff1667ffffffffffffffff196007541617600755565b6bffffffff00000000000000006007549160401b16906bffffffff0000000000000000191617600755565b62000fba606435600f55565b6200001b608435600855565b01359050388062000f50565b60036000527fc2575a0e9e593c00f959f8c92f12db2869c3395a3b0502d05e2516446f71f85b91601f198416815b81811062001063575092600192859262000f839662000fae99961062001048575b505050811b0160035567ffffffffffffffff1667ffffffffffffffff196007541617600755565b0135600019600384901b60f8161c1916905538808062001021565b9193602060018192878701358155019501920162001000565b346200032257600036600319011262000322576020601754604051908152f35b346200032257600036600319011262000322576020601b54604051908152f35b34620003225760008060031936011262000b68576040519080601554620010e381620007ab565b8085529160019180831690811562000b3b5750600114620011115762000a4b8562000ace81870382620003bf565b9250601583527f55f448fdea98c4d29eb340757ef0a66cd03dbb9538908a6a81d96026b71ec4755b8284106200115857505050810160200162000ace8262000a4b62000abb565b8054602085870181019190915290930192810162001139565b3462000322576000366003190112620003225760206001600160a01b03601a5416604051908152f35b34620003225760008060031936011262000b68576040519080600354620011c181620007ab565b8085529160019180831690811562000b3b5750600114620011ef5762000a4b8562000ace81870382620003bf565b9250600383527fc2575a0e9e593c00f959f8c92f12db2869c3395a3b0502d05e2516446f71f85b5b8284106200123657505050810160200162000ace8262000a4b62000abb565b8054602085870181019190915290930192810162001217565b3462000322576000366003190112620003225760206001600160a01b03600a5416604051908152f35b3462000322576020366003190112620003225760043567ffffffffffffffff81116200032257620012ae903690600401620003ff565b506010544203428111620012f45760085410604051908152604060208201526060818151806040830152620012e68184840162000962565b601f01601f19168101030190f35b62001f69565b346200032257600036600319011262000322576020600f54604051908152f35b34620003225760008060031936011262000b68576001600160a01b0380600154163303620013ba5781546001600160a01b03166000805473ffffffffffffffffffffffffffffffffffffffff191633179055906200139073ffffffffffffffffffffffffffffffffffffffff1960015416600155565b3391167f8be0079c531659141344cd1fd0a4f28419497f9722a3daafe3b4186f6b6457e08380a380f35b606460405162461bcd60e51b815260206004820152601660248201527f4d7573742062652070726f706f736564206f776e6572000000000000000000006044820152fd5b3462000322576000366003190112620003225760206040516001600160a01b037f0000000000000000000000000000000000000000000000000000000000000000168152f35b34620003225760003660031901126200032257602047604051908152f35b6bffffffffffffffffffffffff8116036200032257565b3590620008298262001462565b34620003225760203660031901126200032257600435620014a78162001462565b6009546001600160a01b031690620014c7600a546001600160a01b031690565b916040519261073a8085019185831067ffffffffffffffff8411176200039c5785936200152593869362003d4487396001600160a01b039182168152911660208201526bffffffffffffffffffffffff909116604082015260600190565b0360009283f0801562000d6a57620015da91620015676020926001600160a01b031673ffffffffffffffffffffffffffffffffffffffff19600b541617600b55565b6200158262000c9f62000c9f6009546001600160a01b031690565b6200159962000c9f600b546001600160a01b031690565b8560405180968195829463095ea7b360e01b8452600484019092916bffffffffffffffffffffffff6020916001600160a01b03604085019616845216910152565b03925af1801562000d6a57620016c7575b50806200160462000c9f600b546001600160a01b031690565b803b15620016c45781906004604051809481937fb60d42880000000000000000000000000000000000000000000000000000000083525af1801562000d6a57620016a6575b507f3583c1105fd29a46b4d92ceeaff8be03cba58a11cce44a3b7da77bbc3798edc4620016a06200168662000c9f600b546001600160a01b031690565b6040516001600160a01b0390911681529081906020820190565b0390a180f35b80620016b6620016bd9262000387565b8062000316565b3862001649565b50fd5b620016ec9060203d8111620016f4575b620016e38183620003bf565b81019062001bf6565b5038620015eb565b503d620016d7565b3462000322576000366003190112620003225760206001600160a01b0360005416604051908152f35b346200032257600036600319011262000322576020601c54604051908152f35b346200032257600036600319011262000322576020601154604051908152f35b346200032257600036600319011262000322576020601354604051908152f35b34620003225760008060031936011262000b68576040519080600554620017ac81620007ab565b8085529160019180831690811562000b3b5750600114620017da5762000a4b8562000ace81870382620003bf565b9250600583527f036b6384b5eca791c62761152d0c79bb0604c104a5fb6f4eb0703f3154bb3db05b8284106200182157505050810160200162000ace8262000a4b62000abb565b8054602085870181019190915290930192810162001802565b3462000322576020366003190112620003225760006020620018bb600435620018638162001462565b6200186d62001b9d565b6001600160a01b03600954169060405194858094819363095ea7b360e01b835233600484019092916bffffffffffffffffffffffff6020916001600160a01b03604085019616845216910152565b03925af1801562000d6a57620018cd57005b6200001b9060203d8111620016f457620016e38183620003bf565b346200032257600036600319011262000322576020600c54604051908152f35b3462000322576000366003190112620003225760206001600160a01b0360025416604051908152f35b3462000322576000366003190112620003225760206001600160a01b0360195460081c16604051908152f35b346200032257600036600319011262000322576020601d54604051908152f35b600435906001600160a01b03821682036200032257565b35906001600160a01b03821682036200032257565b346200032257602036600319011262000322576001600160a01b03620019ce6200197d565b620019d862001b9d565b1633811462001a3e578073ffffffffffffffffffffffffffffffffffffffff19600154161760015562001a1762000c9f6000546001600160a01b031690565b7fed8889f560326eb138920d842192f0eb3dd22b4f139c87a2c57538e05bae1278600080a3005b606460405162461bcd60e51b815260206004820152601760248201527f43616e6e6f74207472616e7366657220746f2073656c660000000000000000006044820152fd5b346200032257600036600319011262000322576020601654604051908152f35b34620003225760003660031901126200032257602063ffffffff600e5416604051908152f35b346200032257600036600319011262000322576020600854604051908152f35b34620003225760008060031936011262000b6857604051908060065462001b0f81620007ab565b8085529160019180831690811562000b3b575060011462001b3d5762000a4b8562000ace81870382620003bf565b9250600683527ff652222313e28459528d920b65115c16c04f3efc82aaedc97be59f3f377c0d3f5b82841062001b8457505050810160200162000ace8262000a4b62000abb565b8054602085870181019190915290930192810162001b65565b6001600160a01b0360005416330362001bb257565b606460405162461bcd60e51b815260206004820152601660248201527f4f6e6c792063616c6c61626c65206279206f776e6572000000000000000000006044820152fd5b908160209103126200032257518015158103620003225790565b6040513d6000823e3d90fd5b9081602091031262000322575190565b9035601e19823603018112156200032257016020813591019167ffffffffffffffff8211620003225781360383136200032257565b908060209392818452848401376000828201840152601f01601f1916010190565b359060ff821682036200032257565b620009dc906020815262001cc662001de562001cae858062001c2c565b92906101409384602087015261016086019162001c61565b62001ddd62001d9562001cf662001ce160208a018a62001c2c565b601f19898703810160408b0152959162001c61565b62001d1862001d0860408b0162001994565b6001600160a01b03166060890152565b62001d3762001d2a60608b0162000e9f565b63ffffffff166080890152565b62001d5962001d4960808b0162001994565b6001600160a01b031660a0890152565b62001d7562001d6b60a08b0162001c82565b60ff1660c0890152565b62001d8460c08a018a62001c2c565b90858984030160e08a015262001c61565b62001dca62001dc062001dac60e08b018b62001c2c565b6101009491878b840301868c015262001c61565b9189018962001c2c565b9061012094888403018589015262001c61565b950162001479565b6bffffffffffffffffffffffff16910152565b81811062001e04575050565b6000815560010162001df8565b90601f821162001e1f575050565b620008299160056000527f036b6384b5eca791c62761152d0c79bb0604c104a5fb6f4eb0703f3154bb3db0906020601f840160051c8301931062001e6c575b601f0160051c019062001df8565b909150819062001e5e565b90601f821162001e85575050565b620008299160036000527fc2575a0e9e593c00f959f8c92f12db2869c3395a3b0502d05e2516446f71f85b906020601f840160051c8301931062001e6c57601f0160051c019062001df8565b90601f821162001edf575050565b620008299160066000527ff652222313e28459528d920b65115c16c04f3efc82aaedc97be59f3f377c0d3f906020601f840160051c8301931062001e6c57601f0160051c019062001df8565b9190601f811162001f3b57505050565b62000829926000526020600020906020601f840160051c8301931062001e6c57601f0160051c019062001df8565b634e487b7160e01b600052601160045260246000fd5b601f19810191908211620012f457565b6010544203428111620012f4576008541090606090565b1562001fae57565b606460405162461bcd60e51b815260206004820152601560248201527f55706b656570206e6f74207265676973746572656400000000000000000000006044820152fd5b604051906020820182811067ffffffffffffffff8211176200039c5760405260008252565b156200201f57565b606460405162461bcd60e51b815260206004820152601560248201527f54696d6520696e74657276616c206e6f74206d657400000000000000000000006044820152fd5b9060018201809211620012f457565b9060208201809211620012f457565b91908201809211620012f457565b6040519060e0820182811067ffffffffffffffff8211176200039c57604052606060c08360008152600060208201526000604082015282808201528260808201528260a08201520152565b601e549067ffffffffffffffff82116200039c5760405191602062002105818360051b0185620003bf565b81845280840190601e6000527f50bb669a95c7b50b7e8a6f09454034b2b14cf2b85c730dca9a539ca82cb6e3506000925b84841062002145575050505050565b60018381926200215585620008b2565b81520192019301929062002136565b906200219460809367ffffffffffffffff63ffffffff939897969816845260a0602085015260a084019062000987565b95600160408401521660608201520152565b60009060033d11620021b457565b905060046000803e60005160e01c90565b600060443d10620009dc57604051600319913d83016004833e815167ffffffffffffffff918282113d602484011117620022295781840194855193841162002231573d85010160208487010111620022295750620009dc92910160200190620003bf565b949350505050565b50949350505050565b3d156200226a573d906200224e82620003e2565b916200225e6040519384620003bf565b82523d6000602084013e565b606090565b9067ffffffffffffffff909493929416815260209360a0858301526000600354956200229b87620007ab565b908160a08601526001978881169081600014620023365750600114620022d7575b5050604083019590955263ffffffff16606082015260800152565b600360009081529250877fc2575a0e9e593c00f959f8c92f12db2869c3395a3b0502d05e2516446f71f85b5b838510620023205750505050820160c0018163ffffffff620022bc565b805487860160c001529382019389910162002303565b60ff191660c08781019190915292151560051b8601909201925083915063ffffffff9050620022bc565b6200236f600c54151562001fa6565b6200237962001ff2565b506200238f6200238862001f8f565b5062002017565b6200239942601055565b620023af620023aa60115462002063565b601155565b601d54601e5410156200256e57620023d2620023cd60165462002063565b601655565b60075467ffffffffffffffff166020620023f1600e5463ffffffff1690565b600f549262002415604051948593849363230e93b160e11b8552600485016200226f565b038160006001600160a01b037f0000000000000000000000000000000000000000000000000000000000000000165af16000918162002549575b50620025025750600162002462620021a6565b6308c379a014620024a9575b6200247557565b7f9c4bfa18304482256875c29fabb1a44a5ecd325f214ea17bab8f31e869faf4c8620024a462000ace6200223a565b0390a1565b620024b3620021c5565b80620024c1575b506200246e565b90507f2ba61e3733e7ac99181c22307780f651ec8fd92fe661a84dfbe711710b2dc36c620024f860009260405191829182620009c9565b0390a138620024ba565b6200250c81601355565b620025226200251d60175462002063565b601755565b7f1131472297a800fee664d1d89cfa8f7676ff07189ecc53f80bbb5f4969099db8600080a2565b6200256691925060203d811162000d625762000d528183620003bf565b90386200244f565b62002581600160ff196019541617601955565b620025bf6200258f6200208f565b620025a46200259d620007e8565b8262002bb1565b620025b9620025b2620020da565b8262002bf3565b62002974565b620025d0620023cd60165462002063565b6020620025e660075467ffffffffffffffff1690565b91620025f7600e5463ffffffff1690565b926200261b600f54604051958694859463230e93b160e11b86526004860162002164565b038160006001600160a01b037f0000000000000000000000000000000000000000000000000000000000000000165af1600091816200275b575b50620027155750600162002668620021a6565b6308c379a014620026bc575b62002684575b62000829620037e4565b7f9c4bfa18304482256875c29fabb1a44a5ecd325f214ea17bab8f31e869faf4c8620026b362000ace6200223a565b0390a16200267a565b620026c6620021c5565b80620026d4575b5062002674565b90507f2ba61e3733e7ac99181c22307780f651ec8fd92fe661a84dfbe711710b2dc36c6200270b60009260405191829182620009c9565b0390a138620026cd565b6200271f81601355565b620027306200251d60175462002063565b7f1131472297a800fee664d1d89cfa8f7676ff07189ecc53f80bbb5f4969099db8600080a26200267a565b6200277891925060203d811162000d625762000d528183620003bf565b903862002655565b604051906200278f82620003a2565b600c82527f636f64654c6f636174696f6e00000000000000000000000000000000000000006020830152565b634e487b7160e01b600052602160045260246000fd5b60031115620027dc57565b620027bb565b60405190620027f182620003a2565b600882527f6c616e67756167650000000000000000000000000000000000000000000000006020830152565b60011115620027dc57565b604051906200283782620003a2565b600682527f736f7572636500000000000000000000000000000000000000000000000000006020830152565b604051906200287282620003a2565b600482527f61726773000000000000000000000000000000000000000000000000000000006020830152565b6000198114620012f45760010190565b80518210156200078f5760209160051b010190565b60405190620028d282620003a2565b600f82527f736563726574734c6f636174696f6e00000000000000000000000000000000006020830152565b604051906200290d82620003a2565b600782527f73656372657473000000000000000000000000000000000000000000000000006020830152565b604051906200294882620003a2565b600982527f62797465734172677300000000000000000000000000000000000000000000006020830152565b6200297e62002c47565b90620029946200298d62002780565b836200343c565b620029b78151620029a581620027d1565b620029b081620027d1565b8362002cf7565b620029c56200298d620027e2565b620029e46040820151620029d9816200281d565b620029b0816200281d565b620029f26200298d62002828565b62002a026060820151836200343c565b60a0810180515162002b48575b50608081019081515162002a9a575b60c091500180515162002a32575b50515190565b9162002a416200298d62002939565b62002a4c82620034d4565b60005b8351805182101562002a84579062002a7862002a708262002a7e94620028ae565b51856200336d565b6200289e565b62002a4f565b5050915062002a93816200356c565b3862002a2c565b60208101805162002aab81620027d1565b62002ab681620027d1565b1562002b1e5760c09262002afb62002b189262002add62002ad6620028c3565b886200343c565b5162002ae981620027d1565b62002af481620027d1565b8662002cf7565b62002b1062002b09620028fe565b866200343c565b51846200336d565b62002a1e565b60046040517fa80d31f7000000000000000000000000000000000000000000000000000000008152fd5b9262002b5e62002b5762002863565b846200343c565b62002b6983620034d4565b60005b8451805182101562002b9b579062002a7862002b8d8262002b9594620028ae565b51866200343c565b62002b6c565b5050925062002baa826200356c565b3862002a0f565b81511562002bc9576000808252604082015260600152565b60046040517f22ce3edd000000000000000000000000000000000000000000000000000000008152fd5b81511562002c015760a00152565b60046040517ffe936cb7000000000000000000000000000000000000000000000000000000008152fd5b6040519062002c3a82620003a2565b6000602083606081520152565b60405162002c5581620003a2565b62002c5f62002c2b565b808252602082016000815262002c7462002c2b565b50610100602083015260405180925260008252610120820191821062000322576000916040525290565b9062002ca962002c2b565b50601f81168062002cda575b5080602083015260405190818352600082528101602001908110620003225760405290565b60200360208111620012f4578101809111620012f4573862002cb5565b9081519162002d0562002c2b565b508251516001810190818111620012f457602085015181101562002d66575b60c2602062000829965192830101538051821162002d5d575b50506040519160208301526020825262002d5782620003a2565b6200336d565b52388062002d3d565b8160011b9482860460021483151715620012f45760208162002d9e620008299862002d9660c29551918462002c9e565b50826200329e565b509650505062002d24565b908160011b9180830460021490151715620012f457565b62002dca62002c2b565b508051516001810190818111620012f457602083015181101562002e06575b605b6020845192830101538051821162002e0257505090565b5290565b8160011b82810460021483151715620012f45762002e349062002e2c8551918662002c9e565b50846200329e565b5062002de9565b62002e4562002c2b565b508051516001810190818111620012f457602083015181101562002e7d575b605a6020845192830101538051821162002e0257505090565b8160011b82810460021483151715620012f45762002ea39062002e2c8551918662002c9e565b5062002e64565b62002eb462002c2b565b508051516001810190818111620012f457602083015181101562002eec575b60596020845192830101538051821162002e0257505090565b8160011b82810460021483151715620012f45762002f129062002e2c8551918662002c9e565b5062002ed3565b62002f2362002c2b565b508051516001810190818111620012f457602083015181101562002f5b575b60586020845192830101538051821162002e0257505090565b8160011b82810460021483151715620012f45762002f819062002e2c8551918662002c9e565b5062002f42565b62002f9262002c2b565b508051516001810190818111620012f457602083015181101562002fca575b607b6020845192830101538051821162002e0257505090565b8160011b82810460021483151715620012f45762002ff09062002e2c8551918662002c9e565b5062002fb1565b6200300162002c2b565b508051516001810190818111620012f457602083015181101562003039575b607a6020845192830101538051821162002e0257505090565b8160011b82810460021483151715620012f4576200305f9062002e2c8551918662002c9e565b5062003020565b6200307062002c2b565b508051516001810190818111620012f4576020830151811015620030a8575b60796020845192830101538051821162002e0257505090565b8160011b82810460021483151715620012f457620030ce9062002e2c8551918662002c9e565b506200308f565b620030df62002c2b565b508051516001810190818111620012f457602083015181101562003117575b60786020845192830101538051821162002e0257505090565b8160011b82810460021483151715620012f4576200313d9062002e2c8551918662002c9e565b50620030fe565b906200314f62002c2b565b508151516001810191828211620012f457602084015182101562003185575b6020845192830101538051821162002e0257505090565b8260011b83810460021484151715620012f457620031b390620031ab8651918762002c9e565b50856200329e565b506200316e565b90620031c98251918362002c9e565b50620031d462002c2b565b50805190620031e262002c2b565b50620031f2815183111562003365565b8251519262003202838562002081565b91602092828480940151821162003282575b518381519782010196821162003279575b505001915b818110156200324c5760001991036101000a0190811990511690825116179052565b91926200326c6200326562003273928651815262002072565b9462002072565b9262001f7f565b6200322a565b52388062003225565b62003298620032918362002da9565b82620031ba565b62003214565b90620032a962002c2b565b508051620032b662002c2b565b50620032c6825182111562003365565b82515191620032d6828462002081565b602091829182870151811162003349575b86518381519782010196821162003340575b505001915b81811015620033215760001991036101000a019081199051169082511617905290565b91926200326c620032656200333a928651815262002072565b620032fe565b523880620032f9565b6200335f620033588262002da9565b88620031ba565b620032e7565b156200032257565b8151620033aa92919067ffffffffffffffff81169060178211620033ad57620033a19150604060ff84519216179062003144565b505b516200329e565b50565b5060ff8111620033d857620033d190620033c8835162002f19565b5082516200375d565b50620033a3565b61ffff8111620033fc57620033d190620033f3835162002eaa565b508251620036ed565b63ffffffff81116200342257620033d19062003419835162002e3b565b5082516200367b565b620033d19062003433835162002dc0565b50825162003605565b8151620033aa92919067ffffffffffffffff811690601782116200347057620033a19150606060ff84519216179062003144565b5060ff81116200348b57620033d190620033c88351620030d5565b61ffff8111620034a657620033d190620033f3835162003066565b63ffffffff8111620034c357620033d19062003419835162002ff7565b620033d19062003433835162002f88565b805190620034e162002c2b565b508151516001810190818111620012f457602084015181101562003534575b609f60208095519283010153805182116200352b575b50500180519060018201809211620012f45752565b52388062003516565b8160011b9382850460021483151715620012f45760208162003561829762002d96609f9551918462002c9e565b509550505062003500565b8051906200357962002c2b565b508151516001810190818111620012f4576020840151811015620035cd575b60ff6020809551928301015380518211620035c4575b5050018051600019810191908211620012f45752565b523880620035ae565b8160011b9382850460021483151715620012f457602081620035fa829762002d9660ff9551918462002c9e565b509550505062003598565b906200361062002c2b565b50815151806008019182600811620012f4576020840151831162003656575b60088451928301019067ffffffffffffffff198251161790528051821162002e0257505090565b8260011b83810460021484151715620012f457620036759085620031ba565b6200362f565b906200368662002c2b565b50815151806004019182600411620012f45760208401518311620036c8575b60048451928301019063ffffffff198251161790528051821162002e0257505090565b8260011b83810460021484151715620012f457620036e79085620031ba565b620036a5565b90620036f862002c2b565b50815151806002019182600211620012f4576020840151831162003738575b60028451928301019061ffff198251161790528051821162002e0257505090565b8260011b83810460021484151715620012f457620037579085620031ba565b62003717565b906200376862002c2b565b50815151806001019182600111620012f45760208401518311620037a7575b60018451928301019060ff198251161790528051821162002e0257505090565b8260011b83810460021484151715620012f457620037c69085620031ba565b62003787565b90816020910312620003225751620009dc8162001462565b600c546040517f1e010439000000000000000000000000000000000000000000000000000000008152600481018290526001600160a01b037f00000000000000000000000000000000000000000000000000000000000000001691602082602481865afa91821562000d6a5760009262003991575b506002546001600160a01b031690833b1562000322576040517f744bfe6100000000000000000000000000000000000000000000000000000000815260048101919091526001600160a01b0391909116602482015260008160448183875af1801562000d6a576200397a575b50600c5491803b1562000322576040517fc804802200000000000000000000000000000000000000000000000000000000815260048101939093526000908390602490829084905af190811562000d6a577f2a98573784ed2376aeff51a1ae44a63f3afbbef86ecf320075b3b4f7834854db92620024a49262003963575b506040516bffffffffffffffffffffffff90911681529081906020820190565b80620016b6620039739262000387565b3862003943565b80620016b66200398a9262000387565b38620038c5565b620039b891925060203d8111620039c0575b620039af8183620003bf565b810190620037cc565b903862003859565b503d620039a3565b90815167ffffffffffffffff81116200039c57620039f381620039ed600654620007ab565b62001ed1565b602080601f831160011462003a32575081929360009262003a26575b50508160011b916000199060031b1c191617600655565b01519050388062003a0f565b90601f1983169462003a6660066000527ff652222313e28459528d920b65115c16c04f3efc82aaedc97be59f3f377c0d3f90565b926000905b87821062003aa657505083600195961062003a8c575b505050811b01600655565b015160001960f88460031b161c1916905538808062003a81565b8060018596829496860151815501950193019062003a6b565b60208151910151906020811062003ad4575090565b6000199060200360031b1b1690565b601e54680100000000000000008110156200039c5762003b0b600191828101601e5562000757565b92909262003bec5780519067ffffffffffffffff82116200039c5762003b3e8262003b378654620007ab565b8662001f2b565b60209081601f841160011462003b7d575092829391839260009462003b71575b50501b916000199060031b1c1916179055565b01519250388062003b5e565b919083601f19811662003b9588600052602060002090565b946000905b8883831062003bd1575050501062003bb7575b505050811b019055565b015160001960f88460031b161c1916905538808062003bad565b85870151885590960195948501948793509081019062003b9a565b62000795565b909162003c0c620009dc9360408452604084019062000987565b91602081840391015262000987565b1562003c2357565b606460405162461bcd60e51b815260206004820152601b60248201527f4572726f20616f207061676172206120696e64656e697a6163616f00000000006044820152fd5b602054601c54111562003cb15762000829600080808062003c9c62000c9f62000c9f6019546001600160a01b039060081c1690565b47905af162003caa6200223a565b5062003c1b565b60008080806001600160a01b036002541647905af162003cd06200223a565b501562003cd957565b608460405162461bcd60e51b815260206004820152602d60248201527f4572726f20616f207265746f726e6172206f732066756e646f7320706172612060448201527f6120696e73746974756963616f000000000000000000000000000000000000006064820152fdfe60c0346100bc57601f61073a38819003918201601f19168301916001600160401b038311848410176100c1578084926060946040528339810103126100bc57610047816100d7565b906040610056602083016100d7565b9101516001600160601b03811692908390036100bc5760805260a052600180546001600160601b03191691909117905560405161064e90816100ec8239608051818181610114015281816101990152610373015260a0518181816101dc015261033b0152f35b600080fd5b634e487b7160e01b600052604160045260246000fd5b51906001600160a01b03821682036100bc5756fe60806040818152600436101561001457600080fd5b600091823560e01c90816301619d3d1461020057508063442b1278146101bd5780637d253aff1461017a578063b60d4288146100a95763bc61a4731461005957600080fd5b346100a557600319916020368401126100a2576004359267ffffffffffffffff84116100a5576101409084360301126100a2575061009b6020926004016102e6565b9051908152f35b80fd5b5080fd5b50346100a557816003193601126100a5576bffffffffffffffffffffffff60015416908051917f23b872dd0000000000000000000000000000000000000000000000000000000083523360048401523060248401526044830152602082606481866001600160a01b037f0000000000000000000000000000000000000000000000000000000000000000165af19081156101715750610146575080f35b6101669060203d811161016a575b61015e818361022a565b810190610262565b5080f35b503d610154565b513d84823e3d90fd5b50346100a557816003193601126100a557602090516001600160a01b037f0000000000000000000000000000000000000000000000000000000000000000168152f35b50346100a557816003193601126100a557602090516001600160a01b037f0000000000000000000000000000000000000000000000000000000000000000168152f35b8390346100a557816003193601126100a5576020906bffffffffffffffffffffffff600154168152f35b90601f8019910116810190811067ffffffffffffffff82111761024c57604052565b634e487b7160e01b600052604160045260246000fd5b9081602091031261027a5751801515810361027a5790565b600080fd5b9035601e198236030181121561027a57016020813591019167ffffffffffffffff821161027a57813603831361027a57565b908060209392818452848401376000828201840152601f01601f1916010190565b35906001600160a01b038216820361027a57565b90600091610120810135906bffffffffffffffffffffffff82168092036105ed5760408051917f095ea7b30000000000000000000000000000000000000000000000000000000083526001600160a01b0390817f00000000000000000000000000000000000000000000000000000000000000001680600486015285602486015260209485816044818c887f0000000000000000000000000000000000000000000000000000000000000000165af1801561060e576105f1575b508351957f3f678e11000000000000000000000000000000000000000000000000000000008752856004880152886103ee6103db858061027f565b61014060248c01526101648b01916102b1565b916104126103fe8987018761027f565b6023198c8703810160448e015295916102b1565b958061041f8988016102d2565b1660648b0152606086013563ffffffff81168091036105ed5760848b0152610449608087016102d2565b1660a48a015260a08501359060ff82168092036105e9576104d08a9687956104c06104b46104968e9c8a9860c48a015261048660c087018761027f565b90868b84030160e48c01526102b1565b6104a360e086018661027f565b90858a8403016101048b01526102b1565b9261010081019061027f565b91868403016101248701526102b1565b9061014483015203925af19283156105df5785936105ac575b50821561054f573385528482528420908154916801000000000000000083101561053b57600183018082558310156105275794839495815220015590565b602486634e487b7160e01b81526032600452fd5b602486634e487b7160e01b81526041600452fd5b6064925051907f08c379a00000000000000000000000000000000000000000000000000000000082526004820152601560248201527f6175746f2d617070726f76652064697361626c656400000000000000000000006044820152fd5b9092508181813d83116105d8575b6105c4818361022a565b810103126105d4575191386104e9565b8480fd5b503d6105ba565b81513d87823e3d90fd5b8280fd5b8380fd5b61060790863d881161016a5761015e818361022a565b50386103a0565b85513d8b823e3d90fdfea26469706673582212209ca455be61c45d9c7e515967f303b8ab4a822792fd7267d08664d38b1d82e42764736f6c63430008130033a26469706673582212202623f342b9ec255563469a347558bad6f858a2d546908299a0b8e9e9d2eed2fa64736f6c63430008130033a2646970667358221220138a75cbd7e178bed657d706f6ab38f7af70ed0199a88034fc0f65bd5c41b1ca64736f6c63430008130033a2646970667358221220dc06eabd73b5810999325b43e2e08e53fb5104af665db8c4d4a078fa6686f2a264736f6c63430008130033",
  "linkReferences": {},
  "deployedLinkReferences": {}
}