{
  "_format": "hh-sol-artifact-1",
  "contractName": "InsuranceAPI",
  "sourceName": "contracts/InsuranceAPI.sol",
  "abi": [
    {
      "inputs": [
        {
          "internalType": "address",
          "name": "_owner",
          "type": "address"
        }
      ],
      "stateMutability": "nonpayable",
      "type": "constructor"
    },
    {
      "anonymous": false,
      "inputs": [
        {
          "indexed": false,
          "internalType": "address",
          "name": "institutionAddress",
          "type": "address"
        }
      ],
      "name": "InstitutionCreated",
      "type": "event"
    },
    {
      "inputs": [
        {
          "internalType": "string",
          "name": "_institutionName",
          "type": "string"
        }
      ],
      "name": "createInstitution",
      "outputs": [],
      "stateMutability": "nonpayable",
      "type": "function"
    },
    {
      "inputs": [],
      "name": "getAllInstitution",
      "outputs": [
        {
          "internalType": "contract Institution[]",
          "name": "",
          "type": "address[]"
        }
      ],
      "stateMutability": "view",
      "type": "function"
    },
    {
      "inputs": [],
      "name": "im_owner",
      "outputs": [
        {
          "internalType": "address",
          "name": "",
          "type": "address"
        }
      ],
      "stateMutability": "view",
      "type": "function"
    },
    {
      "inputs": [
        {
          "internalType": "address",
          "name": "",
          "type": "address"
        },
        {
          "internalType": "uint256",
          "name": "",
          "type": "uint256"
        }
      ],
      "name": "institutions",
      "outputs": [
        {
          "internalType": "contract Institution",
          "name": "",
          "type": "address"
        }
      ],
      "stateMutability": "view",
      "type": "function"
    }
  ],
  "bytecode": "0x60a03461006957601f61584f38819003918201601f19168301916001600160401b0383118484101761006e5780849260209460405283398101031261006957516001600160a01b0381168103610069576080526040516157ca9081610085823960805181606f0152f35b600080fd5b634e487b7160e01b600052604160045260246000fdfe608060408181526004918236101561001657600080fd5b600092833560e01c918263029bf701146101a5575081631f9fe1c3146101475750806336a786ec146100975763af6081de1461005157600080fd5b34610093578160031936011261009357602090516001600160a01b037f0000000000000000000000000000000000000000000000000000000000000000168152f35b5080fd5b50903461014457806003193601126101445790338252602091808352818120908251808584549182815201908194845286842090845b81811061012757505050816100e391038261034b565b83519485948186019282875251809352850193925b82811061010757505050500390f35b83516001600160a01b0316855286955093810193928101926001016100f8565b82546001600160a01b0316845292880192600192830192016100cd565b80fd5b9050346101a157816003193601126101a15735916001600160a01b03908184168094036101445760243593815280602052828120908154851015610144575060209361019291610383565b92905490519260031b1c168152f35b8280fd5b849084346101a157602091826003193601126103475767ffffffffffffffff85358181116103435736602382011215610343578087013582811161033057601f19916101f8601f8301841688018661034b565b818552366024838301011161032c57818892602489930183880137850101528351926153e38085019384118585101761031957908492916103b284393384528587850152805190818786015287895b8381106103015750505090601f828960608795819801015201160103019084f09081156102f857338452838352808420805490680100000000000000008210156102e5577fea999c661f6c9b8cb04b763224104e50ffebeb622f731f760a183d91fdf86998959650906102bf91600182018155610383565b926001600160a01b038091169382549060031b9185831b921b191617905551908152a180f35b602486604189634e487b7160e01b835252fd5b513d84823e3d90fd5b82810182015187820160600152879550899101610247565b60248860418b634e487b7160e01b835252fd5b8780fd5b60248760418a634e487b7160e01b835252fd5b8580fd5b8380fd5b90601f8019910116810190811067ffffffffffffffff82111761036d57604052565b634e487b7160e01b600052604160045260246000fd5b805482101561039b5760005260206000200190600090565b634e487b7160e01b600052603260045260246000fdfe60a0604052346200024857620053e3803803806200001d816200024d565b928339810190604081830312620002485780516001600160a01b038116810362000248576020828101516001600160401b039391929184821162000248570193601f91818387011215620002485785518581116200021d57601f19966200008a828601891687016200024d565b938285528683830101116200024857859060005b838110620002335750506000918401015260805280519384116200021d57600054926001938481811c9116801562000212575b82821014620001fc57838111620001b1575b5080928511600114620001475750839450908392916000946200013b575b50501b916000199060031b1c1916176000555b60405161516f908162000274823960805181818161020e0152818161046101526109690152f35b01519250388062000101565b9294849081166000805284600020946000905b888383106200019657505050106200017c575b505050811b0160005562000114565b015160001960f88460031b161c191690553880806200016d565b8587015188559096019594850194879350908101906200015a565b60008052816000208480880160051c820192848910620001f2575b0160051c019085905b828110620001e5575050620000e3565b60008155018590620001d5565b92508192620001cc565b634e487b7160e01b600052602260045260246000fd5b90607f1690620000d1565b634e487b7160e01b600052604160045260246000fd5b8181018301518682018401528792016200009e565b600080fd5b6040519190601f01601f191682016001600160401b038111838210176200021d5760405256fe608060405260043610156200001d575b36156200001b57600080fd5b005b60003560e01c8063080a57f91462000beb57806317fab0a01462000b0a5780633a133e2c1462000a1b5780633ccfd60b146200094c5780633f0f912d146200088f5780638a699f00146200083a5780638b7afe2e146200081c57806390f6d378146200070d5780639b19251a14620006ca5780639c22a6dd1462000485578063af6081de146200043f578063dfb50e641462000173578063ed23f8c314620001125763f9f92be4036200000f57346200010d5760203660031901126200010d576001600160a01b03620000ef62000c2c565b166000526004602052602060ff604060002054166040519015158152f35b600080fd5b346200010d5760403660031901126200010d576200012f62000c2c565b602435906001600160a01b038091166000526005602052604060002080548310156200010d57602092620001639162000da7565b9190546040519260031b1c168152f35b346200010d5760203660031901126200010d5767ffffffffffffffff600435116200010d573660236004350112156200010d576004356004013567ffffffffffffffff811162000429578060051b9060405190620001d5602084018362000c43565b8152602081016024923684826004350101116200010d578360043501915b84826004350101831062000352575050506001600160a01b037f0000000000000000000000000000000000000000000000000000000000000000163303620003285760005b81518110156200001b576200028f602062000254838562000dc0565b5101516200027f602062000269858762000dc0565b5151816040519382858094519384920162000cd0565b8101600281520301902062000dd5565b6200029b818362000dc0565b51516001805468010000000000000000811015620003135781620002c3928201905562000d59565b919091620002fe57620002d69162000dd5565b6000198114620002e95760010162000238565b82634e487b7160e01b60005260116004526000fd5b84634e487b7160e01b60005260006004526000fd5b85634e487b7160e01b60005260416004526000fd5b60046040517f30cd7471000000000000000000000000000000000000000000000000000000008152fd5b823567ffffffffffffffff81116200010d5736604382600435010112156200010d57604051906040820182811067ffffffffffffffff8211176200041457604052600435810160640190823683116200010d5790889493929185826004350101905b838210620003d25750505090825250602093840193019050620001f3565b9091929394955067ffffffffffffffff8235116200010d576020809162000403368d86358860043501010162000c83565b8152019101899594939291620003b4565b87634e487b7160e01b60005260416004526000fd5b634e487b7160e01b600052604160045260246000fd5b346200010d5760003660031901126200010d5760206040516001600160a01b037f0000000000000000000000000000000000000000000000000000000000000000168152f35b346200010d576101a0806003193601126200010d57620004a462000c2c565b90602435916001600160a01b03918284168094036200010d576084359160c435908482168092036200010d5760e435928584168094036200010d5761010435908682168092036200010d57610124358781168091036200010d576101443563ffffffff81168091036200010d5767ffffffffffffffff91610184358381116200010d576200053790369060040162000c83565b948b600052600360205260ff604060002054161562000660576040519861424498898b019586118b87101762000429578c620005d1998c9b62000ef68d391686528d6020870152604435604087015260643560608701528b608087015260a43560a087015260c086015260e08501526101008401526101208301526101408201526101643561016082015281610180820152019062000d32565b0391f09182156200065457600052600560205260406000209081549268010000000000000000841015620004295781620006358560209560017fa155a575082ecf596e5a22a44834be92670605d1d0832000305888ba02a462d99801815562000da7565b939092169282549060031b9184831b921b1916179055604051908152a1005b6040513d6000823e3d90fd5b608460405162461bcd60e51b815260206004820152602160248201527f456e64657265636f206e616f2065737461206e61206c69737461206272616e6360448201527f61000000000000000000000000000000000000000000000000000000000000006064820152fd5b346200010d5760203660031901126200010d576001600160a01b03620006ef62000c2c565b166000526003602052602060ff604060002054166040519015158152f35b346200010d576020806003193601126200010d576004359060019182548110156200010d576200073d9062000d59565b62000806576040518093600090835493620007588562000cf5565b94858552868382169182600014620007e25750506001146200079f575b5050620007859250038362000c43565b6200079b60405192828493845283019062000d32565b0390f35b85925060005281600020906000915b858310620007c9575050620007859350820101858062000775565b80548389018501528794508693909201918101620007ae565b92509350506200078594915060ff191682840152151560051b820101858062000775565b634e487b7160e01b600052600060045260246000fd5b346200010d5760003660031901126200010d57602047604051908152f35b346200010d5760203660031901126200010d576001600160a01b036200085f62000c2c565b166000526003602052604060002060ff199081815416905560046020526001604060002091825416179055600080f35b346200010d576020806003193601126200010d576001600160a01b039081620008b762000c2c565b1660005260058152604060002060405191828183549182815201908193600052826000209060005b818110620009355750505083620008f891038462000c43565b60405192818401908285525180915260408401929160005b8281106200091e5785850386f35b835187168552938101939281019260010162000910565b8254881684529284019260019283019201620008df565b346200010d5760003660031901126200010d576001600160a01b037f000000000000000000000000000000000000000000000000000000000000000016803303620003285760008080809347905af13d1562000a15573d620009ae8162000c66565b90620009be604051928362000c43565b8152600060203d92013e5b15620009d157005b606460405162461bcd60e51b815260206004820152601060248201527f5769746864726177206661696c65642e000000000000000000000000000000006044820152fd5b620009c9565b346200010d5760003660031901126200010d576040516000805462000a408162000cf5565b8084529060019081811690811562000ae1575060011462000a84575b6200079b8462000a6f8186038262000c43565b60405191829160208352602083019062000d32565b600080805292507f290decd9548b62a8d60345a988386fc84ba6bc95484008f6362f93160ef3e5635b82841062000ac857505050810160200162000a6f8262000a5c565b8054602085870181019190915290930192810162000aad565b60ff191660208087019190915292151560051b8501909201925062000a6f915083905062000a5c565b346200010d576020806003193601126200010d5760043567ffffffffffffffff81116200010d578162000b4662000b5a92369060040162000c83565b816040519382858094519384920162000cd0565b810160028152030190209060405191826000825462000b798162000cf5565b93848452600191868382169182600014620007e257505060011462000ba8575050620007859250038362000c43565b85925060005281600020906000915b85831062000bd2575050620007859350820101858062000775565b8054838901850152879450869390920191810162000bb7565b346200010d5760203660031901126200010d576001600160a01b0362000c1062000c2c565b166000908152600360205260409020805460ff19166001179055005b600435906001600160a01b03821682036200010d57565b90601f8019910116810190811067ffffffffffffffff8211176200042957604052565b67ffffffffffffffff81116200042957601f01601f191660200190565b81601f820112156200010d5780359062000c9d8262000c66565b9262000cad604051948562000c43565b828452602083830101116200010d57816000926020809301838601378301015290565b60005b83811062000ce45750506000910152565b818101518382015260200162000cd3565b90600182811c9216801562000d27575b602083101462000d1157565b634e487b7160e01b600052602260045260246000fd5b91607f169162000d05565b9060209162000d4d8151809281855285808601910162000cd0565b601f01601f1916010190565b60015481101562000d915760016000527fb10e2d527612073b26eecdfd717e6a320cf44b4afac2b0732d9fcbe2b7fa0cf60190600090565b634e487b7160e01b600052603260045260246000fd5b805482101562000d915760005260206000200190600090565b805182101562000d915760209160051b010190565b919091825167ffffffffffffffff8111620004295762000df6825462000cf5565b601f811162000ea8575b50602080601f831160011462000e4057508192939460009262000e34575b50508160011b916000199060031b1c1916179055565b01519050388062000e1e565b90601f198316958460005282600020926000905b88821062000e8f5750508360019596971062000e75575b505050811b019055565b015160001960f88460031b161c1916905538808062000e6b565b8060018596829496860151815501950193019062000e54565b600083815260208120601f840160051c8101926020851062000eea575b601f0160051c01915b82811062000ede57505062000e00565b81815560010162000ece565b909250829062000ec556fe610120604052620042448038039081620000198162000425565b9182396101a0818381010312620004205762000035816200044b565b9062000044602082016200044b565b60408201519260608301519160808401519460a0850151916200006a60c087016200044b565b966200007960e088016200044b565b916200008961010089016200044b565b92620000996101208a016200044b565b956101408a01519363ffffffff8516850362000420576101608b015160e0526101808b01519c6001600160401b038e116200042057808c018e8d01601f01121562000420578b8e015160c0819052906001600160401b038211620003c5578e916020918e916200011290601f01601f1916840162000425565b806101005260c051905281019260c0519101010111620004205760005b60c051811015620001545760208e8d018201810151610100518301820152016200012f565b5060c0516101005160009101602001526001600160a01b03808d16608052988916998a15620003db57899788958c60018060a01b03199d8e60005416176000558d600254161760025560175490610100600160a81b039060081b1690610100600160a81b03191617601755601955601a556018556008551660a0526bffffffff00000000000000006007549160401b16906bffffffff0000000000000000191617600755168360095416176009551690600a541617600a5542600f5560e051600e5561010051805160018060401b038111620003c557601c54916001928381811c91168015620003ba575b6020821014620003a457601f811162000337575b50602090601f8311600114620002cc575081928291600093620002bd575b501b916000199060031b1c191617601c555b60ff1960175416601755604051613de390816200046182396080518181816104740152610e1f015260a051818181611047015261156d0152f35b61010051015192508462000271565b90601f19831691601c6000528360206000209360005b878282106200031d5750501062000303575b505050811b01601c5562000283565b015160001960f88460031b161c19169055828080620002f4565b8486015187559095019460209485019487935001620002e2565b601c6000527f0e4562a10381dec21b205ed72637e6b1b523bdd0e4d4d50af5cd23dd4500a211601f840160051c8101916020851062000399575b601f0160051c019084905b8281106200038c57505062000253565b600081550184906200037c565b909150819062000371565b634e487b7160e01b600052602260045260246000fd5b90607f16906200023f565b634e487b7160e01b600052604160045260246000fd5b60405162461bcd60e51b815260206004820152601860248201527f43616e6e6f7420736574206f776e657220746f207a65726f00000000000000006044820152606490fd5b600080fd5b6040519190601f01601f191682016001600160401b03811183821017620003c557604052565b51906001600160a01b0382168203620004205756fe608060405260043610156200001d575b36156200001b57600080fd5b005b60003560e01c8063089ea02e14620002da57806309c1ba2e14620002d45780630ca7617514620002ce5780631243bcc314620002c85780631aa46f5914620002c257806324b93e3e14620002bc578063277e221314620002b65780632fc2a7b914620002b0578063338cdca114620002aa578063381fc4b514620002a45780633944ea3a146200029e5780633f678e11146200029857806343cd3d8614620002925780634585e33b146200028c57806348802b92146200028657806348bd6f0514620002805780634b0795a8146200027a57806362ed90361462000274578063688ecfd1146200026e5780636baa48fe14620002685780636e04ff0d14620002625780636e74336b146200025c57806379ba509714620002565780637b10399914620002505780638b7afe2e146200024a5780638d7e6d2d14620002445780638da5cb5b146200023e578063a30971391462000238578063a3d3c0d21462000232578063b1e21749146200022c578063bef3a2f01462000226578063d2aa789f1462000220578063d5f39488146200021a578063d811fcf01462000214578063ea7b4f77146200020e578063ebf14a551462000208578063f2fde38b1462000202578063fd2c80ae14620001fc5763fffeb84e036200000f5762001bc3565b62001ba3565b62001a98565b62001a4c565b62001a0c565b620019e0565b620019b7565b62001997565b620018e2565b620018c2565b620018a2565b62001882565b62001859565b620015e5565b62001591565b6200154b565b62001467565b62001447565b620013c9565b620013a0565b620012eb565b620011c5565b62001110565b620010f0565b620010d0565b62000d84565b62000d15565b62000beb565b62000b36565b62000b16565b62000a30565b62000a07565b62000997565b620006f5565b620006d5565b620006ac565b62000416565b62000311565b620002f1565b6000910312620002ec57565b600080fd5b34620002ec576000366003190112620002ec576020600f54604051908152f35b34620002ec576000366003190112620002ec57602067ffffffffffffffff60075416604051908152f35b634e487b7160e01b600052604160045260246000fd5b67ffffffffffffffff81116200036657604052565b6200033b565b6040810190811067ffffffffffffffff8211176200036657604052565b90601f8019910116810190811067ffffffffffffffff8211176200036657604052565b67ffffffffffffffff81116200036657601f01601f191660200190565b81601f82011215620002ec57803590620003e382620003ac565b92620003f3604051948562000389565b82845260208383010111620002ec57816000926020809301838601378301015290565b34620002ec576060366003190112620002ec5767ffffffffffffffff602435818111620002ec576200044d903690600401620003c9565b90604435908111620002ec5762000469903690600401620003c9565b506001600160a01b037f0000000000000000000000000000000000000000000000000000000000000000163303620006825760175460ff166200052657620004f8620004e0620004da7f5b3884247b2d692220a28e85c6452382a57294c08a90bce16e4978698181adb69362003330565b62003475565b620004eb8162003354565b6040519182918262000981565b0390a15b6004357f85e1543bf2f84fe80c6badbce3648c8539ad1df4d2b3d822938ca0538be727e6600080a2005b620005319062003330565b80601d557f5f45b8e77291dfc632c52ceb5f6e5b643b77e04e0a683db296eaf8d71e41e1656020604051838152a160195411156200061157620005b260008080806200059d62000591620005916017546001600160a01b039060081c1690565b6001600160a01b031690565b47905af1620005ab620021be565b50620035fc565b7fb42dbb74b29856930805877a4e3c62f2d7191b2c872bba1d7f7b2630334dc13562000608620005ee6017546001600160a01b039060081c1690565b6040516001600160a01b0390911681529081906020820190565b0390a1620004fc565b6200064a60008080806200063562000591620005916002546001600160a01b031690565b47905af162000643620021be565b506200358a565b7fb42dbb74b29856930805877a4e3c62f2d7191b2c872bba1d7f7b2630334dc13562000608620005ee6002546001600160a01b031690565b60046040517fc6829f83000000000000000000000000000000000000000000000000000000008152fd5b34620002ec576000366003190112620002ec5760206001600160a01b0360095416604051908152f35b34620002ec576000366003190112620002ec576020600454604051908152f35b34620002ec576000366003190112620002ec57602060075463ffffffff6040519160401c168152f35b634e487b7160e01b600052603260045260246000fd5b601b548110156200076c57601b6000527f3ad8aa4f87544323a9d1e5dd902f40c356527a7955687113db5f9a85ad579dc10190600090565b6200071e565b634e487b7160e01b600052600060045260246000fd5b90600182811c92168015620007ba575b6020831014620007a457565b634e487b7160e01b600052602260045260246000fd5b91607f169162000798565b60405190600082601c5491620007db8362000788565b808352926001908181169081156200086b575060011462000808575b50620008069250038362000389565b565b601c600090815291507f0e4562a10381dec21b205ed72637e6b1b523bdd0e4d4d50af5cd23dd4500a2115b8483106200084f575062000806935050810160200138620007f7565b81935090816020925483858a0101520191019091859262000833565b9050602092506200080694915060ff191682840152151560051b82010138620007f7565b9060405191826000825492620008a58462000788565b9081845260019485811690816000146200091a5750600114620008d3575b5050620008069250038362000389565b9093915060005260209081600020936000915b818310620009015750506200080693508201013880620008c3565b85548884018501529485019487945091830191620008e6565b9150506200080694506020925060ff191682840152151560051b8201013880620008c3565b919082519283825260005b8481106200096c575050826000602080949584010152601f8019910116010190565b6020818301810151848301820152016200094a565b906020620009949281815201906200093f565b90565b34620002ec576020366003190112620002ec57600435601b54811015620002ec57620009ee62000a0391601b6000527f3ad8aa4f87544323a9d1e5dd902f40c356527a7955687113db5f9a85ad579dc1016200088f565b6040519182916020835260208301906200093f565b0390f35b34620002ec576000366003190112620002ec5760206001600160a01b03600b5416604051908152f35b34620002ec5760008060031936011262000b13576040519080600d5462000a578162000788565b8085529160019180831690811562000ae6575060011462000a86575b62000a0385620004eb8187038262000389565b9250600d83527fd7b6990105719101dabeb77144f2a3385c8033acd3af97e9423a695e81ad1eb55b82841062000acd575050508101602001620004eb8262000a0362000a73565b8054602085870181019190915290930192810162000aae565b86955062000a0396935060209250620004eb94915060ff191682840152151560051b820101929362000a73565b80fd5b34620002ec576000366003190112620002ec576020601154604051908152f35b34620002ec5760008060031936011262000b1357604051908060135462000b5d8162000788565b8085529160019180831690811562000ae6575060011462000b8b5762000a0385620004eb8187038262000389565b9250601383527f66de8ffda797e3de9c05e8fc57b3bf0ec28a930d40b0d285d93c06501cf6a0905b82841062000bd2575050508101602001620004eb8262000a0362000a73565b8054602085870181019190915290930192810162000bb3565b34620002ec57600319602036820112620002ec576004359067ffffffffffffffff8211620002ec57610140908236030112620002ec57602062000c8a60009262000c4e62000591620005916001600160a01b03600b54166001600160a01b031690565b906040519485809481937f24380aa800000000000000000000000000000000000000000000000000000000835230906004016004840162001de2565b03925af1801562000d0f5762000ca99160009162000cda575b50600c55565b600c546040519081527f7623383a750b4166574a1b2dff61440ed0dfa3708cbe620c58339cca510d1af990602090a1005b62000d00915060203d811162000d07575b62000cf7818362000389565b81019062001d5b565b3862000ca3565b503d62000ceb565b62001d35565b34620002ec576000366003190112620002ec576020601654604051908152f35b906020600319830112620002ec5760043567ffffffffffffffff92838211620002ec5780602383011215620002ec578160040135938411620002ec5760248483010111620002ec576024019190565b34620002ec5762000d953662000d35565b505062000da6600c54151562001f8c565b62000db042600f55565b62000dc662000dc160105462001fd8565b601055565b601a54601b54101562000f6a5762000e116020600754600e5490604051938492839263230e93b160e11b845267ffffffffffffffff63ffffffff8260401c16911660048501620021f3565b038160006001600160a01b037f0000000000000000000000000000000000000000000000000000000000000000165af16000918162000f45575b5062000efe5750600162000e5e6200212a565b6308c379a01462000ea5575b62000e7157005b7f9c4bfa18304482256875c29fabb1a44a5ecd325f214ea17bab8f31e869faf4c862000ea0620004eb620021be565b0390a1005b62000eaf62002149565b8062000ebd575b5062000e6a565b90507f2ba61e3733e7ac99181c22307780f651ec8fd92fe661a84dfbe711710b2dc36c62000ef46000926040519182918262000981565b0390a13862000eb6565b62000f0881601255565b62000f1e62000f1960155462001fd8565b601555565b7f1131472297a800fee664d1d89cfa8f7676ff07189ecc53f80bbb5f4969099db8600080a2005b62000f6291925060203d811162000d075762000cf7818362000389565b903862000e4b565b60ff62000f7960175460ff1690565b166200100e5762000f92600160ff196017541617601755565b62000fd062000fa062002013565b62000fb562000fae620007c5565b8262002715565b62000fca62000fc36200205e565b8262002757565b620024d8565b6020600754600e549262000e11604051948593849363230e93b160e11b855267ffffffffffffffff63ffffffff8360401c16921660048601620020e8565b600c546040518181527f8b7f9ec922f0b687c5e247d2d3d200d803f027d886a5a0bdf49c6747b9c9ec4c90602090a16001600160a01b037f000000000000000000000000000000000000000000000000000000000000000016803b15620002ec576040517fc804802200000000000000000000000000000000000000000000000000000000815260048101929092526000908290602490829084905af1801562000d0f57620010b957005b80620010c96200001b9262000351565b80620002e0565b34620002ec576000366003190112620002ec576020601554604051908152f35b34620002ec576000366003190112620002ec576020601854604051908152f35b34620002ec5760008060031936011262000b13576040519080601454620011378162000788565b8085529160019180831690811562000ae65750600114620011655762000a0385620004eb8187038262000389565b9250601483527fce6d7b5282bd9a3661ae061feed1dbda4e52ab073b1f9285be6e155d9c38d4ec5b828410620011ac575050508101602001620004eb8262000a0362000a73565b805460208587018101919091529093019281016200118d565b34620002ec57602080600319360112620002ec5767ffffffffffffffff600435818111620002ec57620011fd903690600401620003c9565b918251918211620003665762001220826200121a60035462000788565b62001c91565b80601f83116001146200125f5750819260009262001253575b50508160011b916000199060031b1c191617600355600080f35b01519050388062001239565b90601f198316936200129360036000527fc2575a0e9e593c00f959f8c92f12db2869c3395a3b0502d05e2516446f71f85b90565b926000905b868210620012d25750508360019510620012b8575b505050811b01600355005b015160001960f88460031b161c19169055388080620012ad565b8060018596829496860151815501950193019062001298565b34620002ec5760008060031936011262000b13576040519080600354620013128162000788565b8085529160019180831690811562000ae65750600114620013405762000a0385620004eb8187038262000389565b9250600383527fc2575a0e9e593c00f959f8c92f12db2869c3395a3b0502d05e2516446f71f85b5b82841062001387575050508101602001620004eb8262000a0362000a73565b8054602085870181019190915290930192810162001368565b34620002ec576000366003190112620002ec5760206001600160a01b03600a5416604051908152f35b34620002ec57620013da3662000d35565b5050600f54420342811162001441576008541060405190815260206040818301528160609182519081604084015260005b8281106200142b5750506000828201840152601f01601f19168101030190f35b608081015186820186015285935081016200140b565b62001f66565b34620002ec576000366003190112620002ec576020600e54604051908152f35b34620002ec5760008060031936011262000b13576001600160a01b0380600154163303620015075781546001600160a01b03166000805473ffffffffffffffffffffffffffffffffffffffff19163317905590620014dd73ffffffffffffffffffffffffffffffffffffffff1960015416600155565b3391167f8be0079c531659141344cd1fd0a4f28419497f9722a3daafe3b4186f6b6457e08380a380f35b606460405162461bcd60e51b815260206004820152601660248201527f4d7573742062652070726f706f736564206f776e6572000000000000000000006044820152fd5b34620002ec576000366003190112620002ec5760206040516001600160a01b037f0000000000000000000000000000000000000000000000000000000000000000168152f35b34620002ec576000366003190112620002ec57602047604051908152f35b600435906bffffffffffffffffffffffff82168203620002ec57565b35906bffffffffffffffffffffffff82168203620002ec57565b34620002ec576020366003190112620002ec5762001602620015af565b6009546001600160a01b03169062001622600a546001600160a01b031690565b91604051926107658085019185831067ffffffffffffffff84111762000366578593620016809386936200364987396001600160a01b039182168152911660208201526bffffffffffffffffffffffff909116604082015260600190565b0360009283f0801562000d0f576200174e91620016c26020926001600160a01b031673ffffffffffffffffffffffffffffffffffffffff19600b541617600b55565b620016dd62000591620005916009546001600160a01b031690565b620016f462000591600b546001600160a01b031690565b856040518096819582947f095ea7b3000000000000000000000000000000000000000000000000000000008452600484019092916bffffffffffffffffffffffff6020916001600160a01b03604085019616845216910152565b03925af1801562000d0f5762001824575b506200177762000591600b546001600160a01b031690565b803b1562001820576040517f230244080000000000000000000000000000000000000000000000000000000081523060048201529082908290602490829084905af1801562000d0f5762001809575b507f3583c1105fd29a46b4d92ceeaff8be03cba58a11cce44a3b7da77bbc3798edc462001803620005ee62000591600b546001600160a01b031690565b0390a180f35b80620010c9620018199262000351565b38620017c6565b5080fd5b620018499060203d811162001851575b62001840818362000389565b81019062001d41565b50386200175f565b503d62001834565b34620002ec576000366003190112620002ec5760206001600160a01b0360005416604051908152f35b34620002ec576000366003190112620002ec576020601954604051908152f35b34620002ec576000366003190112620002ec576020601054604051908152f35b34620002ec576000366003190112620002ec576020601254604051908152f35b34620002ec5760008060031936011262000b13576040519080600554620019098162000788565b8085529160019180831690811562000ae65750600114620019375762000a0385620004eb8187038262000389565b9250600583527f036b6384b5eca791c62761152d0c79bb0604c104a5fb6f4eb0703f3154bb3db05b8284106200197e575050508101602001620004eb8262000a0362000a73565b805460208587018101919091529093019281016200195f565b34620002ec576000366003190112620002ec576020600c54604051908152f35b34620002ec576000366003190112620002ec5760206001600160a01b0360025416604051908152f35b34620002ec576000366003190112620002ec5760206001600160a01b0360175460081c16604051908152f35b34620002ec576020366003190112620002ec5760043567ffffffffffffffff8116809103620002ec5767ffffffffffffffff196007541617600755600080f35b34620002ec576000366003190112620002ec576020601a54604051908152f35b600435906001600160a01b0382168203620002ec57565b35906001600160a01b0382168203620002ec57565b34620002ec576020366003190112620002ec5762001ab562001a6c565b6001600160a01b0380600054169182330362001b5f57169033821462001b1b578173ffffffffffffffffffffffffffffffffffffffff1960015416176001557fed8889f560326eb138920d842192f0eb3dd22b4f139c87a2c57538e05bae1278600080a3005b606460405162461bcd60e51b815260206004820152601760248201527f43616e6e6f74207472616e7366657220746f2073656c660000000000000000006044820152fd5b606460405162461bcd60e51b815260206004820152601660248201527f4f6e6c792063616c6c61626c65206279206f776e6572000000000000000000006044820152fd5b34620002ec576000366003190112620002ec576020600854604051908152f35b34620002ec5760008060031936011262000b1357604051908060065462001bea8162000788565b8085529160019180831690811562000ae6575060011462001c185762000a0385620004eb8187038262000389565b9250600683527ff652222313e28459528d920b65115c16c04f3efc82aaedc97be59f3f377c0d3f5b82841062001c5f575050508101602001620004eb8262000a0362000a73565b8054602085870181019190915290930192810162001c40565b81811062001c84575050565b6000815560010162001c78565b90601f821162001c9f575050565b620008069160036000527fc2575a0e9e593c00f959f8c92f12db2869c3395a3b0502d05e2516446f71f85b906020601f840160051c8301931062001cec575b601f0160051c019062001c78565b909150819062001cde565b9190601f811162001d0757505050565b62000806926000526020600020906020601f840160051c8301931062001cec57601f0160051c019062001c78565b6040513d6000823e3d90fd5b90816020910312620002ec57518015158103620002ec5790565b90816020910312620002ec575190565b9035601e1982360301811215620002ec57016020813591019167ffffffffffffffff8211620002ec578136038313620002ec57565b908060209392818452848401376000828201840152601f01601f1916010190565b359063ffffffff82168203620002ec57565b359060ff82168203620002ec57565b9291602062000806926040865262001f5662001f4062001e2462001f388962001e0c868062001d6b565b93906101409485604085015261018084019162001da0565b9262001ef162001e5062001e3b8a8a018a62001d6b565b603f1986890381016060880152979162001da0565b62001e7262001e6260408b0162001a83565b6001600160a01b03166080860152565b62001e9162001e8460608b0162001dc1565b63ffffffff1660a0860152565b62001eb362001ea360808b0162001a83565b6001600160a01b031660c0860152565b62001ecf62001ec560a08b0162001dd3565b60ff1660e0860152565b62001ede60c08a018a62001d6b565b8583038801610100968701529062001da0565b938c62001f2862001f1e62001f0a60e08c018c62001d6b565b610120999186868403018b87015262001da0565b948a018a62001d6b565b9390928286030191015262001da0565b9301620015cb565b6bffffffffffffffffffffffff16610160880152565b9401906001600160a01b03169052565b634e487b7160e01b600052601160045260246000fd5b601f198101919082116200144157565b1562001f9457565b606460405162461bcd60e51b815260206004820152601560248201527f55706b656570206e6f74207265676973746572656400000000000000000000006044820152fd5b90600182018092116200144157565b90602082018092116200144157565b60300190816030116200144157565b919082018092116200144157565b6040519060e0820182811067ffffffffffffffff8211176200036657604052606060c08360008152600060208201526000604082015282808201528260808201528260a08201520152565b601b549067ffffffffffffffff8211620003665760405191602062002089818360051b018562000389565b81845280840190601b6000527f3ad8aa4f87544323a9d1e5dd902f40c356527a7955687113db5f9a85ad579dc16000925b848410620020c9575050505050565b6001838192620020d9856200088f565b815201920193019290620020ba565b906200211860809367ffffffffffffffff63ffffffff939897969816845260a0602085015260a08401906200093f565b95600160408401521660608201520152565b60009060033d116200213857565b905060046000803e60005160e01c90565b600060443d106200099457604051600319913d83016004833e815167ffffffffffffffff918282113d602484011117620021ad57818401948551938411620021b5573d85010160208487010111620021ad5750620009949291016020019062000389565b949350505050565b50949350505050565b3d15620021ee573d90620021d282620003ac565b91620021e2604051938462000389565b82523d6000602084013e565b606090565b9067ffffffffffffffff909493929416815260209360a0858301526000600354956200221f8762000788565b908160a08601526001978881169081600014620022ba57506001146200225b575b5050604083019590955263ffffffff16606082015260800152565b600360009081529250877fc2575a0e9e593c00f959f8c92f12db2869c3395a3b0502d05e2516446f71f85b5b838510620022a45750505050820160c0018163ffffffff62002240565b805487860160c001529382019389910162002287565b60ff191660c08781019190915292151560051b8601909201925083915063ffffffff905062002240565b60405190620022f3826200036c565b600c82527f636f64654c6f636174696f6e00000000000000000000000000000000000000006020830152565b634e487b7160e01b600052602160045260246000fd5b600311156200234057565b6200231f565b6040519062002355826200036c565b600882527f6c616e67756167650000000000000000000000000000000000000000000000006020830152565b600111156200234057565b604051906200239b826200036c565b600682527f736f7572636500000000000000000000000000000000000000000000000000006020830152565b60405190620023d6826200036c565b600482527f61726773000000000000000000000000000000000000000000000000000000006020830152565b6000198114620014415760010190565b80518210156200076c5760209160051b010190565b6040519062002436826200036c565b600f82527f736563726574734c6f636174696f6e00000000000000000000000000000000006020830152565b6040519062002471826200036c565b600782527f73656372657473000000000000000000000000000000000000000000000000006020830152565b60405190620024ac826200036c565b600982527f62797465734172677300000000000000000000000000000000000000000000006020830152565b620024e2620027ab565b90620024f8620024f1620022e4565b8362002fa0565b6200251b8151620025098162002335565b620025148162002335565b836200285b565b62002529620024f162002346565b6200254860408201516200253d8162002381565b620025148162002381565b62002556620024f16200238c565b6200256660608201518362002fa0565b60a08101805151620026ac575b506080810190815151620025fe575b60c091500180515162002596575b50515190565b91620025a5620024f16200249d565b620025b08262003038565b60005b83518051821015620025e85790620025dc620025d482620025e29462002412565b518562002ed1565b62002402565b620025b3565b50509150620025f781620030d0565b3862002590565b6020810180516200260f8162002335565b6200261a8162002335565b15620026825760c0926200265f6200267c92620026416200263a62002427565b8862002fa0565b516200264d8162002335565b620026588162002335565b866200285b565b620026746200266d62002462565b8662002fa0565b518462002ed1565b62002582565b60046040517fa80d31f7000000000000000000000000000000000000000000000000000000008152fd5b92620026c2620026bb620023c7565b8462002fa0565b620026cd8362003038565b60005b84518051821015620026ff5790620025dc620026f182620026f99462002412565b518662002fa0565b620026d0565b505092506200270e82620030d0565b3862002573565b8151156200272d576000808252604082015260600152565b60046040517f22ce3edd000000000000000000000000000000000000000000000000000000008152fd5b815115620027655760a00152565b60046040517ffe936cb7000000000000000000000000000000000000000000000000000000008152fd5b604051906200279e826200036c565b6000602083606081520152565b604051620027b9816200036c565b620027c36200278f565b8082526020820160008152620027d86200278f565b506101006020830152604051809252600082526101208201918210620002ec576000916040525290565b906200280d6200278f565b50601f8116806200283e575b5080602083015260405190818352600082528101602001908110620002ec5760405290565b602003602081116200144157810180911162001441573862002819565b90815191620028696200278f565b50825151600181019081811162001441576020850151811015620028ca575b60c26020620008069651928301015380518211620028c1575b505060405191602083015260208252620028bb826200036c565b62002ed1565b523880620028a1565b8160011b94828604600214831517156200144157602081620029026200080698620028fa60c29551918462002802565b508262002e02565b509650505062002888565b908160011b91808304600214901517156200144157565b6200292e6200278f565b508051516001810190818111620014415760208301518110156200296a575b605b602084519283010153805182116200296657505090565b5290565b8160011b8281046002148315171562001441576200299890620029908551918662002802565b508462002e02565b506200294d565b620029a96200278f565b50805151600181019081811162001441576020830151811015620029e1575b605a602084519283010153805182116200296657505090565b8160011b82810460021483151715620014415762002a0790620029908551918662002802565b50620029c8565b62002a186200278f565b5080515160018101908181116200144157602083015181101562002a50575b6059602084519283010153805182116200296657505090565b8160011b82810460021483151715620014415762002a7690620029908551918662002802565b5062002a37565b62002a876200278f565b5080515160018101908181116200144157602083015181101562002abf575b6058602084519283010153805182116200296657505090565b8160011b82810460021483151715620014415762002ae590620029908551918662002802565b5062002aa6565b62002af66200278f565b5080515160018101908181116200144157602083015181101562002b2e575b607b602084519283010153805182116200296657505090565b8160011b82810460021483151715620014415762002b5490620029908551918662002802565b5062002b15565b62002b656200278f565b5080515160018101908181116200144157602083015181101562002b9d575b607a602084519283010153805182116200296657505090565b8160011b82810460021483151715620014415762002bc390620029908551918662002802565b5062002b84565b62002bd46200278f565b5080515160018101908181116200144157602083015181101562002c0c575b6079602084519283010153805182116200296657505090565b8160011b82810460021483151715620014415762002c3290620029908551918662002802565b5062002bf3565b62002c436200278f565b5080515160018101908181116200144157602083015181101562002c7b575b6078602084519283010153805182116200296657505090565b8160011b82810460021483151715620014415762002ca190620029908551918662002802565b5062002c62565b9062002cb36200278f565b5081515160018101918282116200144157602084015182101562002ce9575b602084519283010153805182116200296657505090565b8260011b83810460021484151715620014415762002d179062002d0f8651918762002802565b508562002e02565b5062002cd2565b9062002d2d8251918362002802565b5062002d386200278f565b5080519062002d466200278f565b5062002d56815183111562002ec9565b8251519262002d66838562002005565b91602092828480940151821162002de6575b518381519782010196821162002ddd575b505001915b8181101562002db05760001991036101000a0190811990511690825116179052565b919262002dd062002dc962002dd7928651815262001fe7565b9462001fe7565b9262001f7c565b62002d8e565b52388062002d89565b62002dfc62002df5836200290d565b8262002d1e565b62002d78565b9062002e0d6200278f565b50805162002e1a6200278f565b5062002e2a825182111562002ec9565b8251519162002e3a828462002005565b602091829182870151811162002ead575b86518381519782010196821162002ea4575b505001915b8181101562002e855760001991036101000a019081199051169082511617905290565b919262002dd062002dc962002e9e928651815262001fe7565b62002e62565b52388062002e5d565b62002ec362002ebc826200290d565b8862002d1e565b62002e4b565b15620002ec57565b815162002f0e92919067ffffffffffffffff8116906017821162002f115762002f059150604060ff84519216179062002ca8565b505b5162002e02565b50565b5060ff811162002f3c5762002f359062002f2c835162002a7d565b508251620032c1565b5062002f07565b61ffff811162002f605762002f359062002f57835162002a0e565b50825162003251565b63ffffffff811162002f865762002f359062002f7d83516200299f565b508251620031df565b62002f359062002f97835162002924565b50825162003169565b815162002f0e92919067ffffffffffffffff8116906017821162002fd45762002f059150606060ff84519216179062002ca8565b5060ff811162002fef5762002f359062002f2c835162002c39565b61ffff81116200300a5762002f359062002f57835162002bca565b63ffffffff8111620030275762002f359062002f7d835162002b5b565b62002f359062002f97835162002aec565b805190620030456200278f565b5081515160018101908181116200144157602084015181101562003098575b609f60208095519283010153805182116200308f575b50500180519060018201809211620014415752565b5238806200307a565b8160011b93828504600214831517156200144157602081620030c58297620028fa609f9551918462002802565b509550505062003064565b805190620030dd6200278f565b5081515160018101908181116200144157602084015181101562003131575b60ff602080955192830101538051821162003128575b5050018051600019810191908211620014415752565b52388062003112565b8160011b938285046002148315171562001441576020816200315e8297620028fa60ff9551918462002802565b5095505050620030fc565b90620031746200278f565b50815151806008019182600811620014415760208401518311620031ba575b60088451928301019067ffffffffffffffff19825116179052805182116200296657505090565b8260011b838104600214841517156200144157620031d9908562002d1e565b62003193565b90620031ea6200278f565b508151518060040191826004116200144157602084015183116200322c575b60048451928301019063ffffffff19825116179052805182116200296657505090565b8260011b8381046002148415171562001441576200324b908562002d1e565b62003209565b906200325c6200278f565b508151518060020191826002116200144157602084015183116200329c575b60028451928301019061ffff19825116179052805182116200296657505090565b8260011b838104600214841517156200144157620032bb908562002d1e565b6200327b565b90620032cc6200278f565b508151518060010191826001116200144157602084015183116200330b575b60018451928301019060ff19825116179052805182116200296657505090565b8260011b8381046002148415171562001441576200332a908562002d1e565b620032eb565b60208151910151906020811062003345575090565b6000199060200360031b1b1690565b601b546801000000000000000081101562000366576200337c600191828101601b5562000734565b9290926200345d5780519067ffffffffffffffff82116200036657620033af82620033a8865462000788565b8662001cf7565b60209081601f8411600114620033ee5750928293918392600094620033e2575b50501b916000199060031b1c1916179055565b015192503880620033cf565b919083601f1981166200340688600052602060002090565b946000905b8883831062003442575050501062003428575b505050811b019055565b015160001960f88460031b161c191690553880806200341e565b8587015188559096019594850194879350908101906200340b565b62000772565b9081518110156200076c570160200190565b80156200354e57806000908282935b6200353757506200349583620003ac565b92620034a5604051948562000389565b80845281601f19620034b783620003ac565b013660208701375b620034ca5750505090565b600019810190811162001441578091600a916200352d62003523620034fb620034f586860662001ff6565b60ff1690565b60f81b7fff000000000000000000000000000000000000000000000000000000000000001690565b861a918762003463565b53049081620034bf565b9262003545600a9162002402565b93048062003484565b506040516200355d816200036c565b600181527f3000000000000000000000000000000000000000000000000000000000000000602082015290565b156200359257565b608460405162461bcd60e51b815260206004820152602d60248201527f4572726f20616f207265746f726e6172206f732066756e646f7320706172612060448201527f6120696e73746974756963616f000000000000000000000000000000000000006064820152fd5b156200360457565b606460405162461bcd60e51b815260206004820152601b60248201527f4572726f20616f207061676172206120696e64656e697a6163616f00000000006044820152fdfe60c0346100ba57601f61076538819003918201601f19168301916001600160401b038311848410176100bf578084926060946040528339810103126100ba57610047816100d5565b906040610056602083016100d5565b9101516001600160601b03811692908390036100ba5760805260a052600180546001600160601b03191691909117905560405161067b90816100ea82396080518181816077015281816101c701526103a3015260a05181818160be015261036a0152f35b600080fd5b634e487b7160e01b600052604160045260246000fd5b51906001600160a01b03821682036100ba5756fe60806040818152600436101561001457600080fd5b600091823560e01c90816301619d3d1461022d57508063230244081461014a57806324380aa8146100e2578063442b12781461009f57637d253aff1461005957600080fd5b3461009b578160031936011261009b57602090516001600160a01b037f0000000000000000000000000000000000000000000000000000000000000000168152f35b5080fd5b503461009b578160031936011261009b57602090516001600160a01b037f0000000000000000000000000000000000000000000000000000000000000000168152f35b503461009b576003198181360112610142576004359067ffffffffffffffff82116101465761014090823603011261014257602435926001600160a01b038416840361013f575060209261013891600401610313565b9051908152f35b80fd5b8280fd5b8380fd5b503461009b57602036600319011261009b57600435906001600160a01b03918281168091036101465760209060646bffffffffffffffffffffffff600154169186855196879485937f23b872dd000000000000000000000000000000000000000000000000000000008552600485015230602485015260448401527f0000000000000000000000000000000000000000000000000000000000000000165af190811561022457506101f9575080f35b6102199060203d811161021d575b6102118183610270565b8101906102a8565b5080f35b503d610207565b513d84823e3d90fd5b83903461009b578160031936011261009b576020906bffffffffffffffffffffffff600154168152f35b35906001600160a01b038216820361026b57565b600080fd5b90601f8019910116810190811067ffffffffffffffff82111761029257604052565b634e487b7160e01b600052604160045260246000fd5b9081602091031261026b5751801515810361026b5790565b9035601e198236030181121561026b57016020813591019167ffffffffffffffff821161026b57813603831361026b57565b908060209392818452848401376000828201840152601f01601f1916010190565b9190916000926101208201356bffffffffffffffffffffffff8116809103610641576040908151927f095ea7b30000000000000000000000000000000000000000000000000000000084526001600160a01b0391827f0000000000000000000000000000000000000000000000000000000000000000169586600487015281602487015260209586816044818d897f0000000000000000000000000000000000000000000000000000000000000000165af180156106375761061a575b508451967f3f678e1100000000000000000000000000000000000000000000000000000000885286600489015261041d61040a83806102c0565b61014060248c01526101648b01916102f2565b8a61044161042d8a8601866102c0565b6023198d8603810160448f015294916102f2565b948761044e8a8701610257565b1660648c0152606085013563ffffffff81168091036101425760848c01528761047960808701610257565b1660a48c015260a08501359060ff8216809203610142576105018c9687956104f16104e58f9b6104c7908a9860c48a01526104b760c08701876102c0565b90868b84030160e48c01526102f2565b6104d460e08601866102c0565b90858a8403016101048b01526102f2565b926101008101906102c0565b91868403016101248701526102f2565b9061014483015203925af19485156106105787956105dd575b508415610580571685528482528420908154916801000000000000000083101561056c57600183018082558310156105585794839495815220015590565b602486634e487b7160e01b81526032600452fd5b602486634e487b7160e01b81526041600452fd5b6064848451907f08c379a00000000000000000000000000000000000000000000000000000000082526004820152601560248201527f6175746f2d617070726f76652064697361626c656400000000000000000000006044820152fd5b9094508381813d8311610609575b6105f58183610270565b810103126106055751933861051a565b8680fd5b503d6105eb565b83513d89823e3d90fd5b61063090873d891161021d576102118183610270565b50386103d0565b86513d8c823e3d90fd5b8480fdfea2646970667358221220b5d5e549faa0f06e6b4c0d541d8329af501ee63625d5b872cb2297c6dbd1556d64736f6c63430008130033a2646970667358221220037d1bf594636c94b804c95295321689474f59773ef4bae67af6a1a8fbbe6b7164736f6c63430008130033a26469706673582212202dc3a1511966b3569107a97b9ddcbc5825fd04c200eb8873abe71b2344825a9d64736f6c63430008130033a26469706673582212204954298b36d3b4fb7e2fa686842e1272d01376ccfb7af9d7e3cdf53220d9ed6864736f6c63430008130033",
  "linkReferences": {},
  "deployedLinkReferences": {}
}