{
  "_format": "hh-sol-artifact-1",
  "contractName": "Institution",
  "sourceName": "contracts/Institution.sol",
  "abi": [
    {
      "inputs": [
        {
          "internalType": "address",
          "name": "_owner",
          "type": "address"
        },
        {
          "internalType": "string[2][]",
          "name": "infoArray",
          "type": "string[2][]"
        }
      ],
      "stateMutability": "nonpayable",
      "type": "constructor"
    },
    {
      "inputs": [],
      "name": "NotOwner",
      "type": "error"
    },
    {
      "anonymous": false,
      "inputs": [
        {
          "indexed": false,
          "internalType": "address",
          "name": "insuranceContractAddress",
          "type": "address"
        }
      ],
      "name": "InsuranceContractCreated",
      "type": "event"
    },
    {
      "inputs": [
        {
          "internalType": "address",
          "name": "",
          "type": "address"
        }
      ],
      "name": "blacklist",
      "outputs": [
        {
          "internalType": "bool",
          "name": "",
          "type": "bool"
        }
      ],
      "stateMutability": "view",
      "type": "function"
    },
    {
      "inputs": [
        {
          "internalType": "address",
          "name": "_farmerAddr",
          "type": "address"
        }
      ],
      "name": "blacklistAddr",
      "outputs": [],
      "stateMutability": "nonpayable",
      "type": "function"
    },
    {
      "inputs": [],
      "name": "contractBalance",
      "outputs": [
        {
          "internalType": "uint256",
          "name": "",
          "type": "uint256"
        }
      ],
      "stateMutability": "view",
      "type": "function"
    },
    {
      "inputs": [
        {
          "internalType": "address",
          "name": "",
          "type": "address"
        },
        {
          "internalType": "uint256",
          "name": "",
          "type": "uint256"
        }
      ],
      "name": "contracts",
      "outputs": [
        {
          "internalType": "contract AutomatedFunctionsConsumer",
          "name": "",
          "type": "address"
        }
      ],
      "stateMutability": "view",
      "type": "function"
    },
    {
      "inputs": [
        {
          "internalType": "address",
          "name": "_deployer",
          "type": "address"
        },
        {
          "internalType": "address",
          "name": "_farmer",
          "type": "address"
        },
        {
          "internalType": "string",
          "name": "_farmName",
          "type": "string"
        },
        {
          "internalType": "uint256",
          "name": "_humidityLimit",
          "type": "uint256"
        },
        {
          "internalType": "uint256",
          "name": "_sampleMaxSize",
          "type": "uint256"
        },
        {
          "internalType": "uint256",
          "name": "_reparationValue",
          "type": "uint256"
        },
        {
          "internalType": "uint256",
          "name": "_updateInterval",
          "type": "uint256"
        },
        {
          "internalType": "address",
          "name": "router",
          "type": "address"
        },
        {
          "internalType": "address",
          "name": "_registry",
          "type": "address"
        },
        {
          "internalType": "address",
          "name": "_sepoliaLINKAddress",
          "type": "address"
        },
        {
          "internalType": "address",
          "name": "_sepoliaRegistrarAddress",
          "type": "address"
        },
        {
          "internalType": "uint32",
          "name": "_fulfillGasLimit",
          "type": "uint32"
        },
        {
          "internalType": "bytes32",
          "name": "_donID",
          "type": "bytes32"
        },
        {
          "internalType": "string",
          "name": "_metricJS",
          "type": "string"
        }
      ],
      "name": "createInsuranceContract",
      "outputs": [],
      "stateMutability": "nonpayable",
      "type": "function"
    },
    {
      "inputs": [
        {
          "internalType": "address",
          "name": "",
          "type": "address"
        }
      ],
      "name": "farmerExists",
      "outputs": [
        {
          "internalType": "bool",
          "name": "",
          "type": "bool"
        }
      ],
      "stateMutability": "view",
      "type": "function"
    },
    {
      "inputs": [
        {
          "internalType": "uint8",
          "name": "",
          "type": "uint8"
        },
        {
          "internalType": "uint256",
          "name": "",
          "type": "uint256"
        }
      ],
      "name": "farmers",
      "outputs": [
        {
          "internalType": "address",
          "name": "",
          "type": "address"
        }
      ],
      "stateMutability": "view",
      "type": "function"
    },
    {
      "inputs": [],
      "name": "getAllFarmers",
      "outputs": [
        {
          "internalType": "address[]",
          "name": "",
          "type": "address[]"
        }
      ],
      "stateMutability": "view",
      "type": "function"
    },
    {
      "inputs": [
        {
          "internalType": "address",
          "name": "_farmerAddress",
          "type": "address"
        }
      ],
      "name": "getAllInsuranceContracts",
      "outputs": [
        {
          "internalType": "contract AutomatedFunctionsConsumer[]",
          "name": "",
          "type": "address[]"
        }
      ],
      "stateMutability": "view",
      "type": "function"
    },
    {
      "inputs": [],
      "name": "im_owner",
      "outputs": [
        {
          "internalType": "address",
          "name": "",
          "type": "address"
        }
      ],
      "stateMutability": "view",
      "type": "function"
    },
    {
      "inputs": [
        {
          "internalType": "string",
          "name": "",
          "type": "string"
        }
      ],
      "name": "info",
      "outputs": [
        {
          "internalType": "string",
          "name": "",
          "type": "string"
        }
      ],
      "stateMutability": "view",
      "type": "function"
    },
    {
      "inputs": [
        {
          "internalType": "uint256",
          "name": "",
          "type": "uint256"
        }
      ],
      "name": "infoKeys",
      "outputs": [
        {
          "internalType": "string",
          "name": "",
          "type": "string"
        }
      ],
      "stateMutability": "view",
      "type": "function"
    },
    {
      "inputs": [],
      "name": "institutionName",
      "outputs": [
        {
          "internalType": "string",
          "name": "",
          "type": "string"
        }
      ],
      "stateMutability": "view",
      "type": "function"
    },
    {
      "inputs": [
        {
          "internalType": "string[2][]",
          "name": "infoArray",
          "type": "string[2][]"
        }
      ],
      "name": "registerInfo",
      "outputs": [],
      "stateMutability": "nonpayable",
      "type": "function"
    },
    {
      "inputs": [
        {
          "internalType": "address",
          "name": "",
          "type": "address"
        }
      ],
      "name": "whitelist",
      "outputs": [
        {
          "internalType": "bool",
          "name": "",
          "type": "bool"
        }
      ],
      "stateMutability": "view",
      "type": "function"
    },
    {
      "inputs": [
        {
          "internalType": "address",
          "name": "_farmerAddr",
          "type": "address"
        }
      ],
      "name": "whitelistAddr",
      "outputs": [],
      "stateMutability": "nonpayable",
      "type": "function"
    },
    {
      "inputs": [
        {
          "internalType": "uint256",
          "name": "amount",
          "type": "uint256"
        }
      ],
      "name": "withdraw",
      "outputs": [],
      "stateMutability": "nonpayable",
      "type": "function"
    },
    {
      "stateMutability": "payable",
      "type": "receive"
    }
  ],
  "bytecode": "0x60a060405234620002e15762005999803803806200001d81620002fb565b9283396040828281010312620002e1578151906001600160a01b0382168203620002e1576020830151926001600160401b038411620002e157818101601f858301011215620002e15780840151936001600160401b038511620001a1578460051b9160206200008e818501620002fb565b809781520193808201602085858501010111620002e157602083830101945b60208585850101018610620001de57878760805260005b8151811015620001b7576200011b6020620000e0838562000346565b5101516200010b6020620000f5858762000346565b5151816040519382858094519384920162000321565b810160028152030190206200035b565b62000127818362000346565b5151600190815468010000000000000000811015620001a1578281018084558110156200018b5762000162926000526020600020016200035b565b60001981146200017557600101620000c4565b634e487b7160e01b600052601160045260246000fd5b634e487b7160e01b600052603260045260246000fd5b634e487b7160e01b600052604160045260246000fd5b6040516154ef9081620004aa8239608051818181610232015281816104850152610cf40152f35b85516001600160401b038111620002e157828401603f8287870101011215620002e15760408051919082016001600160401b03811183821017620002e65760405281848601606083898901010111620002e1576020828888010101905b606083898901010182106200025c57505050815260209586019501620000ad565b81516001600160401b038111620002e15783898901010190868801603f83011215620002e1576020820151906001600160401b038211620002e657620002ac601f8301601f1916602001620002fb565b828152888a0160408486010111620002e157620002d56020949385946040868501910162000321565b8152019101906200023b565b600080fd5b60246000634e487b7160e01b81526041600452fd5b6040519190601f01601f191682016001600160401b03811183821017620001a157604052565b60005b838110620003355750506000910152565b818101518382015260200162000324565b80518210156200018b5760209160051b010190565b81519091906001600160401b038111620001a157825460019283821691841c8215620004a0575b602092838210146200048a57601f81116200043c575b5081601f8411600114620003d55750928293918392600094620003c9575b50501b916000199060031b1c1916179055565b015192503880620003b6565b919083601f1981168760005284600020946000905b8883831062000421575050501062000407575b505050811b019055565b015160001960f88460031b161c19169055388080620003fd565b858701518855909601959485019487935090810190620003ea565b8560005282600020601f850160051c8101918486106200047f575b601f0160051c019085905b8281106200047257505062000398565b6000815501859062000462565b909150819062000457565b634e487b7160e01b600052602260045260246000fd5b607f166200038256fe608060405260043610156200001d575b36156200001b57600080fd5b005b60003560e01c8063080a57f91462000e8957806317fab0a01462000da85780632e1a7d4d1462000cd75780633a133e2c1462000be85780633f0f912d1462000b2b5780634224cf561462000ae8578063536954e414620009f557806366fbd01514620006c25780638a699f00146200066d5780638b7afe2e146200064f57806390c067cd14620005fb57806390f6d37814620004ec5780639b19251a14620004a9578063af6081de1462000463578063dfb50e641462000197578063ed23f8c314620001365763f9f92be4036200000f57346200013157602036600319011262000131576001600160a01b036200011362000ede565b166000526004602052602060ff604060002054166040519015158152f35b600080fd5b346200013157604036600319011262000131576200015362000ede565b602435906001600160a01b038091166000526005602052604060002080548310156200013157602092620001879162001059565b9190546040519260031b1c168152f35b3462000131576020366003190112620001315767ffffffffffffffff60043511620001315736602360043501121562000131576004356004013567ffffffffffffffff81116200044d578060051b9060405190620001f9602084018362000ef5565b81526020810160249236848260043501011162000131578360043501915b84826004350101831062000376575050506001600160a01b037f00000000000000000000000000000000000000000000000000000000000000001633036200034c5760005b81518110156200001b57620002b3602062000278838562001072565b510151620002a360206200028d858762001072565b5151816040519382858094519384920162000f82565b8101600281520301902062001087565b620002bf818362001072565b51516001805468010000000000000000811015620003375781620002e792820190556200100b565b9190916200032257620002fa9162001087565b60001981146200030d576001016200025c565b82634e487b7160e01b60005260116004526000fd5b84634e487b7160e01b60005260006004526000fd5b85634e487b7160e01b60005260416004526000fd5b60046040517f30cd7471000000000000000000000000000000000000000000000000000000008152fd5b823567ffffffffffffffff8111620001315736604382600435010112156200013157604051906040820182811067ffffffffffffffff821117620004385760405260043581016064019082368311620001315790889493929185826004350101905b838210620003f6575050509082525060209384019301905062000217565b9091929394955067ffffffffffffffff82351162000131576020809162000427368d86358860043501010162000f35565b8152019101899594939291620003d8565b87634e487b7160e01b60005260416004526000fd5b634e487b7160e01b600052604160045260246000fd5b3462000131576000366003190112620001315760206040516001600160a01b037f0000000000000000000000000000000000000000000000000000000000000000168152f35b346200013157602036600319011262000131576001600160a01b03620004ce62000ede565b166000526003602052602060ff604060002054166040519015158152f35b346200013157602080600319360112620001315760043590600191825481101562000131576200051c906200100b565b620005e5576040518093600090835493620005378562000fa7565b94858552868382169182600014620005c15750506001146200057e575b5050620005649250038362000ef5565b6200057a60405192828493845283019062000fe4565b0390f35b85925060005281600020906000915b858310620005a8575050620005649350820101858062000554565b805483890185015287945086939092019181016200058d565b92509350506200056494915060ff191682840152151560051b820101858062000554565b634e487b7160e01b600052600060045260246000fd5b3462000131576040366003190112620001315760043560ff8116809103620001315760243590600052600660205260406000209081548110156200013157620001876001600160a01b039160209362001059565b34620001315760003660031901126200013157602047604051908152f35b346200013157602036600319011262000131576001600160a01b036200069262000ede565b166000526003602052604060002060ff199081815416905560046020526001604060002091825416179055600080f35b3462000131576101c0806003193601126200013157620006e162000ede565b90602435916001600160a01b0390818416809403620001315767ffffffffffffffff9260443584811162000131576200071f90369060040162000f35565b9060e43592848416809403620001315761010435858116809103620001315761012435968688168098036200013157610144359087821680920362000131576101643563ffffffff811680910362000131576101a43582811162000131576200078d90369060040162000f35565b928b60005260209a60038c5260ff60406000205416156200098b576040519861431290818b01958b8710908711176200044d578a998f8f8f620008449c620007eb968f620011a8903916895288015280604088015286019062000fe4565b956064356060860152608435608086015260a4359a8b60a087015260c43560c087015260e0860152610100850152610120840152610140830152610160820152610184356101808201526101a081840391015262000fe4565b0391f09283156200097f57806000526005835260406000209384546801000000000000000095868210156200044d578162000889916001620008ab9401815562001059565b94909216809483549060031b916001600160a01b03809116831b921b19161790565b9055806000526007835260ff6040600020541615620008f1575b7fa155a575082ecf596e5a22a44834be92670605d1d0832000305888ba02a462d98383604051908152a1005b600080526006835260406000208054948510156200044d576200095f6200094186849360017fa155a575082ecf596e5a22a44834be92670605d1d0832000305888ba02a462d99901815562001059565b819391549060031b916001600160a01b03809116831b921b19161790565b9055600052600782526040600020600160ff1982541617905583620008c5565b6040513d6000823e3d90fd5b60848c6040519062461bcd60e51b82526004820152602160248201527f456e64657265636f206e616f2065737461206e61206c69737461206272616e6360448201527f61000000000000000000000000000000000000000000000000000000000000006064820152fd5b34620001315760003660031901126200013157600660209081526040517f54cdd369e4e8a8515e52ca72ec816c2101831ad1f18bf44102ed171459c9b4f8805480835260009182528284019182917ff1ca0f4808f7f0c52440675894727c9e66265266cd1e1f5015f8b745ca2de5f3915b8682821062000aca57868662000a7f8288038362000ef5565b604051928392818401908285525180915260408401929160005b82811062000aa957505050500390f35b83516001600160a01b03168552869550938101939281019260010162000a99565b83546001600160a01b03168552909301926001928301920162000a66565b346200013157602036600319011262000131576001600160a01b0362000b0d62000ede565b166000526007602052602060ff604060002054166040519015158152f35b34620001315760208060031936011262000131576001600160a01b03908162000b5362000ede565b1660005260058152604060002060405191828183549182815201908193600052826000209060005b81811062000bd1575050508362000b9491038462000ef5565b60405192818401908285525180915260408401929160005b82811062000bba5785850386f35b835187168552938101939281019260010162000bac565b825488168452928401926001928301920162000b7b565b346200013157600036600319011262000131576040516000805462000c0d8162000fa7565b8084529060019081811690811562000cae575060011462000c51575b6200057a8462000c3c8186038262000ef5565b60405191829160208352602083019062000fe4565b600080805292507f290decd9548b62a8d60345a988386fc84ba6bc95484008f6362f93160ef3e5635b82841062000c9557505050810160200162000c3c8262000c29565b8054602085870181019190915290930192810162000c7a565b60ff191660208087019190915292151560051b8501909201925062000c3c915083905062000c29565b346200013157602036600319011262000131576001600160a01b037f0000000000000000000000000000000000000000000000000000000000000000168033036200034c57600080808093600435905af13d1562000da2573d62000d3b8162000f18565b9062000d4b604051928362000ef5565b8152600060203d92013e5b1562000d5e57005b606460405162461bcd60e51b815260206004820152601060248201527f5769746864726177206661696c65642e000000000000000000000000000000006044820152fd5b62000d56565b346200013157602080600319360112620001315760043567ffffffffffffffff811162000131578162000de462000df892369060040162000f35565b816040519382858094519384920162000f82565b810160028152030190209060405191826000825462000e178162000fa7565b93848452600191868382169182600014620005c157505060011462000e46575050620005649250038362000ef5565b85925060005281600020906000915b85831062000e70575050620005649350820101858062000554565b8054838901850152879450869390920191810162000e55565b346200013157602036600319011262000131576001600160a01b0362000eae62000ede565b166000526003602052604060002060ff199060018282541617905560046020526040600020908154169055600080f35b600435906001600160a01b03821682036200013157565b90601f8019910116810190811067ffffffffffffffff8211176200044d57604052565b67ffffffffffffffff81116200044d57601f01601f191660200190565b81601f82011215620001315780359062000f4f8262000f18565b9262000f5f604051948562000ef5565b828452602083830101116200013157816000926020809301838601378301015290565b60005b83811062000f965750506000910152565b818101518382015260200162000f85565b90600182811c9216801562000fd9575b602083101462000fc357565b634e487b7160e01b600052602260045260246000fd5b91607f169162000fb7565b9060209162000fff8151809281855285808601910162000f82565b601f01601f1916010190565b600154811015620010435760016000527fb10e2d527612073b26eecdfd717e6a320cf44b4afac2b0732d9fcbe2b7fa0cf60190600090565b634e487b7160e01b600052603260045260246000fd5b8054821015620010435760005260206000200190600090565b8051821015620010435760209160051b010190565b919091825167ffffffffffffffff81116200044d57620010a8825462000fa7565b601f81116200115a575b50602080601f8311600114620010f2575081929394600092620010e6575b50508160011b916000199060031b1c1916179055565b015190503880620010d0565b90601f198316958460005282600020926000905b888210620011415750508360019596971062001127575b505050811b019055565b015160001960f88460031b161c191690553880806200111d565b8060018596829496860151815501950193019062001106565b600083815260208120601f840160051c810192602085106200119c575b601f0160051c01915b82811062001190575050620010b2565b81815560010162001180565b90925082906200117756fe60c06040526200431280380380620000178162000556565b92833981016101c082820312620005515762000033826200057c565b62000041602084016200057c565b60408401516001600160401b0381116200055157836200006391860162000591565b93606081015194608082015160a083015160c0840151916200008860e086016200057c565b986200009861010087016200057c565b94620000a861012088016200057c565b97620000b861014089016200057c565b996101608901519863ffffffff8a168a0362000551576101808101516101a0820151909d906001600160401b0381116200055157620000f8920162000591565b6001600160a01b039d8e166080529c8116156200050c57600080546001600160a01b03199081166001600160a01b039390931692831790915560028054909116909117905560108054610100600160a81b03191660089290921b610100600160a81b03169190911790558051906001600160401b038211620004005760115490600182811c9216801562000501575b6020831014620003df5781601f849311620004a0575b50602090601f8311600114620004225760009262000416575b50508160011b916000199060031b1c1916176011555b6013556014556012556005556001600160a01b0390811660a0526004805463ffffffff60401b191660409390931b6bffffffff0000000000000000169290921790915560068054610100600160a81b03191660089390931b610100600160a81b031692909217909155600780546001600160a01b0319169290911691909117905542600c55600b5580516001600160401b0381116200040057601654600181811c91168015620003f5575b6020821014620003df57601f811162000375575b50602091601f82116001146200030b57918192600092620002ff575b50508160011b916000199060031b1c1916176016555b60ff19806010541660105560065416600655604051613cee908162000604823960805181818161075a0152610d58015260a051818181610faa015261141b0152f35b015190503880620002a7565b601f19821692601660005260206000209160005b8581106200035c5750836001951062000342575b505050811b01601655620002bd565b015160001960f88460031b161c1916905538808062000333565b919260206001819286850151815501940192016200031f565b60166000527fd833147d7dc355ba459fc788f669e58cfaf9dc25ddcd0702e87d69c7b5124289601f830160051c81019160208410620003d4575b601f0160051c01905b818110620003c757506200028b565b60008155600101620003b8565b9091508190620003af565b634e487b7160e01b600052602260045260246000fd5b90607f169062000277565b634e487b7160e01b600052604160045260246000fd5b015190503880620001b6565b601160009081529350600080516020620042f283398151915291905b601f198416851062000484576001945083601f198116106200046a575b505050811b01601155620001cc565b015160001960f88460031b161c191690553880806200045b565b818101518355602094850194600190930192909101906200043e565b6011600052909150600080516020620042f2833981519152601f840160051c810160208510620004f9575b90849392915b601f830160051c82018110620004e95750506200019d565b60008155859450600101620004d1565b5080620004cb565b91607f169162000187565b60405162461bcd60e51b815260206004820152601860248201527f43616e6e6f7420736574206f776e657220746f207a65726f00000000000000006044820152606490fd5b600080fd5b6040519190601f01601f191682016001600160401b038111838210176200040057604052565b51906001600160a01b03821682036200055157565b919080601f84011215620005515782516001600160401b0381116200040057602090620005c7601f8201601f1916830162000556565b92818452828287010111620005515760005b818110620005ef57508260009394955001015290565b8581018301518482018401528201620005d956fe608060405260043610156200001d575b36156200001b57600080fd5b005b60003560e01c806303e7810314620002a4578063089ea02e146200029e57806309c1ba2e14620002985780630ca7617514620002925780631243bcc3146200028c57806324b93e3e14620002865780632fc2a7b91462000280578063338cdca1146200027a578063381fc4b514620002745780633f678e11146200026e5780634305b96214620002685780634585e33b146200026257806348802b92146200025c57806348bd6f05146200025657806362ed90361462000250578063688ecfd1146200024a5780636baa48fe14620002445780636e04ff0d146200023e5780636e74336b146200023857806379ba509714620002325780637b103999146200022c5780638b7afe2e14620002265780638d7e6d2d14620002205780638da5cb5b146200021a578063a30971391462000214578063b1e21749146200020e578063cff0888a1462000208578063d2aa789f1462000202578063d5f3948814620001fc578063d811fcf014620001f6578063ea7b4f7714620001f0578063ebf14a5514620001ea578063f2fde38b14620001e4578063f5ce1f2614620001de578063fd2c80ae14620001d85763fec15fd1036200000f5762001b0b565b62001aeb565b62001a73565b62001924565b620018d8565b62001898565b6200186c565b62001843565b62001823565b62001791565b62001771565b62001751565b62001728565b62001493565b6200143f565b620013f9565b62001315565b620012f5565b62001277565b6200124e565b62001199565b62001073565b62001053565b62001033565b62000cac565b62000bcc565b62000a30565b62000a10565b6200095b565b62000932565b62000909565b620008dd565b620006fc565b62000668565b62000648565b62000551565b6000910312620002b657565b600080fd5b634e487b7160e01b600052600060045260246000fd5b90600182811c9216801562000303575b6020831014620002ed57565b634e487b7160e01b600052602260045260246000fd5b91607f1691620002e1565b634e487b7160e01b600052604160045260246000fd5b67ffffffffffffffff81116200033957604052565b6200030e565b6040810190811067ffffffffffffffff8211176200033957604052565b90601f8019910116810190811067ffffffffffffffff8211176200033957604052565b60405190600082601654916200039583620002d1565b80835292600190818116908115620004255750600114620003c2575b50620003c0925003836200035c565b565b6016600090815291507fd833147d7dc355ba459fc788f669e58cfaf9dc25ddcd0702e87d69c7b51242895b848310620004095750620003c0935050810160200138620003b1565b81935090816020925483858a01015201910190918592620003ed565b905060209250620003c094915060ff191682840152151560051b82010138620003b1565b90604051918260008254926200045f84620002d1565b908184526001948581169081600014620004d457506001146200048d575b5050620003c0925003836200035c565b9093915060005260209081600020936000915b818310620004bb575050620003c0935082010138806200047d565b85548884018501529485019487945091830191620004a0565b915050620003c094506020925060ff191682840152151560051b82010138806200047d565b919082519283825260005b84811062000526575050826000602080949584010152601f8019910116010190565b60208183018101518483018201520162000504565b9060206200054e928181520190620004f9565b90565b34620002b657600080600319360112620006455760405190806011546200057881620002d1565b80855291600191808316908115620006185750600114620005b8575b620005b485620005a7818703826200035c565b604051918291826200053b565b0390f35b9250601183527f31ecc21a745e3968a04e9570e4425bc18fa8019c68028196b546d1669c200c685b828410620005ff575050508101602001620005a782620005b462000594565b80546020858701810191909152909301928101620005e0565b869550620005b496935060209250620005a794915060ff191682840152151560051b820101929362000594565b80fd5b34620002b6576000366003190112620002b6576020600c54604051908152f35b34620002b6576000366003190112620002b657602067ffffffffffffffff60045416604051908152f35b67ffffffffffffffff81116200033957601f01601f191660200190565b81601f82011215620002b657803590620006c98262000692565b92620006d960405194856200035c565b82845260208383010111620002b657816000926020809301838601378301015290565b34620002b6576060366003190112620002b65767ffffffffffffffff602435818111620002b65762000733903690600401620006af565b90604435908111620002b6576200074f903690600401620006af565b506001600160a01b037f0000000000000000000000000000000000000000000000000000000000000000163303620008b35760105460ff166200086a576200083c620007c6620007c07f5b3884247b2d692220a28e85c6452382a57294c08a90bce16e4978698181adb693620031b4565b620032f2565b600080526015602052620007fb817fa31547ce6245cdb9ecea19cf8c7eb9f5974025bb4075011409251ae855b30aed620031d8565b60016000526015602052620005a77f27739e4bb5e6f8b5e4b57a047dca8767cc9b982a011081e086cbb0dfa9de818d6200083542620032f2565b90620031d8565b0390a15b6004357f85e1543bf2f84fe80c6badbce3648c8539ad1df4d2b3d822938ca0538be727e6600080a2005b6020620008987f5f45b8e77291dfc632c52ceb5f6e5b643b77e04e0a683db296eaf8d71e41e16592620031b4565b80601755604051908152a1620008ad62003453565b62000840565b60046040517fc6829f83000000000000000000000000000000000000000000000000000000008152fd5b34620002b6576000366003190112620002b65760206001600160a01b0360065460081c16604051908152f35b34620002b6576000366003190112620002b657602060045463ffffffff6040519160401c168152f35b34620002b6576000366003190112620002b65760206001600160a01b0360085416604051908152f35b34620002b65760008060031936011262000645576040519080600a546200098281620002d1565b80855291600191808316908115620006185750600114620009b057620005b485620005a7818703826200035c565b9250600a83527fc65a7bb8d6351c1cf70c95a316cc6a92839c986682d98bc35f958f4883f9d2a85b828410620009f7575050508101602001620005a782620005b462000594565b80546020858701810191909152909301928101620009d8565b34620002b6576000366003190112620002b6576020600d54604051908152f35b34620002b657600319602036820112620002b6576004359067ffffffffffffffff8211620002b657610140908236030112620002b657602062000adb60009262000a9f62000a9362000a936001600160a01b03600854166001600160a01b031690565b6001600160a01b031690565b906040519485809481937f24380aa800000000000000000000000000000000000000000000000000000000835230906004016004840162001cf0565b03925af1801562000b605762000afa9160009162000b2b575b50600955565b6009546040519081527f7623383a750b4166574a1b2dff61440ed0dfa3708cbe620c58339cca510d1af990602090a1005b62000b51915060203d811162000b58575b62000b4881836200035c565b81019062001c78565b3862000af4565b503d62000b3c565b62001c52565b602080820190808352835180925260408301928160408460051b8301019501936000915b84831062000b9b5750505050505090565b909192939495848062000bbb600193603f198682030187528a51620004f9565b980193019301919493929062000b8a565b34620002b6576000806003193601126200064557808052602060158152604082209182549067ffffffffffffffff82116200033957926040519262000c17818460051b01856200035c565b82845280840191855280852094915b83831062000c3e5760405180620005b4878262000b66565b600182819262000c4e8962000449565b81520196019201919462000c26565b906020600319830112620002b65760043567ffffffffffffffff92838211620002b65780602383011215620002b6578160040135938411620002b65760248483010111620002b6576024019190565b34620002b65762000cbd3662000c5d565b505062000cce600954151562001e9a565b62000cd842600c55565b6014546000805260156020527fa31547ce6245cdb9ecea19cf8c7eb9f5974025bb4075011409251ae855b30aed541162000ea35762000d4a6020600454600b5490604051938492839263230e93b160e11b845267ffffffffffffffff63ffffffff8260401c1691166004850162002077565b038160006001600160a01b037f0000000000000000000000000000000000000000000000000000000000000000165af16000918162000e7e575b5062000e375750600162000d9762001fae565b6308c379a01462000dde575b62000daa57005b7f9c4bfa18304482256875c29fabb1a44a5ecd325f214ea17bab8f31e869faf4c862000dd9620005a762002042565b0390a1005b62000de862001fcd565b8062000df6575b5062000da3565b90507f2ba61e3733e7ac99181c22307780f651ec8fd92fe661a84dfbe711710b2dc36c62000e2d600092604051918291826200053b565b0390a13862000def565b62000e4181600e55565b62000e5762000e52600f5462001f73565b600f55565b7f1131472297a800fee664d1d89cfa8f7676ff07189ecc53f80bbb5f4969099db8600080a2005b62000e9b91925060203d811162000b585762000b4881836200035c565b903862000d84565b60ff62000eb260105460ff1690565b1662000f715762000ecb600160ff196010541617601055565b62000f3362000ed962001ee6565b62000eee62000ee76200037f565b8262002599565b60008052601560205262000f2d62000f267fa31547ce6245cdb9ecea19cf8c7eb9f5974025bb4075011409251ae855b30aed62001beb565b82620025db565b6200235c565b6020600454600b549262000d4a604051948593849363230e93b160e11b855267ffffffffffffffff63ffffffff8360401c1692166004860162001f31565b6009546040518181527f8b7f9ec922f0b687c5e247d2d3d200d803f027d886a5a0bdf49c6747b9c9ec4c90602090a16001600160a01b037f000000000000000000000000000000000000000000000000000000000000000016803b15620002b6576040517fc804802200000000000000000000000000000000000000000000000000000000815260048101929092526000908290602490829084905af1801562000b60576200101c57005b806200102c6200001b9262000324565b80620002aa565b34620002b6576000366003190112620002b6576020600f54604051908152f35b34620002b6576000366003190112620002b6576020601254604051908152f35b34620002b657602080600319360112620002b65767ffffffffffffffff600435818111620002b657620010ab903690600401620006af565b9182519182116200033957620010ce82620010c8600354620002d1565b62001b47565b80601f83116001146200110d5750819260009262001101575b50508160011b916000199060031b1c191617600355600080f35b015190503880620010e7565b90601f198316936200114160036000527fc2575a0e9e593c00f959f8c92f12db2869c3395a3b0502d05e2516446f71f85b90565b926000905b86821062001180575050836001951062001166575b505050811b01600355005b015160001960f88460031b161c191690553880806200115b565b8060018596829496860151815501950193019062001146565b34620002b65760008060031936011262000645576040519080600354620011c081620002d1565b80855291600191808316908115620006185750600114620011ee57620005b485620005a7818703826200035c565b9250600383527fc2575a0e9e593c00f959f8c92f12db2869c3395a3b0502d05e2516446f71f85b5b82841062001235575050508101602001620005a782620005b462000594565b8054602085870181019190915290930192810162001216565b34620002b6576000366003190112620002b65760206001600160a01b0360075416604051908152f35b34620002b657620012883662000c5d565b5050600c544203428111620012ef576005541060405190815260206040818301528160609182519081604084015260005b828110620012d95750506000828201840152601f01601f19168101030190f35b60808101518682018601528593508101620012b9565b62001e74565b34620002b6576000366003190112620002b6576020600b54604051908152f35b34620002b65760008060031936011262000645576001600160a01b0380600154163303620013b55781546001600160a01b03166000805473ffffffffffffffffffffffffffffffffffffffff191633179055906200138b73ffffffffffffffffffffffffffffffffffffffff1960015416600155565b3391167f8be0079c531659141344cd1fd0a4f28419497f9722a3daafe3b4186f6b6457e08380a380f35b606460405162461bcd60e51b815260206004820152601660248201527f4d7573742062652070726f706f736564206f776e6572000000000000000000006044820152fd5b34620002b6576000366003190112620002b65760206040516001600160a01b037f0000000000000000000000000000000000000000000000000000000000000000168152f35b34620002b6576000366003190112620002b657602047604051908152f35b600435906bffffffffffffffffffffffff82168203620002b657565b35906bffffffffffffffffffffffff82168203620002b657565b34620002b6576020366003190112620002b657620014b06200145d565b60065460081c6001600160a01b031690620014d36007546001600160a01b031690565b91604051926107658085019185831067ffffffffffffffff84111762000339578593620015319386936200355487396001600160a01b039182168152911660208201526bffffffffffffffffffffffff909116604082015260600190565b0360009283f0801562000b60576200160391620015736020926001600160a01b031673ffffffffffffffffffffffffffffffffffffffff196008541617600855565b6200159262000a9362000a936006546001600160a01b039060081c1690565b620015a962000a936008546001600160a01b031690565b856040518096819582947f095ea7b3000000000000000000000000000000000000000000000000000000008452600484019092916bffffffffffffffffffffffff6020916001600160a01b03604085019616845216910152565b03925af1801562000b6057620016f3575b506200162c62000a936008546001600160a01b031690565b803b15620016ef576040517f230244080000000000000000000000000000000000000000000000000000000081523060048201529082908290602490829084905af1801562000b6057620016d8575b507f3583c1105fd29a46b4d92ceeaff8be03cba58a11cce44a3b7da77bbc3798edc4620016d2620016b862000a936008546001600160a01b031690565b6040516001600160a01b0390911681529081906020820190565b0390a180f35b806200102c620016e89262000324565b386200167b565b5080fd5b620017189060203d811162001720575b6200170f81836200035c565b81019062001c5e565b503862001614565b503d62001703565b34620002b6576000366003190112620002b65760206001600160a01b0360005416604051908152f35b34620002b6576000366003190112620002b6576020601354604051908152f35b34620002b6576000366003190112620002b6576020600e54604051908152f35b34620002b6576000806003193601126200064557600190818152602060158152604082209182549167ffffffffffffffff831162000339576040519391620017e0600585901b8301866200035c565b8385529182528082208185015b848410620018055760405180620005b4888262000b66565b86838192620018148562000449565b815201920193019290620017ed565b34620002b6576000366003190112620002b6576020600954604051908152f35b34620002b6576000366003190112620002b65760206001600160a01b0360025416604051908152f35b34620002b6576000366003190112620002b65760206001600160a01b0360105460081c16604051908152f35b34620002b6576020366003190112620002b65760043567ffffffffffffffff8116809103620002b65767ffffffffffffffff196004541617600455600080f35b34620002b6576000366003190112620002b6576020601454604051908152f35b600435906001600160a01b0382168203620002b657565b35906001600160a01b0382168203620002b657565b34620002b6576020366003190112620002b65762001941620018f8565b6001600160a01b03806000541691823303620019eb571690338214620019a7578173ffffffffffffffffffffffffffffffffffffffff1960015416176001557fed8889f560326eb138920d842192f0eb3dd22b4f139c87a2c57538e05bae1278600080a3005b606460405162461bcd60e51b815260206004820152601760248201527f43616e6e6f74207472616e7366657220746f2073656c660000000000000000006044820152fd5b606460405162461bcd60e51b815260206004820152601660248201527f4f6e6c792063616c6c61626c65206279206f776e6572000000000000000000006044820152fd5b359060ff82168203620002b657565b634e487b7160e01b600052603260045260246000fd5b805482101562001a6d5760005260206000200190600090565b62001a3e565b34620002b6576040366003190112620002b65760043560ff8116809103620002b6576024359060005260156020526040600020908154811015620002b65762001abc9162001a54565b62001ae55762001ad0620005b49162000449565b604051918291602083526020830190620004f9565b620002bb565b34620002b6576000366003190112620002b6576020600554604051908152f35b34620002b6576000366003190112620002b657602060ff60065416604051908152f35b81811062001b3a575050565b6000815560010162001b2e565b90601f821162001b55575050565b620003c09160036000527fc2575a0e9e593c00f959f8c92f12db2869c3395a3b0502d05e2516446f71f85b906020601f840160051c8301931062001ba2575b601f0160051c019062001b2e565b909150819062001b94565b9190601f811162001bbd57505050565b620003c0926000526020600020906020601f840160051c8301931062001ba257601f0160051c019062001b2e565b90815467ffffffffffffffff8111620003395760405192602062001c15818460051b01866200035c565b82855260009182528082208186015b84841062001c33575050505050565b600183819262001c438562000449565b81520192019301929062001c24565b6040513d6000823e3d90fd5b90816020910312620002b657518015158103620002b65790565b90816020910312620002b6575190565b9035601e1982360301811215620002b657016020813591019167ffffffffffffffff8211620002b6578136038313620002b657565b908060209392818452848401376000828201840152601f01601f1916010190565b359063ffffffff82168203620002b657565b92916020620003c0926040865262001e6462001e4e62001d3262001e468962001d1a868062001c88565b93906101409485604085015261018084019162001cbd565b9262001dff62001d5e62001d498a8a018a62001c88565b603f1986890381016060880152979162001cbd565b62001d8062001d7060408b016200190f565b6001600160a01b03166080860152565b62001d9f62001d9260608b0162001cde565b63ffffffff1660a0860152565b62001dc162001db160808b016200190f565b6001600160a01b031660c0860152565b62001ddd62001dd360a08b0162001a2f565b60ff1660e0860152565b62001dec60c08a018a62001c88565b8583038801610100968701529062001cbd565b938c62001e3662001e2c62001e1860e08c018c62001c88565b610120999186868403018b87015262001cbd565b948a018a62001c88565b9390928286030191015262001cbd565b930162001479565b6bffffffffffffffffffffffff16610160880152565b9401906001600160a01b03169052565b634e487b7160e01b600052601160045260246000fd5b601f19810191908211620012ef57565b1562001ea257565b606460405162461bcd60e51b815260206004820152601560248201527f55706b656570206e6f74207265676973746572656400000000000000000000006044820152fd5b6040519060e0820182811067ffffffffffffffff8211176200033957604052606060c08360008152600060208201526000604082015282808201528260808201528260a08201520152565b9062001f6160809367ffffffffffffffff63ffffffff939897969816845260a0602085015260a0840190620004f9565b95600160408401521660608201520152565b9060018201809211620012ef57565b9060208201809211620012ef57565b6030019081603011620012ef57565b91908201809211620012ef57565b60009060033d1162001fbc57565b905060046000803e60005160e01c90565b600060443d106200054e57604051600319913d83016004833e815167ffffffffffffffff918282113d602484011117620020315781840194855193841162002039573d850101602084870101116200203157506200054e929101602001906200035c565b949350505050565b50949350505050565b3d1562002072573d90620020568262000692565b916200206660405193846200035c565b82523d6000602084013e565b606090565b9067ffffffffffffffff909493929416815260209360a085830152600060035495620020a387620002d1565b908160a086015260019788811690816000146200213e5750600114620020df575b5050604083019590955263ffffffff16606082015260800152565b600360009081529250877fc2575a0e9e593c00f959f8c92f12db2869c3395a3b0502d05e2516446f71f85b5b838510620021285750505050820160c0018163ffffffff620020c4565b805487860160c00152938201938991016200210b565b60ff191660c08781019190915292151560051b8601909201925083915063ffffffff9050620020c4565b6040519062002177826200033f565b600c82527f636f64654c6f636174696f6e00000000000000000000000000000000000000006020830152565b634e487b7160e01b600052602160045260246000fd5b60031115620021c457565b620021a3565b60405190620021d9826200033f565b600882527f6c616e67756167650000000000000000000000000000000000000000000000006020830152565b60011115620021c457565b604051906200221f826200033f565b600682527f736f7572636500000000000000000000000000000000000000000000000000006020830152565b604051906200225a826200033f565b600482527f61726773000000000000000000000000000000000000000000000000000000006020830152565b6000198114620012ef5760010190565b805182101562001a6d5760209160051b010190565b60405190620022ba826200033f565b600f82527f736563726574734c6f636174696f6e00000000000000000000000000000000006020830152565b60405190620022f5826200033f565b600782527f73656372657473000000000000000000000000000000000000000000000000006020830152565b6040519062002330826200033f565b600982527f62797465734172677300000000000000000000000000000000000000000000006020830152565b620023666200262f565b906200237c6200237562002168565b8362002e24565b6200239f81516200238d81620021b9565b6200239881620021b9565b83620026df565b620023ad62002375620021ca565b620023cc6040820151620023c18162002205565b620023988162002205565b620023da6200237562002210565b620023ea60608201518362002e24565b60a0810180515162002530575b50608081019081515162002482575b60c09150018051516200241a575b50515190565b91620024296200237562002321565b620024348262002ebc565b60005b835180518210156200246c5790620024606200245882620024669462002296565b518562002d55565b62002286565b62002437565b505091506200247b8162002f54565b3862002414565b6020810180516200249381620021b9565b6200249e81620021b9565b15620025065760c092620024e36200250092620024c5620024be620022ab565b8862002e24565b51620024d181620021b9565b620024dc81620021b9565b86620026df565b620024f8620024f1620022e6565b8662002e24565b518462002d55565b62002406565b60046040517fa80d31f7000000000000000000000000000000000000000000000000000000008152fd5b92620025466200253f6200224b565b8462002e24565b620025518362002ebc565b60005b845180518210156200258357906200246062002575826200257d9462002296565b518662002e24565b62002554565b50509250620025928262002f54565b38620023f7565b815115620025b1576000808252604082015260600152565b60046040517f22ce3edd000000000000000000000000000000000000000000000000000000008152fd5b815115620025e95760a00152565b60046040517ffe936cb7000000000000000000000000000000000000000000000000000000008152fd5b6040519062002622826200033f565b6000602083606081520152565b6040516200263d816200033f565b6200264762002613565b80825260208201600081526200265c62002613565b506101006020830152604051809252600082526101208201918210620002b6576000916040525290565b906200269162002613565b50601f811680620026c2575b5080602083015260405190818352600082528101602001908110620002b65760405290565b60200360208111620012ef578101809111620012ef57386200269d565b90815191620026ed62002613565b508251516001810190818111620012ef5760208501518110156200274e575b60c26020620003c0965192830101538051821162002745575b5050604051916020830152602082526200273f826200033f565b62002d55565b52388062002725565b8160011b9482860460021483151715620012ef5760208162002786620003c0986200277e60c29551918462002686565b508262002c86565b50965050506200270c565b908160011b9180830460021490151715620012ef57565b620027b262002613565b508051516001810190818111620012ef576020830151811015620027ee575b605b60208451928301015380518211620027ea57505090565b5290565b8160011b82810460021483151715620012ef576200281c90620028148551918662002686565b508462002c86565b50620027d1565b6200282d62002613565b508051516001810190818111620012ef57602083015181101562002865575b605a60208451928301015380518211620027ea57505090565b8160011b82810460021483151715620012ef576200288b90620028148551918662002686565b506200284c565b6200289c62002613565b508051516001810190818111620012ef576020830151811015620028d4575b605960208451928301015380518211620027ea57505090565b8160011b82810460021483151715620012ef57620028fa90620028148551918662002686565b50620028bb565b6200290b62002613565b508051516001810190818111620012ef57602083015181101562002943575b605860208451928301015380518211620027ea57505090565b8160011b82810460021483151715620012ef576200296990620028148551918662002686565b506200292a565b6200297a62002613565b508051516001810190818111620012ef576020830151811015620029b2575b607b60208451928301015380518211620027ea57505090565b8160011b82810460021483151715620012ef57620029d890620028148551918662002686565b5062002999565b620029e962002613565b508051516001810190818111620012ef57602083015181101562002a21575b607a60208451928301015380518211620027ea57505090565b8160011b82810460021483151715620012ef5762002a4790620028148551918662002686565b5062002a08565b62002a5862002613565b508051516001810190818111620012ef57602083015181101562002a90575b607960208451928301015380518211620027ea57505090565b8160011b82810460021483151715620012ef5762002ab690620028148551918662002686565b5062002a77565b62002ac762002613565b508051516001810190818111620012ef57602083015181101562002aff575b607860208451928301015380518211620027ea57505090565b8160011b82810460021483151715620012ef5762002b2590620028148551918662002686565b5062002ae6565b9062002b3762002613565b508151516001810191828211620012ef57602084015182101562002b6d575b60208451928301015380518211620027ea57505090565b8260011b83810460021484151715620012ef5762002b9b9062002b938651918762002686565b508562002c86565b5062002b56565b9062002bb18251918362002686565b5062002bbc62002613565b5080519062002bca62002613565b5062002bda815183111562002d4d565b8251519262002bea838562001fa0565b91602092828480940151821162002c6a575b518381519782010196821162002c61575b505001915b8181101562002c345760001991036101000a0190811990511690825116179052565b919262002c5462002c4d62002c5b928651815262001f82565b9462001f82565b9262001e8a565b62002c12565b52388062002c0d565b62002c8062002c798362002791565b8262002ba2565b62002bfc565b9062002c9162002613565b50805162002c9e62002613565b5062002cae825182111562002d4d565b8251519162002cbe828462001fa0565b602091829182870151811162002d31575b86518381519782010196821162002d28575b505001915b8181101562002d095760001991036101000a019081199051169082511617905290565b919262002c5462002c4d62002d22928651815262001f82565b62002ce6565b52388062002ce1565b62002d4762002d408262002791565b8862002ba2565b62002ccf565b15620002b657565b815162002d9292919067ffffffffffffffff8116906017821162002d955762002d899150604060ff84519216179062002b2c565b505b5162002c86565b50565b5060ff811162002dc05762002db99062002db0835162002901565b50825162003145565b5062002d8b565b61ffff811162002de45762002db99062002ddb835162002892565b508251620030d5565b63ffffffff811162002e0a5762002db99062002e01835162002823565b50825162003063565b62002db99062002e1b8351620027a8565b50825162002fed565b815162002d9292919067ffffffffffffffff8116906017821162002e585762002d899150606060ff84519216179062002b2c565b5060ff811162002e735762002db99062002db0835162002abd565b61ffff811162002e8e5762002db99062002ddb835162002a4e565b63ffffffff811162002eab5762002db99062002e018351620029df565b62002db99062002e1b835162002970565b80519062002ec962002613565b508151516001810190818111620012ef57602084015181101562002f1c575b609f602080955192830101538051821162002f13575b50500180519060018201809211620012ef5752565b52388062002efe565b8160011b9382850460021483151715620012ef5760208162002f4982976200277e609f9551918462002686565b509550505062002ee8565b80519062002f6162002613565b508151516001810190818111620012ef57602084015181101562002fb5575b60ff602080955192830101538051821162002fac575b5050018051600019810191908211620012ef5752565b52388062002f96565b8160011b9382850460021483151715620012ef5760208162002fe282976200277e60ff9551918462002686565b509550505062002f80565b9062002ff862002613565b50815151806008019182600811620012ef57602084015183116200303e575b60088451928301019067ffffffffffffffff1982511617905280518211620027ea57505090565b8260011b83810460021484151715620012ef576200305d908562002ba2565b62003017565b906200306e62002613565b50815151806004019182600411620012ef5760208401518311620030b0575b60048451928301019063ffffffff1982511617905280518211620027ea57505090565b8260011b83810460021484151715620012ef57620030cf908562002ba2565b6200308d565b90620030e062002613565b50815151806002019182600211620012ef576020840151831162003120575b60028451928301019061ffff1982511617905280518211620027ea57505090565b8260011b83810460021484151715620012ef576200313f908562002ba2565b620030ff565b906200315062002613565b50815151806001019182600111620012ef57602084015183116200318f575b60018451928301019060ff1982511617905280518211620027ea57505090565b8260011b83810460021484151715620012ef57620031ae908562002ba2565b6200316f565b602081519101519060208110620031c9575090565b6000199060200360031b1b1690565b8054680100000000000000008110156200033957620031ff90600192838201815562001a54565b92909262001ae55780519067ffffffffffffffff8211620003395762003232826200322b8654620002d1565b8662001bad565b60209081601f841160011462003271575092829391839260009462003265575b50501b916000199060031b1c1916179055565b01519250388062003252565b919083601f1981166200328988600052602060002090565b946000905b88838310620032c55750505010620032ab575b505050811b019055565b015160001960f88460031b161c19169055388080620032a1565b8587015188559096019594850194879350908101906200328e565b90815181101562001a6d570160200190565b8015620033cb57806000908282935b620033b45750620033128362000692565b926200332260405194856200035c565b80845281601f19620033348362000692565b013660208701375b620033475750505090565b6000198101908111620012ef578091600a91620033aa620033a0620033786200337286860662001f91565b60ff1690565b60f81b7fff000000000000000000000000000000000000000000000000000000000000001690565b861a9187620032e0565b530490816200333c565b92620033c2600a9162002286565b93048062003301565b50604051620033da816200033f565b600181527f3000000000000000000000000000000000000000000000000000000000000000602082015290565b156200340f57565b606460405162461bcd60e51b815260206004820152601b60248201527f4572726f20616f207061676172206120696e64656e697a6163616f00000000006044820152fd5b6017546013541115620034b0576200349d60008080806200348862000a9362000a936010546001600160a01b039060081c1690565b47905af16200349662002042565b5062003407565b620003c0600160ff196006541617600655565b60008080806001600160a01b036002541647905af1620034cf62002042565b5015620034e957620003c0600260ff196006541617600655565b608460405162461bcd60e51b815260206004820152602d60248201527f4572726f20616f207265746f726e6172206f732066756e646f7320706172612060448201527f6120696e73746974756963616f000000000000000000000000000000000000006064820152fdfe60c0346100ba57601f61076538819003918201601f19168301916001600160401b038311848410176100bf578084926060946040528339810103126100ba57610047816100d5565b906040610056602083016100d5565b9101516001600160601b03811692908390036100ba5760805260a052600180546001600160601b03191691909117905560405161067b90816100ea82396080518181816077015281816101c701526103a3015260a05181818160be015261036a0152f35b600080fd5b634e487b7160e01b600052604160045260246000fd5b51906001600160a01b03821682036100ba5756fe60806040818152600436101561001457600080fd5b600091823560e01c90816301619d3d1461022d57508063230244081461014a57806324380aa8146100e2578063442b12781461009f57637d253aff1461005957600080fd5b3461009b578160031936011261009b57602090516001600160a01b037f0000000000000000000000000000000000000000000000000000000000000000168152f35b5080fd5b503461009b578160031936011261009b57602090516001600160a01b037f0000000000000000000000000000000000000000000000000000000000000000168152f35b503461009b576003198181360112610142576004359067ffffffffffffffff82116101465761014090823603011261014257602435926001600160a01b038416840361013f575060209261013891600401610313565b9051908152f35b80fd5b8280fd5b8380fd5b503461009b57602036600319011261009b57600435906001600160a01b03918281168091036101465760209060646bffffffffffffffffffffffff600154169186855196879485937f23b872dd000000000000000000000000000000000000000000000000000000008552600485015230602485015260448401527f0000000000000000000000000000000000000000000000000000000000000000165af190811561022457506101f9575080f35b6102199060203d811161021d575b6102118183610270565b8101906102a8565b5080f35b503d610207565b513d84823e3d90fd5b83903461009b578160031936011261009b576020906bffffffffffffffffffffffff600154168152f35b35906001600160a01b038216820361026b57565b600080fd5b90601f8019910116810190811067ffffffffffffffff82111761029257604052565b634e487b7160e01b600052604160045260246000fd5b9081602091031261026b5751801515810361026b5790565b9035601e198236030181121561026b57016020813591019167ffffffffffffffff821161026b57813603831361026b57565b908060209392818452848401376000828201840152601f01601f1916010190565b9190916000926101208201356bffffffffffffffffffffffff8116809103610641576040908151927f095ea7b30000000000000000000000000000000000000000000000000000000084526001600160a01b0391827f0000000000000000000000000000000000000000000000000000000000000000169586600487015281602487015260209586816044818d897f0000000000000000000000000000000000000000000000000000000000000000165af180156106375761061a575b508451967f3f678e1100000000000000000000000000000000000000000000000000000000885286600489015261041d61040a83806102c0565b61014060248c01526101648b01916102f2565b8a61044161042d8a8601866102c0565b6023198d8603810160448f015294916102f2565b948761044e8a8701610257565b1660648c0152606085013563ffffffff81168091036101425760848c01528761047960808701610257565b1660a48c015260a08501359060ff8216809203610142576105018c9687956104f16104e58f9b6104c7908a9860c48a01526104b760c08701876102c0565b90868b84030160e48c01526102f2565b6104d460e08601866102c0565b90858a8403016101048b01526102f2565b926101008101906102c0565b91868403016101248701526102f2565b9061014483015203925af19485156106105787956105dd575b508415610580571685528482528420908154916801000000000000000083101561056c57600183018082558310156105585794839495815220015590565b602486634e487b7160e01b81526032600452fd5b602486634e487b7160e01b81526041600452fd5b6064848451907f08c379a00000000000000000000000000000000000000000000000000000000082526004820152601560248201527f6175746f2d617070726f76652064697361626c656400000000000000000000006044820152fd5b9094508381813d8311610609575b6105f58183610270565b810103126106055751933861051a565b8680fd5b503d6105eb565b83513d89823e3d90fd5b61063090873d891161021d576102118183610270565b50386103d0565b86513d8c823e3d90fd5b8480fdfea2646970667358221220b5d5e549faa0f06e6b4c0d541d8329af501ee63625d5b872cb2297c6dbd1556d64736f6c63430008130033a264697066735822122047d8f92146d9793e258e23f0c3efb88de51b409d0f1b1f536201ac2f40a60ec964736f6c6343000813003331ecc21a745e3968a04e9570e4425bc18fa8019c68028196b546d1669c200c68a26469706673582212203f15ffc4f8e338b481ed11478b5f9da7a2acbdf6853e471bc00e5ff0c0ab966664736f6c63430008130033",
  "linkReferences": {},
  "deployedLinkReferences": {}
}