{"contracts/Institution.sol":{"Institution":{"abi":[{"inputs":[{"internalType":"address","name":"_owner","type":"address"},{"internalType":"string","name":"_institutionName","type":"string"}],"stateMutability":"nonpayable","type":"constructor"},{"inputs":[],"name":"NotOwner","type":"error"},{"anonymous":false,"inputs":[{"indexed":false,"internalType":"address","name":"insuranceContractAddress","type":"address"}],"name":"InsuranceContractCreated","type":"event"},{"inputs":[{"internalType":"address","name":"_farmerAddr","type":"address"}],"name":"blacklistAddr","outputs":[],"stateMutability":"nonpayable","type":"function"},{"inputs":[],"name":"contractBalance","outputs":[{"internalType":"uint256","name":"","type":"uint256"}],"stateMutability":"view","type":"function"},{"inputs":[{"internalType":"address","name":"","type":"address"},{"internalType":"uint256","name":"","type":"uint256"}],"name":"contracts","outputs":[{"internalType":"contract AutomatedFunctionsConsumer","name":"","type":"address"}],"stateMutability":"view","type":"function"},{"inputs":[{"internalType":"address","name":"_deployer","type":"address"},{"internalType":"address","name":"_farmer","type":"address"},{"internalType":"uint256","name":"_humidityLimit","type":"uint256"},{"internalType":"uint256","name":"_sampleMaxSize","type":"uint256"},{"internalType":"uint256","name":"_reparationValue","type":"uint256"},{"internalType":"uint256","name":"_updateInterval","type":"uint256"},{"internalType":"address","name":"router","type":"address"},{"internalType":"uint64","name":"_subscriptionId","type":"uint64"},{"internalType":"address","name":"_registry","type":"address"},{"internalType":"address","name":"_sepoliaLINKAddress","type":"address"},{"internalType":"address","name":"_sepoliaRegistrarAddress","type":"address"},{"internalType":"uint32","name":"_fulfillGasLimit","type":"uint32"}],"name":"createInsuranceContract","outputs":[],"stateMutability":"nonpayable","type":"function"},{"inputs":[{"internalType":"uint256","name":"_index","type":"uint256"}],"name":"getInsurance","outputs":[{"internalType":"contract AutomatedFunctionsConsumer","name":"","type":"address"}],"stateMutability":"view","type":"function"},{"inputs":[],"name":"i_owner","outputs":[{"internalType":"address","name":"","type":"address"}],"stateMutability":"view","type":"function"},{"inputs":[],"name":"id","outputs":[{"internalType":"string","name":"","type":"string"}],"stateMutability":"view","type":"function"},{"inputs":[],"name":"institutionName","outputs":[{"internalType":"string","name":"","type":"string"}],"stateMutability":"view","type":"function"},{"inputs":[{"internalType":"string","name":"_name","type":"string"},{"internalType":"string","name":"_description","type":"string"}],"name":"registerInfo","outputs":[],"stateMutability":"nonpayable","type":"function"},{"inputs":[{"internalType":"address","name":"","type":"address"}],"name":"whitelist","outputs":[{"internalType":"bool","name":"","type":"bool"}],"stateMutability":"view","type":"function"},{"inputs":[{"internalType":"address","name":"_farmerAddr","type":"address"}],"name":"whitelistAddr","outputs":[],"stateMutability":"nonpayable","type":"function"},{"inputs":[],"name":"withdraw","outputs":[],"stateMutability":"nonpayable","type":"function"},{"stateMutability":"payable","type":"receive"}],"evm":{"bytecode":{"linkReferences":{},"object":"60a0604052346200024857620049d7803803806200001d816200024d565b928339810190604081830312620002485780516001600160a01b038116810362000248576020828101516001600160401b039391929184821162000248570193601f91818387011215620002485785518581116200021d57601f19966200008a828601891687016200024d565b938285528683830101116200024857859060005b838110620002335750506000918401015260805280519384116200021d57600054926001938481811c9116801562000212575b82821014620001fc57838111620001b1575b5080928511600114620001475750839450908392916000946200013b575b50501b916000199060031b1c1916176000555b6040516147639081620002748239608051818181610141015281816105eb015261078b0152f35b01519250388062000101565b9294849081166000805284600020946000905b888383106200019657505050106200017c575b505050811b0160005562000114565b015160001960f88460031b161c191690553880806200016d565b8587015188559096019594850194879350908101906200015a565b60008052816000208480880160051c820192848910620001f2575b0160051c019085905b828110620001e5575050620000e3565b60008155018590620001d5565b92508192620001cc565b634e487b7160e01b600052602260045260246000fd5b90607f1690620000d1565b634e487b7160e01b600052604160045260246000fd5b8181018301518682018401528792016200009e565b600080fd5b6040519190601f01601f191682016001600160401b038111838210176200021d5760405256fe6040608081526004908136101562000022575b505036156200002057600080fd5b005b6000803560e01c8063080a57f914620008ff5780633a133e2c14620008495780633ccfd60b146200076c5780636a4ac979146200059057806377ad0b34146200032c57806385fae60214620002f35780638a699f0014620002b75780638b7afe2e146200029a5780639b19251a146200025a578063af640d0f1462000169578063dba6335f146200011f5763ed23f8c314620000bf575062000012565b346200011c57816003193601126200011c57620000db6200093e565b90602435936001600160a01b0380931682526020528281209081548510156200011c57506020936200010d9162000a8d565b92905490519260031b1c168152f35b80fd5b5090346200016557816003193601126200016557602090516001600160a01b037f0000000000000000000000000000000000000000000000000000000000000000168152f35b5080fd5b509034620001655781600319360112620001655780519082600180549162000191836200095a565b808652928281169081156200022f5750600114620001ce575b505050620001bf82620001ca94038362000997565b5191829182620009f5565b0390f35b94508085527fb10e2d527612073b26eecdfd717e6a320cf44b4afac2b0732d9fcbe2b7fa0cf65b8286106200021657505050620001bf826020620001ca9582010194620001aa565b80546020878701810191909152909501948101620001f5565b620001ca975086935060209250620001bf94915060ff191682840152151560051b82010194620001aa565b50903462000165576020366003190112620001655760ff816020936001600160a01b03620002876200093e565b1681526003855220541690519015158152f35b509034620001655781600319360112620001655751478152602090f35b5090346200016557602036600319011262000165576001600160a01b03620002de6200093e565b16825260036020528120805460ff1916905580f35b5091346200032857602036600319011262000328576200010d602093836001600160a01b039333835280875235912062000a8d565b8280fd5b5090346200016557610180908160031936011262000328576200034e6200093e565b91602435906001600160a01b03938483168093036200058c576084359160c435868116809103620005885760e4359067ffffffffffffffff91828116809103620005845761010435898116809103620005805761012435908a82168092036200057c5761014435928b84168094036200057857610164359463ffffffff8616809603620005745760ff8c8f8d81526003602052205416156200050b578b5198613c71808b019889118b8a1017620004f6578a98979695949392918f9162000abd8b391687528b60208801526044358d88015260643560608801528a608088015260a43560a088015260c087015260e0860152610100850152610120840152610140830152610160820152030191f0908115620004ec5784528460205281842080549068010000000000000000821015620004d9579184620004bb837fa155a575082ecf596e5a22a44834be92670605d1d0832000305888ba02a462d9979560016020989601815562000a8d565b949092169382549060031b9185831b921b191617905551908152a180f35b602486604189634e487b7160e01b835252fd5b82513d86823e3d90fd5b508f8f6041602492634e487b7160e01b835252fd5b60848f60208e519162461bcd60e51b8352820152602160248201527f456e64657265636f206e616f2065737461206e61206c69737461206272616e6360448201527f61000000000000000000000000000000000000000000000000000000000000006064820152fd5b8d80fd5b8c80fd5b8b80fd5b8a80fd5b8980fd5b8780fd5b8580fd5b508234620001655782600319360112620001655767ffffffffffffffff81358181116200076857620005c6903690840162000a40565b6024358281116200076457620005e0903690850162000a40565b946001600160a01b037f000000000000000000000000000000000000000000000000000000000000000016330362000755575181818093516200062a8160209687809601620009d0565b810160028152030190209285519283116200074257506200064c83546200095a565b601f8111620006fa575b5080601f831160011462000694575083948293949262000688575b50508160011b916000199060031b1c191617905580f35b01519050848062000671565b90601f198316958486528286209286905b888210620006e157505083600195969710620006c7575b505050811b01905580f35b015160001960f88460031b161c19169055848080620006bc565b80600185968294968601518155019501930190620006a5565b838552818520601f840160051c81019183851062000737575b601f0160051c01905b8181106200072b575062000656565b8581556001016200071c565b909150819062000713565b846041602492634e487b7160e01b835252fd5b8390516330cd747160e01b8152fd5b8480fd5b8380fd5b5091903462000328578260031936011262000328576001600160a01b037f0000000000000000000000000000000000000000000000000000000000000000168033036200083b57838080809347905af13d1562000835573d620007cf8162000a23565b90620007de8451928362000997565b81528460203d92013e5b15620007f2578280f35b906020606492519162461bcd60e51b8352820152600f60248201527f4f2073617175652066616c686f752e00000000000000000000000000000000006044820152fd5b620007e8565b50516330cd747160e01b8152fd5b50903462000165578160031936011262000165578051908280546200086e816200095a565b808552916001918083169081156200022f57506001146200089e57505050620001bf82620001ca94038362000997565b80809650527f290decd9548b62a8d60345a988386fc84ba6bc95484008f6362f93160ef3e5635b828610620008e657505050620001bf826020620001ca9582010194620001aa565b80546020878701810191909152909501948101620008c5565b5090346200016557602036600319011262000165576001600160a01b03620009266200093e565b16825260036020528120805460ff1916600117905580f35b600435906001600160a01b03821682036200095557565b600080fd5b90600182811c921680156200098c575b60208310146200097657565b634e487b7160e01b600052602260045260246000fd5b91607f16916200096a565b90601f8019910116810190811067ffffffffffffffff821117620009ba57604052565b634e487b7160e01b600052604160045260246000fd5b60005b838110620009e45750506000910152565b8181015183820152602001620009d3565b6040916020825262000a178151809281602086015260208686019101620009d0565b601f01601f1916010190565b67ffffffffffffffff8111620009ba57601f01601f191660200190565b81601f82011215620009555780359062000a5a8262000a23565b9262000a6a604051948562000997565b828452602083830101116200095557816000926020809301838601378301015290565b805482101562000aa65760005260206000200190600090565b634e487b7160e01b600052603260045260246000fdfe60c0601f1962003c7138819003601f810192909216830192916001600160401b0391838510838611176200028b5781610180928592604097885283398101031262000286576200004f82620002a1565b916200005e60208201620002a1565b9184820151916060810151608082015160a0830151916200008260c08501620002a1565b9260e0850151938685168095036200028657620000a36101008701620002a1565b94620000b36101208801620002a1565b98610160620000c66101408a01620002a1565b9801519263ffffffff8416840362000286576001600160a01b039081166080529b8c169a8b156200024257600080546001600160a01b03199081168e178255601680548216909e17909d5560178054909d16918e1691909117909b55601a55600680546001600160601b0319169091176bffffffff0000000000000000928d1b92909216919091179055600755601b55601955851660a05285519261062e808501938411858510176200022e57849287899593819362003643873916835216602082015203019082f0908115620002235750600b8054610100600160a81b031916600892831b610100600160a81b031617908190558351911c90911681527f3583c1105fd29a46b4d92ceeaff8be03cba58a11cce44a3b7da77bbc3798edc490602090a1426008555161338c9081620002b782396080518181816103cb01528181611da70152611f89015260a0518181816111ee0152611fd50152f35b8351903d90823e3d90fd5b634e487b7160e01b86526041600452602486fd5b8d5162461bcd60e51b815260206004820152601860248201527f43616e6e6f7420736574206f776e657220746f207a65726f00000000000000006044820152606490fd5b600080fd5b634e487b7160e01b600052604160045260246000fd5b51906001600160a01b0382168203620002865756fe6080604052600436101561001257600080fd5b60003560e01c8063089ea02e1461024757806309c1ba2e146102425780630ca761751461023d5780631aa46f591461023857806324b93e3e14610233578063277e22131461022e578063303b137c14610229578063338cdca114610224578063381fc4b51461021f5780633944ea3a1461021a5780633f678e111461021557806343cd3d86146102105780634585e33b1461020b578063472cbbb01461020657806348802b92146102015780634b0795a8146101fc5780635e0611f1146101f7578063688ecfd1146101f25780636e04ff0d146101ed5780636e74336b146101e857806379ba5097146101e35780637b103999146101de5780638b7afe2e146101d95780638da5cb5b146101d4578063a3d3c0d2146101cf578063b1e21749146101ca578063bef3a2f0146101c5578063d1384eb6146101c0578063d811fcf0146101bb578063ebf14a55146101b6578063f2fde38b146101b1578063f5c1279b146101ac578063f68016b7146101a7578063fd2c80ae146101a25763fffeb84e1461019d57600080fd5b6114fe565b6114e0565b6114bc565b61149e565b6113ce565b611386565b61135f565b611338565b611291565b611273565b611255565b61122e565b611212565b6111ce565b6110ee565b6110d0565b611057565b610fb0565b610f89565b610ee2565b610ec4565b610d15565b610c31565b610be5565b610ac5565b610a1e565b610a00565b61091f565b6108f5565b61088c565b6105ea565b6105cc565b610372565b61027a565b61025c565b600091031261025757565b600080fd5b34610257576000366003190112610257576020600854604051908152f35b3461025757600036600319011261025757602067ffffffffffffffff60065416604051908152f35b634e487b7160e01b600052604160045260246000fd5b67ffffffffffffffff81116102cc57604052565b6102a2565b6040810190811067ffffffffffffffff8211176102cc57604052565b90601f8019910116810190811067ffffffffffffffff8211176102cc57604052565b67ffffffffffffffff81116102cc57601f01601f191660200190565b81601f82011215610257578035906103428261030f565b9261035060405194856102ed565b8284526020838301011161025757816000926020809301838601378301015290565b3461025757606036600319011261025757600480359067ffffffffffffffff90602435828111610257576103a9903690830161032b565b604435838111610257576103c0903690840161032b565b906001600160a01b037f00000000000000000000000000000000000000000000000000000000000000001633036105a35780519384116102cc578261040f8561040a889654610679565b6117ed565b602080601f87116001146104f9575094807f7bab0ec163b5c132c72b8146ac4d6e067e82ed58f8b131150aa71c925891156295966000916104ee575b508160011b916000199060031b1c19161790555b6104688261300f565b61047b610476600a546119dd565b600a55565b60ff610489600b5460ff1690565b166104d0576104978161311c565b6104a660405192839283613219565b0390a27f85e1543bf2f84fe80c6badbce3648c8539ad1df4d2b3d822938ca0538be727e6600080a2005b6104e16104dc826130f9565b601e55565b6104e9613289565b610497565b90508301513861044b565b600460005290601f1987167f8a35acfbc15ff81a39ae7d344fd709f28e8600b4aa8c65c6b64bfe7fe36bd19b926000905b8282106105875750509187917f7bab0ec163b5c132c72b8146ac4d6e067e82ed58f8b131150aa71c925891156297986001941061056e575b5050811b01905561045f565b85015160001960f88460031b161c191690553880610562565b8684015185558a9850600190940193928301929081019061052a565b826040517fc6829f83000000000000000000000000000000000000000000000000000000008152fd5b34610257576000366003190112610257576020600354604051908152f35b3461025757600036600319011261025757602060065463ffffffff6040519160401c168152f35b634e487b7160e01b600052603260045260246000fd5b601c5481101561065e57601c6000527f0e4562a10381dec21b205ed72637e6b1b523bdd0e4d4d50af5cd23dd4500a2110190600090565b610611565b634e487b7160e01b600052600060045260246000fd5b90600182811c921680156106a9575b602083101461069357565b634e487b7160e01b600052602260045260246000fd5b91607f1691610688565b60405190600082601d54916106c783610679565b8083529260019081811690811561074f57506001146106f0575b506106ee925003836102ed565b565b601d600090815291507f6d4407e7be21f808e6509aa9fa9143369579dd7d760fe20a2c09680fc146134f5b84831061073457506106ee9350508101602001386106e1565b81935090816020925483858a0101520191019091859261071b565b9050602092506106ee94915060ff191682840152151560051b820101386106e1565b906040519182600082549261078584610679565b9081845260019485811690816000146107f257506001146107af575b50506106ee925003836102ed565b9093915060005260209081600020936000915b8183106107da5750506106ee935082010138806107a1565b855488840185015294850194879450918301916107c2565b9150506106ee94506020925060ff191682840152151560051b82010138806107a1565b60005b82811061082757506000910152565b608081015182820152602001610818565b919082519283825260005b848110610864575050826000602080949584010152601f8019910116010190565b602081830181015184830182015201610843565b906020610889928181520190610838565b90565b3461025757602036600319011261025757600435601c54811015610257576108dd6108f191601c6000527f0e4562a10381dec21b205ed72637e6b1b523bdd0e4d4d50af5cd23dd4500a21101610771565b604051918291602083526020830190610838565b0390f35b346102575760003660031901126102575760206001600160a01b03600b5460081c16604051908152f35b34610257576000806003193601126109fd576040519080600d5461094281610679565b808552916001918083169081156109d35750600114610978575b6108f18561096c818703826102ed565b60405191829182610878565b9250600d83527fd7b6990105719101dabeb77144f2a3385c8033acd3af97e9423a695e81ad1eb55b8284106109bb57505050810160200161096c826108f161095c565b805460208587018101919091529093019281016109a0565b8695506108f19693506020925061096c94915060ff191682840152151560051b820101929361095c565b80fd5b34610257576000366003190112610257576020600a54604051908152f35b34610257576000806003193601126109fd576040519080601154610a4181610679565b808552916001918083169081156109d35750600114610a6a576108f18561096c818703826102ed565b9250601183527f31ecc21a745e3968a04e9570e4425bc18fa8019c68028196b546d1669c200c685b828410610aad57505050810160200161096c826108f161095c565b80546020858701810191909152909301928101610a92565b3461025757600319602036820112610257576004359067ffffffffffffffff821161025757610140908236030112610257576020610b65600092610b2c610b206001600160a01b03600b5460081c166001600160a01b031690565b6001600160a01b031690565b906040519485809481937fbc61a47300000000000000000000000000000000000000000000000000000000835260040160048301611686565b03925af18015610be057610b8191600091610bb2575b50600c55565b600c546040519081527f7623383a750b4166574a1b2dff61440ed0dfa3708cbe620c58339cca510d1af990602090a1005b610bd3915060203d8111610bd9575b610bcb81836102ed565b8101906115fd565b38610b7b565b503d610bc1565b6117ca565b34610257576000366003190112610257576020601554604051908152f35b9181601f840112156102575782359167ffffffffffffffff8311610257576020838186019501011161025757565b346102575760203660031901126102575760043567ffffffffffffffff811161025757610c62903690600401610c03565b50506000546001600160a01b03163381141580610cd3575b610c8857610c86611d04565b005b6018546040517f426fbc710000000000000000000000000000000000000000000000000000000081523360048201526001600160a01b03928316602482015291166044820152606490fd5b50610ce9610b206018546001600160a01b031690565b331415610c7a565b6044359063ffffffff8216820361025757565b359063ffffffff8216820361025757565b346102575760a03660031901126102575767ffffffffffffffff60043581811161025757610d47903690600401610c03565b6024359291838316840361025757610d5d610cf1565b92610d666115a5565b82116102cc57610d8082610d7b600254610679565b61184e565b600090601f8311600114610e20579180610dff9592610dd494600092610e15575b50508160011b916000199060031b1c19161760025567ffffffffffffffff1667ffffffffffffffff196006541617600655565b6bffffffff00000000000000006006549160401b16906bffffffff0000000000000000191617600655565b610e0a606435600f55565b610c86608435600755565b013590503880610da1565b60026000527f405787fa12a823e0f2b7631cc41b3ba8828b3321ca811111fa75cd3aa3bb5ace91601f198416815b818110610eac5750926001928592610dd496610dff999610610e92575b505050811b0160025567ffffffffffffffff1667ffffffffffffffff196006541617600655565b0135600019600384901b60f8161c19169055388080610e6b565b91936020600181928787013581550195019201610e4e565b34610257576000366003190112610257576020601454604051908152f35b34610257576000806003193601126109fd576040519080601254610f0581610679565b808552916001918083169081156109d35750600114610f2e576108f18561096c818703826102ed565b9250601283527fbb8a6a4669ba250d26cd7a459eca9d215f8307e33aebe50379bc5a3617ec34445b828410610f7157505050810160200161096c826108f161095c565b80546020858701810191909152909301928101610f56565b346102575760003660031901126102575760206001600160a01b0360185416604051908152f35b34610257576000806003193601126109fd576040519080600254610fd381610679565b808552916001918083169081156109d35750600114610ffc576108f18561096c818703826102ed565b9250600283527f405787fa12a823e0f2b7631cc41b3ba8828b3321ca811111fa75cd3aa3bb5ace5b82841061103f57505050810160200161096c826108f161095c565b80546020858701810191909152909301928101611024565b346102575760203660031901126102575760043567ffffffffffffffff81116102575761108890369060040161032b565b5060085442034281116110cb57600754106040519081526040602082015260608181518060408301526110bd81848401610815565b601f01601f19168101030190f35b611934565b34610257576000366003190112610257576020600f54604051908152f35b34610257576000806003193601126109fd576001600160a01b038060015416330361118a5781546001600160a01b03166000805473ffffffffffffffffffffffffffffffffffffffff1916331790559061116073ffffffffffffffffffffffffffffffffffffffff1960015416600155565b3391167f8be0079c531659141344cd1fd0a4f28419497f9722a3daafe3b4186f6b6457e08380a380f35b606460405162461bcd60e51b815260206004820152601660248201527f4d7573742062652070726f706f736564206f776e6572000000000000000000006044820152fd5b346102575760003660031901126102575760206040516001600160a01b037f0000000000000000000000000000000000000000000000000000000000000000168152f35b3461025757600036600319011261025757602047604051908152f35b346102575760003660031901126102575760206001600160a01b0360005416604051908152f35b34610257576000366003190112610257576020600954604051908152f35b34610257576000366003190112610257576020601054604051908152f35b34610257576000806003193601126109fd5760405190806004546112b481610679565b808552916001918083169081156109d357506001146112dd576108f18561096c818703826102ed565b9250600483527f8a35acfbc15ff81a39ae7d344fd709f28e8600b4aa8c65c6b64bfe7fe36bd19b5b82841061132057505050810160200161096c826108f161095c565b80546020858701810191909152909301928101611305565b346102575760003660031901126102575760206001600160a01b0360165416604051908152f35b346102575760003660031901126102575760206001600160a01b0360175416604051908152f35b34610257576000366003190112610257576020601b54604051908152f35b600435906001600160a01b038216820361025757565b35906001600160a01b038216820361025757565b34610257576020366003190112610257576001600160a01b036113ef6113a4565b6113f76115a5565b1633811461145a578073ffffffffffffffffffffffffffffffffffffffff196001541617600155611433610b206000546001600160a01b031690565b7fed8889f560326eb138920d842192f0eb3dd22b4f139c87a2c57538e05bae1278600080a3005b606460405162461bcd60e51b815260206004820152601760248201527f43616e6e6f74207472616e7366657220746f2073656c660000000000000000006044820152fd5b34610257576000366003190112610257576020601354604051908152f35b3461025757600036600319011261025757602063ffffffff600e5416604051908152f35b34610257576000366003190112610257576020600754604051908152f35b34610257576000806003193601126109fd57604051908060055461152181610679565b808552916001918083169081156109d3575060011461154a576108f18561096c818703826102ed565b9250600583527f036b6384b5eca791c62761152d0c79bb0604c104a5fb6f4eb0703f3154bb3db05b82841061158d57505050810160200161096c826108f161095c565b80546020858701810191909152909301928101611572565b6001600160a01b036000541633036115b957565b606460405162461bcd60e51b815260206004820152601660248201527f4f6e6c792063616c6c61626c65206279206f776e6572000000000000000000006044820152fd5b90816020910312610257575190565b9035601e198236030181121561025757016020813591019167ffffffffffffffff821161025757813603831361025757565b908060209392818452848401376000828201840152601f01601f1916010190565b359060ff8216820361025757565b35906bffffffffffffffffffffffff8216820361025757565b61088990602081526116b56117b761169e858061160c565b92906101409384602087015261016086019161163e565b6117b061176f6116df6116cb60208a018a61160c565b601f19898703810160408b0152959161163e565b6116fe6116ee60408b016113ba565b6001600160a01b03166060890152565b61171a61170d60608b01610d04565b63ffffffff166080890152565b61173961172960808b016113ba565b6001600160a01b031660a0890152565b61175261174860a08b0161165f565b60ff1660c0890152565b61175f60c08a018a61160c565b90858984030160e08a015261163e565b61179e61179561178260e08b018b61160c565b6101009491878b840301868c015261163e565b9189018961160c565b9061012094888403018589015261163e565b950161166d565b6bffffffffffffffffffffffff16910152565b6040513d6000823e3d90fd5b8181106117e1575050565b600081556001016117d6565b90601f82116117fa575050565b6106ee9160046000527f8a35acfbc15ff81a39ae7d344fd709f28e8600b4aa8c65c6b64bfe7fe36bd19b906020601f840160051c83019310611844575b601f0160051c01906117d6565b9091508190611837565b90601f821161185b575050565b6106ee9160026000527f405787fa12a823e0f2b7631cc41b3ba8828b3321ca811111fa75cd3aa3bb5ace906020601f840160051c8301931061184457601f0160051c01906117d6565b90601f82116118b1575050565b6106ee9160056000527f036b6384b5eca791c62761152d0c79bb0604c104a5fb6f4eb0703f3154bb3db0906020601f840160051c8301931061184457601f0160051c01906117d6565b9190601f811161190957505050565b6106ee926000526020600020906020601f840160051c8301931061184457601f0160051c01906117d6565b634e487b7160e01b600052601160045260246000fd5b601f198101919082116110cb57565b606060085442034281116110cb576007541091565b604051906020820182811067ffffffffffffffff8211176102cc5760405260008252565b1561199957565b606460405162461bcd60e51b815260206004820152601560248201527f54696d6520696e74657276616c206e6f74206d657400000000000000000000006044820152fd5b90600182018092116110cb57565b90602082018092116110cb57565b919082018092116110cb57565b15611a0d57565b606460405162461bcd60e51b815260206004820152601560248201527f55706b656570206e6f74207265676973746572656400000000000000000000006044820152fd5b6040519060e0820182811067ffffffffffffffff8211176102cc57604052606060c08360008152600060208201526000604082015282808201528260808201528260a08201520152565b601c549067ffffffffffffffff82116102cc57604051916020611ac3818360051b01856102ed565b81845280840190601c6000527f0e4562a10381dec21b205ed72637e6b1b523bdd0e4d4d50af5cd23dd4500a2116000925b848410611b02575050505050565b6001838192611b1085610771565b815201920193019290611af4565b90611b4c60809367ffffffffffffffff63ffffffff939897969816845260a0602085015260a0840190610838565b95600160408401521660608201520152565b60009060033d11611b6b57565b905060046000803e60005160e01c90565b600060443d1061088957604051600319913d83016004833e815167ffffffffffffffff918282113d602484011117611bda57818401948551938411611be2573d85010160208487010111611bda5750610889929101602001906102ed565b949350505050565b50949350505050565b3d15611c16573d90611bfc8261030f565b91611c0a60405193846102ed565b82523d6000602084013e565b606090565b9067ffffffffffffffff909493929416815260209360a085830152600060025495611c4587610679565b908160a08601526001978881169081600014611cdb5750600114611c7f575b5050604083019590955263ffffffff16606082015260800152565b600260009081529250877f405787fa12a823e0f2b7631cc41b3ba8828b3321ca811111fa75cd3aa3bb5ace5b838510611cc65750505050820160c0018163ffffffff611c64565b805487860160c0015293820193899101611cab565b60ff191660c08781019190915292151560051b8601909201925083915063ffffffff9050611c64565b611d0c61196e565b50611d1e611d18611959565b50611992565b611d2742600855565b611d3a611d356009546119dd565b600955565b601b54601c541015611ed957611d59611d546013546119dd565b601355565b60065467ffffffffffffffff166020611d77600e5463ffffffff1690565b600f5492611d99604051948593849363230e93b160e11b855260048501611c1b565b038160006001600160a01b037f0000000000000000000000000000000000000000000000000000000000000000165af160009181611eb9575b50611e7657506001611de2611b5e565b6308c379a014611e24575b611df357565b7f9c4bfa18304482256875c29fabb1a44a5ecd325f214ea17bab8f31e869faf4c8611e1f61096c611beb565b0390a1565b611e2c611b7c565b80611e38575b50611ded565b90507f2ba61e3733e7ac99181c22307780f651ec8fd92fe661a84dfbe711710b2dc36c611e6d60009260405191829182610878565b0390a138611e32565b611e7f81601055565b611e92611e8d6014546119dd565b601455565b7f1131472297a800fee664d1d89cfa8f7676ff07189ecc53f80bbb5f4969099db8600080a2565b611ed291925060203d8111610bd957610bcb81836102ed565b9038611dd2565b611ee6600c541515611a06565b611ef8600160ff19600b541617600b55565b611f2a611f03611a51565b611f14611f0e6106b3565b82612510565b611f25611f1f611a9b565b82612551565b612325565b611f38611d546013546119dd565b60065467ffffffffffffffff16611f74611f57600e5463ffffffff1690565b600f549060405194859463230e93b160e11b865260048601611b1e565b036000916020816001600160a01b03938186867f0000000000000000000000000000000000000000000000000000000000000000165af1839181612124575b506120e457506001611fc3611b5e565b6308c379a014612093575b61205f575b7f000000000000000000000000000000000000000000000000000000000000000016600c54813b1561205b576040517f8765ecbe000000000000000000000000000000000000000000000000000000008152600481019190915291908290602490829084905af18015610be057612048575b50565b806120556106ee926102b8565b8061024c565b8280fd5b7f9c4bfa18304482256875c29fabb1a44a5ecd325f214ea17bab8f31e869faf4c861208b61096c611beb565b0390a1611fd3565b61209b611b7c565b806120a7575b50611fce565b90507f2ba61e3733e7ac99181c22307780f651ec8fd92fe661a84dfbe711710b2dc36c6120db849260405191829182610878565b0390a1386120a1565b6120ed81601055565b6120fb611e8d6014546119dd565b7f1131472297a800fee664d1d89cfa8f7676ff07189ecc53f80bbb5f4969099db88380a2611fd3565b61213d91925060203d8111610bd957610bcb81836102ed565b9038611fb3565b60405190612151826102d1565b600c82527f636f64654c6f636174696f6e00000000000000000000000000000000000000006020830152565b634e487b7160e01b600052602160045260246000fd5b6003111561219d57565b61217d565b604051906121af826102d1565b600882527f6c616e67756167650000000000000000000000000000000000000000000000006020830152565b6001111561219d57565b604051906121f2826102d1565b600682527f736f7572636500000000000000000000000000000000000000000000000000006020830152565b6040519061222b826102d1565b600482527f61726773000000000000000000000000000000000000000000000000000000006020830152565b60001981146110cb5760010190565b805182101561065e5760209160051b010190565b60405190612287826102d1565b600f82527f736563726574734c6f636174696f6e00000000000000000000000000000000006020830152565b604051906122c0826102d1565b600782527f73656372657473000000000000000000000000000000000000000000000000006020830152565b604051906122f9826102d1565b600982527f62797465734172677300000000000000000000000000000000000000000000006020830152565b61232d6125a2565b9061233f612339612144565b83612cce565b61235c815161234d81612193565b61235681612193565b83612644565b6123676123396121a2565b6123816040820151612378816121db565b612356816121db565b61238c6123396121e5565b61239a606082015183612cce565b60a081018051516124b7575b50608081019081515161241f575b60c09150018051516123c7575b50515190565b916123d36123396122ec565b6123dc82612d53565b60005b8351805182101561240c57906124026123fb8261240794612266565b5185612c1b565b612257565b6123df565b5050915061241981612ddf565b386123c1565b60208101805161242e81612193565b61243781612193565b1561248d5760c0926124706124889261245761245161227a565b88612cce565b5161246181612193565b61246a81612193565b86612644565b61248161247b6122b3565b86612cce565b5184612c1b565b6123b4565b60046040517fa80d31f7000000000000000000000000000000000000000000000000000000008152fd5b926124c96124c361221e565b84612cce565b6124d283612d53565b60005b845180518210156124fd57906124026124f1826124f894612266565b5186612cce565b6124d5565b5050925061250a82612ddf565b386123a6565b815115612527576000808252604082015260600152565b60046040517f22ce3edd000000000000000000000000000000000000000000000000000000008152fd5b81511561255e5760a00152565b60046040517ffe936cb7000000000000000000000000000000000000000000000000000000008152fd5b60405190612595826102d1565b6000602083606081520152565b6040516125ae816102d1565b6125b6612588565b80825260208201600081526125c9612588565b506101006020830152604051809252600082526101208201918210610257576000916040525290565b906125fb612588565b50601f81168061262a575b50806020830152604051908183526000825281016020019081106102575760405290565b602003602081116110cb5781018091116110cb5738612606565b90815191612650612588565b5082515160018101908181116110cb5760208501518110156126a9575b60c260206106ee96519283010153805182116126a1575b50506040519160208301526020825261269c826102d1565b612c1b565b523880612684565b8160011b94828604600214831517156110cb576020816126db6106ee986126d460c2955191846125f2565b5082612b63565b509650505061266d565b908160011b91808304600214901517156110cb57565b612703612588565b5080515160018101908181116110cb57602083015181101561273c575b605b6020845192830101538051821161273857505090565b5290565b8160011b828104600214831517156110cb576127659061275e855191866125f2565b5084612b63565b50612720565b612773612588565b5080515160018101908181116110cb5760208301518110156127a8575b605a6020845192830101538051821161273857505090565b8160011b828104600214831517156110cb576127ca9061275e855191866125f2565b50612790565b6127d8612588565b5080515160018101908181116110cb57602083015181101561280d575b60596020845192830101538051821161273857505090565b8160011b828104600214831517156110cb5761282f9061275e855191866125f2565b506127f5565b61283d612588565b5080515160018101908181116110cb576020830151811015612872575b60586020845192830101538051821161273857505090565b8160011b828104600214831517156110cb576128949061275e855191866125f2565b5061285a565b6128a2612588565b5080515160018101908181116110cb5760208301518110156128d7575b607b6020845192830101538051821161273857505090565b8160011b828104600214831517156110cb576128f99061275e855191866125f2565b506128bf565b612907612588565b5080515160018101908181116110cb57602083015181101561293c575b607a6020845192830101538051821161273857505090565b8160011b828104600214831517156110cb5761295e9061275e855191866125f2565b50612924565b61296c612588565b5080515160018101908181116110cb5760208301518110156129a1575b60796020845192830101538051821161273857505090565b8160011b828104600214831517156110cb576129c39061275e855191866125f2565b50612989565b6129d1612588565b5080515160018101908181116110cb576020830151811015612a06575b60786020845192830101538051821161273857505090565b8160011b828104600214831517156110cb57612a289061275e855191866125f2565b506129ee565b90612a37612588565b5081515160018101918282116110cb576020840151821015612a6a575b6020845192830101538051821161273857505090565b8260011b838104600214841517156110cb57612a9390612a8c865191876125f2565b5085612b63565b50612a54565b90612aa6825191836125f2565b50612aaf612588565b50805190612abb612588565b50612ac98151831115612c14565b82515192612ad783856119f9565b916020928284809401518211612b4c575b5183815197820101968211612b44575b505001915b81811015612b1e5760001991036101000a0190811990511690825116179052565b9192612b39612b33612b3f92865181526119eb565b946119eb565b9261194a565b612afd565b523880612af8565b612b5e612b58836126e5565b82612a99565b612ae8565b90612b6c612588565b508051612b77612588565b50612b858251821115612c14565b82515191612b9382846119f9565b6020918291828701518111612bfd575b865183815197820101968211612bf5575b505001915b81811015612bdb5760001991036101000a019081199051169082511617905290565b9192612b39612b33612bf092865181526119eb565b612bb9565b523880612bb4565b612c0f612c09826126e5565b88612a99565b612ba3565b1561025757565b815161204592919067ffffffffffffffff81169060178211612c5357612c4b9150604060ff845192161790612a2e565b505b51612b63565b5060ff8111612c7857612c7290612c6a8351612835565b508251612fa9565b50612c4d565b61ffff8111612c9757612c7290612c8f83516127d0565b508251612f42565b63ffffffff8111612cb857612c7290612cb0835161276b565b508251612ed9565b612c7290612cc683516126fb565b508251612e6c565b815161204592919067ffffffffffffffff81169060178211612cfe57612c4b9150606060ff845192161790612a2e565b5060ff8111612d1557612c7290612c6a83516129c9565b61ffff8111612d2c57612c7290612c8f8351612964565b63ffffffff8111612d4557612c7290612cb083516128ff565b612c7290612cc6835161289a565b805190612d5e612588565b5081515160018101908181116110cb576020840151811015612dac575b609f6020809551928301015380518211612da4575b505001805190600182018092116110cb5752565b523880612d90565b8160011b93828504600214831517156110cb57602081612dd582976126d4609f955191846125f2565b5095505050612d7b565b805190612dea612588565b5081515160018101908181116110cb576020840151811015612e39575b60ff6020809551928301015380518211612e31575b50500180516000198101919082116110cb5752565b523880612e1c565b8160011b93828504600214831517156110cb57602081612e6282976126d460ff955191846125f2565b5095505050612e07565b90612e75612588565b508151518060080191826008116110cb5760208401518311612eb8575b60088451928301019067ffffffffffffffff198251161790528051821161273857505090565b8260011b838104600214841517156110cb57612ed49085612a99565b612e92565b90612ee2612588565b508151518060040191826004116110cb5760208401518311612f21575b60048451928301019063ffffffff198251161790528051821161273857505090565b8260011b838104600214841517156110cb57612f3d9085612a99565b612eff565b90612f4b612588565b508151518060020191826002116110cb5760208401518311612f88575b60028451928301019061ffff198251161790528051821161273857505090565b8260011b838104600214841517156110cb57612fa49085612a99565b612f68565b90612fb2612588565b508151518060010191826001116110cb5760208401518311612fee575b60018451928301019060ff198251161790528051821161273857505090565b8260011b838104600214841517156110cb5761300a9085612a99565b612fcf565b90815167ffffffffffffffff81116102cc5761303581613030600554610679565b6118a4565b602080601f83116001146130715750819293600092613066575b50508160011b916000199060031b1c191617600555565b01519050388061304f565b90601f198316946130a460056000527f036b6384b5eca791c62761152d0c79bb0604c104a5fb6f4eb0703f3154bb3db090565b926000905b8782106130e15750508360019596106130c8575b505050811b01600555565b015160001960f88460031b161c191690553880806130bd565b806001859682949686015181550195019301906130a9565b60208151910151906020811061310d575090565b6000199060200360031b1b1690565b601c54680100000000000000008110156102cc57613141600191828101601c55610627565b9290926132145780519067ffffffffffffffff82116102cc5761316e826131688654610679565b866118fa565b60209081601f84116001146131aa575092829391839260009461319f575b50501b916000199060031b1c1916179055565b01519250388061318c565b919083601f1981166131c188600052602060002090565b946000905b888383106131fa57505050106131e1575b505050811b019055565b015160001960f88460031b161c191690553880806131d7565b8587015188559096019594850194879350908101906131c6565b610663565b909161323061088993604084526040840190610838565b916020818403910152610838565b1561324557565b606460405162461bcd60e51b815260206004820152601b60248201527f4572726f20616f207061676172206120696e64656e697a6163616f00000000006044820152fd5b601e54601a5411156132c7576106ee60008080806132b5610b20610b206017546001600160a01b031690565b47905af16132c1611beb565b5061323e565b60008080806001600160a01b036016541647905af16132e4611beb565b50156132ec57565b608460405162461bcd60e51b815260206004820152602d60248201527f4572726f20616f207265746f726e6172206f732066756e646f7320706172612060448201527f6120696e73746974756963616f000000000000000000000000000000000000006064820152fdfea2646970667358221220ce5ff509f7773651e22f76c3c5234fa69b10fc3253d084f470418d7890ff6f4a64736f6c6343000813003360c03461008757601f61062e38819003918201601f19168301916001600160401b0383118484101761008c57808492604094855283398101031261008757610052602061004b836100a2565b92016100a2565b9060805260a05260405161057790816100b7823960805181818160bf015261027e015260a05181818161010f01526102460152f35b600080fd5b634e487b7160e01b600052604160045260246000fd5b51906001600160a01b03821682036100875756fe608080604052600436101561001357600080fd5b600090813560e01c908163442b1278146100e3575080637d253aff146100925763bc61a4731461004257600080fd5b3461008b576003199060203683011261008b576004359167ffffffffffffffff831161008e5761014090833603011261008b576020610083836004016101e4565b604051908152f35b80fd5b5080fd5b503461008b578060031936011261008b57602060405173ffffffffffffffffffffffffffffffffffffffff7f0000000000000000000000000000000000000000000000000000000000000000168152f35b90503461008e578160031936011261008e5760209073ffffffffffffffffffffffffffffffffffffffff7f0000000000000000000000000000000000000000000000000000000000000000168152f35b90601f8019910116810190811067ffffffffffffffff82111761015557604052565b634e487b7160e01b600052604160045260246000fd5b9035601e198236030181121561019d57016020813591019167ffffffffffffffff821161019d57813603831361019d57565b600080fd5b908060209392818452848401376000828201840152601f01601f1916010190565b359073ffffffffffffffffffffffffffffffffffffffff8216820361019d57565b90600091610120810135906bffffffffffffffffffffffff82168092036104f85760408051917f095ea7b300000000000000000000000000000000000000000000000000000000835273ffffffffffffffffffffffffffffffffffffffff90817f00000000000000000000000000000000000000000000000000000000000000001680600486015285602486015260209485816044818c887f0000000000000000000000000000000000000000000000000000000000000000165af18015610537576104fc575b508351957f3f678e11000000000000000000000000000000000000000000000000000000008752856004880152886102f96102e6858061016b565b61014060248c01526101648b01916101a2565b9161031d6103098987018761016b565b6023198c8703810160448e015295916101a2565b958061032a8988016101c3565b1660648b0152606086013563ffffffff81168091036104f85760848b0152610354608087016101c3565b1660a48a015260a08501359060ff82168092036104f4576103db8a9687956103cb6103bf6103a18e9c8a9860c48a015261039160c087018761016b565b90868b84030160e48c01526101a2565b6103ae60e086018661016b565b90858a8403016101048b01526101a2565b9261010081019061016b565b91868403016101248701526101a2565b9061014483015203925af19283156104ea5785936104b7575b50821561045a573385528482528420908154916801000000000000000083101561044657600183018082558310156104325794839495815220015590565b602486634e487b7160e01b81526032600452fd5b602486634e487b7160e01b81526041600452fd5b6064925051907f08c379a00000000000000000000000000000000000000000000000000000000082526004820152601560248201527f6175746f2d617070726f76652064697361626c656400000000000000000000006044820152fd5b9092508181813d83116104e3575b6104cf8183610133565b810103126104df575191386103f4565b8480fd5b503d6104c5565b81513d87823e3d90fd5b8280fd5b8380fd5b8581813d8311610530575b6105118183610133565b8101031261052c57518015150361052857386102ab565b8780fd5b8880fd5b503d610507565b85513d8b823e3d90fdfea2646970667358221220203e0203b6245e9eea9665a381eaec57b6fe1350197ad7fa15f5a15f2c69d75f64736f6c63430008130033a264697066735822122035376abb59f117e2fa918c8da9b0a4b55df300bc0cd41f744961a447722e4fb664736f6c63430008130033","opcodes":"PUSH1 0xA0 PUSH1 0x40 MSTORE CALLVALUE PUSH3 0x248 JUMPI PUSH3 0x49D7 DUP1 CODESIZE SUB DUP1 PUSH3 0x1D DUP2 PUSH3 0x24D JUMP JUMPDEST SWAP3 DUP4 CODECOPY DUP2 ADD SWAP1 PUSH1 0x40 DUP2 DUP4 SUB SLT PUSH3 0x248 JUMPI DUP1 MLOAD PUSH1 0x1 PUSH1 0x1 PUSH1 0xA0 SHL SUB DUP2 AND DUP2 SUB PUSH3 0x248 JUMPI PUSH1 0x20 DUP3 DUP2 ADD MLOAD PUSH1 0x1 PUSH1 0x1 PUSH1 0x40 SHL SUB SWAP4 SWAP2 SWAP3 SWAP2 DUP5 DUP3 GT PUSH3 0x248 JUMPI ADD SWAP4 PUSH1 0x1F SWAP2 DUP2 DUP4 DUP8 ADD SLT ISZERO PUSH3 0x248 JUMPI DUP6 MLOAD DUP6 DUP2 GT PUSH3 0x21D JUMPI PUSH1 0x1F NOT SWAP7 PUSH3 0x8A DUP3 DUP7 ADD DUP10 AND DUP8 ADD PUSH3 0x24D JUMP JUMPDEST SWAP4 DUP3 DUP6 MSTORE DUP7 DUP4 DUP4 ADD ADD GT PUSH3 0x248 JUMPI DUP6 SWAP1 PUSH1 0x0 JUMPDEST DUP4 DUP2 LT PUSH3 0x233 JUMPI POP POP PUSH1 0x0 SWAP2 DUP5 ADD ADD MSTORE PUSH1 0x80 MSTORE DUP1 MLOAD SWAP4 DUP5 GT PUSH3 0x21D JUMPI PUSH1 0x0 SLOAD SWAP3 PUSH1 0x1 SWAP4 DUP5 DUP2 DUP2 SHR SWAP2 AND DUP1 ISZERO PUSH3 0x212 JUMPI JUMPDEST DUP3 DUP3 LT EQ PUSH3 0x1FC JUMPI DUP4 DUP2 GT PUSH3 0x1B1 JUMPI JUMPDEST POP DUP1 SWAP3 DUP6 GT PUSH1 0x1 EQ PUSH3 0x147 JUMPI POP DUP4 SWAP5 POP SWAP1 DUP4 SWAP3 SWAP2 PUSH1 0x0 SWAP5 PUSH3 0x13B JUMPI JUMPDEST POP POP SHL SWAP2 PUSH1 0x0 NOT SWAP1 PUSH1 0x3 SHL SHR NOT AND OR PUSH1 0x0 SSTORE JUMPDEST PUSH1 0x40 MLOAD PUSH2 0x4763 SWAP1 DUP2 PUSH3 0x274 DUP3 CODECOPY PUSH1 0x80 MLOAD DUP2 DUP2 DUP2 PUSH2 0x141 ADD MSTORE DUP2 DUP2 PUSH2 0x5EB ADD MSTORE PUSH2 0x78B ADD MSTORE RETURN JUMPDEST ADD MLOAD SWAP3 POP CODESIZE DUP1 PUSH3 0x101 JUMP JUMPDEST SWAP3 SWAP5 DUP5 SWAP1 DUP2 AND PUSH1 0x0 DUP1 MSTORE DUP5 PUSH1 0x0 KECCAK256 SWAP5 PUSH1 0x0 SWAP1 JUMPDEST DUP9 DUP4 DUP4 LT PUSH3 0x196 JUMPI POP POP POP LT PUSH3 0x17C JUMPI JUMPDEST POP POP POP DUP2 SHL ADD PUSH1 0x0 SSTORE PUSH3 0x114 JUMP JUMPDEST ADD MLOAD PUSH1 0x0 NOT PUSH1 0xF8 DUP5 PUSH1 0x3 SHL AND SHR NOT AND SWAP1 SSTORE CODESIZE DUP1 DUP1 PUSH3 0x16D JUMP JUMPDEST DUP6 DUP8 ADD MLOAD DUP9 SSTORE SWAP1 SWAP7 ADD SWAP6 SWAP5 DUP6 ADD SWAP5 DUP8 SWAP4 POP SWAP1 DUP2 ADD SWAP1 PUSH3 0x15A JUMP JUMPDEST PUSH1 0x0 DUP1 MSTORE DUP2 PUSH1 0x0 KECCAK256 DUP5 DUP1 DUP9 ADD PUSH1 0x5 SHR DUP3 ADD SWAP3 DUP5 DUP10 LT PUSH3 0x1F2 JUMPI JUMPDEST ADD PUSH1 0x5 SHR ADD SWAP1 DUP6 SWAP1 JUMPDEST DUP3 DUP2 LT PUSH3 0x1E5 JUMPI POP POP PUSH3 0xE3 JUMP JUMPDEST PUSH1 0x0 DUP2 SSTORE ADD DUP6 SWAP1 PUSH3 0x1D5 JUMP JUMPDEST SWAP3 POP DUP2 SWAP3 PUSH3 0x1CC JUMP JUMPDEST PUSH4 0x4E487B71 PUSH1 0xE0 SHL PUSH1 0x0 MSTORE PUSH1 0x22 PUSH1 0x4 MSTORE PUSH1 0x24 PUSH1 0x0 REVERT JUMPDEST SWAP1 PUSH1 0x7F AND SWAP1 PUSH3 0xD1 JUMP JUMPDEST PUSH4 0x4E487B71 PUSH1 0xE0 SHL PUSH1 0x0 MSTORE PUSH1 0x41 PUSH1 0x4 MSTORE PUSH1 0x24 PUSH1 0x0 REVERT JUMPDEST DUP2 DUP2 ADD DUP4 ADD MLOAD DUP7 DUP3 ADD DUP5 ADD MSTORE DUP8 SWAP3 ADD PUSH3 0x9E JUMP JUMPDEST PUSH1 0x0 DUP1 REVERT JUMPDEST PUSH1 0x40 MLOAD SWAP2 SWAP1 PUSH1 0x1F ADD PUSH1 0x1F NOT AND DUP3 ADD PUSH1 0x1 PUSH1 0x1 PUSH1 0x40 SHL SUB DUP2 GT DUP4 DUP3 LT OR PUSH3 0x21D JUMPI PUSH1 0x40 MSTORE JUMP INVALID PUSH1 0x40 PUSH1 0x80 DUP2 MSTORE PUSH1 0x4 SWAP1 DUP2 CALLDATASIZE LT ISZERO PUSH3 0x22 JUMPI JUMPDEST POP POP CALLDATASIZE ISZERO PUSH3 0x20 JUMPI PUSH1 0x0 DUP1 REVERT JUMPDEST STOP JUMPDEST PUSH1 0x0 DUP1 CALLDATALOAD PUSH1 0xE0 SHR DUP1 PUSH4 0x80A57F9 EQ PUSH3 0x8FF JUMPI DUP1 PUSH4 0x3A133E2C EQ PUSH3 0x849 JUMPI DUP1 PUSH4 0x3CCFD60B EQ PUSH3 0x76C JUMPI DUP1 PUSH4 0x6A4AC979 EQ PUSH3 0x590 JUMPI DUP1 PUSH4 0x77AD0B34 EQ PUSH3 0x32C JUMPI DUP1 PUSH4 0x85FAE602 EQ PUSH3 0x2F3 JUMPI DUP1 PUSH4 0x8A699F00 EQ PUSH3 0x2B7 JUMPI DUP1 PUSH4 0x8B7AFE2E EQ PUSH3 0x29A JUMPI DUP1 PUSH4 0x9B19251A EQ PUSH3 0x25A JUMPI DUP1 PUSH4 0xAF640D0F EQ PUSH3 0x169 JUMPI DUP1 PUSH4 0xDBA6335F EQ PUSH3 0x11F JUMPI PUSH4 0xED23F8C3 EQ PUSH3 0xBF JUMPI POP PUSH3 0x12 JUMP JUMPDEST CALLVALUE PUSH3 0x11C JUMPI DUP2 PUSH1 0x3 NOT CALLDATASIZE ADD SLT PUSH3 0x11C JUMPI PUSH3 0xDB PUSH3 0x93E JUMP JUMPDEST SWAP1 PUSH1 0x24 CALLDATALOAD SWAP4 PUSH1 0x1 PUSH1 0x1 PUSH1 0xA0 SHL SUB DUP1 SWAP4 AND DUP3 MSTORE PUSH1 0x20 MSTORE DUP3 DUP2 KECCAK256 SWAP1 DUP2 SLOAD DUP6 LT ISZERO PUSH3 0x11C JUMPI POP PUSH1 0x20 SWAP4 PUSH3 0x10D SWAP2 PUSH3 0xA8D JUMP JUMPDEST SWAP3 SWAP1 SLOAD SWAP1 MLOAD SWAP3 PUSH1 0x3 SHL SHR AND DUP2 MSTORE RETURN JUMPDEST DUP1 REVERT JUMPDEST POP SWAP1 CALLVALUE PUSH3 0x165 JUMPI DUP2 PUSH1 0x3 NOT CALLDATASIZE ADD SLT PUSH3 0x165 JUMPI PUSH1 0x20 SWAP1 MLOAD PUSH1 0x1 PUSH1 0x1 PUSH1 0xA0 SHL SUB PUSH32 0x0 AND DUP2 MSTORE RETURN JUMPDEST POP DUP1 REVERT JUMPDEST POP SWAP1 CALLVALUE PUSH3 0x165 JUMPI DUP2 PUSH1 0x3 NOT CALLDATASIZE ADD SLT PUSH3 0x165 JUMPI DUP1 MLOAD SWAP1 DUP3 PUSH1 0x1 DUP1 SLOAD SWAP2 PUSH3 0x191 DUP4 PUSH3 0x95A JUMP JUMPDEST DUP1 DUP7 MSTORE SWAP3 DUP3 DUP2 AND SWAP1 DUP2 ISZERO PUSH3 0x22F JUMPI POP PUSH1 0x1 EQ PUSH3 0x1CE JUMPI JUMPDEST POP POP POP PUSH3 0x1BF DUP3 PUSH3 0x1CA SWAP5 SUB DUP4 PUSH3 0x997 JUMP JUMPDEST MLOAD SWAP2 DUP3 SWAP2 DUP3 PUSH3 0x9F5 JUMP JUMPDEST SUB SWAP1 RETURN JUMPDEST SWAP5 POP DUP1 DUP6 MSTORE PUSH32 0xB10E2D527612073B26EECDFD717E6A320CF44B4AFAC2B0732D9FCBE2B7FA0CF6 JUMPDEST DUP3 DUP7 LT PUSH3 0x216 JUMPI POP POP POP PUSH3 0x1BF DUP3 PUSH1 0x20 PUSH3 0x1CA SWAP6 DUP3 ADD ADD SWAP5 PUSH3 0x1AA JUMP JUMPDEST DUP1 SLOAD PUSH1 0x20 DUP8 DUP8 ADD DUP2 ADD SWAP2 SWAP1 SWAP2 MSTORE SWAP1 SWAP6 ADD SWAP5 DUP2 ADD PUSH3 0x1F5 JUMP JUMPDEST PUSH3 0x1CA SWAP8 POP DUP7 SWAP4 POP PUSH1 0x20 SWAP3 POP PUSH3 0x1BF SWAP5 SWAP2 POP PUSH1 0xFF NOT AND DUP3 DUP5 ADD MSTORE ISZERO ISZERO PUSH1 0x5 SHL DUP3 ADD ADD SWAP5 PUSH3 0x1AA JUMP JUMPDEST POP SWAP1 CALLVALUE PUSH3 0x165 JUMPI PUSH1 0x20 CALLDATASIZE PUSH1 0x3 NOT ADD SLT PUSH3 0x165 JUMPI PUSH1 0xFF DUP2 PUSH1 0x20 SWAP4 PUSH1 0x1 PUSH1 0x1 PUSH1 0xA0 SHL SUB PUSH3 0x287 PUSH3 0x93E JUMP JUMPDEST AND DUP2 MSTORE PUSH1 0x3 DUP6 MSTORE KECCAK256 SLOAD AND SWAP1 MLOAD SWAP1 ISZERO ISZERO DUP2 MSTORE RETURN JUMPDEST POP SWAP1 CALLVALUE PUSH3 0x165 JUMPI DUP2 PUSH1 0x3 NOT CALLDATASIZE ADD SLT PUSH3 0x165 JUMPI MLOAD SELFBALANCE DUP2 MSTORE PUSH1 0x20 SWAP1 RETURN JUMPDEST POP SWAP1 CALLVALUE PUSH3 0x165 JUMPI PUSH1 0x20 CALLDATASIZE PUSH1 0x3 NOT ADD SLT PUSH3 0x165 JUMPI PUSH1 0x1 PUSH1 0x1 PUSH1 0xA0 SHL SUB PUSH3 0x2DE PUSH3 0x93E JUMP JUMPDEST AND DUP3 MSTORE PUSH1 0x3 PUSH1 0x20 MSTORE DUP2 KECCAK256 DUP1 SLOAD PUSH1 0xFF NOT AND SWAP1 SSTORE DUP1 RETURN JUMPDEST POP SWAP2 CALLVALUE PUSH3 0x328 JUMPI PUSH1 0x20 CALLDATASIZE PUSH1 0x3 NOT ADD SLT PUSH3 0x328 JUMPI PUSH3 0x10D PUSH1 0x20 SWAP4 DUP4 PUSH1 0x1 PUSH1 0x1 PUSH1 0xA0 SHL SUB SWAP4 CALLER DUP4 MSTORE DUP1 DUP8 MSTORE CALLDATALOAD SWAP2 KECCAK256 PUSH3 0xA8D JUMP JUMPDEST DUP3 DUP1 REVERT JUMPDEST POP SWAP1 CALLVALUE PUSH3 0x165 JUMPI PUSH2 0x180 SWAP1 DUP2 PUSH1 0x3 NOT CALLDATASIZE ADD SLT PUSH3 0x328 JUMPI PUSH3 0x34E PUSH3 0x93E JUMP JUMPDEST SWAP2 PUSH1 0x24 CALLDATALOAD SWAP1 PUSH1 0x1 PUSH1 0x1 PUSH1 0xA0 SHL SUB SWAP4 DUP5 DUP4 AND DUP1 SWAP4 SUB PUSH3 0x58C JUMPI PUSH1 0x84 CALLDATALOAD SWAP2 PUSH1 0xC4 CALLDATALOAD DUP7 DUP2 AND DUP1 SWAP2 SUB PUSH3 0x588 JUMPI PUSH1 0xE4 CALLDATALOAD SWAP1 PUSH8 0xFFFFFFFFFFFFFFFF SWAP2 DUP3 DUP2 AND DUP1 SWAP2 SUB PUSH3 0x584 JUMPI PUSH2 0x104 CALLDATALOAD DUP10 DUP2 AND DUP1 SWAP2 SUB PUSH3 0x580 JUMPI PUSH2 0x124 CALLDATALOAD SWAP1 DUP11 DUP3 AND DUP1 SWAP3 SUB PUSH3 0x57C JUMPI PUSH2 0x144 CALLDATALOAD SWAP3 DUP12 DUP5 AND DUP1 SWAP5 SUB PUSH3 0x578 JUMPI PUSH2 0x164 CALLDATALOAD SWAP5 PUSH4 0xFFFFFFFF DUP7 AND DUP1 SWAP7 SUB PUSH3 0x574 JUMPI PUSH1 0xFF DUP13 DUP16 DUP14 DUP2 MSTORE PUSH1 0x3 PUSH1 0x20 MSTORE KECCAK256 SLOAD AND ISZERO PUSH3 0x50B JUMPI DUP12 MLOAD SWAP9 PUSH2 0x3C71 DUP1 DUP12 ADD SWAP9 DUP10 GT DUP12 DUP11 LT OR PUSH3 0x4F6 JUMPI DUP11 SWAP9 SWAP8 SWAP7 SWAP6 SWAP5 SWAP4 SWAP3 SWAP2 DUP16 SWAP2 PUSH3 0xABD DUP12 CODECOPY AND DUP8 MSTORE DUP12 PUSH1 0x20 DUP9 ADD MSTORE PUSH1 0x44 CALLDATALOAD DUP14 DUP9 ADD MSTORE PUSH1 0x64 CALLDATALOAD PUSH1 0x60 DUP9 ADD MSTORE DUP11 PUSH1 0x80 DUP9 ADD MSTORE PUSH1 0xA4 CALLDATALOAD PUSH1 0xA0 DUP9 ADD MSTORE PUSH1 0xC0 DUP8 ADD MSTORE PUSH1 0xE0 DUP7 ADD MSTORE PUSH2 0x100 DUP6 ADD MSTORE PUSH2 0x120 DUP5 ADD MSTORE PUSH2 0x140 DUP4 ADD MSTORE PUSH2 0x160 DUP3 ADD MSTORE SUB ADD SWAP2 CREATE SWAP1 DUP2 ISZERO PUSH3 0x4EC JUMPI DUP5 MSTORE DUP5 PUSH1 0x20 MSTORE DUP2 DUP5 KECCAK256 DUP1 SLOAD SWAP1 PUSH9 0x10000000000000000 DUP3 LT ISZERO PUSH3 0x4D9 JUMPI SWAP2 DUP5 PUSH3 0x4BB DUP4 PUSH32 0xA155A575082ECF596E5A22A44834BE92670605D1D0832000305888BA02A462D9 SWAP8 SWAP6 PUSH1 0x1 PUSH1 0x20 SWAP9 SWAP7 ADD DUP2 SSTORE PUSH3 0xA8D JUMP JUMPDEST SWAP5 SWAP1 SWAP3 AND SWAP4 DUP3 SLOAD SWAP1 PUSH1 0x3 SHL SWAP2 DUP6 DUP4 SHL SWAP3 SHL NOT AND OR SWAP1 SSTORE MLOAD SWAP1 DUP2 MSTORE LOG1 DUP1 RETURN JUMPDEST PUSH1 0x24 DUP7 PUSH1 0x41 DUP10 PUSH4 0x4E487B71 PUSH1 0xE0 SHL DUP4 MSTORE MSTORE REVERT JUMPDEST DUP3 MLOAD RETURNDATASIZE DUP7 DUP3 RETURNDATACOPY RETURNDATASIZE SWAP1 REVERT JUMPDEST POP DUP16 DUP16 PUSH1 0x41 PUSH1 0x24 SWAP3 PUSH4 0x4E487B71 PUSH1 0xE0 SHL DUP4 MSTORE MSTORE REVERT JUMPDEST PUSH1 0x84 DUP16 PUSH1 0x20 DUP15 MLOAD SWAP2 PUSH3 0x461BCD PUSH1 0xE5 SHL DUP4 MSTORE DUP3 ADD MSTORE PUSH1 0x21 PUSH1 0x24 DUP3 ADD MSTORE PUSH32 0x456E64657265636F206E616F2065737461206E61206C69737461206272616E63 PUSH1 0x44 DUP3 ADD MSTORE PUSH32 0x6100000000000000000000000000000000000000000000000000000000000000 PUSH1 0x64 DUP3 ADD MSTORE REVERT JUMPDEST DUP14 DUP1 REVERT JUMPDEST DUP13 DUP1 REVERT JUMPDEST DUP12 DUP1 REVERT JUMPDEST DUP11 DUP1 REVERT JUMPDEST DUP10 DUP1 REVERT JUMPDEST DUP8 DUP1 REVERT JUMPDEST DUP6 DUP1 REVERT JUMPDEST POP DUP3 CALLVALUE PUSH3 0x165 JUMPI DUP3 PUSH1 0x3 NOT CALLDATASIZE ADD SLT PUSH3 0x165 JUMPI PUSH8 0xFFFFFFFFFFFFFFFF DUP2 CALLDATALOAD DUP2 DUP2 GT PUSH3 0x768 JUMPI PUSH3 0x5C6 SWAP1 CALLDATASIZE SWAP1 DUP5 ADD PUSH3 0xA40 JUMP JUMPDEST PUSH1 0x24 CALLDATALOAD DUP3 DUP2 GT PUSH3 0x764 JUMPI PUSH3 0x5E0 SWAP1 CALLDATASIZE SWAP1 DUP6 ADD PUSH3 0xA40 JUMP JUMPDEST SWAP5 PUSH1 0x1 PUSH1 0x1 PUSH1 0xA0 SHL SUB PUSH32 0x0 AND CALLER SUB PUSH3 0x755 JUMPI MLOAD DUP2 DUP2 DUP1 SWAP4 MLOAD PUSH3 0x62A DUP2 PUSH1 0x20 SWAP7 DUP8 DUP1 SWAP7 ADD PUSH3 0x9D0 JUMP JUMPDEST DUP2 ADD PUSH1 0x2 DUP2 MSTORE SUB ADD SWAP1 KECCAK256 SWAP3 DUP6 MLOAD SWAP3 DUP4 GT PUSH3 0x742 JUMPI POP PUSH3 0x64C DUP4 SLOAD PUSH3 0x95A JUMP JUMPDEST PUSH1 0x1F DUP2 GT PUSH3 0x6FA JUMPI JUMPDEST POP DUP1 PUSH1 0x1F DUP4 GT PUSH1 0x1 EQ PUSH3 0x694 JUMPI POP DUP4 SWAP5 DUP3 SWAP4 SWAP5 SWAP3 PUSH3 0x688 JUMPI JUMPDEST POP POP DUP2 PUSH1 0x1 SHL SWAP2 PUSH1 0x0 NOT SWAP1 PUSH1 0x3 SHL SHR NOT AND OR SWAP1 SSTORE DUP1 RETURN JUMPDEST ADD MLOAD SWAP1 POP DUP5 DUP1 PUSH3 0x671 JUMP JUMPDEST SWAP1 PUSH1 0x1F NOT DUP4 AND SWAP6 DUP5 DUP7 MSTORE DUP3 DUP7 KECCAK256 SWAP3 DUP7 SWAP1 JUMPDEST DUP9 DUP3 LT PUSH3 0x6E1 JUMPI POP POP DUP4 PUSH1 0x1 SWAP6 SWAP7 SWAP8 LT PUSH3 0x6C7 JUMPI JUMPDEST POP POP POP DUP2 SHL ADD SWAP1 SSTORE DUP1 RETURN JUMPDEST ADD MLOAD PUSH1 0x0 NOT PUSH1 0xF8 DUP5 PUSH1 0x3 SHL AND SHR NOT AND SWAP1 SSTORE DUP5 DUP1 DUP1 PUSH3 0x6BC JUMP JUMPDEST DUP1 PUSH1 0x1 DUP6 SWAP7 DUP3 SWAP5 SWAP7 DUP7 ADD MLOAD DUP2 SSTORE ADD SWAP6 ADD SWAP4 ADD SWAP1 PUSH3 0x6A5 JUMP JUMPDEST DUP4 DUP6 MSTORE DUP2 DUP6 KECCAK256 PUSH1 0x1F DUP5 ADD PUSH1 0x5 SHR DUP2 ADD SWAP2 DUP4 DUP6 LT PUSH3 0x737 JUMPI JUMPDEST PUSH1 0x1F ADD PUSH1 0x5 SHR ADD SWAP1 JUMPDEST DUP2 DUP2 LT PUSH3 0x72B JUMPI POP PUSH3 0x656 JUMP JUMPDEST DUP6 DUP2 SSTORE PUSH1 0x1 ADD PUSH3 0x71C JUMP JUMPDEST SWAP1 SWAP2 POP DUP2 SWAP1 PUSH3 0x713 JUMP JUMPDEST DUP5 PUSH1 0x41 PUSH1 0x24 SWAP3 PUSH4 0x4E487B71 PUSH1 0xE0 SHL DUP4 MSTORE MSTORE REVERT JUMPDEST DUP4 SWAP1 MLOAD PUSH4 0x30CD7471 PUSH1 0xE0 SHL DUP2 MSTORE REVERT JUMPDEST DUP5 DUP1 REVERT JUMPDEST DUP4 DUP1 REVERT JUMPDEST POP SWAP2 SWAP1 CALLVALUE PUSH3 0x328 JUMPI DUP3 PUSH1 0x3 NOT CALLDATASIZE ADD SLT PUSH3 0x328 JUMPI PUSH1 0x1 PUSH1 0x1 PUSH1 0xA0 SHL SUB PUSH32 0x0 AND DUP1 CALLER SUB PUSH3 0x83B JUMPI DUP4 DUP1 DUP1 DUP1 SWAP4 SELFBALANCE SWAP1 GAS CALL RETURNDATASIZE ISZERO PUSH3 0x835 JUMPI RETURNDATASIZE PUSH3 0x7CF DUP2 PUSH3 0xA23 JUMP JUMPDEST SWAP1 PUSH3 0x7DE DUP5 MLOAD SWAP3 DUP4 PUSH3 0x997 JUMP JUMPDEST DUP2 MSTORE DUP5 PUSH1 0x20 RETURNDATASIZE SWAP3 ADD RETURNDATACOPY JUMPDEST ISZERO PUSH3 0x7F2 JUMPI DUP3 DUP1 RETURN JUMPDEST SWAP1 PUSH1 0x20 PUSH1 0x64 SWAP3 MLOAD SWAP2 PUSH3 0x461BCD PUSH1 0xE5 SHL DUP4 MSTORE DUP3 ADD MSTORE PUSH1 0xF PUSH1 0x24 DUP3 ADD MSTORE PUSH32 0x4F2073617175652066616C686F752E0000000000000000000000000000000000 PUSH1 0x44 DUP3 ADD MSTORE REVERT JUMPDEST PUSH3 0x7E8 JUMP JUMPDEST POP MLOAD PUSH4 0x30CD7471 PUSH1 0xE0 SHL DUP2 MSTORE REVERT JUMPDEST POP SWAP1 CALLVALUE PUSH3 0x165 JUMPI DUP2 PUSH1 0x3 NOT CALLDATASIZE ADD SLT PUSH3 0x165 JUMPI DUP1 MLOAD SWAP1 DUP3 DUP1 SLOAD PUSH3 0x86E DUP2 PUSH3 0x95A JUMP JUMPDEST DUP1 DUP6 MSTORE SWAP2 PUSH1 0x1 SWAP2 DUP1 DUP4 AND SWAP1 DUP2 ISZERO PUSH3 0x22F JUMPI POP PUSH1 0x1 EQ PUSH3 0x89E JUMPI POP POP POP PUSH3 0x1BF DUP3 PUSH3 0x1CA SWAP5 SUB DUP4 PUSH3 0x997 JUMP JUMPDEST DUP1 DUP1 SWAP7 POP MSTORE PUSH32 0x290DECD9548B62A8D60345A988386FC84BA6BC95484008F6362F93160EF3E563 JUMPDEST DUP3 DUP7 LT PUSH3 0x8E6 JUMPI POP POP POP PUSH3 0x1BF DUP3 PUSH1 0x20 PUSH3 0x1CA SWAP6 DUP3 ADD ADD SWAP5 PUSH3 0x1AA JUMP JUMPDEST DUP1 SLOAD PUSH1 0x20 DUP8 DUP8 ADD DUP2 ADD SWAP2 SWAP1 SWAP2 MSTORE SWAP1 SWAP6 ADD SWAP5 DUP2 ADD PUSH3 0x8C5 JUMP JUMPDEST POP SWAP1 CALLVALUE PUSH3 0x165 JUMPI PUSH1 0x20 CALLDATASIZE PUSH1 0x3 NOT ADD SLT PUSH3 0x165 JUMPI PUSH1 0x1 PUSH1 0x1 PUSH1 0xA0 SHL SUB PUSH3 0x926 PUSH3 0x93E JUMP JUMPDEST AND DUP3 MSTORE PUSH1 0x3 PUSH1 0x20 MSTORE DUP2 KECCAK256 DUP1 SLOAD PUSH1 0xFF NOT AND PUSH1 0x1 OR SWAP1 SSTORE DUP1 RETURN JUMPDEST PUSH1 0x4 CALLDATALOAD SWAP1 PUSH1 0x1 PUSH1 0x1 PUSH1 0xA0 SHL SUB DUP3 AND DUP3 SUB PUSH3 0x955 JUMPI JUMP JUMPDEST PUSH1 0x0 DUP1 REVERT JUMPDEST SWAP1 PUSH1 0x1 DUP3 DUP2 SHR SWAP3 AND DUP1 ISZERO PUSH3 0x98C JUMPI JUMPDEST PUSH1 0x20 DUP4 LT EQ PUSH3 0x976 JUMPI JUMP JUMPDEST PUSH4 0x4E487B71 PUSH1 0xE0 SHL PUSH1 0x0 MSTORE PUSH1 0x22 PUSH1 0x4 MSTORE PUSH1 0x24 PUSH1 0x0 REVERT JUMPDEST SWAP2 PUSH1 0x7F AND SWAP2 PUSH3 0x96A JUMP JUMPDEST SWAP1 PUSH1 0x1F DUP1 NOT SWAP2 ADD AND DUP2 ADD SWAP1 DUP2 LT PUSH8 0xFFFFFFFFFFFFFFFF DUP3 GT OR PUSH3 0x9BA JUMPI PUSH1 0x40 MSTORE JUMP JUMPDEST PUSH4 0x4E487B71 PUSH1 0xE0 SHL PUSH1 0x0 MSTORE PUSH1 0x41 PUSH1 0x4 MSTORE PUSH1 0x24 PUSH1 0x0 REVERT JUMPDEST PUSH1 0x0 JUMPDEST DUP4 DUP2 LT PUSH3 0x9E4 JUMPI POP POP PUSH1 0x0 SWAP2 ADD MSTORE JUMP JUMPDEST DUP2 DUP2 ADD MLOAD DUP4 DUP3 ADD MSTORE PUSH1 0x20 ADD PUSH3 0x9D3 JUMP JUMPDEST PUSH1 0x40 SWAP2 PUSH1 0x20 DUP3 MSTORE PUSH3 0xA17 DUP2 MLOAD DUP1 SWAP3 DUP2 PUSH1 0x20 DUP7 ADD MSTORE PUSH1 0x20 DUP7 DUP7 ADD SWAP2 ADD PUSH3 0x9D0 JUMP JUMPDEST PUSH1 0x1F ADD PUSH1 0x1F NOT AND ADD ADD SWAP1 JUMP JUMPDEST PUSH8 0xFFFFFFFFFFFFFFFF DUP2 GT PUSH3 0x9BA JUMPI PUSH1 0x1F ADD PUSH1 0x1F NOT AND PUSH1 0x20 ADD SWAP1 JUMP JUMPDEST DUP2 PUSH1 0x1F DUP3 ADD SLT ISZERO PUSH3 0x955 JUMPI DUP1 CALLDATALOAD SWAP1 PUSH3 0xA5A DUP3 PUSH3 0xA23 JUMP JUMPDEST SWAP3 PUSH3 0xA6A PUSH1 0x40 MLOAD SWAP5 DUP6 PUSH3 0x997 JUMP JUMPDEST DUP3 DUP5 MSTORE PUSH1 0x20 DUP4 DUP4 ADD ADD GT PUSH3 0x955 JUMPI DUP2 PUSH1 0x0 SWAP3 PUSH1 0x20 DUP1 SWAP4 ADD DUP4 DUP7 ADD CALLDATACOPY DUP4 ADD ADD MSTORE SWAP1 JUMP JUMPDEST DUP1 SLOAD DUP3 LT ISZERO PUSH3 0xAA6 JUMPI PUSH1 0x0 MSTORE PUSH1 0x20 PUSH1 0x0 KECCAK256 ADD SWAP1 PUSH1 0x0 SWAP1 JUMP JUMPDEST PUSH4 0x4E487B71 PUSH1 0xE0 SHL PUSH1 0x0 MSTORE PUSH1 0x32 PUSH1 0x4 MSTORE PUSH1 0x24 PUSH1 0x0 REVERT INVALID PUSH1 0xC0 PUSH1 0x1F NOT PUSH3 0x3C71 CODESIZE DUP2 SWAP1 SUB PUSH1 0x1F DUP2 ADD SWAP3 SWAP1 SWAP3 AND DUP4 ADD SWAP3 SWAP2 PUSH1 0x1 PUSH1 0x1 PUSH1 0x40 SHL SUB SWAP2 DUP4 DUP6 LT DUP4 DUP7 GT OR PUSH3 0x28B JUMPI DUP2 PUSH2 0x180 SWAP3 DUP6 SWAP3 PUSH1 0x40 SWAP8 DUP9 MSTORE DUP4 CODECOPY DUP2 ADD SUB SLT PUSH3 0x286 JUMPI PUSH3 0x4F DUP3 PUSH3 0x2A1 JUMP JUMPDEST SWAP2 PUSH3 0x5E PUSH1 0x20 DUP3 ADD PUSH3 0x2A1 JUMP JUMPDEST SWAP2 DUP5 DUP3 ADD MLOAD SWAP2 PUSH1 0x60 DUP2 ADD MLOAD PUSH1 0x80 DUP3 ADD MLOAD PUSH1 0xA0 DUP4 ADD MLOAD SWAP2 PUSH3 0x82 PUSH1 0xC0 DUP6 ADD PUSH3 0x2A1 JUMP JUMPDEST SWAP3 PUSH1 0xE0 DUP6 ADD MLOAD SWAP4 DUP7 DUP6 AND DUP1 SWAP6 SUB PUSH3 0x286 JUMPI PUSH3 0xA3 PUSH2 0x100 DUP8 ADD PUSH3 0x2A1 JUMP JUMPDEST SWAP5 PUSH3 0xB3 PUSH2 0x120 DUP9 ADD PUSH3 0x2A1 JUMP JUMPDEST SWAP9 PUSH2 0x160 PUSH3 0xC6 PUSH2 0x140 DUP11 ADD PUSH3 0x2A1 JUMP JUMPDEST SWAP9 ADD MLOAD SWAP3 PUSH4 0xFFFFFFFF DUP5 AND DUP5 SUB PUSH3 0x286 JUMPI PUSH1 0x1 PUSH1 0x1 PUSH1 0xA0 SHL SUB SWAP1 DUP2 AND PUSH1 0x80 MSTORE SWAP12 DUP13 AND SWAP11 DUP12 ISZERO PUSH3 0x242 JUMPI PUSH1 0x0 DUP1 SLOAD PUSH1 0x1 PUSH1 0x1 PUSH1 0xA0 SHL SUB NOT SWAP1 DUP2 AND DUP15 OR DUP3 SSTORE PUSH1 0x16 DUP1 SLOAD DUP3 AND SWAP1 SWAP15 OR SWAP1 SWAP14 SSTORE PUSH1 0x17 DUP1 SLOAD SWAP1 SWAP14 AND SWAP2 DUP15 AND SWAP2 SWAP1 SWAP2 OR SWAP1 SWAP12 SSTORE PUSH1 0x1A SSTORE PUSH1 0x6 DUP1 SLOAD PUSH1 0x1 PUSH1 0x1 PUSH1 0x60 SHL SUB NOT AND SWAP1 SWAP2 OR PUSH12 0xFFFFFFFF0000000000000000 SWAP3 DUP14 SHL SWAP3 SWAP1 SWAP3 AND SWAP2 SWAP1 SWAP2 OR SWAP1 SSTORE PUSH1 0x7 SSTORE PUSH1 0x1B SSTORE PUSH1 0x19 SSTORE DUP6 AND PUSH1 0xA0 MSTORE DUP6 MLOAD SWAP3 PUSH2 0x62E DUP1 DUP6 ADD SWAP4 DUP5 GT DUP6 DUP6 LT OR PUSH3 0x22E JUMPI DUP5 SWAP3 DUP8 DUP10 SWAP6 SWAP4 DUP2 SWAP4 PUSH3 0x3643 DUP8 CODECOPY AND DUP4 MSTORE AND PUSH1 0x20 DUP3 ADD MSTORE SUB ADD SWAP1 DUP3 CREATE SWAP1 DUP2 ISZERO PUSH3 0x223 JUMPI POP PUSH1 0xB DUP1 SLOAD PUSH2 0x100 PUSH1 0x1 PUSH1 0xA8 SHL SUB NOT AND PUSH1 0x8 SWAP3 DUP4 SHL PUSH2 0x100 PUSH1 0x1 PUSH1 0xA8 SHL SUB AND OR SWAP1 DUP2 SWAP1 SSTORE DUP4 MLOAD SWAP2 SHR SWAP1 SWAP2 AND DUP2 MSTORE PUSH32 0x3583C1105FD29A46B4D92CEEAFF8BE03CBA58A11CCE44A3B7DA77BBC3798EDC4 SWAP1 PUSH1 0x20 SWAP1 LOG1 TIMESTAMP PUSH1 0x8 SSTORE MLOAD PUSH2 0x338C SWAP1 DUP2 PUSH3 0x2B7 DUP3 CODECOPY PUSH1 0x80 MLOAD DUP2 DUP2 DUP2 PUSH2 0x3CB ADD MSTORE DUP2 DUP2 PUSH2 0x1DA7 ADD MSTORE PUSH2 0x1F89 ADD MSTORE PUSH1 0xA0 MLOAD DUP2 DUP2 DUP2 PUSH2 0x11EE ADD MSTORE PUSH2 0x1FD5 ADD MSTORE RETURN JUMPDEST DUP4 MLOAD SWAP1 RETURNDATASIZE SWAP1 DUP3 RETURNDATACOPY RETURNDATASIZE SWAP1 REVERT JUMPDEST PUSH4 0x4E487B71 PUSH1 0xE0 SHL DUP7 MSTORE PUSH1 0x41 PUSH1 0x4 MSTORE PUSH1 0x24 DUP7 REVERT JUMPDEST DUP14 MLOAD PUSH3 0x461BCD PUSH1 0xE5 SHL DUP2 MSTORE PUSH1 0x20 PUSH1 0x4 DUP3 ADD MSTORE PUSH1 0x18 PUSH1 0x24 DUP3 ADD MSTORE PUSH32 0x43616E6E6F7420736574206F776E657220746F207A65726F0000000000000000 PUSH1 0x44 DUP3 ADD MSTORE PUSH1 0x64 SWAP1 REVERT JUMPDEST PUSH1 0x0 DUP1 REVERT JUMPDEST PUSH4 0x4E487B71 PUSH1 0xE0 SHL PUSH1 0x0 MSTORE PUSH1 0x41 PUSH1 0x4 MSTORE PUSH1 0x24 PUSH1 0x0 REVERT JUMPDEST MLOAD SWAP1 PUSH1 0x1 PUSH1 0x1 PUSH1 0xA0 SHL SUB DUP3 AND DUP3 SUB PUSH3 0x286 JUMPI JUMP INVALID PUSH1 0x80 PUSH1 0x40 MSTORE PUSH1 0x4 CALLDATASIZE LT ISZERO PUSH2 0x12 JUMPI PUSH1 0x0 DUP1 REVERT JUMPDEST PUSH1 0x0 CALLDATALOAD PUSH1 0xE0 SHR DUP1 PUSH4 0x89EA02E EQ PUSH2 0x247 JUMPI DUP1 PUSH4 0x9C1BA2E EQ PUSH2 0x242 JUMPI DUP1 PUSH4 0xCA76175 EQ PUSH2 0x23D JUMPI DUP1 PUSH4 0x1AA46F59 EQ PUSH2 0x238 JUMPI DUP1 PUSH4 0x24B93E3E EQ PUSH2 0x233 JUMPI DUP1 PUSH4 0x277E2213 EQ PUSH2 0x22E JUMPI DUP1 PUSH4 0x303B137C EQ PUSH2 0x229 JUMPI DUP1 PUSH4 0x338CDCA1 EQ PUSH2 0x224 JUMPI DUP1 PUSH4 0x381FC4B5 EQ PUSH2 0x21F JUMPI DUP1 PUSH4 0x3944EA3A EQ PUSH2 0x21A JUMPI DUP1 PUSH4 0x3F678E11 EQ PUSH2 0x215 JUMPI DUP1 PUSH4 0x43CD3D86 EQ PUSH2 0x210 JUMPI DUP1 PUSH4 0x4585E33B EQ PUSH2 0x20B JUMPI DUP1 PUSH4 0x472CBBB0 EQ PUSH2 0x206 JUMPI DUP1 PUSH4 0x48802B92 EQ PUSH2 0x201 JUMPI DUP1 PUSH4 0x4B0795A8 EQ PUSH2 0x1FC JUMPI DUP1 PUSH4 0x5E0611F1 EQ PUSH2 0x1F7 JUMPI DUP1 PUSH4 0x688ECFD1 EQ PUSH2 0x1F2 JUMPI DUP1 PUSH4 0x6E04FF0D EQ PUSH2 0x1ED JUMPI DUP1 PUSH4 0x6E74336B EQ PUSH2 0x1E8 JUMPI DUP1 PUSH4 0x79BA5097 EQ PUSH2 0x1E3 JUMPI DUP1 PUSH4 0x7B103999 EQ PUSH2 0x1DE JUMPI DUP1 PUSH4 0x8B7AFE2E EQ PUSH2 0x1D9 JUMPI DUP1 PUSH4 0x8DA5CB5B EQ PUSH2 0x1D4 JUMPI DUP1 PUSH4 0xA3D3C0D2 EQ PUSH2 0x1CF JUMPI DUP1 PUSH4 0xB1E21749 EQ PUSH2 0x1CA JUMPI DUP1 PUSH4 0xBEF3A2F0 EQ PUSH2 0x1C5 JUMPI DUP1 PUSH4 0xD1384EB6 EQ PUSH2 0x1C0 JUMPI DUP1 PUSH4 0xD811FCF0 EQ PUSH2 0x1BB JUMPI DUP1 PUSH4 0xEBF14A55 EQ PUSH2 0x1B6 JUMPI DUP1 PUSH4 0xF2FDE38B EQ PUSH2 0x1B1 JUMPI DUP1 PUSH4 0xF5C1279B EQ PUSH2 0x1AC JUMPI DUP1 PUSH4 0xF68016B7 EQ PUSH2 0x1A7 JUMPI DUP1 PUSH4 0xFD2C80AE EQ PUSH2 0x1A2 JUMPI PUSH4 0xFFFEB84E EQ PUSH2 0x19D JUMPI PUSH1 0x0 DUP1 REVERT JUMPDEST PUSH2 0x14FE JUMP JUMPDEST PUSH2 0x14E0 JUMP JUMPDEST PUSH2 0x14BC JUMP JUMPDEST PUSH2 0x149E JUMP JUMPDEST PUSH2 0x13CE JUMP JUMPDEST PUSH2 0x1386 JUMP JUMPDEST PUSH2 0x135F JUMP JUMPDEST PUSH2 0x1338 JUMP JUMPDEST PUSH2 0x1291 JUMP JUMPDEST PUSH2 0x1273 JUMP JUMPDEST PUSH2 0x1255 JUMP JUMPDEST PUSH2 0x122E JUMP JUMPDEST PUSH2 0x1212 JUMP JUMPDEST PUSH2 0x11CE JUMP JUMPDEST PUSH2 0x10EE JUMP JUMPDEST PUSH2 0x10D0 JUMP JUMPDEST PUSH2 0x1057 JUMP JUMPDEST PUSH2 0xFB0 JUMP JUMPDEST PUSH2 0xF89 JUMP JUMPDEST PUSH2 0xEE2 JUMP JUMPDEST PUSH2 0xEC4 JUMP JUMPDEST PUSH2 0xD15 JUMP JUMPDEST PUSH2 0xC31 JUMP JUMPDEST PUSH2 0xBE5 JUMP JUMPDEST PUSH2 0xAC5 JUMP JUMPDEST PUSH2 0xA1E JUMP JUMPDEST PUSH2 0xA00 JUMP JUMPDEST PUSH2 0x91F JUMP JUMPDEST PUSH2 0x8F5 JUMP JUMPDEST PUSH2 0x88C JUMP JUMPDEST PUSH2 0x5EA JUMP JUMPDEST PUSH2 0x5CC JUMP JUMPDEST PUSH2 0x372 JUMP JUMPDEST PUSH2 0x27A JUMP JUMPDEST PUSH2 0x25C JUMP JUMPDEST PUSH1 0x0 SWAP2 SUB SLT PUSH2 0x257 JUMPI JUMP JUMPDEST PUSH1 0x0 DUP1 REVERT JUMPDEST CALLVALUE PUSH2 0x257 JUMPI PUSH1 0x0 CALLDATASIZE PUSH1 0x3 NOT ADD SLT PUSH2 0x257 JUMPI PUSH1 0x20 PUSH1 0x8 SLOAD PUSH1 0x40 MLOAD SWAP1 DUP2 MSTORE RETURN JUMPDEST CALLVALUE PUSH2 0x257 JUMPI PUSH1 0x0 CALLDATASIZE PUSH1 0x3 NOT ADD SLT PUSH2 0x257 JUMPI PUSH1 0x20 PUSH8 0xFFFFFFFFFFFFFFFF PUSH1 0x6 SLOAD AND PUSH1 0x40 MLOAD SWAP1 DUP2 MSTORE RETURN JUMPDEST PUSH4 0x4E487B71 PUSH1 0xE0 SHL PUSH1 0x0 MSTORE PUSH1 0x41 PUSH1 0x4 MSTORE PUSH1 0x24 PUSH1 0x0 REVERT JUMPDEST PUSH8 0xFFFFFFFFFFFFFFFF DUP2 GT PUSH2 0x2CC JUMPI PUSH1 0x40 MSTORE JUMP JUMPDEST PUSH2 0x2A2 JUMP JUMPDEST PUSH1 0x40 DUP2 ADD SWAP1 DUP2 LT PUSH8 0xFFFFFFFFFFFFFFFF DUP3 GT OR PUSH2 0x2CC JUMPI PUSH1 0x40 MSTORE JUMP JUMPDEST SWAP1 PUSH1 0x1F DUP1 NOT SWAP2 ADD AND DUP2 ADD SWAP1 DUP2 LT PUSH8 0xFFFFFFFFFFFFFFFF DUP3 GT OR PUSH2 0x2CC JUMPI PUSH1 0x40 MSTORE JUMP JUMPDEST PUSH8 0xFFFFFFFFFFFFFFFF DUP2 GT PUSH2 0x2CC JUMPI PUSH1 0x1F ADD PUSH1 0x1F NOT AND PUSH1 0x20 ADD SWAP1 JUMP JUMPDEST DUP2 PUSH1 0x1F DUP3 ADD SLT ISZERO PUSH2 0x257 JUMPI DUP1 CALLDATALOAD SWAP1 PUSH2 0x342 DUP3 PUSH2 0x30F JUMP JUMPDEST SWAP3 PUSH2 0x350 PUSH1 0x40 MLOAD SWAP5 DUP6 PUSH2 0x2ED JUMP JUMPDEST DUP3 DUP5 MSTORE PUSH1 0x20 DUP4 DUP4 ADD ADD GT PUSH2 0x257 JUMPI DUP2 PUSH1 0x0 SWAP3 PUSH1 0x20 DUP1 SWAP4 ADD DUP4 DUP7 ADD CALLDATACOPY DUP4 ADD ADD MSTORE SWAP1 JUMP JUMPDEST CALLVALUE PUSH2 0x257 JUMPI PUSH1 0x60 CALLDATASIZE PUSH1 0x3 NOT ADD SLT PUSH2 0x257 JUMPI PUSH1 0x4 DUP1 CALLDATALOAD SWAP1 PUSH8 0xFFFFFFFFFFFFFFFF SWAP1 PUSH1 0x24 CALLDATALOAD DUP3 DUP2 GT PUSH2 0x257 JUMPI PUSH2 0x3A9 SWAP1 CALLDATASIZE SWAP1 DUP4 ADD PUSH2 0x32B JUMP JUMPDEST PUSH1 0x44 CALLDATALOAD DUP4 DUP2 GT PUSH2 0x257 JUMPI PUSH2 0x3C0 SWAP1 CALLDATASIZE SWAP1 DUP5 ADD PUSH2 0x32B JUMP JUMPDEST SWAP1 PUSH1 0x1 PUSH1 0x1 PUSH1 0xA0 SHL SUB PUSH32 0x0 AND CALLER SUB PUSH2 0x5A3 JUMPI DUP1 MLOAD SWAP4 DUP5 GT PUSH2 0x2CC JUMPI DUP3 PUSH2 0x40F DUP6 PUSH2 0x40A DUP9 SWAP7 SLOAD PUSH2 0x679 JUMP JUMPDEST PUSH2 0x17ED JUMP JUMPDEST PUSH1 0x20 DUP1 PUSH1 0x1F DUP8 GT PUSH1 0x1 EQ PUSH2 0x4F9 JUMPI POP SWAP5 DUP1 PUSH32 0x7BAB0EC163B5C132C72B8146AC4D6E067E82ED58F8B131150AA71C9258911562 SWAP6 SWAP7 PUSH1 0x0 SWAP2 PUSH2 0x4EE JUMPI JUMPDEST POP DUP2 PUSH1 0x1 SHL SWAP2 PUSH1 0x0 NOT SWAP1 PUSH1 0x3 SHL SHR NOT AND OR SWAP1 SSTORE JUMPDEST PUSH2 0x468 DUP3 PUSH2 0x300F JUMP JUMPDEST PUSH2 0x47B PUSH2 0x476 PUSH1 0xA SLOAD PUSH2 0x19DD JUMP JUMPDEST PUSH1 0xA SSTORE JUMP JUMPDEST PUSH1 0xFF PUSH2 0x489 PUSH1 0xB SLOAD PUSH1 0xFF AND SWAP1 JUMP JUMPDEST AND PUSH2 0x4D0 JUMPI PUSH2 0x497 DUP2 PUSH2 0x311C JUMP JUMPDEST PUSH2 0x4A6 PUSH1 0x40 MLOAD SWAP3 DUP4 SWAP3 DUP4 PUSH2 0x3219 JUMP JUMPDEST SUB SWAP1 LOG2 PUSH32 0x85E1543BF2F84FE80C6BADBCE3648C8539AD1DF4D2B3D822938CA0538BE727E6 PUSH1 0x0 DUP1 LOG2 STOP JUMPDEST PUSH2 0x4E1 PUSH2 0x4DC DUP3 PUSH2 0x30F9 JUMP JUMPDEST PUSH1 0x1E SSTORE JUMP JUMPDEST PUSH2 0x4E9 PUSH2 0x3289 JUMP JUMPDEST PUSH2 0x497 JUMP JUMPDEST SWAP1 POP DUP4 ADD MLOAD CODESIZE PUSH2 0x44B JUMP JUMPDEST PUSH1 0x4 PUSH1 0x0 MSTORE SWAP1 PUSH1 0x1F NOT DUP8 AND PUSH32 0x8A35ACFBC15FF81A39AE7D344FD709F28E8600B4AA8C65C6B64BFE7FE36BD19B SWAP3 PUSH1 0x0 SWAP1 JUMPDEST DUP3 DUP3 LT PUSH2 0x587 JUMPI POP POP SWAP2 DUP8 SWAP2 PUSH32 0x7BAB0EC163B5C132C72B8146AC4D6E067E82ED58F8B131150AA71C9258911562 SWAP8 SWAP9 PUSH1 0x1 SWAP5 LT PUSH2 0x56E JUMPI JUMPDEST POP POP DUP2 SHL ADD SWAP1 SSTORE PUSH2 0x45F JUMP JUMPDEST DUP6 ADD MLOAD PUSH1 0x0 NOT PUSH1 0xF8 DUP5 PUSH1 0x3 SHL AND SHR NOT AND SWAP1 SSTORE CODESIZE DUP1 PUSH2 0x562 JUMP JUMPDEST DUP7 DUP5 ADD MLOAD DUP6 SSTORE DUP11 SWAP9 POP PUSH1 0x1 SWAP1 SWAP5 ADD SWAP4 SWAP3 DUP4 ADD SWAP3 SWAP1 DUP2 ADD SWAP1 PUSH2 0x52A JUMP JUMPDEST DUP3 PUSH1 0x40 MLOAD PUSH32 0xC6829F8300000000000000000000000000000000000000000000000000000000 DUP2 MSTORE REVERT JUMPDEST CALLVALUE PUSH2 0x257 JUMPI PUSH1 0x0 CALLDATASIZE PUSH1 0x3 NOT ADD SLT PUSH2 0x257 JUMPI PUSH1 0x20 PUSH1 0x3 SLOAD PUSH1 0x40 MLOAD SWAP1 DUP2 MSTORE RETURN JUMPDEST CALLVALUE PUSH2 0x257 JUMPI PUSH1 0x0 CALLDATASIZE PUSH1 0x3 NOT ADD SLT PUSH2 0x257 JUMPI PUSH1 0x20 PUSH1 0x6 SLOAD PUSH4 0xFFFFFFFF PUSH1 0x40 MLOAD SWAP2 PUSH1 0x40 SHR AND DUP2 MSTORE RETURN JUMPDEST PUSH4 0x4E487B71 PUSH1 0xE0 SHL PUSH1 0x0 MSTORE PUSH1 0x32 PUSH1 0x4 MSTORE PUSH1 0x24 PUSH1 0x0 REVERT JUMPDEST PUSH1 0x1C SLOAD DUP2 LT ISZERO PUSH2 0x65E JUMPI PUSH1 0x1C PUSH1 0x0 MSTORE PUSH32 0xE4562A10381DEC21B205ED72637E6B1B523BDD0E4D4D50AF5CD23DD4500A211 ADD SWAP1 PUSH1 0x0 SWAP1 JUMP JUMPDEST PUSH2 0x611 JUMP JUMPDEST PUSH4 0x4E487B71 PUSH1 0xE0 SHL PUSH1 0x0 MSTORE PUSH1 0x0 PUSH1 0x4 MSTORE PUSH1 0x24 PUSH1 0x0 REVERT JUMPDEST SWAP1 PUSH1 0x1 DUP3 DUP2 SHR SWAP3 AND DUP1 ISZERO PUSH2 0x6A9 JUMPI JUMPDEST PUSH1 0x20 DUP4 LT EQ PUSH2 0x693 JUMPI JUMP JUMPDEST PUSH4 0x4E487B71 PUSH1 0xE0 SHL PUSH1 0x0 MSTORE PUSH1 0x22 PUSH1 0x4 MSTORE PUSH1 0x24 PUSH1 0x0 REVERT JUMPDEST SWAP2 PUSH1 0x7F AND SWAP2 PUSH2 0x688 JUMP JUMPDEST PUSH1 0x40 MLOAD SWAP1 PUSH1 0x0 DUP3 PUSH1 0x1D SLOAD SWAP2 PUSH2 0x6C7 DUP4 PUSH2 0x679 JUMP JUMPDEST DUP1 DUP4 MSTORE SWAP3 PUSH1 0x1 SWAP1 DUP2 DUP2 AND SWAP1 DUP2 ISZERO PUSH2 0x74F JUMPI POP PUSH1 0x1 EQ PUSH2 0x6F0 JUMPI JUMPDEST POP PUSH2 0x6EE SWAP3 POP SUB DUP4 PUSH2 0x2ED JUMP JUMPDEST JUMP JUMPDEST PUSH1 0x1D PUSH1 0x0 SWAP1 DUP2 MSTORE SWAP2 POP PUSH32 0x6D4407E7BE21F808E6509AA9FA9143369579DD7D760FE20A2C09680FC146134F JUMPDEST DUP5 DUP4 LT PUSH2 0x734 JUMPI POP PUSH2 0x6EE SWAP4 POP POP DUP2 ADD PUSH1 0x20 ADD CODESIZE PUSH2 0x6E1 JUMP JUMPDEST DUP2 SWAP4 POP SWAP1 DUP2 PUSH1 0x20 SWAP3 SLOAD DUP4 DUP6 DUP11 ADD ADD MSTORE ADD SWAP2 ADD SWAP1 SWAP2 DUP6 SWAP3 PUSH2 0x71B JUMP JUMPDEST SWAP1 POP PUSH1 0x20 SWAP3 POP PUSH2 0x6EE SWAP5 SWAP2 POP PUSH1 0xFF NOT AND DUP3 DUP5 ADD MSTORE ISZERO ISZERO PUSH1 0x5 SHL DUP3 ADD ADD CODESIZE PUSH2 0x6E1 JUMP JUMPDEST SWAP1 PUSH1 0x40 MLOAD SWAP2 DUP3 PUSH1 0x0 DUP3 SLOAD SWAP3 PUSH2 0x785 DUP5 PUSH2 0x679 JUMP JUMPDEST SWAP1 DUP2 DUP5 MSTORE PUSH1 0x1 SWAP5 DUP6 DUP2 AND SWAP1 DUP2 PUSH1 0x0 EQ PUSH2 0x7F2 JUMPI POP PUSH1 0x1 EQ PUSH2 0x7AF JUMPI JUMPDEST POP POP PUSH2 0x6EE SWAP3 POP SUB DUP4 PUSH2 0x2ED JUMP JUMPDEST SWAP1 SWAP4 SWAP2 POP PUSH1 0x0 MSTORE PUSH1 0x20 SWAP1 DUP2 PUSH1 0x0 KECCAK256 SWAP4 PUSH1 0x0 SWAP2 JUMPDEST DUP2 DUP4 LT PUSH2 0x7DA JUMPI POP POP PUSH2 0x6EE SWAP4 POP DUP3 ADD ADD CODESIZE DUP1 PUSH2 0x7A1 JUMP JUMPDEST DUP6 SLOAD DUP9 DUP5 ADD DUP6 ADD MSTORE SWAP5 DUP6 ADD SWAP5 DUP8 SWAP5 POP SWAP2 DUP4 ADD SWAP2 PUSH2 0x7C2 JUMP JUMPDEST SWAP2 POP POP PUSH2 0x6EE SWAP5 POP PUSH1 0x20 SWAP3 POP PUSH1 0xFF NOT AND DUP3 DUP5 ADD MSTORE ISZERO ISZERO PUSH1 0x5 SHL DUP3 ADD ADD CODESIZE DUP1 PUSH2 0x7A1 JUMP JUMPDEST PUSH1 0x0 JUMPDEST DUP3 DUP2 LT PUSH2 0x827 JUMPI POP PUSH1 0x0 SWAP2 ADD MSTORE JUMP JUMPDEST PUSH1 0x80 DUP2 ADD MLOAD DUP3 DUP3 ADD MSTORE PUSH1 0x20 ADD PUSH2 0x818 JUMP JUMPDEST SWAP2 SWAP1 DUP3 MLOAD SWAP3 DUP4 DUP3 MSTORE PUSH1 0x0 JUMPDEST DUP5 DUP2 LT PUSH2 0x864 JUMPI POP POP DUP3 PUSH1 0x0 PUSH1 0x20 DUP1 SWAP5 SWAP6 DUP5 ADD ADD MSTORE PUSH1 0x1F DUP1 NOT SWAP2 ADD AND ADD ADD SWAP1 JUMP JUMPDEST PUSH1 0x20 DUP2 DUP4 ADD DUP2 ADD MLOAD DUP5 DUP4 ADD DUP3 ADD MSTORE ADD PUSH2 0x843 JUMP JUMPDEST SWAP1 PUSH1 0x20 PUSH2 0x889 SWAP3 DUP2 DUP2 MSTORE ADD SWAP1 PUSH2 0x838 JUMP JUMPDEST SWAP1 JUMP JUMPDEST CALLVALUE PUSH2 0x257 JUMPI PUSH1 0x20 CALLDATASIZE PUSH1 0x3 NOT ADD SLT PUSH2 0x257 JUMPI PUSH1 0x4 CALLDATALOAD PUSH1 0x1C SLOAD DUP2 LT ISZERO PUSH2 0x257 JUMPI PUSH2 0x8DD PUSH2 0x8F1 SWAP2 PUSH1 0x1C PUSH1 0x0 MSTORE PUSH32 0xE4562A10381DEC21B205ED72637E6B1B523BDD0E4D4D50AF5CD23DD4500A211 ADD PUSH2 0x771 JUMP JUMPDEST PUSH1 0x40 MLOAD SWAP2 DUP3 SWAP2 PUSH1 0x20 DUP4 MSTORE PUSH1 0x20 DUP4 ADD SWAP1 PUSH2 0x838 JUMP JUMPDEST SUB SWAP1 RETURN JUMPDEST CALLVALUE PUSH2 0x257 JUMPI PUSH1 0x0 CALLDATASIZE PUSH1 0x3 NOT ADD SLT PUSH2 0x257 JUMPI PUSH1 0x20 PUSH1 0x1 PUSH1 0x1 PUSH1 0xA0 SHL SUB PUSH1 0xB SLOAD PUSH1 0x8 SHR AND PUSH1 0x40 MLOAD SWAP1 DUP2 MSTORE RETURN JUMPDEST CALLVALUE PUSH2 0x257 JUMPI PUSH1 0x0 DUP1 PUSH1 0x3 NOT CALLDATASIZE ADD SLT PUSH2 0x9FD JUMPI PUSH1 0x40 MLOAD SWAP1 DUP1 PUSH1 0xD SLOAD PUSH2 0x942 DUP2 PUSH2 0x679 JUMP JUMPDEST DUP1 DUP6 MSTORE SWAP2 PUSH1 0x1 SWAP2 DUP1 DUP4 AND SWAP1 DUP2 ISZERO PUSH2 0x9D3 JUMPI POP PUSH1 0x1 EQ PUSH2 0x978 JUMPI JUMPDEST PUSH2 0x8F1 DUP6 PUSH2 0x96C DUP2 DUP8 SUB DUP3 PUSH2 0x2ED JUMP JUMPDEST PUSH1 0x40 MLOAD SWAP2 DUP3 SWAP2 DUP3 PUSH2 0x878 JUMP JUMPDEST SWAP3 POP PUSH1 0xD DUP4 MSTORE PUSH32 0xD7B6990105719101DABEB77144F2A3385C8033ACD3AF97E9423A695E81AD1EB5 JUMPDEST DUP3 DUP5 LT PUSH2 0x9BB JUMPI POP POP POP DUP2 ADD PUSH1 0x20 ADD PUSH2 0x96C DUP3 PUSH2 0x8F1 PUSH2 0x95C JUMP JUMPDEST DUP1 SLOAD PUSH1 0x20 DUP6 DUP8 ADD DUP2 ADD SWAP2 SWAP1 SWAP2 MSTORE SWAP1 SWAP4 ADD SWAP3 DUP2 ADD PUSH2 0x9A0 JUMP JUMPDEST DUP7 SWAP6 POP PUSH2 0x8F1 SWAP7 SWAP4 POP PUSH1 0x20 SWAP3 POP PUSH2 0x96C SWAP5 SWAP2 POP PUSH1 0xFF NOT AND DUP3 DUP5 ADD MSTORE ISZERO ISZERO PUSH1 0x5 SHL DUP3 ADD ADD SWAP3 SWAP4 PUSH2 0x95C JUMP JUMPDEST DUP1 REVERT JUMPDEST CALLVALUE PUSH2 0x257 JUMPI PUSH1 0x0 CALLDATASIZE PUSH1 0x3 NOT ADD SLT PUSH2 0x257 JUMPI PUSH1 0x20 PUSH1 0xA SLOAD PUSH1 0x40 MLOAD SWAP1 DUP2 MSTORE RETURN JUMPDEST CALLVALUE PUSH2 0x257 JUMPI PUSH1 0x0 DUP1 PUSH1 0x3 NOT CALLDATASIZE ADD SLT PUSH2 0x9FD JUMPI PUSH1 0x40 MLOAD SWAP1 DUP1 PUSH1 0x11 SLOAD PUSH2 0xA41 DUP2 PUSH2 0x679 JUMP JUMPDEST DUP1 DUP6 MSTORE SWAP2 PUSH1 0x1 SWAP2 DUP1 DUP4 AND SWAP1 DUP2 ISZERO PUSH2 0x9D3 JUMPI POP PUSH1 0x1 EQ PUSH2 0xA6A JUMPI PUSH2 0x8F1 DUP6 PUSH2 0x96C DUP2 DUP8 SUB DUP3 PUSH2 0x2ED JUMP JUMPDEST SWAP3 POP PUSH1 0x11 DUP4 MSTORE PUSH32 0x31ECC21A745E3968A04E9570E4425BC18FA8019C68028196B546D1669C200C68 JUMPDEST DUP3 DUP5 LT PUSH2 0xAAD JUMPI POP POP POP DUP2 ADD PUSH1 0x20 ADD PUSH2 0x96C DUP3 PUSH2 0x8F1 PUSH2 0x95C JUMP JUMPDEST DUP1 SLOAD PUSH1 0x20 DUP6 DUP8 ADD DUP2 ADD SWAP2 SWAP1 SWAP2 MSTORE SWAP1 SWAP4 ADD SWAP3 DUP2 ADD PUSH2 0xA92 JUMP JUMPDEST CALLVALUE PUSH2 0x257 JUMPI PUSH1 0x3 NOT PUSH1 0x20 CALLDATASIZE DUP3 ADD SLT PUSH2 0x257 JUMPI PUSH1 0x4 CALLDATALOAD SWAP1 PUSH8 0xFFFFFFFFFFFFFFFF DUP3 GT PUSH2 0x257 JUMPI PUSH2 0x140 SWAP1 DUP3 CALLDATASIZE SUB ADD SLT PUSH2 0x257 JUMPI PUSH1 0x20 PUSH2 0xB65 PUSH1 0x0 SWAP3 PUSH2 0xB2C PUSH2 0xB20 PUSH1 0x1 PUSH1 0x1 PUSH1 0xA0 SHL SUB PUSH1 0xB SLOAD PUSH1 0x8 SHR AND PUSH1 0x1 PUSH1 0x1 PUSH1 0xA0 SHL SUB AND SWAP1 JUMP JUMPDEST PUSH1 0x1 PUSH1 0x1 PUSH1 0xA0 SHL SUB AND SWAP1 JUMP JUMPDEST SWAP1 PUSH1 0x40 MLOAD SWAP5 DUP6 DUP1 SWAP5 DUP2 SWAP4 PUSH32 0xBC61A47300000000000000000000000000000000000000000000000000000000 DUP4 MSTORE PUSH1 0x4 ADD PUSH1 0x4 DUP4 ADD PUSH2 0x1686 JUMP JUMPDEST SUB SWAP3 GAS CALL DUP1 ISZERO PUSH2 0xBE0 JUMPI PUSH2 0xB81 SWAP2 PUSH1 0x0 SWAP2 PUSH2 0xBB2 JUMPI JUMPDEST POP PUSH1 0xC SSTORE JUMP JUMPDEST PUSH1 0xC SLOAD PUSH1 0x40 MLOAD SWAP1 DUP2 MSTORE PUSH32 0x7623383A750B4166574A1B2DFF61440ED0DFA3708CBE620C58339CCA510D1AF9 SWAP1 PUSH1 0x20 SWAP1 LOG1 STOP JUMPDEST PUSH2 0xBD3 SWAP2 POP PUSH1 0x20 RETURNDATASIZE DUP2 GT PUSH2 0xBD9 JUMPI JUMPDEST PUSH2 0xBCB DUP2 DUP4 PUSH2 0x2ED JUMP JUMPDEST DUP2 ADD SWAP1 PUSH2 0x15FD JUMP JUMPDEST CODESIZE PUSH2 0xB7B JUMP JUMPDEST POP RETURNDATASIZE PUSH2 0xBC1 JUMP JUMPDEST PUSH2 0x17CA JUMP JUMPDEST CALLVALUE PUSH2 0x257 JUMPI PUSH1 0x0 CALLDATASIZE PUSH1 0x3 NOT ADD SLT PUSH2 0x257 JUMPI PUSH1 0x20 PUSH1 0x15 SLOAD PUSH1 0x40 MLOAD SWAP1 DUP2 MSTORE RETURN JUMPDEST SWAP2 DUP2 PUSH1 0x1F DUP5 ADD SLT ISZERO PUSH2 0x257 JUMPI DUP3 CALLDATALOAD SWAP2 PUSH8 0xFFFFFFFFFFFFFFFF DUP4 GT PUSH2 0x257 JUMPI PUSH1 0x20 DUP4 DUP2 DUP7 ADD SWAP6 ADD ADD GT PUSH2 0x257 JUMPI JUMP JUMPDEST CALLVALUE PUSH2 0x257 JUMPI PUSH1 0x20 CALLDATASIZE PUSH1 0x3 NOT ADD SLT PUSH2 0x257 JUMPI PUSH1 0x4 CALLDATALOAD PUSH8 0xFFFFFFFFFFFFFFFF DUP2 GT PUSH2 0x257 JUMPI PUSH2 0xC62 SWAP1 CALLDATASIZE SWAP1 PUSH1 0x4 ADD PUSH2 0xC03 JUMP JUMPDEST POP POP PUSH1 0x0 SLOAD PUSH1 0x1 PUSH1 0x1 PUSH1 0xA0 SHL SUB AND CALLER DUP2 EQ ISZERO DUP1 PUSH2 0xCD3 JUMPI JUMPDEST PUSH2 0xC88 JUMPI PUSH2 0xC86 PUSH2 0x1D04 JUMP JUMPDEST STOP JUMPDEST PUSH1 0x18 SLOAD PUSH1 0x40 MLOAD PUSH32 0x426FBC7100000000000000000000000000000000000000000000000000000000 DUP2 MSTORE CALLER PUSH1 0x4 DUP3 ADD MSTORE PUSH1 0x1 PUSH1 0x1 PUSH1 0xA0 SHL SUB SWAP3 DUP4 AND PUSH1 0x24 DUP3 ADD MSTORE SWAP2 AND PUSH1 0x44 DUP3 ADD MSTORE PUSH1 0x64 SWAP1 REVERT JUMPDEST POP PUSH2 0xCE9 PUSH2 0xB20 PUSH1 0x18 SLOAD PUSH1 0x1 PUSH1 0x1 PUSH1 0xA0 SHL SUB AND SWAP1 JUMP JUMPDEST CALLER EQ ISZERO PUSH2 0xC7A JUMP JUMPDEST PUSH1 0x44 CALLDATALOAD SWAP1 PUSH4 0xFFFFFFFF DUP3 AND DUP3 SUB PUSH2 0x257 JUMPI JUMP JUMPDEST CALLDATALOAD SWAP1 PUSH4 0xFFFFFFFF DUP3 AND DUP3 SUB PUSH2 0x257 JUMPI JUMP JUMPDEST CALLVALUE PUSH2 0x257 JUMPI PUSH1 0xA0 CALLDATASIZE PUSH1 0x3 NOT ADD SLT PUSH2 0x257 JUMPI PUSH8 0xFFFFFFFFFFFFFFFF PUSH1 0x4 CALLDATALOAD DUP2 DUP2 GT PUSH2 0x257 JUMPI PUSH2 0xD47 SWAP1 CALLDATASIZE SWAP1 PUSH1 0x4 ADD PUSH2 0xC03 JUMP JUMPDEST PUSH1 0x24 CALLDATALOAD SWAP3 SWAP2 DUP4 DUP4 AND DUP5 SUB PUSH2 0x257 JUMPI PUSH2 0xD5D PUSH2 0xCF1 JUMP JUMPDEST SWAP3 PUSH2 0xD66 PUSH2 0x15A5 JUMP JUMPDEST DUP3 GT PUSH2 0x2CC JUMPI PUSH2 0xD80 DUP3 PUSH2 0xD7B PUSH1 0x2 SLOAD PUSH2 0x679 JUMP JUMPDEST PUSH2 0x184E JUMP JUMPDEST PUSH1 0x0 SWAP1 PUSH1 0x1F DUP4 GT PUSH1 0x1 EQ PUSH2 0xE20 JUMPI SWAP2 DUP1 PUSH2 0xDFF SWAP6 SWAP3 PUSH2 0xDD4 SWAP5 PUSH1 0x0 SWAP3 PUSH2 0xE15 JUMPI JUMPDEST POP POP DUP2 PUSH1 0x1 SHL SWAP2 PUSH1 0x0 NOT SWAP1 PUSH1 0x3 SHL SHR NOT AND OR PUSH1 0x2 SSTORE PUSH8 0xFFFFFFFFFFFFFFFF AND PUSH8 0xFFFFFFFFFFFFFFFF NOT PUSH1 0x6 SLOAD AND OR PUSH1 0x6 SSTORE JUMP JUMPDEST PUSH12 0xFFFFFFFF0000000000000000 PUSH1 0x6 SLOAD SWAP2 PUSH1 0x40 SHL AND SWAP1 PUSH12 0xFFFFFFFF0000000000000000 NOT AND OR PUSH1 0x6 SSTORE JUMP JUMPDEST PUSH2 0xE0A PUSH1 0x64 CALLDATALOAD PUSH1 0xF SSTORE JUMP JUMPDEST PUSH2 0xC86 PUSH1 0x84 CALLDATALOAD PUSH1 0x7 SSTORE JUMP JUMPDEST ADD CALLDATALOAD SWAP1 POP CODESIZE DUP1 PUSH2 0xDA1 JUMP JUMPDEST PUSH1 0x2 PUSH1 0x0 MSTORE PUSH32 0x405787FA12A823E0F2B7631CC41B3BA8828B3321CA811111FA75CD3AA3BB5ACE SWAP2 PUSH1 0x1F NOT DUP5 AND DUP2 JUMPDEST DUP2 DUP2 LT PUSH2 0xEAC JUMPI POP SWAP3 PUSH1 0x1 SWAP3 DUP6 SWAP3 PUSH2 0xDD4 SWAP7 PUSH2 0xDFF SWAP10 SWAP7 LT PUSH2 0xE92 JUMPI JUMPDEST POP POP POP DUP2 SHL ADD PUSH1 0x2 SSTORE PUSH8 0xFFFFFFFFFFFFFFFF AND PUSH8 0xFFFFFFFFFFFFFFFF NOT PUSH1 0x6 SLOAD AND OR PUSH1 0x6 SSTORE JUMP JUMPDEST ADD CALLDATALOAD PUSH1 0x0 NOT PUSH1 0x3 DUP5 SWAP1 SHL PUSH1 0xF8 AND SHR NOT AND SWAP1 SSTORE CODESIZE DUP1 DUP1 PUSH2 0xE6B JUMP JUMPDEST SWAP2 SWAP4 PUSH1 0x20 PUSH1 0x1 DUP2 SWAP3 DUP8 DUP8 ADD CALLDATALOAD DUP2 SSTORE ADD SWAP6 ADD SWAP3 ADD PUSH2 0xE4E JUMP JUMPDEST CALLVALUE PUSH2 0x257 JUMPI PUSH1 0x0 CALLDATASIZE PUSH1 0x3 NOT ADD SLT PUSH2 0x257 JUMPI PUSH1 0x20 PUSH1 0x14 SLOAD PUSH1 0x40 MLOAD SWAP1 DUP2 MSTORE RETURN JUMPDEST CALLVALUE PUSH2 0x257 JUMPI PUSH1 0x0 DUP1 PUSH1 0x3 NOT CALLDATASIZE ADD SLT PUSH2 0x9FD JUMPI PUSH1 0x40 MLOAD SWAP1 DUP1 PUSH1 0x12 SLOAD PUSH2 0xF05 DUP2 PUSH2 0x679 JUMP JUMPDEST DUP1 DUP6 MSTORE SWAP2 PUSH1 0x1 SWAP2 DUP1 DUP4 AND SWAP1 DUP2 ISZERO PUSH2 0x9D3 JUMPI POP PUSH1 0x1 EQ PUSH2 0xF2E JUMPI PUSH2 0x8F1 DUP6 PUSH2 0x96C DUP2 DUP8 SUB DUP3 PUSH2 0x2ED JUMP JUMPDEST SWAP3 POP PUSH1 0x12 DUP4 MSTORE PUSH32 0xBB8A6A4669BA250D26CD7A459ECA9D215F8307E33AEBE50379BC5A3617EC3444 JUMPDEST DUP3 DUP5 LT PUSH2 0xF71 JUMPI POP POP POP DUP2 ADD PUSH1 0x20 ADD PUSH2 0x96C DUP3 PUSH2 0x8F1 PUSH2 0x95C JUMP JUMPDEST DUP1 SLOAD PUSH1 0x20 DUP6 DUP8 ADD DUP2 ADD SWAP2 SWAP1 SWAP2 MSTORE SWAP1 SWAP4 ADD SWAP3 DUP2 ADD PUSH2 0xF56 JUMP JUMPDEST CALLVALUE PUSH2 0x257 JUMPI PUSH1 0x0 CALLDATASIZE PUSH1 0x3 NOT ADD SLT PUSH2 0x257 JUMPI PUSH1 0x20 PUSH1 0x1 PUSH1 0x1 PUSH1 0xA0 SHL SUB PUSH1 0x18 SLOAD AND PUSH1 0x40 MLOAD SWAP1 DUP2 MSTORE RETURN JUMPDEST CALLVALUE PUSH2 0x257 JUMPI PUSH1 0x0 DUP1 PUSH1 0x3 NOT CALLDATASIZE ADD SLT PUSH2 0x9FD JUMPI PUSH1 0x40 MLOAD SWAP1 DUP1 PUSH1 0x2 SLOAD PUSH2 0xFD3 DUP2 PUSH2 0x679 JUMP JUMPDEST DUP1 DUP6 MSTORE SWAP2 PUSH1 0x1 SWAP2 DUP1 DUP4 AND SWAP1 DUP2 ISZERO PUSH2 0x9D3 JUMPI POP PUSH1 0x1 EQ PUSH2 0xFFC JUMPI PUSH2 0x8F1 DUP6 PUSH2 0x96C DUP2 DUP8 SUB DUP3 PUSH2 0x2ED JUMP JUMPDEST SWAP3 POP PUSH1 0x2 DUP4 MSTORE PUSH32 0x405787FA12A823E0F2B7631CC41B3BA8828B3321CA811111FA75CD3AA3BB5ACE JUMPDEST DUP3 DUP5 LT PUSH2 0x103F JUMPI POP POP POP DUP2 ADD PUSH1 0x20 ADD PUSH2 0x96C DUP3 PUSH2 0x8F1 PUSH2 0x95C JUMP JUMPDEST DUP1 SLOAD PUSH1 0x20 DUP6 DUP8 ADD DUP2 ADD SWAP2 SWAP1 SWAP2 MSTORE SWAP1 SWAP4 ADD SWAP3 DUP2 ADD PUSH2 0x1024 JUMP JUMPDEST CALLVALUE PUSH2 0x257 JUMPI PUSH1 0x20 CALLDATASIZE PUSH1 0x3 NOT ADD SLT PUSH2 0x257 JUMPI PUSH1 0x4 CALLDATALOAD PUSH8 0xFFFFFFFFFFFFFFFF DUP2 GT PUSH2 0x257 JUMPI PUSH2 0x1088 SWAP1 CALLDATASIZE SWAP1 PUSH1 0x4 ADD PUSH2 0x32B JUMP JUMPDEST POP PUSH1 0x8 SLOAD TIMESTAMP SUB TIMESTAMP DUP2 GT PUSH2 0x10CB JUMPI PUSH1 0x7 SLOAD LT PUSH1 0x40 MLOAD SWAP1 DUP2 MSTORE PUSH1 0x40 PUSH1 0x20 DUP3 ADD MSTORE PUSH1 0x60 DUP2 DUP2 MLOAD DUP1 PUSH1 0x40 DUP4 ADD MSTORE PUSH2 0x10BD DUP2 DUP5 DUP5 ADD PUSH2 0x815 JUMP JUMPDEST PUSH1 0x1F ADD PUSH1 0x1F NOT AND DUP2 ADD SUB ADD SWAP1 RETURN JUMPDEST PUSH2 0x1934 JUMP JUMPDEST CALLVALUE PUSH2 0x257 JUMPI PUSH1 0x0 CALLDATASIZE PUSH1 0x3 NOT ADD SLT PUSH2 0x257 JUMPI PUSH1 0x20 PUSH1 0xF SLOAD PUSH1 0x40 MLOAD SWAP1 DUP2 MSTORE RETURN JUMPDEST CALLVALUE PUSH2 0x257 JUMPI PUSH1 0x0 DUP1 PUSH1 0x3 NOT CALLDATASIZE ADD SLT PUSH2 0x9FD JUMPI PUSH1 0x1 PUSH1 0x1 PUSH1 0xA0 SHL SUB DUP1 PUSH1 0x1 SLOAD AND CALLER SUB PUSH2 0x118A JUMPI DUP2 SLOAD PUSH1 0x1 PUSH1 0x1 PUSH1 0xA0 SHL SUB AND PUSH1 0x0 DUP1 SLOAD PUSH20 0xFFFFFFFFFFFFFFFFFFFFFFFFFFFFFFFFFFFFFFFF NOT AND CALLER OR SWAP1 SSTORE SWAP1 PUSH2 0x1160 PUSH20 0xFFFFFFFFFFFFFFFFFFFFFFFFFFFFFFFFFFFFFFFF NOT PUSH1 0x1 SLOAD AND PUSH1 0x1 SSTORE JUMP JUMPDEST CALLER SWAP2 AND PUSH32 0x8BE0079C531659141344CD1FD0A4F28419497F9722A3DAAFE3B4186F6B6457E0 DUP4 DUP1 LOG3 DUP1 RETURN JUMPDEST PUSH1 0x64 PUSH1 0x40 MLOAD PUSH3 0x461BCD PUSH1 0xE5 SHL DUP2 MSTORE PUSH1 0x20 PUSH1 0x4 DUP3 ADD MSTORE PUSH1 0x16 PUSH1 0x24 DUP3 ADD MSTORE PUSH32 0x4D7573742062652070726F706F736564206F776E657200000000000000000000 PUSH1 0x44 DUP3 ADD MSTORE REVERT JUMPDEST CALLVALUE PUSH2 0x257 JUMPI PUSH1 0x0 CALLDATASIZE PUSH1 0x3 NOT ADD SLT PUSH2 0x257 JUMPI PUSH1 0x20 PUSH1 0x40 MLOAD PUSH1 0x1 PUSH1 0x1 PUSH1 0xA0 SHL SUB PUSH32 0x0 AND DUP2 MSTORE RETURN JUMPDEST CALLVALUE PUSH2 0x257 JUMPI PUSH1 0x0 CALLDATASIZE PUSH1 0x3 NOT ADD SLT PUSH2 0x257 JUMPI PUSH1 0x20 SELFBALANCE PUSH1 0x40 MLOAD SWAP1 DUP2 MSTORE RETURN JUMPDEST CALLVALUE PUSH2 0x257 JUMPI PUSH1 0x0 CALLDATASIZE PUSH1 0x3 NOT ADD SLT PUSH2 0x257 JUMPI PUSH1 0x20 PUSH1 0x1 PUSH1 0x1 PUSH1 0xA0 SHL SUB PUSH1 0x0 SLOAD AND PUSH1 0x40 MLOAD SWAP1 DUP2 MSTORE RETURN JUMPDEST CALLVALUE PUSH2 0x257 JUMPI PUSH1 0x0 CALLDATASIZE PUSH1 0x3 NOT ADD SLT PUSH2 0x257 JUMPI PUSH1 0x20 PUSH1 0x9 SLOAD PUSH1 0x40 MLOAD SWAP1 DUP2 MSTORE RETURN JUMPDEST CALLVALUE PUSH2 0x257 JUMPI PUSH1 0x0 CALLDATASIZE PUSH1 0x3 NOT ADD SLT PUSH2 0x257 JUMPI PUSH1 0x20 PUSH1 0x10 SLOAD PUSH1 0x40 MLOAD SWAP1 DUP2 MSTORE RETURN JUMPDEST CALLVALUE PUSH2 0x257 JUMPI PUSH1 0x0 DUP1 PUSH1 0x3 NOT CALLDATASIZE ADD SLT PUSH2 0x9FD JUMPI PUSH1 0x40 MLOAD SWAP1 DUP1 PUSH1 0x4 SLOAD PUSH2 0x12B4 DUP2 PUSH2 0x679 JUMP JUMPDEST DUP1 DUP6 MSTORE SWAP2 PUSH1 0x1 SWAP2 DUP1 DUP4 AND SWAP1 DUP2 ISZERO PUSH2 0x9D3 JUMPI POP PUSH1 0x1 EQ PUSH2 0x12DD JUMPI PUSH2 0x8F1 DUP6 PUSH2 0x96C DUP2 DUP8 SUB DUP3 PUSH2 0x2ED JUMP JUMPDEST SWAP3 POP PUSH1 0x4 DUP4 MSTORE PUSH32 0x8A35ACFBC15FF81A39AE7D344FD709F28E8600B4AA8C65C6B64BFE7FE36BD19B JUMPDEST DUP3 DUP5 LT PUSH2 0x1320 JUMPI POP POP POP DUP2 ADD PUSH1 0x20 ADD PUSH2 0x96C DUP3 PUSH2 0x8F1 PUSH2 0x95C JUMP JUMPDEST DUP1 SLOAD PUSH1 0x20 DUP6 DUP8 ADD DUP2 ADD SWAP2 SWAP1 SWAP2 MSTORE SWAP1 SWAP4 ADD SWAP3 DUP2 ADD PUSH2 0x1305 JUMP JUMPDEST CALLVALUE PUSH2 0x257 JUMPI PUSH1 0x0 CALLDATASIZE PUSH1 0x3 NOT ADD SLT PUSH2 0x257 JUMPI PUSH1 0x20 PUSH1 0x1 PUSH1 0x1 PUSH1 0xA0 SHL SUB PUSH1 0x16 SLOAD AND PUSH1 0x40 MLOAD SWAP1 DUP2 MSTORE RETURN JUMPDEST CALLVALUE PUSH2 0x257 JUMPI PUSH1 0x0 CALLDATASIZE PUSH1 0x3 NOT ADD SLT PUSH2 0x257 JUMPI PUSH1 0x20 PUSH1 0x1 PUSH1 0x1 PUSH1 0xA0 SHL SUB PUSH1 0x17 SLOAD AND PUSH1 0x40 MLOAD SWAP1 DUP2 MSTORE RETURN JUMPDEST CALLVALUE PUSH2 0x257 JUMPI PUSH1 0x0 CALLDATASIZE PUSH1 0x3 NOT ADD SLT PUSH2 0x257 JUMPI PUSH1 0x20 PUSH1 0x1B SLOAD PUSH1 0x40 MLOAD SWAP1 DUP2 MSTORE RETURN JUMPDEST PUSH1 0x4 CALLDATALOAD SWAP1 PUSH1 0x1 PUSH1 0x1 PUSH1 0xA0 SHL SUB DUP3 AND DUP3 SUB PUSH2 0x257 JUMPI JUMP JUMPDEST CALLDATALOAD SWAP1 PUSH1 0x1 PUSH1 0x1 PUSH1 0xA0 SHL SUB DUP3 AND DUP3 SUB PUSH2 0x257 JUMPI JUMP JUMPDEST CALLVALUE PUSH2 0x257 JUMPI PUSH1 0x20 CALLDATASIZE PUSH1 0x3 NOT ADD SLT PUSH2 0x257 JUMPI PUSH1 0x1 PUSH1 0x1 PUSH1 0xA0 SHL SUB PUSH2 0x13EF PUSH2 0x13A4 JUMP JUMPDEST PUSH2 0x13F7 PUSH2 0x15A5 JUMP JUMPDEST AND CALLER DUP2 EQ PUSH2 0x145A JUMPI DUP1 PUSH20 0xFFFFFFFFFFFFFFFFFFFFFFFFFFFFFFFFFFFFFFFF NOT PUSH1 0x1 SLOAD AND OR PUSH1 0x1 SSTORE PUSH2 0x1433 PUSH2 0xB20 PUSH1 0x0 SLOAD PUSH1 0x1 PUSH1 0x1 PUSH1 0xA0 SHL SUB AND SWAP1 JUMP JUMPDEST PUSH32 0xED8889F560326EB138920D842192F0EB3DD22B4F139C87A2C57538E05BAE1278 PUSH1 0x0 DUP1 LOG3 STOP JUMPDEST PUSH1 0x64 PUSH1 0x40 MLOAD PUSH3 0x461BCD PUSH1 0xE5 SHL DUP2 MSTORE PUSH1 0x20 PUSH1 0x4 DUP3 ADD MSTORE PUSH1 0x17 PUSH1 0x24 DUP3 ADD MSTORE PUSH32 0x43616E6E6F74207472616E7366657220746F2073656C66000000000000000000 PUSH1 0x44 DUP3 ADD MSTORE REVERT JUMPDEST CALLVALUE PUSH2 0x257 JUMPI PUSH1 0x0 CALLDATASIZE PUSH1 0x3 NOT ADD SLT PUSH2 0x257 JUMPI PUSH1 0x20 PUSH1 0x13 SLOAD PUSH1 0x40 MLOAD SWAP1 DUP2 MSTORE RETURN JUMPDEST CALLVALUE PUSH2 0x257 JUMPI PUSH1 0x0 CALLDATASIZE PUSH1 0x3 NOT ADD SLT PUSH2 0x257 JUMPI PUSH1 0x20 PUSH4 0xFFFFFFFF PUSH1 0xE SLOAD AND PUSH1 0x40 MLOAD SWAP1 DUP2 MSTORE RETURN JUMPDEST CALLVALUE PUSH2 0x257 JUMPI PUSH1 0x0 CALLDATASIZE PUSH1 0x3 NOT ADD SLT PUSH2 0x257 JUMPI PUSH1 0x20 PUSH1 0x7 SLOAD PUSH1 0x40 MLOAD SWAP1 DUP2 MSTORE RETURN JUMPDEST CALLVALUE PUSH2 0x257 JUMPI PUSH1 0x0 DUP1 PUSH1 0x3 NOT CALLDATASIZE ADD SLT PUSH2 0x9FD JUMPI PUSH1 0x40 MLOAD SWAP1 DUP1 PUSH1 0x5 SLOAD PUSH2 0x1521 DUP2 PUSH2 0x679 JUMP JUMPDEST DUP1 DUP6 MSTORE SWAP2 PUSH1 0x1 SWAP2 DUP1 DUP4 AND SWAP1 DUP2 ISZERO PUSH2 0x9D3 JUMPI POP PUSH1 0x1 EQ PUSH2 0x154A JUMPI PUSH2 0x8F1 DUP6 PUSH2 0x96C DUP2 DUP8 SUB DUP3 PUSH2 0x2ED JUMP JUMPDEST SWAP3 POP PUSH1 0x5 DUP4 MSTORE PUSH32 0x36B6384B5ECA791C62761152D0C79BB0604C104A5FB6F4EB0703F3154BB3DB0 JUMPDEST DUP3 DUP5 LT PUSH2 0x158D JUMPI POP POP POP DUP2 ADD PUSH1 0x20 ADD PUSH2 0x96C DUP3 PUSH2 0x8F1 PUSH2 0x95C JUMP JUMPDEST DUP1 SLOAD PUSH1 0x20 DUP6 DUP8 ADD DUP2 ADD SWAP2 SWAP1 SWAP2 MSTORE SWAP1 SWAP4 ADD SWAP3 DUP2 ADD PUSH2 0x1572 JUMP JUMPDEST PUSH1 0x1 PUSH1 0x1 PUSH1 0xA0 SHL SUB PUSH1 0x0 SLOAD AND CALLER SUB PUSH2 0x15B9 JUMPI JUMP JUMPDEST PUSH1 0x64 PUSH1 0x40 MLOAD PUSH3 0x461BCD PUSH1 0xE5 SHL DUP2 MSTORE PUSH1 0x20 PUSH1 0x4 DUP3 ADD MSTORE PUSH1 0x16 PUSH1 0x24 DUP3 ADD MSTORE PUSH32 0x4F6E6C792063616C6C61626C65206279206F776E657200000000000000000000 PUSH1 0x44 DUP3 ADD MSTORE REVERT JUMPDEST SWAP1 DUP2 PUSH1 0x20 SWAP2 SUB SLT PUSH2 0x257 JUMPI MLOAD SWAP1 JUMP JUMPDEST SWAP1 CALLDATALOAD PUSH1 0x1E NOT DUP3 CALLDATASIZE SUB ADD DUP2 SLT ISZERO PUSH2 0x257 JUMPI ADD PUSH1 0x20 DUP2 CALLDATALOAD SWAP2 ADD SWAP2 PUSH8 0xFFFFFFFFFFFFFFFF DUP3 GT PUSH2 0x257 JUMPI DUP2 CALLDATASIZE SUB DUP4 SGT PUSH2 0x257 JUMPI JUMP JUMPDEST SWAP1 DUP1 PUSH1 0x20 SWAP4 SWAP3 DUP2 DUP5 MSTORE DUP5 DUP5 ADD CALLDATACOPY PUSH1 0x0 DUP3 DUP3 ADD DUP5 ADD MSTORE PUSH1 0x1F ADD PUSH1 0x1F NOT AND ADD ADD SWAP1 JUMP JUMPDEST CALLDATALOAD SWAP1 PUSH1 0xFF DUP3 AND DUP3 SUB PUSH2 0x257 JUMPI JUMP JUMPDEST CALLDATALOAD SWAP1 PUSH12 0xFFFFFFFFFFFFFFFFFFFFFFFF DUP3 AND DUP3 SUB PUSH2 0x257 JUMPI JUMP JUMPDEST PUSH2 0x889 SWAP1 PUSH1 0x20 DUP2 MSTORE PUSH2 0x16B5 PUSH2 0x17B7 PUSH2 0x169E DUP6 DUP1 PUSH2 0x160C JUMP JUMPDEST SWAP3 SWAP1 PUSH2 0x140 SWAP4 DUP5 PUSH1 0x20 DUP8 ADD MSTORE PUSH2 0x160 DUP7 ADD SWAP2 PUSH2 0x163E JUMP JUMPDEST PUSH2 0x17B0 PUSH2 0x176F PUSH2 0x16DF PUSH2 0x16CB PUSH1 0x20 DUP11 ADD DUP11 PUSH2 0x160C JUMP JUMPDEST PUSH1 0x1F NOT DUP10 DUP8 SUB DUP2 ADD PUSH1 0x40 DUP12 ADD MSTORE SWAP6 SWAP2 PUSH2 0x163E JUMP JUMPDEST PUSH2 0x16FE PUSH2 0x16EE PUSH1 0x40 DUP12 ADD PUSH2 0x13BA JUMP JUMPDEST PUSH1 0x1 PUSH1 0x1 PUSH1 0xA0 SHL SUB AND PUSH1 0x60 DUP10 ADD MSTORE JUMP JUMPDEST PUSH2 0x171A PUSH2 0x170D PUSH1 0x60 DUP12 ADD PUSH2 0xD04 JUMP JUMPDEST PUSH4 0xFFFFFFFF AND PUSH1 0x80 DUP10 ADD MSTORE JUMP JUMPDEST PUSH2 0x1739 PUSH2 0x1729 PUSH1 0x80 DUP12 ADD PUSH2 0x13BA JUMP JUMPDEST PUSH1 0x1 PUSH1 0x1 PUSH1 0xA0 SHL SUB AND PUSH1 0xA0 DUP10 ADD MSTORE JUMP JUMPDEST PUSH2 0x1752 PUSH2 0x1748 PUSH1 0xA0 DUP12 ADD PUSH2 0x165F JUMP JUMPDEST PUSH1 0xFF AND PUSH1 0xC0 DUP10 ADD MSTORE JUMP JUMPDEST PUSH2 0x175F PUSH1 0xC0 DUP11 ADD DUP11 PUSH2 0x160C JUMP JUMPDEST SWAP1 DUP6 DUP10 DUP5 SUB ADD PUSH1 0xE0 DUP11 ADD MSTORE PUSH2 0x163E JUMP JUMPDEST PUSH2 0x179E PUSH2 0x1795 PUSH2 0x1782 PUSH1 0xE0 DUP12 ADD DUP12 PUSH2 0x160C JUMP JUMPDEST PUSH2 0x100 SWAP5 SWAP2 DUP8 DUP12 DUP5 SUB ADD DUP7 DUP13 ADD MSTORE PUSH2 0x163E JUMP JUMPDEST SWAP2 DUP10 ADD DUP10 PUSH2 0x160C JUMP JUMPDEST SWAP1 PUSH2 0x120 SWAP5 DUP9 DUP5 SUB ADD DUP6 DUP10 ADD MSTORE PUSH2 0x163E JUMP JUMPDEST SWAP6 ADD PUSH2 0x166D JUMP JUMPDEST PUSH12 0xFFFFFFFFFFFFFFFFFFFFFFFF AND SWAP2 ADD MSTORE JUMP JUMPDEST PUSH1 0x40 MLOAD RETURNDATASIZE PUSH1 0x0 DUP3 RETURNDATACOPY RETURNDATASIZE SWAP1 REVERT JUMPDEST DUP2 DUP2 LT PUSH2 0x17E1 JUMPI POP POP JUMP JUMPDEST PUSH1 0x0 DUP2 SSTORE PUSH1 0x1 ADD PUSH2 0x17D6 JUMP JUMPDEST SWAP1 PUSH1 0x1F DUP3 GT PUSH2 0x17FA JUMPI POP POP JUMP JUMPDEST PUSH2 0x6EE SWAP2 PUSH1 0x4 PUSH1 0x0 MSTORE PUSH32 0x8A35ACFBC15FF81A39AE7D344FD709F28E8600B4AA8C65C6B64BFE7FE36BD19B SWAP1 PUSH1 0x20 PUSH1 0x1F DUP5 ADD PUSH1 0x5 SHR DUP4 ADD SWAP4 LT PUSH2 0x1844 JUMPI JUMPDEST PUSH1 0x1F ADD PUSH1 0x5 SHR ADD SWAP1 PUSH2 0x17D6 JUMP JUMPDEST SWAP1 SWAP2 POP DUP2 SWAP1 PUSH2 0x1837 JUMP JUMPDEST SWAP1 PUSH1 0x1F DUP3 GT PUSH2 0x185B JUMPI POP POP JUMP JUMPDEST PUSH2 0x6EE SWAP2 PUSH1 0x2 PUSH1 0x0 MSTORE PUSH32 0x405787FA12A823E0F2B7631CC41B3BA8828B3321CA811111FA75CD3AA3BB5ACE SWAP1 PUSH1 0x20 PUSH1 0x1F DUP5 ADD PUSH1 0x5 SHR DUP4 ADD SWAP4 LT PUSH2 0x1844 JUMPI PUSH1 0x1F ADD PUSH1 0x5 SHR ADD SWAP1 PUSH2 0x17D6 JUMP JUMPDEST SWAP1 PUSH1 0x1F DUP3 GT PUSH2 0x18B1 JUMPI POP POP JUMP JUMPDEST PUSH2 0x6EE SWAP2 PUSH1 0x5 PUSH1 0x0 MSTORE PUSH32 0x36B6384B5ECA791C62761152D0C79BB0604C104A5FB6F4EB0703F3154BB3DB0 SWAP1 PUSH1 0x20 PUSH1 0x1F DUP5 ADD PUSH1 0x5 SHR DUP4 ADD SWAP4 LT PUSH2 0x1844 JUMPI PUSH1 0x1F ADD PUSH1 0x5 SHR ADD SWAP1 PUSH2 0x17D6 JUMP JUMPDEST SWAP2 SWAP1 PUSH1 0x1F DUP2 GT PUSH2 0x1909 JUMPI POP POP POP JUMP JUMPDEST PUSH2 0x6EE SWAP3 PUSH1 0x0 MSTORE PUSH1 0x20 PUSH1 0x0 KECCAK256 SWAP1 PUSH1 0x20 PUSH1 0x1F DUP5 ADD PUSH1 0x5 SHR DUP4 ADD SWAP4 LT PUSH2 0x1844 JUMPI PUSH1 0x1F ADD PUSH1 0x5 SHR ADD SWAP1 PUSH2 0x17D6 JUMP JUMPDEST PUSH4 0x4E487B71 PUSH1 0xE0 SHL PUSH1 0x0 MSTORE PUSH1 0x11 PUSH1 0x4 MSTORE PUSH1 0x24 PUSH1 0x0 REVERT JUMPDEST PUSH1 0x1F NOT DUP2 ADD SWAP2 SWAP1 DUP3 GT PUSH2 0x10CB JUMPI JUMP JUMPDEST PUSH1 0x60 PUSH1 0x8 SLOAD TIMESTAMP SUB TIMESTAMP DUP2 GT PUSH2 0x10CB JUMPI PUSH1 0x7 SLOAD LT SWAP2 JUMP JUMPDEST PUSH1 0x40 MLOAD SWAP1 PUSH1 0x20 DUP3 ADD DUP3 DUP2 LT PUSH8 0xFFFFFFFFFFFFFFFF DUP3 GT OR PUSH2 0x2CC JUMPI PUSH1 0x40 MSTORE PUSH1 0x0 DUP3 MSTORE JUMP JUMPDEST ISZERO PUSH2 0x1999 JUMPI JUMP JUMPDEST PUSH1 0x64 PUSH1 0x40 MLOAD PUSH3 0x461BCD PUSH1 0xE5 SHL DUP2 MSTORE PUSH1 0x20 PUSH1 0x4 DUP3 ADD MSTORE PUSH1 0x15 PUSH1 0x24 DUP3 ADD MSTORE PUSH32 0x54696D6520696E74657276616C206E6F74206D65740000000000000000000000 PUSH1 0x44 DUP3 ADD MSTORE REVERT JUMPDEST SWAP1 PUSH1 0x1 DUP3 ADD DUP1 SWAP3 GT PUSH2 0x10CB JUMPI JUMP JUMPDEST SWAP1 PUSH1 0x20 DUP3 ADD DUP1 SWAP3 GT PUSH2 0x10CB JUMPI JUMP JUMPDEST SWAP2 SWAP1 DUP3 ADD DUP1 SWAP3 GT PUSH2 0x10CB JUMPI JUMP JUMPDEST ISZERO PUSH2 0x1A0D JUMPI JUMP JUMPDEST PUSH1 0x64 PUSH1 0x40 MLOAD PUSH3 0x461BCD PUSH1 0xE5 SHL DUP2 MSTORE PUSH1 0x20 PUSH1 0x4 DUP3 ADD MSTORE PUSH1 0x15 PUSH1 0x24 DUP3 ADD MSTORE PUSH32 0x55706B656570206E6F7420726567697374657265640000000000000000000000 PUSH1 0x44 DUP3 ADD MSTORE REVERT JUMPDEST PUSH1 0x40 MLOAD SWAP1 PUSH1 0xE0 DUP3 ADD DUP3 DUP2 LT PUSH8 0xFFFFFFFFFFFFFFFF DUP3 GT OR PUSH2 0x2CC JUMPI PUSH1 0x40 MSTORE PUSH1 0x60 PUSH1 0xC0 DUP4 PUSH1 0x0 DUP2 MSTORE PUSH1 0x0 PUSH1 0x20 DUP3 ADD MSTORE PUSH1 0x0 PUSH1 0x40 DUP3 ADD MSTORE DUP3 DUP1 DUP3 ADD MSTORE DUP3 PUSH1 0x80 DUP3 ADD MSTORE DUP3 PUSH1 0xA0 DUP3 ADD MSTORE ADD MSTORE JUMP JUMPDEST PUSH1 0x1C SLOAD SWAP1 PUSH8 0xFFFFFFFFFFFFFFFF DUP3 GT PUSH2 0x2CC JUMPI PUSH1 0x40 MLOAD SWAP2 PUSH1 0x20 PUSH2 0x1AC3 DUP2 DUP4 PUSH1 0x5 SHL ADD DUP6 PUSH2 0x2ED JUMP JUMPDEST DUP2 DUP5 MSTORE DUP1 DUP5 ADD SWAP1 PUSH1 0x1C PUSH1 0x0 MSTORE PUSH32 0xE4562A10381DEC21B205ED72637E6B1B523BDD0E4D4D50AF5CD23DD4500A211 PUSH1 0x0 SWAP3 JUMPDEST DUP5 DUP5 LT PUSH2 0x1B02 JUMPI POP POP POP POP POP JUMP JUMPDEST PUSH1 0x1 DUP4 DUP2 SWAP3 PUSH2 0x1B10 DUP6 PUSH2 0x771 JUMP JUMPDEST DUP2 MSTORE ADD SWAP3 ADD SWAP4 ADD SWAP3 SWAP1 PUSH2 0x1AF4 JUMP JUMPDEST SWAP1 PUSH2 0x1B4C PUSH1 0x80 SWAP4 PUSH8 0xFFFFFFFFFFFFFFFF PUSH4 0xFFFFFFFF SWAP4 SWAP9 SWAP8 SWAP7 SWAP9 AND DUP5 MSTORE PUSH1 0xA0 PUSH1 0x20 DUP6 ADD MSTORE PUSH1 0xA0 DUP5 ADD SWAP1 PUSH2 0x838 JUMP JUMPDEST SWAP6 PUSH1 0x1 PUSH1 0x40 DUP5 ADD MSTORE AND PUSH1 0x60 DUP3 ADD MSTORE ADD MSTORE JUMP JUMPDEST PUSH1 0x0 SWAP1 PUSH1 0x3 RETURNDATASIZE GT PUSH2 0x1B6B JUMPI JUMP JUMPDEST SWAP1 POP PUSH1 0x4 PUSH1 0x0 DUP1 RETURNDATACOPY PUSH1 0x0 MLOAD PUSH1 0xE0 SHR SWAP1 JUMP JUMPDEST PUSH1 0x0 PUSH1 0x44 RETURNDATASIZE LT PUSH2 0x889 JUMPI PUSH1 0x40 MLOAD PUSH1 0x3 NOT SWAP2 RETURNDATASIZE DUP4 ADD PUSH1 0x4 DUP4 RETURNDATACOPY DUP2 MLOAD PUSH8 0xFFFFFFFFFFFFFFFF SWAP2 DUP3 DUP3 GT RETURNDATASIZE PUSH1 0x24 DUP5 ADD GT OR PUSH2 0x1BDA JUMPI DUP2 DUP5 ADD SWAP5 DUP6 MLOAD SWAP4 DUP5 GT PUSH2 0x1BE2 JUMPI RETURNDATASIZE DUP6 ADD ADD PUSH1 0x20 DUP5 DUP8 ADD ADD GT PUSH2 0x1BDA JUMPI POP PUSH2 0x889 SWAP3 SWAP2 ADD PUSH1 0x20 ADD SWAP1 PUSH2 0x2ED JUMP JUMPDEST SWAP5 SWAP4 POP POP POP POP JUMP JUMPDEST POP SWAP5 SWAP4 POP POP POP POP JUMP JUMPDEST RETURNDATASIZE ISZERO PUSH2 0x1C16 JUMPI RETURNDATASIZE SWAP1 PUSH2 0x1BFC DUP3 PUSH2 0x30F JUMP JUMPDEST SWAP2 PUSH2 0x1C0A PUSH1 0x40 MLOAD SWAP4 DUP5 PUSH2 0x2ED JUMP JUMPDEST DUP3 MSTORE RETURNDATASIZE PUSH1 0x0 PUSH1 0x20 DUP5 ADD RETURNDATACOPY JUMP JUMPDEST PUSH1 0x60 SWAP1 JUMP JUMPDEST SWAP1 PUSH8 0xFFFFFFFFFFFFFFFF SWAP1 SWAP5 SWAP4 SWAP3 SWAP5 AND DUP2 MSTORE PUSH1 0x20 SWAP4 PUSH1 0xA0 DUP6 DUP4 ADD MSTORE PUSH1 0x0 PUSH1 0x2 SLOAD SWAP6 PUSH2 0x1C45 DUP8 PUSH2 0x679 JUMP JUMPDEST SWAP1 DUP2 PUSH1 0xA0 DUP7 ADD MSTORE PUSH1 0x1 SWAP8 DUP9 DUP2 AND SWAP1 DUP2 PUSH1 0x0 EQ PUSH2 0x1CDB JUMPI POP PUSH1 0x1 EQ PUSH2 0x1C7F JUMPI JUMPDEST POP POP PUSH1 0x40 DUP4 ADD SWAP6 SWAP1 SWAP6 MSTORE PUSH4 0xFFFFFFFF AND PUSH1 0x60 DUP3 ADD MSTORE PUSH1 0x80 ADD MSTORE JUMP JUMPDEST PUSH1 0x2 PUSH1 0x0 SWAP1 DUP2 MSTORE SWAP3 POP DUP8 PUSH32 0x405787FA12A823E0F2B7631CC41B3BA8828B3321CA811111FA75CD3AA3BB5ACE JUMPDEST DUP4 DUP6 LT PUSH2 0x1CC6 JUMPI POP POP POP POP DUP3 ADD PUSH1 0xC0 ADD DUP2 PUSH4 0xFFFFFFFF PUSH2 0x1C64 JUMP JUMPDEST DUP1 SLOAD DUP8 DUP7 ADD PUSH1 0xC0 ADD MSTORE SWAP4 DUP3 ADD SWAP4 DUP10 SWAP2 ADD PUSH2 0x1CAB JUMP JUMPDEST PUSH1 0xFF NOT AND PUSH1 0xC0 DUP8 DUP2 ADD SWAP2 SWAP1 SWAP2 MSTORE SWAP3 ISZERO ISZERO PUSH1 0x5 SHL DUP7 ADD SWAP1 SWAP3 ADD SWAP3 POP DUP4 SWAP2 POP PUSH4 0xFFFFFFFF SWAP1 POP PUSH2 0x1C64 JUMP JUMPDEST PUSH2 0x1D0C PUSH2 0x196E JUMP JUMPDEST POP PUSH2 0x1D1E PUSH2 0x1D18 PUSH2 0x1959 JUMP JUMPDEST POP PUSH2 0x1992 JUMP JUMPDEST PUSH2 0x1D27 TIMESTAMP PUSH1 0x8 SSTORE JUMP JUMPDEST PUSH2 0x1D3A PUSH2 0x1D35 PUSH1 0x9 SLOAD PUSH2 0x19DD JUMP JUMPDEST PUSH1 0x9 SSTORE JUMP JUMPDEST PUSH1 0x1B SLOAD PUSH1 0x1C SLOAD LT ISZERO PUSH2 0x1ED9 JUMPI PUSH2 0x1D59 PUSH2 0x1D54 PUSH1 0x13 SLOAD PUSH2 0x19DD JUMP JUMPDEST PUSH1 0x13 SSTORE JUMP JUMPDEST PUSH1 0x6 SLOAD PUSH8 0xFFFFFFFFFFFFFFFF AND PUSH1 0x20 PUSH2 0x1D77 PUSH1 0xE SLOAD PUSH4 0xFFFFFFFF AND SWAP1 JUMP JUMPDEST PUSH1 0xF SLOAD SWAP3 PUSH2 0x1D99 PUSH1 0x40 MLOAD SWAP5 DUP6 SWAP4 DUP5 SWAP4 PUSH4 0x230E93B1 PUSH1 0xE1 SHL DUP6 MSTORE PUSH1 0x4 DUP6 ADD PUSH2 0x1C1B JUMP JUMPDEST SUB DUP2 PUSH1 0x0 PUSH1 0x1 PUSH1 0x1 PUSH1 0xA0 SHL SUB PUSH32 0x0 AND GAS CALL PUSH1 0x0 SWAP2 DUP2 PUSH2 0x1EB9 JUMPI JUMPDEST POP PUSH2 0x1E76 JUMPI POP PUSH1 0x1 PUSH2 0x1DE2 PUSH2 0x1B5E JUMP JUMPDEST PUSH4 0x8C379A0 EQ PUSH2 0x1E24 JUMPI JUMPDEST PUSH2 0x1DF3 JUMPI JUMP JUMPDEST PUSH32 0x9C4BFA18304482256875C29FABB1A44A5ECD325F214EA17BAB8F31E869FAF4C8 PUSH2 0x1E1F PUSH2 0x96C PUSH2 0x1BEB JUMP JUMPDEST SUB SWAP1 LOG1 JUMP JUMPDEST PUSH2 0x1E2C PUSH2 0x1B7C JUMP JUMPDEST DUP1 PUSH2 0x1E38 JUMPI JUMPDEST POP PUSH2 0x1DED JUMP JUMPDEST SWAP1 POP PUSH32 0x2BA61E3733E7AC99181C22307780F651EC8FD92FE661A84DFBE711710B2DC36C PUSH2 0x1E6D PUSH1 0x0 SWAP3 PUSH1 0x40 MLOAD SWAP2 DUP3 SWAP2 DUP3 PUSH2 0x878 JUMP JUMPDEST SUB SWAP1 LOG1 CODESIZE PUSH2 0x1E32 JUMP JUMPDEST PUSH2 0x1E7F DUP2 PUSH1 0x10 SSTORE JUMP JUMPDEST PUSH2 0x1E92 PUSH2 0x1E8D PUSH1 0x14 SLOAD PUSH2 0x19DD JUMP JUMPDEST PUSH1 0x14 SSTORE JUMP JUMPDEST PUSH32 0x1131472297A800FEE664D1D89CFA8F7676FF07189ECC53F80BBB5F4969099DB8 PUSH1 0x0 DUP1 LOG2 JUMP JUMPDEST PUSH2 0x1ED2 SWAP2 SWAP3 POP PUSH1 0x20 RETURNDATASIZE DUP2 GT PUSH2 0xBD9 JUMPI PUSH2 0xBCB DUP2 DUP4 PUSH2 0x2ED JUMP JUMPDEST SWAP1 CODESIZE PUSH2 0x1DD2 JUMP JUMPDEST PUSH2 0x1EE6 PUSH1 0xC SLOAD ISZERO ISZERO PUSH2 0x1A06 JUMP JUMPDEST PUSH2 0x1EF8 PUSH1 0x1 PUSH1 0xFF NOT PUSH1 0xB SLOAD AND OR PUSH1 0xB SSTORE JUMP JUMPDEST PUSH2 0x1F2A PUSH2 0x1F03 PUSH2 0x1A51 JUMP JUMPDEST PUSH2 0x1F14 PUSH2 0x1F0E PUSH2 0x6B3 JUMP JUMPDEST DUP3 PUSH2 0x2510 JUMP JUMPDEST PUSH2 0x1F25 PUSH2 0x1F1F PUSH2 0x1A9B JUMP JUMPDEST DUP3 PUSH2 0x2551 JUMP JUMPDEST PUSH2 0x2325 JUMP JUMPDEST PUSH2 0x1F38 PUSH2 0x1D54 PUSH1 0x13 SLOAD PUSH2 0x19DD JUMP JUMPDEST PUSH1 0x6 SLOAD PUSH8 0xFFFFFFFFFFFFFFFF AND PUSH2 0x1F74 PUSH2 0x1F57 PUSH1 0xE SLOAD PUSH4 0xFFFFFFFF AND SWAP1 JUMP JUMPDEST PUSH1 0xF SLOAD SWAP1 PUSH1 0x40 MLOAD SWAP5 DUP6 SWAP5 PUSH4 0x230E93B1 PUSH1 0xE1 SHL DUP7 MSTORE PUSH1 0x4 DUP7 ADD PUSH2 0x1B1E JUMP JUMPDEST SUB PUSH1 0x0 SWAP2 PUSH1 0x20 DUP2 PUSH1 0x1 PUSH1 0x1 PUSH1 0xA0 SHL SUB SWAP4 DUP2 DUP7 DUP7 PUSH32 0x0 AND GAS CALL DUP4 SWAP2 DUP2 PUSH2 0x2124 JUMPI JUMPDEST POP PUSH2 0x20E4 JUMPI POP PUSH1 0x1 PUSH2 0x1FC3 PUSH2 0x1B5E JUMP JUMPDEST PUSH4 0x8C379A0 EQ PUSH2 0x2093 JUMPI JUMPDEST PUSH2 0x205F JUMPI JUMPDEST PUSH32 0x0 AND PUSH1 0xC SLOAD DUP2 EXTCODESIZE ISZERO PUSH2 0x205B JUMPI PUSH1 0x40 MLOAD PUSH32 0x8765ECBE00000000000000000000000000000000000000000000000000000000 DUP2 MSTORE PUSH1 0x4 DUP2 ADD SWAP2 SWAP1 SWAP2 MSTORE SWAP2 SWAP1 DUP3 SWAP1 PUSH1 0x24 SWAP1 DUP3 SWAP1 DUP5 SWAP1 GAS CALL DUP1 ISZERO PUSH2 0xBE0 JUMPI PUSH2 0x2048 JUMPI JUMPDEST POP JUMP JUMPDEST DUP1 PUSH2 0x2055 PUSH2 0x6EE SWAP3 PUSH2 0x2B8 JUMP JUMPDEST DUP1 PUSH2 0x24C JUMP JUMPDEST DUP3 DUP1 REVERT JUMPDEST PUSH32 0x9C4BFA18304482256875C29FABB1A44A5ECD325F214EA17BAB8F31E869FAF4C8 PUSH2 0x208B PUSH2 0x96C PUSH2 0x1BEB JUMP JUMPDEST SUB SWAP1 LOG1 PUSH2 0x1FD3 JUMP JUMPDEST PUSH2 0x209B PUSH2 0x1B7C JUMP JUMPDEST DUP1 PUSH2 0x20A7 JUMPI JUMPDEST POP PUSH2 0x1FCE JUMP JUMPDEST SWAP1 POP PUSH32 0x2BA61E3733E7AC99181C22307780F651EC8FD92FE661A84DFBE711710B2DC36C PUSH2 0x20DB DUP5 SWAP3 PUSH1 0x40 MLOAD SWAP2 DUP3 SWAP2 DUP3 PUSH2 0x878 JUMP JUMPDEST SUB SWAP1 LOG1 CODESIZE PUSH2 0x20A1 JUMP JUMPDEST PUSH2 0x20ED DUP2 PUSH1 0x10 SSTORE JUMP JUMPDEST PUSH2 0x20FB PUSH2 0x1E8D PUSH1 0x14 SLOAD PUSH2 0x19DD JUMP JUMPDEST PUSH32 0x1131472297A800FEE664D1D89CFA8F7676FF07189ECC53F80BBB5F4969099DB8 DUP4 DUP1 LOG2 PUSH2 0x1FD3 JUMP JUMPDEST PUSH2 0x213D SWAP2 SWAP3 POP PUSH1 0x20 RETURNDATASIZE DUP2 GT PUSH2 0xBD9 JUMPI PUSH2 0xBCB DUP2 DUP4 PUSH2 0x2ED JUMP JUMPDEST SWAP1 CODESIZE PUSH2 0x1FB3 JUMP JUMPDEST PUSH1 0x40 MLOAD SWAP1 PUSH2 0x2151 DUP3 PUSH2 0x2D1 JUMP JUMPDEST PUSH1 0xC DUP3 MSTORE PUSH32 0x636F64654C6F636174696F6E0000000000000000000000000000000000000000 PUSH1 0x20 DUP4 ADD MSTORE JUMP JUMPDEST PUSH4 0x4E487B71 PUSH1 0xE0 SHL PUSH1 0x0 MSTORE PUSH1 0x21 PUSH1 0x4 MSTORE PUSH1 0x24 PUSH1 0x0 REVERT JUMPDEST PUSH1 0x3 GT ISZERO PUSH2 0x219D JUMPI JUMP JUMPDEST PUSH2 0x217D JUMP JUMPDEST PUSH1 0x40 MLOAD SWAP1 PUSH2 0x21AF DUP3 PUSH2 0x2D1 JUMP JUMPDEST PUSH1 0x8 DUP3 MSTORE PUSH32 0x6C616E6775616765000000000000000000000000000000000000000000000000 PUSH1 0x20 DUP4 ADD MSTORE JUMP JUMPDEST PUSH1 0x1 GT ISZERO PUSH2 0x219D JUMPI JUMP JUMPDEST PUSH1 0x40 MLOAD SWAP1 PUSH2 0x21F2 DUP3 PUSH2 0x2D1 JUMP JUMPDEST PUSH1 0x6 DUP3 MSTORE PUSH32 0x736F757263650000000000000000000000000000000000000000000000000000 PUSH1 0x20 DUP4 ADD MSTORE JUMP JUMPDEST PUSH1 0x40 MLOAD SWAP1 PUSH2 0x222B DUP3 PUSH2 0x2D1 JUMP JUMPDEST PUSH1 0x4 DUP3 MSTORE PUSH32 0x6172677300000000000000000000000000000000000000000000000000000000 PUSH1 0x20 DUP4 ADD MSTORE JUMP JUMPDEST PUSH1 0x0 NOT DUP2 EQ PUSH2 0x10CB JUMPI PUSH1 0x1 ADD SWAP1 JUMP JUMPDEST DUP1 MLOAD DUP3 LT ISZERO PUSH2 0x65E JUMPI PUSH1 0x20 SWAP2 PUSH1 0x5 SHL ADD ADD SWAP1 JUMP JUMPDEST PUSH1 0x40 MLOAD SWAP1 PUSH2 0x2287 DUP3 PUSH2 0x2D1 JUMP JUMPDEST PUSH1 0xF DUP3 MSTORE PUSH32 0x736563726574734C6F636174696F6E0000000000000000000000000000000000 PUSH1 0x20 DUP4 ADD MSTORE JUMP JUMPDEST PUSH1 0x40 MLOAD SWAP1 PUSH2 0x22C0 DUP3 PUSH2 0x2D1 JUMP JUMPDEST PUSH1 0x7 DUP3 MSTORE PUSH32 0x7365637265747300000000000000000000000000000000000000000000000000 PUSH1 0x20 DUP4 ADD MSTORE JUMP JUMPDEST PUSH1 0x40 MLOAD SWAP1 PUSH2 0x22F9 DUP3 PUSH2 0x2D1 JUMP JUMPDEST PUSH1 0x9 DUP3 MSTORE PUSH32 0x6279746573417267730000000000000000000000000000000000000000000000 PUSH1 0x20 DUP4 ADD MSTORE JUMP JUMPDEST PUSH2 0x232D PUSH2 0x25A2 JUMP JUMPDEST SWAP1 PUSH2 0x233F PUSH2 0x2339 PUSH2 0x2144 JUMP JUMPDEST DUP4 PUSH2 0x2CCE JUMP JUMPDEST PUSH2 0x235C DUP2 MLOAD PUSH2 0x234D DUP2 PUSH2 0x2193 JUMP JUMPDEST PUSH2 0x2356 DUP2 PUSH2 0x2193 JUMP JUMPDEST DUP4 PUSH2 0x2644 JUMP JUMPDEST PUSH2 0x2367 PUSH2 0x2339 PUSH2 0x21A2 JUMP JUMPDEST PUSH2 0x2381 PUSH1 0x40 DUP3 ADD MLOAD PUSH2 0x2378 DUP2 PUSH2 0x21DB JUMP JUMPDEST PUSH2 0x2356 DUP2 PUSH2 0x21DB JUMP JUMPDEST PUSH2 0x238C PUSH2 0x2339 PUSH2 0x21E5 JUMP JUMPDEST PUSH2 0x239A PUSH1 0x60 DUP3 ADD MLOAD DUP4 PUSH2 0x2CCE JUMP JUMPDEST PUSH1 0xA0 DUP2 ADD DUP1 MLOAD MLOAD PUSH2 0x24B7 JUMPI JUMPDEST POP PUSH1 0x80 DUP2 ADD SWAP1 DUP2 MLOAD MLOAD PUSH2 0x241F JUMPI JUMPDEST PUSH1 0xC0 SWAP2 POP ADD DUP1 MLOAD MLOAD PUSH2 0x23C7 JUMPI JUMPDEST POP MLOAD MLOAD SWAP1 JUMP JUMPDEST SWAP2 PUSH2 0x23D3 PUSH2 0x2339 PUSH2 0x22EC JUMP JUMPDEST PUSH2 0x23DC DUP3 PUSH2 0x2D53 JUMP JUMPDEST PUSH1 0x0 JUMPDEST DUP4 MLOAD DUP1 MLOAD DUP3 LT ISZERO PUSH2 0x240C JUMPI SWAP1 PUSH2 0x2402 PUSH2 0x23FB DUP3 PUSH2 0x2407 SWAP5 PUSH2 0x2266 JUMP JUMPDEST MLOAD DUP6 PUSH2 0x2C1B JUMP JUMPDEST PUSH2 0x2257 JUMP JUMPDEST PUSH2 0x23DF JUMP JUMPDEST POP POP SWAP2 POP PUSH2 0x2419 DUP2 PUSH2 0x2DDF JUMP JUMPDEST CODESIZE PUSH2 0x23C1 JUMP JUMPDEST PUSH1 0x20 DUP2 ADD DUP1 MLOAD PUSH2 0x242E DUP2 PUSH2 0x2193 JUMP JUMPDEST PUSH2 0x2437 DUP2 PUSH2 0x2193 JUMP JUMPDEST ISZERO PUSH2 0x248D JUMPI PUSH1 0xC0 SWAP3 PUSH2 0x2470 PUSH2 0x2488 SWAP3 PUSH2 0x2457 PUSH2 0x2451 PUSH2 0x227A JUMP JUMPDEST DUP9 PUSH2 0x2CCE JUMP JUMPDEST MLOAD PUSH2 0x2461 DUP2 PUSH2 0x2193 JUMP JUMPDEST PUSH2 0x246A DUP2 PUSH2 0x2193 JUMP JUMPDEST DUP7 PUSH2 0x2644 JUMP JUMPDEST PUSH2 0x2481 PUSH2 0x247B PUSH2 0x22B3 JUMP JUMPDEST DUP7 PUSH2 0x2CCE JUMP JUMPDEST MLOAD DUP5 PUSH2 0x2C1B JUMP JUMPDEST PUSH2 0x23B4 JUMP JUMPDEST PUSH1 0x4 PUSH1 0x40 MLOAD PUSH32 0xA80D31F700000000000000000000000000000000000000000000000000000000 DUP2 MSTORE REVERT JUMPDEST SWAP3 PUSH2 0x24C9 PUSH2 0x24C3 PUSH2 0x221E JUMP JUMPDEST DUP5 PUSH2 0x2CCE JUMP JUMPDEST PUSH2 0x24D2 DUP4 PUSH2 0x2D53 JUMP JUMPDEST PUSH1 0x0 JUMPDEST DUP5 MLOAD DUP1 MLOAD DUP3 LT ISZERO PUSH2 0x24FD JUMPI SWAP1 PUSH2 0x2402 PUSH2 0x24F1 DUP3 PUSH2 0x24F8 SWAP5 PUSH2 0x2266 JUMP JUMPDEST MLOAD DUP7 PUSH2 0x2CCE JUMP JUMPDEST PUSH2 0x24D5 JUMP JUMPDEST POP POP SWAP3 POP PUSH2 0x250A DUP3 PUSH2 0x2DDF JUMP JUMPDEST CODESIZE PUSH2 0x23A6 JUMP JUMPDEST DUP2 MLOAD ISZERO PUSH2 0x2527 JUMPI PUSH1 0x0 DUP1 DUP3 MSTORE PUSH1 0x40 DUP3 ADD MSTORE PUSH1 0x60 ADD MSTORE JUMP JUMPDEST PUSH1 0x4 PUSH1 0x40 MLOAD PUSH32 0x22CE3EDD00000000000000000000000000000000000000000000000000000000 DUP2 MSTORE REVERT JUMPDEST DUP2 MLOAD ISZERO PUSH2 0x255E JUMPI PUSH1 0xA0 ADD MSTORE JUMP JUMPDEST PUSH1 0x4 PUSH1 0x40 MLOAD PUSH32 0xFE936CB700000000000000000000000000000000000000000000000000000000 DUP2 MSTORE REVERT JUMPDEST PUSH1 0x40 MLOAD SWAP1 PUSH2 0x2595 DUP3 PUSH2 0x2D1 JUMP JUMPDEST PUSH1 0x0 PUSH1 0x20 DUP4 PUSH1 0x60 DUP2 MSTORE ADD MSTORE JUMP JUMPDEST PUSH1 0x40 MLOAD PUSH2 0x25AE DUP2 PUSH2 0x2D1 JUMP JUMPDEST PUSH2 0x25B6 PUSH2 0x2588 JUMP JUMPDEST DUP1 DUP3 MSTORE PUSH1 0x20 DUP3 ADD PUSH1 0x0 DUP2 MSTORE PUSH2 0x25C9 PUSH2 0x2588 JUMP JUMPDEST POP PUSH2 0x100 PUSH1 0x20 DUP4 ADD MSTORE PUSH1 0x40 MLOAD DUP1 SWAP3 MSTORE PUSH1 0x0 DUP3 MSTORE PUSH2 0x120 DUP3 ADD SWAP2 DUP3 LT PUSH2 0x257 JUMPI PUSH1 0x0 SWAP2 PUSH1 0x40 MSTORE MSTORE SWAP1 JUMP JUMPDEST SWAP1 PUSH2 0x25FB PUSH2 0x2588 JUMP JUMPDEST POP PUSH1 0x1F DUP2 AND DUP1 PUSH2 0x262A JUMPI JUMPDEST POP DUP1 PUSH1 0x20 DUP4 ADD MSTORE PUSH1 0x40 MLOAD SWAP1 DUP2 DUP4 MSTORE PUSH1 0x0 DUP3 MSTORE DUP2 ADD PUSH1 0x20 ADD SWAP1 DUP2 LT PUSH2 0x257 JUMPI PUSH1 0x40 MSTORE SWAP1 JUMP JUMPDEST PUSH1 0x20 SUB PUSH1 0x20 DUP2 GT PUSH2 0x10CB JUMPI DUP2 ADD DUP1 SWAP2 GT PUSH2 0x10CB JUMPI CODESIZE PUSH2 0x2606 JUMP JUMPDEST SWAP1 DUP2 MLOAD SWAP2 PUSH2 0x2650 PUSH2 0x2588 JUMP JUMPDEST POP DUP3 MLOAD MLOAD PUSH1 0x1 DUP2 ADD SWAP1 DUP2 DUP2 GT PUSH2 0x10CB JUMPI PUSH1 0x20 DUP6 ADD MLOAD DUP2 LT ISZERO PUSH2 0x26A9 JUMPI JUMPDEST PUSH1 0xC2 PUSH1 0x20 PUSH2 0x6EE SWAP7 MLOAD SWAP3 DUP4 ADD ADD MSTORE8 DUP1 MLOAD DUP3 GT PUSH2 0x26A1 JUMPI JUMPDEST POP POP PUSH1 0x40 MLOAD SWAP2 PUSH1 0x20 DUP4 ADD MSTORE PUSH1 0x20 DUP3 MSTORE PUSH2 0x269C DUP3 PUSH2 0x2D1 JUMP JUMPDEST PUSH2 0x2C1B JUMP JUMPDEST MSTORE CODESIZE DUP1 PUSH2 0x2684 JUMP JUMPDEST DUP2 PUSH1 0x1 SHL SWAP5 DUP3 DUP7 DIV PUSH1 0x2 EQ DUP4 ISZERO OR ISZERO PUSH2 0x10CB JUMPI PUSH1 0x20 DUP2 PUSH2 0x26DB PUSH2 0x6EE SWAP9 PUSH2 0x26D4 PUSH1 0xC2 SWAP6 MLOAD SWAP2 DUP5 PUSH2 0x25F2 JUMP JUMPDEST POP DUP3 PUSH2 0x2B63 JUMP JUMPDEST POP SWAP7 POP POP POP PUSH2 0x266D JUMP JUMPDEST SWAP1 DUP2 PUSH1 0x1 SHL SWAP2 DUP1 DUP4 DIV PUSH1 0x2 EQ SWAP1 ISZERO OR ISZERO PUSH2 0x10CB JUMPI JUMP JUMPDEST PUSH2 0x2703 PUSH2 0x2588 JUMP JUMPDEST POP DUP1 MLOAD MLOAD PUSH1 0x1 DUP2 ADD SWAP1 DUP2 DUP2 GT PUSH2 0x10CB JUMPI PUSH1 0x20 DUP4 ADD MLOAD DUP2 LT ISZERO PUSH2 0x273C JUMPI JUMPDEST PUSH1 0x5B PUSH1 0x20 DUP5 MLOAD SWAP3 DUP4 ADD ADD MSTORE8 DUP1 MLOAD DUP3 GT PUSH2 0x2738 JUMPI POP POP SWAP1 JUMP JUMPDEST MSTORE SWAP1 JUMP JUMPDEST DUP2 PUSH1 0x1 SHL DUP3 DUP2 DIV PUSH1 0x2 EQ DUP4 ISZERO OR ISZERO PUSH2 0x10CB JUMPI PUSH2 0x2765 SWAP1 PUSH2 0x275E DUP6 MLOAD SWAP2 DUP7 PUSH2 0x25F2 JUMP JUMPDEST POP DUP5 PUSH2 0x2B63 JUMP JUMPDEST POP PUSH2 0x2720 JUMP JUMPDEST PUSH2 0x2773 PUSH2 0x2588 JUMP JUMPDEST POP DUP1 MLOAD MLOAD PUSH1 0x1 DUP2 ADD SWAP1 DUP2 DUP2 GT PUSH2 0x10CB JUMPI PUSH1 0x20 DUP4 ADD MLOAD DUP2 LT ISZERO PUSH2 0x27A8 JUMPI JUMPDEST PUSH1 0x5A PUSH1 0x20 DUP5 MLOAD SWAP3 DUP4 ADD ADD MSTORE8 DUP1 MLOAD DUP3 GT PUSH2 0x2738 JUMPI POP POP SWAP1 JUMP JUMPDEST DUP2 PUSH1 0x1 SHL DUP3 DUP2 DIV PUSH1 0x2 EQ DUP4 ISZERO OR ISZERO PUSH2 0x10CB JUMPI PUSH2 0x27CA SWAP1 PUSH2 0x275E DUP6 MLOAD SWAP2 DUP7 PUSH2 0x25F2 JUMP JUMPDEST POP PUSH2 0x2790 JUMP JUMPDEST PUSH2 0x27D8 PUSH2 0x2588 JUMP JUMPDEST POP DUP1 MLOAD MLOAD PUSH1 0x1 DUP2 ADD SWAP1 DUP2 DUP2 GT PUSH2 0x10CB JUMPI PUSH1 0x20 DUP4 ADD MLOAD DUP2 LT ISZERO PUSH2 0x280D JUMPI JUMPDEST PUSH1 0x59 PUSH1 0x20 DUP5 MLOAD SWAP3 DUP4 ADD ADD MSTORE8 DUP1 MLOAD DUP3 GT PUSH2 0x2738 JUMPI POP POP SWAP1 JUMP JUMPDEST DUP2 PUSH1 0x1 SHL DUP3 DUP2 DIV PUSH1 0x2 EQ DUP4 ISZERO OR ISZERO PUSH2 0x10CB JUMPI PUSH2 0x282F SWAP1 PUSH2 0x275E DUP6 MLOAD SWAP2 DUP7 PUSH2 0x25F2 JUMP JUMPDEST POP PUSH2 0x27F5 JUMP JUMPDEST PUSH2 0x283D PUSH2 0x2588 JUMP JUMPDEST POP DUP1 MLOAD MLOAD PUSH1 0x1 DUP2 ADD SWAP1 DUP2 DUP2 GT PUSH2 0x10CB JUMPI PUSH1 0x20 DUP4 ADD MLOAD DUP2 LT ISZERO PUSH2 0x2872 JUMPI JUMPDEST PUSH1 0x58 PUSH1 0x20 DUP5 MLOAD SWAP3 DUP4 ADD ADD MSTORE8 DUP1 MLOAD DUP3 GT PUSH2 0x2738 JUMPI POP POP SWAP1 JUMP JUMPDEST DUP2 PUSH1 0x1 SHL DUP3 DUP2 DIV PUSH1 0x2 EQ DUP4 ISZERO OR ISZERO PUSH2 0x10CB JUMPI PUSH2 0x2894 SWAP1 PUSH2 0x275E DUP6 MLOAD SWAP2 DUP7 PUSH2 0x25F2 JUMP JUMPDEST POP PUSH2 0x285A JUMP JUMPDEST PUSH2 0x28A2 PUSH2 0x2588 JUMP JUMPDEST POP DUP1 MLOAD MLOAD PUSH1 0x1 DUP2 ADD SWAP1 DUP2 DUP2 GT PUSH2 0x10CB JUMPI PUSH1 0x20 DUP4 ADD MLOAD DUP2 LT ISZERO PUSH2 0x28D7 JUMPI JUMPDEST PUSH1 0x7B PUSH1 0x20 DUP5 MLOAD SWAP3 DUP4 ADD ADD MSTORE8 DUP1 MLOAD DUP3 GT PUSH2 0x2738 JUMPI POP POP SWAP1 JUMP JUMPDEST DUP2 PUSH1 0x1 SHL DUP3 DUP2 DIV PUSH1 0x2 EQ DUP4 ISZERO OR ISZERO PUSH2 0x10CB JUMPI PUSH2 0x28F9 SWAP1 PUSH2 0x275E DUP6 MLOAD SWAP2 DUP7 PUSH2 0x25F2 JUMP JUMPDEST POP PUSH2 0x28BF JUMP JUMPDEST PUSH2 0x2907 PUSH2 0x2588 JUMP JUMPDEST POP DUP1 MLOAD MLOAD PUSH1 0x1 DUP2 ADD SWAP1 DUP2 DUP2 GT PUSH2 0x10CB JUMPI PUSH1 0x20 DUP4 ADD MLOAD DUP2 LT ISZERO PUSH2 0x293C JUMPI JUMPDEST PUSH1 0x7A PUSH1 0x20 DUP5 MLOAD SWAP3 DUP4 ADD ADD MSTORE8 DUP1 MLOAD DUP3 GT PUSH2 0x2738 JUMPI POP POP SWAP1 JUMP JUMPDEST DUP2 PUSH1 0x1 SHL DUP3 DUP2 DIV PUSH1 0x2 EQ DUP4 ISZERO OR ISZERO PUSH2 0x10CB JUMPI PUSH2 0x295E SWAP1 PUSH2 0x275E DUP6 MLOAD SWAP2 DUP7 PUSH2 0x25F2 JUMP JUMPDEST POP PUSH2 0x2924 JUMP JUMPDEST PUSH2 0x296C PUSH2 0x2588 JUMP JUMPDEST POP DUP1 MLOAD MLOAD PUSH1 0x1 DUP2 ADD SWAP1 DUP2 DUP2 GT PUSH2 0x10CB JUMPI PUSH1 0x20 DUP4 ADD MLOAD DUP2 LT ISZERO PUSH2 0x29A1 JUMPI JUMPDEST PUSH1 0x79 PUSH1 0x20 DUP5 MLOAD SWAP3 DUP4 ADD ADD MSTORE8 DUP1 MLOAD DUP3 GT PUSH2 0x2738 JUMPI POP POP SWAP1 JUMP JUMPDEST DUP2 PUSH1 0x1 SHL DUP3 DUP2 DIV PUSH1 0x2 EQ DUP4 ISZERO OR ISZERO PUSH2 0x10CB JUMPI PUSH2 0x29C3 SWAP1 PUSH2 0x275E DUP6 MLOAD SWAP2 DUP7 PUSH2 0x25F2 JUMP JUMPDEST POP PUSH2 0x2989 JUMP JUMPDEST PUSH2 0x29D1 PUSH2 0x2588 JUMP JUMPDEST POP DUP1 MLOAD MLOAD PUSH1 0x1 DUP2 ADD SWAP1 DUP2 DUP2 GT PUSH2 0x10CB JUMPI PUSH1 0x20 DUP4 ADD MLOAD DUP2 LT ISZERO PUSH2 0x2A06 JUMPI JUMPDEST PUSH1 0x78 PUSH1 0x20 DUP5 MLOAD SWAP3 DUP4 ADD ADD MSTORE8 DUP1 MLOAD DUP3 GT PUSH2 0x2738 JUMPI POP POP SWAP1 JUMP JUMPDEST DUP2 PUSH1 0x1 SHL DUP3 DUP2 DIV PUSH1 0x2 EQ DUP4 ISZERO OR ISZERO PUSH2 0x10CB JUMPI PUSH2 0x2A28 SWAP1 PUSH2 0x275E DUP6 MLOAD SWAP2 DUP7 PUSH2 0x25F2 JUMP JUMPDEST POP PUSH2 0x29EE JUMP JUMPDEST SWAP1 PUSH2 0x2A37 PUSH2 0x2588 JUMP JUMPDEST POP DUP2 MLOAD MLOAD PUSH1 0x1 DUP2 ADD SWAP2 DUP3 DUP3 GT PUSH2 0x10CB JUMPI PUSH1 0x20 DUP5 ADD MLOAD DUP3 LT ISZERO PUSH2 0x2A6A JUMPI JUMPDEST PUSH1 0x20 DUP5 MLOAD SWAP3 DUP4 ADD ADD MSTORE8 DUP1 MLOAD DUP3 GT PUSH2 0x2738 JUMPI POP POP SWAP1 JUMP JUMPDEST DUP3 PUSH1 0x1 SHL DUP4 DUP2 DIV PUSH1 0x2 EQ DUP5 ISZERO OR ISZERO PUSH2 0x10CB JUMPI PUSH2 0x2A93 SWAP1 PUSH2 0x2A8C DUP7 MLOAD SWAP2 DUP8 PUSH2 0x25F2 JUMP JUMPDEST POP DUP6 PUSH2 0x2B63 JUMP JUMPDEST POP PUSH2 0x2A54 JUMP JUMPDEST SWAP1 PUSH2 0x2AA6 DUP3 MLOAD SWAP2 DUP4 PUSH2 0x25F2 JUMP JUMPDEST POP PUSH2 0x2AAF PUSH2 0x2588 JUMP JUMPDEST POP DUP1 MLOAD SWAP1 PUSH2 0x2ABB PUSH2 0x2588 JUMP JUMPDEST POP PUSH2 0x2AC9 DUP2 MLOAD DUP4 GT ISZERO PUSH2 0x2C14 JUMP JUMPDEST DUP3 MLOAD MLOAD SWAP3 PUSH2 0x2AD7 DUP4 DUP6 PUSH2 0x19F9 JUMP JUMPDEST SWAP2 PUSH1 0x20 SWAP3 DUP3 DUP5 DUP1 SWAP5 ADD MLOAD DUP3 GT PUSH2 0x2B4C JUMPI JUMPDEST MLOAD DUP4 DUP2 MLOAD SWAP8 DUP3 ADD ADD SWAP7 DUP3 GT PUSH2 0x2B44 JUMPI JUMPDEST POP POP ADD SWAP2 JUMPDEST DUP2 DUP2 LT ISZERO PUSH2 0x2B1E JUMPI PUSH1 0x0 NOT SWAP2 SUB PUSH2 0x100 EXP ADD SWAP1 DUP2 NOT SWAP1 MLOAD AND SWAP1 DUP3 MLOAD AND OR SWAP1 MSTORE JUMP JUMPDEST SWAP2 SWAP3 PUSH2 0x2B39 PUSH2 0x2B33 PUSH2 0x2B3F SWAP3 DUP7 MLOAD DUP2 MSTORE PUSH2 0x19EB JUMP JUMPDEST SWAP5 PUSH2 0x19EB JUMP JUMPDEST SWAP3 PUSH2 0x194A JUMP JUMPDEST PUSH2 0x2AFD JUMP JUMPDEST MSTORE CODESIZE DUP1 PUSH2 0x2AF8 JUMP JUMPDEST PUSH2 0x2B5E PUSH2 0x2B58 DUP4 PUSH2 0x26E5 JUMP JUMPDEST DUP3 PUSH2 0x2A99 JUMP JUMPDEST PUSH2 0x2AE8 JUMP JUMPDEST SWAP1 PUSH2 0x2B6C PUSH2 0x2588 JUMP JUMPDEST POP DUP1 MLOAD PUSH2 0x2B77 PUSH2 0x2588 JUMP JUMPDEST POP PUSH2 0x2B85 DUP3 MLOAD DUP3 GT ISZERO PUSH2 0x2C14 JUMP JUMPDEST DUP3 MLOAD MLOAD SWAP2 PUSH2 0x2B93 DUP3 DUP5 PUSH2 0x19F9 JUMP JUMPDEST PUSH1 0x20 SWAP2 DUP3 SWAP2 DUP3 DUP8 ADD MLOAD DUP2 GT PUSH2 0x2BFD JUMPI JUMPDEST DUP7 MLOAD DUP4 DUP2 MLOAD SWAP8 DUP3 ADD ADD SWAP7 DUP3 GT PUSH2 0x2BF5 JUMPI JUMPDEST POP POP ADD SWAP2 JUMPDEST DUP2 DUP2 LT ISZERO PUSH2 0x2BDB JUMPI PUSH1 0x0 NOT SWAP2 SUB PUSH2 0x100 EXP ADD SWAP1 DUP2 NOT SWAP1 MLOAD AND SWAP1 DUP3 MLOAD AND OR SWAP1 MSTORE SWAP1 JUMP JUMPDEST SWAP2 SWAP3 PUSH2 0x2B39 PUSH2 0x2B33 PUSH2 0x2BF0 SWAP3 DUP7 MLOAD DUP2 MSTORE PUSH2 0x19EB JUMP JUMPDEST PUSH2 0x2BB9 JUMP JUMPDEST MSTORE CODESIZE DUP1 PUSH2 0x2BB4 JUMP JUMPDEST PUSH2 0x2C0F PUSH2 0x2C09 DUP3 PUSH2 0x26E5 JUMP JUMPDEST DUP9 PUSH2 0x2A99 JUMP JUMPDEST PUSH2 0x2BA3 JUMP JUMPDEST ISZERO PUSH2 0x257 JUMPI JUMP JUMPDEST DUP2 MLOAD PUSH2 0x2045 SWAP3 SWAP2 SWAP1 PUSH8 0xFFFFFFFFFFFFFFFF DUP2 AND SWAP1 PUSH1 0x17 DUP3 GT PUSH2 0x2C53 JUMPI PUSH2 0x2C4B SWAP2 POP PUSH1 0x40 PUSH1 0xFF DUP5 MLOAD SWAP3 AND OR SWAP1 PUSH2 0x2A2E JUMP JUMPDEST POP JUMPDEST MLOAD PUSH2 0x2B63 JUMP JUMPDEST POP PUSH1 0xFF DUP2 GT PUSH2 0x2C78 JUMPI PUSH2 0x2C72 SWAP1 PUSH2 0x2C6A DUP4 MLOAD PUSH2 0x2835 JUMP JUMPDEST POP DUP3 MLOAD PUSH2 0x2FA9 JUMP JUMPDEST POP PUSH2 0x2C4D JUMP JUMPDEST PUSH2 0xFFFF DUP2 GT PUSH2 0x2C97 JUMPI PUSH2 0x2C72 SWAP1 PUSH2 0x2C8F DUP4 MLOAD PUSH2 0x27D0 JUMP JUMPDEST POP DUP3 MLOAD PUSH2 0x2F42 JUMP JUMPDEST PUSH4 0xFFFFFFFF DUP2 GT PUSH2 0x2CB8 JUMPI PUSH2 0x2C72 SWAP1 PUSH2 0x2CB0 DUP4 MLOAD PUSH2 0x276B JUMP JUMPDEST POP DUP3 MLOAD PUSH2 0x2ED9 JUMP JUMPDEST PUSH2 0x2C72 SWAP1 PUSH2 0x2CC6 DUP4 MLOAD PUSH2 0x26FB JUMP JUMPDEST POP DUP3 MLOAD PUSH2 0x2E6C JUMP JUMPDEST DUP2 MLOAD PUSH2 0x2045 SWAP3 SWAP2 SWAP1 PUSH8 0xFFFFFFFFFFFFFFFF DUP2 AND SWAP1 PUSH1 0x17 DUP3 GT PUSH2 0x2CFE JUMPI PUSH2 0x2C4B SWAP2 POP PUSH1 0x60 PUSH1 0xFF DUP5 MLOAD SWAP3 AND OR SWAP1 PUSH2 0x2A2E JUMP JUMPDEST POP PUSH1 0xFF DUP2 GT PUSH2 0x2D15 JUMPI PUSH2 0x2C72 SWAP1 PUSH2 0x2C6A DUP4 MLOAD PUSH2 0x29C9 JUMP JUMPDEST PUSH2 0xFFFF DUP2 GT PUSH2 0x2D2C JUMPI PUSH2 0x2C72 SWAP1 PUSH2 0x2C8F DUP4 MLOAD PUSH2 0x2964 JUMP JUMPDEST PUSH4 0xFFFFFFFF DUP2 GT PUSH2 0x2D45 JUMPI PUSH2 0x2C72 SWAP1 PUSH2 0x2CB0 DUP4 MLOAD PUSH2 0x28FF JUMP JUMPDEST PUSH2 0x2C72 SWAP1 PUSH2 0x2CC6 DUP4 MLOAD PUSH2 0x289A JUMP JUMPDEST DUP1 MLOAD SWAP1 PUSH2 0x2D5E PUSH2 0x2588 JUMP JUMPDEST POP DUP2 MLOAD MLOAD PUSH1 0x1 DUP2 ADD SWAP1 DUP2 DUP2 GT PUSH2 0x10CB JUMPI PUSH1 0x20 DUP5 ADD MLOAD DUP2 LT ISZERO PUSH2 0x2DAC JUMPI JUMPDEST PUSH1 0x9F PUSH1 0x20 DUP1 SWAP6 MLOAD SWAP3 DUP4 ADD ADD MSTORE8 DUP1 MLOAD DUP3 GT PUSH2 0x2DA4 JUMPI JUMPDEST POP POP ADD DUP1 MLOAD SWAP1 PUSH1 0x1 DUP3 ADD DUP1 SWAP3 GT PUSH2 0x10CB JUMPI MSTORE JUMP JUMPDEST MSTORE CODESIZE DUP1 PUSH2 0x2D90 JUMP JUMPDEST DUP2 PUSH1 0x1 SHL SWAP4 DUP3 DUP6 DIV PUSH1 0x2 EQ DUP4 ISZERO OR ISZERO PUSH2 0x10CB JUMPI PUSH1 0x20 DUP2 PUSH2 0x2DD5 DUP3 SWAP8 PUSH2 0x26D4 PUSH1 0x9F SWAP6 MLOAD SWAP2 DUP5 PUSH2 0x25F2 JUMP JUMPDEST POP SWAP6 POP POP POP PUSH2 0x2D7B JUMP JUMPDEST DUP1 MLOAD SWAP1 PUSH2 0x2DEA PUSH2 0x2588 JUMP JUMPDEST POP DUP2 MLOAD MLOAD PUSH1 0x1 DUP2 ADD SWAP1 DUP2 DUP2 GT PUSH2 0x10CB JUMPI PUSH1 0x20 DUP5 ADD MLOAD DUP2 LT ISZERO PUSH2 0x2E39 JUMPI JUMPDEST PUSH1 0xFF PUSH1 0x20 DUP1 SWAP6 MLOAD SWAP3 DUP4 ADD ADD MSTORE8 DUP1 MLOAD DUP3 GT PUSH2 0x2E31 JUMPI JUMPDEST POP POP ADD DUP1 MLOAD PUSH1 0x0 NOT DUP2 ADD SWAP2 SWAP1 DUP3 GT PUSH2 0x10CB JUMPI MSTORE JUMP JUMPDEST MSTORE CODESIZE DUP1 PUSH2 0x2E1C JUMP JUMPDEST DUP2 PUSH1 0x1 SHL SWAP4 DUP3 DUP6 DIV PUSH1 0x2 EQ DUP4 ISZERO OR ISZERO PUSH2 0x10CB JUMPI PUSH1 0x20 DUP2 PUSH2 0x2E62 DUP3 SWAP8 PUSH2 0x26D4 PUSH1 0xFF SWAP6 MLOAD SWAP2 DUP5 PUSH2 0x25F2 JUMP JUMPDEST POP SWAP6 POP POP POP PUSH2 0x2E07 JUMP JUMPDEST SWAP1 PUSH2 0x2E75 PUSH2 0x2588 JUMP JUMPDEST POP DUP2 MLOAD MLOAD DUP1 PUSH1 0x8 ADD SWAP2 DUP3 PUSH1 0x8 GT PUSH2 0x10CB JUMPI PUSH1 0x20 DUP5 ADD MLOAD DUP4 GT PUSH2 0x2EB8 JUMPI JUMPDEST PUSH1 0x8 DUP5 MLOAD SWAP3 DUP4 ADD ADD SWAP1 PUSH8 0xFFFFFFFFFFFFFFFF NOT DUP3 MLOAD AND OR SWAP1 MSTORE DUP1 MLOAD DUP3 GT PUSH2 0x2738 JUMPI POP POP SWAP1 JUMP JUMPDEST DUP3 PUSH1 0x1 SHL DUP4 DUP2 DIV PUSH1 0x2 EQ DUP5 ISZERO OR ISZERO PUSH2 0x10CB JUMPI PUSH2 0x2ED4 SWAP1 DUP6 PUSH2 0x2A99 JUMP JUMPDEST PUSH2 0x2E92 JUMP JUMPDEST SWAP1 PUSH2 0x2EE2 PUSH2 0x2588 JUMP JUMPDEST POP DUP2 MLOAD MLOAD DUP1 PUSH1 0x4 ADD SWAP2 DUP3 PUSH1 0x4 GT PUSH2 0x10CB JUMPI PUSH1 0x20 DUP5 ADD MLOAD DUP4 GT PUSH2 0x2F21 JUMPI JUMPDEST PUSH1 0x4 DUP5 MLOAD SWAP3 DUP4 ADD ADD SWAP1 PUSH4 0xFFFFFFFF NOT DUP3 MLOAD AND OR SWAP1 MSTORE DUP1 MLOAD DUP3 GT PUSH2 0x2738 JUMPI POP POP SWAP1 JUMP JUMPDEST DUP3 PUSH1 0x1 SHL DUP4 DUP2 DIV PUSH1 0x2 EQ DUP5 ISZERO OR ISZERO PUSH2 0x10CB JUMPI PUSH2 0x2F3D SWAP1 DUP6 PUSH2 0x2A99 JUMP JUMPDEST PUSH2 0x2EFF JUMP JUMPDEST SWAP1 PUSH2 0x2F4B PUSH2 0x2588 JUMP JUMPDEST POP DUP2 MLOAD MLOAD DUP1 PUSH1 0x2 ADD SWAP2 DUP3 PUSH1 0x2 GT PUSH2 0x10CB JUMPI PUSH1 0x20 DUP5 ADD MLOAD DUP4 GT PUSH2 0x2F88 JUMPI JUMPDEST PUSH1 0x2 DUP5 MLOAD SWAP3 DUP4 ADD ADD SWAP1 PUSH2 0xFFFF NOT DUP3 MLOAD AND OR SWAP1 MSTORE DUP1 MLOAD DUP3 GT PUSH2 0x2738 JUMPI POP POP SWAP1 JUMP JUMPDEST DUP3 PUSH1 0x1 SHL DUP4 DUP2 DIV PUSH1 0x2 EQ DUP5 ISZERO OR ISZERO PUSH2 0x10CB JUMPI PUSH2 0x2FA4 SWAP1 DUP6 PUSH2 0x2A99 JUMP JUMPDEST PUSH2 0x2F68 JUMP JUMPDEST SWAP1 PUSH2 0x2FB2 PUSH2 0x2588 JUMP JUMPDEST POP DUP2 MLOAD MLOAD DUP1 PUSH1 0x1 ADD SWAP2 DUP3 PUSH1 0x1 GT PUSH2 0x10CB JUMPI PUSH1 0x20 DUP5 ADD MLOAD DUP4 GT PUSH2 0x2FEE JUMPI JUMPDEST PUSH1 0x1 DUP5 MLOAD SWAP3 DUP4 ADD ADD SWAP1 PUSH1 0xFF NOT DUP3 MLOAD AND OR SWAP1 MSTORE DUP1 MLOAD DUP3 GT PUSH2 0x2738 JUMPI POP POP SWAP1 JUMP JUMPDEST DUP3 PUSH1 0x1 SHL DUP4 DUP2 DIV PUSH1 0x2 EQ DUP5 ISZERO OR ISZERO PUSH2 0x10CB JUMPI PUSH2 0x300A SWAP1 DUP6 PUSH2 0x2A99 JUMP JUMPDEST PUSH2 0x2FCF JUMP JUMPDEST SWAP1 DUP2 MLOAD PUSH8 0xFFFFFFFFFFFFFFFF DUP2 GT PUSH2 0x2CC JUMPI PUSH2 0x3035 DUP2 PUSH2 0x3030 PUSH1 0x5 SLOAD PUSH2 0x679 JUMP JUMPDEST PUSH2 0x18A4 JUMP JUMPDEST PUSH1 0x20 DUP1 PUSH1 0x1F DUP4 GT PUSH1 0x1 EQ PUSH2 0x3071 JUMPI POP DUP2 SWAP3 SWAP4 PUSH1 0x0 SWAP3 PUSH2 0x3066 JUMPI JUMPDEST POP POP DUP2 PUSH1 0x1 SHL SWAP2 PUSH1 0x0 NOT SWAP1 PUSH1 0x3 SHL SHR NOT AND OR PUSH1 0x5 SSTORE JUMP JUMPDEST ADD MLOAD SWAP1 POP CODESIZE DUP1 PUSH2 0x304F JUMP JUMPDEST SWAP1 PUSH1 0x1F NOT DUP4 AND SWAP5 PUSH2 0x30A4 PUSH1 0x5 PUSH1 0x0 MSTORE PUSH32 0x36B6384B5ECA791C62761152D0C79BB0604C104A5FB6F4EB0703F3154BB3DB0 SWAP1 JUMP JUMPDEST SWAP3 PUSH1 0x0 SWAP1 JUMPDEST DUP8 DUP3 LT PUSH2 0x30E1 JUMPI POP POP DUP4 PUSH1 0x1 SWAP6 SWAP7 LT PUSH2 0x30C8 JUMPI JUMPDEST POP POP POP DUP2 SHL ADD PUSH1 0x5 SSTORE JUMP JUMPDEST ADD MLOAD PUSH1 0x0 NOT PUSH1 0xF8 DUP5 PUSH1 0x3 SHL AND SHR NOT AND SWAP1 SSTORE CODESIZE DUP1 DUP1 PUSH2 0x30BD JUMP JUMPDEST DUP1 PUSH1 0x1 DUP6 SWAP7 DUP3 SWAP5 SWAP7 DUP7 ADD MLOAD DUP2 SSTORE ADD SWAP6 ADD SWAP4 ADD SWAP1 PUSH2 0x30A9 JUMP JUMPDEST PUSH1 0x20 DUP2 MLOAD SWAP2 ADD MLOAD SWAP1 PUSH1 0x20 DUP2 LT PUSH2 0x310D JUMPI POP SWAP1 JUMP JUMPDEST PUSH1 0x0 NOT SWAP1 PUSH1 0x20 SUB PUSH1 0x3 SHL SHL AND SWAP1 JUMP JUMPDEST PUSH1 0x1C SLOAD PUSH9 0x10000000000000000 DUP2 LT ISZERO PUSH2 0x2CC JUMPI PUSH2 0x3141 PUSH1 0x1 SWAP2 DUP3 DUP2 ADD PUSH1 0x1C SSTORE PUSH2 0x627 JUMP JUMPDEST SWAP3 SWAP1 SWAP3 PUSH2 0x3214 JUMPI DUP1 MLOAD SWAP1 PUSH8 0xFFFFFFFFFFFFFFFF DUP3 GT PUSH2 0x2CC JUMPI PUSH2 0x316E DUP3 PUSH2 0x3168 DUP7 SLOAD PUSH2 0x679 JUMP JUMPDEST DUP7 PUSH2 0x18FA JUMP JUMPDEST PUSH1 0x20 SWAP1 DUP2 PUSH1 0x1F DUP5 GT PUSH1 0x1 EQ PUSH2 0x31AA JUMPI POP SWAP3 DUP3 SWAP4 SWAP2 DUP4 SWAP3 PUSH1 0x0 SWAP5 PUSH2 0x319F JUMPI JUMPDEST POP POP SHL SWAP2 PUSH1 0x0 NOT SWAP1 PUSH1 0x3 SHL SHR NOT AND OR SWAP1 SSTORE JUMP JUMPDEST ADD MLOAD SWAP3 POP CODESIZE DUP1 PUSH2 0x318C JUMP JUMPDEST SWAP2 SWAP1 DUP4 PUSH1 0x1F NOT DUP2 AND PUSH2 0x31C1 DUP9 PUSH1 0x0 MSTORE PUSH1 0x20 PUSH1 0x0 KECCAK256 SWAP1 JUMP JUMPDEST SWAP5 PUSH1 0x0 SWAP1 JUMPDEST DUP9 DUP4 DUP4 LT PUSH2 0x31FA JUMPI POP POP POP LT PUSH2 0x31E1 JUMPI JUMPDEST POP POP POP DUP2 SHL ADD SWAP1 SSTORE JUMP JUMPDEST ADD MLOAD PUSH1 0x0 NOT PUSH1 0xF8 DUP5 PUSH1 0x3 SHL AND SHR NOT AND SWAP1 SSTORE CODESIZE DUP1 DUP1 PUSH2 0x31D7 JUMP JUMPDEST DUP6 DUP8 ADD MLOAD DUP9 SSTORE SWAP1 SWAP7 ADD SWAP6 SWAP5 DUP6 ADD SWAP5 DUP8 SWAP4 POP SWAP1 DUP2 ADD SWAP1 PUSH2 0x31C6 JUMP JUMPDEST PUSH2 0x663 JUMP JUMPDEST SWAP1 SWAP2 PUSH2 0x3230 PUSH2 0x889 SWAP4 PUSH1 0x40 DUP5 MSTORE PUSH1 0x40 DUP5 ADD SWAP1 PUSH2 0x838 JUMP JUMPDEST SWAP2 PUSH1 0x20 DUP2 DUP5 SUB SWAP2 ADD MSTORE PUSH2 0x838 JUMP JUMPDEST ISZERO PUSH2 0x3245 JUMPI JUMP JUMPDEST PUSH1 0x64 PUSH1 0x40 MLOAD PUSH3 0x461BCD PUSH1 0xE5 SHL DUP2 MSTORE PUSH1 0x20 PUSH1 0x4 DUP3 ADD MSTORE PUSH1 0x1B PUSH1 0x24 DUP3 ADD MSTORE PUSH32 0x4572726F20616F207061676172206120696E64656E697A6163616F0000000000 PUSH1 0x44 DUP3 ADD MSTORE REVERT JUMPDEST PUSH1 0x1E SLOAD PUSH1 0x1A SLOAD GT ISZERO PUSH2 0x32C7 JUMPI PUSH2 0x6EE PUSH1 0x0 DUP1 DUP1 DUP1 PUSH2 0x32B5 PUSH2 0xB20 PUSH2 0xB20 PUSH1 0x17 SLOAD PUSH1 0x1 PUSH1 0x1 PUSH1 0xA0 SHL SUB AND SWAP1 JUMP JUMPDEST SELFBALANCE SWAP1 GAS CALL PUSH2 0x32C1 PUSH2 0x1BEB JUMP JUMPDEST POP PUSH2 0x323E JUMP JUMPDEST PUSH1 0x0 DUP1 DUP1 DUP1 PUSH1 0x1 PUSH1 0x1 PUSH1 0xA0 SHL SUB PUSH1 0x16 SLOAD AND SELFBALANCE SWAP1 GAS CALL PUSH2 0x32E4 PUSH2 0x1BEB JUMP JUMPDEST POP ISZERO PUSH2 0x32EC JUMPI JUMP JUMPDEST PUSH1 0x84 PUSH1 0x40 MLOAD PUSH3 0x461BCD PUSH1 0xE5 SHL DUP2 MSTORE PUSH1 0x20 PUSH1 0x4 DUP3 ADD MSTORE PUSH1 0x2D PUSH1 0x24 DUP3 ADD MSTORE PUSH32 0x4572726F20616F207265746F726E6172206F732066756E646F73207061726120 PUSH1 0x44 DUP3 ADD MSTORE PUSH32 0x6120696E73746974756963616F00000000000000000000000000000000000000 PUSH1 0x64 DUP3 ADD MSTORE REVERT INVALID LOG2 PUSH5 0x6970667358 0x22 SLT KECCAK256 0xCE 0x5F CREATE2 MULMOD 0xF7 PUSH24 0x3651E22F76C3C5234FA69B10FC3253D084F470418D7890FF PUSH16 0x4A64736F6C6343000813003360C03461 STOP DUP8 JUMPI PUSH1 0x1F PUSH2 0x62E CODESIZE DUP2 SWAP1 SUB SWAP2 DUP3 ADD PUSH1 0x1F NOT AND DUP4 ADD SWAP2 PUSH1 0x1 PUSH1 0x1 PUSH1 0x40 SHL SUB DUP4 GT DUP5 DUP5 LT OR PUSH2 0x8C JUMPI DUP1 DUP5 SWAP3 PUSH1 0x40 SWAP5 DUP6 MSTORE DUP4 CODECOPY DUP2 ADD SUB SLT PUSH2 0x87 JUMPI PUSH2 0x52 PUSH1 0x20 PUSH2 0x4B DUP4 PUSH2 0xA2 JUMP JUMPDEST SWAP3 ADD PUSH2 0xA2 JUMP JUMPDEST SWAP1 PUSH1 0x80 MSTORE PUSH1 0xA0 MSTORE PUSH1 0x40 MLOAD PUSH2 0x577 SWAP1 DUP2 PUSH2 0xB7 DUP3 CODECOPY PUSH1 0x80 MLOAD DUP2 DUP2 DUP2 PUSH1 0xBF ADD MSTORE PUSH2 0x27E ADD MSTORE PUSH1 0xA0 MLOAD DUP2 DUP2 DUP2 PUSH2 0x10F ADD MSTORE PUSH2 0x246 ADD MSTORE RETURN JUMPDEST PUSH1 0x0 DUP1 REVERT JUMPDEST PUSH4 0x4E487B71 PUSH1 0xE0 SHL PUSH1 0x0 MSTORE PUSH1 0x41 PUSH1 0x4 MSTORE PUSH1 0x24 PUSH1 0x0 REVERT JUMPDEST MLOAD SWAP1 PUSH1 0x1 PUSH1 0x1 PUSH1 0xA0 SHL SUB DUP3 AND DUP3 SUB PUSH2 0x87 JUMPI JUMP INVALID PUSH1 0x80 DUP1 PUSH1 0x40 MSTORE PUSH1 0x4 CALLDATASIZE LT ISZERO PUSH2 0x13 JUMPI PUSH1 0x0 DUP1 REVERT JUMPDEST PUSH1 0x0 SWAP1 DUP2 CALLDATALOAD PUSH1 0xE0 SHR SWAP1 DUP2 PUSH4 0x442B1278 EQ PUSH2 0xE3 JUMPI POP DUP1 PUSH4 0x7D253AFF EQ PUSH2 0x92 JUMPI PUSH4 0xBC61A473 EQ PUSH2 0x42 JUMPI PUSH1 0x0 DUP1 REVERT JUMPDEST CALLVALUE PUSH2 0x8B JUMPI PUSH1 0x3 NOT SWAP1 PUSH1 0x20 CALLDATASIZE DUP4 ADD SLT PUSH2 0x8B JUMPI PUSH1 0x4 CALLDATALOAD SWAP2 PUSH8 0xFFFFFFFFFFFFFFFF DUP4 GT PUSH2 0x8E JUMPI PUSH2 0x140 SWAP1 DUP4 CALLDATASIZE SUB ADD SLT PUSH2 0x8B JUMPI PUSH1 0x20 PUSH2 0x83 DUP4 PUSH1 0x4 ADD PUSH2 0x1E4 JUMP JUMPDEST PUSH1 0x40 MLOAD SWAP1 DUP2 MSTORE RETURN JUMPDEST DUP1 REVERT JUMPDEST POP DUP1 REVERT JUMPDEST POP CALLVALUE PUSH2 0x8B JUMPI DUP1 PUSH1 0x3 NOT CALLDATASIZE ADD SLT PUSH2 0x8B JUMPI PUSH1 0x20 PUSH1 0x40 MLOAD PUSH20 0xFFFFFFFFFFFFFFFFFFFFFFFFFFFFFFFFFFFFFFFF PUSH32 0x0 AND DUP2 MSTORE RETURN JUMPDEST SWAP1 POP CALLVALUE PUSH2 0x8E JUMPI DUP2 PUSH1 0x3 NOT CALLDATASIZE ADD SLT PUSH2 0x8E JUMPI PUSH1 0x20 SWAP1 PUSH20 0xFFFFFFFFFFFFFFFFFFFFFFFFFFFFFFFFFFFFFFFF PUSH32 0x0 AND DUP2 MSTORE RETURN JUMPDEST SWAP1 PUSH1 0x1F DUP1 NOT SWAP2 ADD AND DUP2 ADD SWAP1 DUP2 LT PUSH8 0xFFFFFFFFFFFFFFFF DUP3 GT OR PUSH2 0x155 JUMPI PUSH1 0x40 MSTORE JUMP JUMPDEST PUSH4 0x4E487B71 PUSH1 0xE0 SHL PUSH1 0x0 MSTORE PUSH1 0x41 PUSH1 0x4 MSTORE PUSH1 0x24 PUSH1 0x0 REVERT JUMPDEST SWAP1 CALLDATALOAD PUSH1 0x1E NOT DUP3 CALLDATASIZE SUB ADD DUP2 SLT ISZERO PUSH2 0x19D JUMPI ADD PUSH1 0x20 DUP2 CALLDATALOAD SWAP2 ADD SWAP2 PUSH8 0xFFFFFFFFFFFFFFFF DUP3 GT PUSH2 0x19D JUMPI DUP2 CALLDATASIZE SUB DUP4 SGT PUSH2 0x19D JUMPI JUMP JUMPDEST PUSH1 0x0 DUP1 REVERT JUMPDEST SWAP1 DUP1 PUSH1 0x20 SWAP4 SWAP3 DUP2 DUP5 MSTORE DUP5 DUP5 ADD CALLDATACOPY PUSH1 0x0 DUP3 DUP3 ADD DUP5 ADD MSTORE PUSH1 0x1F ADD PUSH1 0x1F NOT AND ADD ADD SWAP1 JUMP JUMPDEST CALLDATALOAD SWAP1 PUSH20 0xFFFFFFFFFFFFFFFFFFFFFFFFFFFFFFFFFFFFFFFF DUP3 AND DUP3 SUB PUSH2 0x19D JUMPI JUMP JUMPDEST SWAP1 PUSH1 0x0 SWAP2 PUSH2 0x120 DUP2 ADD CALLDATALOAD SWAP1 PUSH12 0xFFFFFFFFFFFFFFFFFFFFFFFF DUP3 AND DUP1 SWAP3 SUB PUSH2 0x4F8 JUMPI PUSH1 0x40 DUP1 MLOAD SWAP2 PUSH32 0x95EA7B300000000000000000000000000000000000000000000000000000000 DUP4 MSTORE PUSH20 0xFFFFFFFFFFFFFFFFFFFFFFFFFFFFFFFFFFFFFFFF SWAP1 DUP2 PUSH32 0x0 AND DUP1 PUSH1 0x4 DUP7 ADD MSTORE DUP6 PUSH1 0x24 DUP7 ADD MSTORE PUSH1 0x20 SWAP5 DUP6 DUP2 PUSH1 0x44 DUP2 DUP13 DUP9 PUSH32 0x0 AND GAS CALL DUP1 ISZERO PUSH2 0x537 JUMPI PUSH2 0x4FC JUMPI JUMPDEST POP DUP4 MLOAD SWAP6 PUSH32 0x3F678E1100000000000000000000000000000000000000000000000000000000 DUP8 MSTORE DUP6 PUSH1 0x4 DUP9 ADD MSTORE DUP9 PUSH2 0x2F9 PUSH2 0x2E6 DUP6 DUP1 PUSH2 0x16B JUMP JUMPDEST PUSH2 0x140 PUSH1 0x24 DUP13 ADD MSTORE PUSH2 0x164 DUP12 ADD SWAP2 PUSH2 0x1A2 JUMP JUMPDEST SWAP2 PUSH2 0x31D PUSH2 0x309 DUP10 DUP8 ADD DUP8 PUSH2 0x16B JUMP JUMPDEST PUSH1 0x23 NOT DUP13 DUP8 SUB DUP2 ADD PUSH1 0x44 DUP15 ADD MSTORE SWAP6 SWAP2 PUSH2 0x1A2 JUMP JUMPDEST SWAP6 DUP1 PUSH2 0x32A DUP10 DUP9 ADD PUSH2 0x1C3 JUMP JUMPDEST AND PUSH1 0x64 DUP12 ADD MSTORE PUSH1 0x60 DUP7 ADD CALLDATALOAD PUSH4 0xFFFFFFFF DUP2 AND DUP1 SWAP2 SUB PUSH2 0x4F8 JUMPI PUSH1 0x84 DUP12 ADD MSTORE PUSH2 0x354 PUSH1 0x80 DUP8 ADD PUSH2 0x1C3 JUMP JUMPDEST AND PUSH1 0xA4 DUP11 ADD MSTORE PUSH1 0xA0 DUP6 ADD CALLDATALOAD SWAP1 PUSH1 0xFF DUP3 AND DUP1 SWAP3 SUB PUSH2 0x4F4 JUMPI PUSH2 0x3DB DUP11 SWAP7 DUP8 SWAP6 PUSH2 0x3CB PUSH2 0x3BF PUSH2 0x3A1 DUP15 SWAP13 DUP11 SWAP9 PUSH1 0xC4 DUP11 ADD MSTORE PUSH2 0x391 PUSH1 0xC0 DUP8 ADD DUP8 PUSH2 0x16B JUMP JUMPDEST SWAP1 DUP7 DUP12 DUP5 SUB ADD PUSH1 0xE4 DUP13 ADD MSTORE PUSH2 0x1A2 JUMP JUMPDEST PUSH2 0x3AE PUSH1 0xE0 DUP7 ADD DUP7 PUSH2 0x16B JUMP JUMPDEST SWAP1 DUP6 DUP11 DUP5 SUB ADD PUSH2 0x104 DUP12 ADD MSTORE PUSH2 0x1A2 JUMP JUMPDEST SWAP3 PUSH2 0x100 DUP2 ADD SWAP1 PUSH2 0x16B JUMP JUMPDEST SWAP2 DUP7 DUP5 SUB ADD PUSH2 0x124 DUP8 ADD MSTORE PUSH2 0x1A2 JUMP JUMPDEST SWAP1 PUSH2 0x144 DUP4 ADD MSTORE SUB SWAP3 GAS CALL SWAP3 DUP4 ISZERO PUSH2 0x4EA JUMPI DUP6 SWAP4 PUSH2 0x4B7 JUMPI JUMPDEST POP DUP3 ISZERO PUSH2 0x45A JUMPI CALLER DUP6 MSTORE DUP5 DUP3 MSTORE DUP5 KECCAK256 SWAP1 DUP2 SLOAD SWAP2 PUSH9 0x10000000000000000 DUP4 LT ISZERO PUSH2 0x446 JUMPI PUSH1 0x1 DUP4 ADD DUP1 DUP3 SSTORE DUP4 LT ISZERO PUSH2 0x432 JUMPI SWAP5 DUP4 SWAP5 SWAP6 DUP2 MSTORE KECCAK256 ADD SSTORE SWAP1 JUMP JUMPDEST PUSH1 0x24 DUP7 PUSH4 0x4E487B71 PUSH1 0xE0 SHL DUP2 MSTORE PUSH1 0x32 PUSH1 0x4 MSTORE REVERT JUMPDEST PUSH1 0x24 DUP7 PUSH4 0x4E487B71 PUSH1 0xE0 SHL DUP2 MSTORE PUSH1 0x41 PUSH1 0x4 MSTORE REVERT JUMPDEST PUSH1 0x64 SWAP3 POP MLOAD SWAP1 PUSH32 0x8C379A000000000000000000000000000000000000000000000000000000000 DUP3 MSTORE PUSH1 0x4 DUP3 ADD MSTORE PUSH1 0x15 PUSH1 0x24 DUP3 ADD MSTORE PUSH32 0x6175746F2D617070726F76652064697361626C65640000000000000000000000 PUSH1 0x44 DUP3 ADD MSTORE REVERT JUMPDEST SWAP1 SWAP3 POP DUP2 DUP2 DUP2 RETURNDATASIZE DUP4 GT PUSH2 0x4E3 JUMPI JUMPDEST PUSH2 0x4CF DUP2 DUP4 PUSH2 0x133 JUMP JUMPDEST DUP2 ADD SUB SLT PUSH2 0x4DF JUMPI MLOAD SWAP2 CODESIZE PUSH2 0x3F4 JUMP JUMPDEST DUP5 DUP1 REVERT JUMPDEST POP RETURNDATASIZE PUSH2 0x4C5 JUMP JUMPDEST DUP2 MLOAD RETURNDATASIZE DUP8 DUP3 RETURNDATACOPY RETURNDATASIZE SWAP1 REVERT JUMPDEST DUP3 DUP1 REVERT JUMPDEST DUP4 DUP1 REVERT JUMPDEST DUP6 DUP2 DUP2 RETURNDATASIZE DUP4 GT PUSH2 0x530 JUMPI JUMPDEST PUSH2 0x511 DUP2 DUP4 PUSH2 0x133 JUMP JUMPDEST DUP2 ADD SUB SLT PUSH2 0x52C JUMPI MLOAD DUP1 ISZERO ISZERO SUB PUSH2 0x528 JUMPI CODESIZE PUSH2 0x2AB JUMP JUMPDEST DUP8 DUP1 REVERT JUMPDEST DUP9 DUP1 REVERT JUMPDEST POP RETURNDATASIZE PUSH2 0x507 JUMP JUMPDEST DUP6 MLOAD RETURNDATASIZE DUP12 DUP3 RETURNDATACOPY RETURNDATASIZE SWAP1 REVERT INVALID LOG2 PUSH5 0x6970667358 0x22 SLT KECCAK256 KECCAK256 RETURNDATACOPY MUL SUB 0xB6 0x24 0x5E SWAP15 0xEA SWAP7 PUSH6 0xA381EAEC57B6 INVALID SGT POP NOT PUSH27 0xD7FA15F5A15F2C69D75F64736F6C63430008130033A26469706673 PC 0x22 SLT KECCAK256 CALLDATALOAD CALLDATACOPY PUSH11 0xBB59F117E2FA918C8DA9B0 LOG4 0xB5 0x5D RETURN STOP 0xBC 0xC 0xD4 0x1F PUSH21 0x4961A447722E4FB664736F6C634300081300330000 "},"methodIdentifiers":{"blacklistAddr(address)":"8a699f00","contractBalance()":"8b7afe2e","contracts(address,uint256)":"ed23f8c3","createInsuranceContract(address,address,uint256,uint256,uint256,uint256,address,uint64,address,address,address,uint32)":"77ad0b34","getInsurance(uint256)":"85fae602","i_owner()":"dba6335f","id()":"af640d0f","institutionName()":"3a133e2c","registerInfo(string,string)":"6a4ac979","whitelist(address)":"9b19251a","whitelistAddr(address)":"080a57f9","withdraw()":"3ccfd60b"}}}}}