{"contracts/Upkeep.sol":{"Upkeep":{"abi":[{"inputs":[{"internalType":"address","name":"link","type":"address"},{"internalType":"address","name":"registrar","type":"address"}],"stateMutability":"nonpayable","type":"constructor"},{"inputs":[],"name":"i_link","outputs":[{"internalType":"address","name":"","type":"address"}],"stateMutability":"view","type":"function"},{"inputs":[],"name":"i_registrar","outputs":[{"internalType":"address","name":"","type":"address"}],"stateMutability":"view","type":"function"},{"inputs":[{"components":[{"internalType":"string","name":"name","type":"string"},{"internalType":"bytes","name":"encryptedEmail","type":"bytes"},{"internalType":"address","name":"upkeepContract","type":"address"},{"internalType":"uint32","name":"gasLimit","type":"uint32"},{"internalType":"address","name":"adminAddress","type":"address"},{"internalType":"uint8","name":"triggerType","type":"uint8"},{"internalType":"bytes","name":"checkData","type":"bytes"},{"internalType":"bytes","name":"triggerConfig","type":"bytes"},{"internalType":"bytes","name":"offchainConfig","type":"bytes"},{"internalType":"uint96","name":"amount","type":"uint96"}],"internalType":"struct RegistrationParams","name":"params","type":"tuple"}],"name":"register","outputs":[{"internalType":"uint256","name":"","type":"uint256"}],"stateMutability":"nonpayable","type":"function"}],"evm":{"bytecode":{"linkReferences":{},"object":"60c03461008757601f61062e38819003918201601f19168301916001600160401b0383118484101761008c57808492604094855283398101031261008757610052602061004b836100a2565b92016100a2565b9060805260a05260405161057790816100b7823960805181818160bf015261027e015260a05181818161010f01526102460152f35b600080fd5b634e487b7160e01b600052604160045260246000fd5b51906001600160a01b03821682036100875756fe608080604052600436101561001357600080fd5b600090813560e01c908163442b1278146100e3575080637d253aff146100925763bc61a4731461004257600080fd5b3461008b576003199060203683011261008b576004359167ffffffffffffffff831161008e5761014090833603011261008b576020610083836004016101e4565b604051908152f35b80fd5b5080fd5b503461008b578060031936011261008b57602060405173ffffffffffffffffffffffffffffffffffffffff7f0000000000000000000000000000000000000000000000000000000000000000168152f35b90503461008e578160031936011261008e5760209073ffffffffffffffffffffffffffffffffffffffff7f0000000000000000000000000000000000000000000000000000000000000000168152f35b90601f8019910116810190811067ffffffffffffffff82111761015557604052565b634e487b7160e01b600052604160045260246000fd5b9035601e198236030181121561019d57016020813591019167ffffffffffffffff821161019d57813603831361019d57565b600080fd5b908060209392818452848401376000828201840152601f01601f1916010190565b359073ffffffffffffffffffffffffffffffffffffffff8216820361019d57565b90600091610120810135906bffffffffffffffffffffffff82168092036104f85760408051917f095ea7b300000000000000000000000000000000000000000000000000000000835273ffffffffffffffffffffffffffffffffffffffff90817f00000000000000000000000000000000000000000000000000000000000000001680600486015285602486015260209485816044818c887f0000000000000000000000000000000000000000000000000000000000000000165af18015610537576104fc575b508351957f3f678e11000000000000000000000000000000000000000000000000000000008752856004880152886102f96102e6858061016b565b61014060248c01526101648b01916101a2565b9161031d6103098987018761016b565b6023198c8703810160448e015295916101a2565b958061032a8988016101c3565b1660648b0152606086013563ffffffff81168091036104f85760848b0152610354608087016101c3565b1660a48a015260a08501359060ff82168092036104f4576103db8a9687956103cb6103bf6103a18e9c8a9860c48a015261039160c087018761016b565b90868b84030160e48c01526101a2565b6103ae60e086018661016b565b90858a8403016101048b01526101a2565b9261010081019061016b565b91868403016101248701526101a2565b9061014483015203925af19283156104ea5785936104b7575b50821561045a573385528482528420908154916801000000000000000083101561044657600183018082558310156104325794839495815220015590565b602486634e487b7160e01b81526032600452fd5b602486634e487b7160e01b81526041600452fd5b6064925051907f08c379a00000000000000000000000000000000000000000000000000000000082526004820152601560248201527f6175746f2d617070726f76652064697361626c656400000000000000000000006044820152fd5b9092508181813d83116104e3575b6104cf8183610133565b810103126104df575191386103f4565b8480fd5b503d6104c5565b81513d87823e3d90fd5b8280fd5b8380fd5b8581813d8311610530575b6105118183610133565b8101031261052c57518015150361052857386102ab565b8780fd5b8880fd5b503d610507565b85513d8b823e3d90fdfea2646970667358221220203e0203b6245e9eea9665a381eaec57b6fe1350197ad7fa15f5a15f2c69d75f64736f6c63430008130033","opcodes":"PUSH1 0xC0 CALLVALUE PUSH2 0x87 JUMPI PUSH1 0x1F PUSH2 0x62E CODESIZE DUP2 SWAP1 SUB SWAP2 DUP3 ADD PUSH1 0x1F NOT AND DUP4 ADD SWAP2 PUSH1 0x1 PUSH1 0x1 PUSH1 0x40 SHL SUB DUP4 GT DUP5 DUP5 LT OR PUSH2 0x8C JUMPI DUP1 DUP5 SWAP3 PUSH1 0x40 SWAP5 DUP6 MSTORE DUP4 CODECOPY DUP2 ADD SUB SLT PUSH2 0x87 JUMPI PUSH2 0x52 PUSH1 0x20 PUSH2 0x4B DUP4 PUSH2 0xA2 JUMP JUMPDEST SWAP3 ADD PUSH2 0xA2 JUMP JUMPDEST SWAP1 PUSH1 0x80 MSTORE PUSH1 0xA0 MSTORE PUSH1 0x40 MLOAD PUSH2 0x577 SWAP1 DUP2 PUSH2 0xB7 DUP3 CODECOPY PUSH1 0x80 MLOAD DUP2 DUP2 DUP2 PUSH1 0xBF ADD MSTORE PUSH2 0x27E ADD MSTORE PUSH1 0xA0 MLOAD DUP2 DUP2 DUP2 PUSH2 0x10F ADD MSTORE PUSH2 0x246 ADD MSTORE RETURN JUMPDEST PUSH1 0x0 DUP1 REVERT JUMPDEST PUSH4 0x4E487B71 PUSH1 0xE0 SHL PUSH1 0x0 MSTORE PUSH1 0x41 PUSH1 0x4 MSTORE PUSH1 0x24 PUSH1 0x0 REVERT JUMPDEST MLOAD SWAP1 PUSH1 0x1 PUSH1 0x1 PUSH1 0xA0 SHL SUB DUP3 AND DUP3 SUB PUSH2 0x87 JUMPI JUMP INVALID PUSH1 0x80 DUP1 PUSH1 0x40 MSTORE PUSH1 0x4 CALLDATASIZE LT ISZERO PUSH2 0x13 JUMPI PUSH1 0x0 DUP1 REVERT JUMPDEST PUSH1 0x0 SWAP1 DUP2 CALLDATALOAD PUSH1 0xE0 SHR SWAP1 DUP2 PUSH4 0x442B1278 EQ PUSH2 0xE3 JUMPI POP DUP1 PUSH4 0x7D253AFF EQ PUSH2 0x92 JUMPI PUSH4 0xBC61A473 EQ PUSH2 0x42 JUMPI PUSH1 0x0 DUP1 REVERT JUMPDEST CALLVALUE PUSH2 0x8B JUMPI PUSH1 0x3 NOT SWAP1 PUSH1 0x20 CALLDATASIZE DUP4 ADD SLT PUSH2 0x8B JUMPI PUSH1 0x4 CALLDATALOAD SWAP2 PUSH8 0xFFFFFFFFFFFFFFFF DUP4 GT PUSH2 0x8E JUMPI PUSH2 0x140 SWAP1 DUP4 CALLDATASIZE SUB ADD SLT PUSH2 0x8B JUMPI PUSH1 0x20 PUSH2 0x83 DUP4 PUSH1 0x4 ADD PUSH2 0x1E4 JUMP JUMPDEST PUSH1 0x40 MLOAD SWAP1 DUP2 MSTORE RETURN JUMPDEST DUP1 REVERT JUMPDEST POP DUP1 REVERT JUMPDEST POP CALLVALUE PUSH2 0x8B JUMPI DUP1 PUSH1 0x3 NOT CALLDATASIZE ADD SLT PUSH2 0x8B JUMPI PUSH1 0x20 PUSH1 0x40 MLOAD PUSH20 0xFFFFFFFFFFFFFFFFFFFFFFFFFFFFFFFFFFFFFFFF PUSH32 0x0 AND DUP2 MSTORE RETURN JUMPDEST SWAP1 POP CALLVALUE PUSH2 0x8E JUMPI DUP2 PUSH1 0x3 NOT CALLDATASIZE ADD SLT PUSH2 0x8E JUMPI PUSH1 0x20 SWAP1 PUSH20 0xFFFFFFFFFFFFFFFFFFFFFFFFFFFFFFFFFFFFFFFF PUSH32 0x0 AND DUP2 MSTORE RETURN JUMPDEST SWAP1 PUSH1 0x1F DUP1 NOT SWAP2 ADD AND DUP2 ADD SWAP1 DUP2 LT PUSH8 0xFFFFFFFFFFFFFFFF DUP3 GT OR PUSH2 0x155 JUMPI PUSH1 0x40 MSTORE JUMP JUMPDEST PUSH4 0x4E487B71 PUSH1 0xE0 SHL PUSH1 0x0 MSTORE PUSH1 0x41 PUSH1 0x4 MSTORE PUSH1 0x24 PUSH1 0x0 REVERT JUMPDEST SWAP1 CALLDATALOAD PUSH1 0x1E NOT DUP3 CALLDATASIZE SUB ADD DUP2 SLT ISZERO PUSH2 0x19D JUMPI ADD PUSH1 0x20 DUP2 CALLDATALOAD SWAP2 ADD SWAP2 PUSH8 0xFFFFFFFFFFFFFFFF DUP3 GT PUSH2 0x19D JUMPI DUP2 CALLDATASIZE SUB DUP4 SGT PUSH2 0x19D JUMPI JUMP JUMPDEST PUSH1 0x0 DUP1 REVERT JUMPDEST SWAP1 DUP1 PUSH1 0x20 SWAP4 SWAP3 DUP2 DUP5 MSTORE DUP5 DUP5 ADD CALLDATACOPY PUSH1 0x0 DUP3 DUP3 ADD DUP5 ADD MSTORE PUSH1 0x1F ADD PUSH1 0x1F NOT AND ADD ADD SWAP1 JUMP JUMPDEST CALLDATALOAD SWAP1 PUSH20 0xFFFFFFFFFFFFFFFFFFFFFFFFFFFFFFFFFFFFFFFF DUP3 AND DUP3 SUB PUSH2 0x19D JUMPI JUMP JUMPDEST SWAP1 PUSH1 0x0 SWAP2 PUSH2 0x120 DUP2 ADD CALLDATALOAD SWAP1 PUSH12 0xFFFFFFFFFFFFFFFFFFFFFFFF DUP3 AND DUP1 SWAP3 SUB PUSH2 0x4F8 JUMPI PUSH1 0x40 DUP1 MLOAD SWAP2 PUSH32 0x95EA7B300000000000000000000000000000000000000000000000000000000 DUP4 MSTORE PUSH20 0xFFFFFFFFFFFFFFFFFFFFFFFFFFFFFFFFFFFFFFFF SWAP1 DUP2 PUSH32 0x0 AND DUP1 PUSH1 0x4 DUP7 ADD MSTORE DUP6 PUSH1 0x24 DUP7 ADD MSTORE PUSH1 0x20 SWAP5 DUP6 DUP2 PUSH1 0x44 DUP2 DUP13 DUP9 PUSH32 0x0 AND GAS CALL DUP1 ISZERO PUSH2 0x537 JUMPI PUSH2 0x4FC JUMPI JUMPDEST POP DUP4 MLOAD SWAP6 PUSH32 0x3F678E1100000000000000000000000000000000000000000000000000000000 DUP8 MSTORE DUP6 PUSH1 0x4 DUP9 ADD MSTORE DUP9 PUSH2 0x2F9 PUSH2 0x2E6 DUP6 DUP1 PUSH2 0x16B JUMP JUMPDEST PUSH2 0x140 PUSH1 0x24 DUP13 ADD MSTORE PUSH2 0x164 DUP12 ADD SWAP2 PUSH2 0x1A2 JUMP JUMPDEST SWAP2 PUSH2 0x31D PUSH2 0x309 DUP10 DUP8 ADD DUP8 PUSH2 0x16B JUMP JUMPDEST PUSH1 0x23 NOT DUP13 DUP8 SUB DUP2 ADD PUSH1 0x44 DUP15 ADD MSTORE SWAP6 SWAP2 PUSH2 0x1A2 JUMP JUMPDEST SWAP6 DUP1 PUSH2 0x32A DUP10 DUP9 ADD PUSH2 0x1C3 JUMP JUMPDEST AND PUSH1 0x64 DUP12 ADD MSTORE PUSH1 0x60 DUP7 ADD CALLDATALOAD PUSH4 0xFFFFFFFF DUP2 AND DUP1 SWAP2 SUB PUSH2 0x4F8 JUMPI PUSH1 0x84 DUP12 ADD MSTORE PUSH2 0x354 PUSH1 0x80 DUP8 ADD PUSH2 0x1C3 JUMP JUMPDEST AND PUSH1 0xA4 DUP11 ADD MSTORE PUSH1 0xA0 DUP6 ADD CALLDATALOAD SWAP1 PUSH1 0xFF DUP3 AND DUP1 SWAP3 SUB PUSH2 0x4F4 JUMPI PUSH2 0x3DB DUP11 SWAP7 DUP8 SWAP6 PUSH2 0x3CB PUSH2 0x3BF PUSH2 0x3A1 DUP15 SWAP13 DUP11 SWAP9 PUSH1 0xC4 DUP11 ADD MSTORE PUSH2 0x391 PUSH1 0xC0 DUP8 ADD DUP8 PUSH2 0x16B JUMP JUMPDEST SWAP1 DUP7 DUP12 DUP5 SUB ADD PUSH1 0xE4 DUP13 ADD MSTORE PUSH2 0x1A2 JUMP JUMPDEST PUSH2 0x3AE PUSH1 0xE0 DUP7 ADD DUP7 PUSH2 0x16B JUMP JUMPDEST SWAP1 DUP6 DUP11 DUP5 SUB ADD PUSH2 0x104 DUP12 ADD MSTORE PUSH2 0x1A2 JUMP JUMPDEST SWAP3 PUSH2 0x100 DUP2 ADD SWAP1 PUSH2 0x16B JUMP JUMPDEST SWAP2 DUP7 DUP5 SUB ADD PUSH2 0x124 DUP8 ADD MSTORE PUSH2 0x1A2 JUMP JUMPDEST SWAP1 PUSH2 0x144 DUP4 ADD MSTORE SUB SWAP3 GAS CALL SWAP3 DUP4 ISZERO PUSH2 0x4EA JUMPI DUP6 SWAP4 PUSH2 0x4B7 JUMPI JUMPDEST POP DUP3 ISZERO PUSH2 0x45A JUMPI CALLER DUP6 MSTORE DUP5 DUP3 MSTORE DUP5 KECCAK256 SWAP1 DUP2 SLOAD SWAP2 PUSH9 0x10000000000000000 DUP4 LT ISZERO PUSH2 0x446 JUMPI PUSH1 0x1 DUP4 ADD DUP1 DUP3 SSTORE DUP4 LT ISZERO PUSH2 0x432 JUMPI SWAP5 DUP4 SWAP5 SWAP6 DUP2 MSTORE KECCAK256 ADD SSTORE SWAP1 JUMP JUMPDEST PUSH1 0x24 DUP7 PUSH4 0x4E487B71 PUSH1 0xE0 SHL DUP2 MSTORE PUSH1 0x32 PUSH1 0x4 MSTORE REVERT JUMPDEST PUSH1 0x24 DUP7 PUSH4 0x4E487B71 PUSH1 0xE0 SHL DUP2 MSTORE PUSH1 0x41 PUSH1 0x4 MSTORE REVERT JUMPDEST PUSH1 0x64 SWAP3 POP MLOAD SWAP1 PUSH32 0x8C379A000000000000000000000000000000000000000000000000000000000 DUP3 MSTORE PUSH1 0x4 DUP3 ADD MSTORE PUSH1 0x15 PUSH1 0x24 DUP3 ADD MSTORE PUSH32 0x6175746F2D617070726F76652064697361626C65640000000000000000000000 PUSH1 0x44 DUP3 ADD MSTORE REVERT JUMPDEST SWAP1 SWAP3 POP DUP2 DUP2 DUP2 RETURNDATASIZE DUP4 GT PUSH2 0x4E3 JUMPI JUMPDEST PUSH2 0x4CF DUP2 DUP4 PUSH2 0x133 JUMP JUMPDEST DUP2 ADD SUB SLT PUSH2 0x4DF JUMPI MLOAD SWAP2 CODESIZE PUSH2 0x3F4 JUMP JUMPDEST DUP5 DUP1 REVERT JUMPDEST POP RETURNDATASIZE PUSH2 0x4C5 JUMP JUMPDEST DUP2 MLOAD RETURNDATASIZE DUP8 DUP3 RETURNDATACOPY RETURNDATASIZE SWAP1 REVERT JUMPDEST DUP3 DUP1 REVERT JUMPDEST DUP4 DUP1 REVERT JUMPDEST DUP6 DUP2 DUP2 RETURNDATASIZE DUP4 GT PUSH2 0x530 JUMPI JUMPDEST PUSH2 0x511 DUP2 DUP4 PUSH2 0x133 JUMP JUMPDEST DUP2 ADD SUB SLT PUSH2 0x52C JUMPI MLOAD DUP1 ISZERO ISZERO SUB PUSH2 0x528 JUMPI CODESIZE PUSH2 0x2AB JUMP JUMPDEST DUP8 DUP1 REVERT JUMPDEST DUP9 DUP1 REVERT JUMPDEST POP RETURNDATASIZE PUSH2 0x507 JUMP JUMPDEST DUP6 MLOAD RETURNDATASIZE DUP12 DUP3 RETURNDATACOPY RETURNDATASIZE SWAP1 REVERT INVALID LOG2 PUSH5 0x6970667358 0x22 SLT KECCAK256 KECCAK256 RETURNDATACOPY MUL SUB 0xB6 0x24 0x5E SWAP15 0xEA SWAP7 PUSH6 0xA381EAEC57B6 INVALID SGT POP NOT PUSH27 0xD7FA15F5A15F2C69D75F64736F6C63430008130033000000000000 "},"methodIdentifiers":{"i_link()":"7d253aff","i_registrar()":"442b1278","register((string,bytes,address,uint32,address,uint8,bytes,bytes,bytes,uint96))":"bc61a473"}}}}}