{"contracts/InsuranceAPI.sol":{"InsuranceAPI":{"abi":[{"inputs":[{"internalType":"address","name":"_owner","type":"address"}],"stateMutability":"nonpayable","type":"constructor"},{"anonymous":false,"inputs":[{"indexed":false,"internalType":"address","name":"institutionAddress","type":"address"}],"name":"InstitutionCreated","type":"event"},{"inputs":[{"internalType":"string","name":"_institutionName","type":"string"}],"name":"createInstitution","outputs":[],"stateMutability":"nonpayable","type":"function"},{"inputs":[],"name":"getAllInstitution","outputs":[{"internalType":"contract Institution[]","name":"","type":"address[]"}],"stateMutability":"view","type":"function"},{"inputs":[],"name":"im_owner","outputs":[{"internalType":"address","name":"","type":"address"}],"stateMutability":"view","type":"function"}],"evm":{"bytecode":{"linkReferences":{},"object":"60a03461006957601f61563838819003918201601f19168301916001600160401b0383118484101761006e5780849260209460405283398101031261006957516001600160a01b0381168103610069576080526040516155b3908161008582396080518160710152f35b600080fd5b634e487b7160e01b600052604160045260246000fdfe608060408181526004918236101561001657600080fd5b600092833560e01c918263029bf70114610163575050806336a786ec146100995763af6081de1461004657600080fd5b346100955781600319360112610095576020905173ffffffffffffffffffffffffffffffffffffffff7f0000000000000000000000000000000000000000000000000000000000000000168152f35b5080fd5b50903461016057806003193601126101605790338252602091808352818120908251808584549182815201908194845286842090845b81811061013657505050816100e5910382610348565b83519485948186019282875251809352850193925b82811061010957505050500390f35b835173ffffffffffffffffffffffffffffffffffffffff16855286955093810193928101926001016100fa565b825473ffffffffffffffffffffffffffffffffffffffff16845292880192600192830192016100cf565b80fd5b8490843461034457602091826003193601126103405767ffffffffffffffff853581811161033c573660238201121561033c578087013582811161032957601f19916101b6601f83018416880186610348565b818552366024838301011161032557818892602489930183880137850101528351926151fd80850193841185851017610312579084929161038184393384528587850152805190818786015287895b8381106102fa5750505090601f828960608795819801015201160103019084f09081156102f157338452838352808420805490680100000000000000008210156102de57600182018082558210156102cb578596509073ffffffffffffffffffffffffffffffffffffffff917fea999c661f6c9b8cb04b763224104e50ffebeb622f731f760a183d91fdf86998965284872001921691827fffffffffffffffffffffffff000000000000000000000000000000000000000082541617905551908152a180f35b602486603289634e487b7160e01b835252fd5b602486604189634e487b7160e01b835252fd5b513d84823e3d90fd5b82810182015187820160600152879550899101610205565b60248860418b634e487b7160e01b835252fd5b8780fd5b60248760418a634e487b7160e01b835252fd5b8580fd5b8380fd5b8280fd5b90601f8019910116810190811067ffffffffffffffff82111761036a57604052565b634e487b7160e01b600052604160045260246000fdfe60a0604052346200024857620051fd803803806200001d816200024d565b928339810190604081830312620002485780516001600160a01b038116810362000248576020828101516001600160401b039391929184821162000248570193601f91818387011215620002485785518581116200021d57601f19966200008a828601891687016200024d565b938285528683830101116200024857859060005b838110620002335750506000918401015260805280519384116200021d57600054926001938481811c9116801562000212575b82821014620001fc57838111620001b1575b5080928511600114620001475750839450908392916000946200013b575b50501b916000199060031b1c1916176000555b604051614f8990816200027482396080518181816101bf0152818161041201526109030152f35b01519250388062000101565b9294849081166000805284600020946000905b888383106200019657505050106200017c575b505050811b0160005562000114565b015160001960f88460031b161c191690553880806200016d565b8587015188559096019594850194879350908101906200015a565b60008052816000208480880160051c820192848910620001f2575b0160051c019085905b828110620001e5575050620000e3565b60008155018590620001d5565b92508192620001cc565b634e487b7160e01b600052602260045260246000fd5b90607f1690620000d1565b634e487b7160e01b600052604160045260246000fd5b8181018301518682018401528792016200009e565b600080fd5b6040519190601f01601f191682016001600160401b038111838210176200021d5760405256fe608060405260043610156200001d575b36156200001b57600080fd5b005b60003560e01c8063080a57f91462000b8557806317fab0a01462000aa45780633a133e2c14620009b55780633ccfd60b14620008e65780633f0f912d14620008295780638a699f0014620007eb5780638b7afe2e14620007cd57806390f6d37814620006be5780639b19251a146200067b5780639c22a6dd1462000436578063af6081de14620003f0578063dfb50e6414620001245763ed23f8c3036200000f57346200011f5760403660031901126200011f57620000db62000bc6565b602435906001600160a01b038091166000526004602052604060002080548310156200011f576020926200010f9162000d41565b9190546040519260031b1c168152f35b600080fd5b346200011f5760203660031901126200011f5767ffffffffffffffff600435116200011f573660236004350112156200011f576004356004013567ffffffffffffffff8111620003da578060051b906040519062000186602084018362000bdd565b8152602081016024923684826004350101116200011f578360043501915b84826004350101831062000303575050506001600160a01b037f0000000000000000000000000000000000000000000000000000000000000000163303620002d95760005b81518110156200001b5762000240602062000205838562000d5a565b5101516200023060206200021a858762000d5a565b5151816040519382858094519384920162000c6a565b8101600281520301902062000d6f565b6200024c818362000d5a565b51516001805468010000000000000000811015620002c4578162000274928201905562000cf3565b919091620002af57620002879162000d6f565b60001981146200029a57600101620001e9565b82634e487b7160e01b60005260116004526000fd5b84634e487b7160e01b60005260006004526000fd5b85634e487b7160e01b60005260416004526000fd5b60046040517f30cd7471000000000000000000000000000000000000000000000000000000008152fd5b823567ffffffffffffffff81116200011f5736604382600435010112156200011f57604051906040820182811067ffffffffffffffff821117620003c557604052600435810160640190823683116200011f5790889493929185826004350101905b838210620003835750505090825250602093840193019050620001a4565b9091929394955067ffffffffffffffff8235116200011f5760208091620003b4368d86358860043501010162000c1d565b815201910189959493929162000365565b87634e487b7160e01b60005260416004526000fd5b634e487b7160e01b600052604160045260246000fd5b346200011f5760003660031901126200011f5760206040516001600160a01b037f0000000000000000000000000000000000000000000000000000000000000000168152f35b346200011f576101a0806003193601126200011f576200045562000bc6565b90602435916001600160a01b03918284168094036200011f576084359160c435908482168092036200011f5760e435928584168094036200011f5761010435908682168092036200011f57610124358781168091036200011f576101443563ffffffff81168091036200011f5767ffffffffffffffff91610184358381116200011f57620004e890369060040162000c1d565b948b600052600360205260ff60406000205416156200061157604051986140c498898b019586118b871017620003da578c62000582998c9b62000e908d391686528d6020870152604435604087015260643560608701528b608087015260a43560a087015260c086015260e08501526101008401526101208301526101408201526101643561016082015281610180820152019062000ccc565b0391f09182156200060557600052600460205260406000209081549268010000000000000000841015620003da5781620005e68560209560017fa155a575082ecf596e5a22a44834be92670605d1d0832000305888ba02a462d99801815562000d41565b939092169282549060031b9184831b921b1916179055604051908152a1005b6040513d6000823e3d90fd5b608460405162461bcd60e51b815260206004820152602160248201527f456e64657265636f206e616f2065737461206e61206c69737461206272616e6360448201527f61000000000000000000000000000000000000000000000000000000000000006064820152fd5b346200011f5760203660031901126200011f576001600160a01b03620006a062000bc6565b166000526003602052602060ff604060002054166040519015158152f35b346200011f576020806003193601126200011f576004359060019182548110156200011f57620006ee9062000cf3565b620007b7576040518093600090835493620007098562000c8f565b948585528683821691826000146200079357505060011462000750575b5050620007369250038362000bdd565b6200074c60405192828493845283019062000ccc565b0390f35b85925060005281600020906000915b8583106200077a575050620007369350820101858062000726565b805483890185015287945086939092019181016200075f565b92509350506200073694915060ff191682840152151560051b820101858062000726565b634e487b7160e01b600052600060045260246000fd5b346200011f5760003660031901126200011f57602047604051908152f35b346200011f5760203660031901126200011f576001600160a01b036200081062000bc6565b166000908152600360205260409020805460ff19169055005b346200011f576020806003193601126200011f576001600160a01b0390816200085162000bc6565b1660005260048152604060002060405191828183549182815201908193600052826000209060005b818110620008cf57505050836200089291038462000bdd565b60405192818401908285525180915260408401929160005b828110620008b85785850386f35b8351871685529381019392810192600101620008aa565b825488168452928401926001928301920162000879565b346200011f5760003660031901126200011f576001600160a01b037f000000000000000000000000000000000000000000000000000000000000000016803303620002d95760008080809347905af13d15620009af573d620009488162000c00565b9062000958604051928362000bdd565b8152600060203d92013e5b156200096b57005b606460405162461bcd60e51b815260206004820152601060248201527f5769746864726177206661696c65642e000000000000000000000000000000006044820152fd5b62000963565b346200011f5760003660031901126200011f5760405160008054620009da8162000c8f565b8084529060019081811690811562000a7b575060011462000a1e575b6200074c8462000a098186038262000bdd565b60405191829160208352602083019062000ccc565b600080805292507f290decd9548b62a8d60345a988386fc84ba6bc95484008f6362f93160ef3e5635b82841062000a6257505050810160200162000a0982620009f6565b8054602085870181019190915290930192810162000a47565b60ff191660208087019190915292151560051b8501909201925062000a099150839050620009f6565b346200011f576020806003193601126200011f5760043567ffffffffffffffff81116200011f578162000ae062000af492369060040162000c1d565b816040519382858094519384920162000c6a565b810160028152030190209060405191826000825462000b138162000c8f565b938484526001918683821691826000146200079357505060011462000b42575050620007369250038362000bdd565b85925060005281600020906000915b85831062000b6c575050620007369350820101858062000726565b8054838901850152879450869390920191810162000b51565b346200011f5760203660031901126200011f576001600160a01b0362000baa62000bc6565b166000908152600360205260409020805460ff19166001179055005b600435906001600160a01b03821682036200011f57565b90601f8019910116810190811067ffffffffffffffff821117620003da57604052565b67ffffffffffffffff8111620003da57601f01601f191660200190565b81601f820112156200011f5780359062000c378262000c00565b9262000c47604051948562000bdd565b828452602083830101116200011f57816000926020809301838601378301015290565b60005b83811062000c7e5750506000910152565b818101518382015260200162000c6d565b90600182811c9216801562000cc1575b602083101462000cab57565b634e487b7160e01b600052602260045260246000fd5b91607f169162000c9f565b9060209162000ce78151809281855285808601910162000c6a565b601f01601f1916010190565b60015481101562000d2b5760016000527fb10e2d527612073b26eecdfd717e6a320cf44b4afac2b0732d9fcbe2b7fa0cf60190600090565b634e487b7160e01b600052603260045260246000fd5b805482101562000d2b5760005260206000200190600090565b805182101562000d2b5760209160051b010190565b919091825167ffffffffffffffff8111620003da5762000d90825462000c8f565b601f811162000e42575b50602080601f831160011462000dda57508192939460009262000dce575b50508160011b916000199060031b1c1916179055565b01519050388062000db8565b90601f198316958460005282600020926000905b88821062000e295750508360019596971062000e0f575b505050811b019055565b015160001960f88460031b161c1916905538808062000e05565b8060018596829496860151815501950193019062000dee565b600083815260208120601f840160051c8101926020851062000e84575b601f0160051c01915b82811062000e7857505062000d9a565b81815560010162000e68565b909250829062000e5f56fe610120604052620040c48038039081620000198162000422565b9182396101a08183810103126200041d57620000358162000448565b90620000446020820162000448565b60408201519260608301519160808401519460a0850151916200006a60c0870162000448565b966200007960e0880162000448565b9162000089610100890162000448565b92620000996101208a0162000448565b956101408a01519363ffffffff851685036200041d576101608b015160c0526101808b01519c6001600160401b038e116200041d57808c018e8d01601f0112156200041d578b8e015160e0819052906001600160401b038211620003c2578e916020918e916200011290601f01601f1916840162000422565b806101005260e051905281019260e05191010101116200041d5760005b60e051811015620001545760208e8d018201810151610100518301820152016200012f565b5060e0516101005160009101602001526001600160a01b03808d16608052988916998a15620003d857899788958c60018060a01b03199d8e60005416176000558d600254161760025560175490610100600160a81b039060081b1690610100600160a81b03191617601755601955601a556018556008551660a0526bffffffff00000000000000006007549160401b16906bffffffff0000000000000000191617600755168360095416176009551690600a541617600a5542600f5560c051600e5561010051805160018060401b038111620003c257601c54916001928381811c91168015620003b7575b6020821014620003a157601f811162000334575b50602090601f8311600114620002c9575081928291600093620002ba575b501b916000199060031b1c191617601c555b604051613c6690816200045e82396080518181816104750152610e96015260a0518181816110ac015281816110d7015261159d0152f35b61010051015192508462000271565b90601f19831691601c6000528360206000209360005b878282106200031a5750501062000300575b505050811b01601c5562000283565b015160001960f88460031b161c19169055828080620002f1565b8486015187559095019460209485019487935001620002df565b601c6000527f0e4562a10381dec21b205ed72637e6b1b523bdd0e4d4d50af5cd23dd4500a211601f840160051c8101916020851062000396575b601f0160051c019084905b8281106200038957505062000253565b6000815501849062000379565b90915081906200036e565b634e487b7160e01b600052602260045260246000fd5b90607f16906200023f565b634e487b7160e01b600052604160045260246000fd5b60405162461bcd60e51b815260206004820152601860248201527f43616e6e6f7420736574206f776e657220746f207a65726f00000000000000006044820152606490fd5b600080fd5b6040519190601f01601f191682016001600160401b03811183821017620003c257604052565b51906001600160a01b03821682036200041d5756fe608060405260043610156200001d575b36156200001b57600080fd5b005b60003560e01c8063089ea02e14620002da57806309c1ba2e14620002d45780630ca7617514620002ce5780631243bcc314620002c85780631aa46f5914620002c257806324b93e3e14620002bc578063277e221314620002b65780632fc2a7b914620002b0578063338cdca114620002aa578063381fc4b514620002a45780633944ea3a146200029e5780633f678e11146200029857806343cd3d8614620002925780634585e33b146200028c57806348802b92146200028657806348bd6f0514620002805780634b0795a8146200027a57806362ed90361462000274578063688ecfd1146200026e5780636baa48fe14620002685780636e04ff0d14620002625780636e74336b146200025c57806379ba509714620002565780637b10399914620002505780638b7afe2e146200024a5780638d7e6d2d14620002445780638da5cb5b146200023e578063a30971391462000238578063a3d3c0d21462000232578063b1e21749146200022c578063bef3a2f01462000226578063d2aa789f1462000220578063d5f39488146200021a578063d811fcf01462000214578063ea7b4f77146200020e578063ebf14a551462000208578063f2fde38b1462000202578063fd2c80ae14620001fc5763fffeb84e036200000f5762001c0e565b62001bee565b62001ae3565b62001a97565b62001a57565b62001a2b565b62001a02565b620019e2565b6200192d565b6200190d565b620018ed565b620018cd565b620018a4565b62001615565b620015c1565b6200157b565b62001497565b62001477565b620013f9565b620013d0565b6200131b565b620011f5565b62001140565b62001120565b62001100565b62000de1565b62000d72565b62000c3c565b62000b87565b62000b67565b62000a74565b62000a4b565b620009db565b62000739565b62000719565b620006f0565b62000416565b62000311565b620002f1565b6000910312620002ec57565b600080fd5b34620002ec576000366003190112620002ec576020600f54604051908152f35b34620002ec576000366003190112620002ec57602067ffffffffffffffff60075416604051908152f35b634e487b7160e01b600052604160045260246000fd5b67ffffffffffffffff81116200036657604052565b6200033b565b6040810190811067ffffffffffffffff8211176200036657604052565b90601f8019910116810190811067ffffffffffffffff8211176200036657604052565b67ffffffffffffffff81116200036657601f01601f191660200190565b81601f82011215620002ec57803590620003e382620003ac565b92620003f3604051948562000389565b82845260208383010111620002ec57816000926020809301838601378301015290565b34620002ec576060366003190112620002ec5760043567ffffffffffffffff602435818111620002ec5762000450903690600401620003c9565b604435828111620002ec576200046b903690600401620003c9565b6001600160a01b037f0000000000000000000000000000000000000000000000000000000000000000163303620006c6578360ff6017541615600014620006685750815191620004cc602093848301519085811062000656575b50620033b6565b92601b5494680100000000000000008610156200036657620004f6600196878101601b5562000778565b929092620006505785519182116200036657879562000522836200051b8654620007cc565b8662001d42565b81601f8411600114620005b957507f7bab0ec163b5c132c72b8146ac4d6e067e82ed58f8b131150aa71c9258911562969783928392600094620005ad575b50501b916000199060031b1c19161790555b62000583604051928392836200337b565b0390a27f85e1543bf2f84fe80c6badbce3648c8539ad1df4d2b3d822938ca0538be727e6600080a2005b01519250388062000560565b90979291601f19831698620005d386600052602060002090565b926000905b8b821062000635575050837f7bab0ec163b5c132c72b8146ac4d6e067e82ed58f8b131150aa71c9258911562999a106200061b575b505050811b01905562000572565b015160001960f88460031b161c191690553880806200060d565b8284015185558c9a50938601939283019290810190620005d8565b620007b6565b60001990860360031b1b1638620004c5565b92507f7bab0ec163b5c132c72b8146ac4d6e067e82ed58f8b131150aa71c9258911562917fc4d0d097de3f6ecfbef9c1ec31e877a60294301f7ae388cbdf7be8c04ad0219960405180620006bd8482620009c5565b0390a162000572565b60046040517fc6829f83000000000000000000000000000000000000000000000000000000008152fd5b34620002ec576000366003190112620002ec5760206001600160a01b0360095416604051908152f35b34620002ec576000366003190112620002ec576020600454604051908152f35b34620002ec576000366003190112620002ec57602060075463ffffffff6040519160401c168152f35b634e487b7160e01b600052603260045260246000fd5b601b54811015620007b057601b6000527f3ad8aa4f87544323a9d1e5dd902f40c356527a7955687113db5f9a85ad579dc10190600090565b62000762565b634e487b7160e01b600052600060045260246000fd5b90600182811c92168015620007fe575b6020831014620007e857565b634e487b7160e01b600052602260045260246000fd5b91607f1691620007dc565b60405190600082601c54916200081f83620007cc565b80835292600190818116908115620008af57506001146200084c575b506200084a9250038362000389565b565b601c600090815291507f0e4562a10381dec21b205ed72637e6b1b523bdd0e4d4d50af5cd23dd4500a2115b8483106200089357506200084a9350508101602001386200083b565b81935090816020925483858a0101520191019091859262000877565b9050602092506200084a94915060ff191682840152151560051b820101386200083b565b9060405191826000825492620008e984620007cc565b9081845260019485811690816000146200095e575060011462000917575b50506200084a9250038362000389565b9093915060005260209081600020936000915b818310620009455750506200084a9350820101388062000907565b855488840185015294850194879450918301916200092a565b9150506200084a94506020925060ff191682840152151560051b820101388062000907565b919082519283825260005b848110620009b0575050826000602080949584010152601f8019910116010190565b6020818301810151848301820152016200098e565b906020620009d892818152019062000983565b90565b34620002ec576020366003190112620002ec57600435601b54811015620002ec5762000a3262000a4791601b6000527f3ad8aa4f87544323a9d1e5dd902f40c356527a7955687113db5f9a85ad579dc101620008d3565b60405191829160208352602083019062000983565b0390f35b34620002ec576000366003190112620002ec5760206001600160a01b03600b5416604051908152f35b34620002ec5760008060031936011262000b64576040519080600d5462000a9b81620007cc565b8085529160019180831690811562000b37575060011462000ad7575b62000a478562000aca8187038262000389565b60405191829182620009c5565b9250600d83527fd7b6990105719101dabeb77144f2a3385c8033acd3af97e9423a695e81ad1eb55b82841062000b1e57505050810160200162000aca8262000a4762000ab7565b8054602085870181019190915290930192810162000aff565b86955062000a479693506020925062000aca94915060ff191682840152151560051b820101929362000ab7565b80fd5b34620002ec576000366003190112620002ec576020601154604051908152f35b34620002ec5760008060031936011262000b6457604051908060135462000bae81620007cc565b8085529160019180831690811562000b37575060011462000bdc5762000a478562000aca8187038262000389565b9250601383527f66de8ffda797e3de9c05e8fc57b3bf0ec28a930d40b0d285d93c06501cf6a0905b82841062000c2357505050810160200162000aca8262000a4762000ab7565b8054602085870181019190915290930192810162000c04565b34620002ec57600319602036820112620002ec576004359067ffffffffffffffff8211620002ec57610140908236030112620002ec57602062000ce760009262000cab62000c9f62000c9f6001600160a01b03600b54166001600160a01b031690565b6001600160a01b031690565b906040519485809481937f24380aa800000000000000000000000000000000000000000000000000000000835230906004016004840162001e2d565b03925af1801562000d6c5762000d069160009162000d37575b50600c55565b600c546040519081527f7623383a750b4166574a1b2dff61440ed0dfa3708cbe620c58339cca510d1af990602090a1005b62000d5d915060203d811162000d64575b62000d54818362000389565b81019062001da6565b3862000d00565b503d62000d48565b62001d80565b34620002ec576000366003190112620002ec576020601654604051908152f35b906020600319830112620002ec5760043567ffffffffffffffff92838211620002ec5780602383011215620002ec578160040135938411620002ec5760248483010111620002ec576024019190565b34620002ec5762000df23662000d92565b50506001600160a01b03600090808254168033141580620010d3575b62001075575062000e23600c54151562001fd7565b62000e2d42600f55565b62000e4362000e3e60105462002023565b601055565b601a54601b54101562000fe157602062000e929160075490600e54918560405180968195829463230e93b160e11b845267ffffffffffffffff63ffffffff8260401c169116600485016200223e565b03927f0000000000000000000000000000000000000000000000000000000000000000165af182918162000fbc575b5062000f755750600162000ed462002175565b6308c379a01462000f1d575b62000ee85780f35b7f9c4bfa18304482256875c29fabb1a44a5ecd325f214ea17bab8f31e869faf4c862000f1762000aca62002209565b0390a180f35b62000f2762002194565b8062000f35575b5062000ee0565b90507f2ba61e3733e7ac99181c22307780f651ec8fd92fe661a84dfbe711710b2dc36c62000f6b839260405191829182620009c5565b0390a13862000f2e565b62000f7f81601255565b62000f9562000f9060155462002023565b601555565b7f1131472297a800fee664d1d89cfa8f7676ff07189ecc53f80bbb5f4969099db88280a280f35b62000fd991925060203d811162000d645762000d54818362000389565b903862000ec1565b602062000e929162000ffb600160ff196017541617601755565b62001039620010096200205e565b6200101e6200101762000809565b8262002760565b620010336200102c620020a9565b82620027a2565b62002523565b9060075485600e54936040519687958694859363230e93b160e11b855267ffffffffffffffff63ffffffff8360401c1692166004860162002133565b606491604051917f426fbc7100000000000000000000000000000000000000000000000000000000835233600484015260248301527f0000000000000000000000000000000000000000000000000000000000000000166044820152fd5b50817f00000000000000000000000000000000000000000000000000000000000000001633141562000e0e565b34620002ec576000366003190112620002ec576020601554604051908152f35b34620002ec576000366003190112620002ec576020601854604051908152f35b34620002ec5760008060031936011262000b645760405190806014546200116781620007cc565b8085529160019180831690811562000b375750600114620011955762000a478562000aca8187038262000389565b9250601483527fce6d7b5282bd9a3661ae061feed1dbda4e52ab073b1f9285be6e155d9c38d4ec5b828410620011dc57505050810160200162000aca8262000a4762000ab7565b80546020858701810191909152909301928101620011bd565b34620002ec57602080600319360112620002ec5767ffffffffffffffff600435818111620002ec576200122d903690600401620003c9565b918251918211620003665762001250826200124a600354620007cc565b62001cdc565b80601f83116001146200128f5750819260009262001283575b50508160011b916000199060031b1c191617600355600080f35b01519050388062001269565b90601f19831693620012c360036000527fc2575a0e9e593c00f959f8c92f12db2869c3395a3b0502d05e2516446f71f85b90565b926000905b868210620013025750508360019510620012e8575b505050811b01600355005b015160001960f88460031b161c19169055388080620012dd565b80600185968294968601518155019501930190620012c8565b34620002ec5760008060031936011262000b645760405190806003546200134281620007cc565b8085529160019180831690811562000b375750600114620013705762000a478562000aca8187038262000389565b9250600383527fc2575a0e9e593c00f959f8c92f12db2869c3395a3b0502d05e2516446f71f85b5b828410620013b757505050810160200162000aca8262000a4762000ab7565b8054602085870181019190915290930192810162001398565b34620002ec576000366003190112620002ec5760206001600160a01b03600a5416604051908152f35b34620002ec576200140a3662000d92565b5050600f54420342811162001471576008541060405190815260206040818301528160609182519081604084015260005b8281106200145b5750506000828201840152601f01601f19168101030190f35b608081015186820186015285935081016200143b565b62001fb1565b34620002ec576000366003190112620002ec576020600e54604051908152f35b34620002ec5760008060031936011262000b64576001600160a01b0380600154163303620015375781546001600160a01b03166000805473ffffffffffffffffffffffffffffffffffffffff191633179055906200150d73ffffffffffffffffffffffffffffffffffffffff1960015416600155565b3391167f8be0079c531659141344cd1fd0a4f28419497f9722a3daafe3b4186f6b6457e08380a380f35b606460405162461bcd60e51b815260206004820152601660248201527f4d7573742062652070726f706f736564206f776e6572000000000000000000006044820152fd5b34620002ec576000366003190112620002ec5760206040516001600160a01b037f0000000000000000000000000000000000000000000000000000000000000000168152f35b34620002ec576000366003190112620002ec57602047604051908152f35b600435906bffffffffffffffffffffffff82168203620002ec57565b35906bffffffffffffffffffffffff82168203620002ec57565b34620002ec576020366003190112620002ec5762001632620015df565b6009546001600160a01b03169062001652600a546001600160a01b031690565b91604051926107658085019185831067ffffffffffffffff84111762000366578593620016b0938693620034cc87396001600160a01b039182168152911660208201526bffffffffffffffffffffffff909116604082015260600190565b0360009283f0801562000d6c576200177e91620016f26020926001600160a01b031673ffffffffffffffffffffffffffffffffffffffff19600b541617600b55565b6200170d62000c9f62000c9f6009546001600160a01b031690565b6200172462000c9f600b546001600160a01b031690565b856040518096819582947f095ea7b3000000000000000000000000000000000000000000000000000000008452600484019092916bffffffffffffffffffffffff6020916001600160a01b03604085019616845216910152565b03925af1801562000d6c576200186f575b50620017a762000c9f600b546001600160a01b031690565b803b156200186b576040517f230244080000000000000000000000000000000000000000000000000000000081523060048201529082908290602490829084905af1801562000d6c576200184d575b507f3583c1105fd29a46b4d92ceeaff8be03cba58a11cce44a3b7da77bbc3798edc462000f176200183362000c9f600b546001600160a01b031690565b6040516001600160a01b0390911681529081906020820190565b806200185d620018649262000351565b80620002e0565b38620017f6565b5080fd5b620018949060203d81116200189c575b6200188b818362000389565b81019062001d8c565b50386200178f565b503d6200187f565b34620002ec576000366003190112620002ec5760206001600160a01b0360005416604051908152f35b34620002ec576000366003190112620002ec576020601954604051908152f35b34620002ec576000366003190112620002ec576020601054604051908152f35b34620002ec576000366003190112620002ec576020601254604051908152f35b34620002ec5760008060031936011262000b645760405190806005546200195481620007cc565b8085529160019180831690811562000b375750600114620019825762000a478562000aca8187038262000389565b9250600583527f036b6384b5eca791c62761152d0c79bb0604c104a5fb6f4eb0703f3154bb3db05b828410620019c957505050810160200162000aca8262000a4762000ab7565b80546020858701810191909152909301928101620019aa565b34620002ec576000366003190112620002ec576020600c54604051908152f35b34620002ec576000366003190112620002ec5760206001600160a01b0360025416604051908152f35b34620002ec576000366003190112620002ec5760206001600160a01b0360175460081c16604051908152f35b34620002ec576020366003190112620002ec5760043567ffffffffffffffff8116809103620002ec5767ffffffffffffffff196007541617600755600080f35b34620002ec576000366003190112620002ec576020601a54604051908152f35b600435906001600160a01b0382168203620002ec57565b35906001600160a01b0382168203620002ec57565b34620002ec576020366003190112620002ec5762001b0062001ab7565b6001600160a01b0380600054169182330362001baa57169033821462001b66578173ffffffffffffffffffffffffffffffffffffffff1960015416176001557fed8889f560326eb138920d842192f0eb3dd22b4f139c87a2c57538e05bae1278600080a3005b606460405162461bcd60e51b815260206004820152601760248201527f43616e6e6f74207472616e7366657220746f2073656c660000000000000000006044820152fd5b606460405162461bcd60e51b815260206004820152601660248201527f4f6e6c792063616c6c61626c65206279206f776e6572000000000000000000006044820152fd5b34620002ec576000366003190112620002ec576020600854604051908152f35b34620002ec5760008060031936011262000b6457604051908060065462001c3581620007cc565b8085529160019180831690811562000b37575060011462001c635762000a478562000aca8187038262000389565b9250600683527ff652222313e28459528d920b65115c16c04f3efc82aaedc97be59f3f377c0d3f5b82841062001caa57505050810160200162000aca8262000a4762000ab7565b8054602085870181019190915290930192810162001c8b565b81811062001ccf575050565b6000815560010162001cc3565b90601f821162001cea575050565b6200084a9160036000527fc2575a0e9e593c00f959f8c92f12db2869c3395a3b0502d05e2516446f71f85b906020601f840160051c8301931062001d37575b601f0160051c019062001cc3565b909150819062001d29565b9190601f811162001d5257505050565b6200084a926000526020600020906020601f840160051c8301931062001d3757601f0160051c019062001cc3565b6040513d6000823e3d90fd5b90816020910312620002ec57518015158103620002ec5790565b90816020910312620002ec575190565b9035601e1982360301811215620002ec57016020813591019167ffffffffffffffff8211620002ec578136038313620002ec57565b908060209392818452848401376000828201840152601f01601f1916010190565b359063ffffffff82168203620002ec57565b359060ff82168203620002ec57565b929160206200084a926040865262001fa162001f8b62001e6f62001f838962001e57868062001db6565b93906101409485604085015261018084019162001deb565b9262001f3c62001e9b62001e868a8a018a62001db6565b603f1986890381016060880152979162001deb565b62001ebd62001ead60408b0162001ace565b6001600160a01b03166080860152565b62001edc62001ecf60608b0162001e0c565b63ffffffff1660a0860152565b62001efe62001eee60808b0162001ace565b6001600160a01b031660c0860152565b62001f1a62001f1060a08b0162001e1e565b60ff1660e0860152565b62001f2960c08a018a62001db6565b8583038801610100968701529062001deb565b938c62001f7362001f6962001f5560e08c018c62001db6565b610120999186868403018b87015262001deb565b948a018a62001db6565b9390928286030191015262001deb565b9301620015fb565b6bffffffffffffffffffffffff16610160880152565b9401906001600160a01b03169052565b634e487b7160e01b600052601160045260246000fd5b601f198101919082116200147157565b1562001fdf57565b606460405162461bcd60e51b815260206004820152601560248201527f55706b656570206e6f74207265676973746572656400000000000000000000006044820152fd5b90600182018092116200147157565b90602082018092116200147157565b60300190816030116200147157565b919082018092116200147157565b6040519060e0820182811067ffffffffffffffff8211176200036657604052606060c08360008152600060208201526000604082015282808201528260808201528260a08201520152565b601b549067ffffffffffffffff82116200036657604051916020620020d4818360051b018562000389565b81845280840190601b6000527f3ad8aa4f87544323a9d1e5dd902f40c356527a7955687113db5f9a85ad579dc16000925b84841062002114575050505050565b60018381926200212485620008d3565b81520192019301929062002105565b906200216360809367ffffffffffffffff63ffffffff939897969816845260a0602085015260a084019062000983565b95600160408401521660608201520152565b60009060033d116200218357565b905060046000803e60005160e01c90565b600060443d10620009d857604051600319913d83016004833e815167ffffffffffffffff918282113d602484011117620021f85781840194855193841162002200573d85010160208487010111620021f85750620009d89291016020019062000389565b949350505050565b50949350505050565b3d1562002239573d906200221d82620003ac565b916200222d604051938462000389565b82523d6000602084013e565b606090565b9067ffffffffffffffff909493929416815260209360a0858301526000600354956200226a87620007cc565b908160a08601526001978881169081600014620023055750600114620022a6575b5050604083019590955263ffffffff16606082015260800152565b600360009081529250877fc2575a0e9e593c00f959f8c92f12db2869c3395a3b0502d05e2516446f71f85b5b838510620022ef5750505050820160c0018163ffffffff6200228b565b805487860160c0015293820193899101620022d2565b60ff191660c08781019190915292151560051b8601909201925083915063ffffffff90506200228b565b604051906200233e826200036c565b600c82527f636f64654c6f636174696f6e00000000000000000000000000000000000000006020830152565b634e487b7160e01b600052602160045260246000fd5b600311156200238b57565b6200236a565b60405190620023a0826200036c565b600882527f6c616e67756167650000000000000000000000000000000000000000000000006020830152565b600111156200238b57565b60405190620023e6826200036c565b600682527f736f7572636500000000000000000000000000000000000000000000000000006020830152565b6040519062002421826200036c565b600482527f61726773000000000000000000000000000000000000000000000000000000006020830152565b6000198114620014715760010190565b8051821015620007b05760209160051b010190565b6040519062002481826200036c565b600f82527f736563726574734c6f636174696f6e00000000000000000000000000000000006020830152565b60405190620024bc826200036c565b600782527f73656372657473000000000000000000000000000000000000000000000000006020830152565b60405190620024f7826200036c565b600982527f62797465734172677300000000000000000000000000000000000000000000006020830152565b6200252d620027f6565b90620025436200253c6200232f565b8362002feb565b620025668151620025548162002380565b6200255f8162002380565b83620028a6565b620025746200253c62002391565b6200259360408201516200258881620023cc565b6200255f81620023cc565b620025a16200253c620023d7565b620025b160608201518362002feb565b60a08101805151620026f7575b50608081019081515162002649575b60c0915001805151620025e1575b50515190565b91620025f06200253c620024e8565b620025fb8262003083565b60005b83518051821015620026335790620026276200261f826200262d946200245d565b518562002f1c565b6200244d565b620025fe565b5050915062002642816200311b565b38620025db565b6020810180516200265a8162002380565b620026658162002380565b15620026cd5760c092620026aa620026c7926200268c6200268562002472565b8862002feb565b51620026988162002380565b620026a38162002380565b86620028a6565b620026bf620026b8620024ad565b8662002feb565b518462002f1c565b620025cd565b60046040517fa80d31f7000000000000000000000000000000000000000000000000000000008152fd5b926200270d6200270662002412565b8462002feb565b620027188362003083565b60005b845180518210156200274a5790620026276200273c8262002744946200245d565b518662002feb565b6200271b565b5050925062002759826200311b565b38620025be565b81511562002778576000808252604082015260600152565b60046040517f22ce3edd000000000000000000000000000000000000000000000000000000008152fd5b815115620027b05760a00152565b60046040517ffe936cb7000000000000000000000000000000000000000000000000000000008152fd5b60405190620027e9826200036c565b6000602083606081520152565b60405162002804816200036c565b6200280e620027da565b808252602082016000815262002823620027da565b506101006020830152604051809252600082526101208201918210620002ec576000916040525290565b9062002858620027da565b50601f81168062002889575b5080602083015260405190818352600082528101602001908110620002ec5760405290565b602003602081116200147157810180911162001471573862002864565b90815191620028b4620027da565b5082515160018101908181116200147157602085015181101562002915575b60c260206200084a96519283010153805182116200290c575b50506040519160208301526020825262002906826200036c565b62002f1c565b523880620028ec565b8160011b948286046002148315171562001471576020816200294d6200084a986200294560c2955191846200284d565b508262002e4d565b5096505050620028d3565b908160011b91808304600214901517156200147157565b62002979620027da565b50805151600181019081811162001471576020830151811015620029b5575b605b60208451928301015380518211620029b157505090565b5290565b8160011b828104600214831517156200147157620029e390620029db855191866200284d565b508462002e4d565b5062002998565b620029f4620027da565b5080515160018101908181116200147157602083015181101562002a2c575b605a60208451928301015380518211620029b157505090565b8160011b82810460021483151715620014715762002a5290620029db855191866200284d565b5062002a13565b62002a63620027da565b5080515160018101908181116200147157602083015181101562002a9b575b605960208451928301015380518211620029b157505090565b8160011b82810460021483151715620014715762002ac190620029db855191866200284d565b5062002a82565b62002ad2620027da565b5080515160018101908181116200147157602083015181101562002b0a575b605860208451928301015380518211620029b157505090565b8160011b82810460021483151715620014715762002b3090620029db855191866200284d565b5062002af1565b62002b41620027da565b5080515160018101908181116200147157602083015181101562002b79575b607b60208451928301015380518211620029b157505090565b8160011b82810460021483151715620014715762002b9f90620029db855191866200284d565b5062002b60565b62002bb0620027da565b5080515160018101908181116200147157602083015181101562002be8575b607a60208451928301015380518211620029b157505090565b8160011b82810460021483151715620014715762002c0e90620029db855191866200284d565b5062002bcf565b62002c1f620027da565b5080515160018101908181116200147157602083015181101562002c57575b607960208451928301015380518211620029b157505090565b8160011b82810460021483151715620014715762002c7d90620029db855191866200284d565b5062002c3e565b62002c8e620027da565b5080515160018101908181116200147157602083015181101562002cc6575b607860208451928301015380518211620029b157505090565b8160011b82810460021483151715620014715762002cec90620029db855191866200284d565b5062002cad565b9062002cfe620027da565b5081515160018101918282116200147157602084015182101562002d34575b60208451928301015380518211620029b157505090565b8260011b83810460021484151715620014715762002d629062002d5a865191876200284d565b508562002e4d565b5062002d1d565b9062002d78825191836200284d565b5062002d83620027da565b5080519062002d91620027da565b5062002da1815183111562002f14565b8251519262002db1838562002050565b91602092828480940151821162002e31575b518381519782010196821162002e28575b505001915b8181101562002dfb5760001991036101000a0190811990511690825116179052565b919262002e1b62002e1462002e22928651815262002032565b9462002032565b9262001fc7565b62002dd9565b52388062002dd4565b62002e4762002e408362002958565b8262002d69565b62002dc3565b9062002e58620027da565b50805162002e65620027da565b5062002e75825182111562002f14565b8251519162002e85828462002050565b602091829182870151811162002ef8575b86518381519782010196821162002eef575b505001915b8181101562002ed05760001991036101000a019081199051169082511617905290565b919262002e1b62002e1462002ee9928651815262002032565b62002ead565b52388062002ea8565b62002f0e62002f078262002958565b8862002d69565b62002e96565b15620002ec57565b815162002f5992919067ffffffffffffffff8116906017821162002f5c5762002f509150604060ff84519216179062002cf3565b505b5162002e4d565b50565b5060ff811162002f875762002f809062002f77835162002ac8565b5082516200330c565b5062002f52565b61ffff811162002fab5762002f809062002fa2835162002a59565b5082516200329c565b63ffffffff811162002fd15762002f809062002fc88351620029ea565b5082516200322a565b62002f809062002fe283516200296f565b508251620031b4565b815162002f5992919067ffffffffffffffff811690601782116200301f5762002f509150606060ff84519216179062002cf3565b5060ff81116200303a5762002f809062002f77835162002c84565b61ffff8111620030555762002f809062002fa2835162002c15565b63ffffffff8111620030725762002f809062002fc8835162002ba6565b62002f809062002fe2835162002b37565b80519062003090620027da565b50815151600181019081811162001471576020840151811015620030e3575b609f6020809551928301015380518211620030da575b50500180519060018201809211620014715752565b523880620030c5565b8160011b9382850460021483151715620014715760208162003110829762002945609f955191846200284d565b5095505050620030af565b80519062003128620027da565b508151516001810190818111620014715760208401518110156200317c575b60ff602080955192830101538051821162003173575b5050018051600019810191908211620014715752565b5238806200315d565b8160011b93828504600214831517156200147157602081620031a982976200294560ff955191846200284d565b509550505062003147565b90620031bf620027da565b5081515180600801918260081162001471576020840151831162003205575b60088451928301019067ffffffffffffffff1982511617905280518211620029b157505090565b8260011b83810460021484151715620014715762003224908562002d69565b620031de565b9062003235620027da565b5081515180600401918260041162001471576020840151831162003277575b60048451928301019063ffffffff1982511617905280518211620029b157505090565b8260011b83810460021484151715620014715762003296908562002d69565b62003254565b90620032a7620027da565b50815151806002019182600211620014715760208401518311620032e7575b60028451928301019061ffff1982511617905280518211620029b157505090565b8260011b83810460021484151715620014715762003306908562002d69565b620032c6565b9062003317620027da565b5081515180600101918260011162001471576020840151831162003356575b60018451928301019060ff1982511617905280518211620029b157505090565b8260011b83810460021484151715620014715762003375908562002d69565b62003336565b909162003395620009d89360408452604084019062000983565b91602081840391015262000983565b908151811015620007b0570160200190565b80156200348f57806000908282935b620034785750620033d683620003ac565b92620033e6604051948562000389565b80845281601f19620033f883620003ac565b013660208701375b6200340b5750505090565b600019810190811162001471578091600a916200346e620034646200343c6200343686860662002041565b60ff1690565b60f81b7fff000000000000000000000000000000000000000000000000000000000000001690565b861a9187620033a4565b5304908162003400565b9262003486600a916200244d565b930480620033c5565b506040516200349e816200036c565b600181527f300000000000000000000000000000000000000000000000000000000000000060208201529056fe60c0346100ba57601f61076538819003918201601f19168301916001600160401b038311848410176100bf578084926060946040528339810103126100ba57610047816100d5565b906040610056602083016100d5565b9101516001600160601b03811692908390036100ba5760805260a052600180546001600160601b03191691909117905560405161067b90816100ea82396080518181816077015281816101c701526103a3015260a05181818160be015261036a0152f35b600080fd5b634e487b7160e01b600052604160045260246000fd5b51906001600160a01b03821682036100ba5756fe60806040818152600436101561001457600080fd5b600091823560e01c90816301619d3d1461022d57508063230244081461014a57806324380aa8146100e2578063442b12781461009f57637d253aff1461005957600080fd5b3461009b578160031936011261009b57602090516001600160a01b037f0000000000000000000000000000000000000000000000000000000000000000168152f35b5080fd5b503461009b578160031936011261009b57602090516001600160a01b037f0000000000000000000000000000000000000000000000000000000000000000168152f35b503461009b576003198181360112610142576004359067ffffffffffffffff82116101465761014090823603011261014257602435926001600160a01b038416840361013f575060209261013891600401610313565b9051908152f35b80fd5b8280fd5b8380fd5b503461009b57602036600319011261009b57600435906001600160a01b03918281168091036101465760209060646bffffffffffffffffffffffff600154169186855196879485937f23b872dd000000000000000000000000000000000000000000000000000000008552600485015230602485015260448401527f0000000000000000000000000000000000000000000000000000000000000000165af190811561022457506101f9575080f35b6102199060203d811161021d575b6102118183610270565b8101906102a8565b5080f35b503d610207565b513d84823e3d90fd5b83903461009b578160031936011261009b576020906bffffffffffffffffffffffff600154168152f35b35906001600160a01b038216820361026b57565b600080fd5b90601f8019910116810190811067ffffffffffffffff82111761029257604052565b634e487b7160e01b600052604160045260246000fd5b9081602091031261026b5751801515810361026b5790565b9035601e198236030181121561026b57016020813591019167ffffffffffffffff821161026b57813603831361026b57565b908060209392818452848401376000828201840152601f01601f1916010190565b9190916000926101208201356bffffffffffffffffffffffff8116809103610641576040908151927f095ea7b30000000000000000000000000000000000000000000000000000000084526001600160a01b0391827f0000000000000000000000000000000000000000000000000000000000000000169586600487015281602487015260209586816044818d897f0000000000000000000000000000000000000000000000000000000000000000165af180156106375761061a575b508451967f3f678e1100000000000000000000000000000000000000000000000000000000885286600489015261041d61040a83806102c0565b61014060248c01526101648b01916102f2565b8a61044161042d8a8601866102c0565b6023198d8603810160448f015294916102f2565b948761044e8a8701610257565b1660648c0152606085013563ffffffff81168091036101425760848c01528761047960808701610257565b1660a48c015260a08501359060ff8216809203610142576105018c9687956104f16104e58f9b6104c7908a9860c48a01526104b760c08701876102c0565b90868b84030160e48c01526102f2565b6104d460e08601866102c0565b90858a8403016101048b01526102f2565b926101008101906102c0565b91868403016101248701526102f2565b9061014483015203925af19485156106105787956105dd575b508415610580571685528482528420908154916801000000000000000083101561056c57600183018082558310156105585794839495815220015590565b602486634e487b7160e01b81526032600452fd5b602486634e487b7160e01b81526041600452fd5b6064848451907f08c379a00000000000000000000000000000000000000000000000000000000082526004820152601560248201527f6175746f2d617070726f76652064697361626c656400000000000000000000006044820152fd5b9094508381813d8311610609575b6105f58183610270565b810103126106055751933861051a565b8680fd5b503d6105eb565b83513d89823e3d90fd5b61063090873d891161021d576102118183610270565b50386103d0565b86513d8c823e3d90fd5b8480fdfea2646970667358221220b5d5e549faa0f06e6b4c0d541d8329af501ee63625d5b872cb2297c6dbd1556d64736f6c63430008130033a26469706673582212203dd18cdb0272df163c1e97ab179c233a967bf1dd668de9e8316faf411a858d8564736f6c63430008130033a26469706673582212207fed17a148cef61693c1cfda15282c695c3061a620f748f0d064bb38ddecb37164736f6c63430008130033a26469706673582212202a9afb6d8b4652904127803143163c36d99787c962f510d2f53ded28ab45814364736f6c63430008130033","opcodes":"PUSH1 0xA0 CALLVALUE PUSH2 0x69 JUMPI PUSH1 0x1F PUSH2 0x5638 CODESIZE DUP2 SWAP1 SUB SWAP2 DUP3 ADD PUSH1 0x1F NOT AND DUP4 ADD SWAP2 PUSH1 0x1 PUSH1 0x1 PUSH1 0x40 SHL SUB DUP4 GT DUP5 DUP5 LT OR PUSH2 0x6E JUMPI DUP1 DUP5 SWAP3 PUSH1 0x20 SWAP5 PUSH1 0x40 MSTORE DUP4 CODECOPY DUP2 ADD SUB SLT PUSH2 0x69 JUMPI MLOAD PUSH1 0x1 PUSH1 0x1 PUSH1 0xA0 SHL SUB DUP2 AND DUP2 SUB PUSH2 0x69 JUMPI PUSH1 0x80 MSTORE PUSH1 0x40 MLOAD PUSH2 0x55B3 SWAP1 DUP2 PUSH2 0x85 DUP3 CODECOPY PUSH1 0x80 MLOAD DUP2 PUSH1 0x71 ADD MSTORE RETURN JUMPDEST PUSH1 0x0 DUP1 REVERT JUMPDEST PUSH4 0x4E487B71 PUSH1 0xE0 SHL PUSH1 0x0 MSTORE PUSH1 0x41 PUSH1 0x4 MSTORE PUSH1 0x24 PUSH1 0x0 REVERT INVALID PUSH1 0x80 PUSH1 0x40 DUP2 DUP2 MSTORE PUSH1 0x4 SWAP2 DUP3 CALLDATASIZE LT ISZERO PUSH2 0x16 JUMPI PUSH1 0x0 DUP1 REVERT JUMPDEST PUSH1 0x0 SWAP3 DUP4 CALLDATALOAD PUSH1 0xE0 SHR SWAP2 DUP3 PUSH4 0x29BF701 EQ PUSH2 0x163 JUMPI POP POP DUP1 PUSH4 0x36A786EC EQ PUSH2 0x99 JUMPI PUSH4 0xAF6081DE EQ PUSH2 0x46 JUMPI PUSH1 0x0 DUP1 REVERT JUMPDEST CALLVALUE PUSH2 0x95 JUMPI DUP2 PUSH1 0x3 NOT CALLDATASIZE ADD SLT PUSH2 0x95 JUMPI PUSH1 0x20 SWAP1 MLOAD PUSH20 0xFFFFFFFFFFFFFFFFFFFFFFFFFFFFFFFFFFFFFFFF PUSH32 0x0 AND DUP2 MSTORE RETURN JUMPDEST POP DUP1 REVERT JUMPDEST POP SWAP1 CALLVALUE PUSH2 0x160 JUMPI DUP1 PUSH1 0x3 NOT CALLDATASIZE ADD SLT PUSH2 0x160 JUMPI SWAP1 CALLER DUP3 MSTORE PUSH1 0x20 SWAP2 DUP1 DUP4 MSTORE DUP2 DUP2 KECCAK256 SWAP1 DUP3 MLOAD DUP1 DUP6 DUP5 SLOAD SWAP2 DUP3 DUP2 MSTORE ADD SWAP1 DUP2 SWAP5 DUP5 MSTORE DUP7 DUP5 KECCAK256 SWAP1 DUP5 JUMPDEST DUP2 DUP2 LT PUSH2 0x136 JUMPI POP POP POP DUP2 PUSH2 0xE5 SWAP2 SUB DUP3 PUSH2 0x348 JUMP JUMPDEST DUP4 MLOAD SWAP5 DUP6 SWAP5 DUP2 DUP7 ADD SWAP3 DUP3 DUP8 MSTORE MLOAD DUP1 SWAP4 MSTORE DUP6 ADD SWAP4 SWAP3 JUMPDEST DUP3 DUP2 LT PUSH2 0x109 JUMPI POP POP POP POP SUB SWAP1 RETURN JUMPDEST DUP4 MLOAD PUSH20 0xFFFFFFFFFFFFFFFFFFFFFFFFFFFFFFFFFFFFFFFF AND DUP6 MSTORE DUP7 SWAP6 POP SWAP4 DUP2 ADD SWAP4 SWAP3 DUP2 ADD SWAP3 PUSH1 0x1 ADD PUSH2 0xFA JUMP JUMPDEST DUP3 SLOAD PUSH20 0xFFFFFFFFFFFFFFFFFFFFFFFFFFFFFFFFFFFFFFFF AND DUP5 MSTORE SWAP3 DUP9 ADD SWAP3 PUSH1 0x1 SWAP3 DUP4 ADD SWAP3 ADD PUSH2 0xCF JUMP JUMPDEST DUP1 REVERT JUMPDEST DUP5 SWAP1 DUP5 CALLVALUE PUSH2 0x344 JUMPI PUSH1 0x20 SWAP2 DUP3 PUSH1 0x3 NOT CALLDATASIZE ADD SLT PUSH2 0x340 JUMPI PUSH8 0xFFFFFFFFFFFFFFFF DUP6 CALLDATALOAD DUP2 DUP2 GT PUSH2 0x33C JUMPI CALLDATASIZE PUSH1 0x23 DUP3 ADD SLT ISZERO PUSH2 0x33C JUMPI DUP1 DUP8 ADD CALLDATALOAD DUP3 DUP2 GT PUSH2 0x329 JUMPI PUSH1 0x1F NOT SWAP2 PUSH2 0x1B6 PUSH1 0x1F DUP4 ADD DUP5 AND DUP9 ADD DUP7 PUSH2 0x348 JUMP JUMPDEST DUP2 DUP6 MSTORE CALLDATASIZE PUSH1 0x24 DUP4 DUP4 ADD ADD GT PUSH2 0x325 JUMPI DUP2 DUP9 SWAP3 PUSH1 0x24 DUP10 SWAP4 ADD DUP4 DUP9 ADD CALLDATACOPY DUP6 ADD ADD MSTORE DUP4 MLOAD SWAP3 PUSH2 0x51FD DUP1 DUP6 ADD SWAP4 DUP5 GT DUP6 DUP6 LT OR PUSH2 0x312 JUMPI SWAP1 DUP5 SWAP3 SWAP2 PUSH2 0x381 DUP5 CODECOPY CALLER DUP5 MSTORE DUP6 DUP8 DUP6 ADD MSTORE DUP1 MLOAD SWAP1 DUP2 DUP8 DUP7 ADD MSTORE DUP8 DUP10 JUMPDEST DUP4 DUP2 LT PUSH2 0x2FA JUMPI POP POP POP SWAP1 PUSH1 0x1F DUP3 DUP10 PUSH1 0x60 DUP8 SWAP6 DUP2 SWAP9 ADD ADD MSTORE ADD AND ADD SUB ADD SWAP1 DUP5 CREATE SWAP1 DUP2 ISZERO PUSH2 0x2F1 JUMPI CALLER DUP5 MSTORE DUP4 DUP4 MSTORE DUP1 DUP5 KECCAK256 DUP1 SLOAD SWAP1 PUSH9 0x10000000000000000 DUP3 LT ISZERO PUSH2 0x2DE JUMPI PUSH1 0x1 DUP3 ADD DUP1 DUP3 SSTORE DUP3 LT ISZERO PUSH2 0x2CB JUMPI DUP6 SWAP7 POP SWAP1 PUSH20 0xFFFFFFFFFFFFFFFFFFFFFFFFFFFFFFFFFFFFFFFF SWAP2 PUSH32 0xEA999C661F6C9B8CB04B763224104E50FFEBEB622F731F760A183D91FDF86998 SWAP7 MSTORE DUP5 DUP8 KECCAK256 ADD SWAP3 AND SWAP2 DUP3 PUSH32 0xFFFFFFFFFFFFFFFFFFFFFFFF0000000000000000000000000000000000000000 DUP3 SLOAD AND OR SWAP1 SSTORE MLOAD SWAP1 DUP2 MSTORE LOG1 DUP1 RETURN JUMPDEST PUSH1 0x24 DUP7 PUSH1 0x32 DUP10 PUSH4 0x4E487B71 PUSH1 0xE0 SHL DUP4 MSTORE MSTORE REVERT JUMPDEST PUSH1 0x24 DUP7 PUSH1 0x41 DUP10 PUSH4 0x4E487B71 PUSH1 0xE0 SHL DUP4 MSTORE MSTORE REVERT JUMPDEST MLOAD RETURNDATASIZE DUP5 DUP3 RETURNDATACOPY RETURNDATASIZE SWAP1 REVERT JUMPDEST DUP3 DUP2 ADD DUP3 ADD MLOAD DUP8 DUP3 ADD PUSH1 0x60 ADD MSTORE DUP8 SWAP6 POP DUP10 SWAP2 ADD PUSH2 0x205 JUMP JUMPDEST PUSH1 0x24 DUP9 PUSH1 0x41 DUP12 PUSH4 0x4E487B71 PUSH1 0xE0 SHL DUP4 MSTORE MSTORE REVERT JUMPDEST DUP8 DUP1 REVERT JUMPDEST PUSH1 0x24 DUP8 PUSH1 0x41 DUP11 PUSH4 0x4E487B71 PUSH1 0xE0 SHL DUP4 MSTORE MSTORE REVERT JUMPDEST DUP6 DUP1 REVERT JUMPDEST DUP4 DUP1 REVERT JUMPDEST DUP3 DUP1 REVERT JUMPDEST SWAP1 PUSH1 0x1F DUP1 NOT SWAP2 ADD AND DUP2 ADD SWAP1 DUP2 LT PUSH8 0xFFFFFFFFFFFFFFFF DUP3 GT OR PUSH2 0x36A JUMPI PUSH1 0x40 MSTORE JUMP JUMPDEST PUSH4 0x4E487B71 PUSH1 0xE0 SHL PUSH1 0x0 MSTORE PUSH1 0x41 PUSH1 0x4 MSTORE PUSH1 0x24 PUSH1 0x0 REVERT INVALID PUSH1 0xA0 PUSH1 0x40 MSTORE CALLVALUE PUSH3 0x248 JUMPI PUSH3 0x51FD DUP1 CODESIZE SUB DUP1 PUSH3 0x1D DUP2 PUSH3 0x24D JUMP JUMPDEST SWAP3 DUP4 CODECOPY DUP2 ADD SWAP1 PUSH1 0x40 DUP2 DUP4 SUB SLT PUSH3 0x248 JUMPI DUP1 MLOAD PUSH1 0x1 PUSH1 0x1 PUSH1 0xA0 SHL SUB DUP2 AND DUP2 SUB PUSH3 0x248 JUMPI PUSH1 0x20 DUP3 DUP2 ADD MLOAD PUSH1 0x1 PUSH1 0x1 PUSH1 0x40 SHL SUB SWAP4 SWAP2 SWAP3 SWAP2 DUP5 DUP3 GT PUSH3 0x248 JUMPI ADD SWAP4 PUSH1 0x1F SWAP2 DUP2 DUP4 DUP8 ADD SLT ISZERO PUSH3 0x248 JUMPI DUP6 MLOAD DUP6 DUP2 GT PUSH3 0x21D JUMPI PUSH1 0x1F NOT SWAP7 PUSH3 0x8A DUP3 DUP7 ADD DUP10 AND DUP8 ADD PUSH3 0x24D JUMP JUMPDEST SWAP4 DUP3 DUP6 MSTORE DUP7 DUP4 DUP4 ADD ADD GT PUSH3 0x248 JUMPI DUP6 SWAP1 PUSH1 0x0 JUMPDEST DUP4 DUP2 LT PUSH3 0x233 JUMPI POP POP PUSH1 0x0 SWAP2 DUP5 ADD ADD MSTORE PUSH1 0x80 MSTORE DUP1 MLOAD SWAP4 DUP5 GT PUSH3 0x21D JUMPI PUSH1 0x0 SLOAD SWAP3 PUSH1 0x1 SWAP4 DUP5 DUP2 DUP2 SHR SWAP2 AND DUP1 ISZERO PUSH3 0x212 JUMPI JUMPDEST DUP3 DUP3 LT EQ PUSH3 0x1FC JUMPI DUP4 DUP2 GT PUSH3 0x1B1 JUMPI JUMPDEST POP DUP1 SWAP3 DUP6 GT PUSH1 0x1 EQ PUSH3 0x147 JUMPI POP DUP4 SWAP5 POP SWAP1 DUP4 SWAP3 SWAP2 PUSH1 0x0 SWAP5 PUSH3 0x13B JUMPI JUMPDEST POP POP SHL SWAP2 PUSH1 0x0 NOT SWAP1 PUSH1 0x3 SHL SHR NOT AND OR PUSH1 0x0 SSTORE JUMPDEST PUSH1 0x40 MLOAD PUSH2 0x4F89 SWAP1 DUP2 PUSH3 0x274 DUP3 CODECOPY PUSH1 0x80 MLOAD DUP2 DUP2 DUP2 PUSH2 0x1BF ADD MSTORE DUP2 DUP2 PUSH2 0x412 ADD MSTORE PUSH2 0x903 ADD MSTORE RETURN JUMPDEST ADD MLOAD SWAP3 POP CODESIZE DUP1 PUSH3 0x101 JUMP JUMPDEST SWAP3 SWAP5 DUP5 SWAP1 DUP2 AND PUSH1 0x0 DUP1 MSTORE DUP5 PUSH1 0x0 KECCAK256 SWAP5 PUSH1 0x0 SWAP1 JUMPDEST DUP9 DUP4 DUP4 LT PUSH3 0x196 JUMPI POP POP POP LT PUSH3 0x17C JUMPI JUMPDEST POP POP POP DUP2 SHL ADD PUSH1 0x0 SSTORE PUSH3 0x114 JUMP JUMPDEST ADD MLOAD PUSH1 0x0 NOT PUSH1 0xF8 DUP5 PUSH1 0x3 SHL AND SHR NOT AND SWAP1 SSTORE CODESIZE DUP1 DUP1 PUSH3 0x16D JUMP JUMPDEST DUP6 DUP8 ADD MLOAD DUP9 SSTORE SWAP1 SWAP7 ADD SWAP6 SWAP5 DUP6 ADD SWAP5 DUP8 SWAP4 POP SWAP1 DUP2 ADD SWAP1 PUSH3 0x15A JUMP JUMPDEST PUSH1 0x0 DUP1 MSTORE DUP2 PUSH1 0x0 KECCAK256 DUP5 DUP1 DUP9 ADD PUSH1 0x5 SHR DUP3 ADD SWAP3 DUP5 DUP10 LT PUSH3 0x1F2 JUMPI JUMPDEST ADD PUSH1 0x5 SHR ADD SWAP1 DUP6 SWAP1 JUMPDEST DUP3 DUP2 LT PUSH3 0x1E5 JUMPI POP POP PUSH3 0xE3 JUMP JUMPDEST PUSH1 0x0 DUP2 SSTORE ADD DUP6 SWAP1 PUSH3 0x1D5 JUMP JUMPDEST SWAP3 POP DUP2 SWAP3 PUSH3 0x1CC JUMP JUMPDEST PUSH4 0x4E487B71 PUSH1 0xE0 SHL PUSH1 0x0 MSTORE PUSH1 0x22 PUSH1 0x4 MSTORE PUSH1 0x24 PUSH1 0x0 REVERT JUMPDEST SWAP1 PUSH1 0x7F AND SWAP1 PUSH3 0xD1 JUMP JUMPDEST PUSH4 0x4E487B71 PUSH1 0xE0 SHL PUSH1 0x0 MSTORE PUSH1 0x41 PUSH1 0x4 MSTORE PUSH1 0x24 PUSH1 0x0 REVERT JUMPDEST DUP2 DUP2 ADD DUP4 ADD MLOAD DUP7 DUP3 ADD DUP5 ADD MSTORE DUP8 SWAP3 ADD PUSH3 0x9E JUMP JUMPDEST PUSH1 0x0 DUP1 REVERT JUMPDEST PUSH1 0x40 MLOAD SWAP2 SWAP1 PUSH1 0x1F ADD PUSH1 0x1F NOT AND DUP3 ADD PUSH1 0x1 PUSH1 0x1 PUSH1 0x40 SHL SUB DUP2 GT DUP4 DUP3 LT OR PUSH3 0x21D JUMPI PUSH1 0x40 MSTORE JUMP INVALID PUSH1 0x80 PUSH1 0x40 MSTORE PUSH1 0x4 CALLDATASIZE LT ISZERO PUSH3 0x1D JUMPI JUMPDEST CALLDATASIZE ISZERO PUSH3 0x1B JUMPI PUSH1 0x0 DUP1 REVERT JUMPDEST STOP JUMPDEST PUSH1 0x0 CALLDATALOAD PUSH1 0xE0 SHR DUP1 PUSH4 0x80A57F9 EQ PUSH3 0xB85 JUMPI DUP1 PUSH4 0x17FAB0A0 EQ PUSH3 0xAA4 JUMPI DUP1 PUSH4 0x3A133E2C EQ PUSH3 0x9B5 JUMPI DUP1 PUSH4 0x3CCFD60B EQ PUSH3 0x8E6 JUMPI DUP1 PUSH4 0x3F0F912D EQ PUSH3 0x829 JUMPI DUP1 PUSH4 0x8A699F00 EQ PUSH3 0x7EB JUMPI DUP1 PUSH4 0x8B7AFE2E EQ PUSH3 0x7CD JUMPI DUP1 PUSH4 0x90F6D378 EQ PUSH3 0x6BE JUMPI DUP1 PUSH4 0x9B19251A EQ PUSH3 0x67B JUMPI DUP1 PUSH4 0x9C22A6DD EQ PUSH3 0x436 JUMPI DUP1 PUSH4 0xAF6081DE EQ PUSH3 0x3F0 JUMPI DUP1 PUSH4 0xDFB50E64 EQ PUSH3 0x124 JUMPI PUSH4 0xED23F8C3 SUB PUSH3 0xF JUMPI CALLVALUE PUSH3 0x11F JUMPI PUSH1 0x40 CALLDATASIZE PUSH1 0x3 NOT ADD SLT PUSH3 0x11F JUMPI PUSH3 0xDB PUSH3 0xBC6 JUMP JUMPDEST PUSH1 0x24 CALLDATALOAD SWAP1 PUSH1 0x1 PUSH1 0x1 PUSH1 0xA0 SHL SUB DUP1 SWAP2 AND PUSH1 0x0 MSTORE PUSH1 0x4 PUSH1 0x20 MSTORE PUSH1 0x40 PUSH1 0x0 KECCAK256 DUP1 SLOAD DUP4 LT ISZERO PUSH3 0x11F JUMPI PUSH1 0x20 SWAP3 PUSH3 0x10F SWAP2 PUSH3 0xD41 JUMP JUMPDEST SWAP2 SWAP1 SLOAD PUSH1 0x40 MLOAD SWAP3 PUSH1 0x3 SHL SHR AND DUP2 MSTORE RETURN JUMPDEST PUSH1 0x0 DUP1 REVERT JUMPDEST CALLVALUE PUSH3 0x11F JUMPI PUSH1 0x20 CALLDATASIZE PUSH1 0x3 NOT ADD SLT PUSH3 0x11F JUMPI PUSH8 0xFFFFFFFFFFFFFFFF PUSH1 0x4 CALLDATALOAD GT PUSH3 0x11F JUMPI CALLDATASIZE PUSH1 0x23 PUSH1 0x4 CALLDATALOAD ADD SLT ISZERO PUSH3 0x11F JUMPI PUSH1 0x4 CALLDATALOAD PUSH1 0x4 ADD CALLDATALOAD PUSH8 0xFFFFFFFFFFFFFFFF DUP2 GT PUSH3 0x3DA JUMPI DUP1 PUSH1 0x5 SHL SWAP1 PUSH1 0x40 MLOAD SWAP1 PUSH3 0x186 PUSH1 0x20 DUP5 ADD DUP4 PUSH3 0xBDD JUMP JUMPDEST DUP2 MSTORE PUSH1 0x20 DUP2 ADD PUSH1 0x24 SWAP3 CALLDATASIZE DUP5 DUP3 PUSH1 0x4 CALLDATALOAD ADD ADD GT PUSH3 0x11F JUMPI DUP4 PUSH1 0x4 CALLDATALOAD ADD SWAP2 JUMPDEST DUP5 DUP3 PUSH1 0x4 CALLDATALOAD ADD ADD DUP4 LT PUSH3 0x303 JUMPI POP POP POP PUSH1 0x1 PUSH1 0x1 PUSH1 0xA0 SHL SUB PUSH32 0x0 AND CALLER SUB PUSH3 0x2D9 JUMPI PUSH1 0x0 JUMPDEST DUP2 MLOAD DUP2 LT ISZERO PUSH3 0x1B JUMPI PUSH3 0x240 PUSH1 0x20 PUSH3 0x205 DUP4 DUP6 PUSH3 0xD5A JUMP JUMPDEST MLOAD ADD MLOAD PUSH3 0x230 PUSH1 0x20 PUSH3 0x21A DUP6 DUP8 PUSH3 0xD5A JUMP JUMPDEST MLOAD MLOAD DUP2 PUSH1 0x40 MLOAD SWAP4 DUP3 DUP6 DUP1 SWAP5 MLOAD SWAP4 DUP5 SWAP3 ADD PUSH3 0xC6A JUMP JUMPDEST DUP2 ADD PUSH1 0x2 DUP2 MSTORE SUB ADD SWAP1 KECCAK256 PUSH3 0xD6F JUMP JUMPDEST PUSH3 0x24C DUP2 DUP4 PUSH3 0xD5A JUMP JUMPDEST MLOAD MLOAD PUSH1 0x1 DUP1 SLOAD PUSH9 0x10000000000000000 DUP2 LT ISZERO PUSH3 0x2C4 JUMPI DUP2 PUSH3 0x274 SWAP3 DUP3 ADD SWAP1 SSTORE PUSH3 0xCF3 JUMP JUMPDEST SWAP2 SWAP1 SWAP2 PUSH3 0x2AF JUMPI PUSH3 0x287 SWAP2 PUSH3 0xD6F JUMP JUMPDEST PUSH1 0x0 NOT DUP2 EQ PUSH3 0x29A JUMPI PUSH1 0x1 ADD PUSH3 0x1E9 JUMP JUMPDEST DUP3 PUSH4 0x4E487B71 PUSH1 0xE0 SHL PUSH1 0x0 MSTORE PUSH1 0x11 PUSH1 0x4 MSTORE PUSH1 0x0 REVERT JUMPDEST DUP5 PUSH4 0x4E487B71 PUSH1 0xE0 SHL PUSH1 0x0 MSTORE PUSH1 0x0 PUSH1 0x4 MSTORE PUSH1 0x0 REVERT JUMPDEST DUP6 PUSH4 0x4E487B71 PUSH1 0xE0 SHL PUSH1 0x0 MSTORE PUSH1 0x41 PUSH1 0x4 MSTORE PUSH1 0x0 REVERT JUMPDEST PUSH1 0x4 PUSH1 0x40 MLOAD PUSH32 0x30CD747100000000000000000000000000000000000000000000000000000000 DUP2 MSTORE REVERT JUMPDEST DUP3 CALLDATALOAD PUSH8 0xFFFFFFFFFFFFFFFF DUP2 GT PUSH3 0x11F JUMPI CALLDATASIZE PUSH1 0x43 DUP3 PUSH1 0x4 CALLDATALOAD ADD ADD SLT ISZERO PUSH3 0x11F JUMPI PUSH1 0x40 MLOAD SWAP1 PUSH1 0x40 DUP3 ADD DUP3 DUP2 LT PUSH8 0xFFFFFFFFFFFFFFFF DUP3 GT OR PUSH3 0x3C5 JUMPI PUSH1 0x40 MSTORE PUSH1 0x4 CALLDATALOAD DUP2 ADD PUSH1 0x64 ADD SWAP1 DUP3 CALLDATASIZE DUP4 GT PUSH3 0x11F JUMPI SWAP1 DUP9 SWAP5 SWAP4 SWAP3 SWAP2 DUP6 DUP3 PUSH1 0x4 CALLDATALOAD ADD ADD SWAP1 JUMPDEST DUP4 DUP3 LT PUSH3 0x383 JUMPI POP POP POP SWAP1 DUP3 MSTORE POP PUSH1 0x20 SWAP4 DUP5 ADD SWAP4 ADD SWAP1 POP PUSH3 0x1A4 JUMP JUMPDEST SWAP1 SWAP2 SWAP3 SWAP4 SWAP5 SWAP6 POP PUSH8 0xFFFFFFFFFFFFFFFF DUP3 CALLDATALOAD GT PUSH3 0x11F JUMPI PUSH1 0x20 DUP1 SWAP2 PUSH3 0x3B4 CALLDATASIZE DUP14 DUP7 CALLDATALOAD DUP9 PUSH1 0x4 CALLDATALOAD ADD ADD ADD PUSH3 0xC1D JUMP JUMPDEST DUP2 MSTORE ADD SWAP2 ADD DUP10 SWAP6 SWAP5 SWAP4 SWAP3 SWAP2 PUSH3 0x365 JUMP JUMPDEST DUP8 PUSH4 0x4E487B71 PUSH1 0xE0 SHL PUSH1 0x0 MSTORE PUSH1 0x41 PUSH1 0x4 MSTORE PUSH1 0x0 REVERT JUMPDEST PUSH4 0x4E487B71 PUSH1 0xE0 SHL PUSH1 0x0 MSTORE PUSH1 0x41 PUSH1 0x4 MSTORE PUSH1 0x24 PUSH1 0x0 REVERT JUMPDEST CALLVALUE PUSH3 0x11F JUMPI PUSH1 0x0 CALLDATASIZE PUSH1 0x3 NOT ADD SLT PUSH3 0x11F JUMPI PUSH1 0x20 PUSH1 0x40 MLOAD PUSH1 0x1 PUSH1 0x1 PUSH1 0xA0 SHL SUB PUSH32 0x0 AND DUP2 MSTORE RETURN JUMPDEST CALLVALUE PUSH3 0x11F JUMPI PUSH2 0x1A0 DUP1 PUSH1 0x3 NOT CALLDATASIZE ADD SLT PUSH3 0x11F JUMPI PUSH3 0x455 PUSH3 0xBC6 JUMP JUMPDEST SWAP1 PUSH1 0x24 CALLDATALOAD SWAP2 PUSH1 0x1 PUSH1 0x1 PUSH1 0xA0 SHL SUB SWAP2 DUP3 DUP5 AND DUP1 SWAP5 SUB PUSH3 0x11F JUMPI PUSH1 0x84 CALLDATALOAD SWAP2 PUSH1 0xC4 CALLDATALOAD SWAP1 DUP5 DUP3 AND DUP1 SWAP3 SUB PUSH3 0x11F JUMPI PUSH1 0xE4 CALLDATALOAD SWAP3 DUP6 DUP5 AND DUP1 SWAP5 SUB PUSH3 0x11F JUMPI PUSH2 0x104 CALLDATALOAD SWAP1 DUP7 DUP3 AND DUP1 SWAP3 SUB PUSH3 0x11F JUMPI PUSH2 0x124 CALLDATALOAD DUP8 DUP2 AND DUP1 SWAP2 SUB PUSH3 0x11F JUMPI PUSH2 0x144 CALLDATALOAD PUSH4 0xFFFFFFFF DUP2 AND DUP1 SWAP2 SUB PUSH3 0x11F JUMPI PUSH8 0xFFFFFFFFFFFFFFFF SWAP2 PUSH2 0x184 CALLDATALOAD DUP4 DUP2 GT PUSH3 0x11F JUMPI PUSH3 0x4E8 SWAP1 CALLDATASIZE SWAP1 PUSH1 0x4 ADD PUSH3 0xC1D JUMP JUMPDEST SWAP5 DUP12 PUSH1 0x0 MSTORE PUSH1 0x3 PUSH1 0x20 MSTORE PUSH1 0xFF PUSH1 0x40 PUSH1 0x0 KECCAK256 SLOAD AND ISZERO PUSH3 0x611 JUMPI PUSH1 0x40 MLOAD SWAP9 PUSH2 0x40C4 SWAP9 DUP10 DUP12 ADD SWAP6 DUP7 GT DUP12 DUP8 LT OR PUSH3 0x3DA JUMPI DUP13 PUSH3 0x582 SWAP10 DUP13 SWAP12 PUSH3 0xE90 DUP14 CODECOPY AND DUP7 MSTORE DUP14 PUSH1 0x20 DUP8 ADD MSTORE PUSH1 0x44 CALLDATALOAD PUSH1 0x40 DUP8 ADD MSTORE PUSH1 0x64 CALLDATALOAD PUSH1 0x60 DUP8 ADD MSTORE DUP12 PUSH1 0x80 DUP8 ADD MSTORE PUSH1 0xA4 CALLDATALOAD PUSH1 0xA0 DUP8 ADD MSTORE PUSH1 0xC0 DUP7 ADD MSTORE PUSH1 0xE0 DUP6 ADD MSTORE PUSH2 0x100 DUP5 ADD MSTORE PUSH2 0x120 DUP4 ADD MSTORE PUSH2 0x140 DUP3 ADD MSTORE PUSH2 0x164 CALLDATALOAD PUSH2 0x160 DUP3 ADD MSTORE DUP2 PUSH2 0x180 DUP3 ADD MSTORE ADD SWAP1 PUSH3 0xCCC JUMP JUMPDEST SUB SWAP2 CREATE SWAP2 DUP3 ISZERO PUSH3 0x605 JUMPI PUSH1 0x0 MSTORE PUSH1 0x4 PUSH1 0x20 MSTORE PUSH1 0x40 PUSH1 0x0 KECCAK256 SWAP1 DUP2 SLOAD SWAP3 PUSH9 0x10000000000000000 DUP5 LT ISZERO PUSH3 0x3DA JUMPI DUP2 PUSH3 0x5E6 DUP6 PUSH1 0x20 SWAP6 PUSH1 0x1 PUSH32 0xA155A575082ECF596E5A22A44834BE92670605D1D0832000305888BA02A462D9 SWAP9 ADD DUP2 SSTORE PUSH3 0xD41 JUMP JUMPDEST SWAP4 SWAP1 SWAP3 AND SWAP3 DUP3 SLOAD SWAP1 PUSH1 0x3 SHL SWAP2 DUP5 DUP4 SHL SWAP3 SHL NOT AND OR SWAP1 SSTORE PUSH1 0x40 MLOAD SWAP1 DUP2 MSTORE LOG1 STOP JUMPDEST PUSH1 0x40 MLOAD RETURNDATASIZE PUSH1 0x0 DUP3 RETURNDATACOPY RETURNDATASIZE SWAP1 REVERT JUMPDEST PUSH1 0x84 PUSH1 0x40 MLOAD PUSH3 0x461BCD PUSH1 0xE5 SHL DUP2 MSTORE PUSH1 0x20 PUSH1 0x4 DUP3 ADD MSTORE PUSH1 0x21 PUSH1 0x24 DUP3 ADD MSTORE PUSH32 0x456E64657265636F206E616F2065737461206E61206C69737461206272616E63 PUSH1 0x44 DUP3 ADD MSTORE PUSH32 0x6100000000000000000000000000000000000000000000000000000000000000 PUSH1 0x64 DUP3 ADD MSTORE REVERT JUMPDEST CALLVALUE PUSH3 0x11F JUMPI PUSH1 0x20 CALLDATASIZE PUSH1 0x3 NOT ADD SLT PUSH3 0x11F JUMPI PUSH1 0x1 PUSH1 0x1 PUSH1 0xA0 SHL SUB PUSH3 0x6A0 PUSH3 0xBC6 JUMP JUMPDEST AND PUSH1 0x0 MSTORE PUSH1 0x3 PUSH1 0x20 MSTORE PUSH1 0x20 PUSH1 0xFF PUSH1 0x40 PUSH1 0x0 KECCAK256 SLOAD AND PUSH1 0x40 MLOAD SWAP1 ISZERO ISZERO DUP2 MSTORE RETURN JUMPDEST CALLVALUE PUSH3 0x11F JUMPI PUSH1 0x20 DUP1 PUSH1 0x3 NOT CALLDATASIZE ADD SLT PUSH3 0x11F JUMPI PUSH1 0x4 CALLDATALOAD SWAP1 PUSH1 0x1 SWAP2 DUP3 SLOAD DUP2 LT ISZERO PUSH3 0x11F JUMPI PUSH3 0x6EE SWAP1 PUSH3 0xCF3 JUMP JUMPDEST PUSH3 0x7B7 JUMPI PUSH1 0x40 MLOAD DUP1 SWAP4 PUSH1 0x0 SWAP1 DUP4 SLOAD SWAP4 PUSH3 0x709 DUP6 PUSH3 0xC8F JUMP JUMPDEST SWAP5 DUP6 DUP6 MSTORE DUP7 DUP4 DUP3 AND SWAP2 DUP3 PUSH1 0x0 EQ PUSH3 0x793 JUMPI POP POP PUSH1 0x1 EQ PUSH3 0x750 JUMPI JUMPDEST POP POP PUSH3 0x736 SWAP3 POP SUB DUP4 PUSH3 0xBDD JUMP JUMPDEST PUSH3 0x74C PUSH1 0x40 MLOAD SWAP3 DUP3 DUP5 SWAP4 DUP5 MSTORE DUP4 ADD SWAP1 PUSH3 0xCCC JUMP JUMPDEST SUB SWAP1 RETURN JUMPDEST DUP6 SWAP3 POP PUSH1 0x0 MSTORE DUP2 PUSH1 0x0 KECCAK256 SWAP1 PUSH1 0x0 SWAP2 JUMPDEST DUP6 DUP4 LT PUSH3 0x77A JUMPI POP POP PUSH3 0x736 SWAP4 POP DUP3 ADD ADD DUP6 DUP1 PUSH3 0x726 JUMP JUMPDEST DUP1 SLOAD DUP4 DUP10 ADD DUP6 ADD MSTORE DUP8 SWAP5 POP DUP7 SWAP4 SWAP1 SWAP3 ADD SWAP2 DUP2 ADD PUSH3 0x75F JUMP JUMPDEST SWAP3 POP SWAP4 POP POP PUSH3 0x736 SWAP5 SWAP2 POP PUSH1 0xFF NOT AND DUP3 DUP5 ADD MSTORE ISZERO ISZERO PUSH1 0x5 SHL DUP3 ADD ADD DUP6 DUP1 PUSH3 0x726 JUMP JUMPDEST PUSH4 0x4E487B71 PUSH1 0xE0 SHL PUSH1 0x0 MSTORE PUSH1 0x0 PUSH1 0x4 MSTORE PUSH1 0x24 PUSH1 0x0 REVERT JUMPDEST CALLVALUE PUSH3 0x11F JUMPI PUSH1 0x0 CALLDATASIZE PUSH1 0x3 NOT ADD SLT PUSH3 0x11F JUMPI PUSH1 0x20 SELFBALANCE PUSH1 0x40 MLOAD SWAP1 DUP2 MSTORE RETURN JUMPDEST CALLVALUE PUSH3 0x11F JUMPI PUSH1 0x20 CALLDATASIZE PUSH1 0x3 NOT ADD SLT PUSH3 0x11F JUMPI PUSH1 0x1 PUSH1 0x1 PUSH1 0xA0 SHL SUB PUSH3 0x810 PUSH3 0xBC6 JUMP JUMPDEST AND PUSH1 0x0 SWAP1 DUP2 MSTORE PUSH1 0x3 PUSH1 0x20 MSTORE PUSH1 0x40 SWAP1 KECCAK256 DUP1 SLOAD PUSH1 0xFF NOT AND SWAP1 SSTORE STOP JUMPDEST CALLVALUE PUSH3 0x11F JUMPI PUSH1 0x20 DUP1 PUSH1 0x3 NOT CALLDATASIZE ADD SLT PUSH3 0x11F JUMPI PUSH1 0x1 PUSH1 0x1 PUSH1 0xA0 SHL SUB SWAP1 DUP2 PUSH3 0x851 PUSH3 0xBC6 JUMP JUMPDEST AND PUSH1 0x0 MSTORE PUSH1 0x4 DUP2 MSTORE PUSH1 0x40 PUSH1 0x0 KECCAK256 PUSH1 0x40 MLOAD SWAP2 DUP3 DUP2 DUP4 SLOAD SWAP2 DUP3 DUP2 MSTORE ADD SWAP1 DUP2 SWAP4 PUSH1 0x0 MSTORE DUP3 PUSH1 0x0 KECCAK256 SWAP1 PUSH1 0x0 JUMPDEST DUP2 DUP2 LT PUSH3 0x8CF JUMPI POP POP POP DUP4 PUSH3 0x892 SWAP2 SUB DUP5 PUSH3 0xBDD JUMP JUMPDEST PUSH1 0x40 MLOAD SWAP3 DUP2 DUP5 ADD SWAP1 DUP3 DUP6 MSTORE MLOAD DUP1 SWAP2 MSTORE PUSH1 0x40 DUP5 ADD SWAP3 SWAP2 PUSH1 0x0 JUMPDEST DUP3 DUP2 LT PUSH3 0x8B8 JUMPI DUP6 DUP6 SUB DUP7 RETURN JUMPDEST DUP4 MLOAD DUP8 AND DUP6 MSTORE SWAP4 DUP2 ADD SWAP4 SWAP3 DUP2 ADD SWAP3 PUSH1 0x1 ADD PUSH3 0x8AA JUMP JUMPDEST DUP3 SLOAD DUP9 AND DUP5 MSTORE SWAP3 DUP5 ADD SWAP3 PUSH1 0x1 SWAP3 DUP4 ADD SWAP3 ADD PUSH3 0x879 JUMP JUMPDEST CALLVALUE PUSH3 0x11F JUMPI PUSH1 0x0 CALLDATASIZE PUSH1 0x3 NOT ADD SLT PUSH3 0x11F JUMPI PUSH1 0x1 PUSH1 0x1 PUSH1 0xA0 SHL SUB PUSH32 0x0 AND DUP1 CALLER SUB PUSH3 0x2D9 JUMPI PUSH1 0x0 DUP1 DUP1 DUP1 SWAP4 SELFBALANCE SWAP1 GAS CALL RETURNDATASIZE ISZERO PUSH3 0x9AF JUMPI RETURNDATASIZE PUSH3 0x948 DUP2 PUSH3 0xC00 JUMP JUMPDEST SWAP1 PUSH3 0x958 PUSH1 0x40 MLOAD SWAP3 DUP4 PUSH3 0xBDD JUMP JUMPDEST DUP2 MSTORE PUSH1 0x0 PUSH1 0x20 RETURNDATASIZE SWAP3 ADD RETURNDATACOPY JUMPDEST ISZERO PUSH3 0x96B JUMPI STOP JUMPDEST PUSH1 0x64 PUSH1 0x40 MLOAD PUSH3 0x461BCD PUSH1 0xE5 SHL DUP2 MSTORE PUSH1 0x20 PUSH1 0x4 DUP3 ADD MSTORE PUSH1 0x10 PUSH1 0x24 DUP3 ADD MSTORE PUSH32 0x5769746864726177206661696C65642E00000000000000000000000000000000 PUSH1 0x44 DUP3 ADD MSTORE REVERT JUMPDEST PUSH3 0x963 JUMP JUMPDEST CALLVALUE PUSH3 0x11F JUMPI PUSH1 0x0 CALLDATASIZE PUSH1 0x3 NOT ADD SLT PUSH3 0x11F JUMPI PUSH1 0x40 MLOAD PUSH1 0x0 DUP1 SLOAD PUSH3 0x9DA DUP2 PUSH3 0xC8F JUMP JUMPDEST DUP1 DUP5 MSTORE SWAP1 PUSH1 0x1 SWAP1 DUP2 DUP2 AND SWAP1 DUP2 ISZERO PUSH3 0xA7B JUMPI POP PUSH1 0x1 EQ PUSH3 0xA1E JUMPI JUMPDEST PUSH3 0x74C DUP5 PUSH3 0xA09 DUP2 DUP7 SUB DUP3 PUSH3 0xBDD JUMP JUMPDEST PUSH1 0x40 MLOAD SWAP2 DUP3 SWAP2 PUSH1 0x20 DUP4 MSTORE PUSH1 0x20 DUP4 ADD SWAP1 PUSH3 0xCCC JUMP JUMPDEST PUSH1 0x0 DUP1 DUP1 MSTORE SWAP3 POP PUSH32 0x290DECD9548B62A8D60345A988386FC84BA6BC95484008F6362F93160EF3E563 JUMPDEST DUP3 DUP5 LT PUSH3 0xA62 JUMPI POP POP POP DUP2 ADD PUSH1 0x20 ADD PUSH3 0xA09 DUP3 PUSH3 0x9F6 JUMP JUMPDEST DUP1 SLOAD PUSH1 0x20 DUP6 DUP8 ADD DUP2 ADD SWAP2 SWAP1 SWAP2 MSTORE SWAP1 SWAP4 ADD SWAP3 DUP2 ADD PUSH3 0xA47 JUMP JUMPDEST PUSH1 0xFF NOT AND PUSH1 0x20 DUP1 DUP8 ADD SWAP2 SWAP1 SWAP2 MSTORE SWAP3 ISZERO ISZERO PUSH1 0x5 SHL DUP6 ADD SWAP1 SWAP3 ADD SWAP3 POP PUSH3 0xA09 SWAP2 POP DUP4 SWAP1 POP PUSH3 0x9F6 JUMP JUMPDEST CALLVALUE PUSH3 0x11F JUMPI PUSH1 0x20 DUP1 PUSH1 0x3 NOT CALLDATASIZE ADD SLT PUSH3 0x11F JUMPI PUSH1 0x4 CALLDATALOAD PUSH8 0xFFFFFFFFFFFFFFFF DUP2 GT PUSH3 0x11F JUMPI DUP2 PUSH3 0xAE0 PUSH3 0xAF4 SWAP3 CALLDATASIZE SWAP1 PUSH1 0x4 ADD PUSH3 0xC1D JUMP JUMPDEST DUP2 PUSH1 0x40 MLOAD SWAP4 DUP3 DUP6 DUP1 SWAP5 MLOAD SWAP4 DUP5 SWAP3 ADD PUSH3 0xC6A JUMP JUMPDEST DUP2 ADD PUSH1 0x2 DUP2 MSTORE SUB ADD SWAP1 KECCAK256 SWAP1 PUSH1 0x40 MLOAD SWAP2 DUP3 PUSH1 0x0 DUP3 SLOAD PUSH3 0xB13 DUP2 PUSH3 0xC8F JUMP JUMPDEST SWAP4 DUP5 DUP5 MSTORE PUSH1 0x1 SWAP2 DUP7 DUP4 DUP3 AND SWAP2 DUP3 PUSH1 0x0 EQ PUSH3 0x793 JUMPI POP POP PUSH1 0x1 EQ PUSH3 0xB42 JUMPI POP POP PUSH3 0x736 SWAP3 POP SUB DUP4 PUSH3 0xBDD JUMP JUMPDEST DUP6 SWAP3 POP PUSH1 0x0 MSTORE DUP2 PUSH1 0x0 KECCAK256 SWAP1 PUSH1 0x0 SWAP2 JUMPDEST DUP6 DUP4 LT PUSH3 0xB6C JUMPI POP POP PUSH3 0x736 SWAP4 POP DUP3 ADD ADD DUP6 DUP1 PUSH3 0x726 JUMP JUMPDEST DUP1 SLOAD DUP4 DUP10 ADD DUP6 ADD MSTORE DUP8 SWAP5 POP DUP7 SWAP4 SWAP1 SWAP3 ADD SWAP2 DUP2 ADD PUSH3 0xB51 JUMP JUMPDEST CALLVALUE PUSH3 0x11F JUMPI PUSH1 0x20 CALLDATASIZE PUSH1 0x3 NOT ADD SLT PUSH3 0x11F JUMPI PUSH1 0x1 PUSH1 0x1 PUSH1 0xA0 SHL SUB PUSH3 0xBAA PUSH3 0xBC6 JUMP JUMPDEST AND PUSH1 0x0 SWAP1 DUP2 MSTORE PUSH1 0x3 PUSH1 0x20 MSTORE PUSH1 0x40 SWAP1 KECCAK256 DUP1 SLOAD PUSH1 0xFF NOT AND PUSH1 0x1 OR SWAP1 SSTORE STOP JUMPDEST PUSH1 0x4 CALLDATALOAD SWAP1 PUSH1 0x1 PUSH1 0x1 PUSH1 0xA0 SHL SUB DUP3 AND DUP3 SUB PUSH3 0x11F JUMPI JUMP JUMPDEST SWAP1 PUSH1 0x1F DUP1 NOT SWAP2 ADD AND DUP2 ADD SWAP1 DUP2 LT PUSH8 0xFFFFFFFFFFFFFFFF DUP3 GT OR PUSH3 0x3DA JUMPI PUSH1 0x40 MSTORE JUMP JUMPDEST PUSH8 0xFFFFFFFFFFFFFFFF DUP2 GT PUSH3 0x3DA JUMPI PUSH1 0x1F ADD PUSH1 0x1F NOT AND PUSH1 0x20 ADD SWAP1 JUMP JUMPDEST DUP2 PUSH1 0x1F DUP3 ADD SLT ISZERO PUSH3 0x11F JUMPI DUP1 CALLDATALOAD SWAP1 PUSH3 0xC37 DUP3 PUSH3 0xC00 JUMP JUMPDEST SWAP3 PUSH3 0xC47 PUSH1 0x40 MLOAD SWAP5 DUP6 PUSH3 0xBDD JUMP JUMPDEST DUP3 DUP5 MSTORE PUSH1 0x20 DUP4 DUP4 ADD ADD GT PUSH3 0x11F JUMPI DUP2 PUSH1 0x0 SWAP3 PUSH1 0x20 DUP1 SWAP4 ADD DUP4 DUP7 ADD CALLDATACOPY DUP4 ADD ADD MSTORE SWAP1 JUMP JUMPDEST PUSH1 0x0 JUMPDEST DUP4 DUP2 LT PUSH3 0xC7E JUMPI POP POP PUSH1 0x0 SWAP2 ADD MSTORE JUMP JUMPDEST DUP2 DUP2 ADD MLOAD DUP4 DUP3 ADD MSTORE PUSH1 0x20 ADD PUSH3 0xC6D JUMP JUMPDEST SWAP1 PUSH1 0x1 DUP3 DUP2 SHR SWAP3 AND DUP1 ISZERO PUSH3 0xCC1 JUMPI JUMPDEST PUSH1 0x20 DUP4 LT EQ PUSH3 0xCAB JUMPI JUMP JUMPDEST PUSH4 0x4E487B71 PUSH1 0xE0 SHL PUSH1 0x0 MSTORE PUSH1 0x22 PUSH1 0x4 MSTORE PUSH1 0x24 PUSH1 0x0 REVERT JUMPDEST SWAP2 PUSH1 0x7F AND SWAP2 PUSH3 0xC9F JUMP JUMPDEST SWAP1 PUSH1 0x20 SWAP2 PUSH3 0xCE7 DUP2 MLOAD DUP1 SWAP3 DUP2 DUP6 MSTORE DUP6 DUP1 DUP7 ADD SWAP2 ADD PUSH3 0xC6A JUMP JUMPDEST PUSH1 0x1F ADD PUSH1 0x1F NOT AND ADD ADD SWAP1 JUMP JUMPDEST PUSH1 0x1 SLOAD DUP2 LT ISZERO PUSH3 0xD2B JUMPI PUSH1 0x1 PUSH1 0x0 MSTORE PUSH32 0xB10E2D527612073B26EECDFD717E6A320CF44B4AFAC2B0732D9FCBE2B7FA0CF6 ADD SWAP1 PUSH1 0x0 SWAP1 JUMP JUMPDEST PUSH4 0x4E487B71 PUSH1 0xE0 SHL PUSH1 0x0 MSTORE PUSH1 0x32 PUSH1 0x4 MSTORE PUSH1 0x24 PUSH1 0x0 REVERT JUMPDEST DUP1 SLOAD DUP3 LT ISZERO PUSH3 0xD2B JUMPI PUSH1 0x0 MSTORE PUSH1 0x20 PUSH1 0x0 KECCAK256 ADD SWAP1 PUSH1 0x0 SWAP1 JUMP JUMPDEST DUP1 MLOAD DUP3 LT ISZERO PUSH3 0xD2B JUMPI PUSH1 0x20 SWAP2 PUSH1 0x5 SHL ADD ADD SWAP1 JUMP JUMPDEST SWAP2 SWAP1 SWAP2 DUP3 MLOAD PUSH8 0xFFFFFFFFFFFFFFFF DUP2 GT PUSH3 0x3DA JUMPI PUSH3 0xD90 DUP3 SLOAD PUSH3 0xC8F JUMP JUMPDEST PUSH1 0x1F DUP2 GT PUSH3 0xE42 JUMPI JUMPDEST POP PUSH1 0x20 DUP1 PUSH1 0x1F DUP4 GT PUSH1 0x1 EQ PUSH3 0xDDA JUMPI POP DUP2 SWAP3 SWAP4 SWAP5 PUSH1 0x0 SWAP3 PUSH3 0xDCE JUMPI JUMPDEST POP POP DUP2 PUSH1 0x1 SHL SWAP2 PUSH1 0x0 NOT SWAP1 PUSH1 0x3 SHL SHR NOT AND OR SWAP1 SSTORE JUMP JUMPDEST ADD MLOAD SWAP1 POP CODESIZE DUP1 PUSH3 0xDB8 JUMP JUMPDEST SWAP1 PUSH1 0x1F NOT DUP4 AND SWAP6 DUP5 PUSH1 0x0 MSTORE DUP3 PUSH1 0x0 KECCAK256 SWAP3 PUSH1 0x0 SWAP1 JUMPDEST DUP9 DUP3 LT PUSH3 0xE29 JUMPI POP POP DUP4 PUSH1 0x1 SWAP6 SWAP7 SWAP8 LT PUSH3 0xE0F JUMPI JUMPDEST POP POP POP DUP2 SHL ADD SWAP1 SSTORE JUMP JUMPDEST ADD MLOAD PUSH1 0x0 NOT PUSH1 0xF8 DUP5 PUSH1 0x3 SHL AND SHR NOT AND SWAP1 SSTORE CODESIZE DUP1 DUP1 PUSH3 0xE05 JUMP JUMPDEST DUP1 PUSH1 0x1 DUP6 SWAP7 DUP3 SWAP5 SWAP7 DUP7 ADD MLOAD DUP2 SSTORE ADD SWAP6 ADD SWAP4 ADD SWAP1 PUSH3 0xDEE JUMP JUMPDEST PUSH1 0x0 DUP4 DUP2 MSTORE PUSH1 0x20 DUP2 KECCAK256 PUSH1 0x1F DUP5 ADD PUSH1 0x5 SHR DUP2 ADD SWAP3 PUSH1 0x20 DUP6 LT PUSH3 0xE84 JUMPI JUMPDEST PUSH1 0x1F ADD PUSH1 0x5 SHR ADD SWAP2 JUMPDEST DUP3 DUP2 LT PUSH3 0xE78 JUMPI POP POP PUSH3 0xD9A JUMP JUMPDEST DUP2 DUP2 SSTORE PUSH1 0x1 ADD PUSH3 0xE68 JUMP JUMPDEST SWAP1 SWAP3 POP DUP3 SWAP1 PUSH3 0xE5F JUMP INVALID PUSH2 0x120 PUSH1 0x40 MSTORE PUSH3 0x40C4 DUP1 CODESIZE SUB SWAP1 DUP2 PUSH3 0x19 DUP2 PUSH3 0x422 JUMP JUMPDEST SWAP2 DUP3 CODECOPY PUSH2 0x1A0 DUP2 DUP4 DUP2 ADD SUB SLT PUSH3 0x41D JUMPI PUSH3 0x35 DUP2 PUSH3 0x448 JUMP JUMPDEST SWAP1 PUSH3 0x44 PUSH1 0x20 DUP3 ADD PUSH3 0x448 JUMP JUMPDEST PUSH1 0x40 DUP3 ADD MLOAD SWAP3 PUSH1 0x60 DUP4 ADD MLOAD SWAP2 PUSH1 0x80 DUP5 ADD MLOAD SWAP5 PUSH1 0xA0 DUP6 ADD MLOAD SWAP2 PUSH3 0x6A PUSH1 0xC0 DUP8 ADD PUSH3 0x448 JUMP JUMPDEST SWAP7 PUSH3 0x79 PUSH1 0xE0 DUP9 ADD PUSH3 0x448 JUMP JUMPDEST SWAP2 PUSH3 0x89 PUSH2 0x100 DUP10 ADD PUSH3 0x448 JUMP JUMPDEST SWAP3 PUSH3 0x99 PUSH2 0x120 DUP11 ADD PUSH3 0x448 JUMP JUMPDEST SWAP6 PUSH2 0x140 DUP11 ADD MLOAD SWAP4 PUSH4 0xFFFFFFFF DUP6 AND DUP6 SUB PUSH3 0x41D JUMPI PUSH2 0x160 DUP12 ADD MLOAD PUSH1 0xC0 MSTORE PUSH2 0x180 DUP12 ADD MLOAD SWAP13 PUSH1 0x1 PUSH1 0x1 PUSH1 0x40 SHL SUB DUP15 GT PUSH3 0x41D JUMPI DUP1 DUP13 ADD DUP15 DUP14 ADD PUSH1 0x1F ADD SLT ISZERO PUSH3 0x41D JUMPI DUP12 DUP15 ADD MLOAD PUSH1 0xE0 DUP2 SWAP1 MSTORE SWAP1 PUSH1 0x1 PUSH1 0x1 PUSH1 0x40 SHL SUB DUP3 GT PUSH3 0x3C2 JUMPI DUP15 SWAP2 PUSH1 0x20 SWAP2 DUP15 SWAP2 PUSH3 0x112 SWAP1 PUSH1 0x1F ADD PUSH1 0x1F NOT AND DUP5 ADD PUSH3 0x422 JUMP JUMPDEST DUP1 PUSH2 0x100 MSTORE PUSH1 0xE0 MLOAD SWAP1 MSTORE DUP2 ADD SWAP3 PUSH1 0xE0 MLOAD SWAP2 ADD ADD ADD GT PUSH3 0x41D JUMPI PUSH1 0x0 JUMPDEST PUSH1 0xE0 MLOAD DUP2 LT ISZERO PUSH3 0x154 JUMPI PUSH1 0x20 DUP15 DUP14 ADD DUP3 ADD DUP2 ADD MLOAD PUSH2 0x100 MLOAD DUP4 ADD DUP3 ADD MSTORE ADD PUSH3 0x12F JUMP JUMPDEST POP PUSH1 0xE0 MLOAD PUSH2 0x100 MLOAD PUSH1 0x0 SWAP2 ADD PUSH1 0x20 ADD MSTORE PUSH1 0x1 PUSH1 0x1 PUSH1 0xA0 SHL SUB DUP1 DUP14 AND PUSH1 0x80 MSTORE SWAP9 DUP10 AND SWAP10 DUP11 ISZERO PUSH3 0x3D8 JUMPI DUP10 SWAP8 DUP9 SWAP6 DUP13 PUSH1 0x1 DUP1 PUSH1 0xA0 SHL SUB NOT SWAP14 DUP15 PUSH1 0x0 SLOAD AND OR PUSH1 0x0 SSTORE DUP14 PUSH1 0x2 SLOAD AND OR PUSH1 0x2 SSTORE PUSH1 0x17 SLOAD SWAP1 PUSH2 0x100 PUSH1 0x1 PUSH1 0xA8 SHL SUB SWAP1 PUSH1 0x8 SHL AND SWAP1 PUSH2 0x100 PUSH1 0x1 PUSH1 0xA8 SHL SUB NOT AND OR PUSH1 0x17 SSTORE PUSH1 0x19 SSTORE PUSH1 0x1A SSTORE PUSH1 0x18 SSTORE PUSH1 0x8 SSTORE AND PUSH1 0xA0 MSTORE PUSH12 0xFFFFFFFF0000000000000000 PUSH1 0x7 SLOAD SWAP2 PUSH1 0x40 SHL AND SWAP1 PUSH12 0xFFFFFFFF0000000000000000 NOT AND OR PUSH1 0x7 SSTORE AND DUP4 PUSH1 0x9 SLOAD AND OR PUSH1 0x9 SSTORE AND SWAP1 PUSH1 0xA SLOAD AND OR PUSH1 0xA SSTORE TIMESTAMP PUSH1 0xF SSTORE PUSH1 0xC0 MLOAD PUSH1 0xE SSTORE PUSH2 0x100 MLOAD DUP1 MLOAD PUSH1 0x1 DUP1 PUSH1 0x40 SHL SUB DUP2 GT PUSH3 0x3C2 JUMPI PUSH1 0x1C SLOAD SWAP2 PUSH1 0x1 SWAP3 DUP4 DUP2 DUP2 SHR SWAP2 AND DUP1 ISZERO PUSH3 0x3B7 JUMPI JUMPDEST PUSH1 0x20 DUP3 LT EQ PUSH3 0x3A1 JUMPI PUSH1 0x1F DUP2 GT PUSH3 0x334 JUMPI JUMPDEST POP PUSH1 0x20 SWAP1 PUSH1 0x1F DUP4 GT PUSH1 0x1 EQ PUSH3 0x2C9 JUMPI POP DUP2 SWAP3 DUP3 SWAP2 PUSH1 0x0 SWAP4 PUSH3 0x2BA JUMPI JUMPDEST POP SHL SWAP2 PUSH1 0x0 NOT SWAP1 PUSH1 0x3 SHL SHR NOT AND OR PUSH1 0x1C SSTORE JUMPDEST PUSH1 0x40 MLOAD PUSH2 0x3C66 SWAP1 DUP2 PUSH3 0x45E DUP3 CODECOPY PUSH1 0x80 MLOAD DUP2 DUP2 DUP2 PUSH2 0x475 ADD MSTORE PUSH2 0xE96 ADD MSTORE PUSH1 0xA0 MLOAD DUP2 DUP2 DUP2 PUSH2 0x10AC ADD MSTORE DUP2 DUP2 PUSH2 0x10D7 ADD MSTORE PUSH2 0x159D ADD MSTORE RETURN JUMPDEST PUSH2 0x100 MLOAD ADD MLOAD SWAP3 POP DUP5 PUSH3 0x271 JUMP JUMPDEST SWAP1 PUSH1 0x1F NOT DUP4 AND SWAP2 PUSH1 0x1C PUSH1 0x0 MSTORE DUP4 PUSH1 0x20 PUSH1 0x0 KECCAK256 SWAP4 PUSH1 0x0 JUMPDEST DUP8 DUP3 DUP3 LT PUSH3 0x31A JUMPI POP POP LT PUSH3 0x300 JUMPI JUMPDEST POP POP POP DUP2 SHL ADD PUSH1 0x1C SSTORE PUSH3 0x283 JUMP JUMPDEST ADD MLOAD PUSH1 0x0 NOT PUSH1 0xF8 DUP5 PUSH1 0x3 SHL AND SHR NOT AND SWAP1 SSTORE DUP3 DUP1 DUP1 PUSH3 0x2F1 JUMP JUMPDEST DUP5 DUP7 ADD MLOAD DUP8 SSTORE SWAP1 SWAP6 ADD SWAP5 PUSH1 0x20 SWAP5 DUP6 ADD SWAP5 DUP8 SWAP4 POP ADD PUSH3 0x2DF JUMP JUMPDEST PUSH1 0x1C PUSH1 0x0 MSTORE PUSH32 0xE4562A10381DEC21B205ED72637E6B1B523BDD0E4D4D50AF5CD23DD4500A211 PUSH1 0x1F DUP5 ADD PUSH1 0x5 SHR DUP2 ADD SWAP2 PUSH1 0x20 DUP6 LT PUSH3 0x396 JUMPI JUMPDEST PUSH1 0x1F ADD PUSH1 0x5 SHR ADD SWAP1 DUP5 SWAP1 JUMPDEST DUP3 DUP2 LT PUSH3 0x389 JUMPI POP POP PUSH3 0x253 JUMP JUMPDEST PUSH1 0x0 DUP2 SSTORE ADD DUP5 SWAP1 PUSH3 0x379 JUMP JUMPDEST SWAP1 SWAP2 POP DUP2 SWAP1 PUSH3 0x36E JUMP JUMPDEST PUSH4 0x4E487B71 PUSH1 0xE0 SHL PUSH1 0x0 MSTORE PUSH1 0x22 PUSH1 0x4 MSTORE PUSH1 0x24 PUSH1 0x0 REVERT JUMPDEST SWAP1 PUSH1 0x7F AND SWAP1 PUSH3 0x23F JUMP JUMPDEST PUSH4 0x4E487B71 PUSH1 0xE0 SHL PUSH1 0x0 MSTORE PUSH1 0x41 PUSH1 0x4 MSTORE PUSH1 0x24 PUSH1 0x0 REVERT JUMPDEST PUSH1 0x40 MLOAD PUSH3 0x461BCD PUSH1 0xE5 SHL DUP2 MSTORE PUSH1 0x20 PUSH1 0x4 DUP3 ADD MSTORE PUSH1 0x18 PUSH1 0x24 DUP3 ADD MSTORE PUSH32 0x43616E6E6F7420736574206F776E657220746F207A65726F0000000000000000 PUSH1 0x44 DUP3 ADD MSTORE PUSH1 0x64 SWAP1 REVERT JUMPDEST PUSH1 0x0 DUP1 REVERT JUMPDEST PUSH1 0x40 MLOAD SWAP2 SWAP1 PUSH1 0x1F ADD PUSH1 0x1F NOT AND DUP3 ADD PUSH1 0x1 PUSH1 0x1 PUSH1 0x40 SHL SUB DUP2 GT DUP4 DUP3 LT OR PUSH3 0x3C2 JUMPI PUSH1 0x40 MSTORE JUMP JUMPDEST MLOAD SWAP1 PUSH1 0x1 PUSH1 0x1 PUSH1 0xA0 SHL SUB DUP3 AND DUP3 SUB PUSH3 0x41D JUMPI JUMP INVALID PUSH1 0x80 PUSH1 0x40 MSTORE PUSH1 0x4 CALLDATASIZE LT ISZERO PUSH3 0x1D JUMPI JUMPDEST CALLDATASIZE ISZERO PUSH3 0x1B JUMPI PUSH1 0x0 DUP1 REVERT JUMPDEST STOP JUMPDEST PUSH1 0x0 CALLDATALOAD PUSH1 0xE0 SHR DUP1 PUSH4 0x89EA02E EQ PUSH3 0x2DA JUMPI DUP1 PUSH4 0x9C1BA2E EQ PUSH3 0x2D4 JUMPI DUP1 PUSH4 0xCA76175 EQ PUSH3 0x2CE JUMPI DUP1 PUSH4 0x1243BCC3 EQ PUSH3 0x2C8 JUMPI DUP1 PUSH4 0x1AA46F59 EQ PUSH3 0x2C2 JUMPI DUP1 PUSH4 0x24B93E3E EQ PUSH3 0x2BC JUMPI DUP1 PUSH4 0x277E2213 EQ PUSH3 0x2B6 JUMPI DUP1 PUSH4 0x2FC2A7B9 EQ PUSH3 0x2B0 JUMPI DUP1 PUSH4 0x338CDCA1 EQ PUSH3 0x2AA JUMPI DUP1 PUSH4 0x381FC4B5 EQ PUSH3 0x2A4 JUMPI DUP1 PUSH4 0x3944EA3A EQ PUSH3 0x29E JUMPI DUP1 PUSH4 0x3F678E11 EQ PUSH3 0x298 JUMPI DUP1 PUSH4 0x43CD3D86 EQ PUSH3 0x292 JUMPI DUP1 PUSH4 0x4585E33B EQ PUSH3 0x28C JUMPI DUP1 PUSH4 0x48802B92 EQ PUSH3 0x286 JUMPI DUP1 PUSH4 0x48BD6F05 EQ PUSH3 0x280 JUMPI DUP1 PUSH4 0x4B0795A8 EQ PUSH3 0x27A JUMPI DUP1 PUSH4 0x62ED9036 EQ PUSH3 0x274 JUMPI DUP1 PUSH4 0x688ECFD1 EQ PUSH3 0x26E JUMPI DUP1 PUSH4 0x6BAA48FE EQ PUSH3 0x268 JUMPI DUP1 PUSH4 0x6E04FF0D EQ PUSH3 0x262 JUMPI DUP1 PUSH4 0x6E74336B EQ PUSH3 0x25C JUMPI DUP1 PUSH4 0x79BA5097 EQ PUSH3 0x256 JUMPI DUP1 PUSH4 0x7B103999 EQ PUSH3 0x250 JUMPI DUP1 PUSH4 0x8B7AFE2E EQ PUSH3 0x24A JUMPI DUP1 PUSH4 0x8D7E6D2D EQ PUSH3 0x244 JUMPI DUP1 PUSH4 0x8DA5CB5B EQ PUSH3 0x23E JUMPI DUP1 PUSH4 0xA3097139 EQ PUSH3 0x238 JUMPI DUP1 PUSH4 0xA3D3C0D2 EQ PUSH3 0x232 JUMPI DUP1 PUSH4 0xB1E21749 EQ PUSH3 0x22C JUMPI DUP1 PUSH4 0xBEF3A2F0 EQ PUSH3 0x226 JUMPI DUP1 PUSH4 0xD2AA789F EQ PUSH3 0x220 JUMPI DUP1 PUSH4 0xD5F39488 EQ PUSH3 0x21A JUMPI DUP1 PUSH4 0xD811FCF0 EQ PUSH3 0x214 JUMPI DUP1 PUSH4 0xEA7B4F77 EQ PUSH3 0x20E JUMPI DUP1 PUSH4 0xEBF14A55 EQ PUSH3 0x208 JUMPI DUP1 PUSH4 0xF2FDE38B EQ PUSH3 0x202 JUMPI DUP1 PUSH4 0xFD2C80AE EQ PUSH3 0x1FC JUMPI PUSH4 0xFFFEB84E SUB PUSH3 0xF JUMPI PUSH3 0x1C0E JUMP JUMPDEST PUSH3 0x1BEE JUMP JUMPDEST PUSH3 0x1AE3 JUMP JUMPDEST PUSH3 0x1A97 JUMP JUMPDEST PUSH3 0x1A57 JUMP JUMPDEST PUSH3 0x1A2B JUMP JUMPDEST PUSH3 0x1A02 JUMP JUMPDEST PUSH3 0x19E2 JUMP JUMPDEST PUSH3 0x192D JUMP JUMPDEST PUSH3 0x190D JUMP JUMPDEST PUSH3 0x18ED JUMP JUMPDEST PUSH3 0x18CD JUMP JUMPDEST PUSH3 0x18A4 JUMP JUMPDEST PUSH3 0x1615 JUMP JUMPDEST PUSH3 0x15C1 JUMP JUMPDEST PUSH3 0x157B JUMP JUMPDEST PUSH3 0x1497 JUMP JUMPDEST PUSH3 0x1477 JUMP JUMPDEST PUSH3 0x13F9 JUMP JUMPDEST PUSH3 0x13D0 JUMP JUMPDEST PUSH3 0x131B JUMP JUMPDEST PUSH3 0x11F5 JUMP JUMPDEST PUSH3 0x1140 JUMP JUMPDEST PUSH3 0x1120 JUMP JUMPDEST PUSH3 0x1100 JUMP JUMPDEST PUSH3 0xDE1 JUMP JUMPDEST PUSH3 0xD72 JUMP JUMPDEST PUSH3 0xC3C JUMP JUMPDEST PUSH3 0xB87 JUMP JUMPDEST PUSH3 0xB67 JUMP JUMPDEST PUSH3 0xA74 JUMP JUMPDEST PUSH3 0xA4B JUMP JUMPDEST PUSH3 0x9DB JUMP JUMPDEST PUSH3 0x739 JUMP JUMPDEST PUSH3 0x719 JUMP JUMPDEST PUSH3 0x6F0 JUMP JUMPDEST PUSH3 0x416 JUMP JUMPDEST PUSH3 0x311 JUMP JUMPDEST PUSH3 0x2F1 JUMP JUMPDEST PUSH1 0x0 SWAP2 SUB SLT PUSH3 0x2EC JUMPI JUMP JUMPDEST PUSH1 0x0 DUP1 REVERT JUMPDEST CALLVALUE PUSH3 0x2EC JUMPI PUSH1 0x0 CALLDATASIZE PUSH1 0x3 NOT ADD SLT PUSH3 0x2EC JUMPI PUSH1 0x20 PUSH1 0xF SLOAD PUSH1 0x40 MLOAD SWAP1 DUP2 MSTORE RETURN JUMPDEST CALLVALUE PUSH3 0x2EC JUMPI PUSH1 0x0 CALLDATASIZE PUSH1 0x3 NOT ADD SLT PUSH3 0x2EC JUMPI PUSH1 0x20 PUSH8 0xFFFFFFFFFFFFFFFF PUSH1 0x7 SLOAD AND PUSH1 0x40 MLOAD SWAP1 DUP2 MSTORE RETURN JUMPDEST PUSH4 0x4E487B71 PUSH1 0xE0 SHL PUSH1 0x0 MSTORE PUSH1 0x41 PUSH1 0x4 MSTORE PUSH1 0x24 PUSH1 0x0 REVERT JUMPDEST PUSH8 0xFFFFFFFFFFFFFFFF DUP2 GT PUSH3 0x366 JUMPI PUSH1 0x40 MSTORE JUMP JUMPDEST PUSH3 0x33B JUMP JUMPDEST PUSH1 0x40 DUP2 ADD SWAP1 DUP2 LT PUSH8 0xFFFFFFFFFFFFFFFF DUP3 GT OR PUSH3 0x366 JUMPI PUSH1 0x40 MSTORE JUMP JUMPDEST SWAP1 PUSH1 0x1F DUP1 NOT SWAP2 ADD AND DUP2 ADD SWAP1 DUP2 LT PUSH8 0xFFFFFFFFFFFFFFFF DUP3 GT OR PUSH3 0x366 JUMPI PUSH1 0x40 MSTORE JUMP JUMPDEST PUSH8 0xFFFFFFFFFFFFFFFF DUP2 GT PUSH3 0x366 JUMPI PUSH1 0x1F ADD PUSH1 0x1F NOT AND PUSH1 0x20 ADD SWAP1 JUMP JUMPDEST DUP2 PUSH1 0x1F DUP3 ADD SLT ISZERO PUSH3 0x2EC JUMPI DUP1 CALLDATALOAD SWAP1 PUSH3 0x3E3 DUP3 PUSH3 0x3AC JUMP JUMPDEST SWAP3 PUSH3 0x3F3 PUSH1 0x40 MLOAD SWAP5 DUP6 PUSH3 0x389 JUMP JUMPDEST DUP3 DUP5 MSTORE PUSH1 0x20 DUP4 DUP4 ADD ADD GT PUSH3 0x2EC JUMPI DUP2 PUSH1 0x0 SWAP3 PUSH1 0x20 DUP1 SWAP4 ADD DUP4 DUP7 ADD CALLDATACOPY DUP4 ADD ADD MSTORE SWAP1 JUMP JUMPDEST CALLVALUE PUSH3 0x2EC JUMPI PUSH1 0x60 CALLDATASIZE PUSH1 0x3 NOT ADD SLT PUSH3 0x2EC JUMPI PUSH1 0x4 CALLDATALOAD PUSH8 0xFFFFFFFFFFFFFFFF PUSH1 0x24 CALLDATALOAD DUP2 DUP2 GT PUSH3 0x2EC JUMPI PUSH3 0x450 SWAP1 CALLDATASIZE SWAP1 PUSH1 0x4 ADD PUSH3 0x3C9 JUMP JUMPDEST PUSH1 0x44 CALLDATALOAD DUP3 DUP2 GT PUSH3 0x2EC JUMPI PUSH3 0x46B SWAP1 CALLDATASIZE SWAP1 PUSH1 0x4 ADD PUSH3 0x3C9 JUMP JUMPDEST PUSH1 0x1 PUSH1 0x1 PUSH1 0xA0 SHL SUB PUSH32 0x0 AND CALLER SUB PUSH3 0x6C6 JUMPI DUP4 PUSH1 0xFF PUSH1 0x17 SLOAD AND ISZERO PUSH1 0x0 EQ PUSH3 0x668 JUMPI POP DUP2 MLOAD SWAP2 PUSH3 0x4CC PUSH1 0x20 SWAP4 DUP5 DUP4 ADD MLOAD SWAP1 DUP6 DUP2 LT PUSH3 0x656 JUMPI JUMPDEST POP PUSH3 0x33B6 JUMP JUMPDEST SWAP3 PUSH1 0x1B SLOAD SWAP5 PUSH9 0x10000000000000000 DUP7 LT ISZERO PUSH3 0x366 JUMPI PUSH3 0x4F6 PUSH1 0x1 SWAP7 DUP8 DUP2 ADD PUSH1 0x1B SSTORE PUSH3 0x778 JUMP JUMPDEST SWAP3 SWAP1 SWAP3 PUSH3 0x650 JUMPI DUP6 MLOAD SWAP2 DUP3 GT PUSH3 0x366 JUMPI DUP8 SWAP6 PUSH3 0x522 DUP4 PUSH3 0x51B DUP7 SLOAD PUSH3 0x7CC JUMP JUMPDEST DUP7 PUSH3 0x1D42 JUMP JUMPDEST DUP2 PUSH1 0x1F DUP5 GT PUSH1 0x1 EQ PUSH3 0x5B9 JUMPI POP PUSH32 0x7BAB0EC163B5C132C72B8146AC4D6E067E82ED58F8B131150AA71C9258911562 SWAP7 SWAP8 DUP4 SWAP3 DUP4 SWAP3 PUSH1 0x0 SWAP5 PUSH3 0x5AD JUMPI JUMPDEST POP POP SHL SWAP2 PUSH1 0x0 NOT SWAP1 PUSH1 0x3 SHL SHR NOT AND OR SWAP1 SSTORE JUMPDEST PUSH3 0x583 PUSH1 0x40 MLOAD SWAP3 DUP4 SWAP3 DUP4 PUSH3 0x337B JUMP JUMPDEST SUB SWAP1 LOG2 PUSH32 0x85E1543BF2F84FE80C6BADBCE3648C8539AD1DF4D2B3D822938CA0538BE727E6 PUSH1 0x0 DUP1 LOG2 STOP JUMPDEST ADD MLOAD SWAP3 POP CODESIZE DUP1 PUSH3 0x560 JUMP JUMPDEST SWAP1 SWAP8 SWAP3 SWAP2 PUSH1 0x1F NOT DUP4 AND SWAP9 PUSH3 0x5D3 DUP7 PUSH1 0x0 MSTORE PUSH1 0x20 PUSH1 0x0 KECCAK256 SWAP1 JUMP JUMPDEST SWAP3 PUSH1 0x0 SWAP1 JUMPDEST DUP12 DUP3 LT PUSH3 0x635 JUMPI POP POP DUP4 PUSH32 0x7BAB0EC163B5C132C72B8146AC4D6E067E82ED58F8B131150AA71C9258911562 SWAP10 SWAP11 LT PUSH3 0x61B JUMPI JUMPDEST POP POP POP DUP2 SHL ADD SWAP1 SSTORE PUSH3 0x572 JUMP JUMPDEST ADD MLOAD PUSH1 0x0 NOT PUSH1 0xF8 DUP5 PUSH1 0x3 SHL AND SHR NOT AND SWAP1 SSTORE CODESIZE DUP1 DUP1 PUSH3 0x60D JUMP JUMPDEST DUP3 DUP5 ADD MLOAD DUP6 SSTORE DUP13 SWAP11 POP SWAP4 DUP7 ADD SWAP4 SWAP3 DUP4 ADD SWAP3 SWAP1 DUP2 ADD SWAP1 PUSH3 0x5D8 JUMP JUMPDEST PUSH3 0x7B6 JUMP JUMPDEST PUSH1 0x0 NOT SWAP1 DUP7 SUB PUSH1 0x3 SHL SHL AND CODESIZE PUSH3 0x4C5 JUMP JUMPDEST SWAP3 POP PUSH32 0x7BAB0EC163B5C132C72B8146AC4D6E067E82ED58F8B131150AA71C9258911562 SWAP2 PUSH32 0xC4D0D097DE3F6ECFBEF9C1EC31E877A60294301F7AE388CBDF7BE8C04AD02199 PUSH1 0x40 MLOAD DUP1 PUSH3 0x6BD DUP5 DUP3 PUSH3 0x9C5 JUMP JUMPDEST SUB SWAP1 LOG1 PUSH3 0x572 JUMP JUMPDEST PUSH1 0x4 PUSH1 0x40 MLOAD PUSH32 0xC6829F8300000000000000000000000000000000000000000000000000000000 DUP2 MSTORE REVERT JUMPDEST CALLVALUE PUSH3 0x2EC JUMPI PUSH1 0x0 CALLDATASIZE PUSH1 0x3 NOT ADD SLT PUSH3 0x2EC JUMPI PUSH1 0x20 PUSH1 0x1 PUSH1 0x1 PUSH1 0xA0 SHL SUB PUSH1 0x9 SLOAD AND PUSH1 0x40 MLOAD SWAP1 DUP2 MSTORE RETURN JUMPDEST CALLVALUE PUSH3 0x2EC JUMPI PUSH1 0x0 CALLDATASIZE PUSH1 0x3 NOT ADD SLT PUSH3 0x2EC JUMPI PUSH1 0x20 PUSH1 0x4 SLOAD PUSH1 0x40 MLOAD SWAP1 DUP2 MSTORE RETURN JUMPDEST CALLVALUE PUSH3 0x2EC JUMPI PUSH1 0x0 CALLDATASIZE PUSH1 0x3 NOT ADD SLT PUSH3 0x2EC JUMPI PUSH1 0x20 PUSH1 0x7 SLOAD PUSH4 0xFFFFFFFF PUSH1 0x40 MLOAD SWAP2 PUSH1 0x40 SHR AND DUP2 MSTORE RETURN JUMPDEST PUSH4 0x4E487B71 PUSH1 0xE0 SHL PUSH1 0x0 MSTORE PUSH1 0x32 PUSH1 0x4 MSTORE PUSH1 0x24 PUSH1 0x0 REVERT JUMPDEST PUSH1 0x1B SLOAD DUP2 LT ISZERO PUSH3 0x7B0 JUMPI PUSH1 0x1B PUSH1 0x0 MSTORE PUSH32 0x3AD8AA4F87544323A9D1E5DD902F40C356527A7955687113DB5F9A85AD579DC1 ADD SWAP1 PUSH1 0x0 SWAP1 JUMP JUMPDEST PUSH3 0x762 JUMP JUMPDEST PUSH4 0x4E487B71 PUSH1 0xE0 SHL PUSH1 0x0 MSTORE PUSH1 0x0 PUSH1 0x4 MSTORE PUSH1 0x24 PUSH1 0x0 REVERT JUMPDEST SWAP1 PUSH1 0x1 DUP3 DUP2 SHR SWAP3 AND DUP1 ISZERO PUSH3 0x7FE JUMPI JUMPDEST PUSH1 0x20 DUP4 LT EQ PUSH3 0x7E8 JUMPI JUMP JUMPDEST PUSH4 0x4E487B71 PUSH1 0xE0 SHL PUSH1 0x0 MSTORE PUSH1 0x22 PUSH1 0x4 MSTORE PUSH1 0x24 PUSH1 0x0 REVERT JUMPDEST SWAP2 PUSH1 0x7F AND SWAP2 PUSH3 0x7DC JUMP JUMPDEST PUSH1 0x40 MLOAD SWAP1 PUSH1 0x0 DUP3 PUSH1 0x1C SLOAD SWAP2 PUSH3 0x81F DUP4 PUSH3 0x7CC JUMP JUMPDEST DUP1 DUP4 MSTORE SWAP3 PUSH1 0x1 SWAP1 DUP2 DUP2 AND SWAP1 DUP2 ISZERO PUSH3 0x8AF JUMPI POP PUSH1 0x1 EQ PUSH3 0x84C JUMPI JUMPDEST POP PUSH3 0x84A SWAP3 POP SUB DUP4 PUSH3 0x389 JUMP JUMPDEST JUMP JUMPDEST PUSH1 0x1C PUSH1 0x0 SWAP1 DUP2 MSTORE SWAP2 POP PUSH32 0xE4562A10381DEC21B205ED72637E6B1B523BDD0E4D4D50AF5CD23DD4500A211 JUMPDEST DUP5 DUP4 LT PUSH3 0x893 JUMPI POP PUSH3 0x84A SWAP4 POP POP DUP2 ADD PUSH1 0x20 ADD CODESIZE PUSH3 0x83B JUMP JUMPDEST DUP2 SWAP4 POP SWAP1 DUP2 PUSH1 0x20 SWAP3 SLOAD DUP4 DUP6 DUP11 ADD ADD MSTORE ADD SWAP2 ADD SWAP1 SWAP2 DUP6 SWAP3 PUSH3 0x877 JUMP JUMPDEST SWAP1 POP PUSH1 0x20 SWAP3 POP PUSH3 0x84A SWAP5 SWAP2 POP PUSH1 0xFF NOT AND DUP3 DUP5 ADD MSTORE ISZERO ISZERO PUSH1 0x5 SHL DUP3 ADD ADD CODESIZE PUSH3 0x83B JUMP JUMPDEST SWAP1 PUSH1 0x40 MLOAD SWAP2 DUP3 PUSH1 0x0 DUP3 SLOAD SWAP3 PUSH3 0x8E9 DUP5 PUSH3 0x7CC JUMP JUMPDEST SWAP1 DUP2 DUP5 MSTORE PUSH1 0x1 SWAP5 DUP6 DUP2 AND SWAP1 DUP2 PUSH1 0x0 EQ PUSH3 0x95E JUMPI POP PUSH1 0x1 EQ PUSH3 0x917 JUMPI JUMPDEST POP POP PUSH3 0x84A SWAP3 POP SUB DUP4 PUSH3 0x389 JUMP JUMPDEST SWAP1 SWAP4 SWAP2 POP PUSH1 0x0 MSTORE PUSH1 0x20 SWAP1 DUP2 PUSH1 0x0 KECCAK256 SWAP4 PUSH1 0x0 SWAP2 JUMPDEST DUP2 DUP4 LT PUSH3 0x945 JUMPI POP POP PUSH3 0x84A SWAP4 POP DUP3 ADD ADD CODESIZE DUP1 PUSH3 0x907 JUMP JUMPDEST DUP6 SLOAD DUP9 DUP5 ADD DUP6 ADD MSTORE SWAP5 DUP6 ADD SWAP5 DUP8 SWAP5 POP SWAP2 DUP4 ADD SWAP2 PUSH3 0x92A JUMP JUMPDEST SWAP2 POP POP PUSH3 0x84A SWAP5 POP PUSH1 0x20 SWAP3 POP PUSH1 0xFF NOT AND DUP3 DUP5 ADD MSTORE ISZERO ISZERO PUSH1 0x5 SHL DUP3 ADD ADD CODESIZE DUP1 PUSH3 0x907 JUMP JUMPDEST SWAP2 SWAP1 DUP3 MLOAD SWAP3 DUP4 DUP3 MSTORE PUSH1 0x0 JUMPDEST DUP5 DUP2 LT PUSH3 0x9B0 JUMPI POP POP DUP3 PUSH1 0x0 PUSH1 0x20 DUP1 SWAP5 SWAP6 DUP5 ADD ADD MSTORE PUSH1 0x1F DUP1 NOT SWAP2 ADD AND ADD ADD SWAP1 JUMP JUMPDEST PUSH1 0x20 DUP2 DUP4 ADD DUP2 ADD MLOAD DUP5 DUP4 ADD DUP3 ADD MSTORE ADD PUSH3 0x98E JUMP JUMPDEST SWAP1 PUSH1 0x20 PUSH3 0x9D8 SWAP3 DUP2 DUP2 MSTORE ADD SWAP1 PUSH3 0x983 JUMP JUMPDEST SWAP1 JUMP JUMPDEST CALLVALUE PUSH3 0x2EC JUMPI PUSH1 0x20 CALLDATASIZE PUSH1 0x3 NOT ADD SLT PUSH3 0x2EC JUMPI PUSH1 0x4 CALLDATALOAD PUSH1 0x1B SLOAD DUP2 LT ISZERO PUSH3 0x2EC JUMPI PUSH3 0xA32 PUSH3 0xA47 SWAP2 PUSH1 0x1B PUSH1 0x0 MSTORE PUSH32 0x3AD8AA4F87544323A9D1E5DD902F40C356527A7955687113DB5F9A85AD579DC1 ADD PUSH3 0x8D3 JUMP JUMPDEST PUSH1 0x40 MLOAD SWAP2 DUP3 SWAP2 PUSH1 0x20 DUP4 MSTORE PUSH1 0x20 DUP4 ADD SWAP1 PUSH3 0x983 JUMP JUMPDEST SUB SWAP1 RETURN JUMPDEST CALLVALUE PUSH3 0x2EC JUMPI PUSH1 0x0 CALLDATASIZE PUSH1 0x3 NOT ADD SLT PUSH3 0x2EC JUMPI PUSH1 0x20 PUSH1 0x1 PUSH1 0x1 PUSH1 0xA0 SHL SUB PUSH1 0xB SLOAD AND PUSH1 0x40 MLOAD SWAP1 DUP2 MSTORE RETURN JUMPDEST CALLVALUE PUSH3 0x2EC JUMPI PUSH1 0x0 DUP1 PUSH1 0x3 NOT CALLDATASIZE ADD SLT PUSH3 0xB64 JUMPI PUSH1 0x40 MLOAD SWAP1 DUP1 PUSH1 0xD SLOAD PUSH3 0xA9B DUP2 PUSH3 0x7CC JUMP JUMPDEST DUP1 DUP6 MSTORE SWAP2 PUSH1 0x1 SWAP2 DUP1 DUP4 AND SWAP1 DUP2 ISZERO PUSH3 0xB37 JUMPI POP PUSH1 0x1 EQ PUSH3 0xAD7 JUMPI JUMPDEST PUSH3 0xA47 DUP6 PUSH3 0xACA DUP2 DUP8 SUB DUP3 PUSH3 0x389 JUMP JUMPDEST PUSH1 0x40 MLOAD SWAP2 DUP3 SWAP2 DUP3 PUSH3 0x9C5 JUMP JUMPDEST SWAP3 POP PUSH1 0xD DUP4 MSTORE PUSH32 0xD7B6990105719101DABEB77144F2A3385C8033ACD3AF97E9423A695E81AD1EB5 JUMPDEST DUP3 DUP5 LT PUSH3 0xB1E JUMPI POP POP POP DUP2 ADD PUSH1 0x20 ADD PUSH3 0xACA DUP3 PUSH3 0xA47 PUSH3 0xAB7 JUMP JUMPDEST DUP1 SLOAD PUSH1 0x20 DUP6 DUP8 ADD DUP2 ADD SWAP2 SWAP1 SWAP2 MSTORE SWAP1 SWAP4 ADD SWAP3 DUP2 ADD PUSH3 0xAFF JUMP JUMPDEST DUP7 SWAP6 POP PUSH3 0xA47 SWAP7 SWAP4 POP PUSH1 0x20 SWAP3 POP PUSH3 0xACA SWAP5 SWAP2 POP PUSH1 0xFF NOT AND DUP3 DUP5 ADD MSTORE ISZERO ISZERO PUSH1 0x5 SHL DUP3 ADD ADD SWAP3 SWAP4 PUSH3 0xAB7 JUMP JUMPDEST DUP1 REVERT JUMPDEST CALLVALUE PUSH3 0x2EC JUMPI PUSH1 0x0 CALLDATASIZE PUSH1 0x3 NOT ADD SLT PUSH3 0x2EC JUMPI PUSH1 0x20 PUSH1 0x11 SLOAD PUSH1 0x40 MLOAD SWAP1 DUP2 MSTORE RETURN JUMPDEST CALLVALUE PUSH3 0x2EC JUMPI PUSH1 0x0 DUP1 PUSH1 0x3 NOT CALLDATASIZE ADD SLT PUSH3 0xB64 JUMPI PUSH1 0x40 MLOAD SWAP1 DUP1 PUSH1 0x13 SLOAD PUSH3 0xBAE DUP2 PUSH3 0x7CC JUMP JUMPDEST DUP1 DUP6 MSTORE SWAP2 PUSH1 0x1 SWAP2 DUP1 DUP4 AND SWAP1 DUP2 ISZERO PUSH3 0xB37 JUMPI POP PUSH1 0x1 EQ PUSH3 0xBDC JUMPI PUSH3 0xA47 DUP6 PUSH3 0xACA DUP2 DUP8 SUB DUP3 PUSH3 0x389 JUMP JUMPDEST SWAP3 POP PUSH1 0x13 DUP4 MSTORE PUSH32 0x66DE8FFDA797E3DE9C05E8FC57B3BF0EC28A930D40B0D285D93C06501CF6A090 JUMPDEST DUP3 DUP5 LT PUSH3 0xC23 JUMPI POP POP POP DUP2 ADD PUSH1 0x20 ADD PUSH3 0xACA DUP3 PUSH3 0xA47 PUSH3 0xAB7 JUMP JUMPDEST DUP1 SLOAD PUSH1 0x20 DUP6 DUP8 ADD DUP2 ADD SWAP2 SWAP1 SWAP2 MSTORE SWAP1 SWAP4 ADD SWAP3 DUP2 ADD PUSH3 0xC04 JUMP JUMPDEST CALLVALUE PUSH3 0x2EC JUMPI PUSH1 0x3 NOT PUSH1 0x20 CALLDATASIZE DUP3 ADD SLT PUSH3 0x2EC JUMPI PUSH1 0x4 CALLDATALOAD SWAP1 PUSH8 0xFFFFFFFFFFFFFFFF DUP3 GT PUSH3 0x2EC JUMPI PUSH2 0x140 SWAP1 DUP3 CALLDATASIZE SUB ADD SLT PUSH3 0x2EC JUMPI PUSH1 0x20 PUSH3 0xCE7 PUSH1 0x0 SWAP3 PUSH3 0xCAB PUSH3 0xC9F PUSH3 0xC9F PUSH1 0x1 PUSH1 0x1 PUSH1 0xA0 SHL SUB PUSH1 0xB SLOAD AND PUSH1 0x1 PUSH1 0x1 PUSH1 0xA0 SHL SUB AND SWAP1 JUMP JUMPDEST PUSH1 0x1 PUSH1 0x1 PUSH1 0xA0 SHL SUB AND SWAP1 JUMP JUMPDEST SWAP1 PUSH1 0x40 MLOAD SWAP5 DUP6 DUP1 SWAP5 DUP2 SWAP4 PUSH32 0x24380AA800000000000000000000000000000000000000000000000000000000 DUP4 MSTORE ADDRESS SWAP1 PUSH1 0x4 ADD PUSH1 0x4 DUP5 ADD PUSH3 0x1E2D JUMP JUMPDEST SUB SWAP3 GAS CALL DUP1 ISZERO PUSH3 0xD6C JUMPI PUSH3 0xD06 SWAP2 PUSH1 0x0 SWAP2 PUSH3 0xD37 JUMPI JUMPDEST POP PUSH1 0xC SSTORE JUMP JUMPDEST PUSH1 0xC SLOAD PUSH1 0x40 MLOAD SWAP1 DUP2 MSTORE PUSH32 0x7623383A750B4166574A1B2DFF61440ED0DFA3708CBE620C58339CCA510D1AF9 SWAP1 PUSH1 0x20 SWAP1 LOG1 STOP JUMPDEST PUSH3 0xD5D SWAP2 POP PUSH1 0x20 RETURNDATASIZE DUP2 GT PUSH3 0xD64 JUMPI JUMPDEST PUSH3 0xD54 DUP2 DUP4 PUSH3 0x389 JUMP JUMPDEST DUP2 ADD SWAP1 PUSH3 0x1DA6 JUMP JUMPDEST CODESIZE PUSH3 0xD00 JUMP JUMPDEST POP RETURNDATASIZE PUSH3 0xD48 JUMP JUMPDEST PUSH3 0x1D80 JUMP JUMPDEST CALLVALUE PUSH3 0x2EC JUMPI PUSH1 0x0 CALLDATASIZE PUSH1 0x3 NOT ADD SLT PUSH3 0x2EC JUMPI PUSH1 0x20 PUSH1 0x16 SLOAD PUSH1 0x40 MLOAD SWAP1 DUP2 MSTORE RETURN JUMPDEST SWAP1 PUSH1 0x20 PUSH1 0x3 NOT DUP4 ADD SLT PUSH3 0x2EC JUMPI PUSH1 0x4 CALLDATALOAD PUSH8 0xFFFFFFFFFFFFFFFF SWAP3 DUP4 DUP3 GT PUSH3 0x2EC JUMPI DUP1 PUSH1 0x23 DUP4 ADD SLT ISZERO PUSH3 0x2EC JUMPI DUP2 PUSH1 0x4 ADD CALLDATALOAD SWAP4 DUP5 GT PUSH3 0x2EC JUMPI PUSH1 0x24 DUP5 DUP4 ADD ADD GT PUSH3 0x2EC JUMPI PUSH1 0x24 ADD SWAP2 SWAP1 JUMP JUMPDEST CALLVALUE PUSH3 0x2EC JUMPI PUSH3 0xDF2 CALLDATASIZE PUSH3 0xD92 JUMP JUMPDEST POP POP PUSH1 0x1 PUSH1 0x1 PUSH1 0xA0 SHL SUB PUSH1 0x0 SWAP1 DUP1 DUP3 SLOAD AND DUP1 CALLER EQ ISZERO DUP1 PUSH3 0x10D3 JUMPI JUMPDEST PUSH3 0x1075 JUMPI POP PUSH3 0xE23 PUSH1 0xC SLOAD ISZERO ISZERO PUSH3 0x1FD7 JUMP JUMPDEST PUSH3 0xE2D TIMESTAMP PUSH1 0xF SSTORE JUMP JUMPDEST PUSH3 0xE43 PUSH3 0xE3E PUSH1 0x10 SLOAD PUSH3 0x2023 JUMP JUMPDEST PUSH1 0x10 SSTORE JUMP JUMPDEST PUSH1 0x1A SLOAD PUSH1 0x1B SLOAD LT ISZERO PUSH3 0xFE1 JUMPI PUSH1 0x20 PUSH3 0xE92 SWAP2 PUSH1 0x7 SLOAD SWAP1 PUSH1 0xE SLOAD SWAP2 DUP6 PUSH1 0x40 MLOAD DUP1 SWAP7 DUP2 SWAP6 DUP3 SWAP5 PUSH4 0x230E93B1 PUSH1 0xE1 SHL DUP5 MSTORE PUSH8 0xFFFFFFFFFFFFFFFF PUSH4 0xFFFFFFFF DUP3 PUSH1 0x40 SHR AND SWAP2 AND PUSH1 0x4 DUP6 ADD PUSH3 0x223E JUMP JUMPDEST SUB SWAP3 PUSH32 0x0 AND GAS CALL DUP3 SWAP2 DUP2 PUSH3 0xFBC JUMPI JUMPDEST POP PUSH3 0xF75 JUMPI POP PUSH1 0x1 PUSH3 0xED4 PUSH3 0x2175 JUMP JUMPDEST PUSH4 0x8C379A0 EQ PUSH3 0xF1D JUMPI JUMPDEST PUSH3 0xEE8 JUMPI DUP1 RETURN JUMPDEST PUSH32 0x9C4BFA18304482256875C29FABB1A44A5ECD325F214EA17BAB8F31E869FAF4C8 PUSH3 0xF17 PUSH3 0xACA PUSH3 0x2209 JUMP JUMPDEST SUB SWAP1 LOG1 DUP1 RETURN JUMPDEST PUSH3 0xF27 PUSH3 0x2194 JUMP JUMPDEST DUP1 PUSH3 0xF35 JUMPI JUMPDEST POP PUSH3 0xEE0 JUMP JUMPDEST SWAP1 POP PUSH32 0x2BA61E3733E7AC99181C22307780F651EC8FD92FE661A84DFBE711710B2DC36C PUSH3 0xF6B DUP4 SWAP3 PUSH1 0x40 MLOAD SWAP2 DUP3 SWAP2 DUP3 PUSH3 0x9C5 JUMP JUMPDEST SUB SWAP1 LOG1 CODESIZE PUSH3 0xF2E JUMP JUMPDEST PUSH3 0xF7F DUP2 PUSH1 0x12 SSTORE JUMP JUMPDEST PUSH3 0xF95 PUSH3 0xF90 PUSH1 0x15 SLOAD PUSH3 0x2023 JUMP JUMPDEST PUSH1 0x15 SSTORE JUMP JUMPDEST PUSH32 0x1131472297A800FEE664D1D89CFA8F7676FF07189ECC53F80BBB5F4969099DB8 DUP3 DUP1 LOG2 DUP1 RETURN JUMPDEST PUSH3 0xFD9 SWAP2 SWAP3 POP PUSH1 0x20 RETURNDATASIZE DUP2 GT PUSH3 0xD64 JUMPI PUSH3 0xD54 DUP2 DUP4 PUSH3 0x389 JUMP JUMPDEST SWAP1 CODESIZE PUSH3 0xEC1 JUMP JUMPDEST PUSH1 0x20 PUSH3 0xE92 SWAP2 PUSH3 0xFFB PUSH1 0x1 PUSH1 0xFF NOT PUSH1 0x17 SLOAD AND OR PUSH1 0x17 SSTORE JUMP JUMPDEST PUSH3 0x1039 PUSH3 0x1009 PUSH3 0x205E JUMP JUMPDEST PUSH3 0x101E PUSH3 0x1017 PUSH3 0x809 JUMP JUMPDEST DUP3 PUSH3 0x2760 JUMP JUMPDEST PUSH3 0x1033 PUSH3 0x102C PUSH3 0x20A9 JUMP JUMPDEST DUP3 PUSH3 0x27A2 JUMP JUMPDEST PUSH3 0x2523 JUMP JUMPDEST SWAP1 PUSH1 0x7 SLOAD DUP6 PUSH1 0xE SLOAD SWAP4 PUSH1 0x40 MLOAD SWAP7 DUP8 SWAP6 DUP7 SWAP5 DUP6 SWAP4 PUSH4 0x230E93B1 PUSH1 0xE1 SHL DUP6 MSTORE PUSH8 0xFFFFFFFFFFFFFFFF PUSH4 0xFFFFFFFF DUP4 PUSH1 0x40 SHR AND SWAP3 AND PUSH1 0x4 DUP7 ADD PUSH3 0x2133 JUMP JUMPDEST PUSH1 0x64 SWAP2 PUSH1 0x40 MLOAD SWAP2 PUSH32 0x426FBC7100000000000000000000000000000000000000000000000000000000 DUP4 MSTORE CALLER PUSH1 0x4 DUP5 ADD MSTORE PUSH1 0x24 DUP4 ADD MSTORE PUSH32 0x0 AND PUSH1 0x44 DUP3 ADD MSTORE REVERT JUMPDEST POP DUP2 PUSH32 0x0 AND CALLER EQ ISZERO PUSH3 0xE0E JUMP JUMPDEST CALLVALUE PUSH3 0x2EC JUMPI PUSH1 0x0 CALLDATASIZE PUSH1 0x3 NOT ADD SLT PUSH3 0x2EC JUMPI PUSH1 0x20 PUSH1 0x15 SLOAD PUSH1 0x40 MLOAD SWAP1 DUP2 MSTORE RETURN JUMPDEST CALLVALUE PUSH3 0x2EC JUMPI PUSH1 0x0 CALLDATASIZE PUSH1 0x3 NOT ADD SLT PUSH3 0x2EC JUMPI PUSH1 0x20 PUSH1 0x18 SLOAD PUSH1 0x40 MLOAD SWAP1 DUP2 MSTORE RETURN JUMPDEST CALLVALUE PUSH3 0x2EC JUMPI PUSH1 0x0 DUP1 PUSH1 0x3 NOT CALLDATASIZE ADD SLT PUSH3 0xB64 JUMPI PUSH1 0x40 MLOAD SWAP1 DUP1 PUSH1 0x14 SLOAD PUSH3 0x1167 DUP2 PUSH3 0x7CC JUMP JUMPDEST DUP1 DUP6 MSTORE SWAP2 PUSH1 0x1 SWAP2 DUP1 DUP4 AND SWAP1 DUP2 ISZERO PUSH3 0xB37 JUMPI POP PUSH1 0x1 EQ PUSH3 0x1195 JUMPI PUSH3 0xA47 DUP6 PUSH3 0xACA DUP2 DUP8 SUB DUP3 PUSH3 0x389 JUMP JUMPDEST SWAP3 POP PUSH1 0x14 DUP4 MSTORE PUSH32 0xCE6D7B5282BD9A3661AE061FEED1DBDA4E52AB073B1F9285BE6E155D9C38D4EC JUMPDEST DUP3 DUP5 LT PUSH3 0x11DC JUMPI POP POP POP DUP2 ADD PUSH1 0x20 ADD PUSH3 0xACA DUP3 PUSH3 0xA47 PUSH3 0xAB7 JUMP JUMPDEST DUP1 SLOAD PUSH1 0x20 DUP6 DUP8 ADD DUP2 ADD SWAP2 SWAP1 SWAP2 MSTORE SWAP1 SWAP4 ADD SWAP3 DUP2 ADD PUSH3 0x11BD JUMP JUMPDEST CALLVALUE PUSH3 0x2EC JUMPI PUSH1 0x20 DUP1 PUSH1 0x3 NOT CALLDATASIZE ADD SLT PUSH3 0x2EC JUMPI PUSH8 0xFFFFFFFFFFFFFFFF PUSH1 0x4 CALLDATALOAD DUP2 DUP2 GT PUSH3 0x2EC JUMPI PUSH3 0x122D SWAP1 CALLDATASIZE SWAP1 PUSH1 0x4 ADD PUSH3 0x3C9 JUMP JUMPDEST SWAP2 DUP3 MLOAD SWAP2 DUP3 GT PUSH3 0x366 JUMPI PUSH3 0x1250 DUP3 PUSH3 0x124A PUSH1 0x3 SLOAD PUSH3 0x7CC JUMP JUMPDEST PUSH3 0x1CDC JUMP JUMPDEST DUP1 PUSH1 0x1F DUP4 GT PUSH1 0x1 EQ PUSH3 0x128F JUMPI POP DUP2 SWAP3 PUSH1 0x0 SWAP3 PUSH3 0x1283 JUMPI JUMPDEST POP POP DUP2 PUSH1 0x1 SHL SWAP2 PUSH1 0x0 NOT SWAP1 PUSH1 0x3 SHL SHR NOT AND OR PUSH1 0x3 SSTORE PUSH1 0x0 DUP1 RETURN JUMPDEST ADD MLOAD SWAP1 POP CODESIZE DUP1 PUSH3 0x1269 JUMP JUMPDEST SWAP1 PUSH1 0x1F NOT DUP4 AND SWAP4 PUSH3 0x12C3 PUSH1 0x3 PUSH1 0x0 MSTORE PUSH32 0xC2575A0E9E593C00F959F8C92F12DB2869C3395A3B0502D05E2516446F71F85B SWAP1 JUMP JUMPDEST SWAP3 PUSH1 0x0 SWAP1 JUMPDEST DUP7 DUP3 LT PUSH3 0x1302 JUMPI POP POP DUP4 PUSH1 0x1 SWAP6 LT PUSH3 0x12E8 JUMPI JUMPDEST POP POP POP DUP2 SHL ADD PUSH1 0x3 SSTORE STOP JUMPDEST ADD MLOAD PUSH1 0x0 NOT PUSH1 0xF8 DUP5 PUSH1 0x3 SHL AND SHR NOT AND SWAP1 SSTORE CODESIZE DUP1 DUP1 PUSH3 0x12DD JUMP JUMPDEST DUP1 PUSH1 0x1 DUP6 SWAP7 DUP3 SWAP5 SWAP7 DUP7 ADD MLOAD DUP2 SSTORE ADD SWAP6 ADD SWAP4 ADD SWAP1 PUSH3 0x12C8 JUMP JUMPDEST CALLVALUE PUSH3 0x2EC JUMPI PUSH1 0x0 DUP1 PUSH1 0x3 NOT CALLDATASIZE ADD SLT PUSH3 0xB64 JUMPI PUSH1 0x40 MLOAD SWAP1 DUP1 PUSH1 0x3 SLOAD PUSH3 0x1342 DUP2 PUSH3 0x7CC JUMP JUMPDEST DUP1 DUP6 MSTORE SWAP2 PUSH1 0x1 SWAP2 DUP1 DUP4 AND SWAP1 DUP2 ISZERO PUSH3 0xB37 JUMPI POP PUSH1 0x1 EQ PUSH3 0x1370 JUMPI PUSH3 0xA47 DUP6 PUSH3 0xACA DUP2 DUP8 SUB DUP3 PUSH3 0x389 JUMP JUMPDEST SWAP3 POP PUSH1 0x3 DUP4 MSTORE PUSH32 0xC2575A0E9E593C00F959F8C92F12DB2869C3395A3B0502D05E2516446F71F85B JUMPDEST DUP3 DUP5 LT PUSH3 0x13B7 JUMPI POP POP POP DUP2 ADD PUSH1 0x20 ADD PUSH3 0xACA DUP3 PUSH3 0xA47 PUSH3 0xAB7 JUMP JUMPDEST DUP1 SLOAD PUSH1 0x20 DUP6 DUP8 ADD DUP2 ADD SWAP2 SWAP1 SWAP2 MSTORE SWAP1 SWAP4 ADD SWAP3 DUP2 ADD PUSH3 0x1398 JUMP JUMPDEST CALLVALUE PUSH3 0x2EC JUMPI PUSH1 0x0 CALLDATASIZE PUSH1 0x3 NOT ADD SLT PUSH3 0x2EC JUMPI PUSH1 0x20 PUSH1 0x1 PUSH1 0x1 PUSH1 0xA0 SHL SUB PUSH1 0xA SLOAD AND PUSH1 0x40 MLOAD SWAP1 DUP2 MSTORE RETURN JUMPDEST CALLVALUE PUSH3 0x2EC JUMPI PUSH3 0x140A CALLDATASIZE PUSH3 0xD92 JUMP JUMPDEST POP POP PUSH1 0xF SLOAD TIMESTAMP SUB TIMESTAMP DUP2 GT PUSH3 0x1471 JUMPI PUSH1 0x8 SLOAD LT PUSH1 0x40 MLOAD SWAP1 DUP2 MSTORE PUSH1 0x20 PUSH1 0x40 DUP2 DUP4 ADD MSTORE DUP2 PUSH1 0x60 SWAP2 DUP3 MLOAD SWAP1 DUP2 PUSH1 0x40 DUP5 ADD MSTORE PUSH1 0x0 JUMPDEST DUP3 DUP2 LT PUSH3 0x145B JUMPI POP POP PUSH1 0x0 DUP3 DUP3 ADD DUP5 ADD MSTORE PUSH1 0x1F ADD PUSH1 0x1F NOT AND DUP2 ADD SUB ADD SWAP1 RETURN JUMPDEST PUSH1 0x80 DUP2 ADD MLOAD DUP7 DUP3 ADD DUP7 ADD MSTORE DUP6 SWAP4 POP DUP2 ADD PUSH3 0x143B JUMP JUMPDEST PUSH3 0x1FB1 JUMP JUMPDEST CALLVALUE PUSH3 0x2EC JUMPI PUSH1 0x0 CALLDATASIZE PUSH1 0x3 NOT ADD SLT PUSH3 0x2EC JUMPI PUSH1 0x20 PUSH1 0xE SLOAD PUSH1 0x40 MLOAD SWAP1 DUP2 MSTORE RETURN JUMPDEST CALLVALUE PUSH3 0x2EC JUMPI PUSH1 0x0 DUP1 PUSH1 0x3 NOT CALLDATASIZE ADD SLT PUSH3 0xB64 JUMPI PUSH1 0x1 PUSH1 0x1 PUSH1 0xA0 SHL SUB DUP1 PUSH1 0x1 SLOAD AND CALLER SUB PUSH3 0x1537 JUMPI DUP2 SLOAD PUSH1 0x1 PUSH1 0x1 PUSH1 0xA0 SHL SUB AND PUSH1 0x0 DUP1 SLOAD PUSH20 0xFFFFFFFFFFFFFFFFFFFFFFFFFFFFFFFFFFFFFFFF NOT AND CALLER OR SWAP1 SSTORE SWAP1 PUSH3 0x150D PUSH20 0xFFFFFFFFFFFFFFFFFFFFFFFFFFFFFFFFFFFFFFFF NOT PUSH1 0x1 SLOAD AND PUSH1 0x1 SSTORE JUMP JUMPDEST CALLER SWAP2 AND PUSH32 0x8BE0079C531659141344CD1FD0A4F28419497F9722A3DAAFE3B4186F6B6457E0 DUP4 DUP1 LOG3 DUP1 RETURN JUMPDEST PUSH1 0x64 PUSH1 0x40 MLOAD PUSH3 0x461BCD PUSH1 0xE5 SHL DUP2 MSTORE PUSH1 0x20 PUSH1 0x4 DUP3 ADD MSTORE PUSH1 0x16 PUSH1 0x24 DUP3 ADD MSTORE PUSH32 0x4D7573742062652070726F706F736564206F776E657200000000000000000000 PUSH1 0x44 DUP3 ADD MSTORE REVERT JUMPDEST CALLVALUE PUSH3 0x2EC JUMPI PUSH1 0x0 CALLDATASIZE PUSH1 0x3 NOT ADD SLT PUSH3 0x2EC JUMPI PUSH1 0x20 PUSH1 0x40 MLOAD PUSH1 0x1 PUSH1 0x1 PUSH1 0xA0 SHL SUB PUSH32 0x0 AND DUP2 MSTORE RETURN JUMPDEST CALLVALUE PUSH3 0x2EC JUMPI PUSH1 0x0 CALLDATASIZE PUSH1 0x3 NOT ADD SLT PUSH3 0x2EC JUMPI PUSH1 0x20 SELFBALANCE PUSH1 0x40 MLOAD SWAP1 DUP2 MSTORE RETURN JUMPDEST PUSH1 0x4 CALLDATALOAD SWAP1 PUSH12 0xFFFFFFFFFFFFFFFFFFFFFFFF DUP3 AND DUP3 SUB PUSH3 0x2EC JUMPI JUMP JUMPDEST CALLDATALOAD SWAP1 PUSH12 0xFFFFFFFFFFFFFFFFFFFFFFFF DUP3 AND DUP3 SUB PUSH3 0x2EC JUMPI JUMP JUMPDEST CALLVALUE PUSH3 0x2EC JUMPI PUSH1 0x20 CALLDATASIZE PUSH1 0x3 NOT ADD SLT PUSH3 0x2EC JUMPI PUSH3 0x1632 PUSH3 0x15DF JUMP JUMPDEST PUSH1 0x9 SLOAD PUSH1 0x1 PUSH1 0x1 PUSH1 0xA0 SHL SUB AND SWAP1 PUSH3 0x1652 PUSH1 0xA SLOAD PUSH1 0x1 PUSH1 0x1 PUSH1 0xA0 SHL SUB AND SWAP1 JUMP JUMPDEST SWAP2 PUSH1 0x40 MLOAD SWAP3 PUSH2 0x765 DUP1 DUP6 ADD SWAP2 DUP6 DUP4 LT PUSH8 0xFFFFFFFFFFFFFFFF DUP5 GT OR PUSH3 0x366 JUMPI DUP6 SWAP4 PUSH3 0x16B0 SWAP4 DUP7 SWAP4 PUSH3 0x34CC DUP8 CODECOPY PUSH1 0x1 PUSH1 0x1 PUSH1 0xA0 SHL SUB SWAP2 DUP3 AND DUP2 MSTORE SWAP2 AND PUSH1 0x20 DUP3 ADD MSTORE PUSH12 0xFFFFFFFFFFFFFFFFFFFFFFFF SWAP1 SWAP2 AND PUSH1 0x40 DUP3 ADD MSTORE PUSH1 0x60 ADD SWAP1 JUMP JUMPDEST SUB PUSH1 0x0 SWAP3 DUP4 CREATE DUP1 ISZERO PUSH3 0xD6C JUMPI PUSH3 0x177E SWAP2 PUSH3 0x16F2 PUSH1 0x20 SWAP3 PUSH1 0x1 PUSH1 0x1 PUSH1 0xA0 SHL SUB AND PUSH20 0xFFFFFFFFFFFFFFFFFFFFFFFFFFFFFFFFFFFFFFFF NOT PUSH1 0xB SLOAD AND OR PUSH1 0xB SSTORE JUMP JUMPDEST PUSH3 0x170D PUSH3 0xC9F PUSH3 0xC9F PUSH1 0x9 SLOAD PUSH1 0x1 PUSH1 0x1 PUSH1 0xA0 SHL SUB AND SWAP1 JUMP JUMPDEST PUSH3 0x1724 PUSH3 0xC9F PUSH1 0xB SLOAD PUSH1 0x1 PUSH1 0x1 PUSH1 0xA0 SHL SUB AND SWAP1 JUMP JUMPDEST DUP6 PUSH1 0x40 MLOAD DUP1 SWAP7 DUP2 SWAP6 DUP3 SWAP5 PUSH32 0x95EA7B300000000000000000000000000000000000000000000000000000000 DUP5 MSTORE PUSH1 0x4 DUP5 ADD SWAP1 SWAP3 SWAP2 PUSH12 0xFFFFFFFFFFFFFFFFFFFFFFFF PUSH1 0x20 SWAP2 PUSH1 0x1 PUSH1 0x1 PUSH1 0xA0 SHL SUB PUSH1 0x40 DUP6 ADD SWAP7 AND DUP5 MSTORE AND SWAP2 ADD MSTORE JUMP JUMPDEST SUB SWAP3 GAS CALL DUP1 ISZERO PUSH3 0xD6C JUMPI PUSH3 0x186F JUMPI JUMPDEST POP PUSH3 0x17A7 PUSH3 0xC9F PUSH1 0xB SLOAD PUSH1 0x1 PUSH1 0x1 PUSH1 0xA0 SHL SUB AND SWAP1 JUMP JUMPDEST DUP1 EXTCODESIZE ISZERO PUSH3 0x186B JUMPI PUSH1 0x40 MLOAD PUSH32 0x2302440800000000000000000000000000000000000000000000000000000000 DUP2 MSTORE ADDRESS PUSH1 0x4 DUP3 ADD MSTORE SWAP1 DUP3 SWAP1 DUP3 SWAP1 PUSH1 0x24 SWAP1 DUP3 SWAP1 DUP5 SWAP1 GAS CALL DUP1 ISZERO PUSH3 0xD6C JUMPI PUSH3 0x184D JUMPI JUMPDEST POP PUSH32 0x3583C1105FD29A46B4D92CEEAFF8BE03CBA58A11CCE44A3B7DA77BBC3798EDC4 PUSH3 0xF17 PUSH3 0x1833 PUSH3 0xC9F PUSH1 0xB SLOAD PUSH1 0x1 PUSH1 0x1 PUSH1 0xA0 SHL SUB AND SWAP1 JUMP JUMPDEST PUSH1 0x40 MLOAD PUSH1 0x1 PUSH1 0x1 PUSH1 0xA0 SHL SUB SWAP1 SWAP2 AND DUP2 MSTORE SWAP1 DUP2 SWAP1 PUSH1 0x20 DUP3 ADD SWAP1 JUMP JUMPDEST DUP1 PUSH3 0x185D PUSH3 0x1864 SWAP3 PUSH3 0x351 JUMP JUMPDEST DUP1 PUSH3 0x2E0 JUMP JUMPDEST CODESIZE PUSH3 0x17F6 JUMP JUMPDEST POP DUP1 REVERT JUMPDEST PUSH3 0x1894 SWAP1 PUSH1 0x20 RETURNDATASIZE DUP2 GT PUSH3 0x189C JUMPI JUMPDEST PUSH3 0x188B DUP2 DUP4 PUSH3 0x389 JUMP JUMPDEST DUP2 ADD SWAP1 PUSH3 0x1D8C JUMP JUMPDEST POP CODESIZE PUSH3 0x178F JUMP JUMPDEST POP RETURNDATASIZE PUSH3 0x187F JUMP JUMPDEST CALLVALUE PUSH3 0x2EC JUMPI PUSH1 0x0 CALLDATASIZE PUSH1 0x3 NOT ADD SLT PUSH3 0x2EC JUMPI PUSH1 0x20 PUSH1 0x1 PUSH1 0x1 PUSH1 0xA0 SHL SUB PUSH1 0x0 SLOAD AND PUSH1 0x40 MLOAD SWAP1 DUP2 MSTORE RETURN JUMPDEST CALLVALUE PUSH3 0x2EC JUMPI PUSH1 0x0 CALLDATASIZE PUSH1 0x3 NOT ADD SLT PUSH3 0x2EC JUMPI PUSH1 0x20 PUSH1 0x19 SLOAD PUSH1 0x40 MLOAD SWAP1 DUP2 MSTORE RETURN JUMPDEST CALLVALUE PUSH3 0x2EC JUMPI PUSH1 0x0 CALLDATASIZE PUSH1 0x3 NOT ADD SLT PUSH3 0x2EC JUMPI PUSH1 0x20 PUSH1 0x10 SLOAD PUSH1 0x40 MLOAD SWAP1 DUP2 MSTORE RETURN JUMPDEST CALLVALUE PUSH3 0x2EC JUMPI PUSH1 0x0 CALLDATASIZE PUSH1 0x3 NOT ADD SLT PUSH3 0x2EC JUMPI PUSH1 0x20 PUSH1 0x12 SLOAD PUSH1 0x40 MLOAD SWAP1 DUP2 MSTORE RETURN JUMPDEST CALLVALUE PUSH3 0x2EC JUMPI PUSH1 0x0 DUP1 PUSH1 0x3 NOT CALLDATASIZE ADD SLT PUSH3 0xB64 JUMPI PUSH1 0x40 MLOAD SWAP1 DUP1 PUSH1 0x5 SLOAD PUSH3 0x1954 DUP2 PUSH3 0x7CC JUMP JUMPDEST DUP1 DUP6 MSTORE SWAP2 PUSH1 0x1 SWAP2 DUP1 DUP4 AND SWAP1 DUP2 ISZERO PUSH3 0xB37 JUMPI POP PUSH1 0x1 EQ PUSH3 0x1982 JUMPI PUSH3 0xA47 DUP6 PUSH3 0xACA DUP2 DUP8 SUB DUP3 PUSH3 0x389 JUMP JUMPDEST SWAP3 POP PUSH1 0x5 DUP4 MSTORE PUSH32 0x36B6384B5ECA791C62761152D0C79BB0604C104A5FB6F4EB0703F3154BB3DB0 JUMPDEST DUP3 DUP5 LT PUSH3 0x19C9 JUMPI POP POP POP DUP2 ADD PUSH1 0x20 ADD PUSH3 0xACA DUP3 PUSH3 0xA47 PUSH3 0xAB7 JUMP JUMPDEST DUP1 SLOAD PUSH1 0x20 DUP6 DUP8 ADD DUP2 ADD SWAP2 SWAP1 SWAP2 MSTORE SWAP1 SWAP4 ADD SWAP3 DUP2 ADD PUSH3 0x19AA JUMP JUMPDEST CALLVALUE PUSH3 0x2EC JUMPI PUSH1 0x0 CALLDATASIZE PUSH1 0x3 NOT ADD SLT PUSH3 0x2EC JUMPI PUSH1 0x20 PUSH1 0xC SLOAD PUSH1 0x40 MLOAD SWAP1 DUP2 MSTORE RETURN JUMPDEST CALLVALUE PUSH3 0x2EC JUMPI PUSH1 0x0 CALLDATASIZE PUSH1 0x3 NOT ADD SLT PUSH3 0x2EC JUMPI PUSH1 0x20 PUSH1 0x1 PUSH1 0x1 PUSH1 0xA0 SHL SUB PUSH1 0x2 SLOAD AND PUSH1 0x40 MLOAD SWAP1 DUP2 MSTORE RETURN JUMPDEST CALLVALUE PUSH3 0x2EC JUMPI PUSH1 0x0 CALLDATASIZE PUSH1 0x3 NOT ADD SLT PUSH3 0x2EC JUMPI PUSH1 0x20 PUSH1 0x1 PUSH1 0x1 PUSH1 0xA0 SHL SUB PUSH1 0x17 SLOAD PUSH1 0x8 SHR AND PUSH1 0x40 MLOAD SWAP1 DUP2 MSTORE RETURN JUMPDEST CALLVALUE PUSH3 0x2EC JUMPI PUSH1 0x20 CALLDATASIZE PUSH1 0x3 NOT ADD SLT PUSH3 0x2EC JUMPI PUSH1 0x4 CALLDATALOAD PUSH8 0xFFFFFFFFFFFFFFFF DUP2 AND DUP1 SWAP2 SUB PUSH3 0x2EC JUMPI PUSH8 0xFFFFFFFFFFFFFFFF NOT PUSH1 0x7 SLOAD AND OR PUSH1 0x7 SSTORE PUSH1 0x0 DUP1 RETURN JUMPDEST CALLVALUE PUSH3 0x2EC JUMPI PUSH1 0x0 CALLDATASIZE PUSH1 0x3 NOT ADD SLT PUSH3 0x2EC JUMPI PUSH1 0x20 PUSH1 0x1A SLOAD PUSH1 0x40 MLOAD SWAP1 DUP2 MSTORE RETURN JUMPDEST PUSH1 0x4 CALLDATALOAD SWAP1 PUSH1 0x1 PUSH1 0x1 PUSH1 0xA0 SHL SUB DUP3 AND DUP3 SUB PUSH3 0x2EC JUMPI JUMP JUMPDEST CALLDATALOAD SWAP1 PUSH1 0x1 PUSH1 0x1 PUSH1 0xA0 SHL SUB DUP3 AND DUP3 SUB PUSH3 0x2EC JUMPI JUMP JUMPDEST CALLVALUE PUSH3 0x2EC JUMPI PUSH1 0x20 CALLDATASIZE PUSH1 0x3 NOT ADD SLT PUSH3 0x2EC JUMPI PUSH3 0x1B00 PUSH3 0x1AB7 JUMP JUMPDEST PUSH1 0x1 PUSH1 0x1 PUSH1 0xA0 SHL SUB DUP1 PUSH1 0x0 SLOAD AND SWAP2 DUP3 CALLER SUB PUSH3 0x1BAA JUMPI AND SWAP1 CALLER DUP3 EQ PUSH3 0x1B66 JUMPI DUP2 PUSH20 0xFFFFFFFFFFFFFFFFFFFFFFFFFFFFFFFFFFFFFFFF NOT PUSH1 0x1 SLOAD AND OR PUSH1 0x1 SSTORE PUSH32 0xED8889F560326EB138920D842192F0EB3DD22B4F139C87A2C57538E05BAE1278 PUSH1 0x0 DUP1 LOG3 STOP JUMPDEST PUSH1 0x64 PUSH1 0x40 MLOAD PUSH3 0x461BCD PUSH1 0xE5 SHL DUP2 MSTORE PUSH1 0x20 PUSH1 0x4 DUP3 ADD MSTORE PUSH1 0x17 PUSH1 0x24 DUP3 ADD MSTORE PUSH32 0x43616E6E6F74207472616E7366657220746F2073656C66000000000000000000 PUSH1 0x44 DUP3 ADD MSTORE REVERT JUMPDEST PUSH1 0x64 PUSH1 0x40 MLOAD PUSH3 0x461BCD PUSH1 0xE5 SHL DUP2 MSTORE PUSH1 0x20 PUSH1 0x4 DUP3 ADD MSTORE PUSH1 0x16 PUSH1 0x24 DUP3 ADD MSTORE PUSH32 0x4F6E6C792063616C6C61626C65206279206F776E657200000000000000000000 PUSH1 0x44 DUP3 ADD MSTORE REVERT JUMPDEST CALLVALUE PUSH3 0x2EC JUMPI PUSH1 0x0 CALLDATASIZE PUSH1 0x3 NOT ADD SLT PUSH3 0x2EC JUMPI PUSH1 0x20 PUSH1 0x8 SLOAD PUSH1 0x40 MLOAD SWAP1 DUP2 MSTORE RETURN JUMPDEST CALLVALUE PUSH3 0x2EC JUMPI PUSH1 0x0 DUP1 PUSH1 0x3 NOT CALLDATASIZE ADD SLT PUSH3 0xB64 JUMPI PUSH1 0x40 MLOAD SWAP1 DUP1 PUSH1 0x6 SLOAD PUSH3 0x1C35 DUP2 PUSH3 0x7CC JUMP JUMPDEST DUP1 DUP6 MSTORE SWAP2 PUSH1 0x1 SWAP2 DUP1 DUP4 AND SWAP1 DUP2 ISZERO PUSH3 0xB37 JUMPI POP PUSH1 0x1 EQ PUSH3 0x1C63 JUMPI PUSH3 0xA47 DUP6 PUSH3 0xACA DUP2 DUP8 SUB DUP3 PUSH3 0x389 JUMP JUMPDEST SWAP3 POP PUSH1 0x6 DUP4 MSTORE PUSH32 0xF652222313E28459528D920B65115C16C04F3EFC82AAEDC97BE59F3F377C0D3F JUMPDEST DUP3 DUP5 LT PUSH3 0x1CAA JUMPI POP POP POP DUP2 ADD PUSH1 0x20 ADD PUSH3 0xACA DUP3 PUSH3 0xA47 PUSH3 0xAB7 JUMP JUMPDEST DUP1 SLOAD PUSH1 0x20 DUP6 DUP8 ADD DUP2 ADD SWAP2 SWAP1 SWAP2 MSTORE SWAP1 SWAP4 ADD SWAP3 DUP2 ADD PUSH3 0x1C8B JUMP JUMPDEST DUP2 DUP2 LT PUSH3 0x1CCF JUMPI POP POP JUMP JUMPDEST PUSH1 0x0 DUP2 SSTORE PUSH1 0x1 ADD PUSH3 0x1CC3 JUMP JUMPDEST SWAP1 PUSH1 0x1F DUP3 GT PUSH3 0x1CEA JUMPI POP POP JUMP JUMPDEST PUSH3 0x84A SWAP2 PUSH1 0x3 PUSH1 0x0 MSTORE PUSH32 0xC2575A0E9E593C00F959F8C92F12DB2869C3395A3B0502D05E2516446F71F85B SWAP1 PUSH1 0x20 PUSH1 0x1F DUP5 ADD PUSH1 0x5 SHR DUP4 ADD SWAP4 LT PUSH3 0x1D37 JUMPI JUMPDEST PUSH1 0x1F ADD PUSH1 0x5 SHR ADD SWAP1 PUSH3 0x1CC3 JUMP JUMPDEST SWAP1 SWAP2 POP DUP2 SWAP1 PUSH3 0x1D29 JUMP JUMPDEST SWAP2 SWAP1 PUSH1 0x1F DUP2 GT PUSH3 0x1D52 JUMPI POP POP POP JUMP JUMPDEST PUSH3 0x84A SWAP3 PUSH1 0x0 MSTORE PUSH1 0x20 PUSH1 0x0 KECCAK256 SWAP1 PUSH1 0x20 PUSH1 0x1F DUP5 ADD PUSH1 0x5 SHR DUP4 ADD SWAP4 LT PUSH3 0x1D37 JUMPI PUSH1 0x1F ADD PUSH1 0x5 SHR ADD SWAP1 PUSH3 0x1CC3 JUMP JUMPDEST PUSH1 0x40 MLOAD RETURNDATASIZE PUSH1 0x0 DUP3 RETURNDATACOPY RETURNDATASIZE SWAP1 REVERT JUMPDEST SWAP1 DUP2 PUSH1 0x20 SWAP2 SUB SLT PUSH3 0x2EC JUMPI MLOAD DUP1 ISZERO ISZERO DUP2 SUB PUSH3 0x2EC JUMPI SWAP1 JUMP JUMPDEST SWAP1 DUP2 PUSH1 0x20 SWAP2 SUB SLT PUSH3 0x2EC JUMPI MLOAD SWAP1 JUMP JUMPDEST SWAP1 CALLDATALOAD PUSH1 0x1E NOT DUP3 CALLDATASIZE SUB ADD DUP2 SLT ISZERO PUSH3 0x2EC JUMPI ADD PUSH1 0x20 DUP2 CALLDATALOAD SWAP2 ADD SWAP2 PUSH8 0xFFFFFFFFFFFFFFFF DUP3 GT PUSH3 0x2EC JUMPI DUP2 CALLDATASIZE SUB DUP4 SGT PUSH3 0x2EC JUMPI JUMP JUMPDEST SWAP1 DUP1 PUSH1 0x20 SWAP4 SWAP3 DUP2 DUP5 MSTORE DUP5 DUP5 ADD CALLDATACOPY PUSH1 0x0 DUP3 DUP3 ADD DUP5 ADD MSTORE PUSH1 0x1F ADD PUSH1 0x1F NOT AND ADD ADD SWAP1 JUMP JUMPDEST CALLDATALOAD SWAP1 PUSH4 0xFFFFFFFF DUP3 AND DUP3 SUB PUSH3 0x2EC JUMPI JUMP JUMPDEST CALLDATALOAD SWAP1 PUSH1 0xFF DUP3 AND DUP3 SUB PUSH3 0x2EC JUMPI JUMP JUMPDEST SWAP3 SWAP2 PUSH1 0x20 PUSH3 0x84A SWAP3 PUSH1 0x40 DUP7 MSTORE PUSH3 0x1FA1 PUSH3 0x1F8B PUSH3 0x1E6F PUSH3 0x1F83 DUP10 PUSH3 0x1E57 DUP7 DUP1 PUSH3 0x1DB6 JUMP JUMPDEST SWAP4 SWAP1 PUSH2 0x140 SWAP5 DUP6 PUSH1 0x40 DUP6 ADD MSTORE PUSH2 0x180 DUP5 ADD SWAP2 PUSH3 0x1DEB JUMP JUMPDEST SWAP3 PUSH3 0x1F3C PUSH3 0x1E9B PUSH3 0x1E86 DUP11 DUP11 ADD DUP11 PUSH3 0x1DB6 JUMP JUMPDEST PUSH1 0x3F NOT DUP7 DUP10 SUB DUP2 ADD PUSH1 0x60 DUP9 ADD MSTORE SWAP8 SWAP2 PUSH3 0x1DEB JUMP JUMPDEST PUSH3 0x1EBD PUSH3 0x1EAD PUSH1 0x40 DUP12 ADD PUSH3 0x1ACE JUMP JUMPDEST PUSH1 0x1 PUSH1 0x1 PUSH1 0xA0 SHL SUB AND PUSH1 0x80 DUP7 ADD MSTORE JUMP JUMPDEST PUSH3 0x1EDC PUSH3 0x1ECF PUSH1 0x60 DUP12 ADD PUSH3 0x1E0C JUMP JUMPDEST PUSH4 0xFFFFFFFF AND PUSH1 0xA0 DUP7 ADD MSTORE JUMP JUMPDEST PUSH3 0x1EFE PUSH3 0x1EEE PUSH1 0x80 DUP12 ADD PUSH3 0x1ACE JUMP JUMPDEST PUSH1 0x1 PUSH1 0x1 PUSH1 0xA0 SHL SUB AND PUSH1 0xC0 DUP7 ADD MSTORE JUMP JUMPDEST PUSH3 0x1F1A PUSH3 0x1F10 PUSH1 0xA0 DUP12 ADD PUSH3 0x1E1E JUMP JUMPDEST PUSH1 0xFF AND PUSH1 0xE0 DUP7 ADD MSTORE JUMP JUMPDEST PUSH3 0x1F29 PUSH1 0xC0 DUP11 ADD DUP11 PUSH3 0x1DB6 JUMP JUMPDEST DUP6 DUP4 SUB DUP9 ADD PUSH2 0x100 SWAP7 DUP8 ADD MSTORE SWAP1 PUSH3 0x1DEB JUMP JUMPDEST SWAP4 DUP13 PUSH3 0x1F73 PUSH3 0x1F69 PUSH3 0x1F55 PUSH1 0xE0 DUP13 ADD DUP13 PUSH3 0x1DB6 JUMP JUMPDEST PUSH2 0x120 SWAP10 SWAP2 DUP7 DUP7 DUP5 SUB ADD DUP12 DUP8 ADD MSTORE PUSH3 0x1DEB JUMP JUMPDEST SWAP5 DUP11 ADD DUP11 PUSH3 0x1DB6 JUMP JUMPDEST SWAP4 SWAP1 SWAP3 DUP3 DUP7 SUB ADD SWAP2 ADD MSTORE PUSH3 0x1DEB JUMP JUMPDEST SWAP4 ADD PUSH3 0x15FB JUMP JUMPDEST PUSH12 0xFFFFFFFFFFFFFFFFFFFFFFFF AND PUSH2 0x160 DUP9 ADD MSTORE JUMP JUMPDEST SWAP5 ADD SWAP1 PUSH1 0x1 PUSH1 0x1 PUSH1 0xA0 SHL SUB AND SWAP1 MSTORE JUMP JUMPDEST PUSH4 0x4E487B71 PUSH1 0xE0 SHL PUSH1 0x0 MSTORE PUSH1 0x11 PUSH1 0x4 MSTORE PUSH1 0x24 PUSH1 0x0 REVERT JUMPDEST PUSH1 0x1F NOT DUP2 ADD SWAP2 SWAP1 DUP3 GT PUSH3 0x1471 JUMPI JUMP JUMPDEST ISZERO PUSH3 0x1FDF JUMPI JUMP JUMPDEST PUSH1 0x64 PUSH1 0x40 MLOAD PUSH3 0x461BCD PUSH1 0xE5 SHL DUP2 MSTORE PUSH1 0x20 PUSH1 0x4 DUP3 ADD MSTORE PUSH1 0x15 PUSH1 0x24 DUP3 ADD MSTORE PUSH32 0x55706B656570206E6F7420726567697374657265640000000000000000000000 PUSH1 0x44 DUP3 ADD MSTORE REVERT JUMPDEST SWAP1 PUSH1 0x1 DUP3 ADD DUP1 SWAP3 GT PUSH3 0x1471 JUMPI JUMP JUMPDEST SWAP1 PUSH1 0x20 DUP3 ADD DUP1 SWAP3 GT PUSH3 0x1471 JUMPI JUMP JUMPDEST PUSH1 0x30 ADD SWAP1 DUP2 PUSH1 0x30 GT PUSH3 0x1471 JUMPI JUMP JUMPDEST SWAP2 SWAP1 DUP3 ADD DUP1 SWAP3 GT PUSH3 0x1471 JUMPI JUMP JUMPDEST PUSH1 0x40 MLOAD SWAP1 PUSH1 0xE0 DUP3 ADD DUP3 DUP2 LT PUSH8 0xFFFFFFFFFFFFFFFF DUP3 GT OR PUSH3 0x366 JUMPI PUSH1 0x40 MSTORE PUSH1 0x60 PUSH1 0xC0 DUP4 PUSH1 0x0 DUP2 MSTORE PUSH1 0x0 PUSH1 0x20 DUP3 ADD MSTORE PUSH1 0x0 PUSH1 0x40 DUP3 ADD MSTORE DUP3 DUP1 DUP3 ADD MSTORE DUP3 PUSH1 0x80 DUP3 ADD MSTORE DUP3 PUSH1 0xA0 DUP3 ADD MSTORE ADD MSTORE JUMP JUMPDEST PUSH1 0x1B SLOAD SWAP1 PUSH8 0xFFFFFFFFFFFFFFFF DUP3 GT PUSH3 0x366 JUMPI PUSH1 0x40 MLOAD SWAP2 PUSH1 0x20 PUSH3 0x20D4 DUP2 DUP4 PUSH1 0x5 SHL ADD DUP6 PUSH3 0x389 JUMP JUMPDEST DUP2 DUP5 MSTORE DUP1 DUP5 ADD SWAP1 PUSH1 0x1B PUSH1 0x0 MSTORE PUSH32 0x3AD8AA4F87544323A9D1E5DD902F40C356527A7955687113DB5F9A85AD579DC1 PUSH1 0x0 SWAP3 JUMPDEST DUP5 DUP5 LT PUSH3 0x2114 JUMPI POP POP POP POP POP JUMP JUMPDEST PUSH1 0x1 DUP4 DUP2 SWAP3 PUSH3 0x2124 DUP6 PUSH3 0x8D3 JUMP JUMPDEST DUP2 MSTORE ADD SWAP3 ADD SWAP4 ADD SWAP3 SWAP1 PUSH3 0x2105 JUMP JUMPDEST SWAP1 PUSH3 0x2163 PUSH1 0x80 SWAP4 PUSH8 0xFFFFFFFFFFFFFFFF PUSH4 0xFFFFFFFF SWAP4 SWAP9 SWAP8 SWAP7 SWAP9 AND DUP5 MSTORE PUSH1 0xA0 PUSH1 0x20 DUP6 ADD MSTORE PUSH1 0xA0 DUP5 ADD SWAP1 PUSH3 0x983 JUMP JUMPDEST SWAP6 PUSH1 0x1 PUSH1 0x40 DUP5 ADD MSTORE AND PUSH1 0x60 DUP3 ADD MSTORE ADD MSTORE JUMP JUMPDEST PUSH1 0x0 SWAP1 PUSH1 0x3 RETURNDATASIZE GT PUSH3 0x2183 JUMPI JUMP JUMPDEST SWAP1 POP PUSH1 0x4 PUSH1 0x0 DUP1 RETURNDATACOPY PUSH1 0x0 MLOAD PUSH1 0xE0 SHR SWAP1 JUMP JUMPDEST PUSH1 0x0 PUSH1 0x44 RETURNDATASIZE LT PUSH3 0x9D8 JUMPI PUSH1 0x40 MLOAD PUSH1 0x3 NOT SWAP2 RETURNDATASIZE DUP4 ADD PUSH1 0x4 DUP4 RETURNDATACOPY DUP2 MLOAD PUSH8 0xFFFFFFFFFFFFFFFF SWAP2 DUP3 DUP3 GT RETURNDATASIZE PUSH1 0x24 DUP5 ADD GT OR PUSH3 0x21F8 JUMPI DUP2 DUP5 ADD SWAP5 DUP6 MLOAD SWAP4 DUP5 GT PUSH3 0x2200 JUMPI RETURNDATASIZE DUP6 ADD ADD PUSH1 0x20 DUP5 DUP8 ADD ADD GT PUSH3 0x21F8 JUMPI POP PUSH3 0x9D8 SWAP3 SWAP2 ADD PUSH1 0x20 ADD SWAP1 PUSH3 0x389 JUMP JUMPDEST SWAP5 SWAP4 POP POP POP POP JUMP JUMPDEST POP SWAP5 SWAP4 POP POP POP POP JUMP JUMPDEST RETURNDATASIZE ISZERO PUSH3 0x2239 JUMPI RETURNDATASIZE SWAP1 PUSH3 0x221D DUP3 PUSH3 0x3AC JUMP JUMPDEST SWAP2 PUSH3 0x222D PUSH1 0x40 MLOAD SWAP4 DUP5 PUSH3 0x389 JUMP JUMPDEST DUP3 MSTORE RETURNDATASIZE PUSH1 0x0 PUSH1 0x20 DUP5 ADD RETURNDATACOPY JUMP JUMPDEST PUSH1 0x60 SWAP1 JUMP JUMPDEST SWAP1 PUSH8 0xFFFFFFFFFFFFFFFF SWAP1 SWAP5 SWAP4 SWAP3 SWAP5 AND DUP2 MSTORE PUSH1 0x20 SWAP4 PUSH1 0xA0 DUP6 DUP4 ADD MSTORE PUSH1 0x0 PUSH1 0x3 SLOAD SWAP6 PUSH3 0x226A DUP8 PUSH3 0x7CC JUMP JUMPDEST SWAP1 DUP2 PUSH1 0xA0 DUP7 ADD MSTORE PUSH1 0x1 SWAP8 DUP9 DUP2 AND SWAP1 DUP2 PUSH1 0x0 EQ PUSH3 0x2305 JUMPI POP PUSH1 0x1 EQ PUSH3 0x22A6 JUMPI JUMPDEST POP POP PUSH1 0x40 DUP4 ADD SWAP6 SWAP1 SWAP6 MSTORE PUSH4 0xFFFFFFFF AND PUSH1 0x60 DUP3 ADD MSTORE PUSH1 0x80 ADD MSTORE JUMP JUMPDEST PUSH1 0x3 PUSH1 0x0 SWAP1 DUP2 MSTORE SWAP3 POP DUP8 PUSH32 0xC2575A0E9E593C00F959F8C92F12DB2869C3395A3B0502D05E2516446F71F85B JUMPDEST DUP4 DUP6 LT PUSH3 0x22EF JUMPI POP POP POP POP DUP3 ADD PUSH1 0xC0 ADD DUP2 PUSH4 0xFFFFFFFF PUSH3 0x228B JUMP JUMPDEST DUP1 SLOAD DUP8 DUP7 ADD PUSH1 0xC0 ADD MSTORE SWAP4 DUP3 ADD SWAP4 DUP10 SWAP2 ADD PUSH3 0x22D2 JUMP JUMPDEST PUSH1 0xFF NOT AND PUSH1 0xC0 DUP8 DUP2 ADD SWAP2 SWAP1 SWAP2 MSTORE SWAP3 ISZERO ISZERO PUSH1 0x5 SHL DUP7 ADD SWAP1 SWAP3 ADD SWAP3 POP DUP4 SWAP2 POP PUSH4 0xFFFFFFFF SWAP1 POP PUSH3 0x228B JUMP JUMPDEST PUSH1 0x40 MLOAD SWAP1 PUSH3 0x233E DUP3 PUSH3 0x36C JUMP JUMPDEST PUSH1 0xC DUP3 MSTORE PUSH32 0x636F64654C6F636174696F6E0000000000000000000000000000000000000000 PUSH1 0x20 DUP4 ADD MSTORE JUMP JUMPDEST PUSH4 0x4E487B71 PUSH1 0xE0 SHL PUSH1 0x0 MSTORE PUSH1 0x21 PUSH1 0x4 MSTORE PUSH1 0x24 PUSH1 0x0 REVERT JUMPDEST PUSH1 0x3 GT ISZERO PUSH3 0x238B JUMPI JUMP JUMPDEST PUSH3 0x236A JUMP JUMPDEST PUSH1 0x40 MLOAD SWAP1 PUSH3 0x23A0 DUP3 PUSH3 0x36C JUMP JUMPDEST PUSH1 0x8 DUP3 MSTORE PUSH32 0x6C616E6775616765000000000000000000000000000000000000000000000000 PUSH1 0x20 DUP4 ADD MSTORE JUMP JUMPDEST PUSH1 0x1 GT ISZERO PUSH3 0x238B JUMPI JUMP JUMPDEST PUSH1 0x40 MLOAD SWAP1 PUSH3 0x23E6 DUP3 PUSH3 0x36C JUMP JUMPDEST PUSH1 0x6 DUP3 MSTORE PUSH32 0x736F757263650000000000000000000000000000000000000000000000000000 PUSH1 0x20 DUP4 ADD MSTORE JUMP JUMPDEST PUSH1 0x40 MLOAD SWAP1 PUSH3 0x2421 DUP3 PUSH3 0x36C JUMP JUMPDEST PUSH1 0x4 DUP3 MSTORE PUSH32 0x6172677300000000000000000000000000000000000000000000000000000000 PUSH1 0x20 DUP4 ADD MSTORE JUMP JUMPDEST PUSH1 0x0 NOT DUP2 EQ PUSH3 0x1471 JUMPI PUSH1 0x1 ADD SWAP1 JUMP JUMPDEST DUP1 MLOAD DUP3 LT ISZERO PUSH3 0x7B0 JUMPI PUSH1 0x20 SWAP2 PUSH1 0x5 SHL ADD ADD SWAP1 JUMP JUMPDEST PUSH1 0x40 MLOAD SWAP1 PUSH3 0x2481 DUP3 PUSH3 0x36C JUMP JUMPDEST PUSH1 0xF DUP3 MSTORE PUSH32 0x736563726574734C6F636174696F6E0000000000000000000000000000000000 PUSH1 0x20 DUP4 ADD MSTORE JUMP JUMPDEST PUSH1 0x40 MLOAD SWAP1 PUSH3 0x24BC DUP3 PUSH3 0x36C JUMP JUMPDEST PUSH1 0x7 DUP3 MSTORE PUSH32 0x7365637265747300000000000000000000000000000000000000000000000000 PUSH1 0x20 DUP4 ADD MSTORE JUMP JUMPDEST PUSH1 0x40 MLOAD SWAP1 PUSH3 0x24F7 DUP3 PUSH3 0x36C JUMP JUMPDEST PUSH1 0x9 DUP3 MSTORE PUSH32 0x6279746573417267730000000000000000000000000000000000000000000000 PUSH1 0x20 DUP4 ADD MSTORE JUMP JUMPDEST PUSH3 0x252D PUSH3 0x27F6 JUMP JUMPDEST SWAP1 PUSH3 0x2543 PUSH3 0x253C PUSH3 0x232F JUMP JUMPDEST DUP4 PUSH3 0x2FEB JUMP JUMPDEST PUSH3 0x2566 DUP2 MLOAD PUSH3 0x2554 DUP2 PUSH3 0x2380 JUMP JUMPDEST PUSH3 0x255F DUP2 PUSH3 0x2380 JUMP JUMPDEST DUP4 PUSH3 0x28A6 JUMP JUMPDEST PUSH3 0x2574 PUSH3 0x253C PUSH3 0x2391 JUMP JUMPDEST PUSH3 0x2593 PUSH1 0x40 DUP3 ADD MLOAD PUSH3 0x2588 DUP2 PUSH3 0x23CC JUMP JUMPDEST PUSH3 0x255F DUP2 PUSH3 0x23CC JUMP JUMPDEST PUSH3 0x25A1 PUSH3 0x253C PUSH3 0x23D7 JUMP JUMPDEST PUSH3 0x25B1 PUSH1 0x60 DUP3 ADD MLOAD DUP4 PUSH3 0x2FEB JUMP JUMPDEST PUSH1 0xA0 DUP2 ADD DUP1 MLOAD MLOAD PUSH3 0x26F7 JUMPI JUMPDEST POP PUSH1 0x80 DUP2 ADD SWAP1 DUP2 MLOAD MLOAD PUSH3 0x2649 JUMPI JUMPDEST PUSH1 0xC0 SWAP2 POP ADD DUP1 MLOAD MLOAD PUSH3 0x25E1 JUMPI JUMPDEST POP MLOAD MLOAD SWAP1 JUMP JUMPDEST SWAP2 PUSH3 0x25F0 PUSH3 0x253C PUSH3 0x24E8 JUMP JUMPDEST PUSH3 0x25FB DUP3 PUSH3 0x3083 JUMP JUMPDEST PUSH1 0x0 JUMPDEST DUP4 MLOAD DUP1 MLOAD DUP3 LT ISZERO PUSH3 0x2633 JUMPI SWAP1 PUSH3 0x2627 PUSH3 0x261F DUP3 PUSH3 0x262D SWAP5 PUSH3 0x245D JUMP JUMPDEST MLOAD DUP6 PUSH3 0x2F1C JUMP JUMPDEST PUSH3 0x244D JUMP JUMPDEST PUSH3 0x25FE JUMP JUMPDEST POP POP SWAP2 POP PUSH3 0x2642 DUP2 PUSH3 0x311B JUMP JUMPDEST CODESIZE PUSH3 0x25DB JUMP JUMPDEST PUSH1 0x20 DUP2 ADD DUP1 MLOAD PUSH3 0x265A DUP2 PUSH3 0x2380 JUMP JUMPDEST PUSH3 0x2665 DUP2 PUSH3 0x2380 JUMP JUMPDEST ISZERO PUSH3 0x26CD JUMPI PUSH1 0xC0 SWAP3 PUSH3 0x26AA PUSH3 0x26C7 SWAP3 PUSH3 0x268C PUSH3 0x2685 PUSH3 0x2472 JUMP JUMPDEST DUP9 PUSH3 0x2FEB JUMP JUMPDEST MLOAD PUSH3 0x2698 DUP2 PUSH3 0x2380 JUMP JUMPDEST PUSH3 0x26A3 DUP2 PUSH3 0x2380 JUMP JUMPDEST DUP7 PUSH3 0x28A6 JUMP JUMPDEST PUSH3 0x26BF PUSH3 0x26B8 PUSH3 0x24AD JUMP JUMPDEST DUP7 PUSH3 0x2FEB JUMP JUMPDEST MLOAD DUP5 PUSH3 0x2F1C JUMP JUMPDEST PUSH3 0x25CD JUMP JUMPDEST PUSH1 0x4 PUSH1 0x40 MLOAD PUSH32 0xA80D31F700000000000000000000000000000000000000000000000000000000 DUP2 MSTORE REVERT JUMPDEST SWAP3 PUSH3 0x270D PUSH3 0x2706 PUSH3 0x2412 JUMP JUMPDEST DUP5 PUSH3 0x2FEB JUMP JUMPDEST PUSH3 0x2718 DUP4 PUSH3 0x3083 JUMP JUMPDEST PUSH1 0x0 JUMPDEST DUP5 MLOAD DUP1 MLOAD DUP3 LT ISZERO PUSH3 0x274A JUMPI SWAP1 PUSH3 0x2627 PUSH3 0x273C DUP3 PUSH3 0x2744 SWAP5 PUSH3 0x245D JUMP JUMPDEST MLOAD DUP7 PUSH3 0x2FEB JUMP JUMPDEST PUSH3 0x271B JUMP JUMPDEST POP POP SWAP3 POP PUSH3 0x2759 DUP3 PUSH3 0x311B JUMP JUMPDEST CODESIZE PUSH3 0x25BE JUMP JUMPDEST DUP2 MLOAD ISZERO PUSH3 0x2778 JUMPI PUSH1 0x0 DUP1 DUP3 MSTORE PUSH1 0x40 DUP3 ADD MSTORE PUSH1 0x60 ADD MSTORE JUMP JUMPDEST PUSH1 0x4 PUSH1 0x40 MLOAD PUSH32 0x22CE3EDD00000000000000000000000000000000000000000000000000000000 DUP2 MSTORE REVERT JUMPDEST DUP2 MLOAD ISZERO PUSH3 0x27B0 JUMPI PUSH1 0xA0 ADD MSTORE JUMP JUMPDEST PUSH1 0x4 PUSH1 0x40 MLOAD PUSH32 0xFE936CB700000000000000000000000000000000000000000000000000000000 DUP2 MSTORE REVERT JUMPDEST PUSH1 0x40 MLOAD SWAP1 PUSH3 0x27E9 DUP3 PUSH3 0x36C JUMP JUMPDEST PUSH1 0x0 PUSH1 0x20 DUP4 PUSH1 0x60 DUP2 MSTORE ADD MSTORE JUMP JUMPDEST PUSH1 0x40 MLOAD PUSH3 0x2804 DUP2 PUSH3 0x36C JUMP JUMPDEST PUSH3 0x280E PUSH3 0x27DA JUMP JUMPDEST DUP1 DUP3 MSTORE PUSH1 0x20 DUP3 ADD PUSH1 0x0 DUP2 MSTORE PUSH3 0x2823 PUSH3 0x27DA JUMP JUMPDEST POP PUSH2 0x100 PUSH1 0x20 DUP4 ADD MSTORE PUSH1 0x40 MLOAD DUP1 SWAP3 MSTORE PUSH1 0x0 DUP3 MSTORE PUSH2 0x120 DUP3 ADD SWAP2 DUP3 LT PUSH3 0x2EC JUMPI PUSH1 0x0 SWAP2 PUSH1 0x40 MSTORE MSTORE SWAP1 JUMP JUMPDEST SWAP1 PUSH3 0x2858 PUSH3 0x27DA JUMP JUMPDEST POP PUSH1 0x1F DUP2 AND DUP1 PUSH3 0x2889 JUMPI JUMPDEST POP DUP1 PUSH1 0x20 DUP4 ADD MSTORE PUSH1 0x40 MLOAD SWAP1 DUP2 DUP4 MSTORE PUSH1 0x0 DUP3 MSTORE DUP2 ADD PUSH1 0x20 ADD SWAP1 DUP2 LT PUSH3 0x2EC JUMPI PUSH1 0x40 MSTORE SWAP1 JUMP JUMPDEST PUSH1 0x20 SUB PUSH1 0x20 DUP2 GT PUSH3 0x1471 JUMPI DUP2 ADD DUP1 SWAP2 GT PUSH3 0x1471 JUMPI CODESIZE PUSH3 0x2864 JUMP JUMPDEST SWAP1 DUP2 MLOAD SWAP2 PUSH3 0x28B4 PUSH3 0x27DA JUMP JUMPDEST POP DUP3 MLOAD MLOAD PUSH1 0x1 DUP2 ADD SWAP1 DUP2 DUP2 GT PUSH3 0x1471 JUMPI PUSH1 0x20 DUP6 ADD MLOAD DUP2 LT ISZERO PUSH3 0x2915 JUMPI JUMPDEST PUSH1 0xC2 PUSH1 0x20 PUSH3 0x84A SWAP7 MLOAD SWAP3 DUP4 ADD ADD MSTORE8 DUP1 MLOAD DUP3 GT PUSH3 0x290C JUMPI JUMPDEST POP POP PUSH1 0x40 MLOAD SWAP2 PUSH1 0x20 DUP4 ADD MSTORE PUSH1 0x20 DUP3 MSTORE PUSH3 0x2906 DUP3 PUSH3 0x36C JUMP JUMPDEST PUSH3 0x2F1C JUMP JUMPDEST MSTORE CODESIZE DUP1 PUSH3 0x28EC JUMP JUMPDEST DUP2 PUSH1 0x1 SHL SWAP5 DUP3 DUP7 DIV PUSH1 0x2 EQ DUP4 ISZERO OR ISZERO PUSH3 0x1471 JUMPI PUSH1 0x20 DUP2 PUSH3 0x294D PUSH3 0x84A SWAP9 PUSH3 0x2945 PUSH1 0xC2 SWAP6 MLOAD SWAP2 DUP5 PUSH3 0x284D JUMP JUMPDEST POP DUP3 PUSH3 0x2E4D JUMP JUMPDEST POP SWAP7 POP POP POP PUSH3 0x28D3 JUMP JUMPDEST SWAP1 DUP2 PUSH1 0x1 SHL SWAP2 DUP1 DUP4 DIV PUSH1 0x2 EQ SWAP1 ISZERO OR ISZERO PUSH3 0x1471 JUMPI JUMP JUMPDEST PUSH3 0x2979 PUSH3 0x27DA JUMP JUMPDEST POP DUP1 MLOAD MLOAD PUSH1 0x1 DUP2 ADD SWAP1 DUP2 DUP2 GT PUSH3 0x1471 JUMPI PUSH1 0x20 DUP4 ADD MLOAD DUP2 LT ISZERO PUSH3 0x29B5 JUMPI JUMPDEST PUSH1 0x5B PUSH1 0x20 DUP5 MLOAD SWAP3 DUP4 ADD ADD MSTORE8 DUP1 MLOAD DUP3 GT PUSH3 0x29B1 JUMPI POP POP SWAP1 JUMP JUMPDEST MSTORE SWAP1 JUMP JUMPDEST DUP2 PUSH1 0x1 SHL DUP3 DUP2 DIV PUSH1 0x2 EQ DUP4 ISZERO OR ISZERO PUSH3 0x1471 JUMPI PUSH3 0x29E3 SWAP1 PUSH3 0x29DB DUP6 MLOAD SWAP2 DUP7 PUSH3 0x284D JUMP JUMPDEST POP DUP5 PUSH3 0x2E4D JUMP JUMPDEST POP PUSH3 0x2998 JUMP JUMPDEST PUSH3 0x29F4 PUSH3 0x27DA JUMP JUMPDEST POP DUP1 MLOAD MLOAD PUSH1 0x1 DUP2 ADD SWAP1 DUP2 DUP2 GT PUSH3 0x1471 JUMPI PUSH1 0x20 DUP4 ADD MLOAD DUP2 LT ISZERO PUSH3 0x2A2C JUMPI JUMPDEST PUSH1 0x5A PUSH1 0x20 DUP5 MLOAD SWAP3 DUP4 ADD ADD MSTORE8 DUP1 MLOAD DUP3 GT PUSH3 0x29B1 JUMPI POP POP SWAP1 JUMP JUMPDEST DUP2 PUSH1 0x1 SHL DUP3 DUP2 DIV PUSH1 0x2 EQ DUP4 ISZERO OR ISZERO PUSH3 0x1471 JUMPI PUSH3 0x2A52 SWAP1 PUSH3 0x29DB DUP6 MLOAD SWAP2 DUP7 PUSH3 0x284D JUMP JUMPDEST POP PUSH3 0x2A13 JUMP JUMPDEST PUSH3 0x2A63 PUSH3 0x27DA JUMP JUMPDEST POP DUP1 MLOAD MLOAD PUSH1 0x1 DUP2 ADD SWAP1 DUP2 DUP2 GT PUSH3 0x1471 JUMPI PUSH1 0x20 DUP4 ADD MLOAD DUP2 LT ISZERO PUSH3 0x2A9B JUMPI JUMPDEST PUSH1 0x59 PUSH1 0x20 DUP5 MLOAD SWAP3 DUP4 ADD ADD MSTORE8 DUP1 MLOAD DUP3 GT PUSH3 0x29B1 JUMPI POP POP SWAP1 JUMP JUMPDEST DUP2 PUSH1 0x1 SHL DUP3 DUP2 DIV PUSH1 0x2 EQ DUP4 ISZERO OR ISZERO PUSH3 0x1471 JUMPI PUSH3 0x2AC1 SWAP1 PUSH3 0x29DB DUP6 MLOAD SWAP2 DUP7 PUSH3 0x284D JUMP JUMPDEST POP PUSH3 0x2A82 JUMP JUMPDEST PUSH3 0x2AD2 PUSH3 0x27DA JUMP JUMPDEST POP DUP1 MLOAD MLOAD PUSH1 0x1 DUP2 ADD SWAP1 DUP2 DUP2 GT PUSH3 0x1471 JUMPI PUSH1 0x20 DUP4 ADD MLOAD DUP2 LT ISZERO PUSH3 0x2B0A JUMPI JUMPDEST PUSH1 0x58 PUSH1 0x20 DUP5 MLOAD SWAP3 DUP4 ADD ADD MSTORE8 DUP1 MLOAD DUP3 GT PUSH3 0x29B1 JUMPI POP POP SWAP1 JUMP JUMPDEST DUP2 PUSH1 0x1 SHL DUP3 DUP2 DIV PUSH1 0x2 EQ DUP4 ISZERO OR ISZERO PUSH3 0x1471 JUMPI PUSH3 0x2B30 SWAP1 PUSH3 0x29DB DUP6 MLOAD SWAP2 DUP7 PUSH3 0x284D JUMP JUMPDEST POP PUSH3 0x2AF1 JUMP JUMPDEST PUSH3 0x2B41 PUSH3 0x27DA JUMP JUMPDEST POP DUP1 MLOAD MLOAD PUSH1 0x1 DUP2 ADD SWAP1 DUP2 DUP2 GT PUSH3 0x1471 JUMPI PUSH1 0x20 DUP4 ADD MLOAD DUP2 LT ISZERO PUSH3 0x2B79 JUMPI JUMPDEST PUSH1 0x7B PUSH1 0x20 DUP5 MLOAD SWAP3 DUP4 ADD ADD MSTORE8 DUP1 MLOAD DUP3 GT PUSH3 0x29B1 JUMPI POP POP SWAP1 JUMP JUMPDEST DUP2 PUSH1 0x1 SHL DUP3 DUP2 DIV PUSH1 0x2 EQ DUP4 ISZERO OR ISZERO PUSH3 0x1471 JUMPI PUSH3 0x2B9F SWAP1 PUSH3 0x29DB DUP6 MLOAD SWAP2 DUP7 PUSH3 0x284D JUMP JUMPDEST POP PUSH3 0x2B60 JUMP JUMPDEST PUSH3 0x2BB0 PUSH3 0x27DA JUMP JUMPDEST POP DUP1 MLOAD MLOAD PUSH1 0x1 DUP2 ADD SWAP1 DUP2 DUP2 GT PUSH3 0x1471 JUMPI PUSH1 0x20 DUP4 ADD MLOAD DUP2 LT ISZERO PUSH3 0x2BE8 JUMPI JUMPDEST PUSH1 0x7A PUSH1 0x20 DUP5 MLOAD SWAP3 DUP4 ADD ADD MSTORE8 DUP1 MLOAD DUP3 GT PUSH3 0x29B1 JUMPI POP POP SWAP1 JUMP JUMPDEST DUP2 PUSH1 0x1 SHL DUP3 DUP2 DIV PUSH1 0x2 EQ DUP4 ISZERO OR ISZERO PUSH3 0x1471 JUMPI PUSH3 0x2C0E SWAP1 PUSH3 0x29DB DUP6 MLOAD SWAP2 DUP7 PUSH3 0x284D JUMP JUMPDEST POP PUSH3 0x2BCF JUMP JUMPDEST PUSH3 0x2C1F PUSH3 0x27DA JUMP JUMPDEST POP DUP1 MLOAD MLOAD PUSH1 0x1 DUP2 ADD SWAP1 DUP2 DUP2 GT PUSH3 0x1471 JUMPI PUSH1 0x20 DUP4 ADD MLOAD DUP2 LT ISZERO PUSH3 0x2C57 JUMPI JUMPDEST PUSH1 0x79 PUSH1 0x20 DUP5 MLOAD SWAP3 DUP4 ADD ADD MSTORE8 DUP1 MLOAD DUP3 GT PUSH3 0x29B1 JUMPI POP POP SWAP1 JUMP JUMPDEST DUP2 PUSH1 0x1 SHL DUP3 DUP2 DIV PUSH1 0x2 EQ DUP4 ISZERO OR ISZERO PUSH3 0x1471 JUMPI PUSH3 0x2C7D SWAP1 PUSH3 0x29DB DUP6 MLOAD SWAP2 DUP7 PUSH3 0x284D JUMP JUMPDEST POP PUSH3 0x2C3E JUMP JUMPDEST PUSH3 0x2C8E PUSH3 0x27DA JUMP JUMPDEST POP DUP1 MLOAD MLOAD PUSH1 0x1 DUP2 ADD SWAP1 DUP2 DUP2 GT PUSH3 0x1471 JUMPI PUSH1 0x20 DUP4 ADD MLOAD DUP2 LT ISZERO PUSH3 0x2CC6 JUMPI JUMPDEST PUSH1 0x78 PUSH1 0x20 DUP5 MLOAD SWAP3 DUP4 ADD ADD MSTORE8 DUP1 MLOAD DUP3 GT PUSH3 0x29B1 JUMPI POP POP SWAP1 JUMP JUMPDEST DUP2 PUSH1 0x1 SHL DUP3 DUP2 DIV PUSH1 0x2 EQ DUP4 ISZERO OR ISZERO PUSH3 0x1471 JUMPI PUSH3 0x2CEC SWAP1 PUSH3 0x29DB DUP6 MLOAD SWAP2 DUP7 PUSH3 0x284D JUMP JUMPDEST POP PUSH3 0x2CAD JUMP JUMPDEST SWAP1 PUSH3 0x2CFE PUSH3 0x27DA JUMP JUMPDEST POP DUP2 MLOAD MLOAD PUSH1 0x1 DUP2 ADD SWAP2 DUP3 DUP3 GT PUSH3 0x1471 JUMPI PUSH1 0x20 DUP5 ADD MLOAD DUP3 LT ISZERO PUSH3 0x2D34 JUMPI JUMPDEST PUSH1 0x20 DUP5 MLOAD SWAP3 DUP4 ADD ADD MSTORE8 DUP1 MLOAD DUP3 GT PUSH3 0x29B1 JUMPI POP POP SWAP1 JUMP JUMPDEST DUP3 PUSH1 0x1 SHL DUP4 DUP2 DIV PUSH1 0x2 EQ DUP5 ISZERO OR ISZERO PUSH3 0x1471 JUMPI PUSH3 0x2D62 SWAP1 PUSH3 0x2D5A DUP7 MLOAD SWAP2 DUP8 PUSH3 0x284D JUMP JUMPDEST POP DUP6 PUSH3 0x2E4D JUMP JUMPDEST POP PUSH3 0x2D1D JUMP JUMPDEST SWAP1 PUSH3 0x2D78 DUP3 MLOAD SWAP2 DUP4 PUSH3 0x284D JUMP JUMPDEST POP PUSH3 0x2D83 PUSH3 0x27DA JUMP JUMPDEST POP DUP1 MLOAD SWAP1 PUSH3 0x2D91 PUSH3 0x27DA JUMP JUMPDEST POP PUSH3 0x2DA1 DUP2 MLOAD DUP4 GT ISZERO PUSH3 0x2F14 JUMP JUMPDEST DUP3 MLOAD MLOAD SWAP3 PUSH3 0x2DB1 DUP4 DUP6 PUSH3 0x2050 JUMP JUMPDEST SWAP2 PUSH1 0x20 SWAP3 DUP3 DUP5 DUP1 SWAP5 ADD MLOAD DUP3 GT PUSH3 0x2E31 JUMPI JUMPDEST MLOAD DUP4 DUP2 MLOAD SWAP8 DUP3 ADD ADD SWAP7 DUP3 GT PUSH3 0x2E28 JUMPI JUMPDEST POP POP ADD SWAP2 JUMPDEST DUP2 DUP2 LT ISZERO PUSH3 0x2DFB JUMPI PUSH1 0x0 NOT SWAP2 SUB PUSH2 0x100 EXP ADD SWAP1 DUP2 NOT SWAP1 MLOAD AND SWAP1 DUP3 MLOAD AND OR SWAP1 MSTORE JUMP JUMPDEST SWAP2 SWAP3 PUSH3 0x2E1B PUSH3 0x2E14 PUSH3 0x2E22 SWAP3 DUP7 MLOAD DUP2 MSTORE PUSH3 0x2032 JUMP JUMPDEST SWAP5 PUSH3 0x2032 JUMP JUMPDEST SWAP3 PUSH3 0x1FC7 JUMP JUMPDEST PUSH3 0x2DD9 JUMP JUMPDEST MSTORE CODESIZE DUP1 PUSH3 0x2DD4 JUMP JUMPDEST PUSH3 0x2E47 PUSH3 0x2E40 DUP4 PUSH3 0x2958 JUMP JUMPDEST DUP3 PUSH3 0x2D69 JUMP JUMPDEST PUSH3 0x2DC3 JUMP JUMPDEST SWAP1 PUSH3 0x2E58 PUSH3 0x27DA JUMP JUMPDEST POP DUP1 MLOAD PUSH3 0x2E65 PUSH3 0x27DA JUMP JUMPDEST POP PUSH3 0x2E75 DUP3 MLOAD DUP3 GT ISZERO PUSH3 0x2F14 JUMP JUMPDEST DUP3 MLOAD MLOAD SWAP2 PUSH3 0x2E85 DUP3 DUP5 PUSH3 0x2050 JUMP JUMPDEST PUSH1 0x20 SWAP2 DUP3 SWAP2 DUP3 DUP8 ADD MLOAD DUP2 GT PUSH3 0x2EF8 JUMPI JUMPDEST DUP7 MLOAD DUP4 DUP2 MLOAD SWAP8 DUP3 ADD ADD SWAP7 DUP3 GT PUSH3 0x2EEF JUMPI JUMPDEST POP POP ADD SWAP2 JUMPDEST DUP2 DUP2 LT ISZERO PUSH3 0x2ED0 JUMPI PUSH1 0x0 NOT SWAP2 SUB PUSH2 0x100 EXP ADD SWAP1 DUP2 NOT SWAP1 MLOAD AND SWAP1 DUP3 MLOAD AND OR SWAP1 MSTORE SWAP1 JUMP JUMPDEST SWAP2 SWAP3 PUSH3 0x2E1B PUSH3 0x2E14 PUSH3 0x2EE9 SWAP3 DUP7 MLOAD DUP2 MSTORE PUSH3 0x2032 JUMP JUMPDEST PUSH3 0x2EAD JUMP JUMPDEST MSTORE CODESIZE DUP1 PUSH3 0x2EA8 JUMP JUMPDEST PUSH3 0x2F0E PUSH3 0x2F07 DUP3 PUSH3 0x2958 JUMP JUMPDEST DUP9 PUSH3 0x2D69 JUMP JUMPDEST PUSH3 0x2E96 JUMP JUMPDEST ISZERO PUSH3 0x2EC JUMPI JUMP JUMPDEST DUP2 MLOAD PUSH3 0x2F59 SWAP3 SWAP2 SWAP1 PUSH8 0xFFFFFFFFFFFFFFFF DUP2 AND SWAP1 PUSH1 0x17 DUP3 GT PUSH3 0x2F5C JUMPI PUSH3 0x2F50 SWAP2 POP PUSH1 0x40 PUSH1 0xFF DUP5 MLOAD SWAP3 AND OR SWAP1 PUSH3 0x2CF3 JUMP JUMPDEST POP JUMPDEST MLOAD PUSH3 0x2E4D JUMP JUMPDEST POP JUMP JUMPDEST POP PUSH1 0xFF DUP2 GT PUSH3 0x2F87 JUMPI PUSH3 0x2F80 SWAP1 PUSH3 0x2F77 DUP4 MLOAD PUSH3 0x2AC8 JUMP JUMPDEST POP DUP3 MLOAD PUSH3 0x330C JUMP JUMPDEST POP PUSH3 0x2F52 JUMP JUMPDEST PUSH2 0xFFFF DUP2 GT PUSH3 0x2FAB JUMPI PUSH3 0x2F80 SWAP1 PUSH3 0x2FA2 DUP4 MLOAD PUSH3 0x2A59 JUMP JUMPDEST POP DUP3 MLOAD PUSH3 0x329C JUMP JUMPDEST PUSH4 0xFFFFFFFF DUP2 GT PUSH3 0x2FD1 JUMPI PUSH3 0x2F80 SWAP1 PUSH3 0x2FC8 DUP4 MLOAD PUSH3 0x29EA JUMP JUMPDEST POP DUP3 MLOAD PUSH3 0x322A JUMP JUMPDEST PUSH3 0x2F80 SWAP1 PUSH3 0x2FE2 DUP4 MLOAD PUSH3 0x296F JUMP JUMPDEST POP DUP3 MLOAD PUSH3 0x31B4 JUMP JUMPDEST DUP2 MLOAD PUSH3 0x2F59 SWAP3 SWAP2 SWAP1 PUSH8 0xFFFFFFFFFFFFFFFF DUP2 AND SWAP1 PUSH1 0x17 DUP3 GT PUSH3 0x301F JUMPI PUSH3 0x2F50 SWAP2 POP PUSH1 0x60 PUSH1 0xFF DUP5 MLOAD SWAP3 AND OR SWAP1 PUSH3 0x2CF3 JUMP JUMPDEST POP PUSH1 0xFF DUP2 GT PUSH3 0x303A JUMPI PUSH3 0x2F80 SWAP1 PUSH3 0x2F77 DUP4 MLOAD PUSH3 0x2C84 JUMP JUMPDEST PUSH2 0xFFFF DUP2 GT PUSH3 0x3055 JUMPI PUSH3 0x2F80 SWAP1 PUSH3 0x2FA2 DUP4 MLOAD PUSH3 0x2C15 JUMP JUMPDEST PUSH4 0xFFFFFFFF DUP2 GT PUSH3 0x3072 JUMPI PUSH3 0x2F80 SWAP1 PUSH3 0x2FC8 DUP4 MLOAD PUSH3 0x2BA6 JUMP JUMPDEST PUSH3 0x2F80 SWAP1 PUSH3 0x2FE2 DUP4 MLOAD PUSH3 0x2B37 JUMP JUMPDEST DUP1 MLOAD SWAP1 PUSH3 0x3090 PUSH3 0x27DA JUMP JUMPDEST POP DUP2 MLOAD MLOAD PUSH1 0x1 DUP2 ADD SWAP1 DUP2 DUP2 GT PUSH3 0x1471 JUMPI PUSH1 0x20 DUP5 ADD MLOAD DUP2 LT ISZERO PUSH3 0x30E3 JUMPI JUMPDEST PUSH1 0x9F PUSH1 0x20 DUP1 SWAP6 MLOAD SWAP3 DUP4 ADD ADD MSTORE8 DUP1 MLOAD DUP3 GT PUSH3 0x30DA JUMPI JUMPDEST POP POP ADD DUP1 MLOAD SWAP1 PUSH1 0x1 DUP3 ADD DUP1 SWAP3 GT PUSH3 0x1471 JUMPI MSTORE JUMP JUMPDEST MSTORE CODESIZE DUP1 PUSH3 0x30C5 JUMP JUMPDEST DUP2 PUSH1 0x1 SHL SWAP4 DUP3 DUP6 DIV PUSH1 0x2 EQ DUP4 ISZERO OR ISZERO PUSH3 0x1471 JUMPI PUSH1 0x20 DUP2 PUSH3 0x3110 DUP3 SWAP8 PUSH3 0x2945 PUSH1 0x9F SWAP6 MLOAD SWAP2 DUP5 PUSH3 0x284D JUMP JUMPDEST POP SWAP6 POP POP POP PUSH3 0x30AF JUMP JUMPDEST DUP1 MLOAD SWAP1 PUSH3 0x3128 PUSH3 0x27DA JUMP JUMPDEST POP DUP2 MLOAD MLOAD PUSH1 0x1 DUP2 ADD SWAP1 DUP2 DUP2 GT PUSH3 0x1471 JUMPI PUSH1 0x20 DUP5 ADD MLOAD DUP2 LT ISZERO PUSH3 0x317C JUMPI JUMPDEST PUSH1 0xFF PUSH1 0x20 DUP1 SWAP6 MLOAD SWAP3 DUP4 ADD ADD MSTORE8 DUP1 MLOAD DUP3 GT PUSH3 0x3173 JUMPI JUMPDEST POP POP ADD DUP1 MLOAD PUSH1 0x0 NOT DUP2 ADD SWAP2 SWAP1 DUP3 GT PUSH3 0x1471 JUMPI MSTORE JUMP JUMPDEST MSTORE CODESIZE DUP1 PUSH3 0x315D JUMP JUMPDEST DUP2 PUSH1 0x1 SHL SWAP4 DUP3 DUP6 DIV PUSH1 0x2 EQ DUP4 ISZERO OR ISZERO PUSH3 0x1471 JUMPI PUSH1 0x20 DUP2 PUSH3 0x31A9 DUP3 SWAP8 PUSH3 0x2945 PUSH1 0xFF SWAP6 MLOAD SWAP2 DUP5 PUSH3 0x284D JUMP JUMPDEST POP SWAP6 POP POP POP PUSH3 0x3147 JUMP JUMPDEST SWAP1 PUSH3 0x31BF PUSH3 0x27DA JUMP JUMPDEST POP DUP2 MLOAD MLOAD DUP1 PUSH1 0x8 ADD SWAP2 DUP3 PUSH1 0x8 GT PUSH3 0x1471 JUMPI PUSH1 0x20 DUP5 ADD MLOAD DUP4 GT PUSH3 0x3205 JUMPI JUMPDEST PUSH1 0x8 DUP5 MLOAD SWAP3 DUP4 ADD ADD SWAP1 PUSH8 0xFFFFFFFFFFFFFFFF NOT DUP3 MLOAD AND OR SWAP1 MSTORE DUP1 MLOAD DUP3 GT PUSH3 0x29B1 JUMPI POP POP SWAP1 JUMP JUMPDEST DUP3 PUSH1 0x1 SHL DUP4 DUP2 DIV PUSH1 0x2 EQ DUP5 ISZERO OR ISZERO PUSH3 0x1471 JUMPI PUSH3 0x3224 SWAP1 DUP6 PUSH3 0x2D69 JUMP JUMPDEST PUSH3 0x31DE JUMP JUMPDEST SWAP1 PUSH3 0x3235 PUSH3 0x27DA JUMP JUMPDEST POP DUP2 MLOAD MLOAD DUP1 PUSH1 0x4 ADD SWAP2 DUP3 PUSH1 0x4 GT PUSH3 0x1471 JUMPI PUSH1 0x20 DUP5 ADD MLOAD DUP4 GT PUSH3 0x3277 JUMPI JUMPDEST PUSH1 0x4 DUP5 MLOAD SWAP3 DUP4 ADD ADD SWAP1 PUSH4 0xFFFFFFFF NOT DUP3 MLOAD AND OR SWAP1 MSTORE DUP1 MLOAD DUP3 GT PUSH3 0x29B1 JUMPI POP POP SWAP1 JUMP JUMPDEST DUP3 PUSH1 0x1 SHL DUP4 DUP2 DIV PUSH1 0x2 EQ DUP5 ISZERO OR ISZERO PUSH3 0x1471 JUMPI PUSH3 0x3296 SWAP1 DUP6 PUSH3 0x2D69 JUMP JUMPDEST PUSH3 0x3254 JUMP JUMPDEST SWAP1 PUSH3 0x32A7 PUSH3 0x27DA JUMP JUMPDEST POP DUP2 MLOAD MLOAD DUP1 PUSH1 0x2 ADD SWAP2 DUP3 PUSH1 0x2 GT PUSH3 0x1471 JUMPI PUSH1 0x20 DUP5 ADD MLOAD DUP4 GT PUSH3 0x32E7 JUMPI JUMPDEST PUSH1 0x2 DUP5 MLOAD SWAP3 DUP4 ADD ADD SWAP1 PUSH2 0xFFFF NOT DUP3 MLOAD AND OR SWAP1 MSTORE DUP1 MLOAD DUP3 GT PUSH3 0x29B1 JUMPI POP POP SWAP1 JUMP JUMPDEST DUP3 PUSH1 0x1 SHL DUP4 DUP2 DIV PUSH1 0x2 EQ DUP5 ISZERO OR ISZERO PUSH3 0x1471 JUMPI PUSH3 0x3306 SWAP1 DUP6 PUSH3 0x2D69 JUMP JUMPDEST PUSH3 0x32C6 JUMP JUMPDEST SWAP1 PUSH3 0x3317 PUSH3 0x27DA JUMP JUMPDEST POP DUP2 MLOAD MLOAD DUP1 PUSH1 0x1 ADD SWAP2 DUP3 PUSH1 0x1 GT PUSH3 0x1471 JUMPI PUSH1 0x20 DUP5 ADD MLOAD DUP4 GT PUSH3 0x3356 JUMPI JUMPDEST PUSH1 0x1 DUP5 MLOAD SWAP3 DUP4 ADD ADD SWAP1 PUSH1 0xFF NOT DUP3 MLOAD AND OR SWAP1 MSTORE DUP1 MLOAD DUP3 GT PUSH3 0x29B1 JUMPI POP POP SWAP1 JUMP JUMPDEST DUP3 PUSH1 0x1 SHL DUP4 DUP2 DIV PUSH1 0x2 EQ DUP5 ISZERO OR ISZERO PUSH3 0x1471 JUMPI PUSH3 0x3375 SWAP1 DUP6 PUSH3 0x2D69 JUMP JUMPDEST PUSH3 0x3336 JUMP JUMPDEST SWAP1 SWAP2 PUSH3 0x3395 PUSH3 0x9D8 SWAP4 PUSH1 0x40 DUP5 MSTORE PUSH1 0x40 DUP5 ADD SWAP1 PUSH3 0x983 JUMP JUMPDEST SWAP2 PUSH1 0x20 DUP2 DUP5 SUB SWAP2 ADD MSTORE PUSH3 0x983 JUMP JUMPDEST SWAP1 DUP2 MLOAD DUP2 LT ISZERO PUSH3 0x7B0 JUMPI ADD PUSH1 0x20 ADD SWAP1 JUMP JUMPDEST DUP1 ISZERO PUSH3 0x348F JUMPI DUP1 PUSH1 0x0 SWAP1 DUP3 DUP3 SWAP4 JUMPDEST PUSH3 0x3478 JUMPI POP PUSH3 0x33D6 DUP4 PUSH3 0x3AC JUMP JUMPDEST SWAP3 PUSH3 0x33E6 PUSH1 0x40 MLOAD SWAP5 DUP6 PUSH3 0x389 JUMP JUMPDEST DUP1 DUP5 MSTORE DUP2 PUSH1 0x1F NOT PUSH3 0x33F8 DUP4 PUSH3 0x3AC JUMP JUMPDEST ADD CALLDATASIZE PUSH1 0x20 DUP8 ADD CALLDATACOPY JUMPDEST PUSH3 0x340B JUMPI POP POP POP SWAP1 JUMP JUMPDEST PUSH1 0x0 NOT DUP2 ADD SWAP1 DUP2 GT PUSH3 0x1471 JUMPI DUP1 SWAP2 PUSH1 0xA SWAP2 PUSH3 0x346E PUSH3 0x3464 PUSH3 0x343C PUSH3 0x3436 DUP7 DUP7 MOD PUSH3 0x2041 JUMP JUMPDEST PUSH1 0xFF AND SWAP1 JUMP JUMPDEST PUSH1 0xF8 SHL PUSH32 0xFF00000000000000000000000000000000000000000000000000000000000000 AND SWAP1 JUMP JUMPDEST DUP7 BYTE SWAP2 DUP8 PUSH3 0x33A4 JUMP JUMPDEST MSTORE8 DIV SWAP1 DUP2 PUSH3 0x3400 JUMP JUMPDEST SWAP3 PUSH3 0x3486 PUSH1 0xA SWAP2 PUSH3 0x244D JUMP JUMPDEST SWAP4 DIV DUP1 PUSH3 0x33C5 JUMP JUMPDEST POP PUSH1 0x40 MLOAD PUSH3 0x349E DUP2 PUSH3 0x36C JUMP JUMPDEST PUSH1 0x1 DUP2 MSTORE PUSH32 0x3000000000000000000000000000000000000000000000000000000000000000 PUSH1 0x20 DUP3 ADD MSTORE SWAP1 JUMP INVALID PUSH1 0xC0 CALLVALUE PUSH2 0xBA JUMPI PUSH1 0x1F PUSH2 0x765 CODESIZE DUP2 SWAP1 SUB SWAP2 DUP3 ADD PUSH1 0x1F NOT AND DUP4 ADD SWAP2 PUSH1 0x1 PUSH1 0x1 PUSH1 0x40 SHL SUB DUP4 GT DUP5 DUP5 LT OR PUSH2 0xBF JUMPI DUP1 DUP5 SWAP3 PUSH1 0x60 SWAP5 PUSH1 0x40 MSTORE DUP4 CODECOPY DUP2 ADD SUB SLT PUSH2 0xBA JUMPI PUSH2 0x47 DUP2 PUSH2 0xD5 JUMP JUMPDEST SWAP1 PUSH1 0x40 PUSH2 0x56 PUSH1 0x20 DUP4 ADD PUSH2 0xD5 JUMP JUMPDEST SWAP2 ADD MLOAD PUSH1 0x1 PUSH1 0x1 PUSH1 0x60 SHL SUB DUP2 AND SWAP3 SWAP1 DUP4 SWAP1 SUB PUSH2 0xBA JUMPI PUSH1 0x80 MSTORE PUSH1 0xA0 MSTORE PUSH1 0x1 DUP1 SLOAD PUSH1 0x1 PUSH1 0x1 PUSH1 0x60 SHL SUB NOT AND SWAP2 SWAP1 SWAP2 OR SWAP1 SSTORE PUSH1 0x40 MLOAD PUSH2 0x67B SWAP1 DUP2 PUSH2 0xEA DUP3 CODECOPY PUSH1 0x80 MLOAD DUP2 DUP2 DUP2 PUSH1 0x77 ADD MSTORE DUP2 DUP2 PUSH2 0x1C7 ADD MSTORE PUSH2 0x3A3 ADD MSTORE PUSH1 0xA0 MLOAD DUP2 DUP2 DUP2 PUSH1 0xBE ADD MSTORE PUSH2 0x36A ADD MSTORE RETURN JUMPDEST PUSH1 0x0 DUP1 REVERT JUMPDEST PUSH4 0x4E487B71 PUSH1 0xE0 SHL PUSH1 0x0 MSTORE PUSH1 0x41 PUSH1 0x4 MSTORE PUSH1 0x24 PUSH1 0x0 REVERT JUMPDEST MLOAD SWAP1 PUSH1 0x1 PUSH1 0x1 PUSH1 0xA0 SHL SUB DUP3 AND DUP3 SUB PUSH2 0xBA JUMPI JUMP INVALID PUSH1 0x80 PUSH1 0x40 DUP2 DUP2 MSTORE PUSH1 0x4 CALLDATASIZE LT ISZERO PUSH2 0x14 JUMPI PUSH1 0x0 DUP1 REVERT JUMPDEST PUSH1 0x0 SWAP2 DUP3 CALLDATALOAD PUSH1 0xE0 SHR SWAP1 DUP2 PUSH4 0x1619D3D EQ PUSH2 0x22D JUMPI POP DUP1 PUSH4 0x23024408 EQ PUSH2 0x14A JUMPI DUP1 PUSH4 0x24380AA8 EQ PUSH2 0xE2 JUMPI DUP1 PUSH4 0x442B1278 EQ PUSH2 0x9F JUMPI PUSH4 0x7D253AFF EQ PUSH2 0x59 JUMPI PUSH1 0x0 DUP1 REVERT JUMPDEST CALLVALUE PUSH2 0x9B JUMPI DUP2 PUSH1 0x3 NOT CALLDATASIZE ADD SLT PUSH2 0x9B JUMPI PUSH1 0x20 SWAP1 MLOAD PUSH1 0x1 PUSH1 0x1 PUSH1 0xA0 SHL SUB PUSH32 0x0 AND DUP2 MSTORE RETURN JUMPDEST POP DUP1 REVERT JUMPDEST POP CALLVALUE PUSH2 0x9B JUMPI DUP2 PUSH1 0x3 NOT CALLDATASIZE ADD SLT PUSH2 0x9B JUMPI PUSH1 0x20 SWAP1 MLOAD PUSH1 0x1 PUSH1 0x1 PUSH1 0xA0 SHL SUB PUSH32 0x0 AND DUP2 MSTORE RETURN JUMPDEST POP CALLVALUE PUSH2 0x9B JUMPI PUSH1 0x3 NOT DUP2 DUP2 CALLDATASIZE ADD SLT PUSH2 0x142 JUMPI PUSH1 0x4 CALLDATALOAD SWAP1 PUSH8 0xFFFFFFFFFFFFFFFF DUP3 GT PUSH2 0x146 JUMPI PUSH2 0x140 SWAP1 DUP3 CALLDATASIZE SUB ADD SLT PUSH2 0x142 JUMPI PUSH1 0x24 CALLDATALOAD SWAP3 PUSH1 0x1 PUSH1 0x1 PUSH1 0xA0 SHL SUB DUP5 AND DUP5 SUB PUSH2 0x13F JUMPI POP PUSH1 0x20 SWAP3 PUSH2 0x138 SWAP2 PUSH1 0x4 ADD PUSH2 0x313 JUMP JUMPDEST SWAP1 MLOAD SWAP1 DUP2 MSTORE RETURN JUMPDEST DUP1 REVERT JUMPDEST DUP3 DUP1 REVERT JUMPDEST DUP4 DUP1 REVERT JUMPDEST POP CALLVALUE PUSH2 0x9B JUMPI PUSH1 0x20 CALLDATASIZE PUSH1 0x3 NOT ADD SLT PUSH2 0x9B JUMPI PUSH1 0x4 CALLDATALOAD SWAP1 PUSH1 0x1 PUSH1 0x1 PUSH1 0xA0 SHL SUB SWAP2 DUP3 DUP2 AND DUP1 SWAP2 SUB PUSH2 0x146 JUMPI PUSH1 0x20 SWAP1 PUSH1 0x64 PUSH12 0xFFFFFFFFFFFFFFFFFFFFFFFF PUSH1 0x1 SLOAD AND SWAP2 DUP7 DUP6 MLOAD SWAP7 DUP8 SWAP5 DUP6 SWAP4 PUSH32 0x23B872DD00000000000000000000000000000000000000000000000000000000 DUP6 MSTORE PUSH1 0x4 DUP6 ADD MSTORE ADDRESS PUSH1 0x24 DUP6 ADD MSTORE PUSH1 0x44 DUP5 ADD MSTORE PUSH32 0x0 AND GAS CALL SWAP1 DUP2 ISZERO PUSH2 0x224 JUMPI POP PUSH2 0x1F9 JUMPI POP DUP1 RETURN JUMPDEST PUSH2 0x219 SWAP1 PUSH1 0x20 RETURNDATASIZE DUP2 GT PUSH2 0x21D JUMPI JUMPDEST PUSH2 0x211 DUP2 DUP4 PUSH2 0x270 JUMP JUMPDEST DUP2 ADD SWAP1 PUSH2 0x2A8 JUMP JUMPDEST POP DUP1 RETURN JUMPDEST POP RETURNDATASIZE PUSH2 0x207 JUMP JUMPDEST MLOAD RETURNDATASIZE DUP5 DUP3 RETURNDATACOPY RETURNDATASIZE SWAP1 REVERT JUMPDEST DUP4 SWAP1 CALLVALUE PUSH2 0x9B JUMPI DUP2 PUSH1 0x3 NOT CALLDATASIZE ADD SLT PUSH2 0x9B JUMPI PUSH1 0x20 SWAP1 PUSH12 0xFFFFFFFFFFFFFFFFFFFFFFFF PUSH1 0x1 SLOAD AND DUP2 MSTORE RETURN JUMPDEST CALLDATALOAD SWAP1 PUSH1 0x1 PUSH1 0x1 PUSH1 0xA0 SHL SUB DUP3 AND DUP3 SUB PUSH2 0x26B JUMPI JUMP JUMPDEST PUSH1 0x0 DUP1 REVERT JUMPDEST SWAP1 PUSH1 0x1F DUP1 NOT SWAP2 ADD AND DUP2 ADD SWAP1 DUP2 LT PUSH8 0xFFFFFFFFFFFFFFFF DUP3 GT OR PUSH2 0x292 JUMPI PUSH1 0x40 MSTORE JUMP JUMPDEST PUSH4 0x4E487B71 PUSH1 0xE0 SHL PUSH1 0x0 MSTORE PUSH1 0x41 PUSH1 0x4 MSTORE PUSH1 0x24 PUSH1 0x0 REVERT JUMPDEST SWAP1 DUP2 PUSH1 0x20 SWAP2 SUB SLT PUSH2 0x26B JUMPI MLOAD DUP1 ISZERO ISZERO DUP2 SUB PUSH2 0x26B JUMPI SWAP1 JUMP JUMPDEST SWAP1 CALLDATALOAD PUSH1 0x1E NOT DUP3 CALLDATASIZE SUB ADD DUP2 SLT ISZERO PUSH2 0x26B JUMPI ADD PUSH1 0x20 DUP2 CALLDATALOAD SWAP2 ADD SWAP2 PUSH8 0xFFFFFFFFFFFFFFFF DUP3 GT PUSH2 0x26B JUMPI DUP2 CALLDATASIZE SUB DUP4 SGT PUSH2 0x26B JUMPI JUMP JUMPDEST SWAP1 DUP1 PUSH1 0x20 SWAP4 SWAP3 DUP2 DUP5 MSTORE DUP5 DUP5 ADD CALLDATACOPY PUSH1 0x0 DUP3 DUP3 ADD DUP5 ADD MSTORE PUSH1 0x1F ADD PUSH1 0x1F NOT AND ADD ADD SWAP1 JUMP JUMPDEST SWAP2 SWAP1 SWAP2 PUSH1 0x0 SWAP3 PUSH2 0x120 DUP3 ADD CALLDATALOAD PUSH12 0xFFFFFFFFFFFFFFFFFFFFFFFF DUP2 AND DUP1 SWAP2 SUB PUSH2 0x641 JUMPI PUSH1 0x40 SWAP1 DUP2 MLOAD SWAP3 PUSH32 0x95EA7B300000000000000000000000000000000000000000000000000000000 DUP5 MSTORE PUSH1 0x1 PUSH1 0x1 PUSH1 0xA0 SHL SUB SWAP2 DUP3 PUSH32 0x0 AND SWAP6 DUP7 PUSH1 0x4 DUP8 ADD MSTORE DUP2 PUSH1 0x24 DUP8 ADD MSTORE PUSH1 0x20 SWAP6 DUP7 DUP2 PUSH1 0x44 DUP2 DUP14 DUP10 PUSH32 0x0 AND GAS CALL DUP1 ISZERO PUSH2 0x637 JUMPI PUSH2 0x61A JUMPI JUMPDEST POP DUP5 MLOAD SWAP7 PUSH32 0x3F678E1100000000000000000000000000000000000000000000000000000000 DUP9 MSTORE DUP7 PUSH1 0x4 DUP10 ADD MSTORE PUSH2 0x41D PUSH2 0x40A DUP4 DUP1 PUSH2 0x2C0 JUMP JUMPDEST PUSH2 0x140 PUSH1 0x24 DUP13 ADD MSTORE PUSH2 0x164 DUP12 ADD SWAP2 PUSH2 0x2F2 JUMP JUMPDEST DUP11 PUSH2 0x441 PUSH2 0x42D DUP11 DUP7 ADD DUP7 PUSH2 0x2C0 JUMP JUMPDEST PUSH1 0x23 NOT DUP14 DUP7 SUB DUP2 ADD PUSH1 0x44 DUP16 ADD MSTORE SWAP5 SWAP2 PUSH2 0x2F2 JUMP JUMPDEST SWAP5 DUP8 PUSH2 0x44E DUP11 DUP8 ADD PUSH2 0x257 JUMP JUMPDEST AND PUSH1 0x64 DUP13 ADD MSTORE PUSH1 0x60 DUP6 ADD CALLDATALOAD PUSH4 0xFFFFFFFF DUP2 AND DUP1 SWAP2 SUB PUSH2 0x142 JUMPI PUSH1 0x84 DUP13 ADD MSTORE DUP8 PUSH2 0x479 PUSH1 0x80 DUP8 ADD PUSH2 0x257 JUMP JUMPDEST AND PUSH1 0xA4 DUP13 ADD MSTORE PUSH1 0xA0 DUP6 ADD CALLDATALOAD SWAP1 PUSH1 0xFF DUP3 AND DUP1 SWAP3 SUB PUSH2 0x142 JUMPI PUSH2 0x501 DUP13 SWAP7 DUP8 SWAP6 PUSH2 0x4F1 PUSH2 0x4E5 DUP16 SWAP12 PUSH2 0x4C7 SWAP1 DUP11 SWAP9 PUSH1 0xC4 DUP11 ADD MSTORE PUSH2 0x4B7 PUSH1 0xC0 DUP8 ADD DUP8 PUSH2 0x2C0 JUMP JUMPDEST SWAP1 DUP7 DUP12 DUP5 SUB ADD PUSH1 0xE4 DUP13 ADD MSTORE PUSH2 0x2F2 JUMP JUMPDEST PUSH2 0x4D4 PUSH1 0xE0 DUP7 ADD DUP7 PUSH2 0x2C0 JUMP JUMPDEST SWAP1 DUP6 DUP11 DUP5 SUB ADD PUSH2 0x104 DUP12 ADD MSTORE PUSH2 0x2F2 JUMP JUMPDEST SWAP3 PUSH2 0x100 DUP2 ADD SWAP1 PUSH2 0x2C0 JUMP JUMPDEST SWAP2 DUP7 DUP5 SUB ADD PUSH2 0x124 DUP8 ADD MSTORE PUSH2 0x2F2 JUMP JUMPDEST SWAP1 PUSH2 0x144 DUP4 ADD MSTORE SUB SWAP3 GAS CALL SWAP5 DUP6 ISZERO PUSH2 0x610 JUMPI DUP8 SWAP6 PUSH2 0x5DD JUMPI JUMPDEST POP DUP5 ISZERO PUSH2 0x580 JUMPI AND DUP6 MSTORE DUP5 DUP3 MSTORE DUP5 KECCAK256 SWAP1 DUP2 SLOAD SWAP2 PUSH9 0x10000000000000000 DUP4 LT ISZERO PUSH2 0x56C JUMPI PUSH1 0x1 DUP4 ADD DUP1 DUP3 SSTORE DUP4 LT ISZERO PUSH2 0x558 JUMPI SWAP5 DUP4 SWAP5 SWAP6 DUP2 MSTORE KECCAK256 ADD SSTORE SWAP1 JUMP JUMPDEST PUSH1 0x24 DUP7 PUSH4 0x4E487B71 PUSH1 0xE0 SHL DUP2 MSTORE PUSH1 0x32 PUSH1 0x4 MSTORE REVERT JUMPDEST PUSH1 0x24 DUP7 PUSH4 0x4E487B71 PUSH1 0xE0 SHL DUP2 MSTORE PUSH1 0x41 PUSH1 0x4 MSTORE REVERT JUMPDEST PUSH1 0x64 DUP5 DUP5 MLOAD SWAP1 PUSH32 0x8C379A000000000000000000000000000000000000000000000000000000000 DUP3 MSTORE PUSH1 0x4 DUP3 ADD MSTORE PUSH1 0x15 PUSH1 0x24 DUP3 ADD MSTORE PUSH32 0x6175746F2D617070726F76652064697361626C65640000000000000000000000 PUSH1 0x44 DUP3 ADD MSTORE REVERT JUMPDEST SWAP1 SWAP5 POP DUP4 DUP2 DUP2 RETURNDATASIZE DUP4 GT PUSH2 0x609 JUMPI JUMPDEST PUSH2 0x5F5 DUP2 DUP4 PUSH2 0x270 JUMP JUMPDEST DUP2 ADD SUB SLT PUSH2 0x605 JUMPI MLOAD SWAP4 CODESIZE PUSH2 0x51A JUMP JUMPDEST DUP7 DUP1 REVERT JUMPDEST POP RETURNDATASIZE PUSH2 0x5EB JUMP JUMPDEST DUP4 MLOAD RETURNDATASIZE DUP10 DUP3 RETURNDATACOPY RETURNDATASIZE SWAP1 REVERT JUMPDEST PUSH2 0x630 SWAP1 DUP8 RETURNDATASIZE DUP10 GT PUSH2 0x21D JUMPI PUSH2 0x211 DUP2 DUP4 PUSH2 0x270 JUMP JUMPDEST POP CODESIZE PUSH2 0x3D0 JUMP JUMPDEST DUP7 MLOAD RETURNDATASIZE DUP13 DUP3 RETURNDATACOPY RETURNDATASIZE SWAP1 REVERT JUMPDEST DUP5 DUP1 REVERT INVALID LOG2 PUSH5 0x6970667358 0x22 SLT KECCAK256 0xB5 0xD5 0xE5 0x49 STATICCALL LOG0 CREATE PUSH15 0x6B4C0D541D8329AF501EE63625D5B8 PUSH19 0xCB2297C6DBD1556D64736F6C63430008130033 LOG2 PUSH5 0x6970667358 0x22 SLT KECCAK256 RETURNDATASIZE 0xD1 DUP13 0xDB MUL PUSH19 0xDF163C1E97AB179C233A967BF1DD668DE9E831 PUSH16 0xAF411A858D8564736F6C634300081300 CALLER LOG2 PUSH5 0x6970667358 0x22 SLT KECCAK256 PUSH32 0xED17A148CEF61693C1CFDA15282C695C3061A620F748F0D064BB38DDECB37164 PUSH20 0x6F6C63430008130033A26469706673582212202A SWAP11 0xFB PUSH14 0x8B4652904127803143163C36D997 DUP8 0xC9 PUSH3 0xF510D2 CREATE2 RETURNDATASIZE 0xED 0x28 0xAB GASLIMIT DUP2 NUMBER PUSH5 0x736F6C6343 STOP ADDMOD SGT STOP CALLER "},"methodIdentifiers":{"createInstitution(string)":"029bf701","getAllInstitution()":"36a786ec","im_owner()":"af6081de"}}}}}