{"contracts/mock/mockAutomatedFunctionsConsumer.sol":{"AutomatedFunctionsConsumer":{"abi":[{"inputs":[{"internalType":"address","name":"_deployer","type":"address"},{"internalType":"address","name":"_farmer","type":"address"},{"internalType":"uint256","name":"_humidityLimit","type":"uint256"},{"internalType":"uint256","name":"_sampleMaxSize","type":"uint256"},{"internalType":"uint256","name":"_reparationValue","type":"uint256"},{"internalType":"uint256","name":"_updateInterval","type":"uint256"},{"internalType":"address","name":"router","type":"address"},{"internalType":"uint64","name":"_subscriptionId","type":"uint64"},{"internalType":"address","name":"_registry","type":"address"},{"internalType":"address","name":"sepoliaLINKAddress","type":"address"},{"internalType":"address","name":"sepoliaRegistrarAddress","type":"address"},{"internalType":"uint32","name":"_fulfillGasLimit","type":"uint32"}],"stateMutability":"payable","type":"constructor"},{"inputs":[],"name":"EmptyArgs","type":"error"},{"inputs":[],"name":"EmptySource","type":"error"},{"inputs":[],"name":"NoInlineSecrets","type":"error"},{"inputs":[{"internalType":"address","name":"caller","type":"address"},{"internalType":"address","name":"owner","type":"address"},{"internalType":"address","name":"automationRegistry","type":"address"}],"name":"NotAllowedCaller","type":"error"},{"inputs":[],"name":"OnlyRouterCanFulfill","type":"error"},{"inputs":[{"internalType":"bytes32","name":"requestId","type":"bytes32"}],"name":"UnexpectedRequestID","type":"error"},{"anonymous":false,"inputs":[{"indexed":true,"internalType":"bytes32","name":"requestId","type":"bytes32"},{"indexed":false,"internalType":"bytes","name":"result","type":"bytes"},{"indexed":false,"internalType":"bytes","name":"err","type":"bytes"}],"name":"OCRResponse","type":"event"},{"anonymous":false,"inputs":[{"indexed":true,"internalType":"address","name":"from","type":"address"},{"indexed":true,"internalType":"address","name":"to","type":"address"}],"name":"OwnershipTransferRequested","type":"event"},{"anonymous":false,"inputs":[{"indexed":true,"internalType":"address","name":"from","type":"address"},{"indexed":true,"internalType":"address","name":"to","type":"address"}],"name":"OwnershipTransferred","type":"event"},{"anonymous":false,"inputs":[{"indexed":true,"internalType":"bytes32","name":"id","type":"bytes32"}],"name":"RequestFulfilled","type":"event"},{"anonymous":false,"inputs":[{"indexed":false,"internalType":"string","name":"reason","type":"string"}],"name":"RequestRevertedWithErrorMsg","type":"event"},{"anonymous":false,"inputs":[{"indexed":false,"internalType":"bytes","name":"data","type":"bytes"}],"name":"RequestRevertedWithoutErrorMsg","type":"event"},{"anonymous":false,"inputs":[{"indexed":true,"internalType":"bytes32","name":"id","type":"bytes32"}],"name":"RequestSent","type":"event"},{"anonymous":false,"inputs":[{"indexed":true,"internalType":"bytes32","name":"requestId","type":"bytes32"},{"indexed":false,"internalType":"bytes","name":"response","type":"bytes"},{"indexed":false,"internalType":"bytes","name":"err","type":"bytes"}],"name":"Response","type":"event"},{"anonymous":false,"inputs":[{"indexed":false,"internalType":"address","name":"upkeepAddress","type":"address"}],"name":"upkeepCreated","type":"event"},{"anonymous":false,"inputs":[{"indexed":false,"internalType":"uint256","name":"upkeepId","type":"uint256"}],"name":"upkeepRegistered","type":"event"},{"inputs":[],"name":"acceptOwnership","outputs":[],"stateMutability":"nonpayable","type":"function"},{"inputs":[{"internalType":"bytes","name":"","type":"bytes"}],"name":"checkUpkeep","outputs":[{"internalType":"bool","name":"upkeepNeeded","type":"bool"},{"internalType":"bytes","name":"","type":"bytes"}],"stateMutability":"view","type":"function"},{"inputs":[],"name":"contractBalance","outputs":[{"internalType":"uint256","name":"","type":"uint256"}],"stateMutability":"view","type":"function"},{"inputs":[],"name":"donID","outputs":[{"internalType":"bytes32","name":"","type":"bytes32"}],"stateMutability":"view","type":"function"},{"inputs":[],"name":"farmer","outputs":[{"internalType":"address","name":"","type":"address"}],"stateMutability":"view","type":"function"},{"inputs":[],"name":"fulfillGasLimit","outputs":[{"internalType":"uint32","name":"","type":"uint32"}],"stateMutability":"view","type":"function"},{"inputs":[],"name":"gasLimit","outputs":[{"internalType":"uint32","name":"","type":"uint32"}],"stateMutability":"view","type":"function"},{"inputs":[{"internalType":"bytes32","name":"requestId","type":"bytes32"},{"internalType":"bytes","name":"response","type":"bytes"},{"internalType":"bytes","name":"err","type":"bytes"}],"name":"handleOracleFulfillment","outputs":[],"stateMutability":"nonpayable","type":"function"},{"inputs":[],"name":"humidityLimit","outputs":[{"internalType":"uint256","name":"","type":"uint256"}],"stateMutability":"view","type":"function"},{"inputs":[],"name":"institution","outputs":[{"internalType":"address","name":"","type":"address"}],"stateMutability":"view","type":"function"},{"inputs":[],"name":"lastUpkeepTimeStamp","outputs":[{"internalType":"uint256","name":"","type":"uint256"}],"stateMutability":"view","type":"function"},{"inputs":[],"name":"latestError","outputs":[{"internalType":"bytes","name":"","type":"bytes"}],"stateMutability":"view","type":"function"},{"inputs":[],"name":"latestRequestId","outputs":[{"internalType":"bytes32","name":"","type":"bytes32"}],"stateMutability":"view","type":"function"},{"inputs":[],"name":"latestResponse","outputs":[{"internalType":"bytes","name":"","type":"bytes"}],"stateMutability":"view","type":"function"},{"inputs":[],"name":"owner","outputs":[{"internalType":"address","name":"","type":"address"}],"stateMutability":"view","type":"function"},{"inputs":[{"internalType":"bytes","name":"","type":"bytes"}],"name":"performUpkeep","outputs":[],"stateMutability":"nonpayable","type":"function"},{"inputs":[],"name":"registry","outputs":[{"internalType":"contract IAutomationRegistryConsumer","name":"","type":"address"}],"stateMutability":"view","type":"function"},{"inputs":[],"name":"reparationValue","outputs":[{"internalType":"uint256","name":"","type":"uint256"}],"stateMutability":"view","type":"function"},{"inputs":[],"name":"request","outputs":[{"internalType":"bytes","name":"","type":"bytes"}],"stateMutability":"view","type":"function"},{"inputs":[],"name":"requestCBOR","outputs":[{"internalType":"bytes","name":"","type":"bytes"}],"stateMutability":"view","type":"function"},{"inputs":[],"name":"responseCounter","outputs":[{"internalType":"uint256","name":"","type":"uint256"}],"stateMutability":"view","type":"function"},{"inputs":[],"name":"s_lastError","outputs":[{"internalType":"bytes","name":"","type":"bytes"}],"stateMutability":"view","type":"function"},{"inputs":[],"name":"s_lastRequestId","outputs":[{"internalType":"bytes32","name":"","type":"bytes32"}],"stateMutability":"view","type":"function"},{"inputs":[],"name":"s_lastResponse","outputs":[{"internalType":"bytes","name":"","type":"bytes"}],"stateMutability":"view","type":"function"},{"inputs":[],"name":"s_requestCounter","outputs":[{"internalType":"uint256","name":"","type":"uint256"}],"stateMutability":"view","type":"function"},{"inputs":[],"name":"s_responseCounter","outputs":[{"internalType":"uint256","name":"","type":"uint256"}],"stateMutability":"view","type":"function"},{"inputs":[],"name":"s_upkeepCounter","outputs":[{"internalType":"uint256","name":"","type":"uint256"}],"stateMutability":"view","type":"function"},{"inputs":[],"name":"sampleMaxSize","outputs":[{"internalType":"uint256","name":"","type":"uint256"}],"stateMutability":"view","type":"function"},{"inputs":[{"internalType":"uint256","name":"","type":"uint256"}],"name":"sampleStorage","outputs":[{"internalType":"string","name":"","type":"string"}],"stateMutability":"view","type":"function"},{"inputs":[{"internalType":"bytes","name":"newRequestCBOR","type":"bytes"},{"internalType":"uint64","name":"_subscriptionId","type":"uint64"},{"internalType":"uint32","name":"_fulfillGasLimit","type":"uint32"},{"internalType":"bytes32","name":"_donID","type":"bytes32"},{"internalType":"uint256","name":"_updateInterval","type":"uint256"}],"name":"setRequest","outputs":[],"stateMutability":"nonpayable","type":"function"},{"inputs":[],"name":"subscriptionId","outputs":[{"internalType":"uint64","name":"","type":"uint64"}],"stateMutability":"view","type":"function"},{"inputs":[{"internalType":"address","name":"to","type":"address"}],"name":"transferOwnership","outputs":[],"stateMutability":"nonpayable","type":"function"},{"inputs":[],"name":"updateInterval","outputs":[{"internalType":"uint256","name":"","type":"uint256"}],"stateMutability":"view","type":"function"},{"inputs":[],"name":"upkeepContract","outputs":[{"internalType":"address","name":"","type":"address"}],"stateMutability":"view","type":"function"},{"inputs":[],"name":"upkeepCounter","outputs":[{"internalType":"uint256","name":"","type":"uint256"}],"stateMutability":"view","type":"function"},{"inputs":[],"name":"upkeepId","outputs":[{"internalType":"uint256","name":"","type":"uint256"}],"stateMutability":"view","type":"function"}],"evm":{"bytecode":{"linkReferences":{},"object":"6001600160401b0360c0601f620032c438819003918201601f191683019184831184841017620001cc5780849261018094604052833981010312620001c7576200004981620001e2565b916200005860208301620001e2565b604083015160608401519160808501519360a0860151926200007d60c08801620001e2565b9260e0880151928316809303620001c757610160620000a06101008a01620001e2565b98620000b06101208201620001e2565b50620000c06101408201620001e2565b5001519363ffffffff85168503620001c7576001600160a01b039081166080529889169081156200018257899060018060a01b0319928084600054161760005583601654161760165516906017541617601755601a556bffffffff00000000000000006006549260401b169160018060601b0319161717600655600755601b556019551660a052426008556040516130cc9081620001f882396080518181816103db01528181611ad20152611cc4015260a0518181816110c20152611d100152f35b60405162461bcd60e51b815260206004820152601860248201527f43616e6e6f7420736574206f776e657220746f207a65726f00000000000000006044820152606490fd5b600080fd5b634e487b7160e01b600052604160045260246000fd5b51906001600160a01b0382168203620001c75756fe6080604052600436101561001257600080fd5b60003560e01c8063089ea02e1461025757806309c1ba2e146102525780630ca761751461024d5780631aa46f591461024857806324b93e3e14610243578063277e22131461023e578063338cdca114610239578063381fc4b5146102345780633944ea3a1461022f57806343cd3d861461022a5780634585e33b14610225578063472cbbb01461022057806348802b921461021b57806348bd6f05146102165780634b0795a8146102115780635e0611f11461020c578063688ecfd1146102075780636e04ff0d146102025780636e74336b146101fd57806379ba5097146101f85780637b103999146101f35780638b7afe2e146101ee5780638da5cb5b146101e9578063a3097139146101e4578063a3d3c0d2146101df578063b1e21749146101da578063bef3a2f0146101d5578063d1384eb6146101d0578063d2aa789f146101cb578063d811fcf0146101c6578063ebf14a55146101c1578063f2fde38b146101bc578063f5c1279b146101b7578063f68016b7146101b2578063fd2c80ae146101ad5763fffeb84e146101a857600080fd5b6113e7565b6113c9565b6113a5565b611387565b6112b4565b611296565b61126f565b611251565b61122a565b611183565b611165565b611147565b611129565b611102565b6110e6565b6110a2565b610fc2565b610fa4565b610f2b565b610e84565b610e5d565b610db6565b610d98565b610d7a565b610bc3565b610af7565b610aab565b610a04565b6109e6565b610905565b61089c565b6105fa565b6105dc565b610382565b61028a565b61026c565b600091031261026757565b600080fd5b34610267576000366003190112610267576020600854604051908152f35b3461026757600036600319011261026757602067ffffffffffffffff60065416604051908152f35b634e487b7160e01b600052604160045260246000fd5b67ffffffffffffffff81116102dc57604052565b6102b2565b6040810190811067ffffffffffffffff8211176102dc57604052565b90601f8019910116810190811067ffffffffffffffff8211176102dc57604052565b67ffffffffffffffff81116102dc57601f01601f191660200190565b81601f82011215610267578035906103528261031f565b9261036060405194856102fd565b8284526020838301011161026757816000926020809301838601378301015290565b3461026757606036600319011261026757600480359067ffffffffffffffff90602435828111610267576103b9903690830161033b565b604435838111610267576103d0903690840161033b565b906001600160a01b037f00000000000000000000000000000000000000000000000000000000000000001633036105b35780519384116102dc578261041f8561041a889654610689565b6114fd565b602080601f8711600114610509575094807f7bab0ec163b5c132c72b8146ac4d6e067e82ed58f8b131150aa71c925891156295966000916104fe575b508160011b916000199060031b1c19161790555b61047882612d4f565b61048b610486600a546116ed565b600a55565b60ff610499600b5460ff1690565b166104e0576104a781612e5c565b6104b660405192839283612f59565b0390a27f85e1543bf2f84fe80c6badbce3648c8539ad1df4d2b3d822938ca0538be727e6600080a2005b6104f16104ec82612e39565b601e55565b6104f9612fc9565b6104a7565b90508301513861045b565b600460005290601f1987167f8a35acfbc15ff81a39ae7d344fd709f28e8600b4aa8c65c6b64bfe7fe36bd19b926000905b8282106105975750509187917f7bab0ec163b5c132c72b8146ac4d6e067e82ed58f8b131150aa71c925891156297986001941061057e575b5050811b01905561046f565b85015160001960f88460031b161c191690553880610572565b8684015185558a9850600190940193928301929081019061053a565b826040517fc6829f83000000000000000000000000000000000000000000000000000000008152fd5b34610267576000366003190112610267576020600354604051908152f35b3461026757600036600319011261026757602060065463ffffffff6040519160401c168152f35b634e487b7160e01b600052603260045260246000fd5b601c5481101561066e57601c6000527f0e4562a10381dec21b205ed72637e6b1b523bdd0e4d4d50af5cd23dd4500a2110190600090565b610621565b634e487b7160e01b600052600060045260246000fd5b90600182811c921680156106b9575b60208310146106a357565b634e487b7160e01b600052602260045260246000fd5b91607f1691610698565b60405190600082601d54916106d783610689565b8083529260019081811690811561075f5750600114610700575b506106fe925003836102fd565b565b601d600090815291507f6d4407e7be21f808e6509aa9fa9143369579dd7d760fe20a2c09680fc146134f5b84831061074457506106fe9350508101602001386106f1565b81935090816020925483858a0101520191019091859261072b565b9050602092506106fe94915060ff191682840152151560051b820101386106f1565b906040519182600082549261079584610689565b90818452600194858116908160001461080257506001146107bf575b50506106fe925003836102fd565b9093915060005260209081600020936000915b8183106107ea5750506106fe935082010138806107b1565b855488840185015294850194879450918301916107d2565b9150506106fe94506020925060ff191682840152151560051b82010138806107b1565b60005b82811061083757506000910152565b608081015182820152602001610828565b919082519283825260005b848110610874575050826000602080949584010152601f8019910116010190565b602081830181015184830182015201610853565b906020610899928181520190610848565b90565b3461026757602036600319011261026757600435601c54811015610267576108ed61090191601c6000527f0e4562a10381dec21b205ed72637e6b1b523bdd0e4d4d50af5cd23dd4500a21101610781565b604051918291602083526020830190610848565b0390f35b34610267576000806003193601126109e3576040519080600d5461092881610689565b808552916001918083169081156109b9575060011461095e575b61090185610952818703826102fd565b60405191829182610888565b9250600d83527fd7b6990105719101dabeb77144f2a3385c8033acd3af97e9423a695e81ad1eb55b8284106109a157505050810160200161095282610901610942565b80546020858701810191909152909301928101610986565b8695506109019693506020925061095294915060ff191682840152151560051b8201019293610942565b80fd5b34610267576000366003190112610267576020600a54604051908152f35b34610267576000806003193601126109e3576040519080601154610a2781610689565b808552916001918083169081156109b95750600114610a505761090185610952818703826102fd565b9250601183527f31ecc21a745e3968a04e9570e4425bc18fa8019c68028196b546d1669c200c685b828410610a9357505050810160200161095282610901610942565b80546020858701810191909152909301928101610a78565b34610267576000366003190112610267576020601554604051908152f35b9181601f840112156102675782359167ffffffffffffffff8311610267576020838186019501011161026757565b346102675760203660031901126102675760043567ffffffffffffffff811161026757610b28903690600401610ac9565b50506000546001600160a01b03163381141580610b99575b610b4e57610b4c611a2f565b005b6018546040517f426fbc710000000000000000000000000000000000000000000000000000000081523360048201526001600160a01b03928316602482015291166044820152606490fd5b50610bbb610baf6018546001600160a01b031690565b6001600160a01b031690565b331415610b40565b346102675760a03660031901126102675767ffffffffffffffff60043581811161026757610bf5903690600401610ac9565b60243592918383168403610267576044359263ffffffff8416840361026757610c1c61148e565b82116102dc57610c3682610c31600254610689565b61155e565b600090601f8311600114610cd6579180610cb59592610c8a94600092610ccb575b50508160011b916000199060031b1c19161760025567ffffffffffffffff1667ffffffffffffffff196006541617600655565b6bffffffff00000000000000006006549160401b16906bffffffff0000000000000000191617600655565b610cc0606435600f55565b610b4c608435600755565b013590503880610c57565b60026000527f405787fa12a823e0f2b7631cc41b3ba8828b3321ca811111fa75cd3aa3bb5ace91601f198416815b818110610d625750926001928592610c8a96610cb5999610610d48575b505050811b0160025567ffffffffffffffff1667ffffffffffffffff196006541617600655565b0135600019600384901b60f8161c19169055388080610d21565b91936020600181928787013581550195019201610d04565b34610267576000366003190112610267576020601454604051908152f35b34610267576000366003190112610267576020601954604051908152f35b34610267576000806003193601126109e3576040519080601254610dd981610689565b808552916001918083169081156109b95750600114610e025761090185610952818703826102fd565b9250601283527fbb8a6a4669ba250d26cd7a459eca9d215f8307e33aebe50379bc5a3617ec34445b828410610e4557505050810160200161095282610901610942565b80546020858701810191909152909301928101610e2a565b346102675760003660031901126102675760206001600160a01b0360185416604051908152f35b34610267576000806003193601126109e3576040519080600254610ea781610689565b808552916001918083169081156109b95750600114610ed05761090185610952818703826102fd565b9250600283527f405787fa12a823e0f2b7631cc41b3ba8828b3321ca811111fa75cd3aa3bb5ace5b828410610f1357505050810160200161095282610901610942565b80546020858701810191909152909301928101610ef8565b346102675760203660031901126102675760043567ffffffffffffffff811161026757610f5c90369060040161033b565b506008544203428111610f9f5760075410604051908152604060208201526060818151806040830152610f9181848401610825565b601f01601f19168101030190f35b611644565b34610267576000366003190112610267576020600f54604051908152f35b34610267576000806003193601126109e3576001600160a01b038060015416330361105e5781546001600160a01b03166000805473ffffffffffffffffffffffffffffffffffffffff1916331790559061103473ffffffffffffffffffffffffffffffffffffffff1960015416600155565b3391167f8be0079c531659141344cd1fd0a4f28419497f9722a3daafe3b4186f6b6457e08380a380f35b606460405162461bcd60e51b815260206004820152601660248201527f4d7573742062652070726f706f736564206f776e6572000000000000000000006044820152fd5b346102675760003660031901126102675760206040516001600160a01b037f0000000000000000000000000000000000000000000000000000000000000000168152f35b3461026757600036600319011261026757602047604051908152f35b346102675760003660031901126102675760206001600160a01b0360005416604051908152f35b34610267576000366003190112610267576020601a54604051908152f35b34610267576000366003190112610267576020600954604051908152f35b34610267576000366003190112610267576020601054604051908152f35b34610267576000806003193601126109e35760405190806004546111a681610689565b808552916001918083169081156109b957506001146111cf5761090185610952818703826102fd565b9250600483527f8a35acfbc15ff81a39ae7d344fd709f28e8600b4aa8c65c6b64bfe7fe36bd19b5b82841061121257505050810160200161095282610901610942565b805460208587018101919091529093019281016111f7565b346102675760003660031901126102675760206001600160a01b0360165416604051908152f35b34610267576000366003190112610267576020600c54604051908152f35b346102675760003660031901126102675760206001600160a01b0360175416604051908152f35b34610267576000366003190112610267576020601b54604051908152f35b34610267576020366003190112610267576004356001600160a01b038116809103610267576112e161148e565b338114611343578073ffffffffffffffffffffffffffffffffffffffff19600154161760015561131c610baf6000546001600160a01b031690565b7fed8889f560326eb138920d842192f0eb3dd22b4f139c87a2c57538e05bae1278600080a3005b606460405162461bcd60e51b815260206004820152601760248201527f43616e6e6f74207472616e7366657220746f2073656c660000000000000000006044820152fd5b34610267576000366003190112610267576020601354604051908152f35b3461026757600036600319011261026757602063ffffffff600e5416604051908152f35b34610267576000366003190112610267576020600754604051908152f35b34610267576000806003193601126109e357604051908060055461140a81610689565b808552916001918083169081156109b957506001146114335761090185610952818703826102fd565b9250600583527f036b6384b5eca791c62761152d0c79bb0604c104a5fb6f4eb0703f3154bb3db05b82841061147657505050810160200161095282610901610942565b8054602085870181019190915290930192810161145b565b6001600160a01b036000541633036114a257565b606460405162461bcd60e51b815260206004820152601660248201527f4f6e6c792063616c6c61626c65206279206f776e6572000000000000000000006044820152fd5b8181106114f1575050565b600081556001016114e6565b90601f821161150a575050565b6106fe9160046000527f8a35acfbc15ff81a39ae7d344fd709f28e8600b4aa8c65c6b64bfe7fe36bd19b906020601f840160051c83019310611554575b601f0160051c01906114e6565b9091508190611547565b90601f821161156b575050565b6106fe9160026000527f405787fa12a823e0f2b7631cc41b3ba8828b3321ca811111fa75cd3aa3bb5ace906020601f840160051c8301931061155457601f0160051c01906114e6565b90601f82116115c1575050565b6106fe9160056000527f036b6384b5eca791c62761152d0c79bb0604c104a5fb6f4eb0703f3154bb3db0906020601f840160051c8301931061155457601f0160051c01906114e6565b9190601f811161161957505050565b6106fe926000526020600020906020601f840160051c8301931061155457601f0160051c01906114e6565b634e487b7160e01b600052601160045260246000fd5b601f19810191908211610f9f57565b60606008544203428111610f9f576007541091565b604051906020820182811067ffffffffffffffff8211176102dc5760405260008252565b156116a957565b606460405162461bcd60e51b815260206004820152601560248201527f54696d6520696e74657276616c206e6f74206d657400000000000000000000006044820152fd5b9060018201809211610f9f57565b9060208201809211610f9f57565b91908201809211610f9f57565b1561171d57565b606460405162461bcd60e51b815260206004820152601560248201527f55706b656570206e6f74207265676973746572656400000000000000000000006044820152fd5b6040519060e0820182811067ffffffffffffffff8211176102dc57604052606060c08360008152600060208201526000604082015282808201528260808201528260a08201520152565b601c549067ffffffffffffffff82116102dc576040519160206117d3818360051b01856102fd565b81845280840190601c6000527f0e4562a10381dec21b205ed72637e6b1b523bdd0e4d4d50af5cd23dd4500a2116000925b848410611812575050505050565b600183819261182085610781565b815201920193019290611804565b90816020910312610267575190565b9061186b60809367ffffffffffffffff63ffffffff939897969816845260a0602085015260a0840190610848565b95600160408401521660608201520152565b6040513d6000823e3d90fd5b60009060033d1161189657565b905060046000803e60005160e01c90565b600060443d1061089957604051600319913d83016004833e815167ffffffffffffffff918282113d6024840111176119055781840194855193841161190d573d850101602084870101116119055750610899929101602001906102fd565b949350505050565b50949350505050565b3d15611941573d906119278261031f565b9161193560405193846102fd565b82523d6000602084013e565b606090565b9067ffffffffffffffff909493929416815260209360a08583015260006002549561197087610689565b908160a08601526001978881169081600014611a0657506001146119aa575b5050604083019590955263ffffffff16606082015260800152565b600260009081529250877f405787fa12a823e0f2b7631cc41b3ba8828b3321ca811111fa75cd3aa3bb5ace5b8385106119f15750505050820160c0018163ffffffff61198f565b805487860160c00152938201938991016119d6565b60ff191660c08781019190915292151560051b8601909201925083915063ffffffff905061198f565b611a3761167e565b50611a49611a43611669565b506116a2565b611a5242600855565b611a65611a606009546116ed565b600955565b601b54601c541015611c1457611a84611a7f6013546116ed565b601355565b60065467ffffffffffffffff166020611aa2600e5463ffffffff1690565b600f5492611ac4604051948593849363230e93b160e11b855260048501611946565b038160006001600160a01b037f0000000000000000000000000000000000000000000000000000000000000000165af160009181611be4575b50611ba157506001611b0d611889565b6308c379a014611b4f575b611b1e57565b7f9c4bfa18304482256875c29fabb1a44a5ecd325f214ea17bab8f31e869faf4c8611b4a610952611916565b0390a1565b611b576118a7565b80611b63575b50611b18565b90507f2ba61e3733e7ac99181c22307780f651ec8fd92fe661a84dfbe711710b2dc36c611b9860009260405191829182610888565b0390a138611b5d565b611baa81601055565b611bbd611bb86014546116ed565b601455565b7f1131472297a800fee664d1d89cfa8f7676ff07189ecc53f80bbb5f4969099db8600080a2565b611c0691925060203d8111611c0d575b611bfe81836102fd565b81019061182e565b9038611afd565b503d611bf4565b611c21600c541515611716565b611c33600160ff19600b541617600b55565b611c65611c3e611761565b611c4f611c496106c3565b82612250565b611c60611c5a6117ab565b82612291565b612065565b611c73611a7f6013546116ed565b60065467ffffffffffffffff16611caf611c92600e5463ffffffff1690565b600f549060405194859463230e93b160e11b86526004860161183d565b036000916020816001600160a01b03938186867f0000000000000000000000000000000000000000000000000000000000000000165af1839181611e64575b50611e2457506001611cfe611889565b6308c379a014611dd3575b611d9f575b7f000000000000000000000000000000000000000000000000000000000000000016600c54813b15611d9b576040517f8765ecbe000000000000000000000000000000000000000000000000000000008152600481019190915291908290602490829084905af18015611d9657611d83575b50565b80611d906106fe926102c8565b8061025c565b61187d565b8280fd5b7f9c4bfa18304482256875c29fabb1a44a5ecd325f214ea17bab8f31e869faf4c8611dcb610952611916565b0390a1611d0e565b611ddb6118a7565b80611de7575b50611d09565b90507f2ba61e3733e7ac99181c22307780f651ec8fd92fe661a84dfbe711710b2dc36c611e1b849260405191829182610888565b0390a138611de1565b611e2d81601055565b611e3b611bb86014546116ed565b7f1131472297a800fee664d1d89cfa8f7676ff07189ecc53f80bbb5f4969099db88380a2611d0e565b611e7d91925060203d8111611c0d57611bfe81836102fd565b9038611cee565b60405190611e91826102e1565b600c82527f636f64654c6f636174696f6e00000000000000000000000000000000000000006020830152565b634e487b7160e01b600052602160045260246000fd5b60031115611edd57565b611ebd565b60405190611eef826102e1565b600882527f6c616e67756167650000000000000000000000000000000000000000000000006020830152565b60011115611edd57565b60405190611f32826102e1565b600682527f736f7572636500000000000000000000000000000000000000000000000000006020830152565b60405190611f6b826102e1565b600482527f61726773000000000000000000000000000000000000000000000000000000006020830152565b6000198114610f9f5760010190565b805182101561066e5760209160051b010190565b60405190611fc7826102e1565b600f82527f736563726574734c6f636174696f6e00000000000000000000000000000000006020830152565b60405190612000826102e1565b600782527f73656372657473000000000000000000000000000000000000000000000000006020830152565b60405190612039826102e1565b600982527f62797465734172677300000000000000000000000000000000000000000000006020830152565b61206d6122e2565b9061207f612079611e84565b83612a0e565b61209c815161208d81611ed3565b61209681611ed3565b83612384565b6120a7612079611ee2565b6120c160408201516120b881611f1b565b61209681611f1b565b6120cc612079611f25565b6120da606082015183612a0e565b60a081018051516121f7575b50608081019081515161215f575b60c0915001805151612107575b50515190565b9161211361207961202c565b61211c82612a93565b60005b8351805182101561214c579061214261213b8261214794611fa6565b518561295b565b611f97565b61211f565b5050915061215981612b1f565b38612101565b60208101805161216e81611ed3565b61217781611ed3565b156121cd5760c0926121b06121c892612197612191611fba565b88612a0e565b516121a181611ed3565b6121aa81611ed3565b86612384565b6121c16121bb611ff3565b86612a0e565b518461295b565b6120f4565b60046040517fa80d31f7000000000000000000000000000000000000000000000000000000008152fd5b92612209612203611f5e565b84612a0e565b61221283612a93565b60005b8451805182101561223d57906121426122318261223894611fa6565b5186612a0e565b612215565b5050925061224a82612b1f565b386120e6565b815115612267576000808252604082015260600152565b60046040517f22ce3edd000000000000000000000000000000000000000000000000000000008152fd5b81511561229e5760a00152565b60046040517ffe936cb7000000000000000000000000000000000000000000000000000000008152fd5b604051906122d5826102e1565b6000602083606081520152565b6040516122ee816102e1565b6122f66122c8565b80825260208201600081526123096122c8565b506101006020830152604051809252600082526101208201918210610267576000916040525290565b9061233b6122c8565b50601f81168061236a575b50806020830152604051908183526000825281016020019081106102675760405290565b60200360208111610f9f578101809111610f9f5738612346565b908151916123906122c8565b508251516001810190818111610f9f5760208501518110156123e9575b60c260206106fe96519283010153805182116123e1575b5050604051916020830152602082526123dc826102e1565b61295b565b5238806123c4565b8160011b9482860460021483151715610f9f5760208161241b6106fe9861241460c295519184612332565b50826128a3565b50965050506123ad565b908160011b9180830460021490151715610f9f57565b6124436122c8565b508051516001810190818111610f9f57602083015181101561247c575b605b6020845192830101538051821161247857505090565b5290565b8160011b82810460021483151715610f9f576124a59061249e85519186612332565b50846128a3565b50612460565b6124b36122c8565b508051516001810190818111610f9f5760208301518110156124e8575b605a6020845192830101538051821161247857505090565b8160011b82810460021483151715610f9f5761250a9061249e85519186612332565b506124d0565b6125186122c8565b508051516001810190818111610f9f57602083015181101561254d575b60596020845192830101538051821161247857505090565b8160011b82810460021483151715610f9f5761256f9061249e85519186612332565b50612535565b61257d6122c8565b508051516001810190818111610f9f5760208301518110156125b2575b60586020845192830101538051821161247857505090565b8160011b82810460021483151715610f9f576125d49061249e85519186612332565b5061259a565b6125e26122c8565b508051516001810190818111610f9f576020830151811015612617575b607b6020845192830101538051821161247857505090565b8160011b82810460021483151715610f9f576126399061249e85519186612332565b506125ff565b6126476122c8565b508051516001810190818111610f9f57602083015181101561267c575b607a6020845192830101538051821161247857505090565b8160011b82810460021483151715610f9f5761269e9061249e85519186612332565b50612664565b6126ac6122c8565b508051516001810190818111610f9f5760208301518110156126e1575b60796020845192830101538051821161247857505090565b8160011b82810460021483151715610f9f576127039061249e85519186612332565b506126c9565b6127116122c8565b508051516001810190818111610f9f576020830151811015612746575b60786020845192830101538051821161247857505090565b8160011b82810460021483151715610f9f576127689061249e85519186612332565b5061272e565b906127776122c8565b508151516001810191828211610f9f5760208401518210156127aa575b6020845192830101538051821161247857505090565b8260011b83810460021484151715610f9f576127d3906127cc86519187612332565b50856128a3565b50612794565b906127e682519183612332565b506127ef6122c8565b508051906127fb6122c8565b506128098151831115612954565b825151926128178385611709565b91602092828480940151821161288c575b5183815197820101968211612884575b505001915b8181101561285e5760001991036101000a0190811990511690825116179052565b919261287961287361287f92865181526116fb565b946116fb565b9261165a565b61283d565b523880612838565b61289e61289883612425565b826127d9565b612828565b906128ac6122c8565b5080516128b76122c8565b506128c58251821115612954565b825151916128d38284611709565b602091829182870151811161293d575b865183815197820101968211612935575b505001915b8181101561291b5760001991036101000a019081199051169082511617905290565b919261287961287361293092865181526116fb565b6128f9565b5238806128f4565b61294f61294982612425565b886127d9565b6128e3565b1561026757565b8151611d8092919067ffffffffffffffff811690601782116129935761298b9150604060ff84519216179061276e565b505b516128a3565b5060ff81116129b8576129b2906129aa8351612575565b508251612ce9565b5061298d565b61ffff81116129d7576129b2906129cf8351612510565b508251612c82565b63ffffffff81116129f8576129b2906129f083516124ab565b508251612c19565b6129b290612a06835161243b565b508251612bac565b8151611d8092919067ffffffffffffffff81169060178211612a3e5761298b9150606060ff84519216179061276e565b5060ff8111612a55576129b2906129aa8351612709565b61ffff8111612a6c576129b2906129cf83516126a4565b63ffffffff8111612a85576129b2906129f0835161263f565b6129b290612a0683516125da565b805190612a9e6122c8565b508151516001810190818111610f9f576020840151811015612aec575b609f6020809551928301015380518211612ae4575b50500180519060018201809211610f9f5752565b523880612ad0565b8160011b9382850460021483151715610f9f57602081612b158297612414609f95519184612332565b5095505050612abb565b805190612b2a6122c8565b508151516001810190818111610f9f576020840151811015612b79575b60ff6020809551928301015380518211612b71575b5050018051600019810191908211610f9f5752565b523880612b5c565b8160011b9382850460021483151715610f9f57602081612ba2829761241460ff95519184612332565b5095505050612b47565b90612bb56122c8565b50815151806008019182600811610f9f5760208401518311612bf8575b60088451928301019067ffffffffffffffff198251161790528051821161247857505090565b8260011b83810460021484151715610f9f57612c1490856127d9565b612bd2565b90612c226122c8565b50815151806004019182600411610f9f5760208401518311612c61575b60048451928301019063ffffffff198251161790528051821161247857505090565b8260011b83810460021484151715610f9f57612c7d90856127d9565b612c3f565b90612c8b6122c8565b50815151806002019182600211610f9f5760208401518311612cc8575b60028451928301019061ffff198251161790528051821161247857505090565b8260011b83810460021484151715610f9f57612ce490856127d9565b612ca8565b90612cf26122c8565b50815151806001019182600111610f9f5760208401518311612d2e575b60018451928301019060ff198251161790528051821161247857505090565b8260011b83810460021484151715610f9f57612d4a90856127d9565b612d0f565b90815167ffffffffffffffff81116102dc57612d7581612d70600554610689565b6115b4565b602080601f8311600114612db15750819293600092612da6575b50508160011b916000199060031b1c191617600555565b015190503880612d8f565b90601f19831694612de460056000527f036b6384b5eca791c62761152d0c79bb0604c104a5fb6f4eb0703f3154bb3db090565b926000905b878210612e21575050836001959610612e08575b505050811b01600555565b015160001960f88460031b161c19169055388080612dfd565b80600185968294968601518155019501930190612de9565b602081519101519060208110612e4d575090565b6000199060200360031b1b1690565b601c54680100000000000000008110156102dc57612e81600191828101601c55610637565b929092612f545780519067ffffffffffffffff82116102dc57612eae82612ea88654610689565b8661160a565b60209081601f8411600114612eea5750928293918392600094612edf575b50501b916000199060031b1c1916179055565b015192503880612ecc565b919083601f198116612f0188600052602060002090565b946000905b88838310612f3a5750505010612f21575b505050811b019055565b015160001960f88460031b161c19169055388080612f17565b858701518855909601959485019487935090810190612f06565b610673565b9091612f7061089993604084526040840190610848565b916020818403910152610848565b15612f8557565b606460405162461bcd60e51b815260206004820152601b60248201527f4572726f20616f207061676172206120696e64656e697a6163616f00000000006044820152fd5b601e54601a541115613007576106fe6000808080612ff5610baf610baf6017546001600160a01b031690565b47905af1613001611916565b50612f7e565b60008080806001600160a01b036016541647905af1613024611916565b501561302c57565b608460405162461bcd60e51b815260206004820152602d60248201527f4572726f20616f207265746f726e6172206f732066756e646f7320706172612060448201527f6120696e73746974756963616f000000000000000000000000000000000000006064820152fdfea2646970667358221220cc8009dfe7bec07a20df5bc39458d8ebcd6c886be4026a6b83fa75e14a32ad4c64736f6c63430008130033","opcodes":"PUSH1 0x1 PUSH1 0x1 PUSH1 0x40 SHL SUB PUSH1 0xC0 PUSH1 0x1F PUSH3 0x32C4 CODESIZE DUP2 SWAP1 SUB SWAP2 DUP3 ADD PUSH1 0x1F NOT AND DUP4 ADD SWAP2 DUP5 DUP4 GT DUP5 DUP5 LT OR PUSH3 0x1CC JUMPI DUP1 DUP5 SWAP3 PUSH2 0x180 SWAP5 PUSH1 0x40 MSTORE DUP4 CODECOPY DUP2 ADD SUB SLT PUSH3 0x1C7 JUMPI PUSH3 0x49 DUP2 PUSH3 0x1E2 JUMP JUMPDEST SWAP2 PUSH3 0x58 PUSH1 0x20 DUP4 ADD PUSH3 0x1E2 JUMP JUMPDEST PUSH1 0x40 DUP4 ADD MLOAD PUSH1 0x60 DUP5 ADD MLOAD SWAP2 PUSH1 0x80 DUP6 ADD MLOAD SWAP4 PUSH1 0xA0 DUP7 ADD MLOAD SWAP3 PUSH3 0x7D PUSH1 0xC0 DUP9 ADD PUSH3 0x1E2 JUMP JUMPDEST SWAP3 PUSH1 0xE0 DUP9 ADD MLOAD SWAP3 DUP4 AND DUP1 SWAP4 SUB PUSH3 0x1C7 JUMPI PUSH2 0x160 PUSH3 0xA0 PUSH2 0x100 DUP11 ADD PUSH3 0x1E2 JUMP JUMPDEST SWAP9 PUSH3 0xB0 PUSH2 0x120 DUP3 ADD PUSH3 0x1E2 JUMP JUMPDEST POP PUSH3 0xC0 PUSH2 0x140 DUP3 ADD PUSH3 0x1E2 JUMP JUMPDEST POP ADD MLOAD SWAP4 PUSH4 0xFFFFFFFF DUP6 AND DUP6 SUB PUSH3 0x1C7 JUMPI PUSH1 0x1 PUSH1 0x1 PUSH1 0xA0 SHL SUB SWAP1 DUP2 AND PUSH1 0x80 MSTORE SWAP9 DUP10 AND SWAP1 DUP2 ISZERO PUSH3 0x182 JUMPI DUP10 SWAP1 PUSH1 0x1 DUP1 PUSH1 0xA0 SHL SUB NOT SWAP3 DUP1 DUP5 PUSH1 0x0 SLOAD AND OR PUSH1 0x0 SSTORE DUP4 PUSH1 0x16 SLOAD AND OR PUSH1 0x16 SSTORE AND SWAP1 PUSH1 0x17 SLOAD AND OR PUSH1 0x17 SSTORE PUSH1 0x1A SSTORE PUSH12 0xFFFFFFFF0000000000000000 PUSH1 0x6 SLOAD SWAP3 PUSH1 0x40 SHL AND SWAP2 PUSH1 0x1 DUP1 PUSH1 0x60 SHL SUB NOT AND OR OR PUSH1 0x6 SSTORE PUSH1 0x7 SSTORE PUSH1 0x1B SSTORE PUSH1 0x19 SSTORE AND PUSH1 0xA0 MSTORE TIMESTAMP PUSH1 0x8 SSTORE PUSH1 0x40 MLOAD PUSH2 0x30CC SWAP1 DUP2 PUSH3 0x1F8 DUP3 CODECOPY PUSH1 0x80 MLOAD DUP2 DUP2 DUP2 PUSH2 0x3DB ADD MSTORE DUP2 DUP2 PUSH2 0x1AD2 ADD MSTORE PUSH2 0x1CC4 ADD MSTORE PUSH1 0xA0 MLOAD DUP2 DUP2 DUP2 PUSH2 0x10C2 ADD MSTORE PUSH2 0x1D10 ADD MSTORE RETURN JUMPDEST PUSH1 0x40 MLOAD PUSH3 0x461BCD PUSH1 0xE5 SHL DUP2 MSTORE PUSH1 0x20 PUSH1 0x4 DUP3 ADD MSTORE PUSH1 0x18 PUSH1 0x24 DUP3 ADD MSTORE PUSH32 0x43616E6E6F7420736574206F776E657220746F207A65726F0000000000000000 PUSH1 0x44 DUP3 ADD MSTORE PUSH1 0x64 SWAP1 REVERT JUMPDEST PUSH1 0x0 DUP1 REVERT JUMPDEST PUSH4 0x4E487B71 PUSH1 0xE0 SHL PUSH1 0x0 MSTORE PUSH1 0x41 PUSH1 0x4 MSTORE PUSH1 0x24 PUSH1 0x0 REVERT JUMPDEST MLOAD SWAP1 PUSH1 0x1 PUSH1 0x1 PUSH1 0xA0 SHL SUB DUP3 AND DUP3 SUB PUSH3 0x1C7 JUMPI JUMP INVALID PUSH1 0x80 PUSH1 0x40 MSTORE PUSH1 0x4 CALLDATASIZE LT ISZERO PUSH2 0x12 JUMPI PUSH1 0x0 DUP1 REVERT JUMPDEST PUSH1 0x0 CALLDATALOAD PUSH1 0xE0 SHR DUP1 PUSH4 0x89EA02E EQ PUSH2 0x257 JUMPI DUP1 PUSH4 0x9C1BA2E EQ PUSH2 0x252 JUMPI DUP1 PUSH4 0xCA76175 EQ PUSH2 0x24D JUMPI DUP1 PUSH4 0x1AA46F59 EQ PUSH2 0x248 JUMPI DUP1 PUSH4 0x24B93E3E EQ PUSH2 0x243 JUMPI DUP1 PUSH4 0x277E2213 EQ PUSH2 0x23E JUMPI DUP1 PUSH4 0x338CDCA1 EQ PUSH2 0x239 JUMPI DUP1 PUSH4 0x381FC4B5 EQ PUSH2 0x234 JUMPI DUP1 PUSH4 0x3944EA3A EQ PUSH2 0x22F JUMPI DUP1 PUSH4 0x43CD3D86 EQ PUSH2 0x22A JUMPI DUP1 PUSH4 0x4585E33B EQ PUSH2 0x225 JUMPI DUP1 PUSH4 0x472CBBB0 EQ PUSH2 0x220 JUMPI DUP1 PUSH4 0x48802B92 EQ PUSH2 0x21B JUMPI DUP1 PUSH4 0x48BD6F05 EQ PUSH2 0x216 JUMPI DUP1 PUSH4 0x4B0795A8 EQ PUSH2 0x211 JUMPI DUP1 PUSH4 0x5E0611F1 EQ PUSH2 0x20C JUMPI DUP1 PUSH4 0x688ECFD1 EQ PUSH2 0x207 JUMPI DUP1 PUSH4 0x6E04FF0D EQ PUSH2 0x202 JUMPI DUP1 PUSH4 0x6E74336B EQ PUSH2 0x1FD JUMPI DUP1 PUSH4 0x79BA5097 EQ PUSH2 0x1F8 JUMPI DUP1 PUSH4 0x7B103999 EQ PUSH2 0x1F3 JUMPI DUP1 PUSH4 0x8B7AFE2E EQ PUSH2 0x1EE JUMPI DUP1 PUSH4 0x8DA5CB5B EQ PUSH2 0x1E9 JUMPI DUP1 PUSH4 0xA3097139 EQ PUSH2 0x1E4 JUMPI DUP1 PUSH4 0xA3D3C0D2 EQ PUSH2 0x1DF JUMPI DUP1 PUSH4 0xB1E21749 EQ PUSH2 0x1DA JUMPI DUP1 PUSH4 0xBEF3A2F0 EQ PUSH2 0x1D5 JUMPI DUP1 PUSH4 0xD1384EB6 EQ PUSH2 0x1D0 JUMPI DUP1 PUSH4 0xD2AA789F EQ PUSH2 0x1CB JUMPI DUP1 PUSH4 0xD811FCF0 EQ PUSH2 0x1C6 JUMPI DUP1 PUSH4 0xEBF14A55 EQ PUSH2 0x1C1 JUMPI DUP1 PUSH4 0xF2FDE38B EQ PUSH2 0x1BC JUMPI DUP1 PUSH4 0xF5C1279B EQ PUSH2 0x1B7 JUMPI DUP1 PUSH4 0xF68016B7 EQ PUSH2 0x1B2 JUMPI DUP1 PUSH4 0xFD2C80AE EQ PUSH2 0x1AD JUMPI PUSH4 0xFFFEB84E EQ PUSH2 0x1A8 JUMPI PUSH1 0x0 DUP1 REVERT JUMPDEST PUSH2 0x13E7 JUMP JUMPDEST PUSH2 0x13C9 JUMP JUMPDEST PUSH2 0x13A5 JUMP JUMPDEST PUSH2 0x1387 JUMP JUMPDEST PUSH2 0x12B4 JUMP JUMPDEST PUSH2 0x1296 JUMP JUMPDEST PUSH2 0x126F JUMP JUMPDEST PUSH2 0x1251 JUMP JUMPDEST PUSH2 0x122A JUMP JUMPDEST PUSH2 0x1183 JUMP JUMPDEST PUSH2 0x1165 JUMP JUMPDEST PUSH2 0x1147 JUMP JUMPDEST PUSH2 0x1129 JUMP JUMPDEST PUSH2 0x1102 JUMP JUMPDEST PUSH2 0x10E6 JUMP JUMPDEST PUSH2 0x10A2 JUMP JUMPDEST PUSH2 0xFC2 JUMP JUMPDEST PUSH2 0xFA4 JUMP JUMPDEST PUSH2 0xF2B JUMP JUMPDEST PUSH2 0xE84 JUMP JUMPDEST PUSH2 0xE5D JUMP JUMPDEST PUSH2 0xDB6 JUMP JUMPDEST PUSH2 0xD98 JUMP JUMPDEST PUSH2 0xD7A JUMP JUMPDEST PUSH2 0xBC3 JUMP JUMPDEST PUSH2 0xAF7 JUMP JUMPDEST PUSH2 0xAAB JUMP JUMPDEST PUSH2 0xA04 JUMP JUMPDEST PUSH2 0x9E6 JUMP JUMPDEST PUSH2 0x905 JUMP JUMPDEST PUSH2 0x89C JUMP JUMPDEST PUSH2 0x5FA JUMP JUMPDEST PUSH2 0x5DC JUMP JUMPDEST PUSH2 0x382 JUMP JUMPDEST PUSH2 0x28A JUMP JUMPDEST PUSH2 0x26C JUMP JUMPDEST PUSH1 0x0 SWAP2 SUB SLT PUSH2 0x267 JUMPI JUMP JUMPDEST PUSH1 0x0 DUP1 REVERT JUMPDEST CALLVALUE PUSH2 0x267 JUMPI PUSH1 0x0 CALLDATASIZE PUSH1 0x3 NOT ADD SLT PUSH2 0x267 JUMPI PUSH1 0x20 PUSH1 0x8 SLOAD PUSH1 0x40 MLOAD SWAP1 DUP2 MSTORE RETURN JUMPDEST CALLVALUE PUSH2 0x267 JUMPI PUSH1 0x0 CALLDATASIZE PUSH1 0x3 NOT ADD SLT PUSH2 0x267 JUMPI PUSH1 0x20 PUSH8 0xFFFFFFFFFFFFFFFF PUSH1 0x6 SLOAD AND PUSH1 0x40 MLOAD SWAP1 DUP2 MSTORE RETURN JUMPDEST PUSH4 0x4E487B71 PUSH1 0xE0 SHL PUSH1 0x0 MSTORE PUSH1 0x41 PUSH1 0x4 MSTORE PUSH1 0x24 PUSH1 0x0 REVERT JUMPDEST PUSH8 0xFFFFFFFFFFFFFFFF DUP2 GT PUSH2 0x2DC JUMPI PUSH1 0x40 MSTORE JUMP JUMPDEST PUSH2 0x2B2 JUMP JUMPDEST PUSH1 0x40 DUP2 ADD SWAP1 DUP2 LT PUSH8 0xFFFFFFFFFFFFFFFF DUP3 GT OR PUSH2 0x2DC JUMPI PUSH1 0x40 MSTORE JUMP JUMPDEST SWAP1 PUSH1 0x1F DUP1 NOT SWAP2 ADD AND DUP2 ADD SWAP1 DUP2 LT PUSH8 0xFFFFFFFFFFFFFFFF DUP3 GT OR PUSH2 0x2DC JUMPI PUSH1 0x40 MSTORE JUMP JUMPDEST PUSH8 0xFFFFFFFFFFFFFFFF DUP2 GT PUSH2 0x2DC JUMPI PUSH1 0x1F ADD PUSH1 0x1F NOT AND PUSH1 0x20 ADD SWAP1 JUMP JUMPDEST DUP2 PUSH1 0x1F DUP3 ADD SLT ISZERO PUSH2 0x267 JUMPI DUP1 CALLDATALOAD SWAP1 PUSH2 0x352 DUP3 PUSH2 0x31F JUMP JUMPDEST SWAP3 PUSH2 0x360 PUSH1 0x40 MLOAD SWAP5 DUP6 PUSH2 0x2FD JUMP JUMPDEST DUP3 DUP5 MSTORE PUSH1 0x20 DUP4 DUP4 ADD ADD GT PUSH2 0x267 JUMPI DUP2 PUSH1 0x0 SWAP3 PUSH1 0x20 DUP1 SWAP4 ADD DUP4 DUP7 ADD CALLDATACOPY DUP4 ADD ADD MSTORE SWAP1 JUMP JUMPDEST CALLVALUE PUSH2 0x267 JUMPI PUSH1 0x60 CALLDATASIZE PUSH1 0x3 NOT ADD SLT PUSH2 0x267 JUMPI PUSH1 0x4 DUP1 CALLDATALOAD SWAP1 PUSH8 0xFFFFFFFFFFFFFFFF SWAP1 PUSH1 0x24 CALLDATALOAD DUP3 DUP2 GT PUSH2 0x267 JUMPI PUSH2 0x3B9 SWAP1 CALLDATASIZE SWAP1 DUP4 ADD PUSH2 0x33B JUMP JUMPDEST PUSH1 0x44 CALLDATALOAD DUP4 DUP2 GT PUSH2 0x267 JUMPI PUSH2 0x3D0 SWAP1 CALLDATASIZE SWAP1 DUP5 ADD PUSH2 0x33B JUMP JUMPDEST SWAP1 PUSH1 0x1 PUSH1 0x1 PUSH1 0xA0 SHL SUB PUSH32 0x0 AND CALLER SUB PUSH2 0x5B3 JUMPI DUP1 MLOAD SWAP4 DUP5 GT PUSH2 0x2DC JUMPI DUP3 PUSH2 0x41F DUP6 PUSH2 0x41A DUP9 SWAP7 SLOAD PUSH2 0x689 JUMP JUMPDEST PUSH2 0x14FD JUMP JUMPDEST PUSH1 0x20 DUP1 PUSH1 0x1F DUP8 GT PUSH1 0x1 EQ PUSH2 0x509 JUMPI POP SWAP5 DUP1 PUSH32 0x7BAB0EC163B5C132C72B8146AC4D6E067E82ED58F8B131150AA71C9258911562 SWAP6 SWAP7 PUSH1 0x0 SWAP2 PUSH2 0x4FE JUMPI JUMPDEST POP DUP2 PUSH1 0x1 SHL SWAP2 PUSH1 0x0 NOT SWAP1 PUSH1 0x3 SHL SHR NOT AND OR SWAP1 SSTORE JUMPDEST PUSH2 0x478 DUP3 PUSH2 0x2D4F JUMP JUMPDEST PUSH2 0x48B PUSH2 0x486 PUSH1 0xA SLOAD PUSH2 0x16ED JUMP JUMPDEST PUSH1 0xA SSTORE JUMP JUMPDEST PUSH1 0xFF PUSH2 0x499 PUSH1 0xB SLOAD PUSH1 0xFF AND SWAP1 JUMP JUMPDEST AND PUSH2 0x4E0 JUMPI PUSH2 0x4A7 DUP2 PUSH2 0x2E5C JUMP JUMPDEST PUSH2 0x4B6 PUSH1 0x40 MLOAD SWAP3 DUP4 SWAP3 DUP4 PUSH2 0x2F59 JUMP JUMPDEST SUB SWAP1 LOG2 PUSH32 0x85E1543BF2F84FE80C6BADBCE3648C8539AD1DF4D2B3D822938CA0538BE727E6 PUSH1 0x0 DUP1 LOG2 STOP JUMPDEST PUSH2 0x4F1 PUSH2 0x4EC DUP3 PUSH2 0x2E39 JUMP JUMPDEST PUSH1 0x1E SSTORE JUMP JUMPDEST PUSH2 0x4F9 PUSH2 0x2FC9 JUMP JUMPDEST PUSH2 0x4A7 JUMP JUMPDEST SWAP1 POP DUP4 ADD MLOAD CODESIZE PUSH2 0x45B JUMP JUMPDEST PUSH1 0x4 PUSH1 0x0 MSTORE SWAP1 PUSH1 0x1F NOT DUP8 AND PUSH32 0x8A35ACFBC15FF81A39AE7D344FD709F28E8600B4AA8C65C6B64BFE7FE36BD19B SWAP3 PUSH1 0x0 SWAP1 JUMPDEST DUP3 DUP3 LT PUSH2 0x597 JUMPI POP POP SWAP2 DUP8 SWAP2 PUSH32 0x7BAB0EC163B5C132C72B8146AC4D6E067E82ED58F8B131150AA71C9258911562 SWAP8 SWAP9 PUSH1 0x1 SWAP5 LT PUSH2 0x57E JUMPI JUMPDEST POP POP DUP2 SHL ADD SWAP1 SSTORE PUSH2 0x46F JUMP JUMPDEST DUP6 ADD MLOAD PUSH1 0x0 NOT PUSH1 0xF8 DUP5 PUSH1 0x3 SHL AND SHR NOT AND SWAP1 SSTORE CODESIZE DUP1 PUSH2 0x572 JUMP JUMPDEST DUP7 DUP5 ADD MLOAD DUP6 SSTORE DUP11 SWAP9 POP PUSH1 0x1 SWAP1 SWAP5 ADD SWAP4 SWAP3 DUP4 ADD SWAP3 SWAP1 DUP2 ADD SWAP1 PUSH2 0x53A JUMP JUMPDEST DUP3 PUSH1 0x40 MLOAD PUSH32 0xC6829F8300000000000000000000000000000000000000000000000000000000 DUP2 MSTORE REVERT JUMPDEST CALLVALUE PUSH2 0x267 JUMPI PUSH1 0x0 CALLDATASIZE PUSH1 0x3 NOT ADD SLT PUSH2 0x267 JUMPI PUSH1 0x20 PUSH1 0x3 SLOAD PUSH1 0x40 MLOAD SWAP1 DUP2 MSTORE RETURN JUMPDEST CALLVALUE PUSH2 0x267 JUMPI PUSH1 0x0 CALLDATASIZE PUSH1 0x3 NOT ADD SLT PUSH2 0x267 JUMPI PUSH1 0x20 PUSH1 0x6 SLOAD PUSH4 0xFFFFFFFF PUSH1 0x40 MLOAD SWAP2 PUSH1 0x40 SHR AND DUP2 MSTORE RETURN JUMPDEST PUSH4 0x4E487B71 PUSH1 0xE0 SHL PUSH1 0x0 MSTORE PUSH1 0x32 PUSH1 0x4 MSTORE PUSH1 0x24 PUSH1 0x0 REVERT JUMPDEST PUSH1 0x1C SLOAD DUP2 LT ISZERO PUSH2 0x66E JUMPI PUSH1 0x1C PUSH1 0x0 MSTORE PUSH32 0xE4562A10381DEC21B205ED72637E6B1B523BDD0E4D4D50AF5CD23DD4500A211 ADD SWAP1 PUSH1 0x0 SWAP1 JUMP JUMPDEST PUSH2 0x621 JUMP JUMPDEST PUSH4 0x4E487B71 PUSH1 0xE0 SHL PUSH1 0x0 MSTORE PUSH1 0x0 PUSH1 0x4 MSTORE PUSH1 0x24 PUSH1 0x0 REVERT JUMPDEST SWAP1 PUSH1 0x1 DUP3 DUP2 SHR SWAP3 AND DUP1 ISZERO PUSH2 0x6B9 JUMPI JUMPDEST PUSH1 0x20 DUP4 LT EQ PUSH2 0x6A3 JUMPI JUMP JUMPDEST PUSH4 0x4E487B71 PUSH1 0xE0 SHL PUSH1 0x0 MSTORE PUSH1 0x22 PUSH1 0x4 MSTORE PUSH1 0x24 PUSH1 0x0 REVERT JUMPDEST SWAP2 PUSH1 0x7F AND SWAP2 PUSH2 0x698 JUMP JUMPDEST PUSH1 0x40 MLOAD SWAP1 PUSH1 0x0 DUP3 PUSH1 0x1D SLOAD SWAP2 PUSH2 0x6D7 DUP4 PUSH2 0x689 JUMP JUMPDEST DUP1 DUP4 MSTORE SWAP3 PUSH1 0x1 SWAP1 DUP2 DUP2 AND SWAP1 DUP2 ISZERO PUSH2 0x75F JUMPI POP PUSH1 0x1 EQ PUSH2 0x700 JUMPI JUMPDEST POP PUSH2 0x6FE SWAP3 POP SUB DUP4 PUSH2 0x2FD JUMP JUMPDEST JUMP JUMPDEST PUSH1 0x1D PUSH1 0x0 SWAP1 DUP2 MSTORE SWAP2 POP PUSH32 0x6D4407E7BE21F808E6509AA9FA9143369579DD7D760FE20A2C09680FC146134F JUMPDEST DUP5 DUP4 LT PUSH2 0x744 JUMPI POP PUSH2 0x6FE SWAP4 POP POP DUP2 ADD PUSH1 0x20 ADD CODESIZE PUSH2 0x6F1 JUMP JUMPDEST DUP2 SWAP4 POP SWAP1 DUP2 PUSH1 0x20 SWAP3 SLOAD DUP4 DUP6 DUP11 ADD ADD MSTORE ADD SWAP2 ADD SWAP1 SWAP2 DUP6 SWAP3 PUSH2 0x72B JUMP JUMPDEST SWAP1 POP PUSH1 0x20 SWAP3 POP PUSH2 0x6FE SWAP5 SWAP2 POP PUSH1 0xFF NOT AND DUP3 DUP5 ADD MSTORE ISZERO ISZERO PUSH1 0x5 SHL DUP3 ADD ADD CODESIZE PUSH2 0x6F1 JUMP JUMPDEST SWAP1 PUSH1 0x40 MLOAD SWAP2 DUP3 PUSH1 0x0 DUP3 SLOAD SWAP3 PUSH2 0x795 DUP5 PUSH2 0x689 JUMP JUMPDEST SWAP1 DUP2 DUP5 MSTORE PUSH1 0x1 SWAP5 DUP6 DUP2 AND SWAP1 DUP2 PUSH1 0x0 EQ PUSH2 0x802 JUMPI POP PUSH1 0x1 EQ PUSH2 0x7BF JUMPI JUMPDEST POP POP PUSH2 0x6FE SWAP3 POP SUB DUP4 PUSH2 0x2FD JUMP JUMPDEST SWAP1 SWAP4 SWAP2 POP PUSH1 0x0 MSTORE PUSH1 0x20 SWAP1 DUP2 PUSH1 0x0 KECCAK256 SWAP4 PUSH1 0x0 SWAP2 JUMPDEST DUP2 DUP4 LT PUSH2 0x7EA JUMPI POP POP PUSH2 0x6FE SWAP4 POP DUP3 ADD ADD CODESIZE DUP1 PUSH2 0x7B1 JUMP JUMPDEST DUP6 SLOAD DUP9 DUP5 ADD DUP6 ADD MSTORE SWAP5 DUP6 ADD SWAP5 DUP8 SWAP5 POP SWAP2 DUP4 ADD SWAP2 PUSH2 0x7D2 JUMP JUMPDEST SWAP2 POP POP PUSH2 0x6FE SWAP5 POP PUSH1 0x20 SWAP3 POP PUSH1 0xFF NOT AND DUP3 DUP5 ADD MSTORE ISZERO ISZERO PUSH1 0x5 SHL DUP3 ADD ADD CODESIZE DUP1 PUSH2 0x7B1 JUMP JUMPDEST PUSH1 0x0 JUMPDEST DUP3 DUP2 LT PUSH2 0x837 JUMPI POP PUSH1 0x0 SWAP2 ADD MSTORE JUMP JUMPDEST PUSH1 0x80 DUP2 ADD MLOAD DUP3 DUP3 ADD MSTORE PUSH1 0x20 ADD PUSH2 0x828 JUMP JUMPDEST SWAP2 SWAP1 DUP3 MLOAD SWAP3 DUP4 DUP3 MSTORE PUSH1 0x0 JUMPDEST DUP5 DUP2 LT PUSH2 0x874 JUMPI POP POP DUP3 PUSH1 0x0 PUSH1 0x20 DUP1 SWAP5 SWAP6 DUP5 ADD ADD MSTORE PUSH1 0x1F DUP1 NOT SWAP2 ADD AND ADD ADD SWAP1 JUMP JUMPDEST PUSH1 0x20 DUP2 DUP4 ADD DUP2 ADD MLOAD DUP5 DUP4 ADD DUP3 ADD MSTORE ADD PUSH2 0x853 JUMP JUMPDEST SWAP1 PUSH1 0x20 PUSH2 0x899 SWAP3 DUP2 DUP2 MSTORE ADD SWAP1 PUSH2 0x848 JUMP JUMPDEST SWAP1 JUMP JUMPDEST CALLVALUE PUSH2 0x267 JUMPI PUSH1 0x20 CALLDATASIZE PUSH1 0x3 NOT ADD SLT PUSH2 0x267 JUMPI PUSH1 0x4 CALLDATALOAD PUSH1 0x1C SLOAD DUP2 LT ISZERO PUSH2 0x267 JUMPI PUSH2 0x8ED PUSH2 0x901 SWAP2 PUSH1 0x1C PUSH1 0x0 MSTORE PUSH32 0xE4562A10381DEC21B205ED72637E6B1B523BDD0E4D4D50AF5CD23DD4500A211 ADD PUSH2 0x781 JUMP JUMPDEST PUSH1 0x40 MLOAD SWAP2 DUP3 SWAP2 PUSH1 0x20 DUP4 MSTORE PUSH1 0x20 DUP4 ADD SWAP1 PUSH2 0x848 JUMP JUMPDEST SUB SWAP1 RETURN JUMPDEST CALLVALUE PUSH2 0x267 JUMPI PUSH1 0x0 DUP1 PUSH1 0x3 NOT CALLDATASIZE ADD SLT PUSH2 0x9E3 JUMPI PUSH1 0x40 MLOAD SWAP1 DUP1 PUSH1 0xD SLOAD PUSH2 0x928 DUP2 PUSH2 0x689 JUMP JUMPDEST DUP1 DUP6 MSTORE SWAP2 PUSH1 0x1 SWAP2 DUP1 DUP4 AND SWAP1 DUP2 ISZERO PUSH2 0x9B9 JUMPI POP PUSH1 0x1 EQ PUSH2 0x95E JUMPI JUMPDEST PUSH2 0x901 DUP6 PUSH2 0x952 DUP2 DUP8 SUB DUP3 PUSH2 0x2FD JUMP JUMPDEST PUSH1 0x40 MLOAD SWAP2 DUP3 SWAP2 DUP3 PUSH2 0x888 JUMP JUMPDEST SWAP3 POP PUSH1 0xD DUP4 MSTORE PUSH32 0xD7B6990105719101DABEB77144F2A3385C8033ACD3AF97E9423A695E81AD1EB5 JUMPDEST DUP3 DUP5 LT PUSH2 0x9A1 JUMPI POP POP POP DUP2 ADD PUSH1 0x20 ADD PUSH2 0x952 DUP3 PUSH2 0x901 PUSH2 0x942 JUMP JUMPDEST DUP1 SLOAD PUSH1 0x20 DUP6 DUP8 ADD DUP2 ADD SWAP2 SWAP1 SWAP2 MSTORE SWAP1 SWAP4 ADD SWAP3 DUP2 ADD PUSH2 0x986 JUMP JUMPDEST DUP7 SWAP6 POP PUSH2 0x901 SWAP7 SWAP4 POP PUSH1 0x20 SWAP3 POP PUSH2 0x952 SWAP5 SWAP2 POP PUSH1 0xFF NOT AND DUP3 DUP5 ADD MSTORE ISZERO ISZERO PUSH1 0x5 SHL DUP3 ADD ADD SWAP3 SWAP4 PUSH2 0x942 JUMP JUMPDEST DUP1 REVERT JUMPDEST CALLVALUE PUSH2 0x267 JUMPI PUSH1 0x0 CALLDATASIZE PUSH1 0x3 NOT ADD SLT PUSH2 0x267 JUMPI PUSH1 0x20 PUSH1 0xA SLOAD PUSH1 0x40 MLOAD SWAP1 DUP2 MSTORE RETURN JUMPDEST CALLVALUE PUSH2 0x267 JUMPI PUSH1 0x0 DUP1 PUSH1 0x3 NOT CALLDATASIZE ADD SLT PUSH2 0x9E3 JUMPI PUSH1 0x40 MLOAD SWAP1 DUP1 PUSH1 0x11 SLOAD PUSH2 0xA27 DUP2 PUSH2 0x689 JUMP JUMPDEST DUP1 DUP6 MSTORE SWAP2 PUSH1 0x1 SWAP2 DUP1 DUP4 AND SWAP1 DUP2 ISZERO PUSH2 0x9B9 JUMPI POP PUSH1 0x1 EQ PUSH2 0xA50 JUMPI PUSH2 0x901 DUP6 PUSH2 0x952 DUP2 DUP8 SUB DUP3 PUSH2 0x2FD JUMP JUMPDEST SWAP3 POP PUSH1 0x11 DUP4 MSTORE PUSH32 0x31ECC21A745E3968A04E9570E4425BC18FA8019C68028196B546D1669C200C68 JUMPDEST DUP3 DUP5 LT PUSH2 0xA93 JUMPI POP POP POP DUP2 ADD PUSH1 0x20 ADD PUSH2 0x952 DUP3 PUSH2 0x901 PUSH2 0x942 JUMP JUMPDEST DUP1 SLOAD PUSH1 0x20 DUP6 DUP8 ADD DUP2 ADD SWAP2 SWAP1 SWAP2 MSTORE SWAP1 SWAP4 ADD SWAP3 DUP2 ADD PUSH2 0xA78 JUMP JUMPDEST CALLVALUE PUSH2 0x267 JUMPI PUSH1 0x0 CALLDATASIZE PUSH1 0x3 NOT ADD SLT PUSH2 0x267 JUMPI PUSH1 0x20 PUSH1 0x15 SLOAD PUSH1 0x40 MLOAD SWAP1 DUP2 MSTORE RETURN JUMPDEST SWAP2 DUP2 PUSH1 0x1F DUP5 ADD SLT ISZERO PUSH2 0x267 JUMPI DUP3 CALLDATALOAD SWAP2 PUSH8 0xFFFFFFFFFFFFFFFF DUP4 GT PUSH2 0x267 JUMPI PUSH1 0x20 DUP4 DUP2 DUP7 ADD SWAP6 ADD ADD GT PUSH2 0x267 JUMPI JUMP JUMPDEST CALLVALUE PUSH2 0x267 JUMPI PUSH1 0x20 CALLDATASIZE PUSH1 0x3 NOT ADD SLT PUSH2 0x267 JUMPI PUSH1 0x4 CALLDATALOAD PUSH8 0xFFFFFFFFFFFFFFFF DUP2 GT PUSH2 0x267 JUMPI PUSH2 0xB28 SWAP1 CALLDATASIZE SWAP1 PUSH1 0x4 ADD PUSH2 0xAC9 JUMP JUMPDEST POP POP PUSH1 0x0 SLOAD PUSH1 0x1 PUSH1 0x1 PUSH1 0xA0 SHL SUB AND CALLER DUP2 EQ ISZERO DUP1 PUSH2 0xB99 JUMPI JUMPDEST PUSH2 0xB4E JUMPI PUSH2 0xB4C PUSH2 0x1A2F JUMP JUMPDEST STOP JUMPDEST PUSH1 0x18 SLOAD PUSH1 0x40 MLOAD PUSH32 0x426FBC7100000000000000000000000000000000000000000000000000000000 DUP2 MSTORE CALLER PUSH1 0x4 DUP3 ADD MSTORE PUSH1 0x1 PUSH1 0x1 PUSH1 0xA0 SHL SUB SWAP3 DUP4 AND PUSH1 0x24 DUP3 ADD MSTORE SWAP2 AND PUSH1 0x44 DUP3 ADD MSTORE PUSH1 0x64 SWAP1 REVERT JUMPDEST POP PUSH2 0xBBB PUSH2 0xBAF PUSH1 0x18 SLOAD PUSH1 0x1 PUSH1 0x1 PUSH1 0xA0 SHL SUB AND SWAP1 JUMP JUMPDEST PUSH1 0x1 PUSH1 0x1 PUSH1 0xA0 SHL SUB AND SWAP1 JUMP JUMPDEST CALLER EQ ISZERO PUSH2 0xB40 JUMP JUMPDEST CALLVALUE PUSH2 0x267 JUMPI PUSH1 0xA0 CALLDATASIZE PUSH1 0x3 NOT ADD SLT PUSH2 0x267 JUMPI PUSH8 0xFFFFFFFFFFFFFFFF PUSH1 0x4 CALLDATALOAD DUP2 DUP2 GT PUSH2 0x267 JUMPI PUSH2 0xBF5 SWAP1 CALLDATASIZE SWAP1 PUSH1 0x4 ADD PUSH2 0xAC9 JUMP JUMPDEST PUSH1 0x24 CALLDATALOAD SWAP3 SWAP2 DUP4 DUP4 AND DUP5 SUB PUSH2 0x267 JUMPI PUSH1 0x44 CALLDATALOAD SWAP3 PUSH4 0xFFFFFFFF DUP5 AND DUP5 SUB PUSH2 0x267 JUMPI PUSH2 0xC1C PUSH2 0x148E JUMP JUMPDEST DUP3 GT PUSH2 0x2DC JUMPI PUSH2 0xC36 DUP3 PUSH2 0xC31 PUSH1 0x2 SLOAD PUSH2 0x689 JUMP JUMPDEST PUSH2 0x155E JUMP JUMPDEST PUSH1 0x0 SWAP1 PUSH1 0x1F DUP4 GT PUSH1 0x1 EQ PUSH2 0xCD6 JUMPI SWAP2 DUP1 PUSH2 0xCB5 SWAP6 SWAP3 PUSH2 0xC8A SWAP5 PUSH1 0x0 SWAP3 PUSH2 0xCCB JUMPI JUMPDEST POP POP DUP2 PUSH1 0x1 SHL SWAP2 PUSH1 0x0 NOT SWAP1 PUSH1 0x3 SHL SHR NOT AND OR PUSH1 0x2 SSTORE PUSH8 0xFFFFFFFFFFFFFFFF AND PUSH8 0xFFFFFFFFFFFFFFFF NOT PUSH1 0x6 SLOAD AND OR PUSH1 0x6 SSTORE JUMP JUMPDEST PUSH12 0xFFFFFFFF0000000000000000 PUSH1 0x6 SLOAD SWAP2 PUSH1 0x40 SHL AND SWAP1 PUSH12 0xFFFFFFFF0000000000000000 NOT AND OR PUSH1 0x6 SSTORE JUMP JUMPDEST PUSH2 0xCC0 PUSH1 0x64 CALLDATALOAD PUSH1 0xF SSTORE JUMP JUMPDEST PUSH2 0xB4C PUSH1 0x84 CALLDATALOAD PUSH1 0x7 SSTORE JUMP JUMPDEST ADD CALLDATALOAD SWAP1 POP CODESIZE DUP1 PUSH2 0xC57 JUMP JUMPDEST PUSH1 0x2 PUSH1 0x0 MSTORE PUSH32 0x405787FA12A823E0F2B7631CC41B3BA8828B3321CA811111FA75CD3AA3BB5ACE SWAP2 PUSH1 0x1F NOT DUP5 AND DUP2 JUMPDEST DUP2 DUP2 LT PUSH2 0xD62 JUMPI POP SWAP3 PUSH1 0x1 SWAP3 DUP6 SWAP3 PUSH2 0xC8A SWAP7 PUSH2 0xCB5 SWAP10 SWAP7 LT PUSH2 0xD48 JUMPI JUMPDEST POP POP POP DUP2 SHL ADD PUSH1 0x2 SSTORE PUSH8 0xFFFFFFFFFFFFFFFF AND PUSH8 0xFFFFFFFFFFFFFFFF NOT PUSH1 0x6 SLOAD AND OR PUSH1 0x6 SSTORE JUMP JUMPDEST ADD CALLDATALOAD PUSH1 0x0 NOT PUSH1 0x3 DUP5 SWAP1 SHL PUSH1 0xF8 AND SHR NOT AND SWAP1 SSTORE CODESIZE DUP1 DUP1 PUSH2 0xD21 JUMP JUMPDEST SWAP2 SWAP4 PUSH1 0x20 PUSH1 0x1 DUP2 SWAP3 DUP8 DUP8 ADD CALLDATALOAD DUP2 SSTORE ADD SWAP6 ADD SWAP3 ADD PUSH2 0xD04 JUMP JUMPDEST CALLVALUE PUSH2 0x267 JUMPI PUSH1 0x0 CALLDATASIZE PUSH1 0x3 NOT ADD SLT PUSH2 0x267 JUMPI PUSH1 0x20 PUSH1 0x14 SLOAD PUSH1 0x40 MLOAD SWAP1 DUP2 MSTORE RETURN JUMPDEST CALLVALUE PUSH2 0x267 JUMPI PUSH1 0x0 CALLDATASIZE PUSH1 0x3 NOT ADD SLT PUSH2 0x267 JUMPI PUSH1 0x20 PUSH1 0x19 SLOAD PUSH1 0x40 MLOAD SWAP1 DUP2 MSTORE RETURN JUMPDEST CALLVALUE PUSH2 0x267 JUMPI PUSH1 0x0 DUP1 PUSH1 0x3 NOT CALLDATASIZE ADD SLT PUSH2 0x9E3 JUMPI PUSH1 0x40 MLOAD SWAP1 DUP1 PUSH1 0x12 SLOAD PUSH2 0xDD9 DUP2 PUSH2 0x689 JUMP JUMPDEST DUP1 DUP6 MSTORE SWAP2 PUSH1 0x1 SWAP2 DUP1 DUP4 AND SWAP1 DUP2 ISZERO PUSH2 0x9B9 JUMPI POP PUSH1 0x1 EQ PUSH2 0xE02 JUMPI PUSH2 0x901 DUP6 PUSH2 0x952 DUP2 DUP8 SUB DUP3 PUSH2 0x2FD JUMP JUMPDEST SWAP3 POP PUSH1 0x12 DUP4 MSTORE PUSH32 0xBB8A6A4669BA250D26CD7A459ECA9D215F8307E33AEBE50379BC5A3617EC3444 JUMPDEST DUP3 DUP5 LT PUSH2 0xE45 JUMPI POP POP POP DUP2 ADD PUSH1 0x20 ADD PUSH2 0x952 DUP3 PUSH2 0x901 PUSH2 0x942 JUMP JUMPDEST DUP1 SLOAD PUSH1 0x20 DUP6 DUP8 ADD DUP2 ADD SWAP2 SWAP1 SWAP2 MSTORE SWAP1 SWAP4 ADD SWAP3 DUP2 ADD PUSH2 0xE2A JUMP JUMPDEST CALLVALUE PUSH2 0x267 JUMPI PUSH1 0x0 CALLDATASIZE PUSH1 0x3 NOT ADD SLT PUSH2 0x267 JUMPI PUSH1 0x20 PUSH1 0x1 PUSH1 0x1 PUSH1 0xA0 SHL SUB PUSH1 0x18 SLOAD AND PUSH1 0x40 MLOAD SWAP1 DUP2 MSTORE RETURN JUMPDEST CALLVALUE PUSH2 0x267 JUMPI PUSH1 0x0 DUP1 PUSH1 0x3 NOT CALLDATASIZE ADD SLT PUSH2 0x9E3 JUMPI PUSH1 0x40 MLOAD SWAP1 DUP1 PUSH1 0x2 SLOAD PUSH2 0xEA7 DUP2 PUSH2 0x689 JUMP JUMPDEST DUP1 DUP6 MSTORE SWAP2 PUSH1 0x1 SWAP2 DUP1 DUP4 AND SWAP1 DUP2 ISZERO PUSH2 0x9B9 JUMPI POP PUSH1 0x1 EQ PUSH2 0xED0 JUMPI PUSH2 0x901 DUP6 PUSH2 0x952 DUP2 DUP8 SUB DUP3 PUSH2 0x2FD JUMP JUMPDEST SWAP3 POP PUSH1 0x2 DUP4 MSTORE PUSH32 0x405787FA12A823E0F2B7631CC41B3BA8828B3321CA811111FA75CD3AA3BB5ACE JUMPDEST DUP3 DUP5 LT PUSH2 0xF13 JUMPI POP POP POP DUP2 ADD PUSH1 0x20 ADD PUSH2 0x952 DUP3 PUSH2 0x901 PUSH2 0x942 JUMP JUMPDEST DUP1 SLOAD PUSH1 0x20 DUP6 DUP8 ADD DUP2 ADD SWAP2 SWAP1 SWAP2 MSTORE SWAP1 SWAP4 ADD SWAP3 DUP2 ADD PUSH2 0xEF8 JUMP JUMPDEST CALLVALUE PUSH2 0x267 JUMPI PUSH1 0x20 CALLDATASIZE PUSH1 0x3 NOT ADD SLT PUSH2 0x267 JUMPI PUSH1 0x4 CALLDATALOAD PUSH8 0xFFFFFFFFFFFFFFFF DUP2 GT PUSH2 0x267 JUMPI PUSH2 0xF5C SWAP1 CALLDATASIZE SWAP1 PUSH1 0x4 ADD PUSH2 0x33B JUMP JUMPDEST POP PUSH1 0x8 SLOAD TIMESTAMP SUB TIMESTAMP DUP2 GT PUSH2 0xF9F JUMPI PUSH1 0x7 SLOAD LT PUSH1 0x40 MLOAD SWAP1 DUP2 MSTORE PUSH1 0x40 PUSH1 0x20 DUP3 ADD MSTORE PUSH1 0x60 DUP2 DUP2 MLOAD DUP1 PUSH1 0x40 DUP4 ADD MSTORE PUSH2 0xF91 DUP2 DUP5 DUP5 ADD PUSH2 0x825 JUMP JUMPDEST PUSH1 0x1F ADD PUSH1 0x1F NOT AND DUP2 ADD SUB ADD SWAP1 RETURN JUMPDEST PUSH2 0x1644 JUMP JUMPDEST CALLVALUE PUSH2 0x267 JUMPI PUSH1 0x0 CALLDATASIZE PUSH1 0x3 NOT ADD SLT PUSH2 0x267 JUMPI PUSH1 0x20 PUSH1 0xF SLOAD PUSH1 0x40 MLOAD SWAP1 DUP2 MSTORE RETURN JUMPDEST CALLVALUE PUSH2 0x267 JUMPI PUSH1 0x0 DUP1 PUSH1 0x3 NOT CALLDATASIZE ADD SLT PUSH2 0x9E3 JUMPI PUSH1 0x1 PUSH1 0x1 PUSH1 0xA0 SHL SUB DUP1 PUSH1 0x1 SLOAD AND CALLER SUB PUSH2 0x105E JUMPI DUP2 SLOAD PUSH1 0x1 PUSH1 0x1 PUSH1 0xA0 SHL SUB AND PUSH1 0x0 DUP1 SLOAD PUSH20 0xFFFFFFFFFFFFFFFFFFFFFFFFFFFFFFFFFFFFFFFF NOT AND CALLER OR SWAP1 SSTORE SWAP1 PUSH2 0x1034 PUSH20 0xFFFFFFFFFFFFFFFFFFFFFFFFFFFFFFFFFFFFFFFF NOT PUSH1 0x1 SLOAD AND PUSH1 0x1 SSTORE JUMP JUMPDEST CALLER SWAP2 AND PUSH32 0x8BE0079C531659141344CD1FD0A4F28419497F9722A3DAAFE3B4186F6B6457E0 DUP4 DUP1 LOG3 DUP1 RETURN JUMPDEST PUSH1 0x64 PUSH1 0x40 MLOAD PUSH3 0x461BCD PUSH1 0xE5 SHL DUP2 MSTORE PUSH1 0x20 PUSH1 0x4 DUP3 ADD MSTORE PUSH1 0x16 PUSH1 0x24 DUP3 ADD MSTORE PUSH32 0x4D7573742062652070726F706F736564206F776E657200000000000000000000 PUSH1 0x44 DUP3 ADD MSTORE REVERT JUMPDEST CALLVALUE PUSH2 0x267 JUMPI PUSH1 0x0 CALLDATASIZE PUSH1 0x3 NOT ADD SLT PUSH2 0x267 JUMPI PUSH1 0x20 PUSH1 0x40 MLOAD PUSH1 0x1 PUSH1 0x1 PUSH1 0xA0 SHL SUB PUSH32 0x0 AND DUP2 MSTORE RETURN JUMPDEST CALLVALUE PUSH2 0x267 JUMPI PUSH1 0x0 CALLDATASIZE PUSH1 0x3 NOT ADD SLT PUSH2 0x267 JUMPI PUSH1 0x20 SELFBALANCE PUSH1 0x40 MLOAD SWAP1 DUP2 MSTORE RETURN JUMPDEST CALLVALUE PUSH2 0x267 JUMPI PUSH1 0x0 CALLDATASIZE PUSH1 0x3 NOT ADD SLT PUSH2 0x267 JUMPI PUSH1 0x20 PUSH1 0x1 PUSH1 0x1 PUSH1 0xA0 SHL SUB PUSH1 0x0 SLOAD AND PUSH1 0x40 MLOAD SWAP1 DUP2 MSTORE RETURN JUMPDEST CALLVALUE PUSH2 0x267 JUMPI PUSH1 0x0 CALLDATASIZE PUSH1 0x3 NOT ADD SLT PUSH2 0x267 JUMPI PUSH1 0x20 PUSH1 0x1A SLOAD PUSH1 0x40 MLOAD SWAP1 DUP2 MSTORE RETURN JUMPDEST CALLVALUE PUSH2 0x267 JUMPI PUSH1 0x0 CALLDATASIZE PUSH1 0x3 NOT ADD SLT PUSH2 0x267 JUMPI PUSH1 0x20 PUSH1 0x9 SLOAD PUSH1 0x40 MLOAD SWAP1 DUP2 MSTORE RETURN JUMPDEST CALLVALUE PUSH2 0x267 JUMPI PUSH1 0x0 CALLDATASIZE PUSH1 0x3 NOT ADD SLT PUSH2 0x267 JUMPI PUSH1 0x20 PUSH1 0x10 SLOAD PUSH1 0x40 MLOAD SWAP1 DUP2 MSTORE RETURN JUMPDEST CALLVALUE PUSH2 0x267 JUMPI PUSH1 0x0 DUP1 PUSH1 0x3 NOT CALLDATASIZE ADD SLT PUSH2 0x9E3 JUMPI PUSH1 0x40 MLOAD SWAP1 DUP1 PUSH1 0x4 SLOAD PUSH2 0x11A6 DUP2 PUSH2 0x689 JUMP JUMPDEST DUP1 DUP6 MSTORE SWAP2 PUSH1 0x1 SWAP2 DUP1 DUP4 AND SWAP1 DUP2 ISZERO PUSH2 0x9B9 JUMPI POP PUSH1 0x1 EQ PUSH2 0x11CF JUMPI PUSH2 0x901 DUP6 PUSH2 0x952 DUP2 DUP8 SUB DUP3 PUSH2 0x2FD JUMP JUMPDEST SWAP3 POP PUSH1 0x4 DUP4 MSTORE PUSH32 0x8A35ACFBC15FF81A39AE7D344FD709F28E8600B4AA8C65C6B64BFE7FE36BD19B JUMPDEST DUP3 DUP5 LT PUSH2 0x1212 JUMPI POP POP POP DUP2 ADD PUSH1 0x20 ADD PUSH2 0x952 DUP3 PUSH2 0x901 PUSH2 0x942 JUMP JUMPDEST DUP1 SLOAD PUSH1 0x20 DUP6 DUP8 ADD DUP2 ADD SWAP2 SWAP1 SWAP2 MSTORE SWAP1 SWAP4 ADD SWAP3 DUP2 ADD PUSH2 0x11F7 JUMP JUMPDEST CALLVALUE PUSH2 0x267 JUMPI PUSH1 0x0 CALLDATASIZE PUSH1 0x3 NOT ADD SLT PUSH2 0x267 JUMPI PUSH1 0x20 PUSH1 0x1 PUSH1 0x1 PUSH1 0xA0 SHL SUB PUSH1 0x16 SLOAD AND PUSH1 0x40 MLOAD SWAP1 DUP2 MSTORE RETURN JUMPDEST CALLVALUE PUSH2 0x267 JUMPI PUSH1 0x0 CALLDATASIZE PUSH1 0x3 NOT ADD SLT PUSH2 0x267 JUMPI PUSH1 0x20 PUSH1 0xC SLOAD PUSH1 0x40 MLOAD SWAP1 DUP2 MSTORE RETURN JUMPDEST CALLVALUE PUSH2 0x267 JUMPI PUSH1 0x0 CALLDATASIZE PUSH1 0x3 NOT ADD SLT PUSH2 0x267 JUMPI PUSH1 0x20 PUSH1 0x1 PUSH1 0x1 PUSH1 0xA0 SHL SUB PUSH1 0x17 SLOAD AND PUSH1 0x40 MLOAD SWAP1 DUP2 MSTORE RETURN JUMPDEST CALLVALUE PUSH2 0x267 JUMPI PUSH1 0x0 CALLDATASIZE PUSH1 0x3 NOT ADD SLT PUSH2 0x267 JUMPI PUSH1 0x20 PUSH1 0x1B SLOAD PUSH1 0x40 MLOAD SWAP1 DUP2 MSTORE RETURN JUMPDEST CALLVALUE PUSH2 0x267 JUMPI PUSH1 0x20 CALLDATASIZE PUSH1 0x3 NOT ADD SLT PUSH2 0x267 JUMPI PUSH1 0x4 CALLDATALOAD PUSH1 0x1 PUSH1 0x1 PUSH1 0xA0 SHL SUB DUP2 AND DUP1 SWAP2 SUB PUSH2 0x267 JUMPI PUSH2 0x12E1 PUSH2 0x148E JUMP JUMPDEST CALLER DUP2 EQ PUSH2 0x1343 JUMPI DUP1 PUSH20 0xFFFFFFFFFFFFFFFFFFFFFFFFFFFFFFFFFFFFFFFF NOT PUSH1 0x1 SLOAD AND OR PUSH1 0x1 SSTORE PUSH2 0x131C PUSH2 0xBAF PUSH1 0x0 SLOAD PUSH1 0x1 PUSH1 0x1 PUSH1 0xA0 SHL SUB AND SWAP1 JUMP JUMPDEST PUSH32 0xED8889F560326EB138920D842192F0EB3DD22B4F139C87A2C57538E05BAE1278 PUSH1 0x0 DUP1 LOG3 STOP JUMPDEST PUSH1 0x64 PUSH1 0x40 MLOAD PUSH3 0x461BCD PUSH1 0xE5 SHL DUP2 MSTORE PUSH1 0x20 PUSH1 0x4 DUP3 ADD MSTORE PUSH1 0x17 PUSH1 0x24 DUP3 ADD MSTORE PUSH32 0x43616E6E6F74207472616E7366657220746F2073656C66000000000000000000 PUSH1 0x44 DUP3 ADD MSTORE REVERT JUMPDEST CALLVALUE PUSH2 0x267 JUMPI PUSH1 0x0 CALLDATASIZE PUSH1 0x3 NOT ADD SLT PUSH2 0x267 JUMPI PUSH1 0x20 PUSH1 0x13 SLOAD PUSH1 0x40 MLOAD SWAP1 DUP2 MSTORE RETURN JUMPDEST CALLVALUE PUSH2 0x267 JUMPI PUSH1 0x0 CALLDATASIZE PUSH1 0x3 NOT ADD SLT PUSH2 0x267 JUMPI PUSH1 0x20 PUSH4 0xFFFFFFFF PUSH1 0xE SLOAD AND PUSH1 0x40 MLOAD SWAP1 DUP2 MSTORE RETURN JUMPDEST CALLVALUE PUSH2 0x267 JUMPI PUSH1 0x0 CALLDATASIZE PUSH1 0x3 NOT ADD SLT PUSH2 0x267 JUMPI PUSH1 0x20 PUSH1 0x7 SLOAD PUSH1 0x40 MLOAD SWAP1 DUP2 MSTORE RETURN JUMPDEST CALLVALUE PUSH2 0x267 JUMPI PUSH1 0x0 DUP1 PUSH1 0x3 NOT CALLDATASIZE ADD SLT PUSH2 0x9E3 JUMPI PUSH1 0x40 MLOAD SWAP1 DUP1 PUSH1 0x5 SLOAD PUSH2 0x140A DUP2 PUSH2 0x689 JUMP JUMPDEST DUP1 DUP6 MSTORE SWAP2 PUSH1 0x1 SWAP2 DUP1 DUP4 AND SWAP1 DUP2 ISZERO PUSH2 0x9B9 JUMPI POP PUSH1 0x1 EQ PUSH2 0x1433 JUMPI PUSH2 0x901 DUP6 PUSH2 0x952 DUP2 DUP8 SUB DUP3 PUSH2 0x2FD JUMP JUMPDEST SWAP3 POP PUSH1 0x5 DUP4 MSTORE PUSH32 0x36B6384B5ECA791C62761152D0C79BB0604C104A5FB6F4EB0703F3154BB3DB0 JUMPDEST DUP3 DUP5 LT PUSH2 0x1476 JUMPI POP POP POP DUP2 ADD PUSH1 0x20 ADD PUSH2 0x952 DUP3 PUSH2 0x901 PUSH2 0x942 JUMP JUMPDEST DUP1 SLOAD PUSH1 0x20 DUP6 DUP8 ADD DUP2 ADD SWAP2 SWAP1 SWAP2 MSTORE SWAP1 SWAP4 ADD SWAP3 DUP2 ADD PUSH2 0x145B JUMP JUMPDEST PUSH1 0x1 PUSH1 0x1 PUSH1 0xA0 SHL SUB PUSH1 0x0 SLOAD AND CALLER SUB PUSH2 0x14A2 JUMPI JUMP JUMPDEST PUSH1 0x64 PUSH1 0x40 MLOAD PUSH3 0x461BCD PUSH1 0xE5 SHL DUP2 MSTORE PUSH1 0x20 PUSH1 0x4 DUP3 ADD MSTORE PUSH1 0x16 PUSH1 0x24 DUP3 ADD MSTORE PUSH32 0x4F6E6C792063616C6C61626C65206279206F776E657200000000000000000000 PUSH1 0x44 DUP3 ADD MSTORE REVERT JUMPDEST DUP2 DUP2 LT PUSH2 0x14F1 JUMPI POP POP JUMP JUMPDEST PUSH1 0x0 DUP2 SSTORE PUSH1 0x1 ADD PUSH2 0x14E6 JUMP JUMPDEST SWAP1 PUSH1 0x1F DUP3 GT PUSH2 0x150A JUMPI POP POP JUMP JUMPDEST PUSH2 0x6FE SWAP2 PUSH1 0x4 PUSH1 0x0 MSTORE PUSH32 0x8A35ACFBC15FF81A39AE7D344FD709F28E8600B4AA8C65C6B64BFE7FE36BD19B SWAP1 PUSH1 0x20 PUSH1 0x1F DUP5 ADD PUSH1 0x5 SHR DUP4 ADD SWAP4 LT PUSH2 0x1554 JUMPI JUMPDEST PUSH1 0x1F ADD PUSH1 0x5 SHR ADD SWAP1 PUSH2 0x14E6 JUMP JUMPDEST SWAP1 SWAP2 POP DUP2 SWAP1 PUSH2 0x1547 JUMP JUMPDEST SWAP1 PUSH1 0x1F DUP3 GT PUSH2 0x156B JUMPI POP POP JUMP JUMPDEST PUSH2 0x6FE SWAP2 PUSH1 0x2 PUSH1 0x0 MSTORE PUSH32 0x405787FA12A823E0F2B7631CC41B3BA8828B3321CA811111FA75CD3AA3BB5ACE SWAP1 PUSH1 0x20 PUSH1 0x1F DUP5 ADD PUSH1 0x5 SHR DUP4 ADD SWAP4 LT PUSH2 0x1554 JUMPI PUSH1 0x1F ADD PUSH1 0x5 SHR ADD SWAP1 PUSH2 0x14E6 JUMP JUMPDEST SWAP1 PUSH1 0x1F DUP3 GT PUSH2 0x15C1 JUMPI POP POP JUMP JUMPDEST PUSH2 0x6FE SWAP2 PUSH1 0x5 PUSH1 0x0 MSTORE PUSH32 0x36B6384B5ECA791C62761152D0C79BB0604C104A5FB6F4EB0703F3154BB3DB0 SWAP1 PUSH1 0x20 PUSH1 0x1F DUP5 ADD PUSH1 0x5 SHR DUP4 ADD SWAP4 LT PUSH2 0x1554 JUMPI PUSH1 0x1F ADD PUSH1 0x5 SHR ADD SWAP1 PUSH2 0x14E6 JUMP JUMPDEST SWAP2 SWAP1 PUSH1 0x1F DUP2 GT PUSH2 0x1619 JUMPI POP POP POP JUMP JUMPDEST PUSH2 0x6FE SWAP3 PUSH1 0x0 MSTORE PUSH1 0x20 PUSH1 0x0 KECCAK256 SWAP1 PUSH1 0x20 PUSH1 0x1F DUP5 ADD PUSH1 0x5 SHR DUP4 ADD SWAP4 LT PUSH2 0x1554 JUMPI PUSH1 0x1F ADD PUSH1 0x5 SHR ADD SWAP1 PUSH2 0x14E6 JUMP JUMPDEST PUSH4 0x4E487B71 PUSH1 0xE0 SHL PUSH1 0x0 MSTORE PUSH1 0x11 PUSH1 0x4 MSTORE PUSH1 0x24 PUSH1 0x0 REVERT JUMPDEST PUSH1 0x1F NOT DUP2 ADD SWAP2 SWAP1 DUP3 GT PUSH2 0xF9F JUMPI JUMP JUMPDEST PUSH1 0x60 PUSH1 0x8 SLOAD TIMESTAMP SUB TIMESTAMP DUP2 GT PUSH2 0xF9F JUMPI PUSH1 0x7 SLOAD LT SWAP2 JUMP JUMPDEST PUSH1 0x40 MLOAD SWAP1 PUSH1 0x20 DUP3 ADD DUP3 DUP2 LT PUSH8 0xFFFFFFFFFFFFFFFF DUP3 GT OR PUSH2 0x2DC JUMPI PUSH1 0x40 MSTORE PUSH1 0x0 DUP3 MSTORE JUMP JUMPDEST ISZERO PUSH2 0x16A9 JUMPI JUMP JUMPDEST PUSH1 0x64 PUSH1 0x40 MLOAD PUSH3 0x461BCD PUSH1 0xE5 SHL DUP2 MSTORE PUSH1 0x20 PUSH1 0x4 DUP3 ADD MSTORE PUSH1 0x15 PUSH1 0x24 DUP3 ADD MSTORE PUSH32 0x54696D6520696E74657276616C206E6F74206D65740000000000000000000000 PUSH1 0x44 DUP3 ADD MSTORE REVERT JUMPDEST SWAP1 PUSH1 0x1 DUP3 ADD DUP1 SWAP3 GT PUSH2 0xF9F JUMPI JUMP JUMPDEST SWAP1 PUSH1 0x20 DUP3 ADD DUP1 SWAP3 GT PUSH2 0xF9F JUMPI JUMP JUMPDEST SWAP2 SWAP1 DUP3 ADD DUP1 SWAP3 GT PUSH2 0xF9F JUMPI JUMP JUMPDEST ISZERO PUSH2 0x171D JUMPI JUMP JUMPDEST PUSH1 0x64 PUSH1 0x40 MLOAD PUSH3 0x461BCD PUSH1 0xE5 SHL DUP2 MSTORE PUSH1 0x20 PUSH1 0x4 DUP3 ADD MSTORE PUSH1 0x15 PUSH1 0x24 DUP3 ADD MSTORE PUSH32 0x55706B656570206E6F7420726567697374657265640000000000000000000000 PUSH1 0x44 DUP3 ADD MSTORE REVERT JUMPDEST PUSH1 0x40 MLOAD SWAP1 PUSH1 0xE0 DUP3 ADD DUP3 DUP2 LT PUSH8 0xFFFFFFFFFFFFFFFF DUP3 GT OR PUSH2 0x2DC JUMPI PUSH1 0x40 MSTORE PUSH1 0x60 PUSH1 0xC0 DUP4 PUSH1 0x0 DUP2 MSTORE PUSH1 0x0 PUSH1 0x20 DUP3 ADD MSTORE PUSH1 0x0 PUSH1 0x40 DUP3 ADD MSTORE DUP3 DUP1 DUP3 ADD MSTORE DUP3 PUSH1 0x80 DUP3 ADD MSTORE DUP3 PUSH1 0xA0 DUP3 ADD MSTORE ADD MSTORE JUMP JUMPDEST PUSH1 0x1C SLOAD SWAP1 PUSH8 0xFFFFFFFFFFFFFFFF DUP3 GT PUSH2 0x2DC JUMPI PUSH1 0x40 MLOAD SWAP2 PUSH1 0x20 PUSH2 0x17D3 DUP2 DUP4 PUSH1 0x5 SHL ADD DUP6 PUSH2 0x2FD JUMP JUMPDEST DUP2 DUP5 MSTORE DUP1 DUP5 ADD SWAP1 PUSH1 0x1C PUSH1 0x0 MSTORE PUSH32 0xE4562A10381DEC21B205ED72637E6B1B523BDD0E4D4D50AF5CD23DD4500A211 PUSH1 0x0 SWAP3 JUMPDEST DUP5 DUP5 LT PUSH2 0x1812 JUMPI POP POP POP POP POP JUMP JUMPDEST PUSH1 0x1 DUP4 DUP2 SWAP3 PUSH2 0x1820 DUP6 PUSH2 0x781 JUMP JUMPDEST DUP2 MSTORE ADD SWAP3 ADD SWAP4 ADD SWAP3 SWAP1 PUSH2 0x1804 JUMP JUMPDEST SWAP1 DUP2 PUSH1 0x20 SWAP2 SUB SLT PUSH2 0x267 JUMPI MLOAD SWAP1 JUMP JUMPDEST SWAP1 PUSH2 0x186B PUSH1 0x80 SWAP4 PUSH8 0xFFFFFFFFFFFFFFFF PUSH4 0xFFFFFFFF SWAP4 SWAP9 SWAP8 SWAP7 SWAP9 AND DUP5 MSTORE PUSH1 0xA0 PUSH1 0x20 DUP6 ADD MSTORE PUSH1 0xA0 DUP5 ADD SWAP1 PUSH2 0x848 JUMP JUMPDEST SWAP6 PUSH1 0x1 PUSH1 0x40 DUP5 ADD MSTORE AND PUSH1 0x60 DUP3 ADD MSTORE ADD MSTORE JUMP JUMPDEST PUSH1 0x40 MLOAD RETURNDATASIZE PUSH1 0x0 DUP3 RETURNDATACOPY RETURNDATASIZE SWAP1 REVERT JUMPDEST PUSH1 0x0 SWAP1 PUSH1 0x3 RETURNDATASIZE GT PUSH2 0x1896 JUMPI JUMP JUMPDEST SWAP1 POP PUSH1 0x4 PUSH1 0x0 DUP1 RETURNDATACOPY PUSH1 0x0 MLOAD PUSH1 0xE0 SHR SWAP1 JUMP JUMPDEST PUSH1 0x0 PUSH1 0x44 RETURNDATASIZE LT PUSH2 0x899 JUMPI PUSH1 0x40 MLOAD PUSH1 0x3 NOT SWAP2 RETURNDATASIZE DUP4 ADD PUSH1 0x4 DUP4 RETURNDATACOPY DUP2 MLOAD PUSH8 0xFFFFFFFFFFFFFFFF SWAP2 DUP3 DUP3 GT RETURNDATASIZE PUSH1 0x24 DUP5 ADD GT OR PUSH2 0x1905 JUMPI DUP2 DUP5 ADD SWAP5 DUP6 MLOAD SWAP4 DUP5 GT PUSH2 0x190D JUMPI RETURNDATASIZE DUP6 ADD ADD PUSH1 0x20 DUP5 DUP8 ADD ADD GT PUSH2 0x1905 JUMPI POP PUSH2 0x899 SWAP3 SWAP2 ADD PUSH1 0x20 ADD SWAP1 PUSH2 0x2FD JUMP JUMPDEST SWAP5 SWAP4 POP POP POP POP JUMP JUMPDEST POP SWAP5 SWAP4 POP POP POP POP JUMP JUMPDEST RETURNDATASIZE ISZERO PUSH2 0x1941 JUMPI RETURNDATASIZE SWAP1 PUSH2 0x1927 DUP3 PUSH2 0x31F JUMP JUMPDEST SWAP2 PUSH2 0x1935 PUSH1 0x40 MLOAD SWAP4 DUP5 PUSH2 0x2FD JUMP JUMPDEST DUP3 MSTORE RETURNDATASIZE PUSH1 0x0 PUSH1 0x20 DUP5 ADD RETURNDATACOPY JUMP JUMPDEST PUSH1 0x60 SWAP1 JUMP JUMPDEST SWAP1 PUSH8 0xFFFFFFFFFFFFFFFF SWAP1 SWAP5 SWAP4 SWAP3 SWAP5 AND DUP2 MSTORE PUSH1 0x20 SWAP4 PUSH1 0xA0 DUP6 DUP4 ADD MSTORE PUSH1 0x0 PUSH1 0x2 SLOAD SWAP6 PUSH2 0x1970 DUP8 PUSH2 0x689 JUMP JUMPDEST SWAP1 DUP2 PUSH1 0xA0 DUP7 ADD MSTORE PUSH1 0x1 SWAP8 DUP9 DUP2 AND SWAP1 DUP2 PUSH1 0x0 EQ PUSH2 0x1A06 JUMPI POP PUSH1 0x1 EQ PUSH2 0x19AA JUMPI JUMPDEST POP POP PUSH1 0x40 DUP4 ADD SWAP6 SWAP1 SWAP6 MSTORE PUSH4 0xFFFFFFFF AND PUSH1 0x60 DUP3 ADD MSTORE PUSH1 0x80 ADD MSTORE JUMP JUMPDEST PUSH1 0x2 PUSH1 0x0 SWAP1 DUP2 MSTORE SWAP3 POP DUP8 PUSH32 0x405787FA12A823E0F2B7631CC41B3BA8828B3321CA811111FA75CD3AA3BB5ACE JUMPDEST DUP4 DUP6 LT PUSH2 0x19F1 JUMPI POP POP POP POP DUP3 ADD PUSH1 0xC0 ADD DUP2 PUSH4 0xFFFFFFFF PUSH2 0x198F JUMP JUMPDEST DUP1 SLOAD DUP8 DUP7 ADD PUSH1 0xC0 ADD MSTORE SWAP4 DUP3 ADD SWAP4 DUP10 SWAP2 ADD PUSH2 0x19D6 JUMP JUMPDEST PUSH1 0xFF NOT AND PUSH1 0xC0 DUP8 DUP2 ADD SWAP2 SWAP1 SWAP2 MSTORE SWAP3 ISZERO ISZERO PUSH1 0x5 SHL DUP7 ADD SWAP1 SWAP3 ADD SWAP3 POP DUP4 SWAP2 POP PUSH4 0xFFFFFFFF SWAP1 POP PUSH2 0x198F JUMP JUMPDEST PUSH2 0x1A37 PUSH2 0x167E JUMP JUMPDEST POP PUSH2 0x1A49 PUSH2 0x1A43 PUSH2 0x1669 JUMP JUMPDEST POP PUSH2 0x16A2 JUMP JUMPDEST PUSH2 0x1A52 TIMESTAMP PUSH1 0x8 SSTORE JUMP JUMPDEST PUSH2 0x1A65 PUSH2 0x1A60 PUSH1 0x9 SLOAD PUSH2 0x16ED JUMP JUMPDEST PUSH1 0x9 SSTORE JUMP JUMPDEST PUSH1 0x1B SLOAD PUSH1 0x1C SLOAD LT ISZERO PUSH2 0x1C14 JUMPI PUSH2 0x1A84 PUSH2 0x1A7F PUSH1 0x13 SLOAD PUSH2 0x16ED JUMP JUMPDEST PUSH1 0x13 SSTORE JUMP JUMPDEST PUSH1 0x6 SLOAD PUSH8 0xFFFFFFFFFFFFFFFF AND PUSH1 0x20 PUSH2 0x1AA2 PUSH1 0xE SLOAD PUSH4 0xFFFFFFFF AND SWAP1 JUMP JUMPDEST PUSH1 0xF SLOAD SWAP3 PUSH2 0x1AC4 PUSH1 0x40 MLOAD SWAP5 DUP6 SWAP4 DUP5 SWAP4 PUSH4 0x230E93B1 PUSH1 0xE1 SHL DUP6 MSTORE PUSH1 0x4 DUP6 ADD PUSH2 0x1946 JUMP JUMPDEST SUB DUP2 PUSH1 0x0 PUSH1 0x1 PUSH1 0x1 PUSH1 0xA0 SHL SUB PUSH32 0x0 AND GAS CALL PUSH1 0x0 SWAP2 DUP2 PUSH2 0x1BE4 JUMPI JUMPDEST POP PUSH2 0x1BA1 JUMPI POP PUSH1 0x1 PUSH2 0x1B0D PUSH2 0x1889 JUMP JUMPDEST PUSH4 0x8C379A0 EQ PUSH2 0x1B4F JUMPI JUMPDEST PUSH2 0x1B1E JUMPI JUMP JUMPDEST PUSH32 0x9C4BFA18304482256875C29FABB1A44A5ECD325F214EA17BAB8F31E869FAF4C8 PUSH2 0x1B4A PUSH2 0x952 PUSH2 0x1916 JUMP JUMPDEST SUB SWAP1 LOG1 JUMP JUMPDEST PUSH2 0x1B57 PUSH2 0x18A7 JUMP JUMPDEST DUP1 PUSH2 0x1B63 JUMPI JUMPDEST POP PUSH2 0x1B18 JUMP JUMPDEST SWAP1 POP PUSH32 0x2BA61E3733E7AC99181C22307780F651EC8FD92FE661A84DFBE711710B2DC36C PUSH2 0x1B98 PUSH1 0x0 SWAP3 PUSH1 0x40 MLOAD SWAP2 DUP3 SWAP2 DUP3 PUSH2 0x888 JUMP JUMPDEST SUB SWAP1 LOG1 CODESIZE PUSH2 0x1B5D JUMP JUMPDEST PUSH2 0x1BAA DUP2 PUSH1 0x10 SSTORE JUMP JUMPDEST PUSH2 0x1BBD PUSH2 0x1BB8 PUSH1 0x14 SLOAD PUSH2 0x16ED JUMP JUMPDEST PUSH1 0x14 SSTORE JUMP JUMPDEST PUSH32 0x1131472297A800FEE664D1D89CFA8F7676FF07189ECC53F80BBB5F4969099DB8 PUSH1 0x0 DUP1 LOG2 JUMP JUMPDEST PUSH2 0x1C06 SWAP2 SWAP3 POP PUSH1 0x20 RETURNDATASIZE DUP2 GT PUSH2 0x1C0D JUMPI JUMPDEST PUSH2 0x1BFE DUP2 DUP4 PUSH2 0x2FD JUMP JUMPDEST DUP2 ADD SWAP1 PUSH2 0x182E JUMP JUMPDEST SWAP1 CODESIZE PUSH2 0x1AFD JUMP JUMPDEST POP RETURNDATASIZE PUSH2 0x1BF4 JUMP JUMPDEST PUSH2 0x1C21 PUSH1 0xC SLOAD ISZERO ISZERO PUSH2 0x1716 JUMP JUMPDEST PUSH2 0x1C33 PUSH1 0x1 PUSH1 0xFF NOT PUSH1 0xB SLOAD AND OR PUSH1 0xB SSTORE JUMP JUMPDEST PUSH2 0x1C65 PUSH2 0x1C3E PUSH2 0x1761 JUMP JUMPDEST PUSH2 0x1C4F PUSH2 0x1C49 PUSH2 0x6C3 JUMP JUMPDEST DUP3 PUSH2 0x2250 JUMP JUMPDEST PUSH2 0x1C60 PUSH2 0x1C5A PUSH2 0x17AB JUMP JUMPDEST DUP3 PUSH2 0x2291 JUMP JUMPDEST PUSH2 0x2065 JUMP JUMPDEST PUSH2 0x1C73 PUSH2 0x1A7F PUSH1 0x13 SLOAD PUSH2 0x16ED JUMP JUMPDEST PUSH1 0x6 SLOAD PUSH8 0xFFFFFFFFFFFFFFFF AND PUSH2 0x1CAF PUSH2 0x1C92 PUSH1 0xE SLOAD PUSH4 0xFFFFFFFF AND SWAP1 JUMP JUMPDEST PUSH1 0xF SLOAD SWAP1 PUSH1 0x40 MLOAD SWAP5 DUP6 SWAP5 PUSH4 0x230E93B1 PUSH1 0xE1 SHL DUP7 MSTORE PUSH1 0x4 DUP7 ADD PUSH2 0x183D JUMP JUMPDEST SUB PUSH1 0x0 SWAP2 PUSH1 0x20 DUP2 PUSH1 0x1 PUSH1 0x1 PUSH1 0xA0 SHL SUB SWAP4 DUP2 DUP7 DUP7 PUSH32 0x0 AND GAS CALL DUP4 SWAP2 DUP2 PUSH2 0x1E64 JUMPI JUMPDEST POP PUSH2 0x1E24 JUMPI POP PUSH1 0x1 PUSH2 0x1CFE PUSH2 0x1889 JUMP JUMPDEST PUSH4 0x8C379A0 EQ PUSH2 0x1DD3 JUMPI JUMPDEST PUSH2 0x1D9F JUMPI JUMPDEST PUSH32 0x0 AND PUSH1 0xC SLOAD DUP2 EXTCODESIZE ISZERO PUSH2 0x1D9B JUMPI PUSH1 0x40 MLOAD PUSH32 0x8765ECBE00000000000000000000000000000000000000000000000000000000 DUP2 MSTORE PUSH1 0x4 DUP2 ADD SWAP2 SWAP1 SWAP2 MSTORE SWAP2 SWAP1 DUP3 SWAP1 PUSH1 0x24 SWAP1 DUP3 SWAP1 DUP5 SWAP1 GAS CALL DUP1 ISZERO PUSH2 0x1D96 JUMPI PUSH2 0x1D83 JUMPI JUMPDEST POP JUMP JUMPDEST DUP1 PUSH2 0x1D90 PUSH2 0x6FE SWAP3 PUSH2 0x2C8 JUMP JUMPDEST DUP1 PUSH2 0x25C JUMP JUMPDEST PUSH2 0x187D JUMP JUMPDEST DUP3 DUP1 REVERT JUMPDEST PUSH32 0x9C4BFA18304482256875C29FABB1A44A5ECD325F214EA17BAB8F31E869FAF4C8 PUSH2 0x1DCB PUSH2 0x952 PUSH2 0x1916 JUMP JUMPDEST SUB SWAP1 LOG1 PUSH2 0x1D0E JUMP JUMPDEST PUSH2 0x1DDB PUSH2 0x18A7 JUMP JUMPDEST DUP1 PUSH2 0x1DE7 JUMPI JUMPDEST POP PUSH2 0x1D09 JUMP JUMPDEST SWAP1 POP PUSH32 0x2BA61E3733E7AC99181C22307780F651EC8FD92FE661A84DFBE711710B2DC36C PUSH2 0x1E1B DUP5 SWAP3 PUSH1 0x40 MLOAD SWAP2 DUP3 SWAP2 DUP3 PUSH2 0x888 JUMP JUMPDEST SUB SWAP1 LOG1 CODESIZE PUSH2 0x1DE1 JUMP JUMPDEST PUSH2 0x1E2D DUP2 PUSH1 0x10 SSTORE JUMP JUMPDEST PUSH2 0x1E3B PUSH2 0x1BB8 PUSH1 0x14 SLOAD PUSH2 0x16ED JUMP JUMPDEST PUSH32 0x1131472297A800FEE664D1D89CFA8F7676FF07189ECC53F80BBB5F4969099DB8 DUP4 DUP1 LOG2 PUSH2 0x1D0E JUMP JUMPDEST PUSH2 0x1E7D SWAP2 SWAP3 POP PUSH1 0x20 RETURNDATASIZE DUP2 GT PUSH2 0x1C0D JUMPI PUSH2 0x1BFE DUP2 DUP4 PUSH2 0x2FD JUMP JUMPDEST SWAP1 CODESIZE PUSH2 0x1CEE JUMP JUMPDEST PUSH1 0x40 MLOAD SWAP1 PUSH2 0x1E91 DUP3 PUSH2 0x2E1 JUMP JUMPDEST PUSH1 0xC DUP3 MSTORE PUSH32 0x636F64654C6F636174696F6E0000000000000000000000000000000000000000 PUSH1 0x20 DUP4 ADD MSTORE JUMP JUMPDEST PUSH4 0x4E487B71 PUSH1 0xE0 SHL PUSH1 0x0 MSTORE PUSH1 0x21 PUSH1 0x4 MSTORE PUSH1 0x24 PUSH1 0x0 REVERT JUMPDEST PUSH1 0x3 GT ISZERO PUSH2 0x1EDD JUMPI JUMP JUMPDEST PUSH2 0x1EBD JUMP JUMPDEST PUSH1 0x40 MLOAD SWAP1 PUSH2 0x1EEF DUP3 PUSH2 0x2E1 JUMP JUMPDEST PUSH1 0x8 DUP3 MSTORE PUSH32 0x6C616E6775616765000000000000000000000000000000000000000000000000 PUSH1 0x20 DUP4 ADD MSTORE JUMP JUMPDEST PUSH1 0x1 GT ISZERO PUSH2 0x1EDD JUMPI JUMP JUMPDEST PUSH1 0x40 MLOAD SWAP1 PUSH2 0x1F32 DUP3 PUSH2 0x2E1 JUMP JUMPDEST PUSH1 0x6 DUP3 MSTORE PUSH32 0x736F757263650000000000000000000000000000000000000000000000000000 PUSH1 0x20 DUP4 ADD MSTORE JUMP JUMPDEST PUSH1 0x40 MLOAD SWAP1 PUSH2 0x1F6B DUP3 PUSH2 0x2E1 JUMP JUMPDEST PUSH1 0x4 DUP3 MSTORE PUSH32 0x6172677300000000000000000000000000000000000000000000000000000000 PUSH1 0x20 DUP4 ADD MSTORE JUMP JUMPDEST PUSH1 0x0 NOT DUP2 EQ PUSH2 0xF9F JUMPI PUSH1 0x1 ADD SWAP1 JUMP JUMPDEST DUP1 MLOAD DUP3 LT ISZERO PUSH2 0x66E JUMPI PUSH1 0x20 SWAP2 PUSH1 0x5 SHL ADD ADD SWAP1 JUMP JUMPDEST PUSH1 0x40 MLOAD SWAP1 PUSH2 0x1FC7 DUP3 PUSH2 0x2E1 JUMP JUMPDEST PUSH1 0xF DUP3 MSTORE PUSH32 0x736563726574734C6F636174696F6E0000000000000000000000000000000000 PUSH1 0x20 DUP4 ADD MSTORE JUMP JUMPDEST PUSH1 0x40 MLOAD SWAP1 PUSH2 0x2000 DUP3 PUSH2 0x2E1 JUMP JUMPDEST PUSH1 0x7 DUP3 MSTORE PUSH32 0x7365637265747300000000000000000000000000000000000000000000000000 PUSH1 0x20 DUP4 ADD MSTORE JUMP JUMPDEST PUSH1 0x40 MLOAD SWAP1 PUSH2 0x2039 DUP3 PUSH2 0x2E1 JUMP JUMPDEST PUSH1 0x9 DUP3 MSTORE PUSH32 0x6279746573417267730000000000000000000000000000000000000000000000 PUSH1 0x20 DUP4 ADD MSTORE JUMP JUMPDEST PUSH2 0x206D PUSH2 0x22E2 JUMP JUMPDEST SWAP1 PUSH2 0x207F PUSH2 0x2079 PUSH2 0x1E84 JUMP JUMPDEST DUP4 PUSH2 0x2A0E JUMP JUMPDEST PUSH2 0x209C DUP2 MLOAD PUSH2 0x208D DUP2 PUSH2 0x1ED3 JUMP JUMPDEST PUSH2 0x2096 DUP2 PUSH2 0x1ED3 JUMP JUMPDEST DUP4 PUSH2 0x2384 JUMP JUMPDEST PUSH2 0x20A7 PUSH2 0x2079 PUSH2 0x1EE2 JUMP JUMPDEST PUSH2 0x20C1 PUSH1 0x40 DUP3 ADD MLOAD PUSH2 0x20B8 DUP2 PUSH2 0x1F1B JUMP JUMPDEST PUSH2 0x2096 DUP2 PUSH2 0x1F1B JUMP JUMPDEST PUSH2 0x20CC PUSH2 0x2079 PUSH2 0x1F25 JUMP JUMPDEST PUSH2 0x20DA PUSH1 0x60 DUP3 ADD MLOAD DUP4 PUSH2 0x2A0E JUMP JUMPDEST PUSH1 0xA0 DUP2 ADD DUP1 MLOAD MLOAD PUSH2 0x21F7 JUMPI JUMPDEST POP PUSH1 0x80 DUP2 ADD SWAP1 DUP2 MLOAD MLOAD PUSH2 0x215F JUMPI JUMPDEST PUSH1 0xC0 SWAP2 POP ADD DUP1 MLOAD MLOAD PUSH2 0x2107 JUMPI JUMPDEST POP MLOAD MLOAD SWAP1 JUMP JUMPDEST SWAP2 PUSH2 0x2113 PUSH2 0x2079 PUSH2 0x202C JUMP JUMPDEST PUSH2 0x211C DUP3 PUSH2 0x2A93 JUMP JUMPDEST PUSH1 0x0 JUMPDEST DUP4 MLOAD DUP1 MLOAD DUP3 LT ISZERO PUSH2 0x214C JUMPI SWAP1 PUSH2 0x2142 PUSH2 0x213B DUP3 PUSH2 0x2147 SWAP5 PUSH2 0x1FA6 JUMP JUMPDEST MLOAD DUP6 PUSH2 0x295B JUMP JUMPDEST PUSH2 0x1F97 JUMP JUMPDEST PUSH2 0x211F JUMP JUMPDEST POP POP SWAP2 POP PUSH2 0x2159 DUP2 PUSH2 0x2B1F JUMP JUMPDEST CODESIZE PUSH2 0x2101 JUMP JUMPDEST PUSH1 0x20 DUP2 ADD DUP1 MLOAD PUSH2 0x216E DUP2 PUSH2 0x1ED3 JUMP JUMPDEST PUSH2 0x2177 DUP2 PUSH2 0x1ED3 JUMP JUMPDEST ISZERO PUSH2 0x21CD JUMPI PUSH1 0xC0 SWAP3 PUSH2 0x21B0 PUSH2 0x21C8 SWAP3 PUSH2 0x2197 PUSH2 0x2191 PUSH2 0x1FBA JUMP JUMPDEST DUP9 PUSH2 0x2A0E JUMP JUMPDEST MLOAD PUSH2 0x21A1 DUP2 PUSH2 0x1ED3 JUMP JUMPDEST PUSH2 0x21AA DUP2 PUSH2 0x1ED3 JUMP JUMPDEST DUP7 PUSH2 0x2384 JUMP JUMPDEST PUSH2 0x21C1 PUSH2 0x21BB PUSH2 0x1FF3 JUMP JUMPDEST DUP7 PUSH2 0x2A0E JUMP JUMPDEST MLOAD DUP5 PUSH2 0x295B JUMP JUMPDEST PUSH2 0x20F4 JUMP JUMPDEST PUSH1 0x4 PUSH1 0x40 MLOAD PUSH32 0xA80D31F700000000000000000000000000000000000000000000000000000000 DUP2 MSTORE REVERT JUMPDEST SWAP3 PUSH2 0x2209 PUSH2 0x2203 PUSH2 0x1F5E JUMP JUMPDEST DUP5 PUSH2 0x2A0E JUMP JUMPDEST PUSH2 0x2212 DUP4 PUSH2 0x2A93 JUMP JUMPDEST PUSH1 0x0 JUMPDEST DUP5 MLOAD DUP1 MLOAD DUP3 LT ISZERO PUSH2 0x223D JUMPI SWAP1 PUSH2 0x2142 PUSH2 0x2231 DUP3 PUSH2 0x2238 SWAP5 PUSH2 0x1FA6 JUMP JUMPDEST MLOAD DUP7 PUSH2 0x2A0E JUMP JUMPDEST PUSH2 0x2215 JUMP JUMPDEST POP POP SWAP3 POP PUSH2 0x224A DUP3 PUSH2 0x2B1F JUMP JUMPDEST CODESIZE PUSH2 0x20E6 JUMP JUMPDEST DUP2 MLOAD ISZERO PUSH2 0x2267 JUMPI PUSH1 0x0 DUP1 DUP3 MSTORE PUSH1 0x40 DUP3 ADD MSTORE PUSH1 0x60 ADD MSTORE JUMP JUMPDEST PUSH1 0x4 PUSH1 0x40 MLOAD PUSH32 0x22CE3EDD00000000000000000000000000000000000000000000000000000000 DUP2 MSTORE REVERT JUMPDEST DUP2 MLOAD ISZERO PUSH2 0x229E JUMPI PUSH1 0xA0 ADD MSTORE JUMP JUMPDEST PUSH1 0x4 PUSH1 0x40 MLOAD PUSH32 0xFE936CB700000000000000000000000000000000000000000000000000000000 DUP2 MSTORE REVERT JUMPDEST PUSH1 0x40 MLOAD SWAP1 PUSH2 0x22D5 DUP3 PUSH2 0x2E1 JUMP JUMPDEST PUSH1 0x0 PUSH1 0x20 DUP4 PUSH1 0x60 DUP2 MSTORE ADD MSTORE JUMP JUMPDEST PUSH1 0x40 MLOAD PUSH2 0x22EE DUP2 PUSH2 0x2E1 JUMP JUMPDEST PUSH2 0x22F6 PUSH2 0x22C8 JUMP JUMPDEST DUP1 DUP3 MSTORE PUSH1 0x20 DUP3 ADD PUSH1 0x0 DUP2 MSTORE PUSH2 0x2309 PUSH2 0x22C8 JUMP JUMPDEST POP PUSH2 0x100 PUSH1 0x20 DUP4 ADD MSTORE PUSH1 0x40 MLOAD DUP1 SWAP3 MSTORE PUSH1 0x0 DUP3 MSTORE PUSH2 0x120 DUP3 ADD SWAP2 DUP3 LT PUSH2 0x267 JUMPI PUSH1 0x0 SWAP2 PUSH1 0x40 MSTORE MSTORE SWAP1 JUMP JUMPDEST SWAP1 PUSH2 0x233B PUSH2 0x22C8 JUMP JUMPDEST POP PUSH1 0x1F DUP2 AND DUP1 PUSH2 0x236A JUMPI JUMPDEST POP DUP1 PUSH1 0x20 DUP4 ADD MSTORE PUSH1 0x40 MLOAD SWAP1 DUP2 DUP4 MSTORE PUSH1 0x0 DUP3 MSTORE DUP2 ADD PUSH1 0x20 ADD SWAP1 DUP2 LT PUSH2 0x267 JUMPI PUSH1 0x40 MSTORE SWAP1 JUMP JUMPDEST PUSH1 0x20 SUB PUSH1 0x20 DUP2 GT PUSH2 0xF9F JUMPI DUP2 ADD DUP1 SWAP2 GT PUSH2 0xF9F JUMPI CODESIZE PUSH2 0x2346 JUMP JUMPDEST SWAP1 DUP2 MLOAD SWAP2 PUSH2 0x2390 PUSH2 0x22C8 JUMP JUMPDEST POP DUP3 MLOAD MLOAD PUSH1 0x1 DUP2 ADD SWAP1 DUP2 DUP2 GT PUSH2 0xF9F JUMPI PUSH1 0x20 DUP6 ADD MLOAD DUP2 LT ISZERO PUSH2 0x23E9 JUMPI JUMPDEST PUSH1 0xC2 PUSH1 0x20 PUSH2 0x6FE SWAP7 MLOAD SWAP3 DUP4 ADD ADD MSTORE8 DUP1 MLOAD DUP3 GT PUSH2 0x23E1 JUMPI JUMPDEST POP POP PUSH1 0x40 MLOAD SWAP2 PUSH1 0x20 DUP4 ADD MSTORE PUSH1 0x20 DUP3 MSTORE PUSH2 0x23DC DUP3 PUSH2 0x2E1 JUMP JUMPDEST PUSH2 0x295B JUMP JUMPDEST MSTORE CODESIZE DUP1 PUSH2 0x23C4 JUMP JUMPDEST DUP2 PUSH1 0x1 SHL SWAP5 DUP3 DUP7 DIV PUSH1 0x2 EQ DUP4 ISZERO OR ISZERO PUSH2 0xF9F JUMPI PUSH1 0x20 DUP2 PUSH2 0x241B PUSH2 0x6FE SWAP9 PUSH2 0x2414 PUSH1 0xC2 SWAP6 MLOAD SWAP2 DUP5 PUSH2 0x2332 JUMP JUMPDEST POP DUP3 PUSH2 0x28A3 JUMP JUMPDEST POP SWAP7 POP POP POP PUSH2 0x23AD JUMP JUMPDEST SWAP1 DUP2 PUSH1 0x1 SHL SWAP2 DUP1 DUP4 DIV PUSH1 0x2 EQ SWAP1 ISZERO OR ISZERO PUSH2 0xF9F JUMPI JUMP JUMPDEST PUSH2 0x2443 PUSH2 0x22C8 JUMP JUMPDEST POP DUP1 MLOAD MLOAD PUSH1 0x1 DUP2 ADD SWAP1 DUP2 DUP2 GT PUSH2 0xF9F JUMPI PUSH1 0x20 DUP4 ADD MLOAD DUP2 LT ISZERO PUSH2 0x247C JUMPI JUMPDEST PUSH1 0x5B PUSH1 0x20 DUP5 MLOAD SWAP3 DUP4 ADD ADD MSTORE8 DUP1 MLOAD DUP3 GT PUSH2 0x2478 JUMPI POP POP SWAP1 JUMP JUMPDEST MSTORE SWAP1 JUMP JUMPDEST DUP2 PUSH1 0x1 SHL DUP3 DUP2 DIV PUSH1 0x2 EQ DUP4 ISZERO OR ISZERO PUSH2 0xF9F JUMPI PUSH2 0x24A5 SWAP1 PUSH2 0x249E DUP6 MLOAD SWAP2 DUP7 PUSH2 0x2332 JUMP JUMPDEST POP DUP5 PUSH2 0x28A3 JUMP JUMPDEST POP PUSH2 0x2460 JUMP JUMPDEST PUSH2 0x24B3 PUSH2 0x22C8 JUMP JUMPDEST POP DUP1 MLOAD MLOAD PUSH1 0x1 DUP2 ADD SWAP1 DUP2 DUP2 GT PUSH2 0xF9F JUMPI PUSH1 0x20 DUP4 ADD MLOAD DUP2 LT ISZERO PUSH2 0x24E8 JUMPI JUMPDEST PUSH1 0x5A PUSH1 0x20 DUP5 MLOAD SWAP3 DUP4 ADD ADD MSTORE8 DUP1 MLOAD DUP3 GT PUSH2 0x2478 JUMPI POP POP SWAP1 JUMP JUMPDEST DUP2 PUSH1 0x1 SHL DUP3 DUP2 DIV PUSH1 0x2 EQ DUP4 ISZERO OR ISZERO PUSH2 0xF9F JUMPI PUSH2 0x250A SWAP1 PUSH2 0x249E DUP6 MLOAD SWAP2 DUP7 PUSH2 0x2332 JUMP JUMPDEST POP PUSH2 0x24D0 JUMP JUMPDEST PUSH2 0x2518 PUSH2 0x22C8 JUMP JUMPDEST POP DUP1 MLOAD MLOAD PUSH1 0x1 DUP2 ADD SWAP1 DUP2 DUP2 GT PUSH2 0xF9F JUMPI PUSH1 0x20 DUP4 ADD MLOAD DUP2 LT ISZERO PUSH2 0x254D JUMPI JUMPDEST PUSH1 0x59 PUSH1 0x20 DUP5 MLOAD SWAP3 DUP4 ADD ADD MSTORE8 DUP1 MLOAD DUP3 GT PUSH2 0x2478 JUMPI POP POP SWAP1 JUMP JUMPDEST DUP2 PUSH1 0x1 SHL DUP3 DUP2 DIV PUSH1 0x2 EQ DUP4 ISZERO OR ISZERO PUSH2 0xF9F JUMPI PUSH2 0x256F SWAP1 PUSH2 0x249E DUP6 MLOAD SWAP2 DUP7 PUSH2 0x2332 JUMP JUMPDEST POP PUSH2 0x2535 JUMP JUMPDEST PUSH2 0x257D PUSH2 0x22C8 JUMP JUMPDEST POP DUP1 MLOAD MLOAD PUSH1 0x1 DUP2 ADD SWAP1 DUP2 DUP2 GT PUSH2 0xF9F JUMPI PUSH1 0x20 DUP4 ADD MLOAD DUP2 LT ISZERO PUSH2 0x25B2 JUMPI JUMPDEST PUSH1 0x58 PUSH1 0x20 DUP5 MLOAD SWAP3 DUP4 ADD ADD MSTORE8 DUP1 MLOAD DUP3 GT PUSH2 0x2478 JUMPI POP POP SWAP1 JUMP JUMPDEST DUP2 PUSH1 0x1 SHL DUP3 DUP2 DIV PUSH1 0x2 EQ DUP4 ISZERO OR ISZERO PUSH2 0xF9F JUMPI PUSH2 0x25D4 SWAP1 PUSH2 0x249E DUP6 MLOAD SWAP2 DUP7 PUSH2 0x2332 JUMP JUMPDEST POP PUSH2 0x259A JUMP JUMPDEST PUSH2 0x25E2 PUSH2 0x22C8 JUMP JUMPDEST POP DUP1 MLOAD MLOAD PUSH1 0x1 DUP2 ADD SWAP1 DUP2 DUP2 GT PUSH2 0xF9F JUMPI PUSH1 0x20 DUP4 ADD MLOAD DUP2 LT ISZERO PUSH2 0x2617 JUMPI JUMPDEST PUSH1 0x7B PUSH1 0x20 DUP5 MLOAD SWAP3 DUP4 ADD ADD MSTORE8 DUP1 MLOAD DUP3 GT PUSH2 0x2478 JUMPI POP POP SWAP1 JUMP JUMPDEST DUP2 PUSH1 0x1 SHL DUP3 DUP2 DIV PUSH1 0x2 EQ DUP4 ISZERO OR ISZERO PUSH2 0xF9F JUMPI PUSH2 0x2639 SWAP1 PUSH2 0x249E DUP6 MLOAD SWAP2 DUP7 PUSH2 0x2332 JUMP JUMPDEST POP PUSH2 0x25FF JUMP JUMPDEST PUSH2 0x2647 PUSH2 0x22C8 JUMP JUMPDEST POP DUP1 MLOAD MLOAD PUSH1 0x1 DUP2 ADD SWAP1 DUP2 DUP2 GT PUSH2 0xF9F JUMPI PUSH1 0x20 DUP4 ADD MLOAD DUP2 LT ISZERO PUSH2 0x267C JUMPI JUMPDEST PUSH1 0x7A PUSH1 0x20 DUP5 MLOAD SWAP3 DUP4 ADD ADD MSTORE8 DUP1 MLOAD DUP3 GT PUSH2 0x2478 JUMPI POP POP SWAP1 JUMP JUMPDEST DUP2 PUSH1 0x1 SHL DUP3 DUP2 DIV PUSH1 0x2 EQ DUP4 ISZERO OR ISZERO PUSH2 0xF9F JUMPI PUSH2 0x269E SWAP1 PUSH2 0x249E DUP6 MLOAD SWAP2 DUP7 PUSH2 0x2332 JUMP JUMPDEST POP PUSH2 0x2664 JUMP JUMPDEST PUSH2 0x26AC PUSH2 0x22C8 JUMP JUMPDEST POP DUP1 MLOAD MLOAD PUSH1 0x1 DUP2 ADD SWAP1 DUP2 DUP2 GT PUSH2 0xF9F JUMPI PUSH1 0x20 DUP4 ADD MLOAD DUP2 LT ISZERO PUSH2 0x26E1 JUMPI JUMPDEST PUSH1 0x79 PUSH1 0x20 DUP5 MLOAD SWAP3 DUP4 ADD ADD MSTORE8 DUP1 MLOAD DUP3 GT PUSH2 0x2478 JUMPI POP POP SWAP1 JUMP JUMPDEST DUP2 PUSH1 0x1 SHL DUP3 DUP2 DIV PUSH1 0x2 EQ DUP4 ISZERO OR ISZERO PUSH2 0xF9F JUMPI PUSH2 0x2703 SWAP1 PUSH2 0x249E DUP6 MLOAD SWAP2 DUP7 PUSH2 0x2332 JUMP JUMPDEST POP PUSH2 0x26C9 JUMP JUMPDEST PUSH2 0x2711 PUSH2 0x22C8 JUMP JUMPDEST POP DUP1 MLOAD MLOAD PUSH1 0x1 DUP2 ADD SWAP1 DUP2 DUP2 GT PUSH2 0xF9F JUMPI PUSH1 0x20 DUP4 ADD MLOAD DUP2 LT ISZERO PUSH2 0x2746 JUMPI JUMPDEST PUSH1 0x78 PUSH1 0x20 DUP5 MLOAD SWAP3 DUP4 ADD ADD MSTORE8 DUP1 MLOAD DUP3 GT PUSH2 0x2478 JUMPI POP POP SWAP1 JUMP JUMPDEST DUP2 PUSH1 0x1 SHL DUP3 DUP2 DIV PUSH1 0x2 EQ DUP4 ISZERO OR ISZERO PUSH2 0xF9F JUMPI PUSH2 0x2768 SWAP1 PUSH2 0x249E DUP6 MLOAD SWAP2 DUP7 PUSH2 0x2332 JUMP JUMPDEST POP PUSH2 0x272E JUMP JUMPDEST SWAP1 PUSH2 0x2777 PUSH2 0x22C8 JUMP JUMPDEST POP DUP2 MLOAD MLOAD PUSH1 0x1 DUP2 ADD SWAP2 DUP3 DUP3 GT PUSH2 0xF9F JUMPI PUSH1 0x20 DUP5 ADD MLOAD DUP3 LT ISZERO PUSH2 0x27AA JUMPI JUMPDEST PUSH1 0x20 DUP5 MLOAD SWAP3 DUP4 ADD ADD MSTORE8 DUP1 MLOAD DUP3 GT PUSH2 0x2478 JUMPI POP POP SWAP1 JUMP JUMPDEST DUP3 PUSH1 0x1 SHL DUP4 DUP2 DIV PUSH1 0x2 EQ DUP5 ISZERO OR ISZERO PUSH2 0xF9F JUMPI PUSH2 0x27D3 SWAP1 PUSH2 0x27CC DUP7 MLOAD SWAP2 DUP8 PUSH2 0x2332 JUMP JUMPDEST POP DUP6 PUSH2 0x28A3 JUMP JUMPDEST POP PUSH2 0x2794 JUMP JUMPDEST SWAP1 PUSH2 0x27E6 DUP3 MLOAD SWAP2 DUP4 PUSH2 0x2332 JUMP JUMPDEST POP PUSH2 0x27EF PUSH2 0x22C8 JUMP JUMPDEST POP DUP1 MLOAD SWAP1 PUSH2 0x27FB PUSH2 0x22C8 JUMP JUMPDEST POP PUSH2 0x2809 DUP2 MLOAD DUP4 GT ISZERO PUSH2 0x2954 JUMP JUMPDEST DUP3 MLOAD MLOAD SWAP3 PUSH2 0x2817 DUP4 DUP6 PUSH2 0x1709 JUMP JUMPDEST SWAP2 PUSH1 0x20 SWAP3 DUP3 DUP5 DUP1 SWAP5 ADD MLOAD DUP3 GT PUSH2 0x288C JUMPI JUMPDEST MLOAD DUP4 DUP2 MLOAD SWAP8 DUP3 ADD ADD SWAP7 DUP3 GT PUSH2 0x2884 JUMPI JUMPDEST POP POP ADD SWAP2 JUMPDEST DUP2 DUP2 LT ISZERO PUSH2 0x285E JUMPI PUSH1 0x0 NOT SWAP2 SUB PUSH2 0x100 EXP ADD SWAP1 DUP2 NOT SWAP1 MLOAD AND SWAP1 DUP3 MLOAD AND OR SWAP1 MSTORE JUMP JUMPDEST SWAP2 SWAP3 PUSH2 0x2879 PUSH2 0x2873 PUSH2 0x287F SWAP3 DUP7 MLOAD DUP2 MSTORE PUSH2 0x16FB JUMP JUMPDEST SWAP5 PUSH2 0x16FB JUMP JUMPDEST SWAP3 PUSH2 0x165A JUMP JUMPDEST PUSH2 0x283D JUMP JUMPDEST MSTORE CODESIZE DUP1 PUSH2 0x2838 JUMP JUMPDEST PUSH2 0x289E PUSH2 0x2898 DUP4 PUSH2 0x2425 JUMP JUMPDEST DUP3 PUSH2 0x27D9 JUMP JUMPDEST PUSH2 0x2828 JUMP JUMPDEST SWAP1 PUSH2 0x28AC PUSH2 0x22C8 JUMP JUMPDEST POP DUP1 MLOAD PUSH2 0x28B7 PUSH2 0x22C8 JUMP JUMPDEST POP PUSH2 0x28C5 DUP3 MLOAD DUP3 GT ISZERO PUSH2 0x2954 JUMP JUMPDEST DUP3 MLOAD MLOAD SWAP2 PUSH2 0x28D3 DUP3 DUP5 PUSH2 0x1709 JUMP JUMPDEST PUSH1 0x20 SWAP2 DUP3 SWAP2 DUP3 DUP8 ADD MLOAD DUP2 GT PUSH2 0x293D JUMPI JUMPDEST DUP7 MLOAD DUP4 DUP2 MLOAD SWAP8 DUP3 ADD ADD SWAP7 DUP3 GT PUSH2 0x2935 JUMPI JUMPDEST POP POP ADD SWAP2 JUMPDEST DUP2 DUP2 LT ISZERO PUSH2 0x291B JUMPI PUSH1 0x0 NOT SWAP2 SUB PUSH2 0x100 EXP ADD SWAP1 DUP2 NOT SWAP1 MLOAD AND SWAP1 DUP3 MLOAD AND OR SWAP1 MSTORE SWAP1 JUMP JUMPDEST SWAP2 SWAP3 PUSH2 0x2879 PUSH2 0x2873 PUSH2 0x2930 SWAP3 DUP7 MLOAD DUP2 MSTORE PUSH2 0x16FB JUMP JUMPDEST PUSH2 0x28F9 JUMP JUMPDEST MSTORE CODESIZE DUP1 PUSH2 0x28F4 JUMP JUMPDEST PUSH2 0x294F PUSH2 0x2949 DUP3 PUSH2 0x2425 JUMP JUMPDEST DUP9 PUSH2 0x27D9 JUMP JUMPDEST PUSH2 0x28E3 JUMP JUMPDEST ISZERO PUSH2 0x267 JUMPI JUMP JUMPDEST DUP2 MLOAD PUSH2 0x1D80 SWAP3 SWAP2 SWAP1 PUSH8 0xFFFFFFFFFFFFFFFF DUP2 AND SWAP1 PUSH1 0x17 DUP3 GT PUSH2 0x2993 JUMPI PUSH2 0x298B SWAP2 POP PUSH1 0x40 PUSH1 0xFF DUP5 MLOAD SWAP3 AND OR SWAP1 PUSH2 0x276E JUMP JUMPDEST POP JUMPDEST MLOAD PUSH2 0x28A3 JUMP JUMPDEST POP PUSH1 0xFF DUP2 GT PUSH2 0x29B8 JUMPI PUSH2 0x29B2 SWAP1 PUSH2 0x29AA DUP4 MLOAD PUSH2 0x2575 JUMP JUMPDEST POP DUP3 MLOAD PUSH2 0x2CE9 JUMP JUMPDEST POP PUSH2 0x298D JUMP JUMPDEST PUSH2 0xFFFF DUP2 GT PUSH2 0x29D7 JUMPI PUSH2 0x29B2 SWAP1 PUSH2 0x29CF DUP4 MLOAD PUSH2 0x2510 JUMP JUMPDEST POP DUP3 MLOAD PUSH2 0x2C82 JUMP JUMPDEST PUSH4 0xFFFFFFFF DUP2 GT PUSH2 0x29F8 JUMPI PUSH2 0x29B2 SWAP1 PUSH2 0x29F0 DUP4 MLOAD PUSH2 0x24AB JUMP JUMPDEST POP DUP3 MLOAD PUSH2 0x2C19 JUMP JUMPDEST PUSH2 0x29B2 SWAP1 PUSH2 0x2A06 DUP4 MLOAD PUSH2 0x243B JUMP JUMPDEST POP DUP3 MLOAD PUSH2 0x2BAC JUMP JUMPDEST DUP2 MLOAD PUSH2 0x1D80 SWAP3 SWAP2 SWAP1 PUSH8 0xFFFFFFFFFFFFFFFF DUP2 AND SWAP1 PUSH1 0x17 DUP3 GT PUSH2 0x2A3E JUMPI PUSH2 0x298B SWAP2 POP PUSH1 0x60 PUSH1 0xFF DUP5 MLOAD SWAP3 AND OR SWAP1 PUSH2 0x276E JUMP JUMPDEST POP PUSH1 0xFF DUP2 GT PUSH2 0x2A55 JUMPI PUSH2 0x29B2 SWAP1 PUSH2 0x29AA DUP4 MLOAD PUSH2 0x2709 JUMP JUMPDEST PUSH2 0xFFFF DUP2 GT PUSH2 0x2A6C JUMPI PUSH2 0x29B2 SWAP1 PUSH2 0x29CF DUP4 MLOAD PUSH2 0x26A4 JUMP JUMPDEST PUSH4 0xFFFFFFFF DUP2 GT PUSH2 0x2A85 JUMPI PUSH2 0x29B2 SWAP1 PUSH2 0x29F0 DUP4 MLOAD PUSH2 0x263F JUMP JUMPDEST PUSH2 0x29B2 SWAP1 PUSH2 0x2A06 DUP4 MLOAD PUSH2 0x25DA JUMP JUMPDEST DUP1 MLOAD SWAP1 PUSH2 0x2A9E PUSH2 0x22C8 JUMP JUMPDEST POP DUP2 MLOAD MLOAD PUSH1 0x1 DUP2 ADD SWAP1 DUP2 DUP2 GT PUSH2 0xF9F JUMPI PUSH1 0x20 DUP5 ADD MLOAD DUP2 LT ISZERO PUSH2 0x2AEC JUMPI JUMPDEST PUSH1 0x9F PUSH1 0x20 DUP1 SWAP6 MLOAD SWAP3 DUP4 ADD ADD MSTORE8 DUP1 MLOAD DUP3 GT PUSH2 0x2AE4 JUMPI JUMPDEST POP POP ADD DUP1 MLOAD SWAP1 PUSH1 0x1 DUP3 ADD DUP1 SWAP3 GT PUSH2 0xF9F JUMPI MSTORE JUMP JUMPDEST MSTORE CODESIZE DUP1 PUSH2 0x2AD0 JUMP JUMPDEST DUP2 PUSH1 0x1 SHL SWAP4 DUP3 DUP6 DIV PUSH1 0x2 EQ DUP4 ISZERO OR ISZERO PUSH2 0xF9F JUMPI PUSH1 0x20 DUP2 PUSH2 0x2B15 DUP3 SWAP8 PUSH2 0x2414 PUSH1 0x9F SWAP6 MLOAD SWAP2 DUP5 PUSH2 0x2332 JUMP JUMPDEST POP SWAP6 POP POP POP PUSH2 0x2ABB JUMP JUMPDEST DUP1 MLOAD SWAP1 PUSH2 0x2B2A PUSH2 0x22C8 JUMP JUMPDEST POP DUP2 MLOAD MLOAD PUSH1 0x1 DUP2 ADD SWAP1 DUP2 DUP2 GT PUSH2 0xF9F JUMPI PUSH1 0x20 DUP5 ADD MLOAD DUP2 LT ISZERO PUSH2 0x2B79 JUMPI JUMPDEST PUSH1 0xFF PUSH1 0x20 DUP1 SWAP6 MLOAD SWAP3 DUP4 ADD ADD MSTORE8 DUP1 MLOAD DUP3 GT PUSH2 0x2B71 JUMPI JUMPDEST POP POP ADD DUP1 MLOAD PUSH1 0x0 NOT DUP2 ADD SWAP2 SWAP1 DUP3 GT PUSH2 0xF9F JUMPI MSTORE JUMP JUMPDEST MSTORE CODESIZE DUP1 PUSH2 0x2B5C JUMP JUMPDEST DUP2 PUSH1 0x1 SHL SWAP4 DUP3 DUP6 DIV PUSH1 0x2 EQ DUP4 ISZERO OR ISZERO PUSH2 0xF9F JUMPI PUSH1 0x20 DUP2 PUSH2 0x2BA2 DUP3 SWAP8 PUSH2 0x2414 PUSH1 0xFF SWAP6 MLOAD SWAP2 DUP5 PUSH2 0x2332 JUMP JUMPDEST POP SWAP6 POP POP POP PUSH2 0x2B47 JUMP JUMPDEST SWAP1 PUSH2 0x2BB5 PUSH2 0x22C8 JUMP JUMPDEST POP DUP2 MLOAD MLOAD DUP1 PUSH1 0x8 ADD SWAP2 DUP3 PUSH1 0x8 GT PUSH2 0xF9F JUMPI PUSH1 0x20 DUP5 ADD MLOAD DUP4 GT PUSH2 0x2BF8 JUMPI JUMPDEST PUSH1 0x8 DUP5 MLOAD SWAP3 DUP4 ADD ADD SWAP1 PUSH8 0xFFFFFFFFFFFFFFFF NOT DUP3 MLOAD AND OR SWAP1 MSTORE DUP1 MLOAD DUP3 GT PUSH2 0x2478 JUMPI POP POP SWAP1 JUMP JUMPDEST DUP3 PUSH1 0x1 SHL DUP4 DUP2 DIV PUSH1 0x2 EQ DUP5 ISZERO OR ISZERO PUSH2 0xF9F JUMPI PUSH2 0x2C14 SWAP1 DUP6 PUSH2 0x27D9 JUMP JUMPDEST PUSH2 0x2BD2 JUMP JUMPDEST SWAP1 PUSH2 0x2C22 PUSH2 0x22C8 JUMP JUMPDEST POP DUP2 MLOAD MLOAD DUP1 PUSH1 0x4 ADD SWAP2 DUP3 PUSH1 0x4 GT PUSH2 0xF9F JUMPI PUSH1 0x20 DUP5 ADD MLOAD DUP4 GT PUSH2 0x2C61 JUMPI JUMPDEST PUSH1 0x4 DUP5 MLOAD SWAP3 DUP4 ADD ADD SWAP1 PUSH4 0xFFFFFFFF NOT DUP3 MLOAD AND OR SWAP1 MSTORE DUP1 MLOAD DUP3 GT PUSH2 0x2478 JUMPI POP POP SWAP1 JUMP JUMPDEST DUP3 PUSH1 0x1 SHL DUP4 DUP2 DIV PUSH1 0x2 EQ DUP5 ISZERO OR ISZERO PUSH2 0xF9F JUMPI PUSH2 0x2C7D SWAP1 DUP6 PUSH2 0x27D9 JUMP JUMPDEST PUSH2 0x2C3F JUMP JUMPDEST SWAP1 PUSH2 0x2C8B PUSH2 0x22C8 JUMP JUMPDEST POP DUP2 MLOAD MLOAD DUP1 PUSH1 0x2 ADD SWAP2 DUP3 PUSH1 0x2 GT PUSH2 0xF9F JUMPI PUSH1 0x20 DUP5 ADD MLOAD DUP4 GT PUSH2 0x2CC8 JUMPI JUMPDEST PUSH1 0x2 DUP5 MLOAD SWAP3 DUP4 ADD ADD SWAP1 PUSH2 0xFFFF NOT DUP3 MLOAD AND OR SWAP1 MSTORE DUP1 MLOAD DUP3 GT PUSH2 0x2478 JUMPI POP POP SWAP1 JUMP JUMPDEST DUP3 PUSH1 0x1 SHL DUP4 DUP2 DIV PUSH1 0x2 EQ DUP5 ISZERO OR ISZERO PUSH2 0xF9F JUMPI PUSH2 0x2CE4 SWAP1 DUP6 PUSH2 0x27D9 JUMP JUMPDEST PUSH2 0x2CA8 JUMP JUMPDEST SWAP1 PUSH2 0x2CF2 PUSH2 0x22C8 JUMP JUMPDEST POP DUP2 MLOAD MLOAD DUP1 PUSH1 0x1 ADD SWAP2 DUP3 PUSH1 0x1 GT PUSH2 0xF9F JUMPI PUSH1 0x20 DUP5 ADD MLOAD DUP4 GT PUSH2 0x2D2E JUMPI JUMPDEST PUSH1 0x1 DUP5 MLOAD SWAP3 DUP4 ADD ADD SWAP1 PUSH1 0xFF NOT DUP3 MLOAD AND OR SWAP1 MSTORE DUP1 MLOAD DUP3 GT PUSH2 0x2478 JUMPI POP POP SWAP1 JUMP JUMPDEST DUP3 PUSH1 0x1 SHL DUP4 DUP2 DIV PUSH1 0x2 EQ DUP5 ISZERO OR ISZERO PUSH2 0xF9F JUMPI PUSH2 0x2D4A SWAP1 DUP6 PUSH2 0x27D9 JUMP JUMPDEST PUSH2 0x2D0F JUMP JUMPDEST SWAP1 DUP2 MLOAD PUSH8 0xFFFFFFFFFFFFFFFF DUP2 GT PUSH2 0x2DC JUMPI PUSH2 0x2D75 DUP2 PUSH2 0x2D70 PUSH1 0x5 SLOAD PUSH2 0x689 JUMP JUMPDEST PUSH2 0x15B4 JUMP JUMPDEST PUSH1 0x20 DUP1 PUSH1 0x1F DUP4 GT PUSH1 0x1 EQ PUSH2 0x2DB1 JUMPI POP DUP2 SWAP3 SWAP4 PUSH1 0x0 SWAP3 PUSH2 0x2DA6 JUMPI JUMPDEST POP POP DUP2 PUSH1 0x1 SHL SWAP2 PUSH1 0x0 NOT SWAP1 PUSH1 0x3 SHL SHR NOT AND OR PUSH1 0x5 SSTORE JUMP JUMPDEST ADD MLOAD SWAP1 POP CODESIZE DUP1 PUSH2 0x2D8F JUMP JUMPDEST SWAP1 PUSH1 0x1F NOT DUP4 AND SWAP5 PUSH2 0x2DE4 PUSH1 0x5 PUSH1 0x0 MSTORE PUSH32 0x36B6384B5ECA791C62761152D0C79BB0604C104A5FB6F4EB0703F3154BB3DB0 SWAP1 JUMP JUMPDEST SWAP3 PUSH1 0x0 SWAP1 JUMPDEST DUP8 DUP3 LT PUSH2 0x2E21 JUMPI POP POP DUP4 PUSH1 0x1 SWAP6 SWAP7 LT PUSH2 0x2E08 JUMPI JUMPDEST POP POP POP DUP2 SHL ADD PUSH1 0x5 SSTORE JUMP JUMPDEST ADD MLOAD PUSH1 0x0 NOT PUSH1 0xF8 DUP5 PUSH1 0x3 SHL AND SHR NOT AND SWAP1 SSTORE CODESIZE DUP1 DUP1 PUSH2 0x2DFD JUMP JUMPDEST DUP1 PUSH1 0x1 DUP6 SWAP7 DUP3 SWAP5 SWAP7 DUP7 ADD MLOAD DUP2 SSTORE ADD SWAP6 ADD SWAP4 ADD SWAP1 PUSH2 0x2DE9 JUMP JUMPDEST PUSH1 0x20 DUP2 MLOAD SWAP2 ADD MLOAD SWAP1 PUSH1 0x20 DUP2 LT PUSH2 0x2E4D JUMPI POP SWAP1 JUMP JUMPDEST PUSH1 0x0 NOT SWAP1 PUSH1 0x20 SUB PUSH1 0x3 SHL SHL AND SWAP1 JUMP JUMPDEST PUSH1 0x1C SLOAD PUSH9 0x10000000000000000 DUP2 LT ISZERO PUSH2 0x2DC JUMPI PUSH2 0x2E81 PUSH1 0x1 SWAP2 DUP3 DUP2 ADD PUSH1 0x1C SSTORE PUSH2 0x637 JUMP JUMPDEST SWAP3 SWAP1 SWAP3 PUSH2 0x2F54 JUMPI DUP1 MLOAD SWAP1 PUSH8 0xFFFFFFFFFFFFFFFF DUP3 GT PUSH2 0x2DC JUMPI PUSH2 0x2EAE DUP3 PUSH2 0x2EA8 DUP7 SLOAD PUSH2 0x689 JUMP JUMPDEST DUP7 PUSH2 0x160A JUMP JUMPDEST PUSH1 0x20 SWAP1 DUP2 PUSH1 0x1F DUP5 GT PUSH1 0x1 EQ PUSH2 0x2EEA JUMPI POP SWAP3 DUP3 SWAP4 SWAP2 DUP4 SWAP3 PUSH1 0x0 SWAP5 PUSH2 0x2EDF JUMPI JUMPDEST POP POP SHL SWAP2 PUSH1 0x0 NOT SWAP1 PUSH1 0x3 SHL SHR NOT AND OR SWAP1 SSTORE JUMP JUMPDEST ADD MLOAD SWAP3 POP CODESIZE DUP1 PUSH2 0x2ECC JUMP JUMPDEST SWAP2 SWAP1 DUP4 PUSH1 0x1F NOT DUP2 AND PUSH2 0x2F01 DUP9 PUSH1 0x0 MSTORE PUSH1 0x20 PUSH1 0x0 KECCAK256 SWAP1 JUMP JUMPDEST SWAP5 PUSH1 0x0 SWAP1 JUMPDEST DUP9 DUP4 DUP4 LT PUSH2 0x2F3A JUMPI POP POP POP LT PUSH2 0x2F21 JUMPI JUMPDEST POP POP POP DUP2 SHL ADD SWAP1 SSTORE JUMP JUMPDEST ADD MLOAD PUSH1 0x0 NOT PUSH1 0xF8 DUP5 PUSH1 0x3 SHL AND SHR NOT AND SWAP1 SSTORE CODESIZE DUP1 DUP1 PUSH2 0x2F17 JUMP JUMPDEST DUP6 DUP8 ADD MLOAD DUP9 SSTORE SWAP1 SWAP7 ADD SWAP6 SWAP5 DUP6 ADD SWAP5 DUP8 SWAP4 POP SWAP1 DUP2 ADD SWAP1 PUSH2 0x2F06 JUMP JUMPDEST PUSH2 0x673 JUMP JUMPDEST SWAP1 SWAP2 PUSH2 0x2F70 PUSH2 0x899 SWAP4 PUSH1 0x40 DUP5 MSTORE PUSH1 0x40 DUP5 ADD SWAP1 PUSH2 0x848 JUMP JUMPDEST SWAP2 PUSH1 0x20 DUP2 DUP5 SUB SWAP2 ADD MSTORE PUSH2 0x848 JUMP JUMPDEST ISZERO PUSH2 0x2F85 JUMPI JUMP JUMPDEST PUSH1 0x64 PUSH1 0x40 MLOAD PUSH3 0x461BCD PUSH1 0xE5 SHL DUP2 MSTORE PUSH1 0x20 PUSH1 0x4 DUP3 ADD MSTORE PUSH1 0x1B PUSH1 0x24 DUP3 ADD MSTORE PUSH32 0x4572726F20616F207061676172206120696E64656E697A6163616F0000000000 PUSH1 0x44 DUP3 ADD MSTORE REVERT JUMPDEST PUSH1 0x1E SLOAD PUSH1 0x1A SLOAD GT ISZERO PUSH2 0x3007 JUMPI PUSH2 0x6FE PUSH1 0x0 DUP1 DUP1 DUP1 PUSH2 0x2FF5 PUSH2 0xBAF PUSH2 0xBAF PUSH1 0x17 SLOAD PUSH1 0x1 PUSH1 0x1 PUSH1 0xA0 SHL SUB AND SWAP1 JUMP JUMPDEST SELFBALANCE SWAP1 GAS CALL PUSH2 0x3001 PUSH2 0x1916 JUMP JUMPDEST POP PUSH2 0x2F7E JUMP JUMPDEST PUSH1 0x0 DUP1 DUP1 DUP1 PUSH1 0x1 PUSH1 0x1 PUSH1 0xA0 SHL SUB PUSH1 0x16 SLOAD AND SELFBALANCE SWAP1 GAS CALL PUSH2 0x3024 PUSH2 0x1916 JUMP JUMPDEST POP ISZERO PUSH2 0x302C JUMPI JUMP JUMPDEST PUSH1 0x84 PUSH1 0x40 MLOAD PUSH3 0x461BCD PUSH1 0xE5 SHL DUP2 MSTORE PUSH1 0x20 PUSH1 0x4 DUP3 ADD MSTORE PUSH1 0x2D PUSH1 0x24 DUP3 ADD MSTORE PUSH32 0x4572726F20616F207265746F726E6172206F732066756E646F73207061726120 PUSH1 0x44 DUP3 ADD MSTORE PUSH32 0x6120696E73746974756963616F00000000000000000000000000000000000000 PUSH1 0x64 DUP3 ADD MSTORE REVERT INVALID LOG2 PUSH5 0x6970667358 0x22 SLT KECCAK256 0xCC DUP1 MULMOD 0xDF 0xE7 0xBE 0xC0 PUSH27 0x20DF5BC39458D8EBCD6C886BE4026A6B83FA75E14A32AD4C64736F PUSH13 0x63430008130033000000000000 "},"methodIdentifiers":{"acceptOwnership()":"79ba5097","checkUpkeep(bytes)":"6e04ff0d","contractBalance()":"8b7afe2e","donID()":"6e74336b","farmer()":"d811fcf0","fulfillGasLimit()":"24b93e3e","gasLimit()":"f68016b7","handleOracleFulfillment(bytes32,bytes,bytes)":"0ca76175","humidityLimit()":"a3097139","institution()":"d1384eb6","lastUpkeepTimeStamp()":"089ea02e","latestError()":"fffeb84e","latestRequestId()":"1aa46f59","latestResponse()":"bef3a2f0","owner()":"8da5cb5b","performUpkeep(bytes)":"4585e33b","registry()":"7b103999","reparationValue()":"48bd6f05","request()":"338cdca1","requestCBOR()":"688ecfd1","responseCounter()":"381fc4b5","s_lastError()":"4b0795a8","s_lastRequestId()":"b1e21749","s_lastResponse()":"3944ea3a","s_requestCounter()":"48802b92","s_responseCounter()":"43cd3d86","s_upkeepCounter()":"f5c1279b","sampleMaxSize()":"ebf14a55","sampleStorage(uint256)":"277e2213","setRequest(bytes,uint64,uint32,bytes32,uint256)":"472cbbb0","subscriptionId()":"09c1ba2e","transferOwnership(address)":"f2fde38b","updateInterval()":"fd2c80ae","upkeepContract()":"5e0611f1","upkeepCounter()":"a3d3c0d2","upkeepId()":"d2aa789f"}}}}}