{"contracts/AutomatedFunctionsConsumer.sol":{"AutomatedFunctionsConsumer":{"abi":[{"inputs":[{"internalType":"address","name":"_deployer","type":"address"},{"internalType":"address","name":"_farmer","type":"address"},{"internalType":"uint256","name":"_humidityLimit","type":"uint256"},{"internalType":"uint256","name":"_sampleMaxSize","type":"uint256"},{"internalType":"uint256","name":"_reparationValue","type":"uint256"},{"internalType":"uint256","name":"_updateInterval","type":"uint256"},{"internalType":"address","name":"router","type":"address"},{"internalType":"uint64","name":"_subscriptionId","type":"uint64"},{"internalType":"address","name":"_registry","type":"address"},{"internalType":"address","name":"sepoliaLINKAddress","type":"address"},{"internalType":"address","name":"sepoliaRegistrarAddress","type":"address"},{"internalType":"uint32","name":"_fulfillGasLimit","type":"uint32"}],"stateMutability":"payable","type":"constructor"},{"inputs":[],"name":"EmptyArgs","type":"error"},{"inputs":[],"name":"EmptySource","type":"error"},{"inputs":[],"name":"NoInlineSecrets","type":"error"},{"inputs":[{"internalType":"address","name":"caller","type":"address"},{"internalType":"address","name":"owner","type":"address"},{"internalType":"address","name":"automationRegistry","type":"address"}],"name":"NotAllowedCaller","type":"error"},{"inputs":[],"name":"OnlyRouterCanFulfill","type":"error"},{"inputs":[{"internalType":"bytes32","name":"requestId","type":"bytes32"}],"name":"UnexpectedRequestID","type":"error"},{"anonymous":false,"inputs":[{"indexed":true,"internalType":"bytes32","name":"requestId","type":"bytes32"},{"indexed":false,"internalType":"bytes","name":"result","type":"bytes"},{"indexed":false,"internalType":"bytes","name":"err","type":"bytes"}],"name":"OCRResponse","type":"event"},{"anonymous":false,"inputs":[{"indexed":true,"internalType":"address","name":"from","type":"address"},{"indexed":true,"internalType":"address","name":"to","type":"address"}],"name":"OwnershipTransferRequested","type":"event"},{"anonymous":false,"inputs":[{"indexed":true,"internalType":"address","name":"from","type":"address"},{"indexed":true,"internalType":"address","name":"to","type":"address"}],"name":"OwnershipTransferred","type":"event"},{"anonymous":false,"inputs":[{"indexed":true,"internalType":"bytes32","name":"id","type":"bytes32"}],"name":"RequestFulfilled","type":"event"},{"anonymous":false,"inputs":[{"indexed":false,"internalType":"string","name":"reason","type":"string"}],"name":"RequestRevertedWithErrorMsg","type":"event"},{"anonymous":false,"inputs":[{"indexed":false,"internalType":"bytes","name":"data","type":"bytes"}],"name":"RequestRevertedWithoutErrorMsg","type":"event"},{"anonymous":false,"inputs":[{"indexed":true,"internalType":"bytes32","name":"id","type":"bytes32"}],"name":"RequestSent","type":"event"},{"anonymous":false,"inputs":[{"indexed":true,"internalType":"bytes32","name":"requestId","type":"bytes32"},{"indexed":false,"internalType":"bytes","name":"response","type":"bytes"},{"indexed":false,"internalType":"bytes","name":"err","type":"bytes"}],"name":"Response","type":"event"},{"anonymous":false,"inputs":[{"indexed":false,"internalType":"address","name":"upkeepAddress","type":"address"}],"name":"upkeepCreated","type":"event"},{"anonymous":false,"inputs":[{"indexed":false,"internalType":"uint256","name":"upkeepId","type":"uint256"}],"name":"upkeepRegistered","type":"event"},{"inputs":[],"name":"acceptOwnership","outputs":[],"stateMutability":"nonpayable","type":"function"},{"inputs":[{"internalType":"bytes","name":"","type":"bytes"}],"name":"checkUpkeep","outputs":[{"internalType":"bool","name":"upkeepNeeded","type":"bool"},{"internalType":"bytes","name":"","type":"bytes"}],"stateMutability":"view","type":"function"},{"inputs":[],"name":"contractBalance","outputs":[{"internalType":"uint256","name":"","type":"uint256"}],"stateMutability":"view","type":"function"},{"inputs":[],"name":"donID","outputs":[{"internalType":"bytes32","name":"","type":"bytes32"}],"stateMutability":"view","type":"function"},{"inputs":[],"name":"farmer","outputs":[{"internalType":"address","name":"","type":"address"}],"stateMutability":"view","type":"function"},{"inputs":[],"name":"fulfillGasLimit","outputs":[{"internalType":"uint32","name":"","type":"uint32"}],"stateMutability":"view","type":"function"},{"inputs":[],"name":"gasLimit","outputs":[{"internalType":"uint32","name":"","type":"uint32"}],"stateMutability":"view","type":"function"},{"inputs":[{"internalType":"bytes32","name":"requestId","type":"bytes32"},{"internalType":"bytes","name":"response","type":"bytes"},{"internalType":"bytes","name":"err","type":"bytes"}],"name":"handleOracleFulfillment","outputs":[],"stateMutability":"nonpayable","type":"function"},{"inputs":[],"name":"i_upkeep","outputs":[{"internalType":"contract Upkeep","name":"","type":"address"}],"stateMutability":"view","type":"function"},{"inputs":[],"name":"institution","outputs":[{"internalType":"address","name":"","type":"address"}],"stateMutability":"view","type":"function"},{"inputs":[],"name":"lastUpkeepTimeStamp","outputs":[{"internalType":"uint256","name":"","type":"uint256"}],"stateMutability":"view","type":"function"},{"inputs":[],"name":"latestError","outputs":[{"internalType":"bytes","name":"","type":"bytes"}],"stateMutability":"view","type":"function"},{"inputs":[],"name":"latestRequestId","outputs":[{"internalType":"bytes32","name":"","type":"bytes32"}],"stateMutability":"view","type":"function"},{"inputs":[],"name":"latestResponse","outputs":[{"internalType":"bytes","name":"","type":"bytes"}],"stateMutability":"view","type":"function"},{"inputs":[],"name":"owner","outputs":[{"internalType":"address","name":"","type":"address"}],"stateMutability":"view","type":"function"},{"inputs":[{"internalType":"bytes","name":"","type":"bytes"}],"name":"performUpkeep","outputs":[],"stateMutability":"nonpayable","type":"function"},{"inputs":[],"name":"registry","outputs":[{"internalType":"contract IAutomationRegistryConsumer","name":"","type":"address"}],"stateMutability":"view","type":"function"},{"inputs":[],"name":"request","outputs":[{"internalType":"bytes","name":"","type":"bytes"}],"stateMutability":"view","type":"function"},{"inputs":[],"name":"requestCBOR","outputs":[{"internalType":"bytes","name":"","type":"bytes"}],"stateMutability":"view","type":"function"},{"inputs":[],"name":"responseCounter","outputs":[{"internalType":"uint256","name":"","type":"uint256"}],"stateMutability":"view","type":"function"},{"inputs":[],"name":"s_lastError","outputs":[{"internalType":"bytes","name":"","type":"bytes"}],"stateMutability":"view","type":"function"},{"inputs":[],"name":"s_lastRequestId","outputs":[{"internalType":"bytes32","name":"","type":"bytes32"}],"stateMutability":"view","type":"function"},{"inputs":[],"name":"s_lastResponse","outputs":[{"internalType":"bytes","name":"","type":"bytes"}],"stateMutability":"view","type":"function"},{"inputs":[],"name":"s_requestCounter","outputs":[{"internalType":"uint256","name":"","type":"uint256"}],"stateMutability":"view","type":"function"},{"inputs":[],"name":"s_responseCounter","outputs":[{"internalType":"uint256","name":"","type":"uint256"}],"stateMutability":"view","type":"function"},{"inputs":[],"name":"s_upkeepCounter","outputs":[{"internalType":"uint256","name":"","type":"uint256"}],"stateMutability":"view","type":"function"},{"inputs":[],"name":"sampleMaxSize","outputs":[{"internalType":"uint256","name":"","type":"uint256"}],"stateMutability":"view","type":"function"},{"inputs":[{"internalType":"uint256","name":"","type":"uint256"}],"name":"sampleStorage","outputs":[{"internalType":"string","name":"","type":"string"}],"stateMutability":"view","type":"function"},{"inputs":[{"internalType":"bytes","name":"newRequestCBOR","type":"bytes"},{"internalType":"uint64","name":"_subscriptionId","type":"uint64"},{"internalType":"uint32","name":"_fulfillGasLimit","type":"uint32"},{"internalType":"bytes32","name":"_donID","type":"bytes32"},{"internalType":"uint256","name":"_updateInterval","type":"uint256"}],"name":"setRequest","outputs":[],"stateMutability":"nonpayable","type":"function"},{"inputs":[],"name":"subscriptionId","outputs":[{"internalType":"uint64","name":"","type":"uint64"}],"stateMutability":"view","type":"function"},{"inputs":[{"internalType":"address","name":"to","type":"address"}],"name":"transferOwnership","outputs":[],"stateMutability":"nonpayable","type":"function"},{"inputs":[],"name":"updateInterval","outputs":[{"internalType":"uint256","name":"","type":"uint256"}],"stateMutability":"view","type":"function"},{"inputs":[],"name":"upkeepContract","outputs":[{"internalType":"address","name":"","type":"address"}],"stateMutability":"view","type":"function"},{"inputs":[],"name":"upkeepCounter","outputs":[{"internalType":"uint256","name":"","type":"uint256"}],"stateMutability":"view","type":"function"}],"evm":{"bytecode":{"linkReferences":{},"object":"6001600160401b0360c0601f6200327438819003918201601f191683019184831184841017620001cc5780849261018094604052833981010312620001c7576200004981620001e2565b916200005860208301620001e2565b604083015160608401519160808501519360a0860151926200007d60c08801620001e2565b9260e0880151928316809303620001c757610160620000a06101008a01620001e2565b98620000b06101208201620001e2565b50620000c06101408201620001e2565b5001519363ffffffff85168503620001c7576001600160a01b039081166080529889169081156200018257899060018060a01b0319928084600054161760005583601654161760165516906017541617601755601a556bffffffff00000000000000006006549260401b169160018060601b0319161717600655600755601b556019551660a0524260085560405161307c9081620001f882396080518181816103bb01528181611a820152611c74015260a0518181816110ae0152611cc00152f35b60405162461bcd60e51b815260206004820152601860248201527f43616e6e6f7420736574206f776e657220746f207a65726f00000000000000006044820152606490fd5b600080fd5b634e487b7160e01b600052604160045260246000fd5b51906001600160a01b0382168203620001c75756fe6080604052600436101561001257600080fd5b60003560e01c8063089ea02e1461023757806309c1ba2e146102325780630ca761751461022d5780631aa46f591461022857806324b93e3e14610223578063277e22131461021e578063303b137c14610219578063338cdca114610214578063381fc4b51461020f5780633944ea3a1461020a57806343cd3d86146102055780634585e33b14610200578063472cbbb0146101fb57806348802b92146101f65780634b0795a8146101f15780635e0611f1146101ec578063688ecfd1146101e75780636e04ff0d146101e25780636e74336b146101dd57806379ba5097146101d85780637b103999146101d35780638b7afe2e146101ce5780638da5cb5b146101c9578063a3d3c0d2146101c4578063b1e21749146101bf578063bef3a2f0146101ba578063d1384eb6146101b5578063d811fcf0146101b0578063ebf14a55146101ab578063f2fde38b146101a6578063f5c1279b146101a1578063f68016b71461019c578063fd2c80ae146101975763fffeb84e1461019257600080fd5b611397565b611379565b611355565b611337565b611264565b611246565b61121f565b6111f8565b611151565b611133565b611115565b6110ee565b6110d2565b61108e565b610fae565b610f90565b610f17565b610e70565b610e49565b610da2565b610d84565b610bcd565b610b01565b610ab5565b610a0e565b6109f0565b61090f565b6108e5565b61087c565b6105da565b6105bc565b610362565b61026a565b61024c565b600091031261024757565b600080fd5b34610247576000366003190112610247576020600854604051908152f35b3461024757600036600319011261024757602067ffffffffffffffff60065416604051908152f35b634e487b7160e01b600052604160045260246000fd5b67ffffffffffffffff81116102bc57604052565b610292565b6040810190811067ffffffffffffffff8211176102bc57604052565b90601f8019910116810190811067ffffffffffffffff8211176102bc57604052565b67ffffffffffffffff81116102bc57601f01601f191660200190565b81601f8201121561024757803590610332826102ff565b9261034060405194856102dd565b8284526020838301011161024757816000926020809301838601378301015290565b3461024757606036600319011261024757600480359067ffffffffffffffff9060243582811161024757610399903690830161031b565b604435838111610247576103b0903690840161031b565b906001600160a01b037f00000000000000000000000000000000000000000000000000000000000000001633036105935780519384116102bc57826103ff856103fa889654610669565b6114ad565b602080601f87116001146104e9575094807f7bab0ec163b5c132c72b8146ac4d6e067e82ed58f8b131150aa71c925891156295966000916104de575b508160011b916000199060031b1c19161790555b61045882612cff565b61046b610466600a5461169d565b600a55565b60ff610479600b5460ff1690565b166104c05761048781612e0c565b61049660405192839283612f09565b0390a27f85e1543bf2f84fe80c6badbce3648c8539ad1df4d2b3d822938ca0538be727e6600080a2005b6104d16104cc82612de9565b601e55565b6104d9612f79565b610487565b90508301513861043b565b600460005290601f1987167f8a35acfbc15ff81a39ae7d344fd709f28e8600b4aa8c65c6b64bfe7fe36bd19b926000905b8282106105775750509187917f7bab0ec163b5c132c72b8146ac4d6e067e82ed58f8b131150aa71c925891156297986001941061055e575b5050811b01905561044f565b85015160001960f88460031b161c191690553880610552565b8684015185558a9850600190940193928301929081019061051a565b826040517fc6829f83000000000000000000000000000000000000000000000000000000008152fd5b34610247576000366003190112610247576020600354604051908152f35b3461024757600036600319011261024757602060065463ffffffff6040519160401c168152f35b634e487b7160e01b600052603260045260246000fd5b601c5481101561064e57601c6000527f0e4562a10381dec21b205ed72637e6b1b523bdd0e4d4d50af5cd23dd4500a2110190600090565b610601565b634e487b7160e01b600052600060045260246000fd5b90600182811c92168015610699575b602083101461068357565b634e487b7160e01b600052602260045260246000fd5b91607f1691610678565b60405190600082601d54916106b783610669565b8083529260019081811690811561073f57506001146106e0575b506106de925003836102dd565b565b601d600090815291507f6d4407e7be21f808e6509aa9fa9143369579dd7d760fe20a2c09680fc146134f5b84831061072457506106de9350508101602001386106d1565b81935090816020925483858a0101520191019091859261070b565b9050602092506106de94915060ff191682840152151560051b820101386106d1565b906040519182600082549261077584610669565b9081845260019485811690816000146107e2575060011461079f575b50506106de925003836102dd565b9093915060005260209081600020936000915b8183106107ca5750506106de93508201013880610791565b855488840185015294850194879450918301916107b2565b9150506106de94506020925060ff191682840152151560051b8201013880610791565b60005b82811061081757506000910152565b608081015182820152602001610808565b919082519283825260005b848110610854575050826000602080949584010152601f8019910116010190565b602081830181015184830182015201610833565b906020610879928181520190610828565b90565b3461024757602036600319011261024757600435601c54811015610247576108cd6108e191601c6000527f0e4562a10381dec21b205ed72637e6b1b523bdd0e4d4d50af5cd23dd4500a21101610761565b604051918291602083526020830190610828565b0390f35b346102475760003660031901126102475760206001600160a01b03600b5460081c16604051908152f35b34610247576000806003193601126109ed576040519080600d5461093281610669565b808552916001918083169081156109c35750600114610968575b6108e18561095c818703826102dd565b60405191829182610868565b9250600d83527fd7b6990105719101dabeb77144f2a3385c8033acd3af97e9423a695e81ad1eb55b8284106109ab57505050810160200161095c826108e161094c565b80546020858701810191909152909301928101610990565b8695506108e19693506020925061095c94915060ff191682840152151560051b820101929361094c565b80fd5b34610247576000366003190112610247576020600a54604051908152f35b34610247576000806003193601126109ed576040519080601154610a3181610669565b808552916001918083169081156109c35750600114610a5a576108e18561095c818703826102dd565b9250601183527f31ecc21a745e3968a04e9570e4425bc18fa8019c68028196b546d1669c200c685b828410610a9d57505050810160200161095c826108e161094c565b80546020858701810191909152909301928101610a82565b34610247576000366003190112610247576020601554604051908152f35b9181601f840112156102475782359167ffffffffffffffff8311610247576020838186019501011161024757565b346102475760203660031901126102475760043567ffffffffffffffff811161024757610b32903690600401610ad3565b50506000546001600160a01b03163381141580610ba3575b610b5857610b566119df565b005b6018546040517f426fbc710000000000000000000000000000000000000000000000000000000081523360048201526001600160a01b03928316602482015291166044820152606490fd5b50610bc5610bb96018546001600160a01b031690565b6001600160a01b031690565b331415610b4a565b346102475760a03660031901126102475767ffffffffffffffff60043581811161024757610bff903690600401610ad3565b60243592918383168403610247576044359263ffffffff8416840361024757610c2661143e565b82116102bc57610c4082610c3b600254610669565b61150e565b600090601f8311600114610ce0579180610cbf9592610c9494600092610cd5575b50508160011b916000199060031b1c19161760025567ffffffffffffffff1667ffffffffffffffff196006541617600655565b6bffffffff00000000000000006006549160401b16906bffffffff0000000000000000191617600655565b610cca606435600f55565b610b56608435600755565b013590503880610c61565b60026000527f405787fa12a823e0f2b7631cc41b3ba8828b3321ca811111fa75cd3aa3bb5ace91601f198416815b818110610d6c5750926001928592610c9496610cbf999610610d52575b505050811b0160025567ffffffffffffffff1667ffffffffffffffff196006541617600655565b0135600019600384901b60f8161c19169055388080610d2b565b91936020600181928787013581550195019201610d0e565b34610247576000366003190112610247576020601454604051908152f35b34610247576000806003193601126109ed576040519080601254610dc581610669565b808552916001918083169081156109c35750600114610dee576108e18561095c818703826102dd565b9250601283527fbb8a6a4669ba250d26cd7a459eca9d215f8307e33aebe50379bc5a3617ec34445b828410610e3157505050810160200161095c826108e161094c565b80546020858701810191909152909301928101610e16565b346102475760003660031901126102475760206001600160a01b0360185416604051908152f35b34610247576000806003193601126109ed576040519080600254610e9381610669565b808552916001918083169081156109c35750600114610ebc576108e18561095c818703826102dd565b9250600283527f405787fa12a823e0f2b7631cc41b3ba8828b3321ca811111fa75cd3aa3bb5ace5b828410610eff57505050810160200161095c826108e161094c565b80546020858701810191909152909301928101610ee4565b346102475760203660031901126102475760043567ffffffffffffffff811161024757610f4890369060040161031b565b506008544203428111610f8b5760075410604051908152604060208201526060818151806040830152610f7d81848401610805565b601f01601f19168101030190f35b6115f4565b34610247576000366003190112610247576020600f54604051908152f35b34610247576000806003193601126109ed576001600160a01b038060015416330361104a5781546001600160a01b03166000805473ffffffffffffffffffffffffffffffffffffffff1916331790559061102073ffffffffffffffffffffffffffffffffffffffff1960015416600155565b3391167f8be0079c531659141344cd1fd0a4f28419497f9722a3daafe3b4186f6b6457e08380a380f35b606460405162461bcd60e51b815260206004820152601660248201527f4d7573742062652070726f706f736564206f776e6572000000000000000000006044820152fd5b346102475760003660031901126102475760206040516001600160a01b037f0000000000000000000000000000000000000000000000000000000000000000168152f35b3461024757600036600319011261024757602047604051908152f35b346102475760003660031901126102475760206001600160a01b0360005416604051908152f35b34610247576000366003190112610247576020600954604051908152f35b34610247576000366003190112610247576020601054604051908152f35b34610247576000806003193601126109ed57604051908060045461117481610669565b808552916001918083169081156109c3575060011461119d576108e18561095c818703826102dd565b9250600483527f8a35acfbc15ff81a39ae7d344fd709f28e8600b4aa8c65c6b64bfe7fe36bd19b5b8284106111e057505050810160200161095c826108e161094c565b805460208587018101919091529093019281016111c5565b346102475760003660031901126102475760206001600160a01b0360165416604051908152f35b346102475760003660031901126102475760206001600160a01b0360175416604051908152f35b34610247576000366003190112610247576020601b54604051908152f35b34610247576020366003190112610247576004356001600160a01b0381168091036102475761129161143e565b3381146112f3578073ffffffffffffffffffffffffffffffffffffffff1960015416176001556112cc610bb96000546001600160a01b031690565b7fed8889f560326eb138920d842192f0eb3dd22b4f139c87a2c57538e05bae1278600080a3005b606460405162461bcd60e51b815260206004820152601760248201527f43616e6e6f74207472616e7366657220746f2073656c660000000000000000006044820152fd5b34610247576000366003190112610247576020601354604051908152f35b3461024757600036600319011261024757602063ffffffff600e5416604051908152f35b34610247576000366003190112610247576020600754604051908152f35b34610247576000806003193601126109ed5760405190806005546113ba81610669565b808552916001918083169081156109c357506001146113e3576108e18561095c818703826102dd565b9250600583527f036b6384b5eca791c62761152d0c79bb0604c104a5fb6f4eb0703f3154bb3db05b82841061142657505050810160200161095c826108e161094c565b8054602085870181019190915290930192810161140b565b6001600160a01b0360005416330361145257565b606460405162461bcd60e51b815260206004820152601660248201527f4f6e6c792063616c6c61626c65206279206f776e6572000000000000000000006044820152fd5b8181106114a1575050565b60008155600101611496565b90601f82116114ba575050565b6106de9160046000527f8a35acfbc15ff81a39ae7d344fd709f28e8600b4aa8c65c6b64bfe7fe36bd19b906020601f840160051c83019310611504575b601f0160051c0190611496565b90915081906114f7565b90601f821161151b575050565b6106de9160026000527f405787fa12a823e0f2b7631cc41b3ba8828b3321ca811111fa75cd3aa3bb5ace906020601f840160051c8301931061150457601f0160051c0190611496565b90601f8211611571575050565b6106de9160056000527f036b6384b5eca791c62761152d0c79bb0604c104a5fb6f4eb0703f3154bb3db0906020601f840160051c8301931061150457601f0160051c0190611496565b9190601f81116115c957505050565b6106de926000526020600020906020601f840160051c8301931061150457601f0160051c0190611496565b634e487b7160e01b600052601160045260246000fd5b601f19810191908211610f8b57565b60606008544203428111610f8b576007541091565b604051906020820182811067ffffffffffffffff8211176102bc5760405260008252565b1561165957565b606460405162461bcd60e51b815260206004820152601560248201527f54696d6520696e74657276616c206e6f74206d657400000000000000000000006044820152fd5b9060018201809211610f8b57565b9060208201809211610f8b57565b91908201809211610f8b57565b156116cd57565b606460405162461bcd60e51b815260206004820152601560248201527f55706b656570206e6f74207265676973746572656400000000000000000000006044820152fd5b6040519060e0820182811067ffffffffffffffff8211176102bc57604052606060c08360008152600060208201526000604082015282808201528260808201528260a08201520152565b601c549067ffffffffffffffff82116102bc57604051916020611783818360051b01856102dd565b81845280840190601c6000527f0e4562a10381dec21b205ed72637e6b1b523bdd0e4d4d50af5cd23dd4500a2116000925b8484106117c2575050505050565b60018381926117d085610761565b8152019201930192906117b4565b90816020910312610247575190565b9061181b60809367ffffffffffffffff63ffffffff939897969816845260a0602085015260a0840190610828565b95600160408401521660608201520152565b6040513d6000823e3d90fd5b60009060033d1161184657565b905060046000803e60005160e01c90565b600060443d1061087957604051600319913d83016004833e815167ffffffffffffffff918282113d6024840111176118b5578184019485519384116118bd573d850101602084870101116118b55750610879929101602001906102dd565b949350505050565b50949350505050565b3d156118f1573d906118d7826102ff565b916118e560405193846102dd565b82523d6000602084013e565b606090565b9067ffffffffffffffff909493929416815260209360a08583015260006002549561192087610669565b908160a086015260019788811690816000146119b6575060011461195a575b5050604083019590955263ffffffff16606082015260800152565b600260009081529250877f405787fa12a823e0f2b7631cc41b3ba8828b3321ca811111fa75cd3aa3bb5ace5b8385106119a15750505050820160c0018163ffffffff61193f565b805487860160c0015293820193899101611986565b60ff191660c08781019190915292151560051b8601909201925083915063ffffffff905061193f565b6119e761162e565b506119f96119f3611619565b50611652565b611a0242600855565b611a15611a1060095461169d565b600955565b601b54601c541015611bc457611a34611a2f60135461169d565b601355565b60065467ffffffffffffffff166020611a52600e5463ffffffff1690565b600f5492611a74604051948593849363230e93b160e11b8552600485016118f6565b038160006001600160a01b037f0000000000000000000000000000000000000000000000000000000000000000165af160009181611b94575b50611b5157506001611abd611839565b6308c379a014611aff575b611ace57565b7f9c4bfa18304482256875c29fabb1a44a5ecd325f214ea17bab8f31e869faf4c8611afa61095c6118c6565b0390a1565b611b07611857565b80611b13575b50611ac8565b90507f2ba61e3733e7ac99181c22307780f651ec8fd92fe661a84dfbe711710b2dc36c611b4860009260405191829182610868565b0390a138611b0d565b611b5a81601055565b611b6d611b6860145461169d565b601455565b7f1131472297a800fee664d1d89cfa8f7676ff07189ecc53f80bbb5f4969099db8600080a2565b611bb691925060203d8111611bbd575b611bae81836102dd565b8101906117de565b9038611aad565b503d611ba4565b611bd1600c5415156116c6565b611be3600160ff19600b541617600b55565b611c15611bee611711565b611bff611bf96106a3565b82612200565b611c10611c0a61175b565b82612241565b612015565b611c23611a2f60135461169d565b60065467ffffffffffffffff16611c5f611c42600e5463ffffffff1690565b600f549060405194859463230e93b160e11b8652600486016117ed565b036000916020816001600160a01b03938186867f0000000000000000000000000000000000000000000000000000000000000000165af1839181611e14575b50611dd457506001611cae611839565b6308c379a014611d83575b611d4f575b7f000000000000000000000000000000000000000000000000000000000000000016600c54813b15611d4b576040517f8765ecbe000000000000000000000000000000000000000000000000000000008152600481019190915291908290602490829084905af18015611d4657611d33575b50565b80611d406106de926102a8565b8061023c565b61182d565b8280fd5b7f9c4bfa18304482256875c29fabb1a44a5ecd325f214ea17bab8f31e869faf4c8611d7b61095c6118c6565b0390a1611cbe565b611d8b611857565b80611d97575b50611cb9565b90507f2ba61e3733e7ac99181c22307780f651ec8fd92fe661a84dfbe711710b2dc36c611dcb849260405191829182610868565b0390a138611d91565b611ddd81601055565b611deb611b6860145461169d565b7f1131472297a800fee664d1d89cfa8f7676ff07189ecc53f80bbb5f4969099db88380a2611cbe565b611e2d91925060203d8111611bbd57611bae81836102dd565b9038611c9e565b60405190611e41826102c1565b600c82527f636f64654c6f636174696f6e00000000000000000000000000000000000000006020830152565b634e487b7160e01b600052602160045260246000fd5b60031115611e8d57565b611e6d565b60405190611e9f826102c1565b600882527f6c616e67756167650000000000000000000000000000000000000000000000006020830152565b60011115611e8d57565b60405190611ee2826102c1565b600682527f736f7572636500000000000000000000000000000000000000000000000000006020830152565b60405190611f1b826102c1565b600482527f61726773000000000000000000000000000000000000000000000000000000006020830152565b6000198114610f8b5760010190565b805182101561064e5760209160051b010190565b60405190611f77826102c1565b600f82527f736563726574734c6f636174696f6e00000000000000000000000000000000006020830152565b60405190611fb0826102c1565b600782527f73656372657473000000000000000000000000000000000000000000000000006020830152565b60405190611fe9826102c1565b600982527f62797465734172677300000000000000000000000000000000000000000000006020830152565b61201d612292565b9061202f612029611e34565b836129be565b61204c815161203d81611e83565b61204681611e83565b83612334565b612057612029611e92565b612071604082015161206881611ecb565b61204681611ecb565b61207c612029611ed5565b61208a6060820151836129be565b60a081018051516121a7575b50608081019081515161210f575b60c09150018051516120b7575b50515190565b916120c3612029611fdc565b6120cc82612a43565b60005b835180518210156120fc57906120f26120eb826120f794611f56565b518561290b565b611f47565b6120cf565b5050915061210981612acf565b386120b1565b60208101805161211e81611e83565b61212781611e83565b1561217d5760c09261216061217892612147612141611f6a565b886129be565b5161215181611e83565b61215a81611e83565b86612334565b61217161216b611fa3565b866129be565b518461290b565b6120a4565b60046040517fa80d31f7000000000000000000000000000000000000000000000000000000008152fd5b926121b96121b3611f0e565b846129be565b6121c283612a43565b60005b845180518210156121ed57906120f26121e1826121e894611f56565b51866129be565b6121c5565b505092506121fa82612acf565b38612096565b815115612217576000808252604082015260600152565b60046040517f22ce3edd000000000000000000000000000000000000000000000000000000008152fd5b81511561224e5760a00152565b60046040517ffe936cb7000000000000000000000000000000000000000000000000000000008152fd5b60405190612285826102c1565b6000602083606081520152565b60405161229e816102c1565b6122a6612278565b80825260208201600081526122b9612278565b506101006020830152604051809252600082526101208201918210610247576000916040525290565b906122eb612278565b50601f81168061231a575b50806020830152604051908183526000825281016020019081106102475760405290565b60200360208111610f8b578101809111610f8b57386122f6565b90815191612340612278565b508251516001810190818111610f8b576020850151811015612399575b60c260206106de9651928301015380518211612391575b50506040519160208301526020825261238c826102c1565b61290b565b523880612374565b8160011b9482860460021483151715610f8b576020816123cb6106de986123c460c2955191846122e2565b5082612853565b509650505061235d565b908160011b9180830460021490151715610f8b57565b6123f3612278565b508051516001810190818111610f8b57602083015181101561242c575b605b6020845192830101538051821161242857505090565b5290565b8160011b82810460021483151715610f8b576124559061244e855191866122e2565b5084612853565b50612410565b612463612278565b508051516001810190818111610f8b576020830151811015612498575b605a6020845192830101538051821161242857505090565b8160011b82810460021483151715610f8b576124ba9061244e855191866122e2565b50612480565b6124c8612278565b508051516001810190818111610f8b5760208301518110156124fd575b60596020845192830101538051821161242857505090565b8160011b82810460021483151715610f8b5761251f9061244e855191866122e2565b506124e5565b61252d612278565b508051516001810190818111610f8b576020830151811015612562575b60586020845192830101538051821161242857505090565b8160011b82810460021483151715610f8b576125849061244e855191866122e2565b5061254a565b612592612278565b508051516001810190818111610f8b5760208301518110156125c7575b607b6020845192830101538051821161242857505090565b8160011b82810460021483151715610f8b576125e99061244e855191866122e2565b506125af565b6125f7612278565b508051516001810190818111610f8b57602083015181101561262c575b607a6020845192830101538051821161242857505090565b8160011b82810460021483151715610f8b5761264e9061244e855191866122e2565b50612614565b61265c612278565b508051516001810190818111610f8b576020830151811015612691575b60796020845192830101538051821161242857505090565b8160011b82810460021483151715610f8b576126b39061244e855191866122e2565b50612679565b6126c1612278565b508051516001810190818111610f8b5760208301518110156126f6575b60786020845192830101538051821161242857505090565b8160011b82810460021483151715610f8b576127189061244e855191866122e2565b506126de565b90612727612278565b508151516001810191828211610f8b57602084015182101561275a575b6020845192830101538051821161242857505090565b8260011b83810460021484151715610f8b576127839061277c865191876122e2565b5085612853565b50612744565b90612796825191836122e2565b5061279f612278565b508051906127ab612278565b506127b98151831115612904565b825151926127c783856116b9565b91602092828480940151821161283c575b5183815197820101968211612834575b505001915b8181101561280e5760001991036101000a0190811990511690825116179052565b919261282961282361282f92865181526116ab565b946116ab565b9261160a565b6127ed565b5238806127e8565b61284e612848836123d5565b82612789565b6127d8565b9061285c612278565b508051612867612278565b506128758251821115612904565b8251519161288382846116b9565b60209182918287015181116128ed575b8651838151978201019682116128e5575b505001915b818110156128cb5760001991036101000a019081199051169082511617905290565b91926128296128236128e092865181526116ab565b6128a9565b5238806128a4565b6128ff6128f9826123d5565b88612789565b612893565b1561024757565b8151611d3092919067ffffffffffffffff811690601782116129435761293b9150604060ff84519216179061271e565b505b51612853565b5060ff8111612968576129629061295a8351612525565b508251612c99565b5061293d565b61ffff8111612987576129629061297f83516124c0565b508251612c32565b63ffffffff81116129a857612962906129a0835161245b565b508251612bc9565b612962906129b683516123eb565b508251612b5c565b8151611d3092919067ffffffffffffffff811690601782116129ee5761293b9150606060ff84519216179061271e565b5060ff8111612a05576129629061295a83516126b9565b61ffff8111612a1c576129629061297f8351612654565b63ffffffff8111612a3557612962906129a083516125ef565b612962906129b6835161258a565b805190612a4e612278565b508151516001810190818111610f8b576020840151811015612a9c575b609f6020809551928301015380518211612a94575b50500180519060018201809211610f8b5752565b523880612a80565b8160011b9382850460021483151715610f8b57602081612ac582976123c4609f955191846122e2565b5095505050612a6b565b805190612ada612278565b508151516001810190818111610f8b576020840151811015612b29575b60ff6020809551928301015380518211612b21575b5050018051600019810191908211610f8b5752565b523880612b0c565b8160011b9382850460021483151715610f8b57602081612b5282976123c460ff955191846122e2565b5095505050612af7565b90612b65612278565b50815151806008019182600811610f8b5760208401518311612ba8575b60088451928301019067ffffffffffffffff198251161790528051821161242857505090565b8260011b83810460021484151715610f8b57612bc49085612789565b612b82565b90612bd2612278565b50815151806004019182600411610f8b5760208401518311612c11575b60048451928301019063ffffffff198251161790528051821161242857505090565b8260011b83810460021484151715610f8b57612c2d9085612789565b612bef565b90612c3b612278565b50815151806002019182600211610f8b5760208401518311612c78575b60028451928301019061ffff198251161790528051821161242857505090565b8260011b83810460021484151715610f8b57612c949085612789565b612c58565b90612ca2612278565b50815151806001019182600111610f8b5760208401518311612cde575b60018451928301019060ff198251161790528051821161242857505090565b8260011b83810460021484151715610f8b57612cfa9085612789565b612cbf565b90815167ffffffffffffffff81116102bc57612d2581612d20600554610669565b611564565b602080601f8311600114612d615750819293600092612d56575b50508160011b916000199060031b1c191617600555565b015190503880612d3f565b90601f19831694612d9460056000527f036b6384b5eca791c62761152d0c79bb0604c104a5fb6f4eb0703f3154bb3db090565b926000905b878210612dd1575050836001959610612db8575b505050811b01600555565b015160001960f88460031b161c19169055388080612dad565b80600185968294968601518155019501930190612d99565b602081519101519060208110612dfd575090565b6000199060200360031b1b1690565b601c54680100000000000000008110156102bc57612e31600191828101601c55610617565b929092612f045780519067ffffffffffffffff82116102bc57612e5e82612e588654610669565b866115ba565b60209081601f8411600114612e9a5750928293918392600094612e8f575b50501b916000199060031b1c1916179055565b015192503880612e7c565b919083601f198116612eb188600052602060002090565b946000905b88838310612eea5750505010612ed1575b505050811b019055565b015160001960f88460031b161c19169055388080612ec7565b858701518855909601959485019487935090810190612eb6565b610653565b9091612f2061087993604084526040840190610828565b916020818403910152610828565b15612f3557565b606460405162461bcd60e51b815260206004820152601b60248201527f4572726f20616f207061676172206120696e64656e697a6163616f00000000006044820152fd5b601e54601a541115612fb7576106de6000808080612fa5610bb9610bb96017546001600160a01b031690565b47905af1612fb16118c6565b50612f2e565b60008080806001600160a01b036016541647905af1612fd46118c6565b5015612fdc57565b608460405162461bcd60e51b815260206004820152602d60248201527f4572726f20616f207265746f726e6172206f732066756e646f7320706172612060448201527f6120696e73746974756963616f000000000000000000000000000000000000006064820152fdfea264697066735822122000cc37c7fd80c448b43b0fa62cb6f7852c1c82f41a3a821c1d7f911c055c582564736f6c63430008130033","opcodes":"PUSH1 0x1 PUSH1 0x1 PUSH1 0x40 SHL SUB PUSH1 0xC0 PUSH1 0x1F PUSH3 0x3274 CODESIZE DUP2 SWAP1 SUB SWAP2 DUP3 ADD PUSH1 0x1F NOT AND DUP4 ADD SWAP2 DUP5 DUP4 GT DUP5 DUP5 LT OR PUSH3 0x1CC JUMPI DUP1 DUP5 SWAP3 PUSH2 0x180 SWAP5 PUSH1 0x40 MSTORE DUP4 CODECOPY DUP2 ADD SUB SLT PUSH3 0x1C7 JUMPI PUSH3 0x49 DUP2 PUSH3 0x1E2 JUMP JUMPDEST SWAP2 PUSH3 0x58 PUSH1 0x20 DUP4 ADD PUSH3 0x1E2 JUMP JUMPDEST PUSH1 0x40 DUP4 ADD MLOAD PUSH1 0x60 DUP5 ADD MLOAD SWAP2 PUSH1 0x80 DUP6 ADD MLOAD SWAP4 PUSH1 0xA0 DUP7 ADD MLOAD SWAP3 PUSH3 0x7D PUSH1 0xC0 DUP9 ADD PUSH3 0x1E2 JUMP JUMPDEST SWAP3 PUSH1 0xE0 DUP9 ADD MLOAD SWAP3 DUP4 AND DUP1 SWAP4 SUB PUSH3 0x1C7 JUMPI PUSH2 0x160 PUSH3 0xA0 PUSH2 0x100 DUP11 ADD PUSH3 0x1E2 JUMP JUMPDEST SWAP9 PUSH3 0xB0 PUSH2 0x120 DUP3 ADD PUSH3 0x1E2 JUMP JUMPDEST POP PUSH3 0xC0 PUSH2 0x140 DUP3 ADD PUSH3 0x1E2 JUMP JUMPDEST POP ADD MLOAD SWAP4 PUSH4 0xFFFFFFFF DUP6 AND DUP6 SUB PUSH3 0x1C7 JUMPI PUSH1 0x1 PUSH1 0x1 PUSH1 0xA0 SHL SUB SWAP1 DUP2 AND PUSH1 0x80 MSTORE SWAP9 DUP10 AND SWAP1 DUP2 ISZERO PUSH3 0x182 JUMPI DUP10 SWAP1 PUSH1 0x1 DUP1 PUSH1 0xA0 SHL SUB NOT SWAP3 DUP1 DUP5 PUSH1 0x0 SLOAD AND OR PUSH1 0x0 SSTORE DUP4 PUSH1 0x16 SLOAD AND OR PUSH1 0x16 SSTORE AND SWAP1 PUSH1 0x17 SLOAD AND OR PUSH1 0x17 SSTORE PUSH1 0x1A SSTORE PUSH12 0xFFFFFFFF0000000000000000 PUSH1 0x6 SLOAD SWAP3 PUSH1 0x40 SHL AND SWAP2 PUSH1 0x1 DUP1 PUSH1 0x60 SHL SUB NOT AND OR OR PUSH1 0x6 SSTORE PUSH1 0x7 SSTORE PUSH1 0x1B SSTORE PUSH1 0x19 SSTORE AND PUSH1 0xA0 MSTORE TIMESTAMP PUSH1 0x8 SSTORE PUSH1 0x40 MLOAD PUSH2 0x307C SWAP1 DUP2 PUSH3 0x1F8 DUP3 CODECOPY PUSH1 0x80 MLOAD DUP2 DUP2 DUP2 PUSH2 0x3BB ADD MSTORE DUP2 DUP2 PUSH2 0x1A82 ADD MSTORE PUSH2 0x1C74 ADD MSTORE PUSH1 0xA0 MLOAD DUP2 DUP2 DUP2 PUSH2 0x10AE ADD MSTORE PUSH2 0x1CC0 ADD MSTORE RETURN JUMPDEST PUSH1 0x40 MLOAD PUSH3 0x461BCD PUSH1 0xE5 SHL DUP2 MSTORE PUSH1 0x20 PUSH1 0x4 DUP3 ADD MSTORE PUSH1 0x18 PUSH1 0x24 DUP3 ADD MSTORE PUSH32 0x43616E6E6F7420736574206F776E657220746F207A65726F0000000000000000 PUSH1 0x44 DUP3 ADD MSTORE PUSH1 0x64 SWAP1 REVERT JUMPDEST PUSH1 0x0 DUP1 REVERT JUMPDEST PUSH4 0x4E487B71 PUSH1 0xE0 SHL PUSH1 0x0 MSTORE PUSH1 0x41 PUSH1 0x4 MSTORE PUSH1 0x24 PUSH1 0x0 REVERT JUMPDEST MLOAD SWAP1 PUSH1 0x1 PUSH1 0x1 PUSH1 0xA0 SHL SUB DUP3 AND DUP3 SUB PUSH3 0x1C7 JUMPI JUMP INVALID PUSH1 0x80 PUSH1 0x40 MSTORE PUSH1 0x4 CALLDATASIZE LT ISZERO PUSH2 0x12 JUMPI PUSH1 0x0 DUP1 REVERT JUMPDEST PUSH1 0x0 CALLDATALOAD PUSH1 0xE0 SHR DUP1 PUSH4 0x89EA02E EQ PUSH2 0x237 JUMPI DUP1 PUSH4 0x9C1BA2E EQ PUSH2 0x232 JUMPI DUP1 PUSH4 0xCA76175 EQ PUSH2 0x22D JUMPI DUP1 PUSH4 0x1AA46F59 EQ PUSH2 0x228 JUMPI DUP1 PUSH4 0x24B93E3E EQ PUSH2 0x223 JUMPI DUP1 PUSH4 0x277E2213 EQ PUSH2 0x21E JUMPI DUP1 PUSH4 0x303B137C EQ PUSH2 0x219 JUMPI DUP1 PUSH4 0x338CDCA1 EQ PUSH2 0x214 JUMPI DUP1 PUSH4 0x381FC4B5 EQ PUSH2 0x20F JUMPI DUP1 PUSH4 0x3944EA3A EQ PUSH2 0x20A JUMPI DUP1 PUSH4 0x43CD3D86 EQ PUSH2 0x205 JUMPI DUP1 PUSH4 0x4585E33B EQ PUSH2 0x200 JUMPI DUP1 PUSH4 0x472CBBB0 EQ PUSH2 0x1FB JUMPI DUP1 PUSH4 0x48802B92 EQ PUSH2 0x1F6 JUMPI DUP1 PUSH4 0x4B0795A8 EQ PUSH2 0x1F1 JUMPI DUP1 PUSH4 0x5E0611F1 EQ PUSH2 0x1EC JUMPI DUP1 PUSH4 0x688ECFD1 EQ PUSH2 0x1E7 JUMPI DUP1 PUSH4 0x6E04FF0D EQ PUSH2 0x1E2 JUMPI DUP1 PUSH4 0x6E74336B EQ PUSH2 0x1DD JUMPI DUP1 PUSH4 0x79BA5097 EQ PUSH2 0x1D8 JUMPI DUP1 PUSH4 0x7B103999 EQ PUSH2 0x1D3 JUMPI DUP1 PUSH4 0x8B7AFE2E EQ PUSH2 0x1CE JUMPI DUP1 PUSH4 0x8DA5CB5B EQ PUSH2 0x1C9 JUMPI DUP1 PUSH4 0xA3D3C0D2 EQ PUSH2 0x1C4 JUMPI DUP1 PUSH4 0xB1E21749 EQ PUSH2 0x1BF JUMPI DUP1 PUSH4 0xBEF3A2F0 EQ PUSH2 0x1BA JUMPI DUP1 PUSH4 0xD1384EB6 EQ PUSH2 0x1B5 JUMPI DUP1 PUSH4 0xD811FCF0 EQ PUSH2 0x1B0 JUMPI DUP1 PUSH4 0xEBF14A55 EQ PUSH2 0x1AB JUMPI DUP1 PUSH4 0xF2FDE38B EQ PUSH2 0x1A6 JUMPI DUP1 PUSH4 0xF5C1279B EQ PUSH2 0x1A1 JUMPI DUP1 PUSH4 0xF68016B7 EQ PUSH2 0x19C JUMPI DUP1 PUSH4 0xFD2C80AE EQ PUSH2 0x197 JUMPI PUSH4 0xFFFEB84E EQ PUSH2 0x192 JUMPI PUSH1 0x0 DUP1 REVERT JUMPDEST PUSH2 0x1397 JUMP JUMPDEST PUSH2 0x1379 JUMP JUMPDEST PUSH2 0x1355 JUMP JUMPDEST PUSH2 0x1337 JUMP JUMPDEST PUSH2 0x1264 JUMP JUMPDEST PUSH2 0x1246 JUMP JUMPDEST PUSH2 0x121F JUMP JUMPDEST PUSH2 0x11F8 JUMP JUMPDEST PUSH2 0x1151 JUMP JUMPDEST PUSH2 0x1133 JUMP JUMPDEST PUSH2 0x1115 JUMP JUMPDEST PUSH2 0x10EE JUMP JUMPDEST PUSH2 0x10D2 JUMP JUMPDEST PUSH2 0x108E JUMP JUMPDEST PUSH2 0xFAE JUMP JUMPDEST PUSH2 0xF90 JUMP JUMPDEST PUSH2 0xF17 JUMP JUMPDEST PUSH2 0xE70 JUMP JUMPDEST PUSH2 0xE49 JUMP JUMPDEST PUSH2 0xDA2 JUMP JUMPDEST PUSH2 0xD84 JUMP JUMPDEST PUSH2 0xBCD JUMP JUMPDEST PUSH2 0xB01 JUMP JUMPDEST PUSH2 0xAB5 JUMP JUMPDEST PUSH2 0xA0E JUMP JUMPDEST PUSH2 0x9F0 JUMP JUMPDEST PUSH2 0x90F JUMP JUMPDEST PUSH2 0x8E5 JUMP JUMPDEST PUSH2 0x87C JUMP JUMPDEST PUSH2 0x5DA JUMP JUMPDEST PUSH2 0x5BC JUMP JUMPDEST PUSH2 0x362 JUMP JUMPDEST PUSH2 0x26A JUMP JUMPDEST PUSH2 0x24C JUMP JUMPDEST PUSH1 0x0 SWAP2 SUB SLT PUSH2 0x247 JUMPI JUMP JUMPDEST PUSH1 0x0 DUP1 REVERT JUMPDEST CALLVALUE PUSH2 0x247 JUMPI PUSH1 0x0 CALLDATASIZE PUSH1 0x3 NOT ADD SLT PUSH2 0x247 JUMPI PUSH1 0x20 PUSH1 0x8 SLOAD PUSH1 0x40 MLOAD SWAP1 DUP2 MSTORE RETURN JUMPDEST CALLVALUE PUSH2 0x247 JUMPI PUSH1 0x0 CALLDATASIZE PUSH1 0x3 NOT ADD SLT PUSH2 0x247 JUMPI PUSH1 0x20 PUSH8 0xFFFFFFFFFFFFFFFF PUSH1 0x6 SLOAD AND PUSH1 0x40 MLOAD SWAP1 DUP2 MSTORE RETURN JUMPDEST PUSH4 0x4E487B71 PUSH1 0xE0 SHL PUSH1 0x0 MSTORE PUSH1 0x41 PUSH1 0x4 MSTORE PUSH1 0x24 PUSH1 0x0 REVERT JUMPDEST PUSH8 0xFFFFFFFFFFFFFFFF DUP2 GT PUSH2 0x2BC JUMPI PUSH1 0x40 MSTORE JUMP JUMPDEST PUSH2 0x292 JUMP JUMPDEST PUSH1 0x40 DUP2 ADD SWAP1 DUP2 LT PUSH8 0xFFFFFFFFFFFFFFFF DUP3 GT OR PUSH2 0x2BC JUMPI PUSH1 0x40 MSTORE JUMP JUMPDEST SWAP1 PUSH1 0x1F DUP1 NOT SWAP2 ADD AND DUP2 ADD SWAP1 DUP2 LT PUSH8 0xFFFFFFFFFFFFFFFF DUP3 GT OR PUSH2 0x2BC JUMPI PUSH1 0x40 MSTORE JUMP JUMPDEST PUSH8 0xFFFFFFFFFFFFFFFF DUP2 GT PUSH2 0x2BC JUMPI PUSH1 0x1F ADD PUSH1 0x1F NOT AND PUSH1 0x20 ADD SWAP1 JUMP JUMPDEST DUP2 PUSH1 0x1F DUP3 ADD SLT ISZERO PUSH2 0x247 JUMPI DUP1 CALLDATALOAD SWAP1 PUSH2 0x332 DUP3 PUSH2 0x2FF JUMP JUMPDEST SWAP3 PUSH2 0x340 PUSH1 0x40 MLOAD SWAP5 DUP6 PUSH2 0x2DD JUMP JUMPDEST DUP3 DUP5 MSTORE PUSH1 0x20 DUP4 DUP4 ADD ADD GT PUSH2 0x247 JUMPI DUP2 PUSH1 0x0 SWAP3 PUSH1 0x20 DUP1 SWAP4 ADD DUP4 DUP7 ADD CALLDATACOPY DUP4 ADD ADD MSTORE SWAP1 JUMP JUMPDEST CALLVALUE PUSH2 0x247 JUMPI PUSH1 0x60 CALLDATASIZE PUSH1 0x3 NOT ADD SLT PUSH2 0x247 JUMPI PUSH1 0x4 DUP1 CALLDATALOAD SWAP1 PUSH8 0xFFFFFFFFFFFFFFFF SWAP1 PUSH1 0x24 CALLDATALOAD DUP3 DUP2 GT PUSH2 0x247 JUMPI PUSH2 0x399 SWAP1 CALLDATASIZE SWAP1 DUP4 ADD PUSH2 0x31B JUMP JUMPDEST PUSH1 0x44 CALLDATALOAD DUP4 DUP2 GT PUSH2 0x247 JUMPI PUSH2 0x3B0 SWAP1 CALLDATASIZE SWAP1 DUP5 ADD PUSH2 0x31B JUMP JUMPDEST SWAP1 PUSH1 0x1 PUSH1 0x1 PUSH1 0xA0 SHL SUB PUSH32 0x0 AND CALLER SUB PUSH2 0x593 JUMPI DUP1 MLOAD SWAP4 DUP5 GT PUSH2 0x2BC JUMPI DUP3 PUSH2 0x3FF DUP6 PUSH2 0x3FA DUP9 SWAP7 SLOAD PUSH2 0x669 JUMP JUMPDEST PUSH2 0x14AD JUMP JUMPDEST PUSH1 0x20 DUP1 PUSH1 0x1F DUP8 GT PUSH1 0x1 EQ PUSH2 0x4E9 JUMPI POP SWAP5 DUP1 PUSH32 0x7BAB0EC163B5C132C72B8146AC4D6E067E82ED58F8B131150AA71C9258911562 SWAP6 SWAP7 PUSH1 0x0 SWAP2 PUSH2 0x4DE JUMPI JUMPDEST POP DUP2 PUSH1 0x1 SHL SWAP2 PUSH1 0x0 NOT SWAP1 PUSH1 0x3 SHL SHR NOT AND OR SWAP1 SSTORE JUMPDEST PUSH2 0x458 DUP3 PUSH2 0x2CFF JUMP JUMPDEST PUSH2 0x46B PUSH2 0x466 PUSH1 0xA SLOAD PUSH2 0x169D JUMP JUMPDEST PUSH1 0xA SSTORE JUMP JUMPDEST PUSH1 0xFF PUSH2 0x479 PUSH1 0xB SLOAD PUSH1 0xFF AND SWAP1 JUMP JUMPDEST AND PUSH2 0x4C0 JUMPI PUSH2 0x487 DUP2 PUSH2 0x2E0C JUMP JUMPDEST PUSH2 0x496 PUSH1 0x40 MLOAD SWAP3 DUP4 SWAP3 DUP4 PUSH2 0x2F09 JUMP JUMPDEST SUB SWAP1 LOG2 PUSH32 0x85E1543BF2F84FE80C6BADBCE3648C8539AD1DF4D2B3D822938CA0538BE727E6 PUSH1 0x0 DUP1 LOG2 STOP JUMPDEST PUSH2 0x4D1 PUSH2 0x4CC DUP3 PUSH2 0x2DE9 JUMP JUMPDEST PUSH1 0x1E SSTORE JUMP JUMPDEST PUSH2 0x4D9 PUSH2 0x2F79 JUMP JUMPDEST PUSH2 0x487 JUMP JUMPDEST SWAP1 POP DUP4 ADD MLOAD CODESIZE PUSH2 0x43B JUMP JUMPDEST PUSH1 0x4 PUSH1 0x0 MSTORE SWAP1 PUSH1 0x1F NOT DUP8 AND PUSH32 0x8A35ACFBC15FF81A39AE7D344FD709F28E8600B4AA8C65C6B64BFE7FE36BD19B SWAP3 PUSH1 0x0 SWAP1 JUMPDEST DUP3 DUP3 LT PUSH2 0x577 JUMPI POP POP SWAP2 DUP8 SWAP2 PUSH32 0x7BAB0EC163B5C132C72B8146AC4D6E067E82ED58F8B131150AA71C9258911562 SWAP8 SWAP9 PUSH1 0x1 SWAP5 LT PUSH2 0x55E JUMPI JUMPDEST POP POP DUP2 SHL ADD SWAP1 SSTORE PUSH2 0x44F JUMP JUMPDEST DUP6 ADD MLOAD PUSH1 0x0 NOT PUSH1 0xF8 DUP5 PUSH1 0x3 SHL AND SHR NOT AND SWAP1 SSTORE CODESIZE DUP1 PUSH2 0x552 JUMP JUMPDEST DUP7 DUP5 ADD MLOAD DUP6 SSTORE DUP11 SWAP9 POP PUSH1 0x1 SWAP1 SWAP5 ADD SWAP4 SWAP3 DUP4 ADD SWAP3 SWAP1 DUP2 ADD SWAP1 PUSH2 0x51A JUMP JUMPDEST DUP3 PUSH1 0x40 MLOAD PUSH32 0xC6829F8300000000000000000000000000000000000000000000000000000000 DUP2 MSTORE REVERT JUMPDEST CALLVALUE PUSH2 0x247 JUMPI PUSH1 0x0 CALLDATASIZE PUSH1 0x3 NOT ADD SLT PUSH2 0x247 JUMPI PUSH1 0x20 PUSH1 0x3 SLOAD PUSH1 0x40 MLOAD SWAP1 DUP2 MSTORE RETURN JUMPDEST CALLVALUE PUSH2 0x247 JUMPI PUSH1 0x0 CALLDATASIZE PUSH1 0x3 NOT ADD SLT PUSH2 0x247 JUMPI PUSH1 0x20 PUSH1 0x6 SLOAD PUSH4 0xFFFFFFFF PUSH1 0x40 MLOAD SWAP2 PUSH1 0x40 SHR AND DUP2 MSTORE RETURN JUMPDEST PUSH4 0x4E487B71 PUSH1 0xE0 SHL PUSH1 0x0 MSTORE PUSH1 0x32 PUSH1 0x4 MSTORE PUSH1 0x24 PUSH1 0x0 REVERT JUMPDEST PUSH1 0x1C SLOAD DUP2 LT ISZERO PUSH2 0x64E JUMPI PUSH1 0x1C PUSH1 0x0 MSTORE PUSH32 0xE4562A10381DEC21B205ED72637E6B1B523BDD0E4D4D50AF5CD23DD4500A211 ADD SWAP1 PUSH1 0x0 SWAP1 JUMP JUMPDEST PUSH2 0x601 JUMP JUMPDEST PUSH4 0x4E487B71 PUSH1 0xE0 SHL PUSH1 0x0 MSTORE PUSH1 0x0 PUSH1 0x4 MSTORE PUSH1 0x24 PUSH1 0x0 REVERT JUMPDEST SWAP1 PUSH1 0x1 DUP3 DUP2 SHR SWAP3 AND DUP1 ISZERO PUSH2 0x699 JUMPI JUMPDEST PUSH1 0x20 DUP4 LT EQ PUSH2 0x683 JUMPI JUMP JUMPDEST PUSH4 0x4E487B71 PUSH1 0xE0 SHL PUSH1 0x0 MSTORE PUSH1 0x22 PUSH1 0x4 MSTORE PUSH1 0x24 PUSH1 0x0 REVERT JUMPDEST SWAP2 PUSH1 0x7F AND SWAP2 PUSH2 0x678 JUMP JUMPDEST PUSH1 0x40 MLOAD SWAP1 PUSH1 0x0 DUP3 PUSH1 0x1D SLOAD SWAP2 PUSH2 0x6B7 DUP4 PUSH2 0x669 JUMP JUMPDEST DUP1 DUP4 MSTORE SWAP3 PUSH1 0x1 SWAP1 DUP2 DUP2 AND SWAP1 DUP2 ISZERO PUSH2 0x73F JUMPI POP PUSH1 0x1 EQ PUSH2 0x6E0 JUMPI JUMPDEST POP PUSH2 0x6DE SWAP3 POP SUB DUP4 PUSH2 0x2DD JUMP JUMPDEST JUMP JUMPDEST PUSH1 0x1D PUSH1 0x0 SWAP1 DUP2 MSTORE SWAP2 POP PUSH32 0x6D4407E7BE21F808E6509AA9FA9143369579DD7D760FE20A2C09680FC146134F JUMPDEST DUP5 DUP4 LT PUSH2 0x724 JUMPI POP PUSH2 0x6DE SWAP4 POP POP DUP2 ADD PUSH1 0x20 ADD CODESIZE PUSH2 0x6D1 JUMP JUMPDEST DUP2 SWAP4 POP SWAP1 DUP2 PUSH1 0x20 SWAP3 SLOAD DUP4 DUP6 DUP11 ADD ADD MSTORE ADD SWAP2 ADD SWAP1 SWAP2 DUP6 SWAP3 PUSH2 0x70B JUMP JUMPDEST SWAP1 POP PUSH1 0x20 SWAP3 POP PUSH2 0x6DE SWAP5 SWAP2 POP PUSH1 0xFF NOT AND DUP3 DUP5 ADD MSTORE ISZERO ISZERO PUSH1 0x5 SHL DUP3 ADD ADD CODESIZE PUSH2 0x6D1 JUMP JUMPDEST SWAP1 PUSH1 0x40 MLOAD SWAP2 DUP3 PUSH1 0x0 DUP3 SLOAD SWAP3 PUSH2 0x775 DUP5 PUSH2 0x669 JUMP JUMPDEST SWAP1 DUP2 DUP5 MSTORE PUSH1 0x1 SWAP5 DUP6 DUP2 AND SWAP1 DUP2 PUSH1 0x0 EQ PUSH2 0x7E2 JUMPI POP PUSH1 0x1 EQ PUSH2 0x79F JUMPI JUMPDEST POP POP PUSH2 0x6DE SWAP3 POP SUB DUP4 PUSH2 0x2DD JUMP JUMPDEST SWAP1 SWAP4 SWAP2 POP PUSH1 0x0 MSTORE PUSH1 0x20 SWAP1 DUP2 PUSH1 0x0 KECCAK256 SWAP4 PUSH1 0x0 SWAP2 JUMPDEST DUP2 DUP4 LT PUSH2 0x7CA JUMPI POP POP PUSH2 0x6DE SWAP4 POP DUP3 ADD ADD CODESIZE DUP1 PUSH2 0x791 JUMP JUMPDEST DUP6 SLOAD DUP9 DUP5 ADD DUP6 ADD MSTORE SWAP5 DUP6 ADD SWAP5 DUP8 SWAP5 POP SWAP2 DUP4 ADD SWAP2 PUSH2 0x7B2 JUMP JUMPDEST SWAP2 POP POP PUSH2 0x6DE SWAP5 POP PUSH1 0x20 SWAP3 POP PUSH1 0xFF NOT AND DUP3 DUP5 ADD MSTORE ISZERO ISZERO PUSH1 0x5 SHL DUP3 ADD ADD CODESIZE DUP1 PUSH2 0x791 JUMP JUMPDEST PUSH1 0x0 JUMPDEST DUP3 DUP2 LT PUSH2 0x817 JUMPI POP PUSH1 0x0 SWAP2 ADD MSTORE JUMP JUMPDEST PUSH1 0x80 DUP2 ADD MLOAD DUP3 DUP3 ADD MSTORE PUSH1 0x20 ADD PUSH2 0x808 JUMP JUMPDEST SWAP2 SWAP1 DUP3 MLOAD SWAP3 DUP4 DUP3 MSTORE PUSH1 0x0 JUMPDEST DUP5 DUP2 LT PUSH2 0x854 JUMPI POP POP DUP3 PUSH1 0x0 PUSH1 0x20 DUP1 SWAP5 SWAP6 DUP5 ADD ADD MSTORE PUSH1 0x1F DUP1 NOT SWAP2 ADD AND ADD ADD SWAP1 JUMP JUMPDEST PUSH1 0x20 DUP2 DUP4 ADD DUP2 ADD MLOAD DUP5 DUP4 ADD DUP3 ADD MSTORE ADD PUSH2 0x833 JUMP JUMPDEST SWAP1 PUSH1 0x20 PUSH2 0x879 SWAP3 DUP2 DUP2 MSTORE ADD SWAP1 PUSH2 0x828 JUMP JUMPDEST SWAP1 JUMP JUMPDEST CALLVALUE PUSH2 0x247 JUMPI PUSH1 0x20 CALLDATASIZE PUSH1 0x3 NOT ADD SLT PUSH2 0x247 JUMPI PUSH1 0x4 CALLDATALOAD PUSH1 0x1C SLOAD DUP2 LT ISZERO PUSH2 0x247 JUMPI PUSH2 0x8CD PUSH2 0x8E1 SWAP2 PUSH1 0x1C PUSH1 0x0 MSTORE PUSH32 0xE4562A10381DEC21B205ED72637E6B1B523BDD0E4D4D50AF5CD23DD4500A211 ADD PUSH2 0x761 JUMP JUMPDEST PUSH1 0x40 MLOAD SWAP2 DUP3 SWAP2 PUSH1 0x20 DUP4 MSTORE PUSH1 0x20 DUP4 ADD SWAP1 PUSH2 0x828 JUMP JUMPDEST SUB SWAP1 RETURN JUMPDEST CALLVALUE PUSH2 0x247 JUMPI PUSH1 0x0 CALLDATASIZE PUSH1 0x3 NOT ADD SLT PUSH2 0x247 JUMPI PUSH1 0x20 PUSH1 0x1 PUSH1 0x1 PUSH1 0xA0 SHL SUB PUSH1 0xB SLOAD PUSH1 0x8 SHR AND PUSH1 0x40 MLOAD SWAP1 DUP2 MSTORE RETURN JUMPDEST CALLVALUE PUSH2 0x247 JUMPI PUSH1 0x0 DUP1 PUSH1 0x3 NOT CALLDATASIZE ADD SLT PUSH2 0x9ED JUMPI PUSH1 0x40 MLOAD SWAP1 DUP1 PUSH1 0xD SLOAD PUSH2 0x932 DUP2 PUSH2 0x669 JUMP JUMPDEST DUP1 DUP6 MSTORE SWAP2 PUSH1 0x1 SWAP2 DUP1 DUP4 AND SWAP1 DUP2 ISZERO PUSH2 0x9C3 JUMPI POP PUSH1 0x1 EQ PUSH2 0x968 JUMPI JUMPDEST PUSH2 0x8E1 DUP6 PUSH2 0x95C DUP2 DUP8 SUB DUP3 PUSH2 0x2DD JUMP JUMPDEST PUSH1 0x40 MLOAD SWAP2 DUP3 SWAP2 DUP3 PUSH2 0x868 JUMP JUMPDEST SWAP3 POP PUSH1 0xD DUP4 MSTORE PUSH32 0xD7B6990105719101DABEB77144F2A3385C8033ACD3AF97E9423A695E81AD1EB5 JUMPDEST DUP3 DUP5 LT PUSH2 0x9AB JUMPI POP POP POP DUP2 ADD PUSH1 0x20 ADD PUSH2 0x95C DUP3 PUSH2 0x8E1 PUSH2 0x94C JUMP JUMPDEST DUP1 SLOAD PUSH1 0x20 DUP6 DUP8 ADD DUP2 ADD SWAP2 SWAP1 SWAP2 MSTORE SWAP1 SWAP4 ADD SWAP3 DUP2 ADD PUSH2 0x990 JUMP JUMPDEST DUP7 SWAP6 POP PUSH2 0x8E1 SWAP7 SWAP4 POP PUSH1 0x20 SWAP3 POP PUSH2 0x95C SWAP5 SWAP2 POP PUSH1 0xFF NOT AND DUP3 DUP5 ADD MSTORE ISZERO ISZERO PUSH1 0x5 SHL DUP3 ADD ADD SWAP3 SWAP4 PUSH2 0x94C JUMP JUMPDEST DUP1 REVERT JUMPDEST CALLVALUE PUSH2 0x247 JUMPI PUSH1 0x0 CALLDATASIZE PUSH1 0x3 NOT ADD SLT PUSH2 0x247 JUMPI PUSH1 0x20 PUSH1 0xA SLOAD PUSH1 0x40 MLOAD SWAP1 DUP2 MSTORE RETURN JUMPDEST CALLVALUE PUSH2 0x247 JUMPI PUSH1 0x0 DUP1 PUSH1 0x3 NOT CALLDATASIZE ADD SLT PUSH2 0x9ED JUMPI PUSH1 0x40 MLOAD SWAP1 DUP1 PUSH1 0x11 SLOAD PUSH2 0xA31 DUP2 PUSH2 0x669 JUMP JUMPDEST DUP1 DUP6 MSTORE SWAP2 PUSH1 0x1 SWAP2 DUP1 DUP4 AND SWAP1 DUP2 ISZERO PUSH2 0x9C3 JUMPI POP PUSH1 0x1 EQ PUSH2 0xA5A JUMPI PUSH2 0x8E1 DUP6 PUSH2 0x95C DUP2 DUP8 SUB DUP3 PUSH2 0x2DD JUMP JUMPDEST SWAP3 POP PUSH1 0x11 DUP4 MSTORE PUSH32 0x31ECC21A745E3968A04E9570E4425BC18FA8019C68028196B546D1669C200C68 JUMPDEST DUP3 DUP5 LT PUSH2 0xA9D JUMPI POP POP POP DUP2 ADD PUSH1 0x20 ADD PUSH2 0x95C DUP3 PUSH2 0x8E1 PUSH2 0x94C JUMP JUMPDEST DUP1 SLOAD PUSH1 0x20 DUP6 DUP8 ADD DUP2 ADD SWAP2 SWAP1 SWAP2 MSTORE SWAP1 SWAP4 ADD SWAP3 DUP2 ADD PUSH2 0xA82 JUMP JUMPDEST CALLVALUE PUSH2 0x247 JUMPI PUSH1 0x0 CALLDATASIZE PUSH1 0x3 NOT ADD SLT PUSH2 0x247 JUMPI PUSH1 0x20 PUSH1 0x15 SLOAD PUSH1 0x40 MLOAD SWAP1 DUP2 MSTORE RETURN JUMPDEST SWAP2 DUP2 PUSH1 0x1F DUP5 ADD SLT ISZERO PUSH2 0x247 JUMPI DUP3 CALLDATALOAD SWAP2 PUSH8 0xFFFFFFFFFFFFFFFF DUP4 GT PUSH2 0x247 JUMPI PUSH1 0x20 DUP4 DUP2 DUP7 ADD SWAP6 ADD ADD GT PUSH2 0x247 JUMPI JUMP JUMPDEST CALLVALUE PUSH2 0x247 JUMPI PUSH1 0x20 CALLDATASIZE PUSH1 0x3 NOT ADD SLT PUSH2 0x247 JUMPI PUSH1 0x4 CALLDATALOAD PUSH8 0xFFFFFFFFFFFFFFFF DUP2 GT PUSH2 0x247 JUMPI PUSH2 0xB32 SWAP1 CALLDATASIZE SWAP1 PUSH1 0x4 ADD PUSH2 0xAD3 JUMP JUMPDEST POP POP PUSH1 0x0 SLOAD PUSH1 0x1 PUSH1 0x1 PUSH1 0xA0 SHL SUB AND CALLER DUP2 EQ ISZERO DUP1 PUSH2 0xBA3 JUMPI JUMPDEST PUSH2 0xB58 JUMPI PUSH2 0xB56 PUSH2 0x19DF JUMP JUMPDEST STOP JUMPDEST PUSH1 0x18 SLOAD PUSH1 0x40 MLOAD PUSH32 0x426FBC7100000000000000000000000000000000000000000000000000000000 DUP2 MSTORE CALLER PUSH1 0x4 DUP3 ADD MSTORE PUSH1 0x1 PUSH1 0x1 PUSH1 0xA0 SHL SUB SWAP3 DUP4 AND PUSH1 0x24 DUP3 ADD MSTORE SWAP2 AND PUSH1 0x44 DUP3 ADD MSTORE PUSH1 0x64 SWAP1 REVERT JUMPDEST POP PUSH2 0xBC5 PUSH2 0xBB9 PUSH1 0x18 SLOAD PUSH1 0x1 PUSH1 0x1 PUSH1 0xA0 SHL SUB AND SWAP1 JUMP JUMPDEST PUSH1 0x1 PUSH1 0x1 PUSH1 0xA0 SHL SUB AND SWAP1 JUMP JUMPDEST CALLER EQ ISZERO PUSH2 0xB4A JUMP JUMPDEST CALLVALUE PUSH2 0x247 JUMPI PUSH1 0xA0 CALLDATASIZE PUSH1 0x3 NOT ADD SLT PUSH2 0x247 JUMPI PUSH8 0xFFFFFFFFFFFFFFFF PUSH1 0x4 CALLDATALOAD DUP2 DUP2 GT PUSH2 0x247 JUMPI PUSH2 0xBFF SWAP1 CALLDATASIZE SWAP1 PUSH1 0x4 ADD PUSH2 0xAD3 JUMP JUMPDEST PUSH1 0x24 CALLDATALOAD SWAP3 SWAP2 DUP4 DUP4 AND DUP5 SUB PUSH2 0x247 JUMPI PUSH1 0x44 CALLDATALOAD SWAP3 PUSH4 0xFFFFFFFF DUP5 AND DUP5 SUB PUSH2 0x247 JUMPI PUSH2 0xC26 PUSH2 0x143E JUMP JUMPDEST DUP3 GT PUSH2 0x2BC JUMPI PUSH2 0xC40 DUP3 PUSH2 0xC3B PUSH1 0x2 SLOAD PUSH2 0x669 JUMP JUMPDEST PUSH2 0x150E JUMP JUMPDEST PUSH1 0x0 SWAP1 PUSH1 0x1F DUP4 GT PUSH1 0x1 EQ PUSH2 0xCE0 JUMPI SWAP2 DUP1 PUSH2 0xCBF SWAP6 SWAP3 PUSH2 0xC94 SWAP5 PUSH1 0x0 SWAP3 PUSH2 0xCD5 JUMPI JUMPDEST POP POP DUP2 PUSH1 0x1 SHL SWAP2 PUSH1 0x0 NOT SWAP1 PUSH1 0x3 SHL SHR NOT AND OR PUSH1 0x2 SSTORE PUSH8 0xFFFFFFFFFFFFFFFF AND PUSH8 0xFFFFFFFFFFFFFFFF NOT PUSH1 0x6 SLOAD AND OR PUSH1 0x6 SSTORE JUMP JUMPDEST PUSH12 0xFFFFFFFF0000000000000000 PUSH1 0x6 SLOAD SWAP2 PUSH1 0x40 SHL AND SWAP1 PUSH12 0xFFFFFFFF0000000000000000 NOT AND OR PUSH1 0x6 SSTORE JUMP JUMPDEST PUSH2 0xCCA PUSH1 0x64 CALLDATALOAD PUSH1 0xF SSTORE JUMP JUMPDEST PUSH2 0xB56 PUSH1 0x84 CALLDATALOAD PUSH1 0x7 SSTORE JUMP JUMPDEST ADD CALLDATALOAD SWAP1 POP CODESIZE DUP1 PUSH2 0xC61 JUMP JUMPDEST PUSH1 0x2 PUSH1 0x0 MSTORE PUSH32 0x405787FA12A823E0F2B7631CC41B3BA8828B3321CA811111FA75CD3AA3BB5ACE SWAP2 PUSH1 0x1F NOT DUP5 AND DUP2 JUMPDEST DUP2 DUP2 LT PUSH2 0xD6C JUMPI POP SWAP3 PUSH1 0x1 SWAP3 DUP6 SWAP3 PUSH2 0xC94 SWAP7 PUSH2 0xCBF SWAP10 SWAP7 LT PUSH2 0xD52 JUMPI JUMPDEST POP POP POP DUP2 SHL ADD PUSH1 0x2 SSTORE PUSH8 0xFFFFFFFFFFFFFFFF AND PUSH8 0xFFFFFFFFFFFFFFFF NOT PUSH1 0x6 SLOAD AND OR PUSH1 0x6 SSTORE JUMP JUMPDEST ADD CALLDATALOAD PUSH1 0x0 NOT PUSH1 0x3 DUP5 SWAP1 SHL PUSH1 0xF8 AND SHR NOT AND SWAP1 SSTORE CODESIZE DUP1 DUP1 PUSH2 0xD2B JUMP JUMPDEST SWAP2 SWAP4 PUSH1 0x20 PUSH1 0x1 DUP2 SWAP3 DUP8 DUP8 ADD CALLDATALOAD DUP2 SSTORE ADD SWAP6 ADD SWAP3 ADD PUSH2 0xD0E JUMP JUMPDEST CALLVALUE PUSH2 0x247 JUMPI PUSH1 0x0 CALLDATASIZE PUSH1 0x3 NOT ADD SLT PUSH2 0x247 JUMPI PUSH1 0x20 PUSH1 0x14 SLOAD PUSH1 0x40 MLOAD SWAP1 DUP2 MSTORE RETURN JUMPDEST CALLVALUE PUSH2 0x247 JUMPI PUSH1 0x0 DUP1 PUSH1 0x3 NOT CALLDATASIZE ADD SLT PUSH2 0x9ED JUMPI PUSH1 0x40 MLOAD SWAP1 DUP1 PUSH1 0x12 SLOAD PUSH2 0xDC5 DUP2 PUSH2 0x669 JUMP JUMPDEST DUP1 DUP6 MSTORE SWAP2 PUSH1 0x1 SWAP2 DUP1 DUP4 AND SWAP1 DUP2 ISZERO PUSH2 0x9C3 JUMPI POP PUSH1 0x1 EQ PUSH2 0xDEE JUMPI PUSH2 0x8E1 DUP6 PUSH2 0x95C DUP2 DUP8 SUB DUP3 PUSH2 0x2DD JUMP JUMPDEST SWAP3 POP PUSH1 0x12 DUP4 MSTORE PUSH32 0xBB8A6A4669BA250D26CD7A459ECA9D215F8307E33AEBE50379BC5A3617EC3444 JUMPDEST DUP3 DUP5 LT PUSH2 0xE31 JUMPI POP POP POP DUP2 ADD PUSH1 0x20 ADD PUSH2 0x95C DUP3 PUSH2 0x8E1 PUSH2 0x94C JUMP JUMPDEST DUP1 SLOAD PUSH1 0x20 DUP6 DUP8 ADD DUP2 ADD SWAP2 SWAP1 SWAP2 MSTORE SWAP1 SWAP4 ADD SWAP3 DUP2 ADD PUSH2 0xE16 JUMP JUMPDEST CALLVALUE PUSH2 0x247 JUMPI PUSH1 0x0 CALLDATASIZE PUSH1 0x3 NOT ADD SLT PUSH2 0x247 JUMPI PUSH1 0x20 PUSH1 0x1 PUSH1 0x1 PUSH1 0xA0 SHL SUB PUSH1 0x18 SLOAD AND PUSH1 0x40 MLOAD SWAP1 DUP2 MSTORE RETURN JUMPDEST CALLVALUE PUSH2 0x247 JUMPI PUSH1 0x0 DUP1 PUSH1 0x3 NOT CALLDATASIZE ADD SLT PUSH2 0x9ED JUMPI PUSH1 0x40 MLOAD SWAP1 DUP1 PUSH1 0x2 SLOAD PUSH2 0xE93 DUP2 PUSH2 0x669 JUMP JUMPDEST DUP1 DUP6 MSTORE SWAP2 PUSH1 0x1 SWAP2 DUP1 DUP4 AND SWAP1 DUP2 ISZERO PUSH2 0x9C3 JUMPI POP PUSH1 0x1 EQ PUSH2 0xEBC JUMPI PUSH2 0x8E1 DUP6 PUSH2 0x95C DUP2 DUP8 SUB DUP3 PUSH2 0x2DD JUMP JUMPDEST SWAP3 POP PUSH1 0x2 DUP4 MSTORE PUSH32 0x405787FA12A823E0F2B7631CC41B3BA8828B3321CA811111FA75CD3AA3BB5ACE JUMPDEST DUP3 DUP5 LT PUSH2 0xEFF JUMPI POP POP POP DUP2 ADD PUSH1 0x20 ADD PUSH2 0x95C DUP3 PUSH2 0x8E1 PUSH2 0x94C JUMP JUMPDEST DUP1 SLOAD PUSH1 0x20 DUP6 DUP8 ADD DUP2 ADD SWAP2 SWAP1 SWAP2 MSTORE SWAP1 SWAP4 ADD SWAP3 DUP2 ADD PUSH2 0xEE4 JUMP JUMPDEST CALLVALUE PUSH2 0x247 JUMPI PUSH1 0x20 CALLDATASIZE PUSH1 0x3 NOT ADD SLT PUSH2 0x247 JUMPI PUSH1 0x4 CALLDATALOAD PUSH8 0xFFFFFFFFFFFFFFFF DUP2 GT PUSH2 0x247 JUMPI PUSH2 0xF48 SWAP1 CALLDATASIZE SWAP1 PUSH1 0x4 ADD PUSH2 0x31B JUMP JUMPDEST POP PUSH1 0x8 SLOAD TIMESTAMP SUB TIMESTAMP DUP2 GT PUSH2 0xF8B JUMPI PUSH1 0x7 SLOAD LT PUSH1 0x40 MLOAD SWAP1 DUP2 MSTORE PUSH1 0x40 PUSH1 0x20 DUP3 ADD MSTORE PUSH1 0x60 DUP2 DUP2 MLOAD DUP1 PUSH1 0x40 DUP4 ADD MSTORE PUSH2 0xF7D DUP2 DUP5 DUP5 ADD PUSH2 0x805 JUMP JUMPDEST PUSH1 0x1F ADD PUSH1 0x1F NOT AND DUP2 ADD SUB ADD SWAP1 RETURN JUMPDEST PUSH2 0x15F4 JUMP JUMPDEST CALLVALUE PUSH2 0x247 JUMPI PUSH1 0x0 CALLDATASIZE PUSH1 0x3 NOT ADD SLT PUSH2 0x247 JUMPI PUSH1 0x20 PUSH1 0xF SLOAD PUSH1 0x40 MLOAD SWAP1 DUP2 MSTORE RETURN JUMPDEST CALLVALUE PUSH2 0x247 JUMPI PUSH1 0x0 DUP1 PUSH1 0x3 NOT CALLDATASIZE ADD SLT PUSH2 0x9ED JUMPI PUSH1 0x1 PUSH1 0x1 PUSH1 0xA0 SHL SUB DUP1 PUSH1 0x1 SLOAD AND CALLER SUB PUSH2 0x104A JUMPI DUP2 SLOAD PUSH1 0x1 PUSH1 0x1 PUSH1 0xA0 SHL SUB AND PUSH1 0x0 DUP1 SLOAD PUSH20 0xFFFFFFFFFFFFFFFFFFFFFFFFFFFFFFFFFFFFFFFF NOT AND CALLER OR SWAP1 SSTORE SWAP1 PUSH2 0x1020 PUSH20 0xFFFFFFFFFFFFFFFFFFFFFFFFFFFFFFFFFFFFFFFF NOT PUSH1 0x1 SLOAD AND PUSH1 0x1 SSTORE JUMP JUMPDEST CALLER SWAP2 AND PUSH32 0x8BE0079C531659141344CD1FD0A4F28419497F9722A3DAAFE3B4186F6B6457E0 DUP4 DUP1 LOG3 DUP1 RETURN JUMPDEST PUSH1 0x64 PUSH1 0x40 MLOAD PUSH3 0x461BCD PUSH1 0xE5 SHL DUP2 MSTORE PUSH1 0x20 PUSH1 0x4 DUP3 ADD MSTORE PUSH1 0x16 PUSH1 0x24 DUP3 ADD MSTORE PUSH32 0x4D7573742062652070726F706F736564206F776E657200000000000000000000 PUSH1 0x44 DUP3 ADD MSTORE REVERT JUMPDEST CALLVALUE PUSH2 0x247 JUMPI PUSH1 0x0 CALLDATASIZE PUSH1 0x3 NOT ADD SLT PUSH2 0x247 JUMPI PUSH1 0x20 PUSH1 0x40 MLOAD PUSH1 0x1 PUSH1 0x1 PUSH1 0xA0 SHL SUB PUSH32 0x0 AND DUP2 MSTORE RETURN JUMPDEST CALLVALUE PUSH2 0x247 JUMPI PUSH1 0x0 CALLDATASIZE PUSH1 0x3 NOT ADD SLT PUSH2 0x247 JUMPI PUSH1 0x20 SELFBALANCE PUSH1 0x40 MLOAD SWAP1 DUP2 MSTORE RETURN JUMPDEST CALLVALUE PUSH2 0x247 JUMPI PUSH1 0x0 CALLDATASIZE PUSH1 0x3 NOT ADD SLT PUSH2 0x247 JUMPI PUSH1 0x20 PUSH1 0x1 PUSH1 0x1 PUSH1 0xA0 SHL SUB PUSH1 0x0 SLOAD AND PUSH1 0x40 MLOAD SWAP1 DUP2 MSTORE RETURN JUMPDEST CALLVALUE PUSH2 0x247 JUMPI PUSH1 0x0 CALLDATASIZE PUSH1 0x3 NOT ADD SLT PUSH2 0x247 JUMPI PUSH1 0x20 PUSH1 0x9 SLOAD PUSH1 0x40 MLOAD SWAP1 DUP2 MSTORE RETURN JUMPDEST CALLVALUE PUSH2 0x247 JUMPI PUSH1 0x0 CALLDATASIZE PUSH1 0x3 NOT ADD SLT PUSH2 0x247 JUMPI PUSH1 0x20 PUSH1 0x10 SLOAD PUSH1 0x40 MLOAD SWAP1 DUP2 MSTORE RETURN JUMPDEST CALLVALUE PUSH2 0x247 JUMPI PUSH1 0x0 DUP1 PUSH1 0x3 NOT CALLDATASIZE ADD SLT PUSH2 0x9ED JUMPI PUSH1 0x40 MLOAD SWAP1 DUP1 PUSH1 0x4 SLOAD PUSH2 0x1174 DUP2 PUSH2 0x669 JUMP JUMPDEST DUP1 DUP6 MSTORE SWAP2 PUSH1 0x1 SWAP2 DUP1 DUP4 AND SWAP1 DUP2 ISZERO PUSH2 0x9C3 JUMPI POP PUSH1 0x1 EQ PUSH2 0x119D JUMPI PUSH2 0x8E1 DUP6 PUSH2 0x95C DUP2 DUP8 SUB DUP3 PUSH2 0x2DD JUMP JUMPDEST SWAP3 POP PUSH1 0x4 DUP4 MSTORE PUSH32 0x8A35ACFBC15FF81A39AE7D344FD709F28E8600B4AA8C65C6B64BFE7FE36BD19B JUMPDEST DUP3 DUP5 LT PUSH2 0x11E0 JUMPI POP POP POP DUP2 ADD PUSH1 0x20 ADD PUSH2 0x95C DUP3 PUSH2 0x8E1 PUSH2 0x94C JUMP JUMPDEST DUP1 SLOAD PUSH1 0x20 DUP6 DUP8 ADD DUP2 ADD SWAP2 SWAP1 SWAP2 MSTORE SWAP1 SWAP4 ADD SWAP3 DUP2 ADD PUSH2 0x11C5 JUMP JUMPDEST CALLVALUE PUSH2 0x247 JUMPI PUSH1 0x0 CALLDATASIZE PUSH1 0x3 NOT ADD SLT PUSH2 0x247 JUMPI PUSH1 0x20 PUSH1 0x1 PUSH1 0x1 PUSH1 0xA0 SHL SUB PUSH1 0x16 SLOAD AND PUSH1 0x40 MLOAD SWAP1 DUP2 MSTORE RETURN JUMPDEST CALLVALUE PUSH2 0x247 JUMPI PUSH1 0x0 CALLDATASIZE PUSH1 0x3 NOT ADD SLT PUSH2 0x247 JUMPI PUSH1 0x20 PUSH1 0x1 PUSH1 0x1 PUSH1 0xA0 SHL SUB PUSH1 0x17 SLOAD AND PUSH1 0x40 MLOAD SWAP1 DUP2 MSTORE RETURN JUMPDEST CALLVALUE PUSH2 0x247 JUMPI PUSH1 0x0 CALLDATASIZE PUSH1 0x3 NOT ADD SLT PUSH2 0x247 JUMPI PUSH1 0x20 PUSH1 0x1B SLOAD PUSH1 0x40 MLOAD SWAP1 DUP2 MSTORE RETURN JUMPDEST CALLVALUE PUSH2 0x247 JUMPI PUSH1 0x20 CALLDATASIZE PUSH1 0x3 NOT ADD SLT PUSH2 0x247 JUMPI PUSH1 0x4 CALLDATALOAD PUSH1 0x1 PUSH1 0x1 PUSH1 0xA0 SHL SUB DUP2 AND DUP1 SWAP2 SUB PUSH2 0x247 JUMPI PUSH2 0x1291 PUSH2 0x143E JUMP JUMPDEST CALLER DUP2 EQ PUSH2 0x12F3 JUMPI DUP1 PUSH20 0xFFFFFFFFFFFFFFFFFFFFFFFFFFFFFFFFFFFFFFFF NOT PUSH1 0x1 SLOAD AND OR PUSH1 0x1 SSTORE PUSH2 0x12CC PUSH2 0xBB9 PUSH1 0x0 SLOAD PUSH1 0x1 PUSH1 0x1 PUSH1 0xA0 SHL SUB AND SWAP1 JUMP JUMPDEST PUSH32 0xED8889F560326EB138920D842192F0EB3DD22B4F139C87A2C57538E05BAE1278 PUSH1 0x0 DUP1 LOG3 STOP JUMPDEST PUSH1 0x64 PUSH1 0x40 MLOAD PUSH3 0x461BCD PUSH1 0xE5 SHL DUP2 MSTORE PUSH1 0x20 PUSH1 0x4 DUP3 ADD MSTORE PUSH1 0x17 PUSH1 0x24 DUP3 ADD MSTORE PUSH32 0x43616E6E6F74207472616E7366657220746F2073656C66000000000000000000 PUSH1 0x44 DUP3 ADD MSTORE REVERT JUMPDEST CALLVALUE PUSH2 0x247 JUMPI PUSH1 0x0 CALLDATASIZE PUSH1 0x3 NOT ADD SLT PUSH2 0x247 JUMPI PUSH1 0x20 PUSH1 0x13 SLOAD PUSH1 0x40 MLOAD SWAP1 DUP2 MSTORE RETURN JUMPDEST CALLVALUE PUSH2 0x247 JUMPI PUSH1 0x0 CALLDATASIZE PUSH1 0x3 NOT ADD SLT PUSH2 0x247 JUMPI PUSH1 0x20 PUSH4 0xFFFFFFFF PUSH1 0xE SLOAD AND PUSH1 0x40 MLOAD SWAP1 DUP2 MSTORE RETURN JUMPDEST CALLVALUE PUSH2 0x247 JUMPI PUSH1 0x0 CALLDATASIZE PUSH1 0x3 NOT ADD SLT PUSH2 0x247 JUMPI PUSH1 0x20 PUSH1 0x7 SLOAD PUSH1 0x40 MLOAD SWAP1 DUP2 MSTORE RETURN JUMPDEST CALLVALUE PUSH2 0x247 JUMPI PUSH1 0x0 DUP1 PUSH1 0x3 NOT CALLDATASIZE ADD SLT PUSH2 0x9ED JUMPI PUSH1 0x40 MLOAD SWAP1 DUP1 PUSH1 0x5 SLOAD PUSH2 0x13BA DUP2 PUSH2 0x669 JUMP JUMPDEST DUP1 DUP6 MSTORE SWAP2 PUSH1 0x1 SWAP2 DUP1 DUP4 AND SWAP1 DUP2 ISZERO PUSH2 0x9C3 JUMPI POP PUSH1 0x1 EQ PUSH2 0x13E3 JUMPI PUSH2 0x8E1 DUP6 PUSH2 0x95C DUP2 DUP8 SUB DUP3 PUSH2 0x2DD JUMP JUMPDEST SWAP3 POP PUSH1 0x5 DUP4 MSTORE PUSH32 0x36B6384B5ECA791C62761152D0C79BB0604C104A5FB6F4EB0703F3154BB3DB0 JUMPDEST DUP3 DUP5 LT PUSH2 0x1426 JUMPI POP POP POP DUP2 ADD PUSH1 0x20 ADD PUSH2 0x95C DUP3 PUSH2 0x8E1 PUSH2 0x94C JUMP JUMPDEST DUP1 SLOAD PUSH1 0x20 DUP6 DUP8 ADD DUP2 ADD SWAP2 SWAP1 SWAP2 MSTORE SWAP1 SWAP4 ADD SWAP3 DUP2 ADD PUSH2 0x140B JUMP JUMPDEST PUSH1 0x1 PUSH1 0x1 PUSH1 0xA0 SHL SUB PUSH1 0x0 SLOAD AND CALLER SUB PUSH2 0x1452 JUMPI JUMP JUMPDEST PUSH1 0x64 PUSH1 0x40 MLOAD PUSH3 0x461BCD PUSH1 0xE5 SHL DUP2 MSTORE PUSH1 0x20 PUSH1 0x4 DUP3 ADD MSTORE PUSH1 0x16 PUSH1 0x24 DUP3 ADD MSTORE PUSH32 0x4F6E6C792063616C6C61626C65206279206F776E657200000000000000000000 PUSH1 0x44 DUP3 ADD MSTORE REVERT JUMPDEST DUP2 DUP2 LT PUSH2 0x14A1 JUMPI POP POP JUMP JUMPDEST PUSH1 0x0 DUP2 SSTORE PUSH1 0x1 ADD PUSH2 0x1496 JUMP JUMPDEST SWAP1 PUSH1 0x1F DUP3 GT PUSH2 0x14BA JUMPI POP POP JUMP JUMPDEST PUSH2 0x6DE SWAP2 PUSH1 0x4 PUSH1 0x0 MSTORE PUSH32 0x8A35ACFBC15FF81A39AE7D344FD709F28E8600B4AA8C65C6B64BFE7FE36BD19B SWAP1 PUSH1 0x20 PUSH1 0x1F DUP5 ADD PUSH1 0x5 SHR DUP4 ADD SWAP4 LT PUSH2 0x1504 JUMPI JUMPDEST PUSH1 0x1F ADD PUSH1 0x5 SHR ADD SWAP1 PUSH2 0x1496 JUMP JUMPDEST SWAP1 SWAP2 POP DUP2 SWAP1 PUSH2 0x14F7 JUMP JUMPDEST SWAP1 PUSH1 0x1F DUP3 GT PUSH2 0x151B JUMPI POP POP JUMP JUMPDEST PUSH2 0x6DE SWAP2 PUSH1 0x2 PUSH1 0x0 MSTORE PUSH32 0x405787FA12A823E0F2B7631CC41B3BA8828B3321CA811111FA75CD3AA3BB5ACE SWAP1 PUSH1 0x20 PUSH1 0x1F DUP5 ADD PUSH1 0x5 SHR DUP4 ADD SWAP4 LT PUSH2 0x1504 JUMPI PUSH1 0x1F ADD PUSH1 0x5 SHR ADD SWAP1 PUSH2 0x1496 JUMP JUMPDEST SWAP1 PUSH1 0x1F DUP3 GT PUSH2 0x1571 JUMPI POP POP JUMP JUMPDEST PUSH2 0x6DE SWAP2 PUSH1 0x5 PUSH1 0x0 MSTORE PUSH32 0x36B6384B5ECA791C62761152D0C79BB0604C104A5FB6F4EB0703F3154BB3DB0 SWAP1 PUSH1 0x20 PUSH1 0x1F DUP5 ADD PUSH1 0x5 SHR DUP4 ADD SWAP4 LT PUSH2 0x1504 JUMPI PUSH1 0x1F ADD PUSH1 0x5 SHR ADD SWAP1 PUSH2 0x1496 JUMP JUMPDEST SWAP2 SWAP1 PUSH1 0x1F DUP2 GT PUSH2 0x15C9 JUMPI POP POP POP JUMP JUMPDEST PUSH2 0x6DE SWAP3 PUSH1 0x0 MSTORE PUSH1 0x20 PUSH1 0x0 KECCAK256 SWAP1 PUSH1 0x20 PUSH1 0x1F DUP5 ADD PUSH1 0x5 SHR DUP4 ADD SWAP4 LT PUSH2 0x1504 JUMPI PUSH1 0x1F ADD PUSH1 0x5 SHR ADD SWAP1 PUSH2 0x1496 JUMP JUMPDEST PUSH4 0x4E487B71 PUSH1 0xE0 SHL PUSH1 0x0 MSTORE PUSH1 0x11 PUSH1 0x4 MSTORE PUSH1 0x24 PUSH1 0x0 REVERT JUMPDEST PUSH1 0x1F NOT DUP2 ADD SWAP2 SWAP1 DUP3 GT PUSH2 0xF8B JUMPI JUMP JUMPDEST PUSH1 0x60 PUSH1 0x8 SLOAD TIMESTAMP SUB TIMESTAMP DUP2 GT PUSH2 0xF8B JUMPI PUSH1 0x7 SLOAD LT SWAP2 JUMP JUMPDEST PUSH1 0x40 MLOAD SWAP1 PUSH1 0x20 DUP3 ADD DUP3 DUP2 LT PUSH8 0xFFFFFFFFFFFFFFFF DUP3 GT OR PUSH2 0x2BC JUMPI PUSH1 0x40 MSTORE PUSH1 0x0 DUP3 MSTORE JUMP JUMPDEST ISZERO PUSH2 0x1659 JUMPI JUMP JUMPDEST PUSH1 0x64 PUSH1 0x40 MLOAD PUSH3 0x461BCD PUSH1 0xE5 SHL DUP2 MSTORE PUSH1 0x20 PUSH1 0x4 DUP3 ADD MSTORE PUSH1 0x15 PUSH1 0x24 DUP3 ADD MSTORE PUSH32 0x54696D6520696E74657276616C206E6F74206D65740000000000000000000000 PUSH1 0x44 DUP3 ADD MSTORE REVERT JUMPDEST SWAP1 PUSH1 0x1 DUP3 ADD DUP1 SWAP3 GT PUSH2 0xF8B JUMPI JUMP JUMPDEST SWAP1 PUSH1 0x20 DUP3 ADD DUP1 SWAP3 GT PUSH2 0xF8B JUMPI JUMP JUMPDEST SWAP2 SWAP1 DUP3 ADD DUP1 SWAP3 GT PUSH2 0xF8B JUMPI JUMP JUMPDEST ISZERO PUSH2 0x16CD JUMPI JUMP JUMPDEST PUSH1 0x64 PUSH1 0x40 MLOAD PUSH3 0x461BCD PUSH1 0xE5 SHL DUP2 MSTORE PUSH1 0x20 PUSH1 0x4 DUP3 ADD MSTORE PUSH1 0x15 PUSH1 0x24 DUP3 ADD MSTORE PUSH32 0x55706B656570206E6F7420726567697374657265640000000000000000000000 PUSH1 0x44 DUP3 ADD MSTORE REVERT JUMPDEST PUSH1 0x40 MLOAD SWAP1 PUSH1 0xE0 DUP3 ADD DUP3 DUP2 LT PUSH8 0xFFFFFFFFFFFFFFFF DUP3 GT OR PUSH2 0x2BC JUMPI PUSH1 0x40 MSTORE PUSH1 0x60 PUSH1 0xC0 DUP4 PUSH1 0x0 DUP2 MSTORE PUSH1 0x0 PUSH1 0x20 DUP3 ADD MSTORE PUSH1 0x0 PUSH1 0x40 DUP3 ADD MSTORE DUP3 DUP1 DUP3 ADD MSTORE DUP3 PUSH1 0x80 DUP3 ADD MSTORE DUP3 PUSH1 0xA0 DUP3 ADD MSTORE ADD MSTORE JUMP JUMPDEST PUSH1 0x1C SLOAD SWAP1 PUSH8 0xFFFFFFFFFFFFFFFF DUP3 GT PUSH2 0x2BC JUMPI PUSH1 0x40 MLOAD SWAP2 PUSH1 0x20 PUSH2 0x1783 DUP2 DUP4 PUSH1 0x5 SHL ADD DUP6 PUSH2 0x2DD JUMP JUMPDEST DUP2 DUP5 MSTORE DUP1 DUP5 ADD SWAP1 PUSH1 0x1C PUSH1 0x0 MSTORE PUSH32 0xE4562A10381DEC21B205ED72637E6B1B523BDD0E4D4D50AF5CD23DD4500A211 PUSH1 0x0 SWAP3 JUMPDEST DUP5 DUP5 LT PUSH2 0x17C2 JUMPI POP POP POP POP POP JUMP JUMPDEST PUSH1 0x1 DUP4 DUP2 SWAP3 PUSH2 0x17D0 DUP6 PUSH2 0x761 JUMP JUMPDEST DUP2 MSTORE ADD SWAP3 ADD SWAP4 ADD SWAP3 SWAP1 PUSH2 0x17B4 JUMP JUMPDEST SWAP1 DUP2 PUSH1 0x20 SWAP2 SUB SLT PUSH2 0x247 JUMPI MLOAD SWAP1 JUMP JUMPDEST SWAP1 PUSH2 0x181B PUSH1 0x80 SWAP4 PUSH8 0xFFFFFFFFFFFFFFFF PUSH4 0xFFFFFFFF SWAP4 SWAP9 SWAP8 SWAP7 SWAP9 AND DUP5 MSTORE PUSH1 0xA0 PUSH1 0x20 DUP6 ADD MSTORE PUSH1 0xA0 DUP5 ADD SWAP1 PUSH2 0x828 JUMP JUMPDEST SWAP6 PUSH1 0x1 PUSH1 0x40 DUP5 ADD MSTORE AND PUSH1 0x60 DUP3 ADD MSTORE ADD MSTORE JUMP JUMPDEST PUSH1 0x40 MLOAD RETURNDATASIZE PUSH1 0x0 DUP3 RETURNDATACOPY RETURNDATASIZE SWAP1 REVERT JUMPDEST PUSH1 0x0 SWAP1 PUSH1 0x3 RETURNDATASIZE GT PUSH2 0x1846 JUMPI JUMP JUMPDEST SWAP1 POP PUSH1 0x4 PUSH1 0x0 DUP1 RETURNDATACOPY PUSH1 0x0 MLOAD PUSH1 0xE0 SHR SWAP1 JUMP JUMPDEST PUSH1 0x0 PUSH1 0x44 RETURNDATASIZE LT PUSH2 0x879 JUMPI PUSH1 0x40 MLOAD PUSH1 0x3 NOT SWAP2 RETURNDATASIZE DUP4 ADD PUSH1 0x4 DUP4 RETURNDATACOPY DUP2 MLOAD PUSH8 0xFFFFFFFFFFFFFFFF SWAP2 DUP3 DUP3 GT RETURNDATASIZE PUSH1 0x24 DUP5 ADD GT OR PUSH2 0x18B5 JUMPI DUP2 DUP5 ADD SWAP5 DUP6 MLOAD SWAP4 DUP5 GT PUSH2 0x18BD JUMPI RETURNDATASIZE DUP6 ADD ADD PUSH1 0x20 DUP5 DUP8 ADD ADD GT PUSH2 0x18B5 JUMPI POP PUSH2 0x879 SWAP3 SWAP2 ADD PUSH1 0x20 ADD SWAP1 PUSH2 0x2DD JUMP JUMPDEST SWAP5 SWAP4 POP POP POP POP JUMP JUMPDEST POP SWAP5 SWAP4 POP POP POP POP JUMP JUMPDEST RETURNDATASIZE ISZERO PUSH2 0x18F1 JUMPI RETURNDATASIZE SWAP1 PUSH2 0x18D7 DUP3 PUSH2 0x2FF JUMP JUMPDEST SWAP2 PUSH2 0x18E5 PUSH1 0x40 MLOAD SWAP4 DUP5 PUSH2 0x2DD JUMP JUMPDEST DUP3 MSTORE RETURNDATASIZE PUSH1 0x0 PUSH1 0x20 DUP5 ADD RETURNDATACOPY JUMP JUMPDEST PUSH1 0x60 SWAP1 JUMP JUMPDEST SWAP1 PUSH8 0xFFFFFFFFFFFFFFFF SWAP1 SWAP5 SWAP4 SWAP3 SWAP5 AND DUP2 MSTORE PUSH1 0x20 SWAP4 PUSH1 0xA0 DUP6 DUP4 ADD MSTORE PUSH1 0x0 PUSH1 0x2 SLOAD SWAP6 PUSH2 0x1920 DUP8 PUSH2 0x669 JUMP JUMPDEST SWAP1 DUP2 PUSH1 0xA0 DUP7 ADD MSTORE PUSH1 0x1 SWAP8 DUP9 DUP2 AND SWAP1 DUP2 PUSH1 0x0 EQ PUSH2 0x19B6 JUMPI POP PUSH1 0x1 EQ PUSH2 0x195A JUMPI JUMPDEST POP POP PUSH1 0x40 DUP4 ADD SWAP6 SWAP1 SWAP6 MSTORE PUSH4 0xFFFFFFFF AND PUSH1 0x60 DUP3 ADD MSTORE PUSH1 0x80 ADD MSTORE JUMP JUMPDEST PUSH1 0x2 PUSH1 0x0 SWAP1 DUP2 MSTORE SWAP3 POP DUP8 PUSH32 0x405787FA12A823E0F2B7631CC41B3BA8828B3321CA811111FA75CD3AA3BB5ACE JUMPDEST DUP4 DUP6 LT PUSH2 0x19A1 JUMPI POP POP POP POP DUP3 ADD PUSH1 0xC0 ADD DUP2 PUSH4 0xFFFFFFFF PUSH2 0x193F JUMP JUMPDEST DUP1 SLOAD DUP8 DUP7 ADD PUSH1 0xC0 ADD MSTORE SWAP4 DUP3 ADD SWAP4 DUP10 SWAP2 ADD PUSH2 0x1986 JUMP JUMPDEST PUSH1 0xFF NOT AND PUSH1 0xC0 DUP8 DUP2 ADD SWAP2 SWAP1 SWAP2 MSTORE SWAP3 ISZERO ISZERO PUSH1 0x5 SHL DUP7 ADD SWAP1 SWAP3 ADD SWAP3 POP DUP4 SWAP2 POP PUSH4 0xFFFFFFFF SWAP1 POP PUSH2 0x193F JUMP JUMPDEST PUSH2 0x19E7 PUSH2 0x162E JUMP JUMPDEST POP PUSH2 0x19F9 PUSH2 0x19F3 PUSH2 0x1619 JUMP JUMPDEST POP PUSH2 0x1652 JUMP JUMPDEST PUSH2 0x1A02 TIMESTAMP PUSH1 0x8 SSTORE JUMP JUMPDEST PUSH2 0x1A15 PUSH2 0x1A10 PUSH1 0x9 SLOAD PUSH2 0x169D JUMP JUMPDEST PUSH1 0x9 SSTORE JUMP JUMPDEST PUSH1 0x1B SLOAD PUSH1 0x1C SLOAD LT ISZERO PUSH2 0x1BC4 JUMPI PUSH2 0x1A34 PUSH2 0x1A2F PUSH1 0x13 SLOAD PUSH2 0x169D JUMP JUMPDEST PUSH1 0x13 SSTORE JUMP JUMPDEST PUSH1 0x6 SLOAD PUSH8 0xFFFFFFFFFFFFFFFF AND PUSH1 0x20 PUSH2 0x1A52 PUSH1 0xE SLOAD PUSH4 0xFFFFFFFF AND SWAP1 JUMP JUMPDEST PUSH1 0xF SLOAD SWAP3 PUSH2 0x1A74 PUSH1 0x40 MLOAD SWAP5 DUP6 SWAP4 DUP5 SWAP4 PUSH4 0x230E93B1 PUSH1 0xE1 SHL DUP6 MSTORE PUSH1 0x4 DUP6 ADD PUSH2 0x18F6 JUMP JUMPDEST SUB DUP2 PUSH1 0x0 PUSH1 0x1 PUSH1 0x1 PUSH1 0xA0 SHL SUB PUSH32 0x0 AND GAS CALL PUSH1 0x0 SWAP2 DUP2 PUSH2 0x1B94 JUMPI JUMPDEST POP PUSH2 0x1B51 JUMPI POP PUSH1 0x1 PUSH2 0x1ABD PUSH2 0x1839 JUMP JUMPDEST PUSH4 0x8C379A0 EQ PUSH2 0x1AFF JUMPI JUMPDEST PUSH2 0x1ACE JUMPI JUMP JUMPDEST PUSH32 0x9C4BFA18304482256875C29FABB1A44A5ECD325F214EA17BAB8F31E869FAF4C8 PUSH2 0x1AFA PUSH2 0x95C PUSH2 0x18C6 JUMP JUMPDEST SUB SWAP1 LOG1 JUMP JUMPDEST PUSH2 0x1B07 PUSH2 0x1857 JUMP JUMPDEST DUP1 PUSH2 0x1B13 JUMPI JUMPDEST POP PUSH2 0x1AC8 JUMP JUMPDEST SWAP1 POP PUSH32 0x2BA61E3733E7AC99181C22307780F651EC8FD92FE661A84DFBE711710B2DC36C PUSH2 0x1B48 PUSH1 0x0 SWAP3 PUSH1 0x40 MLOAD SWAP2 DUP3 SWAP2 DUP3 PUSH2 0x868 JUMP JUMPDEST SUB SWAP1 LOG1 CODESIZE PUSH2 0x1B0D JUMP JUMPDEST PUSH2 0x1B5A DUP2 PUSH1 0x10 SSTORE JUMP JUMPDEST PUSH2 0x1B6D PUSH2 0x1B68 PUSH1 0x14 SLOAD PUSH2 0x169D JUMP JUMPDEST PUSH1 0x14 SSTORE JUMP JUMPDEST PUSH32 0x1131472297A800FEE664D1D89CFA8F7676FF07189ECC53F80BBB5F4969099DB8 PUSH1 0x0 DUP1 LOG2 JUMP JUMPDEST PUSH2 0x1BB6 SWAP2 SWAP3 POP PUSH1 0x20 RETURNDATASIZE DUP2 GT PUSH2 0x1BBD JUMPI JUMPDEST PUSH2 0x1BAE DUP2 DUP4 PUSH2 0x2DD JUMP JUMPDEST DUP2 ADD SWAP1 PUSH2 0x17DE JUMP JUMPDEST SWAP1 CODESIZE PUSH2 0x1AAD JUMP JUMPDEST POP RETURNDATASIZE PUSH2 0x1BA4 JUMP JUMPDEST PUSH2 0x1BD1 PUSH1 0xC SLOAD ISZERO ISZERO PUSH2 0x16C6 JUMP JUMPDEST PUSH2 0x1BE3 PUSH1 0x1 PUSH1 0xFF NOT PUSH1 0xB SLOAD AND OR PUSH1 0xB SSTORE JUMP JUMPDEST PUSH2 0x1C15 PUSH2 0x1BEE PUSH2 0x1711 JUMP JUMPDEST PUSH2 0x1BFF PUSH2 0x1BF9 PUSH2 0x6A3 JUMP JUMPDEST DUP3 PUSH2 0x2200 JUMP JUMPDEST PUSH2 0x1C10 PUSH2 0x1C0A PUSH2 0x175B JUMP JUMPDEST DUP3 PUSH2 0x2241 JUMP JUMPDEST PUSH2 0x2015 JUMP JUMPDEST PUSH2 0x1C23 PUSH2 0x1A2F PUSH1 0x13 SLOAD PUSH2 0x169D JUMP JUMPDEST PUSH1 0x6 SLOAD PUSH8 0xFFFFFFFFFFFFFFFF AND PUSH2 0x1C5F PUSH2 0x1C42 PUSH1 0xE SLOAD PUSH4 0xFFFFFFFF AND SWAP1 JUMP JUMPDEST PUSH1 0xF SLOAD SWAP1 PUSH1 0x40 MLOAD SWAP5 DUP6 SWAP5 PUSH4 0x230E93B1 PUSH1 0xE1 SHL DUP7 MSTORE PUSH1 0x4 DUP7 ADD PUSH2 0x17ED JUMP JUMPDEST SUB PUSH1 0x0 SWAP2 PUSH1 0x20 DUP2 PUSH1 0x1 PUSH1 0x1 PUSH1 0xA0 SHL SUB SWAP4 DUP2 DUP7 DUP7 PUSH32 0x0 AND GAS CALL DUP4 SWAP2 DUP2 PUSH2 0x1E14 JUMPI JUMPDEST POP PUSH2 0x1DD4 JUMPI POP PUSH1 0x1 PUSH2 0x1CAE PUSH2 0x1839 JUMP JUMPDEST PUSH4 0x8C379A0 EQ PUSH2 0x1D83 JUMPI JUMPDEST PUSH2 0x1D4F JUMPI JUMPDEST PUSH32 0x0 AND PUSH1 0xC SLOAD DUP2 EXTCODESIZE ISZERO PUSH2 0x1D4B JUMPI PUSH1 0x40 MLOAD PUSH32 0x8765ECBE00000000000000000000000000000000000000000000000000000000 DUP2 MSTORE PUSH1 0x4 DUP2 ADD SWAP2 SWAP1 SWAP2 MSTORE SWAP2 SWAP1 DUP3 SWAP1 PUSH1 0x24 SWAP1 DUP3 SWAP1 DUP5 SWAP1 GAS CALL DUP1 ISZERO PUSH2 0x1D46 JUMPI PUSH2 0x1D33 JUMPI JUMPDEST POP JUMP JUMPDEST DUP1 PUSH2 0x1D40 PUSH2 0x6DE SWAP3 PUSH2 0x2A8 JUMP JUMPDEST DUP1 PUSH2 0x23C JUMP JUMPDEST PUSH2 0x182D JUMP JUMPDEST DUP3 DUP1 REVERT JUMPDEST PUSH32 0x9C4BFA18304482256875C29FABB1A44A5ECD325F214EA17BAB8F31E869FAF4C8 PUSH2 0x1D7B PUSH2 0x95C PUSH2 0x18C6 JUMP JUMPDEST SUB SWAP1 LOG1 PUSH2 0x1CBE JUMP JUMPDEST PUSH2 0x1D8B PUSH2 0x1857 JUMP JUMPDEST DUP1 PUSH2 0x1D97 JUMPI JUMPDEST POP PUSH2 0x1CB9 JUMP JUMPDEST SWAP1 POP PUSH32 0x2BA61E3733E7AC99181C22307780F651EC8FD92FE661A84DFBE711710B2DC36C PUSH2 0x1DCB DUP5 SWAP3 PUSH1 0x40 MLOAD SWAP2 DUP3 SWAP2 DUP3 PUSH2 0x868 JUMP JUMPDEST SUB SWAP1 LOG1 CODESIZE PUSH2 0x1D91 JUMP JUMPDEST PUSH2 0x1DDD DUP2 PUSH1 0x10 SSTORE JUMP JUMPDEST PUSH2 0x1DEB PUSH2 0x1B68 PUSH1 0x14 SLOAD PUSH2 0x169D JUMP JUMPDEST PUSH32 0x1131472297A800FEE664D1D89CFA8F7676FF07189ECC53F80BBB5F4969099DB8 DUP4 DUP1 LOG2 PUSH2 0x1CBE JUMP JUMPDEST PUSH2 0x1E2D SWAP2 SWAP3 POP PUSH1 0x20 RETURNDATASIZE DUP2 GT PUSH2 0x1BBD JUMPI PUSH2 0x1BAE DUP2 DUP4 PUSH2 0x2DD JUMP JUMPDEST SWAP1 CODESIZE PUSH2 0x1C9E JUMP JUMPDEST PUSH1 0x40 MLOAD SWAP1 PUSH2 0x1E41 DUP3 PUSH2 0x2C1 JUMP JUMPDEST PUSH1 0xC DUP3 MSTORE PUSH32 0x636F64654C6F636174696F6E0000000000000000000000000000000000000000 PUSH1 0x20 DUP4 ADD MSTORE JUMP JUMPDEST PUSH4 0x4E487B71 PUSH1 0xE0 SHL PUSH1 0x0 MSTORE PUSH1 0x21 PUSH1 0x4 MSTORE PUSH1 0x24 PUSH1 0x0 REVERT JUMPDEST PUSH1 0x3 GT ISZERO PUSH2 0x1E8D JUMPI JUMP JUMPDEST PUSH2 0x1E6D JUMP JUMPDEST PUSH1 0x40 MLOAD SWAP1 PUSH2 0x1E9F DUP3 PUSH2 0x2C1 JUMP JUMPDEST PUSH1 0x8 DUP3 MSTORE PUSH32 0x6C616E6775616765000000000000000000000000000000000000000000000000 PUSH1 0x20 DUP4 ADD MSTORE JUMP JUMPDEST PUSH1 0x1 GT ISZERO PUSH2 0x1E8D JUMPI JUMP JUMPDEST PUSH1 0x40 MLOAD SWAP1 PUSH2 0x1EE2 DUP3 PUSH2 0x2C1 JUMP JUMPDEST PUSH1 0x6 DUP3 MSTORE PUSH32 0x736F757263650000000000000000000000000000000000000000000000000000 PUSH1 0x20 DUP4 ADD MSTORE JUMP JUMPDEST PUSH1 0x40 MLOAD SWAP1 PUSH2 0x1F1B DUP3 PUSH2 0x2C1 JUMP JUMPDEST PUSH1 0x4 DUP3 MSTORE PUSH32 0x6172677300000000000000000000000000000000000000000000000000000000 PUSH1 0x20 DUP4 ADD MSTORE JUMP JUMPDEST PUSH1 0x0 NOT DUP2 EQ PUSH2 0xF8B JUMPI PUSH1 0x1 ADD SWAP1 JUMP JUMPDEST DUP1 MLOAD DUP3 LT ISZERO PUSH2 0x64E JUMPI PUSH1 0x20 SWAP2 PUSH1 0x5 SHL ADD ADD SWAP1 JUMP JUMPDEST PUSH1 0x40 MLOAD SWAP1 PUSH2 0x1F77 DUP3 PUSH2 0x2C1 JUMP JUMPDEST PUSH1 0xF DUP3 MSTORE PUSH32 0x736563726574734C6F636174696F6E0000000000000000000000000000000000 PUSH1 0x20 DUP4 ADD MSTORE JUMP JUMPDEST PUSH1 0x40 MLOAD SWAP1 PUSH2 0x1FB0 DUP3 PUSH2 0x2C1 JUMP JUMPDEST PUSH1 0x7 DUP3 MSTORE PUSH32 0x7365637265747300000000000000000000000000000000000000000000000000 PUSH1 0x20 DUP4 ADD MSTORE JUMP JUMPDEST PUSH1 0x40 MLOAD SWAP1 PUSH2 0x1FE9 DUP3 PUSH2 0x2C1 JUMP JUMPDEST PUSH1 0x9 DUP3 MSTORE PUSH32 0x6279746573417267730000000000000000000000000000000000000000000000 PUSH1 0x20 DUP4 ADD MSTORE JUMP JUMPDEST PUSH2 0x201D PUSH2 0x2292 JUMP JUMPDEST SWAP1 PUSH2 0x202F PUSH2 0x2029 PUSH2 0x1E34 JUMP JUMPDEST DUP4 PUSH2 0x29BE JUMP JUMPDEST PUSH2 0x204C DUP2 MLOAD PUSH2 0x203D DUP2 PUSH2 0x1E83 JUMP JUMPDEST PUSH2 0x2046 DUP2 PUSH2 0x1E83 JUMP JUMPDEST DUP4 PUSH2 0x2334 JUMP JUMPDEST PUSH2 0x2057 PUSH2 0x2029 PUSH2 0x1E92 JUMP JUMPDEST PUSH2 0x2071 PUSH1 0x40 DUP3 ADD MLOAD PUSH2 0x2068 DUP2 PUSH2 0x1ECB JUMP JUMPDEST PUSH2 0x2046 DUP2 PUSH2 0x1ECB JUMP JUMPDEST PUSH2 0x207C PUSH2 0x2029 PUSH2 0x1ED5 JUMP JUMPDEST PUSH2 0x208A PUSH1 0x60 DUP3 ADD MLOAD DUP4 PUSH2 0x29BE JUMP JUMPDEST PUSH1 0xA0 DUP2 ADD DUP1 MLOAD MLOAD PUSH2 0x21A7 JUMPI JUMPDEST POP PUSH1 0x80 DUP2 ADD SWAP1 DUP2 MLOAD MLOAD PUSH2 0x210F JUMPI JUMPDEST PUSH1 0xC0 SWAP2 POP ADD DUP1 MLOAD MLOAD PUSH2 0x20B7 JUMPI JUMPDEST POP MLOAD MLOAD SWAP1 JUMP JUMPDEST SWAP2 PUSH2 0x20C3 PUSH2 0x2029 PUSH2 0x1FDC JUMP JUMPDEST PUSH2 0x20CC DUP3 PUSH2 0x2A43 JUMP JUMPDEST PUSH1 0x0 JUMPDEST DUP4 MLOAD DUP1 MLOAD DUP3 LT ISZERO PUSH2 0x20FC JUMPI SWAP1 PUSH2 0x20F2 PUSH2 0x20EB DUP3 PUSH2 0x20F7 SWAP5 PUSH2 0x1F56 JUMP JUMPDEST MLOAD DUP6 PUSH2 0x290B JUMP JUMPDEST PUSH2 0x1F47 JUMP JUMPDEST PUSH2 0x20CF JUMP JUMPDEST POP POP SWAP2 POP PUSH2 0x2109 DUP2 PUSH2 0x2ACF JUMP JUMPDEST CODESIZE PUSH2 0x20B1 JUMP JUMPDEST PUSH1 0x20 DUP2 ADD DUP1 MLOAD PUSH2 0x211E DUP2 PUSH2 0x1E83 JUMP JUMPDEST PUSH2 0x2127 DUP2 PUSH2 0x1E83 JUMP JUMPDEST ISZERO PUSH2 0x217D JUMPI PUSH1 0xC0 SWAP3 PUSH2 0x2160 PUSH2 0x2178 SWAP3 PUSH2 0x2147 PUSH2 0x2141 PUSH2 0x1F6A JUMP JUMPDEST DUP9 PUSH2 0x29BE JUMP JUMPDEST MLOAD PUSH2 0x2151 DUP2 PUSH2 0x1E83 JUMP JUMPDEST PUSH2 0x215A DUP2 PUSH2 0x1E83 JUMP JUMPDEST DUP7 PUSH2 0x2334 JUMP JUMPDEST PUSH2 0x2171 PUSH2 0x216B PUSH2 0x1FA3 JUMP JUMPDEST DUP7 PUSH2 0x29BE JUMP JUMPDEST MLOAD DUP5 PUSH2 0x290B JUMP JUMPDEST PUSH2 0x20A4 JUMP JUMPDEST PUSH1 0x4 PUSH1 0x40 MLOAD PUSH32 0xA80D31F700000000000000000000000000000000000000000000000000000000 DUP2 MSTORE REVERT JUMPDEST SWAP3 PUSH2 0x21B9 PUSH2 0x21B3 PUSH2 0x1F0E JUMP JUMPDEST DUP5 PUSH2 0x29BE JUMP JUMPDEST PUSH2 0x21C2 DUP4 PUSH2 0x2A43 JUMP JUMPDEST PUSH1 0x0 JUMPDEST DUP5 MLOAD DUP1 MLOAD DUP3 LT ISZERO PUSH2 0x21ED JUMPI SWAP1 PUSH2 0x20F2 PUSH2 0x21E1 DUP3 PUSH2 0x21E8 SWAP5 PUSH2 0x1F56 JUMP JUMPDEST MLOAD DUP7 PUSH2 0x29BE JUMP JUMPDEST PUSH2 0x21C5 JUMP JUMPDEST POP POP SWAP3 POP PUSH2 0x21FA DUP3 PUSH2 0x2ACF JUMP JUMPDEST CODESIZE PUSH2 0x2096 JUMP JUMPDEST DUP2 MLOAD ISZERO PUSH2 0x2217 JUMPI PUSH1 0x0 DUP1 DUP3 MSTORE PUSH1 0x40 DUP3 ADD MSTORE PUSH1 0x60 ADD MSTORE JUMP JUMPDEST PUSH1 0x4 PUSH1 0x40 MLOAD PUSH32 0x22CE3EDD00000000000000000000000000000000000000000000000000000000 DUP2 MSTORE REVERT JUMPDEST DUP2 MLOAD ISZERO PUSH2 0x224E JUMPI PUSH1 0xA0 ADD MSTORE JUMP JUMPDEST PUSH1 0x4 PUSH1 0x40 MLOAD PUSH32 0xFE936CB700000000000000000000000000000000000000000000000000000000 DUP2 MSTORE REVERT JUMPDEST PUSH1 0x40 MLOAD SWAP1 PUSH2 0x2285 DUP3 PUSH2 0x2C1 JUMP JUMPDEST PUSH1 0x0 PUSH1 0x20 DUP4 PUSH1 0x60 DUP2 MSTORE ADD MSTORE JUMP JUMPDEST PUSH1 0x40 MLOAD PUSH2 0x229E DUP2 PUSH2 0x2C1 JUMP JUMPDEST PUSH2 0x22A6 PUSH2 0x2278 JUMP JUMPDEST DUP1 DUP3 MSTORE PUSH1 0x20 DUP3 ADD PUSH1 0x0 DUP2 MSTORE PUSH2 0x22B9 PUSH2 0x2278 JUMP JUMPDEST POP PUSH2 0x100 PUSH1 0x20 DUP4 ADD MSTORE PUSH1 0x40 MLOAD DUP1 SWAP3 MSTORE PUSH1 0x0 DUP3 MSTORE PUSH2 0x120 DUP3 ADD SWAP2 DUP3 LT PUSH2 0x247 JUMPI PUSH1 0x0 SWAP2 PUSH1 0x40 MSTORE MSTORE SWAP1 JUMP JUMPDEST SWAP1 PUSH2 0x22EB PUSH2 0x2278 JUMP JUMPDEST POP PUSH1 0x1F DUP2 AND DUP1 PUSH2 0x231A JUMPI JUMPDEST POP DUP1 PUSH1 0x20 DUP4 ADD MSTORE PUSH1 0x40 MLOAD SWAP1 DUP2 DUP4 MSTORE PUSH1 0x0 DUP3 MSTORE DUP2 ADD PUSH1 0x20 ADD SWAP1 DUP2 LT PUSH2 0x247 JUMPI PUSH1 0x40 MSTORE SWAP1 JUMP JUMPDEST PUSH1 0x20 SUB PUSH1 0x20 DUP2 GT PUSH2 0xF8B JUMPI DUP2 ADD DUP1 SWAP2 GT PUSH2 0xF8B JUMPI CODESIZE PUSH2 0x22F6 JUMP JUMPDEST SWAP1 DUP2 MLOAD SWAP2 PUSH2 0x2340 PUSH2 0x2278 JUMP JUMPDEST POP DUP3 MLOAD MLOAD PUSH1 0x1 DUP2 ADD SWAP1 DUP2 DUP2 GT PUSH2 0xF8B JUMPI PUSH1 0x20 DUP6 ADD MLOAD DUP2 LT ISZERO PUSH2 0x2399 JUMPI JUMPDEST PUSH1 0xC2 PUSH1 0x20 PUSH2 0x6DE SWAP7 MLOAD SWAP3 DUP4 ADD ADD MSTORE8 DUP1 MLOAD DUP3 GT PUSH2 0x2391 JUMPI JUMPDEST POP POP PUSH1 0x40 MLOAD SWAP2 PUSH1 0x20 DUP4 ADD MSTORE PUSH1 0x20 DUP3 MSTORE PUSH2 0x238C DUP3 PUSH2 0x2C1 JUMP JUMPDEST PUSH2 0x290B JUMP JUMPDEST MSTORE CODESIZE DUP1 PUSH2 0x2374 JUMP JUMPDEST DUP2 PUSH1 0x1 SHL SWAP5 DUP3 DUP7 DIV PUSH1 0x2 EQ DUP4 ISZERO OR ISZERO PUSH2 0xF8B JUMPI PUSH1 0x20 DUP2 PUSH2 0x23CB PUSH2 0x6DE SWAP9 PUSH2 0x23C4 PUSH1 0xC2 SWAP6 MLOAD SWAP2 DUP5 PUSH2 0x22E2 JUMP JUMPDEST POP DUP3 PUSH2 0x2853 JUMP JUMPDEST POP SWAP7 POP POP POP PUSH2 0x235D JUMP JUMPDEST SWAP1 DUP2 PUSH1 0x1 SHL SWAP2 DUP1 DUP4 DIV PUSH1 0x2 EQ SWAP1 ISZERO OR ISZERO PUSH2 0xF8B JUMPI JUMP JUMPDEST PUSH2 0x23F3 PUSH2 0x2278 JUMP JUMPDEST POP DUP1 MLOAD MLOAD PUSH1 0x1 DUP2 ADD SWAP1 DUP2 DUP2 GT PUSH2 0xF8B JUMPI PUSH1 0x20 DUP4 ADD MLOAD DUP2 LT ISZERO PUSH2 0x242C JUMPI JUMPDEST PUSH1 0x5B PUSH1 0x20 DUP5 MLOAD SWAP3 DUP4 ADD ADD MSTORE8 DUP1 MLOAD DUP3 GT PUSH2 0x2428 JUMPI POP POP SWAP1 JUMP JUMPDEST MSTORE SWAP1 JUMP JUMPDEST DUP2 PUSH1 0x1 SHL DUP3 DUP2 DIV PUSH1 0x2 EQ DUP4 ISZERO OR ISZERO PUSH2 0xF8B JUMPI PUSH2 0x2455 SWAP1 PUSH2 0x244E DUP6 MLOAD SWAP2 DUP7 PUSH2 0x22E2 JUMP JUMPDEST POP DUP5 PUSH2 0x2853 JUMP JUMPDEST POP PUSH2 0x2410 JUMP JUMPDEST PUSH2 0x2463 PUSH2 0x2278 JUMP JUMPDEST POP DUP1 MLOAD MLOAD PUSH1 0x1 DUP2 ADD SWAP1 DUP2 DUP2 GT PUSH2 0xF8B JUMPI PUSH1 0x20 DUP4 ADD MLOAD DUP2 LT ISZERO PUSH2 0x2498 JUMPI JUMPDEST PUSH1 0x5A PUSH1 0x20 DUP5 MLOAD SWAP3 DUP4 ADD ADD MSTORE8 DUP1 MLOAD DUP3 GT PUSH2 0x2428 JUMPI POP POP SWAP1 JUMP JUMPDEST DUP2 PUSH1 0x1 SHL DUP3 DUP2 DIV PUSH1 0x2 EQ DUP4 ISZERO OR ISZERO PUSH2 0xF8B JUMPI PUSH2 0x24BA SWAP1 PUSH2 0x244E DUP6 MLOAD SWAP2 DUP7 PUSH2 0x22E2 JUMP JUMPDEST POP PUSH2 0x2480 JUMP JUMPDEST PUSH2 0x24C8 PUSH2 0x2278 JUMP JUMPDEST POP DUP1 MLOAD MLOAD PUSH1 0x1 DUP2 ADD SWAP1 DUP2 DUP2 GT PUSH2 0xF8B JUMPI PUSH1 0x20 DUP4 ADD MLOAD DUP2 LT ISZERO PUSH2 0x24FD JUMPI JUMPDEST PUSH1 0x59 PUSH1 0x20 DUP5 MLOAD SWAP3 DUP4 ADD ADD MSTORE8 DUP1 MLOAD DUP3 GT PUSH2 0x2428 JUMPI POP POP SWAP1 JUMP JUMPDEST DUP2 PUSH1 0x1 SHL DUP3 DUP2 DIV PUSH1 0x2 EQ DUP4 ISZERO OR ISZERO PUSH2 0xF8B JUMPI PUSH2 0x251F SWAP1 PUSH2 0x244E DUP6 MLOAD SWAP2 DUP7 PUSH2 0x22E2 JUMP JUMPDEST POP PUSH2 0x24E5 JUMP JUMPDEST PUSH2 0x252D PUSH2 0x2278 JUMP JUMPDEST POP DUP1 MLOAD MLOAD PUSH1 0x1 DUP2 ADD SWAP1 DUP2 DUP2 GT PUSH2 0xF8B JUMPI PUSH1 0x20 DUP4 ADD MLOAD DUP2 LT ISZERO PUSH2 0x2562 JUMPI JUMPDEST PUSH1 0x58 PUSH1 0x20 DUP5 MLOAD SWAP3 DUP4 ADD ADD MSTORE8 DUP1 MLOAD DUP3 GT PUSH2 0x2428 JUMPI POP POP SWAP1 JUMP JUMPDEST DUP2 PUSH1 0x1 SHL DUP3 DUP2 DIV PUSH1 0x2 EQ DUP4 ISZERO OR ISZERO PUSH2 0xF8B JUMPI PUSH2 0x2584 SWAP1 PUSH2 0x244E DUP6 MLOAD SWAP2 DUP7 PUSH2 0x22E2 JUMP JUMPDEST POP PUSH2 0x254A JUMP JUMPDEST PUSH2 0x2592 PUSH2 0x2278 JUMP JUMPDEST POP DUP1 MLOAD MLOAD PUSH1 0x1 DUP2 ADD SWAP1 DUP2 DUP2 GT PUSH2 0xF8B JUMPI PUSH1 0x20 DUP4 ADD MLOAD DUP2 LT ISZERO PUSH2 0x25C7 JUMPI JUMPDEST PUSH1 0x7B PUSH1 0x20 DUP5 MLOAD SWAP3 DUP4 ADD ADD MSTORE8 DUP1 MLOAD DUP3 GT PUSH2 0x2428 JUMPI POP POP SWAP1 JUMP JUMPDEST DUP2 PUSH1 0x1 SHL DUP3 DUP2 DIV PUSH1 0x2 EQ DUP4 ISZERO OR ISZERO PUSH2 0xF8B JUMPI PUSH2 0x25E9 SWAP1 PUSH2 0x244E DUP6 MLOAD SWAP2 DUP7 PUSH2 0x22E2 JUMP JUMPDEST POP PUSH2 0x25AF JUMP JUMPDEST PUSH2 0x25F7 PUSH2 0x2278 JUMP JUMPDEST POP DUP1 MLOAD MLOAD PUSH1 0x1 DUP2 ADD SWAP1 DUP2 DUP2 GT PUSH2 0xF8B JUMPI PUSH1 0x20 DUP4 ADD MLOAD DUP2 LT ISZERO PUSH2 0x262C JUMPI JUMPDEST PUSH1 0x7A PUSH1 0x20 DUP5 MLOAD SWAP3 DUP4 ADD ADD MSTORE8 DUP1 MLOAD DUP3 GT PUSH2 0x2428 JUMPI POP POP SWAP1 JUMP JUMPDEST DUP2 PUSH1 0x1 SHL DUP3 DUP2 DIV PUSH1 0x2 EQ DUP4 ISZERO OR ISZERO PUSH2 0xF8B JUMPI PUSH2 0x264E SWAP1 PUSH2 0x244E DUP6 MLOAD SWAP2 DUP7 PUSH2 0x22E2 JUMP JUMPDEST POP PUSH2 0x2614 JUMP JUMPDEST PUSH2 0x265C PUSH2 0x2278 JUMP JUMPDEST POP DUP1 MLOAD MLOAD PUSH1 0x1 DUP2 ADD SWAP1 DUP2 DUP2 GT PUSH2 0xF8B JUMPI PUSH1 0x20 DUP4 ADD MLOAD DUP2 LT ISZERO PUSH2 0x2691 JUMPI JUMPDEST PUSH1 0x79 PUSH1 0x20 DUP5 MLOAD SWAP3 DUP4 ADD ADD MSTORE8 DUP1 MLOAD DUP3 GT PUSH2 0x2428 JUMPI POP POP SWAP1 JUMP JUMPDEST DUP2 PUSH1 0x1 SHL DUP3 DUP2 DIV PUSH1 0x2 EQ DUP4 ISZERO OR ISZERO PUSH2 0xF8B JUMPI PUSH2 0x26B3 SWAP1 PUSH2 0x244E DUP6 MLOAD SWAP2 DUP7 PUSH2 0x22E2 JUMP JUMPDEST POP PUSH2 0x2679 JUMP JUMPDEST PUSH2 0x26C1 PUSH2 0x2278 JUMP JUMPDEST POP DUP1 MLOAD MLOAD PUSH1 0x1 DUP2 ADD SWAP1 DUP2 DUP2 GT PUSH2 0xF8B JUMPI PUSH1 0x20 DUP4 ADD MLOAD DUP2 LT ISZERO PUSH2 0x26F6 JUMPI JUMPDEST PUSH1 0x78 PUSH1 0x20 DUP5 MLOAD SWAP3 DUP4 ADD ADD MSTORE8 DUP1 MLOAD DUP3 GT PUSH2 0x2428 JUMPI POP POP SWAP1 JUMP JUMPDEST DUP2 PUSH1 0x1 SHL DUP3 DUP2 DIV PUSH1 0x2 EQ DUP4 ISZERO OR ISZERO PUSH2 0xF8B JUMPI PUSH2 0x2718 SWAP1 PUSH2 0x244E DUP6 MLOAD SWAP2 DUP7 PUSH2 0x22E2 JUMP JUMPDEST POP PUSH2 0x26DE JUMP JUMPDEST SWAP1 PUSH2 0x2727 PUSH2 0x2278 JUMP JUMPDEST POP DUP2 MLOAD MLOAD PUSH1 0x1 DUP2 ADD SWAP2 DUP3 DUP3 GT PUSH2 0xF8B JUMPI PUSH1 0x20 DUP5 ADD MLOAD DUP3 LT ISZERO PUSH2 0x275A JUMPI JUMPDEST PUSH1 0x20 DUP5 MLOAD SWAP3 DUP4 ADD ADD MSTORE8 DUP1 MLOAD DUP3 GT PUSH2 0x2428 JUMPI POP POP SWAP1 JUMP JUMPDEST DUP3 PUSH1 0x1 SHL DUP4 DUP2 DIV PUSH1 0x2 EQ DUP5 ISZERO OR ISZERO PUSH2 0xF8B JUMPI PUSH2 0x2783 SWAP1 PUSH2 0x277C DUP7 MLOAD SWAP2 DUP8 PUSH2 0x22E2 JUMP JUMPDEST POP DUP6 PUSH2 0x2853 JUMP JUMPDEST POP PUSH2 0x2744 JUMP JUMPDEST SWAP1 PUSH2 0x2796 DUP3 MLOAD SWAP2 DUP4 PUSH2 0x22E2 JUMP JUMPDEST POP PUSH2 0x279F PUSH2 0x2278 JUMP JUMPDEST POP DUP1 MLOAD SWAP1 PUSH2 0x27AB PUSH2 0x2278 JUMP JUMPDEST POP PUSH2 0x27B9 DUP2 MLOAD DUP4 GT ISZERO PUSH2 0x2904 JUMP JUMPDEST DUP3 MLOAD MLOAD SWAP3 PUSH2 0x27C7 DUP4 DUP6 PUSH2 0x16B9 JUMP JUMPDEST SWAP2 PUSH1 0x20 SWAP3 DUP3 DUP5 DUP1 SWAP5 ADD MLOAD DUP3 GT PUSH2 0x283C JUMPI JUMPDEST MLOAD DUP4 DUP2 MLOAD SWAP8 DUP3 ADD ADD SWAP7 DUP3 GT PUSH2 0x2834 JUMPI JUMPDEST POP POP ADD SWAP2 JUMPDEST DUP2 DUP2 LT ISZERO PUSH2 0x280E JUMPI PUSH1 0x0 NOT SWAP2 SUB PUSH2 0x100 EXP ADD SWAP1 DUP2 NOT SWAP1 MLOAD AND SWAP1 DUP3 MLOAD AND OR SWAP1 MSTORE JUMP JUMPDEST SWAP2 SWAP3 PUSH2 0x2829 PUSH2 0x2823 PUSH2 0x282F SWAP3 DUP7 MLOAD DUP2 MSTORE PUSH2 0x16AB JUMP JUMPDEST SWAP5 PUSH2 0x16AB JUMP JUMPDEST SWAP3 PUSH2 0x160A JUMP JUMPDEST PUSH2 0x27ED JUMP JUMPDEST MSTORE CODESIZE DUP1 PUSH2 0x27E8 JUMP JUMPDEST PUSH2 0x284E PUSH2 0x2848 DUP4 PUSH2 0x23D5 JUMP JUMPDEST DUP3 PUSH2 0x2789 JUMP JUMPDEST PUSH2 0x27D8 JUMP JUMPDEST SWAP1 PUSH2 0x285C PUSH2 0x2278 JUMP JUMPDEST POP DUP1 MLOAD PUSH2 0x2867 PUSH2 0x2278 JUMP JUMPDEST POP PUSH2 0x2875 DUP3 MLOAD DUP3 GT ISZERO PUSH2 0x2904 JUMP JUMPDEST DUP3 MLOAD MLOAD SWAP2 PUSH2 0x2883 DUP3 DUP5 PUSH2 0x16B9 JUMP JUMPDEST PUSH1 0x20 SWAP2 DUP3 SWAP2 DUP3 DUP8 ADD MLOAD DUP2 GT PUSH2 0x28ED JUMPI JUMPDEST DUP7 MLOAD DUP4 DUP2 MLOAD SWAP8 DUP3 ADD ADD SWAP7 DUP3 GT PUSH2 0x28E5 JUMPI JUMPDEST POP POP ADD SWAP2 JUMPDEST DUP2 DUP2 LT ISZERO PUSH2 0x28CB JUMPI PUSH1 0x0 NOT SWAP2 SUB PUSH2 0x100 EXP ADD SWAP1 DUP2 NOT SWAP1 MLOAD AND SWAP1 DUP3 MLOAD AND OR SWAP1 MSTORE SWAP1 JUMP JUMPDEST SWAP2 SWAP3 PUSH2 0x2829 PUSH2 0x2823 PUSH2 0x28E0 SWAP3 DUP7 MLOAD DUP2 MSTORE PUSH2 0x16AB JUMP JUMPDEST PUSH2 0x28A9 JUMP JUMPDEST MSTORE CODESIZE DUP1 PUSH2 0x28A4 JUMP JUMPDEST PUSH2 0x28FF PUSH2 0x28F9 DUP3 PUSH2 0x23D5 JUMP JUMPDEST DUP9 PUSH2 0x2789 JUMP JUMPDEST PUSH2 0x2893 JUMP JUMPDEST ISZERO PUSH2 0x247 JUMPI JUMP JUMPDEST DUP2 MLOAD PUSH2 0x1D30 SWAP3 SWAP2 SWAP1 PUSH8 0xFFFFFFFFFFFFFFFF DUP2 AND SWAP1 PUSH1 0x17 DUP3 GT PUSH2 0x2943 JUMPI PUSH2 0x293B SWAP2 POP PUSH1 0x40 PUSH1 0xFF DUP5 MLOAD SWAP3 AND OR SWAP1 PUSH2 0x271E JUMP JUMPDEST POP JUMPDEST MLOAD PUSH2 0x2853 JUMP JUMPDEST POP PUSH1 0xFF DUP2 GT PUSH2 0x2968 JUMPI PUSH2 0x2962 SWAP1 PUSH2 0x295A DUP4 MLOAD PUSH2 0x2525 JUMP JUMPDEST POP DUP3 MLOAD PUSH2 0x2C99 JUMP JUMPDEST POP PUSH2 0x293D JUMP JUMPDEST PUSH2 0xFFFF DUP2 GT PUSH2 0x2987 JUMPI PUSH2 0x2962 SWAP1 PUSH2 0x297F DUP4 MLOAD PUSH2 0x24C0 JUMP JUMPDEST POP DUP3 MLOAD PUSH2 0x2C32 JUMP JUMPDEST PUSH4 0xFFFFFFFF DUP2 GT PUSH2 0x29A8 JUMPI PUSH2 0x2962 SWAP1 PUSH2 0x29A0 DUP4 MLOAD PUSH2 0x245B JUMP JUMPDEST POP DUP3 MLOAD PUSH2 0x2BC9 JUMP JUMPDEST PUSH2 0x2962 SWAP1 PUSH2 0x29B6 DUP4 MLOAD PUSH2 0x23EB JUMP JUMPDEST POP DUP3 MLOAD PUSH2 0x2B5C JUMP JUMPDEST DUP2 MLOAD PUSH2 0x1D30 SWAP3 SWAP2 SWAP1 PUSH8 0xFFFFFFFFFFFFFFFF DUP2 AND SWAP1 PUSH1 0x17 DUP3 GT PUSH2 0x29EE JUMPI PUSH2 0x293B SWAP2 POP PUSH1 0x60 PUSH1 0xFF DUP5 MLOAD SWAP3 AND OR SWAP1 PUSH2 0x271E JUMP JUMPDEST POP PUSH1 0xFF DUP2 GT PUSH2 0x2A05 JUMPI PUSH2 0x2962 SWAP1 PUSH2 0x295A DUP4 MLOAD PUSH2 0x26B9 JUMP JUMPDEST PUSH2 0xFFFF DUP2 GT PUSH2 0x2A1C JUMPI PUSH2 0x2962 SWAP1 PUSH2 0x297F DUP4 MLOAD PUSH2 0x2654 JUMP JUMPDEST PUSH4 0xFFFFFFFF DUP2 GT PUSH2 0x2A35 JUMPI PUSH2 0x2962 SWAP1 PUSH2 0x29A0 DUP4 MLOAD PUSH2 0x25EF JUMP JUMPDEST PUSH2 0x2962 SWAP1 PUSH2 0x29B6 DUP4 MLOAD PUSH2 0x258A JUMP JUMPDEST DUP1 MLOAD SWAP1 PUSH2 0x2A4E PUSH2 0x2278 JUMP JUMPDEST POP DUP2 MLOAD MLOAD PUSH1 0x1 DUP2 ADD SWAP1 DUP2 DUP2 GT PUSH2 0xF8B JUMPI PUSH1 0x20 DUP5 ADD MLOAD DUP2 LT ISZERO PUSH2 0x2A9C JUMPI JUMPDEST PUSH1 0x9F PUSH1 0x20 DUP1 SWAP6 MLOAD SWAP3 DUP4 ADD ADD MSTORE8 DUP1 MLOAD DUP3 GT PUSH2 0x2A94 JUMPI JUMPDEST POP POP ADD DUP1 MLOAD SWAP1 PUSH1 0x1 DUP3 ADD DUP1 SWAP3 GT PUSH2 0xF8B JUMPI MSTORE JUMP JUMPDEST MSTORE CODESIZE DUP1 PUSH2 0x2A80 JUMP JUMPDEST DUP2 PUSH1 0x1 SHL SWAP4 DUP3 DUP6 DIV PUSH1 0x2 EQ DUP4 ISZERO OR ISZERO PUSH2 0xF8B JUMPI PUSH1 0x20 DUP2 PUSH2 0x2AC5 DUP3 SWAP8 PUSH2 0x23C4 PUSH1 0x9F SWAP6 MLOAD SWAP2 DUP5 PUSH2 0x22E2 JUMP JUMPDEST POP SWAP6 POP POP POP PUSH2 0x2A6B JUMP JUMPDEST DUP1 MLOAD SWAP1 PUSH2 0x2ADA PUSH2 0x2278 JUMP JUMPDEST POP DUP2 MLOAD MLOAD PUSH1 0x1 DUP2 ADD SWAP1 DUP2 DUP2 GT PUSH2 0xF8B JUMPI PUSH1 0x20 DUP5 ADD MLOAD DUP2 LT ISZERO PUSH2 0x2B29 JUMPI JUMPDEST PUSH1 0xFF PUSH1 0x20 DUP1 SWAP6 MLOAD SWAP3 DUP4 ADD ADD MSTORE8 DUP1 MLOAD DUP3 GT PUSH2 0x2B21 JUMPI JUMPDEST POP POP ADD DUP1 MLOAD PUSH1 0x0 NOT DUP2 ADD SWAP2 SWAP1 DUP3 GT PUSH2 0xF8B JUMPI MSTORE JUMP JUMPDEST MSTORE CODESIZE DUP1 PUSH2 0x2B0C JUMP JUMPDEST DUP2 PUSH1 0x1 SHL SWAP4 DUP3 DUP6 DIV PUSH1 0x2 EQ DUP4 ISZERO OR ISZERO PUSH2 0xF8B JUMPI PUSH1 0x20 DUP2 PUSH2 0x2B52 DUP3 SWAP8 PUSH2 0x23C4 PUSH1 0xFF SWAP6 MLOAD SWAP2 DUP5 PUSH2 0x22E2 JUMP JUMPDEST POP SWAP6 POP POP POP PUSH2 0x2AF7 JUMP JUMPDEST SWAP1 PUSH2 0x2B65 PUSH2 0x2278 JUMP JUMPDEST POP DUP2 MLOAD MLOAD DUP1 PUSH1 0x8 ADD SWAP2 DUP3 PUSH1 0x8 GT PUSH2 0xF8B JUMPI PUSH1 0x20 DUP5 ADD MLOAD DUP4 GT PUSH2 0x2BA8 JUMPI JUMPDEST PUSH1 0x8 DUP5 MLOAD SWAP3 DUP4 ADD ADD SWAP1 PUSH8 0xFFFFFFFFFFFFFFFF NOT DUP3 MLOAD AND OR SWAP1 MSTORE DUP1 MLOAD DUP3 GT PUSH2 0x2428 JUMPI POP POP SWAP1 JUMP JUMPDEST DUP3 PUSH1 0x1 SHL DUP4 DUP2 DIV PUSH1 0x2 EQ DUP5 ISZERO OR ISZERO PUSH2 0xF8B JUMPI PUSH2 0x2BC4 SWAP1 DUP6 PUSH2 0x2789 JUMP JUMPDEST PUSH2 0x2B82 JUMP JUMPDEST SWAP1 PUSH2 0x2BD2 PUSH2 0x2278 JUMP JUMPDEST POP DUP2 MLOAD MLOAD DUP1 PUSH1 0x4 ADD SWAP2 DUP3 PUSH1 0x4 GT PUSH2 0xF8B JUMPI PUSH1 0x20 DUP5 ADD MLOAD DUP4 GT PUSH2 0x2C11 JUMPI JUMPDEST PUSH1 0x4 DUP5 MLOAD SWAP3 DUP4 ADD ADD SWAP1 PUSH4 0xFFFFFFFF NOT DUP3 MLOAD AND OR SWAP1 MSTORE DUP1 MLOAD DUP3 GT PUSH2 0x2428 JUMPI POP POP SWAP1 JUMP JUMPDEST DUP3 PUSH1 0x1 SHL DUP4 DUP2 DIV PUSH1 0x2 EQ DUP5 ISZERO OR ISZERO PUSH2 0xF8B JUMPI PUSH2 0x2C2D SWAP1 DUP6 PUSH2 0x2789 JUMP JUMPDEST PUSH2 0x2BEF JUMP JUMPDEST SWAP1 PUSH2 0x2C3B PUSH2 0x2278 JUMP JUMPDEST POP DUP2 MLOAD MLOAD DUP1 PUSH1 0x2 ADD SWAP2 DUP3 PUSH1 0x2 GT PUSH2 0xF8B JUMPI PUSH1 0x20 DUP5 ADD MLOAD DUP4 GT PUSH2 0x2C78 JUMPI JUMPDEST PUSH1 0x2 DUP5 MLOAD SWAP3 DUP4 ADD ADD SWAP1 PUSH2 0xFFFF NOT DUP3 MLOAD AND OR SWAP1 MSTORE DUP1 MLOAD DUP3 GT PUSH2 0x2428 JUMPI POP POP SWAP1 JUMP JUMPDEST DUP3 PUSH1 0x1 SHL DUP4 DUP2 DIV PUSH1 0x2 EQ DUP5 ISZERO OR ISZERO PUSH2 0xF8B JUMPI PUSH2 0x2C94 SWAP1 DUP6 PUSH2 0x2789 JUMP JUMPDEST PUSH2 0x2C58 JUMP JUMPDEST SWAP1 PUSH2 0x2CA2 PUSH2 0x2278 JUMP JUMPDEST POP DUP2 MLOAD MLOAD DUP1 PUSH1 0x1 ADD SWAP2 DUP3 PUSH1 0x1 GT PUSH2 0xF8B JUMPI PUSH1 0x20 DUP5 ADD MLOAD DUP4 GT PUSH2 0x2CDE JUMPI JUMPDEST PUSH1 0x1 DUP5 MLOAD SWAP3 DUP4 ADD ADD SWAP1 PUSH1 0xFF NOT DUP3 MLOAD AND OR SWAP1 MSTORE DUP1 MLOAD DUP3 GT PUSH2 0x2428 JUMPI POP POP SWAP1 JUMP JUMPDEST DUP3 PUSH1 0x1 SHL DUP4 DUP2 DIV PUSH1 0x2 EQ DUP5 ISZERO OR ISZERO PUSH2 0xF8B JUMPI PUSH2 0x2CFA SWAP1 DUP6 PUSH2 0x2789 JUMP JUMPDEST PUSH2 0x2CBF JUMP JUMPDEST SWAP1 DUP2 MLOAD PUSH8 0xFFFFFFFFFFFFFFFF DUP2 GT PUSH2 0x2BC JUMPI PUSH2 0x2D25 DUP2 PUSH2 0x2D20 PUSH1 0x5 SLOAD PUSH2 0x669 JUMP JUMPDEST PUSH2 0x1564 JUMP JUMPDEST PUSH1 0x20 DUP1 PUSH1 0x1F DUP4 GT PUSH1 0x1 EQ PUSH2 0x2D61 JUMPI POP DUP2 SWAP3 SWAP4 PUSH1 0x0 SWAP3 PUSH2 0x2D56 JUMPI JUMPDEST POP POP DUP2 PUSH1 0x1 SHL SWAP2 PUSH1 0x0 NOT SWAP1 PUSH1 0x3 SHL SHR NOT AND OR PUSH1 0x5 SSTORE JUMP JUMPDEST ADD MLOAD SWAP1 POP CODESIZE DUP1 PUSH2 0x2D3F JUMP JUMPDEST SWAP1 PUSH1 0x1F NOT DUP4 AND SWAP5 PUSH2 0x2D94 PUSH1 0x5 PUSH1 0x0 MSTORE PUSH32 0x36B6384B5ECA791C62761152D0C79BB0604C104A5FB6F4EB0703F3154BB3DB0 SWAP1 JUMP JUMPDEST SWAP3 PUSH1 0x0 SWAP1 JUMPDEST DUP8 DUP3 LT PUSH2 0x2DD1 JUMPI POP POP DUP4 PUSH1 0x1 SWAP6 SWAP7 LT PUSH2 0x2DB8 JUMPI JUMPDEST POP POP POP DUP2 SHL ADD PUSH1 0x5 SSTORE JUMP JUMPDEST ADD MLOAD PUSH1 0x0 NOT PUSH1 0xF8 DUP5 PUSH1 0x3 SHL AND SHR NOT AND SWAP1 SSTORE CODESIZE DUP1 DUP1 PUSH2 0x2DAD JUMP JUMPDEST DUP1 PUSH1 0x1 DUP6 SWAP7 DUP3 SWAP5 SWAP7 DUP7 ADD MLOAD DUP2 SSTORE ADD SWAP6 ADD SWAP4 ADD SWAP1 PUSH2 0x2D99 JUMP JUMPDEST PUSH1 0x20 DUP2 MLOAD SWAP2 ADD MLOAD SWAP1 PUSH1 0x20 DUP2 LT PUSH2 0x2DFD JUMPI POP SWAP1 JUMP JUMPDEST PUSH1 0x0 NOT SWAP1 PUSH1 0x20 SUB PUSH1 0x3 SHL SHL AND SWAP1 JUMP JUMPDEST PUSH1 0x1C SLOAD PUSH9 0x10000000000000000 DUP2 LT ISZERO PUSH2 0x2BC JUMPI PUSH2 0x2E31 PUSH1 0x1 SWAP2 DUP3 DUP2 ADD PUSH1 0x1C SSTORE PUSH2 0x617 JUMP JUMPDEST SWAP3 SWAP1 SWAP3 PUSH2 0x2F04 JUMPI DUP1 MLOAD SWAP1 PUSH8 0xFFFFFFFFFFFFFFFF DUP3 GT PUSH2 0x2BC JUMPI PUSH2 0x2E5E DUP3 PUSH2 0x2E58 DUP7 SLOAD PUSH2 0x669 JUMP JUMPDEST DUP7 PUSH2 0x15BA JUMP JUMPDEST PUSH1 0x20 SWAP1 DUP2 PUSH1 0x1F DUP5 GT PUSH1 0x1 EQ PUSH2 0x2E9A JUMPI POP SWAP3 DUP3 SWAP4 SWAP2 DUP4 SWAP3 PUSH1 0x0 SWAP5 PUSH2 0x2E8F JUMPI JUMPDEST POP POP SHL SWAP2 PUSH1 0x0 NOT SWAP1 PUSH1 0x3 SHL SHR NOT AND OR SWAP1 SSTORE JUMP JUMPDEST ADD MLOAD SWAP3 POP CODESIZE DUP1 PUSH2 0x2E7C JUMP JUMPDEST SWAP2 SWAP1 DUP4 PUSH1 0x1F NOT DUP2 AND PUSH2 0x2EB1 DUP9 PUSH1 0x0 MSTORE PUSH1 0x20 PUSH1 0x0 KECCAK256 SWAP1 JUMP JUMPDEST SWAP5 PUSH1 0x0 SWAP1 JUMPDEST DUP9 DUP4 DUP4 LT PUSH2 0x2EEA JUMPI POP POP POP LT PUSH2 0x2ED1 JUMPI JUMPDEST POP POP POP DUP2 SHL ADD SWAP1 SSTORE JUMP JUMPDEST ADD MLOAD PUSH1 0x0 NOT PUSH1 0xF8 DUP5 PUSH1 0x3 SHL AND SHR NOT AND SWAP1 SSTORE CODESIZE DUP1 DUP1 PUSH2 0x2EC7 JUMP JUMPDEST DUP6 DUP8 ADD MLOAD DUP9 SSTORE SWAP1 SWAP7 ADD SWAP6 SWAP5 DUP6 ADD SWAP5 DUP8 SWAP4 POP SWAP1 DUP2 ADD SWAP1 PUSH2 0x2EB6 JUMP JUMPDEST PUSH2 0x653 JUMP JUMPDEST SWAP1 SWAP2 PUSH2 0x2F20 PUSH2 0x879 SWAP4 PUSH1 0x40 DUP5 MSTORE PUSH1 0x40 DUP5 ADD SWAP1 PUSH2 0x828 JUMP JUMPDEST SWAP2 PUSH1 0x20 DUP2 DUP5 SUB SWAP2 ADD MSTORE PUSH2 0x828 JUMP JUMPDEST ISZERO PUSH2 0x2F35 JUMPI JUMP JUMPDEST PUSH1 0x64 PUSH1 0x40 MLOAD PUSH3 0x461BCD PUSH1 0xE5 SHL DUP2 MSTORE PUSH1 0x20 PUSH1 0x4 DUP3 ADD MSTORE PUSH1 0x1B PUSH1 0x24 DUP3 ADD MSTORE PUSH32 0x4572726F20616F207061676172206120696E64656E697A6163616F0000000000 PUSH1 0x44 DUP3 ADD MSTORE REVERT JUMPDEST PUSH1 0x1E SLOAD PUSH1 0x1A SLOAD GT ISZERO PUSH2 0x2FB7 JUMPI PUSH2 0x6DE PUSH1 0x0 DUP1 DUP1 DUP1 PUSH2 0x2FA5 PUSH2 0xBB9 PUSH2 0xBB9 PUSH1 0x17 SLOAD PUSH1 0x1 PUSH1 0x1 PUSH1 0xA0 SHL SUB AND SWAP1 JUMP JUMPDEST SELFBALANCE SWAP1 GAS CALL PUSH2 0x2FB1 PUSH2 0x18C6 JUMP JUMPDEST POP PUSH2 0x2F2E JUMP JUMPDEST PUSH1 0x0 DUP1 DUP1 DUP1 PUSH1 0x1 PUSH1 0x1 PUSH1 0xA0 SHL SUB PUSH1 0x16 SLOAD AND SELFBALANCE SWAP1 GAS CALL PUSH2 0x2FD4 PUSH2 0x18C6 JUMP JUMPDEST POP ISZERO PUSH2 0x2FDC JUMPI JUMP JUMPDEST PUSH1 0x84 PUSH1 0x40 MLOAD PUSH3 0x461BCD PUSH1 0xE5 SHL DUP2 MSTORE PUSH1 0x20 PUSH1 0x4 DUP3 ADD MSTORE PUSH1 0x2D PUSH1 0x24 DUP3 ADD MSTORE PUSH32 0x4572726F20616F207265746F726E6172206F732066756E646F73207061726120 PUSH1 0x44 DUP3 ADD MSTORE PUSH32 0x6120696E73746974756963616F00000000000000000000000000000000000000 PUSH1 0x64 DUP3 ADD MSTORE REVERT INVALID LOG2 PUSH5 0x6970667358 0x22 SLT KECCAK256 STOP 0xCC CALLDATACOPY 0xC7 REVERT DUP1 0xC4 BASEFEE 0xB4 EXTCODESIZE 0xF 0xA6 0x2C 0xB6 0xF7 DUP6 0x2C SHR DUP3 DELEGATECALL BYTE GASPRICE DUP3 SHR SAR PUSH32 0x911C055C582564736F6C63430008130033000000000000000000000000000000 "},"methodIdentifiers":{"acceptOwnership()":"79ba5097","checkUpkeep(bytes)":"6e04ff0d","contractBalance()":"8b7afe2e","donID()":"6e74336b","farmer()":"d811fcf0","fulfillGasLimit()":"24b93e3e","gasLimit()":"f68016b7","handleOracleFulfillment(bytes32,bytes,bytes)":"0ca76175","i_upkeep()":"303b137c","institution()":"d1384eb6","lastUpkeepTimeStamp()":"089ea02e","latestError()":"fffeb84e","latestRequestId()":"1aa46f59","latestResponse()":"bef3a2f0","owner()":"8da5cb5b","performUpkeep(bytes)":"4585e33b","registry()":"7b103999","request()":"338cdca1","requestCBOR()":"688ecfd1","responseCounter()":"381fc4b5","s_lastError()":"4b0795a8","s_lastRequestId()":"b1e21749","s_lastResponse()":"3944ea3a","s_requestCounter()":"48802b92","s_responseCounter()":"43cd3d86","s_upkeepCounter()":"f5c1279b","sampleMaxSize()":"ebf14a55","sampleStorage(uint256)":"277e2213","setRequest(bytes,uint64,uint32,bytes32,uint256)":"472cbbb0","subscriptionId()":"09c1ba2e","transferOwnership(address)":"f2fde38b","updateInterval()":"fd2c80ae","upkeepContract()":"5e0611f1","upkeepCounter()":"a3d3c0d2"}}}}}