{"contracts/Institution.sol":{"Institution":{"abi":[{"inputs":[{"internalType":"address","name":"_owner","type":"address"},{"internalType":"string","name":"_institutionName","type":"string"}],"stateMutability":"nonpayable","type":"constructor"},{"inputs":[],"name":"NotOwner","type":"error"},{"anonymous":false,"inputs":[{"indexed":false,"internalType":"address","name":"insuranceContractAddress","type":"address"}],"name":"InsuranceContractCreated","type":"event"},{"inputs":[{"internalType":"address","name":"_farmerAddr","type":"address"}],"name":"blacklistAddr","outputs":[],"stateMutability":"nonpayable","type":"function"},{"inputs":[],"name":"contractBalance","outputs":[{"internalType":"uint256","name":"","type":"uint256"}],"stateMutability":"view","type":"function"},{"inputs":[{"internalType":"address","name":"","type":"address"},{"internalType":"uint256","name":"","type":"uint256"}],"name":"contracts","outputs":[{"internalType":"contract AutomatedFunctionsConsumer","name":"","type":"address"}],"stateMutability":"view","type":"function"},{"inputs":[{"internalType":"address","name":"_deployer","type":"address"},{"internalType":"address","name":"_farmer","type":"address"},{"internalType":"uint256","name":"_humidityLimit","type":"uint256"},{"internalType":"uint256","name":"_sampleMaxSize","type":"uint256"},{"internalType":"uint256","name":"_reparationValue","type":"uint256"},{"internalType":"uint256","name":"_updateInterval","type":"uint256"},{"internalType":"address","name":"router","type":"address"},{"internalType":"uint64","name":"_subscriptionId","type":"uint64"},{"internalType":"address","name":"_registry","type":"address"},{"internalType":"address","name":"_sepoliaLINKAddress","type":"address"},{"internalType":"address","name":"_sepoliaRegistrarAddress","type":"address"},{"internalType":"uint32","name":"_fulfillGasLimit","type":"uint32"},{"internalType":"bytes32","name":"_donID","type":"bytes32"},{"internalType":"bytes","name":"_requestCBOR","type":"bytes"},{"internalType":"string","name":"_computationJS","type":"string"}],"name":"createInsuranceContract","outputs":[],"stateMutability":"nonpayable","type":"function"},{"inputs":[{"internalType":"address","name":"_farmerAddress","type":"address"}],"name":"getAllInsuranceContracts","outputs":[{"internalType":"contract AutomatedFunctionsConsumer[]","name":"","type":"address[]"}],"stateMutability":"view","type":"function"},{"inputs":[],"name":"im_owner","outputs":[{"internalType":"address","name":"","type":"address"}],"stateMutability":"view","type":"function"},{"inputs":[{"internalType":"string","name":"","type":"string"}],"name":"info","outputs":[{"internalType":"string","name":"","type":"string"}],"stateMutability":"view","type":"function"},{"inputs":[{"internalType":"uint256","name":"","type":"uint256"}],"name":"infoKeys","outputs":[{"internalType":"string","name":"","type":"string"}],"stateMutability":"view","type":"function"},{"inputs":[],"name":"institutionName","outputs":[{"internalType":"string","name":"","type":"string"}],"stateMutability":"view","type":"function"},{"inputs":[{"internalType":"string[2][]","name":"infoArray","type":"string[2][]"}],"name":"registerInfo","outputs":[],"stateMutability":"nonpayable","type":"function"},{"inputs":[{"internalType":"address","name":"","type":"address"}],"name":"whitelist","outputs":[{"internalType":"bool","name":"","type":"bool"}],"stateMutability":"view","type":"function"},{"inputs":[{"internalType":"address","name":"_farmerAddr","type":"address"}],"name":"whitelistAddr","outputs":[],"stateMutability":"nonpayable","type":"function"},{"inputs":[],"name":"withdraw","outputs":[],"stateMutability":"nonpayable","type":"function"},{"stateMutability":"payable","type":"receive"}],"evm":{"bytecode":{"linkReferences":{},"object":"60a0604052346200024857620055c2803803806200001d816200024d565b928339810190604081830312620002485780516001600160a01b038116810362000248576020828101516001600160401b039391929184821162000248570193601f91818387011215620002485785518581116200021d57601f19966200008a828601891687016200024d565b938285528683830101116200024857859060005b838110620002335750506000918401015260805280519384116200021d57600054926001938481811c9116801562000212575b82821014620001fc57838111620001b1575b5080928511600114620001475750839450908392916000946200013b575b50501b916000199060031b1c1916176000555b60405161534e90816200027482396080518181816101bf015281816106b501526109610152f35b01519250388062000101565b9294849081166000805284600020946000905b888383106200019657505050106200017c575b505050811b0160005562000114565b015160001960f88460031b161c191690553880806200016d565b8587015188559096019594850194879350908101906200015a565b60008052816000208480880160051c820192848910620001f2575b0160051c019085905b828110620001e5575050620000e3565b60008155018590620001d5565b92508192620001cc565b634e487b7160e01b600052602260045260246000fd5b90607f1690620000d1565b634e487b7160e01b600052604160045260246000fd5b8181018301518682018401528792016200009e565b600080fd5b6040519190601f01601f191682016001600160401b038111838210176200021d5760405256fe608060405260043610156200001d575b36156200001b57600080fd5b005b60003560e01c8063080a57f91462000be357806317fab0a01462000b025780633a133e2c1462000a135780633ccfd60b14620009445780633f0f912d14620008875780638a699f0014620008495780638b7afe2e146200082b57806390f6d378146200071c5780639b19251a14620006d9578063af6081de1462000693578063dc7a136514620003f0578063dfb50e6414620001245763ed23f8c3036200000f57346200011f5760403660031901126200011f57620000db62000c24565b602435906001600160a01b038091166000526004602052604060002080548310156200011f576020926200010f9162000daf565b9190546040519260031b1c168152f35b600080fd5b346200011f5760203660031901126200011f5767ffffffffffffffff600435116200011f573660236004350112156200011f576004356004013567ffffffffffffffff8111620003da578060051b906040519062000186602084018362000c3b565b8152602081016024923684826004350101116200011f578360043501915b84826004350101831062000303575050506001600160a01b037f0000000000000000000000000000000000000000000000000000000000000000163303620002d95760005b81518110156200001b5762000240602062000205838562000dc8565b5101516200023060206200021a858762000dc8565b5151816040519382858094519384920162000cd8565b8101600281520301902062000ddd565b6200024c818362000dc8565b51516001805468010000000000000000811015620002c4578162000274928201905562000d61565b919091620002af57620002879162000ddd565b60001981146200029a57600101620001e9565b82634e487b7160e01b60005260116004526000fd5b84634e487b7160e01b60005260006004526000fd5b85634e487b7160e01b60005260416004526000fd5b60046040517f30cd7471000000000000000000000000000000000000000000000000000000008152fd5b823567ffffffffffffffff81116200011f5736604382600435010112156200011f57604051906040820182811067ffffffffffffffff821117620003c557604052600435810160640190823683116200011f5790889493929185826004350101905b838210620003835750505090825250602093840193019050620001a4565b9091929394955067ffffffffffffffff8235116200011f5760208091620003b4368d86358860043501010162000cb7565b815201910189959493929162000365565b87634e487b7160e01b60005260416004526000fd5b634e487b7160e01b600052604160045260246000fd5b346200011f576101e0806003193601126200011f576200040f62000c24565b90602435916001600160a01b03918284168094036200011f5760c435918383168093036200011f5760e4359067ffffffffffffffff8083168093036200011f5761010435938685168095036200011f5761012435948786168096036200011f5761014435918883168093036200011f57610164359063ffffffff82168092036200011f576101a4358581116200011f57366023820112156200011f57620004c190369060248160040135910162000c7b565b916101c4358681116200011f57620004de90369060040162000cb7565b948c600052600360205260ff604060002054161562000629576040519961441b95868c01988c8a10908a1117620003da578b9a8f8f6200059a9c6200058a9a8f62000efe9039168b5260208b015260443560408b015260643560608b01526084359d8e60808c015260a43560a08c015260c08b015260e08a015261010089015261012088015261014087015261016086015261018435610180860152806101a086015284019062000d3a565b916101c081840391015262000d3a565b0391f09182156200061d57600052600460205260406000209081549268010000000000000000841015620003da5781620005fe8560209560017fa155a575082ecf596e5a22a44834be92670605d1d0832000305888ba02a462d99801815562000daf565b939092169282549060031b9184831b921b1916179055604051908152a1005b6040513d6000823e3d90fd5b608460405162461bcd60e51b815260206004820152602160248201527f456e64657265636f206e616f2065737461206e61206c69737461206272616e6360448201527f61000000000000000000000000000000000000000000000000000000000000006064820152fd5b346200011f5760003660031901126200011f5760206040516001600160a01b037f0000000000000000000000000000000000000000000000000000000000000000168152f35b346200011f5760203660031901126200011f576001600160a01b03620006fe62000c24565b166000526003602052602060ff604060002054166040519015158152f35b346200011f576020806003193601126200011f576004359060019182548110156200011f576200074c9062000d61565b62000815576040518093600090835493620007678562000cfd565b94858552868382169182600014620007f1575050600114620007ae575b5050620007949250038362000c3b565b620007aa60405192828493845283019062000d3a565b0390f35b85925060005281600020906000915b858310620007d8575050620007949350820101858062000784565b80548389018501528794508693909201918101620007bd565b92509350506200079494915060ff191682840152151560051b820101858062000784565b634e487b7160e01b600052600060045260246000fd5b346200011f5760003660031901126200011f57602047604051908152f35b346200011f5760203660031901126200011f576001600160a01b036200086e62000c24565b166000908152600360205260409020805460ff19169055005b346200011f576020806003193601126200011f576001600160a01b039081620008af62000c24565b1660005260048152604060002060405191828183549182815201908193600052826000209060005b8181106200092d5750505083620008f091038462000c3b565b60405192818401908285525180915260408401929160005b828110620009165785850386f35b835187168552938101939281019260010162000908565b8254881684529284019260019283019201620008d7565b346200011f5760003660031901126200011f576001600160a01b037f000000000000000000000000000000000000000000000000000000000000000016803303620002d95760008080809347905af13d1562000a0d573d620009a68162000c5e565b90620009b6604051928362000c3b565b8152600060203d92013e5b15620009c957005b606460405162461bcd60e51b815260206004820152601060248201527f5769746864726177206661696c65642e000000000000000000000000000000006044820152fd5b620009c1565b346200011f5760003660031901126200011f576040516000805462000a388162000cfd565b8084529060019081811690811562000ad9575060011462000a7c575b620007aa8462000a678186038262000c3b565b60405191829160208352602083019062000d3a565b600080805292507f290decd9548b62a8d60345a988386fc84ba6bc95484008f6362f93160ef3e5635b82841062000ac057505050810160200162000a678262000a54565b8054602085870181019190915290930192810162000aa5565b60ff191660208087019190915292151560051b8501909201925062000a67915083905062000a54565b346200011f576020806003193601126200011f5760043567ffffffffffffffff81116200011f578162000b3e62000b5292369060040162000cb7565b816040519382858094519384920162000cd8565b810160028152030190209060405191826000825462000b718162000cfd565b93848452600191868382169182600014620007f157505060011462000ba0575050620007949250038362000c3b565b85925060005281600020906000915b85831062000bca575050620007949350820101858062000784565b8054838901850152879450869390920191810162000baf565b346200011f5760203660031901126200011f576001600160a01b0362000c0862000c24565b166000908152600360205260409020805460ff19166001179055005b600435906001600160a01b03821682036200011f57565b90601f8019910116810190811067ffffffffffffffff821117620003da57604052565b67ffffffffffffffff8111620003da57601f01601f191660200190565b92919262000c898262000c5e565b9162000c99604051938462000c3b565b8294818452818301116200011f578281602093846000960137010152565b9080601f830112156200011f5781602062000cd59335910162000c7b565b90565b60005b83811062000cec5750506000910152565b818101518382015260200162000cdb565b90600182811c9216801562000d2f575b602083101462000d1957565b634e487b7160e01b600052602260045260246000fd5b91607f169162000d0d565b9060209162000d558151809281855285808601910162000cd8565b601f01601f1916010190565b60015481101562000d995760016000527fb10e2d527612073b26eecdfd717e6a320cf44b4afac2b0732d9fcbe2b7fa0cf60190600090565b634e487b7160e01b600052603260045260246000fd5b805482101562000d995760005260206000200190600090565b805182101562000d995760209160051b010190565b919091825167ffffffffffffffff8111620003da5762000dfe825462000cfd565b601f811162000eb0575b50602080601f831160011462000e4857508192939460009262000e3c575b50508160011b916000199060031b1c1916179055565b01519050388062000e26565b90601f198316958460005282600020926000905b88821062000e975750508360019596971062000e7d575b505050811b019055565b015160001960f88460031b161c1916905538808062000e73565b8060018596829496860151815501950193019062000e5c565b600083815260208120601f840160051c8101926020851062000ef2575b601f0160051c01915b82811062000ee657505062000e08565b81815560010162000ed6565b909250829062000ecd56fe60c06040526200441b80380390816200001881620004e2565b9182396101e0818381010312620004dd57620000348162000508565b90620000436020820162000508565b91604082015190606083015190608084015160a0850151916200006960c0870162000508565b60e0870151909790936001600160401b0385168503620004dd5762000092610100890162000508565b93620000a26101208a0162000508565b96620000b26101408b0162000508565b986101608b01519463ffffffff86168603620004dd576101808c01516101a08d0151909c906001600160401b038111620004dd578f8201601f828401011215620004dd578f906200011091830190602081850151918501016200051d565b6101c0820151909f906001600160401b038111620004dd57820190808301601f83011215620004dd576200014c9201906020815191016200051d565b6001600160a01b039d8e166080529c8716156200049857600080546001600160a01b03199081166001600160a01b03998a1690811790925560028054821690921790915560188054610100600160a81b031916600893841b610100600160a81b0316179055601a92909255601b92909255601992909255919091556007805494841660a0526001600160601b03199094166001600160401b039586161760409290921b6bffffffff0000000000000000169190911790925560098054831694821694909417909355600a80549091169390921692909217905542601055600f919091558251908111620003d6576003906200024882546200057d565b601f811162000462575b506020601f8211600114620003f85781929394600092620003ec575b50508160011b9160001990841b1c19161781555b8151906001600160401b038211620003d657620002a1601d546200057d565b601f811162000388575b506020601f83116001146200030e57829360009362000302575b50508260011b92600019911b1c191617601d555b604051613e279081620005d482396080518181816104750152611fc7015260a051816111d00152f35b015191503880620002c5565b601d6000908152600080516020620043fb833981519152929190601f198516905b8181106200036f575094846001961062000354575b50505050811b01601d55620002d9565b01519060f884600019921b161c191690553880808062000344565b9193602060018192878a0151815501950192016200032f565b601d600052620003c490600080516020620043fb833981519152601f850160051c81019160208610620003cb575b601f0160051c0190620005ba565b38620002ab565b9091508190620003b6565b634e487b7160e01b600052604160045260246000fd5b0151905038806200026e565b601f198216908360005260206000209160005b818110620004495750958360019596971062000430575b505050811b01815562000282565b015160001983861b60f8161c1916905538808062000422565b9192602060018192868b0151815501940192016200040b565b6200049190836000526020600020601f840160051c81019160208510620003cb57601f0160051c0190620005ba565b3862000252565b60405162461bcd60e51b815260206004820152601860248201527f43616e6e6f7420736574206f776e657220746f207a65726f00000000000000006044820152606490fd5b600080fd5b6040519190601f01601f191682016001600160401b03811183821017620003d657604052565b51906001600160a01b0382168203620004dd57565b919291906001600160401b038111620003d65760209162000547601f8301601f19168401620004e2565b9482865282820111620004dd5760005b8281106200056b5750509060009184010152565b81810151868201850152830162000557565b90600182811c92168015620005af575b60208310146200059957565b634e487b7160e01b600052602260045260246000fd5b91607f16916200058d565b818110620005c6575050565b60008155600101620005ba56fe608060405260043610156200001d575b36156200001b57600080fd5b005b60003560e01c8063089ea02e14620002da57806309c1ba2e14620002d45780630ca7617514620002ce5780631243bcc314620002c85780631aa46f5914620002c257806324b93e3e14620002bc578063277e221314620002b65780632fc2a7b914620002b0578063338cdca114620002aa578063381fc4b514620002a45780633944ea3a146200029e5780633f678e11146200029857806343cd3d8614620002925780634585e33b146200028c57806348802b92146200028657806348bd6f0514620002805780634b0795a8146200027a578063688ecfd114620002745780636baa48fe146200026e5780636e04ff0d14620002685780636e74336b146200026257806379ba5097146200025c5780637b10399914620002565780638b7afe2e14620002505780638d7e6d2d146200024a5780638da5cb5b1462000244578063a3097139146200023e578063a3d3c0d21462000238578063b1e217491462000232578063bef3a2f0146200022c578063c5e146881462000226578063d2aa789f1462000220578063d5f39488146200021a578063d811fcf01462000214578063ebf14a55146200020e578063f2fde38b1462000208578063f68016b71462000202578063fd2c80ae14620001fc5763fffeb84e036200000f576200188c565b6200186c565b62001846565b6200176d565b62001721565b620016f5565b620016cc565b620016ac565b62001602565b6200154d565b6200152d565b6200150d565b620014ed565b620014c4565b62001248565b620011f4565b620011ae565b620010ca565b620010aa565b6200102c565b62001003565b62000f4e565b62000e99565b62000e79565b62000e59565b62000dbe565b62000d4f565b62000c19565b62000b64565b62000b44565b62000a51565b62000a28565b620009b8565b62000716565b620006f6565b620006cd565b62000416565b62000311565b620002f1565b6000910312620002ec57565b600080fd5b34620002ec576000366003190112620002ec576020601054604051908152f35b34620002ec576000366003190112620002ec57602067ffffffffffffffff60075416604051908152f35b634e487b7160e01b600052604160045260246000fd5b67ffffffffffffffff81116200036657604052565b6200033b565b6040810190811067ffffffffffffffff8211176200036657604052565b90601f8019910116810190811067ffffffffffffffff8211176200036657604052565b67ffffffffffffffff81116200036657601f01601f191660200190565b81601f82011215620002ec57803590620003e382620003ac565b92620003f3604051948562000389565b82845260208383010111620002ec57816000926020809301838601378301015290565b34620002ec576060366003190112620002ec5760043567ffffffffffffffff602435818111620002ec5762000450903690600401620003c9565b604435828111620002ec576200046b903690600401620003c9565b6001600160a01b037f0000000000000000000000000000000000000000000000000000000000000000163303620006a357815192831162000366578391620004c084620004ba600554620007a9565b62003213565b60209384601f8211600114620005f35750807f7bab0ec163b5c132c72b8146ac4d6e067e82ed58f8b131150aa71c92589115629495600091620005e7575b508160011b916000199060031b1c1916176005555b6200051e8262003311565b620005346200052f60125462001c3d565b601255565b60ff6200054360185460ff1690565b16620005c35762000554816200342c565b7f600739f161e06a7cdf9a4d034647e5c55e40454d12eb86768deb9f55b1644cdb60405180620005858482620009a2565b0390a162000599604051928392836200353b565b0390a27f85e1543bf2f84fe80c6badbce3648c8539ad1df4d2b3d822938ca0538be727e6600080a2005b620005d7620005d28262003408565b601e55565b620005e1620035b0565b62000554565b905082015138620004fe565b600560005294601f1982167f036b6384b5eca791c62761152d0c79bb0604c104a5fb6f4eb0703f3154bb3db0966000905b828210620006865750509582916001937f7bab0ec163b5c132c72b8146ac4d6e067e82ed58f8b131150aa71c92589115629798106200066c575b5050811b0160055562000513565b84015160001960f88460031b161c1916905538806200065e565b858401518955600190980197899750928301929081019062000624565b60046040517fc6829f83000000000000000000000000000000000000000000000000000000008152fd5b34620002ec576000366003190112620002ec5760206001600160a01b0360095416604051908152f35b34620002ec576000366003190112620002ec576020600454604051908152f35b34620002ec576000366003190112620002ec57602060075463ffffffff6040519160401c168152f35b634e487b7160e01b600052603260045260246000fd5b601c548110156200078d57601c6000527f0e4562a10381dec21b205ed72637e6b1b523bdd0e4d4d50af5cd23dd4500a2110190600090565b6200073f565b634e487b7160e01b600052600060045260246000fd5b90600182811c92168015620007db575b6020831014620007c557565b634e487b7160e01b600052602260045260246000fd5b91607f1691620007b9565b60405190600082601d5491620007fc83620007a9565b808352926001908181169081156200088c575060011462000829575b50620008279250038362000389565b565b601d600090815291507f6d4407e7be21f808e6509aa9fa9143369579dd7d760fe20a2c09680fc146134f5b8483106200087057506200082793505081016020013862000818565b81935090816020925483858a0101520191019091859262000854565b9050602092506200082794915060ff191682840152151560051b8201013862000818565b9060405191826000825492620008c684620007a9565b9081845260019485811690816000146200093b5750600114620008f4575b5050620008279250038362000389565b9093915060005260209081600020936000915b818310620009225750506200082793508201013880620008e4565b8554888401850152948501948794509183019162000907565b9150506200082794506020925060ff191682840152151560051b8201013880620008e4565b919082519283825260005b8481106200098d575050826000602080949584010152601f8019910116010190565b6020818301810151848301820152016200096b565b906020620009b592818152019062000960565b90565b34620002ec576020366003190112620002ec57600435601c54811015620002ec5762000a0f62000a2491601c6000527f0e4562a10381dec21b205ed72637e6b1b523bdd0e4d4d50af5cd23dd4500a21101620008b0565b60405191829160208352602083019062000960565b0390f35b34620002ec576000366003190112620002ec5760206001600160a01b03600b5416604051908152f35b34620002ec5760008060031936011262000b41576040519080600d5462000a7881620007a9565b8085529160019180831690811562000b14575060011462000ab4575b62000a248562000aa78187038262000389565b60405191829182620009a2565b9250600d83527fd7b6990105719101dabeb77144f2a3385c8033acd3af97e9423a695e81ad1eb55b82841062000afb57505050810160200162000aa78262000a2462000a94565b8054602085870181019190915290930192810162000adc565b86955062000a249693506020925062000aa794915060ff191682840152151560051b820101929362000a94565b80fd5b34620002ec576000366003190112620002ec576020601254604051908152f35b34620002ec5760008060031936011262000b4157604051908060145462000b8b81620007a9565b8085529160019180831690811562000b14575060011462000bb95762000a248562000aa78187038262000389565b9250601483527fce6d7b5282bd9a3661ae061feed1dbda4e52ab073b1f9285be6e155d9c38d4ec5b82841062000c0057505050810160200162000aa78262000a2462000a94565b8054602085870181019190915290930192810162000be1565b34620002ec57600319602036820112620002ec576004359067ffffffffffffffff8211620002ec57610140908236030112620002ec57602062000cc460009262000c8862000c7c62000c7c6001600160a01b03600b54166001600160a01b031690565b6001600160a01b031690565b906040519485809481937f24380aa800000000000000000000000000000000000000000000000000000000835230906004016004840162001a47565b03925af1801562000d495762000ce39160009162000d14575b50600c55565b600c546040519081527f7623383a750b4166574a1b2dff61440ed0dfa3708cbe620c58339cca510d1af990602090a1005b62000d3a915060203d811162000d41575b62000d31818362000389565b810190620019c0565b3862000cdd565b503d62000d25565b620019b4565b34620002ec576000366003190112620002ec576020601754604051908152f35b906020600319830112620002ec5760043567ffffffffffffffff92838211620002ec5780602383011215620002ec578160040135938411620002ec5760248483010111620002ec576024019190565b34620002ec5762000dcf3662000d6f565b50506001600160a01b038060005416803314158062000e4a575b8062000e3f575b62000dff576200001b62001f3a565b606491600b5416604051917f426fbc7100000000000000000000000000000000000000000000000000000000835233600484015260248301526044820152fd5b503033141562000df0565b5081600b541633141562000de9565b34620002ec576000366003190112620002ec576020601654604051908152f35b34620002ec576000366003190112620002ec576020601954604051908152f35b34620002ec5760008060031936011262000b4157604051908060155462000ec081620007a9565b8085529160019180831690811562000b14575060011462000eee5762000a248562000aa78187038262000389565b9250601583527f55f448fdea98c4d29eb340757ef0a66cd03dbb9538908a6a81d96026b71ec4755b82841062000f3557505050810160200162000aa78262000a2462000a94565b8054602085870181019190915290930192810162000f16565b34620002ec5760008060031936011262000b4157604051908060035462000f7581620007a9565b8085529160019180831690811562000b14575060011462000fa35762000a248562000aa78187038262000389565b9250600383527fc2575a0e9e593c00f959f8c92f12db2869c3395a3b0502d05e2516446f71f85b5b82841062000fea57505050810160200162000aa78262000a2462000a94565b8054602085870181019190915290930192810162000fcb565b34620002ec576000366003190112620002ec5760206001600160a01b03600a5416604051908152f35b34620002ec576200103d3662000d6f565b50506010544203428111620010a4576008541060405190815260206040818301528160609182519081604084015260005b8281106200108e5750506000828201840152601f01601f19168101030190f35b608081015186820186015285935081016200106e565b62001bcb565b34620002ec576000366003190112620002ec576020600f54604051908152f35b34620002ec5760008060031936011262000b41576001600160a01b03806001541633036200116a5781546001600160a01b03166000805473ffffffffffffffffffffffffffffffffffffffff191633179055906200114073ffffffffffffffffffffffffffffffffffffffff1960015416600155565b3391167f8be0079c531659141344cd1fd0a4f28419497f9722a3daafe3b4186f6b6457e08380a380f35b606460405162461bcd60e51b815260206004820152601660248201527f4d7573742062652070726f706f736564206f776e6572000000000000000000006044820152fd5b34620002ec576000366003190112620002ec5760206040516001600160a01b037f0000000000000000000000000000000000000000000000000000000000000000168152f35b34620002ec576000366003190112620002ec57602047604051908152f35b600435906bffffffffffffffffffffffff82168203620002ec57565b35906bffffffffffffffffffffffff82168203620002ec57565b34620002ec576020366003190112620002ec576200126562001212565b6009546001600160a01b03169062001285600a546001600160a01b031690565b91604051926107658085019185831067ffffffffffffffff84111762000366578593620012e39386936200368d87396001600160a01b039182168152911660208201526bffffffffffffffffffffffff909116604082015260600190565b0360009283f0801562000d49576200139891620013256020926001600160a01b031673ffffffffffffffffffffffffffffffffffffffff19600b541617600b55565b6200134062000c7c62000c7c6009546001600160a01b031690565b6200135762000c7c600b546001600160a01b031690565b8560405180968195829463095ea7b360e01b8452600484019092916bffffffffffffffffffffffff6020916001600160a01b03604085019616845216910152565b03925af1801562000d49576200148f575b50620013c162000c7c600b546001600160a01b031690565b803b156200148b576040517f230244080000000000000000000000000000000000000000000000000000000081523060048201529082908290602490829084905af1801562000d49576200146d575b507f3583c1105fd29a46b4d92ceeaff8be03cba58a11cce44a3b7da77bbc3798edc4620014676200144d62000c7c600b546001600160a01b031690565b6040516001600160a01b0390911681529081906020820190565b0390a180f35b806200147d620014849262000351565b80620002e0565b3862001410565b5080fd5b620014b49060203d8111620014bc575b620014ab818362000389565b8101906200199a565b5038620013a9565b503d6200149f565b34620002ec576000366003190112620002ec5760206001600160a01b0360005416604051908152f35b34620002ec576000366003190112620002ec576020601a54604051908152f35b34620002ec576000366003190112620002ec576020601154604051908152f35b34620002ec576000366003190112620002ec576020601354604051908152f35b34620002ec5760008060031936011262000b415760405190806005546200157481620007a9565b8085529160019180831690811562000b145750600114620015a25762000a248562000aa78187038262000389565b9250600583527f036b6384b5eca791c62761152d0c79bb0604c104a5fb6f4eb0703f3154bb3db05b828410620015e957505050810160200162000aa78262000a2462000a94565b80546020858701810191909152909301928101620015ca565b34620002ec576020366003190112620002ec57600060206200167f6200162762001212565b6200163162001941565b6001600160a01b03600954169060405194858094819363095ea7b360e01b835233600484019092916bffffffffffffffffffffffff6020916001600160a01b03604085019616845216910152565b03925af1801562000d49576200169157005b6200001b9060203d8111620014bc57620014ab818362000389565b34620002ec576000366003190112620002ec576020600c54604051908152f35b34620002ec576000366003190112620002ec5760206001600160a01b0360025416604051908152f35b34620002ec576000366003190112620002ec5760206001600160a01b0360185460081c16604051908152f35b34620002ec576000366003190112620002ec576020601b54604051908152f35b600435906001600160a01b0382168203620002ec57565b35906001600160a01b0382168203620002ec57565b34620002ec576020366003190112620002ec576001600160a01b036200179262001741565b6200179c62001941565b1633811462001802578073ffffffffffffffffffffffffffffffffffffffff196001541617600155620017db62000c7c6000546001600160a01b031690565b7fed8889f560326eb138920d842192f0eb3dd22b4f139c87a2c57538e05bae1278600080a3005b606460405162461bcd60e51b815260206004820152601760248201527f43616e6e6f74207472616e7366657220746f2073656c660000000000000000006044820152fd5b34620002ec576000366003190112620002ec57602063ffffffff600e5416604051908152f35b34620002ec576000366003190112620002ec576020600854604051908152f35b34620002ec5760008060031936011262000b41576040519080600654620018b381620007a9565b8085529160019180831690811562000b145750600114620018e15762000a248562000aa78187038262000389565b9250600683527ff652222313e28459528d920b65115c16c04f3efc82aaedc97be59f3f377c0d3f5b8284106200192857505050810160200162000aa78262000a2462000a94565b8054602085870181019190915290930192810162001909565b6001600160a01b036000541633036200195657565b606460405162461bcd60e51b815260206004820152601660248201527f4f6e6c792063616c6c61626c65206279206f776e6572000000000000000000006044820152fd5b90816020910312620002ec57518015158103620002ec5790565b6040513d6000823e3d90fd5b90816020910312620002ec575190565b9035601e1982360301811215620002ec57016020813591019167ffffffffffffffff8211620002ec578136038313620002ec57565b908060209392818452848401376000828201840152601f01601f1916010190565b359063ffffffff82168203620002ec57565b359060ff82168203620002ec57565b9291602062000827926040865262001bbb62001ba562001a8962001b9d8962001a718680620019d0565b93906101409485604085015261018084019162001a05565b9262001b5662001ab562001aa08a8a018a620019d0565b603f1986890381016060880152979162001a05565b62001ad762001ac760408b0162001758565b6001600160a01b03166080860152565b62001af662001ae960608b0162001a26565b63ffffffff1660a0860152565b62001b1862001b0860808b0162001758565b6001600160a01b031660c0860152565b62001b3462001b2a60a08b0162001a38565b60ff1660e0860152565b62001b4360c08a018a620019d0565b8583038801610100968701529062001a05565b938c62001b8d62001b8362001b6f60e08c018c620019d0565b610120999186868403018b87015262001a05565b948a018a620019d0565b9390928286030191015262001a05565b93016200122e565b6bffffffffffffffffffffffff16610160880152565b9401906001600160a01b03169052565b634e487b7160e01b600052601160045260246000fd5b601f19810191908211620010a457565b1562001bf957565b606460405162461bcd60e51b815260206004820152601560248201527f55706b656570206e6f74207265676973746572656400000000000000000000006044820152fd5b9060018201809211620010a457565b9060208201809211620010a457565b91908201809211620010a457565b6040519060e0820182811067ffffffffffffffff8211176200036657604052606060c08360008152600060208201526000604082015282808201528260808201528260a08201520152565b601c549067ffffffffffffffff8211620003665760405191602062001cdf818360051b018562000389565b81845280840190601c6000527f0e4562a10381dec21b205ed72637e6b1b523bdd0e4d4d50af5cd23dd4500a2116000925b84841062001d1f575050505050565b600183819262001d2f85620008b0565b81520192019301929062001d10565b9062001d6e60809367ffffffffffffffff63ffffffff939897969816845260a0602085015260a084019062000960565b95600160408401521660608201520152565b60009060033d1162001d8e57565b905060046000803e60005160e01c90565b600060443d10620009b557604051600319913d83016004833e815167ffffffffffffffff918282113d60248401111762001e035781840194855193841162001e0b573d8501016020848701011162001e035750620009b59291016020019062000389565b949350505050565b50949350505050565b3d1562001e44573d9062001e2882620003ac565b9162001e38604051938462000389565b82523d6000602084013e565b606090565b9067ffffffffffffffff909493929416815260209360a08583015260006003549562001e7587620007a9565b908160a0860152600197888116908160001462001f10575060011462001eb1575b5050604083019590955263ffffffff16606082015260800152565b600360009081529250877fc2575a0e9e593c00f959f8c92f12db2869c3395a3b0502d05e2516446f71f85b5b83851062001efa5750505050820160c0018163ffffffff62001e96565b805487860160c001529382019389910162001edd565b60ff191660c08781019190915292151560051b8601909201925083915063ffffffff905062001e96565b62001f49600c54151562001bf1565b62001f5342601055565b62001f6962001f6460115462001c3d565b601155565b601b54601c541015620021125760075467ffffffffffffffff16602062001f95600e5463ffffffff1690565b600f549262001fb9604051948593849363230e93b160e11b85526004850162001e49565b038160006001600160a01b037f0000000000000000000000000000000000000000000000000000000000000000165af160009181620020ed575b50620020a6575060016200200662001d80565b6308c379a0146200204d575b6200201957565b7f9c4bfa18304482256875c29fabb1a44a5ecd325f214ea17bab8f31e869faf4c86200204862000aa762001e14565b0390a1565b6200205762001d9f565b8062002065575b5062002012565b90507f2ba61e3733e7ac99181c22307780f651ec8fd92fe661a84dfbe711710b2dc36c6200209c60009260405191829182620009a2565b0390a1386200205e565b620020b081601355565b620020c6620020c160165462001c3d565b601655565b7f1131472297a800fee664d1d89cfa8f7676ff07189ecc53f80bbb5f4969099db8600080a2565b6200210a91925060203d811162000d415762000d31818362000389565b903862001ff3565b62002125600160ff196018541617601855565b620021636200213362001c69565b6200214862002141620007e6565b82620025df565b6200215d6200215662001cb4565b8262002621565b620023a2565b60206200217960075467ffffffffffffffff1690565b916200218a600e5463ffffffff1690565b9262001fb9600f54604051958694859463230e93b160e11b86526004860162001d3e565b60405190620021bd826200036c565b600c82527f636f64654c6f636174696f6e00000000000000000000000000000000000000006020830152565b634e487b7160e01b600052602160045260246000fd5b600311156200220a57565b620021e9565b604051906200221f826200036c565b600882527f6c616e67756167650000000000000000000000000000000000000000000000006020830152565b600111156200220a57565b6040519062002265826200036c565b600682527f736f7572636500000000000000000000000000000000000000000000000000006020830152565b60405190620022a0826200036c565b600482527f61726773000000000000000000000000000000000000000000000000000000006020830152565b6000198114620010a45760010190565b80518210156200078d5760209160051b010190565b6040519062002300826200036c565b600f82527f736563726574734c6f636174696f6e00000000000000000000000000000000006020830152565b604051906200233b826200036c565b600782527f73656372657473000000000000000000000000000000000000000000000000006020830152565b6040519062002376826200036c565b600982527f62797465734172677300000000000000000000000000000000000000000000006020830152565b620023ac62002675565b90620023c2620023bb620021ae565b8362002e6a565b620023e58151620023d381620021ff565b620023de81620021ff565b8362002725565b620023f3620023bb62002210565b62002412604082015162002407816200224b565b620023de816200224b565b62002420620023bb62002256565b6200243060608201518362002e6a565b60a0810180515162002576575b506080810190815151620024c8575b60c091500180515162002460575b50515190565b916200246f620023bb62002367565b6200247a8262002f02565b60005b83518051821015620024b25790620024a66200249e82620024ac94620022dc565b518562002d9b565b620022cc565b6200247d565b50509150620024c18162002f9a565b386200245a565b602081018051620024d981620021ff565b620024e481620021ff565b156200254c5760c0926200252962002546926200250b62002504620022f1565b8862002e6a565b516200251781620021ff565b6200252281620021ff565b8662002725565b6200253e620025376200232c565b8662002e6a565b518462002d9b565b6200244c565b60046040517fa80d31f7000000000000000000000000000000000000000000000000000000008152fd5b926200258c6200258562002291565b8462002e6a565b620025978362002f02565b60005b84518051821015620025c95790620024a6620025bb82620025c394620022dc565b518662002e6a565b6200259a565b50509250620025d88262002f9a565b386200243d565b815115620025f7576000808252604082015260600152565b60046040517f22ce3edd000000000000000000000000000000000000000000000000000000008152fd5b8151156200262f5760a00152565b60046040517ffe936cb7000000000000000000000000000000000000000000000000000000008152fd5b6040519062002668826200036c565b6000602083606081520152565b60405162002683816200036c565b6200268d62002659565b8082526020820160008152620026a262002659565b506101006020830152604051809252600082526101208201918210620002ec576000916040525290565b90620026d762002659565b50601f81168062002708575b5080602083015260405190818352600082528101602001908110620002ec5760405290565b60200360208111620010a4578101809111620010a45738620026e3565b908151916200273362002659565b508251516001810190818111620010a457602085015181101562002794575b60c260206200082796519283010153805182116200278b575b50506040519160208301526020825262002785826200036c565b62002d9b565b5238806200276b565b8160011b9482860460021483151715620010a457602081620027cc6200082798620027c460c295519184620026cc565b508262002ccc565b509650505062002752565b908160011b9180830460021490151715620010a457565b620027f862002659565b508051516001810190818111620010a457602083015181101562002834575b605b602084519283010153805182116200283057505090565b5290565b8160011b82810460021483151715620010a45762002862906200285a85519186620026cc565b508462002ccc565b5062002817565b6200287362002659565b508051516001810190818111620010a4576020830151811015620028ab575b605a602084519283010153805182116200283057505090565b8160011b82810460021483151715620010a457620028d1906200285a85519186620026cc565b5062002892565b620028e262002659565b508051516001810190818111620010a45760208301518110156200291a575b6059602084519283010153805182116200283057505090565b8160011b82810460021483151715620010a45762002940906200285a85519186620026cc565b5062002901565b6200295162002659565b508051516001810190818111620010a457602083015181101562002989575b6058602084519283010153805182116200283057505090565b8160011b82810460021483151715620010a457620029af906200285a85519186620026cc565b5062002970565b620029c062002659565b508051516001810190818111620010a4576020830151811015620029f8575b607b602084519283010153805182116200283057505090565b8160011b82810460021483151715620010a45762002a1e906200285a85519186620026cc565b50620029df565b62002a2f62002659565b508051516001810190818111620010a457602083015181101562002a67575b607a602084519283010153805182116200283057505090565b8160011b82810460021483151715620010a45762002a8d906200285a85519186620026cc565b5062002a4e565b62002a9e62002659565b508051516001810190818111620010a457602083015181101562002ad6575b6079602084519283010153805182116200283057505090565b8160011b82810460021483151715620010a45762002afc906200285a85519186620026cc565b5062002abd565b62002b0d62002659565b508051516001810190818111620010a457602083015181101562002b45575b6078602084519283010153805182116200283057505090565b8160011b82810460021483151715620010a45762002b6b906200285a85519186620026cc565b5062002b2c565b9062002b7d62002659565b508151516001810191828211620010a457602084015182101562002bb3575b602084519283010153805182116200283057505090565b8260011b83810460021484151715620010a45762002be19062002bd986519187620026cc565b508562002ccc565b5062002b9c565b9062002bf782519183620026cc565b5062002c0262002659565b5080519062002c1062002659565b5062002c20815183111562002d93565b8251519262002c30838562001c5b565b91602092828480940151821162002cb0575b518381519782010196821162002ca7575b505001915b8181101562002c7a5760001991036101000a0190811990511690825116179052565b919262002c9a62002c9362002ca1928651815262001c4c565b9462001c4c565b9262001be1565b62002c58565b52388062002c53565b62002cc662002cbf83620027d7565b8262002be8565b62002c42565b9062002cd762002659565b50805162002ce462002659565b5062002cf4825182111562002d93565b8251519162002d04828462001c5b565b602091829182870151811162002d77575b86518381519782010196821162002d6e575b505001915b8181101562002d4f5760001991036101000a019081199051169082511617905290565b919262002c9a62002c9362002d68928651815262001c4c565b62002d2c565b52388062002d27565b62002d8d62002d8682620027d7565b8862002be8565b62002d15565b15620002ec57565b815162002dd892919067ffffffffffffffff8116906017821162002ddb5762002dcf9150604060ff84519216179062002b72565b505b5162002ccc565b50565b5060ff811162002e065762002dff9062002df6835162002947565b5082516200318b565b5062002dd1565b61ffff811162002e2a5762002dff9062002e218351620028d8565b5082516200311b565b63ffffffff811162002e505762002dff9062002e47835162002869565b508251620030a9565b62002dff9062002e618351620027ee565b50825162003033565b815162002dd892919067ffffffffffffffff8116906017821162002e9e5762002dcf9150606060ff84519216179062002b72565b5060ff811162002eb95762002dff9062002df6835162002b03565b61ffff811162002ed45762002dff9062002e21835162002a94565b63ffffffff811162002ef15762002dff9062002e47835162002a25565b62002dff9062002e618351620029b6565b80519062002f0f62002659565b508151516001810190818111620010a457602084015181101562002f62575b609f602080955192830101538051821162002f59575b50500180519060018201809211620010a45752565b52388062002f44565b8160011b9382850460021483151715620010a45760208162002f8f8297620027c4609f95519184620026cc565b509550505062002f2e565b80519062002fa762002659565b508151516001810190818111620010a457602084015181101562002ffb575b60ff602080955192830101538051821162002ff2575b5050018051600019810191908211620010a45752565b52388062002fdc565b8160011b9382850460021483151715620010a457602081620030288297620027c460ff95519184620026cc565b509550505062002fc6565b906200303e62002659565b50815151806008019182600811620010a4576020840151831162003084575b60088451928301019067ffffffffffffffff19825116179052805182116200283057505090565b8260011b83810460021484151715620010a457620030a3908562002be8565b6200305d565b90620030b462002659565b50815151806004019182600411620010a45760208401518311620030f6575b60048451928301019063ffffffff19825116179052805182116200283057505090565b8260011b83810460021484151715620010a45762003115908562002be8565b620030d3565b906200312662002659565b50815151806002019182600211620010a4576020840151831162003166575b60028451928301019061ffff19825116179052805182116200283057505090565b8260011b83810460021484151715620010a45762003185908562002be8565b62003145565b906200319662002659565b50815151806001019182600111620010a45760208401518311620031d5575b60018451928301019060ff19825116179052805182116200283057505090565b8260011b83810460021484151715620010a457620031f4908562002be8565b620031b5565b81811062003206575050565b60008155600101620031fa565b90601f821162003221575050565b620008279160056000527f036b6384b5eca791c62761152d0c79bb0604c104a5fb6f4eb0703f3154bb3db0906020601f840160051c830193106200326e575b601f0160051c0190620031fa565b909150819062003260565b90601f821162003287575050565b620008279160066000527ff652222313e28459528d920b65115c16c04f3efc82aaedc97be59f3f377c0d3f906020601f840160051c830193106200326e57601f0160051c0190620031fa565b9190601f8111620032e357505050565b62000827926000526020600020906020601f840160051c830193106200326e57601f0160051c0190620031fa565b90815167ffffffffffffffff811162000366576200333c8162003336600654620007a9565b62003279565b602080601f83116001146200337b57508192936000926200336f575b50508160011b916000199060031b1c191617600655565b01519050388062003358565b90601f19831694620033af60066000527ff652222313e28459528d920b65115c16c04f3efc82aaedc97be59f3f377c0d3f90565b926000905b878210620033ef575050836001959610620033d5575b505050811b01600655565b015160001960f88460031b161c19169055388080620033ca565b80600185968294968601518155019501930190620033b4565b6020815191015190602081106200341d575090565b6000199060200360031b1b1690565b601c5468010000000000000000811015620003665762003454600191828101601c5562000755565b929092620035355780519067ffffffffffffffff821162000366576200348782620034808654620007a9565b86620032d3565b60209081601f8411600114620034c65750928293918392600094620034ba575b50501b916000199060031b1c1916179055565b015192503880620034a7565b919083601f198116620034de88600052602060002090565b946000905b888383106200351a575050501062003500575b505050811b019055565b015160001960f88460031b161c19169055388080620034f6565b858701518855909601959485019487935090810190620034e3565b62000793565b909162003555620009b59360408452604084019062000960565b91602081840391015262000960565b156200356c57565b606460405162461bcd60e51b815260206004820152601b60248201527f4572726f20616f207061676172206120696e64656e697a6163616f00000000006044820152fd5b601e54601a541115620035fa57620008276000808080620035e562000c7c62000c7c6018546001600160a01b039060081c1690565b47905af1620035f362001e14565b5062003564565b60008080806001600160a01b036002541647905af16200361962001e14565b50156200362257565b608460405162461bcd60e51b815260206004820152602d60248201527f4572726f20616f207265746f726e6172206f732066756e646f7320706172612060448201527f6120696e73746974756963616f000000000000000000000000000000000000006064820152fdfe60c0346100ba57601f61076538819003918201601f19168301916001600160401b038311848410176100bf578084926060946040528339810103126100ba57610047816100d5565b906040610056602083016100d5565b9101516001600160601b03811692908390036100ba5760805260a052600180546001600160601b03191691909117905560405161067b90816100ea82396080518181816077015281816101c701526103a3015260a05181818160be015261036a0152f35b600080fd5b634e487b7160e01b600052604160045260246000fd5b51906001600160a01b03821682036100ba5756fe60806040818152600436101561001457600080fd5b600091823560e01c90816301619d3d1461022d57508063230244081461014a57806324380aa8146100e2578063442b12781461009f57637d253aff1461005957600080fd5b3461009b578160031936011261009b57602090516001600160a01b037f0000000000000000000000000000000000000000000000000000000000000000168152f35b5080fd5b503461009b578160031936011261009b57602090516001600160a01b037f0000000000000000000000000000000000000000000000000000000000000000168152f35b503461009b576003198181360112610142576004359067ffffffffffffffff82116101465761014090823603011261014257602435926001600160a01b038416840361013f575060209261013891600401610313565b9051908152f35b80fd5b8280fd5b8380fd5b503461009b57602036600319011261009b57600435906001600160a01b03918281168091036101465760209060646bffffffffffffffffffffffff600154169186855196879485937f23b872dd000000000000000000000000000000000000000000000000000000008552600485015230602485015260448401527f0000000000000000000000000000000000000000000000000000000000000000165af190811561022457506101f9575080f35b6102199060203d811161021d575b6102118183610270565b8101906102a8565b5080f35b503d610207565b513d84823e3d90fd5b83903461009b578160031936011261009b576020906bffffffffffffffffffffffff600154168152f35b35906001600160a01b038216820361026b57565b600080fd5b90601f8019910116810190811067ffffffffffffffff82111761029257604052565b634e487b7160e01b600052604160045260246000fd5b9081602091031261026b5751801515810361026b5790565b9035601e198236030181121561026b57016020813591019167ffffffffffffffff821161026b57813603831361026b57565b908060209392818452848401376000828201840152601f01601f1916010190565b9190916000926101208201356bffffffffffffffffffffffff8116809103610641576040908151927f095ea7b30000000000000000000000000000000000000000000000000000000084526001600160a01b0391827f0000000000000000000000000000000000000000000000000000000000000000169586600487015281602487015260209586816044818d897f0000000000000000000000000000000000000000000000000000000000000000165af180156106375761061a575b508451967f3f678e1100000000000000000000000000000000000000000000000000000000885286600489015261041d61040a83806102c0565b61014060248c01526101648b01916102f2565b8a61044161042d8a8601866102c0565b6023198d8603810160448f015294916102f2565b948761044e8a8701610257565b1660648c0152606085013563ffffffff81168091036101425760848c01528761047960808701610257565b1660a48c015260a08501359060ff8216809203610142576105018c9687956104f16104e58f9b6104c7908a9860c48a01526104b760c08701876102c0565b90868b84030160e48c01526102f2565b6104d460e08601866102c0565b90858a8403016101048b01526102f2565b926101008101906102c0565b91868403016101248701526102f2565b9061014483015203925af19485156106105787956105dd575b508415610580571685528482528420908154916801000000000000000083101561056c57600183018082558310156105585794839495815220015590565b602486634e487b7160e01b81526032600452fd5b602486634e487b7160e01b81526041600452fd5b6064848451907f08c379a00000000000000000000000000000000000000000000000000000000082526004820152601560248201527f6175746f2d617070726f76652064697361626c656400000000000000000000006044820152fd5b9094508381813d8311610609575b6105f58183610270565b810103126106055751933861051a565b8680fd5b503d6105eb565b83513d89823e3d90fd5b61063090873d891161021d576102118183610270565b50386103d0565b86513d8c823e3d90fd5b8480fdfea2646970667358221220b5d5e549faa0f06e6b4c0d541d8329af501ee63625d5b872cb2297c6dbd1556d64736f6c63430008130033a2646970667358221220aa8085bbdfa5ec98ef8f077cf8f267bc9ad2634fa3600fa56b14650d4cf8c38064736f6c634300081300336d4407e7be21f808e6509aa9fa9143369579dd7d760fe20a2c09680fc146134fa2646970667358221220e7a6a27cc396f734c76e2e0ad522c9d62199476fbc9a509a4e1265501ebfd65a64736f6c63430008130033","opcodes":"PUSH1 0xA0 PUSH1 0x40 MSTORE CALLVALUE PUSH3 0x248 JUMPI PUSH3 0x55C2 DUP1 CODESIZE SUB DUP1 PUSH3 0x1D DUP2 PUSH3 0x24D JUMP JUMPDEST SWAP3 DUP4 CODECOPY DUP2 ADD SWAP1 PUSH1 0x40 DUP2 DUP4 SUB SLT PUSH3 0x248 JUMPI DUP1 MLOAD PUSH1 0x1 PUSH1 0x1 PUSH1 0xA0 SHL SUB DUP2 AND DUP2 SUB PUSH3 0x248 JUMPI PUSH1 0x20 DUP3 DUP2 ADD MLOAD PUSH1 0x1 PUSH1 0x1 PUSH1 0x40 SHL SUB SWAP4 SWAP2 SWAP3 SWAP2 DUP5 DUP3 GT PUSH3 0x248 JUMPI ADD SWAP4 PUSH1 0x1F SWAP2 DUP2 DUP4 DUP8 ADD SLT ISZERO PUSH3 0x248 JUMPI DUP6 MLOAD DUP6 DUP2 GT PUSH3 0x21D JUMPI PUSH1 0x1F NOT SWAP7 PUSH3 0x8A DUP3 DUP7 ADD DUP10 AND DUP8 ADD PUSH3 0x24D JUMP JUMPDEST SWAP4 DUP3 DUP6 MSTORE DUP7 DUP4 DUP4 ADD ADD GT PUSH3 0x248 JUMPI DUP6 SWAP1 PUSH1 0x0 JUMPDEST DUP4 DUP2 LT PUSH3 0x233 JUMPI POP POP PUSH1 0x0 SWAP2 DUP5 ADD ADD MSTORE PUSH1 0x80 MSTORE DUP1 MLOAD SWAP4 DUP5 GT PUSH3 0x21D JUMPI PUSH1 0x0 SLOAD SWAP3 PUSH1 0x1 SWAP4 DUP5 DUP2 DUP2 SHR SWAP2 AND DUP1 ISZERO PUSH3 0x212 JUMPI JUMPDEST DUP3 DUP3 LT EQ PUSH3 0x1FC JUMPI DUP4 DUP2 GT PUSH3 0x1B1 JUMPI JUMPDEST POP DUP1 SWAP3 DUP6 GT PUSH1 0x1 EQ PUSH3 0x147 JUMPI POP DUP4 SWAP5 POP SWAP1 DUP4 SWAP3 SWAP2 PUSH1 0x0 SWAP5 PUSH3 0x13B JUMPI JUMPDEST POP POP SHL SWAP2 PUSH1 0x0 NOT SWAP1 PUSH1 0x3 SHL SHR NOT AND OR PUSH1 0x0 SSTORE JUMPDEST PUSH1 0x40 MLOAD PUSH2 0x534E SWAP1 DUP2 PUSH3 0x274 DUP3 CODECOPY PUSH1 0x80 MLOAD DUP2 DUP2 DUP2 PUSH2 0x1BF ADD MSTORE DUP2 DUP2 PUSH2 0x6B5 ADD MSTORE PUSH2 0x961 ADD MSTORE RETURN JUMPDEST ADD MLOAD SWAP3 POP CODESIZE DUP1 PUSH3 0x101 JUMP JUMPDEST SWAP3 SWAP5 DUP5 SWAP1 DUP2 AND PUSH1 0x0 DUP1 MSTORE DUP5 PUSH1 0x0 KECCAK256 SWAP5 PUSH1 0x0 SWAP1 JUMPDEST DUP9 DUP4 DUP4 LT PUSH3 0x196 JUMPI POP POP POP LT PUSH3 0x17C JUMPI JUMPDEST POP POP POP DUP2 SHL ADD PUSH1 0x0 SSTORE PUSH3 0x114 JUMP JUMPDEST ADD MLOAD PUSH1 0x0 NOT PUSH1 0xF8 DUP5 PUSH1 0x3 SHL AND SHR NOT AND SWAP1 SSTORE CODESIZE DUP1 DUP1 PUSH3 0x16D JUMP JUMPDEST DUP6 DUP8 ADD MLOAD DUP9 SSTORE SWAP1 SWAP7 ADD SWAP6 SWAP5 DUP6 ADD SWAP5 DUP8 SWAP4 POP SWAP1 DUP2 ADD SWAP1 PUSH3 0x15A JUMP JUMPDEST PUSH1 0x0 DUP1 MSTORE DUP2 PUSH1 0x0 KECCAK256 DUP5 DUP1 DUP9 ADD PUSH1 0x5 SHR DUP3 ADD SWAP3 DUP5 DUP10 LT PUSH3 0x1F2 JUMPI JUMPDEST ADD PUSH1 0x5 SHR ADD SWAP1 DUP6 SWAP1 JUMPDEST DUP3 DUP2 LT PUSH3 0x1E5 JUMPI POP POP PUSH3 0xE3 JUMP JUMPDEST PUSH1 0x0 DUP2 SSTORE ADD DUP6 SWAP1 PUSH3 0x1D5 JUMP JUMPDEST SWAP3 POP DUP2 SWAP3 PUSH3 0x1CC JUMP JUMPDEST PUSH4 0x4E487B71 PUSH1 0xE0 SHL PUSH1 0x0 MSTORE PUSH1 0x22 PUSH1 0x4 MSTORE PUSH1 0x24 PUSH1 0x0 REVERT JUMPDEST SWAP1 PUSH1 0x7F AND SWAP1 PUSH3 0xD1 JUMP JUMPDEST PUSH4 0x4E487B71 PUSH1 0xE0 SHL PUSH1 0x0 MSTORE PUSH1 0x41 PUSH1 0x4 MSTORE PUSH1 0x24 PUSH1 0x0 REVERT JUMPDEST DUP2 DUP2 ADD DUP4 ADD MLOAD DUP7 DUP3 ADD DUP5 ADD MSTORE DUP8 SWAP3 ADD PUSH3 0x9E JUMP JUMPDEST PUSH1 0x0 DUP1 REVERT JUMPDEST PUSH1 0x40 MLOAD SWAP2 SWAP1 PUSH1 0x1F ADD PUSH1 0x1F NOT AND DUP3 ADD PUSH1 0x1 PUSH1 0x1 PUSH1 0x40 SHL SUB DUP2 GT DUP4 DUP3 LT OR PUSH3 0x21D JUMPI PUSH1 0x40 MSTORE JUMP INVALID PUSH1 0x80 PUSH1 0x40 MSTORE PUSH1 0x4 CALLDATASIZE LT ISZERO PUSH3 0x1D JUMPI JUMPDEST CALLDATASIZE ISZERO PUSH3 0x1B JUMPI PUSH1 0x0 DUP1 REVERT JUMPDEST STOP JUMPDEST PUSH1 0x0 CALLDATALOAD PUSH1 0xE0 SHR DUP1 PUSH4 0x80A57F9 EQ PUSH3 0xBE3 JUMPI DUP1 PUSH4 0x17FAB0A0 EQ PUSH3 0xB02 JUMPI DUP1 PUSH4 0x3A133E2C EQ PUSH3 0xA13 JUMPI DUP1 PUSH4 0x3CCFD60B EQ PUSH3 0x944 JUMPI DUP1 PUSH4 0x3F0F912D EQ PUSH3 0x887 JUMPI DUP1 PUSH4 0x8A699F00 EQ PUSH3 0x849 JUMPI DUP1 PUSH4 0x8B7AFE2E EQ PUSH3 0x82B JUMPI DUP1 PUSH4 0x90F6D378 EQ PUSH3 0x71C JUMPI DUP1 PUSH4 0x9B19251A EQ PUSH3 0x6D9 JUMPI DUP1 PUSH4 0xAF6081DE EQ PUSH3 0x693 JUMPI DUP1 PUSH4 0xDC7A1365 EQ PUSH3 0x3F0 JUMPI DUP1 PUSH4 0xDFB50E64 EQ PUSH3 0x124 JUMPI PUSH4 0xED23F8C3 SUB PUSH3 0xF JUMPI CALLVALUE PUSH3 0x11F JUMPI PUSH1 0x40 CALLDATASIZE PUSH1 0x3 NOT ADD SLT PUSH3 0x11F JUMPI PUSH3 0xDB PUSH3 0xC24 JUMP JUMPDEST PUSH1 0x24 CALLDATALOAD SWAP1 PUSH1 0x1 PUSH1 0x1 PUSH1 0xA0 SHL SUB DUP1 SWAP2 AND PUSH1 0x0 MSTORE PUSH1 0x4 PUSH1 0x20 MSTORE PUSH1 0x40 PUSH1 0x0 KECCAK256 DUP1 SLOAD DUP4 LT ISZERO PUSH3 0x11F JUMPI PUSH1 0x20 SWAP3 PUSH3 0x10F SWAP2 PUSH3 0xDAF JUMP JUMPDEST SWAP2 SWAP1 SLOAD PUSH1 0x40 MLOAD SWAP3 PUSH1 0x3 SHL SHR AND DUP2 MSTORE RETURN JUMPDEST PUSH1 0x0 DUP1 REVERT JUMPDEST CALLVALUE PUSH3 0x11F JUMPI PUSH1 0x20 CALLDATASIZE PUSH1 0x3 NOT ADD SLT PUSH3 0x11F JUMPI PUSH8 0xFFFFFFFFFFFFFFFF PUSH1 0x4 CALLDATALOAD GT PUSH3 0x11F JUMPI CALLDATASIZE PUSH1 0x23 PUSH1 0x4 CALLDATALOAD ADD SLT ISZERO PUSH3 0x11F JUMPI PUSH1 0x4 CALLDATALOAD PUSH1 0x4 ADD CALLDATALOAD PUSH8 0xFFFFFFFFFFFFFFFF DUP2 GT PUSH3 0x3DA JUMPI DUP1 PUSH1 0x5 SHL SWAP1 PUSH1 0x40 MLOAD SWAP1 PUSH3 0x186 PUSH1 0x20 DUP5 ADD DUP4 PUSH3 0xC3B JUMP JUMPDEST DUP2 MSTORE PUSH1 0x20 DUP2 ADD PUSH1 0x24 SWAP3 CALLDATASIZE DUP5 DUP3 PUSH1 0x4 CALLDATALOAD ADD ADD GT PUSH3 0x11F JUMPI DUP4 PUSH1 0x4 CALLDATALOAD ADD SWAP2 JUMPDEST DUP5 DUP3 PUSH1 0x4 CALLDATALOAD ADD ADD DUP4 LT PUSH3 0x303 JUMPI POP POP POP PUSH1 0x1 PUSH1 0x1 PUSH1 0xA0 SHL SUB PUSH32 0x0 AND CALLER SUB PUSH3 0x2D9 JUMPI PUSH1 0x0 JUMPDEST DUP2 MLOAD DUP2 LT ISZERO PUSH3 0x1B JUMPI PUSH3 0x240 PUSH1 0x20 PUSH3 0x205 DUP4 DUP6 PUSH3 0xDC8 JUMP JUMPDEST MLOAD ADD MLOAD PUSH3 0x230 PUSH1 0x20 PUSH3 0x21A DUP6 DUP8 PUSH3 0xDC8 JUMP JUMPDEST MLOAD MLOAD DUP2 PUSH1 0x40 MLOAD SWAP4 DUP3 DUP6 DUP1 SWAP5 MLOAD SWAP4 DUP5 SWAP3 ADD PUSH3 0xCD8 JUMP JUMPDEST DUP2 ADD PUSH1 0x2 DUP2 MSTORE SUB ADD SWAP1 KECCAK256 PUSH3 0xDDD JUMP JUMPDEST PUSH3 0x24C DUP2 DUP4 PUSH3 0xDC8 JUMP JUMPDEST MLOAD MLOAD PUSH1 0x1 DUP1 SLOAD PUSH9 0x10000000000000000 DUP2 LT ISZERO PUSH3 0x2C4 JUMPI DUP2 PUSH3 0x274 SWAP3 DUP3 ADD SWAP1 SSTORE PUSH3 0xD61 JUMP JUMPDEST SWAP2 SWAP1 SWAP2 PUSH3 0x2AF JUMPI PUSH3 0x287 SWAP2 PUSH3 0xDDD JUMP JUMPDEST PUSH1 0x0 NOT DUP2 EQ PUSH3 0x29A JUMPI PUSH1 0x1 ADD PUSH3 0x1E9 JUMP JUMPDEST DUP3 PUSH4 0x4E487B71 PUSH1 0xE0 SHL PUSH1 0x0 MSTORE PUSH1 0x11 PUSH1 0x4 MSTORE PUSH1 0x0 REVERT JUMPDEST DUP5 PUSH4 0x4E487B71 PUSH1 0xE0 SHL PUSH1 0x0 MSTORE PUSH1 0x0 PUSH1 0x4 MSTORE PUSH1 0x0 REVERT JUMPDEST DUP6 PUSH4 0x4E487B71 PUSH1 0xE0 SHL PUSH1 0x0 MSTORE PUSH1 0x41 PUSH1 0x4 MSTORE PUSH1 0x0 REVERT JUMPDEST PUSH1 0x4 PUSH1 0x40 MLOAD PUSH32 0x30CD747100000000000000000000000000000000000000000000000000000000 DUP2 MSTORE REVERT JUMPDEST DUP3 CALLDATALOAD PUSH8 0xFFFFFFFFFFFFFFFF DUP2 GT PUSH3 0x11F JUMPI CALLDATASIZE PUSH1 0x43 DUP3 PUSH1 0x4 CALLDATALOAD ADD ADD SLT ISZERO PUSH3 0x11F JUMPI PUSH1 0x40 MLOAD SWAP1 PUSH1 0x40 DUP3 ADD DUP3 DUP2 LT PUSH8 0xFFFFFFFFFFFFFFFF DUP3 GT OR PUSH3 0x3C5 JUMPI PUSH1 0x40 MSTORE PUSH1 0x4 CALLDATALOAD DUP2 ADD PUSH1 0x64 ADD SWAP1 DUP3 CALLDATASIZE DUP4 GT PUSH3 0x11F JUMPI SWAP1 DUP9 SWAP5 SWAP4 SWAP3 SWAP2 DUP6 DUP3 PUSH1 0x4 CALLDATALOAD ADD ADD SWAP1 JUMPDEST DUP4 DUP3 LT PUSH3 0x383 JUMPI POP POP POP SWAP1 DUP3 MSTORE POP PUSH1 0x20 SWAP4 DUP5 ADD SWAP4 ADD SWAP1 POP PUSH3 0x1A4 JUMP JUMPDEST SWAP1 SWAP2 SWAP3 SWAP4 SWAP5 SWAP6 POP PUSH8 0xFFFFFFFFFFFFFFFF DUP3 CALLDATALOAD GT PUSH3 0x11F JUMPI PUSH1 0x20 DUP1 SWAP2 PUSH3 0x3B4 CALLDATASIZE DUP14 DUP7 CALLDATALOAD DUP9 PUSH1 0x4 CALLDATALOAD ADD ADD ADD PUSH3 0xCB7 JUMP JUMPDEST DUP2 MSTORE ADD SWAP2 ADD DUP10 SWAP6 SWAP5 SWAP4 SWAP3 SWAP2 PUSH3 0x365 JUMP JUMPDEST DUP8 PUSH4 0x4E487B71 PUSH1 0xE0 SHL PUSH1 0x0 MSTORE PUSH1 0x41 PUSH1 0x4 MSTORE PUSH1 0x0 REVERT JUMPDEST PUSH4 0x4E487B71 PUSH1 0xE0 SHL PUSH1 0x0 MSTORE PUSH1 0x41 PUSH1 0x4 MSTORE PUSH1 0x24 PUSH1 0x0 REVERT JUMPDEST CALLVALUE PUSH3 0x11F JUMPI PUSH2 0x1E0 DUP1 PUSH1 0x3 NOT CALLDATASIZE ADD SLT PUSH3 0x11F JUMPI PUSH3 0x40F PUSH3 0xC24 JUMP JUMPDEST SWAP1 PUSH1 0x24 CALLDATALOAD SWAP2 PUSH1 0x1 PUSH1 0x1 PUSH1 0xA0 SHL SUB SWAP2 DUP3 DUP5 AND DUP1 SWAP5 SUB PUSH3 0x11F JUMPI PUSH1 0xC4 CALLDATALOAD SWAP2 DUP4 DUP4 AND DUP1 SWAP4 SUB PUSH3 0x11F JUMPI PUSH1 0xE4 CALLDATALOAD SWAP1 PUSH8 0xFFFFFFFFFFFFFFFF DUP1 DUP4 AND DUP1 SWAP4 SUB PUSH3 0x11F JUMPI PUSH2 0x104 CALLDATALOAD SWAP4 DUP7 DUP6 AND DUP1 SWAP6 SUB PUSH3 0x11F JUMPI PUSH2 0x124 CALLDATALOAD SWAP5 DUP8 DUP7 AND DUP1 SWAP7 SUB PUSH3 0x11F JUMPI PUSH2 0x144 CALLDATALOAD SWAP2 DUP9 DUP4 AND DUP1 SWAP4 SUB PUSH3 0x11F JUMPI PUSH2 0x164 CALLDATALOAD SWAP1 PUSH4 0xFFFFFFFF DUP3 AND DUP1 SWAP3 SUB PUSH3 0x11F JUMPI PUSH2 0x1A4 CALLDATALOAD DUP6 DUP2 GT PUSH3 0x11F JUMPI CALLDATASIZE PUSH1 0x23 DUP3 ADD SLT ISZERO PUSH3 0x11F JUMPI PUSH3 0x4C1 SWAP1 CALLDATASIZE SWAP1 PUSH1 0x24 DUP2 PUSH1 0x4 ADD CALLDATALOAD SWAP2 ADD PUSH3 0xC7B JUMP JUMPDEST SWAP2 PUSH2 0x1C4 CALLDATALOAD DUP7 DUP2 GT PUSH3 0x11F JUMPI PUSH3 0x4DE SWAP1 CALLDATASIZE SWAP1 PUSH1 0x4 ADD PUSH3 0xCB7 JUMP JUMPDEST SWAP5 DUP13 PUSH1 0x0 MSTORE PUSH1 0x3 PUSH1 0x20 MSTORE PUSH1 0xFF PUSH1 0x40 PUSH1 0x0 KECCAK256 SLOAD AND ISZERO PUSH3 0x629 JUMPI PUSH1 0x40 MLOAD SWAP10 PUSH2 0x441B SWAP6 DUP7 DUP13 ADD SWAP9 DUP13 DUP11 LT SWAP1 DUP11 GT OR PUSH3 0x3DA JUMPI DUP12 SWAP11 DUP16 DUP16 PUSH3 0x59A SWAP13 PUSH3 0x58A SWAP11 DUP16 PUSH3 0xEFE SWAP1 CODECOPY AND DUP12 MSTORE PUSH1 0x20 DUP12 ADD MSTORE PUSH1 0x44 CALLDATALOAD PUSH1 0x40 DUP12 ADD MSTORE PUSH1 0x64 CALLDATALOAD PUSH1 0x60 DUP12 ADD MSTORE PUSH1 0x84 CALLDATALOAD SWAP14 DUP15 PUSH1 0x80 DUP13 ADD MSTORE PUSH1 0xA4 CALLDATALOAD PUSH1 0xA0 DUP13 ADD MSTORE PUSH1 0xC0 DUP12 ADD MSTORE PUSH1 0xE0 DUP11 ADD MSTORE PUSH2 0x100 DUP10 ADD MSTORE PUSH2 0x120 DUP9 ADD MSTORE PUSH2 0x140 DUP8 ADD MSTORE PUSH2 0x160 DUP7 ADD MSTORE PUSH2 0x184 CALLDATALOAD PUSH2 0x180 DUP7 ADD MSTORE DUP1 PUSH2 0x1A0 DUP7 ADD MSTORE DUP5 ADD SWAP1 PUSH3 0xD3A JUMP JUMPDEST SWAP2 PUSH2 0x1C0 DUP2 DUP5 SUB SWAP2 ADD MSTORE PUSH3 0xD3A JUMP JUMPDEST SUB SWAP2 CREATE SWAP2 DUP3 ISZERO PUSH3 0x61D JUMPI PUSH1 0x0 MSTORE PUSH1 0x4 PUSH1 0x20 MSTORE PUSH1 0x40 PUSH1 0x0 KECCAK256 SWAP1 DUP2 SLOAD SWAP3 PUSH9 0x10000000000000000 DUP5 LT ISZERO PUSH3 0x3DA JUMPI DUP2 PUSH3 0x5FE DUP6 PUSH1 0x20 SWAP6 PUSH1 0x1 PUSH32 0xA155A575082ECF596E5A22A44834BE92670605D1D0832000305888BA02A462D9 SWAP9 ADD DUP2 SSTORE PUSH3 0xDAF JUMP JUMPDEST SWAP4 SWAP1 SWAP3 AND SWAP3 DUP3 SLOAD SWAP1 PUSH1 0x3 SHL SWAP2 DUP5 DUP4 SHL SWAP3 SHL NOT AND OR SWAP1 SSTORE PUSH1 0x40 MLOAD SWAP1 DUP2 MSTORE LOG1 STOP JUMPDEST PUSH1 0x40 MLOAD RETURNDATASIZE PUSH1 0x0 DUP3 RETURNDATACOPY RETURNDATASIZE SWAP1 REVERT JUMPDEST PUSH1 0x84 PUSH1 0x40 MLOAD PUSH3 0x461BCD PUSH1 0xE5 SHL DUP2 MSTORE PUSH1 0x20 PUSH1 0x4 DUP3 ADD MSTORE PUSH1 0x21 PUSH1 0x24 DUP3 ADD MSTORE PUSH32 0x456E64657265636F206E616F2065737461206E61206C69737461206272616E63 PUSH1 0x44 DUP3 ADD MSTORE PUSH32 0x6100000000000000000000000000000000000000000000000000000000000000 PUSH1 0x64 DUP3 ADD MSTORE REVERT JUMPDEST CALLVALUE PUSH3 0x11F JUMPI PUSH1 0x0 CALLDATASIZE PUSH1 0x3 NOT ADD SLT PUSH3 0x11F JUMPI PUSH1 0x20 PUSH1 0x40 MLOAD PUSH1 0x1 PUSH1 0x1 PUSH1 0xA0 SHL SUB PUSH32 0x0 AND DUP2 MSTORE RETURN JUMPDEST CALLVALUE PUSH3 0x11F JUMPI PUSH1 0x20 CALLDATASIZE PUSH1 0x3 NOT ADD SLT PUSH3 0x11F JUMPI PUSH1 0x1 PUSH1 0x1 PUSH1 0xA0 SHL SUB PUSH3 0x6FE PUSH3 0xC24 JUMP JUMPDEST AND PUSH1 0x0 MSTORE PUSH1 0x3 PUSH1 0x20 MSTORE PUSH1 0x20 PUSH1 0xFF PUSH1 0x40 PUSH1 0x0 KECCAK256 SLOAD AND PUSH1 0x40 MLOAD SWAP1 ISZERO ISZERO DUP2 MSTORE RETURN JUMPDEST CALLVALUE PUSH3 0x11F JUMPI PUSH1 0x20 DUP1 PUSH1 0x3 NOT CALLDATASIZE ADD SLT PUSH3 0x11F JUMPI PUSH1 0x4 CALLDATALOAD SWAP1 PUSH1 0x1 SWAP2 DUP3 SLOAD DUP2 LT ISZERO PUSH3 0x11F JUMPI PUSH3 0x74C SWAP1 PUSH3 0xD61 JUMP JUMPDEST PUSH3 0x815 JUMPI PUSH1 0x40 MLOAD DUP1 SWAP4 PUSH1 0x0 SWAP1 DUP4 SLOAD SWAP4 PUSH3 0x767 DUP6 PUSH3 0xCFD JUMP JUMPDEST SWAP5 DUP6 DUP6 MSTORE DUP7 DUP4 DUP3 AND SWAP2 DUP3 PUSH1 0x0 EQ PUSH3 0x7F1 JUMPI POP POP PUSH1 0x1 EQ PUSH3 0x7AE JUMPI JUMPDEST POP POP PUSH3 0x794 SWAP3 POP SUB DUP4 PUSH3 0xC3B JUMP JUMPDEST PUSH3 0x7AA PUSH1 0x40 MLOAD SWAP3 DUP3 DUP5 SWAP4 DUP5 MSTORE DUP4 ADD SWAP1 PUSH3 0xD3A JUMP JUMPDEST SUB SWAP1 RETURN JUMPDEST DUP6 SWAP3 POP PUSH1 0x0 MSTORE DUP2 PUSH1 0x0 KECCAK256 SWAP1 PUSH1 0x0 SWAP2 JUMPDEST DUP6 DUP4 LT PUSH3 0x7D8 JUMPI POP POP PUSH3 0x794 SWAP4 POP DUP3 ADD ADD DUP6 DUP1 PUSH3 0x784 JUMP JUMPDEST DUP1 SLOAD DUP4 DUP10 ADD DUP6 ADD MSTORE DUP8 SWAP5 POP DUP7 SWAP4 SWAP1 SWAP3 ADD SWAP2 DUP2 ADD PUSH3 0x7BD JUMP JUMPDEST SWAP3 POP SWAP4 POP POP PUSH3 0x794 SWAP5 SWAP2 POP PUSH1 0xFF NOT AND DUP3 DUP5 ADD MSTORE ISZERO ISZERO PUSH1 0x5 SHL DUP3 ADD ADD DUP6 DUP1 PUSH3 0x784 JUMP JUMPDEST PUSH4 0x4E487B71 PUSH1 0xE0 SHL PUSH1 0x0 MSTORE PUSH1 0x0 PUSH1 0x4 MSTORE PUSH1 0x24 PUSH1 0x0 REVERT JUMPDEST CALLVALUE PUSH3 0x11F JUMPI PUSH1 0x0 CALLDATASIZE PUSH1 0x3 NOT ADD SLT PUSH3 0x11F JUMPI PUSH1 0x20 SELFBALANCE PUSH1 0x40 MLOAD SWAP1 DUP2 MSTORE RETURN JUMPDEST CALLVALUE PUSH3 0x11F JUMPI PUSH1 0x20 CALLDATASIZE PUSH1 0x3 NOT ADD SLT PUSH3 0x11F JUMPI PUSH1 0x1 PUSH1 0x1 PUSH1 0xA0 SHL SUB PUSH3 0x86E PUSH3 0xC24 JUMP JUMPDEST AND PUSH1 0x0 SWAP1 DUP2 MSTORE PUSH1 0x3 PUSH1 0x20 MSTORE PUSH1 0x40 SWAP1 KECCAK256 DUP1 SLOAD PUSH1 0xFF NOT AND SWAP1 SSTORE STOP JUMPDEST CALLVALUE PUSH3 0x11F JUMPI PUSH1 0x20 DUP1 PUSH1 0x3 NOT CALLDATASIZE ADD SLT PUSH3 0x11F JUMPI PUSH1 0x1 PUSH1 0x1 PUSH1 0xA0 SHL SUB SWAP1 DUP2 PUSH3 0x8AF PUSH3 0xC24 JUMP JUMPDEST AND PUSH1 0x0 MSTORE PUSH1 0x4 DUP2 MSTORE PUSH1 0x40 PUSH1 0x0 KECCAK256 PUSH1 0x40 MLOAD SWAP2 DUP3 DUP2 DUP4 SLOAD SWAP2 DUP3 DUP2 MSTORE ADD SWAP1 DUP2 SWAP4 PUSH1 0x0 MSTORE DUP3 PUSH1 0x0 KECCAK256 SWAP1 PUSH1 0x0 JUMPDEST DUP2 DUP2 LT PUSH3 0x92D JUMPI POP POP POP DUP4 PUSH3 0x8F0 SWAP2 SUB DUP5 PUSH3 0xC3B JUMP JUMPDEST PUSH1 0x40 MLOAD SWAP3 DUP2 DUP5 ADD SWAP1 DUP3 DUP6 MSTORE MLOAD DUP1 SWAP2 MSTORE PUSH1 0x40 DUP5 ADD SWAP3 SWAP2 PUSH1 0x0 JUMPDEST DUP3 DUP2 LT PUSH3 0x916 JUMPI DUP6 DUP6 SUB DUP7 RETURN JUMPDEST DUP4 MLOAD DUP8 AND DUP6 MSTORE SWAP4 DUP2 ADD SWAP4 SWAP3 DUP2 ADD SWAP3 PUSH1 0x1 ADD PUSH3 0x908 JUMP JUMPDEST DUP3 SLOAD DUP9 AND DUP5 MSTORE SWAP3 DUP5 ADD SWAP3 PUSH1 0x1 SWAP3 DUP4 ADD SWAP3 ADD PUSH3 0x8D7 JUMP JUMPDEST CALLVALUE PUSH3 0x11F JUMPI PUSH1 0x0 CALLDATASIZE PUSH1 0x3 NOT ADD SLT PUSH3 0x11F JUMPI PUSH1 0x1 PUSH1 0x1 PUSH1 0xA0 SHL SUB PUSH32 0x0 AND DUP1 CALLER SUB PUSH3 0x2D9 JUMPI PUSH1 0x0 DUP1 DUP1 DUP1 SWAP4 SELFBALANCE SWAP1 GAS CALL RETURNDATASIZE ISZERO PUSH3 0xA0D JUMPI RETURNDATASIZE PUSH3 0x9A6 DUP2 PUSH3 0xC5E JUMP JUMPDEST SWAP1 PUSH3 0x9B6 PUSH1 0x40 MLOAD SWAP3 DUP4 PUSH3 0xC3B JUMP JUMPDEST DUP2 MSTORE PUSH1 0x0 PUSH1 0x20 RETURNDATASIZE SWAP3 ADD RETURNDATACOPY JUMPDEST ISZERO PUSH3 0x9C9 JUMPI STOP JUMPDEST PUSH1 0x64 PUSH1 0x40 MLOAD PUSH3 0x461BCD PUSH1 0xE5 SHL DUP2 MSTORE PUSH1 0x20 PUSH1 0x4 DUP3 ADD MSTORE PUSH1 0x10 PUSH1 0x24 DUP3 ADD MSTORE PUSH32 0x5769746864726177206661696C65642E00000000000000000000000000000000 PUSH1 0x44 DUP3 ADD MSTORE REVERT JUMPDEST PUSH3 0x9C1 JUMP JUMPDEST CALLVALUE PUSH3 0x11F JUMPI PUSH1 0x0 CALLDATASIZE PUSH1 0x3 NOT ADD SLT PUSH3 0x11F JUMPI PUSH1 0x40 MLOAD PUSH1 0x0 DUP1 SLOAD PUSH3 0xA38 DUP2 PUSH3 0xCFD JUMP JUMPDEST DUP1 DUP5 MSTORE SWAP1 PUSH1 0x1 SWAP1 DUP2 DUP2 AND SWAP1 DUP2 ISZERO PUSH3 0xAD9 JUMPI POP PUSH1 0x1 EQ PUSH3 0xA7C JUMPI JUMPDEST PUSH3 0x7AA DUP5 PUSH3 0xA67 DUP2 DUP7 SUB DUP3 PUSH3 0xC3B JUMP JUMPDEST PUSH1 0x40 MLOAD SWAP2 DUP3 SWAP2 PUSH1 0x20 DUP4 MSTORE PUSH1 0x20 DUP4 ADD SWAP1 PUSH3 0xD3A JUMP JUMPDEST PUSH1 0x0 DUP1 DUP1 MSTORE SWAP3 POP PUSH32 0x290DECD9548B62A8D60345A988386FC84BA6BC95484008F6362F93160EF3E563 JUMPDEST DUP3 DUP5 LT PUSH3 0xAC0 JUMPI POP POP POP DUP2 ADD PUSH1 0x20 ADD PUSH3 0xA67 DUP3 PUSH3 0xA54 JUMP JUMPDEST DUP1 SLOAD PUSH1 0x20 DUP6 DUP8 ADD DUP2 ADD SWAP2 SWAP1 SWAP2 MSTORE SWAP1 SWAP4 ADD SWAP3 DUP2 ADD PUSH3 0xAA5 JUMP JUMPDEST PUSH1 0xFF NOT AND PUSH1 0x20 DUP1 DUP8 ADD SWAP2 SWAP1 SWAP2 MSTORE SWAP3 ISZERO ISZERO PUSH1 0x5 SHL DUP6 ADD SWAP1 SWAP3 ADD SWAP3 POP PUSH3 0xA67 SWAP2 POP DUP4 SWAP1 POP PUSH3 0xA54 JUMP JUMPDEST CALLVALUE PUSH3 0x11F JUMPI PUSH1 0x20 DUP1 PUSH1 0x3 NOT CALLDATASIZE ADD SLT PUSH3 0x11F JUMPI PUSH1 0x4 CALLDATALOAD PUSH8 0xFFFFFFFFFFFFFFFF DUP2 GT PUSH3 0x11F JUMPI DUP2 PUSH3 0xB3E PUSH3 0xB52 SWAP3 CALLDATASIZE SWAP1 PUSH1 0x4 ADD PUSH3 0xCB7 JUMP JUMPDEST DUP2 PUSH1 0x40 MLOAD SWAP4 DUP3 DUP6 DUP1 SWAP5 MLOAD SWAP4 DUP5 SWAP3 ADD PUSH3 0xCD8 JUMP JUMPDEST DUP2 ADD PUSH1 0x2 DUP2 MSTORE SUB ADD SWAP1 KECCAK256 SWAP1 PUSH1 0x40 MLOAD SWAP2 DUP3 PUSH1 0x0 DUP3 SLOAD PUSH3 0xB71 DUP2 PUSH3 0xCFD JUMP JUMPDEST SWAP4 DUP5 DUP5 MSTORE PUSH1 0x1 SWAP2 DUP7 DUP4 DUP3 AND SWAP2 DUP3 PUSH1 0x0 EQ PUSH3 0x7F1 JUMPI POP POP PUSH1 0x1 EQ PUSH3 0xBA0 JUMPI POP POP PUSH3 0x794 SWAP3 POP SUB DUP4 PUSH3 0xC3B JUMP JUMPDEST DUP6 SWAP3 POP PUSH1 0x0 MSTORE DUP2 PUSH1 0x0 KECCAK256 SWAP1 PUSH1 0x0 SWAP2 JUMPDEST DUP6 DUP4 LT PUSH3 0xBCA JUMPI POP POP PUSH3 0x794 SWAP4 POP DUP3 ADD ADD DUP6 DUP1 PUSH3 0x784 JUMP JUMPDEST DUP1 SLOAD DUP4 DUP10 ADD DUP6 ADD MSTORE DUP8 SWAP5 POP DUP7 SWAP4 SWAP1 SWAP3 ADD SWAP2 DUP2 ADD PUSH3 0xBAF JUMP JUMPDEST CALLVALUE PUSH3 0x11F JUMPI PUSH1 0x20 CALLDATASIZE PUSH1 0x3 NOT ADD SLT PUSH3 0x11F JUMPI PUSH1 0x1 PUSH1 0x1 PUSH1 0xA0 SHL SUB PUSH3 0xC08 PUSH3 0xC24 JUMP JUMPDEST AND PUSH1 0x0 SWAP1 DUP2 MSTORE PUSH1 0x3 PUSH1 0x20 MSTORE PUSH1 0x40 SWAP1 KECCAK256 DUP1 SLOAD PUSH1 0xFF NOT AND PUSH1 0x1 OR SWAP1 SSTORE STOP JUMPDEST PUSH1 0x4 CALLDATALOAD SWAP1 PUSH1 0x1 PUSH1 0x1 PUSH1 0xA0 SHL SUB DUP3 AND DUP3 SUB PUSH3 0x11F JUMPI JUMP JUMPDEST SWAP1 PUSH1 0x1F DUP1 NOT SWAP2 ADD AND DUP2 ADD SWAP1 DUP2 LT PUSH8 0xFFFFFFFFFFFFFFFF DUP3 GT OR PUSH3 0x3DA JUMPI PUSH1 0x40 MSTORE JUMP JUMPDEST PUSH8 0xFFFFFFFFFFFFFFFF DUP2 GT PUSH3 0x3DA JUMPI PUSH1 0x1F ADD PUSH1 0x1F NOT AND PUSH1 0x20 ADD SWAP1 JUMP JUMPDEST SWAP3 SWAP2 SWAP3 PUSH3 0xC89 DUP3 PUSH3 0xC5E JUMP JUMPDEST SWAP2 PUSH3 0xC99 PUSH1 0x40 MLOAD SWAP4 DUP5 PUSH3 0xC3B JUMP JUMPDEST DUP3 SWAP5 DUP2 DUP5 MSTORE DUP2 DUP4 ADD GT PUSH3 0x11F JUMPI DUP3 DUP2 PUSH1 0x20 SWAP4 DUP5 PUSH1 0x0 SWAP7 ADD CALLDATACOPY ADD ADD MSTORE JUMP JUMPDEST SWAP1 DUP1 PUSH1 0x1F DUP4 ADD SLT ISZERO PUSH3 0x11F JUMPI DUP2 PUSH1 0x20 PUSH3 0xCD5 SWAP4 CALLDATALOAD SWAP2 ADD PUSH3 0xC7B JUMP JUMPDEST SWAP1 JUMP JUMPDEST PUSH1 0x0 JUMPDEST DUP4 DUP2 LT PUSH3 0xCEC JUMPI POP POP PUSH1 0x0 SWAP2 ADD MSTORE JUMP JUMPDEST DUP2 DUP2 ADD MLOAD DUP4 DUP3 ADD MSTORE PUSH1 0x20 ADD PUSH3 0xCDB JUMP JUMPDEST SWAP1 PUSH1 0x1 DUP3 DUP2 SHR SWAP3 AND DUP1 ISZERO PUSH3 0xD2F JUMPI JUMPDEST PUSH1 0x20 DUP4 LT EQ PUSH3 0xD19 JUMPI JUMP JUMPDEST PUSH4 0x4E487B71 PUSH1 0xE0 SHL PUSH1 0x0 MSTORE PUSH1 0x22 PUSH1 0x4 MSTORE PUSH1 0x24 PUSH1 0x0 REVERT JUMPDEST SWAP2 PUSH1 0x7F AND SWAP2 PUSH3 0xD0D JUMP JUMPDEST SWAP1 PUSH1 0x20 SWAP2 PUSH3 0xD55 DUP2 MLOAD DUP1 SWAP3 DUP2 DUP6 MSTORE DUP6 DUP1 DUP7 ADD SWAP2 ADD PUSH3 0xCD8 JUMP JUMPDEST PUSH1 0x1F ADD PUSH1 0x1F NOT AND ADD ADD SWAP1 JUMP JUMPDEST PUSH1 0x1 SLOAD DUP2 LT ISZERO PUSH3 0xD99 JUMPI PUSH1 0x1 PUSH1 0x0 MSTORE PUSH32 0xB10E2D527612073B26EECDFD717E6A320CF44B4AFAC2B0732D9FCBE2B7FA0CF6 ADD SWAP1 PUSH1 0x0 SWAP1 JUMP JUMPDEST PUSH4 0x4E487B71 PUSH1 0xE0 SHL PUSH1 0x0 MSTORE PUSH1 0x32 PUSH1 0x4 MSTORE PUSH1 0x24 PUSH1 0x0 REVERT JUMPDEST DUP1 SLOAD DUP3 LT ISZERO PUSH3 0xD99 JUMPI PUSH1 0x0 MSTORE PUSH1 0x20 PUSH1 0x0 KECCAK256 ADD SWAP1 PUSH1 0x0 SWAP1 JUMP JUMPDEST DUP1 MLOAD DUP3 LT ISZERO PUSH3 0xD99 JUMPI PUSH1 0x20 SWAP2 PUSH1 0x5 SHL ADD ADD SWAP1 JUMP JUMPDEST SWAP2 SWAP1 SWAP2 DUP3 MLOAD PUSH8 0xFFFFFFFFFFFFFFFF DUP2 GT PUSH3 0x3DA JUMPI PUSH3 0xDFE DUP3 SLOAD PUSH3 0xCFD JUMP JUMPDEST PUSH1 0x1F DUP2 GT PUSH3 0xEB0 JUMPI JUMPDEST POP PUSH1 0x20 DUP1 PUSH1 0x1F DUP4 GT PUSH1 0x1 EQ PUSH3 0xE48 JUMPI POP DUP2 SWAP3 SWAP4 SWAP5 PUSH1 0x0 SWAP3 PUSH3 0xE3C JUMPI JUMPDEST POP POP DUP2 PUSH1 0x1 SHL SWAP2 PUSH1 0x0 NOT SWAP1 PUSH1 0x3 SHL SHR NOT AND OR SWAP1 SSTORE JUMP JUMPDEST ADD MLOAD SWAP1 POP CODESIZE DUP1 PUSH3 0xE26 JUMP JUMPDEST SWAP1 PUSH1 0x1F NOT DUP4 AND SWAP6 DUP5 PUSH1 0x0 MSTORE DUP3 PUSH1 0x0 KECCAK256 SWAP3 PUSH1 0x0 SWAP1 JUMPDEST DUP9 DUP3 LT PUSH3 0xE97 JUMPI POP POP DUP4 PUSH1 0x1 SWAP6 SWAP7 SWAP8 LT PUSH3 0xE7D JUMPI JUMPDEST POP POP POP DUP2 SHL ADD SWAP1 SSTORE JUMP JUMPDEST ADD MLOAD PUSH1 0x0 NOT PUSH1 0xF8 DUP5 PUSH1 0x3 SHL AND SHR NOT AND SWAP1 SSTORE CODESIZE DUP1 DUP1 PUSH3 0xE73 JUMP JUMPDEST DUP1 PUSH1 0x1 DUP6 SWAP7 DUP3 SWAP5 SWAP7 DUP7 ADD MLOAD DUP2 SSTORE ADD SWAP6 ADD SWAP4 ADD SWAP1 PUSH3 0xE5C JUMP JUMPDEST PUSH1 0x0 DUP4 DUP2 MSTORE PUSH1 0x20 DUP2 KECCAK256 PUSH1 0x1F DUP5 ADD PUSH1 0x5 SHR DUP2 ADD SWAP3 PUSH1 0x20 DUP6 LT PUSH3 0xEF2 JUMPI JUMPDEST PUSH1 0x1F ADD PUSH1 0x5 SHR ADD SWAP2 JUMPDEST DUP3 DUP2 LT PUSH3 0xEE6 JUMPI POP POP PUSH3 0xE08 JUMP JUMPDEST DUP2 DUP2 SSTORE PUSH1 0x1 ADD PUSH3 0xED6 JUMP JUMPDEST SWAP1 SWAP3 POP DUP3 SWAP1 PUSH3 0xECD JUMP INVALID PUSH1 0xC0 PUSH1 0x40 MSTORE PUSH3 0x441B DUP1 CODESIZE SUB SWAP1 DUP2 PUSH3 0x18 DUP2 PUSH3 0x4E2 JUMP JUMPDEST SWAP2 DUP3 CODECOPY PUSH2 0x1E0 DUP2 DUP4 DUP2 ADD SUB SLT PUSH3 0x4DD JUMPI PUSH3 0x34 DUP2 PUSH3 0x508 JUMP JUMPDEST SWAP1 PUSH3 0x43 PUSH1 0x20 DUP3 ADD PUSH3 0x508 JUMP JUMPDEST SWAP2 PUSH1 0x40 DUP3 ADD MLOAD SWAP1 PUSH1 0x60 DUP4 ADD MLOAD SWAP1 PUSH1 0x80 DUP5 ADD MLOAD PUSH1 0xA0 DUP6 ADD MLOAD SWAP2 PUSH3 0x69 PUSH1 0xC0 DUP8 ADD PUSH3 0x508 JUMP JUMPDEST PUSH1 0xE0 DUP8 ADD MLOAD SWAP1 SWAP8 SWAP1 SWAP4 PUSH1 0x1 PUSH1 0x1 PUSH1 0x40 SHL SUB DUP6 AND DUP6 SUB PUSH3 0x4DD JUMPI PUSH3 0x92 PUSH2 0x100 DUP10 ADD PUSH3 0x508 JUMP JUMPDEST SWAP4 PUSH3 0xA2 PUSH2 0x120 DUP11 ADD PUSH3 0x508 JUMP JUMPDEST SWAP7 PUSH3 0xB2 PUSH2 0x140 DUP12 ADD PUSH3 0x508 JUMP JUMPDEST SWAP9 PUSH2 0x160 DUP12 ADD MLOAD SWAP5 PUSH4 0xFFFFFFFF DUP7 AND DUP7 SUB PUSH3 0x4DD JUMPI PUSH2 0x180 DUP13 ADD MLOAD PUSH2 0x1A0 DUP14 ADD MLOAD SWAP1 SWAP13 SWAP1 PUSH1 0x1 PUSH1 0x1 PUSH1 0x40 SHL SUB DUP2 GT PUSH3 0x4DD JUMPI DUP16 DUP3 ADD PUSH1 0x1F DUP3 DUP5 ADD ADD SLT ISZERO PUSH3 0x4DD JUMPI DUP16 SWAP1 PUSH3 0x110 SWAP2 DUP4 ADD SWAP1 PUSH1 0x20 DUP2 DUP6 ADD MLOAD SWAP2 DUP6 ADD ADD PUSH3 0x51D JUMP JUMPDEST PUSH2 0x1C0 DUP3 ADD MLOAD SWAP1 SWAP16 SWAP1 PUSH1 0x1 PUSH1 0x1 PUSH1 0x40 SHL SUB DUP2 GT PUSH3 0x4DD JUMPI DUP3 ADD SWAP1 DUP1 DUP4 ADD PUSH1 0x1F DUP4 ADD SLT ISZERO PUSH3 0x4DD JUMPI PUSH3 0x14C SWAP3 ADD SWAP1 PUSH1 0x20 DUP2 MLOAD SWAP2 ADD PUSH3 0x51D JUMP JUMPDEST PUSH1 0x1 PUSH1 0x1 PUSH1 0xA0 SHL SUB SWAP14 DUP15 AND PUSH1 0x80 MSTORE SWAP13 DUP8 AND ISZERO PUSH3 0x498 JUMPI PUSH1 0x0 DUP1 SLOAD PUSH1 0x1 PUSH1 0x1 PUSH1 0xA0 SHL SUB NOT SWAP1 DUP2 AND PUSH1 0x1 PUSH1 0x1 PUSH1 0xA0 SHL SUB SWAP10 DUP11 AND SWAP1 DUP2 OR SWAP1 SWAP3 SSTORE PUSH1 0x2 DUP1 SLOAD DUP3 AND SWAP1 SWAP3 OR SWAP1 SWAP2 SSTORE PUSH1 0x18 DUP1 SLOAD PUSH2 0x100 PUSH1 0x1 PUSH1 0xA8 SHL SUB NOT AND PUSH1 0x8 SWAP4 DUP5 SHL PUSH2 0x100 PUSH1 0x1 PUSH1 0xA8 SHL SUB AND OR SWAP1 SSTORE PUSH1 0x1A SWAP3 SWAP1 SWAP3 SSTORE PUSH1 0x1B SWAP3 SWAP1 SWAP3 SSTORE PUSH1 0x19 SWAP3 SWAP1 SWAP3 SSTORE SWAP2 SWAP1 SWAP2 SSTORE PUSH1 0x7 DUP1 SLOAD SWAP5 DUP5 AND PUSH1 0xA0 MSTORE PUSH1 0x1 PUSH1 0x1 PUSH1 0x60 SHL SUB NOT SWAP1 SWAP5 AND PUSH1 0x1 PUSH1 0x1 PUSH1 0x40 SHL SUB SWAP6 DUP7 AND OR PUSH1 0x40 SWAP3 SWAP1 SWAP3 SHL PUSH12 0xFFFFFFFF0000000000000000 AND SWAP2 SWAP1 SWAP2 OR SWAP1 SWAP3 SSTORE PUSH1 0x9 DUP1 SLOAD DUP4 AND SWAP5 DUP3 AND SWAP5 SWAP1 SWAP5 OR SWAP1 SWAP4 SSTORE PUSH1 0xA DUP1 SLOAD SWAP1 SWAP2 AND SWAP4 SWAP1 SWAP3 AND SWAP3 SWAP1 SWAP3 OR SWAP1 SSTORE TIMESTAMP PUSH1 0x10 SSTORE PUSH1 0xF SWAP2 SWAP1 SWAP2 SSTORE DUP3 MLOAD SWAP1 DUP2 GT PUSH3 0x3D6 JUMPI PUSH1 0x3 SWAP1 PUSH3 0x248 DUP3 SLOAD PUSH3 0x57D JUMP JUMPDEST PUSH1 0x1F DUP2 GT PUSH3 0x462 JUMPI JUMPDEST POP PUSH1 0x20 PUSH1 0x1F DUP3 GT PUSH1 0x1 EQ PUSH3 0x3F8 JUMPI DUP2 SWAP3 SWAP4 SWAP5 PUSH1 0x0 SWAP3 PUSH3 0x3EC JUMPI JUMPDEST POP POP DUP2 PUSH1 0x1 SHL SWAP2 PUSH1 0x0 NOT SWAP1 DUP5 SHL SHR NOT AND OR DUP2 SSTORE JUMPDEST DUP2 MLOAD SWAP1 PUSH1 0x1 PUSH1 0x1 PUSH1 0x40 SHL SUB DUP3 GT PUSH3 0x3D6 JUMPI PUSH3 0x2A1 PUSH1 0x1D SLOAD PUSH3 0x57D JUMP JUMPDEST PUSH1 0x1F DUP2 GT PUSH3 0x388 JUMPI JUMPDEST POP PUSH1 0x20 PUSH1 0x1F DUP4 GT PUSH1 0x1 EQ PUSH3 0x30E JUMPI DUP3 SWAP4 PUSH1 0x0 SWAP4 PUSH3 0x302 JUMPI JUMPDEST POP POP DUP3 PUSH1 0x1 SHL SWAP3 PUSH1 0x0 NOT SWAP2 SHL SHR NOT AND OR PUSH1 0x1D SSTORE JUMPDEST PUSH1 0x40 MLOAD PUSH2 0x3E27 SWAP1 DUP2 PUSH3 0x5D4 DUP3 CODECOPY PUSH1 0x80 MLOAD DUP2 DUP2 DUP2 PUSH2 0x475 ADD MSTORE PUSH2 0x1FC7 ADD MSTORE PUSH1 0xA0 MLOAD DUP2 PUSH2 0x11D0 ADD MSTORE RETURN JUMPDEST ADD MLOAD SWAP2 POP CODESIZE DUP1 PUSH3 0x2C5 JUMP JUMPDEST PUSH1 0x1D PUSH1 0x0 SWAP1 DUP2 MSTORE PUSH1 0x0 DUP1 MLOAD PUSH1 0x20 PUSH3 0x43FB DUP4 CODECOPY DUP2 MLOAD SWAP2 MSTORE SWAP3 SWAP2 SWAP1 PUSH1 0x1F NOT DUP6 AND SWAP1 JUMPDEST DUP2 DUP2 LT PUSH3 0x36F JUMPI POP SWAP5 DUP5 PUSH1 0x1 SWAP7 LT PUSH3 0x354 JUMPI JUMPDEST POP POP POP POP DUP2 SHL ADD PUSH1 0x1D SSTORE PUSH3 0x2D9 JUMP JUMPDEST ADD MLOAD SWAP1 PUSH1 0xF8 DUP5 PUSH1 0x0 NOT SWAP3 SHL AND SHR NOT AND SWAP1 SSTORE CODESIZE DUP1 DUP1 DUP1 PUSH3 0x344 JUMP JUMPDEST SWAP2 SWAP4 PUSH1 0x20 PUSH1 0x1 DUP2 SWAP3 DUP8 DUP11 ADD MLOAD DUP2 SSTORE ADD SWAP6 ADD SWAP3 ADD PUSH3 0x32F JUMP JUMPDEST PUSH1 0x1D PUSH1 0x0 MSTORE PUSH3 0x3C4 SWAP1 PUSH1 0x0 DUP1 MLOAD PUSH1 0x20 PUSH3 0x43FB DUP4 CODECOPY DUP2 MLOAD SWAP2 MSTORE PUSH1 0x1F DUP6 ADD PUSH1 0x5 SHR DUP2 ADD SWAP2 PUSH1 0x20 DUP7 LT PUSH3 0x3CB JUMPI JUMPDEST PUSH1 0x1F ADD PUSH1 0x5 SHR ADD SWAP1 PUSH3 0x5BA JUMP JUMPDEST CODESIZE PUSH3 0x2AB JUMP JUMPDEST SWAP1 SWAP2 POP DUP2 SWAP1 PUSH3 0x3B6 JUMP JUMPDEST PUSH4 0x4E487B71 PUSH1 0xE0 SHL PUSH1 0x0 MSTORE PUSH1 0x41 PUSH1 0x4 MSTORE PUSH1 0x24 PUSH1 0x0 REVERT JUMPDEST ADD MLOAD SWAP1 POP CODESIZE DUP1 PUSH3 0x26E JUMP JUMPDEST PUSH1 0x1F NOT DUP3 AND SWAP1 DUP4 PUSH1 0x0 MSTORE PUSH1 0x20 PUSH1 0x0 KECCAK256 SWAP2 PUSH1 0x0 JUMPDEST DUP2 DUP2 LT PUSH3 0x449 JUMPI POP SWAP6 DUP4 PUSH1 0x1 SWAP6 SWAP7 SWAP8 LT PUSH3 0x430 JUMPI JUMPDEST POP POP POP DUP2 SHL ADD DUP2 SSTORE PUSH3 0x282 JUMP JUMPDEST ADD MLOAD PUSH1 0x0 NOT DUP4 DUP7 SHL PUSH1 0xF8 AND SHR NOT AND SWAP1 SSTORE CODESIZE DUP1 DUP1 PUSH3 0x422 JUMP JUMPDEST SWAP2 SWAP3 PUSH1 0x20 PUSH1 0x1 DUP2 SWAP3 DUP7 DUP12 ADD MLOAD DUP2 SSTORE ADD SWAP5 ADD SWAP3 ADD PUSH3 0x40B JUMP JUMPDEST PUSH3 0x491 SWAP1 DUP4 PUSH1 0x0 MSTORE PUSH1 0x20 PUSH1 0x0 KECCAK256 PUSH1 0x1F DUP5 ADD PUSH1 0x5 SHR DUP2 ADD SWAP2 PUSH1 0x20 DUP6 LT PUSH3 0x3CB JUMPI PUSH1 0x1F ADD PUSH1 0x5 SHR ADD SWAP1 PUSH3 0x5BA JUMP JUMPDEST CODESIZE PUSH3 0x252 JUMP JUMPDEST PUSH1 0x40 MLOAD PUSH3 0x461BCD PUSH1 0xE5 SHL DUP2 MSTORE PUSH1 0x20 PUSH1 0x4 DUP3 ADD MSTORE PUSH1 0x18 PUSH1 0x24 DUP3 ADD MSTORE PUSH32 0x43616E6E6F7420736574206F776E657220746F207A65726F0000000000000000 PUSH1 0x44 DUP3 ADD MSTORE PUSH1 0x64 SWAP1 REVERT JUMPDEST PUSH1 0x0 DUP1 REVERT JUMPDEST PUSH1 0x40 MLOAD SWAP2 SWAP1 PUSH1 0x1F ADD PUSH1 0x1F NOT AND DUP3 ADD PUSH1 0x1 PUSH1 0x1 PUSH1 0x40 SHL SUB DUP2 GT DUP4 DUP3 LT OR PUSH3 0x3D6 JUMPI PUSH1 0x40 MSTORE JUMP JUMPDEST MLOAD SWAP1 PUSH1 0x1 PUSH1 0x1 PUSH1 0xA0 SHL SUB DUP3 AND DUP3 SUB PUSH3 0x4DD JUMPI JUMP JUMPDEST SWAP2 SWAP3 SWAP2 SWAP1 PUSH1 0x1 PUSH1 0x1 PUSH1 0x40 SHL SUB DUP2 GT PUSH3 0x3D6 JUMPI PUSH1 0x20 SWAP2 PUSH3 0x547 PUSH1 0x1F DUP4 ADD PUSH1 0x1F NOT AND DUP5 ADD PUSH3 0x4E2 JUMP JUMPDEST SWAP5 DUP3 DUP7 MSTORE DUP3 DUP3 ADD GT PUSH3 0x4DD JUMPI PUSH1 0x0 JUMPDEST DUP3 DUP2 LT PUSH3 0x56B JUMPI POP POP SWAP1 PUSH1 0x0 SWAP2 DUP5 ADD ADD MSTORE JUMP JUMPDEST DUP2 DUP2 ADD MLOAD DUP7 DUP3 ADD DUP6 ADD MSTORE DUP4 ADD PUSH3 0x557 JUMP JUMPDEST SWAP1 PUSH1 0x1 DUP3 DUP2 SHR SWAP3 AND DUP1 ISZERO PUSH3 0x5AF JUMPI JUMPDEST PUSH1 0x20 DUP4 LT EQ PUSH3 0x599 JUMPI JUMP JUMPDEST PUSH4 0x4E487B71 PUSH1 0xE0 SHL PUSH1 0x0 MSTORE PUSH1 0x22 PUSH1 0x4 MSTORE PUSH1 0x24 PUSH1 0x0 REVERT JUMPDEST SWAP2 PUSH1 0x7F AND SWAP2 PUSH3 0x58D JUMP JUMPDEST DUP2 DUP2 LT PUSH3 0x5C6 JUMPI POP POP JUMP JUMPDEST PUSH1 0x0 DUP2 SSTORE PUSH1 0x1 ADD PUSH3 0x5BA JUMP INVALID PUSH1 0x80 PUSH1 0x40 MSTORE PUSH1 0x4 CALLDATASIZE LT ISZERO PUSH3 0x1D JUMPI JUMPDEST CALLDATASIZE ISZERO PUSH3 0x1B JUMPI PUSH1 0x0 DUP1 REVERT JUMPDEST STOP JUMPDEST PUSH1 0x0 CALLDATALOAD PUSH1 0xE0 SHR DUP1 PUSH4 0x89EA02E EQ PUSH3 0x2DA JUMPI DUP1 PUSH4 0x9C1BA2E EQ PUSH3 0x2D4 JUMPI DUP1 PUSH4 0xCA76175 EQ PUSH3 0x2CE JUMPI DUP1 PUSH4 0x1243BCC3 EQ PUSH3 0x2C8 JUMPI DUP1 PUSH4 0x1AA46F59 EQ PUSH3 0x2C2 JUMPI DUP1 PUSH4 0x24B93E3E EQ PUSH3 0x2BC JUMPI DUP1 PUSH4 0x277E2213 EQ PUSH3 0x2B6 JUMPI DUP1 PUSH4 0x2FC2A7B9 EQ PUSH3 0x2B0 JUMPI DUP1 PUSH4 0x338CDCA1 EQ PUSH3 0x2AA JUMPI DUP1 PUSH4 0x381FC4B5 EQ PUSH3 0x2A4 JUMPI DUP1 PUSH4 0x3944EA3A EQ PUSH3 0x29E JUMPI DUP1 PUSH4 0x3F678E11 EQ PUSH3 0x298 JUMPI DUP1 PUSH4 0x43CD3D86 EQ PUSH3 0x292 JUMPI DUP1 PUSH4 0x4585E33B EQ PUSH3 0x28C JUMPI DUP1 PUSH4 0x48802B92 EQ PUSH3 0x286 JUMPI DUP1 PUSH4 0x48BD6F05 EQ PUSH3 0x280 JUMPI DUP1 PUSH4 0x4B0795A8 EQ PUSH3 0x27A JUMPI DUP1 PUSH4 0x688ECFD1 EQ PUSH3 0x274 JUMPI DUP1 PUSH4 0x6BAA48FE EQ PUSH3 0x26E JUMPI DUP1 PUSH4 0x6E04FF0D EQ PUSH3 0x268 JUMPI DUP1 PUSH4 0x6E74336B EQ PUSH3 0x262 JUMPI DUP1 PUSH4 0x79BA5097 EQ PUSH3 0x25C JUMPI DUP1 PUSH4 0x7B103999 EQ PUSH3 0x256 JUMPI DUP1 PUSH4 0x8B7AFE2E EQ PUSH3 0x250 JUMPI DUP1 PUSH4 0x8D7E6D2D EQ PUSH3 0x24A JUMPI DUP1 PUSH4 0x8DA5CB5B EQ PUSH3 0x244 JUMPI DUP1 PUSH4 0xA3097139 EQ PUSH3 0x23E JUMPI DUP1 PUSH4 0xA3D3C0D2 EQ PUSH3 0x238 JUMPI DUP1 PUSH4 0xB1E21749 EQ PUSH3 0x232 JUMPI DUP1 PUSH4 0xBEF3A2F0 EQ PUSH3 0x22C JUMPI DUP1 PUSH4 0xC5E14688 EQ PUSH3 0x226 JUMPI DUP1 PUSH4 0xD2AA789F EQ PUSH3 0x220 JUMPI DUP1 PUSH4 0xD5F39488 EQ PUSH3 0x21A JUMPI DUP1 PUSH4 0xD811FCF0 EQ PUSH3 0x214 JUMPI DUP1 PUSH4 0xEBF14A55 EQ PUSH3 0x20E JUMPI DUP1 PUSH4 0xF2FDE38B EQ PUSH3 0x208 JUMPI DUP1 PUSH4 0xF68016B7 EQ PUSH3 0x202 JUMPI DUP1 PUSH4 0xFD2C80AE EQ PUSH3 0x1FC JUMPI PUSH4 0xFFFEB84E SUB PUSH3 0xF JUMPI PUSH3 0x188C JUMP JUMPDEST PUSH3 0x186C JUMP JUMPDEST PUSH3 0x1846 JUMP JUMPDEST PUSH3 0x176D JUMP JUMPDEST PUSH3 0x1721 JUMP JUMPDEST PUSH3 0x16F5 JUMP JUMPDEST PUSH3 0x16CC JUMP JUMPDEST PUSH3 0x16AC JUMP JUMPDEST PUSH3 0x1602 JUMP JUMPDEST PUSH3 0x154D JUMP JUMPDEST PUSH3 0x152D JUMP JUMPDEST PUSH3 0x150D JUMP JUMPDEST PUSH3 0x14ED JUMP JUMPDEST PUSH3 0x14C4 JUMP JUMPDEST PUSH3 0x1248 JUMP JUMPDEST PUSH3 0x11F4 JUMP JUMPDEST PUSH3 0x11AE JUMP JUMPDEST PUSH3 0x10CA JUMP JUMPDEST PUSH3 0x10AA JUMP JUMPDEST PUSH3 0x102C JUMP JUMPDEST PUSH3 0x1003 JUMP JUMPDEST PUSH3 0xF4E JUMP JUMPDEST PUSH3 0xE99 JUMP JUMPDEST PUSH3 0xE79 JUMP JUMPDEST PUSH3 0xE59 JUMP JUMPDEST PUSH3 0xDBE JUMP JUMPDEST PUSH3 0xD4F JUMP JUMPDEST PUSH3 0xC19 JUMP JUMPDEST PUSH3 0xB64 JUMP JUMPDEST PUSH3 0xB44 JUMP JUMPDEST PUSH3 0xA51 JUMP JUMPDEST PUSH3 0xA28 JUMP JUMPDEST PUSH3 0x9B8 JUMP JUMPDEST PUSH3 0x716 JUMP JUMPDEST PUSH3 0x6F6 JUMP JUMPDEST PUSH3 0x6CD JUMP JUMPDEST PUSH3 0x416 JUMP JUMPDEST PUSH3 0x311 JUMP JUMPDEST PUSH3 0x2F1 JUMP JUMPDEST PUSH1 0x0 SWAP2 SUB SLT PUSH3 0x2EC JUMPI JUMP JUMPDEST PUSH1 0x0 DUP1 REVERT JUMPDEST CALLVALUE PUSH3 0x2EC JUMPI PUSH1 0x0 CALLDATASIZE PUSH1 0x3 NOT ADD SLT PUSH3 0x2EC JUMPI PUSH1 0x20 PUSH1 0x10 SLOAD PUSH1 0x40 MLOAD SWAP1 DUP2 MSTORE RETURN JUMPDEST CALLVALUE PUSH3 0x2EC JUMPI PUSH1 0x0 CALLDATASIZE PUSH1 0x3 NOT ADD SLT PUSH3 0x2EC JUMPI PUSH1 0x20 PUSH8 0xFFFFFFFFFFFFFFFF PUSH1 0x7 SLOAD AND PUSH1 0x40 MLOAD SWAP1 DUP2 MSTORE RETURN JUMPDEST PUSH4 0x4E487B71 PUSH1 0xE0 SHL PUSH1 0x0 MSTORE PUSH1 0x41 PUSH1 0x4 MSTORE PUSH1 0x24 PUSH1 0x0 REVERT JUMPDEST PUSH8 0xFFFFFFFFFFFFFFFF DUP2 GT PUSH3 0x366 JUMPI PUSH1 0x40 MSTORE JUMP JUMPDEST PUSH3 0x33B JUMP JUMPDEST PUSH1 0x40 DUP2 ADD SWAP1 DUP2 LT PUSH8 0xFFFFFFFFFFFFFFFF DUP3 GT OR PUSH3 0x366 JUMPI PUSH1 0x40 MSTORE JUMP JUMPDEST SWAP1 PUSH1 0x1F DUP1 NOT SWAP2 ADD AND DUP2 ADD SWAP1 DUP2 LT PUSH8 0xFFFFFFFFFFFFFFFF DUP3 GT OR PUSH3 0x366 JUMPI PUSH1 0x40 MSTORE JUMP JUMPDEST PUSH8 0xFFFFFFFFFFFFFFFF DUP2 GT PUSH3 0x366 JUMPI PUSH1 0x1F ADD PUSH1 0x1F NOT AND PUSH1 0x20 ADD SWAP1 JUMP JUMPDEST DUP2 PUSH1 0x1F DUP3 ADD SLT ISZERO PUSH3 0x2EC JUMPI DUP1 CALLDATALOAD SWAP1 PUSH3 0x3E3 DUP3 PUSH3 0x3AC JUMP JUMPDEST SWAP3 PUSH3 0x3F3 PUSH1 0x40 MLOAD SWAP5 DUP6 PUSH3 0x389 JUMP JUMPDEST DUP3 DUP5 MSTORE PUSH1 0x20 DUP4 DUP4 ADD ADD GT PUSH3 0x2EC JUMPI DUP2 PUSH1 0x0 SWAP3 PUSH1 0x20 DUP1 SWAP4 ADD DUP4 DUP7 ADD CALLDATACOPY DUP4 ADD ADD MSTORE SWAP1 JUMP JUMPDEST CALLVALUE PUSH3 0x2EC JUMPI PUSH1 0x60 CALLDATASIZE PUSH1 0x3 NOT ADD SLT PUSH3 0x2EC JUMPI PUSH1 0x4 CALLDATALOAD PUSH8 0xFFFFFFFFFFFFFFFF PUSH1 0x24 CALLDATALOAD DUP2 DUP2 GT PUSH3 0x2EC JUMPI PUSH3 0x450 SWAP1 CALLDATASIZE SWAP1 PUSH1 0x4 ADD PUSH3 0x3C9 JUMP JUMPDEST PUSH1 0x44 CALLDATALOAD DUP3 DUP2 GT PUSH3 0x2EC JUMPI PUSH3 0x46B SWAP1 CALLDATASIZE SWAP1 PUSH1 0x4 ADD PUSH3 0x3C9 JUMP JUMPDEST PUSH1 0x1 PUSH1 0x1 PUSH1 0xA0 SHL SUB PUSH32 0x0 AND CALLER SUB PUSH3 0x6A3 JUMPI DUP2 MLOAD SWAP3 DUP4 GT PUSH3 0x366 JUMPI DUP4 SWAP2 PUSH3 0x4C0 DUP5 PUSH3 0x4BA PUSH1 0x5 SLOAD PUSH3 0x7A9 JUMP JUMPDEST PUSH3 0x3213 JUMP JUMPDEST PUSH1 0x20 SWAP4 DUP5 PUSH1 0x1F DUP3 GT PUSH1 0x1 EQ PUSH3 0x5F3 JUMPI POP DUP1 PUSH32 0x7BAB0EC163B5C132C72B8146AC4D6E067E82ED58F8B131150AA71C9258911562 SWAP5 SWAP6 PUSH1 0x0 SWAP2 PUSH3 0x5E7 JUMPI JUMPDEST POP DUP2 PUSH1 0x1 SHL SWAP2 PUSH1 0x0 NOT SWAP1 PUSH1 0x3 SHL SHR NOT AND OR PUSH1 0x5 SSTORE JUMPDEST PUSH3 0x51E DUP3 PUSH3 0x3311 JUMP JUMPDEST PUSH3 0x534 PUSH3 0x52F PUSH1 0x12 SLOAD PUSH3 0x1C3D JUMP JUMPDEST PUSH1 0x12 SSTORE JUMP JUMPDEST PUSH1 0xFF PUSH3 0x543 PUSH1 0x18 SLOAD PUSH1 0xFF AND SWAP1 JUMP JUMPDEST AND PUSH3 0x5C3 JUMPI PUSH3 0x554 DUP2 PUSH3 0x342C JUMP JUMPDEST PUSH32 0x600739F161E06A7CDF9A4D034647E5C55E40454D12EB86768DEB9F55B1644CDB PUSH1 0x40 MLOAD DUP1 PUSH3 0x585 DUP5 DUP3 PUSH3 0x9A2 JUMP JUMPDEST SUB SWAP1 LOG1 PUSH3 0x599 PUSH1 0x40 MLOAD SWAP3 DUP4 SWAP3 DUP4 PUSH3 0x353B JUMP JUMPDEST SUB SWAP1 LOG2 PUSH32 0x85E1543BF2F84FE80C6BADBCE3648C8539AD1DF4D2B3D822938CA0538BE727E6 PUSH1 0x0 DUP1 LOG2 STOP JUMPDEST PUSH3 0x5D7 PUSH3 0x5D2 DUP3 PUSH3 0x3408 JUMP JUMPDEST PUSH1 0x1E SSTORE JUMP JUMPDEST PUSH3 0x5E1 PUSH3 0x35B0 JUMP JUMPDEST PUSH3 0x554 JUMP JUMPDEST SWAP1 POP DUP3 ADD MLOAD CODESIZE PUSH3 0x4FE JUMP JUMPDEST PUSH1 0x5 PUSH1 0x0 MSTORE SWAP5 PUSH1 0x1F NOT DUP3 AND PUSH32 0x36B6384B5ECA791C62761152D0C79BB0604C104A5FB6F4EB0703F3154BB3DB0 SWAP7 PUSH1 0x0 SWAP1 JUMPDEST DUP3 DUP3 LT PUSH3 0x686 JUMPI POP POP SWAP6 DUP3 SWAP2 PUSH1 0x1 SWAP4 PUSH32 0x7BAB0EC163B5C132C72B8146AC4D6E067E82ED58F8B131150AA71C9258911562 SWAP8 SWAP9 LT PUSH3 0x66C JUMPI JUMPDEST POP POP DUP2 SHL ADD PUSH1 0x5 SSTORE PUSH3 0x513 JUMP JUMPDEST DUP5 ADD MLOAD PUSH1 0x0 NOT PUSH1 0xF8 DUP5 PUSH1 0x3 SHL AND SHR NOT AND SWAP1 SSTORE CODESIZE DUP1 PUSH3 0x65E JUMP JUMPDEST DUP6 DUP5 ADD MLOAD DUP10 SSTORE PUSH1 0x1 SWAP1 SWAP9 ADD SWAP8 DUP10 SWAP8 POP SWAP3 DUP4 ADD SWAP3 SWAP1 DUP2 ADD SWAP1 PUSH3 0x624 JUMP JUMPDEST PUSH1 0x4 PUSH1 0x40 MLOAD PUSH32 0xC6829F8300000000000000000000000000000000000000000000000000000000 DUP2 MSTORE REVERT JUMPDEST CALLVALUE PUSH3 0x2EC JUMPI PUSH1 0x0 CALLDATASIZE PUSH1 0x3 NOT ADD SLT PUSH3 0x2EC JUMPI PUSH1 0x20 PUSH1 0x1 PUSH1 0x1 PUSH1 0xA0 SHL SUB PUSH1 0x9 SLOAD AND PUSH1 0x40 MLOAD SWAP1 DUP2 MSTORE RETURN JUMPDEST CALLVALUE PUSH3 0x2EC JUMPI PUSH1 0x0 CALLDATASIZE PUSH1 0x3 NOT ADD SLT PUSH3 0x2EC JUMPI PUSH1 0x20 PUSH1 0x4 SLOAD PUSH1 0x40 MLOAD SWAP1 DUP2 MSTORE RETURN JUMPDEST CALLVALUE PUSH3 0x2EC JUMPI PUSH1 0x0 CALLDATASIZE PUSH1 0x3 NOT ADD SLT PUSH3 0x2EC JUMPI PUSH1 0x20 PUSH1 0x7 SLOAD PUSH4 0xFFFFFFFF PUSH1 0x40 MLOAD SWAP2 PUSH1 0x40 SHR AND DUP2 MSTORE RETURN JUMPDEST PUSH4 0x4E487B71 PUSH1 0xE0 SHL PUSH1 0x0 MSTORE PUSH1 0x32 PUSH1 0x4 MSTORE PUSH1 0x24 PUSH1 0x0 REVERT JUMPDEST PUSH1 0x1C SLOAD DUP2 LT ISZERO PUSH3 0x78D JUMPI PUSH1 0x1C PUSH1 0x0 MSTORE PUSH32 0xE4562A10381DEC21B205ED72637E6B1B523BDD0E4D4D50AF5CD23DD4500A211 ADD SWAP1 PUSH1 0x0 SWAP1 JUMP JUMPDEST PUSH3 0x73F JUMP JUMPDEST PUSH4 0x4E487B71 PUSH1 0xE0 SHL PUSH1 0x0 MSTORE PUSH1 0x0 PUSH1 0x4 MSTORE PUSH1 0x24 PUSH1 0x0 REVERT JUMPDEST SWAP1 PUSH1 0x1 DUP3 DUP2 SHR SWAP3 AND DUP1 ISZERO PUSH3 0x7DB JUMPI JUMPDEST PUSH1 0x20 DUP4 LT EQ PUSH3 0x7C5 JUMPI JUMP JUMPDEST PUSH4 0x4E487B71 PUSH1 0xE0 SHL PUSH1 0x0 MSTORE PUSH1 0x22 PUSH1 0x4 MSTORE PUSH1 0x24 PUSH1 0x0 REVERT JUMPDEST SWAP2 PUSH1 0x7F AND SWAP2 PUSH3 0x7B9 JUMP JUMPDEST PUSH1 0x40 MLOAD SWAP1 PUSH1 0x0 DUP3 PUSH1 0x1D SLOAD SWAP2 PUSH3 0x7FC DUP4 PUSH3 0x7A9 JUMP JUMPDEST DUP1 DUP4 MSTORE SWAP3 PUSH1 0x1 SWAP1 DUP2 DUP2 AND SWAP1 DUP2 ISZERO PUSH3 0x88C JUMPI POP PUSH1 0x1 EQ PUSH3 0x829 JUMPI JUMPDEST POP PUSH3 0x827 SWAP3 POP SUB DUP4 PUSH3 0x389 JUMP JUMPDEST JUMP JUMPDEST PUSH1 0x1D PUSH1 0x0 SWAP1 DUP2 MSTORE SWAP2 POP PUSH32 0x6D4407E7BE21F808E6509AA9FA9143369579DD7D760FE20A2C09680FC146134F JUMPDEST DUP5 DUP4 LT PUSH3 0x870 JUMPI POP PUSH3 0x827 SWAP4 POP POP DUP2 ADD PUSH1 0x20 ADD CODESIZE PUSH3 0x818 JUMP JUMPDEST DUP2 SWAP4 POP SWAP1 DUP2 PUSH1 0x20 SWAP3 SLOAD DUP4 DUP6 DUP11 ADD ADD MSTORE ADD SWAP2 ADD SWAP1 SWAP2 DUP6 SWAP3 PUSH3 0x854 JUMP JUMPDEST SWAP1 POP PUSH1 0x20 SWAP3 POP PUSH3 0x827 SWAP5 SWAP2 POP PUSH1 0xFF NOT AND DUP3 DUP5 ADD MSTORE ISZERO ISZERO PUSH1 0x5 SHL DUP3 ADD ADD CODESIZE PUSH3 0x818 JUMP JUMPDEST SWAP1 PUSH1 0x40 MLOAD SWAP2 DUP3 PUSH1 0x0 DUP3 SLOAD SWAP3 PUSH3 0x8C6 DUP5 PUSH3 0x7A9 JUMP JUMPDEST SWAP1 DUP2 DUP5 MSTORE PUSH1 0x1 SWAP5 DUP6 DUP2 AND SWAP1 DUP2 PUSH1 0x0 EQ PUSH3 0x93B JUMPI POP PUSH1 0x1 EQ PUSH3 0x8F4 JUMPI JUMPDEST POP POP PUSH3 0x827 SWAP3 POP SUB DUP4 PUSH3 0x389 JUMP JUMPDEST SWAP1 SWAP4 SWAP2 POP PUSH1 0x0 MSTORE PUSH1 0x20 SWAP1 DUP2 PUSH1 0x0 KECCAK256 SWAP4 PUSH1 0x0 SWAP2 JUMPDEST DUP2 DUP4 LT PUSH3 0x922 JUMPI POP POP PUSH3 0x827 SWAP4 POP DUP3 ADD ADD CODESIZE DUP1 PUSH3 0x8E4 JUMP JUMPDEST DUP6 SLOAD DUP9 DUP5 ADD DUP6 ADD MSTORE SWAP5 DUP6 ADD SWAP5 DUP8 SWAP5 POP SWAP2 DUP4 ADD SWAP2 PUSH3 0x907 JUMP JUMPDEST SWAP2 POP POP PUSH3 0x827 SWAP5 POP PUSH1 0x20 SWAP3 POP PUSH1 0xFF NOT AND DUP3 DUP5 ADD MSTORE ISZERO ISZERO PUSH1 0x5 SHL DUP3 ADD ADD CODESIZE DUP1 PUSH3 0x8E4 JUMP JUMPDEST SWAP2 SWAP1 DUP3 MLOAD SWAP3 DUP4 DUP3 MSTORE PUSH1 0x0 JUMPDEST DUP5 DUP2 LT PUSH3 0x98D JUMPI POP POP DUP3 PUSH1 0x0 PUSH1 0x20 DUP1 SWAP5 SWAP6 DUP5 ADD ADD MSTORE PUSH1 0x1F DUP1 NOT SWAP2 ADD AND ADD ADD SWAP1 JUMP JUMPDEST PUSH1 0x20 DUP2 DUP4 ADD DUP2 ADD MLOAD DUP5 DUP4 ADD DUP3 ADD MSTORE ADD PUSH3 0x96B JUMP JUMPDEST SWAP1 PUSH1 0x20 PUSH3 0x9B5 SWAP3 DUP2 DUP2 MSTORE ADD SWAP1 PUSH3 0x960 JUMP JUMPDEST SWAP1 JUMP JUMPDEST CALLVALUE PUSH3 0x2EC JUMPI PUSH1 0x20 CALLDATASIZE PUSH1 0x3 NOT ADD SLT PUSH3 0x2EC JUMPI PUSH1 0x4 CALLDATALOAD PUSH1 0x1C SLOAD DUP2 LT ISZERO PUSH3 0x2EC JUMPI PUSH3 0xA0F PUSH3 0xA24 SWAP2 PUSH1 0x1C PUSH1 0x0 MSTORE PUSH32 0xE4562A10381DEC21B205ED72637E6B1B523BDD0E4D4D50AF5CD23DD4500A211 ADD PUSH3 0x8B0 JUMP JUMPDEST PUSH1 0x40 MLOAD SWAP2 DUP3 SWAP2 PUSH1 0x20 DUP4 MSTORE PUSH1 0x20 DUP4 ADD SWAP1 PUSH3 0x960 JUMP JUMPDEST SUB SWAP1 RETURN JUMPDEST CALLVALUE PUSH3 0x2EC JUMPI PUSH1 0x0 CALLDATASIZE PUSH1 0x3 NOT ADD SLT PUSH3 0x2EC JUMPI PUSH1 0x20 PUSH1 0x1 PUSH1 0x1 PUSH1 0xA0 SHL SUB PUSH1 0xB SLOAD AND PUSH1 0x40 MLOAD SWAP1 DUP2 MSTORE RETURN JUMPDEST CALLVALUE PUSH3 0x2EC JUMPI PUSH1 0x0 DUP1 PUSH1 0x3 NOT CALLDATASIZE ADD SLT PUSH3 0xB41 JUMPI PUSH1 0x40 MLOAD SWAP1 DUP1 PUSH1 0xD SLOAD PUSH3 0xA78 DUP2 PUSH3 0x7A9 JUMP JUMPDEST DUP1 DUP6 MSTORE SWAP2 PUSH1 0x1 SWAP2 DUP1 DUP4 AND SWAP1 DUP2 ISZERO PUSH3 0xB14 JUMPI POP PUSH1 0x1 EQ PUSH3 0xAB4 JUMPI JUMPDEST PUSH3 0xA24 DUP6 PUSH3 0xAA7 DUP2 DUP8 SUB DUP3 PUSH3 0x389 JUMP JUMPDEST PUSH1 0x40 MLOAD SWAP2 DUP3 SWAP2 DUP3 PUSH3 0x9A2 JUMP JUMPDEST SWAP3 POP PUSH1 0xD DUP4 MSTORE PUSH32 0xD7B6990105719101DABEB77144F2A3385C8033ACD3AF97E9423A695E81AD1EB5 JUMPDEST DUP3 DUP5 LT PUSH3 0xAFB JUMPI POP POP POP DUP2 ADD PUSH1 0x20 ADD PUSH3 0xAA7 DUP3 PUSH3 0xA24 PUSH3 0xA94 JUMP JUMPDEST DUP1 SLOAD PUSH1 0x20 DUP6 DUP8 ADD DUP2 ADD SWAP2 SWAP1 SWAP2 MSTORE SWAP1 SWAP4 ADD SWAP3 DUP2 ADD PUSH3 0xADC JUMP JUMPDEST DUP7 SWAP6 POP PUSH3 0xA24 SWAP7 SWAP4 POP PUSH1 0x20 SWAP3 POP PUSH3 0xAA7 SWAP5 SWAP2 POP PUSH1 0xFF NOT AND DUP3 DUP5 ADD MSTORE ISZERO ISZERO PUSH1 0x5 SHL DUP3 ADD ADD SWAP3 SWAP4 PUSH3 0xA94 JUMP JUMPDEST DUP1 REVERT JUMPDEST CALLVALUE PUSH3 0x2EC JUMPI PUSH1 0x0 CALLDATASIZE PUSH1 0x3 NOT ADD SLT PUSH3 0x2EC JUMPI PUSH1 0x20 PUSH1 0x12 SLOAD PUSH1 0x40 MLOAD SWAP1 DUP2 MSTORE RETURN JUMPDEST CALLVALUE PUSH3 0x2EC JUMPI PUSH1 0x0 DUP1 PUSH1 0x3 NOT CALLDATASIZE ADD SLT PUSH3 0xB41 JUMPI PUSH1 0x40 MLOAD SWAP1 DUP1 PUSH1 0x14 SLOAD PUSH3 0xB8B DUP2 PUSH3 0x7A9 JUMP JUMPDEST DUP1 DUP6 MSTORE SWAP2 PUSH1 0x1 SWAP2 DUP1 DUP4 AND SWAP1 DUP2 ISZERO PUSH3 0xB14 JUMPI POP PUSH1 0x1 EQ PUSH3 0xBB9 JUMPI PUSH3 0xA24 DUP6 PUSH3 0xAA7 DUP2 DUP8 SUB DUP3 PUSH3 0x389 JUMP JUMPDEST SWAP3 POP PUSH1 0x14 DUP4 MSTORE PUSH32 0xCE6D7B5282BD9A3661AE061FEED1DBDA4E52AB073B1F9285BE6E155D9C38D4EC JUMPDEST DUP3 DUP5 LT PUSH3 0xC00 JUMPI POP POP POP DUP2 ADD PUSH1 0x20 ADD PUSH3 0xAA7 DUP3 PUSH3 0xA24 PUSH3 0xA94 JUMP JUMPDEST DUP1 SLOAD PUSH1 0x20 DUP6 DUP8 ADD DUP2 ADD SWAP2 SWAP1 SWAP2 MSTORE SWAP1 SWAP4 ADD SWAP3 DUP2 ADD PUSH3 0xBE1 JUMP JUMPDEST CALLVALUE PUSH3 0x2EC JUMPI PUSH1 0x3 NOT PUSH1 0x20 CALLDATASIZE DUP3 ADD SLT PUSH3 0x2EC JUMPI PUSH1 0x4 CALLDATALOAD SWAP1 PUSH8 0xFFFFFFFFFFFFFFFF DUP3 GT PUSH3 0x2EC JUMPI PUSH2 0x140 SWAP1 DUP3 CALLDATASIZE SUB ADD SLT PUSH3 0x2EC JUMPI PUSH1 0x20 PUSH3 0xCC4 PUSH1 0x0 SWAP3 PUSH3 0xC88 PUSH3 0xC7C PUSH3 0xC7C PUSH1 0x1 PUSH1 0x1 PUSH1 0xA0 SHL SUB PUSH1 0xB SLOAD AND PUSH1 0x1 PUSH1 0x1 PUSH1 0xA0 SHL SUB AND SWAP1 JUMP JUMPDEST PUSH1 0x1 PUSH1 0x1 PUSH1 0xA0 SHL SUB AND SWAP1 JUMP JUMPDEST SWAP1 PUSH1 0x40 MLOAD SWAP5 DUP6 DUP1 SWAP5 DUP2 SWAP4 PUSH32 0x24380AA800000000000000000000000000000000000000000000000000000000 DUP4 MSTORE ADDRESS SWAP1 PUSH1 0x4 ADD PUSH1 0x4 DUP5 ADD PUSH3 0x1A47 JUMP JUMPDEST SUB SWAP3 GAS CALL DUP1 ISZERO PUSH3 0xD49 JUMPI PUSH3 0xCE3 SWAP2 PUSH1 0x0 SWAP2 PUSH3 0xD14 JUMPI JUMPDEST POP PUSH1 0xC SSTORE JUMP JUMPDEST PUSH1 0xC SLOAD PUSH1 0x40 MLOAD SWAP1 DUP2 MSTORE PUSH32 0x7623383A750B4166574A1B2DFF61440ED0DFA3708CBE620C58339CCA510D1AF9 SWAP1 PUSH1 0x20 SWAP1 LOG1 STOP JUMPDEST PUSH3 0xD3A SWAP2 POP PUSH1 0x20 RETURNDATASIZE DUP2 GT PUSH3 0xD41 JUMPI JUMPDEST PUSH3 0xD31 DUP2 DUP4 PUSH3 0x389 JUMP JUMPDEST DUP2 ADD SWAP1 PUSH3 0x19C0 JUMP JUMPDEST CODESIZE PUSH3 0xCDD JUMP JUMPDEST POP RETURNDATASIZE PUSH3 0xD25 JUMP JUMPDEST PUSH3 0x19B4 JUMP JUMPDEST CALLVALUE PUSH3 0x2EC JUMPI PUSH1 0x0 CALLDATASIZE PUSH1 0x3 NOT ADD SLT PUSH3 0x2EC JUMPI PUSH1 0x20 PUSH1 0x17 SLOAD PUSH1 0x40 MLOAD SWAP1 DUP2 MSTORE RETURN JUMPDEST SWAP1 PUSH1 0x20 PUSH1 0x3 NOT DUP4 ADD SLT PUSH3 0x2EC JUMPI PUSH1 0x4 CALLDATALOAD PUSH8 0xFFFFFFFFFFFFFFFF SWAP3 DUP4 DUP3 GT PUSH3 0x2EC JUMPI DUP1 PUSH1 0x23 DUP4 ADD SLT ISZERO PUSH3 0x2EC JUMPI DUP2 PUSH1 0x4 ADD CALLDATALOAD SWAP4 DUP5 GT PUSH3 0x2EC JUMPI PUSH1 0x24 DUP5 DUP4 ADD ADD GT PUSH3 0x2EC JUMPI PUSH1 0x24 ADD SWAP2 SWAP1 JUMP JUMPDEST CALLVALUE PUSH3 0x2EC JUMPI PUSH3 0xDCF CALLDATASIZE PUSH3 0xD6F JUMP JUMPDEST POP POP PUSH1 0x1 PUSH1 0x1 PUSH1 0xA0 SHL SUB DUP1 PUSH1 0x0 SLOAD AND DUP1 CALLER EQ ISZERO DUP1 PUSH3 0xE4A JUMPI JUMPDEST DUP1 PUSH3 0xE3F JUMPI JUMPDEST PUSH3 0xDFF JUMPI PUSH3 0x1B PUSH3 0x1F3A JUMP JUMPDEST PUSH1 0x64 SWAP2 PUSH1 0xB SLOAD AND PUSH1 0x40 MLOAD SWAP2 PUSH32 0x426FBC7100000000000000000000000000000000000000000000000000000000 DUP4 MSTORE CALLER PUSH1 0x4 DUP5 ADD MSTORE PUSH1 0x24 DUP4 ADD MSTORE PUSH1 0x44 DUP3 ADD MSTORE REVERT JUMPDEST POP ADDRESS CALLER EQ ISZERO PUSH3 0xDF0 JUMP JUMPDEST POP DUP2 PUSH1 0xB SLOAD AND CALLER EQ ISZERO PUSH3 0xDE9 JUMP JUMPDEST CALLVALUE PUSH3 0x2EC JUMPI PUSH1 0x0 CALLDATASIZE PUSH1 0x3 NOT ADD SLT PUSH3 0x2EC JUMPI PUSH1 0x20 PUSH1 0x16 SLOAD PUSH1 0x40 MLOAD SWAP1 DUP2 MSTORE RETURN JUMPDEST CALLVALUE PUSH3 0x2EC JUMPI PUSH1 0x0 CALLDATASIZE PUSH1 0x3 NOT ADD SLT PUSH3 0x2EC JUMPI PUSH1 0x20 PUSH1 0x19 SLOAD PUSH1 0x40 MLOAD SWAP1 DUP2 MSTORE RETURN JUMPDEST CALLVALUE PUSH3 0x2EC JUMPI PUSH1 0x0 DUP1 PUSH1 0x3 NOT CALLDATASIZE ADD SLT PUSH3 0xB41 JUMPI PUSH1 0x40 MLOAD SWAP1 DUP1 PUSH1 0x15 SLOAD PUSH3 0xEC0 DUP2 PUSH3 0x7A9 JUMP JUMPDEST DUP1 DUP6 MSTORE SWAP2 PUSH1 0x1 SWAP2 DUP1 DUP4 AND SWAP1 DUP2 ISZERO PUSH3 0xB14 JUMPI POP PUSH1 0x1 EQ PUSH3 0xEEE JUMPI PUSH3 0xA24 DUP6 PUSH3 0xAA7 DUP2 DUP8 SUB DUP3 PUSH3 0x389 JUMP JUMPDEST SWAP3 POP PUSH1 0x15 DUP4 MSTORE PUSH32 0x55F448FDEA98C4D29EB340757EF0A66CD03DBB9538908A6A81D96026B71EC475 JUMPDEST DUP3 DUP5 LT PUSH3 0xF35 JUMPI POP POP POP DUP2 ADD PUSH1 0x20 ADD PUSH3 0xAA7 DUP3 PUSH3 0xA24 PUSH3 0xA94 JUMP JUMPDEST DUP1 SLOAD PUSH1 0x20 DUP6 DUP8 ADD DUP2 ADD SWAP2 SWAP1 SWAP2 MSTORE SWAP1 SWAP4 ADD SWAP3 DUP2 ADD PUSH3 0xF16 JUMP JUMPDEST CALLVALUE PUSH3 0x2EC JUMPI PUSH1 0x0 DUP1 PUSH1 0x3 NOT CALLDATASIZE ADD SLT PUSH3 0xB41 JUMPI PUSH1 0x40 MLOAD SWAP1 DUP1 PUSH1 0x3 SLOAD PUSH3 0xF75 DUP2 PUSH3 0x7A9 JUMP JUMPDEST DUP1 DUP6 MSTORE SWAP2 PUSH1 0x1 SWAP2 DUP1 DUP4 AND SWAP1 DUP2 ISZERO PUSH3 0xB14 JUMPI POP PUSH1 0x1 EQ PUSH3 0xFA3 JUMPI PUSH3 0xA24 DUP6 PUSH3 0xAA7 DUP2 DUP8 SUB DUP3 PUSH3 0x389 JUMP JUMPDEST SWAP3 POP PUSH1 0x3 DUP4 MSTORE PUSH32 0xC2575A0E9E593C00F959F8C92F12DB2869C3395A3B0502D05E2516446F71F85B JUMPDEST DUP3 DUP5 LT PUSH3 0xFEA JUMPI POP POP POP DUP2 ADD PUSH1 0x20 ADD PUSH3 0xAA7 DUP3 PUSH3 0xA24 PUSH3 0xA94 JUMP JUMPDEST DUP1 SLOAD PUSH1 0x20 DUP6 DUP8 ADD DUP2 ADD SWAP2 SWAP1 SWAP2 MSTORE SWAP1 SWAP4 ADD SWAP3 DUP2 ADD PUSH3 0xFCB JUMP JUMPDEST CALLVALUE PUSH3 0x2EC JUMPI PUSH1 0x0 CALLDATASIZE PUSH1 0x3 NOT ADD SLT PUSH3 0x2EC JUMPI PUSH1 0x20 PUSH1 0x1 PUSH1 0x1 PUSH1 0xA0 SHL SUB PUSH1 0xA SLOAD AND PUSH1 0x40 MLOAD SWAP1 DUP2 MSTORE RETURN JUMPDEST CALLVALUE PUSH3 0x2EC JUMPI PUSH3 0x103D CALLDATASIZE PUSH3 0xD6F JUMP JUMPDEST POP POP PUSH1 0x10 SLOAD TIMESTAMP SUB TIMESTAMP DUP2 GT PUSH3 0x10A4 JUMPI PUSH1 0x8 SLOAD LT PUSH1 0x40 MLOAD SWAP1 DUP2 MSTORE PUSH1 0x20 PUSH1 0x40 DUP2 DUP4 ADD MSTORE DUP2 PUSH1 0x60 SWAP2 DUP3 MLOAD SWAP1 DUP2 PUSH1 0x40 DUP5 ADD MSTORE PUSH1 0x0 JUMPDEST DUP3 DUP2 LT PUSH3 0x108E JUMPI POP POP PUSH1 0x0 DUP3 DUP3 ADD DUP5 ADD MSTORE PUSH1 0x1F ADD PUSH1 0x1F NOT AND DUP2 ADD SUB ADD SWAP1 RETURN JUMPDEST PUSH1 0x80 DUP2 ADD MLOAD DUP7 DUP3 ADD DUP7 ADD MSTORE DUP6 SWAP4 POP DUP2 ADD PUSH3 0x106E JUMP JUMPDEST PUSH3 0x1BCB JUMP JUMPDEST CALLVALUE PUSH3 0x2EC JUMPI PUSH1 0x0 CALLDATASIZE PUSH1 0x3 NOT ADD SLT PUSH3 0x2EC JUMPI PUSH1 0x20 PUSH1 0xF SLOAD PUSH1 0x40 MLOAD SWAP1 DUP2 MSTORE RETURN JUMPDEST CALLVALUE PUSH3 0x2EC JUMPI PUSH1 0x0 DUP1 PUSH1 0x3 NOT CALLDATASIZE ADD SLT PUSH3 0xB41 JUMPI PUSH1 0x1 PUSH1 0x1 PUSH1 0xA0 SHL SUB DUP1 PUSH1 0x1 SLOAD AND CALLER SUB PUSH3 0x116A JUMPI DUP2 SLOAD PUSH1 0x1 PUSH1 0x1 PUSH1 0xA0 SHL SUB AND PUSH1 0x0 DUP1 SLOAD PUSH20 0xFFFFFFFFFFFFFFFFFFFFFFFFFFFFFFFFFFFFFFFF NOT AND CALLER OR SWAP1 SSTORE SWAP1 PUSH3 0x1140 PUSH20 0xFFFFFFFFFFFFFFFFFFFFFFFFFFFFFFFFFFFFFFFF NOT PUSH1 0x1 SLOAD AND PUSH1 0x1 SSTORE JUMP JUMPDEST CALLER SWAP2 AND PUSH32 0x8BE0079C531659141344CD1FD0A4F28419497F9722A3DAAFE3B4186F6B6457E0 DUP4 DUP1 LOG3 DUP1 RETURN JUMPDEST PUSH1 0x64 PUSH1 0x40 MLOAD PUSH3 0x461BCD PUSH1 0xE5 SHL DUP2 MSTORE PUSH1 0x20 PUSH1 0x4 DUP3 ADD MSTORE PUSH1 0x16 PUSH1 0x24 DUP3 ADD MSTORE PUSH32 0x4D7573742062652070726F706F736564206F776E657200000000000000000000 PUSH1 0x44 DUP3 ADD MSTORE REVERT JUMPDEST CALLVALUE PUSH3 0x2EC JUMPI PUSH1 0x0 CALLDATASIZE PUSH1 0x3 NOT ADD SLT PUSH3 0x2EC JUMPI PUSH1 0x20 PUSH1 0x40 MLOAD PUSH1 0x1 PUSH1 0x1 PUSH1 0xA0 SHL SUB PUSH32 0x0 AND DUP2 MSTORE RETURN JUMPDEST CALLVALUE PUSH3 0x2EC JUMPI PUSH1 0x0 CALLDATASIZE PUSH1 0x3 NOT ADD SLT PUSH3 0x2EC JUMPI PUSH1 0x20 SELFBALANCE PUSH1 0x40 MLOAD SWAP1 DUP2 MSTORE RETURN JUMPDEST PUSH1 0x4 CALLDATALOAD SWAP1 PUSH12 0xFFFFFFFFFFFFFFFFFFFFFFFF DUP3 AND DUP3 SUB PUSH3 0x2EC JUMPI JUMP JUMPDEST CALLDATALOAD SWAP1 PUSH12 0xFFFFFFFFFFFFFFFFFFFFFFFF DUP3 AND DUP3 SUB PUSH3 0x2EC JUMPI JUMP JUMPDEST CALLVALUE PUSH3 0x2EC JUMPI PUSH1 0x20 CALLDATASIZE PUSH1 0x3 NOT ADD SLT PUSH3 0x2EC JUMPI PUSH3 0x1265 PUSH3 0x1212 JUMP JUMPDEST PUSH1 0x9 SLOAD PUSH1 0x1 PUSH1 0x1 PUSH1 0xA0 SHL SUB AND SWAP1 PUSH3 0x1285 PUSH1 0xA SLOAD PUSH1 0x1 PUSH1 0x1 PUSH1 0xA0 SHL SUB AND SWAP1 JUMP JUMPDEST SWAP2 PUSH1 0x40 MLOAD SWAP3 PUSH2 0x765 DUP1 DUP6 ADD SWAP2 DUP6 DUP4 LT PUSH8 0xFFFFFFFFFFFFFFFF DUP5 GT OR PUSH3 0x366 JUMPI DUP6 SWAP4 PUSH3 0x12E3 SWAP4 DUP7 SWAP4 PUSH3 0x368D DUP8 CODECOPY PUSH1 0x1 PUSH1 0x1 PUSH1 0xA0 SHL SUB SWAP2 DUP3 AND DUP2 MSTORE SWAP2 AND PUSH1 0x20 DUP3 ADD MSTORE PUSH12 0xFFFFFFFFFFFFFFFFFFFFFFFF SWAP1 SWAP2 AND PUSH1 0x40 DUP3 ADD MSTORE PUSH1 0x60 ADD SWAP1 JUMP JUMPDEST SUB PUSH1 0x0 SWAP3 DUP4 CREATE DUP1 ISZERO PUSH3 0xD49 JUMPI PUSH3 0x1398 SWAP2 PUSH3 0x1325 PUSH1 0x20 SWAP3 PUSH1 0x1 PUSH1 0x1 PUSH1 0xA0 SHL SUB AND PUSH20 0xFFFFFFFFFFFFFFFFFFFFFFFFFFFFFFFFFFFFFFFF NOT PUSH1 0xB SLOAD AND OR PUSH1 0xB SSTORE JUMP JUMPDEST PUSH3 0x1340 PUSH3 0xC7C PUSH3 0xC7C PUSH1 0x9 SLOAD PUSH1 0x1 PUSH1 0x1 PUSH1 0xA0 SHL SUB AND SWAP1 JUMP JUMPDEST PUSH3 0x1357 PUSH3 0xC7C PUSH1 0xB SLOAD PUSH1 0x1 PUSH1 0x1 PUSH1 0xA0 SHL SUB AND SWAP1 JUMP JUMPDEST DUP6 PUSH1 0x40 MLOAD DUP1 SWAP7 DUP2 SWAP6 DUP3 SWAP5 PUSH4 0x95EA7B3 PUSH1 0xE0 SHL DUP5 MSTORE PUSH1 0x4 DUP5 ADD SWAP1 SWAP3 SWAP2 PUSH12 0xFFFFFFFFFFFFFFFFFFFFFFFF PUSH1 0x20 SWAP2 PUSH1 0x1 PUSH1 0x1 PUSH1 0xA0 SHL SUB PUSH1 0x40 DUP6 ADD SWAP7 AND DUP5 MSTORE AND SWAP2 ADD MSTORE JUMP JUMPDEST SUB SWAP3 GAS CALL DUP1 ISZERO PUSH3 0xD49 JUMPI PUSH3 0x148F JUMPI JUMPDEST POP PUSH3 0x13C1 PUSH3 0xC7C PUSH1 0xB SLOAD PUSH1 0x1 PUSH1 0x1 PUSH1 0xA0 SHL SUB AND SWAP1 JUMP JUMPDEST DUP1 EXTCODESIZE ISZERO PUSH3 0x148B JUMPI PUSH1 0x40 MLOAD PUSH32 0x2302440800000000000000000000000000000000000000000000000000000000 DUP2 MSTORE ADDRESS PUSH1 0x4 DUP3 ADD MSTORE SWAP1 DUP3 SWAP1 DUP3 SWAP1 PUSH1 0x24 SWAP1 DUP3 SWAP1 DUP5 SWAP1 GAS CALL DUP1 ISZERO PUSH3 0xD49 JUMPI PUSH3 0x146D JUMPI JUMPDEST POP PUSH32 0x3583C1105FD29A46B4D92CEEAFF8BE03CBA58A11CCE44A3B7DA77BBC3798EDC4 PUSH3 0x1467 PUSH3 0x144D PUSH3 0xC7C PUSH1 0xB SLOAD PUSH1 0x1 PUSH1 0x1 PUSH1 0xA0 SHL SUB AND SWAP1 JUMP JUMPDEST PUSH1 0x40 MLOAD PUSH1 0x1 PUSH1 0x1 PUSH1 0xA0 SHL SUB SWAP1 SWAP2 AND DUP2 MSTORE SWAP1 DUP2 SWAP1 PUSH1 0x20 DUP3 ADD SWAP1 JUMP JUMPDEST SUB SWAP1 LOG1 DUP1 RETURN JUMPDEST DUP1 PUSH3 0x147D PUSH3 0x1484 SWAP3 PUSH3 0x351 JUMP JUMPDEST DUP1 PUSH3 0x2E0 JUMP JUMPDEST CODESIZE PUSH3 0x1410 JUMP JUMPDEST POP DUP1 REVERT JUMPDEST PUSH3 0x14B4 SWAP1 PUSH1 0x20 RETURNDATASIZE DUP2 GT PUSH3 0x14BC JUMPI JUMPDEST PUSH3 0x14AB DUP2 DUP4 PUSH3 0x389 JUMP JUMPDEST DUP2 ADD SWAP1 PUSH3 0x199A JUMP JUMPDEST POP CODESIZE PUSH3 0x13A9 JUMP JUMPDEST POP RETURNDATASIZE PUSH3 0x149F JUMP JUMPDEST CALLVALUE PUSH3 0x2EC JUMPI PUSH1 0x0 CALLDATASIZE PUSH1 0x3 NOT ADD SLT PUSH3 0x2EC JUMPI PUSH1 0x20 PUSH1 0x1 PUSH1 0x1 PUSH1 0xA0 SHL SUB PUSH1 0x0 SLOAD AND PUSH1 0x40 MLOAD SWAP1 DUP2 MSTORE RETURN JUMPDEST CALLVALUE PUSH3 0x2EC JUMPI PUSH1 0x0 CALLDATASIZE PUSH1 0x3 NOT ADD SLT PUSH3 0x2EC JUMPI PUSH1 0x20 PUSH1 0x1A SLOAD PUSH1 0x40 MLOAD SWAP1 DUP2 MSTORE RETURN JUMPDEST CALLVALUE PUSH3 0x2EC JUMPI PUSH1 0x0 CALLDATASIZE PUSH1 0x3 NOT ADD SLT PUSH3 0x2EC JUMPI PUSH1 0x20 PUSH1 0x11 SLOAD PUSH1 0x40 MLOAD SWAP1 DUP2 MSTORE RETURN JUMPDEST CALLVALUE PUSH3 0x2EC JUMPI PUSH1 0x0 CALLDATASIZE PUSH1 0x3 NOT ADD SLT PUSH3 0x2EC JUMPI PUSH1 0x20 PUSH1 0x13 SLOAD PUSH1 0x40 MLOAD SWAP1 DUP2 MSTORE RETURN JUMPDEST CALLVALUE PUSH3 0x2EC JUMPI PUSH1 0x0 DUP1 PUSH1 0x3 NOT CALLDATASIZE ADD SLT PUSH3 0xB41 JUMPI PUSH1 0x40 MLOAD SWAP1 DUP1 PUSH1 0x5 SLOAD PUSH3 0x1574 DUP2 PUSH3 0x7A9 JUMP JUMPDEST DUP1 DUP6 MSTORE SWAP2 PUSH1 0x1 SWAP2 DUP1 DUP4 AND SWAP1 DUP2 ISZERO PUSH3 0xB14 JUMPI POP PUSH1 0x1 EQ PUSH3 0x15A2 JUMPI PUSH3 0xA24 DUP6 PUSH3 0xAA7 DUP2 DUP8 SUB DUP3 PUSH3 0x389 JUMP JUMPDEST SWAP3 POP PUSH1 0x5 DUP4 MSTORE PUSH32 0x36B6384B5ECA791C62761152D0C79BB0604C104A5FB6F4EB0703F3154BB3DB0 JUMPDEST DUP3 DUP5 LT PUSH3 0x15E9 JUMPI POP POP POP DUP2 ADD PUSH1 0x20 ADD PUSH3 0xAA7 DUP3 PUSH3 0xA24 PUSH3 0xA94 JUMP JUMPDEST DUP1 SLOAD PUSH1 0x20 DUP6 DUP8 ADD DUP2 ADD SWAP2 SWAP1 SWAP2 MSTORE SWAP1 SWAP4 ADD SWAP3 DUP2 ADD PUSH3 0x15CA JUMP JUMPDEST CALLVALUE PUSH3 0x2EC JUMPI PUSH1 0x20 CALLDATASIZE PUSH1 0x3 NOT ADD SLT PUSH3 0x2EC JUMPI PUSH1 0x0 PUSH1 0x20 PUSH3 0x167F PUSH3 0x1627 PUSH3 0x1212 JUMP JUMPDEST PUSH3 0x1631 PUSH3 0x1941 JUMP JUMPDEST PUSH1 0x1 PUSH1 0x1 PUSH1 0xA0 SHL SUB PUSH1 0x9 SLOAD AND SWAP1 PUSH1 0x40 MLOAD SWAP5 DUP6 DUP1 SWAP5 DUP2 SWAP4 PUSH4 0x95EA7B3 PUSH1 0xE0 SHL DUP4 MSTORE CALLER PUSH1 0x4 DUP5 ADD SWAP1 SWAP3 SWAP2 PUSH12 0xFFFFFFFFFFFFFFFFFFFFFFFF PUSH1 0x20 SWAP2 PUSH1 0x1 PUSH1 0x1 PUSH1 0xA0 SHL SUB PUSH1 0x40 DUP6 ADD SWAP7 AND DUP5 MSTORE AND SWAP2 ADD MSTORE JUMP JUMPDEST SUB SWAP3 GAS CALL DUP1 ISZERO PUSH3 0xD49 JUMPI PUSH3 0x1691 JUMPI STOP JUMPDEST PUSH3 0x1B SWAP1 PUSH1 0x20 RETURNDATASIZE DUP2 GT PUSH3 0x14BC JUMPI PUSH3 0x14AB DUP2 DUP4 PUSH3 0x389 JUMP JUMPDEST CALLVALUE PUSH3 0x2EC JUMPI PUSH1 0x0 CALLDATASIZE PUSH1 0x3 NOT ADD SLT PUSH3 0x2EC JUMPI PUSH1 0x20 PUSH1 0xC SLOAD PUSH1 0x40 MLOAD SWAP1 DUP2 MSTORE RETURN JUMPDEST CALLVALUE PUSH3 0x2EC JUMPI PUSH1 0x0 CALLDATASIZE PUSH1 0x3 NOT ADD SLT PUSH3 0x2EC JUMPI PUSH1 0x20 PUSH1 0x1 PUSH1 0x1 PUSH1 0xA0 SHL SUB PUSH1 0x2 SLOAD AND PUSH1 0x40 MLOAD SWAP1 DUP2 MSTORE RETURN JUMPDEST CALLVALUE PUSH3 0x2EC JUMPI PUSH1 0x0 CALLDATASIZE PUSH1 0x3 NOT ADD SLT PUSH3 0x2EC JUMPI PUSH1 0x20 PUSH1 0x1 PUSH1 0x1 PUSH1 0xA0 SHL SUB PUSH1 0x18 SLOAD PUSH1 0x8 SHR AND PUSH1 0x40 MLOAD SWAP1 DUP2 MSTORE RETURN JUMPDEST CALLVALUE PUSH3 0x2EC JUMPI PUSH1 0x0 CALLDATASIZE PUSH1 0x3 NOT ADD SLT PUSH3 0x2EC JUMPI PUSH1 0x20 PUSH1 0x1B SLOAD PUSH1 0x40 MLOAD SWAP1 DUP2 MSTORE RETURN JUMPDEST PUSH1 0x4 CALLDATALOAD SWAP1 PUSH1 0x1 PUSH1 0x1 PUSH1 0xA0 SHL SUB DUP3 AND DUP3 SUB PUSH3 0x2EC JUMPI JUMP JUMPDEST CALLDATALOAD SWAP1 PUSH1 0x1 PUSH1 0x1 PUSH1 0xA0 SHL SUB DUP3 AND DUP3 SUB PUSH3 0x2EC JUMPI JUMP JUMPDEST CALLVALUE PUSH3 0x2EC JUMPI PUSH1 0x20 CALLDATASIZE PUSH1 0x3 NOT ADD SLT PUSH3 0x2EC JUMPI PUSH1 0x1 PUSH1 0x1 PUSH1 0xA0 SHL SUB PUSH3 0x1792 PUSH3 0x1741 JUMP JUMPDEST PUSH3 0x179C PUSH3 0x1941 JUMP JUMPDEST AND CALLER DUP2 EQ PUSH3 0x1802 JUMPI DUP1 PUSH20 0xFFFFFFFFFFFFFFFFFFFFFFFFFFFFFFFFFFFFFFFF NOT PUSH1 0x1 SLOAD AND OR PUSH1 0x1 SSTORE PUSH3 0x17DB PUSH3 0xC7C PUSH1 0x0 SLOAD PUSH1 0x1 PUSH1 0x1 PUSH1 0xA0 SHL SUB AND SWAP1 JUMP JUMPDEST PUSH32 0xED8889F560326EB138920D842192F0EB3DD22B4F139C87A2C57538E05BAE1278 PUSH1 0x0 DUP1 LOG3 STOP JUMPDEST PUSH1 0x64 PUSH1 0x40 MLOAD PUSH3 0x461BCD PUSH1 0xE5 SHL DUP2 MSTORE PUSH1 0x20 PUSH1 0x4 DUP3 ADD MSTORE PUSH1 0x17 PUSH1 0x24 DUP3 ADD MSTORE PUSH32 0x43616E6E6F74207472616E7366657220746F2073656C66000000000000000000 PUSH1 0x44 DUP3 ADD MSTORE REVERT JUMPDEST CALLVALUE PUSH3 0x2EC JUMPI PUSH1 0x0 CALLDATASIZE PUSH1 0x3 NOT ADD SLT PUSH3 0x2EC JUMPI PUSH1 0x20 PUSH4 0xFFFFFFFF PUSH1 0xE SLOAD AND PUSH1 0x40 MLOAD SWAP1 DUP2 MSTORE RETURN JUMPDEST CALLVALUE PUSH3 0x2EC JUMPI PUSH1 0x0 CALLDATASIZE PUSH1 0x3 NOT ADD SLT PUSH3 0x2EC JUMPI PUSH1 0x20 PUSH1 0x8 SLOAD PUSH1 0x40 MLOAD SWAP1 DUP2 MSTORE RETURN JUMPDEST CALLVALUE PUSH3 0x2EC JUMPI PUSH1 0x0 DUP1 PUSH1 0x3 NOT CALLDATASIZE ADD SLT PUSH3 0xB41 JUMPI PUSH1 0x40 MLOAD SWAP1 DUP1 PUSH1 0x6 SLOAD PUSH3 0x18B3 DUP2 PUSH3 0x7A9 JUMP JUMPDEST DUP1 DUP6 MSTORE SWAP2 PUSH1 0x1 SWAP2 DUP1 DUP4 AND SWAP1 DUP2 ISZERO PUSH3 0xB14 JUMPI POP PUSH1 0x1 EQ PUSH3 0x18E1 JUMPI PUSH3 0xA24 DUP6 PUSH3 0xAA7 DUP2 DUP8 SUB DUP3 PUSH3 0x389 JUMP JUMPDEST SWAP3 POP PUSH1 0x6 DUP4 MSTORE PUSH32 0xF652222313E28459528D920B65115C16C04F3EFC82AAEDC97BE59F3F377C0D3F JUMPDEST DUP3 DUP5 LT PUSH3 0x1928 JUMPI POP POP POP DUP2 ADD PUSH1 0x20 ADD PUSH3 0xAA7 DUP3 PUSH3 0xA24 PUSH3 0xA94 JUMP JUMPDEST DUP1 SLOAD PUSH1 0x20 DUP6 DUP8 ADD DUP2 ADD SWAP2 SWAP1 SWAP2 MSTORE SWAP1 SWAP4 ADD SWAP3 DUP2 ADD PUSH3 0x1909 JUMP JUMPDEST PUSH1 0x1 PUSH1 0x1 PUSH1 0xA0 SHL SUB PUSH1 0x0 SLOAD AND CALLER SUB PUSH3 0x1956 JUMPI JUMP JUMPDEST PUSH1 0x64 PUSH1 0x40 MLOAD PUSH3 0x461BCD PUSH1 0xE5 SHL DUP2 MSTORE PUSH1 0x20 PUSH1 0x4 DUP3 ADD MSTORE PUSH1 0x16 PUSH1 0x24 DUP3 ADD MSTORE PUSH32 0x4F6E6C792063616C6C61626C65206279206F776E657200000000000000000000 PUSH1 0x44 DUP3 ADD MSTORE REVERT JUMPDEST SWAP1 DUP2 PUSH1 0x20 SWAP2 SUB SLT PUSH3 0x2EC JUMPI MLOAD DUP1 ISZERO ISZERO DUP2 SUB PUSH3 0x2EC JUMPI SWAP1 JUMP JUMPDEST PUSH1 0x40 MLOAD RETURNDATASIZE PUSH1 0x0 DUP3 RETURNDATACOPY RETURNDATASIZE SWAP1 REVERT JUMPDEST SWAP1 DUP2 PUSH1 0x20 SWAP2 SUB SLT PUSH3 0x2EC JUMPI MLOAD SWAP1 JUMP JUMPDEST SWAP1 CALLDATALOAD PUSH1 0x1E NOT DUP3 CALLDATASIZE SUB ADD DUP2 SLT ISZERO PUSH3 0x2EC JUMPI ADD PUSH1 0x20 DUP2 CALLDATALOAD SWAP2 ADD SWAP2 PUSH8 0xFFFFFFFFFFFFFFFF DUP3 GT PUSH3 0x2EC JUMPI DUP2 CALLDATASIZE SUB DUP4 SGT PUSH3 0x2EC JUMPI JUMP JUMPDEST SWAP1 DUP1 PUSH1 0x20 SWAP4 SWAP3 DUP2 DUP5 MSTORE DUP5 DUP5 ADD CALLDATACOPY PUSH1 0x0 DUP3 DUP3 ADD DUP5 ADD MSTORE PUSH1 0x1F ADD PUSH1 0x1F NOT AND ADD ADD SWAP1 JUMP JUMPDEST CALLDATALOAD SWAP1 PUSH4 0xFFFFFFFF DUP3 AND DUP3 SUB PUSH3 0x2EC JUMPI JUMP JUMPDEST CALLDATALOAD SWAP1 PUSH1 0xFF DUP3 AND DUP3 SUB PUSH3 0x2EC JUMPI JUMP JUMPDEST SWAP3 SWAP2 PUSH1 0x20 PUSH3 0x827 SWAP3 PUSH1 0x40 DUP7 MSTORE PUSH3 0x1BBB PUSH3 0x1BA5 PUSH3 0x1A89 PUSH3 0x1B9D DUP10 PUSH3 0x1A71 DUP7 DUP1 PUSH3 0x19D0 JUMP JUMPDEST SWAP4 SWAP1 PUSH2 0x140 SWAP5 DUP6 PUSH1 0x40 DUP6 ADD MSTORE PUSH2 0x180 DUP5 ADD SWAP2 PUSH3 0x1A05 JUMP JUMPDEST SWAP3 PUSH3 0x1B56 PUSH3 0x1AB5 PUSH3 0x1AA0 DUP11 DUP11 ADD DUP11 PUSH3 0x19D0 JUMP JUMPDEST PUSH1 0x3F NOT DUP7 DUP10 SUB DUP2 ADD PUSH1 0x60 DUP9 ADD MSTORE SWAP8 SWAP2 PUSH3 0x1A05 JUMP JUMPDEST PUSH3 0x1AD7 PUSH3 0x1AC7 PUSH1 0x40 DUP12 ADD PUSH3 0x1758 JUMP JUMPDEST PUSH1 0x1 PUSH1 0x1 PUSH1 0xA0 SHL SUB AND PUSH1 0x80 DUP7 ADD MSTORE JUMP JUMPDEST PUSH3 0x1AF6 PUSH3 0x1AE9 PUSH1 0x60 DUP12 ADD PUSH3 0x1A26 JUMP JUMPDEST PUSH4 0xFFFFFFFF AND PUSH1 0xA0 DUP7 ADD MSTORE JUMP JUMPDEST PUSH3 0x1B18 PUSH3 0x1B08 PUSH1 0x80 DUP12 ADD PUSH3 0x1758 JUMP JUMPDEST PUSH1 0x1 PUSH1 0x1 PUSH1 0xA0 SHL SUB AND PUSH1 0xC0 DUP7 ADD MSTORE JUMP JUMPDEST PUSH3 0x1B34 PUSH3 0x1B2A PUSH1 0xA0 DUP12 ADD PUSH3 0x1A38 JUMP JUMPDEST PUSH1 0xFF AND PUSH1 0xE0 DUP7 ADD MSTORE JUMP JUMPDEST PUSH3 0x1B43 PUSH1 0xC0 DUP11 ADD DUP11 PUSH3 0x19D0 JUMP JUMPDEST DUP6 DUP4 SUB DUP9 ADD PUSH2 0x100 SWAP7 DUP8 ADD MSTORE SWAP1 PUSH3 0x1A05 JUMP JUMPDEST SWAP4 DUP13 PUSH3 0x1B8D PUSH3 0x1B83 PUSH3 0x1B6F PUSH1 0xE0 DUP13 ADD DUP13 PUSH3 0x19D0 JUMP JUMPDEST PUSH2 0x120 SWAP10 SWAP2 DUP7 DUP7 DUP5 SUB ADD DUP12 DUP8 ADD MSTORE PUSH3 0x1A05 JUMP JUMPDEST SWAP5 DUP11 ADD DUP11 PUSH3 0x19D0 JUMP JUMPDEST SWAP4 SWAP1 SWAP3 DUP3 DUP7 SUB ADD SWAP2 ADD MSTORE PUSH3 0x1A05 JUMP JUMPDEST SWAP4 ADD PUSH3 0x122E JUMP JUMPDEST PUSH12 0xFFFFFFFFFFFFFFFFFFFFFFFF AND PUSH2 0x160 DUP9 ADD MSTORE JUMP JUMPDEST SWAP5 ADD SWAP1 PUSH1 0x1 PUSH1 0x1 PUSH1 0xA0 SHL SUB AND SWAP1 MSTORE JUMP JUMPDEST PUSH4 0x4E487B71 PUSH1 0xE0 SHL PUSH1 0x0 MSTORE PUSH1 0x11 PUSH1 0x4 MSTORE PUSH1 0x24 PUSH1 0x0 REVERT JUMPDEST PUSH1 0x1F NOT DUP2 ADD SWAP2 SWAP1 DUP3 GT PUSH3 0x10A4 JUMPI JUMP JUMPDEST ISZERO PUSH3 0x1BF9 JUMPI JUMP JUMPDEST PUSH1 0x64 PUSH1 0x40 MLOAD PUSH3 0x461BCD PUSH1 0xE5 SHL DUP2 MSTORE PUSH1 0x20 PUSH1 0x4 DUP3 ADD MSTORE PUSH1 0x15 PUSH1 0x24 DUP3 ADD MSTORE PUSH32 0x55706B656570206E6F7420726567697374657265640000000000000000000000 PUSH1 0x44 DUP3 ADD MSTORE REVERT JUMPDEST SWAP1 PUSH1 0x1 DUP3 ADD DUP1 SWAP3 GT PUSH3 0x10A4 JUMPI JUMP JUMPDEST SWAP1 PUSH1 0x20 DUP3 ADD DUP1 SWAP3 GT PUSH3 0x10A4 JUMPI JUMP JUMPDEST SWAP2 SWAP1 DUP3 ADD DUP1 SWAP3 GT PUSH3 0x10A4 JUMPI JUMP JUMPDEST PUSH1 0x40 MLOAD SWAP1 PUSH1 0xE0 DUP3 ADD DUP3 DUP2 LT PUSH8 0xFFFFFFFFFFFFFFFF DUP3 GT OR PUSH3 0x366 JUMPI PUSH1 0x40 MSTORE PUSH1 0x60 PUSH1 0xC0 DUP4 PUSH1 0x0 DUP2 MSTORE PUSH1 0x0 PUSH1 0x20 DUP3 ADD MSTORE PUSH1 0x0 PUSH1 0x40 DUP3 ADD MSTORE DUP3 DUP1 DUP3 ADD MSTORE DUP3 PUSH1 0x80 DUP3 ADD MSTORE DUP3 PUSH1 0xA0 DUP3 ADD MSTORE ADD MSTORE JUMP JUMPDEST PUSH1 0x1C SLOAD SWAP1 PUSH8 0xFFFFFFFFFFFFFFFF DUP3 GT PUSH3 0x366 JUMPI PUSH1 0x40 MLOAD SWAP2 PUSH1 0x20 PUSH3 0x1CDF DUP2 DUP4 PUSH1 0x5 SHL ADD DUP6 PUSH3 0x389 JUMP JUMPDEST DUP2 DUP5 MSTORE DUP1 DUP5 ADD SWAP1 PUSH1 0x1C PUSH1 0x0 MSTORE PUSH32 0xE4562A10381DEC21B205ED72637E6B1B523BDD0E4D4D50AF5CD23DD4500A211 PUSH1 0x0 SWAP3 JUMPDEST DUP5 DUP5 LT PUSH3 0x1D1F JUMPI POP POP POP POP POP JUMP JUMPDEST PUSH1 0x1 DUP4 DUP2 SWAP3 PUSH3 0x1D2F DUP6 PUSH3 0x8B0 JUMP JUMPDEST DUP2 MSTORE ADD SWAP3 ADD SWAP4 ADD SWAP3 SWAP1 PUSH3 0x1D10 JUMP JUMPDEST SWAP1 PUSH3 0x1D6E PUSH1 0x80 SWAP4 PUSH8 0xFFFFFFFFFFFFFFFF PUSH4 0xFFFFFFFF SWAP4 SWAP9 SWAP8 SWAP7 SWAP9 AND DUP5 MSTORE PUSH1 0xA0 PUSH1 0x20 DUP6 ADD MSTORE PUSH1 0xA0 DUP5 ADD SWAP1 PUSH3 0x960 JUMP JUMPDEST SWAP6 PUSH1 0x1 PUSH1 0x40 DUP5 ADD MSTORE AND PUSH1 0x60 DUP3 ADD MSTORE ADD MSTORE JUMP JUMPDEST PUSH1 0x0 SWAP1 PUSH1 0x3 RETURNDATASIZE GT PUSH3 0x1D8E JUMPI JUMP JUMPDEST SWAP1 POP PUSH1 0x4 PUSH1 0x0 DUP1 RETURNDATACOPY PUSH1 0x0 MLOAD PUSH1 0xE0 SHR SWAP1 JUMP JUMPDEST PUSH1 0x0 PUSH1 0x44 RETURNDATASIZE LT PUSH3 0x9B5 JUMPI PUSH1 0x40 MLOAD PUSH1 0x3 NOT SWAP2 RETURNDATASIZE DUP4 ADD PUSH1 0x4 DUP4 RETURNDATACOPY DUP2 MLOAD PUSH8 0xFFFFFFFFFFFFFFFF SWAP2 DUP3 DUP3 GT RETURNDATASIZE PUSH1 0x24 DUP5 ADD GT OR PUSH3 0x1E03 JUMPI DUP2 DUP5 ADD SWAP5 DUP6 MLOAD SWAP4 DUP5 GT PUSH3 0x1E0B JUMPI RETURNDATASIZE DUP6 ADD ADD PUSH1 0x20 DUP5 DUP8 ADD ADD GT PUSH3 0x1E03 JUMPI POP PUSH3 0x9B5 SWAP3 SWAP2 ADD PUSH1 0x20 ADD SWAP1 PUSH3 0x389 JUMP JUMPDEST SWAP5 SWAP4 POP POP POP POP JUMP JUMPDEST POP SWAP5 SWAP4 POP POP POP POP JUMP JUMPDEST RETURNDATASIZE ISZERO PUSH3 0x1E44 JUMPI RETURNDATASIZE SWAP1 PUSH3 0x1E28 DUP3 PUSH3 0x3AC JUMP JUMPDEST SWAP2 PUSH3 0x1E38 PUSH1 0x40 MLOAD SWAP4 DUP5 PUSH3 0x389 JUMP JUMPDEST DUP3 MSTORE RETURNDATASIZE PUSH1 0x0 PUSH1 0x20 DUP5 ADD RETURNDATACOPY JUMP JUMPDEST PUSH1 0x60 SWAP1 JUMP JUMPDEST SWAP1 PUSH8 0xFFFFFFFFFFFFFFFF SWAP1 SWAP5 SWAP4 SWAP3 SWAP5 AND DUP2 MSTORE PUSH1 0x20 SWAP4 PUSH1 0xA0 DUP6 DUP4 ADD MSTORE PUSH1 0x0 PUSH1 0x3 SLOAD SWAP6 PUSH3 0x1E75 DUP8 PUSH3 0x7A9 JUMP JUMPDEST SWAP1 DUP2 PUSH1 0xA0 DUP7 ADD MSTORE PUSH1 0x1 SWAP8 DUP9 DUP2 AND SWAP1 DUP2 PUSH1 0x0 EQ PUSH3 0x1F10 JUMPI POP PUSH1 0x1 EQ PUSH3 0x1EB1 JUMPI JUMPDEST POP POP PUSH1 0x40 DUP4 ADD SWAP6 SWAP1 SWAP6 MSTORE PUSH4 0xFFFFFFFF AND PUSH1 0x60 DUP3 ADD MSTORE PUSH1 0x80 ADD MSTORE JUMP JUMPDEST PUSH1 0x3 PUSH1 0x0 SWAP1 DUP2 MSTORE SWAP3 POP DUP8 PUSH32 0xC2575A0E9E593C00F959F8C92F12DB2869C3395A3B0502D05E2516446F71F85B JUMPDEST DUP4 DUP6 LT PUSH3 0x1EFA JUMPI POP POP POP POP DUP3 ADD PUSH1 0xC0 ADD DUP2 PUSH4 0xFFFFFFFF PUSH3 0x1E96 JUMP JUMPDEST DUP1 SLOAD DUP8 DUP7 ADD PUSH1 0xC0 ADD MSTORE SWAP4 DUP3 ADD SWAP4 DUP10 SWAP2 ADD PUSH3 0x1EDD JUMP JUMPDEST PUSH1 0xFF NOT AND PUSH1 0xC0 DUP8 DUP2 ADD SWAP2 SWAP1 SWAP2 MSTORE SWAP3 ISZERO ISZERO PUSH1 0x5 SHL DUP7 ADD SWAP1 SWAP3 ADD SWAP3 POP DUP4 SWAP2 POP PUSH4 0xFFFFFFFF SWAP1 POP PUSH3 0x1E96 JUMP JUMPDEST PUSH3 0x1F49 PUSH1 0xC SLOAD ISZERO ISZERO PUSH3 0x1BF1 JUMP JUMPDEST PUSH3 0x1F53 TIMESTAMP PUSH1 0x10 SSTORE JUMP JUMPDEST PUSH3 0x1F69 PUSH3 0x1F64 PUSH1 0x11 SLOAD PUSH3 0x1C3D JUMP JUMPDEST PUSH1 0x11 SSTORE JUMP JUMPDEST PUSH1 0x1B SLOAD PUSH1 0x1C SLOAD LT ISZERO PUSH3 0x2112 JUMPI PUSH1 0x7 SLOAD PUSH8 0xFFFFFFFFFFFFFFFF AND PUSH1 0x20 PUSH3 0x1F95 PUSH1 0xE SLOAD PUSH4 0xFFFFFFFF AND SWAP1 JUMP JUMPDEST PUSH1 0xF SLOAD SWAP3 PUSH3 0x1FB9 PUSH1 0x40 MLOAD SWAP5 DUP6 SWAP4 DUP5 SWAP4 PUSH4 0x230E93B1 PUSH1 0xE1 SHL DUP6 MSTORE PUSH1 0x4 DUP6 ADD PUSH3 0x1E49 JUMP JUMPDEST SUB DUP2 PUSH1 0x0 PUSH1 0x1 PUSH1 0x1 PUSH1 0xA0 SHL SUB PUSH32 0x0 AND GAS CALL PUSH1 0x0 SWAP2 DUP2 PUSH3 0x20ED JUMPI JUMPDEST POP PUSH3 0x20A6 JUMPI POP PUSH1 0x1 PUSH3 0x2006 PUSH3 0x1D80 JUMP JUMPDEST PUSH4 0x8C379A0 EQ PUSH3 0x204D JUMPI JUMPDEST PUSH3 0x2019 JUMPI JUMP JUMPDEST PUSH32 0x9C4BFA18304482256875C29FABB1A44A5ECD325F214EA17BAB8F31E869FAF4C8 PUSH3 0x2048 PUSH3 0xAA7 PUSH3 0x1E14 JUMP JUMPDEST SUB SWAP1 LOG1 JUMP JUMPDEST PUSH3 0x2057 PUSH3 0x1D9F JUMP JUMPDEST DUP1 PUSH3 0x2065 JUMPI JUMPDEST POP PUSH3 0x2012 JUMP JUMPDEST SWAP1 POP PUSH32 0x2BA61E3733E7AC99181C22307780F651EC8FD92FE661A84DFBE711710B2DC36C PUSH3 0x209C PUSH1 0x0 SWAP3 PUSH1 0x40 MLOAD SWAP2 DUP3 SWAP2 DUP3 PUSH3 0x9A2 JUMP JUMPDEST SUB SWAP1 LOG1 CODESIZE PUSH3 0x205E JUMP JUMPDEST PUSH3 0x20B0 DUP2 PUSH1 0x13 SSTORE JUMP JUMPDEST PUSH3 0x20C6 PUSH3 0x20C1 PUSH1 0x16 SLOAD PUSH3 0x1C3D JUMP JUMPDEST PUSH1 0x16 SSTORE JUMP JUMPDEST PUSH32 0x1131472297A800FEE664D1D89CFA8F7676FF07189ECC53F80BBB5F4969099DB8 PUSH1 0x0 DUP1 LOG2 JUMP JUMPDEST PUSH3 0x210A SWAP2 SWAP3 POP PUSH1 0x20 RETURNDATASIZE DUP2 GT PUSH3 0xD41 JUMPI PUSH3 0xD31 DUP2 DUP4 PUSH3 0x389 JUMP JUMPDEST SWAP1 CODESIZE PUSH3 0x1FF3 JUMP JUMPDEST PUSH3 0x2125 PUSH1 0x1 PUSH1 0xFF NOT PUSH1 0x18 SLOAD AND OR PUSH1 0x18 SSTORE JUMP JUMPDEST PUSH3 0x2163 PUSH3 0x2133 PUSH3 0x1C69 JUMP JUMPDEST PUSH3 0x2148 PUSH3 0x2141 PUSH3 0x7E6 JUMP JUMPDEST DUP3 PUSH3 0x25DF JUMP JUMPDEST PUSH3 0x215D PUSH3 0x2156 PUSH3 0x1CB4 JUMP JUMPDEST DUP3 PUSH3 0x2621 JUMP JUMPDEST PUSH3 0x23A2 JUMP JUMPDEST PUSH1 0x20 PUSH3 0x2179 PUSH1 0x7 SLOAD PUSH8 0xFFFFFFFFFFFFFFFF AND SWAP1 JUMP JUMPDEST SWAP2 PUSH3 0x218A PUSH1 0xE SLOAD PUSH4 0xFFFFFFFF AND SWAP1 JUMP JUMPDEST SWAP3 PUSH3 0x1FB9 PUSH1 0xF SLOAD PUSH1 0x40 MLOAD SWAP6 DUP7 SWAP5 DUP6 SWAP5 PUSH4 0x230E93B1 PUSH1 0xE1 SHL DUP7 MSTORE PUSH1 0x4 DUP7 ADD PUSH3 0x1D3E JUMP JUMPDEST PUSH1 0x40 MLOAD SWAP1 PUSH3 0x21BD DUP3 PUSH3 0x36C JUMP JUMPDEST PUSH1 0xC DUP3 MSTORE PUSH32 0x636F64654C6F636174696F6E0000000000000000000000000000000000000000 PUSH1 0x20 DUP4 ADD MSTORE JUMP JUMPDEST PUSH4 0x4E487B71 PUSH1 0xE0 SHL PUSH1 0x0 MSTORE PUSH1 0x21 PUSH1 0x4 MSTORE PUSH1 0x24 PUSH1 0x0 REVERT JUMPDEST PUSH1 0x3 GT ISZERO PUSH3 0x220A JUMPI JUMP JUMPDEST PUSH3 0x21E9 JUMP JUMPDEST PUSH1 0x40 MLOAD SWAP1 PUSH3 0x221F DUP3 PUSH3 0x36C JUMP JUMPDEST PUSH1 0x8 DUP3 MSTORE PUSH32 0x6C616E6775616765000000000000000000000000000000000000000000000000 PUSH1 0x20 DUP4 ADD MSTORE JUMP JUMPDEST PUSH1 0x1 GT ISZERO PUSH3 0x220A JUMPI JUMP JUMPDEST PUSH1 0x40 MLOAD SWAP1 PUSH3 0x2265 DUP3 PUSH3 0x36C JUMP JUMPDEST PUSH1 0x6 DUP3 MSTORE PUSH32 0x736F757263650000000000000000000000000000000000000000000000000000 PUSH1 0x20 DUP4 ADD MSTORE JUMP JUMPDEST PUSH1 0x40 MLOAD SWAP1 PUSH3 0x22A0 DUP3 PUSH3 0x36C JUMP JUMPDEST PUSH1 0x4 DUP3 MSTORE PUSH32 0x6172677300000000000000000000000000000000000000000000000000000000 PUSH1 0x20 DUP4 ADD MSTORE JUMP JUMPDEST PUSH1 0x0 NOT DUP2 EQ PUSH3 0x10A4 JUMPI PUSH1 0x1 ADD SWAP1 JUMP JUMPDEST DUP1 MLOAD DUP3 LT ISZERO PUSH3 0x78D JUMPI PUSH1 0x20 SWAP2 PUSH1 0x5 SHL ADD ADD SWAP1 JUMP JUMPDEST PUSH1 0x40 MLOAD SWAP1 PUSH3 0x2300 DUP3 PUSH3 0x36C JUMP JUMPDEST PUSH1 0xF DUP3 MSTORE PUSH32 0x736563726574734C6F636174696F6E0000000000000000000000000000000000 PUSH1 0x20 DUP4 ADD MSTORE JUMP JUMPDEST PUSH1 0x40 MLOAD SWAP1 PUSH3 0x233B DUP3 PUSH3 0x36C JUMP JUMPDEST PUSH1 0x7 DUP3 MSTORE PUSH32 0x7365637265747300000000000000000000000000000000000000000000000000 PUSH1 0x20 DUP4 ADD MSTORE JUMP JUMPDEST PUSH1 0x40 MLOAD SWAP1 PUSH3 0x2376 DUP3 PUSH3 0x36C JUMP JUMPDEST PUSH1 0x9 DUP3 MSTORE PUSH32 0x6279746573417267730000000000000000000000000000000000000000000000 PUSH1 0x20 DUP4 ADD MSTORE JUMP JUMPDEST PUSH3 0x23AC PUSH3 0x2675 JUMP JUMPDEST SWAP1 PUSH3 0x23C2 PUSH3 0x23BB PUSH3 0x21AE JUMP JUMPDEST DUP4 PUSH3 0x2E6A JUMP JUMPDEST PUSH3 0x23E5 DUP2 MLOAD PUSH3 0x23D3 DUP2 PUSH3 0x21FF JUMP JUMPDEST PUSH3 0x23DE DUP2 PUSH3 0x21FF JUMP JUMPDEST DUP4 PUSH3 0x2725 JUMP JUMPDEST PUSH3 0x23F3 PUSH3 0x23BB PUSH3 0x2210 JUMP JUMPDEST PUSH3 0x2412 PUSH1 0x40 DUP3 ADD MLOAD PUSH3 0x2407 DUP2 PUSH3 0x224B JUMP JUMPDEST PUSH3 0x23DE DUP2 PUSH3 0x224B JUMP JUMPDEST PUSH3 0x2420 PUSH3 0x23BB PUSH3 0x2256 JUMP JUMPDEST PUSH3 0x2430 PUSH1 0x60 DUP3 ADD MLOAD DUP4 PUSH3 0x2E6A JUMP JUMPDEST PUSH1 0xA0 DUP2 ADD DUP1 MLOAD MLOAD PUSH3 0x2576 JUMPI JUMPDEST POP PUSH1 0x80 DUP2 ADD SWAP1 DUP2 MLOAD MLOAD PUSH3 0x24C8 JUMPI JUMPDEST PUSH1 0xC0 SWAP2 POP ADD DUP1 MLOAD MLOAD PUSH3 0x2460 JUMPI JUMPDEST POP MLOAD MLOAD SWAP1 JUMP JUMPDEST SWAP2 PUSH3 0x246F PUSH3 0x23BB PUSH3 0x2367 JUMP JUMPDEST PUSH3 0x247A DUP3 PUSH3 0x2F02 JUMP JUMPDEST PUSH1 0x0 JUMPDEST DUP4 MLOAD DUP1 MLOAD DUP3 LT ISZERO PUSH3 0x24B2 JUMPI SWAP1 PUSH3 0x24A6 PUSH3 0x249E DUP3 PUSH3 0x24AC SWAP5 PUSH3 0x22DC JUMP JUMPDEST MLOAD DUP6 PUSH3 0x2D9B JUMP JUMPDEST PUSH3 0x22CC JUMP JUMPDEST PUSH3 0x247D JUMP JUMPDEST POP POP SWAP2 POP PUSH3 0x24C1 DUP2 PUSH3 0x2F9A JUMP JUMPDEST CODESIZE PUSH3 0x245A JUMP JUMPDEST PUSH1 0x20 DUP2 ADD DUP1 MLOAD PUSH3 0x24D9 DUP2 PUSH3 0x21FF JUMP JUMPDEST PUSH3 0x24E4 DUP2 PUSH3 0x21FF JUMP JUMPDEST ISZERO PUSH3 0x254C JUMPI PUSH1 0xC0 SWAP3 PUSH3 0x2529 PUSH3 0x2546 SWAP3 PUSH3 0x250B PUSH3 0x2504 PUSH3 0x22F1 JUMP JUMPDEST DUP9 PUSH3 0x2E6A JUMP JUMPDEST MLOAD PUSH3 0x2517 DUP2 PUSH3 0x21FF JUMP JUMPDEST PUSH3 0x2522 DUP2 PUSH3 0x21FF JUMP JUMPDEST DUP7 PUSH3 0x2725 JUMP JUMPDEST PUSH3 0x253E PUSH3 0x2537 PUSH3 0x232C JUMP JUMPDEST DUP7 PUSH3 0x2E6A JUMP JUMPDEST MLOAD DUP5 PUSH3 0x2D9B JUMP JUMPDEST PUSH3 0x244C JUMP JUMPDEST PUSH1 0x4 PUSH1 0x40 MLOAD PUSH32 0xA80D31F700000000000000000000000000000000000000000000000000000000 DUP2 MSTORE REVERT JUMPDEST SWAP3 PUSH3 0x258C PUSH3 0x2585 PUSH3 0x2291 JUMP JUMPDEST DUP5 PUSH3 0x2E6A JUMP JUMPDEST PUSH3 0x2597 DUP4 PUSH3 0x2F02 JUMP JUMPDEST PUSH1 0x0 JUMPDEST DUP5 MLOAD DUP1 MLOAD DUP3 LT ISZERO PUSH3 0x25C9 JUMPI SWAP1 PUSH3 0x24A6 PUSH3 0x25BB DUP3 PUSH3 0x25C3 SWAP5 PUSH3 0x22DC JUMP JUMPDEST MLOAD DUP7 PUSH3 0x2E6A JUMP JUMPDEST PUSH3 0x259A JUMP JUMPDEST POP POP SWAP3 POP PUSH3 0x25D8 DUP3 PUSH3 0x2F9A JUMP JUMPDEST CODESIZE PUSH3 0x243D JUMP JUMPDEST DUP2 MLOAD ISZERO PUSH3 0x25F7 JUMPI PUSH1 0x0 DUP1 DUP3 MSTORE PUSH1 0x40 DUP3 ADD MSTORE PUSH1 0x60 ADD MSTORE JUMP JUMPDEST PUSH1 0x4 PUSH1 0x40 MLOAD PUSH32 0x22CE3EDD00000000000000000000000000000000000000000000000000000000 DUP2 MSTORE REVERT JUMPDEST DUP2 MLOAD ISZERO PUSH3 0x262F JUMPI PUSH1 0xA0 ADD MSTORE JUMP JUMPDEST PUSH1 0x4 PUSH1 0x40 MLOAD PUSH32 0xFE936CB700000000000000000000000000000000000000000000000000000000 DUP2 MSTORE REVERT JUMPDEST PUSH1 0x40 MLOAD SWAP1 PUSH3 0x2668 DUP3 PUSH3 0x36C JUMP JUMPDEST PUSH1 0x0 PUSH1 0x20 DUP4 PUSH1 0x60 DUP2 MSTORE ADD MSTORE JUMP JUMPDEST PUSH1 0x40 MLOAD PUSH3 0x2683 DUP2 PUSH3 0x36C JUMP JUMPDEST PUSH3 0x268D PUSH3 0x2659 JUMP JUMPDEST DUP1 DUP3 MSTORE PUSH1 0x20 DUP3 ADD PUSH1 0x0 DUP2 MSTORE PUSH3 0x26A2 PUSH3 0x2659 JUMP JUMPDEST POP PUSH2 0x100 PUSH1 0x20 DUP4 ADD MSTORE PUSH1 0x40 MLOAD DUP1 SWAP3 MSTORE PUSH1 0x0 DUP3 MSTORE PUSH2 0x120 DUP3 ADD SWAP2 DUP3 LT PUSH3 0x2EC JUMPI PUSH1 0x0 SWAP2 PUSH1 0x40 MSTORE MSTORE SWAP1 JUMP JUMPDEST SWAP1 PUSH3 0x26D7 PUSH3 0x2659 JUMP JUMPDEST POP PUSH1 0x1F DUP2 AND DUP1 PUSH3 0x2708 JUMPI JUMPDEST POP DUP1 PUSH1 0x20 DUP4 ADD MSTORE PUSH1 0x40 MLOAD SWAP1 DUP2 DUP4 MSTORE PUSH1 0x0 DUP3 MSTORE DUP2 ADD PUSH1 0x20 ADD SWAP1 DUP2 LT PUSH3 0x2EC JUMPI PUSH1 0x40 MSTORE SWAP1 JUMP JUMPDEST PUSH1 0x20 SUB PUSH1 0x20 DUP2 GT PUSH3 0x10A4 JUMPI DUP2 ADD DUP1 SWAP2 GT PUSH3 0x10A4 JUMPI CODESIZE PUSH3 0x26E3 JUMP JUMPDEST SWAP1 DUP2 MLOAD SWAP2 PUSH3 0x2733 PUSH3 0x2659 JUMP JUMPDEST POP DUP3 MLOAD MLOAD PUSH1 0x1 DUP2 ADD SWAP1 DUP2 DUP2 GT PUSH3 0x10A4 JUMPI PUSH1 0x20 DUP6 ADD MLOAD DUP2 LT ISZERO PUSH3 0x2794 JUMPI JUMPDEST PUSH1 0xC2 PUSH1 0x20 PUSH3 0x827 SWAP7 MLOAD SWAP3 DUP4 ADD ADD MSTORE8 DUP1 MLOAD DUP3 GT PUSH3 0x278B JUMPI JUMPDEST POP POP PUSH1 0x40 MLOAD SWAP2 PUSH1 0x20 DUP4 ADD MSTORE PUSH1 0x20 DUP3 MSTORE PUSH3 0x2785 DUP3 PUSH3 0x36C JUMP JUMPDEST PUSH3 0x2D9B JUMP JUMPDEST MSTORE CODESIZE DUP1 PUSH3 0x276B JUMP JUMPDEST DUP2 PUSH1 0x1 SHL SWAP5 DUP3 DUP7 DIV PUSH1 0x2 EQ DUP4 ISZERO OR ISZERO PUSH3 0x10A4 JUMPI PUSH1 0x20 DUP2 PUSH3 0x27CC PUSH3 0x827 SWAP9 PUSH3 0x27C4 PUSH1 0xC2 SWAP6 MLOAD SWAP2 DUP5 PUSH3 0x26CC JUMP JUMPDEST POP DUP3 PUSH3 0x2CCC JUMP JUMPDEST POP SWAP7 POP POP POP PUSH3 0x2752 JUMP JUMPDEST SWAP1 DUP2 PUSH1 0x1 SHL SWAP2 DUP1 DUP4 DIV PUSH1 0x2 EQ SWAP1 ISZERO OR ISZERO PUSH3 0x10A4 JUMPI JUMP JUMPDEST PUSH3 0x27F8 PUSH3 0x2659 JUMP JUMPDEST POP DUP1 MLOAD MLOAD PUSH1 0x1 DUP2 ADD SWAP1 DUP2 DUP2 GT PUSH3 0x10A4 JUMPI PUSH1 0x20 DUP4 ADD MLOAD DUP2 LT ISZERO PUSH3 0x2834 JUMPI JUMPDEST PUSH1 0x5B PUSH1 0x20 DUP5 MLOAD SWAP3 DUP4 ADD ADD MSTORE8 DUP1 MLOAD DUP3 GT PUSH3 0x2830 JUMPI POP POP SWAP1 JUMP JUMPDEST MSTORE SWAP1 JUMP JUMPDEST DUP2 PUSH1 0x1 SHL DUP3 DUP2 DIV PUSH1 0x2 EQ DUP4 ISZERO OR ISZERO PUSH3 0x10A4 JUMPI PUSH3 0x2862 SWAP1 PUSH3 0x285A DUP6 MLOAD SWAP2 DUP7 PUSH3 0x26CC JUMP JUMPDEST POP DUP5 PUSH3 0x2CCC JUMP JUMPDEST POP PUSH3 0x2817 JUMP JUMPDEST PUSH3 0x2873 PUSH3 0x2659 JUMP JUMPDEST POP DUP1 MLOAD MLOAD PUSH1 0x1 DUP2 ADD SWAP1 DUP2 DUP2 GT PUSH3 0x10A4 JUMPI PUSH1 0x20 DUP4 ADD MLOAD DUP2 LT ISZERO PUSH3 0x28AB JUMPI JUMPDEST PUSH1 0x5A PUSH1 0x20 DUP5 MLOAD SWAP3 DUP4 ADD ADD MSTORE8 DUP1 MLOAD DUP3 GT PUSH3 0x2830 JUMPI POP POP SWAP1 JUMP JUMPDEST DUP2 PUSH1 0x1 SHL DUP3 DUP2 DIV PUSH1 0x2 EQ DUP4 ISZERO OR ISZERO PUSH3 0x10A4 JUMPI PUSH3 0x28D1 SWAP1 PUSH3 0x285A DUP6 MLOAD SWAP2 DUP7 PUSH3 0x26CC JUMP JUMPDEST POP PUSH3 0x2892 JUMP JUMPDEST PUSH3 0x28E2 PUSH3 0x2659 JUMP JUMPDEST POP DUP1 MLOAD MLOAD PUSH1 0x1 DUP2 ADD SWAP1 DUP2 DUP2 GT PUSH3 0x10A4 JUMPI PUSH1 0x20 DUP4 ADD MLOAD DUP2 LT ISZERO PUSH3 0x291A JUMPI JUMPDEST PUSH1 0x59 PUSH1 0x20 DUP5 MLOAD SWAP3 DUP4 ADD ADD MSTORE8 DUP1 MLOAD DUP3 GT PUSH3 0x2830 JUMPI POP POP SWAP1 JUMP JUMPDEST DUP2 PUSH1 0x1 SHL DUP3 DUP2 DIV PUSH1 0x2 EQ DUP4 ISZERO OR ISZERO PUSH3 0x10A4 JUMPI PUSH3 0x2940 SWAP1 PUSH3 0x285A DUP6 MLOAD SWAP2 DUP7 PUSH3 0x26CC JUMP JUMPDEST POP PUSH3 0x2901 JUMP JUMPDEST PUSH3 0x2951 PUSH3 0x2659 JUMP JUMPDEST POP DUP1 MLOAD MLOAD PUSH1 0x1 DUP2 ADD SWAP1 DUP2 DUP2 GT PUSH3 0x10A4 JUMPI PUSH1 0x20 DUP4 ADD MLOAD DUP2 LT ISZERO PUSH3 0x2989 JUMPI JUMPDEST PUSH1 0x58 PUSH1 0x20 DUP5 MLOAD SWAP3 DUP4 ADD ADD MSTORE8 DUP1 MLOAD DUP3 GT PUSH3 0x2830 JUMPI POP POP SWAP1 JUMP JUMPDEST DUP2 PUSH1 0x1 SHL DUP3 DUP2 DIV PUSH1 0x2 EQ DUP4 ISZERO OR ISZERO PUSH3 0x10A4 JUMPI PUSH3 0x29AF SWAP1 PUSH3 0x285A DUP6 MLOAD SWAP2 DUP7 PUSH3 0x26CC JUMP JUMPDEST POP PUSH3 0x2970 JUMP JUMPDEST PUSH3 0x29C0 PUSH3 0x2659 JUMP JUMPDEST POP DUP1 MLOAD MLOAD PUSH1 0x1 DUP2 ADD SWAP1 DUP2 DUP2 GT PUSH3 0x10A4 JUMPI PUSH1 0x20 DUP4 ADD MLOAD DUP2 LT ISZERO PUSH3 0x29F8 JUMPI JUMPDEST PUSH1 0x7B PUSH1 0x20 DUP5 MLOAD SWAP3 DUP4 ADD ADD MSTORE8 DUP1 MLOAD DUP3 GT PUSH3 0x2830 JUMPI POP POP SWAP1 JUMP JUMPDEST DUP2 PUSH1 0x1 SHL DUP3 DUP2 DIV PUSH1 0x2 EQ DUP4 ISZERO OR ISZERO PUSH3 0x10A4 JUMPI PUSH3 0x2A1E SWAP1 PUSH3 0x285A DUP6 MLOAD SWAP2 DUP7 PUSH3 0x26CC JUMP JUMPDEST POP PUSH3 0x29DF JUMP JUMPDEST PUSH3 0x2A2F PUSH3 0x2659 JUMP JUMPDEST POP DUP1 MLOAD MLOAD PUSH1 0x1 DUP2 ADD SWAP1 DUP2 DUP2 GT PUSH3 0x10A4 JUMPI PUSH1 0x20 DUP4 ADD MLOAD DUP2 LT ISZERO PUSH3 0x2A67 JUMPI JUMPDEST PUSH1 0x7A PUSH1 0x20 DUP5 MLOAD SWAP3 DUP4 ADD ADD MSTORE8 DUP1 MLOAD DUP3 GT PUSH3 0x2830 JUMPI POP POP SWAP1 JUMP JUMPDEST DUP2 PUSH1 0x1 SHL DUP3 DUP2 DIV PUSH1 0x2 EQ DUP4 ISZERO OR ISZERO PUSH3 0x10A4 JUMPI PUSH3 0x2A8D SWAP1 PUSH3 0x285A DUP6 MLOAD SWAP2 DUP7 PUSH3 0x26CC JUMP JUMPDEST POP PUSH3 0x2A4E JUMP JUMPDEST PUSH3 0x2A9E PUSH3 0x2659 JUMP JUMPDEST POP DUP1 MLOAD MLOAD PUSH1 0x1 DUP2 ADD SWAP1 DUP2 DUP2 GT PUSH3 0x10A4 JUMPI PUSH1 0x20 DUP4 ADD MLOAD DUP2 LT ISZERO PUSH3 0x2AD6 JUMPI JUMPDEST PUSH1 0x79 PUSH1 0x20 DUP5 MLOAD SWAP3 DUP4 ADD ADD MSTORE8 DUP1 MLOAD DUP3 GT PUSH3 0x2830 JUMPI POP POP SWAP1 JUMP JUMPDEST DUP2 PUSH1 0x1 SHL DUP3 DUP2 DIV PUSH1 0x2 EQ DUP4 ISZERO OR ISZERO PUSH3 0x10A4 JUMPI PUSH3 0x2AFC SWAP1 PUSH3 0x285A DUP6 MLOAD SWAP2 DUP7 PUSH3 0x26CC JUMP JUMPDEST POP PUSH3 0x2ABD JUMP JUMPDEST PUSH3 0x2B0D PUSH3 0x2659 JUMP JUMPDEST POP DUP1 MLOAD MLOAD PUSH1 0x1 DUP2 ADD SWAP1 DUP2 DUP2 GT PUSH3 0x10A4 JUMPI PUSH1 0x20 DUP4 ADD MLOAD DUP2 LT ISZERO PUSH3 0x2B45 JUMPI JUMPDEST PUSH1 0x78 PUSH1 0x20 DUP5 MLOAD SWAP3 DUP4 ADD ADD MSTORE8 DUP1 MLOAD DUP3 GT PUSH3 0x2830 JUMPI POP POP SWAP1 JUMP JUMPDEST DUP2 PUSH1 0x1 SHL DUP3 DUP2 DIV PUSH1 0x2 EQ DUP4 ISZERO OR ISZERO PUSH3 0x10A4 JUMPI PUSH3 0x2B6B SWAP1 PUSH3 0x285A DUP6 MLOAD SWAP2 DUP7 PUSH3 0x26CC JUMP JUMPDEST POP PUSH3 0x2B2C JUMP JUMPDEST SWAP1 PUSH3 0x2B7D PUSH3 0x2659 JUMP JUMPDEST POP DUP2 MLOAD MLOAD PUSH1 0x1 DUP2 ADD SWAP2 DUP3 DUP3 GT PUSH3 0x10A4 JUMPI PUSH1 0x20 DUP5 ADD MLOAD DUP3 LT ISZERO PUSH3 0x2BB3 JUMPI JUMPDEST PUSH1 0x20 DUP5 MLOAD SWAP3 DUP4 ADD ADD MSTORE8 DUP1 MLOAD DUP3 GT PUSH3 0x2830 JUMPI POP POP SWAP1 JUMP JUMPDEST DUP3 PUSH1 0x1 SHL DUP4 DUP2 DIV PUSH1 0x2 EQ DUP5 ISZERO OR ISZERO PUSH3 0x10A4 JUMPI PUSH3 0x2BE1 SWAP1 PUSH3 0x2BD9 DUP7 MLOAD SWAP2 DUP8 PUSH3 0x26CC JUMP JUMPDEST POP DUP6 PUSH3 0x2CCC JUMP JUMPDEST POP PUSH3 0x2B9C JUMP JUMPDEST SWAP1 PUSH3 0x2BF7 DUP3 MLOAD SWAP2 DUP4 PUSH3 0x26CC JUMP JUMPDEST POP PUSH3 0x2C02 PUSH3 0x2659 JUMP JUMPDEST POP DUP1 MLOAD SWAP1 PUSH3 0x2C10 PUSH3 0x2659 JUMP JUMPDEST POP PUSH3 0x2C20 DUP2 MLOAD DUP4 GT ISZERO PUSH3 0x2D93 JUMP JUMPDEST DUP3 MLOAD MLOAD SWAP3 PUSH3 0x2C30 DUP4 DUP6 PUSH3 0x1C5B JUMP JUMPDEST SWAP2 PUSH1 0x20 SWAP3 DUP3 DUP5 DUP1 SWAP5 ADD MLOAD DUP3 GT PUSH3 0x2CB0 JUMPI JUMPDEST MLOAD DUP4 DUP2 MLOAD SWAP8 DUP3 ADD ADD SWAP7 DUP3 GT PUSH3 0x2CA7 JUMPI JUMPDEST POP POP ADD SWAP2 JUMPDEST DUP2 DUP2 LT ISZERO PUSH3 0x2C7A JUMPI PUSH1 0x0 NOT SWAP2 SUB PUSH2 0x100 EXP ADD SWAP1 DUP2 NOT SWAP1 MLOAD AND SWAP1 DUP3 MLOAD AND OR SWAP1 MSTORE JUMP JUMPDEST SWAP2 SWAP3 PUSH3 0x2C9A PUSH3 0x2C93 PUSH3 0x2CA1 SWAP3 DUP7 MLOAD DUP2 MSTORE PUSH3 0x1C4C JUMP JUMPDEST SWAP5 PUSH3 0x1C4C JUMP JUMPDEST SWAP3 PUSH3 0x1BE1 JUMP JUMPDEST PUSH3 0x2C58 JUMP JUMPDEST MSTORE CODESIZE DUP1 PUSH3 0x2C53 JUMP JUMPDEST PUSH3 0x2CC6 PUSH3 0x2CBF DUP4 PUSH3 0x27D7 JUMP JUMPDEST DUP3 PUSH3 0x2BE8 JUMP JUMPDEST PUSH3 0x2C42 JUMP JUMPDEST SWAP1 PUSH3 0x2CD7 PUSH3 0x2659 JUMP JUMPDEST POP DUP1 MLOAD PUSH3 0x2CE4 PUSH3 0x2659 JUMP JUMPDEST POP PUSH3 0x2CF4 DUP3 MLOAD DUP3 GT ISZERO PUSH3 0x2D93 JUMP JUMPDEST DUP3 MLOAD MLOAD SWAP2 PUSH3 0x2D04 DUP3 DUP5 PUSH3 0x1C5B JUMP JUMPDEST PUSH1 0x20 SWAP2 DUP3 SWAP2 DUP3 DUP8 ADD MLOAD DUP2 GT PUSH3 0x2D77 JUMPI JUMPDEST DUP7 MLOAD DUP4 DUP2 MLOAD SWAP8 DUP3 ADD ADD SWAP7 DUP3 GT PUSH3 0x2D6E JUMPI JUMPDEST POP POP ADD SWAP2 JUMPDEST DUP2 DUP2 LT ISZERO PUSH3 0x2D4F JUMPI PUSH1 0x0 NOT SWAP2 SUB PUSH2 0x100 EXP ADD SWAP1 DUP2 NOT SWAP1 MLOAD AND SWAP1 DUP3 MLOAD AND OR SWAP1 MSTORE SWAP1 JUMP JUMPDEST SWAP2 SWAP3 PUSH3 0x2C9A PUSH3 0x2C93 PUSH3 0x2D68 SWAP3 DUP7 MLOAD DUP2 MSTORE PUSH3 0x1C4C JUMP JUMPDEST PUSH3 0x2D2C JUMP JUMPDEST MSTORE CODESIZE DUP1 PUSH3 0x2D27 JUMP JUMPDEST PUSH3 0x2D8D PUSH3 0x2D86 DUP3 PUSH3 0x27D7 JUMP JUMPDEST DUP9 PUSH3 0x2BE8 JUMP JUMPDEST PUSH3 0x2D15 JUMP JUMPDEST ISZERO PUSH3 0x2EC JUMPI JUMP JUMPDEST DUP2 MLOAD PUSH3 0x2DD8 SWAP3 SWAP2 SWAP1 PUSH8 0xFFFFFFFFFFFFFFFF DUP2 AND SWAP1 PUSH1 0x17 DUP3 GT PUSH3 0x2DDB JUMPI PUSH3 0x2DCF SWAP2 POP PUSH1 0x40 PUSH1 0xFF DUP5 MLOAD SWAP3 AND OR SWAP1 PUSH3 0x2B72 JUMP JUMPDEST POP JUMPDEST MLOAD PUSH3 0x2CCC JUMP JUMPDEST POP JUMP JUMPDEST POP PUSH1 0xFF DUP2 GT PUSH3 0x2E06 JUMPI PUSH3 0x2DFF SWAP1 PUSH3 0x2DF6 DUP4 MLOAD PUSH3 0x2947 JUMP JUMPDEST POP DUP3 MLOAD PUSH3 0x318B JUMP JUMPDEST POP PUSH3 0x2DD1 JUMP JUMPDEST PUSH2 0xFFFF DUP2 GT PUSH3 0x2E2A JUMPI PUSH3 0x2DFF SWAP1 PUSH3 0x2E21 DUP4 MLOAD PUSH3 0x28D8 JUMP JUMPDEST POP DUP3 MLOAD PUSH3 0x311B JUMP JUMPDEST PUSH4 0xFFFFFFFF DUP2 GT PUSH3 0x2E50 JUMPI PUSH3 0x2DFF SWAP1 PUSH3 0x2E47 DUP4 MLOAD PUSH3 0x2869 JUMP JUMPDEST POP DUP3 MLOAD PUSH3 0x30A9 JUMP JUMPDEST PUSH3 0x2DFF SWAP1 PUSH3 0x2E61 DUP4 MLOAD PUSH3 0x27EE JUMP JUMPDEST POP DUP3 MLOAD PUSH3 0x3033 JUMP JUMPDEST DUP2 MLOAD PUSH3 0x2DD8 SWAP3 SWAP2 SWAP1 PUSH8 0xFFFFFFFFFFFFFFFF DUP2 AND SWAP1 PUSH1 0x17 DUP3 GT PUSH3 0x2E9E JUMPI PUSH3 0x2DCF SWAP2 POP PUSH1 0x60 PUSH1 0xFF DUP5 MLOAD SWAP3 AND OR SWAP1 PUSH3 0x2B72 JUMP JUMPDEST POP PUSH1 0xFF DUP2 GT PUSH3 0x2EB9 JUMPI PUSH3 0x2DFF SWAP1 PUSH3 0x2DF6 DUP4 MLOAD PUSH3 0x2B03 JUMP JUMPDEST PUSH2 0xFFFF DUP2 GT PUSH3 0x2ED4 JUMPI PUSH3 0x2DFF SWAP1 PUSH3 0x2E21 DUP4 MLOAD PUSH3 0x2A94 JUMP JUMPDEST PUSH4 0xFFFFFFFF DUP2 GT PUSH3 0x2EF1 JUMPI PUSH3 0x2DFF SWAP1 PUSH3 0x2E47 DUP4 MLOAD PUSH3 0x2A25 JUMP JUMPDEST PUSH3 0x2DFF SWAP1 PUSH3 0x2E61 DUP4 MLOAD PUSH3 0x29B6 JUMP JUMPDEST DUP1 MLOAD SWAP1 PUSH3 0x2F0F PUSH3 0x2659 JUMP JUMPDEST POP DUP2 MLOAD MLOAD PUSH1 0x1 DUP2 ADD SWAP1 DUP2 DUP2 GT PUSH3 0x10A4 JUMPI PUSH1 0x20 DUP5 ADD MLOAD DUP2 LT ISZERO PUSH3 0x2F62 JUMPI JUMPDEST PUSH1 0x9F PUSH1 0x20 DUP1 SWAP6 MLOAD SWAP3 DUP4 ADD ADD MSTORE8 DUP1 MLOAD DUP3 GT PUSH3 0x2F59 JUMPI JUMPDEST POP POP ADD DUP1 MLOAD SWAP1 PUSH1 0x1 DUP3 ADD DUP1 SWAP3 GT PUSH3 0x10A4 JUMPI MSTORE JUMP JUMPDEST MSTORE CODESIZE DUP1 PUSH3 0x2F44 JUMP JUMPDEST DUP2 PUSH1 0x1 SHL SWAP4 DUP3 DUP6 DIV PUSH1 0x2 EQ DUP4 ISZERO OR ISZERO PUSH3 0x10A4 JUMPI PUSH1 0x20 DUP2 PUSH3 0x2F8F DUP3 SWAP8 PUSH3 0x27C4 PUSH1 0x9F SWAP6 MLOAD SWAP2 DUP5 PUSH3 0x26CC JUMP JUMPDEST POP SWAP6 POP POP POP PUSH3 0x2F2E JUMP JUMPDEST DUP1 MLOAD SWAP1 PUSH3 0x2FA7 PUSH3 0x2659 JUMP JUMPDEST POP DUP2 MLOAD MLOAD PUSH1 0x1 DUP2 ADD SWAP1 DUP2 DUP2 GT PUSH3 0x10A4 JUMPI PUSH1 0x20 DUP5 ADD MLOAD DUP2 LT ISZERO PUSH3 0x2FFB JUMPI JUMPDEST PUSH1 0xFF PUSH1 0x20 DUP1 SWAP6 MLOAD SWAP3 DUP4 ADD ADD MSTORE8 DUP1 MLOAD DUP3 GT PUSH3 0x2FF2 JUMPI JUMPDEST POP POP ADD DUP1 MLOAD PUSH1 0x0 NOT DUP2 ADD SWAP2 SWAP1 DUP3 GT PUSH3 0x10A4 JUMPI MSTORE JUMP JUMPDEST MSTORE CODESIZE DUP1 PUSH3 0x2FDC JUMP JUMPDEST DUP2 PUSH1 0x1 SHL SWAP4 DUP3 DUP6 DIV PUSH1 0x2 EQ DUP4 ISZERO OR ISZERO PUSH3 0x10A4 JUMPI PUSH1 0x20 DUP2 PUSH3 0x3028 DUP3 SWAP8 PUSH3 0x27C4 PUSH1 0xFF SWAP6 MLOAD SWAP2 DUP5 PUSH3 0x26CC JUMP JUMPDEST POP SWAP6 POP POP POP PUSH3 0x2FC6 JUMP JUMPDEST SWAP1 PUSH3 0x303E PUSH3 0x2659 JUMP JUMPDEST POP DUP2 MLOAD MLOAD DUP1 PUSH1 0x8 ADD SWAP2 DUP3 PUSH1 0x8 GT PUSH3 0x10A4 JUMPI PUSH1 0x20 DUP5 ADD MLOAD DUP4 GT PUSH3 0x3084 JUMPI JUMPDEST PUSH1 0x8 DUP5 MLOAD SWAP3 DUP4 ADD ADD SWAP1 PUSH8 0xFFFFFFFFFFFFFFFF NOT DUP3 MLOAD AND OR SWAP1 MSTORE DUP1 MLOAD DUP3 GT PUSH3 0x2830 JUMPI POP POP SWAP1 JUMP JUMPDEST DUP3 PUSH1 0x1 SHL DUP4 DUP2 DIV PUSH1 0x2 EQ DUP5 ISZERO OR ISZERO PUSH3 0x10A4 JUMPI PUSH3 0x30A3 SWAP1 DUP6 PUSH3 0x2BE8 JUMP JUMPDEST PUSH3 0x305D JUMP JUMPDEST SWAP1 PUSH3 0x30B4 PUSH3 0x2659 JUMP JUMPDEST POP DUP2 MLOAD MLOAD DUP1 PUSH1 0x4 ADD SWAP2 DUP3 PUSH1 0x4 GT PUSH3 0x10A4 JUMPI PUSH1 0x20 DUP5 ADD MLOAD DUP4 GT PUSH3 0x30F6 JUMPI JUMPDEST PUSH1 0x4 DUP5 MLOAD SWAP3 DUP4 ADD ADD SWAP1 PUSH4 0xFFFFFFFF NOT DUP3 MLOAD AND OR SWAP1 MSTORE DUP1 MLOAD DUP3 GT PUSH3 0x2830 JUMPI POP POP SWAP1 JUMP JUMPDEST DUP3 PUSH1 0x1 SHL DUP4 DUP2 DIV PUSH1 0x2 EQ DUP5 ISZERO OR ISZERO PUSH3 0x10A4 JUMPI PUSH3 0x3115 SWAP1 DUP6 PUSH3 0x2BE8 JUMP JUMPDEST PUSH3 0x30D3 JUMP JUMPDEST SWAP1 PUSH3 0x3126 PUSH3 0x2659 JUMP JUMPDEST POP DUP2 MLOAD MLOAD DUP1 PUSH1 0x2 ADD SWAP2 DUP3 PUSH1 0x2 GT PUSH3 0x10A4 JUMPI PUSH1 0x20 DUP5 ADD MLOAD DUP4 GT PUSH3 0x3166 JUMPI JUMPDEST PUSH1 0x2 DUP5 MLOAD SWAP3 DUP4 ADD ADD SWAP1 PUSH2 0xFFFF NOT DUP3 MLOAD AND OR SWAP1 MSTORE DUP1 MLOAD DUP3 GT PUSH3 0x2830 JUMPI POP POP SWAP1 JUMP JUMPDEST DUP3 PUSH1 0x1 SHL DUP4 DUP2 DIV PUSH1 0x2 EQ DUP5 ISZERO OR ISZERO PUSH3 0x10A4 JUMPI PUSH3 0x3185 SWAP1 DUP6 PUSH3 0x2BE8 JUMP JUMPDEST PUSH3 0x3145 JUMP JUMPDEST SWAP1 PUSH3 0x3196 PUSH3 0x2659 JUMP JUMPDEST POP DUP2 MLOAD MLOAD DUP1 PUSH1 0x1 ADD SWAP2 DUP3 PUSH1 0x1 GT PUSH3 0x10A4 JUMPI PUSH1 0x20 DUP5 ADD MLOAD DUP4 GT PUSH3 0x31D5 JUMPI JUMPDEST PUSH1 0x1 DUP5 MLOAD SWAP3 DUP4 ADD ADD SWAP1 PUSH1 0xFF NOT DUP3 MLOAD AND OR SWAP1 MSTORE DUP1 MLOAD DUP3 GT PUSH3 0x2830 JUMPI POP POP SWAP1 JUMP JUMPDEST DUP3 PUSH1 0x1 SHL DUP4 DUP2 DIV PUSH1 0x2 EQ DUP5 ISZERO OR ISZERO PUSH3 0x10A4 JUMPI PUSH3 0x31F4 SWAP1 DUP6 PUSH3 0x2BE8 JUMP JUMPDEST PUSH3 0x31B5 JUMP JUMPDEST DUP2 DUP2 LT PUSH3 0x3206 JUMPI POP POP JUMP JUMPDEST PUSH1 0x0 DUP2 SSTORE PUSH1 0x1 ADD PUSH3 0x31FA JUMP JUMPDEST SWAP1 PUSH1 0x1F DUP3 GT PUSH3 0x3221 JUMPI POP POP JUMP JUMPDEST PUSH3 0x827 SWAP2 PUSH1 0x5 PUSH1 0x0 MSTORE PUSH32 0x36B6384B5ECA791C62761152D0C79BB0604C104A5FB6F4EB0703F3154BB3DB0 SWAP1 PUSH1 0x20 PUSH1 0x1F DUP5 ADD PUSH1 0x5 SHR DUP4 ADD SWAP4 LT PUSH3 0x326E JUMPI JUMPDEST PUSH1 0x1F ADD PUSH1 0x5 SHR ADD SWAP1 PUSH3 0x31FA JUMP JUMPDEST SWAP1 SWAP2 POP DUP2 SWAP1 PUSH3 0x3260 JUMP JUMPDEST SWAP1 PUSH1 0x1F DUP3 GT PUSH3 0x3287 JUMPI POP POP JUMP JUMPDEST PUSH3 0x827 SWAP2 PUSH1 0x6 PUSH1 0x0 MSTORE PUSH32 0xF652222313E28459528D920B65115C16C04F3EFC82AAEDC97BE59F3F377C0D3F SWAP1 PUSH1 0x20 PUSH1 0x1F DUP5 ADD PUSH1 0x5 SHR DUP4 ADD SWAP4 LT PUSH3 0x326E JUMPI PUSH1 0x1F ADD PUSH1 0x5 SHR ADD SWAP1 PUSH3 0x31FA JUMP JUMPDEST SWAP2 SWAP1 PUSH1 0x1F DUP2 GT PUSH3 0x32E3 JUMPI POP POP POP JUMP JUMPDEST PUSH3 0x827 SWAP3 PUSH1 0x0 MSTORE PUSH1 0x20 PUSH1 0x0 KECCAK256 SWAP1 PUSH1 0x20 PUSH1 0x1F DUP5 ADD PUSH1 0x5 SHR DUP4 ADD SWAP4 LT PUSH3 0x326E JUMPI PUSH1 0x1F ADD PUSH1 0x5 SHR ADD SWAP1 PUSH3 0x31FA JUMP JUMPDEST SWAP1 DUP2 MLOAD PUSH8 0xFFFFFFFFFFFFFFFF DUP2 GT PUSH3 0x366 JUMPI PUSH3 0x333C DUP2 PUSH3 0x3336 PUSH1 0x6 SLOAD PUSH3 0x7A9 JUMP JUMPDEST PUSH3 0x3279 JUMP JUMPDEST PUSH1 0x20 DUP1 PUSH1 0x1F DUP4 GT PUSH1 0x1 EQ PUSH3 0x337B JUMPI POP DUP2 SWAP3 SWAP4 PUSH1 0x0 SWAP3 PUSH3 0x336F JUMPI JUMPDEST POP POP DUP2 PUSH1 0x1 SHL SWAP2 PUSH1 0x0 NOT SWAP1 PUSH1 0x3 SHL SHR NOT AND OR PUSH1 0x6 SSTORE JUMP JUMPDEST ADD MLOAD SWAP1 POP CODESIZE DUP1 PUSH3 0x3358 JUMP JUMPDEST SWAP1 PUSH1 0x1F NOT DUP4 AND SWAP5 PUSH3 0x33AF PUSH1 0x6 PUSH1 0x0 MSTORE PUSH32 0xF652222313E28459528D920B65115C16C04F3EFC82AAEDC97BE59F3F377C0D3F SWAP1 JUMP JUMPDEST SWAP3 PUSH1 0x0 SWAP1 JUMPDEST DUP8 DUP3 LT PUSH3 0x33EF JUMPI POP POP DUP4 PUSH1 0x1 SWAP6 SWAP7 LT PUSH3 0x33D5 JUMPI JUMPDEST POP POP POP DUP2 SHL ADD PUSH1 0x6 SSTORE JUMP JUMPDEST ADD MLOAD PUSH1 0x0 NOT PUSH1 0xF8 DUP5 PUSH1 0x3 SHL AND SHR NOT AND SWAP1 SSTORE CODESIZE DUP1 DUP1 PUSH3 0x33CA JUMP JUMPDEST DUP1 PUSH1 0x1 DUP6 SWAP7 DUP3 SWAP5 SWAP7 DUP7 ADD MLOAD DUP2 SSTORE ADD SWAP6 ADD SWAP4 ADD SWAP1 PUSH3 0x33B4 JUMP JUMPDEST PUSH1 0x20 DUP2 MLOAD SWAP2 ADD MLOAD SWAP1 PUSH1 0x20 DUP2 LT PUSH3 0x341D JUMPI POP SWAP1 JUMP JUMPDEST PUSH1 0x0 NOT SWAP1 PUSH1 0x20 SUB PUSH1 0x3 SHL SHL AND SWAP1 JUMP JUMPDEST PUSH1 0x1C SLOAD PUSH9 0x10000000000000000 DUP2 LT ISZERO PUSH3 0x366 JUMPI PUSH3 0x3454 PUSH1 0x1 SWAP2 DUP3 DUP2 ADD PUSH1 0x1C SSTORE PUSH3 0x755 JUMP JUMPDEST SWAP3 SWAP1 SWAP3 PUSH3 0x3535 JUMPI DUP1 MLOAD SWAP1 PUSH8 0xFFFFFFFFFFFFFFFF DUP3 GT PUSH3 0x366 JUMPI PUSH3 0x3487 DUP3 PUSH3 0x3480 DUP7 SLOAD PUSH3 0x7A9 JUMP JUMPDEST DUP7 PUSH3 0x32D3 JUMP JUMPDEST PUSH1 0x20 SWAP1 DUP2 PUSH1 0x1F DUP5 GT PUSH1 0x1 EQ PUSH3 0x34C6 JUMPI POP SWAP3 DUP3 SWAP4 SWAP2 DUP4 SWAP3 PUSH1 0x0 SWAP5 PUSH3 0x34BA JUMPI JUMPDEST POP POP SHL SWAP2 PUSH1 0x0 NOT SWAP1 PUSH1 0x3 SHL SHR NOT AND OR SWAP1 SSTORE JUMP JUMPDEST ADD MLOAD SWAP3 POP CODESIZE DUP1 PUSH3 0x34A7 JUMP JUMPDEST SWAP2 SWAP1 DUP4 PUSH1 0x1F NOT DUP2 AND PUSH3 0x34DE DUP9 PUSH1 0x0 MSTORE PUSH1 0x20 PUSH1 0x0 KECCAK256 SWAP1 JUMP JUMPDEST SWAP5 PUSH1 0x0 SWAP1 JUMPDEST DUP9 DUP4 DUP4 LT PUSH3 0x351A JUMPI POP POP POP LT PUSH3 0x3500 JUMPI JUMPDEST POP POP POP DUP2 SHL ADD SWAP1 SSTORE JUMP JUMPDEST ADD MLOAD PUSH1 0x0 NOT PUSH1 0xF8 DUP5 PUSH1 0x3 SHL AND SHR NOT AND SWAP1 SSTORE CODESIZE DUP1 DUP1 PUSH3 0x34F6 JUMP JUMPDEST DUP6 DUP8 ADD MLOAD DUP9 SSTORE SWAP1 SWAP7 ADD SWAP6 SWAP5 DUP6 ADD SWAP5 DUP8 SWAP4 POP SWAP1 DUP2 ADD SWAP1 PUSH3 0x34E3 JUMP JUMPDEST PUSH3 0x793 JUMP JUMPDEST SWAP1 SWAP2 PUSH3 0x3555 PUSH3 0x9B5 SWAP4 PUSH1 0x40 DUP5 MSTORE PUSH1 0x40 DUP5 ADD SWAP1 PUSH3 0x960 JUMP JUMPDEST SWAP2 PUSH1 0x20 DUP2 DUP5 SUB SWAP2 ADD MSTORE PUSH3 0x960 JUMP JUMPDEST ISZERO PUSH3 0x356C JUMPI JUMP JUMPDEST PUSH1 0x64 PUSH1 0x40 MLOAD PUSH3 0x461BCD PUSH1 0xE5 SHL DUP2 MSTORE PUSH1 0x20 PUSH1 0x4 DUP3 ADD MSTORE PUSH1 0x1B PUSH1 0x24 DUP3 ADD MSTORE PUSH32 0x4572726F20616F207061676172206120696E64656E697A6163616F0000000000 PUSH1 0x44 DUP3 ADD MSTORE REVERT JUMPDEST PUSH1 0x1E SLOAD PUSH1 0x1A SLOAD GT ISZERO PUSH3 0x35FA JUMPI PUSH3 0x827 PUSH1 0x0 DUP1 DUP1 DUP1 PUSH3 0x35E5 PUSH3 0xC7C PUSH3 0xC7C PUSH1 0x18 SLOAD PUSH1 0x1 PUSH1 0x1 PUSH1 0xA0 SHL SUB SWAP1 PUSH1 0x8 SHR AND SWAP1 JUMP JUMPDEST SELFBALANCE SWAP1 GAS CALL PUSH3 0x35F3 PUSH3 0x1E14 JUMP JUMPDEST POP PUSH3 0x3564 JUMP JUMPDEST PUSH1 0x0 DUP1 DUP1 DUP1 PUSH1 0x1 PUSH1 0x1 PUSH1 0xA0 SHL SUB PUSH1 0x2 SLOAD AND SELFBALANCE SWAP1 GAS CALL PUSH3 0x3619 PUSH3 0x1E14 JUMP JUMPDEST POP ISZERO PUSH3 0x3622 JUMPI JUMP JUMPDEST PUSH1 0x84 PUSH1 0x40 MLOAD PUSH3 0x461BCD PUSH1 0xE5 SHL DUP2 MSTORE PUSH1 0x20 PUSH1 0x4 DUP3 ADD MSTORE PUSH1 0x2D PUSH1 0x24 DUP3 ADD MSTORE PUSH32 0x4572726F20616F207265746F726E6172206F732066756E646F73207061726120 PUSH1 0x44 DUP3 ADD MSTORE PUSH32 0x6120696E73746974756963616F00000000000000000000000000000000000000 PUSH1 0x64 DUP3 ADD MSTORE REVERT INVALID PUSH1 0xC0 CALLVALUE PUSH2 0xBA JUMPI PUSH1 0x1F PUSH2 0x765 CODESIZE DUP2 SWAP1 SUB SWAP2 DUP3 ADD PUSH1 0x1F NOT AND DUP4 ADD SWAP2 PUSH1 0x1 PUSH1 0x1 PUSH1 0x40 SHL SUB DUP4 GT DUP5 DUP5 LT OR PUSH2 0xBF JUMPI DUP1 DUP5 SWAP3 PUSH1 0x60 SWAP5 PUSH1 0x40 MSTORE DUP4 CODECOPY DUP2 ADD SUB SLT PUSH2 0xBA JUMPI PUSH2 0x47 DUP2 PUSH2 0xD5 JUMP JUMPDEST SWAP1 PUSH1 0x40 PUSH2 0x56 PUSH1 0x20 DUP4 ADD PUSH2 0xD5 JUMP JUMPDEST SWAP2 ADD MLOAD PUSH1 0x1 PUSH1 0x1 PUSH1 0x60 SHL SUB DUP2 AND SWAP3 SWAP1 DUP4 SWAP1 SUB PUSH2 0xBA JUMPI PUSH1 0x80 MSTORE PUSH1 0xA0 MSTORE PUSH1 0x1 DUP1 SLOAD PUSH1 0x1 PUSH1 0x1 PUSH1 0x60 SHL SUB NOT AND SWAP2 SWAP1 SWAP2 OR SWAP1 SSTORE PUSH1 0x40 MLOAD PUSH2 0x67B SWAP1 DUP2 PUSH2 0xEA DUP3 CODECOPY PUSH1 0x80 MLOAD DUP2 DUP2 DUP2 PUSH1 0x77 ADD MSTORE DUP2 DUP2 PUSH2 0x1C7 ADD MSTORE PUSH2 0x3A3 ADD MSTORE PUSH1 0xA0 MLOAD DUP2 DUP2 DUP2 PUSH1 0xBE ADD MSTORE PUSH2 0x36A ADD MSTORE RETURN JUMPDEST PUSH1 0x0 DUP1 REVERT JUMPDEST PUSH4 0x4E487B71 PUSH1 0xE0 SHL PUSH1 0x0 MSTORE PUSH1 0x41 PUSH1 0x4 MSTORE PUSH1 0x24 PUSH1 0x0 REVERT JUMPDEST MLOAD SWAP1 PUSH1 0x1 PUSH1 0x1 PUSH1 0xA0 SHL SUB DUP3 AND DUP3 SUB PUSH2 0xBA JUMPI JUMP INVALID PUSH1 0x80 PUSH1 0x40 DUP2 DUP2 MSTORE PUSH1 0x4 CALLDATASIZE LT ISZERO PUSH2 0x14 JUMPI PUSH1 0x0 DUP1 REVERT JUMPDEST PUSH1 0x0 SWAP2 DUP3 CALLDATALOAD PUSH1 0xE0 SHR SWAP1 DUP2 PUSH4 0x1619D3D EQ PUSH2 0x22D JUMPI POP DUP1 PUSH4 0x23024408 EQ PUSH2 0x14A JUMPI DUP1 PUSH4 0x24380AA8 EQ PUSH2 0xE2 JUMPI DUP1 PUSH4 0x442B1278 EQ PUSH2 0x9F JUMPI PUSH4 0x7D253AFF EQ PUSH2 0x59 JUMPI PUSH1 0x0 DUP1 REVERT JUMPDEST CALLVALUE PUSH2 0x9B JUMPI DUP2 PUSH1 0x3 NOT CALLDATASIZE ADD SLT PUSH2 0x9B JUMPI PUSH1 0x20 SWAP1 MLOAD PUSH1 0x1 PUSH1 0x1 PUSH1 0xA0 SHL SUB PUSH32 0x0 AND DUP2 MSTORE RETURN JUMPDEST POP DUP1 REVERT JUMPDEST POP CALLVALUE PUSH2 0x9B JUMPI DUP2 PUSH1 0x3 NOT CALLDATASIZE ADD SLT PUSH2 0x9B JUMPI PUSH1 0x20 SWAP1 MLOAD PUSH1 0x1 PUSH1 0x1 PUSH1 0xA0 SHL SUB PUSH32 0x0 AND DUP2 MSTORE RETURN JUMPDEST POP CALLVALUE PUSH2 0x9B JUMPI PUSH1 0x3 NOT DUP2 DUP2 CALLDATASIZE ADD SLT PUSH2 0x142 JUMPI PUSH1 0x4 CALLDATALOAD SWAP1 PUSH8 0xFFFFFFFFFFFFFFFF DUP3 GT PUSH2 0x146 JUMPI PUSH2 0x140 SWAP1 DUP3 CALLDATASIZE SUB ADD SLT PUSH2 0x142 JUMPI PUSH1 0x24 CALLDATALOAD SWAP3 PUSH1 0x1 PUSH1 0x1 PUSH1 0xA0 SHL SUB DUP5 AND DUP5 SUB PUSH2 0x13F JUMPI POP PUSH1 0x20 SWAP3 PUSH2 0x138 SWAP2 PUSH1 0x4 ADD PUSH2 0x313 JUMP JUMPDEST SWAP1 MLOAD SWAP1 DUP2 MSTORE RETURN JUMPDEST DUP1 REVERT JUMPDEST DUP3 DUP1 REVERT JUMPDEST DUP4 DUP1 REVERT JUMPDEST POP CALLVALUE PUSH2 0x9B JUMPI PUSH1 0x20 CALLDATASIZE PUSH1 0x3 NOT ADD SLT PUSH2 0x9B JUMPI PUSH1 0x4 CALLDATALOAD SWAP1 PUSH1 0x1 PUSH1 0x1 PUSH1 0xA0 SHL SUB SWAP2 DUP3 DUP2 AND DUP1 SWAP2 SUB PUSH2 0x146 JUMPI PUSH1 0x20 SWAP1 PUSH1 0x64 PUSH12 0xFFFFFFFFFFFFFFFFFFFFFFFF PUSH1 0x1 SLOAD AND SWAP2 DUP7 DUP6 MLOAD SWAP7 DUP8 SWAP5 DUP6 SWAP4 PUSH32 0x23B872DD00000000000000000000000000000000000000000000000000000000 DUP6 MSTORE PUSH1 0x4 DUP6 ADD MSTORE ADDRESS PUSH1 0x24 DUP6 ADD MSTORE PUSH1 0x44 DUP5 ADD MSTORE PUSH32 0x0 AND GAS CALL SWAP1 DUP2 ISZERO PUSH2 0x224 JUMPI POP PUSH2 0x1F9 JUMPI POP DUP1 RETURN JUMPDEST PUSH2 0x219 SWAP1 PUSH1 0x20 RETURNDATASIZE DUP2 GT PUSH2 0x21D JUMPI JUMPDEST PUSH2 0x211 DUP2 DUP4 PUSH2 0x270 JUMP JUMPDEST DUP2 ADD SWAP1 PUSH2 0x2A8 JUMP JUMPDEST POP DUP1 RETURN JUMPDEST POP RETURNDATASIZE PUSH2 0x207 JUMP JUMPDEST MLOAD RETURNDATASIZE DUP5 DUP3 RETURNDATACOPY RETURNDATASIZE SWAP1 REVERT JUMPDEST DUP4 SWAP1 CALLVALUE PUSH2 0x9B JUMPI DUP2 PUSH1 0x3 NOT CALLDATASIZE ADD SLT PUSH2 0x9B JUMPI PUSH1 0x20 SWAP1 PUSH12 0xFFFFFFFFFFFFFFFFFFFFFFFF PUSH1 0x1 SLOAD AND DUP2 MSTORE RETURN JUMPDEST CALLDATALOAD SWAP1 PUSH1 0x1 PUSH1 0x1 PUSH1 0xA0 SHL SUB DUP3 AND DUP3 SUB PUSH2 0x26B JUMPI JUMP JUMPDEST PUSH1 0x0 DUP1 REVERT JUMPDEST SWAP1 PUSH1 0x1F DUP1 NOT SWAP2 ADD AND DUP2 ADD SWAP1 DUP2 LT PUSH8 0xFFFFFFFFFFFFFFFF DUP3 GT OR PUSH2 0x292 JUMPI PUSH1 0x40 MSTORE JUMP JUMPDEST PUSH4 0x4E487B71 PUSH1 0xE0 SHL PUSH1 0x0 MSTORE PUSH1 0x41 PUSH1 0x4 MSTORE PUSH1 0x24 PUSH1 0x0 REVERT JUMPDEST SWAP1 DUP2 PUSH1 0x20 SWAP2 SUB SLT PUSH2 0x26B JUMPI MLOAD DUP1 ISZERO ISZERO DUP2 SUB PUSH2 0x26B JUMPI SWAP1 JUMP JUMPDEST SWAP1 CALLDATALOAD PUSH1 0x1E NOT DUP3 CALLDATASIZE SUB ADD DUP2 SLT ISZERO PUSH2 0x26B JUMPI ADD PUSH1 0x20 DUP2 CALLDATALOAD SWAP2 ADD SWAP2 PUSH8 0xFFFFFFFFFFFFFFFF DUP3 GT PUSH2 0x26B JUMPI DUP2 CALLDATASIZE SUB DUP4 SGT PUSH2 0x26B JUMPI JUMP JUMPDEST SWAP1 DUP1 PUSH1 0x20 SWAP4 SWAP3 DUP2 DUP5 MSTORE DUP5 DUP5 ADD CALLDATACOPY PUSH1 0x0 DUP3 DUP3 ADD DUP5 ADD MSTORE PUSH1 0x1F ADD PUSH1 0x1F NOT AND ADD ADD SWAP1 JUMP JUMPDEST SWAP2 SWAP1 SWAP2 PUSH1 0x0 SWAP3 PUSH2 0x120 DUP3 ADD CALLDATALOAD PUSH12 0xFFFFFFFFFFFFFFFFFFFFFFFF DUP2 AND DUP1 SWAP2 SUB PUSH2 0x641 JUMPI PUSH1 0x40 SWAP1 DUP2 MLOAD SWAP3 PUSH32 0x95EA7B300000000000000000000000000000000000000000000000000000000 DUP5 MSTORE PUSH1 0x1 PUSH1 0x1 PUSH1 0xA0 SHL SUB SWAP2 DUP3 PUSH32 0x0 AND SWAP6 DUP7 PUSH1 0x4 DUP8 ADD MSTORE DUP2 PUSH1 0x24 DUP8 ADD MSTORE PUSH1 0x20 SWAP6 DUP7 DUP2 PUSH1 0x44 DUP2 DUP14 DUP10 PUSH32 0x0 AND GAS CALL DUP1 ISZERO PUSH2 0x637 JUMPI PUSH2 0x61A JUMPI JUMPDEST POP DUP5 MLOAD SWAP7 PUSH32 0x3F678E1100000000000000000000000000000000000000000000000000000000 DUP9 MSTORE DUP7 PUSH1 0x4 DUP10 ADD MSTORE PUSH2 0x41D PUSH2 0x40A DUP4 DUP1 PUSH2 0x2C0 JUMP JUMPDEST PUSH2 0x140 PUSH1 0x24 DUP13 ADD MSTORE PUSH2 0x164 DUP12 ADD SWAP2 PUSH2 0x2F2 JUMP JUMPDEST DUP11 PUSH2 0x441 PUSH2 0x42D DUP11 DUP7 ADD DUP7 PUSH2 0x2C0 JUMP JUMPDEST PUSH1 0x23 NOT DUP14 DUP7 SUB DUP2 ADD PUSH1 0x44 DUP16 ADD MSTORE SWAP5 SWAP2 PUSH2 0x2F2 JUMP JUMPDEST SWAP5 DUP8 PUSH2 0x44E DUP11 DUP8 ADD PUSH2 0x257 JUMP JUMPDEST AND PUSH1 0x64 DUP13 ADD MSTORE PUSH1 0x60 DUP6 ADD CALLDATALOAD PUSH4 0xFFFFFFFF DUP2 AND DUP1 SWAP2 SUB PUSH2 0x142 JUMPI PUSH1 0x84 DUP13 ADD MSTORE DUP8 PUSH2 0x479 PUSH1 0x80 DUP8 ADD PUSH2 0x257 JUMP JUMPDEST AND PUSH1 0xA4 DUP13 ADD MSTORE PUSH1 0xA0 DUP6 ADD CALLDATALOAD SWAP1 PUSH1 0xFF DUP3 AND DUP1 SWAP3 SUB PUSH2 0x142 JUMPI PUSH2 0x501 DUP13 SWAP7 DUP8 SWAP6 PUSH2 0x4F1 PUSH2 0x4E5 DUP16 SWAP12 PUSH2 0x4C7 SWAP1 DUP11 SWAP9 PUSH1 0xC4 DUP11 ADD MSTORE PUSH2 0x4B7 PUSH1 0xC0 DUP8 ADD DUP8 PUSH2 0x2C0 JUMP JUMPDEST SWAP1 DUP7 DUP12 DUP5 SUB ADD PUSH1 0xE4 DUP13 ADD MSTORE PUSH2 0x2F2 JUMP JUMPDEST PUSH2 0x4D4 PUSH1 0xE0 DUP7 ADD DUP7 PUSH2 0x2C0 JUMP JUMPDEST SWAP1 DUP6 DUP11 DUP5 SUB ADD PUSH2 0x104 DUP12 ADD MSTORE PUSH2 0x2F2 JUMP JUMPDEST SWAP3 PUSH2 0x100 DUP2 ADD SWAP1 PUSH2 0x2C0 JUMP JUMPDEST SWAP2 DUP7 DUP5 SUB ADD PUSH2 0x124 DUP8 ADD MSTORE PUSH2 0x2F2 JUMP JUMPDEST SWAP1 PUSH2 0x144 DUP4 ADD MSTORE SUB SWAP3 GAS CALL SWAP5 DUP6 ISZERO PUSH2 0x610 JUMPI DUP8 SWAP6 PUSH2 0x5DD JUMPI JUMPDEST POP DUP5 ISZERO PUSH2 0x580 JUMPI AND DUP6 MSTORE DUP5 DUP3 MSTORE DUP5 KECCAK256 SWAP1 DUP2 SLOAD SWAP2 PUSH9 0x10000000000000000 DUP4 LT ISZERO PUSH2 0x56C JUMPI PUSH1 0x1 DUP4 ADD DUP1 DUP3 SSTORE DUP4 LT ISZERO PUSH2 0x558 JUMPI SWAP5 DUP4 SWAP5 SWAP6 DUP2 MSTORE KECCAK256 ADD SSTORE SWAP1 JUMP JUMPDEST PUSH1 0x24 DUP7 PUSH4 0x4E487B71 PUSH1 0xE0 SHL DUP2 MSTORE PUSH1 0x32 PUSH1 0x4 MSTORE REVERT JUMPDEST PUSH1 0x24 DUP7 PUSH4 0x4E487B71 PUSH1 0xE0 SHL DUP2 MSTORE PUSH1 0x41 PUSH1 0x4 MSTORE REVERT JUMPDEST PUSH1 0x64 DUP5 DUP5 MLOAD SWAP1 PUSH32 0x8C379A000000000000000000000000000000000000000000000000000000000 DUP3 MSTORE PUSH1 0x4 DUP3 ADD MSTORE PUSH1 0x15 PUSH1 0x24 DUP3 ADD MSTORE PUSH32 0x6175746F2D617070726F76652064697361626C65640000000000000000000000 PUSH1 0x44 DUP3 ADD MSTORE REVERT JUMPDEST SWAP1 SWAP5 POP DUP4 DUP2 DUP2 RETURNDATASIZE DUP4 GT PUSH2 0x609 JUMPI JUMPDEST PUSH2 0x5F5 DUP2 DUP4 PUSH2 0x270 JUMP JUMPDEST DUP2 ADD SUB SLT PUSH2 0x605 JUMPI MLOAD SWAP4 CODESIZE PUSH2 0x51A JUMP JUMPDEST DUP7 DUP1 REVERT JUMPDEST POP RETURNDATASIZE PUSH2 0x5EB JUMP JUMPDEST DUP4 MLOAD RETURNDATASIZE DUP10 DUP3 RETURNDATACOPY RETURNDATASIZE SWAP1 REVERT JUMPDEST PUSH2 0x630 SWAP1 DUP8 RETURNDATASIZE DUP10 GT PUSH2 0x21D JUMPI PUSH2 0x211 DUP2 DUP4 PUSH2 0x270 JUMP JUMPDEST POP CODESIZE PUSH2 0x3D0 JUMP JUMPDEST DUP7 MLOAD RETURNDATASIZE DUP13 DUP3 RETURNDATACOPY RETURNDATASIZE SWAP1 REVERT JUMPDEST DUP5 DUP1 REVERT INVALID LOG2 PUSH5 0x6970667358 0x22 SLT KECCAK256 0xB5 0xD5 0xE5 0x49 STATICCALL LOG0 CREATE PUSH15 0x6B4C0D541D8329AF501EE63625D5B8 PUSH19 0xCB2297C6DBD1556D64736F6C63430008130033 LOG2 PUSH5 0x6970667358 0x22 SLT KECCAK256 0xAA DUP1 DUP6 0xBB 0xDF 0xA5 0xEC SWAP9 0xEF DUP16 SMOD PUSH29 0xF8F267BC9AD2634FA3600FA56B14650D4CF8C38064736F6C6343000813 STOP CALLER PUSH14 0x4407E7BE21F808E6509AA9FA9143 CALLDATASIZE SWAP6 PUSH26 0xDD7D760FE20A2C09680FC146134FA2646970667358221220E7A6 LOG2 PUSH29 0xC396F734C76E2E0AD522C9D62199476FBC9A509A4E1265501EBFD65A64 PUSH20 0x6F6C634300081300330000000000000000000000 "},"methodIdentifiers":{"blacklistAddr(address)":"8a699f00","contractBalance()":"8b7afe2e","contracts(address,uint256)":"ed23f8c3","createInsuranceContract(address,address,uint256,uint256,uint256,uint256,address,uint64,address,address,address,uint32,bytes32,bytes,string)":"dc7a1365","getAllInsuranceContracts(address)":"3f0f912d","im_owner()":"af6081de","info(string)":"17fab0a0","infoKeys(uint256)":"90f6d378","institutionName()":"3a133e2c","registerInfo(string[2][])":"dfb50e64","whitelist(address)":"9b19251a","whitelistAddr(address)":"080a57f9","withdraw()":"3ccfd60b"}}}}}