{"contracts/mock/mockInstitution.sol":{"Institution":{"abi":[{"inputs":[{"internalType":"address","name":"_owner","type":"address"},{"internalType":"string","name":"_institutionName","type":"string"}],"stateMutability":"nonpayable","type":"constructor"},{"inputs":[],"name":"NotOwner","type":"error"},{"anonymous":false,"inputs":[{"indexed":false,"internalType":"address","name":"insuranceContractAddress","type":"address"}],"name":"InsuranceContractCreated","type":"event"},{"inputs":[{"internalType":"address","name":"_farmerAddr","type":"address"}],"name":"blacklistAddr","outputs":[],"stateMutability":"nonpayable","type":"function"},{"inputs":[],"name":"contractBalance","outputs":[{"internalType":"uint256","name":"","type":"uint256"}],"stateMutability":"view","type":"function"},{"inputs":[{"internalType":"address","name":"","type":"address"},{"internalType":"uint256","name":"","type":"uint256"}],"name":"contracts","outputs":[{"internalType":"contract AutomatedFunctionsConsumer","name":"","type":"address"}],"stateMutability":"view","type":"function"},{"inputs":[{"internalType":"address","name":"_deployer","type":"address"},{"internalType":"address","name":"_farmer","type":"address"},{"internalType":"uint256","name":"_humidityLimit","type":"uint256"},{"internalType":"uint256","name":"_sampleMaxSize","type":"uint256"},{"internalType":"uint256","name":"_reparationValue","type":"uint256"},{"internalType":"uint256","name":"_updateInterval","type":"uint256"},{"internalType":"address","name":"router","type":"address"},{"internalType":"uint64","name":"_subscriptionId","type":"uint64"},{"internalType":"address","name":"_registry","type":"address"},{"internalType":"address","name":"_sepoliaLINKAddress","type":"address"},{"internalType":"address","name":"_sepoliaRegistrarAddress","type":"address"},{"internalType":"uint32","name":"_fulfillGasLimit","type":"uint32"}],"name":"createInsuranceContract","outputs":[],"stateMutability":"nonpayable","type":"function"},{"inputs":[{"internalType":"uint256","name":"_index","type":"uint256"}],"name":"getInsurance","outputs":[{"internalType":"contract AutomatedFunctionsConsumer","name":"","type":"address"}],"stateMutability":"view","type":"function"},{"inputs":[],"name":"i_owner","outputs":[{"internalType":"address","name":"","type":"address"}],"stateMutability":"view","type":"function"},{"inputs":[],"name":"id","outputs":[{"internalType":"string","name":"","type":"string"}],"stateMutability":"view","type":"function"},{"inputs":[],"name":"institutionName","outputs":[{"internalType":"string","name":"","type":"string"}],"stateMutability":"view","type":"function"},{"inputs":[{"internalType":"address","name":"_farmerAddr","type":"address"}],"name":"isWhiteListed","outputs":[{"internalType":"bool","name":"","type":"bool"}],"stateMutability":"view","type":"function"},{"inputs":[{"internalType":"string","name":"_name","type":"string"},{"internalType":"string","name":"_description","type":"string"}],"name":"registerInfo","outputs":[],"stateMutability":"nonpayable","type":"function"},{"inputs":[{"internalType":"address","name":"","type":"address"}],"name":"whitelist","outputs":[{"internalType":"bool","name":"","type":"bool"}],"stateMutability":"view","type":"function"},{"inputs":[{"internalType":"address","name":"_farmerAddr","type":"address"}],"name":"whitelistAddr","outputs":[],"stateMutability":"nonpayable","type":"function"},{"inputs":[],"name":"withdraw","outputs":[],"stateMutability":"nonpayable","type":"function"},{"stateMutability":"payable","type":"receive"}],"evm":{"bytecode":{"linkReferences":{},"object":"60a06040523462000248576200288d803803806200001d816200024d565b928339810190604081830312620002485780516001600160a01b038116810362000248576020828101516001600160401b039391929184821162000248570193601f91818387011215620002485785518581116200021d57601f19966200008a828601891687016200024d565b938285528683830101116200024857859060005b838110620002335750506000918401015260805280519384116200021d57600054926001938481811c9116801562000212575b82821014620001fc57838111620001b1575b5080928511600114620001475750839450908392916000946200013b575b50501b916000199060031b1c1916176000555b60405161261990816200027482396080518181816103aa0152818161054c015261097d0152f35b01519250388062000101565b9294849081166000805284600020946000905b888383106200019657505050106200017c575b505050811b0160005562000114565b015160001960f88460031b161c191690553880806200016d565b8587015188559096019594850194879350908101906200015a565b60008052816000208480880160051c820192848910620001f2575b0160051c019085905b828110620001e5575050620000e3565b60008155018590620001d5565b92508192620001cc565b634e487b7160e01b600052602260045260246000fd5b90607f1690620000d1565b634e487b7160e01b600052604160045260246000fd5b8181018301518682018401528792016200009e565b600080fd5b6040519190601f01601f191682016001600160401b038111838210176200021d5760405256fe608060405260043610156200001d575b36156200001b57600080fd5b005b60003560e01c8063080a57f914620001065780633a133e2c14620001005780633ccfd60b14620000fa5780636a4ac97914620000f45780636f9170f614620000ee57806377ad0b3414620000e857806385fae60214620000e25780638a699f0014620000dc5780638b7afe2e14620000d65780639b19251a14620000d0578063af640d0f14620000ca578063dba6335f14620000c45763ed23f8c3036200000f57620009d0565b6200095b565b620008a8565b62000865565b62000847565b62000809565b620007c1565b62000726565b62000667565b620004ef565b6200038c565b62000297565b62000187565b600435906001600160a01b03821682036200012357565b600080fd5b60c435906001600160a01b03821682036200012357565b61010435906001600160a01b03821682036200012357565b61012435906001600160a01b03821682036200012357565b61014435906001600160a01b03821682036200012357565b346200012357602036600319011262000123576001600160a01b03620001ac6200010c565b166000908152600360205260409020805460ff19166001179055005b90600182811c92168015620001fa575b6020831014620001e457565b634e487b7160e01b600052602260045260246000fd5b91607f1691620001d8565b634e487b7160e01b600052604160045260246000fd5b90601f8019910116810190811067ffffffffffffffff8211176200023e57604052565b62000205565b60005b838110620002585750506000910152565b818101518382015260200162000247565b604091602082526200028b815180928160208601526020868601910162000244565b601f01601f1916010190565b346200012357600080600319360112620003895760405190808054620002bd81620001c8565b808552916001918083169081156200035c5750600114620002fd575b620002f985620002ec818703826200021b565b6040519182918262000269565b0390f35b80809450527f290decd9548b62a8d60345a988386fc84ba6bc95484008f6362f93160ef3e5635b82841062000343575050508101602001620002ec82620002f9620002d9565b8054602085870181019190915290930192810162000324565b869550620002f996935060209250620002ec94915060ff191682840152151560051b8201019293620002d9565b80fd5b34620001235760008060031936011262000389576001600160a01b037f0000000000000000000000000000000000000000000000000000000000000000168033036200045b57818080809347905af13d1562000455573d620003ee8162000485565b90620003fe60405192836200021b565b81528260203d92013e5b15620004115780f35b606460405162461bcd60e51b815260206004820152600f60248201527f4f2073617175652066616c686f752e00000000000000000000000000000000006044820152fd5b62000408565b60046040517f30cd7471000000000000000000000000000000000000000000000000000000008152fd5b67ffffffffffffffff81116200023e57601f01601f191660200190565b81601f820112156200012357803590620004bc8262000485565b92620004cc60405194856200021b565b828452602083830101116200012357816000926020809301838601378301015290565b3462000123576040366003190112620001235767ffffffffffffffff600435818111620001235762000526903690600401620004a2565b602435828111620001235762000541903690600401620004a2565b916001600160a01b037f00000000000000000000000000000000000000000000000000000000000000001633036200045b5760405182818094516200058d816020978880960162000244565b810160028152030190209183519182116200023e57620005ba82620005b38554620001c8565b8562000a21565b80601f8311600114620005f85750819293600092620005ec575b5050600019600383901b1c191660019190911b179055005b015190503880620005d4565b90601f198316946200060f85600052602060002090565b926000905b8782106200064e57505083600195961062000634575b505050811b019055005b015160001960f88460031b161c191690553880806200062a565b8060018596829496860151815501950193019062000614565b346200012357602036600319011262000123576001600160a01b036200068c6200010c565b16600052600360205260ff6040600020541660405160208101917f32458eed000000000000000000000000000000000000000000000000000000008352151590816024820152602481526060810181811067ffffffffffffffff8211176200023e576040525160209260009182916a636f6e736f6c652e6c6f675afa50604051908152f35b610164359063ffffffff821682036200012357565b3462000123576101803660031901126200012357620007446200010c565b602435906001600160a01b038216820362000123576200076362000128565b9160e4359267ffffffffffffffff8416840362000123576200001b93620007896200013f565b906200079462000157565b926200079f6200016f565b94620007aa62000711565b9660a4359160843591606435916044359162000aca565b3462000123576020366003190112620001235733600052600460205260206001600160a01b03620007f96004356040600020620009a1565b9190546040519260031b1c168152f35b346200012357602036600319011262000123576001600160a01b036200082e6200010c565b166000908152600360205260409020805460ff19169055005b34620001235760003660031901126200012357602047604051908152f35b346200012357602036600319011262000123576001600160a01b036200088a6200010c565b166000526003602052602060ff604060002054166040519015158152f35b346200012357600080600319360112620003895760405190806001805491620008d183620001c8565b808652928281169081156200035c5750600114620008fc57620002f985620002ec818703826200021b565b92508083527fb10e2d527612073b26eecdfd717e6a320cf44b4afac2b0732d9fcbe2b7fa0cf65b82841062000942575050508101602001620002ec82620002f9620002d9565b8054602085870181019190915290930192810162000923565b3462000123576000366003190112620001235760206040516001600160a01b037f0000000000000000000000000000000000000000000000000000000000000000168152f35b8054821015620009ba5760005260206000200190600090565b634e487b7160e01b600052603260045260246000fd5b34620001235760403660031901126200012357620009ed6200010c565b602435906001600160a01b038091166000526004602052604060002080548310156200012357602092620007f991620009a1565b90601f811162000a3057505050565b600091825260208220906020601f850160051c8301941062000a6f575b601f0160051c01915b82811062000a6357505050565b81815560010162000a56565b909250829062000a4d565b6040513d6000823e3d90fd5b8054680100000000000000008110156200023e5762000aab91600182018155620009a1565b819291549060031b916001600160a01b03809116831b921b1916179055565b96909a94999398929791956001600160a01b039a8b8d16600052600360205260ff604060002054161562000c14576040519961196590818c01998c8b1067ffffffffffffffff8c11176200023e578f8d9c8f949c62000ba49d8f62000c7f90399a979296909194958b99949d9c9a966101808b019e6001600160a01b039b8c9a8b809a81809916845216602083015260408201526060015260808d015260a08c01521660c08a015267ffffffffffffffff1660e089015216610100870152166101208501521661014083015263ffffffff16906101600152565b0391f0801562000c0e5762000bf88162000bf27fa155a575082ecf596e5a22a44834be92670605d1d0832000305888ba02a462d9956001600160a01b03166000526004602052604060002090565b62000a86565b60405191166001600160a01b03168152602090a1565b62000a7a565b608460405162461bcd60e51b815260206004820152602160248201527f456e64657265636f206e616f2065737461206e61206c69737461206272616e6360448201527f61000000000000000000000000000000000000000000000000000000000000006064820152fdfe6001600160401b03610100601f6200196538819003918201601f191683019184831184841017620001e45780849261018094604052833981010312620001df576200004a81620001fa565b6200005860208301620001fa565b91604081015191606082015191608081015160a0820151936200007e60c08401620001fa565b9460e0840151988916809903620001df57610160620000a16101008601620001fa565b94620000b16101208201620001fa565b60a052620000c36101408201620001fa565b608052015163ffffffff81168103620001df5760006001556001600160a01b0360e08190528616156200019a5760018060a01b0319998a988960c05260e051809b819b82809b169081816003541617600355601c541617601c55168c601d541617601d556020556bffffffff00000000000000006009549260401b169160018060601b0319161717600955600a55602155601f551684600d541617600d55426018551682600c541617600c558060a0511682601a541617601a556080511690601b541617601b556040516117559081620002108239f35b60405162461bcd60e51b815260206004820152601860248201527f43616e6e6f7420736574206f776e657220746f207a65726f00000000000000006044820152606490fd5b600080fd5b634e487b7160e01b600052604160045260246000fd5b51906001600160a01b0382168203620001df5756fe608060408181526004918236101561001657600080fd5b600092833560e01c9182626d6cae1461125257508163089ea02e1461123357816309c1ba2e1461120a5781631243bcc3146111e25781631aa46f59146111c357816324b93e3e1461119d578163277e22131461109d578163338cdca114610ff3578163381fc4b514610fd45781633944ea3a14610f2a57816343cd3d8614610f0b5781634585e33b14610ca9578163472cbbb014610abc57816348802b9214610a9d57816348bd6f0514610a7e5781634b0795a8146109d45781635d641dfc146109b85781635e0611f114610990578163688ecfd11461095f5781636baa48fe146109375781636e04ff0d1461083c5781636e74336b1461081d57816379ba5097146107615781637b103999146107395781638b7afe2e1461071e5781638da5cb5b146106f65781639655e6d8146105ba578163a30971391461059c578163a3d3c0d21461057d578163b1e217491461055e578163bef3a2f0146104b4578163d1384eb61461048c578163d2aa789f1461046d578163d811fcf014610445578163ebf14a5514610426578163f2fde38b1461035957508063f5c1279b1461033b578063f68016b714610317578063f887ea40146102f0578063fd2c80ae146102d25763fffeb84e146101e757600080fd5b346102ce57816003193601126102ce57805190826008546102078161126c565b808552916001918083169081156102a65750600114610249575b505050610233826102459403836112a6565b519182916020835260208301906112de565b0390f35b9450600885527ff3f7a9fe364faab93b216da50a3214154f22a0a2b415b23a84c8169e8b636ee35b82861061028e575050506102338260206102459582010194610221565b80546020878701810191909152909501948101610271565b61024597508693506020925061023394915060ff191682840152151560051b82010194610221565b5080fd5b50346102ce57816003193601126102ce57602090600a549051908152f35b50346102ce57816003193601126102ce576020906001600160a01b03600c54169051908152f35b50346102ce57816003193601126102ce5760209063ffffffff601054169051908152f35b50346102ce57816003193601126102ce576020906015549051908152f35b91905034610422576020366003190112610422578135916001600160a01b039182841680940361041e5761038b611441565b3384146103db57508273ffffffffffffffffffffffffffffffffffffffff19825416179055600354167fed8889f560326eb138920d842192f0eb3dd22b4f139c87a2c57538e05bae12788380a380f35b906020606492519162461bcd60e51b8352820152601760248201527f43616e6e6f74207472616e7366657220746f2073656c660000000000000000006044820152fd5b8480fd5b8280fd5b5050346102ce57816003193601126102ce576020906021549051908152f35b5050346102ce57816003193601126102ce576020906001600160a01b03601d54169051908152f35b5050346102ce57816003193601126102ce57602090600e549051908152f35b5050346102ce57816003193601126102ce576020906001600160a01b03601c54169051908152f35b5050346102ce57816003193601126102ce57805190826007546104d68161126c565b808552916001918083169081156102a6575060011461050157505050610233826102459403836112a6565b9450600785527fa66cc928b5edb82af9bd49922954155ab7b0942694bea4ce44661d9a8736c6885b828610610546575050506102338260206102459582010194610221565b80546020878701810191909152909501948101610529565b5050346102ce57816003193601126102ce576020906012549051908152f35b5050346102ce57816003193601126102ce576020906019549051908152f35b5050346102ce57816003193601126102ce5760209081549051908152f35b8383346102ce57806003193601126102ce57602435923582526020926002845281832080548210156106f257906105f09161140f565b509167ffffffffffffffff83541692600180820192868551948593838254926106188461126c565b808852938381169081156106cc5750600114610686575b505050505063ffffffff92916106469103846112a6565b61066a600360028301549201549360a08651988998895288015260a08701906112de565b9361ffff82169086015260101c16606084015260808301520390f35b81528381209695945091905b8183106106b45750939450919250908201018661064663ffffffff8a8061062f565b86548884018501529586019587945091830191610692565b60ff19168689015250505050151560051b83010190508661064663ffffffff8a8061062f565b8380fd5b5050346102ce57816003193601126102ce576020906001600160a01b03600354169051908152f35b5050346102ce57816003193601126102ce5751478152602090f35b5050346102ce57816003193601126102ce576020906001600160a01b03600d54169051908152f35b919050346104225782600319360112610422578154916001600160a01b039182841633036107da57506003549273ffffffffffffffffffffffffffffffffffffffff199033828616176003551690553391167f8be0079c531659141344cd1fd0a4f28419497f9722a3daafe3b4186f6b6457e08380a380f35b906020606492519162461bcd60e51b8352820152601660248201527f4d7573742062652070726f706f736564206f776e6572000000000000000000006044820152fd5b5050346102ce57816003193601126102ce576020906011549051908152f35b90503461042257602091826003193601126106f25767ffffffffffffffff91803583811161093357366023820112156109335780820135938411610920578251601f1994879291610894601f830188168901826112a6565b81815236602483850101116106f2578160248994018483013701015260185442039042821161090d5750600a92919254109180519485938452818585015260609485518093860152815b8381106108f8575050838201850152601f01168101030190f35b608081015188820188015287955081016108de565b856011602492634e487b7160e01b835252fd5b602486604184634e487b7160e01b835252fd5b8580fd5b5050346102ce57816003193601126102ce576020906001600160a01b03601b54169051908152f35b5050346102ce57816003193601126102ce576102459061097d61131e565b90519182916020835260208301906112de565b5050346102ce57816003193601126102ce576020906001600160a01b03601e54169051908152f35b5050346102ce57816003193601126102ce576020905160018152f35b5050346102ce57816003193601126102ce57805190826014546109f68161126c565b808552916001918083169081156102a65750600114610a2157505050610233826102459403836112a6565b9450601485527fce6d7b5282bd9a3661ae061feed1dbda4e52ab073b1f9285be6e155d9c38d4ec5b828610610a66575050506102338260206102459582010194610221565b80546020878701810191909152909501948101610a49565b5050346102ce57816003193601126102ce57602090601f549051908152f35b5050346102ce57816003193601126102ce576020906016549051908152f35b9050346104225760a03660031901126104225767ffffffffffffffff813581811161041e57610aee90369084016113dc565b9060243593838516809503610ca5576044359363ffffffff85168503610ca157610b16611441565b8311610c8e5750610b2860055461126c565b601f8111610c2f575b508590601f8311600114610ba2576bffffffff0000000000000000939291879183610b97575b50508160011b916000199060031b1c1916176005555b600954931b16916bffffffffffffffffffffffff19161717600955606435601155608435600a5580f35b013590503880610b57565b7f036b6384b5eca791c62761152d0c79bb0604c104a5fb6f4eb0703f3154bb3db091601f198416885b818110610c1757509160019391856bffffffff000000000000000097969410610bfd575b505050811b01600555610b6d565b0135600019600384901b60f8161c19169055388080610bef565b91936020600181928787013581550195019201610bcb565b7f036b6384b5eca791c62761152d0c79bb0604c104a5fb6f4eb0703f3154bb3db0601f840160051c81019160208510610c84575b601f0160051c01905b818110610c795750610b31565b878155600101610c6c565b9091508190610c63565b866041602492634e487b7160e01b835252fd5b8780fd5b8680fd5b919050346104225760203660031901126104225767ffffffffffffffff90823582811161041e57610cdd90369085016113dc565b50506001600160a01b038060035416908133141580610efd575b610ebd575050600e5415610e7b5780516020810181811084821117610e68579085918352526018544203428111610e5557600a541015610e1357504260185560195460018101809111610e00576019556021546022541015610da457610d75906009541663ffffffff6010541660115491610d7061131e565b611499565b8060125582556016549060018201809211610d91575060165580f35b826011602492634e487b7160e01b835252fd5b610d7590740100000000000000000000000000000000000000007fffffffffffffffffffffff00ffffffffffffffffffffffffffffffffffffffff601e541617601e556009541663ffffffff6010541660115491610d7061131e565b602484601185634e487b7160e01b835252fd5b5162461bcd60e51b8152602081840152601560248201527f54696d6520696e74657276616c206e6f74206d657400000000000000000000006044820152606490fd5b602485601186634e487b7160e01b835252fd5b602486604187634e487b7160e01b835252fd5b5162461bcd60e51b8152602081840152601560248201527f55706b656570206e6f74207265676973746572656400000000000000000000006044820152606490fd5b6064949350601e54169151927f426fbc71000000000000000000000000000000000000000000000000000000008452339084015260248301526044820152fd5b5080601e5416331415610cf7565b5050346102ce57816003193601126102ce576020906017549051908152f35b5050346102ce57816003193601126102ce5780519082601354610f4c8161126c565b808552916001918083169081156102a65750600114610f7757505050610233826102459403836112a6565b9450601385527f66de8ffda797e3de9c05e8fc57b3bf0ec28a930d40b0d285d93c06501cf6a0905b828610610fbc575050506102338260206102459582010194610221565b80546020878701810191909152909501948101610f9f565b5050346102ce57816003193601126102ce57602090600b549051908152f35b5050346102ce57816003193601126102ce5780519082600f546110158161126c565b808552916001918083169081156102a6575060011461104057505050610233826102459403836112a6565b9450600f85527f8d1108e10bcb7c27dddfc02ed9d693a074039d026cf4ea4240b40f7d581ac8025b828610611085575050506102338260206102459582010194610221565b80546020878701810191909152909501948101611068565b9190503461042257602091826003193601126106f257356022548110156106f257602284527f61035b26e3e9eee00e0d72fd1ee8ddca6894550dca6916ea2ac6baa90d11e510018151938491818154906110f68261126c565b92838652600192888482169182600014611173575050600114611135575b858861024589611126848a03856112a6565b519282849384528301906112de565b87945081939291528383205b82841061115b575050508201018161112661024538611114565b8054848a018601528895508794909301928101611141565b60ff19168882015294151560051b8701909401945085935061112692506102459150389050611114565b5050346102ce57816003193601126102ce576009548151911c63ffffffff168152602090f35b5050346102ce57816003193601126102ce576020906006549051908152f35b5050346102ce57816003193601126102ce576020906001600160a01b03601a54169051908152f35b5050346102ce57816003193601126102ce5760209067ffffffffffffffff600954169051908152f35b5050346102ce57816003193601126102ce576020906018549051908152f35b8490346102ce57816003193601126102ce57602091548152f35b90600182811c9216801561129c575b602083101461128657565b634e487b7160e01b600052602260045260246000fd5b91607f169161127b565b90601f8019910116810190811067ffffffffffffffff8211176112c857604052565b634e487b7160e01b600052604160045260246000fd5b919082519283825260005b84811061130a575050826000602080949584010152601f8019910116010190565b6020818301810151848301820152016112e9565b60405190600082600554916113328361126c565b808352926001908181169081156113ba575060011461135b575b50611359925003836112a6565b565b6005600090815291507f036b6384b5eca791c62761152d0c79bb0604c104a5fb6f4eb0703f3154bb3db05b84831061139f575061135993505081016020013861134c565b81935090816020925483858a01015201910190918592611386565b90506020925061135994915060ff191682840152151560051b8201013861134c565b9181601f8401121561140a5782359167ffffffffffffffff831161140a576020838186019501011161140a57565b600080fd5b805482101561142b5760005260206000209060021b0190600090565b634e487b7160e01b600052603260045260246000fd5b6001600160a01b0360035416330361145557565b606460405162461bcd60e51b815260206004820152601660248201527f4f6e6c792063616c6c61626c65206279206f776e6572000000000000000000006044820152fd5b91909392936040519160a0830167ffffffffffffffff92848210848311176112c85783916040521683526020938484019081526040840192600180855263ffffffff60608701941684526080860198895280549660009780895582810180821161170b57835588526002815260408820805490680100000000000000008210156116f7579061152c91848201815561140f565b9790976116e4578390511667ffffffffffffffff19885416178755818701935180519384116116d05761155f855461126c565b601f811161168a575b5081601f85116001146115fc57509280600397959381937f1131472297a800fee664d1d89cfa8f7676ff07189ecc53f80bbb5f4969099db89c9d98968c946115f1575b50501b9160001990881b1c19161790555b61ffff6002860192511665ffffffff00008354925160101b169165ffffffffffff19161717905551910155805491818392a290565b0151925038806115ab565b9190601f949394198416868b52838b20938b905b828210611673575050917f1131472297a800fee664d1d89cfa8f7676ff07189ecc53f80bbb5f4969099db89b9c979593918560039a9896941061165b575b505050811b0190556115bc565b0151600019838a1b60f8161c1916905538808061164e565b808886978294978701518155019601940190611610565b858a52828a20601f860160051c8101918487106116c6575b601f0160051c019084905b8281106116bb575050611568565b8b81550184906116ad565b90915081906116a2565b602489634e487b7160e01b81526041600452fd5b602489634e487b7160e01b815280600452fd5b60248a634e487b7160e01b81526041600452fd5b60248a634e487b7160e01b81526011600452fdfea264697066735822122096f0e3302cdc684cc255edf837dc4a8215ea3a8079e6e89a7dc0c5d6bdd57d0e64736f6c63430008130033a2646970667358221220fd673419bf968957d0e0bc9beb2c285212e8b17e9050236d0edec5c89f7ad52164736f6c63430008130033","opcodes":"PUSH1 0xA0 PUSH1 0x40 MSTORE CALLVALUE PUSH3 0x248 JUMPI PUSH3 0x288D DUP1 CODESIZE SUB DUP1 PUSH3 0x1D DUP2 PUSH3 0x24D JUMP JUMPDEST SWAP3 DUP4 CODECOPY DUP2 ADD SWAP1 PUSH1 0x40 DUP2 DUP4 SUB SLT PUSH3 0x248 JUMPI DUP1 MLOAD PUSH1 0x1 PUSH1 0x1 PUSH1 0xA0 SHL SUB DUP2 AND DUP2 SUB PUSH3 0x248 JUMPI PUSH1 0x20 DUP3 DUP2 ADD MLOAD PUSH1 0x1 PUSH1 0x1 PUSH1 0x40 SHL SUB SWAP4 SWAP2 SWAP3 SWAP2 DUP5 DUP3 GT PUSH3 0x248 JUMPI ADD SWAP4 PUSH1 0x1F SWAP2 DUP2 DUP4 DUP8 ADD SLT ISZERO PUSH3 0x248 JUMPI DUP6 MLOAD DUP6 DUP2 GT PUSH3 0x21D JUMPI PUSH1 0x1F NOT SWAP7 PUSH3 0x8A DUP3 DUP7 ADD DUP10 AND DUP8 ADD PUSH3 0x24D JUMP JUMPDEST SWAP4 DUP3 DUP6 MSTORE DUP7 DUP4 DUP4 ADD ADD GT PUSH3 0x248 JUMPI DUP6 SWAP1 PUSH1 0x0 JUMPDEST DUP4 DUP2 LT PUSH3 0x233 JUMPI POP POP PUSH1 0x0 SWAP2 DUP5 ADD ADD MSTORE PUSH1 0x80 MSTORE DUP1 MLOAD SWAP4 DUP5 GT PUSH3 0x21D JUMPI PUSH1 0x0 SLOAD SWAP3 PUSH1 0x1 SWAP4 DUP5 DUP2 DUP2 SHR SWAP2 AND DUP1 ISZERO PUSH3 0x212 JUMPI JUMPDEST DUP3 DUP3 LT EQ PUSH3 0x1FC JUMPI DUP4 DUP2 GT PUSH3 0x1B1 JUMPI JUMPDEST POP DUP1 SWAP3 DUP6 GT PUSH1 0x1 EQ PUSH3 0x147 JUMPI POP DUP4 SWAP5 POP SWAP1 DUP4 SWAP3 SWAP2 PUSH1 0x0 SWAP5 PUSH3 0x13B JUMPI JUMPDEST POP POP SHL SWAP2 PUSH1 0x0 NOT SWAP1 PUSH1 0x3 SHL SHR NOT AND OR PUSH1 0x0 SSTORE JUMPDEST PUSH1 0x40 MLOAD PUSH2 0x2619 SWAP1 DUP2 PUSH3 0x274 DUP3 CODECOPY PUSH1 0x80 MLOAD DUP2 DUP2 DUP2 PUSH2 0x3AA ADD MSTORE DUP2 DUP2 PUSH2 0x54C ADD MSTORE PUSH2 0x97D ADD MSTORE RETURN JUMPDEST ADD MLOAD SWAP3 POP CODESIZE DUP1 PUSH3 0x101 JUMP JUMPDEST SWAP3 SWAP5 DUP5 SWAP1 DUP2 AND PUSH1 0x0 DUP1 MSTORE DUP5 PUSH1 0x0 KECCAK256 SWAP5 PUSH1 0x0 SWAP1 JUMPDEST DUP9 DUP4 DUP4 LT PUSH3 0x196 JUMPI POP POP POP LT PUSH3 0x17C JUMPI JUMPDEST POP POP POP DUP2 SHL ADD PUSH1 0x0 SSTORE PUSH3 0x114 JUMP JUMPDEST ADD MLOAD PUSH1 0x0 NOT PUSH1 0xF8 DUP5 PUSH1 0x3 SHL AND SHR NOT AND SWAP1 SSTORE CODESIZE DUP1 DUP1 PUSH3 0x16D JUMP JUMPDEST DUP6 DUP8 ADD MLOAD DUP9 SSTORE SWAP1 SWAP7 ADD SWAP6 SWAP5 DUP6 ADD SWAP5 DUP8 SWAP4 POP SWAP1 DUP2 ADD SWAP1 PUSH3 0x15A JUMP JUMPDEST PUSH1 0x0 DUP1 MSTORE DUP2 PUSH1 0x0 KECCAK256 DUP5 DUP1 DUP9 ADD PUSH1 0x5 SHR DUP3 ADD SWAP3 DUP5 DUP10 LT PUSH3 0x1F2 JUMPI JUMPDEST ADD PUSH1 0x5 SHR ADD SWAP1 DUP6 SWAP1 JUMPDEST DUP3 DUP2 LT PUSH3 0x1E5 JUMPI POP POP PUSH3 0xE3 JUMP JUMPDEST PUSH1 0x0 DUP2 SSTORE ADD DUP6 SWAP1 PUSH3 0x1D5 JUMP JUMPDEST SWAP3 POP DUP2 SWAP3 PUSH3 0x1CC JUMP JUMPDEST PUSH4 0x4E487B71 PUSH1 0xE0 SHL PUSH1 0x0 MSTORE PUSH1 0x22 PUSH1 0x4 MSTORE PUSH1 0x24 PUSH1 0x0 REVERT JUMPDEST SWAP1 PUSH1 0x7F AND SWAP1 PUSH3 0xD1 JUMP JUMPDEST PUSH4 0x4E487B71 PUSH1 0xE0 SHL PUSH1 0x0 MSTORE PUSH1 0x41 PUSH1 0x4 MSTORE PUSH1 0x24 PUSH1 0x0 REVERT JUMPDEST DUP2 DUP2 ADD DUP4 ADD MLOAD DUP7 DUP3 ADD DUP5 ADD MSTORE DUP8 SWAP3 ADD PUSH3 0x9E JUMP JUMPDEST PUSH1 0x0 DUP1 REVERT JUMPDEST PUSH1 0x40 MLOAD SWAP2 SWAP1 PUSH1 0x1F ADD PUSH1 0x1F NOT AND DUP3 ADD PUSH1 0x1 PUSH1 0x1 PUSH1 0x40 SHL SUB DUP2 GT DUP4 DUP3 LT OR PUSH3 0x21D JUMPI PUSH1 0x40 MSTORE JUMP INVALID PUSH1 0x80 PUSH1 0x40 MSTORE PUSH1 0x4 CALLDATASIZE LT ISZERO PUSH3 0x1D JUMPI JUMPDEST CALLDATASIZE ISZERO PUSH3 0x1B JUMPI PUSH1 0x0 DUP1 REVERT JUMPDEST STOP JUMPDEST PUSH1 0x0 CALLDATALOAD PUSH1 0xE0 SHR DUP1 PUSH4 0x80A57F9 EQ PUSH3 0x106 JUMPI DUP1 PUSH4 0x3A133E2C EQ PUSH3 0x100 JUMPI DUP1 PUSH4 0x3CCFD60B EQ PUSH3 0xFA JUMPI DUP1 PUSH4 0x6A4AC979 EQ PUSH3 0xF4 JUMPI DUP1 PUSH4 0x6F9170F6 EQ PUSH3 0xEE JUMPI DUP1 PUSH4 0x77AD0B34 EQ PUSH3 0xE8 JUMPI DUP1 PUSH4 0x85FAE602 EQ PUSH3 0xE2 JUMPI DUP1 PUSH4 0x8A699F00 EQ PUSH3 0xDC JUMPI DUP1 PUSH4 0x8B7AFE2E EQ PUSH3 0xD6 JUMPI DUP1 PUSH4 0x9B19251A EQ PUSH3 0xD0 JUMPI DUP1 PUSH4 0xAF640D0F EQ PUSH3 0xCA JUMPI DUP1 PUSH4 0xDBA6335F EQ PUSH3 0xC4 JUMPI PUSH4 0xED23F8C3 SUB PUSH3 0xF JUMPI PUSH3 0x9D0 JUMP JUMPDEST PUSH3 0x95B JUMP JUMPDEST PUSH3 0x8A8 JUMP JUMPDEST PUSH3 0x865 JUMP JUMPDEST PUSH3 0x847 JUMP JUMPDEST PUSH3 0x809 JUMP JUMPDEST PUSH3 0x7C1 JUMP JUMPDEST PUSH3 0x726 JUMP JUMPDEST PUSH3 0x667 JUMP JUMPDEST PUSH3 0x4EF JUMP JUMPDEST PUSH3 0x38C JUMP JUMPDEST PUSH3 0x297 JUMP JUMPDEST PUSH3 0x187 JUMP JUMPDEST PUSH1 0x4 CALLDATALOAD SWAP1 PUSH1 0x1 PUSH1 0x1 PUSH1 0xA0 SHL SUB DUP3 AND DUP3 SUB PUSH3 0x123 JUMPI JUMP JUMPDEST PUSH1 0x0 DUP1 REVERT JUMPDEST PUSH1 0xC4 CALLDATALOAD SWAP1 PUSH1 0x1 PUSH1 0x1 PUSH1 0xA0 SHL SUB DUP3 AND DUP3 SUB PUSH3 0x123 JUMPI JUMP JUMPDEST PUSH2 0x104 CALLDATALOAD SWAP1 PUSH1 0x1 PUSH1 0x1 PUSH1 0xA0 SHL SUB DUP3 AND DUP3 SUB PUSH3 0x123 JUMPI JUMP JUMPDEST PUSH2 0x124 CALLDATALOAD SWAP1 PUSH1 0x1 PUSH1 0x1 PUSH1 0xA0 SHL SUB DUP3 AND DUP3 SUB PUSH3 0x123 JUMPI JUMP JUMPDEST PUSH2 0x144 CALLDATALOAD SWAP1 PUSH1 0x1 PUSH1 0x1 PUSH1 0xA0 SHL SUB DUP3 AND DUP3 SUB PUSH3 0x123 JUMPI JUMP JUMPDEST CALLVALUE PUSH3 0x123 JUMPI PUSH1 0x20 CALLDATASIZE PUSH1 0x3 NOT ADD SLT PUSH3 0x123 JUMPI PUSH1 0x1 PUSH1 0x1 PUSH1 0xA0 SHL SUB PUSH3 0x1AC PUSH3 0x10C JUMP JUMPDEST AND PUSH1 0x0 SWAP1 DUP2 MSTORE PUSH1 0x3 PUSH1 0x20 MSTORE PUSH1 0x40 SWAP1 KECCAK256 DUP1 SLOAD PUSH1 0xFF NOT AND PUSH1 0x1 OR SWAP1 SSTORE STOP JUMPDEST SWAP1 PUSH1 0x1 DUP3 DUP2 SHR SWAP3 AND DUP1 ISZERO PUSH3 0x1FA JUMPI JUMPDEST PUSH1 0x20 DUP4 LT EQ PUSH3 0x1E4 JUMPI JUMP JUMPDEST PUSH4 0x4E487B71 PUSH1 0xE0 SHL PUSH1 0x0 MSTORE PUSH1 0x22 PUSH1 0x4 MSTORE PUSH1 0x24 PUSH1 0x0 REVERT JUMPDEST SWAP2 PUSH1 0x7F AND SWAP2 PUSH3 0x1D8 JUMP JUMPDEST PUSH4 0x4E487B71 PUSH1 0xE0 SHL PUSH1 0x0 MSTORE PUSH1 0x41 PUSH1 0x4 MSTORE PUSH1 0x24 PUSH1 0x0 REVERT JUMPDEST SWAP1 PUSH1 0x1F DUP1 NOT SWAP2 ADD AND DUP2 ADD SWAP1 DUP2 LT PUSH8 0xFFFFFFFFFFFFFFFF DUP3 GT OR PUSH3 0x23E JUMPI PUSH1 0x40 MSTORE JUMP JUMPDEST PUSH3 0x205 JUMP JUMPDEST PUSH1 0x0 JUMPDEST DUP4 DUP2 LT PUSH3 0x258 JUMPI POP POP PUSH1 0x0 SWAP2 ADD MSTORE JUMP JUMPDEST DUP2 DUP2 ADD MLOAD DUP4 DUP3 ADD MSTORE PUSH1 0x20 ADD PUSH3 0x247 JUMP JUMPDEST PUSH1 0x40 SWAP2 PUSH1 0x20 DUP3 MSTORE PUSH3 0x28B DUP2 MLOAD DUP1 SWAP3 DUP2 PUSH1 0x20 DUP7 ADD MSTORE PUSH1 0x20 DUP7 DUP7 ADD SWAP2 ADD PUSH3 0x244 JUMP JUMPDEST PUSH1 0x1F ADD PUSH1 0x1F NOT AND ADD ADD SWAP1 JUMP JUMPDEST CALLVALUE PUSH3 0x123 JUMPI PUSH1 0x0 DUP1 PUSH1 0x3 NOT CALLDATASIZE ADD SLT PUSH3 0x389 JUMPI PUSH1 0x40 MLOAD SWAP1 DUP1 DUP1 SLOAD PUSH3 0x2BD DUP2 PUSH3 0x1C8 JUMP JUMPDEST DUP1 DUP6 MSTORE SWAP2 PUSH1 0x1 SWAP2 DUP1 DUP4 AND SWAP1 DUP2 ISZERO PUSH3 0x35C JUMPI POP PUSH1 0x1 EQ PUSH3 0x2FD JUMPI JUMPDEST PUSH3 0x2F9 DUP6 PUSH3 0x2EC DUP2 DUP8 SUB DUP3 PUSH3 0x21B JUMP JUMPDEST PUSH1 0x40 MLOAD SWAP2 DUP3 SWAP2 DUP3 PUSH3 0x269 JUMP JUMPDEST SUB SWAP1 RETURN JUMPDEST DUP1 DUP1 SWAP5 POP MSTORE PUSH32 0x290DECD9548B62A8D60345A988386FC84BA6BC95484008F6362F93160EF3E563 JUMPDEST DUP3 DUP5 LT PUSH3 0x343 JUMPI POP POP POP DUP2 ADD PUSH1 0x20 ADD PUSH3 0x2EC DUP3 PUSH3 0x2F9 PUSH3 0x2D9 JUMP JUMPDEST DUP1 SLOAD PUSH1 0x20 DUP6 DUP8 ADD DUP2 ADD SWAP2 SWAP1 SWAP2 MSTORE SWAP1 SWAP4 ADD SWAP3 DUP2 ADD PUSH3 0x324 JUMP JUMPDEST DUP7 SWAP6 POP PUSH3 0x2F9 SWAP7 SWAP4 POP PUSH1 0x20 SWAP3 POP PUSH3 0x2EC SWAP5 SWAP2 POP PUSH1 0xFF NOT AND DUP3 DUP5 ADD MSTORE ISZERO ISZERO PUSH1 0x5 SHL DUP3 ADD ADD SWAP3 SWAP4 PUSH3 0x2D9 JUMP JUMPDEST DUP1 REVERT JUMPDEST CALLVALUE PUSH3 0x123 JUMPI PUSH1 0x0 DUP1 PUSH1 0x3 NOT CALLDATASIZE ADD SLT PUSH3 0x389 JUMPI PUSH1 0x1 PUSH1 0x1 PUSH1 0xA0 SHL SUB PUSH32 0x0 AND DUP1 CALLER SUB PUSH3 0x45B JUMPI DUP2 DUP1 DUP1 DUP1 SWAP4 SELFBALANCE SWAP1 GAS CALL RETURNDATASIZE ISZERO PUSH3 0x455 JUMPI RETURNDATASIZE PUSH3 0x3EE DUP2 PUSH3 0x485 JUMP JUMPDEST SWAP1 PUSH3 0x3FE PUSH1 0x40 MLOAD SWAP3 DUP4 PUSH3 0x21B JUMP JUMPDEST DUP2 MSTORE DUP3 PUSH1 0x20 RETURNDATASIZE SWAP3 ADD RETURNDATACOPY JUMPDEST ISZERO PUSH3 0x411 JUMPI DUP1 RETURN JUMPDEST PUSH1 0x64 PUSH1 0x40 MLOAD PUSH3 0x461BCD PUSH1 0xE5 SHL DUP2 MSTORE PUSH1 0x20 PUSH1 0x4 DUP3 ADD MSTORE PUSH1 0xF PUSH1 0x24 DUP3 ADD MSTORE PUSH32 0x4F2073617175652066616C686F752E0000000000000000000000000000000000 PUSH1 0x44 DUP3 ADD MSTORE REVERT JUMPDEST PUSH3 0x408 JUMP JUMPDEST PUSH1 0x4 PUSH1 0x40 MLOAD PUSH32 0x30CD747100000000000000000000000000000000000000000000000000000000 DUP2 MSTORE REVERT JUMPDEST PUSH8 0xFFFFFFFFFFFFFFFF DUP2 GT PUSH3 0x23E JUMPI PUSH1 0x1F ADD PUSH1 0x1F NOT AND PUSH1 0x20 ADD SWAP1 JUMP JUMPDEST DUP2 PUSH1 0x1F DUP3 ADD SLT ISZERO PUSH3 0x123 JUMPI DUP1 CALLDATALOAD SWAP1 PUSH3 0x4BC DUP3 PUSH3 0x485 JUMP JUMPDEST SWAP3 PUSH3 0x4CC PUSH1 0x40 MLOAD SWAP5 DUP6 PUSH3 0x21B JUMP JUMPDEST DUP3 DUP5 MSTORE PUSH1 0x20 DUP4 DUP4 ADD ADD GT PUSH3 0x123 JUMPI DUP2 PUSH1 0x0 SWAP3 PUSH1 0x20 DUP1 SWAP4 ADD DUP4 DUP7 ADD CALLDATACOPY DUP4 ADD ADD MSTORE SWAP1 JUMP JUMPDEST CALLVALUE PUSH3 0x123 JUMPI PUSH1 0x40 CALLDATASIZE PUSH1 0x3 NOT ADD SLT PUSH3 0x123 JUMPI PUSH8 0xFFFFFFFFFFFFFFFF PUSH1 0x4 CALLDATALOAD DUP2 DUP2 GT PUSH3 0x123 JUMPI PUSH3 0x526 SWAP1 CALLDATASIZE SWAP1 PUSH1 0x4 ADD PUSH3 0x4A2 JUMP JUMPDEST PUSH1 0x24 CALLDATALOAD DUP3 DUP2 GT PUSH3 0x123 JUMPI PUSH3 0x541 SWAP1 CALLDATASIZE SWAP1 PUSH1 0x4 ADD PUSH3 0x4A2 JUMP JUMPDEST SWAP2 PUSH1 0x1 PUSH1 0x1 PUSH1 0xA0 SHL SUB PUSH32 0x0 AND CALLER SUB PUSH3 0x45B JUMPI PUSH1 0x40 MLOAD DUP3 DUP2 DUP1 SWAP5 MLOAD PUSH3 0x58D DUP2 PUSH1 0x20 SWAP8 DUP9 DUP1 SWAP7 ADD PUSH3 0x244 JUMP JUMPDEST DUP2 ADD PUSH1 0x2 DUP2 MSTORE SUB ADD SWAP1 KECCAK256 SWAP2 DUP4 MLOAD SWAP2 DUP3 GT PUSH3 0x23E JUMPI PUSH3 0x5BA DUP3 PUSH3 0x5B3 DUP6 SLOAD PUSH3 0x1C8 JUMP JUMPDEST DUP6 PUSH3 0xA21 JUMP JUMPDEST DUP1 PUSH1 0x1F DUP4 GT PUSH1 0x1 EQ PUSH3 0x5F8 JUMPI POP DUP2 SWAP3 SWAP4 PUSH1 0x0 SWAP3 PUSH3 0x5EC JUMPI JUMPDEST POP POP PUSH1 0x0 NOT PUSH1 0x3 DUP4 SWAP1 SHL SHR NOT AND PUSH1 0x1 SWAP2 SWAP1 SWAP2 SHL OR SWAP1 SSTORE STOP JUMPDEST ADD MLOAD SWAP1 POP CODESIZE DUP1 PUSH3 0x5D4 JUMP JUMPDEST SWAP1 PUSH1 0x1F NOT DUP4 AND SWAP5 PUSH3 0x60F DUP6 PUSH1 0x0 MSTORE PUSH1 0x20 PUSH1 0x0 KECCAK256 SWAP1 JUMP JUMPDEST SWAP3 PUSH1 0x0 SWAP1 JUMPDEST DUP8 DUP3 LT PUSH3 0x64E JUMPI POP POP DUP4 PUSH1 0x1 SWAP6 SWAP7 LT PUSH3 0x634 JUMPI JUMPDEST POP POP POP DUP2 SHL ADD SWAP1 SSTORE STOP JUMPDEST ADD MLOAD PUSH1 0x0 NOT PUSH1 0xF8 DUP5 PUSH1 0x3 SHL AND SHR NOT AND SWAP1 SSTORE CODESIZE DUP1 DUP1 PUSH3 0x62A JUMP JUMPDEST DUP1 PUSH1 0x1 DUP6 SWAP7 DUP3 SWAP5 SWAP7 DUP7 ADD MLOAD DUP2 SSTORE ADD SWAP6 ADD SWAP4 ADD SWAP1 PUSH3 0x614 JUMP JUMPDEST CALLVALUE PUSH3 0x123 JUMPI PUSH1 0x20 CALLDATASIZE PUSH1 0x3 NOT ADD SLT PUSH3 0x123 JUMPI PUSH1 0x1 PUSH1 0x1 PUSH1 0xA0 SHL SUB PUSH3 0x68C PUSH3 0x10C JUMP JUMPDEST AND PUSH1 0x0 MSTORE PUSH1 0x3 PUSH1 0x20 MSTORE PUSH1 0xFF PUSH1 0x40 PUSH1 0x0 KECCAK256 SLOAD AND PUSH1 0x40 MLOAD PUSH1 0x20 DUP2 ADD SWAP2 PUSH32 0x32458EED00000000000000000000000000000000000000000000000000000000 DUP4 MSTORE ISZERO ISZERO SWAP1 DUP2 PUSH1 0x24 DUP3 ADD MSTORE PUSH1 0x24 DUP2 MSTORE PUSH1 0x60 DUP2 ADD DUP2 DUP2 LT PUSH8 0xFFFFFFFFFFFFFFFF DUP3 GT OR PUSH3 0x23E JUMPI PUSH1 0x40 MSTORE MLOAD PUSH1 0x20 SWAP3 PUSH1 0x0 SWAP2 DUP3 SWAP2 PUSH11 0x636F6E736F6C652E6C6F67 GAS STATICCALL POP PUSH1 0x40 MLOAD SWAP1 DUP2 MSTORE RETURN JUMPDEST PUSH2 0x164 CALLDATALOAD SWAP1 PUSH4 0xFFFFFFFF DUP3 AND DUP3 SUB PUSH3 0x123 JUMPI JUMP JUMPDEST CALLVALUE PUSH3 0x123 JUMPI PUSH2 0x180 CALLDATASIZE PUSH1 0x3 NOT ADD SLT PUSH3 0x123 JUMPI PUSH3 0x744 PUSH3 0x10C JUMP JUMPDEST PUSH1 0x24 CALLDATALOAD SWAP1 PUSH1 0x1 PUSH1 0x1 PUSH1 0xA0 SHL SUB DUP3 AND DUP3 SUB PUSH3 0x123 JUMPI PUSH3 0x763 PUSH3 0x128 JUMP JUMPDEST SWAP2 PUSH1 0xE4 CALLDATALOAD SWAP3 PUSH8 0xFFFFFFFFFFFFFFFF DUP5 AND DUP5 SUB PUSH3 0x123 JUMPI PUSH3 0x1B SWAP4 PUSH3 0x789 PUSH3 0x13F JUMP JUMPDEST SWAP1 PUSH3 0x794 PUSH3 0x157 JUMP JUMPDEST SWAP3 PUSH3 0x79F PUSH3 0x16F JUMP JUMPDEST SWAP5 PUSH3 0x7AA PUSH3 0x711 JUMP JUMPDEST SWAP7 PUSH1 0xA4 CALLDATALOAD SWAP2 PUSH1 0x84 CALLDATALOAD SWAP2 PUSH1 0x64 CALLDATALOAD SWAP2 PUSH1 0x44 CALLDATALOAD SWAP2 PUSH3 0xACA JUMP JUMPDEST CALLVALUE PUSH3 0x123 JUMPI PUSH1 0x20 CALLDATASIZE PUSH1 0x3 NOT ADD SLT PUSH3 0x123 JUMPI CALLER PUSH1 0x0 MSTORE PUSH1 0x4 PUSH1 0x20 MSTORE PUSH1 0x20 PUSH1 0x1 PUSH1 0x1 PUSH1 0xA0 SHL SUB PUSH3 0x7F9 PUSH1 0x4 CALLDATALOAD PUSH1 0x40 PUSH1 0x0 KECCAK256 PUSH3 0x9A1 JUMP JUMPDEST SWAP2 SWAP1 SLOAD PUSH1 0x40 MLOAD SWAP3 PUSH1 0x3 SHL SHR AND DUP2 MSTORE RETURN JUMPDEST CALLVALUE PUSH3 0x123 JUMPI PUSH1 0x20 CALLDATASIZE PUSH1 0x3 NOT ADD SLT PUSH3 0x123 JUMPI PUSH1 0x1 PUSH1 0x1 PUSH1 0xA0 SHL SUB PUSH3 0x82E PUSH3 0x10C JUMP JUMPDEST AND PUSH1 0x0 SWAP1 DUP2 MSTORE PUSH1 0x3 PUSH1 0x20 MSTORE PUSH1 0x40 SWAP1 KECCAK256 DUP1 SLOAD PUSH1 0xFF NOT AND SWAP1 SSTORE STOP JUMPDEST CALLVALUE PUSH3 0x123 JUMPI PUSH1 0x0 CALLDATASIZE PUSH1 0x3 NOT ADD SLT PUSH3 0x123 JUMPI PUSH1 0x20 SELFBALANCE PUSH1 0x40 MLOAD SWAP1 DUP2 MSTORE RETURN JUMPDEST CALLVALUE PUSH3 0x123 JUMPI PUSH1 0x20 CALLDATASIZE PUSH1 0x3 NOT ADD SLT PUSH3 0x123 JUMPI PUSH1 0x1 PUSH1 0x1 PUSH1 0xA0 SHL SUB PUSH3 0x88A PUSH3 0x10C JUMP JUMPDEST AND PUSH1 0x0 MSTORE PUSH1 0x3 PUSH1 0x20 MSTORE PUSH1 0x20 PUSH1 0xFF PUSH1 0x40 PUSH1 0x0 KECCAK256 SLOAD AND PUSH1 0x40 MLOAD SWAP1 ISZERO ISZERO DUP2 MSTORE RETURN JUMPDEST CALLVALUE PUSH3 0x123 JUMPI PUSH1 0x0 DUP1 PUSH1 0x3 NOT CALLDATASIZE ADD SLT PUSH3 0x389 JUMPI PUSH1 0x40 MLOAD SWAP1 DUP1 PUSH1 0x1 DUP1 SLOAD SWAP2 PUSH3 0x8D1 DUP4 PUSH3 0x1C8 JUMP JUMPDEST DUP1 DUP7 MSTORE SWAP3 DUP3 DUP2 AND SWAP1 DUP2 ISZERO PUSH3 0x35C JUMPI POP PUSH1 0x1 EQ PUSH3 0x8FC JUMPI PUSH3 0x2F9 DUP6 PUSH3 0x2EC DUP2 DUP8 SUB DUP3 PUSH3 0x21B JUMP JUMPDEST SWAP3 POP DUP1 DUP4 MSTORE PUSH32 0xB10E2D527612073B26EECDFD717E6A320CF44B4AFAC2B0732D9FCBE2B7FA0CF6 JUMPDEST DUP3 DUP5 LT PUSH3 0x942 JUMPI POP POP POP DUP2 ADD PUSH1 0x20 ADD PUSH3 0x2EC DUP3 PUSH3 0x2F9 PUSH3 0x2D9 JUMP JUMPDEST DUP1 SLOAD PUSH1 0x20 DUP6 DUP8 ADD DUP2 ADD SWAP2 SWAP1 SWAP2 MSTORE SWAP1 SWAP4 ADD SWAP3 DUP2 ADD PUSH3 0x923 JUMP JUMPDEST CALLVALUE PUSH3 0x123 JUMPI PUSH1 0x0 CALLDATASIZE PUSH1 0x3 NOT ADD SLT PUSH3 0x123 JUMPI PUSH1 0x20 PUSH1 0x40 MLOAD PUSH1 0x1 PUSH1 0x1 PUSH1 0xA0 SHL SUB PUSH32 0x0 AND DUP2 MSTORE RETURN JUMPDEST DUP1 SLOAD DUP3 LT ISZERO PUSH3 0x9BA JUMPI PUSH1 0x0 MSTORE PUSH1 0x20 PUSH1 0x0 KECCAK256 ADD SWAP1 PUSH1 0x0 SWAP1 JUMP JUMPDEST PUSH4 0x4E487B71 PUSH1 0xE0 SHL PUSH1 0x0 MSTORE PUSH1 0x32 PUSH1 0x4 MSTORE PUSH1 0x24 PUSH1 0x0 REVERT JUMPDEST CALLVALUE PUSH3 0x123 JUMPI PUSH1 0x40 CALLDATASIZE PUSH1 0x3 NOT ADD SLT PUSH3 0x123 JUMPI PUSH3 0x9ED PUSH3 0x10C JUMP JUMPDEST PUSH1 0x24 CALLDATALOAD SWAP1 PUSH1 0x1 PUSH1 0x1 PUSH1 0xA0 SHL SUB DUP1 SWAP2 AND PUSH1 0x0 MSTORE PUSH1 0x4 PUSH1 0x20 MSTORE PUSH1 0x40 PUSH1 0x0 KECCAK256 DUP1 SLOAD DUP4 LT ISZERO PUSH3 0x123 JUMPI PUSH1 0x20 SWAP3 PUSH3 0x7F9 SWAP2 PUSH3 0x9A1 JUMP JUMPDEST SWAP1 PUSH1 0x1F DUP2 GT PUSH3 0xA30 JUMPI POP POP POP JUMP JUMPDEST PUSH1 0x0 SWAP2 DUP3 MSTORE PUSH1 0x20 DUP3 KECCAK256 SWAP1 PUSH1 0x20 PUSH1 0x1F DUP6 ADD PUSH1 0x5 SHR DUP4 ADD SWAP5 LT PUSH3 0xA6F JUMPI JUMPDEST PUSH1 0x1F ADD PUSH1 0x5 SHR ADD SWAP2 JUMPDEST DUP3 DUP2 LT PUSH3 0xA63 JUMPI POP POP POP JUMP JUMPDEST DUP2 DUP2 SSTORE PUSH1 0x1 ADD PUSH3 0xA56 JUMP JUMPDEST SWAP1 SWAP3 POP DUP3 SWAP1 PUSH3 0xA4D JUMP JUMPDEST PUSH1 0x40 MLOAD RETURNDATASIZE PUSH1 0x0 DUP3 RETURNDATACOPY RETURNDATASIZE SWAP1 REVERT JUMPDEST DUP1 SLOAD PUSH9 0x10000000000000000 DUP2 LT ISZERO PUSH3 0x23E JUMPI PUSH3 0xAAB SWAP2 PUSH1 0x1 DUP3 ADD DUP2 SSTORE PUSH3 0x9A1 JUMP JUMPDEST DUP2 SWAP3 SWAP2 SLOAD SWAP1 PUSH1 0x3 SHL SWAP2 PUSH1 0x1 PUSH1 0x1 PUSH1 0xA0 SHL SUB DUP1 SWAP2 AND DUP4 SHL SWAP3 SHL NOT AND OR SWAP1 SSTORE JUMP JUMPDEST SWAP7 SWAP1 SWAP11 SWAP5 SWAP10 SWAP4 SWAP9 SWAP3 SWAP8 SWAP2 SWAP6 PUSH1 0x1 PUSH1 0x1 PUSH1 0xA0 SHL SUB SWAP11 DUP12 DUP14 AND PUSH1 0x0 MSTORE PUSH1 0x3 PUSH1 0x20 MSTORE PUSH1 0xFF PUSH1 0x40 PUSH1 0x0 KECCAK256 SLOAD AND ISZERO PUSH3 0xC14 JUMPI PUSH1 0x40 MLOAD SWAP10 PUSH2 0x1965 SWAP1 DUP2 DUP13 ADD SWAP10 DUP13 DUP12 LT PUSH8 0xFFFFFFFFFFFFFFFF DUP13 GT OR PUSH3 0x23E JUMPI DUP16 DUP14 SWAP13 DUP16 SWAP5 SWAP13 PUSH3 0xBA4 SWAP14 DUP16 PUSH3 0xC7F SWAP1 CODECOPY SWAP11 SWAP8 SWAP3 SWAP7 SWAP1 SWAP2 SWAP5 SWAP6 DUP12 SWAP10 SWAP5 SWAP14 SWAP13 SWAP11 SWAP7 PUSH2 0x180 DUP12 ADD SWAP15 PUSH1 0x1 PUSH1 0x1 PUSH1 0xA0 SHL SUB SWAP12 DUP13 SWAP11 DUP12 DUP1 SWAP11 DUP2 DUP1 SWAP10 AND DUP5 MSTORE AND PUSH1 0x20 DUP4 ADD MSTORE PUSH1 0x40 DUP3 ADD MSTORE PUSH1 0x60 ADD MSTORE PUSH1 0x80 DUP14 ADD MSTORE PUSH1 0xA0 DUP13 ADD MSTORE AND PUSH1 0xC0 DUP11 ADD MSTORE PUSH8 0xFFFFFFFFFFFFFFFF AND PUSH1 0xE0 DUP10 ADD MSTORE AND PUSH2 0x100 DUP8 ADD MSTORE AND PUSH2 0x120 DUP6 ADD MSTORE AND PUSH2 0x140 DUP4 ADD MSTORE PUSH4 0xFFFFFFFF AND SWAP1 PUSH2 0x160 ADD MSTORE JUMP JUMPDEST SUB SWAP2 CREATE DUP1 ISZERO PUSH3 0xC0E JUMPI PUSH3 0xBF8 DUP2 PUSH3 0xBF2 PUSH32 0xA155A575082ECF596E5A22A44834BE92670605D1D0832000305888BA02A462D9 SWAP6 PUSH1 0x1 PUSH1 0x1 PUSH1 0xA0 SHL SUB AND PUSH1 0x0 MSTORE PUSH1 0x4 PUSH1 0x20 MSTORE PUSH1 0x40 PUSH1 0x0 KECCAK256 SWAP1 JUMP JUMPDEST PUSH3 0xA86 JUMP JUMPDEST PUSH1 0x40 MLOAD SWAP2 AND PUSH1 0x1 PUSH1 0x1 PUSH1 0xA0 SHL SUB AND DUP2 MSTORE PUSH1 0x20 SWAP1 LOG1 JUMP JUMPDEST PUSH3 0xA7A JUMP JUMPDEST PUSH1 0x84 PUSH1 0x40 MLOAD PUSH3 0x461BCD PUSH1 0xE5 SHL DUP2 MSTORE PUSH1 0x20 PUSH1 0x4 DUP3 ADD MSTORE PUSH1 0x21 PUSH1 0x24 DUP3 ADD MSTORE PUSH32 0x456E64657265636F206E616F2065737461206E61206C69737461206272616E63 PUSH1 0x44 DUP3 ADD MSTORE PUSH32 0x6100000000000000000000000000000000000000000000000000000000000000 PUSH1 0x64 DUP3 ADD MSTORE REVERT INVALID PUSH1 0x1 PUSH1 0x1 PUSH1 0x40 SHL SUB PUSH2 0x100 PUSH1 0x1F PUSH3 0x1965 CODESIZE DUP2 SWAP1 SUB SWAP2 DUP3 ADD PUSH1 0x1F NOT AND DUP4 ADD SWAP2 DUP5 DUP4 GT DUP5 DUP5 LT OR PUSH3 0x1E4 JUMPI DUP1 DUP5 SWAP3 PUSH2 0x180 SWAP5 PUSH1 0x40 MSTORE DUP4 CODECOPY DUP2 ADD SUB SLT PUSH3 0x1DF JUMPI PUSH3 0x4A DUP2 PUSH3 0x1FA JUMP JUMPDEST PUSH3 0x58 PUSH1 0x20 DUP4 ADD PUSH3 0x1FA JUMP JUMPDEST SWAP2 PUSH1 0x40 DUP2 ADD MLOAD SWAP2 PUSH1 0x60 DUP3 ADD MLOAD SWAP2 PUSH1 0x80 DUP2 ADD MLOAD PUSH1 0xA0 DUP3 ADD MLOAD SWAP4 PUSH3 0x7E PUSH1 0xC0 DUP5 ADD PUSH3 0x1FA JUMP JUMPDEST SWAP5 PUSH1 0xE0 DUP5 ADD MLOAD SWAP9 DUP10 AND DUP1 SWAP10 SUB PUSH3 0x1DF JUMPI PUSH2 0x160 PUSH3 0xA1 PUSH2 0x100 DUP7 ADD PUSH3 0x1FA JUMP JUMPDEST SWAP5 PUSH3 0xB1 PUSH2 0x120 DUP3 ADD PUSH3 0x1FA JUMP JUMPDEST PUSH1 0xA0 MSTORE PUSH3 0xC3 PUSH2 0x140 DUP3 ADD PUSH3 0x1FA JUMP JUMPDEST PUSH1 0x80 MSTORE ADD MLOAD PUSH4 0xFFFFFFFF DUP2 AND DUP2 SUB PUSH3 0x1DF JUMPI PUSH1 0x0 PUSH1 0x1 SSTORE PUSH1 0x1 PUSH1 0x1 PUSH1 0xA0 SHL SUB PUSH1 0xE0 DUP2 SWAP1 MSTORE DUP7 AND ISZERO PUSH3 0x19A JUMPI PUSH1 0x1 DUP1 PUSH1 0xA0 SHL SUB NOT SWAP10 DUP11 SWAP9 DUP10 PUSH1 0xC0 MSTORE PUSH1 0xE0 MLOAD DUP1 SWAP12 DUP2 SWAP12 DUP3 DUP1 SWAP12 AND SWAP1 DUP2 DUP2 PUSH1 0x3 SLOAD AND OR PUSH1 0x3 SSTORE PUSH1 0x1C SLOAD AND OR PUSH1 0x1C SSTORE AND DUP13 PUSH1 0x1D SLOAD AND OR PUSH1 0x1D SSTORE PUSH1 0x20 SSTORE PUSH12 0xFFFFFFFF0000000000000000 PUSH1 0x9 SLOAD SWAP3 PUSH1 0x40 SHL AND SWAP2 PUSH1 0x1 DUP1 PUSH1 0x60 SHL SUB NOT AND OR OR PUSH1 0x9 SSTORE PUSH1 0xA SSTORE PUSH1 0x21 SSTORE PUSH1 0x1F SSTORE AND DUP5 PUSH1 0xD SLOAD AND OR PUSH1 0xD SSTORE TIMESTAMP PUSH1 0x18 SSTORE AND DUP3 PUSH1 0xC SLOAD AND OR PUSH1 0xC SSTORE DUP1 PUSH1 0xA0 MLOAD AND DUP3 PUSH1 0x1A SLOAD AND OR PUSH1 0x1A SSTORE PUSH1 0x80 MLOAD AND SWAP1 PUSH1 0x1B SLOAD AND OR PUSH1 0x1B SSTORE PUSH1 0x40 MLOAD PUSH2 0x1755 SWAP1 DUP2 PUSH3 0x210 DUP3 CODECOPY RETURN JUMPDEST PUSH1 0x40 MLOAD PUSH3 0x461BCD PUSH1 0xE5 SHL DUP2 MSTORE PUSH1 0x20 PUSH1 0x4 DUP3 ADD MSTORE PUSH1 0x18 PUSH1 0x24 DUP3 ADD MSTORE PUSH32 0x43616E6E6F7420736574206F776E657220746F207A65726F0000000000000000 PUSH1 0x44 DUP3 ADD MSTORE PUSH1 0x64 SWAP1 REVERT JUMPDEST PUSH1 0x0 DUP1 REVERT JUMPDEST PUSH4 0x4E487B71 PUSH1 0xE0 SHL PUSH1 0x0 MSTORE PUSH1 0x41 PUSH1 0x4 MSTORE PUSH1 0x24 PUSH1 0x0 REVERT JUMPDEST MLOAD SWAP1 PUSH1 0x1 PUSH1 0x1 PUSH1 0xA0 SHL SUB DUP3 AND DUP3 SUB PUSH3 0x1DF JUMPI JUMP INVALID PUSH1 0x80 PUSH1 0x40 DUP2 DUP2 MSTORE PUSH1 0x4 SWAP2 DUP3 CALLDATASIZE LT ISZERO PUSH2 0x16 JUMPI PUSH1 0x0 DUP1 REVERT JUMPDEST PUSH1 0x0 SWAP3 DUP4 CALLDATALOAD PUSH1 0xE0 SHR SWAP2 DUP3 PUSH3 0x6D6CAE EQ PUSH2 0x1252 JUMPI POP DUP2 PUSH4 0x89EA02E EQ PUSH2 0x1233 JUMPI DUP2 PUSH4 0x9C1BA2E EQ PUSH2 0x120A JUMPI DUP2 PUSH4 0x1243BCC3 EQ PUSH2 0x11E2 JUMPI DUP2 PUSH4 0x1AA46F59 EQ PUSH2 0x11C3 JUMPI DUP2 PUSH4 0x24B93E3E EQ PUSH2 0x119D JUMPI DUP2 PUSH4 0x277E2213 EQ PUSH2 0x109D JUMPI DUP2 PUSH4 0x338CDCA1 EQ PUSH2 0xFF3 JUMPI DUP2 PUSH4 0x381FC4B5 EQ PUSH2 0xFD4 JUMPI DUP2 PUSH4 0x3944EA3A EQ PUSH2 0xF2A JUMPI DUP2 PUSH4 0x43CD3D86 EQ PUSH2 0xF0B JUMPI DUP2 PUSH4 0x4585E33B EQ PUSH2 0xCA9 JUMPI DUP2 PUSH4 0x472CBBB0 EQ PUSH2 0xABC JUMPI DUP2 PUSH4 0x48802B92 EQ PUSH2 0xA9D JUMPI DUP2 PUSH4 0x48BD6F05 EQ PUSH2 0xA7E JUMPI DUP2 PUSH4 0x4B0795A8 EQ PUSH2 0x9D4 JUMPI DUP2 PUSH4 0x5D641DFC EQ PUSH2 0x9B8 JUMPI DUP2 PUSH4 0x5E0611F1 EQ PUSH2 0x990 JUMPI DUP2 PUSH4 0x688ECFD1 EQ PUSH2 0x95F JUMPI DUP2 PUSH4 0x6BAA48FE EQ PUSH2 0x937 JUMPI DUP2 PUSH4 0x6E04FF0D EQ PUSH2 0x83C JUMPI DUP2 PUSH4 0x6E74336B EQ PUSH2 0x81D JUMPI DUP2 PUSH4 0x79BA5097 EQ PUSH2 0x761 JUMPI DUP2 PUSH4 0x7B103999 EQ PUSH2 0x739 JUMPI DUP2 PUSH4 0x8B7AFE2E EQ PUSH2 0x71E JUMPI DUP2 PUSH4 0x8DA5CB5B EQ PUSH2 0x6F6 JUMPI DUP2 PUSH4 0x9655E6D8 EQ PUSH2 0x5BA JUMPI DUP2 PUSH4 0xA3097139 EQ PUSH2 0x59C JUMPI DUP2 PUSH4 0xA3D3C0D2 EQ PUSH2 0x57D JUMPI DUP2 PUSH4 0xB1E21749 EQ PUSH2 0x55E JUMPI DUP2 PUSH4 0xBEF3A2F0 EQ PUSH2 0x4B4 JUMPI DUP2 PUSH4 0xD1384EB6 EQ PUSH2 0x48C JUMPI DUP2 PUSH4 0xD2AA789F EQ PUSH2 0x46D JUMPI DUP2 PUSH4 0xD811FCF0 EQ PUSH2 0x445 JUMPI DUP2 PUSH4 0xEBF14A55 EQ PUSH2 0x426 JUMPI DUP2 PUSH4 0xF2FDE38B EQ PUSH2 0x359 JUMPI POP DUP1 PUSH4 0xF5C1279B EQ PUSH2 0x33B JUMPI DUP1 PUSH4 0xF68016B7 EQ PUSH2 0x317 JUMPI DUP1 PUSH4 0xF887EA40 EQ PUSH2 0x2F0 JUMPI DUP1 PUSH4 0xFD2C80AE EQ PUSH2 0x2D2 JUMPI PUSH4 0xFFFEB84E EQ PUSH2 0x1E7 JUMPI PUSH1 0x0 DUP1 REVERT JUMPDEST CALLVALUE PUSH2 0x2CE JUMPI DUP2 PUSH1 0x3 NOT CALLDATASIZE ADD SLT PUSH2 0x2CE JUMPI DUP1 MLOAD SWAP1 DUP3 PUSH1 0x8 SLOAD PUSH2 0x207 DUP2 PUSH2 0x126C JUMP JUMPDEST DUP1 DUP6 MSTORE SWAP2 PUSH1 0x1 SWAP2 DUP1 DUP4 AND SWAP1 DUP2 ISZERO PUSH2 0x2A6 JUMPI POP PUSH1 0x1 EQ PUSH2 0x249 JUMPI JUMPDEST POP POP POP PUSH2 0x233 DUP3 PUSH2 0x245 SWAP5 SUB DUP4 PUSH2 0x12A6 JUMP JUMPDEST MLOAD SWAP2 DUP3 SWAP2 PUSH1 0x20 DUP4 MSTORE PUSH1 0x20 DUP4 ADD SWAP1 PUSH2 0x12DE JUMP JUMPDEST SUB SWAP1 RETURN JUMPDEST SWAP5 POP PUSH1 0x8 DUP6 MSTORE PUSH32 0xF3F7A9FE364FAAB93B216DA50A3214154F22A0A2B415B23A84C8169E8B636EE3 JUMPDEST DUP3 DUP7 LT PUSH2 0x28E JUMPI POP POP POP PUSH2 0x233 DUP3 PUSH1 0x20 PUSH2 0x245 SWAP6 DUP3 ADD ADD SWAP5 PUSH2 0x221 JUMP JUMPDEST DUP1 SLOAD PUSH1 0x20 DUP8 DUP8 ADD DUP2 ADD SWAP2 SWAP1 SWAP2 MSTORE SWAP1 SWAP6 ADD SWAP5 DUP2 ADD PUSH2 0x271 JUMP JUMPDEST PUSH2 0x245 SWAP8 POP DUP7 SWAP4 POP PUSH1 0x20 SWAP3 POP PUSH2 0x233 SWAP5 SWAP2 POP PUSH1 0xFF NOT AND DUP3 DUP5 ADD MSTORE ISZERO ISZERO PUSH1 0x5 SHL DUP3 ADD ADD SWAP5 PUSH2 0x221 JUMP JUMPDEST POP DUP1 REVERT JUMPDEST POP CALLVALUE PUSH2 0x2CE JUMPI DUP2 PUSH1 0x3 NOT CALLDATASIZE ADD SLT PUSH2 0x2CE JUMPI PUSH1 0x20 SWAP1 PUSH1 0xA SLOAD SWAP1 MLOAD SWAP1 DUP2 MSTORE RETURN JUMPDEST POP CALLVALUE PUSH2 0x2CE JUMPI DUP2 PUSH1 0x3 NOT CALLDATASIZE ADD SLT PUSH2 0x2CE JUMPI PUSH1 0x20 SWAP1 PUSH1 0x1 PUSH1 0x1 PUSH1 0xA0 SHL SUB PUSH1 0xC SLOAD AND SWAP1 MLOAD SWAP1 DUP2 MSTORE RETURN JUMPDEST POP CALLVALUE PUSH2 0x2CE JUMPI DUP2 PUSH1 0x3 NOT CALLDATASIZE ADD SLT PUSH2 0x2CE JUMPI PUSH1 0x20 SWAP1 PUSH4 0xFFFFFFFF PUSH1 0x10 SLOAD AND SWAP1 MLOAD SWAP1 DUP2 MSTORE RETURN JUMPDEST POP CALLVALUE PUSH2 0x2CE JUMPI DUP2 PUSH1 0x3 NOT CALLDATASIZE ADD SLT PUSH2 0x2CE JUMPI PUSH1 0x20 SWAP1 PUSH1 0x15 SLOAD SWAP1 MLOAD SWAP1 DUP2 MSTORE RETURN JUMPDEST SWAP2 SWAP1 POP CALLVALUE PUSH2 0x422 JUMPI PUSH1 0x20 CALLDATASIZE PUSH1 0x3 NOT ADD SLT PUSH2 0x422 JUMPI DUP2 CALLDATALOAD SWAP2 PUSH1 0x1 PUSH1 0x1 PUSH1 0xA0 SHL SUB SWAP2 DUP3 DUP5 AND DUP1 SWAP5 SUB PUSH2 0x41E JUMPI PUSH2 0x38B PUSH2 0x1441 JUMP JUMPDEST CALLER DUP5 EQ PUSH2 0x3DB JUMPI POP DUP3 PUSH20 0xFFFFFFFFFFFFFFFFFFFFFFFFFFFFFFFFFFFFFFFF NOT DUP3 SLOAD AND OR SWAP1 SSTORE PUSH1 0x3 SLOAD AND PUSH32 0xED8889F560326EB138920D842192F0EB3DD22B4F139C87A2C57538E05BAE1278 DUP4 DUP1 LOG3 DUP1 RETURN JUMPDEST SWAP1 PUSH1 0x20 PUSH1 0x64 SWAP3 MLOAD SWAP2 PUSH3 0x461BCD PUSH1 0xE5 SHL DUP4 MSTORE DUP3 ADD MSTORE PUSH1 0x17 PUSH1 0x24 DUP3 ADD MSTORE PUSH32 0x43616E6E6F74207472616E7366657220746F2073656C66000000000000000000 PUSH1 0x44 DUP3 ADD MSTORE REVERT JUMPDEST DUP5 DUP1 REVERT JUMPDEST DUP3 DUP1 REVERT JUMPDEST POP POP CALLVALUE PUSH2 0x2CE JUMPI DUP2 PUSH1 0x3 NOT CALLDATASIZE ADD SLT PUSH2 0x2CE JUMPI PUSH1 0x20 SWAP1 PUSH1 0x21 SLOAD SWAP1 MLOAD SWAP1 DUP2 MSTORE RETURN JUMPDEST POP POP CALLVALUE PUSH2 0x2CE JUMPI DUP2 PUSH1 0x3 NOT CALLDATASIZE ADD SLT PUSH2 0x2CE JUMPI PUSH1 0x20 SWAP1 PUSH1 0x1 PUSH1 0x1 PUSH1 0xA0 SHL SUB PUSH1 0x1D SLOAD AND SWAP1 MLOAD SWAP1 DUP2 MSTORE RETURN JUMPDEST POP POP CALLVALUE PUSH2 0x2CE JUMPI DUP2 PUSH1 0x3 NOT CALLDATASIZE ADD SLT PUSH2 0x2CE JUMPI PUSH1 0x20 SWAP1 PUSH1 0xE SLOAD SWAP1 MLOAD SWAP1 DUP2 MSTORE RETURN JUMPDEST POP POP CALLVALUE PUSH2 0x2CE JUMPI DUP2 PUSH1 0x3 NOT CALLDATASIZE ADD SLT PUSH2 0x2CE JUMPI PUSH1 0x20 SWAP1 PUSH1 0x1 PUSH1 0x1 PUSH1 0xA0 SHL SUB PUSH1 0x1C SLOAD AND SWAP1 MLOAD SWAP1 DUP2 MSTORE RETURN JUMPDEST POP POP CALLVALUE PUSH2 0x2CE JUMPI DUP2 PUSH1 0x3 NOT CALLDATASIZE ADD SLT PUSH2 0x2CE JUMPI DUP1 MLOAD SWAP1 DUP3 PUSH1 0x7 SLOAD PUSH2 0x4D6 DUP2 PUSH2 0x126C JUMP JUMPDEST DUP1 DUP6 MSTORE SWAP2 PUSH1 0x1 SWAP2 DUP1 DUP4 AND SWAP1 DUP2 ISZERO PUSH2 0x2A6 JUMPI POP PUSH1 0x1 EQ PUSH2 0x501 JUMPI POP POP POP PUSH2 0x233 DUP3 PUSH2 0x245 SWAP5 SUB DUP4 PUSH2 0x12A6 JUMP JUMPDEST SWAP5 POP PUSH1 0x7 DUP6 MSTORE PUSH32 0xA66CC928B5EDB82AF9BD49922954155AB7B0942694BEA4CE44661D9A8736C688 JUMPDEST DUP3 DUP7 LT PUSH2 0x546 JUMPI POP POP POP PUSH2 0x233 DUP3 PUSH1 0x20 PUSH2 0x245 SWAP6 DUP3 ADD ADD SWAP5 PUSH2 0x221 JUMP JUMPDEST DUP1 SLOAD PUSH1 0x20 DUP8 DUP8 ADD DUP2 ADD SWAP2 SWAP1 SWAP2 MSTORE SWAP1 SWAP6 ADD SWAP5 DUP2 ADD PUSH2 0x529 JUMP JUMPDEST POP POP CALLVALUE PUSH2 0x2CE JUMPI DUP2 PUSH1 0x3 NOT CALLDATASIZE ADD SLT PUSH2 0x2CE JUMPI PUSH1 0x20 SWAP1 PUSH1 0x12 SLOAD SWAP1 MLOAD SWAP1 DUP2 MSTORE RETURN JUMPDEST POP POP CALLVALUE PUSH2 0x2CE JUMPI DUP2 PUSH1 0x3 NOT CALLDATASIZE ADD SLT PUSH2 0x2CE JUMPI PUSH1 0x20 SWAP1 PUSH1 0x19 SLOAD SWAP1 MLOAD SWAP1 DUP2 MSTORE RETURN JUMPDEST POP POP CALLVALUE PUSH2 0x2CE JUMPI DUP2 PUSH1 0x3 NOT CALLDATASIZE ADD SLT PUSH2 0x2CE JUMPI PUSH1 0x20 SWAP1 DUP2 SLOAD SWAP1 MLOAD SWAP1 DUP2 MSTORE RETURN JUMPDEST DUP4 DUP4 CALLVALUE PUSH2 0x2CE JUMPI DUP1 PUSH1 0x3 NOT CALLDATASIZE ADD SLT PUSH2 0x2CE JUMPI PUSH1 0x24 CALLDATALOAD SWAP3 CALLDATALOAD DUP3 MSTORE PUSH1 0x20 SWAP3 PUSH1 0x2 DUP5 MSTORE DUP2 DUP4 KECCAK256 DUP1 SLOAD DUP3 LT ISZERO PUSH2 0x6F2 JUMPI SWAP1 PUSH2 0x5F0 SWAP2 PUSH2 0x140F JUMP JUMPDEST POP SWAP2 PUSH8 0xFFFFFFFFFFFFFFFF DUP4 SLOAD AND SWAP3 PUSH1 0x1 DUP1 DUP3 ADD SWAP3 DUP7 DUP6 MLOAD SWAP5 DUP6 SWAP4 DUP4 DUP3 SLOAD SWAP3 PUSH2 0x618 DUP5 PUSH2 0x126C JUMP JUMPDEST DUP1 DUP9 MSTORE SWAP4 DUP4 DUP2 AND SWAP1 DUP2 ISZERO PUSH2 0x6CC JUMPI POP PUSH1 0x1 EQ PUSH2 0x686 JUMPI JUMPDEST POP POP POP POP POP PUSH4 0xFFFFFFFF SWAP3 SWAP2 PUSH2 0x646 SWAP2 SUB DUP5 PUSH2 0x12A6 JUMP JUMPDEST PUSH2 0x66A PUSH1 0x3 PUSH1 0x2 DUP4 ADD SLOAD SWAP3 ADD SLOAD SWAP4 PUSH1 0xA0 DUP7 MLOAD SWAP9 DUP10 SWAP9 DUP10 MSTORE DUP9 ADD MSTORE PUSH1 0xA0 DUP8 ADD SWAP1 PUSH2 0x12DE JUMP JUMPDEST SWAP4 PUSH2 0xFFFF DUP3 AND SWAP1 DUP7 ADD MSTORE PUSH1 0x10 SHR AND PUSH1 0x60 DUP5 ADD MSTORE PUSH1 0x80 DUP4 ADD MSTORE SUB SWAP1 RETURN JUMPDEST DUP2 MSTORE DUP4 DUP2 KECCAK256 SWAP7 SWAP6 SWAP5 POP SWAP2 SWAP1 JUMPDEST DUP2 DUP4 LT PUSH2 0x6B4 JUMPI POP SWAP4 SWAP5 POP SWAP2 SWAP3 POP SWAP1 DUP3 ADD ADD DUP7 PUSH2 0x646 PUSH4 0xFFFFFFFF DUP11 DUP1 PUSH2 0x62F JUMP JUMPDEST DUP7 SLOAD DUP9 DUP5 ADD DUP6 ADD MSTORE SWAP6 DUP7 ADD SWAP6 DUP8 SWAP5 POP SWAP2 DUP4 ADD SWAP2 PUSH2 0x692 JUMP JUMPDEST PUSH1 0xFF NOT AND DUP7 DUP10 ADD MSTORE POP POP POP POP ISZERO ISZERO PUSH1 0x5 SHL DUP4 ADD ADD SWAP1 POP DUP7 PUSH2 0x646 PUSH4 0xFFFFFFFF DUP11 DUP1 PUSH2 0x62F JUMP JUMPDEST DUP4 DUP1 REVERT JUMPDEST POP POP CALLVALUE PUSH2 0x2CE JUMPI DUP2 PUSH1 0x3 NOT CALLDATASIZE ADD SLT PUSH2 0x2CE JUMPI PUSH1 0x20 SWAP1 PUSH1 0x1 PUSH1 0x1 PUSH1 0xA0 SHL SUB PUSH1 0x3 SLOAD AND SWAP1 MLOAD SWAP1 DUP2 MSTORE RETURN JUMPDEST POP POP CALLVALUE PUSH2 0x2CE JUMPI DUP2 PUSH1 0x3 NOT CALLDATASIZE ADD SLT PUSH2 0x2CE JUMPI MLOAD SELFBALANCE DUP2 MSTORE PUSH1 0x20 SWAP1 RETURN JUMPDEST POP POP CALLVALUE PUSH2 0x2CE JUMPI DUP2 PUSH1 0x3 NOT CALLDATASIZE ADD SLT PUSH2 0x2CE JUMPI PUSH1 0x20 SWAP1 PUSH1 0x1 PUSH1 0x1 PUSH1 0xA0 SHL SUB PUSH1 0xD SLOAD AND SWAP1 MLOAD SWAP1 DUP2 MSTORE RETURN JUMPDEST SWAP2 SWAP1 POP CALLVALUE PUSH2 0x422 JUMPI DUP3 PUSH1 0x3 NOT CALLDATASIZE ADD SLT PUSH2 0x422 JUMPI DUP2 SLOAD SWAP2 PUSH1 0x1 PUSH1 0x1 PUSH1 0xA0 SHL SUB SWAP2 DUP3 DUP5 AND CALLER SUB PUSH2 0x7DA JUMPI POP PUSH1 0x3 SLOAD SWAP3 PUSH20 0xFFFFFFFFFFFFFFFFFFFFFFFFFFFFFFFFFFFFFFFF NOT SWAP1 CALLER DUP3 DUP7 AND OR PUSH1 0x3 SSTORE AND SWAP1 SSTORE CALLER SWAP2 AND PUSH32 0x8BE0079C531659141344CD1FD0A4F28419497F9722A3DAAFE3B4186F6B6457E0 DUP4 DUP1 LOG3 DUP1 RETURN JUMPDEST SWAP1 PUSH1 0x20 PUSH1 0x64 SWAP3 MLOAD SWAP2 PUSH3 0x461BCD PUSH1 0xE5 SHL DUP4 MSTORE DUP3 ADD MSTORE PUSH1 0x16 PUSH1 0x24 DUP3 ADD MSTORE PUSH32 0x4D7573742062652070726F706F736564206F776E657200000000000000000000 PUSH1 0x44 DUP3 ADD MSTORE REVERT JUMPDEST POP POP CALLVALUE PUSH2 0x2CE JUMPI DUP2 PUSH1 0x3 NOT CALLDATASIZE ADD SLT PUSH2 0x2CE JUMPI PUSH1 0x20 SWAP1 PUSH1 0x11 SLOAD SWAP1 MLOAD SWAP1 DUP2 MSTORE RETURN JUMPDEST SWAP1 POP CALLVALUE PUSH2 0x422 JUMPI PUSH1 0x20 SWAP2 DUP3 PUSH1 0x3 NOT CALLDATASIZE ADD SLT PUSH2 0x6F2 JUMPI PUSH8 0xFFFFFFFFFFFFFFFF SWAP2 DUP1 CALLDATALOAD DUP4 DUP2 GT PUSH2 0x933 JUMPI CALLDATASIZE PUSH1 0x23 DUP3 ADD SLT ISZERO PUSH2 0x933 JUMPI DUP1 DUP3 ADD CALLDATALOAD SWAP4 DUP5 GT PUSH2 0x920 JUMPI DUP3 MLOAD PUSH1 0x1F NOT SWAP5 DUP8 SWAP3 SWAP2 PUSH2 0x894 PUSH1 0x1F DUP4 ADD DUP9 AND DUP10 ADD DUP3 PUSH2 0x12A6 JUMP JUMPDEST DUP2 DUP2 MSTORE CALLDATASIZE PUSH1 0x24 DUP4 DUP6 ADD ADD GT PUSH2 0x6F2 JUMPI DUP2 PUSH1 0x24 DUP10 SWAP5 ADD DUP5 DUP4 ADD CALLDATACOPY ADD ADD MSTORE PUSH1 0x18 SLOAD TIMESTAMP SUB SWAP1 TIMESTAMP DUP3 GT PUSH2 0x90D JUMPI POP PUSH1 0xA SWAP3 SWAP2 SWAP3 SLOAD LT SWAP2 DUP1 MLOAD SWAP5 DUP6 SWAP4 DUP5 MSTORE DUP2 DUP6 DUP6 ADD MSTORE PUSH1 0x60 SWAP5 DUP6 MLOAD DUP1 SWAP4 DUP7 ADD MSTORE DUP2 JUMPDEST DUP4 DUP2 LT PUSH2 0x8F8 JUMPI POP POP DUP4 DUP3 ADD DUP6 ADD MSTORE PUSH1 0x1F ADD AND DUP2 ADD SUB ADD SWAP1 RETURN JUMPDEST PUSH1 0x80 DUP2 ADD MLOAD DUP9 DUP3 ADD DUP9 ADD MSTORE DUP8 SWAP6 POP DUP2 ADD PUSH2 0x8DE JUMP JUMPDEST DUP6 PUSH1 0x11 PUSH1 0x24 SWAP3 PUSH4 0x4E487B71 PUSH1 0xE0 SHL DUP4 MSTORE MSTORE REVERT JUMPDEST PUSH1 0x24 DUP7 PUSH1 0x41 DUP5 PUSH4 0x4E487B71 PUSH1 0xE0 SHL DUP4 MSTORE MSTORE REVERT JUMPDEST DUP6 DUP1 REVERT JUMPDEST POP POP CALLVALUE PUSH2 0x2CE JUMPI DUP2 PUSH1 0x3 NOT CALLDATASIZE ADD SLT PUSH2 0x2CE JUMPI PUSH1 0x20 SWAP1 PUSH1 0x1 PUSH1 0x1 PUSH1 0xA0 SHL SUB PUSH1 0x1B SLOAD AND SWAP1 MLOAD SWAP1 DUP2 MSTORE RETURN JUMPDEST POP POP CALLVALUE PUSH2 0x2CE JUMPI DUP2 PUSH1 0x3 NOT CALLDATASIZE ADD SLT PUSH2 0x2CE JUMPI PUSH2 0x245 SWAP1 PUSH2 0x97D PUSH2 0x131E JUMP JUMPDEST SWAP1 MLOAD SWAP2 DUP3 SWAP2 PUSH1 0x20 DUP4 MSTORE PUSH1 0x20 DUP4 ADD SWAP1 PUSH2 0x12DE JUMP JUMPDEST POP POP CALLVALUE PUSH2 0x2CE JUMPI DUP2 PUSH1 0x3 NOT CALLDATASIZE ADD SLT PUSH2 0x2CE JUMPI PUSH1 0x20 SWAP1 PUSH1 0x1 PUSH1 0x1 PUSH1 0xA0 SHL SUB PUSH1 0x1E SLOAD AND SWAP1 MLOAD SWAP1 DUP2 MSTORE RETURN JUMPDEST POP POP CALLVALUE PUSH2 0x2CE JUMPI DUP2 PUSH1 0x3 NOT CALLDATASIZE ADD SLT PUSH2 0x2CE JUMPI PUSH1 0x20 SWAP1 MLOAD PUSH1 0x1 DUP2 MSTORE RETURN JUMPDEST POP POP CALLVALUE PUSH2 0x2CE JUMPI DUP2 PUSH1 0x3 NOT CALLDATASIZE ADD SLT PUSH2 0x2CE JUMPI DUP1 MLOAD SWAP1 DUP3 PUSH1 0x14 SLOAD PUSH2 0x9F6 DUP2 PUSH2 0x126C JUMP JUMPDEST DUP1 DUP6 MSTORE SWAP2 PUSH1 0x1 SWAP2 DUP1 DUP4 AND SWAP1 DUP2 ISZERO PUSH2 0x2A6 JUMPI POP PUSH1 0x1 EQ PUSH2 0xA21 JUMPI POP POP POP PUSH2 0x233 DUP3 PUSH2 0x245 SWAP5 SUB DUP4 PUSH2 0x12A6 JUMP JUMPDEST SWAP5 POP PUSH1 0x14 DUP6 MSTORE PUSH32 0xCE6D7B5282BD9A3661AE061FEED1DBDA4E52AB073B1F9285BE6E155D9C38D4EC JUMPDEST DUP3 DUP7 LT PUSH2 0xA66 JUMPI POP POP POP PUSH2 0x233 DUP3 PUSH1 0x20 PUSH2 0x245 SWAP6 DUP3 ADD ADD SWAP5 PUSH2 0x221 JUMP JUMPDEST DUP1 SLOAD PUSH1 0x20 DUP8 DUP8 ADD DUP2 ADD SWAP2 SWAP1 SWAP2 MSTORE SWAP1 SWAP6 ADD SWAP5 DUP2 ADD PUSH2 0xA49 JUMP JUMPDEST POP POP CALLVALUE PUSH2 0x2CE JUMPI DUP2 PUSH1 0x3 NOT CALLDATASIZE ADD SLT PUSH2 0x2CE JUMPI PUSH1 0x20 SWAP1 PUSH1 0x1F SLOAD SWAP1 MLOAD SWAP1 DUP2 MSTORE RETURN JUMPDEST POP POP CALLVALUE PUSH2 0x2CE JUMPI DUP2 PUSH1 0x3 NOT CALLDATASIZE ADD SLT PUSH2 0x2CE JUMPI PUSH1 0x20 SWAP1 PUSH1 0x16 SLOAD SWAP1 MLOAD SWAP1 DUP2 MSTORE RETURN JUMPDEST SWAP1 POP CALLVALUE PUSH2 0x422 JUMPI PUSH1 0xA0 CALLDATASIZE PUSH1 0x3 NOT ADD SLT PUSH2 0x422 JUMPI PUSH8 0xFFFFFFFFFFFFFFFF DUP2 CALLDATALOAD DUP2 DUP2 GT PUSH2 0x41E JUMPI PUSH2 0xAEE SWAP1 CALLDATASIZE SWAP1 DUP5 ADD PUSH2 0x13DC JUMP JUMPDEST SWAP1 PUSH1 0x24 CALLDATALOAD SWAP4 DUP4 DUP6 AND DUP1 SWAP6 SUB PUSH2 0xCA5 JUMPI PUSH1 0x44 CALLDATALOAD SWAP4 PUSH4 0xFFFFFFFF DUP6 AND DUP6 SUB PUSH2 0xCA1 JUMPI PUSH2 0xB16 PUSH2 0x1441 JUMP JUMPDEST DUP4 GT PUSH2 0xC8E JUMPI POP PUSH2 0xB28 PUSH1 0x5 SLOAD PUSH2 0x126C JUMP JUMPDEST PUSH1 0x1F DUP2 GT PUSH2 0xC2F JUMPI JUMPDEST POP DUP6 SWAP1 PUSH1 0x1F DUP4 GT PUSH1 0x1 EQ PUSH2 0xBA2 JUMPI PUSH12 0xFFFFFFFF0000000000000000 SWAP4 SWAP3 SWAP2 DUP8 SWAP2 DUP4 PUSH2 0xB97 JUMPI JUMPDEST POP POP DUP2 PUSH1 0x1 SHL SWAP2 PUSH1 0x0 NOT SWAP1 PUSH1 0x3 SHL SHR NOT AND OR PUSH1 0x5 SSTORE JUMPDEST PUSH1 0x9 SLOAD SWAP4 SHL AND SWAP2 PUSH12 0xFFFFFFFFFFFFFFFFFFFFFFFF NOT AND OR OR PUSH1 0x9 SSTORE PUSH1 0x64 CALLDATALOAD PUSH1 0x11 SSTORE PUSH1 0x84 CALLDATALOAD PUSH1 0xA SSTORE DUP1 RETURN JUMPDEST ADD CALLDATALOAD SWAP1 POP CODESIZE DUP1 PUSH2 0xB57 JUMP JUMPDEST PUSH32 0x36B6384B5ECA791C62761152D0C79BB0604C104A5FB6F4EB0703F3154BB3DB0 SWAP2 PUSH1 0x1F NOT DUP5 AND DUP9 JUMPDEST DUP2 DUP2 LT PUSH2 0xC17 JUMPI POP SWAP2 PUSH1 0x1 SWAP4 SWAP2 DUP6 PUSH12 0xFFFFFFFF0000000000000000 SWAP8 SWAP7 SWAP5 LT PUSH2 0xBFD JUMPI JUMPDEST POP POP POP DUP2 SHL ADD PUSH1 0x5 SSTORE PUSH2 0xB6D JUMP JUMPDEST ADD CALLDATALOAD PUSH1 0x0 NOT PUSH1 0x3 DUP5 SWAP1 SHL PUSH1 0xF8 AND SHR NOT AND SWAP1 SSTORE CODESIZE DUP1 DUP1 PUSH2 0xBEF JUMP JUMPDEST SWAP2 SWAP4 PUSH1 0x20 PUSH1 0x1 DUP2 SWAP3 DUP8 DUP8 ADD CALLDATALOAD DUP2 SSTORE ADD SWAP6 ADD SWAP3 ADD PUSH2 0xBCB JUMP JUMPDEST PUSH32 0x36B6384B5ECA791C62761152D0C79BB0604C104A5FB6F4EB0703F3154BB3DB0 PUSH1 0x1F DUP5 ADD PUSH1 0x5 SHR DUP2 ADD SWAP2 PUSH1 0x20 DUP6 LT PUSH2 0xC84 JUMPI JUMPDEST PUSH1 0x1F ADD PUSH1 0x5 SHR ADD SWAP1 JUMPDEST DUP2 DUP2 LT PUSH2 0xC79 JUMPI POP PUSH2 0xB31 JUMP JUMPDEST DUP8 DUP2 SSTORE PUSH1 0x1 ADD PUSH2 0xC6C JUMP JUMPDEST SWAP1 SWAP2 POP DUP2 SWAP1 PUSH2 0xC63 JUMP JUMPDEST DUP7 PUSH1 0x41 PUSH1 0x24 SWAP3 PUSH4 0x4E487B71 PUSH1 0xE0 SHL DUP4 MSTORE MSTORE REVERT JUMPDEST DUP8 DUP1 REVERT JUMPDEST DUP7 DUP1 REVERT JUMPDEST SWAP2 SWAP1 POP CALLVALUE PUSH2 0x422 JUMPI PUSH1 0x20 CALLDATASIZE PUSH1 0x3 NOT ADD SLT PUSH2 0x422 JUMPI PUSH8 0xFFFFFFFFFFFFFFFF SWAP1 DUP3 CALLDATALOAD DUP3 DUP2 GT PUSH2 0x41E JUMPI PUSH2 0xCDD SWAP1 CALLDATASIZE SWAP1 DUP6 ADD PUSH2 0x13DC JUMP JUMPDEST POP POP PUSH1 0x1 PUSH1 0x1 PUSH1 0xA0 SHL SUB DUP1 PUSH1 0x3 SLOAD AND SWAP1 DUP2 CALLER EQ ISZERO DUP1 PUSH2 0xEFD JUMPI JUMPDEST PUSH2 0xEBD JUMPI POP POP PUSH1 0xE SLOAD ISZERO PUSH2 0xE7B JUMPI DUP1 MLOAD PUSH1 0x20 DUP2 ADD DUP2 DUP2 LT DUP5 DUP3 GT OR PUSH2 0xE68 JUMPI SWAP1 DUP6 SWAP2 DUP4 MSTORE MSTORE PUSH1 0x18 SLOAD TIMESTAMP SUB TIMESTAMP DUP2 GT PUSH2 0xE55 JUMPI PUSH1 0xA SLOAD LT ISZERO PUSH2 0xE13 JUMPI POP TIMESTAMP PUSH1 0x18 SSTORE PUSH1 0x19 SLOAD PUSH1 0x1 DUP2 ADD DUP1 SWAP2 GT PUSH2 0xE00 JUMPI PUSH1 0x19 SSTORE PUSH1 0x21 SLOAD PUSH1 0x22 SLOAD LT ISZERO PUSH2 0xDA4 JUMPI PUSH2 0xD75 SWAP1 PUSH1 0x9 SLOAD AND PUSH4 0xFFFFFFFF PUSH1 0x10 SLOAD AND PUSH1 0x11 SLOAD SWAP2 PUSH2 0xD70 PUSH2 0x131E JUMP JUMPDEST PUSH2 0x1499 JUMP JUMPDEST DUP1 PUSH1 0x12 SSTORE DUP3 SSTORE PUSH1 0x16 SLOAD SWAP1 PUSH1 0x1 DUP3 ADD DUP1 SWAP3 GT PUSH2 0xD91 JUMPI POP PUSH1 0x16 SSTORE DUP1 RETURN JUMPDEST DUP3 PUSH1 0x11 PUSH1 0x24 SWAP3 PUSH4 0x4E487B71 PUSH1 0xE0 SHL DUP4 MSTORE MSTORE REVERT JUMPDEST PUSH2 0xD75 SWAP1 PUSH21 0x10000000000000000000000000000000000000000 PUSH32 0xFFFFFFFFFFFFFFFFFFFFFF00FFFFFFFFFFFFFFFFFFFFFFFFFFFFFFFFFFFFFFFF PUSH1 0x1E SLOAD AND OR PUSH1 0x1E SSTORE PUSH1 0x9 SLOAD AND PUSH4 0xFFFFFFFF PUSH1 0x10 SLOAD AND PUSH1 0x11 SLOAD SWAP2 PUSH2 0xD70 PUSH2 0x131E JUMP JUMPDEST PUSH1 0x24 DUP5 PUSH1 0x11 DUP6 PUSH4 0x4E487B71 PUSH1 0xE0 SHL DUP4 MSTORE MSTORE REVERT JUMPDEST MLOAD PUSH3 0x461BCD PUSH1 0xE5 SHL DUP2 MSTORE PUSH1 0x20 DUP2 DUP5 ADD MSTORE PUSH1 0x15 PUSH1 0x24 DUP3 ADD MSTORE PUSH32 0x54696D6520696E74657276616C206E6F74206D65740000000000000000000000 PUSH1 0x44 DUP3 ADD MSTORE PUSH1 0x64 SWAP1 REVERT JUMPDEST PUSH1 0x24 DUP6 PUSH1 0x11 DUP7 PUSH4 0x4E487B71 PUSH1 0xE0 SHL DUP4 MSTORE MSTORE REVERT JUMPDEST PUSH1 0x24 DUP7 PUSH1 0x41 DUP8 PUSH4 0x4E487B71 PUSH1 0xE0 SHL DUP4 MSTORE MSTORE REVERT JUMPDEST MLOAD PUSH3 0x461BCD PUSH1 0xE5 SHL DUP2 MSTORE PUSH1 0x20 DUP2 DUP5 ADD MSTORE PUSH1 0x15 PUSH1 0x24 DUP3 ADD MSTORE PUSH32 0x55706B656570206E6F7420726567697374657265640000000000000000000000 PUSH1 0x44 DUP3 ADD MSTORE PUSH1 0x64 SWAP1 REVERT JUMPDEST PUSH1 0x64 SWAP5 SWAP4 POP PUSH1 0x1E SLOAD AND SWAP2 MLOAD SWAP3 PUSH32 0x426FBC7100000000000000000000000000000000000000000000000000000000 DUP5 MSTORE CALLER SWAP1 DUP5 ADD MSTORE PUSH1 0x24 DUP4 ADD MSTORE PUSH1 0x44 DUP3 ADD MSTORE REVERT JUMPDEST POP DUP1 PUSH1 0x1E SLOAD AND CALLER EQ ISZERO PUSH2 0xCF7 JUMP JUMPDEST POP POP CALLVALUE PUSH2 0x2CE JUMPI DUP2 PUSH1 0x3 NOT CALLDATASIZE ADD SLT PUSH2 0x2CE JUMPI PUSH1 0x20 SWAP1 PUSH1 0x17 SLOAD SWAP1 MLOAD SWAP1 DUP2 MSTORE RETURN JUMPDEST POP POP CALLVALUE PUSH2 0x2CE JUMPI DUP2 PUSH1 0x3 NOT CALLDATASIZE ADD SLT PUSH2 0x2CE JUMPI DUP1 MLOAD SWAP1 DUP3 PUSH1 0x13 SLOAD PUSH2 0xF4C DUP2 PUSH2 0x126C JUMP JUMPDEST DUP1 DUP6 MSTORE SWAP2 PUSH1 0x1 SWAP2 DUP1 DUP4 AND SWAP1 DUP2 ISZERO PUSH2 0x2A6 JUMPI POP PUSH1 0x1 EQ PUSH2 0xF77 JUMPI POP POP POP PUSH2 0x233 DUP3 PUSH2 0x245 SWAP5 SUB DUP4 PUSH2 0x12A6 JUMP JUMPDEST SWAP5 POP PUSH1 0x13 DUP6 MSTORE PUSH32 0x66DE8FFDA797E3DE9C05E8FC57B3BF0EC28A930D40B0D285D93C06501CF6A090 JUMPDEST DUP3 DUP7 LT PUSH2 0xFBC JUMPI POP POP POP PUSH2 0x233 DUP3 PUSH1 0x20 PUSH2 0x245 SWAP6 DUP3 ADD ADD SWAP5 PUSH2 0x221 JUMP JUMPDEST DUP1 SLOAD PUSH1 0x20 DUP8 DUP8 ADD DUP2 ADD SWAP2 SWAP1 SWAP2 MSTORE SWAP1 SWAP6 ADD SWAP5 DUP2 ADD PUSH2 0xF9F JUMP JUMPDEST POP POP CALLVALUE PUSH2 0x2CE JUMPI DUP2 PUSH1 0x3 NOT CALLDATASIZE ADD SLT PUSH2 0x2CE JUMPI PUSH1 0x20 SWAP1 PUSH1 0xB SLOAD SWAP1 MLOAD SWAP1 DUP2 MSTORE RETURN JUMPDEST POP POP CALLVALUE PUSH2 0x2CE JUMPI DUP2 PUSH1 0x3 NOT CALLDATASIZE ADD SLT PUSH2 0x2CE JUMPI DUP1 MLOAD SWAP1 DUP3 PUSH1 0xF SLOAD PUSH2 0x1015 DUP2 PUSH2 0x126C JUMP JUMPDEST DUP1 DUP6 MSTORE SWAP2 PUSH1 0x1 SWAP2 DUP1 DUP4 AND SWAP1 DUP2 ISZERO PUSH2 0x2A6 JUMPI POP PUSH1 0x1 EQ PUSH2 0x1040 JUMPI POP POP POP PUSH2 0x233 DUP3 PUSH2 0x245 SWAP5 SUB DUP4 PUSH2 0x12A6 JUMP JUMPDEST SWAP5 POP PUSH1 0xF DUP6 MSTORE PUSH32 0x8D1108E10BCB7C27DDDFC02ED9D693A074039D026CF4EA4240B40F7D581AC802 JUMPDEST DUP3 DUP7 LT PUSH2 0x1085 JUMPI POP POP POP PUSH2 0x233 DUP3 PUSH1 0x20 PUSH2 0x245 SWAP6 DUP3 ADD ADD SWAP5 PUSH2 0x221 JUMP JUMPDEST DUP1 SLOAD PUSH1 0x20 DUP8 DUP8 ADD DUP2 ADD SWAP2 SWAP1 SWAP2 MSTORE SWAP1 SWAP6 ADD SWAP5 DUP2 ADD PUSH2 0x1068 JUMP JUMPDEST SWAP2 SWAP1 POP CALLVALUE PUSH2 0x422 JUMPI PUSH1 0x20 SWAP2 DUP3 PUSH1 0x3 NOT CALLDATASIZE ADD SLT PUSH2 0x6F2 JUMPI CALLDATALOAD PUSH1 0x22 SLOAD DUP2 LT ISZERO PUSH2 0x6F2 JUMPI PUSH1 0x22 DUP5 MSTORE PUSH32 0x61035B26E3E9EEE00E0D72FD1EE8DDCA6894550DCA6916EA2AC6BAA90D11E510 ADD DUP2 MLOAD SWAP4 DUP5 SWAP2 DUP2 DUP2 SLOAD SWAP1 PUSH2 0x10F6 DUP3 PUSH2 0x126C JUMP JUMPDEST SWAP3 DUP4 DUP7 MSTORE PUSH1 0x1 SWAP3 DUP9 DUP5 DUP3 AND SWAP2 DUP3 PUSH1 0x0 EQ PUSH2 0x1173 JUMPI POP POP PUSH1 0x1 EQ PUSH2 0x1135 JUMPI JUMPDEST DUP6 DUP9 PUSH2 0x245 DUP10 PUSH2 0x1126 DUP5 DUP11 SUB DUP6 PUSH2 0x12A6 JUMP JUMPDEST MLOAD SWAP3 DUP3 DUP5 SWAP4 DUP5 MSTORE DUP4 ADD SWAP1 PUSH2 0x12DE JUMP JUMPDEST DUP8 SWAP5 POP DUP2 SWAP4 SWAP3 SWAP2 MSTORE DUP4 DUP4 KECCAK256 JUMPDEST DUP3 DUP5 LT PUSH2 0x115B JUMPI POP POP POP DUP3 ADD ADD DUP2 PUSH2 0x1126 PUSH2 0x245 CODESIZE PUSH2 0x1114 JUMP JUMPDEST DUP1 SLOAD DUP5 DUP11 ADD DUP7 ADD MSTORE DUP9 SWAP6 POP DUP8 SWAP5 SWAP1 SWAP4 ADD SWAP3 DUP2 ADD PUSH2 0x1141 JUMP JUMPDEST PUSH1 0xFF NOT AND DUP9 DUP3 ADD MSTORE SWAP5 ISZERO ISZERO PUSH1 0x5 SHL DUP8 ADD SWAP1 SWAP5 ADD SWAP5 POP DUP6 SWAP4 POP PUSH2 0x1126 SWAP3 POP PUSH2 0x245 SWAP2 POP CODESIZE SWAP1 POP PUSH2 0x1114 JUMP JUMPDEST POP POP CALLVALUE PUSH2 0x2CE JUMPI DUP2 PUSH1 0x3 NOT CALLDATASIZE ADD SLT PUSH2 0x2CE JUMPI PUSH1 0x9 SLOAD DUP2 MLOAD SWAP2 SHR PUSH4 0xFFFFFFFF AND DUP2 MSTORE PUSH1 0x20 SWAP1 RETURN JUMPDEST POP POP CALLVALUE PUSH2 0x2CE JUMPI DUP2 PUSH1 0x3 NOT CALLDATASIZE ADD SLT PUSH2 0x2CE JUMPI PUSH1 0x20 SWAP1 PUSH1 0x6 SLOAD SWAP1 MLOAD SWAP1 DUP2 MSTORE RETURN JUMPDEST POP POP CALLVALUE PUSH2 0x2CE JUMPI DUP2 PUSH1 0x3 NOT CALLDATASIZE ADD SLT PUSH2 0x2CE JUMPI PUSH1 0x20 SWAP1 PUSH1 0x1 PUSH1 0x1 PUSH1 0xA0 SHL SUB PUSH1 0x1A SLOAD AND SWAP1 MLOAD SWAP1 DUP2 MSTORE RETURN JUMPDEST POP POP CALLVALUE PUSH2 0x2CE JUMPI DUP2 PUSH1 0x3 NOT CALLDATASIZE ADD SLT PUSH2 0x2CE JUMPI PUSH1 0x20 SWAP1 PUSH8 0xFFFFFFFFFFFFFFFF PUSH1 0x9 SLOAD AND SWAP1 MLOAD SWAP1 DUP2 MSTORE RETURN JUMPDEST POP POP CALLVALUE PUSH2 0x2CE JUMPI DUP2 PUSH1 0x3 NOT CALLDATASIZE ADD SLT PUSH2 0x2CE JUMPI PUSH1 0x20 SWAP1 PUSH1 0x18 SLOAD SWAP1 MLOAD SWAP1 DUP2 MSTORE RETURN JUMPDEST DUP5 SWAP1 CALLVALUE PUSH2 0x2CE JUMPI DUP2 PUSH1 0x3 NOT CALLDATASIZE ADD SLT PUSH2 0x2CE JUMPI PUSH1 0x20 SWAP2 SLOAD DUP2 MSTORE RETURN JUMPDEST SWAP1 PUSH1 0x1 DUP3 DUP2 SHR SWAP3 AND DUP1 ISZERO PUSH2 0x129C JUMPI JUMPDEST PUSH1 0x20 DUP4 LT EQ PUSH2 0x1286 JUMPI JUMP JUMPDEST PUSH4 0x4E487B71 PUSH1 0xE0 SHL PUSH1 0x0 MSTORE PUSH1 0x22 PUSH1 0x4 MSTORE PUSH1 0x24 PUSH1 0x0 REVERT JUMPDEST SWAP2 PUSH1 0x7F AND SWAP2 PUSH2 0x127B JUMP JUMPDEST SWAP1 PUSH1 0x1F DUP1 NOT SWAP2 ADD AND DUP2 ADD SWAP1 DUP2 LT PUSH8 0xFFFFFFFFFFFFFFFF DUP3 GT OR PUSH2 0x12C8 JUMPI PUSH1 0x40 MSTORE JUMP JUMPDEST PUSH4 0x4E487B71 PUSH1 0xE0 SHL PUSH1 0x0 MSTORE PUSH1 0x41 PUSH1 0x4 MSTORE PUSH1 0x24 PUSH1 0x0 REVERT JUMPDEST SWAP2 SWAP1 DUP3 MLOAD SWAP3 DUP4 DUP3 MSTORE PUSH1 0x0 JUMPDEST DUP5 DUP2 LT PUSH2 0x130A JUMPI POP POP DUP3 PUSH1 0x0 PUSH1 0x20 DUP1 SWAP5 SWAP6 DUP5 ADD ADD MSTORE PUSH1 0x1F DUP1 NOT SWAP2 ADD AND ADD ADD SWAP1 JUMP JUMPDEST PUSH1 0x20 DUP2 DUP4 ADD DUP2 ADD MLOAD DUP5 DUP4 ADD DUP3 ADD MSTORE ADD PUSH2 0x12E9 JUMP JUMPDEST PUSH1 0x40 MLOAD SWAP1 PUSH1 0x0 DUP3 PUSH1 0x5 SLOAD SWAP2 PUSH2 0x1332 DUP4 PUSH2 0x126C JUMP JUMPDEST DUP1 DUP4 MSTORE SWAP3 PUSH1 0x1 SWAP1 DUP2 DUP2 AND SWAP1 DUP2 ISZERO PUSH2 0x13BA JUMPI POP PUSH1 0x1 EQ PUSH2 0x135B JUMPI JUMPDEST POP PUSH2 0x1359 SWAP3 POP SUB DUP4 PUSH2 0x12A6 JUMP JUMPDEST JUMP JUMPDEST PUSH1 0x5 PUSH1 0x0 SWAP1 DUP2 MSTORE SWAP2 POP PUSH32 0x36B6384B5ECA791C62761152D0C79BB0604C104A5FB6F4EB0703F3154BB3DB0 JUMPDEST DUP5 DUP4 LT PUSH2 0x139F JUMPI POP PUSH2 0x1359 SWAP4 POP POP DUP2 ADD PUSH1 0x20 ADD CODESIZE PUSH2 0x134C JUMP JUMPDEST DUP2 SWAP4 POP SWAP1 DUP2 PUSH1 0x20 SWAP3 SLOAD DUP4 DUP6 DUP11 ADD ADD MSTORE ADD SWAP2 ADD SWAP1 SWAP2 DUP6 SWAP3 PUSH2 0x1386 JUMP JUMPDEST SWAP1 POP PUSH1 0x20 SWAP3 POP PUSH2 0x1359 SWAP5 SWAP2 POP PUSH1 0xFF NOT AND DUP3 DUP5 ADD MSTORE ISZERO ISZERO PUSH1 0x5 SHL DUP3 ADD ADD CODESIZE PUSH2 0x134C JUMP JUMPDEST SWAP2 DUP2 PUSH1 0x1F DUP5 ADD SLT ISZERO PUSH2 0x140A JUMPI DUP3 CALLDATALOAD SWAP2 PUSH8 0xFFFFFFFFFFFFFFFF DUP4 GT PUSH2 0x140A JUMPI PUSH1 0x20 DUP4 DUP2 DUP7 ADD SWAP6 ADD ADD GT PUSH2 0x140A JUMPI JUMP JUMPDEST PUSH1 0x0 DUP1 REVERT JUMPDEST DUP1 SLOAD DUP3 LT ISZERO PUSH2 0x142B JUMPI PUSH1 0x0 MSTORE PUSH1 0x20 PUSH1 0x0 KECCAK256 SWAP1 PUSH1 0x2 SHL ADD SWAP1 PUSH1 0x0 SWAP1 JUMP JUMPDEST PUSH4 0x4E487B71 PUSH1 0xE0 SHL PUSH1 0x0 MSTORE PUSH1 0x32 PUSH1 0x4 MSTORE PUSH1 0x24 PUSH1 0x0 REVERT JUMPDEST PUSH1 0x1 PUSH1 0x1 PUSH1 0xA0 SHL SUB PUSH1 0x3 SLOAD AND CALLER SUB PUSH2 0x1455 JUMPI JUMP JUMPDEST PUSH1 0x64 PUSH1 0x40 MLOAD PUSH3 0x461BCD PUSH1 0xE5 SHL DUP2 MSTORE PUSH1 0x20 PUSH1 0x4 DUP3 ADD MSTORE PUSH1 0x16 PUSH1 0x24 DUP3 ADD MSTORE PUSH32 0x4F6E6C792063616C6C61626C65206279206F776E657200000000000000000000 PUSH1 0x44 DUP3 ADD MSTORE REVERT JUMPDEST SWAP2 SWAP1 SWAP4 SWAP3 SWAP4 PUSH1 0x40 MLOAD SWAP2 PUSH1 0xA0 DUP4 ADD PUSH8 0xFFFFFFFFFFFFFFFF SWAP3 DUP5 DUP3 LT DUP5 DUP4 GT OR PUSH2 0x12C8 JUMPI DUP4 SWAP2 PUSH1 0x40 MSTORE AND DUP4 MSTORE PUSH1 0x20 SWAP4 DUP5 DUP5 ADD SWAP1 DUP2 MSTORE PUSH1 0x40 DUP5 ADD SWAP3 PUSH1 0x1 DUP1 DUP6 MSTORE PUSH4 0xFFFFFFFF PUSH1 0x60 DUP8 ADD SWAP5 AND DUP5 MSTORE PUSH1 0x80 DUP7 ADD SWAP9 DUP10 MSTORE DUP1 SLOAD SWAP7 PUSH1 0x0 SWAP8 DUP1 DUP10 SSTORE DUP3 DUP2 ADD DUP1 DUP3 GT PUSH2 0x170B JUMPI DUP4 SSTORE DUP9 MSTORE PUSH1 0x2 DUP2 MSTORE PUSH1 0x40 DUP9 KECCAK256 DUP1 SLOAD SWAP1 PUSH9 0x10000000000000000 DUP3 LT ISZERO PUSH2 0x16F7 JUMPI SWAP1 PUSH2 0x152C SWAP2 DUP5 DUP3 ADD DUP2 SSTORE PUSH2 0x140F JUMP JUMPDEST SWAP8 SWAP1 SWAP8 PUSH2 0x16E4 JUMPI DUP4 SWAP1 MLOAD AND PUSH8 0xFFFFFFFFFFFFFFFF NOT DUP9 SLOAD AND OR DUP8 SSTORE DUP2 DUP8 ADD SWAP4 MLOAD DUP1 MLOAD SWAP4 DUP5 GT PUSH2 0x16D0 JUMPI PUSH2 0x155F DUP6 SLOAD PUSH2 0x126C JUMP JUMPDEST PUSH1 0x1F DUP2 GT PUSH2 0x168A JUMPI JUMPDEST POP DUP2 PUSH1 0x1F DUP6 GT PUSH1 0x1 EQ PUSH2 0x15FC JUMPI POP SWAP3 DUP1 PUSH1 0x3 SWAP8 SWAP6 SWAP4 DUP2 SWAP4 PUSH32 0x1131472297A800FEE664D1D89CFA8F7676FF07189ECC53F80BBB5F4969099DB8 SWAP13 SWAP14 SWAP9 SWAP7 DUP13 SWAP5 PUSH2 0x15F1 JUMPI JUMPDEST POP POP SHL SWAP2 PUSH1 0x0 NOT SWAP1 DUP9 SHL SHR NOT AND OR SWAP1 SSTORE JUMPDEST PUSH2 0xFFFF PUSH1 0x2 DUP7 ADD SWAP3 MLOAD AND PUSH6 0xFFFFFFFF0000 DUP4 SLOAD SWAP3 MLOAD PUSH1 0x10 SHL AND SWAP2 PUSH6 0xFFFFFFFFFFFF NOT AND OR OR SWAP1 SSTORE MLOAD SWAP2 ADD SSTORE DUP1 SLOAD SWAP2 DUP2 DUP4 SWAP3 LOG2 SWAP1 JUMP JUMPDEST ADD MLOAD SWAP3 POP CODESIZE DUP1 PUSH2 0x15AB JUMP JUMPDEST SWAP2 SWAP1 PUSH1 0x1F SWAP5 SWAP4 SWAP5 NOT DUP5 AND DUP7 DUP12 MSTORE DUP4 DUP12 KECCAK256 SWAP4 DUP12 SWAP1 JUMPDEST DUP3 DUP3 LT PUSH2 0x1673 JUMPI POP POP SWAP2 PUSH32 0x1131472297A800FEE664D1D89CFA8F7676FF07189ECC53F80BBB5F4969099DB8 SWAP12 SWAP13 SWAP8 SWAP6 SWAP4 SWAP2 DUP6 PUSH1 0x3 SWAP11 SWAP9 SWAP7 SWAP5 LT PUSH2 0x165B JUMPI JUMPDEST POP POP POP DUP2 SHL ADD SWAP1 SSTORE PUSH2 0x15BC JUMP JUMPDEST ADD MLOAD PUSH1 0x0 NOT DUP4 DUP11 SHL PUSH1 0xF8 AND SHR NOT AND SWAP1 SSTORE CODESIZE DUP1 DUP1 PUSH2 0x164E JUMP JUMPDEST DUP1 DUP9 DUP7 SWAP8 DUP3 SWAP5 SWAP8 DUP8 ADD MLOAD DUP2 SSTORE ADD SWAP7 ADD SWAP5 ADD SWAP1 PUSH2 0x1610 JUMP JUMPDEST DUP6 DUP11 MSTORE DUP3 DUP11 KECCAK256 PUSH1 0x1F DUP7 ADD PUSH1 0x5 SHR DUP2 ADD SWAP2 DUP5 DUP8 LT PUSH2 0x16C6 JUMPI JUMPDEST PUSH1 0x1F ADD PUSH1 0x5 SHR ADD SWAP1 DUP5 SWAP1 JUMPDEST DUP3 DUP2 LT PUSH2 0x16BB JUMPI POP POP PUSH2 0x1568 JUMP JUMPDEST DUP12 DUP2 SSTORE ADD DUP5 SWAP1 PUSH2 0x16AD JUMP JUMPDEST SWAP1 SWAP2 POP DUP2 SWAP1 PUSH2 0x16A2 JUMP JUMPDEST PUSH1 0x24 DUP10 PUSH4 0x4E487B71 PUSH1 0xE0 SHL DUP2 MSTORE PUSH1 0x41 PUSH1 0x4 MSTORE REVERT JUMPDEST PUSH1 0x24 DUP10 PUSH4 0x4E487B71 PUSH1 0xE0 SHL DUP2 MSTORE DUP1 PUSH1 0x4 MSTORE REVERT JUMPDEST PUSH1 0x24 DUP11 PUSH4 0x4E487B71 PUSH1 0xE0 SHL DUP2 MSTORE PUSH1 0x41 PUSH1 0x4 MSTORE REVERT JUMPDEST PUSH1 0x24 DUP11 PUSH4 0x4E487B71 PUSH1 0xE0 SHL DUP2 MSTORE PUSH1 0x11 PUSH1 0x4 MSTORE REVERT INVALID LOG2 PUSH5 0x6970667358 0x22 SLT KECCAK256 SWAP7 CREATE 0xE3 ADDRESS 0x2C 0xDC PUSH9 0x4CC255EDF837DC4A82 ISZERO 0xEA GASPRICE DUP1 PUSH26 0xE6E89A7DC0C5D6BDD57D0E64736F6C63430008130033A2646970 PUSH7 0x7358221220FD67 CALLVALUE NOT 0xBF SWAP7 DUP10 JUMPI 0xD0 0xE0 0xBC SWAP12 0xEB 0x2C 0x28 MSTORE SLT 0xE8 0xB1 PUSH31 0x9050236D0EDEC5C89F7AD52164736F6C634300081300330000000000000000 "},"methodIdentifiers":{"blacklistAddr(address)":"8a699f00","contractBalance()":"8b7afe2e","contracts(address,uint256)":"ed23f8c3","createInsuranceContract(address,address,uint256,uint256,uint256,uint256,address,uint64,address,address,address,uint32)":"77ad0b34","getInsurance(uint256)":"85fae602","i_owner()":"dba6335f","id()":"af640d0f","institutionName()":"3a133e2c","isWhiteListed(address)":"6f9170f6","registerInfo(string,string)":"6a4ac979","whitelist(address)":"9b19251a","whitelistAddr(address)":"080a57f9","withdraw()":"3ccfd60b"}}}}}