{"contracts/lab/Laboratory.sol":{"Laboratory":{"abi":[{"inputs":[{"internalType":"bytes32","name":"_incomingData","type":"bytes32"}],"stateMutability":"nonpayable","type":"constructor"},{"inputs":[],"name":"compare","outputs":[{"internalType":"bool","name":"","type":"bool"}],"stateMutability":"view","type":"function"},{"inputs":[],"name":"counterBytes32","outputs":[{"internalType":"bytes32","name":"","type":"bytes32"}],"stateMutability":"view","type":"function"},{"inputs":[],"name":"decoded","outputs":[{"internalType":"string","name":"","type":"string"}],"stateMutability":"view","type":"function"},{"inputs":[],"name":"funBits256","outputs":[{"internalType":"uint256","name":"","type":"uint256"}],"stateMutability":"view","type":"function"},{"inputs":[],"name":"funBytes32","outputs":[{"internalType":"bytes32","name":"","type":"bytes32"}],"stateMutability":"view","type":"function"},{"inputs":[{"internalType":"string","name":"data","type":"string"}],"name":"insert","outputs":[],"stateMutability":"nonpayable","type":"function"},{"inputs":[{"internalType":"uint256","name":"","type":"uint256"}],"name":"sampleStorage","outputs":[{"internalType":"string","name":"","type":"string"}],"stateMutability":"view","type":"function"},{"inputs":[],"name":"sampleStorageSize","outputs":[{"internalType":"uint256","name":"","type":"uint256"}],"stateMutability":"view","type":"function"}],"evm":{"bytecode":{"linkReferences":{},"object":"608060405234620001975762000a1880380380916200001e82620001b2565b60803960208091126200019757608051906001908160025560646005558260005560405192818401528083526200005583620001d9565b8251906001600160401b03821162000191576200007f826200007960035462000219565b62000256565b80601f83116001146200010257508190620000e694600092620000f6575b505081831b916000199060031b1c1916176003555b620000be600254600155565b620000cb60005462000378565b620000df620000d9620002af565b620003d0565b5462000378565b6040516105d09081620004488239f35b0151905038806200009d565b60036000529193601f1985167fc2575a0e9e593c00f959f8c92f12db2869c3395a3b0502d05e2516446f71f85b936000905b828210620001795750509184939186620000e69794106200015f575b505050811b01600355620000b2565b015160001960f88460031b161c1916905538808062000150565b80878697829497870151815501960194019062000134565b6200019c565b600080fd5b634e487b7160e01b600052604160045260246000fd5b6080601f91909101601f19168101906001600160401b038211908210176200019157604052565b604081019081106001600160401b038211176200019157604052565b601f909101601f19168101906001600160401b038211908210176200019157604052565b90600182811c921680156200024b575b60208310146200023557565b634e487b7160e01b600052602260045260246000fd5b91607f169162000229565b601f811162000263575050565b6000906003825260208220906020601f850160051c83019410620002a4575b601f0160051c01915b8281106200029857505050565b8181556001016200028b565b909250829062000282565b6040519060008260035491620002c58362000219565b808352600193808516908115620003555750600114620002f1575b50620002ef92500383620001f5565b565b600360009081527fc2575a0e9e593c00f959f8c92f12db2869c3395a3b0502d05e2516446f71f85b94602093509091905b8183106200033c575050620002ef935082010138620002e0565b8554888401850152948501948794509183019162000322565b9050620002ef94506020925060ff191682840152151560051b82010138620002e0565b6040516327b7cf8560e01b602082015260248082019290925290815260608101906001600160401b038211818310176200019157620002ef916040525b600080916020815191016a636f6e736f6c652e6c6f675afa50565b90604051602063104c13eb60e21b8183015280602483015283519384604484015260005b85811062000432575050506200042c60648285600083620002ef979884010152601f80199101168101036044810184520182620001f5565b620003b5565b818101830151848201606401528201620003f456fe608060408181526004918236101561001657600080fd5b600092833560e01c9182631ab70f0d14610498575081631fd9249c146103b2578163277e2213146102a55781633da0ac791461027f57816383f48b8d14610260578163b1498e29146100be578163c79b2aa51461009c575063ffb941441461007d57600080fd5b34610098578160031936011261009857602091549051908152f35b5080fd5b9050346100ba57826003193601126100ba5760209250549051908152f35b8280fd5b839034610098576020806003193601126100ba5781359067ffffffffffffffff9081831161025c573660238401121561025c578284013591821161025c576024903682848601011161025857845493680100000000000000008510156102465761012e6001958681018855610537565b969096610235575061014086546104b4565b601f81116101ef575b508691601f85116001146101875750918394918493889561017a575b5050501b916000199060031b1c191617905580f35b0101359250868080610165565b92909184601f198116888a52858a20958a905b898383106101d357505050106101b7575b50505050811b01905580f35b60001960f88660031b161c1992010135169055848080806101ab565b878601870135895590970196938401938893509081019061019a565b868852828820601f860160051c81019184871061022b575b601f0160051c019086905b828110610220575050610149565b898155018690610212565b9091508190610207565b87808592634e487b7160e01b825252fd5b8287604188634e487b7160e01b835252fd5b8580fd5b8480fd5b5050346100985781600319360112610098576020906002549051908152f35b50503461009857816003193601126100985760209061029c610584565b90519015158152f35b83833461009857602090816003193601126100ba57833584548110156103ae576102ce90610537565b61039c57815192849180546102e2816104b4565b8087529160019180831690811561037e5750600114610346575b50505050829003601f01601f191682019267ffffffffffffffff841183851017610333575082918261032f9252826104ee565b0390f35b80604186634e487b7160e01b6024945252fd5b8752828720929350869284905b83851061036a5750505050830101858080806102fc565b805488860183015293019284908201610353565b60ff191688860152505050151560051b8401019050858080806102fc565b6024848087634e487b7160e01b825252fd5b8380fd5b838334610098578160031936011261009857805190826003546103d4816104b4565b8085529060019081811690811561047a575060011461041f575b5050829003601f01601f191682019267ffffffffffffffff841183851017610333575082918261032f9252826104ee565b6003865290915084907fc2575a0e9e593c00f959f8c92f12db2869c3395a3b0502d05e2516446f71f85b5b8383106104615750506020915083010185806103ee565b81816020929493945483858a010152019101919061044a565b9150506020925060ff191682850152151560051b83010185806103ee565b8490346100985781600319360112610098576020906001548152f35b90600182811c921680156104e4575b60208310146104ce57565b634e487b7160e01b600052602260045260246000fd5b91607f16916104c3565b6020808252825181830181905290939260005b82811061052357505060409293506000838284010152601f8019910116010190565b818101860151848201604001528501610501565b60045481101561056e5760046000527f8a35acfbc15ff81a39ae7d344fd709f28e8600b4aa8c65c6b64bfe7fe36bd19b0190600090565b634e487b7160e01b600052603260045260246000fd5b600554600454101561059557600190565b60009056fea2646970667358221220561a64c258c617b9aa42af1820ca94973be2b50601df0d36bc5197eff1fbc35664736f6c63430008130033","opcodes":"PUSH1 0x80 PUSH1 0x40 MSTORE CALLVALUE PUSH3 0x197 JUMPI PUSH3 0xA18 DUP1 CODESIZE SUB DUP1 SWAP2 PUSH3 0x1E DUP3 PUSH3 0x1B2 JUMP JUMPDEST PUSH1 0x80 CODECOPY PUSH1 0x20 DUP1 SWAP2 SLT PUSH3 0x197 JUMPI PUSH1 0x80 MLOAD SWAP1 PUSH1 0x1 SWAP1 DUP2 PUSH1 0x2 SSTORE PUSH1 0x64 PUSH1 0x5 SSTORE DUP3 PUSH1 0x0 SSTORE PUSH1 0x40 MLOAD SWAP3 DUP2 DUP5 ADD MSTORE DUP1 DUP4 MSTORE PUSH3 0x55 DUP4 PUSH3 0x1D9 JUMP JUMPDEST DUP3 MLOAD SWAP1 PUSH1 0x1 PUSH1 0x1 PUSH1 0x40 SHL SUB DUP3 GT PUSH3 0x191 JUMPI PUSH3 0x7F DUP3 PUSH3 0x79 PUSH1 0x3 SLOAD PUSH3 0x219 JUMP JUMPDEST PUSH3 0x256 JUMP JUMPDEST DUP1 PUSH1 0x1F DUP4 GT PUSH1 0x1 EQ PUSH3 0x102 JUMPI POP DUP2 SWAP1 PUSH3 0xE6 SWAP5 PUSH1 0x0 SWAP3 PUSH3 0xF6 JUMPI JUMPDEST POP POP DUP2 DUP4 SHL SWAP2 PUSH1 0x0 NOT SWAP1 PUSH1 0x3 SHL SHR NOT AND OR PUSH1 0x3 SSTORE JUMPDEST PUSH3 0xBE PUSH1 0x2 SLOAD PUSH1 0x1 SSTORE JUMP JUMPDEST PUSH3 0xCB PUSH1 0x0 SLOAD PUSH3 0x378 JUMP JUMPDEST PUSH3 0xDF PUSH3 0xD9 PUSH3 0x2AF JUMP JUMPDEST PUSH3 0x3D0 JUMP JUMPDEST SLOAD PUSH3 0x378 JUMP JUMPDEST PUSH1 0x40 MLOAD PUSH2 0x5D0 SWAP1 DUP2 PUSH3 0x448 DUP3 CODECOPY RETURN JUMPDEST ADD MLOAD SWAP1 POP CODESIZE DUP1 PUSH3 0x9D JUMP JUMPDEST PUSH1 0x3 PUSH1 0x0 MSTORE SWAP2 SWAP4 PUSH1 0x1F NOT DUP6 AND PUSH32 0xC2575A0E9E593C00F959F8C92F12DB2869C3395A3B0502D05E2516446F71F85B SWAP4 PUSH1 0x0 SWAP1 JUMPDEST DUP3 DUP3 LT PUSH3 0x179 JUMPI POP POP SWAP2 DUP5 SWAP4 SWAP2 DUP7 PUSH3 0xE6 SWAP8 SWAP5 LT PUSH3 0x15F JUMPI JUMPDEST POP POP POP DUP2 SHL ADD PUSH1 0x3 SSTORE PUSH3 0xB2 JUMP JUMPDEST ADD MLOAD PUSH1 0x0 NOT PUSH1 0xF8 DUP5 PUSH1 0x3 SHL AND SHR NOT AND SWAP1 SSTORE CODESIZE DUP1 DUP1 PUSH3 0x150 JUMP JUMPDEST DUP1 DUP8 DUP7 SWAP8 DUP3 SWAP5 SWAP8 DUP8 ADD MLOAD DUP2 SSTORE ADD SWAP7 ADD SWAP5 ADD SWAP1 PUSH3 0x134 JUMP JUMPDEST PUSH3 0x19C JUMP JUMPDEST PUSH1 0x0 DUP1 REVERT JUMPDEST PUSH4 0x4E487B71 PUSH1 0xE0 SHL PUSH1 0x0 MSTORE PUSH1 0x41 PUSH1 0x4 MSTORE PUSH1 0x24 PUSH1 0x0 REVERT JUMPDEST PUSH1 0x80 PUSH1 0x1F SWAP2 SWAP1 SWAP2 ADD PUSH1 0x1F NOT AND DUP2 ADD SWAP1 PUSH1 0x1 PUSH1 0x1 PUSH1 0x40 SHL SUB DUP3 GT SWAP1 DUP3 LT OR PUSH3 0x191 JUMPI PUSH1 0x40 MSTORE JUMP JUMPDEST PUSH1 0x40 DUP2 ADD SWAP1 DUP2 LT PUSH1 0x1 PUSH1 0x1 PUSH1 0x40 SHL SUB DUP3 GT OR PUSH3 0x191 JUMPI PUSH1 0x40 MSTORE JUMP JUMPDEST PUSH1 0x1F SWAP1 SWAP2 ADD PUSH1 0x1F NOT AND DUP2 ADD SWAP1 PUSH1 0x1 PUSH1 0x1 PUSH1 0x40 SHL SUB DUP3 GT SWAP1 DUP3 LT OR PUSH3 0x191 JUMPI PUSH1 0x40 MSTORE JUMP JUMPDEST SWAP1 PUSH1 0x1 DUP3 DUP2 SHR SWAP3 AND DUP1 ISZERO PUSH3 0x24B JUMPI JUMPDEST PUSH1 0x20 DUP4 LT EQ PUSH3 0x235 JUMPI JUMP JUMPDEST PUSH4 0x4E487B71 PUSH1 0xE0 SHL PUSH1 0x0 MSTORE PUSH1 0x22 PUSH1 0x4 MSTORE PUSH1 0x24 PUSH1 0x0 REVERT JUMPDEST SWAP2 PUSH1 0x7F AND SWAP2 PUSH3 0x229 JUMP JUMPDEST PUSH1 0x1F DUP2 GT PUSH3 0x263 JUMPI POP POP JUMP JUMPDEST PUSH1 0x0 SWAP1 PUSH1 0x3 DUP3 MSTORE PUSH1 0x20 DUP3 KECCAK256 SWAP1 PUSH1 0x20 PUSH1 0x1F DUP6 ADD PUSH1 0x5 SHR DUP4 ADD SWAP5 LT PUSH3 0x2A4 JUMPI JUMPDEST PUSH1 0x1F ADD PUSH1 0x5 SHR ADD SWAP2 JUMPDEST DUP3 DUP2 LT PUSH3 0x298 JUMPI POP POP POP JUMP JUMPDEST DUP2 DUP2 SSTORE PUSH1 0x1 ADD PUSH3 0x28B JUMP JUMPDEST SWAP1 SWAP3 POP DUP3 SWAP1 PUSH3 0x282 JUMP JUMPDEST PUSH1 0x40 MLOAD SWAP1 PUSH1 0x0 DUP3 PUSH1 0x3 SLOAD SWAP2 PUSH3 0x2C5 DUP4 PUSH3 0x219 JUMP JUMPDEST DUP1 DUP4 MSTORE PUSH1 0x1 SWAP4 DUP1 DUP6 AND SWAP1 DUP2 ISZERO PUSH3 0x355 JUMPI POP PUSH1 0x1 EQ PUSH3 0x2F1 JUMPI JUMPDEST POP PUSH3 0x2EF SWAP3 POP SUB DUP4 PUSH3 0x1F5 JUMP JUMPDEST JUMP JUMPDEST PUSH1 0x3 PUSH1 0x0 SWAP1 DUP2 MSTORE PUSH32 0xC2575A0E9E593C00F959F8C92F12DB2869C3395A3B0502D05E2516446F71F85B SWAP5 PUSH1 0x20 SWAP4 POP SWAP1 SWAP2 SWAP1 JUMPDEST DUP2 DUP4 LT PUSH3 0x33C JUMPI POP POP PUSH3 0x2EF SWAP4 POP DUP3 ADD ADD CODESIZE PUSH3 0x2E0 JUMP JUMPDEST DUP6 SLOAD DUP9 DUP5 ADD DUP6 ADD MSTORE SWAP5 DUP6 ADD SWAP5 DUP8 SWAP5 POP SWAP2 DUP4 ADD SWAP2 PUSH3 0x322 JUMP JUMPDEST SWAP1 POP PUSH3 0x2EF SWAP5 POP PUSH1 0x20 SWAP3 POP PUSH1 0xFF NOT AND DUP3 DUP5 ADD MSTORE ISZERO ISZERO PUSH1 0x5 SHL DUP3 ADD ADD CODESIZE PUSH3 0x2E0 JUMP JUMPDEST PUSH1 0x40 MLOAD PUSH4 0x27B7CF85 PUSH1 0xE0 SHL PUSH1 0x20 DUP3 ADD MSTORE PUSH1 0x24 DUP1 DUP3 ADD SWAP3 SWAP1 SWAP3 MSTORE SWAP1 DUP2 MSTORE PUSH1 0x60 DUP2 ADD SWAP1 PUSH1 0x1 PUSH1 0x1 PUSH1 0x40 SHL SUB DUP3 GT DUP2 DUP4 LT OR PUSH3 0x191 JUMPI PUSH3 0x2EF SWAP2 PUSH1 0x40 MSTORE JUMPDEST PUSH1 0x0 DUP1 SWAP2 PUSH1 0x20 DUP2 MLOAD SWAP2 ADD PUSH11 0x636F6E736F6C652E6C6F67 GAS STATICCALL POP JUMP JUMPDEST SWAP1 PUSH1 0x40 MLOAD PUSH1 0x20 PUSH4 0x104C13EB PUSH1 0xE2 SHL DUP2 DUP4 ADD MSTORE DUP1 PUSH1 0x24 DUP4 ADD MSTORE DUP4 MLOAD SWAP4 DUP5 PUSH1 0x44 DUP5 ADD MSTORE PUSH1 0x0 JUMPDEST DUP6 DUP2 LT PUSH3 0x432 JUMPI POP POP POP PUSH3 0x42C PUSH1 0x64 DUP3 DUP6 PUSH1 0x0 DUP4 PUSH3 0x2EF SWAP8 SWAP9 DUP5 ADD ADD MSTORE PUSH1 0x1F DUP1 NOT SWAP2 ADD AND DUP2 ADD SUB PUSH1 0x44 DUP2 ADD DUP5 MSTORE ADD DUP3 PUSH3 0x1F5 JUMP JUMPDEST PUSH3 0x3B5 JUMP JUMPDEST DUP2 DUP2 ADD DUP4 ADD MLOAD DUP5 DUP3 ADD PUSH1 0x64 ADD MSTORE DUP3 ADD PUSH3 0x3F4 JUMP INVALID PUSH1 0x80 PUSH1 0x40 DUP2 DUP2 MSTORE PUSH1 0x4 SWAP2 DUP3 CALLDATASIZE LT ISZERO PUSH2 0x16 JUMPI PUSH1 0x0 DUP1 REVERT JUMPDEST PUSH1 0x0 SWAP3 DUP4 CALLDATALOAD PUSH1 0xE0 SHR SWAP2 DUP3 PUSH4 0x1AB70F0D EQ PUSH2 0x498 JUMPI POP DUP2 PUSH4 0x1FD9249C EQ PUSH2 0x3B2 JUMPI DUP2 PUSH4 0x277E2213 EQ PUSH2 0x2A5 JUMPI DUP2 PUSH4 0x3DA0AC79 EQ PUSH2 0x27F JUMPI DUP2 PUSH4 0x83F48B8D EQ PUSH2 0x260 JUMPI DUP2 PUSH4 0xB1498E29 EQ PUSH2 0xBE JUMPI DUP2 PUSH4 0xC79B2AA5 EQ PUSH2 0x9C JUMPI POP PUSH4 0xFFB94144 EQ PUSH2 0x7D JUMPI PUSH1 0x0 DUP1 REVERT JUMPDEST CALLVALUE PUSH2 0x98 JUMPI DUP2 PUSH1 0x3 NOT CALLDATASIZE ADD SLT PUSH2 0x98 JUMPI PUSH1 0x20 SWAP2 SLOAD SWAP1 MLOAD SWAP1 DUP2 MSTORE RETURN JUMPDEST POP DUP1 REVERT JUMPDEST SWAP1 POP CALLVALUE PUSH2 0xBA JUMPI DUP3 PUSH1 0x3 NOT CALLDATASIZE ADD SLT PUSH2 0xBA JUMPI PUSH1 0x20 SWAP3 POP SLOAD SWAP1 MLOAD SWAP1 DUP2 MSTORE RETURN JUMPDEST DUP3 DUP1 REVERT JUMPDEST DUP4 SWAP1 CALLVALUE PUSH2 0x98 JUMPI PUSH1 0x20 DUP1 PUSH1 0x3 NOT CALLDATASIZE ADD SLT PUSH2 0xBA JUMPI DUP2 CALLDATALOAD SWAP1 PUSH8 0xFFFFFFFFFFFFFFFF SWAP1 DUP2 DUP4 GT PUSH2 0x25C JUMPI CALLDATASIZE PUSH1 0x23 DUP5 ADD SLT ISZERO PUSH2 0x25C JUMPI DUP3 DUP5 ADD CALLDATALOAD SWAP2 DUP3 GT PUSH2 0x25C JUMPI PUSH1 0x24 SWAP1 CALLDATASIZE DUP3 DUP5 DUP7 ADD ADD GT PUSH2 0x258 JUMPI DUP5 SLOAD SWAP4 PUSH9 0x10000000000000000 DUP6 LT ISZERO PUSH2 0x246 JUMPI PUSH2 0x12E PUSH1 0x1 SWAP6 DUP7 DUP2 ADD DUP9 SSTORE PUSH2 0x537 JUMP JUMPDEST SWAP7 SWAP1 SWAP7 PUSH2 0x235 JUMPI POP PUSH2 0x140 DUP7 SLOAD PUSH2 0x4B4 JUMP JUMPDEST PUSH1 0x1F DUP2 GT PUSH2 0x1EF JUMPI JUMPDEST POP DUP7 SWAP2 PUSH1 0x1F DUP6 GT PUSH1 0x1 EQ PUSH2 0x187 JUMPI POP SWAP2 DUP4 SWAP5 SWAP2 DUP5 SWAP4 DUP9 SWAP6 PUSH2 0x17A JUMPI JUMPDEST POP POP POP SHL SWAP2 PUSH1 0x0 NOT SWAP1 PUSH1 0x3 SHL SHR NOT AND OR SWAP1 SSTORE DUP1 RETURN JUMPDEST ADD ADD CALLDATALOAD SWAP3 POP DUP7 DUP1 DUP1 PUSH2 0x165 JUMP JUMPDEST SWAP3 SWAP1 SWAP2 DUP5 PUSH1 0x1F NOT DUP2 AND DUP9 DUP11 MSTORE DUP6 DUP11 KECCAK256 SWAP6 DUP11 SWAP1 JUMPDEST DUP10 DUP4 DUP4 LT PUSH2 0x1D3 JUMPI POP POP POP LT PUSH2 0x1B7 JUMPI JUMPDEST POP POP POP POP DUP2 SHL ADD SWAP1 SSTORE DUP1 RETURN JUMPDEST PUSH1 0x0 NOT PUSH1 0xF8 DUP7 PUSH1 0x3 SHL AND SHR NOT SWAP3 ADD ADD CALLDATALOAD AND SWAP1 SSTORE DUP5 DUP1 DUP1 DUP1 PUSH2 0x1AB JUMP JUMPDEST DUP8 DUP7 ADD DUP8 ADD CALLDATALOAD DUP10 SSTORE SWAP1 SWAP8 ADD SWAP7 SWAP4 DUP5 ADD SWAP4 DUP9 SWAP4 POP SWAP1 DUP2 ADD SWAP1 PUSH2 0x19A JUMP JUMPDEST DUP7 DUP9 MSTORE DUP3 DUP9 KECCAK256 PUSH1 0x1F DUP7 ADD PUSH1 0x5 SHR DUP2 ADD SWAP2 DUP5 DUP8 LT PUSH2 0x22B JUMPI JUMPDEST PUSH1 0x1F ADD PUSH1 0x5 SHR ADD SWAP1 DUP7 SWAP1 JUMPDEST DUP3 DUP2 LT PUSH2 0x220 JUMPI POP POP PUSH2 0x149 JUMP JUMPDEST DUP10 DUP2 SSTORE ADD DUP7 SWAP1 PUSH2 0x212 JUMP JUMPDEST SWAP1 SWAP2 POP DUP2 SWAP1 PUSH2 0x207 JUMP JUMPDEST DUP8 DUP1 DUP6 SWAP3 PUSH4 0x4E487B71 PUSH1 0xE0 SHL DUP3 MSTORE MSTORE REVERT JUMPDEST DUP3 DUP8 PUSH1 0x41 DUP9 PUSH4 0x4E487B71 PUSH1 0xE0 SHL DUP4 MSTORE MSTORE REVERT JUMPDEST DUP6 DUP1 REVERT JUMPDEST DUP5 DUP1 REVERT JUMPDEST POP POP CALLVALUE PUSH2 0x98 JUMPI DUP2 PUSH1 0x3 NOT CALLDATASIZE ADD SLT PUSH2 0x98 JUMPI PUSH1 0x20 SWAP1 PUSH1 0x2 SLOAD SWAP1 MLOAD SWAP1 DUP2 MSTORE RETURN JUMPDEST POP POP CALLVALUE PUSH2 0x98 JUMPI DUP2 PUSH1 0x3 NOT CALLDATASIZE ADD SLT PUSH2 0x98 JUMPI PUSH1 0x20 SWAP1 PUSH2 0x29C PUSH2 0x584 JUMP JUMPDEST SWAP1 MLOAD SWAP1 ISZERO ISZERO DUP2 MSTORE RETURN JUMPDEST DUP4 DUP4 CALLVALUE PUSH2 0x98 JUMPI PUSH1 0x20 SWAP1 DUP2 PUSH1 0x3 NOT CALLDATASIZE ADD SLT PUSH2 0xBA JUMPI DUP4 CALLDATALOAD DUP5 SLOAD DUP2 LT ISZERO PUSH2 0x3AE JUMPI PUSH2 0x2CE SWAP1 PUSH2 0x537 JUMP JUMPDEST PUSH2 0x39C JUMPI DUP2 MLOAD SWAP3 DUP5 SWAP2 DUP1 SLOAD PUSH2 0x2E2 DUP2 PUSH2 0x4B4 JUMP JUMPDEST DUP1 DUP8 MSTORE SWAP2 PUSH1 0x1 SWAP2 DUP1 DUP4 AND SWAP1 DUP2 ISZERO PUSH2 0x37E JUMPI POP PUSH1 0x1 EQ PUSH2 0x346 JUMPI JUMPDEST POP POP POP POP DUP3 SWAP1 SUB PUSH1 0x1F ADD PUSH1 0x1F NOT AND DUP3 ADD SWAP3 PUSH8 0xFFFFFFFFFFFFFFFF DUP5 GT DUP4 DUP6 LT OR PUSH2 0x333 JUMPI POP DUP3 SWAP2 DUP3 PUSH2 0x32F SWAP3 MSTORE DUP3 PUSH2 0x4EE JUMP JUMPDEST SUB SWAP1 RETURN JUMPDEST DUP1 PUSH1 0x41 DUP7 PUSH4 0x4E487B71 PUSH1 0xE0 SHL PUSH1 0x24 SWAP5 MSTORE MSTORE REVERT JUMPDEST DUP8 MSTORE DUP3 DUP8 KECCAK256 SWAP3 SWAP4 POP DUP7 SWAP3 DUP5 SWAP1 JUMPDEST DUP4 DUP6 LT PUSH2 0x36A JUMPI POP POP POP POP DUP4 ADD ADD DUP6 DUP1 DUP1 DUP1 PUSH2 0x2FC JUMP JUMPDEST DUP1 SLOAD DUP9 DUP7 ADD DUP4 ADD MSTORE SWAP4 ADD SWAP3 DUP5 SWAP1 DUP3 ADD PUSH2 0x353 JUMP JUMPDEST PUSH1 0xFF NOT AND DUP9 DUP7 ADD MSTORE POP POP POP ISZERO ISZERO PUSH1 0x5 SHL DUP5 ADD ADD SWAP1 POP DUP6 DUP1 DUP1 DUP1 PUSH2 0x2FC JUMP JUMPDEST PUSH1 0x24 DUP5 DUP1 DUP8 PUSH4 0x4E487B71 PUSH1 0xE0 SHL DUP3 MSTORE MSTORE REVERT JUMPDEST DUP4 DUP1 REVERT JUMPDEST DUP4 DUP4 CALLVALUE PUSH2 0x98 JUMPI DUP2 PUSH1 0x3 NOT CALLDATASIZE ADD SLT PUSH2 0x98 JUMPI DUP1 MLOAD SWAP1 DUP3 PUSH1 0x3 SLOAD PUSH2 0x3D4 DUP2 PUSH2 0x4B4 JUMP JUMPDEST DUP1 DUP6 MSTORE SWAP1 PUSH1 0x1 SWAP1 DUP2 DUP2 AND SWAP1 DUP2 ISZERO PUSH2 0x47A JUMPI POP PUSH1 0x1 EQ PUSH2 0x41F JUMPI JUMPDEST POP POP DUP3 SWAP1 SUB PUSH1 0x1F ADD PUSH1 0x1F NOT AND DUP3 ADD SWAP3 PUSH8 0xFFFFFFFFFFFFFFFF DUP5 GT DUP4 DUP6 LT OR PUSH2 0x333 JUMPI POP DUP3 SWAP2 DUP3 PUSH2 0x32F SWAP3 MSTORE DUP3 PUSH2 0x4EE JUMP JUMPDEST PUSH1 0x3 DUP7 MSTORE SWAP1 SWAP2 POP DUP5 SWAP1 PUSH32 0xC2575A0E9E593C00F959F8C92F12DB2869C3395A3B0502D05E2516446F71F85B JUMPDEST DUP4 DUP4 LT PUSH2 0x461 JUMPI POP POP PUSH1 0x20 SWAP2 POP DUP4 ADD ADD DUP6 DUP1 PUSH2 0x3EE JUMP JUMPDEST DUP2 DUP2 PUSH1 0x20 SWAP3 SWAP5 SWAP4 SWAP5 SLOAD DUP4 DUP6 DUP11 ADD ADD MSTORE ADD SWAP2 ADD SWAP2 SWAP1 PUSH2 0x44A JUMP JUMPDEST SWAP2 POP POP PUSH1 0x20 SWAP3 POP PUSH1 0xFF NOT AND DUP3 DUP6 ADD MSTORE ISZERO ISZERO PUSH1 0x5 SHL DUP4 ADD ADD DUP6 DUP1 PUSH2 0x3EE JUMP JUMPDEST DUP5 SWAP1 CALLVALUE PUSH2 0x98 JUMPI DUP2 PUSH1 0x3 NOT CALLDATASIZE ADD SLT PUSH2 0x98 JUMPI PUSH1 0x20 SWAP1 PUSH1 0x1 SLOAD DUP2 MSTORE RETURN JUMPDEST SWAP1 PUSH1 0x1 DUP3 DUP2 SHR SWAP3 AND DUP1 ISZERO PUSH2 0x4E4 JUMPI JUMPDEST PUSH1 0x20 DUP4 LT EQ PUSH2 0x4CE JUMPI JUMP JUMPDEST PUSH4 0x4E487B71 PUSH1 0xE0 SHL PUSH1 0x0 MSTORE PUSH1 0x22 PUSH1 0x4 MSTORE PUSH1 0x24 PUSH1 0x0 REVERT JUMPDEST SWAP2 PUSH1 0x7F AND SWAP2 PUSH2 0x4C3 JUMP JUMPDEST PUSH1 0x20 DUP1 DUP3 MSTORE DUP3 MLOAD DUP2 DUP4 ADD DUP2 SWAP1 MSTORE SWAP1 SWAP4 SWAP3 PUSH1 0x0 JUMPDEST DUP3 DUP2 LT PUSH2 0x523 JUMPI POP POP PUSH1 0x40 SWAP3 SWAP4 POP PUSH1 0x0 DUP4 DUP3 DUP5 ADD ADD MSTORE PUSH1 0x1F DUP1 NOT SWAP2 ADD AND ADD ADD SWAP1 JUMP JUMPDEST DUP2 DUP2 ADD DUP7 ADD MLOAD DUP5 DUP3 ADD PUSH1 0x40 ADD MSTORE DUP6 ADD PUSH2 0x501 JUMP JUMPDEST PUSH1 0x4 SLOAD DUP2 LT ISZERO PUSH2 0x56E JUMPI PUSH1 0x4 PUSH1 0x0 MSTORE PUSH32 0x8A35ACFBC15FF81A39AE7D344FD709F28E8600B4AA8C65C6B64BFE7FE36BD19B ADD SWAP1 PUSH1 0x0 SWAP1 JUMP JUMPDEST PUSH4 0x4E487B71 PUSH1 0xE0 SHL PUSH1 0x0 MSTORE PUSH1 0x32 PUSH1 0x4 MSTORE PUSH1 0x24 PUSH1 0x0 REVERT JUMPDEST PUSH1 0x5 SLOAD PUSH1 0x4 SLOAD LT ISZERO PUSH2 0x595 JUMPI PUSH1 0x1 SWAP1 JUMP JUMPDEST PUSH1 0x0 SWAP1 JUMP INVALID LOG2 PUSH5 0x6970667358 0x22 SLT KECCAK256 JUMP BYTE PUSH5 0xC258C617B9 0xAA TIMESTAMP 0xAF XOR KECCAK256 0xCA SWAP5 SWAP8 EXTCODESIZE 0xE2 0xB5 MOD ADD 0xDF 0xD CALLDATASIZE 0xBC MLOAD SWAP8 0xEF CALL 0xFB 0xC3 JUMP PUSH5 0x736F6C6343 STOP ADDMOD SGT STOP CALLER "},"methodIdentifiers":{"compare()":"3da0ac79","counterBytes32()":"1ab70f0d","decoded()":"1fd9249c","funBits256()":"83f48b8d","funBytes32()":"ffb94144","insert(string)":"b1498e29","sampleStorage(uint256)":"277e2213","sampleStorageSize()":"c79b2aa5"}}}}}