{"contracts/AutomatedFunctionsConsumer.sol":{"AutomatedFunctionsConsumer":{"abi":[{"inputs":[{"internalType":"address","name":"_deployer","type":"address"},{"internalType":"address","name":"_farmer","type":"address"},{"internalType":"uint256","name":"_humidityLimit","type":"uint256"},{"internalType":"uint256","name":"_sampleMaxSize","type":"uint256"},{"internalType":"uint256","name":"_reparationValue","type":"uint256"},{"internalType":"uint256","name":"_updateInterval","type":"uint256"},{"internalType":"address","name":"router","type":"address"},{"internalType":"uint64","name":"_subscriptionId","type":"uint64"},{"internalType":"address","name":"_registry","type":"address"},{"internalType":"address","name":"_sepoliaLINKAddress","type":"address"},{"internalType":"address","name":"_sepoliaRegistrarAddress","type":"address"},{"internalType":"uint32","name":"_fulfillGasLimit","type":"uint32"},{"internalType":"bytes32","name":"_donID","type":"bytes32"},{"internalType":"bytes","name":"_requestCBOR","type":"bytes"},{"internalType":"string","name":"_computationJS","type":"string"}],"stateMutability":"payable","type":"constructor"},{"inputs":[],"name":"EmptyArgs","type":"error"},{"inputs":[],"name":"EmptySource","type":"error"},{"inputs":[],"name":"NoInlineSecrets","type":"error"},{"inputs":[{"internalType":"address","name":"caller","type":"address"},{"internalType":"address","name":"owner","type":"address"},{"internalType":"address","name":"automationRegistry","type":"address"}],"name":"NotAllowedCaller","type":"error"},{"inputs":[],"name":"OnlyRouterCanFulfill","type":"error"},{"inputs":[{"internalType":"bytes32","name":"requestId","type":"bytes32"}],"name":"UnexpectedRequestID","type":"error"},{"anonymous":false,"inputs":[{"indexed":false,"internalType":"uint96","name":"amountRetrieved","type":"uint96"}],"name":"LINKsRetrieved","type":"event"},{"anonymous":false,"inputs":[{"indexed":true,"internalType":"bytes32","name":"requestId","type":"bytes32"},{"indexed":false,"internalType":"bytes","name":"result","type":"bytes"},{"indexed":false,"internalType":"bytes","name":"err","type":"bytes"}],"name":"OCRResponse","type":"event"},{"anonymous":false,"inputs":[{"indexed":true,"internalType":"address","name":"from","type":"address"},{"indexed":true,"internalType":"address","name":"to","type":"address"}],"name":"OwnershipTransferRequested","type":"event"},{"anonymous":false,"inputs":[{"indexed":true,"internalType":"address","name":"from","type":"address"},{"indexed":true,"internalType":"address","name":"to","type":"address"}],"name":"OwnershipTransferred","type":"event"},{"anonymous":false,"inputs":[{"indexed":true,"internalType":"bytes32","name":"id","type":"bytes32"}],"name":"RequestFulfilled","type":"event"},{"anonymous":false,"inputs":[{"indexed":false,"internalType":"string","name":"reason","type":"string"}],"name":"RequestRevertedWithErrorMsg","type":"event"},{"anonymous":false,"inputs":[{"indexed":false,"internalType":"bytes","name":"data","type":"bytes"}],"name":"RequestRevertedWithoutErrorMsg","type":"event"},{"anonymous":false,"inputs":[{"indexed":true,"internalType":"bytes32","name":"id","type":"bytes32"}],"name":"RequestSent","type":"event"},{"anonymous":false,"inputs":[{"indexed":true,"internalType":"bytes32","name":"requestId","type":"bytes32"},{"indexed":false,"internalType":"bytes","name":"response","type":"bytes"},{"indexed":false,"internalType":"bytes","name":"err","type":"bytes"}],"name":"Response","type":"event"},{"anonymous":false,"inputs":[{"indexed":false,"internalType":"string","name":"responseAsString","type":"string"}],"name":"responseString","type":"event"},{"anonymous":false,"inputs":[{"indexed":false,"internalType":"address","name":"upkeepAddress","type":"address"}],"name":"upkeepCreated","type":"event"},{"anonymous":false,"inputs":[{"indexed":false,"internalType":"uint256","name":"upkeepId","type":"uint256"}],"name":"upkeepRegistered","type":"event"},{"inputs":[],"name":"acceptOwnership","outputs":[],"stateMutability":"nonpayable","type":"function"},{"inputs":[{"internalType":"uint96","name":"amount","type":"uint96"}],"name":"approveLINK","outputs":[],"stateMutability":"nonpayable","type":"function"},{"inputs":[],"name":"c_upkeep","outputs":[{"internalType":"contract Upkeep","name":"","type":"address"}],"stateMutability":"view","type":"function"},{"inputs":[{"internalType":"bytes","name":"","type":"bytes"}],"name":"checkUpkeep","outputs":[{"internalType":"bool","name":"upkeepNeeded","type":"bool"},{"internalType":"bytes","name":"performData","type":"bytes"}],"stateMutability":"view","type":"function"},{"inputs":[],"name":"contractBalance","outputs":[{"internalType":"uint256","name":"","type":"uint256"}],"stateMutability":"view","type":"function"},{"inputs":[{"internalType":"uint96","name":"upkeepFundAmount","type":"uint96"}],"name":"createUpkeep","outputs":[],"stateMutability":"nonpayable","type":"function"},{"inputs":[],"name":"deployer","outputs":[{"internalType":"address","name":"","type":"address"}],"stateMutability":"view","type":"function"},{"inputs":[],"name":"donID","outputs":[{"internalType":"bytes32","name":"","type":"bytes32"}],"stateMutability":"view","type":"function"},{"inputs":[],"name":"farmer","outputs":[{"internalType":"address","name":"","type":"address"}],"stateMutability":"view","type":"function"},{"inputs":[],"name":"fulfillGasLimit","outputs":[{"internalType":"uint32","name":"","type":"uint32"}],"stateMutability":"view","type":"function"},{"inputs":[],"name":"gasLimit","outputs":[{"internalType":"uint32","name":"","type":"uint32"}],"stateMutability":"view","type":"function"},{"inputs":[{"internalType":"bytes32","name":"requestId","type":"bytes32"},{"internalType":"bytes","name":"response","type":"bytes"},{"internalType":"bytes","name":"err","type":"bytes"}],"name":"handleOracleFulfillment","outputs":[],"stateMutability":"nonpayable","type":"function"},{"inputs":[],"name":"humidityLimit","outputs":[{"internalType":"uint256","name":"","type":"uint256"}],"stateMutability":"view","type":"function"},{"inputs":[],"name":"lastUpkeepTimeStamp","outputs":[{"internalType":"uint256","name":"","type":"uint256"}],"stateMutability":"view","type":"function"},{"inputs":[],"name":"latestError","outputs":[{"internalType":"bytes","name":"","type":"bytes"}],"stateMutability":"view","type":"function"},{"inputs":[],"name":"latestRequestId","outputs":[{"internalType":"bytes32","name":"","type":"bytes32"}],"stateMutability":"view","type":"function"},{"inputs":[],"name":"latestResponse","outputs":[{"internalType":"bytes","name":"","type":"bytes"}],"stateMutability":"view","type":"function"},{"inputs":[],"name":"owner","outputs":[{"internalType":"address","name":"","type":"address"}],"stateMutability":"view","type":"function"},{"inputs":[{"internalType":"bytes","name":"","type":"bytes"}],"name":"performUpkeep","outputs":[],"stateMutability":"nonpayable","type":"function"},{"inputs":[{"components":[{"internalType":"string","name":"name","type":"string"},{"internalType":"bytes","name":"encryptedEmail","type":"bytes"},{"internalType":"address","name":"upkeepContract","type":"address"},{"internalType":"uint32","name":"gasLimit","type":"uint32"},{"internalType":"address","name":"adminAddress","type":"address"},{"internalType":"uint8","name":"triggerType","type":"uint8"},{"internalType":"bytes","name":"checkData","type":"bytes"},{"internalType":"bytes","name":"triggerConfig","type":"bytes"},{"internalType":"bytes","name":"offchainConfig","type":"bytes"},{"internalType":"uint96","name":"amount","type":"uint96"}],"internalType":"struct RegistrationParams","name":"params","type":"tuple"}],"name":"registerUpkeep","outputs":[],"stateMutability":"nonpayable","type":"function"},{"inputs":[],"name":"registry","outputs":[{"internalType":"contract IAutomationRegistryConsumer","name":"","type":"address"}],"stateMutability":"view","type":"function"},{"inputs":[],"name":"reparationValue","outputs":[{"internalType":"uint256","name":"","type":"uint256"}],"stateMutability":"view","type":"function"},{"inputs":[],"name":"request","outputs":[{"internalType":"bytes","name":"","type":"bytes"}],"stateMutability":"view","type":"function"},{"inputs":[],"name":"requestCBOR","outputs":[{"internalType":"bytes","name":"","type":"bytes"}],"stateMutability":"view","type":"function"},{"inputs":[],"name":"responseCounter","outputs":[{"internalType":"uint256","name":"","type":"uint256"}],"stateMutability":"view","type":"function"},{"inputs":[],"name":"s_lastError","outputs":[{"internalType":"bytes","name":"","type":"bytes"}],"stateMutability":"view","type":"function"},{"inputs":[],"name":"s_lastRequestId","outputs":[{"internalType":"bytes32","name":"","type":"bytes32"}],"stateMutability":"view","type":"function"},{"inputs":[],"name":"s_lastResponse","outputs":[{"internalType":"bytes","name":"","type":"bytes"}],"stateMutability":"view","type":"function"},{"inputs":[],"name":"s_requestCounter","outputs":[{"internalType":"uint256","name":"","type":"uint256"}],"stateMutability":"view","type":"function"},{"inputs":[],"name":"s_responseCounter","outputs":[{"internalType":"uint256","name":"","type":"uint256"}],"stateMutability":"view","type":"function"},{"inputs":[],"name":"s_upkeepCounter","outputs":[{"internalType":"uint256","name":"","type":"uint256"}],"stateMutability":"view","type":"function"},{"inputs":[],"name":"sampleMaxSize","outputs":[{"internalType":"uint256","name":"","type":"uint256"}],"stateMutability":"view","type":"function"},{"inputs":[{"internalType":"uint256","name":"","type":"uint256"}],"name":"sampleStorage","outputs":[{"internalType":"string","name":"","type":"string"}],"stateMutability":"view","type":"function"},{"inputs":[],"name":"sepoliaLINKAddress","outputs":[{"internalType":"address","name":"","type":"address"}],"stateMutability":"view","type":"function"},{"inputs":[],"name":"sepoliaRegistrarAddress","outputs":[{"internalType":"address","name":"","type":"address"}],"stateMutability":"view","type":"function"},{"inputs":[],"name":"subscriptionId","outputs":[{"internalType":"uint64","name":"","type":"uint64"}],"stateMutability":"view","type":"function"},{"inputs":[{"internalType":"address","name":"to","type":"address"}],"name":"transferOwnership","outputs":[],"stateMutability":"nonpayable","type":"function"},{"inputs":[],"name":"updateInterval","outputs":[{"internalType":"uint256","name":"","type":"uint256"}],"stateMutability":"view","type":"function"},{"inputs":[],"name":"upkeepCounter","outputs":[{"internalType":"uint256","name":"","type":"uint256"}],"stateMutability":"view","type":"function"},{"inputs":[],"name":"upkeepId","outputs":[{"internalType":"uint256","name":"","type":"uint256"}],"stateMutability":"view","type":"function"},{"stateMutability":"payable","type":"receive"}],"evm":{"bytecode":{"linkReferences":{},"object":"60c0604052620048a580380390816200001881620004f0565b9182396101e0818381010312620004eb57620000348162000516565b90620000436020820162000516565b91604082015190606083015190608084015160a0850151916200006960c0870162000516565b60e0870151909790936001600160401b0385168503620004eb5762000092610100890162000516565b93620000a26101208a0162000516565b96620000b26101408b0162000516565b986101608b01519463ffffffff86168603620004eb576101808c01516101a08d0151909c906001600160401b038111620004eb578f8201601f828401011215620004eb578f906200011091830190602081850151918501016200052b565b6101c0820151909f906001600160401b038111620004eb57820190808301601f83011215620004eb576200014c9201906020815191016200052b565b6001600160a01b039d8e166080529c871615620004a657600080546001600160a01b03199081166001600160a01b03998a1690811790925560028054821690921790915560198054610100600160a81b031916600893841b610100600160a81b0316179055601b92909255601c92909255601a92909255919091556007805494841660a0526001600160601b03199094166001600160401b039586161760409290921b6bffffffff0000000000000000169190911790925560098054831694821694909417909355600a80549091169390921692909217905542601055600f919091558251908111620003e4576003906200024882546200058b565b601f811162000470575b506020601f8211600114620004065781929394600092620003fa575b50508160011b9160001990841b1c19161781555b8151906001600160401b038211620003e457620002a1601e546200058b565b601f811162000396575b506020601f83116001146200031c57829360009362000310575b50508260011b92600019911b1c191617601e555b6040516142a39081620005e28239608051818181610487015281816120d101526122d7015260a05181818161120601526134cc0152f35b015191503880620002c5565b601e600090815260008051602062004885833981519152929190601f198516905b8181106200037d575094846001961062000362575b50505050811b01601e55620002d9565b01519060f884600019921b161c191690553880808062000352565b9193602060018192878a0151815501950192016200033d565b601e600052620003d29060008051602062004885833981519152601f850160051c81019160208610620003d9575b601f0160051c0190620005c8565b38620002ab565b9091508190620003c4565b634e487b7160e01b600052604160045260246000fd5b0151905038806200026e565b601f198216908360005260206000209160005b81811062000457575095836001959697106200043e575b505050811b01815562000282565b015160001983861b60f8161c1916905538808062000430565b9192602060018192868b01518155019401920162000419565b6200049f90836000526020600020601f840160051c81019160208510620003d957601f0160051c0190620005c8565b3862000252565b60405162461bcd60e51b815260206004820152601860248201527f43616e6e6f7420736574206f776e657220746f207a65726f00000000000000006044820152606490fd5b600080fd5b6040519190601f01601f191682016001600160401b03811183821017620003e457604052565b51906001600160a01b0382168203620004eb57565b919291906001600160401b038111620003e45760209162000555601f8301601f19168401620004f0565b9482865282820111620004eb5760005b828110620005795750509060009184010152565b81810151868201850152830162000565565b90600182811c92168015620005bd575b6020831014620005a757565b634e487b7160e01b600052602260045260246000fd5b91607f16916200059b565b818110620005d4575050565b60008155600101620005c856fe608060405260043610156200001d575b36156200001b57600080fd5b005b60003560e01c8063089ea02e14620002ec57806309c1ba2e14620002e65780630ca7617514620002e05780631243bcc314620002da5780631aa46f5914620002d457806324b93e3e14620002ce578063277e221314620002c85780632fc2a7b914620002c2578063338cdca114620002bc578063381fc4b514620002b65780633944ea3a14620002b05780633f678e1114620002aa57806343cd3d8614620002a45780634585e33b146200029e57806348802b92146200029857806348bd6f0514620002925780634b0795a8146200028c578063688ecfd114620002865780636baa48fe14620002805780636e04ff0d146200027a5780636e74336b146200027457806379ba5097146200026e5780637b10399914620002685780638b7afe2e14620002625780638d7e6d2d146200025c5780638da5cb5b1462000256578063a30971391462000250578063a3d3c0d2146200024a578063b1e217491462000244578063bef3a2f0146200023e578063c5e146881462000238578063d2aa789f1462000232578063d5f39488146200022c578063d811fcf01462000226578063ebf14a551462000220578063f2fde38b146200021a578063f5c1279b1462000214578063f68016b7146200020e578063fd2c80ae14620002085763fffeb84e036200000f57620018d8565b620018b8565b62001892565b62001872565b62001799565b6200174d565b62001721565b620016f8565b620016d8565b6200162a565b62001575565b62001555565b62001535565b62001515565b620014ec565b6200126c565b6200122a565b620011e4565b62001100565b620010e0565b6200105e565b62001035565b62000f80565b62000ecb565b62000eab565b62000e8b565b62000da6565b62000d86565b62000c50565b62000b9b565b62000b7b565b62000a88565b62000a5f565b620009ef565b62000728565b62000708565b620006df565b62000428565b62000323565b62000303565b6000910312620002fe57565b600080fd5b34620002fe576000366003190112620002fe576020601054604051908152f35b34620002fe576000366003190112620002fe57602067ffffffffffffffff60075416604051908152f35b634e487b7160e01b600052604160045260246000fd5b67ffffffffffffffff81116200037857604052565b6200034d565b6040810190811067ffffffffffffffff8211176200037857604052565b90601f8019910116810190811067ffffffffffffffff8211176200037857604052565b67ffffffffffffffff81116200037857601f01601f191660200190565b81601f82011215620002fe57803590620003f582620003be565b926200040560405194856200039b565b82845260208383010111620002fe57816000926020809301838601378301015290565b34620002fe576060366003190112620002fe5760043567ffffffffffffffff602435818111620002fe5762000462903690600401620003db565b604435828111620002fe576200047d903690600401620003db565b6001600160a01b037f0000000000000000000000000000000000000000000000000000000000000000163303620006b557815192831162000378578391620004d284620004cc600554620007bb565b6200368f565b60209384601f8211600114620006055750807f7bab0ec163b5c132c72b8146ac4d6e067e82ed58f8b131150aa71c92589115629495600091620005f9575b508160011b916000199060031b1c1916176005555b62000530826200378d565b620005466200054160125462001d11565b601255565b60ff6200055560195460ff1690565b16620005d5576200056681620038a8565b7f600739f161e06a7cdf9a4d034647e5c55e40454d12eb86768deb9f55b1644cdb60405180620005978482620009d9565b0390a1620005ab60405192839283620039b7565b0390a27f85e1543bf2f84fe80c6badbce3648c8539ad1df4d2b3d822938ca0538be727e6600080a2005b620005e9620005e48262003884565b601f55565b620005f362003a2c565b62000566565b90508201513862000510565b600560005294601f1982167f036b6384b5eca791c62761152d0c79bb0604c104a5fb6f4eb0703f3154bb3db0966000905b828210620006985750509582916001937f7bab0ec163b5c132c72b8146ac4d6e067e82ed58f8b131150aa71c92589115629798106200067e575b5050811b0160055562000525565b84015160001960f88460031b161c19169055388062000670565b858401518955600190980197899750928301929081019062000636565b60046040517fc6829f83000000000000000000000000000000000000000000000000000000008152fd5b34620002fe576000366003190112620002fe5760206001600160a01b0360095416604051908152f35b34620002fe576000366003190112620002fe576020600454604051908152f35b34620002fe576000366003190112620002fe57602060075463ffffffff6040519160401c168152f35b634e487b7160e01b600052603260045260246000fd5b601d548110156200079f57601d6000527f6d4407e7be21f808e6509aa9fa9143369579dd7d760fe20a2c09680fc146134f0190600090565b62000751565b634e487b7160e01b600052600060045260246000fd5b90600182811c92168015620007ed575b6020831014620007d757565b634e487b7160e01b600052602260045260246000fd5b91607f1691620007cb565b60405190600082601e54916200080e83620007bb565b808352926001908181169081156200089e57506001146200083b575b5062000839925003836200039b565b565b601e600090815291507f50bb669a95c7b50b7e8a6f09454034b2b14cf2b85c730dca9a539ca82cb6e3505b848310620008825750620008399350508101602001386200082a565b81935090816020925483858a0101520191019091859262000866565b9050602092506200083994915060ff191682840152151560051b820101386200082a565b9060405191826000825492620008d884620007bb565b9081845260019485811690816000146200094d575060011462000906575b505062000839925003836200039b565b9093915060005260209081600020936000915b818310620009345750506200083993508201013880620008f6565b8554888401850152948501948794509183019162000919565b9150506200083994506020925060ff191682840152151560051b8201013880620008f6565b60005b8281106200098557506000910152565b60808101518282015260200162000975565b919082519283825260005b848110620009c4575050826000602080949584010152601f8019910116010190565b602081830181015184830182015201620009a2565b906020620009ec92818152019062000997565b90565b34620002fe576020366003190112620002fe57600435601d54811015620002fe5762000a4662000a5b91601d6000527f6d4407e7be21f808e6509aa9fa9143369579dd7d760fe20a2c09680fc146134f01620008c2565b60405191829160208352602083019062000997565b0390f35b34620002fe576000366003190112620002fe5760206001600160a01b03600b5416604051908152f35b34620002fe5760008060031936011262000b78576040519080600d5462000aaf81620007bb565b8085529160019180831690811562000b4b575060011462000aeb575b62000a5b8562000ade818703826200039b565b60405191829182620009d9565b9250600d83527fd7b6990105719101dabeb77144f2a3385c8033acd3af97e9423a695e81ad1eb55b82841062000b3257505050810160200162000ade8262000a5b62000acb565b8054602085870181019190915290930192810162000b13565b86955062000a5b9693506020925062000ade94915060ff191682840152151560051b820101929362000acb565b80fd5b34620002fe576000366003190112620002fe576020601254604051908152f35b34620002fe5760008060031936011262000b7857604051908060145462000bc281620007bb565b8085529160019180831690811562000b4b575060011462000bf05762000a5b8562000ade818703826200039b565b9250601483527fce6d7b5282bd9a3661ae061feed1dbda4e52ab073b1f9285be6e155d9c38d4ec5b82841062000c3757505050810160200162000ade8262000a5b62000acb565b8054602085870181019190915290930192810162000c18565b34620002fe57600319602036820112620002fe576004359067ffffffffffffffff8211620002fe57610140908236030112620002fe57602062000cfb60009262000cbf62000cb362000cb36001600160a01b03600b54166001600160a01b031690565b6001600160a01b031690565b906040519485809481937f24380aa800000000000000000000000000000000000000000000000000000000835230906004016004840162001a93565b03925af1801562000d805762000d1a9160009162000d4b575b50600c55565b600c546040519081527f7623383a750b4166574a1b2dff61440ed0dfa3708cbe620c58339cca510d1af990602090a1005b62000d71915060203d811162000d78575b62000d6881836200039b565b81019062001a0c565b3862000d14565b503d62000d5c565b62001a00565b34620002fe576000366003190112620002fe576020601854604051908152f35b34620002fe576020366003190112620002fe5760043567ffffffffffffffff808211620002fe5736602383011215620002fe578160040135908111620002fe5736910160240111620002fe576001600160a01b0380600054169081331415908162000e7b575b5062000e1c576200001b6200200e565b62000e3362000cb3600b546001600160a01b031690565b6040517f426fbc710000000000000000000000000000000000000000000000000000000081523360048201526001600160a01b03928316602482015291166044820152606490fd5b9050600b54163314153862000e0c565b34620002fe576000366003190112620002fe576020601754604051908152f35b34620002fe576000366003190112620002fe576020601a54604051908152f35b34620002fe5760008060031936011262000b7857604051908060155462000ef281620007bb565b8085529160019180831690811562000b4b575060011462000f205762000a5b8562000ade818703826200039b565b9250601583527f55f448fdea98c4d29eb340757ef0a66cd03dbb9538908a6a81d96026b71ec4755b82841062000f6757505050810160200162000ade8262000a5b62000acb565b8054602085870181019190915290930192810162000f48565b34620002fe5760008060031936011262000b7857604051908060035462000fa781620007bb565b8085529160019180831690811562000b4b575060011462000fd55762000a5b8562000ade818703826200039b565b9250600383527fc2575a0e9e593c00f959f8c92f12db2869c3395a3b0502d05e2516446f71f85b5b8284106200101c57505050810160200162000ade8262000a5b62000acb565b8054602085870181019190915290930192810162000ffd565b34620002fe576000366003190112620002fe5760206001600160a01b03600a5416604051908152f35b34620002fe576020366003190112620002fe5760043567ffffffffffffffff8111620002fe5762001094903690600401620003db565b506010544203428111620010da5760085410604051908152604060208201526060818151806040830152620010cc8184840162000972565b601f01601f19168101030190f35b62001c17565b34620002fe576000366003190112620002fe576020600f54604051908152f35b34620002fe5760008060031936011262000b78576001600160a01b0380600154163303620011a05781546001600160a01b03166000805473ffffffffffffffffffffffffffffffffffffffff191633179055906200117673ffffffffffffffffffffffffffffffffffffffff1960015416600155565b3391167f8be0079c531659141344cd1fd0a4f28419497f9722a3daafe3b4186f6b6457e08380a380f35b606460405162461bcd60e51b815260206004820152601660248201527f4d7573742062652070726f706f736564206f776e6572000000000000000000006044820152fd5b34620002fe576000366003190112620002fe5760206040516001600160a01b037f0000000000000000000000000000000000000000000000000000000000000000168152f35b34620002fe576000366003190112620002fe57602047604051908152f35b6bffffffffffffffffffffffff811603620002fe57565b3590620008398262001248565b34620002fe576020366003190112620002fe576004356200128d8162001248565b6009546001600160a01b031690620012ad600a546001600160a01b031690565b91604051926107658085019185831067ffffffffffffffff841117620003785785936200130b93869362003b0987396001600160a01b039182168152911660208201526bffffffffffffffffffffffff909116604082015260600190565b0360009283f0801562000d8057620013c0916200134d6020926001600160a01b031673ffffffffffffffffffffffffffffffffffffffff19600b541617600b55565b6200136862000cb362000cb36009546001600160a01b031690565b6200137f62000cb3600b546001600160a01b031690565b8560405180968195829463095ea7b360e01b8452600484019092916bffffffffffffffffffffffff6020916001600160a01b03604085019616845216910152565b03925af1801562000d8057620014b7575b50620013e962000cb3600b546001600160a01b031690565b803b15620014b3576040517f230244080000000000000000000000000000000000000000000000000000000081523060048201529082908290602490829084905af1801562000d805762001495575b507f3583c1105fd29a46b4d92ceeaff8be03cba58a11cce44a3b7da77bbc3798edc46200148f6200147562000cb3600b546001600160a01b031690565b6040516001600160a01b0390911681529081906020820190565b0390a180f35b80620014a5620014ac9262000363565b80620002f2565b3862001438565b5080fd5b620014dc9060203d8111620014e4575b620014d381836200039b565b810190620019e6565b5038620013d1565b503d620014c7565b34620002fe576000366003190112620002fe5760206001600160a01b0360005416604051908152f35b34620002fe576000366003190112620002fe576020601b54604051908152f35b34620002fe576000366003190112620002fe576020601154604051908152f35b34620002fe576000366003190112620002fe576020601354604051908152f35b34620002fe5760008060031936011262000b785760405190806005546200159c81620007bb565b8085529160019180831690811562000b4b5750600114620015ca5762000a5b8562000ade818703826200039b565b9250600583527f036b6384b5eca791c62761152d0c79bb0604c104a5fb6f4eb0703f3154bb3db05b8284106200161157505050810160200162000ade8262000a5b62000acb565b80546020858701810191909152909301928101620015f2565b34620002fe576020366003190112620002fe5760006020620016ab600435620016538162001248565b6200165d6200198d565b6001600160a01b03600954169060405194858094819363095ea7b360e01b835233600484019092916bffffffffffffffffffffffff6020916001600160a01b03604085019616845216910152565b03925af1801562000d8057620016bd57005b6200001b9060203d8111620014e457620014d381836200039b565b34620002fe576000366003190112620002fe576020600c54604051908152f35b34620002fe576000366003190112620002fe5760206001600160a01b0360025416604051908152f35b34620002fe576000366003190112620002fe5760206001600160a01b0360195460081c16604051908152f35b34620002fe576000366003190112620002fe576020601c54604051908152f35b600435906001600160a01b0382168203620002fe57565b35906001600160a01b0382168203620002fe57565b34620002fe576020366003190112620002fe576001600160a01b03620017be6200176d565b620017c86200198d565b163381146200182e578073ffffffffffffffffffffffffffffffffffffffff1960015416176001556200180762000cb36000546001600160a01b031690565b7fed8889f560326eb138920d842192f0eb3dd22b4f139c87a2c57538e05bae1278600080a3005b606460405162461bcd60e51b815260206004820152601760248201527f43616e6e6f74207472616e7366657220746f2073656c660000000000000000006044820152fd5b34620002fe576000366003190112620002fe576020601654604051908152f35b34620002fe576000366003190112620002fe57602063ffffffff600e5416604051908152f35b34620002fe576000366003190112620002fe576020600854604051908152f35b34620002fe5760008060031936011262000b78576040519080600654620018ff81620007bb565b8085529160019180831690811562000b4b57506001146200192d5762000a5b8562000ade818703826200039b565b9250600683527ff652222313e28459528d920b65115c16c04f3efc82aaedc97be59f3f377c0d3f5b8284106200197457505050810160200162000ade8262000a5b62000acb565b8054602085870181019190915290930192810162001955565b6001600160a01b03600054163303620019a257565b606460405162461bcd60e51b815260206004820152601660248201527f4f6e6c792063616c6c61626c65206279206f776e6572000000000000000000006044820152fd5b90816020910312620002fe57518015158103620002fe5790565b6040513d6000823e3d90fd5b90816020910312620002fe575190565b9035601e1982360301811215620002fe57016020813591019167ffffffffffffffff8211620002fe578136038313620002fe57565b908060209392818452848401376000828201840152601f01601f1916010190565b359063ffffffff82168203620002fe57565b359060ff82168203620002fe57565b9291602062000839926040865262001c0762001bf162001ad562001be98962001abd868062001a1c565b93906101409485604085015261018084019162001a51565b9262001ba262001b0162001aec8a8a018a62001a1c565b603f1986890381016060880152979162001a51565b62001b2362001b1360408b0162001784565b6001600160a01b03166080860152565b62001b4262001b3560608b0162001a72565b63ffffffff1660a0860152565b62001b6462001b5460808b0162001784565b6001600160a01b031660c0860152565b62001b8062001b7660a08b0162001a84565b60ff1660e0860152565b62001b8f60c08a018a62001a1c565b8583038801610100968701529062001a51565b938c62001bd962001bcf62001bbb60e08c018c62001a1c565b610120999186868403018b87015262001a51565b948a018a62001a1c565b9390928286030191015262001a51565b93016200125f565b6bffffffffffffffffffffffff16610160880152565b9401906001600160a01b03169052565b634e487b7160e01b600052601160045260246000fd5b601f19810191908211620010da57565b6010544203428111620010da576008541090606090565b1562001c5c57565b606460405162461bcd60e51b815260206004820152601560248201527f55706b656570206e6f74207265676973746572656400000000000000000000006044820152fd5b604051906020820182811067ffffffffffffffff821117620003785760405260008252565b1562001ccd57565b606460405162461bcd60e51b815260206004820152601560248201527f54696d6520696e74657276616c206e6f74206d657400000000000000000000006044820152fd5b9060018201809211620010da57565b9060208201809211620010da57565b91908201809211620010da57565b6040519060e0820182811067ffffffffffffffff8211176200037857604052606060c08360008152600060208201526000604082015282808201528260808201528260a08201520152565b601d549067ffffffffffffffff8211620003785760405191602062001db3818360051b01856200039b565b81845280840190601d6000527f6d4407e7be21f808e6509aa9fa9143369579dd7d760fe20a2c09680fc146134f6000925b84841062001df3575050505050565b600183819262001e0385620008c2565b81520192019301929062001de4565b9062001e4260809367ffffffffffffffff63ffffffff939897969816845260a0602085015260a084019062000997565b95600160408401521660608201520152565b60009060033d1162001e6257565b905060046000803e60005160e01c90565b600060443d10620009ec57604051600319913d83016004833e815167ffffffffffffffff918282113d60248401111762001ed75781840194855193841162001edf573d8501016020848701011162001ed75750620009ec929101602001906200039b565b949350505050565b50949350505050565b3d1562001f18573d9062001efc82620003be565b9162001f0c60405193846200039b565b82523d6000602084013e565b606090565b9067ffffffffffffffff909493929416815260209360a08583015260006003549562001f4987620007bb565b908160a0860152600197888116908160001462001fe4575060011462001f85575b5050604083019590955263ffffffff16606082015260800152565b600360009081529250877fc2575a0e9e593c00f959f8c92f12db2869c3395a3b0502d05e2516446f71f85b5b83851062001fce5750505050820160c0018163ffffffff62001f6a565b805487860160c001529382019389910162001fb1565b60ff191660c08781019190915292151560051b8601909201925083915063ffffffff905062001f6a565b6200201d600c54151562001c54565b6200202762001ca0565b506200203d6200203662001c3d565b5062001cc5565b6200204742601055565b6200205d6200205860115462001d11565b601155565b601c54601d5410156200221c57620020806200207b60165462001d11565b601655565b60075467ffffffffffffffff1660206200209f600e5463ffffffff1690565b600f5492620020c3604051948593849363230e93b160e11b85526004850162001f1d565b038160006001600160a01b037f0000000000000000000000000000000000000000000000000000000000000000165af160009181620021f7575b50620021b0575060016200211062001e54565b6308c379a01462002157575b6200212357565b7f9c4bfa18304482256875c29fabb1a44a5ecd325f214ea17bab8f31e869faf4c86200215262000ade62001ee8565b0390a1565b6200216162001e73565b806200216f575b506200211c565b90507f2ba61e3733e7ac99181c22307780f651ec8fd92fe661a84dfbe711710b2dc36c620021a660009260405191829182620009d9565b0390a13862002168565b620021ba81601355565b620021d0620021cb60175462001d11565b601755565b7f1131472297a800fee664d1d89cfa8f7676ff07189ecc53f80bbb5f4969099db8600080a2565b6200221491925060203d811162000d785762000d6881836200039b565b9038620020fd565b6200222f600160ff196019541617601955565b6200226d6200223d62001d3d565b620022526200224b620007f8565b826200285f565b620022676200226062001d88565b82620028a1565b62002622565b6200227e6200207b60165462001d11565b60206200229460075467ffffffffffffffff1690565b91620022a5600e5463ffffffff1690565b92620022c9600f54604051958694859463230e93b160e11b86526004860162001e12565b038160006001600160a01b037f0000000000000000000000000000000000000000000000000000000000000000165af16000918162002409575b50620023c3575060016200231662001e54565b6308c379a0146200236a575b62002332575b6200083962003492565b7f9c4bfa18304482256875c29fabb1a44a5ecd325f214ea17bab8f31e869faf4c86200236162000ade62001ee8565b0390a162002328565b6200237462001e73565b8062002382575b5062002322565b90507f2ba61e3733e7ac99181c22307780f651ec8fd92fe661a84dfbe711710b2dc36c620023b960009260405191829182620009d9565b0390a1386200237b565b620023cd81601355565b620023de620021cb60175462001d11565b7f1131472297a800fee664d1d89cfa8f7676ff07189ecc53f80bbb5f4969099db8600080a262002328565b6200242691925060203d811162000d785762000d6881836200039b565b903862002303565b604051906200243d826200037e565b600c82527f636f64654c6f636174696f6e00000000000000000000000000000000000000006020830152565b634e487b7160e01b600052602160045260246000fd5b600311156200248a57565b62002469565b604051906200249f826200037e565b600882527f6c616e67756167650000000000000000000000000000000000000000000000006020830152565b600111156200248a57565b60405190620024e5826200037e565b600682527f736f7572636500000000000000000000000000000000000000000000000000006020830152565b6040519062002520826200037e565b600482527f61726773000000000000000000000000000000000000000000000000000000006020830152565b6000198114620010da5760010190565b80518210156200079f5760209160051b010190565b6040519062002580826200037e565b600f82527f736563726574734c6f636174696f6e00000000000000000000000000000000006020830152565b60405190620025bb826200037e565b600782527f73656372657473000000000000000000000000000000000000000000000000006020830152565b60405190620025f6826200037e565b600982527f62797465734172677300000000000000000000000000000000000000000000006020830152565b6200262c620028f5565b90620026426200263b6200242e565b83620030ea565b62002665815162002653816200247f565b6200265e816200247f565b83620029a5565b620026736200263b62002490565b6200269260408201516200268781620024cb565b6200265e81620024cb565b620026a06200263b620024d6565b620026b0606082015183620030ea565b60a08101805151620027f6575b50608081019081515162002748575b60c0915001805151620026e0575b50515190565b91620026ef6200263b620025e7565b620026fa8262003182565b60005b83518051821015620027325790620027266200271e826200272c946200255c565b51856200301b565b6200254c565b620026fd565b5050915062002741816200321a565b38620026da565b60208101805162002759816200247f565b62002764816200247f565b15620027cc5760c092620027a9620027c6926200278b6200278462002571565b88620030ea565b5162002797816200247f565b620027a2816200247f565b86620029a5565b620027be620027b7620025ac565b86620030ea565b51846200301b565b620026cc565b60046040517fa80d31f7000000000000000000000000000000000000000000000000000000008152fd5b926200280c6200280562002511565b84620030ea565b620028178362003182565b60005b84518051821015620028495790620027266200283b8262002843946200255c565b5186620030ea565b6200281a565b5050925062002858826200321a565b38620026bd565b81511562002877576000808252604082015260600152565b60046040517f22ce3edd000000000000000000000000000000000000000000000000000000008152fd5b815115620028af5760a00152565b60046040517ffe936cb7000000000000000000000000000000000000000000000000000000008152fd5b60405190620028e8826200037e565b6000602083606081520152565b60405162002903816200037e565b6200290d620028d9565b808252602082016000815262002922620028d9565b506101006020830152604051809252600082526101208201918210620002fe576000916040525290565b9062002957620028d9565b50601f81168062002988575b5080602083015260405190818352600082528101602001908110620002fe5760405290565b60200360208111620010da578101809111620010da573862002963565b90815191620029b3620028d9565b508251516001810190818111620010da57602085015181101562002a14575b60c2602062000839965192830101538051821162002a0b575b50506040519160208301526020825262002a05826200037e565b6200301b565b523880620029eb565b8160011b9482860460021483151715620010da5760208162002a4c620008399862002a4460c2955191846200294c565b508262002f4c565b5096505050620029d2565b908160011b9180830460021490151715620010da57565b62002a78620028d9565b508051516001810190818111620010da57602083015181101562002ab4575b605b6020845192830101538051821162002ab057505090565b5290565b8160011b82810460021483151715620010da5762002ae29062002ada855191866200294c565b508462002f4c565b5062002a97565b62002af3620028d9565b508051516001810190818111620010da57602083015181101562002b2b575b605a6020845192830101538051821162002ab057505090565b8160011b82810460021483151715620010da5762002b519062002ada855191866200294c565b5062002b12565b62002b62620028d9565b508051516001810190818111620010da57602083015181101562002b9a575b60596020845192830101538051821162002ab057505090565b8160011b82810460021483151715620010da5762002bc09062002ada855191866200294c565b5062002b81565b62002bd1620028d9565b508051516001810190818111620010da57602083015181101562002c09575b60586020845192830101538051821162002ab057505090565b8160011b82810460021483151715620010da5762002c2f9062002ada855191866200294c565b5062002bf0565b62002c40620028d9565b508051516001810190818111620010da57602083015181101562002c78575b607b6020845192830101538051821162002ab057505090565b8160011b82810460021483151715620010da5762002c9e9062002ada855191866200294c565b5062002c5f565b62002caf620028d9565b508051516001810190818111620010da57602083015181101562002ce7575b607a6020845192830101538051821162002ab057505090565b8160011b82810460021483151715620010da5762002d0d9062002ada855191866200294c565b5062002cce565b62002d1e620028d9565b508051516001810190818111620010da57602083015181101562002d56575b60796020845192830101538051821162002ab057505090565b8160011b82810460021483151715620010da5762002d7c9062002ada855191866200294c565b5062002d3d565b62002d8d620028d9565b508051516001810190818111620010da57602083015181101562002dc5575b60786020845192830101538051821162002ab057505090565b8160011b82810460021483151715620010da5762002deb9062002ada855191866200294c565b5062002dac565b9062002dfd620028d9565b508151516001810191828211620010da57602084015182101562002e33575b6020845192830101538051821162002ab057505090565b8260011b83810460021484151715620010da5762002e619062002e59865191876200294c565b508562002f4c565b5062002e1c565b9062002e77825191836200294c565b5062002e82620028d9565b5080519062002e90620028d9565b5062002ea0815183111562003013565b8251519262002eb0838562001d2f565b91602092828480940151821162002f30575b518381519782010196821162002f27575b505001915b8181101562002efa5760001991036101000a0190811990511690825116179052565b919262002f1a62002f1362002f21928651815262001d20565b9462001d20565b9262001c2d565b62002ed8565b52388062002ed3565b62002f4662002f3f8362002a57565b8262002e68565b62002ec2565b9062002f57620028d9565b50805162002f64620028d9565b5062002f74825182111562003013565b8251519162002f84828462001d2f565b602091829182870151811162002ff7575b86518381519782010196821162002fee575b505001915b8181101562002fcf5760001991036101000a019081199051169082511617905290565b919262002f1a62002f1362002fe8928651815262001d20565b62002fac565b52388062002fa7565b6200300d620030068262002a57565b8862002e68565b62002f95565b15620002fe57565b81516200305892919067ffffffffffffffff811690601782116200305b576200304f9150604060ff84519216179062002df2565b505b5162002f4c565b50565b5060ff811162003086576200307f9062003076835162002bc7565b5082516200340b565b5062003051565b61ffff8111620030aa576200307f90620030a1835162002b58565b5082516200339b565b63ffffffff8111620030d0576200307f90620030c7835162002ae9565b50825162003329565b6200307f90620030e1835162002a6e565b508251620032b3565b81516200305892919067ffffffffffffffff811690601782116200311e576200304f9150606060ff84519216179062002df2565b5060ff811162003139576200307f9062003076835162002d83565b61ffff811162003154576200307f90620030a1835162002d14565b63ffffffff811162003171576200307f90620030c7835162002ca5565b6200307f90620030e1835162002c36565b8051906200318f620028d9565b508151516001810190818111620010da576020840151811015620031e2575b609f6020809551928301015380518211620031d9575b50500180519060018201809211620010da5752565b523880620031c4565b8160011b9382850460021483151715620010da576020816200320f829762002a44609f955191846200294c565b5095505050620031ae565b80519062003227620028d9565b508151516001810190818111620010da5760208401518110156200327b575b60ff602080955192830101538051821162003272575b5050018051600019810191908211620010da5752565b5238806200325c565b8160011b9382850460021483151715620010da57602081620032a8829762002a4460ff955191846200294c565b509550505062003246565b90620032be620028d9565b50815151806008019182600811620010da576020840151831162003304575b60088451928301019067ffffffffffffffff198251161790528051821162002ab057505090565b8260011b83810460021484151715620010da5762003323908562002e68565b620032dd565b9062003334620028d9565b50815151806004019182600411620010da576020840151831162003376575b60048451928301019063ffffffff198251161790528051821162002ab057505090565b8260011b83810460021484151715620010da5762003395908562002e68565b62003353565b90620033a6620028d9565b50815151806002019182600211620010da5760208401518311620033e6575b60028451928301019061ffff198251161790528051821162002ab057505090565b8260011b83810460021484151715620010da5762003405908562002e68565b620033c5565b9062003416620028d9565b50815151806001019182600111620010da576020840151831162003455575b60018451928301019060ff198251161790528051821162002ab057505090565b8260011b83810460021484151715620010da5762003474908562002e68565b62003435565b90816020910312620002fe5751620009ec8162001248565b600c546040517f1e010439000000000000000000000000000000000000000000000000000000008152600481018290526001600160a01b037f00000000000000000000000000000000000000000000000000000000000000001691602082602481865afa91821562000d80576000926200363f575b506002546001600160a01b031690833b15620002fe576040517f744bfe6100000000000000000000000000000000000000000000000000000000815260048101919091526001600160a01b0391909116602482015260008160448183875af1801562000d805762003628575b50600c5491803b15620002fe576040517fc804802200000000000000000000000000000000000000000000000000000000815260048101939093526000908390602490829084905af190811562000d80577f2a98573784ed2376aeff51a1ae44a63f3afbbef86ecf320075b3b4f7834854db92620021529262003611575b506040516bffffffffffffffffffffffff90911681529081906020820190565b80620014a5620036219262000363565b38620035f1565b80620014a5620036389262000363565b3862003573565b6200366691925060203d81116200366e575b6200365d81836200039b565b8101906200347a565b903862003507565b503d62003651565b81811062003682575050565b6000815560010162003676565b90601f82116200369d575050565b620008399160056000527f036b6384b5eca791c62761152d0c79bb0604c104a5fb6f4eb0703f3154bb3db0906020601f840160051c83019310620036ea575b601f0160051c019062003676565b9091508190620036dc565b90601f821162003703575050565b620008399160066000527ff652222313e28459528d920b65115c16c04f3efc82aaedc97be59f3f377c0d3f906020601f840160051c83019310620036ea57601f0160051c019062003676565b9190601f81116200375f57505050565b62000839926000526020600020906020601f840160051c83019310620036ea57601f0160051c019062003676565b90815167ffffffffffffffff81116200037857620037b881620037b2600654620007bb565b620036f5565b602080601f8311600114620037f75750819293600092620037eb575b50508160011b916000199060031b1c191617600655565b015190503880620037d4565b90601f198316946200382b60066000527ff652222313e28459528d920b65115c16c04f3efc82aaedc97be59f3f377c0d3f90565b926000905b8782106200386b57505083600195961062003851575b505050811b01600655565b015160001960f88460031b161c1916905538808062003846565b8060018596829496860151815501950193019062003830565b60208151910151906020811062003899575090565b6000199060200360031b1b1690565b601d54680100000000000000008110156200037857620038d0600191828101601d5562000767565b929092620039b15780519067ffffffffffffffff821162000378576200390382620038fc8654620007bb565b866200374f565b60209081601f841160011462003942575092829391839260009462003936575b50501b916000199060031b1c1916179055565b01519250388062003923565b919083601f1981166200395a88600052602060002090565b946000905b888383106200399657505050106200397c575b505050811b019055565b015160001960f88460031b161c1916905538808062003972565b8587015188559096019594850194879350908101906200395f565b620007a5565b9091620039d1620009ec9360408452604084019062000997565b91602081840391015262000997565b15620039e857565b606460405162461bcd60e51b815260206004820152601b60248201527f4572726f20616f207061676172206120696e64656e697a6163616f00000000006044820152fd5b601f54601b54111562003a765762000839600080808062003a6162000cb362000cb36019546001600160a01b039060081c1690565b47905af162003a6f62001ee8565b50620039e0565b60008080806001600160a01b036002541647905af162003a9562001ee8565b501562003a9e57565b608460405162461bcd60e51b815260206004820152602d60248201527f4572726f20616f207265746f726e6172206f732066756e646f7320706172612060448201527f6120696e73746974756963616f000000000000000000000000000000000000006064820152fdfe60c0346100ba57601f61076538819003918201601f19168301916001600160401b038311848410176100bf578084926060946040528339810103126100ba57610047816100d5565b906040610056602083016100d5565b9101516001600160601b03811692908390036100ba5760805260a052600180546001600160601b03191691909117905560405161067b90816100ea82396080518181816077015281816101c701526103a3015260a05181818160be015261036a0152f35b600080fd5b634e487b7160e01b600052604160045260246000fd5b51906001600160a01b03821682036100ba5756fe60806040818152600436101561001457600080fd5b600091823560e01c90816301619d3d1461022d57508063230244081461014a57806324380aa8146100e2578063442b12781461009f57637d253aff1461005957600080fd5b3461009b578160031936011261009b57602090516001600160a01b037f0000000000000000000000000000000000000000000000000000000000000000168152f35b5080fd5b503461009b578160031936011261009b57602090516001600160a01b037f0000000000000000000000000000000000000000000000000000000000000000168152f35b503461009b576003198181360112610142576004359067ffffffffffffffff82116101465761014090823603011261014257602435926001600160a01b038416840361013f575060209261013891600401610313565b9051908152f35b80fd5b8280fd5b8380fd5b503461009b57602036600319011261009b57600435906001600160a01b03918281168091036101465760209060646bffffffffffffffffffffffff600154169186855196879485937f23b872dd000000000000000000000000000000000000000000000000000000008552600485015230602485015260448401527f0000000000000000000000000000000000000000000000000000000000000000165af190811561022457506101f9575080f35b6102199060203d811161021d575b6102118183610270565b8101906102a8565b5080f35b503d610207565b513d84823e3d90fd5b83903461009b578160031936011261009b576020906bffffffffffffffffffffffff600154168152f35b35906001600160a01b038216820361026b57565b600080fd5b90601f8019910116810190811067ffffffffffffffff82111761029257604052565b634e487b7160e01b600052604160045260246000fd5b9081602091031261026b5751801515810361026b5790565b9035601e198236030181121561026b57016020813591019167ffffffffffffffff821161026b57813603831361026b57565b908060209392818452848401376000828201840152601f01601f1916010190565b9190916000926101208201356bffffffffffffffffffffffff8116809103610641576040908151927f095ea7b30000000000000000000000000000000000000000000000000000000084526001600160a01b0391827f0000000000000000000000000000000000000000000000000000000000000000169586600487015281602487015260209586816044818d897f0000000000000000000000000000000000000000000000000000000000000000165af180156106375761061a575b508451967f3f678e1100000000000000000000000000000000000000000000000000000000885286600489015261041d61040a83806102c0565b61014060248c01526101648b01916102f2565b8a61044161042d8a8601866102c0565b6023198d8603810160448f015294916102f2565b948761044e8a8701610257565b1660648c0152606085013563ffffffff81168091036101425760848c01528761047960808701610257565b1660a48c015260a08501359060ff8216809203610142576105018c9687956104f16104e58f9b6104c7908a9860c48a01526104b760c08701876102c0565b90868b84030160e48c01526102f2565b6104d460e08601866102c0565b90858a8403016101048b01526102f2565b926101008101906102c0565b91868403016101248701526102f2565b9061014483015203925af19485156106105787956105dd575b508415610580571685528482528420908154916801000000000000000083101561056c57600183018082558310156105585794839495815220015590565b602486634e487b7160e01b81526032600452fd5b602486634e487b7160e01b81526041600452fd5b6064848451907f08c379a00000000000000000000000000000000000000000000000000000000082526004820152601560248201527f6175746f2d617070726f76652064697361626c656400000000000000000000006044820152fd5b9094508381813d8311610609575b6105f58183610270565b810103126106055751933861051a565b8680fd5b503d6105eb565b83513d89823e3d90fd5b61063090873d891161021d576102118183610270565b50386103d0565b86513d8c823e3d90fd5b8480fdfea2646970667358221220135f5abeffc2aad8b9ce604c211350502f3bc6c96f518a5636136bb8bc2bb98864736f6c63430008130033a2646970667358221220a8b89df1e990e887392f72ef0ddb50226ac6fb8a81098ecc09e07e43ba353fb564736f6c6343000813003350bb669a95c7b50b7e8a6f09454034b2b14cf2b85c730dca9a539ca82cb6e350","opcodes":"PUSH1 0xC0 PUSH1 0x40 MSTORE PUSH3 0x48A5 DUP1 CODESIZE SUB SWAP1 DUP2 PUSH3 0x18 DUP2 PUSH3 0x4F0 JUMP JUMPDEST SWAP2 DUP3 CODECOPY PUSH2 0x1E0 DUP2 DUP4 DUP2 ADD SUB SLT PUSH3 0x4EB JUMPI PUSH3 0x34 DUP2 PUSH3 0x516 JUMP JUMPDEST SWAP1 PUSH3 0x43 PUSH1 0x20 DUP3 ADD PUSH3 0x516 JUMP JUMPDEST SWAP2 PUSH1 0x40 DUP3 ADD MLOAD SWAP1 PUSH1 0x60 DUP4 ADD MLOAD SWAP1 PUSH1 0x80 DUP5 ADD MLOAD PUSH1 0xA0 DUP6 ADD MLOAD SWAP2 PUSH3 0x69 PUSH1 0xC0 DUP8 ADD PUSH3 0x516 JUMP JUMPDEST PUSH1 0xE0 DUP8 ADD MLOAD SWAP1 SWAP8 SWAP1 SWAP4 PUSH1 0x1 PUSH1 0x1 PUSH1 0x40 SHL SUB DUP6 AND DUP6 SUB PUSH3 0x4EB JUMPI PUSH3 0x92 PUSH2 0x100 DUP10 ADD PUSH3 0x516 JUMP JUMPDEST SWAP4 PUSH3 0xA2 PUSH2 0x120 DUP11 ADD PUSH3 0x516 JUMP JUMPDEST SWAP7 PUSH3 0xB2 PUSH2 0x140 DUP12 ADD PUSH3 0x516 JUMP JUMPDEST SWAP9 PUSH2 0x160 DUP12 ADD MLOAD SWAP5 PUSH4 0xFFFFFFFF DUP7 AND DUP7 SUB PUSH3 0x4EB JUMPI PUSH2 0x180 DUP13 ADD MLOAD PUSH2 0x1A0 DUP14 ADD MLOAD SWAP1 SWAP13 SWAP1 PUSH1 0x1 PUSH1 0x1 PUSH1 0x40 SHL SUB DUP2 GT PUSH3 0x4EB JUMPI DUP16 DUP3 ADD PUSH1 0x1F DUP3 DUP5 ADD ADD SLT ISZERO PUSH3 0x4EB JUMPI DUP16 SWAP1 PUSH3 0x110 SWAP2 DUP4 ADD SWAP1 PUSH1 0x20 DUP2 DUP6 ADD MLOAD SWAP2 DUP6 ADD ADD PUSH3 0x52B JUMP JUMPDEST PUSH2 0x1C0 DUP3 ADD MLOAD SWAP1 SWAP16 SWAP1 PUSH1 0x1 PUSH1 0x1 PUSH1 0x40 SHL SUB DUP2 GT PUSH3 0x4EB JUMPI DUP3 ADD SWAP1 DUP1 DUP4 ADD PUSH1 0x1F DUP4 ADD SLT ISZERO PUSH3 0x4EB JUMPI PUSH3 0x14C SWAP3 ADD SWAP1 PUSH1 0x20 DUP2 MLOAD SWAP2 ADD PUSH3 0x52B JUMP JUMPDEST PUSH1 0x1 PUSH1 0x1 PUSH1 0xA0 SHL SUB SWAP14 DUP15 AND PUSH1 0x80 MSTORE SWAP13 DUP8 AND ISZERO PUSH3 0x4A6 JUMPI PUSH1 0x0 DUP1 SLOAD PUSH1 0x1 PUSH1 0x1 PUSH1 0xA0 SHL SUB NOT SWAP1 DUP2 AND PUSH1 0x1 PUSH1 0x1 PUSH1 0xA0 SHL SUB SWAP10 DUP11 AND SWAP1 DUP2 OR SWAP1 SWAP3 SSTORE PUSH1 0x2 DUP1 SLOAD DUP3 AND SWAP1 SWAP3 OR SWAP1 SWAP2 SSTORE PUSH1 0x19 DUP1 SLOAD PUSH2 0x100 PUSH1 0x1 PUSH1 0xA8 SHL SUB NOT AND PUSH1 0x8 SWAP4 DUP5 SHL PUSH2 0x100 PUSH1 0x1 PUSH1 0xA8 SHL SUB AND OR SWAP1 SSTORE PUSH1 0x1B SWAP3 SWAP1 SWAP3 SSTORE PUSH1 0x1C SWAP3 SWAP1 SWAP3 SSTORE PUSH1 0x1A SWAP3 SWAP1 SWAP3 SSTORE SWAP2 SWAP1 SWAP2 SSTORE PUSH1 0x7 DUP1 SLOAD SWAP5 DUP5 AND PUSH1 0xA0 MSTORE PUSH1 0x1 PUSH1 0x1 PUSH1 0x60 SHL SUB NOT SWAP1 SWAP5 AND PUSH1 0x1 PUSH1 0x1 PUSH1 0x40 SHL SUB SWAP6 DUP7 AND OR PUSH1 0x40 SWAP3 SWAP1 SWAP3 SHL PUSH12 0xFFFFFFFF0000000000000000 AND SWAP2 SWAP1 SWAP2 OR SWAP1 SWAP3 SSTORE PUSH1 0x9 DUP1 SLOAD DUP4 AND SWAP5 DUP3 AND SWAP5 SWAP1 SWAP5 OR SWAP1 SWAP4 SSTORE PUSH1 0xA DUP1 SLOAD SWAP1 SWAP2 AND SWAP4 SWAP1 SWAP3 AND SWAP3 SWAP1 SWAP3 OR SWAP1 SSTORE TIMESTAMP PUSH1 0x10 SSTORE PUSH1 0xF SWAP2 SWAP1 SWAP2 SSTORE DUP3 MLOAD SWAP1 DUP2 GT PUSH3 0x3E4 JUMPI PUSH1 0x3 SWAP1 PUSH3 0x248 DUP3 SLOAD PUSH3 0x58B JUMP JUMPDEST PUSH1 0x1F DUP2 GT PUSH3 0x470 JUMPI JUMPDEST POP PUSH1 0x20 PUSH1 0x1F DUP3 GT PUSH1 0x1 EQ PUSH3 0x406 JUMPI DUP2 SWAP3 SWAP4 SWAP5 PUSH1 0x0 SWAP3 PUSH3 0x3FA JUMPI JUMPDEST POP POP DUP2 PUSH1 0x1 SHL SWAP2 PUSH1 0x0 NOT SWAP1 DUP5 SHL SHR NOT AND OR DUP2 SSTORE JUMPDEST DUP2 MLOAD SWAP1 PUSH1 0x1 PUSH1 0x1 PUSH1 0x40 SHL SUB DUP3 GT PUSH3 0x3E4 JUMPI PUSH3 0x2A1 PUSH1 0x1E SLOAD PUSH3 0x58B JUMP JUMPDEST PUSH1 0x1F DUP2 GT PUSH3 0x396 JUMPI JUMPDEST POP PUSH1 0x20 PUSH1 0x1F DUP4 GT PUSH1 0x1 EQ PUSH3 0x31C JUMPI DUP3 SWAP4 PUSH1 0x0 SWAP4 PUSH3 0x310 JUMPI JUMPDEST POP POP DUP3 PUSH1 0x1 SHL SWAP3 PUSH1 0x0 NOT SWAP2 SHL SHR NOT AND OR PUSH1 0x1E SSTORE JUMPDEST PUSH1 0x40 MLOAD PUSH2 0x42A3 SWAP1 DUP2 PUSH3 0x5E2 DUP3 CODECOPY PUSH1 0x80 MLOAD DUP2 DUP2 DUP2 PUSH2 0x487 ADD MSTORE DUP2 DUP2 PUSH2 0x20D1 ADD MSTORE PUSH2 0x22D7 ADD MSTORE PUSH1 0xA0 MLOAD DUP2 DUP2 DUP2 PUSH2 0x1206 ADD MSTORE PUSH2 0x34CC ADD MSTORE RETURN JUMPDEST ADD MLOAD SWAP2 POP CODESIZE DUP1 PUSH3 0x2C5 JUMP JUMPDEST PUSH1 0x1E PUSH1 0x0 SWAP1 DUP2 MSTORE PUSH1 0x0 DUP1 MLOAD PUSH1 0x20 PUSH3 0x4885 DUP4 CODECOPY DUP2 MLOAD SWAP2 MSTORE SWAP3 SWAP2 SWAP1 PUSH1 0x1F NOT DUP6 AND SWAP1 JUMPDEST DUP2 DUP2 LT PUSH3 0x37D JUMPI POP SWAP5 DUP5 PUSH1 0x1 SWAP7 LT PUSH3 0x362 JUMPI JUMPDEST POP POP POP POP DUP2 SHL ADD PUSH1 0x1E SSTORE PUSH3 0x2D9 JUMP JUMPDEST ADD MLOAD SWAP1 PUSH1 0xF8 DUP5 PUSH1 0x0 NOT SWAP3 SHL AND SHR NOT AND SWAP1 SSTORE CODESIZE DUP1 DUP1 DUP1 PUSH3 0x352 JUMP JUMPDEST SWAP2 SWAP4 PUSH1 0x20 PUSH1 0x1 DUP2 SWAP3 DUP8 DUP11 ADD MLOAD DUP2 SSTORE ADD SWAP6 ADD SWAP3 ADD PUSH3 0x33D JUMP JUMPDEST PUSH1 0x1E PUSH1 0x0 MSTORE PUSH3 0x3D2 SWAP1 PUSH1 0x0 DUP1 MLOAD PUSH1 0x20 PUSH3 0x4885 DUP4 CODECOPY DUP2 MLOAD SWAP2 MSTORE PUSH1 0x1F DUP6 ADD PUSH1 0x5 SHR DUP2 ADD SWAP2 PUSH1 0x20 DUP7 LT PUSH3 0x3D9 JUMPI JUMPDEST PUSH1 0x1F ADD PUSH1 0x5 SHR ADD SWAP1 PUSH3 0x5C8 JUMP JUMPDEST CODESIZE PUSH3 0x2AB JUMP JUMPDEST SWAP1 SWAP2 POP DUP2 SWAP1 PUSH3 0x3C4 JUMP JUMPDEST PUSH4 0x4E487B71 PUSH1 0xE0 SHL PUSH1 0x0 MSTORE PUSH1 0x41 PUSH1 0x4 MSTORE PUSH1 0x24 PUSH1 0x0 REVERT JUMPDEST ADD MLOAD SWAP1 POP CODESIZE DUP1 PUSH3 0x26E JUMP JUMPDEST PUSH1 0x1F NOT DUP3 AND SWAP1 DUP4 PUSH1 0x0 MSTORE PUSH1 0x20 PUSH1 0x0 KECCAK256 SWAP2 PUSH1 0x0 JUMPDEST DUP2 DUP2 LT PUSH3 0x457 JUMPI POP SWAP6 DUP4 PUSH1 0x1 SWAP6 SWAP7 SWAP8 LT PUSH3 0x43E JUMPI JUMPDEST POP POP POP DUP2 SHL ADD DUP2 SSTORE PUSH3 0x282 JUMP JUMPDEST ADD MLOAD PUSH1 0x0 NOT DUP4 DUP7 SHL PUSH1 0xF8 AND SHR NOT AND SWAP1 SSTORE CODESIZE DUP1 DUP1 PUSH3 0x430 JUMP JUMPDEST SWAP2 SWAP3 PUSH1 0x20 PUSH1 0x1 DUP2 SWAP3 DUP7 DUP12 ADD MLOAD DUP2 SSTORE ADD SWAP5 ADD SWAP3 ADD PUSH3 0x419 JUMP JUMPDEST PUSH3 0x49F SWAP1 DUP4 PUSH1 0x0 MSTORE PUSH1 0x20 PUSH1 0x0 KECCAK256 PUSH1 0x1F DUP5 ADD PUSH1 0x5 SHR DUP2 ADD SWAP2 PUSH1 0x20 DUP6 LT PUSH3 0x3D9 JUMPI PUSH1 0x1F ADD PUSH1 0x5 SHR ADD SWAP1 PUSH3 0x5C8 JUMP JUMPDEST CODESIZE PUSH3 0x252 JUMP JUMPDEST PUSH1 0x40 MLOAD PUSH3 0x461BCD PUSH1 0xE5 SHL DUP2 MSTORE PUSH1 0x20 PUSH1 0x4 DUP3 ADD MSTORE PUSH1 0x18 PUSH1 0x24 DUP3 ADD MSTORE PUSH32 0x43616E6E6F7420736574206F776E657220746F207A65726F0000000000000000 PUSH1 0x44 DUP3 ADD MSTORE PUSH1 0x64 SWAP1 REVERT JUMPDEST PUSH1 0x0 DUP1 REVERT JUMPDEST PUSH1 0x40 MLOAD SWAP2 SWAP1 PUSH1 0x1F ADD PUSH1 0x1F NOT AND DUP3 ADD PUSH1 0x1 PUSH1 0x1 PUSH1 0x40 SHL SUB DUP2 GT DUP4 DUP3 LT OR PUSH3 0x3E4 JUMPI PUSH1 0x40 MSTORE JUMP JUMPDEST MLOAD SWAP1 PUSH1 0x1 PUSH1 0x1 PUSH1 0xA0 SHL SUB DUP3 AND DUP3 SUB PUSH3 0x4EB JUMPI JUMP JUMPDEST SWAP2 SWAP3 SWAP2 SWAP1 PUSH1 0x1 PUSH1 0x1 PUSH1 0x40 SHL SUB DUP2 GT PUSH3 0x3E4 JUMPI PUSH1 0x20 SWAP2 PUSH3 0x555 PUSH1 0x1F DUP4 ADD PUSH1 0x1F NOT AND DUP5 ADD PUSH3 0x4F0 JUMP JUMPDEST SWAP5 DUP3 DUP7 MSTORE DUP3 DUP3 ADD GT PUSH3 0x4EB JUMPI PUSH1 0x0 JUMPDEST DUP3 DUP2 LT PUSH3 0x579 JUMPI POP POP SWAP1 PUSH1 0x0 SWAP2 DUP5 ADD ADD MSTORE JUMP JUMPDEST DUP2 DUP2 ADD MLOAD DUP7 DUP3 ADD DUP6 ADD MSTORE DUP4 ADD PUSH3 0x565 JUMP JUMPDEST SWAP1 PUSH1 0x1 DUP3 DUP2 SHR SWAP3 AND DUP1 ISZERO PUSH3 0x5BD JUMPI JUMPDEST PUSH1 0x20 DUP4 LT EQ PUSH3 0x5A7 JUMPI JUMP JUMPDEST PUSH4 0x4E487B71 PUSH1 0xE0 SHL PUSH1 0x0 MSTORE PUSH1 0x22 PUSH1 0x4 MSTORE PUSH1 0x24 PUSH1 0x0 REVERT JUMPDEST SWAP2 PUSH1 0x7F AND SWAP2 PUSH3 0x59B JUMP JUMPDEST DUP2 DUP2 LT PUSH3 0x5D4 JUMPI POP POP JUMP JUMPDEST PUSH1 0x0 DUP2 SSTORE PUSH1 0x1 ADD PUSH3 0x5C8 JUMP INVALID PUSH1 0x80 PUSH1 0x40 MSTORE PUSH1 0x4 CALLDATASIZE LT ISZERO PUSH3 0x1D JUMPI JUMPDEST CALLDATASIZE ISZERO PUSH3 0x1B JUMPI PUSH1 0x0 DUP1 REVERT JUMPDEST STOP JUMPDEST PUSH1 0x0 CALLDATALOAD PUSH1 0xE0 SHR DUP1 PUSH4 0x89EA02E EQ PUSH3 0x2EC JUMPI DUP1 PUSH4 0x9C1BA2E EQ PUSH3 0x2E6 JUMPI DUP1 PUSH4 0xCA76175 EQ PUSH3 0x2E0 JUMPI DUP1 PUSH4 0x1243BCC3 EQ PUSH3 0x2DA JUMPI DUP1 PUSH4 0x1AA46F59 EQ PUSH3 0x2D4 JUMPI DUP1 PUSH4 0x24B93E3E EQ PUSH3 0x2CE JUMPI DUP1 PUSH4 0x277E2213 EQ PUSH3 0x2C8 JUMPI DUP1 PUSH4 0x2FC2A7B9 EQ PUSH3 0x2C2 JUMPI DUP1 PUSH4 0x338CDCA1 EQ PUSH3 0x2BC JUMPI DUP1 PUSH4 0x381FC4B5 EQ PUSH3 0x2B6 JUMPI DUP1 PUSH4 0x3944EA3A EQ PUSH3 0x2B0 JUMPI DUP1 PUSH4 0x3F678E11 EQ PUSH3 0x2AA JUMPI DUP1 PUSH4 0x43CD3D86 EQ PUSH3 0x2A4 JUMPI DUP1 PUSH4 0x4585E33B EQ PUSH3 0x29E JUMPI DUP1 PUSH4 0x48802B92 EQ PUSH3 0x298 JUMPI DUP1 PUSH4 0x48BD6F05 EQ PUSH3 0x292 JUMPI DUP1 PUSH4 0x4B0795A8 EQ PUSH3 0x28C JUMPI DUP1 PUSH4 0x688ECFD1 EQ PUSH3 0x286 JUMPI DUP1 PUSH4 0x6BAA48FE EQ PUSH3 0x280 JUMPI DUP1 PUSH4 0x6E04FF0D EQ PUSH3 0x27A JUMPI DUP1 PUSH4 0x6E74336B EQ PUSH3 0x274 JUMPI DUP1 PUSH4 0x79BA5097 EQ PUSH3 0x26E JUMPI DUP1 PUSH4 0x7B103999 EQ PUSH3 0x268 JUMPI DUP1 PUSH4 0x8B7AFE2E EQ PUSH3 0x262 JUMPI DUP1 PUSH4 0x8D7E6D2D EQ PUSH3 0x25C JUMPI DUP1 PUSH4 0x8DA5CB5B EQ PUSH3 0x256 JUMPI DUP1 PUSH4 0xA3097139 EQ PUSH3 0x250 JUMPI DUP1 PUSH4 0xA3D3C0D2 EQ PUSH3 0x24A JUMPI DUP1 PUSH4 0xB1E21749 EQ PUSH3 0x244 JUMPI DUP1 PUSH4 0xBEF3A2F0 EQ PUSH3 0x23E JUMPI DUP1 PUSH4 0xC5E14688 EQ PUSH3 0x238 JUMPI DUP1 PUSH4 0xD2AA789F EQ PUSH3 0x232 JUMPI DUP1 PUSH4 0xD5F39488 EQ PUSH3 0x22C JUMPI DUP1 PUSH4 0xD811FCF0 EQ PUSH3 0x226 JUMPI DUP1 PUSH4 0xEBF14A55 EQ PUSH3 0x220 JUMPI DUP1 PUSH4 0xF2FDE38B EQ PUSH3 0x21A JUMPI DUP1 PUSH4 0xF5C1279B EQ PUSH3 0x214 JUMPI DUP1 PUSH4 0xF68016B7 EQ PUSH3 0x20E JUMPI DUP1 PUSH4 0xFD2C80AE EQ PUSH3 0x208 JUMPI PUSH4 0xFFFEB84E SUB PUSH3 0xF JUMPI PUSH3 0x18D8 JUMP JUMPDEST PUSH3 0x18B8 JUMP JUMPDEST PUSH3 0x1892 JUMP JUMPDEST PUSH3 0x1872 JUMP JUMPDEST PUSH3 0x1799 JUMP JUMPDEST PUSH3 0x174D JUMP JUMPDEST PUSH3 0x1721 JUMP JUMPDEST PUSH3 0x16F8 JUMP JUMPDEST PUSH3 0x16D8 JUMP JUMPDEST PUSH3 0x162A JUMP JUMPDEST PUSH3 0x1575 JUMP JUMPDEST PUSH3 0x1555 JUMP JUMPDEST PUSH3 0x1535 JUMP JUMPDEST PUSH3 0x1515 JUMP JUMPDEST PUSH3 0x14EC JUMP JUMPDEST PUSH3 0x126C JUMP JUMPDEST PUSH3 0x122A JUMP JUMPDEST PUSH3 0x11E4 JUMP JUMPDEST PUSH3 0x1100 JUMP JUMPDEST PUSH3 0x10E0 JUMP JUMPDEST PUSH3 0x105E JUMP JUMPDEST PUSH3 0x1035 JUMP JUMPDEST PUSH3 0xF80 JUMP JUMPDEST PUSH3 0xECB JUMP JUMPDEST PUSH3 0xEAB JUMP JUMPDEST PUSH3 0xE8B JUMP JUMPDEST PUSH3 0xDA6 JUMP JUMPDEST PUSH3 0xD86 JUMP JUMPDEST PUSH3 0xC50 JUMP JUMPDEST PUSH3 0xB9B JUMP JUMPDEST PUSH3 0xB7B JUMP JUMPDEST PUSH3 0xA88 JUMP JUMPDEST PUSH3 0xA5F JUMP JUMPDEST PUSH3 0x9EF JUMP JUMPDEST PUSH3 0x728 JUMP JUMPDEST PUSH3 0x708 JUMP JUMPDEST PUSH3 0x6DF JUMP JUMPDEST PUSH3 0x428 JUMP JUMPDEST PUSH3 0x323 JUMP JUMPDEST PUSH3 0x303 JUMP JUMPDEST PUSH1 0x0 SWAP2 SUB SLT PUSH3 0x2FE JUMPI JUMP JUMPDEST PUSH1 0x0 DUP1 REVERT JUMPDEST CALLVALUE PUSH3 0x2FE JUMPI PUSH1 0x0 CALLDATASIZE PUSH1 0x3 NOT ADD SLT PUSH3 0x2FE JUMPI PUSH1 0x20 PUSH1 0x10 SLOAD PUSH1 0x40 MLOAD SWAP1 DUP2 MSTORE RETURN JUMPDEST CALLVALUE PUSH3 0x2FE JUMPI PUSH1 0x0 CALLDATASIZE PUSH1 0x3 NOT ADD SLT PUSH3 0x2FE JUMPI PUSH1 0x20 PUSH8 0xFFFFFFFFFFFFFFFF PUSH1 0x7 SLOAD AND PUSH1 0x40 MLOAD SWAP1 DUP2 MSTORE RETURN JUMPDEST PUSH4 0x4E487B71 PUSH1 0xE0 SHL PUSH1 0x0 MSTORE PUSH1 0x41 PUSH1 0x4 MSTORE PUSH1 0x24 PUSH1 0x0 REVERT JUMPDEST PUSH8 0xFFFFFFFFFFFFFFFF DUP2 GT PUSH3 0x378 JUMPI PUSH1 0x40 MSTORE JUMP JUMPDEST PUSH3 0x34D JUMP JUMPDEST PUSH1 0x40 DUP2 ADD SWAP1 DUP2 LT PUSH8 0xFFFFFFFFFFFFFFFF DUP3 GT OR PUSH3 0x378 JUMPI PUSH1 0x40 MSTORE JUMP JUMPDEST SWAP1 PUSH1 0x1F DUP1 NOT SWAP2 ADD AND DUP2 ADD SWAP1 DUP2 LT PUSH8 0xFFFFFFFFFFFFFFFF DUP3 GT OR PUSH3 0x378 JUMPI PUSH1 0x40 MSTORE JUMP JUMPDEST PUSH8 0xFFFFFFFFFFFFFFFF DUP2 GT PUSH3 0x378 JUMPI PUSH1 0x1F ADD PUSH1 0x1F NOT AND PUSH1 0x20 ADD SWAP1 JUMP JUMPDEST DUP2 PUSH1 0x1F DUP3 ADD SLT ISZERO PUSH3 0x2FE JUMPI DUP1 CALLDATALOAD SWAP1 PUSH3 0x3F5 DUP3 PUSH3 0x3BE JUMP JUMPDEST SWAP3 PUSH3 0x405 PUSH1 0x40 MLOAD SWAP5 DUP6 PUSH3 0x39B JUMP JUMPDEST DUP3 DUP5 MSTORE PUSH1 0x20 DUP4 DUP4 ADD ADD GT PUSH3 0x2FE JUMPI DUP2 PUSH1 0x0 SWAP3 PUSH1 0x20 DUP1 SWAP4 ADD DUP4 DUP7 ADD CALLDATACOPY DUP4 ADD ADD MSTORE SWAP1 JUMP JUMPDEST CALLVALUE PUSH3 0x2FE JUMPI PUSH1 0x60 CALLDATASIZE PUSH1 0x3 NOT ADD SLT PUSH3 0x2FE JUMPI PUSH1 0x4 CALLDATALOAD PUSH8 0xFFFFFFFFFFFFFFFF PUSH1 0x24 CALLDATALOAD DUP2 DUP2 GT PUSH3 0x2FE JUMPI PUSH3 0x462 SWAP1 CALLDATASIZE SWAP1 PUSH1 0x4 ADD PUSH3 0x3DB JUMP JUMPDEST PUSH1 0x44 CALLDATALOAD DUP3 DUP2 GT PUSH3 0x2FE JUMPI PUSH3 0x47D SWAP1 CALLDATASIZE SWAP1 PUSH1 0x4 ADD PUSH3 0x3DB JUMP JUMPDEST PUSH1 0x1 PUSH1 0x1 PUSH1 0xA0 SHL SUB PUSH32 0x0 AND CALLER SUB PUSH3 0x6B5 JUMPI DUP2 MLOAD SWAP3 DUP4 GT PUSH3 0x378 JUMPI DUP4 SWAP2 PUSH3 0x4D2 DUP5 PUSH3 0x4CC PUSH1 0x5 SLOAD PUSH3 0x7BB JUMP JUMPDEST PUSH3 0x368F JUMP JUMPDEST PUSH1 0x20 SWAP4 DUP5 PUSH1 0x1F DUP3 GT PUSH1 0x1 EQ PUSH3 0x605 JUMPI POP DUP1 PUSH32 0x7BAB0EC163B5C132C72B8146AC4D6E067E82ED58F8B131150AA71C9258911562 SWAP5 SWAP6 PUSH1 0x0 SWAP2 PUSH3 0x5F9 JUMPI JUMPDEST POP DUP2 PUSH1 0x1 SHL SWAP2 PUSH1 0x0 NOT SWAP1 PUSH1 0x3 SHL SHR NOT AND OR PUSH1 0x5 SSTORE JUMPDEST PUSH3 0x530 DUP3 PUSH3 0x378D JUMP JUMPDEST PUSH3 0x546 PUSH3 0x541 PUSH1 0x12 SLOAD PUSH3 0x1D11 JUMP JUMPDEST PUSH1 0x12 SSTORE JUMP JUMPDEST PUSH1 0xFF PUSH3 0x555 PUSH1 0x19 SLOAD PUSH1 0xFF AND SWAP1 JUMP JUMPDEST AND PUSH3 0x5D5 JUMPI PUSH3 0x566 DUP2 PUSH3 0x38A8 JUMP JUMPDEST PUSH32 0x600739F161E06A7CDF9A4D034647E5C55E40454D12EB86768DEB9F55B1644CDB PUSH1 0x40 MLOAD DUP1 PUSH3 0x597 DUP5 DUP3 PUSH3 0x9D9 JUMP JUMPDEST SUB SWAP1 LOG1 PUSH3 0x5AB PUSH1 0x40 MLOAD SWAP3 DUP4 SWAP3 DUP4 PUSH3 0x39B7 JUMP JUMPDEST SUB SWAP1 LOG2 PUSH32 0x85E1543BF2F84FE80C6BADBCE3648C8539AD1DF4D2B3D822938CA0538BE727E6 PUSH1 0x0 DUP1 LOG2 STOP JUMPDEST PUSH3 0x5E9 PUSH3 0x5E4 DUP3 PUSH3 0x3884 JUMP JUMPDEST PUSH1 0x1F SSTORE JUMP JUMPDEST PUSH3 0x5F3 PUSH3 0x3A2C JUMP JUMPDEST PUSH3 0x566 JUMP JUMPDEST SWAP1 POP DUP3 ADD MLOAD CODESIZE PUSH3 0x510 JUMP JUMPDEST PUSH1 0x5 PUSH1 0x0 MSTORE SWAP5 PUSH1 0x1F NOT DUP3 AND PUSH32 0x36B6384B5ECA791C62761152D0C79BB0604C104A5FB6F4EB0703F3154BB3DB0 SWAP7 PUSH1 0x0 SWAP1 JUMPDEST DUP3 DUP3 LT PUSH3 0x698 JUMPI POP POP SWAP6 DUP3 SWAP2 PUSH1 0x1 SWAP4 PUSH32 0x7BAB0EC163B5C132C72B8146AC4D6E067E82ED58F8B131150AA71C9258911562 SWAP8 SWAP9 LT PUSH3 0x67E JUMPI JUMPDEST POP POP DUP2 SHL ADD PUSH1 0x5 SSTORE PUSH3 0x525 JUMP JUMPDEST DUP5 ADD MLOAD PUSH1 0x0 NOT PUSH1 0xF8 DUP5 PUSH1 0x3 SHL AND SHR NOT AND SWAP1 SSTORE CODESIZE DUP1 PUSH3 0x670 JUMP JUMPDEST DUP6 DUP5 ADD MLOAD DUP10 SSTORE PUSH1 0x1 SWAP1 SWAP9 ADD SWAP8 DUP10 SWAP8 POP SWAP3 DUP4 ADD SWAP3 SWAP1 DUP2 ADD SWAP1 PUSH3 0x636 JUMP JUMPDEST PUSH1 0x4 PUSH1 0x40 MLOAD PUSH32 0xC6829F8300000000000000000000000000000000000000000000000000000000 DUP2 MSTORE REVERT JUMPDEST CALLVALUE PUSH3 0x2FE JUMPI PUSH1 0x0 CALLDATASIZE PUSH1 0x3 NOT ADD SLT PUSH3 0x2FE JUMPI PUSH1 0x20 PUSH1 0x1 PUSH1 0x1 PUSH1 0xA0 SHL SUB PUSH1 0x9 SLOAD AND PUSH1 0x40 MLOAD SWAP1 DUP2 MSTORE RETURN JUMPDEST CALLVALUE PUSH3 0x2FE JUMPI PUSH1 0x0 CALLDATASIZE PUSH1 0x3 NOT ADD SLT PUSH3 0x2FE JUMPI PUSH1 0x20 PUSH1 0x4 SLOAD PUSH1 0x40 MLOAD SWAP1 DUP2 MSTORE RETURN JUMPDEST CALLVALUE PUSH3 0x2FE JUMPI PUSH1 0x0 CALLDATASIZE PUSH1 0x3 NOT ADD SLT PUSH3 0x2FE JUMPI PUSH1 0x20 PUSH1 0x7 SLOAD PUSH4 0xFFFFFFFF PUSH1 0x40 MLOAD SWAP2 PUSH1 0x40 SHR AND DUP2 MSTORE RETURN JUMPDEST PUSH4 0x4E487B71 PUSH1 0xE0 SHL PUSH1 0x0 MSTORE PUSH1 0x32 PUSH1 0x4 MSTORE PUSH1 0x24 PUSH1 0x0 REVERT JUMPDEST PUSH1 0x1D SLOAD DUP2 LT ISZERO PUSH3 0x79F JUMPI PUSH1 0x1D PUSH1 0x0 MSTORE PUSH32 0x6D4407E7BE21F808E6509AA9FA9143369579DD7D760FE20A2C09680FC146134F ADD SWAP1 PUSH1 0x0 SWAP1 JUMP JUMPDEST PUSH3 0x751 JUMP JUMPDEST PUSH4 0x4E487B71 PUSH1 0xE0 SHL PUSH1 0x0 MSTORE PUSH1 0x0 PUSH1 0x4 MSTORE PUSH1 0x24 PUSH1 0x0 REVERT JUMPDEST SWAP1 PUSH1 0x1 DUP3 DUP2 SHR SWAP3 AND DUP1 ISZERO PUSH3 0x7ED JUMPI JUMPDEST PUSH1 0x20 DUP4 LT EQ PUSH3 0x7D7 JUMPI JUMP JUMPDEST PUSH4 0x4E487B71 PUSH1 0xE0 SHL PUSH1 0x0 MSTORE PUSH1 0x22 PUSH1 0x4 MSTORE PUSH1 0x24 PUSH1 0x0 REVERT JUMPDEST SWAP2 PUSH1 0x7F AND SWAP2 PUSH3 0x7CB JUMP JUMPDEST PUSH1 0x40 MLOAD SWAP1 PUSH1 0x0 DUP3 PUSH1 0x1E SLOAD SWAP2 PUSH3 0x80E DUP4 PUSH3 0x7BB JUMP JUMPDEST DUP1 DUP4 MSTORE SWAP3 PUSH1 0x1 SWAP1 DUP2 DUP2 AND SWAP1 DUP2 ISZERO PUSH3 0x89E JUMPI POP PUSH1 0x1 EQ PUSH3 0x83B JUMPI JUMPDEST POP PUSH3 0x839 SWAP3 POP SUB DUP4 PUSH3 0x39B JUMP JUMPDEST JUMP JUMPDEST PUSH1 0x1E PUSH1 0x0 SWAP1 DUP2 MSTORE SWAP2 POP PUSH32 0x50BB669A95C7B50B7E8A6F09454034B2B14CF2B85C730DCA9A539CA82CB6E350 JUMPDEST DUP5 DUP4 LT PUSH3 0x882 JUMPI POP PUSH3 0x839 SWAP4 POP POP DUP2 ADD PUSH1 0x20 ADD CODESIZE PUSH3 0x82A JUMP JUMPDEST DUP2 SWAP4 POP SWAP1 DUP2 PUSH1 0x20 SWAP3 SLOAD DUP4 DUP6 DUP11 ADD ADD MSTORE ADD SWAP2 ADD SWAP1 SWAP2 DUP6 SWAP3 PUSH3 0x866 JUMP JUMPDEST SWAP1 POP PUSH1 0x20 SWAP3 POP PUSH3 0x839 SWAP5 SWAP2 POP PUSH1 0xFF NOT AND DUP3 DUP5 ADD MSTORE ISZERO ISZERO PUSH1 0x5 SHL DUP3 ADD ADD CODESIZE PUSH3 0x82A JUMP JUMPDEST SWAP1 PUSH1 0x40 MLOAD SWAP2 DUP3 PUSH1 0x0 DUP3 SLOAD SWAP3 PUSH3 0x8D8 DUP5 PUSH3 0x7BB JUMP JUMPDEST SWAP1 DUP2 DUP5 MSTORE PUSH1 0x1 SWAP5 DUP6 DUP2 AND SWAP1 DUP2 PUSH1 0x0 EQ PUSH3 0x94D JUMPI POP PUSH1 0x1 EQ PUSH3 0x906 JUMPI JUMPDEST POP POP PUSH3 0x839 SWAP3 POP SUB DUP4 PUSH3 0x39B JUMP JUMPDEST SWAP1 SWAP4 SWAP2 POP PUSH1 0x0 MSTORE PUSH1 0x20 SWAP1 DUP2 PUSH1 0x0 KECCAK256 SWAP4 PUSH1 0x0 SWAP2 JUMPDEST DUP2 DUP4 LT PUSH3 0x934 JUMPI POP POP PUSH3 0x839 SWAP4 POP DUP3 ADD ADD CODESIZE DUP1 PUSH3 0x8F6 JUMP JUMPDEST DUP6 SLOAD DUP9 DUP5 ADD DUP6 ADD MSTORE SWAP5 DUP6 ADD SWAP5 DUP8 SWAP5 POP SWAP2 DUP4 ADD SWAP2 PUSH3 0x919 JUMP JUMPDEST SWAP2 POP POP PUSH3 0x839 SWAP5 POP PUSH1 0x20 SWAP3 POP PUSH1 0xFF NOT AND DUP3 DUP5 ADD MSTORE ISZERO ISZERO PUSH1 0x5 SHL DUP3 ADD ADD CODESIZE DUP1 PUSH3 0x8F6 JUMP JUMPDEST PUSH1 0x0 JUMPDEST DUP3 DUP2 LT PUSH3 0x985 JUMPI POP PUSH1 0x0 SWAP2 ADD MSTORE JUMP JUMPDEST PUSH1 0x80 DUP2 ADD MLOAD DUP3 DUP3 ADD MSTORE PUSH1 0x20 ADD PUSH3 0x975 JUMP JUMPDEST SWAP2 SWAP1 DUP3 MLOAD SWAP3 DUP4 DUP3 MSTORE PUSH1 0x0 JUMPDEST DUP5 DUP2 LT PUSH3 0x9C4 JUMPI POP POP DUP3 PUSH1 0x0 PUSH1 0x20 DUP1 SWAP5 SWAP6 DUP5 ADD ADD MSTORE PUSH1 0x1F DUP1 NOT SWAP2 ADD AND ADD ADD SWAP1 JUMP JUMPDEST PUSH1 0x20 DUP2 DUP4 ADD DUP2 ADD MLOAD DUP5 DUP4 ADD DUP3 ADD MSTORE ADD PUSH3 0x9A2 JUMP JUMPDEST SWAP1 PUSH1 0x20 PUSH3 0x9EC SWAP3 DUP2 DUP2 MSTORE ADD SWAP1 PUSH3 0x997 JUMP JUMPDEST SWAP1 JUMP JUMPDEST CALLVALUE PUSH3 0x2FE JUMPI PUSH1 0x20 CALLDATASIZE PUSH1 0x3 NOT ADD SLT PUSH3 0x2FE JUMPI PUSH1 0x4 CALLDATALOAD PUSH1 0x1D SLOAD DUP2 LT ISZERO PUSH3 0x2FE JUMPI PUSH3 0xA46 PUSH3 0xA5B SWAP2 PUSH1 0x1D PUSH1 0x0 MSTORE PUSH32 0x6D4407E7BE21F808E6509AA9FA9143369579DD7D760FE20A2C09680FC146134F ADD PUSH3 0x8C2 JUMP JUMPDEST PUSH1 0x40 MLOAD SWAP2 DUP3 SWAP2 PUSH1 0x20 DUP4 MSTORE PUSH1 0x20 DUP4 ADD SWAP1 PUSH3 0x997 JUMP JUMPDEST SUB SWAP1 RETURN JUMPDEST CALLVALUE PUSH3 0x2FE JUMPI PUSH1 0x0 CALLDATASIZE PUSH1 0x3 NOT ADD SLT PUSH3 0x2FE JUMPI PUSH1 0x20 PUSH1 0x1 PUSH1 0x1 PUSH1 0xA0 SHL SUB PUSH1 0xB SLOAD AND PUSH1 0x40 MLOAD SWAP1 DUP2 MSTORE RETURN JUMPDEST CALLVALUE PUSH3 0x2FE JUMPI PUSH1 0x0 DUP1 PUSH1 0x3 NOT CALLDATASIZE ADD SLT PUSH3 0xB78 JUMPI PUSH1 0x40 MLOAD SWAP1 DUP1 PUSH1 0xD SLOAD PUSH3 0xAAF DUP2 PUSH3 0x7BB JUMP JUMPDEST DUP1 DUP6 MSTORE SWAP2 PUSH1 0x1 SWAP2 DUP1 DUP4 AND SWAP1 DUP2 ISZERO PUSH3 0xB4B JUMPI POP PUSH1 0x1 EQ PUSH3 0xAEB JUMPI JUMPDEST PUSH3 0xA5B DUP6 PUSH3 0xADE DUP2 DUP8 SUB DUP3 PUSH3 0x39B JUMP JUMPDEST PUSH1 0x40 MLOAD SWAP2 DUP3 SWAP2 DUP3 PUSH3 0x9D9 JUMP JUMPDEST SWAP3 POP PUSH1 0xD DUP4 MSTORE PUSH32 0xD7B6990105719101DABEB77144F2A3385C8033ACD3AF97E9423A695E81AD1EB5 JUMPDEST DUP3 DUP5 LT PUSH3 0xB32 JUMPI POP POP POP DUP2 ADD PUSH1 0x20 ADD PUSH3 0xADE DUP3 PUSH3 0xA5B PUSH3 0xACB JUMP JUMPDEST DUP1 SLOAD PUSH1 0x20 DUP6 DUP8 ADD DUP2 ADD SWAP2 SWAP1 SWAP2 MSTORE SWAP1 SWAP4 ADD SWAP3 DUP2 ADD PUSH3 0xB13 JUMP JUMPDEST DUP7 SWAP6 POP PUSH3 0xA5B SWAP7 SWAP4 POP PUSH1 0x20 SWAP3 POP PUSH3 0xADE SWAP5 SWAP2 POP PUSH1 0xFF NOT AND DUP3 DUP5 ADD MSTORE ISZERO ISZERO PUSH1 0x5 SHL DUP3 ADD ADD SWAP3 SWAP4 PUSH3 0xACB JUMP JUMPDEST DUP1 REVERT JUMPDEST CALLVALUE PUSH3 0x2FE JUMPI PUSH1 0x0 CALLDATASIZE PUSH1 0x3 NOT ADD SLT PUSH3 0x2FE JUMPI PUSH1 0x20 PUSH1 0x12 SLOAD PUSH1 0x40 MLOAD SWAP1 DUP2 MSTORE RETURN JUMPDEST CALLVALUE PUSH3 0x2FE JUMPI PUSH1 0x0 DUP1 PUSH1 0x3 NOT CALLDATASIZE ADD SLT PUSH3 0xB78 JUMPI PUSH1 0x40 MLOAD SWAP1 DUP1 PUSH1 0x14 SLOAD PUSH3 0xBC2 DUP2 PUSH3 0x7BB JUMP JUMPDEST DUP1 DUP6 MSTORE SWAP2 PUSH1 0x1 SWAP2 DUP1 DUP4 AND SWAP1 DUP2 ISZERO PUSH3 0xB4B JUMPI POP PUSH1 0x1 EQ PUSH3 0xBF0 JUMPI PUSH3 0xA5B DUP6 PUSH3 0xADE DUP2 DUP8 SUB DUP3 PUSH3 0x39B JUMP JUMPDEST SWAP3 POP PUSH1 0x14 DUP4 MSTORE PUSH32 0xCE6D7B5282BD9A3661AE061FEED1DBDA4E52AB073B1F9285BE6E155D9C38D4EC JUMPDEST DUP3 DUP5 LT PUSH3 0xC37 JUMPI POP POP POP DUP2 ADD PUSH1 0x20 ADD PUSH3 0xADE DUP3 PUSH3 0xA5B PUSH3 0xACB JUMP JUMPDEST DUP1 SLOAD PUSH1 0x20 DUP6 DUP8 ADD DUP2 ADD SWAP2 SWAP1 SWAP2 MSTORE SWAP1 SWAP4 ADD SWAP3 DUP2 ADD PUSH3 0xC18 JUMP JUMPDEST CALLVALUE PUSH3 0x2FE JUMPI PUSH1 0x3 NOT PUSH1 0x20 CALLDATASIZE DUP3 ADD SLT PUSH3 0x2FE JUMPI PUSH1 0x4 CALLDATALOAD SWAP1 PUSH8 0xFFFFFFFFFFFFFFFF DUP3 GT PUSH3 0x2FE JUMPI PUSH2 0x140 SWAP1 DUP3 CALLDATASIZE SUB ADD SLT PUSH3 0x2FE JUMPI PUSH1 0x20 PUSH3 0xCFB PUSH1 0x0 SWAP3 PUSH3 0xCBF PUSH3 0xCB3 PUSH3 0xCB3 PUSH1 0x1 PUSH1 0x1 PUSH1 0xA0 SHL SUB PUSH1 0xB SLOAD AND PUSH1 0x1 PUSH1 0x1 PUSH1 0xA0 SHL SUB AND SWAP1 JUMP JUMPDEST PUSH1 0x1 PUSH1 0x1 PUSH1 0xA0 SHL SUB AND SWAP1 JUMP JUMPDEST SWAP1 PUSH1 0x40 MLOAD SWAP5 DUP6 DUP1 SWAP5 DUP2 SWAP4 PUSH32 0x24380AA800000000000000000000000000000000000000000000000000000000 DUP4 MSTORE ADDRESS SWAP1 PUSH1 0x4 ADD PUSH1 0x4 DUP5 ADD PUSH3 0x1A93 JUMP JUMPDEST SUB SWAP3 GAS CALL DUP1 ISZERO PUSH3 0xD80 JUMPI PUSH3 0xD1A SWAP2 PUSH1 0x0 SWAP2 PUSH3 0xD4B JUMPI JUMPDEST POP PUSH1 0xC SSTORE JUMP JUMPDEST PUSH1 0xC SLOAD PUSH1 0x40 MLOAD SWAP1 DUP2 MSTORE PUSH32 0x7623383A750B4166574A1B2DFF61440ED0DFA3708CBE620C58339CCA510D1AF9 SWAP1 PUSH1 0x20 SWAP1 LOG1 STOP JUMPDEST PUSH3 0xD71 SWAP2 POP PUSH1 0x20 RETURNDATASIZE DUP2 GT PUSH3 0xD78 JUMPI JUMPDEST PUSH3 0xD68 DUP2 DUP4 PUSH3 0x39B JUMP JUMPDEST DUP2 ADD SWAP1 PUSH3 0x1A0C JUMP JUMPDEST CODESIZE PUSH3 0xD14 JUMP JUMPDEST POP RETURNDATASIZE PUSH3 0xD5C JUMP JUMPDEST PUSH3 0x1A00 JUMP JUMPDEST CALLVALUE PUSH3 0x2FE JUMPI PUSH1 0x0 CALLDATASIZE PUSH1 0x3 NOT ADD SLT PUSH3 0x2FE JUMPI PUSH1 0x20 PUSH1 0x18 SLOAD PUSH1 0x40 MLOAD SWAP1 DUP2 MSTORE RETURN JUMPDEST CALLVALUE PUSH3 0x2FE JUMPI PUSH1 0x20 CALLDATASIZE PUSH1 0x3 NOT ADD SLT PUSH3 0x2FE JUMPI PUSH1 0x4 CALLDATALOAD PUSH8 0xFFFFFFFFFFFFFFFF DUP1 DUP3 GT PUSH3 0x2FE JUMPI CALLDATASIZE PUSH1 0x23 DUP4 ADD SLT ISZERO PUSH3 0x2FE JUMPI DUP2 PUSH1 0x4 ADD CALLDATALOAD SWAP1 DUP2 GT PUSH3 0x2FE JUMPI CALLDATASIZE SWAP2 ADD PUSH1 0x24 ADD GT PUSH3 0x2FE JUMPI PUSH1 0x1 PUSH1 0x1 PUSH1 0xA0 SHL SUB DUP1 PUSH1 0x0 SLOAD AND SWAP1 DUP2 CALLER EQ ISZERO SWAP1 DUP2 PUSH3 0xE7B JUMPI JUMPDEST POP PUSH3 0xE1C JUMPI PUSH3 0x1B PUSH3 0x200E JUMP JUMPDEST PUSH3 0xE33 PUSH3 0xCB3 PUSH1 0xB SLOAD PUSH1 0x1 PUSH1 0x1 PUSH1 0xA0 SHL SUB AND SWAP1 JUMP JUMPDEST PUSH1 0x40 MLOAD PUSH32 0x426FBC7100000000000000000000000000000000000000000000000000000000 DUP2 MSTORE CALLER PUSH1 0x4 DUP3 ADD MSTORE PUSH1 0x1 PUSH1 0x1 PUSH1 0xA0 SHL SUB SWAP3 DUP4 AND PUSH1 0x24 DUP3 ADD MSTORE SWAP2 AND PUSH1 0x44 DUP3 ADD MSTORE PUSH1 0x64 SWAP1 REVERT JUMPDEST SWAP1 POP PUSH1 0xB SLOAD AND CALLER EQ ISZERO CODESIZE PUSH3 0xE0C JUMP JUMPDEST CALLVALUE PUSH3 0x2FE JUMPI PUSH1 0x0 CALLDATASIZE PUSH1 0x3 NOT ADD SLT PUSH3 0x2FE JUMPI PUSH1 0x20 PUSH1 0x17 SLOAD PUSH1 0x40 MLOAD SWAP1 DUP2 MSTORE RETURN JUMPDEST CALLVALUE PUSH3 0x2FE JUMPI PUSH1 0x0 CALLDATASIZE PUSH1 0x3 NOT ADD SLT PUSH3 0x2FE JUMPI PUSH1 0x20 PUSH1 0x1A SLOAD PUSH1 0x40 MLOAD SWAP1 DUP2 MSTORE RETURN JUMPDEST CALLVALUE PUSH3 0x2FE JUMPI PUSH1 0x0 DUP1 PUSH1 0x3 NOT CALLDATASIZE ADD SLT PUSH3 0xB78 JUMPI PUSH1 0x40 MLOAD SWAP1 DUP1 PUSH1 0x15 SLOAD PUSH3 0xEF2 DUP2 PUSH3 0x7BB JUMP JUMPDEST DUP1 DUP6 MSTORE SWAP2 PUSH1 0x1 SWAP2 DUP1 DUP4 AND SWAP1 DUP2 ISZERO PUSH3 0xB4B JUMPI POP PUSH1 0x1 EQ PUSH3 0xF20 JUMPI PUSH3 0xA5B DUP6 PUSH3 0xADE DUP2 DUP8 SUB DUP3 PUSH3 0x39B JUMP JUMPDEST SWAP3 POP PUSH1 0x15 DUP4 MSTORE PUSH32 0x55F448FDEA98C4D29EB340757EF0A66CD03DBB9538908A6A81D96026B71EC475 JUMPDEST DUP3 DUP5 LT PUSH3 0xF67 JUMPI POP POP POP DUP2 ADD PUSH1 0x20 ADD PUSH3 0xADE DUP3 PUSH3 0xA5B PUSH3 0xACB JUMP JUMPDEST DUP1 SLOAD PUSH1 0x20 DUP6 DUP8 ADD DUP2 ADD SWAP2 SWAP1 SWAP2 MSTORE SWAP1 SWAP4 ADD SWAP3 DUP2 ADD PUSH3 0xF48 JUMP JUMPDEST CALLVALUE PUSH3 0x2FE JUMPI PUSH1 0x0 DUP1 PUSH1 0x3 NOT CALLDATASIZE ADD SLT PUSH3 0xB78 JUMPI PUSH1 0x40 MLOAD SWAP1 DUP1 PUSH1 0x3 SLOAD PUSH3 0xFA7 DUP2 PUSH3 0x7BB JUMP JUMPDEST DUP1 DUP6 MSTORE SWAP2 PUSH1 0x1 SWAP2 DUP1 DUP4 AND SWAP1 DUP2 ISZERO PUSH3 0xB4B JUMPI POP PUSH1 0x1 EQ PUSH3 0xFD5 JUMPI PUSH3 0xA5B DUP6 PUSH3 0xADE DUP2 DUP8 SUB DUP3 PUSH3 0x39B JUMP JUMPDEST SWAP3 POP PUSH1 0x3 DUP4 MSTORE PUSH32 0xC2575A0E9E593C00F959F8C92F12DB2869C3395A3B0502D05E2516446F71F85B JUMPDEST DUP3 DUP5 LT PUSH3 0x101C JUMPI POP POP POP DUP2 ADD PUSH1 0x20 ADD PUSH3 0xADE DUP3 PUSH3 0xA5B PUSH3 0xACB JUMP JUMPDEST DUP1 SLOAD PUSH1 0x20 DUP6 DUP8 ADD DUP2 ADD SWAP2 SWAP1 SWAP2 MSTORE SWAP1 SWAP4 ADD SWAP3 DUP2 ADD PUSH3 0xFFD JUMP JUMPDEST CALLVALUE PUSH3 0x2FE JUMPI PUSH1 0x0 CALLDATASIZE PUSH1 0x3 NOT ADD SLT PUSH3 0x2FE JUMPI PUSH1 0x20 PUSH1 0x1 PUSH1 0x1 PUSH1 0xA0 SHL SUB PUSH1 0xA SLOAD AND PUSH1 0x40 MLOAD SWAP1 DUP2 MSTORE RETURN JUMPDEST CALLVALUE PUSH3 0x2FE JUMPI PUSH1 0x20 CALLDATASIZE PUSH1 0x3 NOT ADD SLT PUSH3 0x2FE JUMPI PUSH1 0x4 CALLDATALOAD PUSH8 0xFFFFFFFFFFFFFFFF DUP2 GT PUSH3 0x2FE JUMPI PUSH3 0x1094 SWAP1 CALLDATASIZE SWAP1 PUSH1 0x4 ADD PUSH3 0x3DB JUMP JUMPDEST POP PUSH1 0x10 SLOAD TIMESTAMP SUB TIMESTAMP DUP2 GT PUSH3 0x10DA JUMPI PUSH1 0x8 SLOAD LT PUSH1 0x40 MLOAD SWAP1 DUP2 MSTORE PUSH1 0x40 PUSH1 0x20 DUP3 ADD MSTORE PUSH1 0x60 DUP2 DUP2 MLOAD DUP1 PUSH1 0x40 DUP4 ADD MSTORE PUSH3 0x10CC DUP2 DUP5 DUP5 ADD PUSH3 0x972 JUMP JUMPDEST PUSH1 0x1F ADD PUSH1 0x1F NOT AND DUP2 ADD SUB ADD SWAP1 RETURN JUMPDEST PUSH3 0x1C17 JUMP JUMPDEST CALLVALUE PUSH3 0x2FE JUMPI PUSH1 0x0 CALLDATASIZE PUSH1 0x3 NOT ADD SLT PUSH3 0x2FE JUMPI PUSH1 0x20 PUSH1 0xF SLOAD PUSH1 0x40 MLOAD SWAP1 DUP2 MSTORE RETURN JUMPDEST CALLVALUE PUSH3 0x2FE JUMPI PUSH1 0x0 DUP1 PUSH1 0x3 NOT CALLDATASIZE ADD SLT PUSH3 0xB78 JUMPI PUSH1 0x1 PUSH1 0x1 PUSH1 0xA0 SHL SUB DUP1 PUSH1 0x1 SLOAD AND CALLER SUB PUSH3 0x11A0 JUMPI DUP2 SLOAD PUSH1 0x1 PUSH1 0x1 PUSH1 0xA0 SHL SUB AND PUSH1 0x0 DUP1 SLOAD PUSH20 0xFFFFFFFFFFFFFFFFFFFFFFFFFFFFFFFFFFFFFFFF NOT AND CALLER OR SWAP1 SSTORE SWAP1 PUSH3 0x1176 PUSH20 0xFFFFFFFFFFFFFFFFFFFFFFFFFFFFFFFFFFFFFFFF NOT PUSH1 0x1 SLOAD AND PUSH1 0x1 SSTORE JUMP JUMPDEST CALLER SWAP2 AND PUSH32 0x8BE0079C531659141344CD1FD0A4F28419497F9722A3DAAFE3B4186F6B6457E0 DUP4 DUP1 LOG3 DUP1 RETURN JUMPDEST PUSH1 0x64 PUSH1 0x40 MLOAD PUSH3 0x461BCD PUSH1 0xE5 SHL DUP2 MSTORE PUSH1 0x20 PUSH1 0x4 DUP3 ADD MSTORE PUSH1 0x16 PUSH1 0x24 DUP3 ADD MSTORE PUSH32 0x4D7573742062652070726F706F736564206F776E657200000000000000000000 PUSH1 0x44 DUP3 ADD MSTORE REVERT JUMPDEST CALLVALUE PUSH3 0x2FE JUMPI PUSH1 0x0 CALLDATASIZE PUSH1 0x3 NOT ADD SLT PUSH3 0x2FE JUMPI PUSH1 0x20 PUSH1 0x40 MLOAD PUSH1 0x1 PUSH1 0x1 PUSH1 0xA0 SHL SUB PUSH32 0x0 AND DUP2 MSTORE RETURN JUMPDEST CALLVALUE PUSH3 0x2FE JUMPI PUSH1 0x0 CALLDATASIZE PUSH1 0x3 NOT ADD SLT PUSH3 0x2FE JUMPI PUSH1 0x20 SELFBALANCE PUSH1 0x40 MLOAD SWAP1 DUP2 MSTORE RETURN JUMPDEST PUSH12 0xFFFFFFFFFFFFFFFFFFFFFFFF DUP2 AND SUB PUSH3 0x2FE JUMPI JUMP JUMPDEST CALLDATALOAD SWAP1 PUSH3 0x839 DUP3 PUSH3 0x1248 JUMP JUMPDEST CALLVALUE PUSH3 0x2FE JUMPI PUSH1 0x20 CALLDATASIZE PUSH1 0x3 NOT ADD SLT PUSH3 0x2FE JUMPI PUSH1 0x4 CALLDATALOAD PUSH3 0x128D DUP2 PUSH3 0x1248 JUMP JUMPDEST PUSH1 0x9 SLOAD PUSH1 0x1 PUSH1 0x1 PUSH1 0xA0 SHL SUB AND SWAP1 PUSH3 0x12AD PUSH1 0xA SLOAD PUSH1 0x1 PUSH1 0x1 PUSH1 0xA0 SHL SUB AND SWAP1 JUMP JUMPDEST SWAP2 PUSH1 0x40 MLOAD SWAP3 PUSH2 0x765 DUP1 DUP6 ADD SWAP2 DUP6 DUP4 LT PUSH8 0xFFFFFFFFFFFFFFFF DUP5 GT OR PUSH3 0x378 JUMPI DUP6 SWAP4 PUSH3 0x130B SWAP4 DUP7 SWAP4 PUSH3 0x3B09 DUP8 CODECOPY PUSH1 0x1 PUSH1 0x1 PUSH1 0xA0 SHL SUB SWAP2 DUP3 AND DUP2 MSTORE SWAP2 AND PUSH1 0x20 DUP3 ADD MSTORE PUSH12 0xFFFFFFFFFFFFFFFFFFFFFFFF SWAP1 SWAP2 AND PUSH1 0x40 DUP3 ADD MSTORE PUSH1 0x60 ADD SWAP1 JUMP JUMPDEST SUB PUSH1 0x0 SWAP3 DUP4 CREATE DUP1 ISZERO PUSH3 0xD80 JUMPI PUSH3 0x13C0 SWAP2 PUSH3 0x134D PUSH1 0x20 SWAP3 PUSH1 0x1 PUSH1 0x1 PUSH1 0xA0 SHL SUB AND PUSH20 0xFFFFFFFFFFFFFFFFFFFFFFFFFFFFFFFFFFFFFFFF NOT PUSH1 0xB SLOAD AND OR PUSH1 0xB SSTORE JUMP JUMPDEST PUSH3 0x1368 PUSH3 0xCB3 PUSH3 0xCB3 PUSH1 0x9 SLOAD PUSH1 0x1 PUSH1 0x1 PUSH1 0xA0 SHL SUB AND SWAP1 JUMP JUMPDEST PUSH3 0x137F PUSH3 0xCB3 PUSH1 0xB SLOAD PUSH1 0x1 PUSH1 0x1 PUSH1 0xA0 SHL SUB AND SWAP1 JUMP JUMPDEST DUP6 PUSH1 0x40 MLOAD DUP1 SWAP7 DUP2 SWAP6 DUP3 SWAP5 PUSH4 0x95EA7B3 PUSH1 0xE0 SHL DUP5 MSTORE PUSH1 0x4 DUP5 ADD SWAP1 SWAP3 SWAP2 PUSH12 0xFFFFFFFFFFFFFFFFFFFFFFFF PUSH1 0x20 SWAP2 PUSH1 0x1 PUSH1 0x1 PUSH1 0xA0 SHL SUB PUSH1 0x40 DUP6 ADD SWAP7 AND DUP5 MSTORE AND SWAP2 ADD MSTORE JUMP JUMPDEST SUB SWAP3 GAS CALL DUP1 ISZERO PUSH3 0xD80 JUMPI PUSH3 0x14B7 JUMPI JUMPDEST POP PUSH3 0x13E9 PUSH3 0xCB3 PUSH1 0xB SLOAD PUSH1 0x1 PUSH1 0x1 PUSH1 0xA0 SHL SUB AND SWAP1 JUMP JUMPDEST DUP1 EXTCODESIZE ISZERO PUSH3 0x14B3 JUMPI PUSH1 0x40 MLOAD PUSH32 0x2302440800000000000000000000000000000000000000000000000000000000 DUP2 MSTORE ADDRESS PUSH1 0x4 DUP3 ADD MSTORE SWAP1 DUP3 SWAP1 DUP3 SWAP1 PUSH1 0x24 SWAP1 DUP3 SWAP1 DUP5 SWAP1 GAS CALL DUP1 ISZERO PUSH3 0xD80 JUMPI PUSH3 0x1495 JUMPI JUMPDEST POP PUSH32 0x3583C1105FD29A46B4D92CEEAFF8BE03CBA58A11CCE44A3B7DA77BBC3798EDC4 PUSH3 0x148F PUSH3 0x1475 PUSH3 0xCB3 PUSH1 0xB SLOAD PUSH1 0x1 PUSH1 0x1 PUSH1 0xA0 SHL SUB AND SWAP1 JUMP JUMPDEST PUSH1 0x40 MLOAD PUSH1 0x1 PUSH1 0x1 PUSH1 0xA0 SHL SUB SWAP1 SWAP2 AND DUP2 MSTORE SWAP1 DUP2 SWAP1 PUSH1 0x20 DUP3 ADD SWAP1 JUMP JUMPDEST SUB SWAP1 LOG1 DUP1 RETURN JUMPDEST DUP1 PUSH3 0x14A5 PUSH3 0x14AC SWAP3 PUSH3 0x363 JUMP JUMPDEST DUP1 PUSH3 0x2F2 JUMP JUMPDEST CODESIZE PUSH3 0x1438 JUMP JUMPDEST POP DUP1 REVERT JUMPDEST PUSH3 0x14DC SWAP1 PUSH1 0x20 RETURNDATASIZE DUP2 GT PUSH3 0x14E4 JUMPI JUMPDEST PUSH3 0x14D3 DUP2 DUP4 PUSH3 0x39B JUMP JUMPDEST DUP2 ADD SWAP1 PUSH3 0x19E6 JUMP JUMPDEST POP CODESIZE PUSH3 0x13D1 JUMP JUMPDEST POP RETURNDATASIZE PUSH3 0x14C7 JUMP JUMPDEST CALLVALUE PUSH3 0x2FE JUMPI PUSH1 0x0 CALLDATASIZE PUSH1 0x3 NOT ADD SLT PUSH3 0x2FE JUMPI PUSH1 0x20 PUSH1 0x1 PUSH1 0x1 PUSH1 0xA0 SHL SUB PUSH1 0x0 SLOAD AND PUSH1 0x40 MLOAD SWAP1 DUP2 MSTORE RETURN JUMPDEST CALLVALUE PUSH3 0x2FE JUMPI PUSH1 0x0 CALLDATASIZE PUSH1 0x3 NOT ADD SLT PUSH3 0x2FE JUMPI PUSH1 0x20 PUSH1 0x1B SLOAD PUSH1 0x40 MLOAD SWAP1 DUP2 MSTORE RETURN JUMPDEST CALLVALUE PUSH3 0x2FE JUMPI PUSH1 0x0 CALLDATASIZE PUSH1 0x3 NOT ADD SLT PUSH3 0x2FE JUMPI PUSH1 0x20 PUSH1 0x11 SLOAD PUSH1 0x40 MLOAD SWAP1 DUP2 MSTORE RETURN JUMPDEST CALLVALUE PUSH3 0x2FE JUMPI PUSH1 0x0 CALLDATASIZE PUSH1 0x3 NOT ADD SLT PUSH3 0x2FE JUMPI PUSH1 0x20 PUSH1 0x13 SLOAD PUSH1 0x40 MLOAD SWAP1 DUP2 MSTORE RETURN JUMPDEST CALLVALUE PUSH3 0x2FE JUMPI PUSH1 0x0 DUP1 PUSH1 0x3 NOT CALLDATASIZE ADD SLT PUSH3 0xB78 JUMPI PUSH1 0x40 MLOAD SWAP1 DUP1 PUSH1 0x5 SLOAD PUSH3 0x159C DUP2 PUSH3 0x7BB JUMP JUMPDEST DUP1 DUP6 MSTORE SWAP2 PUSH1 0x1 SWAP2 DUP1 DUP4 AND SWAP1 DUP2 ISZERO PUSH3 0xB4B JUMPI POP PUSH1 0x1 EQ PUSH3 0x15CA JUMPI PUSH3 0xA5B DUP6 PUSH3 0xADE DUP2 DUP8 SUB DUP3 PUSH3 0x39B JUMP JUMPDEST SWAP3 POP PUSH1 0x5 DUP4 MSTORE PUSH32 0x36B6384B5ECA791C62761152D0C79BB0604C104A5FB6F4EB0703F3154BB3DB0 JUMPDEST DUP3 DUP5 LT PUSH3 0x1611 JUMPI POP POP POP DUP2 ADD PUSH1 0x20 ADD PUSH3 0xADE DUP3 PUSH3 0xA5B PUSH3 0xACB JUMP JUMPDEST DUP1 SLOAD PUSH1 0x20 DUP6 DUP8 ADD DUP2 ADD SWAP2 SWAP1 SWAP2 MSTORE SWAP1 SWAP4 ADD SWAP3 DUP2 ADD PUSH3 0x15F2 JUMP JUMPDEST CALLVALUE PUSH3 0x2FE JUMPI PUSH1 0x20 CALLDATASIZE PUSH1 0x3 NOT ADD SLT PUSH3 0x2FE JUMPI PUSH1 0x0 PUSH1 0x20 PUSH3 0x16AB PUSH1 0x4 CALLDATALOAD PUSH3 0x1653 DUP2 PUSH3 0x1248 JUMP JUMPDEST PUSH3 0x165D PUSH3 0x198D JUMP JUMPDEST PUSH1 0x1 PUSH1 0x1 PUSH1 0xA0 SHL SUB PUSH1 0x9 SLOAD AND SWAP1 PUSH1 0x40 MLOAD SWAP5 DUP6 DUP1 SWAP5 DUP2 SWAP4 PUSH4 0x95EA7B3 PUSH1 0xE0 SHL DUP4 MSTORE CALLER PUSH1 0x4 DUP5 ADD SWAP1 SWAP3 SWAP2 PUSH12 0xFFFFFFFFFFFFFFFFFFFFFFFF PUSH1 0x20 SWAP2 PUSH1 0x1 PUSH1 0x1 PUSH1 0xA0 SHL SUB PUSH1 0x40 DUP6 ADD SWAP7 AND DUP5 MSTORE AND SWAP2 ADD MSTORE JUMP JUMPDEST SUB SWAP3 GAS CALL DUP1 ISZERO PUSH3 0xD80 JUMPI PUSH3 0x16BD JUMPI STOP JUMPDEST PUSH3 0x1B SWAP1 PUSH1 0x20 RETURNDATASIZE DUP2 GT PUSH3 0x14E4 JUMPI PUSH3 0x14D3 DUP2 DUP4 PUSH3 0x39B JUMP JUMPDEST CALLVALUE PUSH3 0x2FE JUMPI PUSH1 0x0 CALLDATASIZE PUSH1 0x3 NOT ADD SLT PUSH3 0x2FE JUMPI PUSH1 0x20 PUSH1 0xC SLOAD PUSH1 0x40 MLOAD SWAP1 DUP2 MSTORE RETURN JUMPDEST CALLVALUE PUSH3 0x2FE JUMPI PUSH1 0x0 CALLDATASIZE PUSH1 0x3 NOT ADD SLT PUSH3 0x2FE JUMPI PUSH1 0x20 PUSH1 0x1 PUSH1 0x1 PUSH1 0xA0 SHL SUB PUSH1 0x2 SLOAD AND PUSH1 0x40 MLOAD SWAP1 DUP2 MSTORE RETURN JUMPDEST CALLVALUE PUSH3 0x2FE JUMPI PUSH1 0x0 CALLDATASIZE PUSH1 0x3 NOT ADD SLT PUSH3 0x2FE JUMPI PUSH1 0x20 PUSH1 0x1 PUSH1 0x1 PUSH1 0xA0 SHL SUB PUSH1 0x19 SLOAD PUSH1 0x8 SHR AND PUSH1 0x40 MLOAD SWAP1 DUP2 MSTORE RETURN JUMPDEST CALLVALUE PUSH3 0x2FE JUMPI PUSH1 0x0 CALLDATASIZE PUSH1 0x3 NOT ADD SLT PUSH3 0x2FE JUMPI PUSH1 0x20 PUSH1 0x1C SLOAD PUSH1 0x40 MLOAD SWAP1 DUP2 MSTORE RETURN JUMPDEST PUSH1 0x4 CALLDATALOAD SWAP1 PUSH1 0x1 PUSH1 0x1 PUSH1 0xA0 SHL SUB DUP3 AND DUP3 SUB PUSH3 0x2FE JUMPI JUMP JUMPDEST CALLDATALOAD SWAP1 PUSH1 0x1 PUSH1 0x1 PUSH1 0xA0 SHL SUB DUP3 AND DUP3 SUB PUSH3 0x2FE JUMPI JUMP JUMPDEST CALLVALUE PUSH3 0x2FE JUMPI PUSH1 0x20 CALLDATASIZE PUSH1 0x3 NOT ADD SLT PUSH3 0x2FE JUMPI PUSH1 0x1 PUSH1 0x1 PUSH1 0xA0 SHL SUB PUSH3 0x17BE PUSH3 0x176D JUMP JUMPDEST PUSH3 0x17C8 PUSH3 0x198D JUMP JUMPDEST AND CALLER DUP2 EQ PUSH3 0x182E JUMPI DUP1 PUSH20 0xFFFFFFFFFFFFFFFFFFFFFFFFFFFFFFFFFFFFFFFF NOT PUSH1 0x1 SLOAD AND OR PUSH1 0x1 SSTORE PUSH3 0x1807 PUSH3 0xCB3 PUSH1 0x0 SLOAD PUSH1 0x1 PUSH1 0x1 PUSH1 0xA0 SHL SUB AND SWAP1 JUMP JUMPDEST PUSH32 0xED8889F560326EB138920D842192F0EB3DD22B4F139C87A2C57538E05BAE1278 PUSH1 0x0 DUP1 LOG3 STOP JUMPDEST PUSH1 0x64 PUSH1 0x40 MLOAD PUSH3 0x461BCD PUSH1 0xE5 SHL DUP2 MSTORE PUSH1 0x20 PUSH1 0x4 DUP3 ADD MSTORE PUSH1 0x17 PUSH1 0x24 DUP3 ADD MSTORE PUSH32 0x43616E6E6F74207472616E7366657220746F2073656C66000000000000000000 PUSH1 0x44 DUP3 ADD MSTORE REVERT JUMPDEST CALLVALUE PUSH3 0x2FE JUMPI PUSH1 0x0 CALLDATASIZE PUSH1 0x3 NOT ADD SLT PUSH3 0x2FE JUMPI PUSH1 0x20 PUSH1 0x16 SLOAD PUSH1 0x40 MLOAD SWAP1 DUP2 MSTORE RETURN JUMPDEST CALLVALUE PUSH3 0x2FE JUMPI PUSH1 0x0 CALLDATASIZE PUSH1 0x3 NOT ADD SLT PUSH3 0x2FE JUMPI PUSH1 0x20 PUSH4 0xFFFFFFFF PUSH1 0xE SLOAD AND PUSH1 0x40 MLOAD SWAP1 DUP2 MSTORE RETURN JUMPDEST CALLVALUE PUSH3 0x2FE JUMPI PUSH1 0x0 CALLDATASIZE PUSH1 0x3 NOT ADD SLT PUSH3 0x2FE JUMPI PUSH1 0x20 PUSH1 0x8 SLOAD PUSH1 0x40 MLOAD SWAP1 DUP2 MSTORE RETURN JUMPDEST CALLVALUE PUSH3 0x2FE JUMPI PUSH1 0x0 DUP1 PUSH1 0x3 NOT CALLDATASIZE ADD SLT PUSH3 0xB78 JUMPI PUSH1 0x40 MLOAD SWAP1 DUP1 PUSH1 0x6 SLOAD PUSH3 0x18FF DUP2 PUSH3 0x7BB JUMP JUMPDEST DUP1 DUP6 MSTORE SWAP2 PUSH1 0x1 SWAP2 DUP1 DUP4 AND SWAP1 DUP2 ISZERO PUSH3 0xB4B JUMPI POP PUSH1 0x1 EQ PUSH3 0x192D JUMPI PUSH3 0xA5B DUP6 PUSH3 0xADE DUP2 DUP8 SUB DUP3 PUSH3 0x39B JUMP JUMPDEST SWAP3 POP PUSH1 0x6 DUP4 MSTORE PUSH32 0xF652222313E28459528D920B65115C16C04F3EFC82AAEDC97BE59F3F377C0D3F JUMPDEST DUP3 DUP5 LT PUSH3 0x1974 JUMPI POP POP POP DUP2 ADD PUSH1 0x20 ADD PUSH3 0xADE DUP3 PUSH3 0xA5B PUSH3 0xACB JUMP JUMPDEST DUP1 SLOAD PUSH1 0x20 DUP6 DUP8 ADD DUP2 ADD SWAP2 SWAP1 SWAP2 MSTORE SWAP1 SWAP4 ADD SWAP3 DUP2 ADD PUSH3 0x1955 JUMP JUMPDEST PUSH1 0x1 PUSH1 0x1 PUSH1 0xA0 SHL SUB PUSH1 0x0 SLOAD AND CALLER SUB PUSH3 0x19A2 JUMPI JUMP JUMPDEST PUSH1 0x64 PUSH1 0x40 MLOAD PUSH3 0x461BCD PUSH1 0xE5 SHL DUP2 MSTORE PUSH1 0x20 PUSH1 0x4 DUP3 ADD MSTORE PUSH1 0x16 PUSH1 0x24 DUP3 ADD MSTORE PUSH32 0x4F6E6C792063616C6C61626C65206279206F776E657200000000000000000000 PUSH1 0x44 DUP3 ADD MSTORE REVERT JUMPDEST SWAP1 DUP2 PUSH1 0x20 SWAP2 SUB SLT PUSH3 0x2FE JUMPI MLOAD DUP1 ISZERO ISZERO DUP2 SUB PUSH3 0x2FE JUMPI SWAP1 JUMP JUMPDEST PUSH1 0x40 MLOAD RETURNDATASIZE PUSH1 0x0 DUP3 RETURNDATACOPY RETURNDATASIZE SWAP1 REVERT JUMPDEST SWAP1 DUP2 PUSH1 0x20 SWAP2 SUB SLT PUSH3 0x2FE JUMPI MLOAD SWAP1 JUMP JUMPDEST SWAP1 CALLDATALOAD PUSH1 0x1E NOT DUP3 CALLDATASIZE SUB ADD DUP2 SLT ISZERO PUSH3 0x2FE JUMPI ADD PUSH1 0x20 DUP2 CALLDATALOAD SWAP2 ADD SWAP2 PUSH8 0xFFFFFFFFFFFFFFFF DUP3 GT PUSH3 0x2FE JUMPI DUP2 CALLDATASIZE SUB DUP4 SGT PUSH3 0x2FE JUMPI JUMP JUMPDEST SWAP1 DUP1 PUSH1 0x20 SWAP4 SWAP3 DUP2 DUP5 MSTORE DUP5 DUP5 ADD CALLDATACOPY PUSH1 0x0 DUP3 DUP3 ADD DUP5 ADD MSTORE PUSH1 0x1F ADD PUSH1 0x1F NOT AND ADD ADD SWAP1 JUMP JUMPDEST CALLDATALOAD SWAP1 PUSH4 0xFFFFFFFF DUP3 AND DUP3 SUB PUSH3 0x2FE JUMPI JUMP JUMPDEST CALLDATALOAD SWAP1 PUSH1 0xFF DUP3 AND DUP3 SUB PUSH3 0x2FE JUMPI JUMP JUMPDEST SWAP3 SWAP2 PUSH1 0x20 PUSH3 0x839 SWAP3 PUSH1 0x40 DUP7 MSTORE PUSH3 0x1C07 PUSH3 0x1BF1 PUSH3 0x1AD5 PUSH3 0x1BE9 DUP10 PUSH3 0x1ABD DUP7 DUP1 PUSH3 0x1A1C JUMP JUMPDEST SWAP4 SWAP1 PUSH2 0x140 SWAP5 DUP6 PUSH1 0x40 DUP6 ADD MSTORE PUSH2 0x180 DUP5 ADD SWAP2 PUSH3 0x1A51 JUMP JUMPDEST SWAP3 PUSH3 0x1BA2 PUSH3 0x1B01 PUSH3 0x1AEC DUP11 DUP11 ADD DUP11 PUSH3 0x1A1C JUMP JUMPDEST PUSH1 0x3F NOT DUP7 DUP10 SUB DUP2 ADD PUSH1 0x60 DUP9 ADD MSTORE SWAP8 SWAP2 PUSH3 0x1A51 JUMP JUMPDEST PUSH3 0x1B23 PUSH3 0x1B13 PUSH1 0x40 DUP12 ADD PUSH3 0x1784 JUMP JUMPDEST PUSH1 0x1 PUSH1 0x1 PUSH1 0xA0 SHL SUB AND PUSH1 0x80 DUP7 ADD MSTORE JUMP JUMPDEST PUSH3 0x1B42 PUSH3 0x1B35 PUSH1 0x60 DUP12 ADD PUSH3 0x1A72 JUMP JUMPDEST PUSH4 0xFFFFFFFF AND PUSH1 0xA0 DUP7 ADD MSTORE JUMP JUMPDEST PUSH3 0x1B64 PUSH3 0x1B54 PUSH1 0x80 DUP12 ADD PUSH3 0x1784 JUMP JUMPDEST PUSH1 0x1 PUSH1 0x1 PUSH1 0xA0 SHL SUB AND PUSH1 0xC0 DUP7 ADD MSTORE JUMP JUMPDEST PUSH3 0x1B80 PUSH3 0x1B76 PUSH1 0xA0 DUP12 ADD PUSH3 0x1A84 JUMP JUMPDEST PUSH1 0xFF AND PUSH1 0xE0 DUP7 ADD MSTORE JUMP JUMPDEST PUSH3 0x1B8F PUSH1 0xC0 DUP11 ADD DUP11 PUSH3 0x1A1C JUMP JUMPDEST DUP6 DUP4 SUB DUP9 ADD PUSH2 0x100 SWAP7 DUP8 ADD MSTORE SWAP1 PUSH3 0x1A51 JUMP JUMPDEST SWAP4 DUP13 PUSH3 0x1BD9 PUSH3 0x1BCF PUSH3 0x1BBB PUSH1 0xE0 DUP13 ADD DUP13 PUSH3 0x1A1C JUMP JUMPDEST PUSH2 0x120 SWAP10 SWAP2 DUP7 DUP7 DUP5 SUB ADD DUP12 DUP8 ADD MSTORE PUSH3 0x1A51 JUMP JUMPDEST SWAP5 DUP11 ADD DUP11 PUSH3 0x1A1C JUMP JUMPDEST SWAP4 SWAP1 SWAP3 DUP3 DUP7 SUB ADD SWAP2 ADD MSTORE PUSH3 0x1A51 JUMP JUMPDEST SWAP4 ADD PUSH3 0x125F JUMP JUMPDEST PUSH12 0xFFFFFFFFFFFFFFFFFFFFFFFF AND PUSH2 0x160 DUP9 ADD MSTORE JUMP JUMPDEST SWAP5 ADD SWAP1 PUSH1 0x1 PUSH1 0x1 PUSH1 0xA0 SHL SUB AND SWAP1 MSTORE JUMP JUMPDEST PUSH4 0x4E487B71 PUSH1 0xE0 SHL PUSH1 0x0 MSTORE PUSH1 0x11 PUSH1 0x4 MSTORE PUSH1 0x24 PUSH1 0x0 REVERT JUMPDEST PUSH1 0x1F NOT DUP2 ADD SWAP2 SWAP1 DUP3 GT PUSH3 0x10DA JUMPI JUMP JUMPDEST PUSH1 0x10 SLOAD TIMESTAMP SUB TIMESTAMP DUP2 GT PUSH3 0x10DA JUMPI PUSH1 0x8 SLOAD LT SWAP1 PUSH1 0x60 SWAP1 JUMP JUMPDEST ISZERO PUSH3 0x1C5C JUMPI JUMP JUMPDEST PUSH1 0x64 PUSH1 0x40 MLOAD PUSH3 0x461BCD PUSH1 0xE5 SHL DUP2 MSTORE PUSH1 0x20 PUSH1 0x4 DUP3 ADD MSTORE PUSH1 0x15 PUSH1 0x24 DUP3 ADD MSTORE PUSH32 0x55706B656570206E6F7420726567697374657265640000000000000000000000 PUSH1 0x44 DUP3 ADD MSTORE REVERT JUMPDEST PUSH1 0x40 MLOAD SWAP1 PUSH1 0x20 DUP3 ADD DUP3 DUP2 LT PUSH8 0xFFFFFFFFFFFFFFFF DUP3 GT OR PUSH3 0x378 JUMPI PUSH1 0x40 MSTORE PUSH1 0x0 DUP3 MSTORE JUMP JUMPDEST ISZERO PUSH3 0x1CCD JUMPI JUMP JUMPDEST PUSH1 0x64 PUSH1 0x40 MLOAD PUSH3 0x461BCD PUSH1 0xE5 SHL DUP2 MSTORE PUSH1 0x20 PUSH1 0x4 DUP3 ADD MSTORE PUSH1 0x15 PUSH1 0x24 DUP3 ADD MSTORE PUSH32 0x54696D6520696E74657276616C206E6F74206D65740000000000000000000000 PUSH1 0x44 DUP3 ADD MSTORE REVERT JUMPDEST SWAP1 PUSH1 0x1 DUP3 ADD DUP1 SWAP3 GT PUSH3 0x10DA JUMPI JUMP JUMPDEST SWAP1 PUSH1 0x20 DUP3 ADD DUP1 SWAP3 GT PUSH3 0x10DA JUMPI JUMP JUMPDEST SWAP2 SWAP1 DUP3 ADD DUP1 SWAP3 GT PUSH3 0x10DA JUMPI JUMP JUMPDEST PUSH1 0x40 MLOAD SWAP1 PUSH1 0xE0 DUP3 ADD DUP3 DUP2 LT PUSH8 0xFFFFFFFFFFFFFFFF DUP3 GT OR PUSH3 0x378 JUMPI PUSH1 0x40 MSTORE PUSH1 0x60 PUSH1 0xC0 DUP4 PUSH1 0x0 DUP2 MSTORE PUSH1 0x0 PUSH1 0x20 DUP3 ADD MSTORE PUSH1 0x0 PUSH1 0x40 DUP3 ADD MSTORE DUP3 DUP1 DUP3 ADD MSTORE DUP3 PUSH1 0x80 DUP3 ADD MSTORE DUP3 PUSH1 0xA0 DUP3 ADD MSTORE ADD MSTORE JUMP JUMPDEST PUSH1 0x1D SLOAD SWAP1 PUSH8 0xFFFFFFFFFFFFFFFF DUP3 GT PUSH3 0x378 JUMPI PUSH1 0x40 MLOAD SWAP2 PUSH1 0x20 PUSH3 0x1DB3 DUP2 DUP4 PUSH1 0x5 SHL ADD DUP6 PUSH3 0x39B JUMP JUMPDEST DUP2 DUP5 MSTORE DUP1 DUP5 ADD SWAP1 PUSH1 0x1D PUSH1 0x0 MSTORE PUSH32 0x6D4407E7BE21F808E6509AA9FA9143369579DD7D760FE20A2C09680FC146134F PUSH1 0x0 SWAP3 JUMPDEST DUP5 DUP5 LT PUSH3 0x1DF3 JUMPI POP POP POP POP POP JUMP JUMPDEST PUSH1 0x1 DUP4 DUP2 SWAP3 PUSH3 0x1E03 DUP6 PUSH3 0x8C2 JUMP JUMPDEST DUP2 MSTORE ADD SWAP3 ADD SWAP4 ADD SWAP3 SWAP1 PUSH3 0x1DE4 JUMP JUMPDEST SWAP1 PUSH3 0x1E42 PUSH1 0x80 SWAP4 PUSH8 0xFFFFFFFFFFFFFFFF PUSH4 0xFFFFFFFF SWAP4 SWAP9 SWAP8 SWAP7 SWAP9 AND DUP5 MSTORE PUSH1 0xA0 PUSH1 0x20 DUP6 ADD MSTORE PUSH1 0xA0 DUP5 ADD SWAP1 PUSH3 0x997 JUMP JUMPDEST SWAP6 PUSH1 0x1 PUSH1 0x40 DUP5 ADD MSTORE AND PUSH1 0x60 DUP3 ADD MSTORE ADD MSTORE JUMP JUMPDEST PUSH1 0x0 SWAP1 PUSH1 0x3 RETURNDATASIZE GT PUSH3 0x1E62 JUMPI JUMP JUMPDEST SWAP1 POP PUSH1 0x4 PUSH1 0x0 DUP1 RETURNDATACOPY PUSH1 0x0 MLOAD PUSH1 0xE0 SHR SWAP1 JUMP JUMPDEST PUSH1 0x0 PUSH1 0x44 RETURNDATASIZE LT PUSH3 0x9EC JUMPI PUSH1 0x40 MLOAD PUSH1 0x3 NOT SWAP2 RETURNDATASIZE DUP4 ADD PUSH1 0x4 DUP4 RETURNDATACOPY DUP2 MLOAD PUSH8 0xFFFFFFFFFFFFFFFF SWAP2 DUP3 DUP3 GT RETURNDATASIZE PUSH1 0x24 DUP5 ADD GT OR PUSH3 0x1ED7 JUMPI DUP2 DUP5 ADD SWAP5 DUP6 MLOAD SWAP4 DUP5 GT PUSH3 0x1EDF JUMPI RETURNDATASIZE DUP6 ADD ADD PUSH1 0x20 DUP5 DUP8 ADD ADD GT PUSH3 0x1ED7 JUMPI POP PUSH3 0x9EC SWAP3 SWAP2 ADD PUSH1 0x20 ADD SWAP1 PUSH3 0x39B JUMP JUMPDEST SWAP5 SWAP4 POP POP POP POP JUMP JUMPDEST POP SWAP5 SWAP4 POP POP POP POP JUMP JUMPDEST RETURNDATASIZE ISZERO PUSH3 0x1F18 JUMPI RETURNDATASIZE SWAP1 PUSH3 0x1EFC DUP3 PUSH3 0x3BE JUMP JUMPDEST SWAP2 PUSH3 0x1F0C PUSH1 0x40 MLOAD SWAP4 DUP5 PUSH3 0x39B JUMP JUMPDEST DUP3 MSTORE RETURNDATASIZE PUSH1 0x0 PUSH1 0x20 DUP5 ADD RETURNDATACOPY JUMP JUMPDEST PUSH1 0x60 SWAP1 JUMP JUMPDEST SWAP1 PUSH8 0xFFFFFFFFFFFFFFFF SWAP1 SWAP5 SWAP4 SWAP3 SWAP5 AND DUP2 MSTORE PUSH1 0x20 SWAP4 PUSH1 0xA0 DUP6 DUP4 ADD MSTORE PUSH1 0x0 PUSH1 0x3 SLOAD SWAP6 PUSH3 0x1F49 DUP8 PUSH3 0x7BB JUMP JUMPDEST SWAP1 DUP2 PUSH1 0xA0 DUP7 ADD MSTORE PUSH1 0x1 SWAP8 DUP9 DUP2 AND SWAP1 DUP2 PUSH1 0x0 EQ PUSH3 0x1FE4 JUMPI POP PUSH1 0x1 EQ PUSH3 0x1F85 JUMPI JUMPDEST POP POP PUSH1 0x40 DUP4 ADD SWAP6 SWAP1 SWAP6 MSTORE PUSH4 0xFFFFFFFF AND PUSH1 0x60 DUP3 ADD MSTORE PUSH1 0x80 ADD MSTORE JUMP JUMPDEST PUSH1 0x3 PUSH1 0x0 SWAP1 DUP2 MSTORE SWAP3 POP DUP8 PUSH32 0xC2575A0E9E593C00F959F8C92F12DB2869C3395A3B0502D05E2516446F71F85B JUMPDEST DUP4 DUP6 LT PUSH3 0x1FCE JUMPI POP POP POP POP DUP3 ADD PUSH1 0xC0 ADD DUP2 PUSH4 0xFFFFFFFF PUSH3 0x1F6A JUMP JUMPDEST DUP1 SLOAD DUP8 DUP7 ADD PUSH1 0xC0 ADD MSTORE SWAP4 DUP3 ADD SWAP4 DUP10 SWAP2 ADD PUSH3 0x1FB1 JUMP JUMPDEST PUSH1 0xFF NOT AND PUSH1 0xC0 DUP8 DUP2 ADD SWAP2 SWAP1 SWAP2 MSTORE SWAP3 ISZERO ISZERO PUSH1 0x5 SHL DUP7 ADD SWAP1 SWAP3 ADD SWAP3 POP DUP4 SWAP2 POP PUSH4 0xFFFFFFFF SWAP1 POP PUSH3 0x1F6A JUMP JUMPDEST PUSH3 0x201D PUSH1 0xC SLOAD ISZERO ISZERO PUSH3 0x1C54 JUMP JUMPDEST PUSH3 0x2027 PUSH3 0x1CA0 JUMP JUMPDEST POP PUSH3 0x203D PUSH3 0x2036 PUSH3 0x1C3D JUMP JUMPDEST POP PUSH3 0x1CC5 JUMP JUMPDEST PUSH3 0x2047 TIMESTAMP PUSH1 0x10 SSTORE JUMP JUMPDEST PUSH3 0x205D PUSH3 0x2058 PUSH1 0x11 SLOAD PUSH3 0x1D11 JUMP JUMPDEST PUSH1 0x11 SSTORE JUMP JUMPDEST PUSH1 0x1C SLOAD PUSH1 0x1D SLOAD LT ISZERO PUSH3 0x221C JUMPI PUSH3 0x2080 PUSH3 0x207B PUSH1 0x16 SLOAD PUSH3 0x1D11 JUMP JUMPDEST PUSH1 0x16 SSTORE JUMP JUMPDEST PUSH1 0x7 SLOAD PUSH8 0xFFFFFFFFFFFFFFFF AND PUSH1 0x20 PUSH3 0x209F PUSH1 0xE SLOAD PUSH4 0xFFFFFFFF AND SWAP1 JUMP JUMPDEST PUSH1 0xF SLOAD SWAP3 PUSH3 0x20C3 PUSH1 0x40 MLOAD SWAP5 DUP6 SWAP4 DUP5 SWAP4 PUSH4 0x230E93B1 PUSH1 0xE1 SHL DUP6 MSTORE PUSH1 0x4 DUP6 ADD PUSH3 0x1F1D JUMP JUMPDEST SUB DUP2 PUSH1 0x0 PUSH1 0x1 PUSH1 0x1 PUSH1 0xA0 SHL SUB PUSH32 0x0 AND GAS CALL PUSH1 0x0 SWAP2 DUP2 PUSH3 0x21F7 JUMPI JUMPDEST POP PUSH3 0x21B0 JUMPI POP PUSH1 0x1 PUSH3 0x2110 PUSH3 0x1E54 JUMP JUMPDEST PUSH4 0x8C379A0 EQ PUSH3 0x2157 JUMPI JUMPDEST PUSH3 0x2123 JUMPI JUMP JUMPDEST PUSH32 0x9C4BFA18304482256875C29FABB1A44A5ECD325F214EA17BAB8F31E869FAF4C8 PUSH3 0x2152 PUSH3 0xADE PUSH3 0x1EE8 JUMP JUMPDEST SUB SWAP1 LOG1 JUMP JUMPDEST PUSH3 0x2161 PUSH3 0x1E73 JUMP JUMPDEST DUP1 PUSH3 0x216F JUMPI JUMPDEST POP PUSH3 0x211C JUMP JUMPDEST SWAP1 POP PUSH32 0x2BA61E3733E7AC99181C22307780F651EC8FD92FE661A84DFBE711710B2DC36C PUSH3 0x21A6 PUSH1 0x0 SWAP3 PUSH1 0x40 MLOAD SWAP2 DUP3 SWAP2 DUP3 PUSH3 0x9D9 JUMP JUMPDEST SUB SWAP1 LOG1 CODESIZE PUSH3 0x2168 JUMP JUMPDEST PUSH3 0x21BA DUP2 PUSH1 0x13 SSTORE JUMP JUMPDEST PUSH3 0x21D0 PUSH3 0x21CB PUSH1 0x17 SLOAD PUSH3 0x1D11 JUMP JUMPDEST PUSH1 0x17 SSTORE JUMP JUMPDEST PUSH32 0x1131472297A800FEE664D1D89CFA8F7676FF07189ECC53F80BBB5F4969099DB8 PUSH1 0x0 DUP1 LOG2 JUMP JUMPDEST PUSH3 0x2214 SWAP2 SWAP3 POP PUSH1 0x20 RETURNDATASIZE DUP2 GT PUSH3 0xD78 JUMPI PUSH3 0xD68 DUP2 DUP4 PUSH3 0x39B JUMP JUMPDEST SWAP1 CODESIZE PUSH3 0x20FD JUMP JUMPDEST PUSH3 0x222F PUSH1 0x1 PUSH1 0xFF NOT PUSH1 0x19 SLOAD AND OR PUSH1 0x19 SSTORE JUMP JUMPDEST PUSH3 0x226D PUSH3 0x223D PUSH3 0x1D3D JUMP JUMPDEST PUSH3 0x2252 PUSH3 0x224B PUSH3 0x7F8 JUMP JUMPDEST DUP3 PUSH3 0x285F JUMP JUMPDEST PUSH3 0x2267 PUSH3 0x2260 PUSH3 0x1D88 JUMP JUMPDEST DUP3 PUSH3 0x28A1 JUMP JUMPDEST PUSH3 0x2622 JUMP JUMPDEST PUSH3 0x227E PUSH3 0x207B PUSH1 0x16 SLOAD PUSH3 0x1D11 JUMP JUMPDEST PUSH1 0x20 PUSH3 0x2294 PUSH1 0x7 SLOAD PUSH8 0xFFFFFFFFFFFFFFFF AND SWAP1 JUMP JUMPDEST SWAP2 PUSH3 0x22A5 PUSH1 0xE SLOAD PUSH4 0xFFFFFFFF AND SWAP1 JUMP JUMPDEST SWAP3 PUSH3 0x22C9 PUSH1 0xF SLOAD PUSH1 0x40 MLOAD SWAP6 DUP7 SWAP5 DUP6 SWAP5 PUSH4 0x230E93B1 PUSH1 0xE1 SHL DUP7 MSTORE PUSH1 0x4 DUP7 ADD PUSH3 0x1E12 JUMP JUMPDEST SUB DUP2 PUSH1 0x0 PUSH1 0x1 PUSH1 0x1 PUSH1 0xA0 SHL SUB PUSH32 0x0 AND GAS CALL PUSH1 0x0 SWAP2 DUP2 PUSH3 0x2409 JUMPI JUMPDEST POP PUSH3 0x23C3 JUMPI POP PUSH1 0x1 PUSH3 0x2316 PUSH3 0x1E54 JUMP JUMPDEST PUSH4 0x8C379A0 EQ PUSH3 0x236A JUMPI JUMPDEST PUSH3 0x2332 JUMPI JUMPDEST PUSH3 0x839 PUSH3 0x3492 JUMP JUMPDEST PUSH32 0x9C4BFA18304482256875C29FABB1A44A5ECD325F214EA17BAB8F31E869FAF4C8 PUSH3 0x2361 PUSH3 0xADE PUSH3 0x1EE8 JUMP JUMPDEST SUB SWAP1 LOG1 PUSH3 0x2328 JUMP JUMPDEST PUSH3 0x2374 PUSH3 0x1E73 JUMP JUMPDEST DUP1 PUSH3 0x2382 JUMPI JUMPDEST POP PUSH3 0x2322 JUMP JUMPDEST SWAP1 POP PUSH32 0x2BA61E3733E7AC99181C22307780F651EC8FD92FE661A84DFBE711710B2DC36C PUSH3 0x23B9 PUSH1 0x0 SWAP3 PUSH1 0x40 MLOAD SWAP2 DUP3 SWAP2 DUP3 PUSH3 0x9D9 JUMP JUMPDEST SUB SWAP1 LOG1 CODESIZE PUSH3 0x237B JUMP JUMPDEST PUSH3 0x23CD DUP2 PUSH1 0x13 SSTORE JUMP JUMPDEST PUSH3 0x23DE PUSH3 0x21CB PUSH1 0x17 SLOAD PUSH3 0x1D11 JUMP JUMPDEST PUSH32 0x1131472297A800FEE664D1D89CFA8F7676FF07189ECC53F80BBB5F4969099DB8 PUSH1 0x0 DUP1 LOG2 PUSH3 0x2328 JUMP JUMPDEST PUSH3 0x2426 SWAP2 SWAP3 POP PUSH1 0x20 RETURNDATASIZE DUP2 GT PUSH3 0xD78 JUMPI PUSH3 0xD68 DUP2 DUP4 PUSH3 0x39B JUMP JUMPDEST SWAP1 CODESIZE PUSH3 0x2303 JUMP JUMPDEST PUSH1 0x40 MLOAD SWAP1 PUSH3 0x243D DUP3 PUSH3 0x37E JUMP JUMPDEST PUSH1 0xC DUP3 MSTORE PUSH32 0x636F64654C6F636174696F6E0000000000000000000000000000000000000000 PUSH1 0x20 DUP4 ADD MSTORE JUMP JUMPDEST PUSH4 0x4E487B71 PUSH1 0xE0 SHL PUSH1 0x0 MSTORE PUSH1 0x21 PUSH1 0x4 MSTORE PUSH1 0x24 PUSH1 0x0 REVERT JUMPDEST PUSH1 0x3 GT ISZERO PUSH3 0x248A JUMPI JUMP JUMPDEST PUSH3 0x2469 JUMP JUMPDEST PUSH1 0x40 MLOAD SWAP1 PUSH3 0x249F DUP3 PUSH3 0x37E JUMP JUMPDEST PUSH1 0x8 DUP3 MSTORE PUSH32 0x6C616E6775616765000000000000000000000000000000000000000000000000 PUSH1 0x20 DUP4 ADD MSTORE JUMP JUMPDEST PUSH1 0x1 GT ISZERO PUSH3 0x248A JUMPI JUMP JUMPDEST PUSH1 0x40 MLOAD SWAP1 PUSH3 0x24E5 DUP3 PUSH3 0x37E JUMP JUMPDEST PUSH1 0x6 DUP3 MSTORE PUSH32 0x736F757263650000000000000000000000000000000000000000000000000000 PUSH1 0x20 DUP4 ADD MSTORE JUMP JUMPDEST PUSH1 0x40 MLOAD SWAP1 PUSH3 0x2520 DUP3 PUSH3 0x37E JUMP JUMPDEST PUSH1 0x4 DUP3 MSTORE PUSH32 0x6172677300000000000000000000000000000000000000000000000000000000 PUSH1 0x20 DUP4 ADD MSTORE JUMP JUMPDEST PUSH1 0x0 NOT DUP2 EQ PUSH3 0x10DA JUMPI PUSH1 0x1 ADD SWAP1 JUMP JUMPDEST DUP1 MLOAD DUP3 LT ISZERO PUSH3 0x79F JUMPI PUSH1 0x20 SWAP2 PUSH1 0x5 SHL ADD ADD SWAP1 JUMP JUMPDEST PUSH1 0x40 MLOAD SWAP1 PUSH3 0x2580 DUP3 PUSH3 0x37E JUMP JUMPDEST PUSH1 0xF DUP3 MSTORE PUSH32 0x736563726574734C6F636174696F6E0000000000000000000000000000000000 PUSH1 0x20 DUP4 ADD MSTORE JUMP JUMPDEST PUSH1 0x40 MLOAD SWAP1 PUSH3 0x25BB DUP3 PUSH3 0x37E JUMP JUMPDEST PUSH1 0x7 DUP3 MSTORE PUSH32 0x7365637265747300000000000000000000000000000000000000000000000000 PUSH1 0x20 DUP4 ADD MSTORE JUMP JUMPDEST PUSH1 0x40 MLOAD SWAP1 PUSH3 0x25F6 DUP3 PUSH3 0x37E JUMP JUMPDEST PUSH1 0x9 DUP3 MSTORE PUSH32 0x6279746573417267730000000000000000000000000000000000000000000000 PUSH1 0x20 DUP4 ADD MSTORE JUMP JUMPDEST PUSH3 0x262C PUSH3 0x28F5 JUMP JUMPDEST SWAP1 PUSH3 0x2642 PUSH3 0x263B PUSH3 0x242E JUMP JUMPDEST DUP4 PUSH3 0x30EA JUMP JUMPDEST PUSH3 0x2665 DUP2 MLOAD PUSH3 0x2653 DUP2 PUSH3 0x247F JUMP JUMPDEST PUSH3 0x265E DUP2 PUSH3 0x247F JUMP JUMPDEST DUP4 PUSH3 0x29A5 JUMP JUMPDEST PUSH3 0x2673 PUSH3 0x263B PUSH3 0x2490 JUMP JUMPDEST PUSH3 0x2692 PUSH1 0x40 DUP3 ADD MLOAD PUSH3 0x2687 DUP2 PUSH3 0x24CB JUMP JUMPDEST PUSH3 0x265E DUP2 PUSH3 0x24CB JUMP JUMPDEST PUSH3 0x26A0 PUSH3 0x263B PUSH3 0x24D6 JUMP JUMPDEST PUSH3 0x26B0 PUSH1 0x60 DUP3 ADD MLOAD DUP4 PUSH3 0x30EA JUMP JUMPDEST PUSH1 0xA0 DUP2 ADD DUP1 MLOAD MLOAD PUSH3 0x27F6 JUMPI JUMPDEST POP PUSH1 0x80 DUP2 ADD SWAP1 DUP2 MLOAD MLOAD PUSH3 0x2748 JUMPI JUMPDEST PUSH1 0xC0 SWAP2 POP ADD DUP1 MLOAD MLOAD PUSH3 0x26E0 JUMPI JUMPDEST POP MLOAD MLOAD SWAP1 JUMP JUMPDEST SWAP2 PUSH3 0x26EF PUSH3 0x263B PUSH3 0x25E7 JUMP JUMPDEST PUSH3 0x26FA DUP3 PUSH3 0x3182 JUMP JUMPDEST PUSH1 0x0 JUMPDEST DUP4 MLOAD DUP1 MLOAD DUP3 LT ISZERO PUSH3 0x2732 JUMPI SWAP1 PUSH3 0x2726 PUSH3 0x271E DUP3 PUSH3 0x272C SWAP5 PUSH3 0x255C JUMP JUMPDEST MLOAD DUP6 PUSH3 0x301B JUMP JUMPDEST PUSH3 0x254C JUMP JUMPDEST PUSH3 0x26FD JUMP JUMPDEST POP POP SWAP2 POP PUSH3 0x2741 DUP2 PUSH3 0x321A JUMP JUMPDEST CODESIZE PUSH3 0x26DA JUMP JUMPDEST PUSH1 0x20 DUP2 ADD DUP1 MLOAD PUSH3 0x2759 DUP2 PUSH3 0x247F JUMP JUMPDEST PUSH3 0x2764 DUP2 PUSH3 0x247F JUMP JUMPDEST ISZERO PUSH3 0x27CC JUMPI PUSH1 0xC0 SWAP3 PUSH3 0x27A9 PUSH3 0x27C6 SWAP3 PUSH3 0x278B PUSH3 0x2784 PUSH3 0x2571 JUMP JUMPDEST DUP9 PUSH3 0x30EA JUMP JUMPDEST MLOAD PUSH3 0x2797 DUP2 PUSH3 0x247F JUMP JUMPDEST PUSH3 0x27A2 DUP2 PUSH3 0x247F JUMP JUMPDEST DUP7 PUSH3 0x29A5 JUMP JUMPDEST PUSH3 0x27BE PUSH3 0x27B7 PUSH3 0x25AC JUMP JUMPDEST DUP7 PUSH3 0x30EA JUMP JUMPDEST MLOAD DUP5 PUSH3 0x301B JUMP JUMPDEST PUSH3 0x26CC JUMP JUMPDEST PUSH1 0x4 PUSH1 0x40 MLOAD PUSH32 0xA80D31F700000000000000000000000000000000000000000000000000000000 DUP2 MSTORE REVERT JUMPDEST SWAP3 PUSH3 0x280C PUSH3 0x2805 PUSH3 0x2511 JUMP JUMPDEST DUP5 PUSH3 0x30EA JUMP JUMPDEST PUSH3 0x2817 DUP4 PUSH3 0x3182 JUMP JUMPDEST PUSH1 0x0 JUMPDEST DUP5 MLOAD DUP1 MLOAD DUP3 LT ISZERO PUSH3 0x2849 JUMPI SWAP1 PUSH3 0x2726 PUSH3 0x283B DUP3 PUSH3 0x2843 SWAP5 PUSH3 0x255C JUMP JUMPDEST MLOAD DUP7 PUSH3 0x30EA JUMP JUMPDEST PUSH3 0x281A JUMP JUMPDEST POP POP SWAP3 POP PUSH3 0x2858 DUP3 PUSH3 0x321A JUMP JUMPDEST CODESIZE PUSH3 0x26BD JUMP JUMPDEST DUP2 MLOAD ISZERO PUSH3 0x2877 JUMPI PUSH1 0x0 DUP1 DUP3 MSTORE PUSH1 0x40 DUP3 ADD MSTORE PUSH1 0x60 ADD MSTORE JUMP JUMPDEST PUSH1 0x4 PUSH1 0x40 MLOAD PUSH32 0x22CE3EDD00000000000000000000000000000000000000000000000000000000 DUP2 MSTORE REVERT JUMPDEST DUP2 MLOAD ISZERO PUSH3 0x28AF JUMPI PUSH1 0xA0 ADD MSTORE JUMP JUMPDEST PUSH1 0x4 PUSH1 0x40 MLOAD PUSH32 0xFE936CB700000000000000000000000000000000000000000000000000000000 DUP2 MSTORE REVERT JUMPDEST PUSH1 0x40 MLOAD SWAP1 PUSH3 0x28E8 DUP3 PUSH3 0x37E JUMP JUMPDEST PUSH1 0x0 PUSH1 0x20 DUP4 PUSH1 0x60 DUP2 MSTORE ADD MSTORE JUMP JUMPDEST PUSH1 0x40 MLOAD PUSH3 0x2903 DUP2 PUSH3 0x37E JUMP JUMPDEST PUSH3 0x290D PUSH3 0x28D9 JUMP JUMPDEST DUP1 DUP3 MSTORE PUSH1 0x20 DUP3 ADD PUSH1 0x0 DUP2 MSTORE PUSH3 0x2922 PUSH3 0x28D9 JUMP JUMPDEST POP PUSH2 0x100 PUSH1 0x20 DUP4 ADD MSTORE PUSH1 0x40 MLOAD DUP1 SWAP3 MSTORE PUSH1 0x0 DUP3 MSTORE PUSH2 0x120 DUP3 ADD SWAP2 DUP3 LT PUSH3 0x2FE JUMPI PUSH1 0x0 SWAP2 PUSH1 0x40 MSTORE MSTORE SWAP1 JUMP JUMPDEST SWAP1 PUSH3 0x2957 PUSH3 0x28D9 JUMP JUMPDEST POP PUSH1 0x1F DUP2 AND DUP1 PUSH3 0x2988 JUMPI JUMPDEST POP DUP1 PUSH1 0x20 DUP4 ADD MSTORE PUSH1 0x40 MLOAD SWAP1 DUP2 DUP4 MSTORE PUSH1 0x0 DUP3 MSTORE DUP2 ADD PUSH1 0x20 ADD SWAP1 DUP2 LT PUSH3 0x2FE JUMPI PUSH1 0x40 MSTORE SWAP1 JUMP JUMPDEST PUSH1 0x20 SUB PUSH1 0x20 DUP2 GT PUSH3 0x10DA JUMPI DUP2 ADD DUP1 SWAP2 GT PUSH3 0x10DA JUMPI CODESIZE PUSH3 0x2963 JUMP JUMPDEST SWAP1 DUP2 MLOAD SWAP2 PUSH3 0x29B3 PUSH3 0x28D9 JUMP JUMPDEST POP DUP3 MLOAD MLOAD PUSH1 0x1 DUP2 ADD SWAP1 DUP2 DUP2 GT PUSH3 0x10DA JUMPI PUSH1 0x20 DUP6 ADD MLOAD DUP2 LT ISZERO PUSH3 0x2A14 JUMPI JUMPDEST PUSH1 0xC2 PUSH1 0x20 PUSH3 0x839 SWAP7 MLOAD SWAP3 DUP4 ADD ADD MSTORE8 DUP1 MLOAD DUP3 GT PUSH3 0x2A0B JUMPI JUMPDEST POP POP PUSH1 0x40 MLOAD SWAP2 PUSH1 0x20 DUP4 ADD MSTORE PUSH1 0x20 DUP3 MSTORE PUSH3 0x2A05 DUP3 PUSH3 0x37E JUMP JUMPDEST PUSH3 0x301B JUMP JUMPDEST MSTORE CODESIZE DUP1 PUSH3 0x29EB JUMP JUMPDEST DUP2 PUSH1 0x1 SHL SWAP5 DUP3 DUP7 DIV PUSH1 0x2 EQ DUP4 ISZERO OR ISZERO PUSH3 0x10DA JUMPI PUSH1 0x20 DUP2 PUSH3 0x2A4C PUSH3 0x839 SWAP9 PUSH3 0x2A44 PUSH1 0xC2 SWAP6 MLOAD SWAP2 DUP5 PUSH3 0x294C JUMP JUMPDEST POP DUP3 PUSH3 0x2F4C JUMP JUMPDEST POP SWAP7 POP POP POP PUSH3 0x29D2 JUMP JUMPDEST SWAP1 DUP2 PUSH1 0x1 SHL SWAP2 DUP1 DUP4 DIV PUSH1 0x2 EQ SWAP1 ISZERO OR ISZERO PUSH3 0x10DA JUMPI JUMP JUMPDEST PUSH3 0x2A78 PUSH3 0x28D9 JUMP JUMPDEST POP DUP1 MLOAD MLOAD PUSH1 0x1 DUP2 ADD SWAP1 DUP2 DUP2 GT PUSH3 0x10DA JUMPI PUSH1 0x20 DUP4 ADD MLOAD DUP2 LT ISZERO PUSH3 0x2AB4 JUMPI JUMPDEST PUSH1 0x5B PUSH1 0x20 DUP5 MLOAD SWAP3 DUP4 ADD ADD MSTORE8 DUP1 MLOAD DUP3 GT PUSH3 0x2AB0 JUMPI POP POP SWAP1 JUMP JUMPDEST MSTORE SWAP1 JUMP JUMPDEST DUP2 PUSH1 0x1 SHL DUP3 DUP2 DIV PUSH1 0x2 EQ DUP4 ISZERO OR ISZERO PUSH3 0x10DA JUMPI PUSH3 0x2AE2 SWAP1 PUSH3 0x2ADA DUP6 MLOAD SWAP2 DUP7 PUSH3 0x294C JUMP JUMPDEST POP DUP5 PUSH3 0x2F4C JUMP JUMPDEST POP PUSH3 0x2A97 JUMP JUMPDEST PUSH3 0x2AF3 PUSH3 0x28D9 JUMP JUMPDEST POP DUP1 MLOAD MLOAD PUSH1 0x1 DUP2 ADD SWAP1 DUP2 DUP2 GT PUSH3 0x10DA JUMPI PUSH1 0x20 DUP4 ADD MLOAD DUP2 LT ISZERO PUSH3 0x2B2B JUMPI JUMPDEST PUSH1 0x5A PUSH1 0x20 DUP5 MLOAD SWAP3 DUP4 ADD ADD MSTORE8 DUP1 MLOAD DUP3 GT PUSH3 0x2AB0 JUMPI POP POP SWAP1 JUMP JUMPDEST DUP2 PUSH1 0x1 SHL DUP3 DUP2 DIV PUSH1 0x2 EQ DUP4 ISZERO OR ISZERO PUSH3 0x10DA JUMPI PUSH3 0x2B51 SWAP1 PUSH3 0x2ADA DUP6 MLOAD SWAP2 DUP7 PUSH3 0x294C JUMP JUMPDEST POP PUSH3 0x2B12 JUMP JUMPDEST PUSH3 0x2B62 PUSH3 0x28D9 JUMP JUMPDEST POP DUP1 MLOAD MLOAD PUSH1 0x1 DUP2 ADD SWAP1 DUP2 DUP2 GT PUSH3 0x10DA JUMPI PUSH1 0x20 DUP4 ADD MLOAD DUP2 LT ISZERO PUSH3 0x2B9A JUMPI JUMPDEST PUSH1 0x59 PUSH1 0x20 DUP5 MLOAD SWAP3 DUP4 ADD ADD MSTORE8 DUP1 MLOAD DUP3 GT PUSH3 0x2AB0 JUMPI POP POP SWAP1 JUMP JUMPDEST DUP2 PUSH1 0x1 SHL DUP3 DUP2 DIV PUSH1 0x2 EQ DUP4 ISZERO OR ISZERO PUSH3 0x10DA JUMPI PUSH3 0x2BC0 SWAP1 PUSH3 0x2ADA DUP6 MLOAD SWAP2 DUP7 PUSH3 0x294C JUMP JUMPDEST POP PUSH3 0x2B81 JUMP JUMPDEST PUSH3 0x2BD1 PUSH3 0x28D9 JUMP JUMPDEST POP DUP1 MLOAD MLOAD PUSH1 0x1 DUP2 ADD SWAP1 DUP2 DUP2 GT PUSH3 0x10DA JUMPI PUSH1 0x20 DUP4 ADD MLOAD DUP2 LT ISZERO PUSH3 0x2C09 JUMPI JUMPDEST PUSH1 0x58 PUSH1 0x20 DUP5 MLOAD SWAP3 DUP4 ADD ADD MSTORE8 DUP1 MLOAD DUP3 GT PUSH3 0x2AB0 JUMPI POP POP SWAP1 JUMP JUMPDEST DUP2 PUSH1 0x1 SHL DUP3 DUP2 DIV PUSH1 0x2 EQ DUP4 ISZERO OR ISZERO PUSH3 0x10DA JUMPI PUSH3 0x2C2F SWAP1 PUSH3 0x2ADA DUP6 MLOAD SWAP2 DUP7 PUSH3 0x294C JUMP JUMPDEST POP PUSH3 0x2BF0 JUMP JUMPDEST PUSH3 0x2C40 PUSH3 0x28D9 JUMP JUMPDEST POP DUP1 MLOAD MLOAD PUSH1 0x1 DUP2 ADD SWAP1 DUP2 DUP2 GT PUSH3 0x10DA JUMPI PUSH1 0x20 DUP4 ADD MLOAD DUP2 LT ISZERO PUSH3 0x2C78 JUMPI JUMPDEST PUSH1 0x7B PUSH1 0x20 DUP5 MLOAD SWAP3 DUP4 ADD ADD MSTORE8 DUP1 MLOAD DUP3 GT PUSH3 0x2AB0 JUMPI POP POP SWAP1 JUMP JUMPDEST DUP2 PUSH1 0x1 SHL DUP3 DUP2 DIV PUSH1 0x2 EQ DUP4 ISZERO OR ISZERO PUSH3 0x10DA JUMPI PUSH3 0x2C9E SWAP1 PUSH3 0x2ADA DUP6 MLOAD SWAP2 DUP7 PUSH3 0x294C JUMP JUMPDEST POP PUSH3 0x2C5F JUMP JUMPDEST PUSH3 0x2CAF PUSH3 0x28D9 JUMP JUMPDEST POP DUP1 MLOAD MLOAD PUSH1 0x1 DUP2 ADD SWAP1 DUP2 DUP2 GT PUSH3 0x10DA JUMPI PUSH1 0x20 DUP4 ADD MLOAD DUP2 LT ISZERO PUSH3 0x2CE7 JUMPI JUMPDEST PUSH1 0x7A PUSH1 0x20 DUP5 MLOAD SWAP3 DUP4 ADD ADD MSTORE8 DUP1 MLOAD DUP3 GT PUSH3 0x2AB0 JUMPI POP POP SWAP1 JUMP JUMPDEST DUP2 PUSH1 0x1 SHL DUP3 DUP2 DIV PUSH1 0x2 EQ DUP4 ISZERO OR ISZERO PUSH3 0x10DA JUMPI PUSH3 0x2D0D SWAP1 PUSH3 0x2ADA DUP6 MLOAD SWAP2 DUP7 PUSH3 0x294C JUMP JUMPDEST POP PUSH3 0x2CCE JUMP JUMPDEST PUSH3 0x2D1E PUSH3 0x28D9 JUMP JUMPDEST POP DUP1 MLOAD MLOAD PUSH1 0x1 DUP2 ADD SWAP1 DUP2 DUP2 GT PUSH3 0x10DA JUMPI PUSH1 0x20 DUP4 ADD MLOAD DUP2 LT ISZERO PUSH3 0x2D56 JUMPI JUMPDEST PUSH1 0x79 PUSH1 0x20 DUP5 MLOAD SWAP3 DUP4 ADD ADD MSTORE8 DUP1 MLOAD DUP3 GT PUSH3 0x2AB0 JUMPI POP POP SWAP1 JUMP JUMPDEST DUP2 PUSH1 0x1 SHL DUP3 DUP2 DIV PUSH1 0x2 EQ DUP4 ISZERO OR ISZERO PUSH3 0x10DA JUMPI PUSH3 0x2D7C SWAP1 PUSH3 0x2ADA DUP6 MLOAD SWAP2 DUP7 PUSH3 0x294C JUMP JUMPDEST POP PUSH3 0x2D3D JUMP JUMPDEST PUSH3 0x2D8D PUSH3 0x28D9 JUMP JUMPDEST POP DUP1 MLOAD MLOAD PUSH1 0x1 DUP2 ADD SWAP1 DUP2 DUP2 GT PUSH3 0x10DA JUMPI PUSH1 0x20 DUP4 ADD MLOAD DUP2 LT ISZERO PUSH3 0x2DC5 JUMPI JUMPDEST PUSH1 0x78 PUSH1 0x20 DUP5 MLOAD SWAP3 DUP4 ADD ADD MSTORE8 DUP1 MLOAD DUP3 GT PUSH3 0x2AB0 JUMPI POP POP SWAP1 JUMP JUMPDEST DUP2 PUSH1 0x1 SHL DUP3 DUP2 DIV PUSH1 0x2 EQ DUP4 ISZERO OR ISZERO PUSH3 0x10DA JUMPI PUSH3 0x2DEB SWAP1 PUSH3 0x2ADA DUP6 MLOAD SWAP2 DUP7 PUSH3 0x294C JUMP JUMPDEST POP PUSH3 0x2DAC JUMP JUMPDEST SWAP1 PUSH3 0x2DFD PUSH3 0x28D9 JUMP JUMPDEST POP DUP2 MLOAD MLOAD PUSH1 0x1 DUP2 ADD SWAP2 DUP3 DUP3 GT PUSH3 0x10DA JUMPI PUSH1 0x20 DUP5 ADD MLOAD DUP3 LT ISZERO PUSH3 0x2E33 JUMPI JUMPDEST PUSH1 0x20 DUP5 MLOAD SWAP3 DUP4 ADD ADD MSTORE8 DUP1 MLOAD DUP3 GT PUSH3 0x2AB0 JUMPI POP POP SWAP1 JUMP JUMPDEST DUP3 PUSH1 0x1 SHL DUP4 DUP2 DIV PUSH1 0x2 EQ DUP5 ISZERO OR ISZERO PUSH3 0x10DA JUMPI PUSH3 0x2E61 SWAP1 PUSH3 0x2E59 DUP7 MLOAD SWAP2 DUP8 PUSH3 0x294C JUMP JUMPDEST POP DUP6 PUSH3 0x2F4C JUMP JUMPDEST POP PUSH3 0x2E1C JUMP JUMPDEST SWAP1 PUSH3 0x2E77 DUP3 MLOAD SWAP2 DUP4 PUSH3 0x294C JUMP JUMPDEST POP PUSH3 0x2E82 PUSH3 0x28D9 JUMP JUMPDEST POP DUP1 MLOAD SWAP1 PUSH3 0x2E90 PUSH3 0x28D9 JUMP JUMPDEST POP PUSH3 0x2EA0 DUP2 MLOAD DUP4 GT ISZERO PUSH3 0x3013 JUMP JUMPDEST DUP3 MLOAD MLOAD SWAP3 PUSH3 0x2EB0 DUP4 DUP6 PUSH3 0x1D2F JUMP JUMPDEST SWAP2 PUSH1 0x20 SWAP3 DUP3 DUP5 DUP1 SWAP5 ADD MLOAD DUP3 GT PUSH3 0x2F30 JUMPI JUMPDEST MLOAD DUP4 DUP2 MLOAD SWAP8 DUP3 ADD ADD SWAP7 DUP3 GT PUSH3 0x2F27 JUMPI JUMPDEST POP POP ADD SWAP2 JUMPDEST DUP2 DUP2 LT ISZERO PUSH3 0x2EFA JUMPI PUSH1 0x0 NOT SWAP2 SUB PUSH2 0x100 EXP ADD SWAP1 DUP2 NOT SWAP1 MLOAD AND SWAP1 DUP3 MLOAD AND OR SWAP1 MSTORE JUMP JUMPDEST SWAP2 SWAP3 PUSH3 0x2F1A PUSH3 0x2F13 PUSH3 0x2F21 SWAP3 DUP7 MLOAD DUP2 MSTORE PUSH3 0x1D20 JUMP JUMPDEST SWAP5 PUSH3 0x1D20 JUMP JUMPDEST SWAP3 PUSH3 0x1C2D JUMP JUMPDEST PUSH3 0x2ED8 JUMP JUMPDEST MSTORE CODESIZE DUP1 PUSH3 0x2ED3 JUMP JUMPDEST PUSH3 0x2F46 PUSH3 0x2F3F DUP4 PUSH3 0x2A57 JUMP JUMPDEST DUP3 PUSH3 0x2E68 JUMP JUMPDEST PUSH3 0x2EC2 JUMP JUMPDEST SWAP1 PUSH3 0x2F57 PUSH3 0x28D9 JUMP JUMPDEST POP DUP1 MLOAD PUSH3 0x2F64 PUSH3 0x28D9 JUMP JUMPDEST POP PUSH3 0x2F74 DUP3 MLOAD DUP3 GT ISZERO PUSH3 0x3013 JUMP JUMPDEST DUP3 MLOAD MLOAD SWAP2 PUSH3 0x2F84 DUP3 DUP5 PUSH3 0x1D2F JUMP JUMPDEST PUSH1 0x20 SWAP2 DUP3 SWAP2 DUP3 DUP8 ADD MLOAD DUP2 GT PUSH3 0x2FF7 JUMPI JUMPDEST DUP7 MLOAD DUP4 DUP2 MLOAD SWAP8 DUP3 ADD ADD SWAP7 DUP3 GT PUSH3 0x2FEE JUMPI JUMPDEST POP POP ADD SWAP2 JUMPDEST DUP2 DUP2 LT ISZERO PUSH3 0x2FCF JUMPI PUSH1 0x0 NOT SWAP2 SUB PUSH2 0x100 EXP ADD SWAP1 DUP2 NOT SWAP1 MLOAD AND SWAP1 DUP3 MLOAD AND OR SWAP1 MSTORE SWAP1 JUMP JUMPDEST SWAP2 SWAP3 PUSH3 0x2F1A PUSH3 0x2F13 PUSH3 0x2FE8 SWAP3 DUP7 MLOAD DUP2 MSTORE PUSH3 0x1D20 JUMP JUMPDEST PUSH3 0x2FAC JUMP JUMPDEST MSTORE CODESIZE DUP1 PUSH3 0x2FA7 JUMP JUMPDEST PUSH3 0x300D PUSH3 0x3006 DUP3 PUSH3 0x2A57 JUMP JUMPDEST DUP9 PUSH3 0x2E68 JUMP JUMPDEST PUSH3 0x2F95 JUMP JUMPDEST ISZERO PUSH3 0x2FE JUMPI JUMP JUMPDEST DUP2 MLOAD PUSH3 0x3058 SWAP3 SWAP2 SWAP1 PUSH8 0xFFFFFFFFFFFFFFFF DUP2 AND SWAP1 PUSH1 0x17 DUP3 GT PUSH3 0x305B JUMPI PUSH3 0x304F SWAP2 POP PUSH1 0x40 PUSH1 0xFF DUP5 MLOAD SWAP3 AND OR SWAP1 PUSH3 0x2DF2 JUMP JUMPDEST POP JUMPDEST MLOAD PUSH3 0x2F4C JUMP JUMPDEST POP JUMP JUMPDEST POP PUSH1 0xFF DUP2 GT PUSH3 0x3086 JUMPI PUSH3 0x307F SWAP1 PUSH3 0x3076 DUP4 MLOAD PUSH3 0x2BC7 JUMP JUMPDEST POP DUP3 MLOAD PUSH3 0x340B JUMP JUMPDEST POP PUSH3 0x3051 JUMP JUMPDEST PUSH2 0xFFFF DUP2 GT PUSH3 0x30AA JUMPI PUSH3 0x307F SWAP1 PUSH3 0x30A1 DUP4 MLOAD PUSH3 0x2B58 JUMP JUMPDEST POP DUP3 MLOAD PUSH3 0x339B JUMP JUMPDEST PUSH4 0xFFFFFFFF DUP2 GT PUSH3 0x30D0 JUMPI PUSH3 0x307F SWAP1 PUSH3 0x30C7 DUP4 MLOAD PUSH3 0x2AE9 JUMP JUMPDEST POP DUP3 MLOAD PUSH3 0x3329 JUMP JUMPDEST PUSH3 0x307F SWAP1 PUSH3 0x30E1 DUP4 MLOAD PUSH3 0x2A6E JUMP JUMPDEST POP DUP3 MLOAD PUSH3 0x32B3 JUMP JUMPDEST DUP2 MLOAD PUSH3 0x3058 SWAP3 SWAP2 SWAP1 PUSH8 0xFFFFFFFFFFFFFFFF DUP2 AND SWAP1 PUSH1 0x17 DUP3 GT PUSH3 0x311E JUMPI PUSH3 0x304F SWAP2 POP PUSH1 0x60 PUSH1 0xFF DUP5 MLOAD SWAP3 AND OR SWAP1 PUSH3 0x2DF2 JUMP JUMPDEST POP PUSH1 0xFF DUP2 GT PUSH3 0x3139 JUMPI PUSH3 0x307F SWAP1 PUSH3 0x3076 DUP4 MLOAD PUSH3 0x2D83 JUMP JUMPDEST PUSH2 0xFFFF DUP2 GT PUSH3 0x3154 JUMPI PUSH3 0x307F SWAP1 PUSH3 0x30A1 DUP4 MLOAD PUSH3 0x2D14 JUMP JUMPDEST PUSH4 0xFFFFFFFF DUP2 GT PUSH3 0x3171 JUMPI PUSH3 0x307F SWAP1 PUSH3 0x30C7 DUP4 MLOAD PUSH3 0x2CA5 JUMP JUMPDEST PUSH3 0x307F SWAP1 PUSH3 0x30E1 DUP4 MLOAD PUSH3 0x2C36 JUMP JUMPDEST DUP1 MLOAD SWAP1 PUSH3 0x318F PUSH3 0x28D9 JUMP JUMPDEST POP DUP2 MLOAD MLOAD PUSH1 0x1 DUP2 ADD SWAP1 DUP2 DUP2 GT PUSH3 0x10DA JUMPI PUSH1 0x20 DUP5 ADD MLOAD DUP2 LT ISZERO PUSH3 0x31E2 JUMPI JUMPDEST PUSH1 0x9F PUSH1 0x20 DUP1 SWAP6 MLOAD SWAP3 DUP4 ADD ADD MSTORE8 DUP1 MLOAD DUP3 GT PUSH3 0x31D9 JUMPI JUMPDEST POP POP ADD DUP1 MLOAD SWAP1 PUSH1 0x1 DUP3 ADD DUP1 SWAP3 GT PUSH3 0x10DA JUMPI MSTORE JUMP JUMPDEST MSTORE CODESIZE DUP1 PUSH3 0x31C4 JUMP JUMPDEST DUP2 PUSH1 0x1 SHL SWAP4 DUP3 DUP6 DIV PUSH1 0x2 EQ DUP4 ISZERO OR ISZERO PUSH3 0x10DA JUMPI PUSH1 0x20 DUP2 PUSH3 0x320F DUP3 SWAP8 PUSH3 0x2A44 PUSH1 0x9F SWAP6 MLOAD SWAP2 DUP5 PUSH3 0x294C JUMP JUMPDEST POP SWAP6 POP POP POP PUSH3 0x31AE JUMP JUMPDEST DUP1 MLOAD SWAP1 PUSH3 0x3227 PUSH3 0x28D9 JUMP JUMPDEST POP DUP2 MLOAD MLOAD PUSH1 0x1 DUP2 ADD SWAP1 DUP2 DUP2 GT PUSH3 0x10DA JUMPI PUSH1 0x20 DUP5 ADD MLOAD DUP2 LT ISZERO PUSH3 0x327B JUMPI JUMPDEST PUSH1 0xFF PUSH1 0x20 DUP1 SWAP6 MLOAD SWAP3 DUP4 ADD ADD MSTORE8 DUP1 MLOAD DUP3 GT PUSH3 0x3272 JUMPI JUMPDEST POP POP ADD DUP1 MLOAD PUSH1 0x0 NOT DUP2 ADD SWAP2 SWAP1 DUP3 GT PUSH3 0x10DA JUMPI MSTORE JUMP JUMPDEST MSTORE CODESIZE DUP1 PUSH3 0x325C JUMP JUMPDEST DUP2 PUSH1 0x1 SHL SWAP4 DUP3 DUP6 DIV PUSH1 0x2 EQ DUP4 ISZERO OR ISZERO PUSH3 0x10DA JUMPI PUSH1 0x20 DUP2 PUSH3 0x32A8 DUP3 SWAP8 PUSH3 0x2A44 PUSH1 0xFF SWAP6 MLOAD SWAP2 DUP5 PUSH3 0x294C JUMP JUMPDEST POP SWAP6 POP POP POP PUSH3 0x3246 JUMP JUMPDEST SWAP1 PUSH3 0x32BE PUSH3 0x28D9 JUMP JUMPDEST POP DUP2 MLOAD MLOAD DUP1 PUSH1 0x8 ADD SWAP2 DUP3 PUSH1 0x8 GT PUSH3 0x10DA JUMPI PUSH1 0x20 DUP5 ADD MLOAD DUP4 GT PUSH3 0x3304 JUMPI JUMPDEST PUSH1 0x8 DUP5 MLOAD SWAP3 DUP4 ADD ADD SWAP1 PUSH8 0xFFFFFFFFFFFFFFFF NOT DUP3 MLOAD AND OR SWAP1 MSTORE DUP1 MLOAD DUP3 GT PUSH3 0x2AB0 JUMPI POP POP SWAP1 JUMP JUMPDEST DUP3 PUSH1 0x1 SHL DUP4 DUP2 DIV PUSH1 0x2 EQ DUP5 ISZERO OR ISZERO PUSH3 0x10DA JUMPI PUSH3 0x3323 SWAP1 DUP6 PUSH3 0x2E68 JUMP JUMPDEST PUSH3 0x32DD JUMP JUMPDEST SWAP1 PUSH3 0x3334 PUSH3 0x28D9 JUMP JUMPDEST POP DUP2 MLOAD MLOAD DUP1 PUSH1 0x4 ADD SWAP2 DUP3 PUSH1 0x4 GT PUSH3 0x10DA JUMPI PUSH1 0x20 DUP5 ADD MLOAD DUP4 GT PUSH3 0x3376 JUMPI JUMPDEST PUSH1 0x4 DUP5 MLOAD SWAP3 DUP4 ADD ADD SWAP1 PUSH4 0xFFFFFFFF NOT DUP3 MLOAD AND OR SWAP1 MSTORE DUP1 MLOAD DUP3 GT PUSH3 0x2AB0 JUMPI POP POP SWAP1 JUMP JUMPDEST DUP3 PUSH1 0x1 SHL DUP4 DUP2 DIV PUSH1 0x2 EQ DUP5 ISZERO OR ISZERO PUSH3 0x10DA JUMPI PUSH3 0x3395 SWAP1 DUP6 PUSH3 0x2E68 JUMP JUMPDEST PUSH3 0x3353 JUMP JUMPDEST SWAP1 PUSH3 0x33A6 PUSH3 0x28D9 JUMP JUMPDEST POP DUP2 MLOAD MLOAD DUP1 PUSH1 0x2 ADD SWAP2 DUP3 PUSH1 0x2 GT PUSH3 0x10DA JUMPI PUSH1 0x20 DUP5 ADD MLOAD DUP4 GT PUSH3 0x33E6 JUMPI JUMPDEST PUSH1 0x2 DUP5 MLOAD SWAP3 DUP4 ADD ADD SWAP1 PUSH2 0xFFFF NOT DUP3 MLOAD AND OR SWAP1 MSTORE DUP1 MLOAD DUP3 GT PUSH3 0x2AB0 JUMPI POP POP SWAP1 JUMP JUMPDEST DUP3 PUSH1 0x1 SHL DUP4 DUP2 DIV PUSH1 0x2 EQ DUP5 ISZERO OR ISZERO PUSH3 0x10DA JUMPI PUSH3 0x3405 SWAP1 DUP6 PUSH3 0x2E68 JUMP JUMPDEST PUSH3 0x33C5 JUMP JUMPDEST SWAP1 PUSH3 0x3416 PUSH3 0x28D9 JUMP JUMPDEST POP DUP2 MLOAD MLOAD DUP1 PUSH1 0x1 ADD SWAP2 DUP3 PUSH1 0x1 GT PUSH3 0x10DA JUMPI PUSH1 0x20 DUP5 ADD MLOAD DUP4 GT PUSH3 0x3455 JUMPI JUMPDEST PUSH1 0x1 DUP5 MLOAD SWAP3 DUP4 ADD ADD SWAP1 PUSH1 0xFF NOT DUP3 MLOAD AND OR SWAP1 MSTORE DUP1 MLOAD DUP3 GT PUSH3 0x2AB0 JUMPI POP POP SWAP1 JUMP JUMPDEST DUP3 PUSH1 0x1 SHL DUP4 DUP2 DIV PUSH1 0x2 EQ DUP5 ISZERO OR ISZERO PUSH3 0x10DA JUMPI PUSH3 0x3474 SWAP1 DUP6 PUSH3 0x2E68 JUMP JUMPDEST PUSH3 0x3435 JUMP JUMPDEST SWAP1 DUP2 PUSH1 0x20 SWAP2 SUB SLT PUSH3 0x2FE JUMPI MLOAD PUSH3 0x9EC DUP2 PUSH3 0x1248 JUMP JUMPDEST PUSH1 0xC SLOAD PUSH1 0x40 MLOAD PUSH32 0x1E01043900000000000000000000000000000000000000000000000000000000 DUP2 MSTORE PUSH1 0x4 DUP2 ADD DUP3 SWAP1 MSTORE PUSH1 0x1 PUSH1 0x1 PUSH1 0xA0 SHL SUB PUSH32 0x0 AND SWAP2 PUSH1 0x20 DUP3 PUSH1 0x24 DUP2 DUP7 GAS STATICCALL SWAP2 DUP3 ISZERO PUSH3 0xD80 JUMPI PUSH1 0x0 SWAP3 PUSH3 0x363F JUMPI JUMPDEST POP PUSH1 0x2 SLOAD PUSH1 0x1 PUSH1 0x1 PUSH1 0xA0 SHL SUB AND SWAP1 DUP4 EXTCODESIZE ISZERO PUSH3 0x2FE JUMPI PUSH1 0x40 MLOAD PUSH32 0x744BFE6100000000000000000000000000000000000000000000000000000000 DUP2 MSTORE PUSH1 0x4 DUP2 ADD SWAP2 SWAP1 SWAP2 MSTORE PUSH1 0x1 PUSH1 0x1 PUSH1 0xA0 SHL SUB SWAP2 SWAP1 SWAP2 AND PUSH1 0x24 DUP3 ADD MSTORE PUSH1 0x0 DUP2 PUSH1 0x44 DUP2 DUP4 DUP8 GAS CALL DUP1 ISZERO PUSH3 0xD80 JUMPI PUSH3 0x3628 JUMPI JUMPDEST POP PUSH1 0xC SLOAD SWAP2 DUP1 EXTCODESIZE ISZERO PUSH3 0x2FE JUMPI PUSH1 0x40 MLOAD PUSH32 0xC804802200000000000000000000000000000000000000000000000000000000 DUP2 MSTORE PUSH1 0x4 DUP2 ADD SWAP4 SWAP1 SWAP4 MSTORE PUSH1 0x0 SWAP1 DUP4 SWAP1 PUSH1 0x24 SWAP1 DUP3 SWAP1 DUP5 SWAP1 GAS CALL SWAP1 DUP2 ISZERO PUSH3 0xD80 JUMPI PUSH32 0x2A98573784ED2376AEFF51A1AE44A63F3AFBBEF86ECF320075B3B4F7834854DB SWAP3 PUSH3 0x2152 SWAP3 PUSH3 0x3611 JUMPI JUMPDEST POP PUSH1 0x40 MLOAD PUSH12 0xFFFFFFFFFFFFFFFFFFFFFFFF SWAP1 SWAP2 AND DUP2 MSTORE SWAP1 DUP2 SWAP1 PUSH1 0x20 DUP3 ADD SWAP1 JUMP JUMPDEST DUP1 PUSH3 0x14A5 PUSH3 0x3621 SWAP3 PUSH3 0x363 JUMP JUMPDEST CODESIZE PUSH3 0x35F1 JUMP JUMPDEST DUP1 PUSH3 0x14A5 PUSH3 0x3638 SWAP3 PUSH3 0x363 JUMP JUMPDEST CODESIZE PUSH3 0x3573 JUMP JUMPDEST PUSH3 0x3666 SWAP2 SWAP3 POP PUSH1 0x20 RETURNDATASIZE DUP2 GT PUSH3 0x366E JUMPI JUMPDEST PUSH3 0x365D DUP2 DUP4 PUSH3 0x39B JUMP JUMPDEST DUP2 ADD SWAP1 PUSH3 0x347A JUMP JUMPDEST SWAP1 CODESIZE PUSH3 0x3507 JUMP JUMPDEST POP RETURNDATASIZE PUSH3 0x3651 JUMP JUMPDEST DUP2 DUP2 LT PUSH3 0x3682 JUMPI POP POP JUMP JUMPDEST PUSH1 0x0 DUP2 SSTORE PUSH1 0x1 ADD PUSH3 0x3676 JUMP JUMPDEST SWAP1 PUSH1 0x1F DUP3 GT PUSH3 0x369D JUMPI POP POP JUMP JUMPDEST PUSH3 0x839 SWAP2 PUSH1 0x5 PUSH1 0x0 MSTORE PUSH32 0x36B6384B5ECA791C62761152D0C79BB0604C104A5FB6F4EB0703F3154BB3DB0 SWAP1 PUSH1 0x20 PUSH1 0x1F DUP5 ADD PUSH1 0x5 SHR DUP4 ADD SWAP4 LT PUSH3 0x36EA JUMPI JUMPDEST PUSH1 0x1F ADD PUSH1 0x5 SHR ADD SWAP1 PUSH3 0x3676 JUMP JUMPDEST SWAP1 SWAP2 POP DUP2 SWAP1 PUSH3 0x36DC JUMP JUMPDEST SWAP1 PUSH1 0x1F DUP3 GT PUSH3 0x3703 JUMPI POP POP JUMP JUMPDEST PUSH3 0x839 SWAP2 PUSH1 0x6 PUSH1 0x0 MSTORE PUSH32 0xF652222313E28459528D920B65115C16C04F3EFC82AAEDC97BE59F3F377C0D3F SWAP1 PUSH1 0x20 PUSH1 0x1F DUP5 ADD PUSH1 0x5 SHR DUP4 ADD SWAP4 LT PUSH3 0x36EA JUMPI PUSH1 0x1F ADD PUSH1 0x5 SHR ADD SWAP1 PUSH3 0x3676 JUMP JUMPDEST SWAP2 SWAP1 PUSH1 0x1F DUP2 GT PUSH3 0x375F JUMPI POP POP POP JUMP JUMPDEST PUSH3 0x839 SWAP3 PUSH1 0x0 MSTORE PUSH1 0x20 PUSH1 0x0 KECCAK256 SWAP1 PUSH1 0x20 PUSH1 0x1F DUP5 ADD PUSH1 0x5 SHR DUP4 ADD SWAP4 LT PUSH3 0x36EA JUMPI PUSH1 0x1F ADD PUSH1 0x5 SHR ADD SWAP1 PUSH3 0x3676 JUMP JUMPDEST SWAP1 DUP2 MLOAD PUSH8 0xFFFFFFFFFFFFFFFF DUP2 GT PUSH3 0x378 JUMPI PUSH3 0x37B8 DUP2 PUSH3 0x37B2 PUSH1 0x6 SLOAD PUSH3 0x7BB JUMP JUMPDEST PUSH3 0x36F5 JUMP JUMPDEST PUSH1 0x20 DUP1 PUSH1 0x1F DUP4 GT PUSH1 0x1 EQ PUSH3 0x37F7 JUMPI POP DUP2 SWAP3 SWAP4 PUSH1 0x0 SWAP3 PUSH3 0x37EB JUMPI JUMPDEST POP POP DUP2 PUSH1 0x1 SHL SWAP2 PUSH1 0x0 NOT SWAP1 PUSH1 0x3 SHL SHR NOT AND OR PUSH1 0x6 SSTORE JUMP JUMPDEST ADD MLOAD SWAP1 POP CODESIZE DUP1 PUSH3 0x37D4 JUMP JUMPDEST SWAP1 PUSH1 0x1F NOT DUP4 AND SWAP5 PUSH3 0x382B PUSH1 0x6 PUSH1 0x0 MSTORE PUSH32 0xF652222313E28459528D920B65115C16C04F3EFC82AAEDC97BE59F3F377C0D3F SWAP1 JUMP JUMPDEST SWAP3 PUSH1 0x0 SWAP1 JUMPDEST DUP8 DUP3 LT PUSH3 0x386B JUMPI POP POP DUP4 PUSH1 0x1 SWAP6 SWAP7 LT PUSH3 0x3851 JUMPI JUMPDEST POP POP POP DUP2 SHL ADD PUSH1 0x6 SSTORE JUMP JUMPDEST ADD MLOAD PUSH1 0x0 NOT PUSH1 0xF8 DUP5 PUSH1 0x3 SHL AND SHR NOT AND SWAP1 SSTORE CODESIZE DUP1 DUP1 PUSH3 0x3846 JUMP JUMPDEST DUP1 PUSH1 0x1 DUP6 SWAP7 DUP3 SWAP5 SWAP7 DUP7 ADD MLOAD DUP2 SSTORE ADD SWAP6 ADD SWAP4 ADD SWAP1 PUSH3 0x3830 JUMP JUMPDEST PUSH1 0x20 DUP2 MLOAD SWAP2 ADD MLOAD SWAP1 PUSH1 0x20 DUP2 LT PUSH3 0x3899 JUMPI POP SWAP1 JUMP JUMPDEST PUSH1 0x0 NOT SWAP1 PUSH1 0x20 SUB PUSH1 0x3 SHL SHL AND SWAP1 JUMP JUMPDEST PUSH1 0x1D SLOAD PUSH9 0x10000000000000000 DUP2 LT ISZERO PUSH3 0x378 JUMPI PUSH3 0x38D0 PUSH1 0x1 SWAP2 DUP3 DUP2 ADD PUSH1 0x1D SSTORE PUSH3 0x767 JUMP JUMPDEST SWAP3 SWAP1 SWAP3 PUSH3 0x39B1 JUMPI DUP1 MLOAD SWAP1 PUSH8 0xFFFFFFFFFFFFFFFF DUP3 GT PUSH3 0x378 JUMPI PUSH3 0x3903 DUP3 PUSH3 0x38FC DUP7 SLOAD PUSH3 0x7BB JUMP JUMPDEST DUP7 PUSH3 0x374F JUMP JUMPDEST PUSH1 0x20 SWAP1 DUP2 PUSH1 0x1F DUP5 GT PUSH1 0x1 EQ PUSH3 0x3942 JUMPI POP SWAP3 DUP3 SWAP4 SWAP2 DUP4 SWAP3 PUSH1 0x0 SWAP5 PUSH3 0x3936 JUMPI JUMPDEST POP POP SHL SWAP2 PUSH1 0x0 NOT SWAP1 PUSH1 0x3 SHL SHR NOT AND OR SWAP1 SSTORE JUMP JUMPDEST ADD MLOAD SWAP3 POP CODESIZE DUP1 PUSH3 0x3923 JUMP JUMPDEST SWAP2 SWAP1 DUP4 PUSH1 0x1F NOT DUP2 AND PUSH3 0x395A DUP9 PUSH1 0x0 MSTORE PUSH1 0x20 PUSH1 0x0 KECCAK256 SWAP1 JUMP JUMPDEST SWAP5 PUSH1 0x0 SWAP1 JUMPDEST DUP9 DUP4 DUP4 LT PUSH3 0x3996 JUMPI POP POP POP LT PUSH3 0x397C JUMPI JUMPDEST POP POP POP DUP2 SHL ADD SWAP1 SSTORE JUMP JUMPDEST ADD MLOAD PUSH1 0x0 NOT PUSH1 0xF8 DUP5 PUSH1 0x3 SHL AND SHR NOT AND SWAP1 SSTORE CODESIZE DUP1 DUP1 PUSH3 0x3972 JUMP JUMPDEST DUP6 DUP8 ADD MLOAD DUP9 SSTORE SWAP1 SWAP7 ADD SWAP6 SWAP5 DUP6 ADD SWAP5 DUP8 SWAP4 POP SWAP1 DUP2 ADD SWAP1 PUSH3 0x395F JUMP JUMPDEST PUSH3 0x7A5 JUMP JUMPDEST SWAP1 SWAP2 PUSH3 0x39D1 PUSH3 0x9EC SWAP4 PUSH1 0x40 DUP5 MSTORE PUSH1 0x40 DUP5 ADD SWAP1 PUSH3 0x997 JUMP JUMPDEST SWAP2 PUSH1 0x20 DUP2 DUP5 SUB SWAP2 ADD MSTORE PUSH3 0x997 JUMP JUMPDEST ISZERO PUSH3 0x39E8 JUMPI JUMP JUMPDEST PUSH1 0x64 PUSH1 0x40 MLOAD PUSH3 0x461BCD PUSH1 0xE5 SHL DUP2 MSTORE PUSH1 0x20 PUSH1 0x4 DUP3 ADD MSTORE PUSH1 0x1B PUSH1 0x24 DUP3 ADD MSTORE PUSH32 0x4572726F20616F207061676172206120696E64656E697A6163616F0000000000 PUSH1 0x44 DUP3 ADD MSTORE REVERT JUMPDEST PUSH1 0x1F SLOAD PUSH1 0x1B SLOAD GT ISZERO PUSH3 0x3A76 JUMPI PUSH3 0x839 PUSH1 0x0 DUP1 DUP1 DUP1 PUSH3 0x3A61 PUSH3 0xCB3 PUSH3 0xCB3 PUSH1 0x19 SLOAD PUSH1 0x1 PUSH1 0x1 PUSH1 0xA0 SHL SUB SWAP1 PUSH1 0x8 SHR AND SWAP1 JUMP JUMPDEST SELFBALANCE SWAP1 GAS CALL PUSH3 0x3A6F PUSH3 0x1EE8 JUMP JUMPDEST POP PUSH3 0x39E0 JUMP JUMPDEST PUSH1 0x0 DUP1 DUP1 DUP1 PUSH1 0x1 PUSH1 0x1 PUSH1 0xA0 SHL SUB PUSH1 0x2 SLOAD AND SELFBALANCE SWAP1 GAS CALL PUSH3 0x3A95 PUSH3 0x1EE8 JUMP JUMPDEST POP ISZERO PUSH3 0x3A9E JUMPI JUMP JUMPDEST PUSH1 0x84 PUSH1 0x40 MLOAD PUSH3 0x461BCD PUSH1 0xE5 SHL DUP2 MSTORE PUSH1 0x20 PUSH1 0x4 DUP3 ADD MSTORE PUSH1 0x2D PUSH1 0x24 DUP3 ADD MSTORE PUSH32 0x4572726F20616F207265746F726E6172206F732066756E646F73207061726120 PUSH1 0x44 DUP3 ADD MSTORE PUSH32 0x6120696E73746974756963616F00000000000000000000000000000000000000 PUSH1 0x64 DUP3 ADD MSTORE REVERT INVALID PUSH1 0xC0 CALLVALUE PUSH2 0xBA JUMPI PUSH1 0x1F PUSH2 0x765 CODESIZE DUP2 SWAP1 SUB SWAP2 DUP3 ADD PUSH1 0x1F NOT AND DUP4 ADD SWAP2 PUSH1 0x1 PUSH1 0x1 PUSH1 0x40 SHL SUB DUP4 GT DUP5 DUP5 LT OR PUSH2 0xBF JUMPI DUP1 DUP5 SWAP3 PUSH1 0x60 SWAP5 PUSH1 0x40 MSTORE DUP4 CODECOPY DUP2 ADD SUB SLT PUSH2 0xBA JUMPI PUSH2 0x47 DUP2 PUSH2 0xD5 JUMP JUMPDEST SWAP1 PUSH1 0x40 PUSH2 0x56 PUSH1 0x20 DUP4 ADD PUSH2 0xD5 JUMP JUMPDEST SWAP2 ADD MLOAD PUSH1 0x1 PUSH1 0x1 PUSH1 0x60 SHL SUB DUP2 AND SWAP3 SWAP1 DUP4 SWAP1 SUB PUSH2 0xBA JUMPI PUSH1 0x80 MSTORE PUSH1 0xA0 MSTORE PUSH1 0x1 DUP1 SLOAD PUSH1 0x1 PUSH1 0x1 PUSH1 0x60 SHL SUB NOT AND SWAP2 SWAP1 SWAP2 OR SWAP1 SSTORE PUSH1 0x40 MLOAD PUSH2 0x67B SWAP1 DUP2 PUSH2 0xEA DUP3 CODECOPY PUSH1 0x80 MLOAD DUP2 DUP2 DUP2 PUSH1 0x77 ADD MSTORE DUP2 DUP2 PUSH2 0x1C7 ADD MSTORE PUSH2 0x3A3 ADD MSTORE PUSH1 0xA0 MLOAD DUP2 DUP2 DUP2 PUSH1 0xBE ADD MSTORE PUSH2 0x36A ADD MSTORE RETURN JUMPDEST PUSH1 0x0 DUP1 REVERT JUMPDEST PUSH4 0x4E487B71 PUSH1 0xE0 SHL PUSH1 0x0 MSTORE PUSH1 0x41 PUSH1 0x4 MSTORE PUSH1 0x24 PUSH1 0x0 REVERT JUMPDEST MLOAD SWAP1 PUSH1 0x1 PUSH1 0x1 PUSH1 0xA0 SHL SUB DUP3 AND DUP3 SUB PUSH2 0xBA JUMPI JUMP INVALID PUSH1 0x80 PUSH1 0x40 DUP2 DUP2 MSTORE PUSH1 0x4 CALLDATASIZE LT ISZERO PUSH2 0x14 JUMPI PUSH1 0x0 DUP1 REVERT JUMPDEST PUSH1 0x0 SWAP2 DUP3 CALLDATALOAD PUSH1 0xE0 SHR SWAP1 DUP2 PUSH4 0x1619D3D EQ PUSH2 0x22D JUMPI POP DUP1 PUSH4 0x23024408 EQ PUSH2 0x14A JUMPI DUP1 PUSH4 0x24380AA8 EQ PUSH2 0xE2 JUMPI DUP1 PUSH4 0x442B1278 EQ PUSH2 0x9F JUMPI PUSH4 0x7D253AFF EQ PUSH2 0x59 JUMPI PUSH1 0x0 DUP1 REVERT JUMPDEST CALLVALUE PUSH2 0x9B JUMPI DUP2 PUSH1 0x3 NOT CALLDATASIZE ADD SLT PUSH2 0x9B JUMPI PUSH1 0x20 SWAP1 MLOAD PUSH1 0x1 PUSH1 0x1 PUSH1 0xA0 SHL SUB PUSH32 0x0 AND DUP2 MSTORE RETURN JUMPDEST POP DUP1 REVERT JUMPDEST POP CALLVALUE PUSH2 0x9B JUMPI DUP2 PUSH1 0x3 NOT CALLDATASIZE ADD SLT PUSH2 0x9B JUMPI PUSH1 0x20 SWAP1 MLOAD PUSH1 0x1 PUSH1 0x1 PUSH1 0xA0 SHL SUB PUSH32 0x0 AND DUP2 MSTORE RETURN JUMPDEST POP CALLVALUE PUSH2 0x9B JUMPI PUSH1 0x3 NOT DUP2 DUP2 CALLDATASIZE ADD SLT PUSH2 0x142 JUMPI PUSH1 0x4 CALLDATALOAD SWAP1 PUSH8 0xFFFFFFFFFFFFFFFF DUP3 GT PUSH2 0x146 JUMPI PUSH2 0x140 SWAP1 DUP3 CALLDATASIZE SUB ADD SLT PUSH2 0x142 JUMPI PUSH1 0x24 CALLDATALOAD SWAP3 PUSH1 0x1 PUSH1 0x1 PUSH1 0xA0 SHL SUB DUP5 AND DUP5 SUB PUSH2 0x13F JUMPI POP PUSH1 0x20 SWAP3 PUSH2 0x138 SWAP2 PUSH1 0x4 ADD PUSH2 0x313 JUMP JUMPDEST SWAP1 MLOAD SWAP1 DUP2 MSTORE RETURN JUMPDEST DUP1 REVERT JUMPDEST DUP3 DUP1 REVERT JUMPDEST DUP4 DUP1 REVERT JUMPDEST POP CALLVALUE PUSH2 0x9B JUMPI PUSH1 0x20 CALLDATASIZE PUSH1 0x3 NOT ADD SLT PUSH2 0x9B JUMPI PUSH1 0x4 CALLDATALOAD SWAP1 PUSH1 0x1 PUSH1 0x1 PUSH1 0xA0 SHL SUB SWAP2 DUP3 DUP2 AND DUP1 SWAP2 SUB PUSH2 0x146 JUMPI PUSH1 0x20 SWAP1 PUSH1 0x64 PUSH12 0xFFFFFFFFFFFFFFFFFFFFFFFF PUSH1 0x1 SLOAD AND SWAP2 DUP7 DUP6 MLOAD SWAP7 DUP8 SWAP5 DUP6 SWAP4 PUSH32 0x23B872DD00000000000000000000000000000000000000000000000000000000 DUP6 MSTORE PUSH1 0x4 DUP6 ADD MSTORE ADDRESS PUSH1 0x24 DUP6 ADD MSTORE PUSH1 0x44 DUP5 ADD MSTORE PUSH32 0x0 AND GAS CALL SWAP1 DUP2 ISZERO PUSH2 0x224 JUMPI POP PUSH2 0x1F9 JUMPI POP DUP1 RETURN JUMPDEST PUSH2 0x219 SWAP1 PUSH1 0x20 RETURNDATASIZE DUP2 GT PUSH2 0x21D JUMPI JUMPDEST PUSH2 0x211 DUP2 DUP4 PUSH2 0x270 JUMP JUMPDEST DUP2 ADD SWAP1 PUSH2 0x2A8 JUMP JUMPDEST POP DUP1 RETURN JUMPDEST POP RETURNDATASIZE PUSH2 0x207 JUMP JUMPDEST MLOAD RETURNDATASIZE DUP5 DUP3 RETURNDATACOPY RETURNDATASIZE SWAP1 REVERT JUMPDEST DUP4 SWAP1 CALLVALUE PUSH2 0x9B JUMPI DUP2 PUSH1 0x3 NOT CALLDATASIZE ADD SLT PUSH2 0x9B JUMPI PUSH1 0x20 SWAP1 PUSH12 0xFFFFFFFFFFFFFFFFFFFFFFFF PUSH1 0x1 SLOAD AND DUP2 MSTORE RETURN JUMPDEST CALLDATALOAD SWAP1 PUSH1 0x1 PUSH1 0x1 PUSH1 0xA0 SHL SUB DUP3 AND DUP3 SUB PUSH2 0x26B JUMPI JUMP JUMPDEST PUSH1 0x0 DUP1 REVERT JUMPDEST SWAP1 PUSH1 0x1F DUP1 NOT SWAP2 ADD AND DUP2 ADD SWAP1 DUP2 LT PUSH8 0xFFFFFFFFFFFFFFFF DUP3 GT OR PUSH2 0x292 JUMPI PUSH1 0x40 MSTORE JUMP JUMPDEST PUSH4 0x4E487B71 PUSH1 0xE0 SHL PUSH1 0x0 MSTORE PUSH1 0x41 PUSH1 0x4 MSTORE PUSH1 0x24 PUSH1 0x0 REVERT JUMPDEST SWAP1 DUP2 PUSH1 0x20 SWAP2 SUB SLT PUSH2 0x26B JUMPI MLOAD DUP1 ISZERO ISZERO DUP2 SUB PUSH2 0x26B JUMPI SWAP1 JUMP JUMPDEST SWAP1 CALLDATALOAD PUSH1 0x1E NOT DUP3 CALLDATASIZE SUB ADD DUP2 SLT ISZERO PUSH2 0x26B JUMPI ADD PUSH1 0x20 DUP2 CALLDATALOAD SWAP2 ADD SWAP2 PUSH8 0xFFFFFFFFFFFFFFFF DUP3 GT PUSH2 0x26B JUMPI DUP2 CALLDATASIZE SUB DUP4 SGT PUSH2 0x26B JUMPI JUMP JUMPDEST SWAP1 DUP1 PUSH1 0x20 SWAP4 SWAP3 DUP2 DUP5 MSTORE DUP5 DUP5 ADD CALLDATACOPY PUSH1 0x0 DUP3 DUP3 ADD DUP5 ADD MSTORE PUSH1 0x1F ADD PUSH1 0x1F NOT AND ADD ADD SWAP1 JUMP JUMPDEST SWAP2 SWAP1 SWAP2 PUSH1 0x0 SWAP3 PUSH2 0x120 DUP3 ADD CALLDATALOAD PUSH12 0xFFFFFFFFFFFFFFFFFFFFFFFF DUP2 AND DUP1 SWAP2 SUB PUSH2 0x641 JUMPI PUSH1 0x40 SWAP1 DUP2 MLOAD SWAP3 PUSH32 0x95EA7B300000000000000000000000000000000000000000000000000000000 DUP5 MSTORE PUSH1 0x1 PUSH1 0x1 PUSH1 0xA0 SHL SUB SWAP2 DUP3 PUSH32 0x0 AND SWAP6 DUP7 PUSH1 0x4 DUP8 ADD MSTORE DUP2 PUSH1 0x24 DUP8 ADD MSTORE PUSH1 0x20 SWAP6 DUP7 DUP2 PUSH1 0x44 DUP2 DUP14 DUP10 PUSH32 0x0 AND GAS CALL DUP1 ISZERO PUSH2 0x637 JUMPI PUSH2 0x61A JUMPI JUMPDEST POP DUP5 MLOAD SWAP7 PUSH32 0x3F678E1100000000000000000000000000000000000000000000000000000000 DUP9 MSTORE DUP7 PUSH1 0x4 DUP10 ADD MSTORE PUSH2 0x41D PUSH2 0x40A DUP4 DUP1 PUSH2 0x2C0 JUMP JUMPDEST PUSH2 0x140 PUSH1 0x24 DUP13 ADD MSTORE PUSH2 0x164 DUP12 ADD SWAP2 PUSH2 0x2F2 JUMP JUMPDEST DUP11 PUSH2 0x441 PUSH2 0x42D DUP11 DUP7 ADD DUP7 PUSH2 0x2C0 JUMP JUMPDEST PUSH1 0x23 NOT DUP14 DUP7 SUB DUP2 ADD PUSH1 0x44 DUP16 ADD MSTORE SWAP5 SWAP2 PUSH2 0x2F2 JUMP JUMPDEST SWAP5 DUP8 PUSH2 0x44E DUP11 DUP8 ADD PUSH2 0x257 JUMP JUMPDEST AND PUSH1 0x64 DUP13 ADD MSTORE PUSH1 0x60 DUP6 ADD CALLDATALOAD PUSH4 0xFFFFFFFF DUP2 AND DUP1 SWAP2 SUB PUSH2 0x142 JUMPI PUSH1 0x84 DUP13 ADD MSTORE DUP8 PUSH2 0x479 PUSH1 0x80 DUP8 ADD PUSH2 0x257 JUMP JUMPDEST AND PUSH1 0xA4 DUP13 ADD MSTORE PUSH1 0xA0 DUP6 ADD CALLDATALOAD SWAP1 PUSH1 0xFF DUP3 AND DUP1 SWAP3 SUB PUSH2 0x142 JUMPI PUSH2 0x501 DUP13 SWAP7 DUP8 SWAP6 PUSH2 0x4F1 PUSH2 0x4E5 DUP16 SWAP12 PUSH2 0x4C7 SWAP1 DUP11 SWAP9 PUSH1 0xC4 DUP11 ADD MSTORE PUSH2 0x4B7 PUSH1 0xC0 DUP8 ADD DUP8 PUSH2 0x2C0 JUMP JUMPDEST SWAP1 DUP7 DUP12 DUP5 SUB ADD PUSH1 0xE4 DUP13 ADD MSTORE PUSH2 0x2F2 JUMP JUMPDEST PUSH2 0x4D4 PUSH1 0xE0 DUP7 ADD DUP7 PUSH2 0x2C0 JUMP JUMPDEST SWAP1 DUP6 DUP11 DUP5 SUB ADD PUSH2 0x104 DUP12 ADD MSTORE PUSH2 0x2F2 JUMP JUMPDEST SWAP3 PUSH2 0x100 DUP2 ADD SWAP1 PUSH2 0x2C0 JUMP JUMPDEST SWAP2 DUP7 DUP5 SUB ADD PUSH2 0x124 DUP8 ADD MSTORE PUSH2 0x2F2 JUMP JUMPDEST SWAP1 PUSH2 0x144 DUP4 ADD MSTORE SUB SWAP3 GAS CALL SWAP5 DUP6 ISZERO PUSH2 0x610 JUMPI DUP8 SWAP6 PUSH2 0x5DD JUMPI JUMPDEST POP DUP5 ISZERO PUSH2 0x580 JUMPI AND DUP6 MSTORE DUP5 DUP3 MSTORE DUP5 KECCAK256 SWAP1 DUP2 SLOAD SWAP2 PUSH9 0x10000000000000000 DUP4 LT ISZERO PUSH2 0x56C JUMPI PUSH1 0x1 DUP4 ADD DUP1 DUP3 SSTORE DUP4 LT ISZERO PUSH2 0x558 JUMPI SWAP5 DUP4 SWAP5 SWAP6 DUP2 MSTORE KECCAK256 ADD SSTORE SWAP1 JUMP JUMPDEST PUSH1 0x24 DUP7 PUSH4 0x4E487B71 PUSH1 0xE0 SHL DUP2 MSTORE PUSH1 0x32 PUSH1 0x4 MSTORE REVERT JUMPDEST PUSH1 0x24 DUP7 PUSH4 0x4E487B71 PUSH1 0xE0 SHL DUP2 MSTORE PUSH1 0x41 PUSH1 0x4 MSTORE REVERT JUMPDEST PUSH1 0x64 DUP5 DUP5 MLOAD SWAP1 PUSH32 0x8C379A000000000000000000000000000000000000000000000000000000000 DUP3 MSTORE PUSH1 0x4 DUP3 ADD MSTORE PUSH1 0x15 PUSH1 0x24 DUP3 ADD MSTORE PUSH32 0x6175746F2D617070726F76652064697361626C65640000000000000000000000 PUSH1 0x44 DUP3 ADD MSTORE REVERT JUMPDEST SWAP1 SWAP5 POP DUP4 DUP2 DUP2 RETURNDATASIZE DUP4 GT PUSH2 0x609 JUMPI JUMPDEST PUSH2 0x5F5 DUP2 DUP4 PUSH2 0x270 JUMP JUMPDEST DUP2 ADD SUB SLT PUSH2 0x605 JUMPI MLOAD SWAP4 CODESIZE PUSH2 0x51A JUMP JUMPDEST DUP7 DUP1 REVERT JUMPDEST POP RETURNDATASIZE PUSH2 0x5EB JUMP JUMPDEST DUP4 MLOAD RETURNDATASIZE DUP10 DUP3 RETURNDATACOPY RETURNDATASIZE SWAP1 REVERT JUMPDEST PUSH2 0x630 SWAP1 DUP8 RETURNDATASIZE DUP10 GT PUSH2 0x21D JUMPI PUSH2 0x211 DUP2 DUP4 PUSH2 0x270 JUMP JUMPDEST POP CODESIZE PUSH2 0x3D0 JUMP JUMPDEST DUP7 MLOAD RETURNDATASIZE DUP13 DUP3 RETURNDATACOPY RETURNDATASIZE SWAP1 REVERT JUMPDEST DUP5 DUP1 REVERT INVALID LOG2 PUSH5 0x6970667358 0x22 SLT KECCAK256 SGT 0x5F GAS 0xBE SELFDESTRUCT 0xC2 0xAA 0xD8 0xB9 0xCE PUSH1 0x4C 0x21 SGT POP POP 0x2F EXTCODESIZE 0xC6 0xC9 PUSH16 0x518A5636136BB8BC2BB98864736F6C63 NUMBER STOP ADDMOD SGT STOP CALLER LOG2 PUSH5 0x6970667358 0x22 SLT KECCAK256 0xA8 0xB8 SWAP14 CALL 0xE9 SWAP1 0xE8 DUP8 CODECOPY 0x2F PUSH19 0xEF0DDB50226AC6FB8A81098ECC09E07E43BA35 EXTCODEHASH 0xB5 PUSH5 0x736F6C6343 STOP ADDMOD SGT STOP CALLER POP 0xBB PUSH7 0x9A95C7B50B7E8A PUSH16 0x9454034B2B14CF2B85C730DCA9A539C 0xA8 0x2C 0xB6 0xE3 POP "},"methodIdentifiers":{"acceptOwnership()":"79ba5097","approveLINK(uint96)":"c5e14688","c_upkeep()":"2fc2a7b9","checkUpkeep(bytes)":"6e04ff0d","contractBalance()":"8b7afe2e","createUpkeep(uint96)":"8d7e6d2d","deployer()":"d5f39488","donID()":"6e74336b","farmer()":"d811fcf0","fulfillGasLimit()":"24b93e3e","gasLimit()":"f68016b7","handleOracleFulfillment(bytes32,bytes,bytes)":"0ca76175","humidityLimit()":"a3097139","lastUpkeepTimeStamp()":"089ea02e","latestError()":"fffeb84e","latestRequestId()":"1aa46f59","latestResponse()":"bef3a2f0","owner()":"8da5cb5b","performUpkeep(bytes)":"4585e33b","registerUpkeep((string,bytes,address,uint32,address,uint8,bytes,bytes,bytes,uint96))":"3f678e11","registry()":"7b103999","reparationValue()":"48bd6f05","request()":"338cdca1","requestCBOR()":"688ecfd1","responseCounter()":"381fc4b5","s_lastError()":"4b0795a8","s_lastRequestId()":"b1e21749","s_lastResponse()":"3944ea3a","s_requestCounter()":"48802b92","s_responseCounter()":"43cd3d86","s_upkeepCounter()":"f5c1279b","sampleMaxSize()":"ebf14a55","sampleStorage(uint256)":"277e2213","sepoliaLINKAddress()":"1243bcc3","sepoliaRegistrarAddress()":"6baa48fe","subscriptionId()":"09c1ba2e","transferOwnership(address)":"f2fde38b","updateInterval()":"fd2c80ae","upkeepCounter()":"a3d3c0d2","upkeepId()":"d2aa789f"}}}}}