{"contracts/Institution.sol":{"Institution":{"abi":[{"inputs":[{"internalType":"address","name":"_owner","type":"address"},{"internalType":"string","name":"_institutionName","type":"string"}],"stateMutability":"nonpayable","type":"constructor"},{"inputs":[],"name":"NotOwner","type":"error"},{"anonymous":false,"inputs":[{"indexed":false,"internalType":"address","name":"insuranceContractAddress","type":"address"}],"name":"InsuranceContractCreated","type":"event"},{"inputs":[{"internalType":"address","name":"_farmerAddr","type":"address"}],"name":"blacklistAddr","outputs":[],"stateMutability":"nonpayable","type":"function"},{"inputs":[],"name":"contractBalance","outputs":[{"internalType":"uint256","name":"","type":"uint256"}],"stateMutability":"view","type":"function"},{"inputs":[{"internalType":"address","name":"","type":"address"},{"internalType":"uint256","name":"","type":"uint256"}],"name":"contracts","outputs":[{"internalType":"contract AutomatedFunctionsConsumer","name":"","type":"address"}],"stateMutability":"view","type":"function"},{"inputs":[{"internalType":"address","name":"_deployer","type":"address"},{"internalType":"address","name":"_farmer","type":"address"},{"internalType":"uint256","name":"_humidityLimit","type":"uint256"},{"internalType":"uint256","name":"_sampleMaxSize","type":"uint256"},{"internalType":"uint256","name":"_reparationValue","type":"uint256"},{"internalType":"uint256","name":"_updateInterval","type":"uint256"},{"internalType":"address","name":"router","type":"address"},{"internalType":"uint64","name":"_subscriptionId","type":"uint64"},{"internalType":"address","name":"_registry","type":"address"},{"internalType":"address","name":"_sepoliaLINKAddress","type":"address"},{"internalType":"address","name":"_sepoliaRegistrarAddress","type":"address"},{"internalType":"uint32","name":"_fulfillGasLimit","type":"uint32"}],"name":"createInsuranceContract","outputs":[],"stateMutability":"nonpayable","type":"function"},{"inputs":[{"internalType":"address","name":"_farmerAddress","type":"address"}],"name":"getAllInsuranceContracts","outputs":[{"internalType":"contract AutomatedFunctionsConsumer[]","name":"","type":"address[]"}],"stateMutability":"view","type":"function"},{"inputs":[],"name":"im_owner","outputs":[{"internalType":"address","name":"","type":"address"}],"stateMutability":"view","type":"function"},{"inputs":[{"internalType":"string","name":"","type":"string"}],"name":"info","outputs":[{"internalType":"string","name":"","type":"string"}],"stateMutability":"view","type":"function"},{"inputs":[{"internalType":"uint256","name":"","type":"uint256"}],"name":"infoKeys","outputs":[{"internalType":"string","name":"","type":"string"}],"stateMutability":"view","type":"function"},{"inputs":[],"name":"institutionName","outputs":[{"internalType":"string","name":"","type":"string"}],"stateMutability":"view","type":"function"},{"inputs":[{"internalType":"string[2][]","name":"infoArray","type":"string[2][]"}],"name":"registerInfo","outputs":[],"stateMutability":"nonpayable","type":"function"},{"inputs":[{"internalType":"address","name":"","type":"address"}],"name":"whitelist","outputs":[{"internalType":"bool","name":"","type":"bool"}],"stateMutability":"view","type":"function"},{"inputs":[{"internalType":"address","name":"_farmerAddr","type":"address"}],"name":"whitelistAddr","outputs":[],"stateMutability":"nonpayable","type":"function"},{"inputs":[],"name":"withdraw","outputs":[],"stateMutability":"nonpayable","type":"function"},{"stateMutability":"payable","type":"receive"}],"evm":{"bytecode":{"linkReferences":{},"object":"60a0604052346200024857620055bb803803806200001d816200024d565b928339810190604081830312620002485780516001600160a01b038116810362000248576020828101516001600160401b039391929184821162000248570193601f91818387011215620002485785518581116200021d57601f19966200008a828601891687016200024d565b938285528683830101116200024857859060005b838110620002335750506000918401015260805280519384116200021d57600054926001938481811c9116801562000212575b82821014620001fc57838111620001b1575b5080928511600114620001475750839450908392916000946200013b575b50501b916000199060031b1c1916176000555b60405161534790816200027482396080518181816101bf0152818161041201526108d50152f35b01519250388062000101565b9294849081166000805284600020946000905b888383106200019657505050106200017c575b505050811b0160005562000114565b015160001960f88460031b161c191690553880806200016d565b8587015188559096019594850194879350908101906200015a565b60008052816000208480880160051c820192848910620001f2575b0160051c019085905b828110620001e5575050620000e3565b60008155018590620001d5565b92508192620001cc565b634e487b7160e01b600052602260045260246000fd5b90607f1690620000d1565b634e487b7160e01b600052604160045260246000fd5b8181018301518682018401528792016200009e565b600080fd5b6040519190601f01601f191682016001600160401b038111838210176200021d5760405256fe608060405260043610156200001d575b36156200001b57600080fd5b005b60003560e01c8063080a57f91462000b4057806317fab0a01462000a615780633a133e2c14620009875780633ccfd60b14620008b85780633f0f912d14620007fb57806377ad0b3414620005dc5780638a699f00146200059e5780638b7afe2e146200058057806390f6d37814620004795780639b19251a1462000436578063af6081de14620003f0578063dfb50e6414620001245763ed23f8c3036200000f57346200011f5760403660031901126200011f57620000db62000b81565b602435906001600160a01b038091166000526004602052604060002080548310156200011f576020926200010f9162000d03565b9190546040519260031b1c168152f35b600080fd5b346200011f5760203660031901126200011f5767ffffffffffffffff600435116200011f573660236004350112156200011f576004356004013567ffffffffffffffff8111620003da578060051b906040519062000186602084018362000b98565b8152602081016024923684826004350101116200011f578360043501915b84826004350101831062000303575050506001600160a01b037f0000000000000000000000000000000000000000000000000000000000000000163303620002d95760005b81518110156200001b5762000240602062000205838562000d1c565b5101516200023060206200021a858762000d1c565b5151816040519382858094519384920162000c25565b8101600281520301902062000d31565b6200024c818362000d1c565b51516001805468010000000000000000811015620002c4578162000274928201905562000cb5565b919091620002af57620002879162000d31565b60001981146200029a57600101620001e9565b82634e487b7160e01b60005260116004526000fd5b84634e487b7160e01b60005260006004526000fd5b85634e487b7160e01b60005260416004526000fd5b60046040517f30cd7471000000000000000000000000000000000000000000000000000000008152fd5b823567ffffffffffffffff81116200011f5736604382600435010112156200011f57604051906040820182811067ffffffffffffffff821117620003c557604052600435810160640190823683116200011f5790889493929185826004350101905b838210620003835750505090825250602093840193019050620001a4565b9091929394955067ffffffffffffffff8235116200011f5760208091620003b4368d86358860043501010162000bd8565b815201910189959493929162000365565b87634e487b7160e01b60005260416004526000fd5b634e487b7160e01b600052604160045260246000fd5b346200011f5760003660031901126200011f5760206040516001600160a01b037f0000000000000000000000000000000000000000000000000000000000000000168152f35b346200011f5760203660031901126200011f576001600160a01b036200045b62000b81565b166000526003602052602060ff604060002054166040519015158152f35b346200011f576020806003193601126200011f576004359060019182548110156200011f57620004a99062000cb5565b9190916200056a5760405191600093815491620004c68362000c4a565b8086529282811690811562000545575060011462000503575b620004ff85620004f28189038262000b98565b6040519182918262000c87565b0390f35b6000908152838120939550925b828410620005315750505081620004ff93620004f2928201019385620004df565b805485850187015292850192810162000510565b60ff191686860152505050151560051b8201019150620004f281620004ff85620004df565b634e487b7160e01b600052600060045260246000fd5b346200011f5760003660031901126200011f57602047604051908152f35b346200011f5760203660031901126200011f576001600160a01b03620005c362000b81565b166000908152600360205260409020805460ff19169055005b346200011f57610180806003193601126200011f57620005fb62000b81565b602435916001600160a01b03918284168094036200011f576084359160c435918483168093036200011f5760e43567ffffffffffffffff908181168091036200011f57610104358781168091036200011f57610124358881168091036200011f5761014435918983168093036200011f57610164359363ffffffff85168095036200011f578b600052600360205260ff60406000205416156200079157604051986144c0808b019788118b891017620003da578a988d9162000e528b391687528c6020880152604435604088015260643560608801528a608088015260a43560a088015260c087015260e0860152610100850152610120840152610140830152610160820152030191f09182156200078557600052600460205260406000209081549268010000000000000000841015620003da5781620007668560209560017fa155a575082ecf596e5a22a44834be92670605d1d0832000305888ba02a462d99801815562000d03565b939092169282549060031b9184831b921b1916179055604051908152a1005b6040513d6000823e3d90fd5b608460405162461bcd60e51b815260206004820152602160248201527f456e64657265636f206e616f2065737461206e61206c69737461206272616e6360448201527f61000000000000000000000000000000000000000000000000000000000000006064820152fd5b346200011f576020806003193601126200011f576001600160a01b0390816200082362000b81565b1660005260048152604060002060405191828183549182815201908193600052826000209060005b818110620008a157505050836200086491038462000b98565b60405192818401908285525180915260408401929160005b8281106200088a5785850386f35b83518716855293810193928101926001016200087c565b82548816845292840192600192830192016200084b565b346200011f5760003660031901126200011f576001600160a01b037f000000000000000000000000000000000000000000000000000000000000000016803303620002d95760008080809347905af13d1562000981573d6200091a8162000bbb565b906200092a604051928362000b98565b8152600060203d92013e5b156200093d57005b606460405162461bcd60e51b815260206004820152601060248201527f5769746864726177206661696c65642e000000000000000000000000000000006044820152fd5b62000935565b346200011f5760003660031901126200011f5760405160008054620009ac8162000c4a565b8084529060019081811690811562000a385750600114620009db575b620004ff84620004f28186038262000b98565b600080805292507f290decd9548b62a8d60345a988386fc84ba6bc95484008f6362f93160ef3e5635b82841062000a1f575050508101602001620004f282620009c8565b8054602085870181019190915290930192810162000a04565b60ff191660208087019190915292151560051b85019092019250620004f29150839050620009c8565b346200011f576020806003193601126200011f5760043567ffffffffffffffff81116200011f578162000a9d62000ab192369060040162000bd8565b816040519382858094519384920162000c25565b810160028152030190209060405190600092805462000ad08162000c4a565b8085529160019180831690811562000545575060011462000afe57620004ff85620004f28189038262000b98565b6000908152838120939550925b82841062000b2c5750505081620004ff93620004f2928201019385620004df565b805485850187015292850192810162000b0b565b346200011f5760203660031901126200011f576001600160a01b0362000b6562000b81565b166000908152600360205260409020805460ff19166001179055005b600435906001600160a01b03821682036200011f57565b90601f8019910116810190811067ffffffffffffffff821117620003da57604052565b67ffffffffffffffff8111620003da57601f01601f191660200190565b81601f820112156200011f5780359062000bf28262000bbb565b9262000c02604051948562000b98565b828452602083830101116200011f57816000926020809301838601378301015290565b60005b83811062000c395750506000910152565b818101518382015260200162000c28565b90600182811c9216801562000c7c575b602083101462000c6657565b634e487b7160e01b600052602260045260246000fd5b91607f169162000c5a565b6040916020825262000ca9815180928160208601526020868601910162000c25565b601f01601f1916010190565b60015481101562000ced5760016000527fb10e2d527612073b26eecdfd717e6a320cf44b4afac2b0732d9fcbe2b7fa0cf60190600090565b634e487b7160e01b600052603260045260246000fd5b805482101562000ced5760005260206000200190600090565b805182101562000ced5760209160051b010190565b919091825167ffffffffffffffff8111620003da5762000d52825462000c4a565b601f811162000e04575b50602080601f831160011462000d9c57508192939460009262000d90575b50508160011b916000199060031b1c1916179055565b01519050388062000d7a565b90601f198316958460005282600020926000905b88821062000deb5750508360019596971062000dd1575b505050811b019055565b015160001960f88460031b161c1916905538808062000dc7565b8060018596829496860151815501950193019062000db0565b600083815260208120601f840160051c8101926020851062000e46575b601f0160051c01915b82811062000e3a57505062000d5c565b81815560010162000e2a565b909250829062000e2156fe60c06001600160401b03601f620044c038819003918201601f191684019183831185841017620002025780859261018094604052833981010312620001fd57620000498262000218565b91620000586020820162000218565b60408201519260608301519060808401519060a0850151956200007e60c0870162000218565b9660e0870151928316809303620001fd576200009e610100880162000218565b93620000ae610120890162000218565b95610160620000c16101408b0162000218565b9901519363ffffffff85168503620001fd576001600160a01b039a8b166080528b8b169b8c15620001b8578b998a91600160a01b60019003199e8f600054161760005560185490600160a81b61010090039060081b1690600160a81b6101009003191617601855168c6019541617601955601c55601d55601b5560075584600654931660a05260401b6bffffffff00000000000000001691600160601b6001900319161717600655168360085416176008551690600954161760095542600f5560405161429290816200022e823960805181818161049b015281816123880152612589015260a05181818161140c01526125db0152f35b60405162461bcd60e51b815260206004820152601860248201527f43616e6e6f7420736574206f776e657220746f207a65726f00000000000000006044820152606490fd5b600080fd5b634e487b7160e01b600052604160045260246000fd5b51906001600160a01b0382168203620001fd5756fe608060405260043610156200001d575b36156200001b57600080fd5b005b60003560e01c8063089ea02e14620002fe57806309c1ba2e14620002f85780630ca7617514620002f25780631243bcc314620002ec5780631aa46f5914620002e657806324b93e3e14620002e0578063277e221314620002da5780632fc2a7b914620002d4578063338cdca114620002ce578063381fc4b514620002c85780633944ea3a14620002c25780633f678e1114620002bc57806343cd3d8614620002b65780634585e33b14620002b0578063472cbbb014620002aa57806348802b9214620002a457806348bd6f05146200029e5780634b0795a814620002985780635e0611f11462000292578063688ecfd1146200028c5780636baa48fe14620002865780636e04ff0d14620002805780636e74336b146200027a57806379ba509714620002745780637b103999146200026e5780638b7afe2e14620002685780638d7e6d2d14620002625780638da5cb5b146200025c578063a30971391462000256578063a3d3c0d21462000250578063b1e21749146200024a578063bef3a2f01462000244578063d1384eb6146200023e578063d2aa789f1462000238578063d811fcf01462000232578063ebf14a55146200022c578063f2fde38b1462000226578063f5c1279b1462000220578063f68016b7146200021a578063fd2c80ae14620002145763fffeb84e036200000f5762001a4d565b62001a2d565b62001a07565b620019e7565b6200190e565b620018c2565b62001899565b62001879565b6200184d565b62001798565b62001778565b62001758565b62001738565b6200170f565b62001484565b62001430565b620013ea565b62001306565b620012e6565b62001264565b6200123b565b62001186565b6200115d565b620010a8565b62001088565b62001068565b62000e9d565b62000dad565b62000d5c565b62000c2c565b62000b77565b62000b57565b62000a64565b62000a3b565b620009cb565b62000704565b620006e4565b620006bb565b6200043a565b62000335565b62000315565b60009103126200031057565b600080fd5b346200031057600036600319011262000310576020600f54604051908152f35b34620003105760003660031901126200031057602067ffffffffffffffff60065416604051908152f35b634e487b7160e01b600052604160045260246000fd5b67ffffffffffffffff81116200038a57604052565b6200035f565b6040810190811067ffffffffffffffff8211176200038a57604052565b90601f8019910116810190811067ffffffffffffffff8211176200038a57604052565b67ffffffffffffffff81116200038a57601f01601f191660200190565b81601f8201121562000310578035906200040782620003d0565b92620004176040519485620003ad565b828452602083830101116200031057816000926020809301838601378301015290565b34620003105760603660031901126200031057600480359067ffffffffffffffff906024358281116200031057620004769036908301620003ed565b6044358381116200031057620004909036908401620003ed565b906001600160a01b037f0000000000000000000000000000000000000000000000000000000000000000163303620006925780519384116200038a5782620004e585620004df88965462000797565b62001d76565b602080601f8711600114620005e3575094807f7bab0ec163b5c132c72b8146ac4d6e067e82ed58f8b131150aa71c92589115629596600091620005d7575b508160011b916000199060031b1c19161790555b6200054282620037a8565b620005586200055360115462001fc8565b601155565b60ff6200056760185460ff1690565b16620005b3576200057881620038c3565b6200058960405192839283620039d2565b0390a27f85e1543bf2f84fe80c6badbce3648c8539ad1df4d2b3d822938ca0538be727e6600080a2005b620005c7620005c2826200389f565b602055565b620005d162003a47565b62000578565b90508301513862000523565b600460005290601f1987167f8a35acfbc15ff81a39ae7d344fd709f28e8600b4aa8c65c6b64bfe7fe36bd19b926000905b828210620006755750509187917f7bab0ec163b5c132c72b8146ac4d6e067e82ed58f8b131150aa71c92589115629798600194106200065b575b5050811b01905562000537565b85015160001960f88460031b161c1916905538806200064e565b8684015185558a9850600190940193928301929081019062000614565b826040517fc6829f83000000000000000000000000000000000000000000000000000000008152fd5b3462000310576000366003190112620003105760206001600160a01b0360085416604051908152f35b346200031057600036600319011262000310576020600354604051908152f35b34620003105760003660031901126200031057602060065463ffffffff6040519160401c168152f35b634e487b7160e01b600052603260045260246000fd5b601e548110156200077b57601e6000527f50bb669a95c7b50b7e8a6f09454034b2b14cf2b85c730dca9a539ca82cb6e3500190600090565b6200072d565b634e487b7160e01b600052600060045260246000fd5b90600182811c92168015620007c9575b6020831014620007b357565b634e487b7160e01b600052602260045260246000fd5b91607f1691620007a7565b60405190600082601f5491620007ea8362000797565b808352926001908181169081156200087a575060011462000817575b506200081592500383620003ad565b565b601f600090815291507fa03837a25210ee280c2113ff4b77ca23440b19d4866cca721c801278fd08d8075b8483106200085e57506200081593505081016020013862000806565b81935090816020925483858a0101520191019091859262000842565b9050602092506200081594915060ff191682840152151560051b8201013862000806565b9060405191826000825492620008b48462000797565b908184526001948581169081600014620009295750600114620008e2575b50506200081592500383620003ad565b9093915060005260209081600020936000915b818310620009105750506200081593508201013880620008d2565b85548884018501529485019487945091830191620008f5565b9150506200081594506020925060ff191682840152151560051b8201013880620008d2565b60005b8281106200096157506000910152565b60808101518282015260200162000951565b919082519283825260005b848110620009a0575050826000602080949584010152601f8019910116010190565b6020818301810151848301820152016200097e565b906020620009c892818152019062000973565b90565b34620003105760203660031901126200031057600435601e54811015620003105762000a2262000a3791601e6000527f50bb669a95c7b50b7e8a6f09454034b2b14cf2b85c730dca9a539ca82cb6e350016200089e565b60405191829160208352602083019062000973565b0390f35b3462000310576000366003190112620003105760206001600160a01b03600a5416604051908152f35b34620003105760008060031936011262000b54576040519080600c5462000a8b8162000797565b8085529160019180831690811562000b27575060011462000ac7575b62000a378562000aba81870382620003ad565b60405191829182620009b5565b9250600c83527fdf6966c971051c3d54ec59162606531493a51404a002842f56009d7e5cf4a8c75b82841062000b0e57505050810160200162000aba8262000a3762000aa7565b8054602085870181019190915290930192810162000aef565b86955062000a379693506020925062000aba94915060ff191682840152151560051b820101929362000aa7565b80fd5b346200031057600036600319011262000310576020601154604051908152f35b34620003105760008060031936011262000b5457604051908060135462000b9e8162000797565b8085529160019180831690811562000b27575060011462000bcc5762000a378562000aba81870382620003ad565b9250601383527f66de8ffda797e3de9c05e8fc57b3bf0ec28a930d40b0d285d93c06501cf6a0905b82841062000c1357505050810160200162000aba8262000a3762000aa7565b8054602085870181019190915290930192810162000bf4565b34620003105760031960203682011262000310576004359067ffffffffffffffff821162000310576101409082360301126200031057602062000cd160009262000c9762000c8b6001600160a01b03600a54166001600160a01b031690565b6001600160a01b031690565b906040519485809481937fbc61a4730000000000000000000000000000000000000000000000000000000083526004016004830162001bf6565b03925af1801562000d565762000cf09160009162000d21575b50600b55565b600b546040519081527f7623383a750b4166574a1b2dff61440ed0dfa3708cbe620c58339cca510d1af990602090a1005b62000d47915060203d811162000d4e575b62000d3e8183620003ad565b81019062001b81565b3862000cea565b503d62000d32565b62001b5b565b346200031057600036600319011262000310576020601754604051908152f35b9181601f84011215620003105782359167ffffffffffffffff83116200031057602083818601950101116200031057565b3462000310576020366003190112620003105760043567ffffffffffffffff8111620003105762000de390369060040162000d7c565b50506000546001600160a01b0316338114158062000e56575b62000e0b576200001b620022c5565b601a546040517f426fbc710000000000000000000000000000000000000000000000000000000081523360048201526001600160a01b03928316602482015291166044820152606490fd5b5062000e6e62000c8b601a546001600160a01b031690565b33141562000dfc565b6044359063ffffffff821682036200031057565b359063ffffffff821682036200031057565b34620003105760a0366003190112620003105767ffffffffffffffff600435818111620003105762000ed490369060040162000d7c565b60243592918383168403620003105762000eed62000e77565b9262000ef862001b02565b82116200038a5762000f178262000f1160025462000797565b62001ddc565b600090601f831160011462000fbe57918062000f9a959262000f6f9460009262000fb2575b50508160011b916000199060031b1c19161760025567ffffffffffffffff1667ffffffffffffffff196006541617600655565b6bffffffff00000000000000006006549160401b16906bffffffff0000000000000000191617600655565b62000fa6606435600e55565b6200001b608435600755565b01359050388062000f3c565b60026000527f405787fa12a823e0f2b7631cc41b3ba8828b3321ca811111fa75cd3aa3bb5ace91601f198416815b8181106200104f575092600192859262000f6f9662000f9a99961062001034575b505050811b0160025567ffffffffffffffff1667ffffffffffffffff196006541617600655565b0135600019600384901b60f8161c191690553880806200100d565b9193602060018192878701358155019501920162000fec565b346200031057600036600319011262000310576020601654604051908152f35b346200031057600036600319011262000310576020601b54604051908152f35b34620003105760008060031936011262000b54576040519080601454620010cf8162000797565b8085529160019180831690811562000b275750600114620010fd5762000a378562000aba81870382620003ad565b9250601483527fce6d7b5282bd9a3661ae061feed1dbda4e52ab073b1f9285be6e155d9c38d4ec5b8284106200114457505050810160200162000aba8262000a3762000aa7565b8054602085870181019190915290930192810162001125565b3462000310576000366003190112620003105760206001600160a01b03601a5416604051908152f35b34620003105760008060031936011262000b54576040519080600254620011ad8162000797565b8085529160019180831690811562000b275750600114620011db5762000a378562000aba81870382620003ad565b9250600283527f405787fa12a823e0f2b7631cc41b3ba8828b3321ca811111fa75cd3aa3bb5ace5b8284106200122257505050810160200162000aba8262000a3762000aa7565b8054602085870181019190915290930192810162001203565b3462000310576000366003190112620003105760206001600160a01b0360095416604051908152f35b3462000310576020366003190112620003105760043567ffffffffffffffff811162000310576200129a903690600401620003ed565b50600f544203428111620012e05760075410604051908152604060208201526060818151806040830152620012d2818484016200094e565b601f01601f19168101030190f35b62001ece565b346200031057600036600319011262000310576020600e54604051908152f35b34620003105760008060031936011262000b54576001600160a01b0380600154163303620013a65781546001600160a01b03166000805473ffffffffffffffffffffffffffffffffffffffff191633179055906200137c73ffffffffffffffffffffffffffffffffffffffff1960015416600155565b3391167f8be0079c531659141344cd1fd0a4f28419497f9722a3daafe3b4186f6b6457e08380a380f35b606460405162461bcd60e51b815260206004820152601660248201527f4d7573742062652070726f706f736564206f776e6572000000000000000000006044820152fd5b3462000310576000366003190112620003105760206040516001600160a01b037f0000000000000000000000000000000000000000000000000000000000000000168152f35b34620003105760003660031901126200031057602047604051908152f35b600435906bffffffffffffffffffffffff821682036200031057565b35906bffffffffffffffffffffffff821682036200031057565b34620003105760203660031901126200031057620014a16200144e565b6008546001600160a01b031690620014c16009546001600160a01b031690565b916040519261073a8085019185831067ffffffffffffffff8411176200038a5785936200151f93869362003b2387396001600160a01b039182168152911660208201526bffffffffffffffffffffffff909116604082015260600190565b0360009283f0801562000d5657620015ed91620015616020926001600160a01b031673ffffffffffffffffffffffffffffffffffffffff19600a541617600a55565b6200157c62000c8b62000c8b6008546001600160a01b031690565b6200159362000c8b600a546001600160a01b031690565b856040518096819582947f095ea7b3000000000000000000000000000000000000000000000000000000008452600484019092916bffffffffffffffffffffffff6020916001600160a01b03604085019616845216910152565b03925af1801562000d5657620016da575b50806200161762000c8b600a546001600160a01b031690565b803b15620016d75781906004604051809481937fb60d42880000000000000000000000000000000000000000000000000000000083525af1801562000d5657620016b9575b507f3583c1105fd29a46b4d92ceeaff8be03cba58a11cce44a3b7da77bbc3798edc4620016b36200169962000c8b600a546001600160a01b031690565b6040516001600160a01b0390911681529081906020820190565b0390a180f35b80620016c9620016d09262000375565b8062000304565b386200165c565b50fd5b620016ff9060203d811162001707575b620016f68183620003ad565b81019062001b67565b5038620015fe565b503d620016ea565b3462000310576000366003190112620003105760206001600160a01b0360005416604051908152f35b346200031057600036600319011262000310576020601c54604051908152f35b346200031057600036600319011262000310576020601054604051908152f35b346200031057600036600319011262000310576020601254604051908152f35b34620003105760008060031936011262000b54576040519080600454620017bf8162000797565b8085529160019180831690811562000b275750600114620017ed5762000a378562000aba81870382620003ad565b9250600483527f8a35acfbc15ff81a39ae7d344fd709f28e8600b4aa8c65c6b64bfe7fe36bd19b5b8284106200183457505050810160200162000aba8262000a3762000aa7565b8054602085870181019190915290930192810162001815565b3462000310576000366003190112620003105760206001600160a01b0360185460081c16604051908152f35b346200031057600036600319011262000310576020600b54604051908152f35b3462000310576000366003190112620003105760206001600160a01b0360195416604051908152f35b346200031057600036600319011262000310576020601d54604051908152f35b600435906001600160a01b03821682036200031057565b35906001600160a01b03821682036200031057565b346200031057602036600319011262000310576001600160a01b0362001933620018e2565b6200193d62001b02565b16338114620019a3578073ffffffffffffffffffffffffffffffffffffffff1960015416176001556200197c62000c8b6000546001600160a01b031690565b7fed8889f560326eb138920d842192f0eb3dd22b4f139c87a2c57538e05bae1278600080a3005b606460405162461bcd60e51b815260206004820152601760248201527f43616e6e6f74207472616e7366657220746f2073656c660000000000000000006044820152fd5b346200031057600036600319011262000310576020601554604051908152f35b34620003105760003660031901126200031057602063ffffffff600d5416604051908152f35b346200031057600036600319011262000310576020600754604051908152f35b34620003105760008060031936011262000b5457604051908060055462001a748162000797565b8085529160019180831690811562000b27575060011462001aa25762000a378562000aba81870382620003ad565b9250600583527f036b6384b5eca791c62761152d0c79bb0604c104a5fb6f4eb0703f3154bb3db05b82841062001ae957505050810160200162000aba8262000a3762000aa7565b8054602085870181019190915290930192810162001aca565b6001600160a01b0360005416330362001b1757565b606460405162461bcd60e51b815260206004820152601660248201527f4f6e6c792063616c6c61626c65206279206f776e6572000000000000000000006044820152fd5b6040513d6000823e3d90fd5b908160209103126200031057518015158103620003105790565b9081602091031262000310575190565b9035601e19823603018112156200031057016020813591019167ffffffffffffffff8211620003105781360383136200031057565b908060209392818452848401376000828201840152601f01601f1916010190565b359060ff821682036200031057565b620009c8906020815262001c2b62001d4a62001c13858062001b91565b92906101409384602087015261016086019162001bc6565b62001d4262001cfa62001c5b62001c4660208a018a62001b91565b601f19898703810160408b0152959162001bc6565b62001c7d62001c6d60408b01620018f9565b6001600160a01b03166060890152565b62001c9c62001c8f60608b0162000e8b565b63ffffffff166080890152565b62001cbe62001cae60808b01620018f9565b6001600160a01b031660a0890152565b62001cda62001cd060a08b0162001be7565b60ff1660c0890152565b62001ce960c08a018a62001b91565b90858984030160e08a015262001bc6565b62001d2f62001d2562001d1160e08b018b62001b91565b6101009491878b840301868c015262001bc6565b9189018962001b91565b9061012094888403018589015262001bc6565b95016200146a565b6bffffffffffffffffffffffff16910152565b81811062001d69575050565b6000815560010162001d5d565b90601f821162001d84575050565b620008159160046000527f8a35acfbc15ff81a39ae7d344fd709f28e8600b4aa8c65c6b64bfe7fe36bd19b906020601f840160051c8301931062001dd1575b601f0160051c019062001d5d565b909150819062001dc3565b90601f821162001dea575050565b620008159160026000527f405787fa12a823e0f2b7631cc41b3ba8828b3321ca811111fa75cd3aa3bb5ace906020601f840160051c8301931062001dd157601f0160051c019062001d5d565b90601f821162001e44575050565b620008159160056000527f036b6384b5eca791c62761152d0c79bb0604c104a5fb6f4eb0703f3154bb3db0906020601f840160051c8301931062001dd157601f0160051c019062001d5d565b9190601f811162001ea057505050565b62000815926000526020600020906020601f840160051c8301931062001dd157601f0160051c019062001d5d565b634e487b7160e01b600052601160045260246000fd5b601f19810191908211620012e057565b600f544203428111620012e0576007541090606090565b1562001f1357565b606460405162461bcd60e51b815260206004820152601560248201527f55706b656570206e6f74207265676973746572656400000000000000000000006044820152fd5b604051906020820182811067ffffffffffffffff8211176200038a5760405260008252565b1562001f8457565b606460405162461bcd60e51b815260206004820152601560248201527f54696d6520696e74657276616c206e6f74206d657400000000000000000000006044820152fd5b9060018201809211620012e057565b9060208201809211620012e057565b91908201809211620012e057565b6040519060e0820182811067ffffffffffffffff8211176200038a57604052606060c08360008152600060208201526000604082015282808201528260808201528260a08201520152565b601e549067ffffffffffffffff82116200038a576040519160206200206a818360051b0185620003ad565b81845280840190601e6000527f50bb669a95c7b50b7e8a6f09454034b2b14cf2b85c730dca9a539ca82cb6e3506000925b848410620020aa575050505050565b6001838192620020ba856200089e565b8152019201930192906200209b565b90620020f960809367ffffffffffffffff63ffffffff939897969816845260a0602085015260a084019062000973565b95600160408401521660608201520152565b60009060033d116200211957565b905060046000803e60005160e01c90565b600060443d10620009c857604051600319913d83016004833e815167ffffffffffffffff918282113d6024840111176200218e5781840194855193841162002196573d850101602084870101116200218e5750620009c892910160200190620003ad565b949350505050565b50949350505050565b3d15620021cf573d90620021b382620003d0565b91620021c36040519384620003ad565b82523d6000602084013e565b606090565b9067ffffffffffffffff909493929416815260209360a085830152600060025495620022008762000797565b908160a086015260019788811690816000146200229b57506001146200223c575b5050604083019590955263ffffffff16606082015260800152565b600260009081529250877f405787fa12a823e0f2b7631cc41b3ba8828b3321ca811111fa75cd3aa3bb5ace5b838510620022855750505050820160c0018163ffffffff62002221565b805487860160c001529382019389910162002268565b60ff191660c08781019190915292151560051b8601909201925083915063ffffffff905062002221565b620022d4600b54151562001f0b565b620022de62001f57565b50620022f4620022ed62001ef4565b5062001f7c565b620022fe42600f55565b620023146200230f60105462001fc8565b601055565b601d54601e541015620024d357620023376200233260155462001fc8565b601555565b60065467ffffffffffffffff16602062002356600d5463ffffffff1690565b600e54926200237a604051948593849363230e93b160e11b855260048501620021d4565b038160006001600160a01b037f0000000000000000000000000000000000000000000000000000000000000000165af160009181620024ae575b506200246757506001620023c76200210b565b6308c379a0146200240e575b620023da57565b7f9c4bfa18304482256875c29fabb1a44a5ecd325f214ea17bab8f31e869faf4c86200240962000aba6200219f565b0390a1565b620024186200212a565b8062002426575b50620023d3565b90507f2ba61e3733e7ac99181c22307780f651ec8fd92fe661a84dfbe711710b2dc36c6200245d60009260405191829182620009b5565b0390a1386200241f565b6200247181601255565b620024876200248260165462001fc8565b601655565b7f1131472297a800fee664d1d89cfa8f7676ff07189ecc53f80bbb5f4969099db8600080a2565b620024cb91925060203d811162000d4e5762000d3e8183620003ad565b9038620023b4565b620024e6600160ff196018541617601855565b62002524620024f462001ff4565b6200250962002502620007d4565b8262002b90565b6200251e620025176200203f565b8262002bd2565b62002953565b620025356200233260155462001fc8565b60065467ffffffffffffffff166200257462002556600d5463ffffffff1690565b600e549060405194859463230e93b160e11b865260048601620020c9565b036000916020816001600160a01b03938186867f0000000000000000000000000000000000000000000000000000000000000000165af18391816200273a575b50620026f557506001620025c76200210b565b6308c379a0146200269d575b62002665575b7f000000000000000000000000000000000000000000000000000000000000000016600b54813b1562002661576040517f8765ecbe000000000000000000000000000000000000000000000000000000008152600481019190915291908290602490829084905af1801562000d565762002651575b50565b80620016c9620008159262000375565b8280fd5b7f9c4bfa18304482256875c29fabb1a44a5ecd325f214ea17bab8f31e869faf4c86200269462000aba6200219f565b0390a1620025d9565b620026a76200212a565b80620026b5575b50620025d3565b90507f2ba61e3733e7ac99181c22307780f651ec8fd92fe661a84dfbe711710b2dc36c620026eb849260405191829182620009b5565b0390a138620026ae565b620026ff81601255565b620027106200248260165462001fc8565b7f1131472297a800fee664d1d89cfa8f7676ff07189ecc53f80bbb5f4969099db88380a2620025d9565b6200275791925060203d811162000d4e5762000d3e8183620003ad565b9038620025b4565b604051906200276e8262000390565b600c82527f636f64654c6f636174696f6e00000000000000000000000000000000000000006020830152565b634e487b7160e01b600052602160045260246000fd5b60031115620027bb57565b6200279a565b60405190620027d08262000390565b600882527f6c616e67756167650000000000000000000000000000000000000000000000006020830152565b60011115620027bb57565b60405190620028168262000390565b600682527f736f7572636500000000000000000000000000000000000000000000000000006020830152565b60405190620028518262000390565b600482527f61726773000000000000000000000000000000000000000000000000000000006020830152565b6000198114620012e05760010190565b80518210156200077b5760209160051b010190565b60405190620028b18262000390565b600f82527f736563726574734c6f636174696f6e00000000000000000000000000000000006020830152565b60405190620028ec8262000390565b600782527f73656372657473000000000000000000000000000000000000000000000000006020830152565b60405190620029278262000390565b600982527f62797465734172677300000000000000000000000000000000000000000000006020830152565b6200295d62002c26565b90620029736200296c6200275f565b8362003418565b6200299681516200298481620027b0565b6200298f81620027b0565b8362002cd6565b620029a46200296c620027c1565b620029c36040820151620029b881620027fc565b6200298f81620027fc565b620029d16200296c62002807565b620029e160608201518362003418565b60a0810180515162002b27575b50608081019081515162002a79575b60c091500180515162002a11575b50515190565b9162002a206200296c62002918565b62002a2b82620034b0565b60005b8351805182101562002a63579062002a5762002a4f8262002a5d946200288d565b51856200334c565b6200287d565b62002a2e565b5050915062002a728162003548565b3862002a0b565b60208101805162002a8a81620027b0565b62002a9581620027b0565b1562002afd5760c09262002ada62002af79262002abc62002ab5620028a2565b8862003418565b5162002ac881620027b0565b62002ad381620027b0565b8662002cd6565b62002aef62002ae8620028dd565b8662003418565b51846200334c565b620029fd565b60046040517fa80d31f7000000000000000000000000000000000000000000000000000000008152fd5b9262002b3d62002b3662002842565b8462003418565b62002b4883620034b0565b60005b8451805182101562002b7a579062002a5762002b6c8262002b74946200288d565b518662003418565b62002b4b565b5050925062002b898262003548565b38620029ee565b81511562002ba8576000808252604082015260600152565b60046040517f22ce3edd000000000000000000000000000000000000000000000000000000008152fd5b81511562002be05760a00152565b60046040517ffe936cb7000000000000000000000000000000000000000000000000000000008152fd5b6040519062002c198262000390565b6000602083606081520152565b60405162002c348162000390565b62002c3e62002c0a565b808252602082016000815262002c5362002c0a565b50610100602083015260405180925260008252610120820191821062000310576000916040525290565b9062002c8862002c0a565b50601f81168062002cb9575b5080602083015260405190818352600082528101602001908110620003105760405290565b60200360208111620012e0578101809111620012e0573862002c94565b9081519162002ce462002c0a565b508251516001810190818111620012e057602085015181101562002d45575b60c2602062000815965192830101538051821162002d3c575b50506040519160208301526020825262002d368262000390565b6200334c565b52388062002d1c565b8160011b9482860460021483151715620012e05760208162002d7d620008159862002d7560c29551918462002c7d565b50826200327d565b509650505062002d03565b908160011b9180830460021490151715620012e057565b62002da962002c0a565b508051516001810190818111620012e057602083015181101562002de5575b605b6020845192830101538051821162002de157505090565b5290565b8160011b82810460021483151715620012e05762002e139062002e0b8551918662002c7d565b50846200327d565b5062002dc8565b62002e2462002c0a565b508051516001810190818111620012e057602083015181101562002e5c575b605a6020845192830101538051821162002de157505090565b8160011b82810460021483151715620012e05762002e829062002e0b8551918662002c7d565b5062002e43565b62002e9362002c0a565b508051516001810190818111620012e057602083015181101562002ecb575b60596020845192830101538051821162002de157505090565b8160011b82810460021483151715620012e05762002ef19062002e0b8551918662002c7d565b5062002eb2565b62002f0262002c0a565b508051516001810190818111620012e057602083015181101562002f3a575b60586020845192830101538051821162002de157505090565b8160011b82810460021483151715620012e05762002f609062002e0b8551918662002c7d565b5062002f21565b62002f7162002c0a565b508051516001810190818111620012e057602083015181101562002fa9575b607b6020845192830101538051821162002de157505090565b8160011b82810460021483151715620012e05762002fcf9062002e0b8551918662002c7d565b5062002f90565b62002fe062002c0a565b508051516001810190818111620012e057602083015181101562003018575b607a6020845192830101538051821162002de157505090565b8160011b82810460021483151715620012e0576200303e9062002e0b8551918662002c7d565b5062002fff565b6200304f62002c0a565b508051516001810190818111620012e057602083015181101562003087575b60796020845192830101538051821162002de157505090565b8160011b82810460021483151715620012e057620030ad9062002e0b8551918662002c7d565b506200306e565b620030be62002c0a565b508051516001810190818111620012e0576020830151811015620030f6575b60786020845192830101538051821162002de157505090565b8160011b82810460021483151715620012e0576200311c9062002e0b8551918662002c7d565b50620030dd565b906200312e62002c0a565b508151516001810191828211620012e057602084015182101562003164575b6020845192830101538051821162002de157505090565b8260011b83810460021484151715620012e05762003192906200318a8651918762002c7d565b50856200327d565b506200314d565b90620031a88251918362002c7d565b50620031b362002c0a565b50805190620031c162002c0a565b50620031d1815183111562003344565b82515192620031e1838562001fe6565b91602092828480940151821162003261575b518381519782010196821162003258575b505001915b818110156200322b5760001991036101000a0190811990511690825116179052565b91926200324b6200324462003252928651815262001fd7565b9462001fd7565b9262001ee4565b62003209565b52388062003204565b62003277620032708362002d88565b8262003199565b620031f3565b906200328862002c0a565b5080516200329562002c0a565b50620032a5825182111562003344565b82515191620032b5828462001fe6565b602091829182870151811162003328575b8651838151978201019682116200331f575b505001915b81811015620033005760001991036101000a019081199051169082511617905290565b91926200324b6200324462003319928651815262001fd7565b620032dd565b523880620032d8565b6200333e620033378262002d88565b8862003199565b620032c6565b156200031057565b81516200264e92919067ffffffffffffffff811690601782116200338957620033809150604060ff84519216179062003123565b505b516200327d565b5060ff8111620033b457620033ad90620033a4835162002ef8565b50825162003739565b5062003382565b61ffff8111620033d857620033ad90620033cf835162002e89565b508251620036c9565b63ffffffff8111620033fe57620033ad90620033f5835162002e1a565b50825162003657565b620033ad906200340f835162002d9f565b508251620035e1565b81516200264e92919067ffffffffffffffff811690601782116200344c57620033809150606060ff84519216179062003123565b5060ff81116200346757620033ad90620033a48351620030b4565b61ffff81116200348257620033ad90620033cf835162003045565b63ffffffff81116200349f57620033ad90620033f5835162002fd6565b620033ad906200340f835162002f67565b805190620034bd62002c0a565b508151516001810190818111620012e057602084015181101562003510575b609f602080955192830101538051821162003507575b50500180519060018201809211620012e05752565b523880620034f2565b8160011b9382850460021483151715620012e0576020816200353d829762002d75609f9551918462002c7d565b5095505050620034dc565b8051906200355562002c0a565b508151516001810190818111620012e0576020840151811015620035a9575b60ff6020809551928301015380518211620035a0575b5050018051600019810191908211620012e05752565b5238806200358a565b8160011b9382850460021483151715620012e057602081620035d6829762002d7560ff9551918462002c7d565b509550505062003574565b90620035ec62002c0a565b50815151806008019182600811620012e0576020840151831162003632575b60088451928301019067ffffffffffffffff198251161790528051821162002de157505090565b8260011b83810460021484151715620012e05762003651908562003199565b6200360b565b906200366262002c0a565b50815151806004019182600411620012e05760208401518311620036a4575b60048451928301019063ffffffff198251161790528051821162002de157505090565b8260011b83810460021484151715620012e057620036c3908562003199565b62003681565b90620036d462002c0a565b50815151806002019182600211620012e0576020840151831162003714575b60028451928301019061ffff198251161790528051821162002de157505090565b8260011b83810460021484151715620012e05762003733908562003199565b620036f3565b906200374462002c0a565b50815151806001019182600111620012e0576020840151831162003783575b60018451928301019060ff198251161790528051821162002de157505090565b8260011b83810460021484151715620012e057620037a2908562003199565b62003763565b90815167ffffffffffffffff81116200038a57620037d381620037cd60055462000797565b62001e36565b602080601f831160011462003812575081929360009262003806575b50508160011b916000199060031b1c191617600555565b015190503880620037ef565b90601f198316946200384660056000527f036b6384b5eca791c62761152d0c79bb0604c104a5fb6f4eb0703f3154bb3db090565b926000905b878210620038865750508360019596106200386c575b505050811b01600555565b015160001960f88460031b161c1916905538808062003861565b806001859682949686015181550195019301906200384b565b602081519101519060208110620038b4575090565b6000199060200360031b1b1690565b601e54680100000000000000008110156200038a57620038eb600191828101601e5562000743565b929092620039cc5780519067ffffffffffffffff82116200038a576200391e8262003917865462000797565b8662001e90565b60209081601f84116001146200395d575092829391839260009462003951575b50501b916000199060031b1c1916179055565b0151925038806200393e565b919083601f1981166200397588600052602060002090565b946000905b88838310620039b1575050501062003997575b505050811b019055565b015160001960f88460031b161c191690553880806200398d565b8587015188559096019594850194879350908101906200397a565b62000781565b9091620039ec620009c89360408452604084019062000973565b91602081840391015262000973565b1562003a0357565b606460405162461bcd60e51b815260206004820152601b60248201527f4572726f20616f207061676172206120696e64656e697a6163616f00000000006044820152fd5b602054601c54111562003a8d5762000815600080808062003a7862000c8b62000c8b6019546001600160a01b031690565b47905af162003a866200219f565b50620039fb565b60008080806001600160a01b0360185460081c1647905af162003aaf6200219f565b501562003ab857565b608460405162461bcd60e51b815260206004820152602d60248201527f4572726f20616f207265746f726e6172206f732066756e646f7320706172612060448201527f6120696e73746974756963616f000000000000000000000000000000000000006064820152fdfe60c0346100bc57601f61073a38819003918201601f19168301916001600160401b038311848410176100c1578084926060946040528339810103126100bc57610047816100d7565b906040610056602083016100d7565b9101516001600160601b03811692908390036100bc5760805260a052600180546001600160601b03191691909117905560405161064e90816100ec8239608051818181610114015281816101990152610373015260a0518181816101dc015261033b0152f35b600080fd5b634e487b7160e01b600052604160045260246000fd5b51906001600160a01b03821682036100bc5756fe60806040818152600436101561001457600080fd5b600091823560e01c90816301619d3d1461020057508063442b1278146101bd5780637d253aff1461017a578063b60d4288146100a95763bc61a4731461005957600080fd5b346100a557600319916020368401126100a2576004359267ffffffffffffffff84116100a5576101409084360301126100a2575061009b6020926004016102e6565b9051908152f35b80fd5b5080fd5b50346100a557816003193601126100a5576bffffffffffffffffffffffff60015416908051917f23b872dd0000000000000000000000000000000000000000000000000000000083523360048401523060248401526044830152602082606481866001600160a01b037f0000000000000000000000000000000000000000000000000000000000000000165af19081156101715750610146575080f35b6101669060203d811161016a575b61015e818361022a565b810190610262565b5080f35b503d610154565b513d84823e3d90fd5b50346100a557816003193601126100a557602090516001600160a01b037f0000000000000000000000000000000000000000000000000000000000000000168152f35b50346100a557816003193601126100a557602090516001600160a01b037f0000000000000000000000000000000000000000000000000000000000000000168152f35b8390346100a557816003193601126100a5576020906bffffffffffffffffffffffff600154168152f35b90601f8019910116810190811067ffffffffffffffff82111761024c57604052565b634e487b7160e01b600052604160045260246000fd5b9081602091031261027a5751801515810361027a5790565b600080fd5b9035601e198236030181121561027a57016020813591019167ffffffffffffffff821161027a57813603831361027a57565b908060209392818452848401376000828201840152601f01601f1916010190565b35906001600160a01b038216820361027a57565b90600091610120810135906bffffffffffffffffffffffff82168092036105ed5760408051917f095ea7b30000000000000000000000000000000000000000000000000000000083526001600160a01b0390817f00000000000000000000000000000000000000000000000000000000000000001680600486015285602486015260209485816044818c887f0000000000000000000000000000000000000000000000000000000000000000165af1801561060e576105f1575b508351957f3f678e11000000000000000000000000000000000000000000000000000000008752856004880152886103ee6103db858061027f565b61014060248c01526101648b01916102b1565b916104126103fe8987018761027f565b6023198c8703810160448e015295916102b1565b958061041f8988016102d2565b1660648b0152606086013563ffffffff81168091036105ed5760848b0152610449608087016102d2565b1660a48a015260a08501359060ff82168092036105e9576104d08a9687956104c06104b46104968e9c8a9860c48a015261048660c087018761027f565b90868b84030160e48c01526102b1565b6104a360e086018661027f565b90858a8403016101048b01526102b1565b9261010081019061027f565b91868403016101248701526102b1565b9061014483015203925af19283156105df5785936105ac575b50821561054f573385528482528420908154916801000000000000000083101561053b57600183018082558310156105275794839495815220015590565b602486634e487b7160e01b81526032600452fd5b602486634e487b7160e01b81526041600452fd5b6064925051907f08c379a00000000000000000000000000000000000000000000000000000000082526004820152601560248201527f6175746f2d617070726f76652064697361626c656400000000000000000000006044820152fd5b9092508181813d83116105d8575b6105c4818361022a565b810103126105d4575191386104e9565b8480fd5b503d6105ba565b81513d87823e3d90fd5b8280fd5b8380fd5b61060790863d881161016a5761015e818361022a565b50386103a0565b85513d8b823e3d90fdfea26469706673582212209ca455be61c45d9c7e515967f303b8ab4a822792fd7267d08664d38b1d82e42764736f6c63430008130033a2646970667358221220b5e8b6a5f62b80e4cac321f7b9c4f137f88b63dcc5a8e15ae9fa8b67fdbd7ea964736f6c63430008130033a2646970667358221220b3db6715267f6f921f3e25f89d0a1d2e51533e2fbec939e97acefd685ab3e11b64736f6c63430008130033","opcodes":"PUSH1 0xA0 PUSH1 0x40 MSTORE CALLVALUE PUSH3 0x248 JUMPI PUSH3 0x55BB DUP1 CODESIZE SUB DUP1 PUSH3 0x1D DUP2 PUSH3 0x24D JUMP JUMPDEST SWAP3 DUP4 CODECOPY DUP2 ADD SWAP1 PUSH1 0x40 DUP2 DUP4 SUB SLT PUSH3 0x248 JUMPI DUP1 MLOAD PUSH1 0x1 PUSH1 0x1 PUSH1 0xA0 SHL SUB DUP2 AND DUP2 SUB PUSH3 0x248 JUMPI PUSH1 0x20 DUP3 DUP2 ADD MLOAD PUSH1 0x1 PUSH1 0x1 PUSH1 0x40 SHL SUB SWAP4 SWAP2 SWAP3 SWAP2 DUP5 DUP3 GT PUSH3 0x248 JUMPI ADD SWAP4 PUSH1 0x1F SWAP2 DUP2 DUP4 DUP8 ADD SLT ISZERO PUSH3 0x248 JUMPI DUP6 MLOAD DUP6 DUP2 GT PUSH3 0x21D JUMPI PUSH1 0x1F NOT SWAP7 PUSH3 0x8A DUP3 DUP7 ADD DUP10 AND DUP8 ADD PUSH3 0x24D JUMP JUMPDEST SWAP4 DUP3 DUP6 MSTORE DUP7 DUP4 DUP4 ADD ADD GT PUSH3 0x248 JUMPI DUP6 SWAP1 PUSH1 0x0 JUMPDEST DUP4 DUP2 LT PUSH3 0x233 JUMPI POP POP PUSH1 0x0 SWAP2 DUP5 ADD ADD MSTORE PUSH1 0x80 MSTORE DUP1 MLOAD SWAP4 DUP5 GT PUSH3 0x21D JUMPI PUSH1 0x0 SLOAD SWAP3 PUSH1 0x1 SWAP4 DUP5 DUP2 DUP2 SHR SWAP2 AND DUP1 ISZERO PUSH3 0x212 JUMPI JUMPDEST DUP3 DUP3 LT EQ PUSH3 0x1FC JUMPI DUP4 DUP2 GT PUSH3 0x1B1 JUMPI JUMPDEST POP DUP1 SWAP3 DUP6 GT PUSH1 0x1 EQ PUSH3 0x147 JUMPI POP DUP4 SWAP5 POP SWAP1 DUP4 SWAP3 SWAP2 PUSH1 0x0 SWAP5 PUSH3 0x13B JUMPI JUMPDEST POP POP SHL SWAP2 PUSH1 0x0 NOT SWAP1 PUSH1 0x3 SHL SHR NOT AND OR PUSH1 0x0 SSTORE JUMPDEST PUSH1 0x40 MLOAD PUSH2 0x5347 SWAP1 DUP2 PUSH3 0x274 DUP3 CODECOPY PUSH1 0x80 MLOAD DUP2 DUP2 DUP2 PUSH2 0x1BF ADD MSTORE DUP2 DUP2 PUSH2 0x412 ADD MSTORE PUSH2 0x8D5 ADD MSTORE RETURN JUMPDEST ADD MLOAD SWAP3 POP CODESIZE DUP1 PUSH3 0x101 JUMP JUMPDEST SWAP3 SWAP5 DUP5 SWAP1 DUP2 AND PUSH1 0x0 DUP1 MSTORE DUP5 PUSH1 0x0 KECCAK256 SWAP5 PUSH1 0x0 SWAP1 JUMPDEST DUP9 DUP4 DUP4 LT PUSH3 0x196 JUMPI POP POP POP LT PUSH3 0x17C JUMPI JUMPDEST POP POP POP DUP2 SHL ADD PUSH1 0x0 SSTORE PUSH3 0x114 JUMP JUMPDEST ADD MLOAD PUSH1 0x0 NOT PUSH1 0xF8 DUP5 PUSH1 0x3 SHL AND SHR NOT AND SWAP1 SSTORE CODESIZE DUP1 DUP1 PUSH3 0x16D JUMP JUMPDEST DUP6 DUP8 ADD MLOAD DUP9 SSTORE SWAP1 SWAP7 ADD SWAP6 SWAP5 DUP6 ADD SWAP5 DUP8 SWAP4 POP SWAP1 DUP2 ADD SWAP1 PUSH3 0x15A JUMP JUMPDEST PUSH1 0x0 DUP1 MSTORE DUP2 PUSH1 0x0 KECCAK256 DUP5 DUP1 DUP9 ADD PUSH1 0x5 SHR DUP3 ADD SWAP3 DUP5 DUP10 LT PUSH3 0x1F2 JUMPI JUMPDEST ADD PUSH1 0x5 SHR ADD SWAP1 DUP6 SWAP1 JUMPDEST DUP3 DUP2 LT PUSH3 0x1E5 JUMPI POP POP PUSH3 0xE3 JUMP JUMPDEST PUSH1 0x0 DUP2 SSTORE ADD DUP6 SWAP1 PUSH3 0x1D5 JUMP JUMPDEST SWAP3 POP DUP2 SWAP3 PUSH3 0x1CC JUMP JUMPDEST PUSH4 0x4E487B71 PUSH1 0xE0 SHL PUSH1 0x0 MSTORE PUSH1 0x22 PUSH1 0x4 MSTORE PUSH1 0x24 PUSH1 0x0 REVERT JUMPDEST SWAP1 PUSH1 0x7F AND SWAP1 PUSH3 0xD1 JUMP JUMPDEST PUSH4 0x4E487B71 PUSH1 0xE0 SHL PUSH1 0x0 MSTORE PUSH1 0x41 PUSH1 0x4 MSTORE PUSH1 0x24 PUSH1 0x0 REVERT JUMPDEST DUP2 DUP2 ADD DUP4 ADD MLOAD DUP7 DUP3 ADD DUP5 ADD MSTORE DUP8 SWAP3 ADD PUSH3 0x9E JUMP JUMPDEST PUSH1 0x0 DUP1 REVERT JUMPDEST PUSH1 0x40 MLOAD SWAP2 SWAP1 PUSH1 0x1F ADD PUSH1 0x1F NOT AND DUP3 ADD PUSH1 0x1 PUSH1 0x1 PUSH1 0x40 SHL SUB DUP2 GT DUP4 DUP3 LT OR PUSH3 0x21D JUMPI PUSH1 0x40 MSTORE JUMP INVALID PUSH1 0x80 PUSH1 0x40 MSTORE PUSH1 0x4 CALLDATASIZE LT ISZERO PUSH3 0x1D JUMPI JUMPDEST CALLDATASIZE ISZERO PUSH3 0x1B JUMPI PUSH1 0x0 DUP1 REVERT JUMPDEST STOP JUMPDEST PUSH1 0x0 CALLDATALOAD PUSH1 0xE0 SHR DUP1 PUSH4 0x80A57F9 EQ PUSH3 0xB40 JUMPI DUP1 PUSH4 0x17FAB0A0 EQ PUSH3 0xA61 JUMPI DUP1 PUSH4 0x3A133E2C EQ PUSH3 0x987 JUMPI DUP1 PUSH4 0x3CCFD60B EQ PUSH3 0x8B8 JUMPI DUP1 PUSH4 0x3F0F912D EQ PUSH3 0x7FB JUMPI DUP1 PUSH4 0x77AD0B34 EQ PUSH3 0x5DC JUMPI DUP1 PUSH4 0x8A699F00 EQ PUSH3 0x59E JUMPI DUP1 PUSH4 0x8B7AFE2E EQ PUSH3 0x580 JUMPI DUP1 PUSH4 0x90F6D378 EQ PUSH3 0x479 JUMPI DUP1 PUSH4 0x9B19251A EQ PUSH3 0x436 JUMPI DUP1 PUSH4 0xAF6081DE EQ PUSH3 0x3F0 JUMPI DUP1 PUSH4 0xDFB50E64 EQ PUSH3 0x124 JUMPI PUSH4 0xED23F8C3 SUB PUSH3 0xF JUMPI CALLVALUE PUSH3 0x11F JUMPI PUSH1 0x40 CALLDATASIZE PUSH1 0x3 NOT ADD SLT PUSH3 0x11F JUMPI PUSH3 0xDB PUSH3 0xB81 JUMP JUMPDEST PUSH1 0x24 CALLDATALOAD SWAP1 PUSH1 0x1 PUSH1 0x1 PUSH1 0xA0 SHL SUB DUP1 SWAP2 AND PUSH1 0x0 MSTORE PUSH1 0x4 PUSH1 0x20 MSTORE PUSH1 0x40 PUSH1 0x0 KECCAK256 DUP1 SLOAD DUP4 LT ISZERO PUSH3 0x11F JUMPI PUSH1 0x20 SWAP3 PUSH3 0x10F SWAP2 PUSH3 0xD03 JUMP JUMPDEST SWAP2 SWAP1 SLOAD PUSH1 0x40 MLOAD SWAP3 PUSH1 0x3 SHL SHR AND DUP2 MSTORE RETURN JUMPDEST PUSH1 0x0 DUP1 REVERT JUMPDEST CALLVALUE PUSH3 0x11F JUMPI PUSH1 0x20 CALLDATASIZE PUSH1 0x3 NOT ADD SLT PUSH3 0x11F JUMPI PUSH8 0xFFFFFFFFFFFFFFFF PUSH1 0x4 CALLDATALOAD GT PUSH3 0x11F JUMPI CALLDATASIZE PUSH1 0x23 PUSH1 0x4 CALLDATALOAD ADD SLT ISZERO PUSH3 0x11F JUMPI PUSH1 0x4 CALLDATALOAD PUSH1 0x4 ADD CALLDATALOAD PUSH8 0xFFFFFFFFFFFFFFFF DUP2 GT PUSH3 0x3DA JUMPI DUP1 PUSH1 0x5 SHL SWAP1 PUSH1 0x40 MLOAD SWAP1 PUSH3 0x186 PUSH1 0x20 DUP5 ADD DUP4 PUSH3 0xB98 JUMP JUMPDEST DUP2 MSTORE PUSH1 0x20 DUP2 ADD PUSH1 0x24 SWAP3 CALLDATASIZE DUP5 DUP3 PUSH1 0x4 CALLDATALOAD ADD ADD GT PUSH3 0x11F JUMPI DUP4 PUSH1 0x4 CALLDATALOAD ADD SWAP2 JUMPDEST DUP5 DUP3 PUSH1 0x4 CALLDATALOAD ADD ADD DUP4 LT PUSH3 0x303 JUMPI POP POP POP PUSH1 0x1 PUSH1 0x1 PUSH1 0xA0 SHL SUB PUSH32 0x0 AND CALLER SUB PUSH3 0x2D9 JUMPI PUSH1 0x0 JUMPDEST DUP2 MLOAD DUP2 LT ISZERO PUSH3 0x1B JUMPI PUSH3 0x240 PUSH1 0x20 PUSH3 0x205 DUP4 DUP6 PUSH3 0xD1C JUMP JUMPDEST MLOAD ADD MLOAD PUSH3 0x230 PUSH1 0x20 PUSH3 0x21A DUP6 DUP8 PUSH3 0xD1C JUMP JUMPDEST MLOAD MLOAD DUP2 PUSH1 0x40 MLOAD SWAP4 DUP3 DUP6 DUP1 SWAP5 MLOAD SWAP4 DUP5 SWAP3 ADD PUSH3 0xC25 JUMP JUMPDEST DUP2 ADD PUSH1 0x2 DUP2 MSTORE SUB ADD SWAP1 KECCAK256 PUSH3 0xD31 JUMP JUMPDEST PUSH3 0x24C DUP2 DUP4 PUSH3 0xD1C JUMP JUMPDEST MLOAD MLOAD PUSH1 0x1 DUP1 SLOAD PUSH9 0x10000000000000000 DUP2 LT ISZERO PUSH3 0x2C4 JUMPI DUP2 PUSH3 0x274 SWAP3 DUP3 ADD SWAP1 SSTORE PUSH3 0xCB5 JUMP JUMPDEST SWAP2 SWAP1 SWAP2 PUSH3 0x2AF JUMPI PUSH3 0x287 SWAP2 PUSH3 0xD31 JUMP JUMPDEST PUSH1 0x0 NOT DUP2 EQ PUSH3 0x29A JUMPI PUSH1 0x1 ADD PUSH3 0x1E9 JUMP JUMPDEST DUP3 PUSH4 0x4E487B71 PUSH1 0xE0 SHL PUSH1 0x0 MSTORE PUSH1 0x11 PUSH1 0x4 MSTORE PUSH1 0x0 REVERT JUMPDEST DUP5 PUSH4 0x4E487B71 PUSH1 0xE0 SHL PUSH1 0x0 MSTORE PUSH1 0x0 PUSH1 0x4 MSTORE PUSH1 0x0 REVERT JUMPDEST DUP6 PUSH4 0x4E487B71 PUSH1 0xE0 SHL PUSH1 0x0 MSTORE PUSH1 0x41 PUSH1 0x4 MSTORE PUSH1 0x0 REVERT JUMPDEST PUSH1 0x4 PUSH1 0x40 MLOAD PUSH32 0x30CD747100000000000000000000000000000000000000000000000000000000 DUP2 MSTORE REVERT JUMPDEST DUP3 CALLDATALOAD PUSH8 0xFFFFFFFFFFFFFFFF DUP2 GT PUSH3 0x11F JUMPI CALLDATASIZE PUSH1 0x43 DUP3 PUSH1 0x4 CALLDATALOAD ADD ADD SLT ISZERO PUSH3 0x11F JUMPI PUSH1 0x40 MLOAD SWAP1 PUSH1 0x40 DUP3 ADD DUP3 DUP2 LT PUSH8 0xFFFFFFFFFFFFFFFF DUP3 GT OR PUSH3 0x3C5 JUMPI PUSH1 0x40 MSTORE PUSH1 0x4 CALLDATALOAD DUP2 ADD PUSH1 0x64 ADD SWAP1 DUP3 CALLDATASIZE DUP4 GT PUSH3 0x11F JUMPI SWAP1 DUP9 SWAP5 SWAP4 SWAP3 SWAP2 DUP6 DUP3 PUSH1 0x4 CALLDATALOAD ADD ADD SWAP1 JUMPDEST DUP4 DUP3 LT PUSH3 0x383 JUMPI POP POP POP SWAP1 DUP3 MSTORE POP PUSH1 0x20 SWAP4 DUP5 ADD SWAP4 ADD SWAP1 POP PUSH3 0x1A4 JUMP JUMPDEST SWAP1 SWAP2 SWAP3 SWAP4 SWAP5 SWAP6 POP PUSH8 0xFFFFFFFFFFFFFFFF DUP3 CALLDATALOAD GT PUSH3 0x11F JUMPI PUSH1 0x20 DUP1 SWAP2 PUSH3 0x3B4 CALLDATASIZE DUP14 DUP7 CALLDATALOAD DUP9 PUSH1 0x4 CALLDATALOAD ADD ADD ADD PUSH3 0xBD8 JUMP JUMPDEST DUP2 MSTORE ADD SWAP2 ADD DUP10 SWAP6 SWAP5 SWAP4 SWAP3 SWAP2 PUSH3 0x365 JUMP JUMPDEST DUP8 PUSH4 0x4E487B71 PUSH1 0xE0 SHL PUSH1 0x0 MSTORE PUSH1 0x41 PUSH1 0x4 MSTORE PUSH1 0x0 REVERT JUMPDEST PUSH4 0x4E487B71 PUSH1 0xE0 SHL PUSH1 0x0 MSTORE PUSH1 0x41 PUSH1 0x4 MSTORE PUSH1 0x24 PUSH1 0x0 REVERT JUMPDEST CALLVALUE PUSH3 0x11F JUMPI PUSH1 0x0 CALLDATASIZE PUSH1 0x3 NOT ADD SLT PUSH3 0x11F JUMPI PUSH1 0x20 PUSH1 0x40 MLOAD PUSH1 0x1 PUSH1 0x1 PUSH1 0xA0 SHL SUB PUSH32 0x0 AND DUP2 MSTORE RETURN JUMPDEST CALLVALUE PUSH3 0x11F JUMPI PUSH1 0x20 CALLDATASIZE PUSH1 0x3 NOT ADD SLT PUSH3 0x11F JUMPI PUSH1 0x1 PUSH1 0x1 PUSH1 0xA0 SHL SUB PUSH3 0x45B PUSH3 0xB81 JUMP JUMPDEST AND PUSH1 0x0 MSTORE PUSH1 0x3 PUSH1 0x20 MSTORE PUSH1 0x20 PUSH1 0xFF PUSH1 0x40 PUSH1 0x0 KECCAK256 SLOAD AND PUSH1 0x40 MLOAD SWAP1 ISZERO ISZERO DUP2 MSTORE RETURN JUMPDEST CALLVALUE PUSH3 0x11F JUMPI PUSH1 0x20 DUP1 PUSH1 0x3 NOT CALLDATASIZE ADD SLT PUSH3 0x11F JUMPI PUSH1 0x4 CALLDATALOAD SWAP1 PUSH1 0x1 SWAP2 DUP3 SLOAD DUP2 LT ISZERO PUSH3 0x11F JUMPI PUSH3 0x4A9 SWAP1 PUSH3 0xCB5 JUMP JUMPDEST SWAP2 SWAP1 SWAP2 PUSH3 0x56A JUMPI PUSH1 0x40 MLOAD SWAP2 PUSH1 0x0 SWAP4 DUP2 SLOAD SWAP2 PUSH3 0x4C6 DUP4 PUSH3 0xC4A JUMP JUMPDEST DUP1 DUP7 MSTORE SWAP3 DUP3 DUP2 AND SWAP1 DUP2 ISZERO PUSH3 0x545 JUMPI POP PUSH1 0x1 EQ PUSH3 0x503 JUMPI JUMPDEST PUSH3 0x4FF DUP6 PUSH3 0x4F2 DUP2 DUP10 SUB DUP3 PUSH3 0xB98 JUMP JUMPDEST PUSH1 0x40 MLOAD SWAP2 DUP3 SWAP2 DUP3 PUSH3 0xC87 JUMP JUMPDEST SUB SWAP1 RETURN JUMPDEST PUSH1 0x0 SWAP1 DUP2 MSTORE DUP4 DUP2 KECCAK256 SWAP4 SWAP6 POP SWAP3 JUMPDEST DUP3 DUP5 LT PUSH3 0x531 JUMPI POP POP POP DUP2 PUSH3 0x4FF SWAP4 PUSH3 0x4F2 SWAP3 DUP3 ADD ADD SWAP4 DUP6 PUSH3 0x4DF JUMP JUMPDEST DUP1 SLOAD DUP6 DUP6 ADD DUP8 ADD MSTORE SWAP3 DUP6 ADD SWAP3 DUP2 ADD PUSH3 0x510 JUMP JUMPDEST PUSH1 0xFF NOT AND DUP7 DUP7 ADD MSTORE POP POP POP ISZERO ISZERO PUSH1 0x5 SHL DUP3 ADD ADD SWAP2 POP PUSH3 0x4F2 DUP2 PUSH3 0x4FF DUP6 PUSH3 0x4DF JUMP JUMPDEST PUSH4 0x4E487B71 PUSH1 0xE0 SHL PUSH1 0x0 MSTORE PUSH1 0x0 PUSH1 0x4 MSTORE PUSH1 0x24 PUSH1 0x0 REVERT JUMPDEST CALLVALUE PUSH3 0x11F JUMPI PUSH1 0x0 CALLDATASIZE PUSH1 0x3 NOT ADD SLT PUSH3 0x11F JUMPI PUSH1 0x20 SELFBALANCE PUSH1 0x40 MLOAD SWAP1 DUP2 MSTORE RETURN JUMPDEST CALLVALUE PUSH3 0x11F JUMPI PUSH1 0x20 CALLDATASIZE PUSH1 0x3 NOT ADD SLT PUSH3 0x11F JUMPI PUSH1 0x1 PUSH1 0x1 PUSH1 0xA0 SHL SUB PUSH3 0x5C3 PUSH3 0xB81 JUMP JUMPDEST AND PUSH1 0x0 SWAP1 DUP2 MSTORE PUSH1 0x3 PUSH1 0x20 MSTORE PUSH1 0x40 SWAP1 KECCAK256 DUP1 SLOAD PUSH1 0xFF NOT AND SWAP1 SSTORE STOP JUMPDEST CALLVALUE PUSH3 0x11F JUMPI PUSH2 0x180 DUP1 PUSH1 0x3 NOT CALLDATASIZE ADD SLT PUSH3 0x11F JUMPI PUSH3 0x5FB PUSH3 0xB81 JUMP JUMPDEST PUSH1 0x24 CALLDATALOAD SWAP2 PUSH1 0x1 PUSH1 0x1 PUSH1 0xA0 SHL SUB SWAP2 DUP3 DUP5 AND DUP1 SWAP5 SUB PUSH3 0x11F JUMPI PUSH1 0x84 CALLDATALOAD SWAP2 PUSH1 0xC4 CALLDATALOAD SWAP2 DUP5 DUP4 AND DUP1 SWAP4 SUB PUSH3 0x11F JUMPI PUSH1 0xE4 CALLDATALOAD PUSH8 0xFFFFFFFFFFFFFFFF SWAP1 DUP2 DUP2 AND DUP1 SWAP2 SUB PUSH3 0x11F JUMPI PUSH2 0x104 CALLDATALOAD DUP8 DUP2 AND DUP1 SWAP2 SUB PUSH3 0x11F JUMPI PUSH2 0x124 CALLDATALOAD DUP9 DUP2 AND DUP1 SWAP2 SUB PUSH3 0x11F JUMPI PUSH2 0x144 CALLDATALOAD SWAP2 DUP10 DUP4 AND DUP1 SWAP4 SUB PUSH3 0x11F JUMPI PUSH2 0x164 CALLDATALOAD SWAP4 PUSH4 0xFFFFFFFF DUP6 AND DUP1 SWAP6 SUB PUSH3 0x11F JUMPI DUP12 PUSH1 0x0 MSTORE PUSH1 0x3 PUSH1 0x20 MSTORE PUSH1 0xFF PUSH1 0x40 PUSH1 0x0 KECCAK256 SLOAD AND ISZERO PUSH3 0x791 JUMPI PUSH1 0x40 MLOAD SWAP9 PUSH2 0x44C0 DUP1 DUP12 ADD SWAP8 DUP9 GT DUP12 DUP10 LT OR PUSH3 0x3DA JUMPI DUP11 SWAP9 DUP14 SWAP2 PUSH3 0xE52 DUP12 CODECOPY AND DUP8 MSTORE DUP13 PUSH1 0x20 DUP9 ADD MSTORE PUSH1 0x44 CALLDATALOAD PUSH1 0x40 DUP9 ADD MSTORE PUSH1 0x64 CALLDATALOAD PUSH1 0x60 DUP9 ADD MSTORE DUP11 PUSH1 0x80 DUP9 ADD MSTORE PUSH1 0xA4 CALLDATALOAD PUSH1 0xA0 DUP9 ADD MSTORE PUSH1 0xC0 DUP8 ADD MSTORE PUSH1 0xE0 DUP7 ADD MSTORE PUSH2 0x100 DUP6 ADD MSTORE PUSH2 0x120 DUP5 ADD MSTORE PUSH2 0x140 DUP4 ADD MSTORE PUSH2 0x160 DUP3 ADD MSTORE SUB ADD SWAP2 CREATE SWAP2 DUP3 ISZERO PUSH3 0x785 JUMPI PUSH1 0x0 MSTORE PUSH1 0x4 PUSH1 0x20 MSTORE PUSH1 0x40 PUSH1 0x0 KECCAK256 SWAP1 DUP2 SLOAD SWAP3 PUSH9 0x10000000000000000 DUP5 LT ISZERO PUSH3 0x3DA JUMPI DUP2 PUSH3 0x766 DUP6 PUSH1 0x20 SWAP6 PUSH1 0x1 PUSH32 0xA155A575082ECF596E5A22A44834BE92670605D1D0832000305888BA02A462D9 SWAP9 ADD DUP2 SSTORE PUSH3 0xD03 JUMP JUMPDEST SWAP4 SWAP1 SWAP3 AND SWAP3 DUP3 SLOAD SWAP1 PUSH1 0x3 SHL SWAP2 DUP5 DUP4 SHL SWAP3 SHL NOT AND OR SWAP1 SSTORE PUSH1 0x40 MLOAD SWAP1 DUP2 MSTORE LOG1 STOP JUMPDEST PUSH1 0x40 MLOAD RETURNDATASIZE PUSH1 0x0 DUP3 RETURNDATACOPY RETURNDATASIZE SWAP1 REVERT JUMPDEST PUSH1 0x84 PUSH1 0x40 MLOAD PUSH3 0x461BCD PUSH1 0xE5 SHL DUP2 MSTORE PUSH1 0x20 PUSH1 0x4 DUP3 ADD MSTORE PUSH1 0x21 PUSH1 0x24 DUP3 ADD MSTORE PUSH32 0x456E64657265636F206E616F2065737461206E61206C69737461206272616E63 PUSH1 0x44 DUP3 ADD MSTORE PUSH32 0x6100000000000000000000000000000000000000000000000000000000000000 PUSH1 0x64 DUP3 ADD MSTORE REVERT JUMPDEST CALLVALUE PUSH3 0x11F JUMPI PUSH1 0x20 DUP1 PUSH1 0x3 NOT CALLDATASIZE ADD SLT PUSH3 0x11F JUMPI PUSH1 0x1 PUSH1 0x1 PUSH1 0xA0 SHL SUB SWAP1 DUP2 PUSH3 0x823 PUSH3 0xB81 JUMP JUMPDEST AND PUSH1 0x0 MSTORE PUSH1 0x4 DUP2 MSTORE PUSH1 0x40 PUSH1 0x0 KECCAK256 PUSH1 0x40 MLOAD SWAP2 DUP3 DUP2 DUP4 SLOAD SWAP2 DUP3 DUP2 MSTORE ADD SWAP1 DUP2 SWAP4 PUSH1 0x0 MSTORE DUP3 PUSH1 0x0 KECCAK256 SWAP1 PUSH1 0x0 JUMPDEST DUP2 DUP2 LT PUSH3 0x8A1 JUMPI POP POP POP DUP4 PUSH3 0x864 SWAP2 SUB DUP5 PUSH3 0xB98 JUMP JUMPDEST PUSH1 0x40 MLOAD SWAP3 DUP2 DUP5 ADD SWAP1 DUP3 DUP6 MSTORE MLOAD DUP1 SWAP2 MSTORE PUSH1 0x40 DUP5 ADD SWAP3 SWAP2 PUSH1 0x0 JUMPDEST DUP3 DUP2 LT PUSH3 0x88A JUMPI DUP6 DUP6 SUB DUP7 RETURN JUMPDEST DUP4 MLOAD DUP8 AND DUP6 MSTORE SWAP4 DUP2 ADD SWAP4 SWAP3 DUP2 ADD SWAP3 PUSH1 0x1 ADD PUSH3 0x87C JUMP JUMPDEST DUP3 SLOAD DUP9 AND DUP5 MSTORE SWAP3 DUP5 ADD SWAP3 PUSH1 0x1 SWAP3 DUP4 ADD SWAP3 ADD PUSH3 0x84B JUMP JUMPDEST CALLVALUE PUSH3 0x11F JUMPI PUSH1 0x0 CALLDATASIZE PUSH1 0x3 NOT ADD SLT PUSH3 0x11F JUMPI PUSH1 0x1 PUSH1 0x1 PUSH1 0xA0 SHL SUB PUSH32 0x0 AND DUP1 CALLER SUB PUSH3 0x2D9 JUMPI PUSH1 0x0 DUP1 DUP1 DUP1 SWAP4 SELFBALANCE SWAP1 GAS CALL RETURNDATASIZE ISZERO PUSH3 0x981 JUMPI RETURNDATASIZE PUSH3 0x91A DUP2 PUSH3 0xBBB JUMP JUMPDEST SWAP1 PUSH3 0x92A PUSH1 0x40 MLOAD SWAP3 DUP4 PUSH3 0xB98 JUMP JUMPDEST DUP2 MSTORE PUSH1 0x0 PUSH1 0x20 RETURNDATASIZE SWAP3 ADD RETURNDATACOPY JUMPDEST ISZERO PUSH3 0x93D JUMPI STOP JUMPDEST PUSH1 0x64 PUSH1 0x40 MLOAD PUSH3 0x461BCD PUSH1 0xE5 SHL DUP2 MSTORE PUSH1 0x20 PUSH1 0x4 DUP3 ADD MSTORE PUSH1 0x10 PUSH1 0x24 DUP3 ADD MSTORE PUSH32 0x5769746864726177206661696C65642E00000000000000000000000000000000 PUSH1 0x44 DUP3 ADD MSTORE REVERT JUMPDEST PUSH3 0x935 JUMP JUMPDEST CALLVALUE PUSH3 0x11F JUMPI PUSH1 0x0 CALLDATASIZE PUSH1 0x3 NOT ADD SLT PUSH3 0x11F JUMPI PUSH1 0x40 MLOAD PUSH1 0x0 DUP1 SLOAD PUSH3 0x9AC DUP2 PUSH3 0xC4A JUMP JUMPDEST DUP1 DUP5 MSTORE SWAP1 PUSH1 0x1 SWAP1 DUP2 DUP2 AND SWAP1 DUP2 ISZERO PUSH3 0xA38 JUMPI POP PUSH1 0x1 EQ PUSH3 0x9DB JUMPI JUMPDEST PUSH3 0x4FF DUP5 PUSH3 0x4F2 DUP2 DUP7 SUB DUP3 PUSH3 0xB98 JUMP JUMPDEST PUSH1 0x0 DUP1 DUP1 MSTORE SWAP3 POP PUSH32 0x290DECD9548B62A8D60345A988386FC84BA6BC95484008F6362F93160EF3E563 JUMPDEST DUP3 DUP5 LT PUSH3 0xA1F JUMPI POP POP POP DUP2 ADD PUSH1 0x20 ADD PUSH3 0x4F2 DUP3 PUSH3 0x9C8 JUMP JUMPDEST DUP1 SLOAD PUSH1 0x20 DUP6 DUP8 ADD DUP2 ADD SWAP2 SWAP1 SWAP2 MSTORE SWAP1 SWAP4 ADD SWAP3 DUP2 ADD PUSH3 0xA04 JUMP JUMPDEST PUSH1 0xFF NOT AND PUSH1 0x20 DUP1 DUP8 ADD SWAP2 SWAP1 SWAP2 MSTORE SWAP3 ISZERO ISZERO PUSH1 0x5 SHL DUP6 ADD SWAP1 SWAP3 ADD SWAP3 POP PUSH3 0x4F2 SWAP2 POP DUP4 SWAP1 POP PUSH3 0x9C8 JUMP JUMPDEST CALLVALUE PUSH3 0x11F JUMPI PUSH1 0x20 DUP1 PUSH1 0x3 NOT CALLDATASIZE ADD SLT PUSH3 0x11F JUMPI PUSH1 0x4 CALLDATALOAD PUSH8 0xFFFFFFFFFFFFFFFF DUP2 GT PUSH3 0x11F JUMPI DUP2 PUSH3 0xA9D PUSH3 0xAB1 SWAP3 CALLDATASIZE SWAP1 PUSH1 0x4 ADD PUSH3 0xBD8 JUMP JUMPDEST DUP2 PUSH1 0x40 MLOAD SWAP4 DUP3 DUP6 DUP1 SWAP5 MLOAD SWAP4 DUP5 SWAP3 ADD PUSH3 0xC25 JUMP JUMPDEST DUP2 ADD PUSH1 0x2 DUP2 MSTORE SUB ADD SWAP1 KECCAK256 SWAP1 PUSH1 0x40 MLOAD SWAP1 PUSH1 0x0 SWAP3 DUP1 SLOAD PUSH3 0xAD0 DUP2 PUSH3 0xC4A JUMP JUMPDEST DUP1 DUP6 MSTORE SWAP2 PUSH1 0x1 SWAP2 DUP1 DUP4 AND SWAP1 DUP2 ISZERO PUSH3 0x545 JUMPI POP PUSH1 0x1 EQ PUSH3 0xAFE JUMPI PUSH3 0x4FF DUP6 PUSH3 0x4F2 DUP2 DUP10 SUB DUP3 PUSH3 0xB98 JUMP JUMPDEST PUSH1 0x0 SWAP1 DUP2 MSTORE DUP4 DUP2 KECCAK256 SWAP4 SWAP6 POP SWAP3 JUMPDEST DUP3 DUP5 LT PUSH3 0xB2C JUMPI POP POP POP DUP2 PUSH3 0x4FF SWAP4 PUSH3 0x4F2 SWAP3 DUP3 ADD ADD SWAP4 DUP6 PUSH3 0x4DF JUMP JUMPDEST DUP1 SLOAD DUP6 DUP6 ADD DUP8 ADD MSTORE SWAP3 DUP6 ADD SWAP3 DUP2 ADD PUSH3 0xB0B JUMP JUMPDEST CALLVALUE PUSH3 0x11F JUMPI PUSH1 0x20 CALLDATASIZE PUSH1 0x3 NOT ADD SLT PUSH3 0x11F JUMPI PUSH1 0x1 PUSH1 0x1 PUSH1 0xA0 SHL SUB PUSH3 0xB65 PUSH3 0xB81 JUMP JUMPDEST AND PUSH1 0x0 SWAP1 DUP2 MSTORE PUSH1 0x3 PUSH1 0x20 MSTORE PUSH1 0x40 SWAP1 KECCAK256 DUP1 SLOAD PUSH1 0xFF NOT AND PUSH1 0x1 OR SWAP1 SSTORE STOP JUMPDEST PUSH1 0x4 CALLDATALOAD SWAP1 PUSH1 0x1 PUSH1 0x1 PUSH1 0xA0 SHL SUB DUP3 AND DUP3 SUB PUSH3 0x11F JUMPI JUMP JUMPDEST SWAP1 PUSH1 0x1F DUP1 NOT SWAP2 ADD AND DUP2 ADD SWAP1 DUP2 LT PUSH8 0xFFFFFFFFFFFFFFFF DUP3 GT OR PUSH3 0x3DA JUMPI PUSH1 0x40 MSTORE JUMP JUMPDEST PUSH8 0xFFFFFFFFFFFFFFFF DUP2 GT PUSH3 0x3DA JUMPI PUSH1 0x1F ADD PUSH1 0x1F NOT AND PUSH1 0x20 ADD SWAP1 JUMP JUMPDEST DUP2 PUSH1 0x1F DUP3 ADD SLT ISZERO PUSH3 0x11F JUMPI DUP1 CALLDATALOAD SWAP1 PUSH3 0xBF2 DUP3 PUSH3 0xBBB JUMP JUMPDEST SWAP3 PUSH3 0xC02 PUSH1 0x40 MLOAD SWAP5 DUP6 PUSH3 0xB98 JUMP JUMPDEST DUP3 DUP5 MSTORE PUSH1 0x20 DUP4 DUP4 ADD ADD GT PUSH3 0x11F JUMPI DUP2 PUSH1 0x0 SWAP3 PUSH1 0x20 DUP1 SWAP4 ADD DUP4 DUP7 ADD CALLDATACOPY DUP4 ADD ADD MSTORE SWAP1 JUMP JUMPDEST PUSH1 0x0 JUMPDEST DUP4 DUP2 LT PUSH3 0xC39 JUMPI POP POP PUSH1 0x0 SWAP2 ADD MSTORE JUMP JUMPDEST DUP2 DUP2 ADD MLOAD DUP4 DUP3 ADD MSTORE PUSH1 0x20 ADD PUSH3 0xC28 JUMP JUMPDEST SWAP1 PUSH1 0x1 DUP3 DUP2 SHR SWAP3 AND DUP1 ISZERO PUSH3 0xC7C JUMPI JUMPDEST PUSH1 0x20 DUP4 LT EQ PUSH3 0xC66 JUMPI JUMP JUMPDEST PUSH4 0x4E487B71 PUSH1 0xE0 SHL PUSH1 0x0 MSTORE PUSH1 0x22 PUSH1 0x4 MSTORE PUSH1 0x24 PUSH1 0x0 REVERT JUMPDEST SWAP2 PUSH1 0x7F AND SWAP2 PUSH3 0xC5A JUMP JUMPDEST PUSH1 0x40 SWAP2 PUSH1 0x20 DUP3 MSTORE PUSH3 0xCA9 DUP2 MLOAD DUP1 SWAP3 DUP2 PUSH1 0x20 DUP7 ADD MSTORE PUSH1 0x20 DUP7 DUP7 ADD SWAP2 ADD PUSH3 0xC25 JUMP JUMPDEST PUSH1 0x1F ADD PUSH1 0x1F NOT AND ADD ADD SWAP1 JUMP JUMPDEST PUSH1 0x1 SLOAD DUP2 LT ISZERO PUSH3 0xCED JUMPI PUSH1 0x1 PUSH1 0x0 MSTORE PUSH32 0xB10E2D527612073B26EECDFD717E6A320CF44B4AFAC2B0732D9FCBE2B7FA0CF6 ADD SWAP1 PUSH1 0x0 SWAP1 JUMP JUMPDEST PUSH4 0x4E487B71 PUSH1 0xE0 SHL PUSH1 0x0 MSTORE PUSH1 0x32 PUSH1 0x4 MSTORE PUSH1 0x24 PUSH1 0x0 REVERT JUMPDEST DUP1 SLOAD DUP3 LT ISZERO PUSH3 0xCED JUMPI PUSH1 0x0 MSTORE PUSH1 0x20 PUSH1 0x0 KECCAK256 ADD SWAP1 PUSH1 0x0 SWAP1 JUMP JUMPDEST DUP1 MLOAD DUP3 LT ISZERO PUSH3 0xCED JUMPI PUSH1 0x20 SWAP2 PUSH1 0x5 SHL ADD ADD SWAP1 JUMP JUMPDEST SWAP2 SWAP1 SWAP2 DUP3 MLOAD PUSH8 0xFFFFFFFFFFFFFFFF DUP2 GT PUSH3 0x3DA JUMPI PUSH3 0xD52 DUP3 SLOAD PUSH3 0xC4A JUMP JUMPDEST PUSH1 0x1F DUP2 GT PUSH3 0xE04 JUMPI JUMPDEST POP PUSH1 0x20 DUP1 PUSH1 0x1F DUP4 GT PUSH1 0x1 EQ PUSH3 0xD9C JUMPI POP DUP2 SWAP3 SWAP4 SWAP5 PUSH1 0x0 SWAP3 PUSH3 0xD90 JUMPI JUMPDEST POP POP DUP2 PUSH1 0x1 SHL SWAP2 PUSH1 0x0 NOT SWAP1 PUSH1 0x3 SHL SHR NOT AND OR SWAP1 SSTORE JUMP JUMPDEST ADD MLOAD SWAP1 POP CODESIZE DUP1 PUSH3 0xD7A JUMP JUMPDEST SWAP1 PUSH1 0x1F NOT DUP4 AND SWAP6 DUP5 PUSH1 0x0 MSTORE DUP3 PUSH1 0x0 KECCAK256 SWAP3 PUSH1 0x0 SWAP1 JUMPDEST DUP9 DUP3 LT PUSH3 0xDEB JUMPI POP POP DUP4 PUSH1 0x1 SWAP6 SWAP7 SWAP8 LT PUSH3 0xDD1 JUMPI JUMPDEST POP POP POP DUP2 SHL ADD SWAP1 SSTORE JUMP JUMPDEST ADD MLOAD PUSH1 0x0 NOT PUSH1 0xF8 DUP5 PUSH1 0x3 SHL AND SHR NOT AND SWAP1 SSTORE CODESIZE DUP1 DUP1 PUSH3 0xDC7 JUMP JUMPDEST DUP1 PUSH1 0x1 DUP6 SWAP7 DUP3 SWAP5 SWAP7 DUP7 ADD MLOAD DUP2 SSTORE ADD SWAP6 ADD SWAP4 ADD SWAP1 PUSH3 0xDB0 JUMP JUMPDEST PUSH1 0x0 DUP4 DUP2 MSTORE PUSH1 0x20 DUP2 KECCAK256 PUSH1 0x1F DUP5 ADD PUSH1 0x5 SHR DUP2 ADD SWAP3 PUSH1 0x20 DUP6 LT PUSH3 0xE46 JUMPI JUMPDEST PUSH1 0x1F ADD PUSH1 0x5 SHR ADD SWAP2 JUMPDEST DUP3 DUP2 LT PUSH3 0xE3A JUMPI POP POP PUSH3 0xD5C JUMP JUMPDEST DUP2 DUP2 SSTORE PUSH1 0x1 ADD PUSH3 0xE2A JUMP JUMPDEST SWAP1 SWAP3 POP DUP3 SWAP1 PUSH3 0xE21 JUMP INVALID PUSH1 0xC0 PUSH1 0x1 PUSH1 0x1 PUSH1 0x40 SHL SUB PUSH1 0x1F PUSH3 0x44C0 CODESIZE DUP2 SWAP1 SUB SWAP2 DUP3 ADD PUSH1 0x1F NOT AND DUP5 ADD SWAP2 DUP4 DUP4 GT DUP6 DUP5 LT OR PUSH3 0x202 JUMPI DUP1 DUP6 SWAP3 PUSH2 0x180 SWAP5 PUSH1 0x40 MSTORE DUP4 CODECOPY DUP2 ADD SUB SLT PUSH3 0x1FD JUMPI PUSH3 0x49 DUP3 PUSH3 0x218 JUMP JUMPDEST SWAP2 PUSH3 0x58 PUSH1 0x20 DUP3 ADD PUSH3 0x218 JUMP JUMPDEST PUSH1 0x40 DUP3 ADD MLOAD SWAP3 PUSH1 0x60 DUP4 ADD MLOAD SWAP1 PUSH1 0x80 DUP5 ADD MLOAD SWAP1 PUSH1 0xA0 DUP6 ADD MLOAD SWAP6 PUSH3 0x7E PUSH1 0xC0 DUP8 ADD PUSH3 0x218 JUMP JUMPDEST SWAP7 PUSH1 0xE0 DUP8 ADD MLOAD SWAP3 DUP4 AND DUP1 SWAP4 SUB PUSH3 0x1FD JUMPI PUSH3 0x9E PUSH2 0x100 DUP9 ADD PUSH3 0x218 JUMP JUMPDEST SWAP4 PUSH3 0xAE PUSH2 0x120 DUP10 ADD PUSH3 0x218 JUMP JUMPDEST SWAP6 PUSH2 0x160 PUSH3 0xC1 PUSH2 0x140 DUP12 ADD PUSH3 0x218 JUMP JUMPDEST SWAP10 ADD MLOAD SWAP4 PUSH4 0xFFFFFFFF DUP6 AND DUP6 SUB PUSH3 0x1FD JUMPI PUSH1 0x1 PUSH1 0x1 PUSH1 0xA0 SHL SUB SWAP11 DUP12 AND PUSH1 0x80 MSTORE DUP12 DUP12 AND SWAP12 DUP13 ISZERO PUSH3 0x1B8 JUMPI DUP12 SWAP10 DUP11 SWAP2 PUSH1 0x1 PUSH1 0xA0 SHL PUSH1 0x1 SWAP1 SUB NOT SWAP15 DUP16 PUSH1 0x0 SLOAD AND OR PUSH1 0x0 SSTORE PUSH1 0x18 SLOAD SWAP1 PUSH1 0x1 PUSH1 0xA8 SHL PUSH2 0x100 SWAP1 SUB SWAP1 PUSH1 0x8 SHL AND SWAP1 PUSH1 0x1 PUSH1 0xA8 SHL PUSH2 0x100 SWAP1 SUB NOT AND OR PUSH1 0x18 SSTORE AND DUP13 PUSH1 0x19 SLOAD AND OR PUSH1 0x19 SSTORE PUSH1 0x1C SSTORE PUSH1 0x1D SSTORE PUSH1 0x1B SSTORE PUSH1 0x7 SSTORE DUP5 PUSH1 0x6 SLOAD SWAP4 AND PUSH1 0xA0 MSTORE PUSH1 0x40 SHL PUSH12 0xFFFFFFFF0000000000000000 AND SWAP2 PUSH1 0x1 PUSH1 0x60 SHL PUSH1 0x1 SWAP1 SUB NOT AND OR OR PUSH1 0x6 SSTORE AND DUP4 PUSH1 0x8 SLOAD AND OR PUSH1 0x8 SSTORE AND SWAP1 PUSH1 0x9 SLOAD AND OR PUSH1 0x9 SSTORE TIMESTAMP PUSH1 0xF SSTORE PUSH1 0x40 MLOAD PUSH2 0x4292 SWAP1 DUP2 PUSH3 0x22E DUP3 CODECOPY PUSH1 0x80 MLOAD DUP2 DUP2 DUP2 PUSH2 0x49B ADD MSTORE DUP2 DUP2 PUSH2 0x2388 ADD MSTORE PUSH2 0x2589 ADD MSTORE PUSH1 0xA0 MLOAD DUP2 DUP2 DUP2 PUSH2 0x140C ADD MSTORE PUSH2 0x25DB ADD MSTORE RETURN JUMPDEST PUSH1 0x40 MLOAD PUSH3 0x461BCD PUSH1 0xE5 SHL DUP2 MSTORE PUSH1 0x20 PUSH1 0x4 DUP3 ADD MSTORE PUSH1 0x18 PUSH1 0x24 DUP3 ADD MSTORE PUSH32 0x43616E6E6F7420736574206F776E657220746F207A65726F0000000000000000 PUSH1 0x44 DUP3 ADD MSTORE PUSH1 0x64 SWAP1 REVERT JUMPDEST PUSH1 0x0 DUP1 REVERT JUMPDEST PUSH4 0x4E487B71 PUSH1 0xE0 SHL PUSH1 0x0 MSTORE PUSH1 0x41 PUSH1 0x4 MSTORE PUSH1 0x24 PUSH1 0x0 REVERT JUMPDEST MLOAD SWAP1 PUSH1 0x1 PUSH1 0x1 PUSH1 0xA0 SHL SUB DUP3 AND DUP3 SUB PUSH3 0x1FD JUMPI JUMP INVALID PUSH1 0x80 PUSH1 0x40 MSTORE PUSH1 0x4 CALLDATASIZE LT ISZERO PUSH3 0x1D JUMPI JUMPDEST CALLDATASIZE ISZERO PUSH3 0x1B JUMPI PUSH1 0x0 DUP1 REVERT JUMPDEST STOP JUMPDEST PUSH1 0x0 CALLDATALOAD PUSH1 0xE0 SHR DUP1 PUSH4 0x89EA02E EQ PUSH3 0x2FE JUMPI DUP1 PUSH4 0x9C1BA2E EQ PUSH3 0x2F8 JUMPI DUP1 PUSH4 0xCA76175 EQ PUSH3 0x2F2 JUMPI DUP1 PUSH4 0x1243BCC3 EQ PUSH3 0x2EC JUMPI DUP1 PUSH4 0x1AA46F59 EQ PUSH3 0x2E6 JUMPI DUP1 PUSH4 0x24B93E3E EQ PUSH3 0x2E0 JUMPI DUP1 PUSH4 0x277E2213 EQ PUSH3 0x2DA JUMPI DUP1 PUSH4 0x2FC2A7B9 EQ PUSH3 0x2D4 JUMPI DUP1 PUSH4 0x338CDCA1 EQ PUSH3 0x2CE JUMPI DUP1 PUSH4 0x381FC4B5 EQ PUSH3 0x2C8 JUMPI DUP1 PUSH4 0x3944EA3A EQ PUSH3 0x2C2 JUMPI DUP1 PUSH4 0x3F678E11 EQ PUSH3 0x2BC JUMPI DUP1 PUSH4 0x43CD3D86 EQ PUSH3 0x2B6 JUMPI DUP1 PUSH4 0x4585E33B EQ PUSH3 0x2B0 JUMPI DUP1 PUSH4 0x472CBBB0 EQ PUSH3 0x2AA JUMPI DUP1 PUSH4 0x48802B92 EQ PUSH3 0x2A4 JUMPI DUP1 PUSH4 0x48BD6F05 EQ PUSH3 0x29E JUMPI DUP1 PUSH4 0x4B0795A8 EQ PUSH3 0x298 JUMPI DUP1 PUSH4 0x5E0611F1 EQ PUSH3 0x292 JUMPI DUP1 PUSH4 0x688ECFD1 EQ PUSH3 0x28C JUMPI DUP1 PUSH4 0x6BAA48FE EQ PUSH3 0x286 JUMPI DUP1 PUSH4 0x6E04FF0D EQ PUSH3 0x280 JUMPI DUP1 PUSH4 0x6E74336B EQ PUSH3 0x27A JUMPI DUP1 PUSH4 0x79BA5097 EQ PUSH3 0x274 JUMPI DUP1 PUSH4 0x7B103999 EQ PUSH3 0x26E JUMPI DUP1 PUSH4 0x8B7AFE2E EQ PUSH3 0x268 JUMPI DUP1 PUSH4 0x8D7E6D2D EQ PUSH3 0x262 JUMPI DUP1 PUSH4 0x8DA5CB5B EQ PUSH3 0x25C JUMPI DUP1 PUSH4 0xA3097139 EQ PUSH3 0x256 JUMPI DUP1 PUSH4 0xA3D3C0D2 EQ PUSH3 0x250 JUMPI DUP1 PUSH4 0xB1E21749 EQ PUSH3 0x24A JUMPI DUP1 PUSH4 0xBEF3A2F0 EQ PUSH3 0x244 JUMPI DUP1 PUSH4 0xD1384EB6 EQ PUSH3 0x23E JUMPI DUP1 PUSH4 0xD2AA789F EQ PUSH3 0x238 JUMPI DUP1 PUSH4 0xD811FCF0 EQ PUSH3 0x232 JUMPI DUP1 PUSH4 0xEBF14A55 EQ PUSH3 0x22C JUMPI DUP1 PUSH4 0xF2FDE38B EQ PUSH3 0x226 JUMPI DUP1 PUSH4 0xF5C1279B EQ PUSH3 0x220 JUMPI DUP1 PUSH4 0xF68016B7 EQ PUSH3 0x21A JUMPI DUP1 PUSH4 0xFD2C80AE EQ PUSH3 0x214 JUMPI PUSH4 0xFFFEB84E SUB PUSH3 0xF JUMPI PUSH3 0x1A4D JUMP JUMPDEST PUSH3 0x1A2D JUMP JUMPDEST PUSH3 0x1A07 JUMP JUMPDEST PUSH3 0x19E7 JUMP JUMPDEST PUSH3 0x190E JUMP JUMPDEST PUSH3 0x18C2 JUMP JUMPDEST PUSH3 0x1899 JUMP JUMPDEST PUSH3 0x1879 JUMP JUMPDEST PUSH3 0x184D JUMP JUMPDEST PUSH3 0x1798 JUMP JUMPDEST PUSH3 0x1778 JUMP JUMPDEST PUSH3 0x1758 JUMP JUMPDEST PUSH3 0x1738 JUMP JUMPDEST PUSH3 0x170F JUMP JUMPDEST PUSH3 0x1484 JUMP JUMPDEST PUSH3 0x1430 JUMP JUMPDEST PUSH3 0x13EA JUMP JUMPDEST PUSH3 0x1306 JUMP JUMPDEST PUSH3 0x12E6 JUMP JUMPDEST PUSH3 0x1264 JUMP JUMPDEST PUSH3 0x123B JUMP JUMPDEST PUSH3 0x1186 JUMP JUMPDEST PUSH3 0x115D JUMP JUMPDEST PUSH3 0x10A8 JUMP JUMPDEST PUSH3 0x1088 JUMP JUMPDEST PUSH3 0x1068 JUMP JUMPDEST PUSH3 0xE9D JUMP JUMPDEST PUSH3 0xDAD JUMP JUMPDEST PUSH3 0xD5C JUMP JUMPDEST PUSH3 0xC2C JUMP JUMPDEST PUSH3 0xB77 JUMP JUMPDEST PUSH3 0xB57 JUMP JUMPDEST PUSH3 0xA64 JUMP JUMPDEST PUSH3 0xA3B JUMP JUMPDEST PUSH3 0x9CB JUMP JUMPDEST PUSH3 0x704 JUMP JUMPDEST PUSH3 0x6E4 JUMP JUMPDEST PUSH3 0x6BB JUMP JUMPDEST PUSH3 0x43A JUMP JUMPDEST PUSH3 0x335 JUMP JUMPDEST PUSH3 0x315 JUMP JUMPDEST PUSH1 0x0 SWAP2 SUB SLT PUSH3 0x310 JUMPI JUMP JUMPDEST PUSH1 0x0 DUP1 REVERT JUMPDEST CALLVALUE PUSH3 0x310 JUMPI PUSH1 0x0 CALLDATASIZE PUSH1 0x3 NOT ADD SLT PUSH3 0x310 JUMPI PUSH1 0x20 PUSH1 0xF SLOAD PUSH1 0x40 MLOAD SWAP1 DUP2 MSTORE RETURN JUMPDEST CALLVALUE PUSH3 0x310 JUMPI PUSH1 0x0 CALLDATASIZE PUSH1 0x3 NOT ADD SLT PUSH3 0x310 JUMPI PUSH1 0x20 PUSH8 0xFFFFFFFFFFFFFFFF PUSH1 0x6 SLOAD AND PUSH1 0x40 MLOAD SWAP1 DUP2 MSTORE RETURN JUMPDEST PUSH4 0x4E487B71 PUSH1 0xE0 SHL PUSH1 0x0 MSTORE PUSH1 0x41 PUSH1 0x4 MSTORE PUSH1 0x24 PUSH1 0x0 REVERT JUMPDEST PUSH8 0xFFFFFFFFFFFFFFFF DUP2 GT PUSH3 0x38A JUMPI PUSH1 0x40 MSTORE JUMP JUMPDEST PUSH3 0x35F JUMP JUMPDEST PUSH1 0x40 DUP2 ADD SWAP1 DUP2 LT PUSH8 0xFFFFFFFFFFFFFFFF DUP3 GT OR PUSH3 0x38A JUMPI PUSH1 0x40 MSTORE JUMP JUMPDEST SWAP1 PUSH1 0x1F DUP1 NOT SWAP2 ADD AND DUP2 ADD SWAP1 DUP2 LT PUSH8 0xFFFFFFFFFFFFFFFF DUP3 GT OR PUSH3 0x38A JUMPI PUSH1 0x40 MSTORE JUMP JUMPDEST PUSH8 0xFFFFFFFFFFFFFFFF DUP2 GT PUSH3 0x38A JUMPI PUSH1 0x1F ADD PUSH1 0x1F NOT AND PUSH1 0x20 ADD SWAP1 JUMP JUMPDEST DUP2 PUSH1 0x1F DUP3 ADD SLT ISZERO PUSH3 0x310 JUMPI DUP1 CALLDATALOAD SWAP1 PUSH3 0x407 DUP3 PUSH3 0x3D0 JUMP JUMPDEST SWAP3 PUSH3 0x417 PUSH1 0x40 MLOAD SWAP5 DUP6 PUSH3 0x3AD JUMP JUMPDEST DUP3 DUP5 MSTORE PUSH1 0x20 DUP4 DUP4 ADD ADD GT PUSH3 0x310 JUMPI DUP2 PUSH1 0x0 SWAP3 PUSH1 0x20 DUP1 SWAP4 ADD DUP4 DUP7 ADD CALLDATACOPY DUP4 ADD ADD MSTORE SWAP1 JUMP JUMPDEST CALLVALUE PUSH3 0x310 JUMPI PUSH1 0x60 CALLDATASIZE PUSH1 0x3 NOT ADD SLT PUSH3 0x310 JUMPI PUSH1 0x4 DUP1 CALLDATALOAD SWAP1 PUSH8 0xFFFFFFFFFFFFFFFF SWAP1 PUSH1 0x24 CALLDATALOAD DUP3 DUP2 GT PUSH3 0x310 JUMPI PUSH3 0x476 SWAP1 CALLDATASIZE SWAP1 DUP4 ADD PUSH3 0x3ED JUMP JUMPDEST PUSH1 0x44 CALLDATALOAD DUP4 DUP2 GT PUSH3 0x310 JUMPI PUSH3 0x490 SWAP1 CALLDATASIZE SWAP1 DUP5 ADD PUSH3 0x3ED JUMP JUMPDEST SWAP1 PUSH1 0x1 PUSH1 0x1 PUSH1 0xA0 SHL SUB PUSH32 0x0 AND CALLER SUB PUSH3 0x692 JUMPI DUP1 MLOAD SWAP4 DUP5 GT PUSH3 0x38A JUMPI DUP3 PUSH3 0x4E5 DUP6 PUSH3 0x4DF DUP9 SWAP7 SLOAD PUSH3 0x797 JUMP JUMPDEST PUSH3 0x1D76 JUMP JUMPDEST PUSH1 0x20 DUP1 PUSH1 0x1F DUP8 GT PUSH1 0x1 EQ PUSH3 0x5E3 JUMPI POP SWAP5 DUP1 PUSH32 0x7BAB0EC163B5C132C72B8146AC4D6E067E82ED58F8B131150AA71C9258911562 SWAP6 SWAP7 PUSH1 0x0 SWAP2 PUSH3 0x5D7 JUMPI JUMPDEST POP DUP2 PUSH1 0x1 SHL SWAP2 PUSH1 0x0 NOT SWAP1 PUSH1 0x3 SHL SHR NOT AND OR SWAP1 SSTORE JUMPDEST PUSH3 0x542 DUP3 PUSH3 0x37A8 JUMP JUMPDEST PUSH3 0x558 PUSH3 0x553 PUSH1 0x11 SLOAD PUSH3 0x1FC8 JUMP JUMPDEST PUSH1 0x11 SSTORE JUMP JUMPDEST PUSH1 0xFF PUSH3 0x567 PUSH1 0x18 SLOAD PUSH1 0xFF AND SWAP1 JUMP JUMPDEST AND PUSH3 0x5B3 JUMPI PUSH3 0x578 DUP2 PUSH3 0x38C3 JUMP JUMPDEST PUSH3 0x589 PUSH1 0x40 MLOAD SWAP3 DUP4 SWAP3 DUP4 PUSH3 0x39D2 JUMP JUMPDEST SUB SWAP1 LOG2 PUSH32 0x85E1543BF2F84FE80C6BADBCE3648C8539AD1DF4D2B3D822938CA0538BE727E6 PUSH1 0x0 DUP1 LOG2 STOP JUMPDEST PUSH3 0x5C7 PUSH3 0x5C2 DUP3 PUSH3 0x389F JUMP JUMPDEST PUSH1 0x20 SSTORE JUMP JUMPDEST PUSH3 0x5D1 PUSH3 0x3A47 JUMP JUMPDEST PUSH3 0x578 JUMP JUMPDEST SWAP1 POP DUP4 ADD MLOAD CODESIZE PUSH3 0x523 JUMP JUMPDEST PUSH1 0x4 PUSH1 0x0 MSTORE SWAP1 PUSH1 0x1F NOT DUP8 AND PUSH32 0x8A35ACFBC15FF81A39AE7D344FD709F28E8600B4AA8C65C6B64BFE7FE36BD19B SWAP3 PUSH1 0x0 SWAP1 JUMPDEST DUP3 DUP3 LT PUSH3 0x675 JUMPI POP POP SWAP2 DUP8 SWAP2 PUSH32 0x7BAB0EC163B5C132C72B8146AC4D6E067E82ED58F8B131150AA71C9258911562 SWAP8 SWAP9 PUSH1 0x1 SWAP5 LT PUSH3 0x65B JUMPI JUMPDEST POP POP DUP2 SHL ADD SWAP1 SSTORE PUSH3 0x537 JUMP JUMPDEST DUP6 ADD MLOAD PUSH1 0x0 NOT PUSH1 0xF8 DUP5 PUSH1 0x3 SHL AND SHR NOT AND SWAP1 SSTORE CODESIZE DUP1 PUSH3 0x64E JUMP JUMPDEST DUP7 DUP5 ADD MLOAD DUP6 SSTORE DUP11 SWAP9 POP PUSH1 0x1 SWAP1 SWAP5 ADD SWAP4 SWAP3 DUP4 ADD SWAP3 SWAP1 DUP2 ADD SWAP1 PUSH3 0x614 JUMP JUMPDEST DUP3 PUSH1 0x40 MLOAD PUSH32 0xC6829F8300000000000000000000000000000000000000000000000000000000 DUP2 MSTORE REVERT JUMPDEST CALLVALUE PUSH3 0x310 JUMPI PUSH1 0x0 CALLDATASIZE PUSH1 0x3 NOT ADD SLT PUSH3 0x310 JUMPI PUSH1 0x20 PUSH1 0x1 PUSH1 0x1 PUSH1 0xA0 SHL SUB PUSH1 0x8 SLOAD AND PUSH1 0x40 MLOAD SWAP1 DUP2 MSTORE RETURN JUMPDEST CALLVALUE PUSH3 0x310 JUMPI PUSH1 0x0 CALLDATASIZE PUSH1 0x3 NOT ADD SLT PUSH3 0x310 JUMPI PUSH1 0x20 PUSH1 0x3 SLOAD PUSH1 0x40 MLOAD SWAP1 DUP2 MSTORE RETURN JUMPDEST CALLVALUE PUSH3 0x310 JUMPI PUSH1 0x0 CALLDATASIZE PUSH1 0x3 NOT ADD SLT PUSH3 0x310 JUMPI PUSH1 0x20 PUSH1 0x6 SLOAD PUSH4 0xFFFFFFFF PUSH1 0x40 MLOAD SWAP2 PUSH1 0x40 SHR AND DUP2 MSTORE RETURN JUMPDEST PUSH4 0x4E487B71 PUSH1 0xE0 SHL PUSH1 0x0 MSTORE PUSH1 0x32 PUSH1 0x4 MSTORE PUSH1 0x24 PUSH1 0x0 REVERT JUMPDEST PUSH1 0x1E SLOAD DUP2 LT ISZERO PUSH3 0x77B JUMPI PUSH1 0x1E PUSH1 0x0 MSTORE PUSH32 0x50BB669A95C7B50B7E8A6F09454034B2B14CF2B85C730DCA9A539CA82CB6E350 ADD SWAP1 PUSH1 0x0 SWAP1 JUMP JUMPDEST PUSH3 0x72D JUMP JUMPDEST PUSH4 0x4E487B71 PUSH1 0xE0 SHL PUSH1 0x0 MSTORE PUSH1 0x0 PUSH1 0x4 MSTORE PUSH1 0x24 PUSH1 0x0 REVERT JUMPDEST SWAP1 PUSH1 0x1 DUP3 DUP2 SHR SWAP3 AND DUP1 ISZERO PUSH3 0x7C9 JUMPI JUMPDEST PUSH1 0x20 DUP4 LT EQ PUSH3 0x7B3 JUMPI JUMP JUMPDEST PUSH4 0x4E487B71 PUSH1 0xE0 SHL PUSH1 0x0 MSTORE PUSH1 0x22 PUSH1 0x4 MSTORE PUSH1 0x24 PUSH1 0x0 REVERT JUMPDEST SWAP2 PUSH1 0x7F AND SWAP2 PUSH3 0x7A7 JUMP JUMPDEST PUSH1 0x40 MLOAD SWAP1 PUSH1 0x0 DUP3 PUSH1 0x1F SLOAD SWAP2 PUSH3 0x7EA DUP4 PUSH3 0x797 JUMP JUMPDEST DUP1 DUP4 MSTORE SWAP3 PUSH1 0x1 SWAP1 DUP2 DUP2 AND SWAP1 DUP2 ISZERO PUSH3 0x87A JUMPI POP PUSH1 0x1 EQ PUSH3 0x817 JUMPI JUMPDEST POP PUSH3 0x815 SWAP3 POP SUB DUP4 PUSH3 0x3AD JUMP JUMPDEST JUMP JUMPDEST PUSH1 0x1F PUSH1 0x0 SWAP1 DUP2 MSTORE SWAP2 POP PUSH32 0xA03837A25210EE280C2113FF4B77CA23440B19D4866CCA721C801278FD08D807 JUMPDEST DUP5 DUP4 LT PUSH3 0x85E JUMPI POP PUSH3 0x815 SWAP4 POP POP DUP2 ADD PUSH1 0x20 ADD CODESIZE PUSH3 0x806 JUMP JUMPDEST DUP2 SWAP4 POP SWAP1 DUP2 PUSH1 0x20 SWAP3 SLOAD DUP4 DUP6 DUP11 ADD ADD MSTORE ADD SWAP2 ADD SWAP1 SWAP2 DUP6 SWAP3 PUSH3 0x842 JUMP JUMPDEST SWAP1 POP PUSH1 0x20 SWAP3 POP PUSH3 0x815 SWAP5 SWAP2 POP PUSH1 0xFF NOT AND DUP3 DUP5 ADD MSTORE ISZERO ISZERO PUSH1 0x5 SHL DUP3 ADD ADD CODESIZE PUSH3 0x806 JUMP JUMPDEST SWAP1 PUSH1 0x40 MLOAD SWAP2 DUP3 PUSH1 0x0 DUP3 SLOAD SWAP3 PUSH3 0x8B4 DUP5 PUSH3 0x797 JUMP JUMPDEST SWAP1 DUP2 DUP5 MSTORE PUSH1 0x1 SWAP5 DUP6 DUP2 AND SWAP1 DUP2 PUSH1 0x0 EQ PUSH3 0x929 JUMPI POP PUSH1 0x1 EQ PUSH3 0x8E2 JUMPI JUMPDEST POP POP PUSH3 0x815 SWAP3 POP SUB DUP4 PUSH3 0x3AD JUMP JUMPDEST SWAP1 SWAP4 SWAP2 POP PUSH1 0x0 MSTORE PUSH1 0x20 SWAP1 DUP2 PUSH1 0x0 KECCAK256 SWAP4 PUSH1 0x0 SWAP2 JUMPDEST DUP2 DUP4 LT PUSH3 0x910 JUMPI POP POP PUSH3 0x815 SWAP4 POP DUP3 ADD ADD CODESIZE DUP1 PUSH3 0x8D2 JUMP JUMPDEST DUP6 SLOAD DUP9 DUP5 ADD DUP6 ADD MSTORE SWAP5 DUP6 ADD SWAP5 DUP8 SWAP5 POP SWAP2 DUP4 ADD SWAP2 PUSH3 0x8F5 JUMP JUMPDEST SWAP2 POP POP PUSH3 0x815 SWAP5 POP PUSH1 0x20 SWAP3 POP PUSH1 0xFF NOT AND DUP3 DUP5 ADD MSTORE ISZERO ISZERO PUSH1 0x5 SHL DUP3 ADD ADD CODESIZE DUP1 PUSH3 0x8D2 JUMP JUMPDEST PUSH1 0x0 JUMPDEST DUP3 DUP2 LT PUSH3 0x961 JUMPI POP PUSH1 0x0 SWAP2 ADD MSTORE JUMP JUMPDEST PUSH1 0x80 DUP2 ADD MLOAD DUP3 DUP3 ADD MSTORE PUSH1 0x20 ADD PUSH3 0x951 JUMP JUMPDEST SWAP2 SWAP1 DUP3 MLOAD SWAP3 DUP4 DUP3 MSTORE PUSH1 0x0 JUMPDEST DUP5 DUP2 LT PUSH3 0x9A0 JUMPI POP POP DUP3 PUSH1 0x0 PUSH1 0x20 DUP1 SWAP5 SWAP6 DUP5 ADD ADD MSTORE PUSH1 0x1F DUP1 NOT SWAP2 ADD AND ADD ADD SWAP1 JUMP JUMPDEST PUSH1 0x20 DUP2 DUP4 ADD DUP2 ADD MLOAD DUP5 DUP4 ADD DUP3 ADD MSTORE ADD PUSH3 0x97E JUMP JUMPDEST SWAP1 PUSH1 0x20 PUSH3 0x9C8 SWAP3 DUP2 DUP2 MSTORE ADD SWAP1 PUSH3 0x973 JUMP JUMPDEST SWAP1 JUMP JUMPDEST CALLVALUE PUSH3 0x310 JUMPI PUSH1 0x20 CALLDATASIZE PUSH1 0x3 NOT ADD SLT PUSH3 0x310 JUMPI PUSH1 0x4 CALLDATALOAD PUSH1 0x1E SLOAD DUP2 LT ISZERO PUSH3 0x310 JUMPI PUSH3 0xA22 PUSH3 0xA37 SWAP2 PUSH1 0x1E PUSH1 0x0 MSTORE PUSH32 0x50BB669A95C7B50B7E8A6F09454034B2B14CF2B85C730DCA9A539CA82CB6E350 ADD PUSH3 0x89E JUMP JUMPDEST PUSH1 0x40 MLOAD SWAP2 DUP3 SWAP2 PUSH1 0x20 DUP4 MSTORE PUSH1 0x20 DUP4 ADD SWAP1 PUSH3 0x973 JUMP JUMPDEST SUB SWAP1 RETURN JUMPDEST CALLVALUE PUSH3 0x310 JUMPI PUSH1 0x0 CALLDATASIZE PUSH1 0x3 NOT ADD SLT PUSH3 0x310 JUMPI PUSH1 0x20 PUSH1 0x1 PUSH1 0x1 PUSH1 0xA0 SHL SUB PUSH1 0xA SLOAD AND PUSH1 0x40 MLOAD SWAP1 DUP2 MSTORE RETURN JUMPDEST CALLVALUE PUSH3 0x310 JUMPI PUSH1 0x0 DUP1 PUSH1 0x3 NOT CALLDATASIZE ADD SLT PUSH3 0xB54 JUMPI PUSH1 0x40 MLOAD SWAP1 DUP1 PUSH1 0xC SLOAD PUSH3 0xA8B DUP2 PUSH3 0x797 JUMP JUMPDEST DUP1 DUP6 MSTORE SWAP2 PUSH1 0x1 SWAP2 DUP1 DUP4 AND SWAP1 DUP2 ISZERO PUSH3 0xB27 JUMPI POP PUSH1 0x1 EQ PUSH3 0xAC7 JUMPI JUMPDEST PUSH3 0xA37 DUP6 PUSH3 0xABA DUP2 DUP8 SUB DUP3 PUSH3 0x3AD JUMP JUMPDEST PUSH1 0x40 MLOAD SWAP2 DUP3 SWAP2 DUP3 PUSH3 0x9B5 JUMP JUMPDEST SWAP3 POP PUSH1 0xC DUP4 MSTORE PUSH32 0xDF6966C971051C3D54EC59162606531493A51404A002842F56009D7E5CF4A8C7 JUMPDEST DUP3 DUP5 LT PUSH3 0xB0E JUMPI POP POP POP DUP2 ADD PUSH1 0x20 ADD PUSH3 0xABA DUP3 PUSH3 0xA37 PUSH3 0xAA7 JUMP JUMPDEST DUP1 SLOAD PUSH1 0x20 DUP6 DUP8 ADD DUP2 ADD SWAP2 SWAP1 SWAP2 MSTORE SWAP1 SWAP4 ADD SWAP3 DUP2 ADD PUSH3 0xAEF JUMP JUMPDEST DUP7 SWAP6 POP PUSH3 0xA37 SWAP7 SWAP4 POP PUSH1 0x20 SWAP3 POP PUSH3 0xABA SWAP5 SWAP2 POP PUSH1 0xFF NOT AND DUP3 DUP5 ADD MSTORE ISZERO ISZERO PUSH1 0x5 SHL DUP3 ADD ADD SWAP3 SWAP4 PUSH3 0xAA7 JUMP JUMPDEST DUP1 REVERT JUMPDEST CALLVALUE PUSH3 0x310 JUMPI PUSH1 0x0 CALLDATASIZE PUSH1 0x3 NOT ADD SLT PUSH3 0x310 JUMPI PUSH1 0x20 PUSH1 0x11 SLOAD PUSH1 0x40 MLOAD SWAP1 DUP2 MSTORE RETURN JUMPDEST CALLVALUE PUSH3 0x310 JUMPI PUSH1 0x0 DUP1 PUSH1 0x3 NOT CALLDATASIZE ADD SLT PUSH3 0xB54 JUMPI PUSH1 0x40 MLOAD SWAP1 DUP1 PUSH1 0x13 SLOAD PUSH3 0xB9E DUP2 PUSH3 0x797 JUMP JUMPDEST DUP1 DUP6 MSTORE SWAP2 PUSH1 0x1 SWAP2 DUP1 DUP4 AND SWAP1 DUP2 ISZERO PUSH3 0xB27 JUMPI POP PUSH1 0x1 EQ PUSH3 0xBCC JUMPI PUSH3 0xA37 DUP6 PUSH3 0xABA DUP2 DUP8 SUB DUP3 PUSH3 0x3AD JUMP JUMPDEST SWAP3 POP PUSH1 0x13 DUP4 MSTORE PUSH32 0x66DE8FFDA797E3DE9C05E8FC57B3BF0EC28A930D40B0D285D93C06501CF6A090 JUMPDEST DUP3 DUP5 LT PUSH3 0xC13 JUMPI POP POP POP DUP2 ADD PUSH1 0x20 ADD PUSH3 0xABA DUP3 PUSH3 0xA37 PUSH3 0xAA7 JUMP JUMPDEST DUP1 SLOAD PUSH1 0x20 DUP6 DUP8 ADD DUP2 ADD SWAP2 SWAP1 SWAP2 MSTORE SWAP1 SWAP4 ADD SWAP3 DUP2 ADD PUSH3 0xBF4 JUMP JUMPDEST CALLVALUE PUSH3 0x310 JUMPI PUSH1 0x3 NOT PUSH1 0x20 CALLDATASIZE DUP3 ADD SLT PUSH3 0x310 JUMPI PUSH1 0x4 CALLDATALOAD SWAP1 PUSH8 0xFFFFFFFFFFFFFFFF DUP3 GT PUSH3 0x310 JUMPI PUSH2 0x140 SWAP1 DUP3 CALLDATASIZE SUB ADD SLT PUSH3 0x310 JUMPI PUSH1 0x20 PUSH3 0xCD1 PUSH1 0x0 SWAP3 PUSH3 0xC97 PUSH3 0xC8B PUSH1 0x1 PUSH1 0x1 PUSH1 0xA0 SHL SUB PUSH1 0xA SLOAD AND PUSH1 0x1 PUSH1 0x1 PUSH1 0xA0 SHL SUB AND SWAP1 JUMP JUMPDEST PUSH1 0x1 PUSH1 0x1 PUSH1 0xA0 SHL SUB AND SWAP1 JUMP JUMPDEST SWAP1 PUSH1 0x40 MLOAD SWAP5 DUP6 DUP1 SWAP5 DUP2 SWAP4 PUSH32 0xBC61A47300000000000000000000000000000000000000000000000000000000 DUP4 MSTORE PUSH1 0x4 ADD PUSH1 0x4 DUP4 ADD PUSH3 0x1BF6 JUMP JUMPDEST SUB SWAP3 GAS CALL DUP1 ISZERO PUSH3 0xD56 JUMPI PUSH3 0xCF0 SWAP2 PUSH1 0x0 SWAP2 PUSH3 0xD21 JUMPI JUMPDEST POP PUSH1 0xB SSTORE JUMP JUMPDEST PUSH1 0xB SLOAD PUSH1 0x40 MLOAD SWAP1 DUP2 MSTORE PUSH32 0x7623383A750B4166574A1B2DFF61440ED0DFA3708CBE620C58339CCA510D1AF9 SWAP1 PUSH1 0x20 SWAP1 LOG1 STOP JUMPDEST PUSH3 0xD47 SWAP2 POP PUSH1 0x20 RETURNDATASIZE DUP2 GT PUSH3 0xD4E JUMPI JUMPDEST PUSH3 0xD3E DUP2 DUP4 PUSH3 0x3AD JUMP JUMPDEST DUP2 ADD SWAP1 PUSH3 0x1B81 JUMP JUMPDEST CODESIZE PUSH3 0xCEA JUMP JUMPDEST POP RETURNDATASIZE PUSH3 0xD32 JUMP JUMPDEST PUSH3 0x1B5B JUMP JUMPDEST CALLVALUE PUSH3 0x310 JUMPI PUSH1 0x0 CALLDATASIZE PUSH1 0x3 NOT ADD SLT PUSH3 0x310 JUMPI PUSH1 0x20 PUSH1 0x17 SLOAD PUSH1 0x40 MLOAD SWAP1 DUP2 MSTORE RETURN JUMPDEST SWAP2 DUP2 PUSH1 0x1F DUP5 ADD SLT ISZERO PUSH3 0x310 JUMPI DUP3 CALLDATALOAD SWAP2 PUSH8 0xFFFFFFFFFFFFFFFF DUP4 GT PUSH3 0x310 JUMPI PUSH1 0x20 DUP4 DUP2 DUP7 ADD SWAP6 ADD ADD GT PUSH3 0x310 JUMPI JUMP JUMPDEST CALLVALUE PUSH3 0x310 JUMPI PUSH1 0x20 CALLDATASIZE PUSH1 0x3 NOT ADD SLT PUSH3 0x310 JUMPI PUSH1 0x4 CALLDATALOAD PUSH8 0xFFFFFFFFFFFFFFFF DUP2 GT PUSH3 0x310 JUMPI PUSH3 0xDE3 SWAP1 CALLDATASIZE SWAP1 PUSH1 0x4 ADD PUSH3 0xD7C JUMP JUMPDEST POP POP PUSH1 0x0 SLOAD PUSH1 0x1 PUSH1 0x1 PUSH1 0xA0 SHL SUB AND CALLER DUP2 EQ ISZERO DUP1 PUSH3 0xE56 JUMPI JUMPDEST PUSH3 0xE0B JUMPI PUSH3 0x1B PUSH3 0x22C5 JUMP JUMPDEST PUSH1 0x1A SLOAD PUSH1 0x40 MLOAD PUSH32 0x426FBC7100000000000000000000000000000000000000000000000000000000 DUP2 MSTORE CALLER PUSH1 0x4 DUP3 ADD MSTORE PUSH1 0x1 PUSH1 0x1 PUSH1 0xA0 SHL SUB SWAP3 DUP4 AND PUSH1 0x24 DUP3 ADD MSTORE SWAP2 AND PUSH1 0x44 DUP3 ADD MSTORE PUSH1 0x64 SWAP1 REVERT JUMPDEST POP PUSH3 0xE6E PUSH3 0xC8B PUSH1 0x1A SLOAD PUSH1 0x1 PUSH1 0x1 PUSH1 0xA0 SHL SUB AND SWAP1 JUMP JUMPDEST CALLER EQ ISZERO PUSH3 0xDFC JUMP JUMPDEST PUSH1 0x44 CALLDATALOAD SWAP1 PUSH4 0xFFFFFFFF DUP3 AND DUP3 SUB PUSH3 0x310 JUMPI JUMP JUMPDEST CALLDATALOAD SWAP1 PUSH4 0xFFFFFFFF DUP3 AND DUP3 SUB PUSH3 0x310 JUMPI JUMP JUMPDEST CALLVALUE PUSH3 0x310 JUMPI PUSH1 0xA0 CALLDATASIZE PUSH1 0x3 NOT ADD SLT PUSH3 0x310 JUMPI PUSH8 0xFFFFFFFFFFFFFFFF PUSH1 0x4 CALLDATALOAD DUP2 DUP2 GT PUSH3 0x310 JUMPI PUSH3 0xED4 SWAP1 CALLDATASIZE SWAP1 PUSH1 0x4 ADD PUSH3 0xD7C JUMP JUMPDEST PUSH1 0x24 CALLDATALOAD SWAP3 SWAP2 DUP4 DUP4 AND DUP5 SUB PUSH3 0x310 JUMPI PUSH3 0xEED PUSH3 0xE77 JUMP JUMPDEST SWAP3 PUSH3 0xEF8 PUSH3 0x1B02 JUMP JUMPDEST DUP3 GT PUSH3 0x38A JUMPI PUSH3 0xF17 DUP3 PUSH3 0xF11 PUSH1 0x2 SLOAD PUSH3 0x797 JUMP JUMPDEST PUSH3 0x1DDC JUMP JUMPDEST PUSH1 0x0 SWAP1 PUSH1 0x1F DUP4 GT PUSH1 0x1 EQ PUSH3 0xFBE JUMPI SWAP2 DUP1 PUSH3 0xF9A SWAP6 SWAP3 PUSH3 0xF6F SWAP5 PUSH1 0x0 SWAP3 PUSH3 0xFB2 JUMPI JUMPDEST POP POP DUP2 PUSH1 0x1 SHL SWAP2 PUSH1 0x0 NOT SWAP1 PUSH1 0x3 SHL SHR NOT AND OR PUSH1 0x2 SSTORE PUSH8 0xFFFFFFFFFFFFFFFF AND PUSH8 0xFFFFFFFFFFFFFFFF NOT PUSH1 0x6 SLOAD AND OR PUSH1 0x6 SSTORE JUMP JUMPDEST PUSH12 0xFFFFFFFF0000000000000000 PUSH1 0x6 SLOAD SWAP2 PUSH1 0x40 SHL AND SWAP1 PUSH12 0xFFFFFFFF0000000000000000 NOT AND OR PUSH1 0x6 SSTORE JUMP JUMPDEST PUSH3 0xFA6 PUSH1 0x64 CALLDATALOAD PUSH1 0xE SSTORE JUMP JUMPDEST PUSH3 0x1B PUSH1 0x84 CALLDATALOAD PUSH1 0x7 SSTORE JUMP JUMPDEST ADD CALLDATALOAD SWAP1 POP CODESIZE DUP1 PUSH3 0xF3C JUMP JUMPDEST PUSH1 0x2 PUSH1 0x0 MSTORE PUSH32 0x405787FA12A823E0F2B7631CC41B3BA8828B3321CA811111FA75CD3AA3BB5ACE SWAP2 PUSH1 0x1F NOT DUP5 AND DUP2 JUMPDEST DUP2 DUP2 LT PUSH3 0x104F JUMPI POP SWAP3 PUSH1 0x1 SWAP3 DUP6 SWAP3 PUSH3 0xF6F SWAP7 PUSH3 0xF9A SWAP10 SWAP7 LT PUSH3 0x1034 JUMPI JUMPDEST POP POP POP DUP2 SHL ADD PUSH1 0x2 SSTORE PUSH8 0xFFFFFFFFFFFFFFFF AND PUSH8 0xFFFFFFFFFFFFFFFF NOT PUSH1 0x6 SLOAD AND OR PUSH1 0x6 SSTORE JUMP JUMPDEST ADD CALLDATALOAD PUSH1 0x0 NOT PUSH1 0x3 DUP5 SWAP1 SHL PUSH1 0xF8 AND SHR NOT AND SWAP1 SSTORE CODESIZE DUP1 DUP1 PUSH3 0x100D JUMP JUMPDEST SWAP2 SWAP4 PUSH1 0x20 PUSH1 0x1 DUP2 SWAP3 DUP8 DUP8 ADD CALLDATALOAD DUP2 SSTORE ADD SWAP6 ADD SWAP3 ADD PUSH3 0xFEC JUMP JUMPDEST CALLVALUE PUSH3 0x310 JUMPI PUSH1 0x0 CALLDATASIZE PUSH1 0x3 NOT ADD SLT PUSH3 0x310 JUMPI PUSH1 0x20 PUSH1 0x16 SLOAD PUSH1 0x40 MLOAD SWAP1 DUP2 MSTORE RETURN JUMPDEST CALLVALUE PUSH3 0x310 JUMPI PUSH1 0x0 CALLDATASIZE PUSH1 0x3 NOT ADD SLT PUSH3 0x310 JUMPI PUSH1 0x20 PUSH1 0x1B SLOAD PUSH1 0x40 MLOAD SWAP1 DUP2 MSTORE RETURN JUMPDEST CALLVALUE PUSH3 0x310 JUMPI PUSH1 0x0 DUP1 PUSH1 0x3 NOT CALLDATASIZE ADD SLT PUSH3 0xB54 JUMPI PUSH1 0x40 MLOAD SWAP1 DUP1 PUSH1 0x14 SLOAD PUSH3 0x10CF DUP2 PUSH3 0x797 JUMP JUMPDEST DUP1 DUP6 MSTORE SWAP2 PUSH1 0x1 SWAP2 DUP1 DUP4 AND SWAP1 DUP2 ISZERO PUSH3 0xB27 JUMPI POP PUSH1 0x1 EQ PUSH3 0x10FD JUMPI PUSH3 0xA37 DUP6 PUSH3 0xABA DUP2 DUP8 SUB DUP3 PUSH3 0x3AD JUMP JUMPDEST SWAP3 POP PUSH1 0x14 DUP4 MSTORE PUSH32 0xCE6D7B5282BD9A3661AE061FEED1DBDA4E52AB073B1F9285BE6E155D9C38D4EC JUMPDEST DUP3 DUP5 LT PUSH3 0x1144 JUMPI POP POP POP DUP2 ADD PUSH1 0x20 ADD PUSH3 0xABA DUP3 PUSH3 0xA37 PUSH3 0xAA7 JUMP JUMPDEST DUP1 SLOAD PUSH1 0x20 DUP6 DUP8 ADD DUP2 ADD SWAP2 SWAP1 SWAP2 MSTORE SWAP1 SWAP4 ADD SWAP3 DUP2 ADD PUSH3 0x1125 JUMP JUMPDEST CALLVALUE PUSH3 0x310 JUMPI PUSH1 0x0 CALLDATASIZE PUSH1 0x3 NOT ADD SLT PUSH3 0x310 JUMPI PUSH1 0x20 PUSH1 0x1 PUSH1 0x1 PUSH1 0xA0 SHL SUB PUSH1 0x1A SLOAD AND PUSH1 0x40 MLOAD SWAP1 DUP2 MSTORE RETURN JUMPDEST CALLVALUE PUSH3 0x310 JUMPI PUSH1 0x0 DUP1 PUSH1 0x3 NOT CALLDATASIZE ADD SLT PUSH3 0xB54 JUMPI PUSH1 0x40 MLOAD SWAP1 DUP1 PUSH1 0x2 SLOAD PUSH3 0x11AD DUP2 PUSH3 0x797 JUMP JUMPDEST DUP1 DUP6 MSTORE SWAP2 PUSH1 0x1 SWAP2 DUP1 DUP4 AND SWAP1 DUP2 ISZERO PUSH3 0xB27 JUMPI POP PUSH1 0x1 EQ PUSH3 0x11DB JUMPI PUSH3 0xA37 DUP6 PUSH3 0xABA DUP2 DUP8 SUB DUP3 PUSH3 0x3AD JUMP JUMPDEST SWAP3 POP PUSH1 0x2 DUP4 MSTORE PUSH32 0x405787FA12A823E0F2B7631CC41B3BA8828B3321CA811111FA75CD3AA3BB5ACE JUMPDEST DUP3 DUP5 LT PUSH3 0x1222 JUMPI POP POP POP DUP2 ADD PUSH1 0x20 ADD PUSH3 0xABA DUP3 PUSH3 0xA37 PUSH3 0xAA7 JUMP JUMPDEST DUP1 SLOAD PUSH1 0x20 DUP6 DUP8 ADD DUP2 ADD SWAP2 SWAP1 SWAP2 MSTORE SWAP1 SWAP4 ADD SWAP3 DUP2 ADD PUSH3 0x1203 JUMP JUMPDEST CALLVALUE PUSH3 0x310 JUMPI PUSH1 0x0 CALLDATASIZE PUSH1 0x3 NOT ADD SLT PUSH3 0x310 JUMPI PUSH1 0x20 PUSH1 0x1 PUSH1 0x1 PUSH1 0xA0 SHL SUB PUSH1 0x9 SLOAD AND PUSH1 0x40 MLOAD SWAP1 DUP2 MSTORE RETURN JUMPDEST CALLVALUE PUSH3 0x310 JUMPI PUSH1 0x20 CALLDATASIZE PUSH1 0x3 NOT ADD SLT PUSH3 0x310 JUMPI PUSH1 0x4 CALLDATALOAD PUSH8 0xFFFFFFFFFFFFFFFF DUP2 GT PUSH3 0x310 JUMPI PUSH3 0x129A SWAP1 CALLDATASIZE SWAP1 PUSH1 0x4 ADD PUSH3 0x3ED JUMP JUMPDEST POP PUSH1 0xF SLOAD TIMESTAMP SUB TIMESTAMP DUP2 GT PUSH3 0x12E0 JUMPI PUSH1 0x7 SLOAD LT PUSH1 0x40 MLOAD SWAP1 DUP2 MSTORE PUSH1 0x40 PUSH1 0x20 DUP3 ADD MSTORE PUSH1 0x60 DUP2 DUP2 MLOAD DUP1 PUSH1 0x40 DUP4 ADD MSTORE PUSH3 0x12D2 DUP2 DUP5 DUP5 ADD PUSH3 0x94E JUMP JUMPDEST PUSH1 0x1F ADD PUSH1 0x1F NOT AND DUP2 ADD SUB ADD SWAP1 RETURN JUMPDEST PUSH3 0x1ECE JUMP JUMPDEST CALLVALUE PUSH3 0x310 JUMPI PUSH1 0x0 CALLDATASIZE PUSH1 0x3 NOT ADD SLT PUSH3 0x310 JUMPI PUSH1 0x20 PUSH1 0xE SLOAD PUSH1 0x40 MLOAD SWAP1 DUP2 MSTORE RETURN JUMPDEST CALLVALUE PUSH3 0x310 JUMPI PUSH1 0x0 DUP1 PUSH1 0x3 NOT CALLDATASIZE ADD SLT PUSH3 0xB54 JUMPI PUSH1 0x1 PUSH1 0x1 PUSH1 0xA0 SHL SUB DUP1 PUSH1 0x1 SLOAD AND CALLER SUB PUSH3 0x13A6 JUMPI DUP2 SLOAD PUSH1 0x1 PUSH1 0x1 PUSH1 0xA0 SHL SUB AND PUSH1 0x0 DUP1 SLOAD PUSH20 0xFFFFFFFFFFFFFFFFFFFFFFFFFFFFFFFFFFFFFFFF NOT AND CALLER OR SWAP1 SSTORE SWAP1 PUSH3 0x137C PUSH20 0xFFFFFFFFFFFFFFFFFFFFFFFFFFFFFFFFFFFFFFFF NOT PUSH1 0x1 SLOAD AND PUSH1 0x1 SSTORE JUMP JUMPDEST CALLER SWAP2 AND PUSH32 0x8BE0079C531659141344CD1FD0A4F28419497F9722A3DAAFE3B4186F6B6457E0 DUP4 DUP1 LOG3 DUP1 RETURN JUMPDEST PUSH1 0x64 PUSH1 0x40 MLOAD PUSH3 0x461BCD PUSH1 0xE5 SHL DUP2 MSTORE PUSH1 0x20 PUSH1 0x4 DUP3 ADD MSTORE PUSH1 0x16 PUSH1 0x24 DUP3 ADD MSTORE PUSH32 0x4D7573742062652070726F706F736564206F776E657200000000000000000000 PUSH1 0x44 DUP3 ADD MSTORE REVERT JUMPDEST CALLVALUE PUSH3 0x310 JUMPI PUSH1 0x0 CALLDATASIZE PUSH1 0x3 NOT ADD SLT PUSH3 0x310 JUMPI PUSH1 0x20 PUSH1 0x40 MLOAD PUSH1 0x1 PUSH1 0x1 PUSH1 0xA0 SHL SUB PUSH32 0x0 AND DUP2 MSTORE RETURN JUMPDEST CALLVALUE PUSH3 0x310 JUMPI PUSH1 0x0 CALLDATASIZE PUSH1 0x3 NOT ADD SLT PUSH3 0x310 JUMPI PUSH1 0x20 SELFBALANCE PUSH1 0x40 MLOAD SWAP1 DUP2 MSTORE RETURN JUMPDEST PUSH1 0x4 CALLDATALOAD SWAP1 PUSH12 0xFFFFFFFFFFFFFFFFFFFFFFFF DUP3 AND DUP3 SUB PUSH3 0x310 JUMPI JUMP JUMPDEST CALLDATALOAD SWAP1 PUSH12 0xFFFFFFFFFFFFFFFFFFFFFFFF DUP3 AND DUP3 SUB PUSH3 0x310 JUMPI JUMP JUMPDEST CALLVALUE PUSH3 0x310 JUMPI PUSH1 0x20 CALLDATASIZE PUSH1 0x3 NOT ADD SLT PUSH3 0x310 JUMPI PUSH3 0x14A1 PUSH3 0x144E JUMP JUMPDEST PUSH1 0x8 SLOAD PUSH1 0x1 PUSH1 0x1 PUSH1 0xA0 SHL SUB AND SWAP1 PUSH3 0x14C1 PUSH1 0x9 SLOAD PUSH1 0x1 PUSH1 0x1 PUSH1 0xA0 SHL SUB AND SWAP1 JUMP JUMPDEST SWAP2 PUSH1 0x40 MLOAD SWAP3 PUSH2 0x73A DUP1 DUP6 ADD SWAP2 DUP6 DUP4 LT PUSH8 0xFFFFFFFFFFFFFFFF DUP5 GT OR PUSH3 0x38A JUMPI DUP6 SWAP4 PUSH3 0x151F SWAP4 DUP7 SWAP4 PUSH3 0x3B23 DUP8 CODECOPY PUSH1 0x1 PUSH1 0x1 PUSH1 0xA0 SHL SUB SWAP2 DUP3 AND DUP2 MSTORE SWAP2 AND PUSH1 0x20 DUP3 ADD MSTORE PUSH12 0xFFFFFFFFFFFFFFFFFFFFFFFF SWAP1 SWAP2 AND PUSH1 0x40 DUP3 ADD MSTORE PUSH1 0x60 ADD SWAP1 JUMP JUMPDEST SUB PUSH1 0x0 SWAP3 DUP4 CREATE DUP1 ISZERO PUSH3 0xD56 JUMPI PUSH3 0x15ED SWAP2 PUSH3 0x1561 PUSH1 0x20 SWAP3 PUSH1 0x1 PUSH1 0x1 PUSH1 0xA0 SHL SUB AND PUSH20 0xFFFFFFFFFFFFFFFFFFFFFFFFFFFFFFFFFFFFFFFF NOT PUSH1 0xA SLOAD AND OR PUSH1 0xA SSTORE JUMP JUMPDEST PUSH3 0x157C PUSH3 0xC8B PUSH3 0xC8B PUSH1 0x8 SLOAD PUSH1 0x1 PUSH1 0x1 PUSH1 0xA0 SHL SUB AND SWAP1 JUMP JUMPDEST PUSH3 0x1593 PUSH3 0xC8B PUSH1 0xA SLOAD PUSH1 0x1 PUSH1 0x1 PUSH1 0xA0 SHL SUB AND SWAP1 JUMP JUMPDEST DUP6 PUSH1 0x40 MLOAD DUP1 SWAP7 DUP2 SWAP6 DUP3 SWAP5 PUSH32 0x95EA7B300000000000000000000000000000000000000000000000000000000 DUP5 MSTORE PUSH1 0x4 DUP5 ADD SWAP1 SWAP3 SWAP2 PUSH12 0xFFFFFFFFFFFFFFFFFFFFFFFF PUSH1 0x20 SWAP2 PUSH1 0x1 PUSH1 0x1 PUSH1 0xA0 SHL SUB PUSH1 0x40 DUP6 ADD SWAP7 AND DUP5 MSTORE AND SWAP2 ADD MSTORE JUMP JUMPDEST SUB SWAP3 GAS CALL DUP1 ISZERO PUSH3 0xD56 JUMPI PUSH3 0x16DA JUMPI JUMPDEST POP DUP1 PUSH3 0x1617 PUSH3 0xC8B PUSH1 0xA SLOAD PUSH1 0x1 PUSH1 0x1 PUSH1 0xA0 SHL SUB AND SWAP1 JUMP JUMPDEST DUP1 EXTCODESIZE ISZERO PUSH3 0x16D7 JUMPI DUP2 SWAP1 PUSH1 0x4 PUSH1 0x40 MLOAD DUP1 SWAP5 DUP2 SWAP4 PUSH32 0xB60D428800000000000000000000000000000000000000000000000000000000 DUP4 MSTORE GAS CALL DUP1 ISZERO PUSH3 0xD56 JUMPI PUSH3 0x16B9 JUMPI JUMPDEST POP PUSH32 0x3583C1105FD29A46B4D92CEEAFF8BE03CBA58A11CCE44A3B7DA77BBC3798EDC4 PUSH3 0x16B3 PUSH3 0x1699 PUSH3 0xC8B PUSH1 0xA SLOAD PUSH1 0x1 PUSH1 0x1 PUSH1 0xA0 SHL SUB AND SWAP1 JUMP JUMPDEST PUSH1 0x40 MLOAD PUSH1 0x1 PUSH1 0x1 PUSH1 0xA0 SHL SUB SWAP1 SWAP2 AND DUP2 MSTORE SWAP1 DUP2 SWAP1 PUSH1 0x20 DUP3 ADD SWAP1 JUMP JUMPDEST SUB SWAP1 LOG1 DUP1 RETURN JUMPDEST DUP1 PUSH3 0x16C9 PUSH3 0x16D0 SWAP3 PUSH3 0x375 JUMP JUMPDEST DUP1 PUSH3 0x304 JUMP JUMPDEST CODESIZE PUSH3 0x165C JUMP JUMPDEST POP REVERT JUMPDEST PUSH3 0x16FF SWAP1 PUSH1 0x20 RETURNDATASIZE DUP2 GT PUSH3 0x1707 JUMPI JUMPDEST PUSH3 0x16F6 DUP2 DUP4 PUSH3 0x3AD JUMP JUMPDEST DUP2 ADD SWAP1 PUSH3 0x1B67 JUMP JUMPDEST POP CODESIZE PUSH3 0x15FE JUMP JUMPDEST POP RETURNDATASIZE PUSH3 0x16EA JUMP JUMPDEST CALLVALUE PUSH3 0x310 JUMPI PUSH1 0x0 CALLDATASIZE PUSH1 0x3 NOT ADD SLT PUSH3 0x310 JUMPI PUSH1 0x20 PUSH1 0x1 PUSH1 0x1 PUSH1 0xA0 SHL SUB PUSH1 0x0 SLOAD AND PUSH1 0x40 MLOAD SWAP1 DUP2 MSTORE RETURN JUMPDEST CALLVALUE PUSH3 0x310 JUMPI PUSH1 0x0 CALLDATASIZE PUSH1 0x3 NOT ADD SLT PUSH3 0x310 JUMPI PUSH1 0x20 PUSH1 0x1C SLOAD PUSH1 0x40 MLOAD SWAP1 DUP2 MSTORE RETURN JUMPDEST CALLVALUE PUSH3 0x310 JUMPI PUSH1 0x0 CALLDATASIZE PUSH1 0x3 NOT ADD SLT PUSH3 0x310 JUMPI PUSH1 0x20 PUSH1 0x10 SLOAD PUSH1 0x40 MLOAD SWAP1 DUP2 MSTORE RETURN JUMPDEST CALLVALUE PUSH3 0x310 JUMPI PUSH1 0x0 CALLDATASIZE PUSH1 0x3 NOT ADD SLT PUSH3 0x310 JUMPI PUSH1 0x20 PUSH1 0x12 SLOAD PUSH1 0x40 MLOAD SWAP1 DUP2 MSTORE RETURN JUMPDEST CALLVALUE PUSH3 0x310 JUMPI PUSH1 0x0 DUP1 PUSH1 0x3 NOT CALLDATASIZE ADD SLT PUSH3 0xB54 JUMPI PUSH1 0x40 MLOAD SWAP1 DUP1 PUSH1 0x4 SLOAD PUSH3 0x17BF DUP2 PUSH3 0x797 JUMP JUMPDEST DUP1 DUP6 MSTORE SWAP2 PUSH1 0x1 SWAP2 DUP1 DUP4 AND SWAP1 DUP2 ISZERO PUSH3 0xB27 JUMPI POP PUSH1 0x1 EQ PUSH3 0x17ED JUMPI PUSH3 0xA37 DUP6 PUSH3 0xABA DUP2 DUP8 SUB DUP3 PUSH3 0x3AD JUMP JUMPDEST SWAP3 POP PUSH1 0x4 DUP4 MSTORE PUSH32 0x8A35ACFBC15FF81A39AE7D344FD709F28E8600B4AA8C65C6B64BFE7FE36BD19B JUMPDEST DUP3 DUP5 LT PUSH3 0x1834 JUMPI POP POP POP DUP2 ADD PUSH1 0x20 ADD PUSH3 0xABA DUP3 PUSH3 0xA37 PUSH3 0xAA7 JUMP JUMPDEST DUP1 SLOAD PUSH1 0x20 DUP6 DUP8 ADD DUP2 ADD SWAP2 SWAP1 SWAP2 MSTORE SWAP1 SWAP4 ADD SWAP3 DUP2 ADD PUSH3 0x1815 JUMP JUMPDEST CALLVALUE PUSH3 0x310 JUMPI PUSH1 0x0 CALLDATASIZE PUSH1 0x3 NOT ADD SLT PUSH3 0x310 JUMPI PUSH1 0x20 PUSH1 0x1 PUSH1 0x1 PUSH1 0xA0 SHL SUB PUSH1 0x18 SLOAD PUSH1 0x8 SHR AND PUSH1 0x40 MLOAD SWAP1 DUP2 MSTORE RETURN JUMPDEST CALLVALUE PUSH3 0x310 JUMPI PUSH1 0x0 CALLDATASIZE PUSH1 0x3 NOT ADD SLT PUSH3 0x310 JUMPI PUSH1 0x20 PUSH1 0xB SLOAD PUSH1 0x40 MLOAD SWAP1 DUP2 MSTORE RETURN JUMPDEST CALLVALUE PUSH3 0x310 JUMPI PUSH1 0x0 CALLDATASIZE PUSH1 0x3 NOT ADD SLT PUSH3 0x310 JUMPI PUSH1 0x20 PUSH1 0x1 PUSH1 0x1 PUSH1 0xA0 SHL SUB PUSH1 0x19 SLOAD AND PUSH1 0x40 MLOAD SWAP1 DUP2 MSTORE RETURN JUMPDEST CALLVALUE PUSH3 0x310 JUMPI PUSH1 0x0 CALLDATASIZE PUSH1 0x3 NOT ADD SLT PUSH3 0x310 JUMPI PUSH1 0x20 PUSH1 0x1D SLOAD PUSH1 0x40 MLOAD SWAP1 DUP2 MSTORE RETURN JUMPDEST PUSH1 0x4 CALLDATALOAD SWAP1 PUSH1 0x1 PUSH1 0x1 PUSH1 0xA0 SHL SUB DUP3 AND DUP3 SUB PUSH3 0x310 JUMPI JUMP JUMPDEST CALLDATALOAD SWAP1 PUSH1 0x1 PUSH1 0x1 PUSH1 0xA0 SHL SUB DUP3 AND DUP3 SUB PUSH3 0x310 JUMPI JUMP JUMPDEST CALLVALUE PUSH3 0x310 JUMPI PUSH1 0x20 CALLDATASIZE PUSH1 0x3 NOT ADD SLT PUSH3 0x310 JUMPI PUSH1 0x1 PUSH1 0x1 PUSH1 0xA0 SHL SUB PUSH3 0x1933 PUSH3 0x18E2 JUMP JUMPDEST PUSH3 0x193D PUSH3 0x1B02 JUMP JUMPDEST AND CALLER DUP2 EQ PUSH3 0x19A3 JUMPI DUP1 PUSH20 0xFFFFFFFFFFFFFFFFFFFFFFFFFFFFFFFFFFFFFFFF NOT PUSH1 0x1 SLOAD AND OR PUSH1 0x1 SSTORE PUSH3 0x197C PUSH3 0xC8B PUSH1 0x0 SLOAD PUSH1 0x1 PUSH1 0x1 PUSH1 0xA0 SHL SUB AND SWAP1 JUMP JUMPDEST PUSH32 0xED8889F560326EB138920D842192F0EB3DD22B4F139C87A2C57538E05BAE1278 PUSH1 0x0 DUP1 LOG3 STOP JUMPDEST PUSH1 0x64 PUSH1 0x40 MLOAD PUSH3 0x461BCD PUSH1 0xE5 SHL DUP2 MSTORE PUSH1 0x20 PUSH1 0x4 DUP3 ADD MSTORE PUSH1 0x17 PUSH1 0x24 DUP3 ADD MSTORE PUSH32 0x43616E6E6F74207472616E7366657220746F2073656C66000000000000000000 PUSH1 0x44 DUP3 ADD MSTORE REVERT JUMPDEST CALLVALUE PUSH3 0x310 JUMPI PUSH1 0x0 CALLDATASIZE PUSH1 0x3 NOT ADD SLT PUSH3 0x310 JUMPI PUSH1 0x20 PUSH1 0x15 SLOAD PUSH1 0x40 MLOAD SWAP1 DUP2 MSTORE RETURN JUMPDEST CALLVALUE PUSH3 0x310 JUMPI PUSH1 0x0 CALLDATASIZE PUSH1 0x3 NOT ADD SLT PUSH3 0x310 JUMPI PUSH1 0x20 PUSH4 0xFFFFFFFF PUSH1 0xD SLOAD AND PUSH1 0x40 MLOAD SWAP1 DUP2 MSTORE RETURN JUMPDEST CALLVALUE PUSH3 0x310 JUMPI PUSH1 0x0 CALLDATASIZE PUSH1 0x3 NOT ADD SLT PUSH3 0x310 JUMPI PUSH1 0x20 PUSH1 0x7 SLOAD PUSH1 0x40 MLOAD SWAP1 DUP2 MSTORE RETURN JUMPDEST CALLVALUE PUSH3 0x310 JUMPI PUSH1 0x0 DUP1 PUSH1 0x3 NOT CALLDATASIZE ADD SLT PUSH3 0xB54 JUMPI PUSH1 0x40 MLOAD SWAP1 DUP1 PUSH1 0x5 SLOAD PUSH3 0x1A74 DUP2 PUSH3 0x797 JUMP JUMPDEST DUP1 DUP6 MSTORE SWAP2 PUSH1 0x1 SWAP2 DUP1 DUP4 AND SWAP1 DUP2 ISZERO PUSH3 0xB27 JUMPI POP PUSH1 0x1 EQ PUSH3 0x1AA2 JUMPI PUSH3 0xA37 DUP6 PUSH3 0xABA DUP2 DUP8 SUB DUP3 PUSH3 0x3AD JUMP JUMPDEST SWAP3 POP PUSH1 0x5 DUP4 MSTORE PUSH32 0x36B6384B5ECA791C62761152D0C79BB0604C104A5FB6F4EB0703F3154BB3DB0 JUMPDEST DUP3 DUP5 LT PUSH3 0x1AE9 JUMPI POP POP POP DUP2 ADD PUSH1 0x20 ADD PUSH3 0xABA DUP3 PUSH3 0xA37 PUSH3 0xAA7 JUMP JUMPDEST DUP1 SLOAD PUSH1 0x20 DUP6 DUP8 ADD DUP2 ADD SWAP2 SWAP1 SWAP2 MSTORE SWAP1 SWAP4 ADD SWAP3 DUP2 ADD PUSH3 0x1ACA JUMP JUMPDEST PUSH1 0x1 PUSH1 0x1 PUSH1 0xA0 SHL SUB PUSH1 0x0 SLOAD AND CALLER SUB PUSH3 0x1B17 JUMPI JUMP JUMPDEST PUSH1 0x64 PUSH1 0x40 MLOAD PUSH3 0x461BCD PUSH1 0xE5 SHL DUP2 MSTORE PUSH1 0x20 PUSH1 0x4 DUP3 ADD MSTORE PUSH1 0x16 PUSH1 0x24 DUP3 ADD MSTORE PUSH32 0x4F6E6C792063616C6C61626C65206279206F776E657200000000000000000000 PUSH1 0x44 DUP3 ADD MSTORE REVERT JUMPDEST PUSH1 0x40 MLOAD RETURNDATASIZE PUSH1 0x0 DUP3 RETURNDATACOPY RETURNDATASIZE SWAP1 REVERT JUMPDEST SWAP1 DUP2 PUSH1 0x20 SWAP2 SUB SLT PUSH3 0x310 JUMPI MLOAD DUP1 ISZERO ISZERO DUP2 SUB PUSH3 0x310 JUMPI SWAP1 JUMP JUMPDEST SWAP1 DUP2 PUSH1 0x20 SWAP2 SUB SLT PUSH3 0x310 JUMPI MLOAD SWAP1 JUMP JUMPDEST SWAP1 CALLDATALOAD PUSH1 0x1E NOT DUP3 CALLDATASIZE SUB ADD DUP2 SLT ISZERO PUSH3 0x310 JUMPI ADD PUSH1 0x20 DUP2 CALLDATALOAD SWAP2 ADD SWAP2 PUSH8 0xFFFFFFFFFFFFFFFF DUP3 GT PUSH3 0x310 JUMPI DUP2 CALLDATASIZE SUB DUP4 SGT PUSH3 0x310 JUMPI JUMP JUMPDEST SWAP1 DUP1 PUSH1 0x20 SWAP4 SWAP3 DUP2 DUP5 MSTORE DUP5 DUP5 ADD CALLDATACOPY PUSH1 0x0 DUP3 DUP3 ADD DUP5 ADD MSTORE PUSH1 0x1F ADD PUSH1 0x1F NOT AND ADD ADD SWAP1 JUMP JUMPDEST CALLDATALOAD SWAP1 PUSH1 0xFF DUP3 AND DUP3 SUB PUSH3 0x310 JUMPI JUMP JUMPDEST PUSH3 0x9C8 SWAP1 PUSH1 0x20 DUP2 MSTORE PUSH3 0x1C2B PUSH3 0x1D4A PUSH3 0x1C13 DUP6 DUP1 PUSH3 0x1B91 JUMP JUMPDEST SWAP3 SWAP1 PUSH2 0x140 SWAP4 DUP5 PUSH1 0x20 DUP8 ADD MSTORE PUSH2 0x160 DUP7 ADD SWAP2 PUSH3 0x1BC6 JUMP JUMPDEST PUSH3 0x1D42 PUSH3 0x1CFA PUSH3 0x1C5B PUSH3 0x1C46 PUSH1 0x20 DUP11 ADD DUP11 PUSH3 0x1B91 JUMP JUMPDEST PUSH1 0x1F NOT DUP10 DUP8 SUB DUP2 ADD PUSH1 0x40 DUP12 ADD MSTORE SWAP6 SWAP2 PUSH3 0x1BC6 JUMP JUMPDEST PUSH3 0x1C7D PUSH3 0x1C6D PUSH1 0x40 DUP12 ADD PUSH3 0x18F9 JUMP JUMPDEST PUSH1 0x1 PUSH1 0x1 PUSH1 0xA0 SHL SUB AND PUSH1 0x60 DUP10 ADD MSTORE JUMP JUMPDEST PUSH3 0x1C9C PUSH3 0x1C8F PUSH1 0x60 DUP12 ADD PUSH3 0xE8B JUMP JUMPDEST PUSH4 0xFFFFFFFF AND PUSH1 0x80 DUP10 ADD MSTORE JUMP JUMPDEST PUSH3 0x1CBE PUSH3 0x1CAE PUSH1 0x80 DUP12 ADD PUSH3 0x18F9 JUMP JUMPDEST PUSH1 0x1 PUSH1 0x1 PUSH1 0xA0 SHL SUB AND PUSH1 0xA0 DUP10 ADD MSTORE JUMP JUMPDEST PUSH3 0x1CDA PUSH3 0x1CD0 PUSH1 0xA0 DUP12 ADD PUSH3 0x1BE7 JUMP JUMPDEST PUSH1 0xFF AND PUSH1 0xC0 DUP10 ADD MSTORE JUMP JUMPDEST PUSH3 0x1CE9 PUSH1 0xC0 DUP11 ADD DUP11 PUSH3 0x1B91 JUMP JUMPDEST SWAP1 DUP6 DUP10 DUP5 SUB ADD PUSH1 0xE0 DUP11 ADD MSTORE PUSH3 0x1BC6 JUMP JUMPDEST PUSH3 0x1D2F PUSH3 0x1D25 PUSH3 0x1D11 PUSH1 0xE0 DUP12 ADD DUP12 PUSH3 0x1B91 JUMP JUMPDEST PUSH2 0x100 SWAP5 SWAP2 DUP8 DUP12 DUP5 SUB ADD DUP7 DUP13 ADD MSTORE PUSH3 0x1BC6 JUMP JUMPDEST SWAP2 DUP10 ADD DUP10 PUSH3 0x1B91 JUMP JUMPDEST SWAP1 PUSH2 0x120 SWAP5 DUP9 DUP5 SUB ADD DUP6 DUP10 ADD MSTORE PUSH3 0x1BC6 JUMP JUMPDEST SWAP6 ADD PUSH3 0x146A JUMP JUMPDEST PUSH12 0xFFFFFFFFFFFFFFFFFFFFFFFF AND SWAP2 ADD MSTORE JUMP JUMPDEST DUP2 DUP2 LT PUSH3 0x1D69 JUMPI POP POP JUMP JUMPDEST PUSH1 0x0 DUP2 SSTORE PUSH1 0x1 ADD PUSH3 0x1D5D JUMP JUMPDEST SWAP1 PUSH1 0x1F DUP3 GT PUSH3 0x1D84 JUMPI POP POP JUMP JUMPDEST PUSH3 0x815 SWAP2 PUSH1 0x4 PUSH1 0x0 MSTORE PUSH32 0x8A35ACFBC15FF81A39AE7D344FD709F28E8600B4AA8C65C6B64BFE7FE36BD19B SWAP1 PUSH1 0x20 PUSH1 0x1F DUP5 ADD PUSH1 0x5 SHR DUP4 ADD SWAP4 LT PUSH3 0x1DD1 JUMPI JUMPDEST PUSH1 0x1F ADD PUSH1 0x5 SHR ADD SWAP1 PUSH3 0x1D5D JUMP JUMPDEST SWAP1 SWAP2 POP DUP2 SWAP1 PUSH3 0x1DC3 JUMP JUMPDEST SWAP1 PUSH1 0x1F DUP3 GT PUSH3 0x1DEA JUMPI POP POP JUMP JUMPDEST PUSH3 0x815 SWAP2 PUSH1 0x2 PUSH1 0x0 MSTORE PUSH32 0x405787FA12A823E0F2B7631CC41B3BA8828B3321CA811111FA75CD3AA3BB5ACE SWAP1 PUSH1 0x20 PUSH1 0x1F DUP5 ADD PUSH1 0x5 SHR DUP4 ADD SWAP4 LT PUSH3 0x1DD1 JUMPI PUSH1 0x1F ADD PUSH1 0x5 SHR ADD SWAP1 PUSH3 0x1D5D JUMP JUMPDEST SWAP1 PUSH1 0x1F DUP3 GT PUSH3 0x1E44 JUMPI POP POP JUMP JUMPDEST PUSH3 0x815 SWAP2 PUSH1 0x5 PUSH1 0x0 MSTORE PUSH32 0x36B6384B5ECA791C62761152D0C79BB0604C104A5FB6F4EB0703F3154BB3DB0 SWAP1 PUSH1 0x20 PUSH1 0x1F DUP5 ADD PUSH1 0x5 SHR DUP4 ADD SWAP4 LT PUSH3 0x1DD1 JUMPI PUSH1 0x1F ADD PUSH1 0x5 SHR ADD SWAP1 PUSH3 0x1D5D JUMP JUMPDEST SWAP2 SWAP1 PUSH1 0x1F DUP2 GT PUSH3 0x1EA0 JUMPI POP POP POP JUMP JUMPDEST PUSH3 0x815 SWAP3 PUSH1 0x0 MSTORE PUSH1 0x20 PUSH1 0x0 KECCAK256 SWAP1 PUSH1 0x20 PUSH1 0x1F DUP5 ADD PUSH1 0x5 SHR DUP4 ADD SWAP4 LT PUSH3 0x1DD1 JUMPI PUSH1 0x1F ADD PUSH1 0x5 SHR ADD SWAP1 PUSH3 0x1D5D JUMP JUMPDEST PUSH4 0x4E487B71 PUSH1 0xE0 SHL PUSH1 0x0 MSTORE PUSH1 0x11 PUSH1 0x4 MSTORE PUSH1 0x24 PUSH1 0x0 REVERT JUMPDEST PUSH1 0x1F NOT DUP2 ADD SWAP2 SWAP1 DUP3 GT PUSH3 0x12E0 JUMPI JUMP JUMPDEST PUSH1 0xF SLOAD TIMESTAMP SUB TIMESTAMP DUP2 GT PUSH3 0x12E0 JUMPI PUSH1 0x7 SLOAD LT SWAP1 PUSH1 0x60 SWAP1 JUMP JUMPDEST ISZERO PUSH3 0x1F13 JUMPI JUMP JUMPDEST PUSH1 0x64 PUSH1 0x40 MLOAD PUSH3 0x461BCD PUSH1 0xE5 SHL DUP2 MSTORE PUSH1 0x20 PUSH1 0x4 DUP3 ADD MSTORE PUSH1 0x15 PUSH1 0x24 DUP3 ADD MSTORE PUSH32 0x55706B656570206E6F7420726567697374657265640000000000000000000000 PUSH1 0x44 DUP3 ADD MSTORE REVERT JUMPDEST PUSH1 0x40 MLOAD SWAP1 PUSH1 0x20 DUP3 ADD DUP3 DUP2 LT PUSH8 0xFFFFFFFFFFFFFFFF DUP3 GT OR PUSH3 0x38A JUMPI PUSH1 0x40 MSTORE PUSH1 0x0 DUP3 MSTORE JUMP JUMPDEST ISZERO PUSH3 0x1F84 JUMPI JUMP JUMPDEST PUSH1 0x64 PUSH1 0x40 MLOAD PUSH3 0x461BCD PUSH1 0xE5 SHL DUP2 MSTORE PUSH1 0x20 PUSH1 0x4 DUP3 ADD MSTORE PUSH1 0x15 PUSH1 0x24 DUP3 ADD MSTORE PUSH32 0x54696D6520696E74657276616C206E6F74206D65740000000000000000000000 PUSH1 0x44 DUP3 ADD MSTORE REVERT JUMPDEST SWAP1 PUSH1 0x1 DUP3 ADD DUP1 SWAP3 GT PUSH3 0x12E0 JUMPI JUMP JUMPDEST SWAP1 PUSH1 0x20 DUP3 ADD DUP1 SWAP3 GT PUSH3 0x12E0 JUMPI JUMP JUMPDEST SWAP2 SWAP1 DUP3 ADD DUP1 SWAP3 GT PUSH3 0x12E0 JUMPI JUMP JUMPDEST PUSH1 0x40 MLOAD SWAP1 PUSH1 0xE0 DUP3 ADD DUP3 DUP2 LT PUSH8 0xFFFFFFFFFFFFFFFF DUP3 GT OR PUSH3 0x38A JUMPI PUSH1 0x40 MSTORE PUSH1 0x60 PUSH1 0xC0 DUP4 PUSH1 0x0 DUP2 MSTORE PUSH1 0x0 PUSH1 0x20 DUP3 ADD MSTORE PUSH1 0x0 PUSH1 0x40 DUP3 ADD MSTORE DUP3 DUP1 DUP3 ADD MSTORE DUP3 PUSH1 0x80 DUP3 ADD MSTORE DUP3 PUSH1 0xA0 DUP3 ADD MSTORE ADD MSTORE JUMP JUMPDEST PUSH1 0x1E SLOAD SWAP1 PUSH8 0xFFFFFFFFFFFFFFFF DUP3 GT PUSH3 0x38A JUMPI PUSH1 0x40 MLOAD SWAP2 PUSH1 0x20 PUSH3 0x206A DUP2 DUP4 PUSH1 0x5 SHL ADD DUP6 PUSH3 0x3AD JUMP JUMPDEST DUP2 DUP5 MSTORE DUP1 DUP5 ADD SWAP1 PUSH1 0x1E PUSH1 0x0 MSTORE PUSH32 0x50BB669A95C7B50B7E8A6F09454034B2B14CF2B85C730DCA9A539CA82CB6E350 PUSH1 0x0 SWAP3 JUMPDEST DUP5 DUP5 LT PUSH3 0x20AA JUMPI POP POP POP POP POP JUMP JUMPDEST PUSH1 0x1 DUP4 DUP2 SWAP3 PUSH3 0x20BA DUP6 PUSH3 0x89E JUMP JUMPDEST DUP2 MSTORE ADD SWAP3 ADD SWAP4 ADD SWAP3 SWAP1 PUSH3 0x209B JUMP JUMPDEST SWAP1 PUSH3 0x20F9 PUSH1 0x80 SWAP4 PUSH8 0xFFFFFFFFFFFFFFFF PUSH4 0xFFFFFFFF SWAP4 SWAP9 SWAP8 SWAP7 SWAP9 AND DUP5 MSTORE PUSH1 0xA0 PUSH1 0x20 DUP6 ADD MSTORE PUSH1 0xA0 DUP5 ADD SWAP1 PUSH3 0x973 JUMP JUMPDEST SWAP6 PUSH1 0x1 PUSH1 0x40 DUP5 ADD MSTORE AND PUSH1 0x60 DUP3 ADD MSTORE ADD MSTORE JUMP JUMPDEST PUSH1 0x0 SWAP1 PUSH1 0x3 RETURNDATASIZE GT PUSH3 0x2119 JUMPI JUMP JUMPDEST SWAP1 POP PUSH1 0x4 PUSH1 0x0 DUP1 RETURNDATACOPY PUSH1 0x0 MLOAD PUSH1 0xE0 SHR SWAP1 JUMP JUMPDEST PUSH1 0x0 PUSH1 0x44 RETURNDATASIZE LT PUSH3 0x9C8 JUMPI PUSH1 0x40 MLOAD PUSH1 0x3 NOT SWAP2 RETURNDATASIZE DUP4 ADD PUSH1 0x4 DUP4 RETURNDATACOPY DUP2 MLOAD PUSH8 0xFFFFFFFFFFFFFFFF SWAP2 DUP3 DUP3 GT RETURNDATASIZE PUSH1 0x24 DUP5 ADD GT OR PUSH3 0x218E JUMPI DUP2 DUP5 ADD SWAP5 DUP6 MLOAD SWAP4 DUP5 GT PUSH3 0x2196 JUMPI RETURNDATASIZE DUP6 ADD ADD PUSH1 0x20 DUP5 DUP8 ADD ADD GT PUSH3 0x218E JUMPI POP PUSH3 0x9C8 SWAP3 SWAP2 ADD PUSH1 0x20 ADD SWAP1 PUSH3 0x3AD JUMP JUMPDEST SWAP5 SWAP4 POP POP POP POP JUMP JUMPDEST POP SWAP5 SWAP4 POP POP POP POP JUMP JUMPDEST RETURNDATASIZE ISZERO PUSH3 0x21CF JUMPI RETURNDATASIZE SWAP1 PUSH3 0x21B3 DUP3 PUSH3 0x3D0 JUMP JUMPDEST SWAP2 PUSH3 0x21C3 PUSH1 0x40 MLOAD SWAP4 DUP5 PUSH3 0x3AD JUMP JUMPDEST DUP3 MSTORE RETURNDATASIZE PUSH1 0x0 PUSH1 0x20 DUP5 ADD RETURNDATACOPY JUMP JUMPDEST PUSH1 0x60 SWAP1 JUMP JUMPDEST SWAP1 PUSH8 0xFFFFFFFFFFFFFFFF SWAP1 SWAP5 SWAP4 SWAP3 SWAP5 AND DUP2 MSTORE PUSH1 0x20 SWAP4 PUSH1 0xA0 DUP6 DUP4 ADD MSTORE PUSH1 0x0 PUSH1 0x2 SLOAD SWAP6 PUSH3 0x2200 DUP8 PUSH3 0x797 JUMP JUMPDEST SWAP1 DUP2 PUSH1 0xA0 DUP7 ADD MSTORE PUSH1 0x1 SWAP8 DUP9 DUP2 AND SWAP1 DUP2 PUSH1 0x0 EQ PUSH3 0x229B JUMPI POP PUSH1 0x1 EQ PUSH3 0x223C JUMPI JUMPDEST POP POP PUSH1 0x40 DUP4 ADD SWAP6 SWAP1 SWAP6 MSTORE PUSH4 0xFFFFFFFF AND PUSH1 0x60 DUP3 ADD MSTORE PUSH1 0x80 ADD MSTORE JUMP JUMPDEST PUSH1 0x2 PUSH1 0x0 SWAP1 DUP2 MSTORE SWAP3 POP DUP8 PUSH32 0x405787FA12A823E0F2B7631CC41B3BA8828B3321CA811111FA75CD3AA3BB5ACE JUMPDEST DUP4 DUP6 LT PUSH3 0x2285 JUMPI POP POP POP POP DUP3 ADD PUSH1 0xC0 ADD DUP2 PUSH4 0xFFFFFFFF PUSH3 0x2221 JUMP JUMPDEST DUP1 SLOAD DUP8 DUP7 ADD PUSH1 0xC0 ADD MSTORE SWAP4 DUP3 ADD SWAP4 DUP10 SWAP2 ADD PUSH3 0x2268 JUMP JUMPDEST PUSH1 0xFF NOT AND PUSH1 0xC0 DUP8 DUP2 ADD SWAP2 SWAP1 SWAP2 MSTORE SWAP3 ISZERO ISZERO PUSH1 0x5 SHL DUP7 ADD SWAP1 SWAP3 ADD SWAP3 POP DUP4 SWAP2 POP PUSH4 0xFFFFFFFF SWAP1 POP PUSH3 0x2221 JUMP JUMPDEST PUSH3 0x22D4 PUSH1 0xB SLOAD ISZERO ISZERO PUSH3 0x1F0B JUMP JUMPDEST PUSH3 0x22DE PUSH3 0x1F57 JUMP JUMPDEST POP PUSH3 0x22F4 PUSH3 0x22ED PUSH3 0x1EF4 JUMP JUMPDEST POP PUSH3 0x1F7C JUMP JUMPDEST PUSH3 0x22FE TIMESTAMP PUSH1 0xF SSTORE JUMP JUMPDEST PUSH3 0x2314 PUSH3 0x230F PUSH1 0x10 SLOAD PUSH3 0x1FC8 JUMP JUMPDEST PUSH1 0x10 SSTORE JUMP JUMPDEST PUSH1 0x1D SLOAD PUSH1 0x1E SLOAD LT ISZERO PUSH3 0x24D3 JUMPI PUSH3 0x2337 PUSH3 0x2332 PUSH1 0x15 SLOAD PUSH3 0x1FC8 JUMP JUMPDEST PUSH1 0x15 SSTORE JUMP JUMPDEST PUSH1 0x6 SLOAD PUSH8 0xFFFFFFFFFFFFFFFF AND PUSH1 0x20 PUSH3 0x2356 PUSH1 0xD SLOAD PUSH4 0xFFFFFFFF AND SWAP1 JUMP JUMPDEST PUSH1 0xE SLOAD SWAP3 PUSH3 0x237A PUSH1 0x40 MLOAD SWAP5 DUP6 SWAP4 DUP5 SWAP4 PUSH4 0x230E93B1 PUSH1 0xE1 SHL DUP6 MSTORE PUSH1 0x4 DUP6 ADD PUSH3 0x21D4 JUMP JUMPDEST SUB DUP2 PUSH1 0x0 PUSH1 0x1 PUSH1 0x1 PUSH1 0xA0 SHL SUB PUSH32 0x0 AND GAS CALL PUSH1 0x0 SWAP2 DUP2 PUSH3 0x24AE JUMPI JUMPDEST POP PUSH3 0x2467 JUMPI POP PUSH1 0x1 PUSH3 0x23C7 PUSH3 0x210B JUMP JUMPDEST PUSH4 0x8C379A0 EQ PUSH3 0x240E JUMPI JUMPDEST PUSH3 0x23DA JUMPI JUMP JUMPDEST PUSH32 0x9C4BFA18304482256875C29FABB1A44A5ECD325F214EA17BAB8F31E869FAF4C8 PUSH3 0x2409 PUSH3 0xABA PUSH3 0x219F JUMP JUMPDEST SUB SWAP1 LOG1 JUMP JUMPDEST PUSH3 0x2418 PUSH3 0x212A JUMP JUMPDEST DUP1 PUSH3 0x2426 JUMPI JUMPDEST POP PUSH3 0x23D3 JUMP JUMPDEST SWAP1 POP PUSH32 0x2BA61E3733E7AC99181C22307780F651EC8FD92FE661A84DFBE711710B2DC36C PUSH3 0x245D PUSH1 0x0 SWAP3 PUSH1 0x40 MLOAD SWAP2 DUP3 SWAP2 DUP3 PUSH3 0x9B5 JUMP JUMPDEST SUB SWAP1 LOG1 CODESIZE PUSH3 0x241F JUMP JUMPDEST PUSH3 0x2471 DUP2 PUSH1 0x12 SSTORE JUMP JUMPDEST PUSH3 0x2487 PUSH3 0x2482 PUSH1 0x16 SLOAD PUSH3 0x1FC8 JUMP JUMPDEST PUSH1 0x16 SSTORE JUMP JUMPDEST PUSH32 0x1131472297A800FEE664D1D89CFA8F7676FF07189ECC53F80BBB5F4969099DB8 PUSH1 0x0 DUP1 LOG2 JUMP JUMPDEST PUSH3 0x24CB SWAP2 SWAP3 POP PUSH1 0x20 RETURNDATASIZE DUP2 GT PUSH3 0xD4E JUMPI PUSH3 0xD3E DUP2 DUP4 PUSH3 0x3AD JUMP JUMPDEST SWAP1 CODESIZE PUSH3 0x23B4 JUMP JUMPDEST PUSH3 0x24E6 PUSH1 0x1 PUSH1 0xFF NOT PUSH1 0x18 SLOAD AND OR PUSH1 0x18 SSTORE JUMP JUMPDEST PUSH3 0x2524 PUSH3 0x24F4 PUSH3 0x1FF4 JUMP JUMPDEST PUSH3 0x2509 PUSH3 0x2502 PUSH3 0x7D4 JUMP JUMPDEST DUP3 PUSH3 0x2B90 JUMP JUMPDEST PUSH3 0x251E PUSH3 0x2517 PUSH3 0x203F JUMP JUMPDEST DUP3 PUSH3 0x2BD2 JUMP JUMPDEST PUSH3 0x2953 JUMP JUMPDEST PUSH3 0x2535 PUSH3 0x2332 PUSH1 0x15 SLOAD PUSH3 0x1FC8 JUMP JUMPDEST PUSH1 0x6 SLOAD PUSH8 0xFFFFFFFFFFFFFFFF AND PUSH3 0x2574 PUSH3 0x2556 PUSH1 0xD SLOAD PUSH4 0xFFFFFFFF AND SWAP1 JUMP JUMPDEST PUSH1 0xE SLOAD SWAP1 PUSH1 0x40 MLOAD SWAP5 DUP6 SWAP5 PUSH4 0x230E93B1 PUSH1 0xE1 SHL DUP7 MSTORE PUSH1 0x4 DUP7 ADD PUSH3 0x20C9 JUMP JUMPDEST SUB PUSH1 0x0 SWAP2 PUSH1 0x20 DUP2 PUSH1 0x1 PUSH1 0x1 PUSH1 0xA0 SHL SUB SWAP4 DUP2 DUP7 DUP7 PUSH32 0x0 AND GAS CALL DUP4 SWAP2 DUP2 PUSH3 0x273A JUMPI JUMPDEST POP PUSH3 0x26F5 JUMPI POP PUSH1 0x1 PUSH3 0x25C7 PUSH3 0x210B JUMP JUMPDEST PUSH4 0x8C379A0 EQ PUSH3 0x269D JUMPI JUMPDEST PUSH3 0x2665 JUMPI JUMPDEST PUSH32 0x0 AND PUSH1 0xB SLOAD DUP2 EXTCODESIZE ISZERO PUSH3 0x2661 JUMPI PUSH1 0x40 MLOAD PUSH32 0x8765ECBE00000000000000000000000000000000000000000000000000000000 DUP2 MSTORE PUSH1 0x4 DUP2 ADD SWAP2 SWAP1 SWAP2 MSTORE SWAP2 SWAP1 DUP3 SWAP1 PUSH1 0x24 SWAP1 DUP3 SWAP1 DUP5 SWAP1 GAS CALL DUP1 ISZERO PUSH3 0xD56 JUMPI PUSH3 0x2651 JUMPI JUMPDEST POP JUMP JUMPDEST DUP1 PUSH3 0x16C9 PUSH3 0x815 SWAP3 PUSH3 0x375 JUMP JUMPDEST DUP3 DUP1 REVERT JUMPDEST PUSH32 0x9C4BFA18304482256875C29FABB1A44A5ECD325F214EA17BAB8F31E869FAF4C8 PUSH3 0x2694 PUSH3 0xABA PUSH3 0x219F JUMP JUMPDEST SUB SWAP1 LOG1 PUSH3 0x25D9 JUMP JUMPDEST PUSH3 0x26A7 PUSH3 0x212A JUMP JUMPDEST DUP1 PUSH3 0x26B5 JUMPI JUMPDEST POP PUSH3 0x25D3 JUMP JUMPDEST SWAP1 POP PUSH32 0x2BA61E3733E7AC99181C22307780F651EC8FD92FE661A84DFBE711710B2DC36C PUSH3 0x26EB DUP5 SWAP3 PUSH1 0x40 MLOAD SWAP2 DUP3 SWAP2 DUP3 PUSH3 0x9B5 JUMP JUMPDEST SUB SWAP1 LOG1 CODESIZE PUSH3 0x26AE JUMP JUMPDEST PUSH3 0x26FF DUP2 PUSH1 0x12 SSTORE JUMP JUMPDEST PUSH3 0x2710 PUSH3 0x2482 PUSH1 0x16 SLOAD PUSH3 0x1FC8 JUMP JUMPDEST PUSH32 0x1131472297A800FEE664D1D89CFA8F7676FF07189ECC53F80BBB5F4969099DB8 DUP4 DUP1 LOG2 PUSH3 0x25D9 JUMP JUMPDEST PUSH3 0x2757 SWAP2 SWAP3 POP PUSH1 0x20 RETURNDATASIZE DUP2 GT PUSH3 0xD4E JUMPI PUSH3 0xD3E DUP2 DUP4 PUSH3 0x3AD JUMP JUMPDEST SWAP1 CODESIZE PUSH3 0x25B4 JUMP JUMPDEST PUSH1 0x40 MLOAD SWAP1 PUSH3 0x276E DUP3 PUSH3 0x390 JUMP JUMPDEST PUSH1 0xC DUP3 MSTORE PUSH32 0x636F64654C6F636174696F6E0000000000000000000000000000000000000000 PUSH1 0x20 DUP4 ADD MSTORE JUMP JUMPDEST PUSH4 0x4E487B71 PUSH1 0xE0 SHL PUSH1 0x0 MSTORE PUSH1 0x21 PUSH1 0x4 MSTORE PUSH1 0x24 PUSH1 0x0 REVERT JUMPDEST PUSH1 0x3 GT ISZERO PUSH3 0x27BB JUMPI JUMP JUMPDEST PUSH3 0x279A JUMP JUMPDEST PUSH1 0x40 MLOAD SWAP1 PUSH3 0x27D0 DUP3 PUSH3 0x390 JUMP JUMPDEST PUSH1 0x8 DUP3 MSTORE PUSH32 0x6C616E6775616765000000000000000000000000000000000000000000000000 PUSH1 0x20 DUP4 ADD MSTORE JUMP JUMPDEST PUSH1 0x1 GT ISZERO PUSH3 0x27BB JUMPI JUMP JUMPDEST PUSH1 0x40 MLOAD SWAP1 PUSH3 0x2816 DUP3 PUSH3 0x390 JUMP JUMPDEST PUSH1 0x6 DUP3 MSTORE PUSH32 0x736F757263650000000000000000000000000000000000000000000000000000 PUSH1 0x20 DUP4 ADD MSTORE JUMP JUMPDEST PUSH1 0x40 MLOAD SWAP1 PUSH3 0x2851 DUP3 PUSH3 0x390 JUMP JUMPDEST PUSH1 0x4 DUP3 MSTORE PUSH32 0x6172677300000000000000000000000000000000000000000000000000000000 PUSH1 0x20 DUP4 ADD MSTORE JUMP JUMPDEST PUSH1 0x0 NOT DUP2 EQ PUSH3 0x12E0 JUMPI PUSH1 0x1 ADD SWAP1 JUMP JUMPDEST DUP1 MLOAD DUP3 LT ISZERO PUSH3 0x77B JUMPI PUSH1 0x20 SWAP2 PUSH1 0x5 SHL ADD ADD SWAP1 JUMP JUMPDEST PUSH1 0x40 MLOAD SWAP1 PUSH3 0x28B1 DUP3 PUSH3 0x390 JUMP JUMPDEST PUSH1 0xF DUP3 MSTORE PUSH32 0x736563726574734C6F636174696F6E0000000000000000000000000000000000 PUSH1 0x20 DUP4 ADD MSTORE JUMP JUMPDEST PUSH1 0x40 MLOAD SWAP1 PUSH3 0x28EC DUP3 PUSH3 0x390 JUMP JUMPDEST PUSH1 0x7 DUP3 MSTORE PUSH32 0x7365637265747300000000000000000000000000000000000000000000000000 PUSH1 0x20 DUP4 ADD MSTORE JUMP JUMPDEST PUSH1 0x40 MLOAD SWAP1 PUSH3 0x2927 DUP3 PUSH3 0x390 JUMP JUMPDEST PUSH1 0x9 DUP3 MSTORE PUSH32 0x6279746573417267730000000000000000000000000000000000000000000000 PUSH1 0x20 DUP4 ADD MSTORE JUMP JUMPDEST PUSH3 0x295D PUSH3 0x2C26 JUMP JUMPDEST SWAP1 PUSH3 0x2973 PUSH3 0x296C PUSH3 0x275F JUMP JUMPDEST DUP4 PUSH3 0x3418 JUMP JUMPDEST PUSH3 0x2996 DUP2 MLOAD PUSH3 0x2984 DUP2 PUSH3 0x27B0 JUMP JUMPDEST PUSH3 0x298F DUP2 PUSH3 0x27B0 JUMP JUMPDEST DUP4 PUSH3 0x2CD6 JUMP JUMPDEST PUSH3 0x29A4 PUSH3 0x296C PUSH3 0x27C1 JUMP JUMPDEST PUSH3 0x29C3 PUSH1 0x40 DUP3 ADD MLOAD PUSH3 0x29B8 DUP2 PUSH3 0x27FC JUMP JUMPDEST PUSH3 0x298F DUP2 PUSH3 0x27FC JUMP JUMPDEST PUSH3 0x29D1 PUSH3 0x296C PUSH3 0x2807 JUMP JUMPDEST PUSH3 0x29E1 PUSH1 0x60 DUP3 ADD MLOAD DUP4 PUSH3 0x3418 JUMP JUMPDEST PUSH1 0xA0 DUP2 ADD DUP1 MLOAD MLOAD PUSH3 0x2B27 JUMPI JUMPDEST POP PUSH1 0x80 DUP2 ADD SWAP1 DUP2 MLOAD MLOAD PUSH3 0x2A79 JUMPI JUMPDEST PUSH1 0xC0 SWAP2 POP ADD DUP1 MLOAD MLOAD PUSH3 0x2A11 JUMPI JUMPDEST POP MLOAD MLOAD SWAP1 JUMP JUMPDEST SWAP2 PUSH3 0x2A20 PUSH3 0x296C PUSH3 0x2918 JUMP JUMPDEST PUSH3 0x2A2B DUP3 PUSH3 0x34B0 JUMP JUMPDEST PUSH1 0x0 JUMPDEST DUP4 MLOAD DUP1 MLOAD DUP3 LT ISZERO PUSH3 0x2A63 JUMPI SWAP1 PUSH3 0x2A57 PUSH3 0x2A4F DUP3 PUSH3 0x2A5D SWAP5 PUSH3 0x288D JUMP JUMPDEST MLOAD DUP6 PUSH3 0x334C JUMP JUMPDEST PUSH3 0x287D JUMP JUMPDEST PUSH3 0x2A2E JUMP JUMPDEST POP POP SWAP2 POP PUSH3 0x2A72 DUP2 PUSH3 0x3548 JUMP JUMPDEST CODESIZE PUSH3 0x2A0B JUMP JUMPDEST PUSH1 0x20 DUP2 ADD DUP1 MLOAD PUSH3 0x2A8A DUP2 PUSH3 0x27B0 JUMP JUMPDEST PUSH3 0x2A95 DUP2 PUSH3 0x27B0 JUMP JUMPDEST ISZERO PUSH3 0x2AFD JUMPI PUSH1 0xC0 SWAP3 PUSH3 0x2ADA PUSH3 0x2AF7 SWAP3 PUSH3 0x2ABC PUSH3 0x2AB5 PUSH3 0x28A2 JUMP JUMPDEST DUP9 PUSH3 0x3418 JUMP JUMPDEST MLOAD PUSH3 0x2AC8 DUP2 PUSH3 0x27B0 JUMP JUMPDEST PUSH3 0x2AD3 DUP2 PUSH3 0x27B0 JUMP JUMPDEST DUP7 PUSH3 0x2CD6 JUMP JUMPDEST PUSH3 0x2AEF PUSH3 0x2AE8 PUSH3 0x28DD JUMP JUMPDEST DUP7 PUSH3 0x3418 JUMP JUMPDEST MLOAD DUP5 PUSH3 0x334C JUMP JUMPDEST PUSH3 0x29FD JUMP JUMPDEST PUSH1 0x4 PUSH1 0x40 MLOAD PUSH32 0xA80D31F700000000000000000000000000000000000000000000000000000000 DUP2 MSTORE REVERT JUMPDEST SWAP3 PUSH3 0x2B3D PUSH3 0x2B36 PUSH3 0x2842 JUMP JUMPDEST DUP5 PUSH3 0x3418 JUMP JUMPDEST PUSH3 0x2B48 DUP4 PUSH3 0x34B0 JUMP JUMPDEST PUSH1 0x0 JUMPDEST DUP5 MLOAD DUP1 MLOAD DUP3 LT ISZERO PUSH3 0x2B7A JUMPI SWAP1 PUSH3 0x2A57 PUSH3 0x2B6C DUP3 PUSH3 0x2B74 SWAP5 PUSH3 0x288D JUMP JUMPDEST MLOAD DUP7 PUSH3 0x3418 JUMP JUMPDEST PUSH3 0x2B4B JUMP JUMPDEST POP POP SWAP3 POP PUSH3 0x2B89 DUP3 PUSH3 0x3548 JUMP JUMPDEST CODESIZE PUSH3 0x29EE JUMP JUMPDEST DUP2 MLOAD ISZERO PUSH3 0x2BA8 JUMPI PUSH1 0x0 DUP1 DUP3 MSTORE PUSH1 0x40 DUP3 ADD MSTORE PUSH1 0x60 ADD MSTORE JUMP JUMPDEST PUSH1 0x4 PUSH1 0x40 MLOAD PUSH32 0x22CE3EDD00000000000000000000000000000000000000000000000000000000 DUP2 MSTORE REVERT JUMPDEST DUP2 MLOAD ISZERO PUSH3 0x2BE0 JUMPI PUSH1 0xA0 ADD MSTORE JUMP JUMPDEST PUSH1 0x4 PUSH1 0x40 MLOAD PUSH32 0xFE936CB700000000000000000000000000000000000000000000000000000000 DUP2 MSTORE REVERT JUMPDEST PUSH1 0x40 MLOAD SWAP1 PUSH3 0x2C19 DUP3 PUSH3 0x390 JUMP JUMPDEST PUSH1 0x0 PUSH1 0x20 DUP4 PUSH1 0x60 DUP2 MSTORE ADD MSTORE JUMP JUMPDEST PUSH1 0x40 MLOAD PUSH3 0x2C34 DUP2 PUSH3 0x390 JUMP JUMPDEST PUSH3 0x2C3E PUSH3 0x2C0A JUMP JUMPDEST DUP1 DUP3 MSTORE PUSH1 0x20 DUP3 ADD PUSH1 0x0 DUP2 MSTORE PUSH3 0x2C53 PUSH3 0x2C0A JUMP JUMPDEST POP PUSH2 0x100 PUSH1 0x20 DUP4 ADD MSTORE PUSH1 0x40 MLOAD DUP1 SWAP3 MSTORE PUSH1 0x0 DUP3 MSTORE PUSH2 0x120 DUP3 ADD SWAP2 DUP3 LT PUSH3 0x310 JUMPI PUSH1 0x0 SWAP2 PUSH1 0x40 MSTORE MSTORE SWAP1 JUMP JUMPDEST SWAP1 PUSH3 0x2C88 PUSH3 0x2C0A JUMP JUMPDEST POP PUSH1 0x1F DUP2 AND DUP1 PUSH3 0x2CB9 JUMPI JUMPDEST POP DUP1 PUSH1 0x20 DUP4 ADD MSTORE PUSH1 0x40 MLOAD SWAP1 DUP2 DUP4 MSTORE PUSH1 0x0 DUP3 MSTORE DUP2 ADD PUSH1 0x20 ADD SWAP1 DUP2 LT PUSH3 0x310 JUMPI PUSH1 0x40 MSTORE SWAP1 JUMP JUMPDEST PUSH1 0x20 SUB PUSH1 0x20 DUP2 GT PUSH3 0x12E0 JUMPI DUP2 ADD DUP1 SWAP2 GT PUSH3 0x12E0 JUMPI CODESIZE PUSH3 0x2C94 JUMP JUMPDEST SWAP1 DUP2 MLOAD SWAP2 PUSH3 0x2CE4 PUSH3 0x2C0A JUMP JUMPDEST POP DUP3 MLOAD MLOAD PUSH1 0x1 DUP2 ADD SWAP1 DUP2 DUP2 GT PUSH3 0x12E0 JUMPI PUSH1 0x20 DUP6 ADD MLOAD DUP2 LT ISZERO PUSH3 0x2D45 JUMPI JUMPDEST PUSH1 0xC2 PUSH1 0x20 PUSH3 0x815 SWAP7 MLOAD SWAP3 DUP4 ADD ADD MSTORE8 DUP1 MLOAD DUP3 GT PUSH3 0x2D3C JUMPI JUMPDEST POP POP PUSH1 0x40 MLOAD SWAP2 PUSH1 0x20 DUP4 ADD MSTORE PUSH1 0x20 DUP3 MSTORE PUSH3 0x2D36 DUP3 PUSH3 0x390 JUMP JUMPDEST PUSH3 0x334C JUMP JUMPDEST MSTORE CODESIZE DUP1 PUSH3 0x2D1C JUMP JUMPDEST DUP2 PUSH1 0x1 SHL SWAP5 DUP3 DUP7 DIV PUSH1 0x2 EQ DUP4 ISZERO OR ISZERO PUSH3 0x12E0 JUMPI PUSH1 0x20 DUP2 PUSH3 0x2D7D PUSH3 0x815 SWAP9 PUSH3 0x2D75 PUSH1 0xC2 SWAP6 MLOAD SWAP2 DUP5 PUSH3 0x2C7D JUMP JUMPDEST POP DUP3 PUSH3 0x327D JUMP JUMPDEST POP SWAP7 POP POP POP PUSH3 0x2D03 JUMP JUMPDEST SWAP1 DUP2 PUSH1 0x1 SHL SWAP2 DUP1 DUP4 DIV PUSH1 0x2 EQ SWAP1 ISZERO OR ISZERO PUSH3 0x12E0 JUMPI JUMP JUMPDEST PUSH3 0x2DA9 PUSH3 0x2C0A JUMP JUMPDEST POP DUP1 MLOAD MLOAD PUSH1 0x1 DUP2 ADD SWAP1 DUP2 DUP2 GT PUSH3 0x12E0 JUMPI PUSH1 0x20 DUP4 ADD MLOAD DUP2 LT ISZERO PUSH3 0x2DE5 JUMPI JUMPDEST PUSH1 0x5B PUSH1 0x20 DUP5 MLOAD SWAP3 DUP4 ADD ADD MSTORE8 DUP1 MLOAD DUP3 GT PUSH3 0x2DE1 JUMPI POP POP SWAP1 JUMP JUMPDEST MSTORE SWAP1 JUMP JUMPDEST DUP2 PUSH1 0x1 SHL DUP3 DUP2 DIV PUSH1 0x2 EQ DUP4 ISZERO OR ISZERO PUSH3 0x12E0 JUMPI PUSH3 0x2E13 SWAP1 PUSH3 0x2E0B DUP6 MLOAD SWAP2 DUP7 PUSH3 0x2C7D JUMP JUMPDEST POP DUP5 PUSH3 0x327D JUMP JUMPDEST POP PUSH3 0x2DC8 JUMP JUMPDEST PUSH3 0x2E24 PUSH3 0x2C0A JUMP JUMPDEST POP DUP1 MLOAD MLOAD PUSH1 0x1 DUP2 ADD SWAP1 DUP2 DUP2 GT PUSH3 0x12E0 JUMPI PUSH1 0x20 DUP4 ADD MLOAD DUP2 LT ISZERO PUSH3 0x2E5C JUMPI JUMPDEST PUSH1 0x5A PUSH1 0x20 DUP5 MLOAD SWAP3 DUP4 ADD ADD MSTORE8 DUP1 MLOAD DUP3 GT PUSH3 0x2DE1 JUMPI POP POP SWAP1 JUMP JUMPDEST DUP2 PUSH1 0x1 SHL DUP3 DUP2 DIV PUSH1 0x2 EQ DUP4 ISZERO OR ISZERO PUSH3 0x12E0 JUMPI PUSH3 0x2E82 SWAP1 PUSH3 0x2E0B DUP6 MLOAD SWAP2 DUP7 PUSH3 0x2C7D JUMP JUMPDEST POP PUSH3 0x2E43 JUMP JUMPDEST PUSH3 0x2E93 PUSH3 0x2C0A JUMP JUMPDEST POP DUP1 MLOAD MLOAD PUSH1 0x1 DUP2 ADD SWAP1 DUP2 DUP2 GT PUSH3 0x12E0 JUMPI PUSH1 0x20 DUP4 ADD MLOAD DUP2 LT ISZERO PUSH3 0x2ECB JUMPI JUMPDEST PUSH1 0x59 PUSH1 0x20 DUP5 MLOAD SWAP3 DUP4 ADD ADD MSTORE8 DUP1 MLOAD DUP3 GT PUSH3 0x2DE1 JUMPI POP POP SWAP1 JUMP JUMPDEST DUP2 PUSH1 0x1 SHL DUP3 DUP2 DIV PUSH1 0x2 EQ DUP4 ISZERO OR ISZERO PUSH3 0x12E0 JUMPI PUSH3 0x2EF1 SWAP1 PUSH3 0x2E0B DUP6 MLOAD SWAP2 DUP7 PUSH3 0x2C7D JUMP JUMPDEST POP PUSH3 0x2EB2 JUMP JUMPDEST PUSH3 0x2F02 PUSH3 0x2C0A JUMP JUMPDEST POP DUP1 MLOAD MLOAD PUSH1 0x1 DUP2 ADD SWAP1 DUP2 DUP2 GT PUSH3 0x12E0 JUMPI PUSH1 0x20 DUP4 ADD MLOAD DUP2 LT ISZERO PUSH3 0x2F3A JUMPI JUMPDEST PUSH1 0x58 PUSH1 0x20 DUP5 MLOAD SWAP3 DUP4 ADD ADD MSTORE8 DUP1 MLOAD DUP3 GT PUSH3 0x2DE1 JUMPI POP POP SWAP1 JUMP JUMPDEST DUP2 PUSH1 0x1 SHL DUP3 DUP2 DIV PUSH1 0x2 EQ DUP4 ISZERO OR ISZERO PUSH3 0x12E0 JUMPI PUSH3 0x2F60 SWAP1 PUSH3 0x2E0B DUP6 MLOAD SWAP2 DUP7 PUSH3 0x2C7D JUMP JUMPDEST POP PUSH3 0x2F21 JUMP JUMPDEST PUSH3 0x2F71 PUSH3 0x2C0A JUMP JUMPDEST POP DUP1 MLOAD MLOAD PUSH1 0x1 DUP2 ADD SWAP1 DUP2 DUP2 GT PUSH3 0x12E0 JUMPI PUSH1 0x20 DUP4 ADD MLOAD DUP2 LT ISZERO PUSH3 0x2FA9 JUMPI JUMPDEST PUSH1 0x7B PUSH1 0x20 DUP5 MLOAD SWAP3 DUP4 ADD ADD MSTORE8 DUP1 MLOAD DUP3 GT PUSH3 0x2DE1 JUMPI POP POP SWAP1 JUMP JUMPDEST DUP2 PUSH1 0x1 SHL DUP3 DUP2 DIV PUSH1 0x2 EQ DUP4 ISZERO OR ISZERO PUSH3 0x12E0 JUMPI PUSH3 0x2FCF SWAP1 PUSH3 0x2E0B DUP6 MLOAD SWAP2 DUP7 PUSH3 0x2C7D JUMP JUMPDEST POP PUSH3 0x2F90 JUMP JUMPDEST PUSH3 0x2FE0 PUSH3 0x2C0A JUMP JUMPDEST POP DUP1 MLOAD MLOAD PUSH1 0x1 DUP2 ADD SWAP1 DUP2 DUP2 GT PUSH3 0x12E0 JUMPI PUSH1 0x20 DUP4 ADD MLOAD DUP2 LT ISZERO PUSH3 0x3018 JUMPI JUMPDEST PUSH1 0x7A PUSH1 0x20 DUP5 MLOAD SWAP3 DUP4 ADD ADD MSTORE8 DUP1 MLOAD DUP3 GT PUSH3 0x2DE1 JUMPI POP POP SWAP1 JUMP JUMPDEST DUP2 PUSH1 0x1 SHL DUP3 DUP2 DIV PUSH1 0x2 EQ DUP4 ISZERO OR ISZERO PUSH3 0x12E0 JUMPI PUSH3 0x303E SWAP1 PUSH3 0x2E0B DUP6 MLOAD SWAP2 DUP7 PUSH3 0x2C7D JUMP JUMPDEST POP PUSH3 0x2FFF JUMP JUMPDEST PUSH3 0x304F PUSH3 0x2C0A JUMP JUMPDEST POP DUP1 MLOAD MLOAD PUSH1 0x1 DUP2 ADD SWAP1 DUP2 DUP2 GT PUSH3 0x12E0 JUMPI PUSH1 0x20 DUP4 ADD MLOAD DUP2 LT ISZERO PUSH3 0x3087 JUMPI JUMPDEST PUSH1 0x79 PUSH1 0x20 DUP5 MLOAD SWAP3 DUP4 ADD ADD MSTORE8 DUP1 MLOAD DUP3 GT PUSH3 0x2DE1 JUMPI POP POP SWAP1 JUMP JUMPDEST DUP2 PUSH1 0x1 SHL DUP3 DUP2 DIV PUSH1 0x2 EQ DUP4 ISZERO OR ISZERO PUSH3 0x12E0 JUMPI PUSH3 0x30AD SWAP1 PUSH3 0x2E0B DUP6 MLOAD SWAP2 DUP7 PUSH3 0x2C7D JUMP JUMPDEST POP PUSH3 0x306E JUMP JUMPDEST PUSH3 0x30BE PUSH3 0x2C0A JUMP JUMPDEST POP DUP1 MLOAD MLOAD PUSH1 0x1 DUP2 ADD SWAP1 DUP2 DUP2 GT PUSH3 0x12E0 JUMPI PUSH1 0x20 DUP4 ADD MLOAD DUP2 LT ISZERO PUSH3 0x30F6 JUMPI JUMPDEST PUSH1 0x78 PUSH1 0x20 DUP5 MLOAD SWAP3 DUP4 ADD ADD MSTORE8 DUP1 MLOAD DUP3 GT PUSH3 0x2DE1 JUMPI POP POP SWAP1 JUMP JUMPDEST DUP2 PUSH1 0x1 SHL DUP3 DUP2 DIV PUSH1 0x2 EQ DUP4 ISZERO OR ISZERO PUSH3 0x12E0 JUMPI PUSH3 0x311C SWAP1 PUSH3 0x2E0B DUP6 MLOAD SWAP2 DUP7 PUSH3 0x2C7D JUMP JUMPDEST POP PUSH3 0x30DD JUMP JUMPDEST SWAP1 PUSH3 0x312E PUSH3 0x2C0A JUMP JUMPDEST POP DUP2 MLOAD MLOAD PUSH1 0x1 DUP2 ADD SWAP2 DUP3 DUP3 GT PUSH3 0x12E0 JUMPI PUSH1 0x20 DUP5 ADD MLOAD DUP3 LT ISZERO PUSH3 0x3164 JUMPI JUMPDEST PUSH1 0x20 DUP5 MLOAD SWAP3 DUP4 ADD ADD MSTORE8 DUP1 MLOAD DUP3 GT PUSH3 0x2DE1 JUMPI POP POP SWAP1 JUMP JUMPDEST DUP3 PUSH1 0x1 SHL DUP4 DUP2 DIV PUSH1 0x2 EQ DUP5 ISZERO OR ISZERO PUSH3 0x12E0 JUMPI PUSH3 0x3192 SWAP1 PUSH3 0x318A DUP7 MLOAD SWAP2 DUP8 PUSH3 0x2C7D JUMP JUMPDEST POP DUP6 PUSH3 0x327D JUMP JUMPDEST POP PUSH3 0x314D JUMP JUMPDEST SWAP1 PUSH3 0x31A8 DUP3 MLOAD SWAP2 DUP4 PUSH3 0x2C7D JUMP JUMPDEST POP PUSH3 0x31B3 PUSH3 0x2C0A JUMP JUMPDEST POP DUP1 MLOAD SWAP1 PUSH3 0x31C1 PUSH3 0x2C0A JUMP JUMPDEST POP PUSH3 0x31D1 DUP2 MLOAD DUP4 GT ISZERO PUSH3 0x3344 JUMP JUMPDEST DUP3 MLOAD MLOAD SWAP3 PUSH3 0x31E1 DUP4 DUP6 PUSH3 0x1FE6 JUMP JUMPDEST SWAP2 PUSH1 0x20 SWAP3 DUP3 DUP5 DUP1 SWAP5 ADD MLOAD DUP3 GT PUSH3 0x3261 JUMPI JUMPDEST MLOAD DUP4 DUP2 MLOAD SWAP8 DUP3 ADD ADD SWAP7 DUP3 GT PUSH3 0x3258 JUMPI JUMPDEST POP POP ADD SWAP2 JUMPDEST DUP2 DUP2 LT ISZERO PUSH3 0x322B JUMPI PUSH1 0x0 NOT SWAP2 SUB PUSH2 0x100 EXP ADD SWAP1 DUP2 NOT SWAP1 MLOAD AND SWAP1 DUP3 MLOAD AND OR SWAP1 MSTORE JUMP JUMPDEST SWAP2 SWAP3 PUSH3 0x324B PUSH3 0x3244 PUSH3 0x3252 SWAP3 DUP7 MLOAD DUP2 MSTORE PUSH3 0x1FD7 JUMP JUMPDEST SWAP5 PUSH3 0x1FD7 JUMP JUMPDEST SWAP3 PUSH3 0x1EE4 JUMP JUMPDEST PUSH3 0x3209 JUMP JUMPDEST MSTORE CODESIZE DUP1 PUSH3 0x3204 JUMP JUMPDEST PUSH3 0x3277 PUSH3 0x3270 DUP4 PUSH3 0x2D88 JUMP JUMPDEST DUP3 PUSH3 0x3199 JUMP JUMPDEST PUSH3 0x31F3 JUMP JUMPDEST SWAP1 PUSH3 0x3288 PUSH3 0x2C0A JUMP JUMPDEST POP DUP1 MLOAD PUSH3 0x3295 PUSH3 0x2C0A JUMP JUMPDEST POP PUSH3 0x32A5 DUP3 MLOAD DUP3 GT ISZERO PUSH3 0x3344 JUMP JUMPDEST DUP3 MLOAD MLOAD SWAP2 PUSH3 0x32B5 DUP3 DUP5 PUSH3 0x1FE6 JUMP JUMPDEST PUSH1 0x20 SWAP2 DUP3 SWAP2 DUP3 DUP8 ADD MLOAD DUP2 GT PUSH3 0x3328 JUMPI JUMPDEST DUP7 MLOAD DUP4 DUP2 MLOAD SWAP8 DUP3 ADD ADD SWAP7 DUP3 GT PUSH3 0x331F JUMPI JUMPDEST POP POP ADD SWAP2 JUMPDEST DUP2 DUP2 LT ISZERO PUSH3 0x3300 JUMPI PUSH1 0x0 NOT SWAP2 SUB PUSH2 0x100 EXP ADD SWAP1 DUP2 NOT SWAP1 MLOAD AND SWAP1 DUP3 MLOAD AND OR SWAP1 MSTORE SWAP1 JUMP JUMPDEST SWAP2 SWAP3 PUSH3 0x324B PUSH3 0x3244 PUSH3 0x3319 SWAP3 DUP7 MLOAD DUP2 MSTORE PUSH3 0x1FD7 JUMP JUMPDEST PUSH3 0x32DD JUMP JUMPDEST MSTORE CODESIZE DUP1 PUSH3 0x32D8 JUMP JUMPDEST PUSH3 0x333E PUSH3 0x3337 DUP3 PUSH3 0x2D88 JUMP JUMPDEST DUP9 PUSH3 0x3199 JUMP JUMPDEST PUSH3 0x32C6 JUMP JUMPDEST ISZERO PUSH3 0x310 JUMPI JUMP JUMPDEST DUP2 MLOAD PUSH3 0x264E SWAP3 SWAP2 SWAP1 PUSH8 0xFFFFFFFFFFFFFFFF DUP2 AND SWAP1 PUSH1 0x17 DUP3 GT PUSH3 0x3389 JUMPI PUSH3 0x3380 SWAP2 POP PUSH1 0x40 PUSH1 0xFF DUP5 MLOAD SWAP3 AND OR SWAP1 PUSH3 0x3123 JUMP JUMPDEST POP JUMPDEST MLOAD PUSH3 0x327D JUMP JUMPDEST POP PUSH1 0xFF DUP2 GT PUSH3 0x33B4 JUMPI PUSH3 0x33AD SWAP1 PUSH3 0x33A4 DUP4 MLOAD PUSH3 0x2EF8 JUMP JUMPDEST POP DUP3 MLOAD PUSH3 0x3739 JUMP JUMPDEST POP PUSH3 0x3382 JUMP JUMPDEST PUSH2 0xFFFF DUP2 GT PUSH3 0x33D8 JUMPI PUSH3 0x33AD SWAP1 PUSH3 0x33CF DUP4 MLOAD PUSH3 0x2E89 JUMP JUMPDEST POP DUP3 MLOAD PUSH3 0x36C9 JUMP JUMPDEST PUSH4 0xFFFFFFFF DUP2 GT PUSH3 0x33FE JUMPI PUSH3 0x33AD SWAP1 PUSH3 0x33F5 DUP4 MLOAD PUSH3 0x2E1A JUMP JUMPDEST POP DUP3 MLOAD PUSH3 0x3657 JUMP JUMPDEST PUSH3 0x33AD SWAP1 PUSH3 0x340F DUP4 MLOAD PUSH3 0x2D9F JUMP JUMPDEST POP DUP3 MLOAD PUSH3 0x35E1 JUMP JUMPDEST DUP2 MLOAD PUSH3 0x264E SWAP3 SWAP2 SWAP1 PUSH8 0xFFFFFFFFFFFFFFFF DUP2 AND SWAP1 PUSH1 0x17 DUP3 GT PUSH3 0x344C JUMPI PUSH3 0x3380 SWAP2 POP PUSH1 0x60 PUSH1 0xFF DUP5 MLOAD SWAP3 AND OR SWAP1 PUSH3 0x3123 JUMP JUMPDEST POP PUSH1 0xFF DUP2 GT PUSH3 0x3467 JUMPI PUSH3 0x33AD SWAP1 PUSH3 0x33A4 DUP4 MLOAD PUSH3 0x30B4 JUMP JUMPDEST PUSH2 0xFFFF DUP2 GT PUSH3 0x3482 JUMPI PUSH3 0x33AD SWAP1 PUSH3 0x33CF DUP4 MLOAD PUSH3 0x3045 JUMP JUMPDEST PUSH4 0xFFFFFFFF DUP2 GT PUSH3 0x349F JUMPI PUSH3 0x33AD SWAP1 PUSH3 0x33F5 DUP4 MLOAD PUSH3 0x2FD6 JUMP JUMPDEST PUSH3 0x33AD SWAP1 PUSH3 0x340F DUP4 MLOAD PUSH3 0x2F67 JUMP JUMPDEST DUP1 MLOAD SWAP1 PUSH3 0x34BD PUSH3 0x2C0A JUMP JUMPDEST POP DUP2 MLOAD MLOAD PUSH1 0x1 DUP2 ADD SWAP1 DUP2 DUP2 GT PUSH3 0x12E0 JUMPI PUSH1 0x20 DUP5 ADD MLOAD DUP2 LT ISZERO PUSH3 0x3510 JUMPI JUMPDEST PUSH1 0x9F PUSH1 0x20 DUP1 SWAP6 MLOAD SWAP3 DUP4 ADD ADD MSTORE8 DUP1 MLOAD DUP3 GT PUSH3 0x3507 JUMPI JUMPDEST POP POP ADD DUP1 MLOAD SWAP1 PUSH1 0x1 DUP3 ADD DUP1 SWAP3 GT PUSH3 0x12E0 JUMPI MSTORE JUMP JUMPDEST MSTORE CODESIZE DUP1 PUSH3 0x34F2 JUMP JUMPDEST DUP2 PUSH1 0x1 SHL SWAP4 DUP3 DUP6 DIV PUSH1 0x2 EQ DUP4 ISZERO OR ISZERO PUSH3 0x12E0 JUMPI PUSH1 0x20 DUP2 PUSH3 0x353D DUP3 SWAP8 PUSH3 0x2D75 PUSH1 0x9F SWAP6 MLOAD SWAP2 DUP5 PUSH3 0x2C7D JUMP JUMPDEST POP SWAP6 POP POP POP PUSH3 0x34DC JUMP JUMPDEST DUP1 MLOAD SWAP1 PUSH3 0x3555 PUSH3 0x2C0A JUMP JUMPDEST POP DUP2 MLOAD MLOAD PUSH1 0x1 DUP2 ADD SWAP1 DUP2 DUP2 GT PUSH3 0x12E0 JUMPI PUSH1 0x20 DUP5 ADD MLOAD DUP2 LT ISZERO PUSH3 0x35A9 JUMPI JUMPDEST PUSH1 0xFF PUSH1 0x20 DUP1 SWAP6 MLOAD SWAP3 DUP4 ADD ADD MSTORE8 DUP1 MLOAD DUP3 GT PUSH3 0x35A0 JUMPI JUMPDEST POP POP ADD DUP1 MLOAD PUSH1 0x0 NOT DUP2 ADD SWAP2 SWAP1 DUP3 GT PUSH3 0x12E0 JUMPI MSTORE JUMP JUMPDEST MSTORE CODESIZE DUP1 PUSH3 0x358A JUMP JUMPDEST DUP2 PUSH1 0x1 SHL SWAP4 DUP3 DUP6 DIV PUSH1 0x2 EQ DUP4 ISZERO OR ISZERO PUSH3 0x12E0 JUMPI PUSH1 0x20 DUP2 PUSH3 0x35D6 DUP3 SWAP8 PUSH3 0x2D75 PUSH1 0xFF SWAP6 MLOAD SWAP2 DUP5 PUSH3 0x2C7D JUMP JUMPDEST POP SWAP6 POP POP POP PUSH3 0x3574 JUMP JUMPDEST SWAP1 PUSH3 0x35EC PUSH3 0x2C0A JUMP JUMPDEST POP DUP2 MLOAD MLOAD DUP1 PUSH1 0x8 ADD SWAP2 DUP3 PUSH1 0x8 GT PUSH3 0x12E0 JUMPI PUSH1 0x20 DUP5 ADD MLOAD DUP4 GT PUSH3 0x3632 JUMPI JUMPDEST PUSH1 0x8 DUP5 MLOAD SWAP3 DUP4 ADD ADD SWAP1 PUSH8 0xFFFFFFFFFFFFFFFF NOT DUP3 MLOAD AND OR SWAP1 MSTORE DUP1 MLOAD DUP3 GT PUSH3 0x2DE1 JUMPI POP POP SWAP1 JUMP JUMPDEST DUP3 PUSH1 0x1 SHL DUP4 DUP2 DIV PUSH1 0x2 EQ DUP5 ISZERO OR ISZERO PUSH3 0x12E0 JUMPI PUSH3 0x3651 SWAP1 DUP6 PUSH3 0x3199 JUMP JUMPDEST PUSH3 0x360B JUMP JUMPDEST SWAP1 PUSH3 0x3662 PUSH3 0x2C0A JUMP JUMPDEST POP DUP2 MLOAD MLOAD DUP1 PUSH1 0x4 ADD SWAP2 DUP3 PUSH1 0x4 GT PUSH3 0x12E0 JUMPI PUSH1 0x20 DUP5 ADD MLOAD DUP4 GT PUSH3 0x36A4 JUMPI JUMPDEST PUSH1 0x4 DUP5 MLOAD SWAP3 DUP4 ADD ADD SWAP1 PUSH4 0xFFFFFFFF NOT DUP3 MLOAD AND OR SWAP1 MSTORE DUP1 MLOAD DUP3 GT PUSH3 0x2DE1 JUMPI POP POP SWAP1 JUMP JUMPDEST DUP3 PUSH1 0x1 SHL DUP4 DUP2 DIV PUSH1 0x2 EQ DUP5 ISZERO OR ISZERO PUSH3 0x12E0 JUMPI PUSH3 0x36C3 SWAP1 DUP6 PUSH3 0x3199 JUMP JUMPDEST PUSH3 0x3681 JUMP JUMPDEST SWAP1 PUSH3 0x36D4 PUSH3 0x2C0A JUMP JUMPDEST POP DUP2 MLOAD MLOAD DUP1 PUSH1 0x2 ADD SWAP2 DUP3 PUSH1 0x2 GT PUSH3 0x12E0 JUMPI PUSH1 0x20 DUP5 ADD MLOAD DUP4 GT PUSH3 0x3714 JUMPI JUMPDEST PUSH1 0x2 DUP5 MLOAD SWAP3 DUP4 ADD ADD SWAP1 PUSH2 0xFFFF NOT DUP3 MLOAD AND OR SWAP1 MSTORE DUP1 MLOAD DUP3 GT PUSH3 0x2DE1 JUMPI POP POP SWAP1 JUMP JUMPDEST DUP3 PUSH1 0x1 SHL DUP4 DUP2 DIV PUSH1 0x2 EQ DUP5 ISZERO OR ISZERO PUSH3 0x12E0 JUMPI PUSH3 0x3733 SWAP1 DUP6 PUSH3 0x3199 JUMP JUMPDEST PUSH3 0x36F3 JUMP JUMPDEST SWAP1 PUSH3 0x3744 PUSH3 0x2C0A JUMP JUMPDEST POP DUP2 MLOAD MLOAD DUP1 PUSH1 0x1 ADD SWAP2 DUP3 PUSH1 0x1 GT PUSH3 0x12E0 JUMPI PUSH1 0x20 DUP5 ADD MLOAD DUP4 GT PUSH3 0x3783 JUMPI JUMPDEST PUSH1 0x1 DUP5 MLOAD SWAP3 DUP4 ADD ADD SWAP1 PUSH1 0xFF NOT DUP3 MLOAD AND OR SWAP1 MSTORE DUP1 MLOAD DUP3 GT PUSH3 0x2DE1 JUMPI POP POP SWAP1 JUMP JUMPDEST DUP3 PUSH1 0x1 SHL DUP4 DUP2 DIV PUSH1 0x2 EQ DUP5 ISZERO OR ISZERO PUSH3 0x12E0 JUMPI PUSH3 0x37A2 SWAP1 DUP6 PUSH3 0x3199 JUMP JUMPDEST PUSH3 0x3763 JUMP JUMPDEST SWAP1 DUP2 MLOAD PUSH8 0xFFFFFFFFFFFFFFFF DUP2 GT PUSH3 0x38A JUMPI PUSH3 0x37D3 DUP2 PUSH3 0x37CD PUSH1 0x5 SLOAD PUSH3 0x797 JUMP JUMPDEST PUSH3 0x1E36 JUMP JUMPDEST PUSH1 0x20 DUP1 PUSH1 0x1F DUP4 GT PUSH1 0x1 EQ PUSH3 0x3812 JUMPI POP DUP2 SWAP3 SWAP4 PUSH1 0x0 SWAP3 PUSH3 0x3806 JUMPI JUMPDEST POP POP DUP2 PUSH1 0x1 SHL SWAP2 PUSH1 0x0 NOT SWAP1 PUSH1 0x3 SHL SHR NOT AND OR PUSH1 0x5 SSTORE JUMP JUMPDEST ADD MLOAD SWAP1 POP CODESIZE DUP1 PUSH3 0x37EF JUMP JUMPDEST SWAP1 PUSH1 0x1F NOT DUP4 AND SWAP5 PUSH3 0x3846 PUSH1 0x5 PUSH1 0x0 MSTORE PUSH32 0x36B6384B5ECA791C62761152D0C79BB0604C104A5FB6F4EB0703F3154BB3DB0 SWAP1 JUMP JUMPDEST SWAP3 PUSH1 0x0 SWAP1 JUMPDEST DUP8 DUP3 LT PUSH3 0x3886 JUMPI POP POP DUP4 PUSH1 0x1 SWAP6 SWAP7 LT PUSH3 0x386C JUMPI JUMPDEST POP POP POP DUP2 SHL ADD PUSH1 0x5 SSTORE JUMP JUMPDEST ADD MLOAD PUSH1 0x0 NOT PUSH1 0xF8 DUP5 PUSH1 0x3 SHL AND SHR NOT AND SWAP1 SSTORE CODESIZE DUP1 DUP1 PUSH3 0x3861 JUMP JUMPDEST DUP1 PUSH1 0x1 DUP6 SWAP7 DUP3 SWAP5 SWAP7 DUP7 ADD MLOAD DUP2 SSTORE ADD SWAP6 ADD SWAP4 ADD SWAP1 PUSH3 0x384B JUMP JUMPDEST PUSH1 0x20 DUP2 MLOAD SWAP2 ADD MLOAD SWAP1 PUSH1 0x20 DUP2 LT PUSH3 0x38B4 JUMPI POP SWAP1 JUMP JUMPDEST PUSH1 0x0 NOT SWAP1 PUSH1 0x20 SUB PUSH1 0x3 SHL SHL AND SWAP1 JUMP JUMPDEST PUSH1 0x1E SLOAD PUSH9 0x10000000000000000 DUP2 LT ISZERO PUSH3 0x38A JUMPI PUSH3 0x38EB PUSH1 0x1 SWAP2 DUP3 DUP2 ADD PUSH1 0x1E SSTORE PUSH3 0x743 JUMP JUMPDEST SWAP3 SWAP1 SWAP3 PUSH3 0x39CC JUMPI DUP1 MLOAD SWAP1 PUSH8 0xFFFFFFFFFFFFFFFF DUP3 GT PUSH3 0x38A JUMPI PUSH3 0x391E DUP3 PUSH3 0x3917 DUP7 SLOAD PUSH3 0x797 JUMP JUMPDEST DUP7 PUSH3 0x1E90 JUMP JUMPDEST PUSH1 0x20 SWAP1 DUP2 PUSH1 0x1F DUP5 GT PUSH1 0x1 EQ PUSH3 0x395D JUMPI POP SWAP3 DUP3 SWAP4 SWAP2 DUP4 SWAP3 PUSH1 0x0 SWAP5 PUSH3 0x3951 JUMPI JUMPDEST POP POP SHL SWAP2 PUSH1 0x0 NOT SWAP1 PUSH1 0x3 SHL SHR NOT AND OR SWAP1 SSTORE JUMP JUMPDEST ADD MLOAD SWAP3 POP CODESIZE DUP1 PUSH3 0x393E JUMP JUMPDEST SWAP2 SWAP1 DUP4 PUSH1 0x1F NOT DUP2 AND PUSH3 0x3975 DUP9 PUSH1 0x0 MSTORE PUSH1 0x20 PUSH1 0x0 KECCAK256 SWAP1 JUMP JUMPDEST SWAP5 PUSH1 0x0 SWAP1 JUMPDEST DUP9 DUP4 DUP4 LT PUSH3 0x39B1 JUMPI POP POP POP LT PUSH3 0x3997 JUMPI JUMPDEST POP POP POP DUP2 SHL ADD SWAP1 SSTORE JUMP JUMPDEST ADD MLOAD PUSH1 0x0 NOT PUSH1 0xF8 DUP5 PUSH1 0x3 SHL AND SHR NOT AND SWAP1 SSTORE CODESIZE DUP1 DUP1 PUSH3 0x398D JUMP JUMPDEST DUP6 DUP8 ADD MLOAD DUP9 SSTORE SWAP1 SWAP7 ADD SWAP6 SWAP5 DUP6 ADD SWAP5 DUP8 SWAP4 POP SWAP1 DUP2 ADD SWAP1 PUSH3 0x397A JUMP JUMPDEST PUSH3 0x781 JUMP JUMPDEST SWAP1 SWAP2 PUSH3 0x39EC PUSH3 0x9C8 SWAP4 PUSH1 0x40 DUP5 MSTORE PUSH1 0x40 DUP5 ADD SWAP1 PUSH3 0x973 JUMP JUMPDEST SWAP2 PUSH1 0x20 DUP2 DUP5 SUB SWAP2 ADD MSTORE PUSH3 0x973 JUMP JUMPDEST ISZERO PUSH3 0x3A03 JUMPI JUMP JUMPDEST PUSH1 0x64 PUSH1 0x40 MLOAD PUSH3 0x461BCD PUSH1 0xE5 SHL DUP2 MSTORE PUSH1 0x20 PUSH1 0x4 DUP3 ADD MSTORE PUSH1 0x1B PUSH1 0x24 DUP3 ADD MSTORE PUSH32 0x4572726F20616F207061676172206120696E64656E697A6163616F0000000000 PUSH1 0x44 DUP3 ADD MSTORE REVERT JUMPDEST PUSH1 0x20 SLOAD PUSH1 0x1C SLOAD GT ISZERO PUSH3 0x3A8D JUMPI PUSH3 0x815 PUSH1 0x0 DUP1 DUP1 DUP1 PUSH3 0x3A78 PUSH3 0xC8B PUSH3 0xC8B PUSH1 0x19 SLOAD PUSH1 0x1 PUSH1 0x1 PUSH1 0xA0 SHL SUB AND SWAP1 JUMP JUMPDEST SELFBALANCE SWAP1 GAS CALL PUSH3 0x3A86 PUSH3 0x219F JUMP JUMPDEST POP PUSH3 0x39FB JUMP JUMPDEST PUSH1 0x0 DUP1 DUP1 DUP1 PUSH1 0x1 PUSH1 0x1 PUSH1 0xA0 SHL SUB PUSH1 0x18 SLOAD PUSH1 0x8 SHR AND SELFBALANCE SWAP1 GAS CALL PUSH3 0x3AAF PUSH3 0x219F JUMP JUMPDEST POP ISZERO PUSH3 0x3AB8 JUMPI JUMP JUMPDEST PUSH1 0x84 PUSH1 0x40 MLOAD PUSH3 0x461BCD PUSH1 0xE5 SHL DUP2 MSTORE PUSH1 0x20 PUSH1 0x4 DUP3 ADD MSTORE PUSH1 0x2D PUSH1 0x24 DUP3 ADD MSTORE PUSH32 0x4572726F20616F207265746F726E6172206F732066756E646F73207061726120 PUSH1 0x44 DUP3 ADD MSTORE PUSH32 0x6120696E73746974756963616F00000000000000000000000000000000000000 PUSH1 0x64 DUP3 ADD MSTORE REVERT INVALID PUSH1 0xC0 CALLVALUE PUSH2 0xBC JUMPI PUSH1 0x1F PUSH2 0x73A CODESIZE DUP2 SWAP1 SUB SWAP2 DUP3 ADD PUSH1 0x1F NOT AND DUP4 ADD SWAP2 PUSH1 0x1 PUSH1 0x1 PUSH1 0x40 SHL SUB DUP4 GT DUP5 DUP5 LT OR PUSH2 0xC1 JUMPI DUP1 DUP5 SWAP3 PUSH1 0x60 SWAP5 PUSH1 0x40 MSTORE DUP4 CODECOPY DUP2 ADD SUB SLT PUSH2 0xBC JUMPI PUSH2 0x47 DUP2 PUSH2 0xD7 JUMP JUMPDEST SWAP1 PUSH1 0x40 PUSH2 0x56 PUSH1 0x20 DUP4 ADD PUSH2 0xD7 JUMP JUMPDEST SWAP2 ADD MLOAD PUSH1 0x1 PUSH1 0x1 PUSH1 0x60 SHL SUB DUP2 AND SWAP3 SWAP1 DUP4 SWAP1 SUB PUSH2 0xBC JUMPI PUSH1 0x80 MSTORE PUSH1 0xA0 MSTORE PUSH1 0x1 DUP1 SLOAD PUSH1 0x1 PUSH1 0x1 PUSH1 0x60 SHL SUB NOT AND SWAP2 SWAP1 SWAP2 OR SWAP1 SSTORE PUSH1 0x40 MLOAD PUSH2 0x64E SWAP1 DUP2 PUSH2 0xEC DUP3 CODECOPY PUSH1 0x80 MLOAD DUP2 DUP2 DUP2 PUSH2 0x114 ADD MSTORE DUP2 DUP2 PUSH2 0x199 ADD MSTORE PUSH2 0x373 ADD MSTORE PUSH1 0xA0 MLOAD DUP2 DUP2 DUP2 PUSH2 0x1DC ADD MSTORE PUSH2 0x33B ADD MSTORE RETURN JUMPDEST PUSH1 0x0 DUP1 REVERT JUMPDEST PUSH4 0x4E487B71 PUSH1 0xE0 SHL PUSH1 0x0 MSTORE PUSH1 0x41 PUSH1 0x4 MSTORE PUSH1 0x24 PUSH1 0x0 REVERT JUMPDEST MLOAD SWAP1 PUSH1 0x1 PUSH1 0x1 PUSH1 0xA0 SHL SUB DUP3 AND DUP3 SUB PUSH2 0xBC JUMPI JUMP INVALID PUSH1 0x80 PUSH1 0x40 DUP2 DUP2 MSTORE PUSH1 0x4 CALLDATASIZE LT ISZERO PUSH2 0x14 JUMPI PUSH1 0x0 DUP1 REVERT JUMPDEST PUSH1 0x0 SWAP2 DUP3 CALLDATALOAD PUSH1 0xE0 SHR SWAP1 DUP2 PUSH4 0x1619D3D EQ PUSH2 0x200 JUMPI POP DUP1 PUSH4 0x442B1278 EQ PUSH2 0x1BD JUMPI DUP1 PUSH4 0x7D253AFF EQ PUSH2 0x17A JUMPI DUP1 PUSH4 0xB60D4288 EQ PUSH2 0xA9 JUMPI PUSH4 0xBC61A473 EQ PUSH2 0x59 JUMPI PUSH1 0x0 DUP1 REVERT JUMPDEST CALLVALUE PUSH2 0xA5 JUMPI PUSH1 0x3 NOT SWAP2 PUSH1 0x20 CALLDATASIZE DUP5 ADD SLT PUSH2 0xA2 JUMPI PUSH1 0x4 CALLDATALOAD SWAP3 PUSH8 0xFFFFFFFFFFFFFFFF DUP5 GT PUSH2 0xA5 JUMPI PUSH2 0x140 SWAP1 DUP5 CALLDATASIZE SUB ADD SLT PUSH2 0xA2 JUMPI POP PUSH2 0x9B PUSH1 0x20 SWAP3 PUSH1 0x4 ADD PUSH2 0x2E6 JUMP JUMPDEST SWAP1 MLOAD SWAP1 DUP2 MSTORE RETURN JUMPDEST DUP1 REVERT JUMPDEST POP DUP1 REVERT JUMPDEST POP CALLVALUE PUSH2 0xA5 JUMPI DUP2 PUSH1 0x3 NOT CALLDATASIZE ADD SLT PUSH2 0xA5 JUMPI PUSH12 0xFFFFFFFFFFFFFFFFFFFFFFFF PUSH1 0x1 SLOAD AND SWAP1 DUP1 MLOAD SWAP2 PUSH32 0x23B872DD00000000000000000000000000000000000000000000000000000000 DUP4 MSTORE CALLER PUSH1 0x4 DUP5 ADD MSTORE ADDRESS PUSH1 0x24 DUP5 ADD MSTORE PUSH1 0x44 DUP4 ADD MSTORE PUSH1 0x20 DUP3 PUSH1 0x64 DUP2 DUP7 PUSH1 0x1 PUSH1 0x1 PUSH1 0xA0 SHL SUB PUSH32 0x0 AND GAS CALL SWAP1 DUP2 ISZERO PUSH2 0x171 JUMPI POP PUSH2 0x146 JUMPI POP DUP1 RETURN JUMPDEST PUSH2 0x166 SWAP1 PUSH1 0x20 RETURNDATASIZE DUP2 GT PUSH2 0x16A JUMPI JUMPDEST PUSH2 0x15E DUP2 DUP4 PUSH2 0x22A JUMP JUMPDEST DUP2 ADD SWAP1 PUSH2 0x262 JUMP JUMPDEST POP DUP1 RETURN JUMPDEST POP RETURNDATASIZE PUSH2 0x154 JUMP JUMPDEST MLOAD RETURNDATASIZE DUP5 DUP3 RETURNDATACOPY RETURNDATASIZE SWAP1 REVERT JUMPDEST POP CALLVALUE PUSH2 0xA5 JUMPI DUP2 PUSH1 0x3 NOT CALLDATASIZE ADD SLT PUSH2 0xA5 JUMPI PUSH1 0x20 SWAP1 MLOAD PUSH1 0x1 PUSH1 0x1 PUSH1 0xA0 SHL SUB PUSH32 0x0 AND DUP2 MSTORE RETURN JUMPDEST POP CALLVALUE PUSH2 0xA5 JUMPI DUP2 PUSH1 0x3 NOT CALLDATASIZE ADD SLT PUSH2 0xA5 JUMPI PUSH1 0x20 SWAP1 MLOAD PUSH1 0x1 PUSH1 0x1 PUSH1 0xA0 SHL SUB PUSH32 0x0 AND DUP2 MSTORE RETURN JUMPDEST DUP4 SWAP1 CALLVALUE PUSH2 0xA5 JUMPI DUP2 PUSH1 0x3 NOT CALLDATASIZE ADD SLT PUSH2 0xA5 JUMPI PUSH1 0x20 SWAP1 PUSH12 0xFFFFFFFFFFFFFFFFFFFFFFFF PUSH1 0x1 SLOAD AND DUP2 MSTORE RETURN JUMPDEST SWAP1 PUSH1 0x1F DUP1 NOT SWAP2 ADD AND DUP2 ADD SWAP1 DUP2 LT PUSH8 0xFFFFFFFFFFFFFFFF DUP3 GT OR PUSH2 0x24C JUMPI PUSH1 0x40 MSTORE JUMP JUMPDEST PUSH4 0x4E487B71 PUSH1 0xE0 SHL PUSH1 0x0 MSTORE PUSH1 0x41 PUSH1 0x4 MSTORE PUSH1 0x24 PUSH1 0x0 REVERT JUMPDEST SWAP1 DUP2 PUSH1 0x20 SWAP2 SUB SLT PUSH2 0x27A JUMPI MLOAD DUP1 ISZERO ISZERO DUP2 SUB PUSH2 0x27A JUMPI SWAP1 JUMP JUMPDEST PUSH1 0x0 DUP1 REVERT JUMPDEST SWAP1 CALLDATALOAD PUSH1 0x1E NOT DUP3 CALLDATASIZE SUB ADD DUP2 SLT ISZERO PUSH2 0x27A JUMPI ADD PUSH1 0x20 DUP2 CALLDATALOAD SWAP2 ADD SWAP2 PUSH8 0xFFFFFFFFFFFFFFFF DUP3 GT PUSH2 0x27A JUMPI DUP2 CALLDATASIZE SUB DUP4 SGT PUSH2 0x27A JUMPI JUMP JUMPDEST SWAP1 DUP1 PUSH1 0x20 SWAP4 SWAP3 DUP2 DUP5 MSTORE DUP5 DUP5 ADD CALLDATACOPY PUSH1 0x0 DUP3 DUP3 ADD DUP5 ADD MSTORE PUSH1 0x1F ADD PUSH1 0x1F NOT AND ADD ADD SWAP1 JUMP JUMPDEST CALLDATALOAD SWAP1 PUSH1 0x1 PUSH1 0x1 PUSH1 0xA0 SHL SUB DUP3 AND DUP3 SUB PUSH2 0x27A JUMPI JUMP JUMPDEST SWAP1 PUSH1 0x0 SWAP2 PUSH2 0x120 DUP2 ADD CALLDATALOAD SWAP1 PUSH12 0xFFFFFFFFFFFFFFFFFFFFFFFF DUP3 AND DUP1 SWAP3 SUB PUSH2 0x5ED JUMPI PUSH1 0x40 DUP1 MLOAD SWAP2 PUSH32 0x95EA7B300000000000000000000000000000000000000000000000000000000 DUP4 MSTORE PUSH1 0x1 PUSH1 0x1 PUSH1 0xA0 SHL SUB SWAP1 DUP2 PUSH32 0x0 AND DUP1 PUSH1 0x4 DUP7 ADD MSTORE DUP6 PUSH1 0x24 DUP7 ADD MSTORE PUSH1 0x20 SWAP5 DUP6 DUP2 PUSH1 0x44 DUP2 DUP13 DUP9 PUSH32 0x0 AND GAS CALL DUP1 ISZERO PUSH2 0x60E JUMPI PUSH2 0x5F1 JUMPI JUMPDEST POP DUP4 MLOAD SWAP6 PUSH32 0x3F678E1100000000000000000000000000000000000000000000000000000000 DUP8 MSTORE DUP6 PUSH1 0x4 DUP9 ADD MSTORE DUP9 PUSH2 0x3EE PUSH2 0x3DB DUP6 DUP1 PUSH2 0x27F JUMP JUMPDEST PUSH2 0x140 PUSH1 0x24 DUP13 ADD MSTORE PUSH2 0x164 DUP12 ADD SWAP2 PUSH2 0x2B1 JUMP JUMPDEST SWAP2 PUSH2 0x412 PUSH2 0x3FE DUP10 DUP8 ADD DUP8 PUSH2 0x27F JUMP JUMPDEST PUSH1 0x23 NOT DUP13 DUP8 SUB DUP2 ADD PUSH1 0x44 DUP15 ADD MSTORE SWAP6 SWAP2 PUSH2 0x2B1 JUMP JUMPDEST SWAP6 DUP1 PUSH2 0x41F DUP10 DUP9 ADD PUSH2 0x2D2 JUMP JUMPDEST AND PUSH1 0x64 DUP12 ADD MSTORE PUSH1 0x60 DUP7 ADD CALLDATALOAD PUSH4 0xFFFFFFFF DUP2 AND DUP1 SWAP2 SUB PUSH2 0x5ED JUMPI PUSH1 0x84 DUP12 ADD MSTORE PUSH2 0x449 PUSH1 0x80 DUP8 ADD PUSH2 0x2D2 JUMP JUMPDEST AND PUSH1 0xA4 DUP11 ADD MSTORE PUSH1 0xA0 DUP6 ADD CALLDATALOAD SWAP1 PUSH1 0xFF DUP3 AND DUP1 SWAP3 SUB PUSH2 0x5E9 JUMPI PUSH2 0x4D0 DUP11 SWAP7 DUP8 SWAP6 PUSH2 0x4C0 PUSH2 0x4B4 PUSH2 0x496 DUP15 SWAP13 DUP11 SWAP9 PUSH1 0xC4 DUP11 ADD MSTORE PUSH2 0x486 PUSH1 0xC0 DUP8 ADD DUP8 PUSH2 0x27F JUMP JUMPDEST SWAP1 DUP7 DUP12 DUP5 SUB ADD PUSH1 0xE4 DUP13 ADD MSTORE PUSH2 0x2B1 JUMP JUMPDEST PUSH2 0x4A3 PUSH1 0xE0 DUP7 ADD DUP7 PUSH2 0x27F JUMP JUMPDEST SWAP1 DUP6 DUP11 DUP5 SUB ADD PUSH2 0x104 DUP12 ADD MSTORE PUSH2 0x2B1 JUMP JUMPDEST SWAP3 PUSH2 0x100 DUP2 ADD SWAP1 PUSH2 0x27F JUMP JUMPDEST SWAP2 DUP7 DUP5 SUB ADD PUSH2 0x124 DUP8 ADD MSTORE PUSH2 0x2B1 JUMP JUMPDEST SWAP1 PUSH2 0x144 DUP4 ADD MSTORE SUB SWAP3 GAS CALL SWAP3 DUP4 ISZERO PUSH2 0x5DF JUMPI DUP6 SWAP4 PUSH2 0x5AC JUMPI JUMPDEST POP DUP3 ISZERO PUSH2 0x54F JUMPI CALLER DUP6 MSTORE DUP5 DUP3 MSTORE DUP5 KECCAK256 SWAP1 DUP2 SLOAD SWAP2 PUSH9 0x10000000000000000 DUP4 LT ISZERO PUSH2 0x53B JUMPI PUSH1 0x1 DUP4 ADD DUP1 DUP3 SSTORE DUP4 LT ISZERO PUSH2 0x527 JUMPI SWAP5 DUP4 SWAP5 SWAP6 DUP2 MSTORE KECCAK256 ADD SSTORE SWAP1 JUMP JUMPDEST PUSH1 0x24 DUP7 PUSH4 0x4E487B71 PUSH1 0xE0 SHL DUP2 MSTORE PUSH1 0x32 PUSH1 0x4 MSTORE REVERT JUMPDEST PUSH1 0x24 DUP7 PUSH4 0x4E487B71 PUSH1 0xE0 SHL DUP2 MSTORE PUSH1 0x41 PUSH1 0x4 MSTORE REVERT JUMPDEST PUSH1 0x64 SWAP3 POP MLOAD SWAP1 PUSH32 0x8C379A000000000000000000000000000000000000000000000000000000000 DUP3 MSTORE PUSH1 0x4 DUP3 ADD MSTORE PUSH1 0x15 PUSH1 0x24 DUP3 ADD MSTORE PUSH32 0x6175746F2D617070726F76652064697361626C65640000000000000000000000 PUSH1 0x44 DUP3 ADD MSTORE REVERT JUMPDEST SWAP1 SWAP3 POP DUP2 DUP2 DUP2 RETURNDATASIZE DUP4 GT PUSH2 0x5D8 JUMPI JUMPDEST PUSH2 0x5C4 DUP2 DUP4 PUSH2 0x22A JUMP JUMPDEST DUP2 ADD SUB SLT PUSH2 0x5D4 JUMPI MLOAD SWAP2 CODESIZE PUSH2 0x4E9 JUMP JUMPDEST DUP5 DUP1 REVERT JUMPDEST POP RETURNDATASIZE PUSH2 0x5BA JUMP JUMPDEST DUP2 MLOAD RETURNDATASIZE DUP8 DUP3 RETURNDATACOPY RETURNDATASIZE SWAP1 REVERT JUMPDEST DUP3 DUP1 REVERT JUMPDEST DUP4 DUP1 REVERT JUMPDEST PUSH2 0x607 SWAP1 DUP7 RETURNDATASIZE DUP9 GT PUSH2 0x16A JUMPI PUSH2 0x15E DUP2 DUP4 PUSH2 0x22A JUMP JUMPDEST POP CODESIZE PUSH2 0x3A0 JUMP JUMPDEST DUP6 MLOAD RETURNDATASIZE DUP12 DUP3 RETURNDATACOPY RETURNDATASIZE SWAP1 REVERT INVALID LOG2 PUSH5 0x6970667358 0x22 SLT KECCAK256 SWAP13 LOG4 SSTORE 0xBE PUSH2 0xC45D SWAP13 PUSH31 0x515967F303B8AB4A822792FD7267D08664D38B1D82E42764736F6C63430008 SGT STOP CALLER LOG2 PUSH5 0x6970667358 0x22 SLT KECCAK256 0xB5 0xE8 0xB6 0xA5 0xF6 0x2B DUP1 0xE4 0xCA 0xC3 0x21 0xF7 0xB9 0xC4 CALL CALLDATACOPY 0xF8 DUP12 PUSH4 0xDCC5A8E1 GAS 0xE9 STATICCALL DUP12 PUSH8 0xFDBD7EA964736F6C PUSH4 0x43000813 STOP CALLER LOG2 PUSH5 0x6970667358 0x22 SLT KECCAK256 0xB3 0xDB PUSH8 0x15267F6F921F3E25 0xF8 SWAP14 EXP SAR 0x2E MLOAD MSTORE8 RETURNDATACOPY 0x2F 0xBE 0xC9 CODECOPY 0xE9 PUSH27 0xCEFD685AB3E11B64736F6C63430008130033000000000000000000 "},"methodIdentifiers":{"blacklistAddr(address)":"8a699f00","contractBalance()":"8b7afe2e","contracts(address,uint256)":"ed23f8c3","createInsuranceContract(address,address,uint256,uint256,uint256,uint256,address,uint64,address,address,address,uint32)":"77ad0b34","getAllInsuranceContracts(address)":"3f0f912d","im_owner()":"af6081de","info(string)":"17fab0a0","infoKeys(uint256)":"90f6d378","institutionName()":"3a133e2c","registerInfo(string[2][])":"dfb50e64","whitelist(address)":"9b19251a","whitelistAddr(address)":"080a57f9","withdraw()":"3ccfd60b"}}}}}