{"contracts/mock/mockChainlink/mockFunctionsClient.sol":{"FunctionsClient":{"abi":[{"anonymous":false,"inputs":[{"indexed":true,"internalType":"bytes32","name":"id","type":"bytes32"}],"name":"RequestSent","type":"event"},{"inputs":[],"name":"REQUEST_DATA_VERSION","outputs":[{"internalType":"uint16","name":"","type":"uint16"}],"stateMutability":"view","type":"function"},{"inputs":[],"name":"requestId","outputs":[{"internalType":"bytes32","name":"","type":"bytes32"}],"stateMutability":"view","type":"function"},{"inputs":[{"internalType":"bytes32","name":"","type":"bytes32"},{"internalType":"uint256","name":"","type":"uint256"}],"name":"requests","outputs":[{"internalType":"uint64","name":"subscriptionId","type":"uint64"},{"internalType":"bytes","name":"data","type":"bytes"},{"internalType":"uint16","name":"DATA_VERSION","type":"uint16"},{"internalType":"uint32","name":"callbackGasLimit","type":"uint32"},{"internalType":"bytes32","name":"donId","type":"bytes32"}],"stateMutability":"view","type":"function"}],"evm":{"bytecode":{"linkReferences":{},"object":"6080806040523461001a576001805561025c90816100208239f35b600080fdfe60806040818152600436101561001457600080fd5b600091823560e01c9081626d6cae1461020c575080635d641dfc146101f157639655e6d81461004257600080fd5b346101ed57806003193601126101ed576024359160043581526020926002845282822080548210156101e95782528382209060021b019167ffffffffffffffff92838154169160019384830196825195829089549081811c9181811680156101df575b85841081146101cb57838b529081156101aa5750600114610171575b5050869003601f01601f19908116870198509688118689101761015d5792909187959694928682526003600284015493015493875260a0858801528751948560a0890152815b86811061014657505060c097509163ffffffff9185949389601f978a01015261ffff82169088015260101c166060860152608085015201168101030190f35b808a018201518b820160c001528a98508101610107565b602482634e487b7160e01b81526041600452fd5b9990915083528183209883995b828b1061019757505050808697988701018897386100c1565b8054898c0185015299830199810161017e565b60ff1916858b015250989950899850151560051b87018201905086386100c1565b602487634e487b7160e01b81526022600452fd5b92607f16926100a5565b8280fd5b5080fd5b50346101ed57816003193601126101ed576020905160018152f35b8390346101ed57816003193601126101ed57602091548152f3fea264697066735822122063f1f39981065009274c4810bafe00089807c5bc7efd2df1f0bbffbef527262e64736f6c63430008130033","opcodes":"PUSH1 0x80 DUP1 PUSH1 0x40 MSTORE CALLVALUE PUSH2 0x1A JUMPI PUSH1 0x1 DUP1 SSTORE PUSH2 0x25C SWAP1 DUP2 PUSH2 0x20 DUP3 CODECOPY RETURN JUMPDEST PUSH1 0x0 DUP1 REVERT INVALID PUSH1 0x80 PUSH1 0x40 DUP2 DUP2 MSTORE PUSH1 0x4 CALLDATASIZE LT ISZERO PUSH2 0x14 JUMPI PUSH1 0x0 DUP1 REVERT JUMPDEST PUSH1 0x0 SWAP2 DUP3 CALLDATALOAD PUSH1 0xE0 SHR SWAP1 DUP2 PUSH3 0x6D6CAE EQ PUSH2 0x20C JUMPI POP DUP1 PUSH4 0x5D641DFC EQ PUSH2 0x1F1 JUMPI PUSH4 0x9655E6D8 EQ PUSH2 0x42 JUMPI PUSH1 0x0 DUP1 REVERT JUMPDEST CALLVALUE PUSH2 0x1ED JUMPI DUP1 PUSH1 0x3 NOT CALLDATASIZE ADD SLT PUSH2 0x1ED JUMPI PUSH1 0x24 CALLDATALOAD SWAP2 PUSH1 0x4 CALLDATALOAD DUP2 MSTORE PUSH1 0x20 SWAP3 PUSH1 0x2 DUP5 MSTORE DUP3 DUP3 KECCAK256 DUP1 SLOAD DUP3 LT ISZERO PUSH2 0x1E9 JUMPI DUP3 MSTORE DUP4 DUP3 KECCAK256 SWAP1 PUSH1 0x2 SHL ADD SWAP2 PUSH8 0xFFFFFFFFFFFFFFFF SWAP3 DUP4 DUP2 SLOAD AND SWAP2 PUSH1 0x1 SWAP4 DUP5 DUP4 ADD SWAP7 DUP3 MLOAD SWAP6 DUP3 SWAP1 DUP10 SLOAD SWAP1 DUP2 DUP2 SHR SWAP2 DUP2 DUP2 AND DUP1 ISZERO PUSH2 0x1DF JUMPI JUMPDEST DUP6 DUP5 LT DUP2 EQ PUSH2 0x1CB JUMPI DUP4 DUP12 MSTORE SWAP1 DUP2 ISZERO PUSH2 0x1AA JUMPI POP PUSH1 0x1 EQ PUSH2 0x171 JUMPI JUMPDEST POP POP DUP7 SWAP1 SUB PUSH1 0x1F ADD PUSH1 0x1F NOT SWAP1 DUP2 AND DUP8 ADD SWAP9 POP SWAP7 DUP9 GT DUP7 DUP10 LT OR PUSH2 0x15D JUMPI SWAP3 SWAP1 SWAP2 DUP8 SWAP6 SWAP7 SWAP5 SWAP3 DUP7 DUP3 MSTORE PUSH1 0x3 PUSH1 0x2 DUP5 ADD SLOAD SWAP4 ADD SLOAD SWAP4 DUP8 MSTORE PUSH1 0xA0 DUP6 DUP9 ADD MSTORE DUP8 MLOAD SWAP5 DUP6 PUSH1 0xA0 DUP10 ADD MSTORE DUP2 JUMPDEST DUP7 DUP2 LT PUSH2 0x146 JUMPI POP POP PUSH1 0xC0 SWAP8 POP SWAP2 PUSH4 0xFFFFFFFF SWAP2 DUP6 SWAP5 SWAP4 DUP10 PUSH1 0x1F SWAP8 DUP11 ADD ADD MSTORE PUSH2 0xFFFF DUP3 AND SWAP1 DUP9 ADD MSTORE PUSH1 0x10 SHR AND PUSH1 0x60 DUP7 ADD MSTORE PUSH1 0x80 DUP6 ADD MSTORE ADD AND DUP2 ADD SUB ADD SWAP1 RETURN JUMPDEST DUP1 DUP11 ADD DUP3 ADD MLOAD DUP12 DUP3 ADD PUSH1 0xC0 ADD MSTORE DUP11 SWAP9 POP DUP2 ADD PUSH2 0x107 JUMP JUMPDEST PUSH1 0x24 DUP3 PUSH4 0x4E487B71 PUSH1 0xE0 SHL DUP2 MSTORE PUSH1 0x41 PUSH1 0x4 MSTORE REVERT JUMPDEST SWAP10 SWAP1 SWAP2 POP DUP4 MSTORE DUP2 DUP4 KECCAK256 SWAP9 DUP4 SWAP10 JUMPDEST DUP3 DUP12 LT PUSH2 0x197 JUMPI POP POP POP DUP1 DUP7 SWAP8 SWAP9 DUP8 ADD ADD DUP9 SWAP8 CODESIZE PUSH2 0xC1 JUMP JUMPDEST DUP1 SLOAD DUP10 DUP13 ADD DUP6 ADD MSTORE SWAP10 DUP4 ADD SWAP10 DUP2 ADD PUSH2 0x17E JUMP JUMPDEST PUSH1 0xFF NOT AND DUP6 DUP12 ADD MSTORE POP SWAP9 SWAP10 POP DUP10 SWAP9 POP ISZERO ISZERO PUSH1 0x5 SHL DUP8 ADD DUP3 ADD SWAP1 POP DUP7 CODESIZE PUSH2 0xC1 JUMP JUMPDEST PUSH1 0x24 DUP8 PUSH4 0x4E487B71 PUSH1 0xE0 SHL DUP2 MSTORE PUSH1 0x22 PUSH1 0x4 MSTORE REVERT JUMPDEST SWAP3 PUSH1 0x7F AND SWAP3 PUSH2 0xA5 JUMP JUMPDEST DUP3 DUP1 REVERT JUMPDEST POP DUP1 REVERT JUMPDEST POP CALLVALUE PUSH2 0x1ED JUMPI DUP2 PUSH1 0x3 NOT CALLDATASIZE ADD SLT PUSH2 0x1ED JUMPI PUSH1 0x20 SWAP1 MLOAD PUSH1 0x1 DUP2 MSTORE RETURN JUMPDEST DUP4 SWAP1 CALLVALUE PUSH2 0x1ED JUMPI DUP2 PUSH1 0x3 NOT CALLDATASIZE ADD SLT PUSH2 0x1ED JUMPI PUSH1 0x20 SWAP2 SLOAD DUP2 MSTORE RETURN INVALID LOG2 PUSH5 0x6970667358 0x22 SLT KECCAK256 PUSH4 0xF1F39981 MOD POP MULMOD 0x27 0x4C BASEFEE LT 0xBA INVALID STOP ADDMOD SWAP9 SMOD 0xC5 0xBC PUSH31 0xFD2DF1F0BBFFBEF527262E64736F6C63430008130033000000000000000000 "},"methodIdentifiers":{"REQUEST_DATA_VERSION()":"5d641dfc","requestId()":"006d6cae","requests(bytes32,uint256)":"9655e6d8"}}}}}