{"contracts/AutomatedFunctionsConsumer.sol":{"AutomatedFunctionsConsumer":{"abi":[{"inputs":[{"internalType":"address","name":"_deployer","type":"address"},{"internalType":"address","name":"_farmer","type":"address"},{"internalType":"uint256","name":"_humidityLimit","type":"uint256"},{"internalType":"address","name":"router","type":"address"},{"internalType":"uint64","name":"_subscriptionId","type":"uint64"},{"internalType":"uint32","name":"_fulfillGasLimit","type":"uint32"},{"internalType":"uint256","name":"_updateInterval","type":"uint256"},{"internalType":"uint256","name":"_sampleMaxSize","type":"uint256"},{"internalType":"uint256","name":"_reparationValue","type":"uint256"},{"internalType":"contract IAutomationRegistryConsumer","name":"_registry","type":"address"},{"internalType":"address","name":"sepoliaLINKAddress","type":"address"},{"internalType":"address","name":"sepoliaRegistrarAddress","type":"address"}],"stateMutability":"payable","type":"constructor"},{"inputs":[],"name":"EmptyArgs","type":"error"},{"inputs":[],"name":"EmptySecrets","type":"error"},{"inputs":[],"name":"EmptySource","type":"error"},{"inputs":[],"name":"NoInlineSecrets","type":"error"},{"inputs":[{"internalType":"address","name":"caller","type":"address"},{"internalType":"address","name":"owner","type":"address"},{"internalType":"address","name":"automationRegistry","type":"address"}],"name":"NotAllowedCaller","type":"error"},{"inputs":[],"name":"OnlyRouterCanFulfill","type":"error"},{"inputs":[{"internalType":"bytes32","name":"requestId","type":"bytes32"}],"name":"UnexpectedRequestID","type":"error"},{"anonymous":false,"inputs":[{"indexed":true,"internalType":"bytes32","name":"requestId","type":"bytes32"},{"indexed":false,"internalType":"bytes","name":"result","type":"bytes"},{"indexed":false,"internalType":"bytes","name":"err","type":"bytes"}],"name":"OCRResponse","type":"event"},{"anonymous":false,"inputs":[{"indexed":true,"internalType":"address","name":"from","type":"address"},{"indexed":true,"internalType":"address","name":"to","type":"address"}],"name":"OwnershipTransferRequested","type":"event"},{"anonymous":false,"inputs":[{"indexed":true,"internalType":"address","name":"from","type":"address"},{"indexed":true,"internalType":"address","name":"to","type":"address"}],"name":"OwnershipTransferred","type":"event"},{"anonymous":false,"inputs":[{"indexed":true,"internalType":"bytes32","name":"id","type":"bytes32"}],"name":"RequestFulfilled","type":"event"},{"anonymous":false,"inputs":[{"indexed":false,"internalType":"string","name":"reason","type":"string"}],"name":"RequestRevertedWithErrorMsg","type":"event"},{"anonymous":false,"inputs":[{"indexed":false,"internalType":"bytes","name":"data","type":"bytes"}],"name":"RequestRevertedWithoutErrorMsg","type":"event"},{"anonymous":false,"inputs":[{"indexed":true,"internalType":"bytes32","name":"id","type":"bytes32"}],"name":"RequestSent","type":"event"},{"anonymous":false,"inputs":[{"indexed":true,"internalType":"bytes32","name":"requestId","type":"bytes32"},{"indexed":false,"internalType":"bytes","name":"response","type":"bytes"},{"indexed":false,"internalType":"bytes","name":"err","type":"bytes"}],"name":"Response","type":"event"},{"anonymous":false,"inputs":[{"indexed":true,"internalType":"uint256","name":"upkeepID","type":"uint256"}],"name":"upkeepRegistered","type":"event"},{"inputs":[],"name":"acceptOwnership","outputs":[],"stateMutability":"nonpayable","type":"function"},{"inputs":[{"internalType":"bytes","name":"","type":"bytes"}],"name":"checkUpkeep","outputs":[{"internalType":"bool","name":"upkeepNeeded","type":"bool"},{"internalType":"bytes","name":"","type":"bytes"}],"stateMutability":"view","type":"function"},{"inputs":[],"name":"contractBalance","outputs":[{"internalType":"uint256","name":"","type":"uint256"}],"stateMutability":"view","type":"function"},{"inputs":[],"name":"donID","outputs":[{"internalType":"bytes32","name":"","type":"bytes32"}],"stateMutability":"view","type":"function"},{"inputs":[],"name":"farmer","outputs":[{"internalType":"address","name":"","type":"address"}],"stateMutability":"view","type":"function"},{"inputs":[],"name":"fulfillGasLimit","outputs":[{"internalType":"uint32","name":"","type":"uint32"}],"stateMutability":"view","type":"function"},{"inputs":[],"name":"gasLimit","outputs":[{"internalType":"uint32","name":"","type":"uint32"}],"stateMutability":"view","type":"function"},{"inputs":[{"internalType":"string","name":"source","type":"string"},{"internalType":"bytes","name":"secrets","type":"bytes"},{"internalType":"string[]","name":"args","type":"string[]"}],"name":"generateRequest","outputs":[{"internalType":"bytes","name":"","type":"bytes"}],"stateMutability":"pure","type":"function"},{"inputs":[{"internalType":"bytes32","name":"requestId","type":"bytes32"},{"internalType":"bytes","name":"response","type":"bytes"},{"internalType":"bytes","name":"err","type":"bytes"}],"name":"handleOracleFulfillment","outputs":[],"stateMutability":"nonpayable","type":"function"},{"inputs":[],"name":"i_upkeep","outputs":[{"internalType":"contract Upkeep","name":"","type":"address"}],"stateMutability":"view","type":"function"},{"inputs":[],"name":"institution","outputs":[{"internalType":"address","name":"","type":"address"}],"stateMutability":"view","type":"function"},{"inputs":[],"name":"lastUpkeepTimeStamp","outputs":[{"internalType":"uint256","name":"","type":"uint256"}],"stateMutability":"view","type":"function"},{"inputs":[],"name":"latestError","outputs":[{"internalType":"bytes","name":"","type":"bytes"}],"stateMutability":"view","type":"function"},{"inputs":[],"name":"latestRequestId","outputs":[{"internalType":"bytes32","name":"","type":"bytes32"}],"stateMutability":"view","type":"function"},{"inputs":[],"name":"latestResponse","outputs":[{"internalType":"bytes","name":"","type":"bytes"}],"stateMutability":"view","type":"function"},{"inputs":[],"name":"owner","outputs":[{"internalType":"address","name":"","type":"address"}],"stateMutability":"view","type":"function"},{"inputs":[{"internalType":"bytes","name":"","type":"bytes"}],"name":"performUpkeep","outputs":[],"stateMutability":"nonpayable","type":"function"},{"inputs":[],"name":"registry","outputs":[{"internalType":"contract IAutomationRegistryConsumer","name":"","type":"address"}],"stateMutability":"view","type":"function"},{"inputs":[],"name":"request","outputs":[{"internalType":"bytes","name":"","type":"bytes"}],"stateMutability":"view","type":"function"},{"inputs":[],"name":"requestCBOR","outputs":[{"internalType":"bytes","name":"","type":"bytes"}],"stateMutability":"view","type":"function"},{"inputs":[],"name":"responseCounter","outputs":[{"internalType":"uint256","name":"","type":"uint256"}],"stateMutability":"view","type":"function"},{"inputs":[],"name":"s_lastError","outputs":[{"internalType":"bytes","name":"","type":"bytes"}],"stateMutability":"view","type":"function"},{"inputs":[],"name":"s_lastRequestId","outputs":[{"internalType":"bytes32","name":"","type":"bytes32"}],"stateMutability":"view","type":"function"},{"inputs":[],"name":"s_lastResponse","outputs":[{"internalType":"bytes","name":"","type":"bytes"}],"stateMutability":"view","type":"function"},{"inputs":[],"name":"s_requestCounter","outputs":[{"internalType":"uint256","name":"","type":"uint256"}],"stateMutability":"view","type":"function"},{"inputs":[],"name":"s_responseCounter","outputs":[{"internalType":"uint256","name":"","type":"uint256"}],"stateMutability":"view","type":"function"},{"inputs":[],"name":"s_upkeepCounter","outputs":[{"internalType":"uint256","name":"","type":"uint256"}],"stateMutability":"view","type":"function"},{"inputs":[],"name":"sampleMaxSize","outputs":[{"internalType":"uint256","name":"","type":"uint256"}],"stateMutability":"view","type":"function"},{"inputs":[{"internalType":"uint256","name":"","type":"uint256"}],"name":"sampleStorage","outputs":[{"internalType":"string","name":"","type":"string"}],"stateMutability":"view","type":"function"},{"inputs":[{"internalType":"uint64","name":"_subscriptionId","type":"uint64"},{"internalType":"uint32","name":"_fulfillGasLimit","type":"uint32"},{"internalType":"uint256","name":"_updateInterval","type":"uint256"},{"internalType":"bytes","name":"newRequestCBOR","type":"bytes"}],"name":"setRequest","outputs":[],"stateMutability":"nonpayable","type":"function"},{"inputs":[],"name":"subscriptionId","outputs":[{"internalType":"uint64","name":"","type":"uint64"}],"stateMutability":"view","type":"function"},{"inputs":[{"internalType":"address","name":"to","type":"address"}],"name":"transferOwnership","outputs":[],"stateMutability":"nonpayable","type":"function"},{"inputs":[],"name":"updateInterval","outputs":[{"internalType":"uint256","name":"","type":"uint256"}],"stateMutability":"view","type":"function"},{"inputs":[],"name":"upkeepContract","outputs":[{"internalType":"address","name":"","type":"address"}],"stateMutability":"view","type":"function"},{"inputs":[],"name":"upkeepCounter","outputs":[{"internalType":"uint256","name":"","type":"uint256"}],"stateMutability":"view","type":"function"}],"evm":{"bytecode":{"linkReferences":{},"object":"601f62003b3e38819003918201601f191660c0908101926001600160401b039283851183861017620002465781610180928492604097885283398101031262000241576200004d816200025c565b916200005c602083016200025c565b92848301516200006f606085016200025c565b906080850151848116809103620002415760a086015163ffffffff81168103620002415760c087015160e088015191610100890151936101208a01519560018060a01b039889881688036200024157899081620000e06101608f610140620000d891016200025c565b9f016200025c565b9a16608052169b8c15620001fd578960018060a01b03199160009e8f90848254161790553383601654161760165516906017541617601755601a556bffffffff0000000000000000600654928d1b169160018060601b0319161717600655600755601b5560195560a0528551936107208086019486861090861117620001e95791838694928996946200341e873916835216602082015203019082f0908115620001de5750600b8054610100600160a81b031916600892831b610100600160a81b0316179055429055516131ac90816200027282396080518181816103d901528181612a830152612c70015260a051818181610f120152612cbc0152f35b8251903d90823e3d90fd5b634e487b7160e01b87526041600452602487fd5b8d5162461bcd60e51b815260206004820152601860248201527f43616e6e6f7420736574206f776e657220746f207a65726f00000000000000006044820152606490fd5b600080fd5b634e487b7160e01b600052604160045260246000fd5b51906001600160a01b0382168203620002415756fe6080604052600436101561001257600080fd5b60003560e01c8063089ea02e1461024757806309c1ba2e146102425780630ca761751461023d5780631aa46f591461023857806324b93e3e14610233578063277e22131461022e578063303b137c14610229578063338cdca114610224578063381fc4b51461021f5780633944ea3a1461021a57806343cd3d86146102155780634585e33b1461021057806348802b921461020b5780634b0795a8146102065780635e0611f114610201578063688ecfd1146101fc5780636e04ff0d146101f75780636e74336b146101f257806379ba5097146101ed5780637b103999146101e85780638b7afe2e146101e35780638da5cb5b146101de578063a3d3c0d2146101d9578063b1e21749146101d4578063bef3a2f0146101cf578063d1384eb6146101ca578063d811fcf0146101c5578063eb197c77146101c0578063ebf14a55146101bb578063f2fde38b146101b6578063f5c1279b146101b1578063f68016b7146101ac578063fd2c80ae146101a7578063fe083012146101a25763fffeb84e1461019d57600080fd5b6113e7565b611359565b61133b565b611317565b6112f9565b611226565b611208565b6110aa565b611083565b61105c565b610fb5565b610f97565b610f79565b610f52565b610f36565b610ef2565b610e12565b610df4565b610d7b565b610cd4565b610cad565b610c06565b610be8565b610b1c565b610ad0565b610a29565b610a0b565b61092a565b610900565b610897565b6105f8565b6105da565b610380565b61027a565b61025c565b600091031261025757565b600080fd5b34610257576000366003190112610257576020600854604051908152f35b3461025757600036600319011261025757602067ffffffffffffffff60065416604051908152f35b634e487b7160e01b600052604160045260246000fd5b6040810190811067ffffffffffffffff8211176102d457604052565b6102a2565b67ffffffffffffffff81116102d457604052565b90601f8019910116810190811067ffffffffffffffff8211176102d457604052565b67ffffffffffffffff81116102d457601f01601f191660200190565b9291926103378261030f565b9161034560405193846102ed565b829481845281830111610257578281602093846000960137010152565b9080601f830112156102575781602061037d9335910161032b565b90565b3461025757606036600319011261025757600480359067ffffffffffffffff90602435828111610257576103b79036908301610362565b604435838111610257576103ce9036908401610362565b906001600160a01b037f00000000000000000000000000000000000000000000000000000000000000001633036105b15780519384116102d4578261041d85610418889654610687565b6125b7565b602080601f8711600114610507575094807f7bab0ec163b5c132c72b8146ac4d6e067e82ed58f8b131150aa71c925891156295966000916104fc575b508160011b916000199060031b1c19161790555b61047682612e2f565b610489610484600a54611b57565b600a55565b60ff610497600b5460ff1690565b166104de576104a581612f3c565b6104b460405192839283613039565b0390a27f85e1543bf2f84fe80c6badbce3648c8539ad1df4d2b3d822938ca0538be727e6600080a2005b6104ef6104ea82612f19565b601e55565b6104f76130a9565b6104a5565b905083015138610459565b600460005290601f1987167f8a35acfbc15ff81a39ae7d344fd709f28e8600b4aa8c65c6b64bfe7fe36bd19b926000905b8282106105955750509187917f7bab0ec163b5c132c72b8146ac4d6e067e82ed58f8b131150aa71c925891156297986001941061057c575b5050811b01905561046d565b85015160001960f88460031b161c191690553880610570565b8684015185558a98506001909401939283019290810190610538565b826040517fc6829f83000000000000000000000000000000000000000000000000000000008152fd5b34610257576000366003190112610257576020600354604051908152f35b3461025757600036600319011261025757602060065463ffffffff6040519160401c168152f35b634e487b7160e01b600052603260045260246000fd5b601c5481101561066c57601c6000527f0e4562a10381dec21b205ed72637e6b1b523bdd0e4d4d50af5cd23dd4500a2110190600090565b61061f565b634e487b7160e01b600052600060045260246000fd5b90600182811c921680156106b7575b60208310146106a157565b634e487b7160e01b600052602260045260246000fd5b91607f1691610696565b60405190600082601d54916106d583610687565b8083529260019081811690811561075d57506001146106fe575b506106fc925003836102ed565b565b601d600090815291507f6d4407e7be21f808e6509aa9fa9143369579dd7d760fe20a2c09680fc146134f5b84831061074257506106fc9350508101602001386106ef565b81935090816020925483858a01015201910190918592610729565b9050602092506106fc94915060ff191682840152151560051b820101386106ef565b906040519182600082549261079384610687565b90818452600194858116908160001461080057506001146107bd575b50506106fc925003836102ed565b9093915060005260209081600020936000915b8183106107e85750506106fc935082010138806107af565b855488840185015294850194879450918301916107d0565b9150506106fc94506020925060ff191682840152151560051b82010138806107af565b60005b82811061083557506000910152565b608081015182820152602001610826565b919082519283825260005b848110610872575050826000602080949584010152601f8019910116010190565b602081830181015184830182015201610851565b90602061037d928181520190610846565b3461025757602036600319011261025757600435601c54811015610257576108e86108fc91601c6000527f0e4562a10381dec21b205ed72637e6b1b523bdd0e4d4d50af5cd23dd4500a2110161077f565b604051918291602083526020830190610846565b0390f35b346102575760003660031901126102575760206001600160a01b03600b5460081c16604051908152f35b3461025757600080600319360112610a08576040519080600d5461094d81610687565b808552916001918083169081156109de5750600114610983575b6108fc85610977818703826102ed565b60405191829182610886565b9250600d83527fd7b6990105719101dabeb77144f2a3385c8033acd3af97e9423a695e81ad1eb55b8284106109c6575050508101602001610977826108fc610967565b805460208587018101919091529093019281016109ab565b8695506108fc9693506020925061097794915060ff191682840152151560051b8201019293610967565b80fd5b34610257576000366003190112610257576020600a54604051908152f35b3461025757600080600319360112610a08576040519080601154610a4c81610687565b808552916001918083169081156109de5750600114610a75576108fc85610977818703826102ed565b9250601183527f31ecc21a745e3968a04e9570e4425bc18fa8019c68028196b546d1669c200c685b828410610ab8575050508101602001610977826108fc610967565b80546020858701810191909152909301928101610a9d565b34610257576000366003190112610257576020601554604051908152f35b9181601f840112156102575782359167ffffffffffffffff8311610257576020838186019501011161025757565b346102575760203660031901126102575760043567ffffffffffffffff811161025757610b4d903690600401610aee565b50506000546001600160a01b03163381141580610bbe575b610b7357610b716129e0565b005b6018546040517f426fbc710000000000000000000000000000000000000000000000000000000081523360048201526001600160a01b03928316602482015291166044820152606490fd5b50610be0610bd46018546001600160a01b031690565b6001600160a01b031690565b331415610b65565b34610257576000366003190112610257576020601454604051908152f35b3461025757600080600319360112610a08576040519080601254610c2981610687565b808552916001918083169081156109de5750600114610c52576108fc85610977818703826102ed565b9250601283527fbb8a6a4669ba250d26cd7a459eca9d215f8307e33aebe50379bc5a3617ec34445b828410610c95575050508101602001610977826108fc610967565b80546020858701810191909152909301928101610c7a565b346102575760003660031901126102575760206001600160a01b0360185416604051908152f35b3461025757600080600319360112610a08576040519080600254610cf781610687565b808552916001918083169081156109de5750600114610d20576108fc85610977818703826102ed565b9250600283527f405787fa12a823e0f2b7631cc41b3ba8828b3321ca811111fa75cd3aa3bb5ace5b828410610d63575050508101602001610977826108fc610967565b80546020858701810191909152909301928101610d48565b346102575760203660031901126102575760043567ffffffffffffffff811161025757610dac903690600401610362565b506008544203428111610def5760075410604051908152604060208201526060818151806040830152610de181848401610823565b601f01601f19168101030190f35b611797565b34610257576000366003190112610257576020600f54604051908152f35b3461025757600080600319360112610a08576001600160a01b0380600154163303610eae5781546001600160a01b03166000805473ffffffffffffffffffffffffffffffffffffffff19163317905590610e8473ffffffffffffffffffffffffffffffffffffffff1960015416600155565b3391167f8be0079c531659141344cd1fd0a4f28419497f9722a3daafe3b4186f6b6457e08380a380f35b606460405162461bcd60e51b815260206004820152601660248201527f4d7573742062652070726f706f736564206f776e6572000000000000000000006044820152fd5b346102575760003660031901126102575760206040516001600160a01b037f0000000000000000000000000000000000000000000000000000000000000000168152f35b3461025757600036600319011261025757602047604051908152f35b346102575760003660031901126102575760206001600160a01b0360005416604051908152f35b34610257576000366003190112610257576020600954604051908152f35b34610257576000366003190112610257576020601054604051908152f35b3461025757600080600319360112610a08576040519080600454610fd881610687565b808552916001918083169081156109de5750600114611001576108fc85610977818703826102ed565b9250600483527f8a35acfbc15ff81a39ae7d344fd709f28e8600b4aa8c65c6b64bfe7fe36bd19b5b828410611044575050508101602001610977826108fc610967565b80546020858701810191909152909301928101611029565b346102575760003660031901126102575760206001600160a01b0360165416604051908152f35b346102575760003660031901126102575760206001600160a01b0360175416604051908152f35b346102575760803660031901126102575760043567ffffffffffffffff808216809203610257576024359063ffffffff8216820361025757606435818111610257576110fa903690600401610aee565b92909361110561148e565b6044356007556bffffffff00000000000000006006549260401b16916bffffffffffffffffffffffff1916171760065581116102d45761114f8161114a600254610687565b612618565b6000601f821160011461118a57819260009261117f575b5050600019600383901b1c191660019190911b17600255005b013590503880611166565b6002600052601f198216927f405787fa12a823e0f2b7631cc41b3ba8828b3321ca811111fa75cd3aa3bb5ace91805b8581106111f0575083600195106111d6575b505050811b01600255005b0135600019600384901b60f8161c191690553880806111cb565b909260206001819286860135815501940191016111b9565b34610257576000366003190112610257576020601b54604051908152f35b34610257576020366003190112610257576004356001600160a01b0381168091036102575761125361148e565b3381146112b5578073ffffffffffffffffffffffffffffffffffffffff19600154161760015561128e610bd46000546001600160a01b031690565b7fed8889f560326eb138920d842192f0eb3dd22b4f139c87a2c57538e05bae1278600080a3005b606460405162461bcd60e51b815260206004820152601760248201527f43616e6e6f74207472616e7366657220746f2073656c660000000000000000006044820152fd5b34610257576000366003190112610257576020601354604051908152f35b3461025757600036600319011261025757602063ffffffff600e5416604051908152f35b34610257576000366003190112610257576020600754604051908152f35b346102575760603660031901126102575767ffffffffffffffff6004358181116102575761138b903690600401610aee565b91602435818111610257576113a4903690600401610aee565b60443593918385116102575736602386011215610257578460040135938411610257573660248560051b87010111610257576108fc956024610977960193611548565b3461025757600080600319360112610a0857604051908060055461140a81610687565b808552916001918083169081156109de5750600114611433576108fc85610977818703826102ed565b9250600583527f036b6384b5eca791c62761152d0c79bb0604c104a5fb6f4eb0703f3154bb3db05b828410611476575050508101602001610977826108fc610967565b8054602085870181019190915290930192810161145b565b6001600160a01b036000541633036114a257565b606460405162461bcd60e51b815260206004820152601660248201527f4f6e6c792063616c6c61626c65206279206f776e6572000000000000000000006044820152fd5b6040519060e0820182811067ffffffffffffffff8211176102d457604052606060c08360008152600060208201526000604082015282808201528260808201528260a08201520152565b67ffffffffffffffff81116102d45760051b60200190565b61156461156a91969493929661155c6114e6565b97369161032b565b86611a66565b81611611575b505080611583575b505061037d9061187b565b61158c81611530565b9161159a60405193846102ed565b8183526020918284019060051b8201913683116102575780915b8383106115d5575050505050906115ce61037d9282611aa7565b9038611578565b823567ffffffffffffffff811161025757820136601f8201121561025757859161160683923690848135910161032b565b8152019201916115b4565b61161c91369161032b565b805115611636576001602085015260808401523880611570565b60046040517fe889636f000000000000000000000000000000000000000000000000000000008152fd5b604051906020820182811067ffffffffffffffff8211176102d45760405260008252565b60405190611691826102b8565b600c82527f636f64654c6f636174696f6e00000000000000000000000000000000000000006020830152565b634e487b7160e01b600052602160045260246000fd5b600311156116dd57565b6116bd565b604051906116ef826102b8565b600882527f6c616e67756167650000000000000000000000000000000000000000000000006020830152565b600111156116dd57565b60405190611732826102b8565b600682527f736f7572636500000000000000000000000000000000000000000000000000006020830152565b6040519061176b826102b8565b600482527f61726773000000000000000000000000000000000000000000000000000000006020830152565b634e487b7160e01b600052601160045260246000fd5b6000198114610def5760010190565b805182101561066c5760209160051b010190565b604051906117dd826102b8565b600f82527f736563726574734c6f636174696f6e00000000000000000000000000000000006020830152565b60405190611816826102b8565b600782527f73656372657473000000000000000000000000000000000000000000000000006020830152565b6040519061184f826102b8565b600982527f62797465734172677300000000000000000000000000000000000000000000006020830152565b611883611af8565b9061189561188f611684565b8361225f565b6118b281516118a3816116d3565b6118ac816116d3565b83611bd2565b6118bd61188f6116e2565b6118d760408201516118ce8161171b565b6118ac8161171b565b6118e261188f611725565b6118f060608201518361225f565b60a08101805151611a0d575b506080810190815151611975575b60c091500180515161191d575b50515190565b9161192961188f611842565b611932826122e4565b60005b8351805182101561196257906119586119518261195d946117bc565b51856121a9565b6117ad565b611935565b5050915061196f81612370565b38611917565b602081018051611984816116d3565b61198d816116d3565b156119e35760c0926119c66119de926119ad6119a76117d0565b8861225f565b516119b7816116d3565b6119c0816116d3565b86611bd2565b6119d76119d1611809565b8661225f565b51846121a9565b61190a565b60046040517fa80d31f7000000000000000000000000000000000000000000000000000000008152fd5b92611a1f611a1961175e565b8461225f565b611a28836122e4565b60005b84518051821015611a535790611958611a4782611a4e946117bc565b518661225f565b611a2b565b50509250611a6082612370565b386118fc565b815115611a7d576000808252604082015260600152565b60046040517f22ce3edd000000000000000000000000000000000000000000000000000000008152fd5b815115611ab45760a00152565b60046040517ffe936cb7000000000000000000000000000000000000000000000000000000008152fd5b60405190611aeb826102b8565b6000602083606081520152565b604051611b04816102b8565b611b0c611ade565b8082526020820160008152611b1f611ade565b506101006020830152604051809252600082526101208201918210610257576000916040525290565b601f19810191908211610def57565b9060018201809211610def57565b9060208201809211610def57565b91908201809211610def57565b90611b89611ade565b50601f811680611bb8575b50806020830152604051908183526000825281016020019081106102575760405290565b60200360208111610def578101809111610def5738611b94565b90815191611bde611ade565b508251516001810190818111610def576020850151811015611c37575b60c260206106fc9651928301015380518211611c2f575b505060405191602083015260208252611c2a826102b8565b6121a9565b523880611c12565b8160011b9482860460021483151715610def57602081611c696106fc98611c6260c295519184611b80565b50826120f1565b5096505050611bfb565b908160011b9180830460021490151715610def57565b611c91611ade565b508051516001810190818111610def576020830151811015611cca575b605b60208451928301015380518211611cc657505090565b5290565b8160011b82810460021483151715610def57611cf390611cec85519186611b80565b50846120f1565b50611cae565b611d01611ade565b508051516001810190818111610def576020830151811015611d36575b605a60208451928301015380518211611cc657505090565b8160011b82810460021483151715610def57611d5890611cec85519186611b80565b50611d1e565b611d66611ade565b508051516001810190818111610def576020830151811015611d9b575b605960208451928301015380518211611cc657505090565b8160011b82810460021483151715610def57611dbd90611cec85519186611b80565b50611d83565b611dcb611ade565b508051516001810190818111610def576020830151811015611e00575b605860208451928301015380518211611cc657505090565b8160011b82810460021483151715610def57611e2290611cec85519186611b80565b50611de8565b611e30611ade565b508051516001810190818111610def576020830151811015611e65575b607b60208451928301015380518211611cc657505090565b8160011b82810460021483151715610def57611e8790611cec85519186611b80565b50611e4d565b611e95611ade565b508051516001810190818111610def576020830151811015611eca575b607a60208451928301015380518211611cc657505090565b8160011b82810460021483151715610def57611eec90611cec85519186611b80565b50611eb2565b611efa611ade565b508051516001810190818111610def576020830151811015611f2f575b607960208451928301015380518211611cc657505090565b8160011b82810460021483151715610def57611f5190611cec85519186611b80565b50611f17565b611f5f611ade565b508051516001810190818111610def576020830151811015611f94575b607860208451928301015380518211611cc657505090565b8160011b82810460021483151715610def57611fb690611cec85519186611b80565b50611f7c565b90611fc5611ade565b508151516001810191828211610def576020840151821015611ff8575b60208451928301015380518211611cc657505090565b8260011b83810460021484151715610def576120219061201a86519187611b80565b50856120f1565b50611fe2565b9061203482519183611b80565b5061203d611ade565b50805190612049611ade565b5061205781518311156121a2565b825151926120658385611b73565b9160209282848094015182116120da575b51838151978201019682116120d2575b505001915b818110156120ac5760001991036101000a0190811990511690825116179052565b91926120c76120c16120cd9286518152611b65565b94611b65565b92611b48565b61208b565b523880612086565b6120ec6120e683611c73565b82612027565b612076565b906120fa611ade565b508051612105611ade565b5061211382518211156121a2565b825151916121218284611b73565b602091829182870151811161218b575b865183815197820101968211612183575b505001915b818110156121695760001991036101000a019081199051169082511617905290565b91926120c76120c161217e9286518152611b65565b612147565b523880612142565b61219d61219782611c73565b88612027565b612131565b1561025757565b81516121e192919067ffffffffffffffff811690601782116121e4576121d99150604060ff845192161790611fbc565b505b516120f1565b50565b5060ff811161220957612203906121fb8351611dc3565b50825161253a565b506121db565b61ffff811161222857612203906122208351611d5e565b5082516124d3565b63ffffffff811161224957612203906122418351611cf9565b50825161246a565b612203906122578351611c89565b5082516123fd565b81516121e192919067ffffffffffffffff8116906017821161228f576121d99150606060ff845192161790611fbc565b5060ff81116122a657612203906121fb8351611f57565b61ffff81116122bd57612203906122208351611ef2565b63ffffffff81116122d657612203906122418351611e8d565b612203906122578351611e28565b8051906122ef611ade565b508151516001810190818111610def57602084015181101561233d575b609f6020809551928301015380518211612335575b50500180519060018201809211610def5752565b523880612321565b8160011b9382850460021483151715610def576020816123668297611c62609f95519184611b80565b509550505061230c565b80519061237b611ade565b508151516001810190818111610def5760208401518110156123ca575b60ff60208095519283010153805182116123c2575b5050018051600019810191908211610def5752565b5238806123ad565b8160011b9382850460021483151715610def576020816123f38297611c6260ff95519184611b80565b5095505050612398565b90612406611ade565b50815151806008019182600811610def5760208401518311612449575b60088451928301019067ffffffffffffffff1982511617905280518211611cc657505090565b8260011b83810460021484151715610def576124659085612027565b612423565b90612473611ade565b50815151806004019182600411610def57602084015183116124b2575b60048451928301019063ffffffff1982511617905280518211611cc657505090565b8260011b83810460021484151715610def576124ce9085612027565b612490565b906124dc611ade565b50815151806002019182600211610def5760208401518311612519575b60028451928301019061ffff1982511617905280518211611cc657505090565b8260011b83810460021484151715610def576125359085612027565b6124f9565b90612543611ade565b50815151806001019182600111610def576020840151831161257f575b60018451928301019060ff1982511617905280518211611cc657505090565b8260011b83810460021484151715610def5761259b9085612027565b612560565b8181106125ab575050565b600081556001016125a0565b90601f82116125c4575050565b6106fc9160046000527f8a35acfbc15ff81a39ae7d344fd709f28e8600b4aa8c65c6b64bfe7fe36bd19b906020601f840160051c8301931061260e575b601f0160051c01906125a0565b9091508190612601565b90601f8211612625575050565b6106fc9160026000527f405787fa12a823e0f2b7631cc41b3ba8828b3321ca811111fa75cd3aa3bb5ace906020601f840160051c8301931061260e57601f0160051c01906125a0565b90601f821161267b575050565b6106fc9160056000527f036b6384b5eca791c62761152d0c79bb0604c104a5fb6f4eb0703f3154bb3db0906020601f840160051c8301931061260e57601f0160051c01906125a0565b9190601f81116126d357505050565b6106fc926000526020600020906020601f840160051c8301931061260e57601f0160051c01906125a0565b60606008544203428111610def576007541091565b1561271a57565b606460405162461bcd60e51b815260206004820152601560248201527f54696d6520696e74657276616c206e6f74206d657400000000000000000000006044820152fd5b1561276557565b606460405162461bcd60e51b815260206004820152601560248201527f55706b656570206e6f74207265676973746572656400000000000000000000006044820152fd5b601c54906127b682611530565b916127c460405193846102ed565b808352601c600090815260207f0e4562a10381dec21b205ed72637e6b1b523bdd0e4d4d50af5cd23dd4500a2118186015b848410612803575050505050565b60018381926128118561077f565b8152019201930192906127f5565b90816020910312610257575190565b9067ffffffffffffffff909493929416815260209360a08583015260006002549561285887610687565b908160a086015260019788811690816000146128ee5750600114612892575b5050604083019590955263ffffffff16606082015260800152565b600260009081529250877f405787fa12a823e0f2b7631cc41b3ba8828b3321ca811111fa75cd3aa3bb5ace5b8385106128d95750505050820160c0018163ffffffff612877565b805487860160c00152938201938991016128be565b60ff191660c08781019190915292151560051b8601909201925083915063ffffffff9050612877565b6040513d6000823e3d90fd5b60009060033d1161293057565b905060046000803e60005160e01c90565b600060443d1061037d57604051600319913d83016004833e815167ffffffffffffffff918282113d60248401111761299f578184019485519384116129a7573d8501016020848701011161299f575061037d929101602001906102ed565b949350505050565b50949350505050565b3d156129db573d906129c18261030f565b916129cf60405193846102ed565b82523d6000602084013e565b606090565b6129e8611660565b506129fa6129f46126fe565b50612713565b612a0342600855565b612a16612a11600954611b57565b600955565b601b54601c541015612bc557612a35612a30601354611b57565b601355565b60065467ffffffffffffffff166020612a53600e5463ffffffff1690565b600f5492612a75604051948593849363230e93b160e11b85526004850161282e565b038160006001600160a01b037f0000000000000000000000000000000000000000000000000000000000000000165af160009181612b95575b50612b5257506001612abe612923565b6308c379a014612b00575b612acf57565b7f9c4bfa18304482256875c29fabb1a44a5ecd325f214ea17bab8f31e869faf4c8612afb6109776129b0565b0390a1565b612b08612941565b80612b14575b50612ac9565b90507f2ba61e3733e7ac99181c22307780f651ec8fd92fe661a84dfbe711710b2dc36c612b4960009260405191829182610886565b0390a138612b0e565b612b5b81601055565b612b6e612b69601454611b57565b601455565b7f1131472297a800fee664d1d89cfa8f7676ff07189ecc53f80bbb5f4969099db8600080a2565b612bb791925060203d8111612bbe575b612baf81836102ed565b81019061281f565b9038612aae565b503d612ba5565b612bd2600c54151561275e565b612be4600160ff19600b541617600b55565b612c16612bef6114e6565b612c00612bfa6106c1565b82611a66565b612c11612c0b6127a9565b82611aa7565b61187b565b50612c25612a30601354611b57565b60065467ffffffffffffffff16600e5463ffffffff1690612c5b600f5460405193849363230e93b160e11b85526004850161282e565b036000916020816001600160a01b03938186867f0000000000000000000000000000000000000000000000000000000000000000165af1839181612e0f575b50612dcf57506001612caa612923565b6308c379a014612d7e575b612d4a575b7f000000000000000000000000000000000000000000000000000000000000000016600c54813b15612d46576040517f8765ecbe000000000000000000000000000000000000000000000000000000008152600481019190915291908290602490829084905af18015612d4157612d2e5750565b80612d3b6106fc926102d9565b8061024c565b612917565b8280fd5b7f9c4bfa18304482256875c29fabb1a44a5ecd325f214ea17bab8f31e869faf4c8612d766109776129b0565b0390a1612cba565b612d86612941565b80612d92575b50612cb5565b90507f2ba61e3733e7ac99181c22307780f651ec8fd92fe661a84dfbe711710b2dc36c612dc6849260405191829182610886565b0390a138612d8c565b612dd881601055565b612de6612b69601454611b57565b7f1131472297a800fee664d1d89cfa8f7676ff07189ecc53f80bbb5f4969099db88380a2612cba565b612e2891925060203d8111612bbe57612baf81836102ed565b9038612c9a565b90815167ffffffffffffffff81116102d457612e5581612e50600554610687565b61266e565b602080601f8311600114612e915750819293600092612e86575b50508160011b916000199060031b1c191617600555565b015190503880612e6f565b90601f19831694612ec460056000527f036b6384b5eca791c62761152d0c79bb0604c104a5fb6f4eb0703f3154bb3db090565b926000905b878210612f01575050836001959610612ee8575b505050811b01600555565b015160001960f88460031b161c19169055388080612edd565b80600185968294968601518155019501930190612ec9565b602081519101519060208110612f2d575090565b6000199060200360031b1b1690565b601c54680100000000000000008110156102d457612f61600191828101601c55610635565b9290926130345780519067ffffffffffffffff82116102d457612f8e82612f888654610687565b866126c4565b60209081601f8411600114612fca5750928293918392600094612fbf575b50501b916000199060031b1c1916179055565b015192503880612fac565b919083601f198116612fe188600052602060002090565b946000905b8883831061301a5750505010613001575b505050811b019055565b015160001960f88460031b161c19169055388080612ff7565b858701518855909601959485019487935090810190612fe6565b610671565b909161305061037d93604084526040840190610846565b916020818403910152610846565b1561306557565b606460405162461bcd60e51b815260206004820152601b60248201527f4572726f20616f207061676172206120696e64656e697a6163616f00000000006044820152fd5b601e54601a5411156130e7576106fc60008080806130d5610bd4610bd46017546001600160a01b031690565b47905af16130e16129b0565b5061305e565b60008080806001600160a01b036016541647905af16131046129b0565b501561310c57565b608460405162461bcd60e51b815260206004820152602d60248201527f4572726f20616f207265746f726e6172206f732066756e646f7320706172612060448201527f6120696e73746974756963616f000000000000000000000000000000000000006064820152fdfea2646970667358221220bf851c99235e991c6613ec84044ee4d5cae3894b8f3f6cac35466a4ecd70607564736f6c6343000813003360c03461008757601f61072038819003918201601f19168301916001600160401b0383118484101761008c57808492604094855283398101031261008757610052602061004b836100a2565b92016100a2565b9060805260a05260405161066990816100b78239608051818181607101526103e2015260a05181818161022501526103aa0152f35b600080fd5b634e487b7160e01b600052604160045260246000fd5b51906001600160a01b03821682036100875756fe608060408181526004918236101561001657600080fd5b600092833560e01c918263442b1278146101f95750816376a11e76146100995750637d253aff1461004657600080fd5b346100955781600319360112610095576020905173ffffffffffffffffffffffffffffffffffffffff7f0000000000000000000000000000000000000000000000000000000000000000168152f35b5080fd5b8284346101db57600319926020368501126100955780359067ffffffffffffffff908183116101de57610100809684360301126101de578451958601868110838211176101e6578552828101358281116101e2578301366023820112156101e25761010d9036906024848201359101610281565b865260248301358281116101e25761012a908236918601016102cd565b602087015261013b604484016102eb565b85870152606483013563ffffffff811681036101e2576060870152610162608484016102eb565b608087015260a48301358281116101e257610182908236918601016102cd565b60a087015260c48301359182116101de5760e492916101a59136918401016102cd565b60c08601520135906bffffffffffffffffffffffff821682036101db5750826101d49160e0602095015261034c565b9051908152f35b80fd5b8380fd5b8480fd5b602485604184634e487b7160e01b835252fd5b84903461009557816003193601126100955760209073ffffffffffffffffffffffffffffffffffffffff7f0000000000000000000000000000000000000000000000000000000000000000168152f35b90601f8019910116810190811067ffffffffffffffff82111761026b57604052565b634e487b7160e01b600052604160045260246000fd5b92919267ffffffffffffffff821161026b57604051916102ab601f8201601f191660200184610249565b8294818452818301116102c8578281602093846000960137010152565b600080fd5b9080601f830112156102c8578160206102e893359101610281565b90565b359073ffffffffffffffffffffffffffffffffffffffff821682036102c857565b919082519283825260005b848110610338575050826000602080949584010152601f8019910116010190565b602081830181015184830182015201610317565b9060009160e081016bffffffffffffffffffffffff908482825116936040928351947f095ea7b300000000000000000000000000000000000000000000000000000000865273ffffffffffffffffffffffffffffffffffffffff92837f000000000000000000000000000000000000000000000000000000000000000016978860048901526024880152602096878160448189897f0000000000000000000000000000000000000000000000000000000000000000165af18015610629576105ea575b50936104c19360c0989387936104d38a988987519d8e9a8b998a987f08b79da4000000000000000000000000000000000000000000000000000000008a528460048b0152806104886104708c6101248a51916101006024820152019061030c565b968801516023198d8903810160448f0152979061030c565b928701511660648b015263ffffffff60608701511660848b015260808601511660a48a015260a0850151848a83030160c48b015261030c565b920151908683030160e487015261030c565b91511661010483015203925af19283156105e05785936105b1575b5082156105545733855284825284209081549168010000000000000000831015610540576001830180825583101561052c5794839495815220015590565b602486634e487b7160e01b81526032600452fd5b602486634e487b7160e01b81526041600452fd5b6064925051907f08c379a00000000000000000000000000000000000000000000000000000000082526004820152601560248201527f6175746f2d617070726f76652064697361626c656400000000000000000000006044820152fd5b9092508181813d83116105d9575b6105c98183610249565b810103126101e2575191386104ee565b503d6105bf565b81513d87823e3d90fd5b8781819a95979394969a3d8311610622575b6106068183610249565b810103126100955751801515036101db5793919692903861040f565b503d6105fc565b87513d88823e3d90fdfea2646970667358221220bcc7c01c120ed188dfab907004fa879c1ff9498c303279b3ccaa0269ed26106564736f6c63430008130033","opcodes":"PUSH1 0x1F PUSH3 0x3B3E CODESIZE DUP2 SWAP1 SUB SWAP2 DUP3 ADD PUSH1 0x1F NOT AND PUSH1 0xC0 SWAP1 DUP2 ADD SWAP3 PUSH1 0x1 PUSH1 0x1 PUSH1 0x40 SHL SUB SWAP3 DUP4 DUP6 GT DUP4 DUP7 LT OR PUSH3 0x246 JUMPI DUP2 PUSH2 0x180 SWAP3 DUP5 SWAP3 PUSH1 0x40 SWAP8 DUP9 MSTORE DUP4 CODECOPY DUP2 ADD SUB SLT PUSH3 0x241 JUMPI PUSH3 0x4D DUP2 PUSH3 0x25C JUMP JUMPDEST SWAP2 PUSH3 0x5C PUSH1 0x20 DUP4 ADD PUSH3 0x25C JUMP JUMPDEST SWAP3 DUP5 DUP4 ADD MLOAD PUSH3 0x6F PUSH1 0x60 DUP6 ADD PUSH3 0x25C JUMP JUMPDEST SWAP1 PUSH1 0x80 DUP6 ADD MLOAD DUP5 DUP2 AND DUP1 SWAP2 SUB PUSH3 0x241 JUMPI PUSH1 0xA0 DUP7 ADD MLOAD PUSH4 0xFFFFFFFF DUP2 AND DUP2 SUB PUSH3 0x241 JUMPI PUSH1 0xC0 DUP8 ADD MLOAD PUSH1 0xE0 DUP9 ADD MLOAD SWAP2 PUSH2 0x100 DUP10 ADD MLOAD SWAP4 PUSH2 0x120 DUP11 ADD MLOAD SWAP6 PUSH1 0x1 DUP1 PUSH1 0xA0 SHL SUB SWAP9 DUP10 DUP9 AND DUP9 SUB PUSH3 0x241 JUMPI DUP10 SWAP1 DUP2 PUSH3 0xE0 PUSH2 0x160 DUP16 PUSH2 0x140 PUSH3 0xD8 SWAP2 ADD PUSH3 0x25C JUMP JUMPDEST SWAP16 ADD PUSH3 0x25C JUMP JUMPDEST SWAP11 AND PUSH1 0x80 MSTORE AND SWAP12 DUP13 ISZERO PUSH3 0x1FD JUMPI DUP10 PUSH1 0x1 DUP1 PUSH1 0xA0 SHL SUB NOT SWAP2 PUSH1 0x0 SWAP15 DUP16 SWAP1 DUP5 DUP3 SLOAD AND OR SWAP1 SSTORE CALLER DUP4 PUSH1 0x16 SLOAD AND OR PUSH1 0x16 SSTORE AND SWAP1 PUSH1 0x17 SLOAD AND OR PUSH1 0x17 SSTORE PUSH1 0x1A SSTORE PUSH12 0xFFFFFFFF0000000000000000 PUSH1 0x6 SLOAD SWAP3 DUP14 SHL AND SWAP2 PUSH1 0x1 DUP1 PUSH1 0x60 SHL SUB NOT AND OR OR PUSH1 0x6 SSTORE PUSH1 0x7 SSTORE PUSH1 0x1B SSTORE PUSH1 0x19 SSTORE PUSH1 0xA0 MSTORE DUP6 MLOAD SWAP4 PUSH2 0x720 DUP1 DUP7 ADD SWAP5 DUP7 DUP7 LT SWAP1 DUP7 GT OR PUSH3 0x1E9 JUMPI SWAP2 DUP4 DUP7 SWAP5 SWAP3 DUP10 SWAP7 SWAP5 PUSH3 0x341E DUP8 CODECOPY AND DUP4 MSTORE AND PUSH1 0x20 DUP3 ADD MSTORE SUB ADD SWAP1 DUP3 CREATE SWAP1 DUP2 ISZERO PUSH3 0x1DE JUMPI POP PUSH1 0xB DUP1 SLOAD PUSH2 0x100 PUSH1 0x1 PUSH1 0xA8 SHL SUB NOT AND PUSH1 0x8 SWAP3 DUP4 SHL PUSH2 0x100 PUSH1 0x1 PUSH1 0xA8 SHL SUB AND OR SWAP1 SSTORE TIMESTAMP SWAP1 SSTORE MLOAD PUSH2 0x31AC SWAP1 DUP2 PUSH3 0x272 DUP3 CODECOPY PUSH1 0x80 MLOAD DUP2 DUP2 DUP2 PUSH2 0x3D9 ADD MSTORE DUP2 DUP2 PUSH2 0x2A83 ADD MSTORE PUSH2 0x2C70 ADD MSTORE PUSH1 0xA0 MLOAD DUP2 DUP2 DUP2 PUSH2 0xF12 ADD MSTORE PUSH2 0x2CBC ADD MSTORE RETURN JUMPDEST DUP3 MLOAD SWAP1 RETURNDATASIZE SWAP1 DUP3 RETURNDATACOPY RETURNDATASIZE SWAP1 REVERT JUMPDEST PUSH4 0x4E487B71 PUSH1 0xE0 SHL DUP8 MSTORE PUSH1 0x41 PUSH1 0x4 MSTORE PUSH1 0x24 DUP8 REVERT JUMPDEST DUP14 MLOAD PUSH3 0x461BCD PUSH1 0xE5 SHL DUP2 MSTORE PUSH1 0x20 PUSH1 0x4 DUP3 ADD MSTORE PUSH1 0x18 PUSH1 0x24 DUP3 ADD MSTORE PUSH32 0x43616E6E6F7420736574206F776E657220746F207A65726F0000000000000000 PUSH1 0x44 DUP3 ADD MSTORE PUSH1 0x64 SWAP1 REVERT JUMPDEST PUSH1 0x0 DUP1 REVERT JUMPDEST PUSH4 0x4E487B71 PUSH1 0xE0 SHL PUSH1 0x0 MSTORE PUSH1 0x41 PUSH1 0x4 MSTORE PUSH1 0x24 PUSH1 0x0 REVERT JUMPDEST MLOAD SWAP1 PUSH1 0x1 PUSH1 0x1 PUSH1 0xA0 SHL SUB DUP3 AND DUP3 SUB PUSH3 0x241 JUMPI JUMP INVALID PUSH1 0x80 PUSH1 0x40 MSTORE PUSH1 0x4 CALLDATASIZE LT ISZERO PUSH2 0x12 JUMPI PUSH1 0x0 DUP1 REVERT JUMPDEST PUSH1 0x0 CALLDATALOAD PUSH1 0xE0 SHR DUP1 PUSH4 0x89EA02E EQ PUSH2 0x247 JUMPI DUP1 PUSH4 0x9C1BA2E EQ PUSH2 0x242 JUMPI DUP1 PUSH4 0xCA76175 EQ PUSH2 0x23D JUMPI DUP1 PUSH4 0x1AA46F59 EQ PUSH2 0x238 JUMPI DUP1 PUSH4 0x24B93E3E EQ PUSH2 0x233 JUMPI DUP1 PUSH4 0x277E2213 EQ PUSH2 0x22E JUMPI DUP1 PUSH4 0x303B137C EQ PUSH2 0x229 JUMPI DUP1 PUSH4 0x338CDCA1 EQ PUSH2 0x224 JUMPI DUP1 PUSH4 0x381FC4B5 EQ PUSH2 0x21F JUMPI DUP1 PUSH4 0x3944EA3A EQ PUSH2 0x21A JUMPI DUP1 PUSH4 0x43CD3D86 EQ PUSH2 0x215 JUMPI DUP1 PUSH4 0x4585E33B EQ PUSH2 0x210 JUMPI DUP1 PUSH4 0x48802B92 EQ PUSH2 0x20B JUMPI DUP1 PUSH4 0x4B0795A8 EQ PUSH2 0x206 JUMPI DUP1 PUSH4 0x5E0611F1 EQ PUSH2 0x201 JUMPI DUP1 PUSH4 0x688ECFD1 EQ PUSH2 0x1FC JUMPI DUP1 PUSH4 0x6E04FF0D EQ PUSH2 0x1F7 JUMPI DUP1 PUSH4 0x6E74336B EQ PUSH2 0x1F2 JUMPI DUP1 PUSH4 0x79BA5097 EQ PUSH2 0x1ED JUMPI DUP1 PUSH4 0x7B103999 EQ PUSH2 0x1E8 JUMPI DUP1 PUSH4 0x8B7AFE2E EQ PUSH2 0x1E3 JUMPI DUP1 PUSH4 0x8DA5CB5B EQ PUSH2 0x1DE JUMPI DUP1 PUSH4 0xA3D3C0D2 EQ PUSH2 0x1D9 JUMPI DUP1 PUSH4 0xB1E21749 EQ PUSH2 0x1D4 JUMPI DUP1 PUSH4 0xBEF3A2F0 EQ PUSH2 0x1CF JUMPI DUP1 PUSH4 0xD1384EB6 EQ PUSH2 0x1CA JUMPI DUP1 PUSH4 0xD811FCF0 EQ PUSH2 0x1C5 JUMPI DUP1 PUSH4 0xEB197C77 EQ PUSH2 0x1C0 JUMPI DUP1 PUSH4 0xEBF14A55 EQ PUSH2 0x1BB JUMPI DUP1 PUSH4 0xF2FDE38B EQ PUSH2 0x1B6 JUMPI DUP1 PUSH4 0xF5C1279B EQ PUSH2 0x1B1 JUMPI DUP1 PUSH4 0xF68016B7 EQ PUSH2 0x1AC JUMPI DUP1 PUSH4 0xFD2C80AE EQ PUSH2 0x1A7 JUMPI DUP1 PUSH4 0xFE083012 EQ PUSH2 0x1A2 JUMPI PUSH4 0xFFFEB84E EQ PUSH2 0x19D JUMPI PUSH1 0x0 DUP1 REVERT JUMPDEST PUSH2 0x13E7 JUMP JUMPDEST PUSH2 0x1359 JUMP JUMPDEST PUSH2 0x133B JUMP JUMPDEST PUSH2 0x1317 JUMP JUMPDEST PUSH2 0x12F9 JUMP JUMPDEST PUSH2 0x1226 JUMP JUMPDEST PUSH2 0x1208 JUMP JUMPDEST PUSH2 0x10AA JUMP JUMPDEST PUSH2 0x1083 JUMP JUMPDEST PUSH2 0x105C JUMP JUMPDEST PUSH2 0xFB5 JUMP JUMPDEST PUSH2 0xF97 JUMP JUMPDEST PUSH2 0xF79 JUMP JUMPDEST PUSH2 0xF52 JUMP JUMPDEST PUSH2 0xF36 JUMP JUMPDEST PUSH2 0xEF2 JUMP JUMPDEST PUSH2 0xE12 JUMP JUMPDEST PUSH2 0xDF4 JUMP JUMPDEST PUSH2 0xD7B JUMP JUMPDEST PUSH2 0xCD4 JUMP JUMPDEST PUSH2 0xCAD JUMP JUMPDEST PUSH2 0xC06 JUMP JUMPDEST PUSH2 0xBE8 JUMP JUMPDEST PUSH2 0xB1C JUMP JUMPDEST PUSH2 0xAD0 JUMP JUMPDEST PUSH2 0xA29 JUMP JUMPDEST PUSH2 0xA0B JUMP JUMPDEST PUSH2 0x92A JUMP JUMPDEST PUSH2 0x900 JUMP JUMPDEST PUSH2 0x897 JUMP JUMPDEST PUSH2 0x5F8 JUMP JUMPDEST PUSH2 0x5DA JUMP JUMPDEST PUSH2 0x380 JUMP JUMPDEST PUSH2 0x27A JUMP JUMPDEST PUSH2 0x25C JUMP JUMPDEST PUSH1 0x0 SWAP2 SUB SLT PUSH2 0x257 JUMPI JUMP JUMPDEST PUSH1 0x0 DUP1 REVERT JUMPDEST CALLVALUE PUSH2 0x257 JUMPI PUSH1 0x0 CALLDATASIZE PUSH1 0x3 NOT ADD SLT PUSH2 0x257 JUMPI PUSH1 0x20 PUSH1 0x8 SLOAD PUSH1 0x40 MLOAD SWAP1 DUP2 MSTORE RETURN JUMPDEST CALLVALUE PUSH2 0x257 JUMPI PUSH1 0x0 CALLDATASIZE PUSH1 0x3 NOT ADD SLT PUSH2 0x257 JUMPI PUSH1 0x20 PUSH8 0xFFFFFFFFFFFFFFFF PUSH1 0x6 SLOAD AND PUSH1 0x40 MLOAD SWAP1 DUP2 MSTORE RETURN JUMPDEST PUSH4 0x4E487B71 PUSH1 0xE0 SHL PUSH1 0x0 MSTORE PUSH1 0x41 PUSH1 0x4 MSTORE PUSH1 0x24 PUSH1 0x0 REVERT JUMPDEST PUSH1 0x40 DUP2 ADD SWAP1 DUP2 LT PUSH8 0xFFFFFFFFFFFFFFFF DUP3 GT OR PUSH2 0x2D4 JUMPI PUSH1 0x40 MSTORE JUMP JUMPDEST PUSH2 0x2A2 JUMP JUMPDEST PUSH8 0xFFFFFFFFFFFFFFFF DUP2 GT PUSH2 0x2D4 JUMPI PUSH1 0x40 MSTORE JUMP JUMPDEST SWAP1 PUSH1 0x1F DUP1 NOT SWAP2 ADD AND DUP2 ADD SWAP1 DUP2 LT PUSH8 0xFFFFFFFFFFFFFFFF DUP3 GT OR PUSH2 0x2D4 JUMPI PUSH1 0x40 MSTORE JUMP JUMPDEST PUSH8 0xFFFFFFFFFFFFFFFF DUP2 GT PUSH2 0x2D4 JUMPI PUSH1 0x1F ADD PUSH1 0x1F NOT AND PUSH1 0x20 ADD SWAP1 JUMP JUMPDEST SWAP3 SWAP2 SWAP3 PUSH2 0x337 DUP3 PUSH2 0x30F JUMP JUMPDEST SWAP2 PUSH2 0x345 PUSH1 0x40 MLOAD SWAP4 DUP5 PUSH2 0x2ED JUMP JUMPDEST DUP3 SWAP5 DUP2 DUP5 MSTORE DUP2 DUP4 ADD GT PUSH2 0x257 JUMPI DUP3 DUP2 PUSH1 0x20 SWAP4 DUP5 PUSH1 0x0 SWAP7 ADD CALLDATACOPY ADD ADD MSTORE JUMP JUMPDEST SWAP1 DUP1 PUSH1 0x1F DUP4 ADD SLT ISZERO PUSH2 0x257 JUMPI DUP2 PUSH1 0x20 PUSH2 0x37D SWAP4 CALLDATALOAD SWAP2 ADD PUSH2 0x32B JUMP JUMPDEST SWAP1 JUMP JUMPDEST CALLVALUE PUSH2 0x257 JUMPI PUSH1 0x60 CALLDATASIZE PUSH1 0x3 NOT ADD SLT PUSH2 0x257 JUMPI PUSH1 0x4 DUP1 CALLDATALOAD SWAP1 PUSH8 0xFFFFFFFFFFFFFFFF SWAP1 PUSH1 0x24 CALLDATALOAD DUP3 DUP2 GT PUSH2 0x257 JUMPI PUSH2 0x3B7 SWAP1 CALLDATASIZE SWAP1 DUP4 ADD PUSH2 0x362 JUMP JUMPDEST PUSH1 0x44 CALLDATALOAD DUP4 DUP2 GT PUSH2 0x257 JUMPI PUSH2 0x3CE SWAP1 CALLDATASIZE SWAP1 DUP5 ADD PUSH2 0x362 JUMP JUMPDEST SWAP1 PUSH1 0x1 PUSH1 0x1 PUSH1 0xA0 SHL SUB PUSH32 0x0 AND CALLER SUB PUSH2 0x5B1 JUMPI DUP1 MLOAD SWAP4 DUP5 GT PUSH2 0x2D4 JUMPI DUP3 PUSH2 0x41D DUP6 PUSH2 0x418 DUP9 SWAP7 SLOAD PUSH2 0x687 JUMP JUMPDEST PUSH2 0x25B7 JUMP JUMPDEST PUSH1 0x20 DUP1 PUSH1 0x1F DUP8 GT PUSH1 0x1 EQ PUSH2 0x507 JUMPI POP SWAP5 DUP1 PUSH32 0x7BAB0EC163B5C132C72B8146AC4D6E067E82ED58F8B131150AA71C9258911562 SWAP6 SWAP7 PUSH1 0x0 SWAP2 PUSH2 0x4FC JUMPI JUMPDEST POP DUP2 PUSH1 0x1 SHL SWAP2 PUSH1 0x0 NOT SWAP1 PUSH1 0x3 SHL SHR NOT AND OR SWAP1 SSTORE JUMPDEST PUSH2 0x476 DUP3 PUSH2 0x2E2F JUMP JUMPDEST PUSH2 0x489 PUSH2 0x484 PUSH1 0xA SLOAD PUSH2 0x1B57 JUMP JUMPDEST PUSH1 0xA SSTORE JUMP JUMPDEST PUSH1 0xFF PUSH2 0x497 PUSH1 0xB SLOAD PUSH1 0xFF AND SWAP1 JUMP JUMPDEST AND PUSH2 0x4DE JUMPI PUSH2 0x4A5 DUP2 PUSH2 0x2F3C JUMP JUMPDEST PUSH2 0x4B4 PUSH1 0x40 MLOAD SWAP3 DUP4 SWAP3 DUP4 PUSH2 0x3039 JUMP JUMPDEST SUB SWAP1 LOG2 PUSH32 0x85E1543BF2F84FE80C6BADBCE3648C8539AD1DF4D2B3D822938CA0538BE727E6 PUSH1 0x0 DUP1 LOG2 STOP JUMPDEST PUSH2 0x4EF PUSH2 0x4EA DUP3 PUSH2 0x2F19 JUMP JUMPDEST PUSH1 0x1E SSTORE JUMP JUMPDEST PUSH2 0x4F7 PUSH2 0x30A9 JUMP JUMPDEST PUSH2 0x4A5 JUMP JUMPDEST SWAP1 POP DUP4 ADD MLOAD CODESIZE PUSH2 0x459 JUMP JUMPDEST PUSH1 0x4 PUSH1 0x0 MSTORE SWAP1 PUSH1 0x1F NOT DUP8 AND PUSH32 0x8A35ACFBC15FF81A39AE7D344FD709F28E8600B4AA8C65C6B64BFE7FE36BD19B SWAP3 PUSH1 0x0 SWAP1 JUMPDEST DUP3 DUP3 LT PUSH2 0x595 JUMPI POP POP SWAP2 DUP8 SWAP2 PUSH32 0x7BAB0EC163B5C132C72B8146AC4D6E067E82ED58F8B131150AA71C9258911562 SWAP8 SWAP9 PUSH1 0x1 SWAP5 LT PUSH2 0x57C JUMPI JUMPDEST POP POP DUP2 SHL ADD SWAP1 SSTORE PUSH2 0x46D JUMP JUMPDEST DUP6 ADD MLOAD PUSH1 0x0 NOT PUSH1 0xF8 DUP5 PUSH1 0x3 SHL AND SHR NOT AND SWAP1 SSTORE CODESIZE DUP1 PUSH2 0x570 JUMP JUMPDEST DUP7 DUP5 ADD MLOAD DUP6 SSTORE DUP11 SWAP9 POP PUSH1 0x1 SWAP1 SWAP5 ADD SWAP4 SWAP3 DUP4 ADD SWAP3 SWAP1 DUP2 ADD SWAP1 PUSH2 0x538 JUMP JUMPDEST DUP3 PUSH1 0x40 MLOAD PUSH32 0xC6829F8300000000000000000000000000000000000000000000000000000000 DUP2 MSTORE REVERT JUMPDEST CALLVALUE PUSH2 0x257 JUMPI PUSH1 0x0 CALLDATASIZE PUSH1 0x3 NOT ADD SLT PUSH2 0x257 JUMPI PUSH1 0x20 PUSH1 0x3 SLOAD PUSH1 0x40 MLOAD SWAP1 DUP2 MSTORE RETURN JUMPDEST CALLVALUE PUSH2 0x257 JUMPI PUSH1 0x0 CALLDATASIZE PUSH1 0x3 NOT ADD SLT PUSH2 0x257 JUMPI PUSH1 0x20 PUSH1 0x6 SLOAD PUSH4 0xFFFFFFFF PUSH1 0x40 MLOAD SWAP2 PUSH1 0x40 SHR AND DUP2 MSTORE RETURN JUMPDEST PUSH4 0x4E487B71 PUSH1 0xE0 SHL PUSH1 0x0 MSTORE PUSH1 0x32 PUSH1 0x4 MSTORE PUSH1 0x24 PUSH1 0x0 REVERT JUMPDEST PUSH1 0x1C SLOAD DUP2 LT ISZERO PUSH2 0x66C JUMPI PUSH1 0x1C PUSH1 0x0 MSTORE PUSH32 0xE4562A10381DEC21B205ED72637E6B1B523BDD0E4D4D50AF5CD23DD4500A211 ADD SWAP1 PUSH1 0x0 SWAP1 JUMP JUMPDEST PUSH2 0x61F JUMP JUMPDEST PUSH4 0x4E487B71 PUSH1 0xE0 SHL PUSH1 0x0 MSTORE PUSH1 0x0 PUSH1 0x4 MSTORE PUSH1 0x24 PUSH1 0x0 REVERT JUMPDEST SWAP1 PUSH1 0x1 DUP3 DUP2 SHR SWAP3 AND DUP1 ISZERO PUSH2 0x6B7 JUMPI JUMPDEST PUSH1 0x20 DUP4 LT EQ PUSH2 0x6A1 JUMPI JUMP JUMPDEST PUSH4 0x4E487B71 PUSH1 0xE0 SHL PUSH1 0x0 MSTORE PUSH1 0x22 PUSH1 0x4 MSTORE PUSH1 0x24 PUSH1 0x0 REVERT JUMPDEST SWAP2 PUSH1 0x7F AND SWAP2 PUSH2 0x696 JUMP JUMPDEST PUSH1 0x40 MLOAD SWAP1 PUSH1 0x0 DUP3 PUSH1 0x1D SLOAD SWAP2 PUSH2 0x6D5 DUP4 PUSH2 0x687 JUMP JUMPDEST DUP1 DUP4 MSTORE SWAP3 PUSH1 0x1 SWAP1 DUP2 DUP2 AND SWAP1 DUP2 ISZERO PUSH2 0x75D JUMPI POP PUSH1 0x1 EQ PUSH2 0x6FE JUMPI JUMPDEST POP PUSH2 0x6FC SWAP3 POP SUB DUP4 PUSH2 0x2ED JUMP JUMPDEST JUMP JUMPDEST PUSH1 0x1D PUSH1 0x0 SWAP1 DUP2 MSTORE SWAP2 POP PUSH32 0x6D4407E7BE21F808E6509AA9FA9143369579DD7D760FE20A2C09680FC146134F JUMPDEST DUP5 DUP4 LT PUSH2 0x742 JUMPI POP PUSH2 0x6FC SWAP4 POP POP DUP2 ADD PUSH1 0x20 ADD CODESIZE PUSH2 0x6EF JUMP JUMPDEST DUP2 SWAP4 POP SWAP1 DUP2 PUSH1 0x20 SWAP3 SLOAD DUP4 DUP6 DUP11 ADD ADD MSTORE ADD SWAP2 ADD SWAP1 SWAP2 DUP6 SWAP3 PUSH2 0x729 JUMP JUMPDEST SWAP1 POP PUSH1 0x20 SWAP3 POP PUSH2 0x6FC SWAP5 SWAP2 POP PUSH1 0xFF NOT AND DUP3 DUP5 ADD MSTORE ISZERO ISZERO PUSH1 0x5 SHL DUP3 ADD ADD CODESIZE PUSH2 0x6EF JUMP JUMPDEST SWAP1 PUSH1 0x40 MLOAD SWAP2 DUP3 PUSH1 0x0 DUP3 SLOAD SWAP3 PUSH2 0x793 DUP5 PUSH2 0x687 JUMP JUMPDEST SWAP1 DUP2 DUP5 MSTORE PUSH1 0x1 SWAP5 DUP6 DUP2 AND SWAP1 DUP2 PUSH1 0x0 EQ PUSH2 0x800 JUMPI POP PUSH1 0x1 EQ PUSH2 0x7BD JUMPI JUMPDEST POP POP PUSH2 0x6FC SWAP3 POP SUB DUP4 PUSH2 0x2ED JUMP JUMPDEST SWAP1 SWAP4 SWAP2 POP PUSH1 0x0 MSTORE PUSH1 0x20 SWAP1 DUP2 PUSH1 0x0 KECCAK256 SWAP4 PUSH1 0x0 SWAP2 JUMPDEST DUP2 DUP4 LT PUSH2 0x7E8 JUMPI POP POP PUSH2 0x6FC SWAP4 POP DUP3 ADD ADD CODESIZE DUP1 PUSH2 0x7AF JUMP JUMPDEST DUP6 SLOAD DUP9 DUP5 ADD DUP6 ADD MSTORE SWAP5 DUP6 ADD SWAP5 DUP8 SWAP5 POP SWAP2 DUP4 ADD SWAP2 PUSH2 0x7D0 JUMP JUMPDEST SWAP2 POP POP PUSH2 0x6FC SWAP5 POP PUSH1 0x20 SWAP3 POP PUSH1 0xFF NOT AND DUP3 DUP5 ADD MSTORE ISZERO ISZERO PUSH1 0x5 SHL DUP3 ADD ADD CODESIZE DUP1 PUSH2 0x7AF JUMP JUMPDEST PUSH1 0x0 JUMPDEST DUP3 DUP2 LT PUSH2 0x835 JUMPI POP PUSH1 0x0 SWAP2 ADD MSTORE JUMP JUMPDEST PUSH1 0x80 DUP2 ADD MLOAD DUP3 DUP3 ADD MSTORE PUSH1 0x20 ADD PUSH2 0x826 JUMP JUMPDEST SWAP2 SWAP1 DUP3 MLOAD SWAP3 DUP4 DUP3 MSTORE PUSH1 0x0 JUMPDEST DUP5 DUP2 LT PUSH2 0x872 JUMPI POP POP DUP3 PUSH1 0x0 PUSH1 0x20 DUP1 SWAP5 SWAP6 DUP5 ADD ADD MSTORE PUSH1 0x1F DUP1 NOT SWAP2 ADD AND ADD ADD SWAP1 JUMP JUMPDEST PUSH1 0x20 DUP2 DUP4 ADD DUP2 ADD MLOAD DUP5 DUP4 ADD DUP3 ADD MSTORE ADD PUSH2 0x851 JUMP JUMPDEST SWAP1 PUSH1 0x20 PUSH2 0x37D SWAP3 DUP2 DUP2 MSTORE ADD SWAP1 PUSH2 0x846 JUMP JUMPDEST CALLVALUE PUSH2 0x257 JUMPI PUSH1 0x20 CALLDATASIZE PUSH1 0x3 NOT ADD SLT PUSH2 0x257 JUMPI PUSH1 0x4 CALLDATALOAD PUSH1 0x1C SLOAD DUP2 LT ISZERO PUSH2 0x257 JUMPI PUSH2 0x8E8 PUSH2 0x8FC SWAP2 PUSH1 0x1C PUSH1 0x0 MSTORE PUSH32 0xE4562A10381DEC21B205ED72637E6B1B523BDD0E4D4D50AF5CD23DD4500A211 ADD PUSH2 0x77F JUMP JUMPDEST PUSH1 0x40 MLOAD SWAP2 DUP3 SWAP2 PUSH1 0x20 DUP4 MSTORE PUSH1 0x20 DUP4 ADD SWAP1 PUSH2 0x846 JUMP JUMPDEST SUB SWAP1 RETURN JUMPDEST CALLVALUE PUSH2 0x257 JUMPI PUSH1 0x0 CALLDATASIZE PUSH1 0x3 NOT ADD SLT PUSH2 0x257 JUMPI PUSH1 0x20 PUSH1 0x1 PUSH1 0x1 PUSH1 0xA0 SHL SUB PUSH1 0xB SLOAD PUSH1 0x8 SHR AND PUSH1 0x40 MLOAD SWAP1 DUP2 MSTORE RETURN JUMPDEST CALLVALUE PUSH2 0x257 JUMPI PUSH1 0x0 DUP1 PUSH1 0x3 NOT CALLDATASIZE ADD SLT PUSH2 0xA08 JUMPI PUSH1 0x40 MLOAD SWAP1 DUP1 PUSH1 0xD SLOAD PUSH2 0x94D DUP2 PUSH2 0x687 JUMP JUMPDEST DUP1 DUP6 MSTORE SWAP2 PUSH1 0x1 SWAP2 DUP1 DUP4 AND SWAP1 DUP2 ISZERO PUSH2 0x9DE JUMPI POP PUSH1 0x1 EQ PUSH2 0x983 JUMPI JUMPDEST PUSH2 0x8FC DUP6 PUSH2 0x977 DUP2 DUP8 SUB DUP3 PUSH2 0x2ED JUMP JUMPDEST PUSH1 0x40 MLOAD SWAP2 DUP3 SWAP2 DUP3 PUSH2 0x886 JUMP JUMPDEST SWAP3 POP PUSH1 0xD DUP4 MSTORE PUSH32 0xD7B6990105719101DABEB77144F2A3385C8033ACD3AF97E9423A695E81AD1EB5 JUMPDEST DUP3 DUP5 LT PUSH2 0x9C6 JUMPI POP POP POP DUP2 ADD PUSH1 0x20 ADD PUSH2 0x977 DUP3 PUSH2 0x8FC PUSH2 0x967 JUMP JUMPDEST DUP1 SLOAD PUSH1 0x20 DUP6 DUP8 ADD DUP2 ADD SWAP2 SWAP1 SWAP2 MSTORE SWAP1 SWAP4 ADD SWAP3 DUP2 ADD PUSH2 0x9AB JUMP JUMPDEST DUP7 SWAP6 POP PUSH2 0x8FC SWAP7 SWAP4 POP PUSH1 0x20 SWAP3 POP PUSH2 0x977 SWAP5 SWAP2 POP PUSH1 0xFF NOT AND DUP3 DUP5 ADD MSTORE ISZERO ISZERO PUSH1 0x5 SHL DUP3 ADD ADD SWAP3 SWAP4 PUSH2 0x967 JUMP JUMPDEST DUP1 REVERT JUMPDEST CALLVALUE PUSH2 0x257 JUMPI PUSH1 0x0 CALLDATASIZE PUSH1 0x3 NOT ADD SLT PUSH2 0x257 JUMPI PUSH1 0x20 PUSH1 0xA SLOAD PUSH1 0x40 MLOAD SWAP1 DUP2 MSTORE RETURN JUMPDEST CALLVALUE PUSH2 0x257 JUMPI PUSH1 0x0 DUP1 PUSH1 0x3 NOT CALLDATASIZE ADD SLT PUSH2 0xA08 JUMPI PUSH1 0x40 MLOAD SWAP1 DUP1 PUSH1 0x11 SLOAD PUSH2 0xA4C DUP2 PUSH2 0x687 JUMP JUMPDEST DUP1 DUP6 MSTORE SWAP2 PUSH1 0x1 SWAP2 DUP1 DUP4 AND SWAP1 DUP2 ISZERO PUSH2 0x9DE JUMPI POP PUSH1 0x1 EQ PUSH2 0xA75 JUMPI PUSH2 0x8FC DUP6 PUSH2 0x977 DUP2 DUP8 SUB DUP3 PUSH2 0x2ED JUMP JUMPDEST SWAP3 POP PUSH1 0x11 DUP4 MSTORE PUSH32 0x31ECC21A745E3968A04E9570E4425BC18FA8019C68028196B546D1669C200C68 JUMPDEST DUP3 DUP5 LT PUSH2 0xAB8 JUMPI POP POP POP DUP2 ADD PUSH1 0x20 ADD PUSH2 0x977 DUP3 PUSH2 0x8FC PUSH2 0x967 JUMP JUMPDEST DUP1 SLOAD PUSH1 0x20 DUP6 DUP8 ADD DUP2 ADD SWAP2 SWAP1 SWAP2 MSTORE SWAP1 SWAP4 ADD SWAP3 DUP2 ADD PUSH2 0xA9D JUMP JUMPDEST CALLVALUE PUSH2 0x257 JUMPI PUSH1 0x0 CALLDATASIZE PUSH1 0x3 NOT ADD SLT PUSH2 0x257 JUMPI PUSH1 0x20 PUSH1 0x15 SLOAD PUSH1 0x40 MLOAD SWAP1 DUP2 MSTORE RETURN JUMPDEST SWAP2 DUP2 PUSH1 0x1F DUP5 ADD SLT ISZERO PUSH2 0x257 JUMPI DUP3 CALLDATALOAD SWAP2 PUSH8 0xFFFFFFFFFFFFFFFF DUP4 GT PUSH2 0x257 JUMPI PUSH1 0x20 DUP4 DUP2 DUP7 ADD SWAP6 ADD ADD GT PUSH2 0x257 JUMPI JUMP JUMPDEST CALLVALUE PUSH2 0x257 JUMPI PUSH1 0x20 CALLDATASIZE PUSH1 0x3 NOT ADD SLT PUSH2 0x257 JUMPI PUSH1 0x4 CALLDATALOAD PUSH8 0xFFFFFFFFFFFFFFFF DUP2 GT PUSH2 0x257 JUMPI PUSH2 0xB4D SWAP1 CALLDATASIZE SWAP1 PUSH1 0x4 ADD PUSH2 0xAEE JUMP JUMPDEST POP POP PUSH1 0x0 SLOAD PUSH1 0x1 PUSH1 0x1 PUSH1 0xA0 SHL SUB AND CALLER DUP2 EQ ISZERO DUP1 PUSH2 0xBBE JUMPI JUMPDEST PUSH2 0xB73 JUMPI PUSH2 0xB71 PUSH2 0x29E0 JUMP JUMPDEST STOP JUMPDEST PUSH1 0x18 SLOAD PUSH1 0x40 MLOAD PUSH32 0x426FBC7100000000000000000000000000000000000000000000000000000000 DUP2 MSTORE CALLER PUSH1 0x4 DUP3 ADD MSTORE PUSH1 0x1 PUSH1 0x1 PUSH1 0xA0 SHL SUB SWAP3 DUP4 AND PUSH1 0x24 DUP3 ADD MSTORE SWAP2 AND PUSH1 0x44 DUP3 ADD MSTORE PUSH1 0x64 SWAP1 REVERT JUMPDEST POP PUSH2 0xBE0 PUSH2 0xBD4 PUSH1 0x18 SLOAD PUSH1 0x1 PUSH1 0x1 PUSH1 0xA0 SHL SUB AND SWAP1 JUMP JUMPDEST PUSH1 0x1 PUSH1 0x1 PUSH1 0xA0 SHL SUB AND SWAP1 JUMP JUMPDEST CALLER EQ ISZERO PUSH2 0xB65 JUMP JUMPDEST CALLVALUE PUSH2 0x257 JUMPI PUSH1 0x0 CALLDATASIZE PUSH1 0x3 NOT ADD SLT PUSH2 0x257 JUMPI PUSH1 0x20 PUSH1 0x14 SLOAD PUSH1 0x40 MLOAD SWAP1 DUP2 MSTORE RETURN JUMPDEST CALLVALUE PUSH2 0x257 JUMPI PUSH1 0x0 DUP1 PUSH1 0x3 NOT CALLDATASIZE ADD SLT PUSH2 0xA08 JUMPI PUSH1 0x40 MLOAD SWAP1 DUP1 PUSH1 0x12 SLOAD PUSH2 0xC29 DUP2 PUSH2 0x687 JUMP JUMPDEST DUP1 DUP6 MSTORE SWAP2 PUSH1 0x1 SWAP2 DUP1 DUP4 AND SWAP1 DUP2 ISZERO PUSH2 0x9DE JUMPI POP PUSH1 0x1 EQ PUSH2 0xC52 JUMPI PUSH2 0x8FC DUP6 PUSH2 0x977 DUP2 DUP8 SUB DUP3 PUSH2 0x2ED JUMP JUMPDEST SWAP3 POP PUSH1 0x12 DUP4 MSTORE PUSH32 0xBB8A6A4669BA250D26CD7A459ECA9D215F8307E33AEBE50379BC5A3617EC3444 JUMPDEST DUP3 DUP5 LT PUSH2 0xC95 JUMPI POP POP POP DUP2 ADD PUSH1 0x20 ADD PUSH2 0x977 DUP3 PUSH2 0x8FC PUSH2 0x967 JUMP JUMPDEST DUP1 SLOAD PUSH1 0x20 DUP6 DUP8 ADD DUP2 ADD SWAP2 SWAP1 SWAP2 MSTORE SWAP1 SWAP4 ADD SWAP3 DUP2 ADD PUSH2 0xC7A JUMP JUMPDEST CALLVALUE PUSH2 0x257 JUMPI PUSH1 0x0 CALLDATASIZE PUSH1 0x3 NOT ADD SLT PUSH2 0x257 JUMPI PUSH1 0x20 PUSH1 0x1 PUSH1 0x1 PUSH1 0xA0 SHL SUB PUSH1 0x18 SLOAD AND PUSH1 0x40 MLOAD SWAP1 DUP2 MSTORE RETURN JUMPDEST CALLVALUE PUSH2 0x257 JUMPI PUSH1 0x0 DUP1 PUSH1 0x3 NOT CALLDATASIZE ADD SLT PUSH2 0xA08 JUMPI PUSH1 0x40 MLOAD SWAP1 DUP1 PUSH1 0x2 SLOAD PUSH2 0xCF7 DUP2 PUSH2 0x687 JUMP JUMPDEST DUP1 DUP6 MSTORE SWAP2 PUSH1 0x1 SWAP2 DUP1 DUP4 AND SWAP1 DUP2 ISZERO PUSH2 0x9DE JUMPI POP PUSH1 0x1 EQ PUSH2 0xD20 JUMPI PUSH2 0x8FC DUP6 PUSH2 0x977 DUP2 DUP8 SUB DUP3 PUSH2 0x2ED JUMP JUMPDEST SWAP3 POP PUSH1 0x2 DUP4 MSTORE PUSH32 0x405787FA12A823E0F2B7631CC41B3BA8828B3321CA811111FA75CD3AA3BB5ACE JUMPDEST DUP3 DUP5 LT PUSH2 0xD63 JUMPI POP POP POP DUP2 ADD PUSH1 0x20 ADD PUSH2 0x977 DUP3 PUSH2 0x8FC PUSH2 0x967 JUMP JUMPDEST DUP1 SLOAD PUSH1 0x20 DUP6 DUP8 ADD DUP2 ADD SWAP2 SWAP1 SWAP2 MSTORE SWAP1 SWAP4 ADD SWAP3 DUP2 ADD PUSH2 0xD48 JUMP JUMPDEST CALLVALUE PUSH2 0x257 JUMPI PUSH1 0x20 CALLDATASIZE PUSH1 0x3 NOT ADD SLT PUSH2 0x257 JUMPI PUSH1 0x4 CALLDATALOAD PUSH8 0xFFFFFFFFFFFFFFFF DUP2 GT PUSH2 0x257 JUMPI PUSH2 0xDAC SWAP1 CALLDATASIZE SWAP1 PUSH1 0x4 ADD PUSH2 0x362 JUMP JUMPDEST POP PUSH1 0x8 SLOAD TIMESTAMP SUB TIMESTAMP DUP2 GT PUSH2 0xDEF JUMPI PUSH1 0x7 SLOAD LT PUSH1 0x40 MLOAD SWAP1 DUP2 MSTORE PUSH1 0x40 PUSH1 0x20 DUP3 ADD MSTORE PUSH1 0x60 DUP2 DUP2 MLOAD DUP1 PUSH1 0x40 DUP4 ADD MSTORE PUSH2 0xDE1 DUP2 DUP5 DUP5 ADD PUSH2 0x823 JUMP JUMPDEST PUSH1 0x1F ADD PUSH1 0x1F NOT AND DUP2 ADD SUB ADD SWAP1 RETURN JUMPDEST PUSH2 0x1797 JUMP JUMPDEST CALLVALUE PUSH2 0x257 JUMPI PUSH1 0x0 CALLDATASIZE PUSH1 0x3 NOT ADD SLT PUSH2 0x257 JUMPI PUSH1 0x20 PUSH1 0xF SLOAD PUSH1 0x40 MLOAD SWAP1 DUP2 MSTORE RETURN JUMPDEST CALLVALUE PUSH2 0x257 JUMPI PUSH1 0x0 DUP1 PUSH1 0x3 NOT CALLDATASIZE ADD SLT PUSH2 0xA08 JUMPI PUSH1 0x1 PUSH1 0x1 PUSH1 0xA0 SHL SUB DUP1 PUSH1 0x1 SLOAD AND CALLER SUB PUSH2 0xEAE JUMPI DUP2 SLOAD PUSH1 0x1 PUSH1 0x1 PUSH1 0xA0 SHL SUB AND PUSH1 0x0 DUP1 SLOAD PUSH20 0xFFFFFFFFFFFFFFFFFFFFFFFFFFFFFFFFFFFFFFFF NOT AND CALLER OR SWAP1 SSTORE SWAP1 PUSH2 0xE84 PUSH20 0xFFFFFFFFFFFFFFFFFFFFFFFFFFFFFFFFFFFFFFFF NOT PUSH1 0x1 SLOAD AND PUSH1 0x1 SSTORE JUMP JUMPDEST CALLER SWAP2 AND PUSH32 0x8BE0079C531659141344CD1FD0A4F28419497F9722A3DAAFE3B4186F6B6457E0 DUP4 DUP1 LOG3 DUP1 RETURN JUMPDEST PUSH1 0x64 PUSH1 0x40 MLOAD PUSH3 0x461BCD PUSH1 0xE5 SHL DUP2 MSTORE PUSH1 0x20 PUSH1 0x4 DUP3 ADD MSTORE PUSH1 0x16 PUSH1 0x24 DUP3 ADD MSTORE PUSH32 0x4D7573742062652070726F706F736564206F776E657200000000000000000000 PUSH1 0x44 DUP3 ADD MSTORE REVERT JUMPDEST CALLVALUE PUSH2 0x257 JUMPI PUSH1 0x0 CALLDATASIZE PUSH1 0x3 NOT ADD SLT PUSH2 0x257 JUMPI PUSH1 0x20 PUSH1 0x40 MLOAD PUSH1 0x1 PUSH1 0x1 PUSH1 0xA0 SHL SUB PUSH32 0x0 AND DUP2 MSTORE RETURN JUMPDEST CALLVALUE PUSH2 0x257 JUMPI PUSH1 0x0 CALLDATASIZE PUSH1 0x3 NOT ADD SLT PUSH2 0x257 JUMPI PUSH1 0x20 SELFBALANCE PUSH1 0x40 MLOAD SWAP1 DUP2 MSTORE RETURN JUMPDEST CALLVALUE PUSH2 0x257 JUMPI PUSH1 0x0 CALLDATASIZE PUSH1 0x3 NOT ADD SLT PUSH2 0x257 JUMPI PUSH1 0x20 PUSH1 0x1 PUSH1 0x1 PUSH1 0xA0 SHL SUB PUSH1 0x0 SLOAD AND PUSH1 0x40 MLOAD SWAP1 DUP2 MSTORE RETURN JUMPDEST CALLVALUE PUSH2 0x257 JUMPI PUSH1 0x0 CALLDATASIZE PUSH1 0x3 NOT ADD SLT PUSH2 0x257 JUMPI PUSH1 0x20 PUSH1 0x9 SLOAD PUSH1 0x40 MLOAD SWAP1 DUP2 MSTORE RETURN JUMPDEST CALLVALUE PUSH2 0x257 JUMPI PUSH1 0x0 CALLDATASIZE PUSH1 0x3 NOT ADD SLT PUSH2 0x257 JUMPI PUSH1 0x20 PUSH1 0x10 SLOAD PUSH1 0x40 MLOAD SWAP1 DUP2 MSTORE RETURN JUMPDEST CALLVALUE PUSH2 0x257 JUMPI PUSH1 0x0 DUP1 PUSH1 0x3 NOT CALLDATASIZE ADD SLT PUSH2 0xA08 JUMPI PUSH1 0x40 MLOAD SWAP1 DUP1 PUSH1 0x4 SLOAD PUSH2 0xFD8 DUP2 PUSH2 0x687 JUMP JUMPDEST DUP1 DUP6 MSTORE SWAP2 PUSH1 0x1 SWAP2 DUP1 DUP4 AND SWAP1 DUP2 ISZERO PUSH2 0x9DE JUMPI POP PUSH1 0x1 EQ PUSH2 0x1001 JUMPI PUSH2 0x8FC DUP6 PUSH2 0x977 DUP2 DUP8 SUB DUP3 PUSH2 0x2ED JUMP JUMPDEST SWAP3 POP PUSH1 0x4 DUP4 MSTORE PUSH32 0x8A35ACFBC15FF81A39AE7D344FD709F28E8600B4AA8C65C6B64BFE7FE36BD19B JUMPDEST DUP3 DUP5 LT PUSH2 0x1044 JUMPI POP POP POP DUP2 ADD PUSH1 0x20 ADD PUSH2 0x977 DUP3 PUSH2 0x8FC PUSH2 0x967 JUMP JUMPDEST DUP1 SLOAD PUSH1 0x20 DUP6 DUP8 ADD DUP2 ADD SWAP2 SWAP1 SWAP2 MSTORE SWAP1 SWAP4 ADD SWAP3 DUP2 ADD PUSH2 0x1029 JUMP JUMPDEST CALLVALUE PUSH2 0x257 JUMPI PUSH1 0x0 CALLDATASIZE PUSH1 0x3 NOT ADD SLT PUSH2 0x257 JUMPI PUSH1 0x20 PUSH1 0x1 PUSH1 0x1 PUSH1 0xA0 SHL SUB PUSH1 0x16 SLOAD AND PUSH1 0x40 MLOAD SWAP1 DUP2 MSTORE RETURN JUMPDEST CALLVALUE PUSH2 0x257 JUMPI PUSH1 0x0 CALLDATASIZE PUSH1 0x3 NOT ADD SLT PUSH2 0x257 JUMPI PUSH1 0x20 PUSH1 0x1 PUSH1 0x1 PUSH1 0xA0 SHL SUB PUSH1 0x17 SLOAD AND PUSH1 0x40 MLOAD SWAP1 DUP2 MSTORE RETURN JUMPDEST CALLVALUE PUSH2 0x257 JUMPI PUSH1 0x80 CALLDATASIZE PUSH1 0x3 NOT ADD SLT PUSH2 0x257 JUMPI PUSH1 0x4 CALLDATALOAD PUSH8 0xFFFFFFFFFFFFFFFF DUP1 DUP3 AND DUP1 SWAP3 SUB PUSH2 0x257 JUMPI PUSH1 0x24 CALLDATALOAD SWAP1 PUSH4 0xFFFFFFFF DUP3 AND DUP3 SUB PUSH2 0x257 JUMPI PUSH1 0x64 CALLDATALOAD DUP2 DUP2 GT PUSH2 0x257 JUMPI PUSH2 0x10FA SWAP1 CALLDATASIZE SWAP1 PUSH1 0x4 ADD PUSH2 0xAEE JUMP JUMPDEST SWAP3 SWAP1 SWAP4 PUSH2 0x1105 PUSH2 0x148E JUMP JUMPDEST PUSH1 0x44 CALLDATALOAD PUSH1 0x7 SSTORE PUSH12 0xFFFFFFFF0000000000000000 PUSH1 0x6 SLOAD SWAP3 PUSH1 0x40 SHL AND SWAP2 PUSH12 0xFFFFFFFFFFFFFFFFFFFFFFFF NOT AND OR OR PUSH1 0x6 SSTORE DUP2 GT PUSH2 0x2D4 JUMPI PUSH2 0x114F DUP2 PUSH2 0x114A PUSH1 0x2 SLOAD PUSH2 0x687 JUMP JUMPDEST PUSH2 0x2618 JUMP JUMPDEST PUSH1 0x0 PUSH1 0x1F DUP3 GT PUSH1 0x1 EQ PUSH2 0x118A JUMPI DUP2 SWAP3 PUSH1 0x0 SWAP3 PUSH2 0x117F JUMPI JUMPDEST POP POP PUSH1 0x0 NOT PUSH1 0x3 DUP4 SWAP1 SHL SHR NOT AND PUSH1 0x1 SWAP2 SWAP1 SWAP2 SHL OR PUSH1 0x2 SSTORE STOP JUMPDEST ADD CALLDATALOAD SWAP1 POP CODESIZE DUP1 PUSH2 0x1166 JUMP JUMPDEST PUSH1 0x2 PUSH1 0x0 MSTORE PUSH1 0x1F NOT DUP3 AND SWAP3 PUSH32 0x405787FA12A823E0F2B7631CC41B3BA8828B3321CA811111FA75CD3AA3BB5ACE SWAP2 DUP1 JUMPDEST DUP6 DUP2 LT PUSH2 0x11F0 JUMPI POP DUP4 PUSH1 0x1 SWAP6 LT PUSH2 0x11D6 JUMPI JUMPDEST POP POP POP DUP2 SHL ADD PUSH1 0x2 SSTORE STOP JUMPDEST ADD CALLDATALOAD PUSH1 0x0 NOT PUSH1 0x3 DUP5 SWAP1 SHL PUSH1 0xF8 AND SHR NOT AND SWAP1 SSTORE CODESIZE DUP1 DUP1 PUSH2 0x11CB JUMP JUMPDEST SWAP1 SWAP3 PUSH1 0x20 PUSH1 0x1 DUP2 SWAP3 DUP7 DUP7 ADD CALLDATALOAD DUP2 SSTORE ADD SWAP5 ADD SWAP2 ADD PUSH2 0x11B9 JUMP JUMPDEST CALLVALUE PUSH2 0x257 JUMPI PUSH1 0x0 CALLDATASIZE PUSH1 0x3 NOT ADD SLT PUSH2 0x257 JUMPI PUSH1 0x20 PUSH1 0x1B SLOAD PUSH1 0x40 MLOAD SWAP1 DUP2 MSTORE RETURN JUMPDEST CALLVALUE PUSH2 0x257 JUMPI PUSH1 0x20 CALLDATASIZE PUSH1 0x3 NOT ADD SLT PUSH2 0x257 JUMPI PUSH1 0x4 CALLDATALOAD PUSH1 0x1 PUSH1 0x1 PUSH1 0xA0 SHL SUB DUP2 AND DUP1 SWAP2 SUB PUSH2 0x257 JUMPI PUSH2 0x1253 PUSH2 0x148E JUMP JUMPDEST CALLER DUP2 EQ PUSH2 0x12B5 JUMPI DUP1 PUSH20 0xFFFFFFFFFFFFFFFFFFFFFFFFFFFFFFFFFFFFFFFF NOT PUSH1 0x1 SLOAD AND OR PUSH1 0x1 SSTORE PUSH2 0x128E PUSH2 0xBD4 PUSH1 0x0 SLOAD PUSH1 0x1 PUSH1 0x1 PUSH1 0xA0 SHL SUB AND SWAP1 JUMP JUMPDEST PUSH32 0xED8889F560326EB138920D842192F0EB3DD22B4F139C87A2C57538E05BAE1278 PUSH1 0x0 DUP1 LOG3 STOP JUMPDEST PUSH1 0x64 PUSH1 0x40 MLOAD PUSH3 0x461BCD PUSH1 0xE5 SHL DUP2 MSTORE PUSH1 0x20 PUSH1 0x4 DUP3 ADD MSTORE PUSH1 0x17 PUSH1 0x24 DUP3 ADD MSTORE PUSH32 0x43616E6E6F74207472616E7366657220746F2073656C66000000000000000000 PUSH1 0x44 DUP3 ADD MSTORE REVERT JUMPDEST CALLVALUE PUSH2 0x257 JUMPI PUSH1 0x0 CALLDATASIZE PUSH1 0x3 NOT ADD SLT PUSH2 0x257 JUMPI PUSH1 0x20 PUSH1 0x13 SLOAD PUSH1 0x40 MLOAD SWAP1 DUP2 MSTORE RETURN JUMPDEST CALLVALUE PUSH2 0x257 JUMPI PUSH1 0x0 CALLDATASIZE PUSH1 0x3 NOT ADD SLT PUSH2 0x257 JUMPI PUSH1 0x20 PUSH4 0xFFFFFFFF PUSH1 0xE SLOAD AND PUSH1 0x40 MLOAD SWAP1 DUP2 MSTORE RETURN JUMPDEST CALLVALUE PUSH2 0x257 JUMPI PUSH1 0x0 CALLDATASIZE PUSH1 0x3 NOT ADD SLT PUSH2 0x257 JUMPI PUSH1 0x20 PUSH1 0x7 SLOAD PUSH1 0x40 MLOAD SWAP1 DUP2 MSTORE RETURN JUMPDEST CALLVALUE PUSH2 0x257 JUMPI PUSH1 0x60 CALLDATASIZE PUSH1 0x3 NOT ADD SLT PUSH2 0x257 JUMPI PUSH8 0xFFFFFFFFFFFFFFFF PUSH1 0x4 CALLDATALOAD DUP2 DUP2 GT PUSH2 0x257 JUMPI PUSH2 0x138B SWAP1 CALLDATASIZE SWAP1 PUSH1 0x4 ADD PUSH2 0xAEE JUMP JUMPDEST SWAP2 PUSH1 0x24 CALLDATALOAD DUP2 DUP2 GT PUSH2 0x257 JUMPI PUSH2 0x13A4 SWAP1 CALLDATASIZE SWAP1 PUSH1 0x4 ADD PUSH2 0xAEE JUMP JUMPDEST PUSH1 0x44 CALLDATALOAD SWAP4 SWAP2 DUP4 DUP6 GT PUSH2 0x257 JUMPI CALLDATASIZE PUSH1 0x23 DUP7 ADD SLT ISZERO PUSH2 0x257 JUMPI DUP5 PUSH1 0x4 ADD CALLDATALOAD SWAP4 DUP5 GT PUSH2 0x257 JUMPI CALLDATASIZE PUSH1 0x24 DUP6 PUSH1 0x5 SHL DUP8 ADD ADD GT PUSH2 0x257 JUMPI PUSH2 0x8FC SWAP6 PUSH1 0x24 PUSH2 0x977 SWAP7 ADD SWAP4 PUSH2 0x1548 JUMP JUMPDEST CALLVALUE PUSH2 0x257 JUMPI PUSH1 0x0 DUP1 PUSH1 0x3 NOT CALLDATASIZE ADD SLT PUSH2 0xA08 JUMPI PUSH1 0x40 MLOAD SWAP1 DUP1 PUSH1 0x5 SLOAD PUSH2 0x140A DUP2 PUSH2 0x687 JUMP JUMPDEST DUP1 DUP6 MSTORE SWAP2 PUSH1 0x1 SWAP2 DUP1 DUP4 AND SWAP1 DUP2 ISZERO PUSH2 0x9DE JUMPI POP PUSH1 0x1 EQ PUSH2 0x1433 JUMPI PUSH2 0x8FC DUP6 PUSH2 0x977 DUP2 DUP8 SUB DUP3 PUSH2 0x2ED JUMP JUMPDEST SWAP3 POP PUSH1 0x5 DUP4 MSTORE PUSH32 0x36B6384B5ECA791C62761152D0C79BB0604C104A5FB6F4EB0703F3154BB3DB0 JUMPDEST DUP3 DUP5 LT PUSH2 0x1476 JUMPI POP POP POP DUP2 ADD PUSH1 0x20 ADD PUSH2 0x977 DUP3 PUSH2 0x8FC PUSH2 0x967 JUMP JUMPDEST DUP1 SLOAD PUSH1 0x20 DUP6 DUP8 ADD DUP2 ADD SWAP2 SWAP1 SWAP2 MSTORE SWAP1 SWAP4 ADD SWAP3 DUP2 ADD PUSH2 0x145B JUMP JUMPDEST PUSH1 0x1 PUSH1 0x1 PUSH1 0xA0 SHL SUB PUSH1 0x0 SLOAD AND CALLER SUB PUSH2 0x14A2 JUMPI JUMP JUMPDEST PUSH1 0x64 PUSH1 0x40 MLOAD PUSH3 0x461BCD PUSH1 0xE5 SHL DUP2 MSTORE PUSH1 0x20 PUSH1 0x4 DUP3 ADD MSTORE PUSH1 0x16 PUSH1 0x24 DUP3 ADD MSTORE PUSH32 0x4F6E6C792063616C6C61626C65206279206F776E657200000000000000000000 PUSH1 0x44 DUP3 ADD MSTORE REVERT JUMPDEST PUSH1 0x40 MLOAD SWAP1 PUSH1 0xE0 DUP3 ADD DUP3 DUP2 LT PUSH8 0xFFFFFFFFFFFFFFFF DUP3 GT OR PUSH2 0x2D4 JUMPI PUSH1 0x40 MSTORE PUSH1 0x60 PUSH1 0xC0 DUP4 PUSH1 0x0 DUP2 MSTORE PUSH1 0x0 PUSH1 0x20 DUP3 ADD MSTORE PUSH1 0x0 PUSH1 0x40 DUP3 ADD MSTORE DUP3 DUP1 DUP3 ADD MSTORE DUP3 PUSH1 0x80 DUP3 ADD MSTORE DUP3 PUSH1 0xA0 DUP3 ADD MSTORE ADD MSTORE JUMP JUMPDEST PUSH8 0xFFFFFFFFFFFFFFFF DUP2 GT PUSH2 0x2D4 JUMPI PUSH1 0x5 SHL PUSH1 0x20 ADD SWAP1 JUMP JUMPDEST PUSH2 0x1564 PUSH2 0x156A SWAP2 SWAP7 SWAP5 SWAP4 SWAP3 SWAP7 PUSH2 0x155C PUSH2 0x14E6 JUMP JUMPDEST SWAP8 CALLDATASIZE SWAP2 PUSH2 0x32B JUMP JUMPDEST DUP7 PUSH2 0x1A66 JUMP JUMPDEST DUP2 PUSH2 0x1611 JUMPI JUMPDEST POP POP DUP1 PUSH2 0x1583 JUMPI JUMPDEST POP POP PUSH2 0x37D SWAP1 PUSH2 0x187B JUMP JUMPDEST PUSH2 0x158C DUP2 PUSH2 0x1530 JUMP JUMPDEST SWAP2 PUSH2 0x159A PUSH1 0x40 MLOAD SWAP4 DUP5 PUSH2 0x2ED JUMP JUMPDEST DUP2 DUP4 MSTORE PUSH1 0x20 SWAP2 DUP3 DUP5 ADD SWAP1 PUSH1 0x5 SHL DUP3 ADD SWAP2 CALLDATASIZE DUP4 GT PUSH2 0x257 JUMPI DUP1 SWAP2 JUMPDEST DUP4 DUP4 LT PUSH2 0x15D5 JUMPI POP POP POP POP POP SWAP1 PUSH2 0x15CE PUSH2 0x37D SWAP3 DUP3 PUSH2 0x1AA7 JUMP JUMPDEST SWAP1 CODESIZE PUSH2 0x1578 JUMP JUMPDEST DUP3 CALLDATALOAD PUSH8 0xFFFFFFFFFFFFFFFF DUP2 GT PUSH2 0x257 JUMPI DUP3 ADD CALLDATASIZE PUSH1 0x1F DUP3 ADD SLT ISZERO PUSH2 0x257 JUMPI DUP6 SWAP2 PUSH2 0x1606 DUP4 SWAP3 CALLDATASIZE SWAP1 DUP5 DUP2 CALLDATALOAD SWAP2 ADD PUSH2 0x32B JUMP JUMPDEST DUP2 MSTORE ADD SWAP3 ADD SWAP2 PUSH2 0x15B4 JUMP JUMPDEST PUSH2 0x161C SWAP2 CALLDATASIZE SWAP2 PUSH2 0x32B JUMP JUMPDEST DUP1 MLOAD ISZERO PUSH2 0x1636 JUMPI PUSH1 0x1 PUSH1 0x20 DUP6 ADD MSTORE PUSH1 0x80 DUP5 ADD MSTORE CODESIZE DUP1 PUSH2 0x1570 JUMP JUMPDEST PUSH1 0x4 PUSH1 0x40 MLOAD PUSH32 0xE889636F00000000000000000000000000000000000000000000000000000000 DUP2 MSTORE REVERT JUMPDEST PUSH1 0x40 MLOAD SWAP1 PUSH1 0x20 DUP3 ADD DUP3 DUP2 LT PUSH8 0xFFFFFFFFFFFFFFFF DUP3 GT OR PUSH2 0x2D4 JUMPI PUSH1 0x40 MSTORE PUSH1 0x0 DUP3 MSTORE JUMP JUMPDEST PUSH1 0x40 MLOAD SWAP1 PUSH2 0x1691 DUP3 PUSH2 0x2B8 JUMP JUMPDEST PUSH1 0xC DUP3 MSTORE PUSH32 0x636F64654C6F636174696F6E0000000000000000000000000000000000000000 PUSH1 0x20 DUP4 ADD MSTORE JUMP JUMPDEST PUSH4 0x4E487B71 PUSH1 0xE0 SHL PUSH1 0x0 MSTORE PUSH1 0x21 PUSH1 0x4 MSTORE PUSH1 0x24 PUSH1 0x0 REVERT JUMPDEST PUSH1 0x3 GT ISZERO PUSH2 0x16DD JUMPI JUMP JUMPDEST PUSH2 0x16BD JUMP JUMPDEST PUSH1 0x40 MLOAD SWAP1 PUSH2 0x16EF DUP3 PUSH2 0x2B8 JUMP JUMPDEST PUSH1 0x8 DUP3 MSTORE PUSH32 0x6C616E6775616765000000000000000000000000000000000000000000000000 PUSH1 0x20 DUP4 ADD MSTORE JUMP JUMPDEST PUSH1 0x1 GT ISZERO PUSH2 0x16DD JUMPI JUMP JUMPDEST PUSH1 0x40 MLOAD SWAP1 PUSH2 0x1732 DUP3 PUSH2 0x2B8 JUMP JUMPDEST PUSH1 0x6 DUP3 MSTORE PUSH32 0x736F757263650000000000000000000000000000000000000000000000000000 PUSH1 0x20 DUP4 ADD MSTORE JUMP JUMPDEST PUSH1 0x40 MLOAD SWAP1 PUSH2 0x176B DUP3 PUSH2 0x2B8 JUMP JUMPDEST PUSH1 0x4 DUP3 MSTORE PUSH32 0x6172677300000000000000000000000000000000000000000000000000000000 PUSH1 0x20 DUP4 ADD MSTORE JUMP JUMPDEST PUSH4 0x4E487B71 PUSH1 0xE0 SHL PUSH1 0x0 MSTORE PUSH1 0x11 PUSH1 0x4 MSTORE PUSH1 0x24 PUSH1 0x0 REVERT JUMPDEST PUSH1 0x0 NOT DUP2 EQ PUSH2 0xDEF JUMPI PUSH1 0x1 ADD SWAP1 JUMP JUMPDEST DUP1 MLOAD DUP3 LT ISZERO PUSH2 0x66C JUMPI PUSH1 0x20 SWAP2 PUSH1 0x5 SHL ADD ADD SWAP1 JUMP JUMPDEST PUSH1 0x40 MLOAD SWAP1 PUSH2 0x17DD DUP3 PUSH2 0x2B8 JUMP JUMPDEST PUSH1 0xF DUP3 MSTORE PUSH32 0x736563726574734C6F636174696F6E0000000000000000000000000000000000 PUSH1 0x20 DUP4 ADD MSTORE JUMP JUMPDEST PUSH1 0x40 MLOAD SWAP1 PUSH2 0x1816 DUP3 PUSH2 0x2B8 JUMP JUMPDEST PUSH1 0x7 DUP3 MSTORE PUSH32 0x7365637265747300000000000000000000000000000000000000000000000000 PUSH1 0x20 DUP4 ADD MSTORE JUMP JUMPDEST PUSH1 0x40 MLOAD SWAP1 PUSH2 0x184F DUP3 PUSH2 0x2B8 JUMP JUMPDEST PUSH1 0x9 DUP3 MSTORE PUSH32 0x6279746573417267730000000000000000000000000000000000000000000000 PUSH1 0x20 DUP4 ADD MSTORE JUMP JUMPDEST PUSH2 0x1883 PUSH2 0x1AF8 JUMP JUMPDEST SWAP1 PUSH2 0x1895 PUSH2 0x188F PUSH2 0x1684 JUMP JUMPDEST DUP4 PUSH2 0x225F JUMP JUMPDEST PUSH2 0x18B2 DUP2 MLOAD PUSH2 0x18A3 DUP2 PUSH2 0x16D3 JUMP JUMPDEST PUSH2 0x18AC DUP2 PUSH2 0x16D3 JUMP JUMPDEST DUP4 PUSH2 0x1BD2 JUMP JUMPDEST PUSH2 0x18BD PUSH2 0x188F PUSH2 0x16E2 JUMP JUMPDEST PUSH2 0x18D7 PUSH1 0x40 DUP3 ADD MLOAD PUSH2 0x18CE DUP2 PUSH2 0x171B JUMP JUMPDEST PUSH2 0x18AC DUP2 PUSH2 0x171B JUMP JUMPDEST PUSH2 0x18E2 PUSH2 0x188F PUSH2 0x1725 JUMP JUMPDEST PUSH2 0x18F0 PUSH1 0x60 DUP3 ADD MLOAD DUP4 PUSH2 0x225F JUMP JUMPDEST PUSH1 0xA0 DUP2 ADD DUP1 MLOAD MLOAD PUSH2 0x1A0D JUMPI JUMPDEST POP PUSH1 0x80 DUP2 ADD SWAP1 DUP2 MLOAD MLOAD PUSH2 0x1975 JUMPI JUMPDEST PUSH1 0xC0 SWAP2 POP ADD DUP1 MLOAD MLOAD PUSH2 0x191D JUMPI JUMPDEST POP MLOAD MLOAD SWAP1 JUMP JUMPDEST SWAP2 PUSH2 0x1929 PUSH2 0x188F PUSH2 0x1842 JUMP JUMPDEST PUSH2 0x1932 DUP3 PUSH2 0x22E4 JUMP JUMPDEST PUSH1 0x0 JUMPDEST DUP4 MLOAD DUP1 MLOAD DUP3 LT ISZERO PUSH2 0x1962 JUMPI SWAP1 PUSH2 0x1958 PUSH2 0x1951 DUP3 PUSH2 0x195D SWAP5 PUSH2 0x17BC JUMP JUMPDEST MLOAD DUP6 PUSH2 0x21A9 JUMP JUMPDEST PUSH2 0x17AD JUMP JUMPDEST PUSH2 0x1935 JUMP JUMPDEST POP POP SWAP2 POP PUSH2 0x196F DUP2 PUSH2 0x2370 JUMP JUMPDEST CODESIZE PUSH2 0x1917 JUMP JUMPDEST PUSH1 0x20 DUP2 ADD DUP1 MLOAD PUSH2 0x1984 DUP2 PUSH2 0x16D3 JUMP JUMPDEST PUSH2 0x198D DUP2 PUSH2 0x16D3 JUMP JUMPDEST ISZERO PUSH2 0x19E3 JUMPI PUSH1 0xC0 SWAP3 PUSH2 0x19C6 PUSH2 0x19DE SWAP3 PUSH2 0x19AD PUSH2 0x19A7 PUSH2 0x17D0 JUMP JUMPDEST DUP9 PUSH2 0x225F JUMP JUMPDEST MLOAD PUSH2 0x19B7 DUP2 PUSH2 0x16D3 JUMP JUMPDEST PUSH2 0x19C0 DUP2 PUSH2 0x16D3 JUMP JUMPDEST DUP7 PUSH2 0x1BD2 JUMP JUMPDEST PUSH2 0x19D7 PUSH2 0x19D1 PUSH2 0x1809 JUMP JUMPDEST DUP7 PUSH2 0x225F JUMP JUMPDEST MLOAD DUP5 PUSH2 0x21A9 JUMP JUMPDEST PUSH2 0x190A JUMP JUMPDEST PUSH1 0x4 PUSH1 0x40 MLOAD PUSH32 0xA80D31F700000000000000000000000000000000000000000000000000000000 DUP2 MSTORE REVERT JUMPDEST SWAP3 PUSH2 0x1A1F PUSH2 0x1A19 PUSH2 0x175E JUMP JUMPDEST DUP5 PUSH2 0x225F JUMP JUMPDEST PUSH2 0x1A28 DUP4 PUSH2 0x22E4 JUMP JUMPDEST PUSH1 0x0 JUMPDEST DUP5 MLOAD DUP1 MLOAD DUP3 LT ISZERO PUSH2 0x1A53 JUMPI SWAP1 PUSH2 0x1958 PUSH2 0x1A47 DUP3 PUSH2 0x1A4E SWAP5 PUSH2 0x17BC JUMP JUMPDEST MLOAD DUP7 PUSH2 0x225F JUMP JUMPDEST PUSH2 0x1A2B JUMP JUMPDEST POP POP SWAP3 POP PUSH2 0x1A60 DUP3 PUSH2 0x2370 JUMP JUMPDEST CODESIZE PUSH2 0x18FC JUMP JUMPDEST DUP2 MLOAD ISZERO PUSH2 0x1A7D JUMPI PUSH1 0x0 DUP1 DUP3 MSTORE PUSH1 0x40 DUP3 ADD MSTORE PUSH1 0x60 ADD MSTORE JUMP JUMPDEST PUSH1 0x4 PUSH1 0x40 MLOAD PUSH32 0x22CE3EDD00000000000000000000000000000000000000000000000000000000 DUP2 MSTORE REVERT JUMPDEST DUP2 MLOAD ISZERO PUSH2 0x1AB4 JUMPI PUSH1 0xA0 ADD MSTORE JUMP JUMPDEST PUSH1 0x4 PUSH1 0x40 MLOAD PUSH32 0xFE936CB700000000000000000000000000000000000000000000000000000000 DUP2 MSTORE REVERT JUMPDEST PUSH1 0x40 MLOAD SWAP1 PUSH2 0x1AEB DUP3 PUSH2 0x2B8 JUMP JUMPDEST PUSH1 0x0 PUSH1 0x20 DUP4 PUSH1 0x60 DUP2 MSTORE ADD MSTORE JUMP JUMPDEST PUSH1 0x40 MLOAD PUSH2 0x1B04 DUP2 PUSH2 0x2B8 JUMP JUMPDEST PUSH2 0x1B0C PUSH2 0x1ADE JUMP JUMPDEST DUP1 DUP3 MSTORE PUSH1 0x20 DUP3 ADD PUSH1 0x0 DUP2 MSTORE PUSH2 0x1B1F PUSH2 0x1ADE JUMP JUMPDEST POP PUSH2 0x100 PUSH1 0x20 DUP4 ADD MSTORE PUSH1 0x40 MLOAD DUP1 SWAP3 MSTORE PUSH1 0x0 DUP3 MSTORE PUSH2 0x120 DUP3 ADD SWAP2 DUP3 LT PUSH2 0x257 JUMPI PUSH1 0x0 SWAP2 PUSH1 0x40 MSTORE MSTORE SWAP1 JUMP JUMPDEST PUSH1 0x1F NOT DUP2 ADD SWAP2 SWAP1 DUP3 GT PUSH2 0xDEF JUMPI JUMP JUMPDEST SWAP1 PUSH1 0x1 DUP3 ADD DUP1 SWAP3 GT PUSH2 0xDEF JUMPI JUMP JUMPDEST SWAP1 PUSH1 0x20 DUP3 ADD DUP1 SWAP3 GT PUSH2 0xDEF JUMPI JUMP JUMPDEST SWAP2 SWAP1 DUP3 ADD DUP1 SWAP3 GT PUSH2 0xDEF JUMPI JUMP JUMPDEST SWAP1 PUSH2 0x1B89 PUSH2 0x1ADE JUMP JUMPDEST POP PUSH1 0x1F DUP2 AND DUP1 PUSH2 0x1BB8 JUMPI JUMPDEST POP DUP1 PUSH1 0x20 DUP4 ADD MSTORE PUSH1 0x40 MLOAD SWAP1 DUP2 DUP4 MSTORE PUSH1 0x0 DUP3 MSTORE DUP2 ADD PUSH1 0x20 ADD SWAP1 DUP2 LT PUSH2 0x257 JUMPI PUSH1 0x40 MSTORE SWAP1 JUMP JUMPDEST PUSH1 0x20 SUB PUSH1 0x20 DUP2 GT PUSH2 0xDEF JUMPI DUP2 ADD DUP1 SWAP2 GT PUSH2 0xDEF JUMPI CODESIZE PUSH2 0x1B94 JUMP JUMPDEST SWAP1 DUP2 MLOAD SWAP2 PUSH2 0x1BDE PUSH2 0x1ADE JUMP JUMPDEST POP DUP3 MLOAD MLOAD PUSH1 0x1 DUP2 ADD SWAP1 DUP2 DUP2 GT PUSH2 0xDEF JUMPI PUSH1 0x20 DUP6 ADD MLOAD DUP2 LT ISZERO PUSH2 0x1C37 JUMPI JUMPDEST PUSH1 0xC2 PUSH1 0x20 PUSH2 0x6FC SWAP7 MLOAD SWAP3 DUP4 ADD ADD MSTORE8 DUP1 MLOAD DUP3 GT PUSH2 0x1C2F JUMPI JUMPDEST POP POP PUSH1 0x40 MLOAD SWAP2 PUSH1 0x20 DUP4 ADD MSTORE PUSH1 0x20 DUP3 MSTORE PUSH2 0x1C2A DUP3 PUSH2 0x2B8 JUMP JUMPDEST PUSH2 0x21A9 JUMP JUMPDEST MSTORE CODESIZE DUP1 PUSH2 0x1C12 JUMP JUMPDEST DUP2 PUSH1 0x1 SHL SWAP5 DUP3 DUP7 DIV PUSH1 0x2 EQ DUP4 ISZERO OR ISZERO PUSH2 0xDEF JUMPI PUSH1 0x20 DUP2 PUSH2 0x1C69 PUSH2 0x6FC SWAP9 PUSH2 0x1C62 PUSH1 0xC2 SWAP6 MLOAD SWAP2 DUP5 PUSH2 0x1B80 JUMP JUMPDEST POP DUP3 PUSH2 0x20F1 JUMP JUMPDEST POP SWAP7 POP POP POP PUSH2 0x1BFB JUMP JUMPDEST SWAP1 DUP2 PUSH1 0x1 SHL SWAP2 DUP1 DUP4 DIV PUSH1 0x2 EQ SWAP1 ISZERO OR ISZERO PUSH2 0xDEF JUMPI JUMP JUMPDEST PUSH2 0x1C91 PUSH2 0x1ADE JUMP JUMPDEST POP DUP1 MLOAD MLOAD PUSH1 0x1 DUP2 ADD SWAP1 DUP2 DUP2 GT PUSH2 0xDEF JUMPI PUSH1 0x20 DUP4 ADD MLOAD DUP2 LT ISZERO PUSH2 0x1CCA JUMPI JUMPDEST PUSH1 0x5B PUSH1 0x20 DUP5 MLOAD SWAP3 DUP4 ADD ADD MSTORE8 DUP1 MLOAD DUP3 GT PUSH2 0x1CC6 JUMPI POP POP SWAP1 JUMP JUMPDEST MSTORE SWAP1 JUMP JUMPDEST DUP2 PUSH1 0x1 SHL DUP3 DUP2 DIV PUSH1 0x2 EQ DUP4 ISZERO OR ISZERO PUSH2 0xDEF JUMPI PUSH2 0x1CF3 SWAP1 PUSH2 0x1CEC DUP6 MLOAD SWAP2 DUP7 PUSH2 0x1B80 JUMP JUMPDEST POP DUP5 PUSH2 0x20F1 JUMP JUMPDEST POP PUSH2 0x1CAE JUMP JUMPDEST PUSH2 0x1D01 PUSH2 0x1ADE JUMP JUMPDEST POP DUP1 MLOAD MLOAD PUSH1 0x1 DUP2 ADD SWAP1 DUP2 DUP2 GT PUSH2 0xDEF JUMPI PUSH1 0x20 DUP4 ADD MLOAD DUP2 LT ISZERO PUSH2 0x1D36 JUMPI JUMPDEST PUSH1 0x5A PUSH1 0x20 DUP5 MLOAD SWAP3 DUP4 ADD ADD MSTORE8 DUP1 MLOAD DUP3 GT PUSH2 0x1CC6 JUMPI POP POP SWAP1 JUMP JUMPDEST DUP2 PUSH1 0x1 SHL DUP3 DUP2 DIV PUSH1 0x2 EQ DUP4 ISZERO OR ISZERO PUSH2 0xDEF JUMPI PUSH2 0x1D58 SWAP1 PUSH2 0x1CEC DUP6 MLOAD SWAP2 DUP7 PUSH2 0x1B80 JUMP JUMPDEST POP PUSH2 0x1D1E JUMP JUMPDEST PUSH2 0x1D66 PUSH2 0x1ADE JUMP JUMPDEST POP DUP1 MLOAD MLOAD PUSH1 0x1 DUP2 ADD SWAP1 DUP2 DUP2 GT PUSH2 0xDEF JUMPI PUSH1 0x20 DUP4 ADD MLOAD DUP2 LT ISZERO PUSH2 0x1D9B JUMPI JUMPDEST PUSH1 0x59 PUSH1 0x20 DUP5 MLOAD SWAP3 DUP4 ADD ADD MSTORE8 DUP1 MLOAD DUP3 GT PUSH2 0x1CC6 JUMPI POP POP SWAP1 JUMP JUMPDEST DUP2 PUSH1 0x1 SHL DUP3 DUP2 DIV PUSH1 0x2 EQ DUP4 ISZERO OR ISZERO PUSH2 0xDEF JUMPI PUSH2 0x1DBD SWAP1 PUSH2 0x1CEC DUP6 MLOAD SWAP2 DUP7 PUSH2 0x1B80 JUMP JUMPDEST POP PUSH2 0x1D83 JUMP JUMPDEST PUSH2 0x1DCB PUSH2 0x1ADE JUMP JUMPDEST POP DUP1 MLOAD MLOAD PUSH1 0x1 DUP2 ADD SWAP1 DUP2 DUP2 GT PUSH2 0xDEF JUMPI PUSH1 0x20 DUP4 ADD MLOAD DUP2 LT ISZERO PUSH2 0x1E00 JUMPI JUMPDEST PUSH1 0x58 PUSH1 0x20 DUP5 MLOAD SWAP3 DUP4 ADD ADD MSTORE8 DUP1 MLOAD DUP3 GT PUSH2 0x1CC6 JUMPI POP POP SWAP1 JUMP JUMPDEST DUP2 PUSH1 0x1 SHL DUP3 DUP2 DIV PUSH1 0x2 EQ DUP4 ISZERO OR ISZERO PUSH2 0xDEF JUMPI PUSH2 0x1E22 SWAP1 PUSH2 0x1CEC DUP6 MLOAD SWAP2 DUP7 PUSH2 0x1B80 JUMP JUMPDEST POP PUSH2 0x1DE8 JUMP JUMPDEST PUSH2 0x1E30 PUSH2 0x1ADE JUMP JUMPDEST POP DUP1 MLOAD MLOAD PUSH1 0x1 DUP2 ADD SWAP1 DUP2 DUP2 GT PUSH2 0xDEF JUMPI PUSH1 0x20 DUP4 ADD MLOAD DUP2 LT ISZERO PUSH2 0x1E65 JUMPI JUMPDEST PUSH1 0x7B PUSH1 0x20 DUP5 MLOAD SWAP3 DUP4 ADD ADD MSTORE8 DUP1 MLOAD DUP3 GT PUSH2 0x1CC6 JUMPI POP POP SWAP1 JUMP JUMPDEST DUP2 PUSH1 0x1 SHL DUP3 DUP2 DIV PUSH1 0x2 EQ DUP4 ISZERO OR ISZERO PUSH2 0xDEF JUMPI PUSH2 0x1E87 SWAP1 PUSH2 0x1CEC DUP6 MLOAD SWAP2 DUP7 PUSH2 0x1B80 JUMP JUMPDEST POP PUSH2 0x1E4D JUMP JUMPDEST PUSH2 0x1E95 PUSH2 0x1ADE JUMP JUMPDEST POP DUP1 MLOAD MLOAD PUSH1 0x1 DUP2 ADD SWAP1 DUP2 DUP2 GT PUSH2 0xDEF JUMPI PUSH1 0x20 DUP4 ADD MLOAD DUP2 LT ISZERO PUSH2 0x1ECA JUMPI JUMPDEST PUSH1 0x7A PUSH1 0x20 DUP5 MLOAD SWAP3 DUP4 ADD ADD MSTORE8 DUP1 MLOAD DUP3 GT PUSH2 0x1CC6 JUMPI POP POP SWAP1 JUMP JUMPDEST DUP2 PUSH1 0x1 SHL DUP3 DUP2 DIV PUSH1 0x2 EQ DUP4 ISZERO OR ISZERO PUSH2 0xDEF JUMPI PUSH2 0x1EEC SWAP1 PUSH2 0x1CEC DUP6 MLOAD SWAP2 DUP7 PUSH2 0x1B80 JUMP JUMPDEST POP PUSH2 0x1EB2 JUMP JUMPDEST PUSH2 0x1EFA PUSH2 0x1ADE JUMP JUMPDEST POP DUP1 MLOAD MLOAD PUSH1 0x1 DUP2 ADD SWAP1 DUP2 DUP2 GT PUSH2 0xDEF JUMPI PUSH1 0x20 DUP4 ADD MLOAD DUP2 LT ISZERO PUSH2 0x1F2F JUMPI JUMPDEST PUSH1 0x79 PUSH1 0x20 DUP5 MLOAD SWAP3 DUP4 ADD ADD MSTORE8 DUP1 MLOAD DUP3 GT PUSH2 0x1CC6 JUMPI POP POP SWAP1 JUMP JUMPDEST DUP2 PUSH1 0x1 SHL DUP3 DUP2 DIV PUSH1 0x2 EQ DUP4 ISZERO OR ISZERO PUSH2 0xDEF JUMPI PUSH2 0x1F51 SWAP1 PUSH2 0x1CEC DUP6 MLOAD SWAP2 DUP7 PUSH2 0x1B80 JUMP JUMPDEST POP PUSH2 0x1F17 JUMP JUMPDEST PUSH2 0x1F5F PUSH2 0x1ADE JUMP JUMPDEST POP DUP1 MLOAD MLOAD PUSH1 0x1 DUP2 ADD SWAP1 DUP2 DUP2 GT PUSH2 0xDEF JUMPI PUSH1 0x20 DUP4 ADD MLOAD DUP2 LT ISZERO PUSH2 0x1F94 JUMPI JUMPDEST PUSH1 0x78 PUSH1 0x20 DUP5 MLOAD SWAP3 DUP4 ADD ADD MSTORE8 DUP1 MLOAD DUP3 GT PUSH2 0x1CC6 JUMPI POP POP SWAP1 JUMP JUMPDEST DUP2 PUSH1 0x1 SHL DUP3 DUP2 DIV PUSH1 0x2 EQ DUP4 ISZERO OR ISZERO PUSH2 0xDEF JUMPI PUSH2 0x1FB6 SWAP1 PUSH2 0x1CEC DUP6 MLOAD SWAP2 DUP7 PUSH2 0x1B80 JUMP JUMPDEST POP PUSH2 0x1F7C JUMP JUMPDEST SWAP1 PUSH2 0x1FC5 PUSH2 0x1ADE JUMP JUMPDEST POP DUP2 MLOAD MLOAD PUSH1 0x1 DUP2 ADD SWAP2 DUP3 DUP3 GT PUSH2 0xDEF JUMPI PUSH1 0x20 DUP5 ADD MLOAD DUP3 LT ISZERO PUSH2 0x1FF8 JUMPI JUMPDEST PUSH1 0x20 DUP5 MLOAD SWAP3 DUP4 ADD ADD MSTORE8 DUP1 MLOAD DUP3 GT PUSH2 0x1CC6 JUMPI POP POP SWAP1 JUMP JUMPDEST DUP3 PUSH1 0x1 SHL DUP4 DUP2 DIV PUSH1 0x2 EQ DUP5 ISZERO OR ISZERO PUSH2 0xDEF JUMPI PUSH2 0x2021 SWAP1 PUSH2 0x201A DUP7 MLOAD SWAP2 DUP8 PUSH2 0x1B80 JUMP JUMPDEST POP DUP6 PUSH2 0x20F1 JUMP JUMPDEST POP PUSH2 0x1FE2 JUMP JUMPDEST SWAP1 PUSH2 0x2034 DUP3 MLOAD SWAP2 DUP4 PUSH2 0x1B80 JUMP JUMPDEST POP PUSH2 0x203D PUSH2 0x1ADE JUMP JUMPDEST POP DUP1 MLOAD SWAP1 PUSH2 0x2049 PUSH2 0x1ADE JUMP JUMPDEST POP PUSH2 0x2057 DUP2 MLOAD DUP4 GT ISZERO PUSH2 0x21A2 JUMP JUMPDEST DUP3 MLOAD MLOAD SWAP3 PUSH2 0x2065 DUP4 DUP6 PUSH2 0x1B73 JUMP JUMPDEST SWAP2 PUSH1 0x20 SWAP3 DUP3 DUP5 DUP1 SWAP5 ADD MLOAD DUP3 GT PUSH2 0x20DA JUMPI JUMPDEST MLOAD DUP4 DUP2 MLOAD SWAP8 DUP3 ADD ADD SWAP7 DUP3 GT PUSH2 0x20D2 JUMPI JUMPDEST POP POP ADD SWAP2 JUMPDEST DUP2 DUP2 LT ISZERO PUSH2 0x20AC JUMPI PUSH1 0x0 NOT SWAP2 SUB PUSH2 0x100 EXP ADD SWAP1 DUP2 NOT SWAP1 MLOAD AND SWAP1 DUP3 MLOAD AND OR SWAP1 MSTORE JUMP JUMPDEST SWAP2 SWAP3 PUSH2 0x20C7 PUSH2 0x20C1 PUSH2 0x20CD SWAP3 DUP7 MLOAD DUP2 MSTORE PUSH2 0x1B65 JUMP JUMPDEST SWAP5 PUSH2 0x1B65 JUMP JUMPDEST SWAP3 PUSH2 0x1B48 JUMP JUMPDEST PUSH2 0x208B JUMP JUMPDEST MSTORE CODESIZE DUP1 PUSH2 0x2086 JUMP JUMPDEST PUSH2 0x20EC PUSH2 0x20E6 DUP4 PUSH2 0x1C73 JUMP JUMPDEST DUP3 PUSH2 0x2027 JUMP JUMPDEST PUSH2 0x2076 JUMP JUMPDEST SWAP1 PUSH2 0x20FA PUSH2 0x1ADE JUMP JUMPDEST POP DUP1 MLOAD PUSH2 0x2105 PUSH2 0x1ADE JUMP JUMPDEST POP PUSH2 0x2113 DUP3 MLOAD DUP3 GT ISZERO PUSH2 0x21A2 JUMP JUMPDEST DUP3 MLOAD MLOAD SWAP2 PUSH2 0x2121 DUP3 DUP5 PUSH2 0x1B73 JUMP JUMPDEST PUSH1 0x20 SWAP2 DUP3 SWAP2 DUP3 DUP8 ADD MLOAD DUP2 GT PUSH2 0x218B JUMPI JUMPDEST DUP7 MLOAD DUP4 DUP2 MLOAD SWAP8 DUP3 ADD ADD SWAP7 DUP3 GT PUSH2 0x2183 JUMPI JUMPDEST POP POP ADD SWAP2 JUMPDEST DUP2 DUP2 LT ISZERO PUSH2 0x2169 JUMPI PUSH1 0x0 NOT SWAP2 SUB PUSH2 0x100 EXP ADD SWAP1 DUP2 NOT SWAP1 MLOAD AND SWAP1 DUP3 MLOAD AND OR SWAP1 MSTORE SWAP1 JUMP JUMPDEST SWAP2 SWAP3 PUSH2 0x20C7 PUSH2 0x20C1 PUSH2 0x217E SWAP3 DUP7 MLOAD DUP2 MSTORE PUSH2 0x1B65 JUMP JUMPDEST PUSH2 0x2147 JUMP JUMPDEST MSTORE CODESIZE DUP1 PUSH2 0x2142 JUMP JUMPDEST PUSH2 0x219D PUSH2 0x2197 DUP3 PUSH2 0x1C73 JUMP JUMPDEST DUP9 PUSH2 0x2027 JUMP JUMPDEST PUSH2 0x2131 JUMP JUMPDEST ISZERO PUSH2 0x257 JUMPI JUMP JUMPDEST DUP2 MLOAD PUSH2 0x21E1 SWAP3 SWAP2 SWAP1 PUSH8 0xFFFFFFFFFFFFFFFF DUP2 AND SWAP1 PUSH1 0x17 DUP3 GT PUSH2 0x21E4 JUMPI PUSH2 0x21D9 SWAP2 POP PUSH1 0x40 PUSH1 0xFF DUP5 MLOAD SWAP3 AND OR SWAP1 PUSH2 0x1FBC JUMP JUMPDEST POP JUMPDEST MLOAD PUSH2 0x20F1 JUMP JUMPDEST POP JUMP JUMPDEST POP PUSH1 0xFF DUP2 GT PUSH2 0x2209 JUMPI PUSH2 0x2203 SWAP1 PUSH2 0x21FB DUP4 MLOAD PUSH2 0x1DC3 JUMP JUMPDEST POP DUP3 MLOAD PUSH2 0x253A JUMP JUMPDEST POP PUSH2 0x21DB JUMP JUMPDEST PUSH2 0xFFFF DUP2 GT PUSH2 0x2228 JUMPI PUSH2 0x2203 SWAP1 PUSH2 0x2220 DUP4 MLOAD PUSH2 0x1D5E JUMP JUMPDEST POP DUP3 MLOAD PUSH2 0x24D3 JUMP JUMPDEST PUSH4 0xFFFFFFFF DUP2 GT PUSH2 0x2249 JUMPI PUSH2 0x2203 SWAP1 PUSH2 0x2241 DUP4 MLOAD PUSH2 0x1CF9 JUMP JUMPDEST POP DUP3 MLOAD PUSH2 0x246A JUMP JUMPDEST PUSH2 0x2203 SWAP1 PUSH2 0x2257 DUP4 MLOAD PUSH2 0x1C89 JUMP JUMPDEST POP DUP3 MLOAD PUSH2 0x23FD JUMP JUMPDEST DUP2 MLOAD PUSH2 0x21E1 SWAP3 SWAP2 SWAP1 PUSH8 0xFFFFFFFFFFFFFFFF DUP2 AND SWAP1 PUSH1 0x17 DUP3 GT PUSH2 0x228F JUMPI PUSH2 0x21D9 SWAP2 POP PUSH1 0x60 PUSH1 0xFF DUP5 MLOAD SWAP3 AND OR SWAP1 PUSH2 0x1FBC JUMP JUMPDEST POP PUSH1 0xFF DUP2 GT PUSH2 0x22A6 JUMPI PUSH2 0x2203 SWAP1 PUSH2 0x21FB DUP4 MLOAD PUSH2 0x1F57 JUMP JUMPDEST PUSH2 0xFFFF DUP2 GT PUSH2 0x22BD JUMPI PUSH2 0x2203 SWAP1 PUSH2 0x2220 DUP4 MLOAD PUSH2 0x1EF2 JUMP JUMPDEST PUSH4 0xFFFFFFFF DUP2 GT PUSH2 0x22D6 JUMPI PUSH2 0x2203 SWAP1 PUSH2 0x2241 DUP4 MLOAD PUSH2 0x1E8D JUMP JUMPDEST PUSH2 0x2203 SWAP1 PUSH2 0x2257 DUP4 MLOAD PUSH2 0x1E28 JUMP JUMPDEST DUP1 MLOAD SWAP1 PUSH2 0x22EF PUSH2 0x1ADE JUMP JUMPDEST POP DUP2 MLOAD MLOAD PUSH1 0x1 DUP2 ADD SWAP1 DUP2 DUP2 GT PUSH2 0xDEF JUMPI PUSH1 0x20 DUP5 ADD MLOAD DUP2 LT ISZERO PUSH2 0x233D JUMPI JUMPDEST PUSH1 0x9F PUSH1 0x20 DUP1 SWAP6 MLOAD SWAP3 DUP4 ADD ADD MSTORE8 DUP1 MLOAD DUP3 GT PUSH2 0x2335 JUMPI JUMPDEST POP POP ADD DUP1 MLOAD SWAP1 PUSH1 0x1 DUP3 ADD DUP1 SWAP3 GT PUSH2 0xDEF JUMPI MSTORE JUMP JUMPDEST MSTORE CODESIZE DUP1 PUSH2 0x2321 JUMP JUMPDEST DUP2 PUSH1 0x1 SHL SWAP4 DUP3 DUP6 DIV PUSH1 0x2 EQ DUP4 ISZERO OR ISZERO PUSH2 0xDEF JUMPI PUSH1 0x20 DUP2 PUSH2 0x2366 DUP3 SWAP8 PUSH2 0x1C62 PUSH1 0x9F SWAP6 MLOAD SWAP2 DUP5 PUSH2 0x1B80 JUMP JUMPDEST POP SWAP6 POP POP POP PUSH2 0x230C JUMP JUMPDEST DUP1 MLOAD SWAP1 PUSH2 0x237B PUSH2 0x1ADE JUMP JUMPDEST POP DUP2 MLOAD MLOAD PUSH1 0x1 DUP2 ADD SWAP1 DUP2 DUP2 GT PUSH2 0xDEF JUMPI PUSH1 0x20 DUP5 ADD MLOAD DUP2 LT ISZERO PUSH2 0x23CA JUMPI JUMPDEST PUSH1 0xFF PUSH1 0x20 DUP1 SWAP6 MLOAD SWAP3 DUP4 ADD ADD MSTORE8 DUP1 MLOAD DUP3 GT PUSH2 0x23C2 JUMPI JUMPDEST POP POP ADD DUP1 MLOAD PUSH1 0x0 NOT DUP2 ADD SWAP2 SWAP1 DUP3 GT PUSH2 0xDEF JUMPI MSTORE JUMP JUMPDEST MSTORE CODESIZE DUP1 PUSH2 0x23AD JUMP JUMPDEST DUP2 PUSH1 0x1 SHL SWAP4 DUP3 DUP6 DIV PUSH1 0x2 EQ DUP4 ISZERO OR ISZERO PUSH2 0xDEF JUMPI PUSH1 0x20 DUP2 PUSH2 0x23F3 DUP3 SWAP8 PUSH2 0x1C62 PUSH1 0xFF SWAP6 MLOAD SWAP2 DUP5 PUSH2 0x1B80 JUMP JUMPDEST POP SWAP6 POP POP POP PUSH2 0x2398 JUMP JUMPDEST SWAP1 PUSH2 0x2406 PUSH2 0x1ADE JUMP JUMPDEST POP DUP2 MLOAD MLOAD DUP1 PUSH1 0x8 ADD SWAP2 DUP3 PUSH1 0x8 GT PUSH2 0xDEF JUMPI PUSH1 0x20 DUP5 ADD MLOAD DUP4 GT PUSH2 0x2449 JUMPI JUMPDEST PUSH1 0x8 DUP5 MLOAD SWAP3 DUP4 ADD ADD SWAP1 PUSH8 0xFFFFFFFFFFFFFFFF NOT DUP3 MLOAD AND OR SWAP1 MSTORE DUP1 MLOAD DUP3 GT PUSH2 0x1CC6 JUMPI POP POP SWAP1 JUMP JUMPDEST DUP3 PUSH1 0x1 SHL DUP4 DUP2 DIV PUSH1 0x2 EQ DUP5 ISZERO OR ISZERO PUSH2 0xDEF JUMPI PUSH2 0x2465 SWAP1 DUP6 PUSH2 0x2027 JUMP JUMPDEST PUSH2 0x2423 JUMP JUMPDEST SWAP1 PUSH2 0x2473 PUSH2 0x1ADE JUMP JUMPDEST POP DUP2 MLOAD MLOAD DUP1 PUSH1 0x4 ADD SWAP2 DUP3 PUSH1 0x4 GT PUSH2 0xDEF JUMPI PUSH1 0x20 DUP5 ADD MLOAD DUP4 GT PUSH2 0x24B2 JUMPI JUMPDEST PUSH1 0x4 DUP5 MLOAD SWAP3 DUP4 ADD ADD SWAP1 PUSH4 0xFFFFFFFF NOT DUP3 MLOAD AND OR SWAP1 MSTORE DUP1 MLOAD DUP3 GT PUSH2 0x1CC6 JUMPI POP POP SWAP1 JUMP JUMPDEST DUP3 PUSH1 0x1 SHL DUP4 DUP2 DIV PUSH1 0x2 EQ DUP5 ISZERO OR ISZERO PUSH2 0xDEF JUMPI PUSH2 0x24CE SWAP1 DUP6 PUSH2 0x2027 JUMP JUMPDEST PUSH2 0x2490 JUMP JUMPDEST SWAP1 PUSH2 0x24DC PUSH2 0x1ADE JUMP JUMPDEST POP DUP2 MLOAD MLOAD DUP1 PUSH1 0x2 ADD SWAP2 DUP3 PUSH1 0x2 GT PUSH2 0xDEF JUMPI PUSH1 0x20 DUP5 ADD MLOAD DUP4 GT PUSH2 0x2519 JUMPI JUMPDEST PUSH1 0x2 DUP5 MLOAD SWAP3 DUP4 ADD ADD SWAP1 PUSH2 0xFFFF NOT DUP3 MLOAD AND OR SWAP1 MSTORE DUP1 MLOAD DUP3 GT PUSH2 0x1CC6 JUMPI POP POP SWAP1 JUMP JUMPDEST DUP3 PUSH1 0x1 SHL DUP4 DUP2 DIV PUSH1 0x2 EQ DUP5 ISZERO OR ISZERO PUSH2 0xDEF JUMPI PUSH2 0x2535 SWAP1 DUP6 PUSH2 0x2027 JUMP JUMPDEST PUSH2 0x24F9 JUMP JUMPDEST SWAP1 PUSH2 0x2543 PUSH2 0x1ADE JUMP JUMPDEST POP DUP2 MLOAD MLOAD DUP1 PUSH1 0x1 ADD SWAP2 DUP3 PUSH1 0x1 GT PUSH2 0xDEF JUMPI PUSH1 0x20 DUP5 ADD MLOAD DUP4 GT PUSH2 0x257F JUMPI JUMPDEST PUSH1 0x1 DUP5 MLOAD SWAP3 DUP4 ADD ADD SWAP1 PUSH1 0xFF NOT DUP3 MLOAD AND OR SWAP1 MSTORE DUP1 MLOAD DUP3 GT PUSH2 0x1CC6 JUMPI POP POP SWAP1 JUMP JUMPDEST DUP3 PUSH1 0x1 SHL DUP4 DUP2 DIV PUSH1 0x2 EQ DUP5 ISZERO OR ISZERO PUSH2 0xDEF JUMPI PUSH2 0x259B SWAP1 DUP6 PUSH2 0x2027 JUMP JUMPDEST PUSH2 0x2560 JUMP JUMPDEST DUP2 DUP2 LT PUSH2 0x25AB JUMPI POP POP JUMP JUMPDEST PUSH1 0x0 DUP2 SSTORE PUSH1 0x1 ADD PUSH2 0x25A0 JUMP JUMPDEST SWAP1 PUSH1 0x1F DUP3 GT PUSH2 0x25C4 JUMPI POP POP JUMP JUMPDEST PUSH2 0x6FC SWAP2 PUSH1 0x4 PUSH1 0x0 MSTORE PUSH32 0x8A35ACFBC15FF81A39AE7D344FD709F28E8600B4AA8C65C6B64BFE7FE36BD19B SWAP1 PUSH1 0x20 PUSH1 0x1F DUP5 ADD PUSH1 0x5 SHR DUP4 ADD SWAP4 LT PUSH2 0x260E JUMPI JUMPDEST PUSH1 0x1F ADD PUSH1 0x5 SHR ADD SWAP1 PUSH2 0x25A0 JUMP JUMPDEST SWAP1 SWAP2 POP DUP2 SWAP1 PUSH2 0x2601 JUMP JUMPDEST SWAP1 PUSH1 0x1F DUP3 GT PUSH2 0x2625 JUMPI POP POP JUMP JUMPDEST PUSH2 0x6FC SWAP2 PUSH1 0x2 PUSH1 0x0 MSTORE PUSH32 0x405787FA12A823E0F2B7631CC41B3BA8828B3321CA811111FA75CD3AA3BB5ACE SWAP1 PUSH1 0x20 PUSH1 0x1F DUP5 ADD PUSH1 0x5 SHR DUP4 ADD SWAP4 LT PUSH2 0x260E JUMPI PUSH1 0x1F ADD PUSH1 0x5 SHR ADD SWAP1 PUSH2 0x25A0 JUMP JUMPDEST SWAP1 PUSH1 0x1F DUP3 GT PUSH2 0x267B JUMPI POP POP JUMP JUMPDEST PUSH2 0x6FC SWAP2 PUSH1 0x5 PUSH1 0x0 MSTORE PUSH32 0x36B6384B5ECA791C62761152D0C79BB0604C104A5FB6F4EB0703F3154BB3DB0 SWAP1 PUSH1 0x20 PUSH1 0x1F DUP5 ADD PUSH1 0x5 SHR DUP4 ADD SWAP4 LT PUSH2 0x260E JUMPI PUSH1 0x1F ADD PUSH1 0x5 SHR ADD SWAP1 PUSH2 0x25A0 JUMP JUMPDEST SWAP2 SWAP1 PUSH1 0x1F DUP2 GT PUSH2 0x26D3 JUMPI POP POP POP JUMP JUMPDEST PUSH2 0x6FC SWAP3 PUSH1 0x0 MSTORE PUSH1 0x20 PUSH1 0x0 KECCAK256 SWAP1 PUSH1 0x20 PUSH1 0x1F DUP5 ADD PUSH1 0x5 SHR DUP4 ADD SWAP4 LT PUSH2 0x260E JUMPI PUSH1 0x1F ADD PUSH1 0x5 SHR ADD SWAP1 PUSH2 0x25A0 JUMP JUMPDEST PUSH1 0x60 PUSH1 0x8 SLOAD TIMESTAMP SUB TIMESTAMP DUP2 GT PUSH2 0xDEF JUMPI PUSH1 0x7 SLOAD LT SWAP2 JUMP JUMPDEST ISZERO PUSH2 0x271A JUMPI JUMP JUMPDEST PUSH1 0x64 PUSH1 0x40 MLOAD PUSH3 0x461BCD PUSH1 0xE5 SHL DUP2 MSTORE PUSH1 0x20 PUSH1 0x4 DUP3 ADD MSTORE PUSH1 0x15 PUSH1 0x24 DUP3 ADD MSTORE PUSH32 0x54696D6520696E74657276616C206E6F74206D65740000000000000000000000 PUSH1 0x44 DUP3 ADD MSTORE REVERT JUMPDEST ISZERO PUSH2 0x2765 JUMPI JUMP JUMPDEST PUSH1 0x64 PUSH1 0x40 MLOAD PUSH3 0x461BCD PUSH1 0xE5 SHL DUP2 MSTORE PUSH1 0x20 PUSH1 0x4 DUP3 ADD MSTORE PUSH1 0x15 PUSH1 0x24 DUP3 ADD MSTORE PUSH32 0x55706B656570206E6F7420726567697374657265640000000000000000000000 PUSH1 0x44 DUP3 ADD MSTORE REVERT JUMPDEST PUSH1 0x1C SLOAD SWAP1 PUSH2 0x27B6 DUP3 PUSH2 0x1530 JUMP JUMPDEST SWAP2 PUSH2 0x27C4 PUSH1 0x40 MLOAD SWAP4 DUP5 PUSH2 0x2ED JUMP JUMPDEST DUP1 DUP4 MSTORE PUSH1 0x1C PUSH1 0x0 SWAP1 DUP2 MSTORE PUSH1 0x20 PUSH32 0xE4562A10381DEC21B205ED72637E6B1B523BDD0E4D4D50AF5CD23DD4500A211 DUP2 DUP7 ADD JUMPDEST DUP5 DUP5 LT PUSH2 0x2803 JUMPI POP POP POP POP POP JUMP JUMPDEST PUSH1 0x1 DUP4 DUP2 SWAP3 PUSH2 0x2811 DUP6 PUSH2 0x77F JUMP JUMPDEST DUP2 MSTORE ADD SWAP3 ADD SWAP4 ADD SWAP3 SWAP1 PUSH2 0x27F5 JUMP JUMPDEST SWAP1 DUP2 PUSH1 0x20 SWAP2 SUB SLT PUSH2 0x257 JUMPI MLOAD SWAP1 JUMP JUMPDEST SWAP1 PUSH8 0xFFFFFFFFFFFFFFFF SWAP1 SWAP5 SWAP4 SWAP3 SWAP5 AND DUP2 MSTORE PUSH1 0x20 SWAP4 PUSH1 0xA0 DUP6 DUP4 ADD MSTORE PUSH1 0x0 PUSH1 0x2 SLOAD SWAP6 PUSH2 0x2858 DUP8 PUSH2 0x687 JUMP JUMPDEST SWAP1 DUP2 PUSH1 0xA0 DUP7 ADD MSTORE PUSH1 0x1 SWAP8 DUP9 DUP2 AND SWAP1 DUP2 PUSH1 0x0 EQ PUSH2 0x28EE JUMPI POP PUSH1 0x1 EQ PUSH2 0x2892 JUMPI JUMPDEST POP POP PUSH1 0x40 DUP4 ADD SWAP6 SWAP1 SWAP6 MSTORE PUSH4 0xFFFFFFFF AND PUSH1 0x60 DUP3 ADD MSTORE PUSH1 0x80 ADD MSTORE JUMP JUMPDEST PUSH1 0x2 PUSH1 0x0 SWAP1 DUP2 MSTORE SWAP3 POP DUP8 PUSH32 0x405787FA12A823E0F2B7631CC41B3BA8828B3321CA811111FA75CD3AA3BB5ACE JUMPDEST DUP4 DUP6 LT PUSH2 0x28D9 JUMPI POP POP POP POP DUP3 ADD PUSH1 0xC0 ADD DUP2 PUSH4 0xFFFFFFFF PUSH2 0x2877 JUMP JUMPDEST DUP1 SLOAD DUP8 DUP7 ADD PUSH1 0xC0 ADD MSTORE SWAP4 DUP3 ADD SWAP4 DUP10 SWAP2 ADD PUSH2 0x28BE JUMP JUMPDEST PUSH1 0xFF NOT AND PUSH1 0xC0 DUP8 DUP2 ADD SWAP2 SWAP1 SWAP2 MSTORE SWAP3 ISZERO ISZERO PUSH1 0x5 SHL DUP7 ADD SWAP1 SWAP3 ADD SWAP3 POP DUP4 SWAP2 POP PUSH4 0xFFFFFFFF SWAP1 POP PUSH2 0x2877 JUMP JUMPDEST PUSH1 0x40 MLOAD RETURNDATASIZE PUSH1 0x0 DUP3 RETURNDATACOPY RETURNDATASIZE SWAP1 REVERT JUMPDEST PUSH1 0x0 SWAP1 PUSH1 0x3 RETURNDATASIZE GT PUSH2 0x2930 JUMPI JUMP JUMPDEST SWAP1 POP PUSH1 0x4 PUSH1 0x0 DUP1 RETURNDATACOPY PUSH1 0x0 MLOAD PUSH1 0xE0 SHR SWAP1 JUMP JUMPDEST PUSH1 0x0 PUSH1 0x44 RETURNDATASIZE LT PUSH2 0x37D JUMPI PUSH1 0x40 MLOAD PUSH1 0x3 NOT SWAP2 RETURNDATASIZE DUP4 ADD PUSH1 0x4 DUP4 RETURNDATACOPY DUP2 MLOAD PUSH8 0xFFFFFFFFFFFFFFFF SWAP2 DUP3 DUP3 GT RETURNDATASIZE PUSH1 0x24 DUP5 ADD GT OR PUSH2 0x299F JUMPI DUP2 DUP5 ADD SWAP5 DUP6 MLOAD SWAP4 DUP5 GT PUSH2 0x29A7 JUMPI RETURNDATASIZE DUP6 ADD ADD PUSH1 0x20 DUP5 DUP8 ADD ADD GT PUSH2 0x299F JUMPI POP PUSH2 0x37D SWAP3 SWAP2 ADD PUSH1 0x20 ADD SWAP1 PUSH2 0x2ED JUMP JUMPDEST SWAP5 SWAP4 POP POP POP POP JUMP JUMPDEST POP SWAP5 SWAP4 POP POP POP POP JUMP JUMPDEST RETURNDATASIZE ISZERO PUSH2 0x29DB JUMPI RETURNDATASIZE SWAP1 PUSH2 0x29C1 DUP3 PUSH2 0x30F JUMP JUMPDEST SWAP2 PUSH2 0x29CF PUSH1 0x40 MLOAD SWAP4 DUP5 PUSH2 0x2ED JUMP JUMPDEST DUP3 MSTORE RETURNDATASIZE PUSH1 0x0 PUSH1 0x20 DUP5 ADD RETURNDATACOPY JUMP JUMPDEST PUSH1 0x60 SWAP1 JUMP JUMPDEST PUSH2 0x29E8 PUSH2 0x1660 JUMP JUMPDEST POP PUSH2 0x29FA PUSH2 0x29F4 PUSH2 0x26FE JUMP JUMPDEST POP PUSH2 0x2713 JUMP JUMPDEST PUSH2 0x2A03 TIMESTAMP PUSH1 0x8 SSTORE JUMP JUMPDEST PUSH2 0x2A16 PUSH2 0x2A11 PUSH1 0x9 SLOAD PUSH2 0x1B57 JUMP JUMPDEST PUSH1 0x9 SSTORE JUMP JUMPDEST PUSH1 0x1B SLOAD PUSH1 0x1C SLOAD LT ISZERO PUSH2 0x2BC5 JUMPI PUSH2 0x2A35 PUSH2 0x2A30 PUSH1 0x13 SLOAD PUSH2 0x1B57 JUMP JUMPDEST PUSH1 0x13 SSTORE JUMP JUMPDEST PUSH1 0x6 SLOAD PUSH8 0xFFFFFFFFFFFFFFFF AND PUSH1 0x20 PUSH2 0x2A53 PUSH1 0xE SLOAD PUSH4 0xFFFFFFFF AND SWAP1 JUMP JUMPDEST PUSH1 0xF SLOAD SWAP3 PUSH2 0x2A75 PUSH1 0x40 MLOAD SWAP5 DUP6 SWAP4 DUP5 SWAP4 PUSH4 0x230E93B1 PUSH1 0xE1 SHL DUP6 MSTORE PUSH1 0x4 DUP6 ADD PUSH2 0x282E JUMP JUMPDEST SUB DUP2 PUSH1 0x0 PUSH1 0x1 PUSH1 0x1 PUSH1 0xA0 SHL SUB PUSH32 0x0 AND GAS CALL PUSH1 0x0 SWAP2 DUP2 PUSH2 0x2B95 JUMPI JUMPDEST POP PUSH2 0x2B52 JUMPI POP PUSH1 0x1 PUSH2 0x2ABE PUSH2 0x2923 JUMP JUMPDEST PUSH4 0x8C379A0 EQ PUSH2 0x2B00 JUMPI JUMPDEST PUSH2 0x2ACF JUMPI JUMP JUMPDEST PUSH32 0x9C4BFA18304482256875C29FABB1A44A5ECD325F214EA17BAB8F31E869FAF4C8 PUSH2 0x2AFB PUSH2 0x977 PUSH2 0x29B0 JUMP JUMPDEST SUB SWAP1 LOG1 JUMP JUMPDEST PUSH2 0x2B08 PUSH2 0x2941 JUMP JUMPDEST DUP1 PUSH2 0x2B14 JUMPI JUMPDEST POP PUSH2 0x2AC9 JUMP JUMPDEST SWAP1 POP PUSH32 0x2BA61E3733E7AC99181C22307780F651EC8FD92FE661A84DFBE711710B2DC36C PUSH2 0x2B49 PUSH1 0x0 SWAP3 PUSH1 0x40 MLOAD SWAP2 DUP3 SWAP2 DUP3 PUSH2 0x886 JUMP JUMPDEST SUB SWAP1 LOG1 CODESIZE PUSH2 0x2B0E JUMP JUMPDEST PUSH2 0x2B5B DUP2 PUSH1 0x10 SSTORE JUMP JUMPDEST PUSH2 0x2B6E PUSH2 0x2B69 PUSH1 0x14 SLOAD PUSH2 0x1B57 JUMP JUMPDEST PUSH1 0x14 SSTORE JUMP JUMPDEST PUSH32 0x1131472297A800FEE664D1D89CFA8F7676FF07189ECC53F80BBB5F4969099DB8 PUSH1 0x0 DUP1 LOG2 JUMP JUMPDEST PUSH2 0x2BB7 SWAP2 SWAP3 POP PUSH1 0x20 RETURNDATASIZE DUP2 GT PUSH2 0x2BBE JUMPI JUMPDEST PUSH2 0x2BAF DUP2 DUP4 PUSH2 0x2ED JUMP JUMPDEST DUP2 ADD SWAP1 PUSH2 0x281F JUMP JUMPDEST SWAP1 CODESIZE PUSH2 0x2AAE JUMP JUMPDEST POP RETURNDATASIZE PUSH2 0x2BA5 JUMP JUMPDEST PUSH2 0x2BD2 PUSH1 0xC SLOAD ISZERO ISZERO PUSH2 0x275E JUMP JUMPDEST PUSH2 0x2BE4 PUSH1 0x1 PUSH1 0xFF NOT PUSH1 0xB SLOAD AND OR PUSH1 0xB SSTORE JUMP JUMPDEST PUSH2 0x2C16 PUSH2 0x2BEF PUSH2 0x14E6 JUMP JUMPDEST PUSH2 0x2C00 PUSH2 0x2BFA PUSH2 0x6C1 JUMP JUMPDEST DUP3 PUSH2 0x1A66 JUMP JUMPDEST PUSH2 0x2C11 PUSH2 0x2C0B PUSH2 0x27A9 JUMP JUMPDEST DUP3 PUSH2 0x1AA7 JUMP JUMPDEST PUSH2 0x187B JUMP JUMPDEST POP PUSH2 0x2C25 PUSH2 0x2A30 PUSH1 0x13 SLOAD PUSH2 0x1B57 JUMP JUMPDEST PUSH1 0x6 SLOAD PUSH8 0xFFFFFFFFFFFFFFFF AND PUSH1 0xE SLOAD PUSH4 0xFFFFFFFF AND SWAP1 PUSH2 0x2C5B PUSH1 0xF SLOAD PUSH1 0x40 MLOAD SWAP4 DUP5 SWAP4 PUSH4 0x230E93B1 PUSH1 0xE1 SHL DUP6 MSTORE PUSH1 0x4 DUP6 ADD PUSH2 0x282E JUMP JUMPDEST SUB PUSH1 0x0 SWAP2 PUSH1 0x20 DUP2 PUSH1 0x1 PUSH1 0x1 PUSH1 0xA0 SHL SUB SWAP4 DUP2 DUP7 DUP7 PUSH32 0x0 AND GAS CALL DUP4 SWAP2 DUP2 PUSH2 0x2E0F JUMPI JUMPDEST POP PUSH2 0x2DCF JUMPI POP PUSH1 0x1 PUSH2 0x2CAA PUSH2 0x2923 JUMP JUMPDEST PUSH4 0x8C379A0 EQ PUSH2 0x2D7E JUMPI JUMPDEST PUSH2 0x2D4A JUMPI JUMPDEST PUSH32 0x0 AND PUSH1 0xC SLOAD DUP2 EXTCODESIZE ISZERO PUSH2 0x2D46 JUMPI PUSH1 0x40 MLOAD PUSH32 0x8765ECBE00000000000000000000000000000000000000000000000000000000 DUP2 MSTORE PUSH1 0x4 DUP2 ADD SWAP2 SWAP1 SWAP2 MSTORE SWAP2 SWAP1 DUP3 SWAP1 PUSH1 0x24 SWAP1 DUP3 SWAP1 DUP5 SWAP1 GAS CALL DUP1 ISZERO PUSH2 0x2D41 JUMPI PUSH2 0x2D2E JUMPI POP JUMP JUMPDEST DUP1 PUSH2 0x2D3B PUSH2 0x6FC SWAP3 PUSH2 0x2D9 JUMP JUMPDEST DUP1 PUSH2 0x24C JUMP JUMPDEST PUSH2 0x2917 JUMP JUMPDEST DUP3 DUP1 REVERT JUMPDEST PUSH32 0x9C4BFA18304482256875C29FABB1A44A5ECD325F214EA17BAB8F31E869FAF4C8 PUSH2 0x2D76 PUSH2 0x977 PUSH2 0x29B0 JUMP JUMPDEST SUB SWAP1 LOG1 PUSH2 0x2CBA JUMP JUMPDEST PUSH2 0x2D86 PUSH2 0x2941 JUMP JUMPDEST DUP1 PUSH2 0x2D92 JUMPI JUMPDEST POP PUSH2 0x2CB5 JUMP JUMPDEST SWAP1 POP PUSH32 0x2BA61E3733E7AC99181C22307780F651EC8FD92FE661A84DFBE711710B2DC36C PUSH2 0x2DC6 DUP5 SWAP3 PUSH1 0x40 MLOAD SWAP2 DUP3 SWAP2 DUP3 PUSH2 0x886 JUMP JUMPDEST SUB SWAP1 LOG1 CODESIZE PUSH2 0x2D8C JUMP JUMPDEST PUSH2 0x2DD8 DUP2 PUSH1 0x10 SSTORE JUMP JUMPDEST PUSH2 0x2DE6 PUSH2 0x2B69 PUSH1 0x14 SLOAD PUSH2 0x1B57 JUMP JUMPDEST PUSH32 0x1131472297A800FEE664D1D89CFA8F7676FF07189ECC53F80BBB5F4969099DB8 DUP4 DUP1 LOG2 PUSH2 0x2CBA JUMP JUMPDEST PUSH2 0x2E28 SWAP2 SWAP3 POP PUSH1 0x20 RETURNDATASIZE DUP2 GT PUSH2 0x2BBE JUMPI PUSH2 0x2BAF DUP2 DUP4 PUSH2 0x2ED JUMP JUMPDEST SWAP1 CODESIZE PUSH2 0x2C9A JUMP JUMPDEST SWAP1 DUP2 MLOAD PUSH8 0xFFFFFFFFFFFFFFFF DUP2 GT PUSH2 0x2D4 JUMPI PUSH2 0x2E55 DUP2 PUSH2 0x2E50 PUSH1 0x5 SLOAD PUSH2 0x687 JUMP JUMPDEST PUSH2 0x266E JUMP JUMPDEST PUSH1 0x20 DUP1 PUSH1 0x1F DUP4 GT PUSH1 0x1 EQ PUSH2 0x2E91 JUMPI POP DUP2 SWAP3 SWAP4 PUSH1 0x0 SWAP3 PUSH2 0x2E86 JUMPI JUMPDEST POP POP DUP2 PUSH1 0x1 SHL SWAP2 PUSH1 0x0 NOT SWAP1 PUSH1 0x3 SHL SHR NOT AND OR PUSH1 0x5 SSTORE JUMP JUMPDEST ADD MLOAD SWAP1 POP CODESIZE DUP1 PUSH2 0x2E6F JUMP JUMPDEST SWAP1 PUSH1 0x1F NOT DUP4 AND SWAP5 PUSH2 0x2EC4 PUSH1 0x5 PUSH1 0x0 MSTORE PUSH32 0x36B6384B5ECA791C62761152D0C79BB0604C104A5FB6F4EB0703F3154BB3DB0 SWAP1 JUMP JUMPDEST SWAP3 PUSH1 0x0 SWAP1 JUMPDEST DUP8 DUP3 LT PUSH2 0x2F01 JUMPI POP POP DUP4 PUSH1 0x1 SWAP6 SWAP7 LT PUSH2 0x2EE8 JUMPI JUMPDEST POP POP POP DUP2 SHL ADD PUSH1 0x5 SSTORE JUMP JUMPDEST ADD MLOAD PUSH1 0x0 NOT PUSH1 0xF8 DUP5 PUSH1 0x3 SHL AND SHR NOT AND SWAP1 SSTORE CODESIZE DUP1 DUP1 PUSH2 0x2EDD JUMP JUMPDEST DUP1 PUSH1 0x1 DUP6 SWAP7 DUP3 SWAP5 SWAP7 DUP7 ADD MLOAD DUP2 SSTORE ADD SWAP6 ADD SWAP4 ADD SWAP1 PUSH2 0x2EC9 JUMP JUMPDEST PUSH1 0x20 DUP2 MLOAD SWAP2 ADD MLOAD SWAP1 PUSH1 0x20 DUP2 LT PUSH2 0x2F2D JUMPI POP SWAP1 JUMP JUMPDEST PUSH1 0x0 NOT SWAP1 PUSH1 0x20 SUB PUSH1 0x3 SHL SHL AND SWAP1 JUMP JUMPDEST PUSH1 0x1C SLOAD PUSH9 0x10000000000000000 DUP2 LT ISZERO PUSH2 0x2D4 JUMPI PUSH2 0x2F61 PUSH1 0x1 SWAP2 DUP3 DUP2 ADD PUSH1 0x1C SSTORE PUSH2 0x635 JUMP JUMPDEST SWAP3 SWAP1 SWAP3 PUSH2 0x3034 JUMPI DUP1 MLOAD SWAP1 PUSH8 0xFFFFFFFFFFFFFFFF DUP3 GT PUSH2 0x2D4 JUMPI PUSH2 0x2F8E DUP3 PUSH2 0x2F88 DUP7 SLOAD PUSH2 0x687 JUMP JUMPDEST DUP7 PUSH2 0x26C4 JUMP JUMPDEST PUSH1 0x20 SWAP1 DUP2 PUSH1 0x1F DUP5 GT PUSH1 0x1 EQ PUSH2 0x2FCA JUMPI POP SWAP3 DUP3 SWAP4 SWAP2 DUP4 SWAP3 PUSH1 0x0 SWAP5 PUSH2 0x2FBF JUMPI JUMPDEST POP POP SHL SWAP2 PUSH1 0x0 NOT SWAP1 PUSH1 0x3 SHL SHR NOT AND OR SWAP1 SSTORE JUMP JUMPDEST ADD MLOAD SWAP3 POP CODESIZE DUP1 PUSH2 0x2FAC JUMP JUMPDEST SWAP2 SWAP1 DUP4 PUSH1 0x1F NOT DUP2 AND PUSH2 0x2FE1 DUP9 PUSH1 0x0 MSTORE PUSH1 0x20 PUSH1 0x0 KECCAK256 SWAP1 JUMP JUMPDEST SWAP5 PUSH1 0x0 SWAP1 JUMPDEST DUP9 DUP4 DUP4 LT PUSH2 0x301A JUMPI POP POP POP LT PUSH2 0x3001 JUMPI JUMPDEST POP POP POP DUP2 SHL ADD SWAP1 SSTORE JUMP JUMPDEST ADD MLOAD PUSH1 0x0 NOT PUSH1 0xF8 DUP5 PUSH1 0x3 SHL AND SHR NOT AND SWAP1 SSTORE CODESIZE DUP1 DUP1 PUSH2 0x2FF7 JUMP JUMPDEST DUP6 DUP8 ADD MLOAD DUP9 SSTORE SWAP1 SWAP7 ADD SWAP6 SWAP5 DUP6 ADD SWAP5 DUP8 SWAP4 POP SWAP1 DUP2 ADD SWAP1 PUSH2 0x2FE6 JUMP JUMPDEST PUSH2 0x671 JUMP JUMPDEST SWAP1 SWAP2 PUSH2 0x3050 PUSH2 0x37D SWAP4 PUSH1 0x40 DUP5 MSTORE PUSH1 0x40 DUP5 ADD SWAP1 PUSH2 0x846 JUMP JUMPDEST SWAP2 PUSH1 0x20 DUP2 DUP5 SUB SWAP2 ADD MSTORE PUSH2 0x846 JUMP JUMPDEST ISZERO PUSH2 0x3065 JUMPI JUMP JUMPDEST PUSH1 0x64 PUSH1 0x40 MLOAD PUSH3 0x461BCD PUSH1 0xE5 SHL DUP2 MSTORE PUSH1 0x20 PUSH1 0x4 DUP3 ADD MSTORE PUSH1 0x1B PUSH1 0x24 DUP3 ADD MSTORE PUSH32 0x4572726F20616F207061676172206120696E64656E697A6163616F0000000000 PUSH1 0x44 DUP3 ADD MSTORE REVERT JUMPDEST PUSH1 0x1E SLOAD PUSH1 0x1A SLOAD GT ISZERO PUSH2 0x30E7 JUMPI PUSH2 0x6FC PUSH1 0x0 DUP1 DUP1 DUP1 PUSH2 0x30D5 PUSH2 0xBD4 PUSH2 0xBD4 PUSH1 0x17 SLOAD PUSH1 0x1 PUSH1 0x1 PUSH1 0xA0 SHL SUB AND SWAP1 JUMP JUMPDEST SELFBALANCE SWAP1 GAS CALL PUSH2 0x30E1 PUSH2 0x29B0 JUMP JUMPDEST POP PUSH2 0x305E JUMP JUMPDEST PUSH1 0x0 DUP1 DUP1 DUP1 PUSH1 0x1 PUSH1 0x1 PUSH1 0xA0 SHL SUB PUSH1 0x16 SLOAD AND SELFBALANCE SWAP1 GAS CALL PUSH2 0x3104 PUSH2 0x29B0 JUMP JUMPDEST POP ISZERO PUSH2 0x310C JUMPI JUMP JUMPDEST PUSH1 0x84 PUSH1 0x40 MLOAD PUSH3 0x461BCD PUSH1 0xE5 SHL DUP2 MSTORE PUSH1 0x20 PUSH1 0x4 DUP3 ADD MSTORE PUSH1 0x2D PUSH1 0x24 DUP3 ADD MSTORE PUSH32 0x4572726F20616F207265746F726E6172206F732066756E646F73207061726120 PUSH1 0x44 DUP3 ADD MSTORE PUSH32 0x6120696E73746974756963616F00000000000000000000000000000000000000 PUSH1 0x64 DUP3 ADD MSTORE REVERT INVALID LOG2 PUSH5 0x6970667358 0x22 SLT KECCAK256 0xBF DUP6 SHR SWAP10 0x23 0x5E SWAP10 SHR PUSH7 0x13EC84044EE4D5 0xCA 0xE3 DUP10 0x4B DUP16 EXTCODEHASH PUSH13 0xAC35466A4ECD70607564736F6C PUSH4 0x43000813 STOP CALLER PUSH1 0xC0 CALLVALUE PUSH2 0x87 JUMPI PUSH1 0x1F PUSH2 0x720 CODESIZE DUP2 SWAP1 SUB SWAP2 DUP3 ADD PUSH1 0x1F NOT AND DUP4 ADD SWAP2 PUSH1 0x1 PUSH1 0x1 PUSH1 0x40 SHL SUB DUP4 GT DUP5 DUP5 LT OR PUSH2 0x8C JUMPI DUP1 DUP5 SWAP3 PUSH1 0x40 SWAP5 DUP6 MSTORE DUP4 CODECOPY DUP2 ADD SUB SLT PUSH2 0x87 JUMPI PUSH2 0x52 PUSH1 0x20 PUSH2 0x4B DUP4 PUSH2 0xA2 JUMP JUMPDEST SWAP3 ADD PUSH2 0xA2 JUMP JUMPDEST SWAP1 PUSH1 0x80 MSTORE PUSH1 0xA0 MSTORE PUSH1 0x40 MLOAD PUSH2 0x669 SWAP1 DUP2 PUSH2 0xB7 DUP3 CODECOPY PUSH1 0x80 MLOAD DUP2 DUP2 DUP2 PUSH1 0x71 ADD MSTORE PUSH2 0x3E2 ADD MSTORE PUSH1 0xA0 MLOAD DUP2 DUP2 DUP2 PUSH2 0x225 ADD MSTORE PUSH2 0x3AA ADD MSTORE RETURN JUMPDEST PUSH1 0x0 DUP1 REVERT JUMPDEST PUSH4 0x4E487B71 PUSH1 0xE0 SHL PUSH1 0x0 MSTORE PUSH1 0x41 PUSH1 0x4 MSTORE PUSH1 0x24 PUSH1 0x0 REVERT JUMPDEST MLOAD SWAP1 PUSH1 0x1 PUSH1 0x1 PUSH1 0xA0 SHL SUB DUP3 AND DUP3 SUB PUSH2 0x87 JUMPI JUMP INVALID PUSH1 0x80 PUSH1 0x40 DUP2 DUP2 MSTORE PUSH1 0x4 SWAP2 DUP3 CALLDATASIZE LT ISZERO PUSH2 0x16 JUMPI PUSH1 0x0 DUP1 REVERT JUMPDEST PUSH1 0x0 SWAP3 DUP4 CALLDATALOAD PUSH1 0xE0 SHR SWAP2 DUP3 PUSH4 0x442B1278 EQ PUSH2 0x1F9 JUMPI POP DUP2 PUSH4 0x76A11E76 EQ PUSH2 0x99 JUMPI POP PUSH4 0x7D253AFF EQ PUSH2 0x46 JUMPI PUSH1 0x0 DUP1 REVERT JUMPDEST CALLVALUE PUSH2 0x95 JUMPI DUP2 PUSH1 0x3 NOT CALLDATASIZE ADD SLT PUSH2 0x95 JUMPI PUSH1 0x20 SWAP1 MLOAD PUSH20 0xFFFFFFFFFFFFFFFFFFFFFFFFFFFFFFFFFFFFFFFF PUSH32 0x0 AND DUP2 MSTORE RETURN JUMPDEST POP DUP1 REVERT JUMPDEST DUP3 DUP5 CALLVALUE PUSH2 0x1DB JUMPI PUSH1 0x3 NOT SWAP3 PUSH1 0x20 CALLDATASIZE DUP6 ADD SLT PUSH2 0x95 JUMPI DUP1 CALLDATALOAD SWAP1 PUSH8 0xFFFFFFFFFFFFFFFF SWAP1 DUP2 DUP4 GT PUSH2 0x1DE JUMPI PUSH2 0x100 DUP1 SWAP7 DUP5 CALLDATASIZE SUB ADD SLT PUSH2 0x1DE JUMPI DUP5 MLOAD SWAP6 DUP7 ADD DUP7 DUP2 LT DUP4 DUP3 GT OR PUSH2 0x1E6 JUMPI DUP6 MSTORE DUP3 DUP2 ADD CALLDATALOAD DUP3 DUP2 GT PUSH2 0x1E2 JUMPI DUP4 ADD CALLDATASIZE PUSH1 0x23 DUP3 ADD SLT ISZERO PUSH2 0x1E2 JUMPI PUSH2 0x10D SWAP1 CALLDATASIZE SWAP1 PUSH1 0x24 DUP5 DUP3 ADD CALLDATALOAD SWAP2 ADD PUSH2 0x281 JUMP JUMPDEST DUP7 MSTORE PUSH1 0x24 DUP4 ADD CALLDATALOAD DUP3 DUP2 GT PUSH2 0x1E2 JUMPI PUSH2 0x12A SWAP1 DUP3 CALLDATASIZE SWAP2 DUP7 ADD ADD PUSH2 0x2CD JUMP JUMPDEST PUSH1 0x20 DUP8 ADD MSTORE PUSH2 0x13B PUSH1 0x44 DUP5 ADD PUSH2 0x2EB JUMP JUMPDEST DUP6 DUP8 ADD MSTORE PUSH1 0x64 DUP4 ADD CALLDATALOAD PUSH4 0xFFFFFFFF DUP2 AND DUP2 SUB PUSH2 0x1E2 JUMPI PUSH1 0x60 DUP8 ADD MSTORE PUSH2 0x162 PUSH1 0x84 DUP5 ADD PUSH2 0x2EB JUMP JUMPDEST PUSH1 0x80 DUP8 ADD MSTORE PUSH1 0xA4 DUP4 ADD CALLDATALOAD DUP3 DUP2 GT PUSH2 0x1E2 JUMPI PUSH2 0x182 SWAP1 DUP3 CALLDATASIZE SWAP2 DUP7 ADD ADD PUSH2 0x2CD JUMP JUMPDEST PUSH1 0xA0 DUP8 ADD MSTORE PUSH1 0xC4 DUP4 ADD CALLDATALOAD SWAP2 DUP3 GT PUSH2 0x1DE JUMPI PUSH1 0xE4 SWAP3 SWAP2 PUSH2 0x1A5 SWAP2 CALLDATASIZE SWAP2 DUP5 ADD ADD PUSH2 0x2CD JUMP JUMPDEST PUSH1 0xC0 DUP7 ADD MSTORE ADD CALLDATALOAD SWAP1 PUSH12 0xFFFFFFFFFFFFFFFFFFFFFFFF DUP3 AND DUP3 SUB PUSH2 0x1DB JUMPI POP DUP3 PUSH2 0x1D4 SWAP2 PUSH1 0xE0 PUSH1 0x20 SWAP6 ADD MSTORE PUSH2 0x34C JUMP JUMPDEST SWAP1 MLOAD SWAP1 DUP2 MSTORE RETURN JUMPDEST DUP1 REVERT JUMPDEST DUP4 DUP1 REVERT JUMPDEST DUP5 DUP1 REVERT JUMPDEST PUSH1 0x24 DUP6 PUSH1 0x41 DUP5 PUSH4 0x4E487B71 PUSH1 0xE0 SHL DUP4 MSTORE MSTORE REVERT JUMPDEST DUP5 SWAP1 CALLVALUE PUSH2 0x95 JUMPI DUP2 PUSH1 0x3 NOT CALLDATASIZE ADD SLT PUSH2 0x95 JUMPI PUSH1 0x20 SWAP1 PUSH20 0xFFFFFFFFFFFFFFFFFFFFFFFFFFFFFFFFFFFFFFFF PUSH32 0x0 AND DUP2 MSTORE RETURN JUMPDEST SWAP1 PUSH1 0x1F DUP1 NOT SWAP2 ADD AND DUP2 ADD SWAP1 DUP2 LT PUSH8 0xFFFFFFFFFFFFFFFF DUP3 GT OR PUSH2 0x26B JUMPI PUSH1 0x40 MSTORE JUMP JUMPDEST PUSH4 0x4E487B71 PUSH1 0xE0 SHL PUSH1 0x0 MSTORE PUSH1 0x41 PUSH1 0x4 MSTORE PUSH1 0x24 PUSH1 0x0 REVERT JUMPDEST SWAP3 SWAP2 SWAP3 PUSH8 0xFFFFFFFFFFFFFFFF DUP3 GT PUSH2 0x26B JUMPI PUSH1 0x40 MLOAD SWAP2 PUSH2 0x2AB PUSH1 0x1F DUP3 ADD PUSH1 0x1F NOT AND PUSH1 0x20 ADD DUP5 PUSH2 0x249 JUMP JUMPDEST DUP3 SWAP5 DUP2 DUP5 MSTORE DUP2 DUP4 ADD GT PUSH2 0x2C8 JUMPI DUP3 DUP2 PUSH1 0x20 SWAP4 DUP5 PUSH1 0x0 SWAP7 ADD CALLDATACOPY ADD ADD MSTORE JUMP JUMPDEST PUSH1 0x0 DUP1 REVERT JUMPDEST SWAP1 DUP1 PUSH1 0x1F DUP4 ADD SLT ISZERO PUSH2 0x2C8 JUMPI DUP2 PUSH1 0x20 PUSH2 0x2E8 SWAP4 CALLDATALOAD SWAP2 ADD PUSH2 0x281 JUMP JUMPDEST SWAP1 JUMP JUMPDEST CALLDATALOAD SWAP1 PUSH20 0xFFFFFFFFFFFFFFFFFFFFFFFFFFFFFFFFFFFFFFFF DUP3 AND DUP3 SUB PUSH2 0x2C8 JUMPI JUMP JUMPDEST SWAP2 SWAP1 DUP3 MLOAD SWAP3 DUP4 DUP3 MSTORE PUSH1 0x0 JUMPDEST DUP5 DUP2 LT PUSH2 0x338 JUMPI POP POP DUP3 PUSH1 0x0 PUSH1 0x20 DUP1 SWAP5 SWAP6 DUP5 ADD ADD MSTORE PUSH1 0x1F DUP1 NOT SWAP2 ADD AND ADD ADD SWAP1 JUMP JUMPDEST PUSH1 0x20 DUP2 DUP4 ADD DUP2 ADD MLOAD DUP5 DUP4 ADD DUP3 ADD MSTORE ADD PUSH2 0x317 JUMP JUMPDEST SWAP1 PUSH1 0x0 SWAP2 PUSH1 0xE0 DUP2 ADD PUSH12 0xFFFFFFFFFFFFFFFFFFFFFFFF SWAP1 DUP5 DUP3 DUP3 MLOAD AND SWAP4 PUSH1 0x40 SWAP3 DUP4 MLOAD SWAP5 PUSH32 0x95EA7B300000000000000000000000000000000000000000000000000000000 DUP7 MSTORE PUSH20 0xFFFFFFFFFFFFFFFFFFFFFFFFFFFFFFFFFFFFFFFF SWAP3 DUP4 PUSH32 0x0 AND SWAP8 DUP9 PUSH1 0x4 DUP10 ADD MSTORE PUSH1 0x24 DUP9 ADD MSTORE PUSH1 0x20 SWAP7 DUP8 DUP2 PUSH1 0x44 DUP2 DUP10 DUP10 PUSH32 0x0 AND GAS CALL DUP1 ISZERO PUSH2 0x629 JUMPI PUSH2 0x5EA JUMPI JUMPDEST POP SWAP4 PUSH2 0x4C1 SWAP4 PUSH1 0xC0 SWAP9 SWAP4 DUP8 SWAP4 PUSH2 0x4D3 DUP11 SWAP9 DUP10 DUP8 MLOAD SWAP14 DUP15 SWAP11 DUP12 SWAP10 DUP11 SWAP9 PUSH32 0x8B79DA400000000000000000000000000000000000000000000000000000000 DUP11 MSTORE DUP5 PUSH1 0x4 DUP12 ADD MSTORE DUP1 PUSH2 0x488 PUSH2 0x470 DUP13 PUSH2 0x124 DUP11 MLOAD SWAP2 PUSH2 0x100 PUSH1 0x24 DUP3 ADD MSTORE ADD SWAP1 PUSH2 0x30C JUMP JUMPDEST SWAP7 DUP9 ADD MLOAD PUSH1 0x23 NOT DUP14 DUP10 SUB DUP2 ADD PUSH1 0x44 DUP16 ADD MSTORE SWAP8 SWAP1 PUSH2 0x30C JUMP JUMPDEST SWAP3 DUP8 ADD MLOAD AND PUSH1 0x64 DUP12 ADD MSTORE PUSH4 0xFFFFFFFF PUSH1 0x60 DUP8 ADD MLOAD AND PUSH1 0x84 DUP12 ADD MSTORE PUSH1 0x80 DUP7 ADD MLOAD AND PUSH1 0xA4 DUP11 ADD MSTORE PUSH1 0xA0 DUP6 ADD MLOAD DUP5 DUP11 DUP4 SUB ADD PUSH1 0xC4 DUP12 ADD MSTORE PUSH2 0x30C JUMP JUMPDEST SWAP3 ADD MLOAD SWAP1 DUP7 DUP4 SUB ADD PUSH1 0xE4 DUP8 ADD MSTORE PUSH2 0x30C JUMP JUMPDEST SWAP2 MLOAD AND PUSH2 0x104 DUP4 ADD MSTORE SUB SWAP3 GAS CALL SWAP3 DUP4 ISZERO PUSH2 0x5E0 JUMPI DUP6 SWAP4 PUSH2 0x5B1 JUMPI JUMPDEST POP DUP3 ISZERO PUSH2 0x554 JUMPI CALLER DUP6 MSTORE DUP5 DUP3 MSTORE DUP5 KECCAK256 SWAP1 DUP2 SLOAD SWAP2 PUSH9 0x10000000000000000 DUP4 LT ISZERO PUSH2 0x540 JUMPI PUSH1 0x1 DUP4 ADD DUP1 DUP3 SSTORE DUP4 LT ISZERO PUSH2 0x52C JUMPI SWAP5 DUP4 SWAP5 SWAP6 DUP2 MSTORE KECCAK256 ADD SSTORE SWAP1 JUMP JUMPDEST PUSH1 0x24 DUP7 PUSH4 0x4E487B71 PUSH1 0xE0 SHL DUP2 MSTORE PUSH1 0x32 PUSH1 0x4 MSTORE REVERT JUMPDEST PUSH1 0x24 DUP7 PUSH4 0x4E487B71 PUSH1 0xE0 SHL DUP2 MSTORE PUSH1 0x41 PUSH1 0x4 MSTORE REVERT JUMPDEST PUSH1 0x64 SWAP3 POP MLOAD SWAP1 PUSH32 0x8C379A000000000000000000000000000000000000000000000000000000000 DUP3 MSTORE PUSH1 0x4 DUP3 ADD MSTORE PUSH1 0x15 PUSH1 0x24 DUP3 ADD MSTORE PUSH32 0x6175746F2D617070726F76652064697361626C65640000000000000000000000 PUSH1 0x44 DUP3 ADD MSTORE REVERT JUMPDEST SWAP1 SWAP3 POP DUP2 DUP2 DUP2 RETURNDATASIZE DUP4 GT PUSH2 0x5D9 JUMPI JUMPDEST PUSH2 0x5C9 DUP2 DUP4 PUSH2 0x249 JUMP JUMPDEST DUP2 ADD SUB SLT PUSH2 0x1E2 JUMPI MLOAD SWAP2 CODESIZE PUSH2 0x4EE JUMP JUMPDEST POP RETURNDATASIZE PUSH2 0x5BF JUMP JUMPDEST DUP2 MLOAD RETURNDATASIZE DUP8 DUP3 RETURNDATACOPY RETURNDATASIZE SWAP1 REVERT JUMPDEST DUP8 DUP2 DUP2 SWAP11 SWAP6 SWAP8 SWAP4 SWAP5 SWAP7 SWAP11 RETURNDATASIZE DUP4 GT PUSH2 0x622 JUMPI JUMPDEST PUSH2 0x606 DUP2 DUP4 PUSH2 0x249 JUMP JUMPDEST DUP2 ADD SUB SLT PUSH2 0x95 JUMPI MLOAD DUP1 ISZERO ISZERO SUB PUSH2 0x1DB JUMPI SWAP4 SWAP2 SWAP7 SWAP3 SWAP1 CODESIZE PUSH2 0x40F JUMP JUMPDEST POP RETURNDATASIZE PUSH2 0x5FC JUMP JUMPDEST DUP8 MLOAD RETURNDATASIZE DUP9 DUP3 RETURNDATACOPY RETURNDATASIZE SWAP1 REVERT INVALID LOG2 PUSH5 0x6970667358 0x22 SLT KECCAK256 0xBC 0xC7 0xC0 SHR SLT 0xE 0xD1 DUP9 0xDF 0xAB SWAP1 PUSH17 0x4FA879C1FF9498C303279B3CCAA0269ED 0x26 LT PUSH6 0x64736F6C6343 STOP ADDMOD SGT STOP CALLER "},"methodIdentifiers":{"acceptOwnership()":"79ba5097","checkUpkeep(bytes)":"6e04ff0d","contractBalance()":"8b7afe2e","donID()":"6e74336b","farmer()":"d811fcf0","fulfillGasLimit()":"24b93e3e","gasLimit()":"f68016b7","generateRequest(string,bytes,string[])":"fe083012","handleOracleFulfillment(bytes32,bytes,bytes)":"0ca76175","i_upkeep()":"303b137c","institution()":"d1384eb6","lastUpkeepTimeStamp()":"089ea02e","latestError()":"fffeb84e","latestRequestId()":"1aa46f59","latestResponse()":"bef3a2f0","owner()":"8da5cb5b","performUpkeep(bytes)":"4585e33b","registry()":"7b103999","request()":"338cdca1","requestCBOR()":"688ecfd1","responseCounter()":"381fc4b5","s_lastError()":"4b0795a8","s_lastRequestId()":"b1e21749","s_lastResponse()":"3944ea3a","s_requestCounter()":"48802b92","s_responseCounter()":"43cd3d86","s_upkeepCounter()":"f5c1279b","sampleMaxSize()":"ebf14a55","sampleStorage(uint256)":"277e2213","setRequest(uint64,uint32,uint256,bytes)":"eb197c77","subscriptionId()":"09c1ba2e","transferOwnership(address)":"f2fde38b","updateInterval()":"fd2c80ae","upkeepContract()":"5e0611f1","upkeepCounter()":"a3d3c0d2"}}}}}