{"contracts/Upkeep.sol":{"Upkeep":{"abi":[{"inputs":[{"internalType":"address","name":"link","type":"address"},{"internalType":"address","name":"registrar","type":"address"}],"stateMutability":"nonpayable","type":"constructor"},{"inputs":[],"name":"i_link","outputs":[{"internalType":"address","name":"","type":"address"}],"stateMutability":"view","type":"function"},{"inputs":[],"name":"i_registrar","outputs":[{"internalType":"address","name":"","type":"address"}],"stateMutability":"view","type":"function"},{"inputs":[{"components":[{"internalType":"string","name":"name","type":"string"},{"internalType":"bytes","name":"encryptedEmail","type":"bytes"},{"internalType":"address","name":"upkeepContract","type":"address"},{"internalType":"uint32","name":"gasLimit","type":"uint32"},{"internalType":"address","name":"adminAddress","type":"address"},{"internalType":"bytes","name":"checkData","type":"bytes"},{"internalType":"bytes","name":"offchainConfig","type":"bytes"},{"internalType":"uint96","name":"amount","type":"uint96"}],"internalType":"struct RegistrationParams","name":"params","type":"tuple"}],"name":"register","outputs":[{"internalType":"uint256","name":"","type":"uint256"}],"stateMutability":"nonpayable","type":"function"}],"evm":{"bytecode":{"linkReferences":{},"object":"60c03461008757601f61072038819003918201601f19168301916001600160401b0383118484101761008c57808492604094855283398101031261008757610052602061004b836100a2565b92016100a2565b9060805260a05260405161066990816100b78239608051818181607101526103e2015260a05181818161022501526103aa0152f35b600080fd5b634e487b7160e01b600052604160045260246000fd5b51906001600160a01b03821682036100875756fe608060408181526004918236101561001657600080fd5b600092833560e01c918263442b1278146101f95750816376a11e76146100995750637d253aff1461004657600080fd5b346100955781600319360112610095576020905173ffffffffffffffffffffffffffffffffffffffff7f0000000000000000000000000000000000000000000000000000000000000000168152f35b5080fd5b8284346101db57600319926020368501126100955780359067ffffffffffffffff908183116101de57610100809684360301126101de578451958601868110838211176101e6578552828101358281116101e2578301366023820112156101e25761010d9036906024848201359101610281565b865260248301358281116101e25761012a908236918601016102cd565b602087015261013b604484016102eb565b85870152606483013563ffffffff811681036101e2576060870152610162608484016102eb565b608087015260a48301358281116101e257610182908236918601016102cd565b60a087015260c48301359182116101de5760e492916101a59136918401016102cd565b60c08601520135906bffffffffffffffffffffffff821682036101db5750826101d49160e0602095015261034c565b9051908152f35b80fd5b8380fd5b8480fd5b602485604184634e487b7160e01b835252fd5b84903461009557816003193601126100955760209073ffffffffffffffffffffffffffffffffffffffff7f0000000000000000000000000000000000000000000000000000000000000000168152f35b90601f8019910116810190811067ffffffffffffffff82111761026b57604052565b634e487b7160e01b600052604160045260246000fd5b92919267ffffffffffffffff821161026b57604051916102ab601f8201601f191660200184610249565b8294818452818301116102c8578281602093846000960137010152565b600080fd5b9080601f830112156102c8578160206102e893359101610281565b90565b359073ffffffffffffffffffffffffffffffffffffffff821682036102c857565b919082519283825260005b848110610338575050826000602080949584010152601f8019910116010190565b602081830181015184830182015201610317565b9060009160e081016bffffffffffffffffffffffff908482825116936040928351947f095ea7b300000000000000000000000000000000000000000000000000000000865273ffffffffffffffffffffffffffffffffffffffff92837f000000000000000000000000000000000000000000000000000000000000000016978860048901526024880152602096878160448189897f0000000000000000000000000000000000000000000000000000000000000000165af18015610629576105ea575b50936104c19360c0989387936104d38a988987519d8e9a8b998a987f08b79da4000000000000000000000000000000000000000000000000000000008a528460048b0152806104886104708c6101248a51916101006024820152019061030c565b968801516023198d8903810160448f0152979061030c565b928701511660648b015263ffffffff60608701511660848b015260808601511660a48a015260a0850151848a83030160c48b015261030c565b920151908683030160e487015261030c565b91511661010483015203925af19283156105e05785936105b1575b5082156105545733855284825284209081549168010000000000000000831015610540576001830180825583101561052c5794839495815220015590565b602486634e487b7160e01b81526032600452fd5b602486634e487b7160e01b81526041600452fd5b6064925051907f08c379a00000000000000000000000000000000000000000000000000000000082526004820152601560248201527f6175746f2d617070726f76652064697361626c656400000000000000000000006044820152fd5b9092508181813d83116105d9575b6105c98183610249565b810103126101e2575191386104ee565b503d6105bf565b81513d87823e3d90fd5b8781819a95979394969a3d8311610622575b6106068183610249565b810103126100955751801515036101db5793919692903861040f565b503d6105fc565b87513d88823e3d90fdfea2646970667358221220bcc7c01c120ed188dfab907004fa879c1ff9498c303279b3ccaa0269ed26106564736f6c63430008130033","opcodes":"PUSH1 0xC0 CALLVALUE PUSH2 0x87 JUMPI PUSH1 0x1F PUSH2 0x720 CODESIZE DUP2 SWAP1 SUB SWAP2 DUP3 ADD PUSH1 0x1F NOT AND DUP4 ADD SWAP2 PUSH1 0x1 PUSH1 0x1 PUSH1 0x40 SHL SUB DUP4 GT DUP5 DUP5 LT OR PUSH2 0x8C JUMPI DUP1 DUP5 SWAP3 PUSH1 0x40 SWAP5 DUP6 MSTORE DUP4 CODECOPY DUP2 ADD SUB SLT PUSH2 0x87 JUMPI PUSH2 0x52 PUSH1 0x20 PUSH2 0x4B DUP4 PUSH2 0xA2 JUMP JUMPDEST SWAP3 ADD PUSH2 0xA2 JUMP JUMPDEST SWAP1 PUSH1 0x80 MSTORE PUSH1 0xA0 MSTORE PUSH1 0x40 MLOAD PUSH2 0x669 SWAP1 DUP2 PUSH2 0xB7 DUP3 CODECOPY PUSH1 0x80 MLOAD DUP2 DUP2 DUP2 PUSH1 0x71 ADD MSTORE PUSH2 0x3E2 ADD MSTORE PUSH1 0xA0 MLOAD DUP2 DUP2 DUP2 PUSH2 0x225 ADD MSTORE PUSH2 0x3AA ADD MSTORE RETURN JUMPDEST PUSH1 0x0 DUP1 REVERT JUMPDEST PUSH4 0x4E487B71 PUSH1 0xE0 SHL PUSH1 0x0 MSTORE PUSH1 0x41 PUSH1 0x4 MSTORE PUSH1 0x24 PUSH1 0x0 REVERT JUMPDEST MLOAD SWAP1 PUSH1 0x1 PUSH1 0x1 PUSH1 0xA0 SHL SUB DUP3 AND DUP3 SUB PUSH2 0x87 JUMPI JUMP INVALID PUSH1 0x80 PUSH1 0x40 DUP2 DUP2 MSTORE PUSH1 0x4 SWAP2 DUP3 CALLDATASIZE LT ISZERO PUSH2 0x16 JUMPI PUSH1 0x0 DUP1 REVERT JUMPDEST PUSH1 0x0 SWAP3 DUP4 CALLDATALOAD PUSH1 0xE0 SHR SWAP2 DUP3 PUSH4 0x442B1278 EQ PUSH2 0x1F9 JUMPI POP DUP2 PUSH4 0x76A11E76 EQ PUSH2 0x99 JUMPI POP PUSH4 0x7D253AFF EQ PUSH2 0x46 JUMPI PUSH1 0x0 DUP1 REVERT JUMPDEST CALLVALUE PUSH2 0x95 JUMPI DUP2 PUSH1 0x3 NOT CALLDATASIZE ADD SLT PUSH2 0x95 JUMPI PUSH1 0x20 SWAP1 MLOAD PUSH20 0xFFFFFFFFFFFFFFFFFFFFFFFFFFFFFFFFFFFFFFFF PUSH32 0x0 AND DUP2 MSTORE RETURN JUMPDEST POP DUP1 REVERT JUMPDEST DUP3 DUP5 CALLVALUE PUSH2 0x1DB JUMPI PUSH1 0x3 NOT SWAP3 PUSH1 0x20 CALLDATASIZE DUP6 ADD SLT PUSH2 0x95 JUMPI DUP1 CALLDATALOAD SWAP1 PUSH8 0xFFFFFFFFFFFFFFFF SWAP1 DUP2 DUP4 GT PUSH2 0x1DE JUMPI PUSH2 0x100 DUP1 SWAP7 DUP5 CALLDATASIZE SUB ADD SLT PUSH2 0x1DE JUMPI DUP5 MLOAD SWAP6 DUP7 ADD DUP7 DUP2 LT DUP4 DUP3 GT OR PUSH2 0x1E6 JUMPI DUP6 MSTORE DUP3 DUP2 ADD CALLDATALOAD DUP3 DUP2 GT PUSH2 0x1E2 JUMPI DUP4 ADD CALLDATASIZE PUSH1 0x23 DUP3 ADD SLT ISZERO PUSH2 0x1E2 JUMPI PUSH2 0x10D SWAP1 CALLDATASIZE SWAP1 PUSH1 0x24 DUP5 DUP3 ADD CALLDATALOAD SWAP2 ADD PUSH2 0x281 JUMP JUMPDEST DUP7 MSTORE PUSH1 0x24 DUP4 ADD CALLDATALOAD DUP3 DUP2 GT PUSH2 0x1E2 JUMPI PUSH2 0x12A SWAP1 DUP3 CALLDATASIZE SWAP2 DUP7 ADD ADD PUSH2 0x2CD JUMP JUMPDEST PUSH1 0x20 DUP8 ADD MSTORE PUSH2 0x13B PUSH1 0x44 DUP5 ADD PUSH2 0x2EB JUMP JUMPDEST DUP6 DUP8 ADD MSTORE PUSH1 0x64 DUP4 ADD CALLDATALOAD PUSH4 0xFFFFFFFF DUP2 AND DUP2 SUB PUSH2 0x1E2 JUMPI PUSH1 0x60 DUP8 ADD MSTORE PUSH2 0x162 PUSH1 0x84 DUP5 ADD PUSH2 0x2EB JUMP JUMPDEST PUSH1 0x80 DUP8 ADD MSTORE PUSH1 0xA4 DUP4 ADD CALLDATALOAD DUP3 DUP2 GT PUSH2 0x1E2 JUMPI PUSH2 0x182 SWAP1 DUP3 CALLDATASIZE SWAP2 DUP7 ADD ADD PUSH2 0x2CD JUMP JUMPDEST PUSH1 0xA0 DUP8 ADD MSTORE PUSH1 0xC4 DUP4 ADD CALLDATALOAD SWAP2 DUP3 GT PUSH2 0x1DE JUMPI PUSH1 0xE4 SWAP3 SWAP2 PUSH2 0x1A5 SWAP2 CALLDATASIZE SWAP2 DUP5 ADD ADD PUSH2 0x2CD JUMP JUMPDEST PUSH1 0xC0 DUP7 ADD MSTORE ADD CALLDATALOAD SWAP1 PUSH12 0xFFFFFFFFFFFFFFFFFFFFFFFF DUP3 AND DUP3 SUB PUSH2 0x1DB JUMPI POP DUP3 PUSH2 0x1D4 SWAP2 PUSH1 0xE0 PUSH1 0x20 SWAP6 ADD MSTORE PUSH2 0x34C JUMP JUMPDEST SWAP1 MLOAD SWAP1 DUP2 MSTORE RETURN JUMPDEST DUP1 REVERT JUMPDEST DUP4 DUP1 REVERT JUMPDEST DUP5 DUP1 REVERT JUMPDEST PUSH1 0x24 DUP6 PUSH1 0x41 DUP5 PUSH4 0x4E487B71 PUSH1 0xE0 SHL DUP4 MSTORE MSTORE REVERT JUMPDEST DUP5 SWAP1 CALLVALUE PUSH2 0x95 JUMPI DUP2 PUSH1 0x3 NOT CALLDATASIZE ADD SLT PUSH2 0x95 JUMPI PUSH1 0x20 SWAP1 PUSH20 0xFFFFFFFFFFFFFFFFFFFFFFFFFFFFFFFFFFFFFFFF PUSH32 0x0 AND DUP2 MSTORE RETURN JUMPDEST SWAP1 PUSH1 0x1F DUP1 NOT SWAP2 ADD AND DUP2 ADD SWAP1 DUP2 LT PUSH8 0xFFFFFFFFFFFFFFFF DUP3 GT OR PUSH2 0x26B JUMPI PUSH1 0x40 MSTORE JUMP JUMPDEST PUSH4 0x4E487B71 PUSH1 0xE0 SHL PUSH1 0x0 MSTORE PUSH1 0x41 PUSH1 0x4 MSTORE PUSH1 0x24 PUSH1 0x0 REVERT JUMPDEST SWAP3 SWAP2 SWAP3 PUSH8 0xFFFFFFFFFFFFFFFF DUP3 GT PUSH2 0x26B JUMPI PUSH1 0x40 MLOAD SWAP2 PUSH2 0x2AB PUSH1 0x1F DUP3 ADD PUSH1 0x1F NOT AND PUSH1 0x20 ADD DUP5 PUSH2 0x249 JUMP JUMPDEST DUP3 SWAP5 DUP2 DUP5 MSTORE DUP2 DUP4 ADD GT PUSH2 0x2C8 JUMPI DUP3 DUP2 PUSH1 0x20 SWAP4 DUP5 PUSH1 0x0 SWAP7 ADD CALLDATACOPY ADD ADD MSTORE JUMP JUMPDEST PUSH1 0x0 DUP1 REVERT JUMPDEST SWAP1 DUP1 PUSH1 0x1F DUP4 ADD SLT ISZERO PUSH2 0x2C8 JUMPI DUP2 PUSH1 0x20 PUSH2 0x2E8 SWAP4 CALLDATALOAD SWAP2 ADD PUSH2 0x281 JUMP JUMPDEST SWAP1 JUMP JUMPDEST CALLDATALOAD SWAP1 PUSH20 0xFFFFFFFFFFFFFFFFFFFFFFFFFFFFFFFFFFFFFFFF DUP3 AND DUP3 SUB PUSH2 0x2C8 JUMPI JUMP JUMPDEST SWAP2 SWAP1 DUP3 MLOAD SWAP3 DUP4 DUP3 MSTORE PUSH1 0x0 JUMPDEST DUP5 DUP2 LT PUSH2 0x338 JUMPI POP POP DUP3 PUSH1 0x0 PUSH1 0x20 DUP1 SWAP5 SWAP6 DUP5 ADD ADD MSTORE PUSH1 0x1F DUP1 NOT SWAP2 ADD AND ADD ADD SWAP1 JUMP JUMPDEST PUSH1 0x20 DUP2 DUP4 ADD DUP2 ADD MLOAD DUP5 DUP4 ADD DUP3 ADD MSTORE ADD PUSH2 0x317 JUMP JUMPDEST SWAP1 PUSH1 0x0 SWAP2 PUSH1 0xE0 DUP2 ADD PUSH12 0xFFFFFFFFFFFFFFFFFFFFFFFF SWAP1 DUP5 DUP3 DUP3 MLOAD AND SWAP4 PUSH1 0x40 SWAP3 DUP4 MLOAD SWAP5 PUSH32 0x95EA7B300000000000000000000000000000000000000000000000000000000 DUP7 MSTORE PUSH20 0xFFFFFFFFFFFFFFFFFFFFFFFFFFFFFFFFFFFFFFFF SWAP3 DUP4 PUSH32 0x0 AND SWAP8 DUP9 PUSH1 0x4 DUP10 ADD MSTORE PUSH1 0x24 DUP9 ADD MSTORE PUSH1 0x20 SWAP7 DUP8 DUP2 PUSH1 0x44 DUP2 DUP10 DUP10 PUSH32 0x0 AND GAS CALL DUP1 ISZERO PUSH2 0x629 JUMPI PUSH2 0x5EA JUMPI JUMPDEST POP SWAP4 PUSH2 0x4C1 SWAP4 PUSH1 0xC0 SWAP9 SWAP4 DUP8 SWAP4 PUSH2 0x4D3 DUP11 SWAP9 DUP10 DUP8 MLOAD SWAP14 DUP15 SWAP11 DUP12 SWAP10 DUP11 SWAP9 PUSH32 0x8B79DA400000000000000000000000000000000000000000000000000000000 DUP11 MSTORE DUP5 PUSH1 0x4 DUP12 ADD MSTORE DUP1 PUSH2 0x488 PUSH2 0x470 DUP13 PUSH2 0x124 DUP11 MLOAD SWAP2 PUSH2 0x100 PUSH1 0x24 DUP3 ADD MSTORE ADD SWAP1 PUSH2 0x30C JUMP JUMPDEST SWAP7 DUP9 ADD MLOAD PUSH1 0x23 NOT DUP14 DUP10 SUB DUP2 ADD PUSH1 0x44 DUP16 ADD MSTORE SWAP8 SWAP1 PUSH2 0x30C JUMP JUMPDEST SWAP3 DUP8 ADD MLOAD AND PUSH1 0x64 DUP12 ADD MSTORE PUSH4 0xFFFFFFFF PUSH1 0x60 DUP8 ADD MLOAD AND PUSH1 0x84 DUP12 ADD MSTORE PUSH1 0x80 DUP7 ADD MLOAD AND PUSH1 0xA4 DUP11 ADD MSTORE PUSH1 0xA0 DUP6 ADD MLOAD DUP5 DUP11 DUP4 SUB ADD PUSH1 0xC4 DUP12 ADD MSTORE PUSH2 0x30C JUMP JUMPDEST SWAP3 ADD MLOAD SWAP1 DUP7 DUP4 SUB ADD PUSH1 0xE4 DUP8 ADD MSTORE PUSH2 0x30C JUMP JUMPDEST SWAP2 MLOAD AND PUSH2 0x104 DUP4 ADD MSTORE SUB SWAP3 GAS CALL SWAP3 DUP4 ISZERO PUSH2 0x5E0 JUMPI DUP6 SWAP4 PUSH2 0x5B1 JUMPI JUMPDEST POP DUP3 ISZERO PUSH2 0x554 JUMPI CALLER DUP6 MSTORE DUP5 DUP3 MSTORE DUP5 KECCAK256 SWAP1 DUP2 SLOAD SWAP2 PUSH9 0x10000000000000000 DUP4 LT ISZERO PUSH2 0x540 JUMPI PUSH1 0x1 DUP4 ADD DUP1 DUP3 SSTORE DUP4 LT ISZERO PUSH2 0x52C JUMPI SWAP5 DUP4 SWAP5 SWAP6 DUP2 MSTORE KECCAK256 ADD SSTORE SWAP1 JUMP JUMPDEST PUSH1 0x24 DUP7 PUSH4 0x4E487B71 PUSH1 0xE0 SHL DUP2 MSTORE PUSH1 0x32 PUSH1 0x4 MSTORE REVERT JUMPDEST PUSH1 0x24 DUP7 PUSH4 0x4E487B71 PUSH1 0xE0 SHL DUP2 MSTORE PUSH1 0x41 PUSH1 0x4 MSTORE REVERT JUMPDEST PUSH1 0x64 SWAP3 POP MLOAD SWAP1 PUSH32 0x8C379A000000000000000000000000000000000000000000000000000000000 DUP3 MSTORE PUSH1 0x4 DUP3 ADD MSTORE PUSH1 0x15 PUSH1 0x24 DUP3 ADD MSTORE PUSH32 0x6175746F2D617070726F76652064697361626C65640000000000000000000000 PUSH1 0x44 DUP3 ADD MSTORE REVERT JUMPDEST SWAP1 SWAP3 POP DUP2 DUP2 DUP2 RETURNDATASIZE DUP4 GT PUSH2 0x5D9 JUMPI JUMPDEST PUSH2 0x5C9 DUP2 DUP4 PUSH2 0x249 JUMP JUMPDEST DUP2 ADD SUB SLT PUSH2 0x1E2 JUMPI MLOAD SWAP2 CODESIZE PUSH2 0x4EE JUMP JUMPDEST POP RETURNDATASIZE PUSH2 0x5BF JUMP JUMPDEST DUP2 MLOAD RETURNDATASIZE DUP8 DUP3 RETURNDATACOPY RETURNDATASIZE SWAP1 REVERT JUMPDEST DUP8 DUP2 DUP2 SWAP11 SWAP6 SWAP8 SWAP4 SWAP5 SWAP7 SWAP11 RETURNDATASIZE DUP4 GT PUSH2 0x622 JUMPI JUMPDEST PUSH2 0x606 DUP2 DUP4 PUSH2 0x249 JUMP JUMPDEST DUP2 ADD SUB SLT PUSH2 0x95 JUMPI MLOAD DUP1 ISZERO ISZERO SUB PUSH2 0x1DB JUMPI SWAP4 SWAP2 SWAP7 SWAP3 SWAP1 CODESIZE PUSH2 0x40F JUMP JUMPDEST POP RETURNDATASIZE PUSH2 0x5FC JUMP JUMPDEST DUP8 MLOAD RETURNDATASIZE DUP9 DUP3 RETURNDATACOPY RETURNDATASIZE SWAP1 REVERT INVALID LOG2 PUSH5 0x6970667358 0x22 SLT KECCAK256 0xBC 0xC7 0xC0 SHR SLT 0xE 0xD1 DUP9 0xDF 0xAB SWAP1 PUSH17 0x4FA879C1FF9498C303279B3CCAA0269ED 0x26 LT PUSH6 0x64736F6C6343 STOP ADDMOD SGT STOP CALLER "},"methodIdentifiers":{"i_link()":"7d253aff","i_registrar()":"442b1278","register((string,bytes,address,uint32,address,bytes,bytes,uint96))":"76a11e76"}}}}}