{"contracts/mock/mockAutomatedFunctionsConsumer.sol":{"AutomatedFunctionsConsumer":{"abi":[{"inputs":[{"internalType":"address","name":"_deployer","type":"address"},{"internalType":"address","name":"_farmer","type":"address"},{"internalType":"uint256","name":"_humidityLimit","type":"uint256"},{"internalType":"uint256","name":"_sampleMaxSize","type":"uint256"},{"internalType":"uint256","name":"_reparationValue","type":"uint256"},{"internalType":"uint256","name":"_interval","type":"uint256"},{"internalType":"address","name":"_router","type":"address"},{"internalType":"uint64","name":"_subscriptionId","type":"uint64"},{"internalType":"address","name":"_registry","type":"address"},{"internalType":"address","name":"_sepoliaLINKAddress","type":"address"},{"internalType":"address","name":"_sepoliaRegistrarAddress","type":"address"},{"internalType":"uint32","name":"_fulfillGasLimit","type":"uint32"}],"stateMutability":"payable","type":"constructor"},{"inputs":[{"internalType":"address","name":"caller","type":"address"},{"internalType":"address","name":"owner","type":"address"},{"internalType":"address","name":"automationRegistry","type":"address"}],"name":"NotAllowedCaller","type":"error"},{"inputs":[{"internalType":"bytes32","name":"requestId","type":"bytes32"}],"name":"UnexpectedRequestID","type":"error"},{"anonymous":false,"inputs":[{"indexed":true,"internalType":"bytes32","name":"requestId","type":"bytes32"},{"indexed":false,"internalType":"bytes","name":"result","type":"bytes"},{"indexed":false,"internalType":"bytes","name":"err","type":"bytes"}],"name":"OCRResponse","type":"event"},{"anonymous":false,"inputs":[{"indexed":true,"internalType":"address","name":"from","type":"address"},{"indexed":true,"internalType":"address","name":"to","type":"address"}],"name":"OwnershipTransferRequested","type":"event"},{"anonymous":false,"inputs":[{"indexed":true,"internalType":"address","name":"from","type":"address"},{"indexed":true,"internalType":"address","name":"to","type":"address"}],"name":"OwnershipTransferred","type":"event"},{"anonymous":false,"inputs":[{"indexed":false,"internalType":"string","name":"reason","type":"string"}],"name":"RequestRevertedWithErrorMsg","type":"event"},{"anonymous":false,"inputs":[{"indexed":false,"internalType":"bytes","name":"data","type":"bytes"}],"name":"RequestRevertedWithoutErrorMsg","type":"event"},{"anonymous":false,"inputs":[{"indexed":true,"internalType":"bytes32","name":"id","type":"bytes32"}],"name":"RequestSent","type":"event"},{"anonymous":false,"inputs":[{"indexed":true,"internalType":"bytes32","name":"requestId","type":"bytes32"},{"indexed":false,"internalType":"bytes","name":"response","type":"bytes"},{"indexed":false,"internalType":"bytes","name":"err","type":"bytes"}],"name":"Response","type":"event"},{"anonymous":false,"inputs":[{"indexed":false,"internalType":"address","name":"upkeepAddress","type":"address"}],"name":"upkeepCreated","type":"event"},{"anonymous":false,"inputs":[{"indexed":false,"internalType":"uint256","name":"upkeepId","type":"uint256"}],"name":"upkeepRegistered","type":"event"},{"inputs":[],"name":"REQUEST_DATA_VERSION","outputs":[{"internalType":"uint16","name":"","type":"uint16"}],"stateMutability":"view","type":"function"},{"inputs":[],"name":"acceptOwnership","outputs":[],"stateMutability":"nonpayable","type":"function"},{"inputs":[{"internalType":"bytes","name":"","type":"bytes"}],"name":"checkUpkeep","outputs":[{"internalType":"bool","name":"upkeepNeeded","type":"bool"},{"internalType":"bytes","name":"performData","type":"bytes"}],"stateMutability":"view","type":"function"},{"inputs":[],"name":"computationCBOR","outputs":[{"internalType":"bytes","name":"","type":"bytes"}],"stateMutability":"view","type":"function"},{"inputs":[],"name":"contractBalance","outputs":[{"internalType":"uint256","name":"","type":"uint256"}],"stateMutability":"view","type":"function"},{"inputs":[],"name":"donID","outputs":[{"internalType":"bytes32","name":"","type":"bytes32"}],"stateMutability":"view","type":"function"},{"inputs":[],"name":"farmer","outputs":[{"internalType":"address","name":"","type":"address"}],"stateMutability":"view","type":"function"},{"inputs":[],"name":"fulfillGasLimit","outputs":[{"internalType":"uint32","name":"","type":"uint32"}],"stateMutability":"view","type":"function"},{"inputs":[],"name":"gasLimit","outputs":[{"internalType":"uint32","name":"","type":"uint32"}],"stateMutability":"view","type":"function"},{"inputs":[],"name":"humidityLimit","outputs":[{"internalType":"uint256","name":"","type":"uint256"}],"stateMutability":"view","type":"function"},{"inputs":[],"name":"institution","outputs":[{"internalType":"address","name":"","type":"address"}],"stateMutability":"view","type":"function"},{"inputs":[],"name":"interval","outputs":[{"internalType":"uint256","name":"","type":"uint256"}],"stateMutability":"view","type":"function"},{"inputs":[],"name":"lastUpkeepTimeStamp","outputs":[{"internalType":"uint256","name":"","type":"uint256"}],"stateMutability":"view","type":"function"},{"inputs":[],"name":"latestError","outputs":[{"internalType":"bytes","name":"","type":"bytes"}],"stateMutability":"view","type":"function"},{"inputs":[],"name":"latestRequestId","outputs":[{"internalType":"bytes32","name":"","type":"bytes32"}],"stateMutability":"view","type":"function"},{"inputs":[],"name":"latestResponse","outputs":[{"internalType":"bytes","name":"","type":"bytes"}],"stateMutability":"view","type":"function"},{"inputs":[],"name":"owner","outputs":[{"internalType":"address","name":"","type":"address"}],"stateMutability":"view","type":"function"},{"inputs":[{"internalType":"bytes","name":"","type":"bytes"}],"name":"performUpkeep","outputs":[],"stateMutability":"nonpayable","type":"function"},{"inputs":[],"name":"registry","outputs":[{"internalType":"address","name":"","type":"address"}],"stateMutability":"view","type":"function"},{"inputs":[],"name":"reparationValue","outputs":[{"internalType":"uint256","name":"","type":"uint256"}],"stateMutability":"view","type":"function"},{"inputs":[],"name":"request","outputs":[{"internalType":"bytes","name":"","type":"bytes"}],"stateMutability":"view","type":"function"},{"inputs":[],"name":"requestCBOR","outputs":[{"internalType":"bytes","name":"","type":"bytes"}],"stateMutability":"view","type":"function"},{"inputs":[],"name":"requestId","outputs":[{"internalType":"bytes32","name":"","type":"bytes32"}],"stateMutability":"view","type":"function"},{"inputs":[{"internalType":"bytes32","name":"","type":"bytes32"},{"internalType":"uint256","name":"","type":"uint256"}],"name":"requests","outputs":[{"internalType":"uint64","name":"subscriptionId","type":"uint64"},{"internalType":"bytes","name":"data","type":"bytes"},{"internalType":"uint16","name":"DATA_VERSION","type":"uint16"},{"internalType":"uint32","name":"callbackGasLimit","type":"uint32"},{"internalType":"bytes32","name":"donId","type":"bytes32"}],"stateMutability":"view","type":"function"},{"inputs":[],"name":"responseCounter","outputs":[{"internalType":"uint256","name":"","type":"uint256"}],"stateMutability":"view","type":"function"},{"inputs":[],"name":"router","outputs":[{"internalType":"address","name":"","type":"address"}],"stateMutability":"view","type":"function"},{"inputs":[],"name":"s_lastError","outputs":[{"internalType":"bytes","name":"","type":"bytes"}],"stateMutability":"view","type":"function"},{"inputs":[],"name":"s_lastRequestId","outputs":[{"internalType":"bytes32","name":"","type":"bytes32"}],"stateMutability":"view","type":"function"},{"inputs":[],"name":"s_lastResponse","outputs":[{"internalType":"bytes","name":"","type":"bytes"}],"stateMutability":"view","type":"function"},{"inputs":[],"name":"s_requestCounter","outputs":[{"internalType":"uint256","name":"","type":"uint256"}],"stateMutability":"view","type":"function"},{"inputs":[],"name":"s_responseCounter","outputs":[{"internalType":"uint256","name":"","type":"uint256"}],"stateMutability":"view","type":"function"},{"inputs":[],"name":"s_upkeepCounter","outputs":[{"internalType":"uint256","name":"","type":"uint256"}],"stateMutability":"view","type":"function"},{"inputs":[],"name":"sampleMaxSize","outputs":[{"internalType":"uint256","name":"","type":"uint256"}],"stateMutability":"view","type":"function"},{"inputs":[{"internalType":"uint256","name":"","type":"uint256"}],"name":"sampleStorage","outputs":[{"internalType":"string","name":"","type":"string"}],"stateMutability":"view","type":"function"},{"inputs":[],"name":"sepoliaLINKAddress","outputs":[{"internalType":"address","name":"","type":"address"}],"stateMutability":"view","type":"function"},{"inputs":[],"name":"sepoliaRegistrarAddress","outputs":[{"internalType":"address","name":"","type":"address"}],"stateMutability":"view","type":"function"},{"inputs":[{"internalType":"bytes","name":"receivedCBOR","type":"bytes"}],"name":"setComputation","outputs":[],"stateMutability":"nonpayable","type":"function"},{"inputs":[{"internalType":"bytes","name":"newRequestCBOR","type":"bytes"},{"internalType":"uint64","name":"_subscriptionId","type":"uint64"},{"internalType":"bytes32","name":"_donID","type":"bytes32"}],"name":"setRequest","outputs":[],"stateMutability":"nonpayable","type":"function"},{"inputs":[],"name":"subscriptionId","outputs":[{"internalType":"uint64","name":"","type":"uint64"}],"stateMutability":"view","type":"function"},{"inputs":[{"internalType":"address","name":"to","type":"address"}],"name":"transferOwnership","outputs":[],"stateMutability":"nonpayable","type":"function"},{"inputs":[],"name":"upkeepContract","outputs":[{"internalType":"address","name":"","type":"address"}],"stateMutability":"view","type":"function"},{"inputs":[],"name":"upkeepCounter","outputs":[{"internalType":"uint256","name":"","type":"uint256"}],"stateMutability":"view","type":"function"},{"inputs":[],"name":"upkeepId","outputs":[{"internalType":"uint256","name":"","type":"uint256"}],"stateMutability":"view","type":"function"}],"evm":{"bytecode":{"linkReferences":{},"object":"60806001600160401b03601f62001b4c38819003918201601f191684019183831185841017620001cd5780859261018094604052833981010312620001c8576200004982620001e3565b6200005760208401620001e3565b9260408101519060608101519260808201519160a0810151936200007e60c08301620001e3565b60e0830151978816809803620001c8576200009d6101008401620001e3565b98620000ad6101208501620001e3565b91610160620000c06101408701620001e3565b9501519763ffffffff89168903620001c85760006001556001600160a01b0396871697881562000183576bffffffff00000000000000009a88968780968c60018060a01b03199d8e60035416176003558d601c541617601c55168b601d541617601d55602055602155601f55600a551685600c541617600c5581600954991685600d541617600d551683601a541617601a551690601b541617601b5560401b169160018060601b0319161717600955426018556040516119539081620001f98239f35b60405162461bcd60e51b815260206004820152601860248201527f43616e6e6f7420736574206f776e657220746f207a65726f00000000000000006044820152606490fd5b600080fd5b634e487b7160e01b600052604160045260246000fd5b51906001600160a01b0382168203620001c85756fe608060408181526004918236101561001657600080fd5b600092833560e01c9182626d6cae146113b757508163089ea02e1461139857816309c1ba2e1461136f5781631243bcc3146113475781631aa46f591461132857816324b93e3e14611302578163277e221314611202578163338cdca11461115857816336e6a92f14610fc3578163381fc4b514610fa45781633944ea3a14610efa57816343cd3d8614610edb5781634585e33b14610c7957816348802b9214610c5a57816348bd6f0514610c3b5781634b0795a814610b915781635d641dfc14610b755781635e0611f114610b4d578163688ecfd114610b2f5781636baa48fe14610b075781636e04ff0d14610a0c5781636e74336b146109ed57816379ba5097146109315781637b103999146109095781637d95f68a146107815781638b7afe2e146107665781638da5cb5b1461073e578163947a36fb1461071f5781639655e6d8146105e3578163a3097139146105c5578163a3d3c0d2146105a6578163b1e2174914610587578163bd4ca97b14610556578163bef3a2f0146104ac578163d1384eb614610484578163d2aa789f14610465578163d811fcf01461043d578163ebf14a551461041e578163f2fde38b1461035157508063f5c1279b14610333578063f68016b71461030f578063f887ea40146102e85763fffeb84e146101fd57600080fd5b346102e457816003193601126102e4578051908260085461021d816113d1565b808552916001918083169081156102bc575060011461025f575b5050506102498261025b94038361140b565b51918291602083526020830190611443565b0390f35b9450600885527ff3f7a9fe364faab93b216da50a3214154f22a0a2b415b23a84c8169e8b636ee35b8286106102a45750505061024982602061025b9582010194610237565b80546020878701810191909152909501948101610287565b61025b97508693506020925061024994915060ff191682840152151560051b82010194610237565b5080fd5b50346102e457816003193601126102e4576020906001600160a01b03600c54169051908152f35b50346102e457816003193601126102e45760209063ffffffff601054169051908152f35b50346102e457816003193601126102e4576020906015549051908152f35b9190503461041a57602036600319011261041a578135916001600160a01b03918284168094036104165761038361163f565b3384146103d357508273ffffffffffffffffffffffffffffffffffffffff19825416179055600354167fed8889f560326eb138920d842192f0eb3dd22b4f139c87a2c57538e05bae12788380a380f35b906020606492519162461bcd60e51b8352820152601760248201527f43616e6e6f74207472616e7366657220746f2073656c660000000000000000006044820152fd5b8480fd5b8280fd5b5050346102e457816003193601126102e4576020906021549051908152f35b5050346102e457816003193601126102e4576020906001600160a01b03601d54169051908152f35b5050346102e457816003193601126102e457602090600e549051908152f35b5050346102e457816003193601126102e4576020906001600160a01b03601c54169051908152f35b5050346102e457816003193601126102e457805190826007546104ce816113d1565b808552916001918083169081156102bc57506001146104f9575050506102498261025b94038361140b565b9450600785527fa66cc928b5edb82af9bd49922954155ab7b0942694bea4ce44661d9a8736c6885b82861061053e5750505061024982602061025b9582010194610237565b80546020878701810191909152909501948101610521565b5050346102e457816003193601126102e45761025b90610574611483565b9051918291602083526020830190611443565b5050346102e457816003193601126102e4576020906012549051908152f35b5050346102e457816003193601126102e4576020906019549051908152f35b5050346102e457816003193601126102e45760209081549051908152f35b8383346102e457806003193601126102e4576024359235825260209260028452818320805482101561071b57906106199161160d565b509167ffffffffffffffff8354169260018082019286855194859383825492610641846113d1565b808852938381169081156106f557506001146106af575b505050505063ffffffff929161066f91038461140b565b610693600360028301549201549360a08651988998895288015260a0870190611443565b9361ffff82169086015260101c16606084015260808301520390f35b81528381209695945091905b8183106106dd5750939450919250908201018661066f63ffffffff8a80610658565b865488840185015295860195879450918301916106bb565b60ff19168689015250505050151560051b83010190508661066f63ffffffff8a80610658565b8380fd5b5050346102e457816003193601126102e457602090600a549051908152f35b5050346102e457816003193601126102e4576020906001600160a01b03600354169051908152f35b5050346102e457816003193601126102e45751478152602090f35b833461090657602091826003193601126102e45767ffffffffffffffff813581811161071b576107b490369084016115da565b9290916107bf61163f565b83116108f357506107d16024546113d1565b601f8111610895575b508293601f8311600114610817575092829382939261080c575b50508160011b916000199060031b1c19161760245580f35b0135905083806107f4565b601f198316947f7cd332d19b93bcabe3cce7ca0c18a052f57e5fd03b4758a09f30f5ddc4b22ec4929185905b87821061087d575050836001959610610863575b505050811b0160245580f35b0135600019600384901b60f8161c19169055838080610857565b80600184968294958701358155019501920190610843565b7f7cd332d19b93bcabe3cce7ca0c18a052f57e5fd03b4758a09f30f5ddc4b22ec4601f840160051c8101918685106108e9575b601f0160051c01905b8181106108de57506107da565b8481556001016108d1565b90915081906108c8565b836041602492634e487b7160e01b835252fd5b80fd5b5050346102e457816003193601126102e4576020906001600160a01b03600d54169051908152f35b9190503461041a578260031936011261041a578154916001600160a01b039182841633036109aa57506003549273ffffffffffffffffffffffffffffffffffffffff199033828616176003551690553391167f8be0079c531659141344cd1fd0a4f28419497f9722a3daafe3b4186f6b6457e08380a380f35b906020606492519162461bcd60e51b8352820152601660248201527f4d7573742062652070726f706f736564206f776e6572000000000000000000006044820152fd5b5050346102e457816003193601126102e4576020906011549051908152f35b90503461041a576020918260031936011261071b5767ffffffffffffffff918035838111610b035736602382011215610b035780820135938411610af0578251601f1994879291610a64601f8301881689018261140b565b818152366024838501011161071b5781602489940184830137010152601854420390428211610add5750600a92919254109180519485938452818585015260609485518093860152815b838110610ac8575050838201850152601f01168101030190f35b60808101518882018801528795508101610aae565b856011602492634e487b7160e01b835252fd5b602486604184634e487b7160e01b835252fd5b8580fd5b5050346102e457816003193601126102e4576020906001600160a01b03601b54169051908152f35b5050346102e457816003193601126102e45761025b90610574611541565b5050346102e457816003193601126102e4576020906001600160a01b03601e54169051908152f35b5050346102e457816003193601126102e4576020905160018152f35b5050346102e457816003193601126102e45780519082601454610bb3816113d1565b808552916001918083169081156102bc5750600114610bde575050506102498261025b94038361140b565b9450601485527fce6d7b5282bd9a3661ae061feed1dbda4e52ab073b1f9285be6e155d9c38d4ec5b828610610c235750505061024982602061025b9582010194610237565b80546020878701810191909152909501948101610c06565b5050346102e457816003193601126102e457602090601f549051908152f35b5050346102e457816003193601126102e4576020906016549051908152f35b9190503461041a57602036600319011261041a5767ffffffffffffffff90823582811161041657610cad90369085016115da565b50506001600160a01b038060035416908133141580610ecd575b610e8d575050600e5415610e4b5780516020810181811084821117610e38579085918352526018544203428111610e2557600a541015610de357504260185560195460018101809111610dd0576019556021546022541015610d7457610d45906009541663ffffffff6010541660115491610d40611541565b611697565b8060125582556016549060018201809211610d61575060165580f35b826011602492634e487b7160e01b835252fd5b610d4590740100000000000000000000000000000000000000007fffffffffffffffffffffff00ffffffffffffffffffffffffffffffffffffffff601e541617601e556009541663ffffffff6010541660115491610d40611483565b602484601185634e487b7160e01b835252fd5b5162461bcd60e51b8152602081840152601560248201527f54696d6520696e74657276616c206e6f74206d657400000000000000000000006044820152606490fd5b602485601186634e487b7160e01b835252fd5b602486604187634e487b7160e01b835252fd5b5162461bcd60e51b8152602081840152601560248201527f55706b656570206e6f74207265676973746572656400000000000000000000006044820152606490fd5b6064949350601e54169151927f426fbc71000000000000000000000000000000000000000000000000000000008452339084015260248301526044820152fd5b5080601e5416331415610cc7565b5050346102e457816003193601126102e4576020906017549051908152f35b5050346102e457816003193601126102e45780519082601354610f1c816113d1565b808552916001918083169081156102bc5750600114610f47575050506102498261025b94038361140b565b9450601385527f66de8ffda797e3de9c05e8fc57b3bf0ec28a930d40b0d285d93c06501cf6a0905b828610610f8c5750505061024982602061025b9582010194610237565b80546020878701810191909152909501948101610f6f565b5050346102e457816003193601126102e457602090600b549051908152f35b83346109065760603660031901126109065767ffffffffffffffff823581811161041a57610ff490369085016115da565b9093602435928084168094036104165761100c61163f565b82116108f3575061101e6005546113d1565b601f81116110f9575b5082601f821160011461107b57839482939492611070575b50508160011b916000199060031b1c1916176005555b67ffffffffffffffff19600954161760095560443560115580f35b01359050848061103f565b601f198216947f036b6384b5eca791c62761152d0c79bb0604c104a5fb6f4eb0703f3154bb3db091855b8781106110e15750836001959697106110c7575b505050811b01600555611055565b0135600019600384901b60f8161c191690558480806110b9565b909260206001819286860135815501940191016110a5565b7f036b6384b5eca791c62761152d0c79bb0604c104a5fb6f4eb0703f3154bb3db0601f830160051c8101916020841061114e575b601f0160051c01905b8181106111435750611027565b848155600101611136565b909150819061112d565b5050346102e457816003193601126102e45780519082600f5461117a816113d1565b808552916001918083169081156102bc57506001146111a5575050506102498261025b94038361140b565b9450600f85527f8d1108e10bcb7c27dddfc02ed9d693a074039d026cf4ea4240b40f7d581ac8025b8286106111ea5750505061024982602061025b9582010194610237565b805460208787018101919091529095019481016111cd565b9190503461041a576020918260031936011261071b573560225481101561071b57602284527f61035b26e3e9eee00e0d72fd1ee8ddca6894550dca6916ea2ac6baa90d11e5100181519384918181549061125b826113d1565b928386526001928884821691826000146112d857505060011461129a575b858861025b8961128b848a038561140b565b51928284938452830190611443565b87945081939291528383205b8284106112c0575050508201018161128b61025b38611279565b8054848a0186015288955087949093019281016112a6565b60ff19168882015294151560051b8701909401945085935061128b925061025b9150389050611279565b5050346102e457816003193601126102e4576009548151911c63ffffffff168152602090f35b5050346102e457816003193601126102e4576020906006549051908152f35b5050346102e457816003193601126102e4576020906001600160a01b03601a54169051908152f35b5050346102e457816003193601126102e45760209067ffffffffffffffff600954169051908152f35b5050346102e457816003193601126102e4576020906018549051908152f35b8490346102e457816003193601126102e457602091548152f35b90600182811c92168015611401575b60208310146113eb57565b634e487b7160e01b600052602260045260246000fd5b91607f16916113e0565b90601f8019910116810190811067ffffffffffffffff82111761142d57604052565b634e487b7160e01b600052604160045260246000fd5b919082519283825260005b84811061146f575050826000602080949584010152601f8019910116010190565b60208183018101518483018201520161144e565b6040519060008260245491611497836113d1565b8083529260019081811690811561151f57506001146114c0575b506114be9250038361140b565b565b6024600090815291507f7cd332d19b93bcabe3cce7ca0c18a052f57e5fd03b4758a09f30f5ddc4b22ec45b84831061150457506114be9350508101602001386114b1565b81935090816020925483858a010152019101909185926114eb565b9050602092506114be94915060ff191682840152151560051b820101386114b1565b6040519060008260055491611555836113d1565b8083529260019081811690811561151f575060011461157b57506114be9250038361140b565b6005600090815291507f036b6384b5eca791c62761152d0c79bb0604c104a5fb6f4eb0703f3154bb3db05b8483106115bf57506114be9350508101602001386114b1565b81935090816020925483858a010152019101909185926115a6565b9181601f840112156116085782359167ffffffffffffffff8311611608576020838186019501011161160857565b600080fd5b80548210156116295760005260206000209060021b0190600090565b634e487b7160e01b600052603260045260246000fd5b6001600160a01b0360035416330361165357565b606460405162461bcd60e51b815260206004820152601660248201527f4f6e6c792063616c6c61626c65206279206f776e6572000000000000000000006044820152fd5b91909392936040519160a0830167ffffffffffffffff928482108483111761142d5783916040521683526020938484019081526040840192600180855263ffffffff60608701941684526080860198895280549660009780895582810180821161190957835588526002815260408820805490680100000000000000008210156118f5579061172a91848201815561160d565b9790976118e2578390511667ffffffffffffffff19885416178755818701935180519384116118ce5761175d85546113d1565b601f8111611888575b5081601f85116001146117fa57509280600397959381937f1131472297a800fee664d1d89cfa8f7676ff07189ecc53f80bbb5f4969099db89c9d98968c946117ef575b50501b9160001990881b1c19161790555b61ffff6002860192511665ffffffff00008354925160101b169165ffffffffffff19161717905551910155805491818392a290565b0151925038806117a9565b9190601f949394198416868b52838b20938b905b828210611871575050917f1131472297a800fee664d1d89cfa8f7676ff07189ecc53f80bbb5f4969099db89b9c979593918560039a98969410611859575b505050811b0190556117ba565b0151600019838a1b60f8161c1916905538808061184c565b80888697829497870151815501960194019061180e565b858a52828a20601f860160051c8101918487106118c4575b601f0160051c019084905b8281106118b9575050611766565b8b81550184906118ab565b90915081906118a0565b602489634e487b7160e01b81526041600452fd5b602489634e487b7160e01b815280600452fd5b60248a634e487b7160e01b81526041600452fd5b60248a634e487b7160e01b81526011600452fdfea26469706673582212201a1a311a9025fc3256cb65e8b048c6cbcfe8955c09950f8681cee19e849bf88764736f6c63430008130033","opcodes":"PUSH1 0x80 PUSH1 0x1 PUSH1 0x1 PUSH1 0x40 SHL SUB PUSH1 0x1F PUSH3 0x1B4C CODESIZE DUP2 SWAP1 SUB SWAP2 DUP3 ADD PUSH1 0x1F NOT AND DUP5 ADD SWAP2 DUP4 DUP4 GT DUP6 DUP5 LT OR PUSH3 0x1CD JUMPI DUP1 DUP6 SWAP3 PUSH2 0x180 SWAP5 PUSH1 0x40 MSTORE DUP4 CODECOPY DUP2 ADD SUB SLT PUSH3 0x1C8 JUMPI PUSH3 0x49 DUP3 PUSH3 0x1E3 JUMP JUMPDEST PUSH3 0x57 PUSH1 0x20 DUP5 ADD PUSH3 0x1E3 JUMP JUMPDEST SWAP3 PUSH1 0x40 DUP2 ADD MLOAD SWAP1 PUSH1 0x60 DUP2 ADD MLOAD SWAP3 PUSH1 0x80 DUP3 ADD MLOAD SWAP2 PUSH1 0xA0 DUP2 ADD MLOAD SWAP4 PUSH3 0x7E PUSH1 0xC0 DUP4 ADD PUSH3 0x1E3 JUMP JUMPDEST PUSH1 0xE0 DUP4 ADD MLOAD SWAP8 DUP9 AND DUP1 SWAP9 SUB PUSH3 0x1C8 JUMPI PUSH3 0x9D PUSH2 0x100 DUP5 ADD PUSH3 0x1E3 JUMP JUMPDEST SWAP9 PUSH3 0xAD PUSH2 0x120 DUP6 ADD PUSH3 0x1E3 JUMP JUMPDEST SWAP2 PUSH2 0x160 PUSH3 0xC0 PUSH2 0x140 DUP8 ADD PUSH3 0x1E3 JUMP JUMPDEST SWAP6 ADD MLOAD SWAP8 PUSH4 0xFFFFFFFF DUP10 AND DUP10 SUB PUSH3 0x1C8 JUMPI PUSH1 0x0 PUSH1 0x1 SSTORE PUSH1 0x1 PUSH1 0x1 PUSH1 0xA0 SHL SUB SWAP7 DUP8 AND SWAP8 DUP9 ISZERO PUSH3 0x183 JUMPI PUSH12 0xFFFFFFFF0000000000000000 SWAP11 DUP9 SWAP7 DUP8 DUP1 SWAP7 DUP13 PUSH1 0x1 DUP1 PUSH1 0xA0 SHL SUB NOT SWAP14 DUP15 PUSH1 0x3 SLOAD AND OR PUSH1 0x3 SSTORE DUP14 PUSH1 0x1C SLOAD AND OR PUSH1 0x1C SSTORE AND DUP12 PUSH1 0x1D SLOAD AND OR PUSH1 0x1D SSTORE PUSH1 0x20 SSTORE PUSH1 0x21 SSTORE PUSH1 0x1F SSTORE PUSH1 0xA SSTORE AND DUP6 PUSH1 0xC SLOAD AND OR PUSH1 0xC SSTORE DUP2 PUSH1 0x9 SLOAD SWAP10 AND DUP6 PUSH1 0xD SLOAD AND OR PUSH1 0xD SSTORE AND DUP4 PUSH1 0x1A SLOAD AND OR PUSH1 0x1A SSTORE AND SWAP1 PUSH1 0x1B SLOAD AND OR PUSH1 0x1B SSTORE PUSH1 0x40 SHL AND SWAP2 PUSH1 0x1 DUP1 PUSH1 0x60 SHL SUB NOT AND OR OR PUSH1 0x9 SSTORE TIMESTAMP PUSH1 0x18 SSTORE PUSH1 0x40 MLOAD PUSH2 0x1953 SWAP1 DUP2 PUSH3 0x1F9 DUP3 CODECOPY RETURN JUMPDEST PUSH1 0x40 MLOAD PUSH3 0x461BCD PUSH1 0xE5 SHL DUP2 MSTORE PUSH1 0x20 PUSH1 0x4 DUP3 ADD MSTORE PUSH1 0x18 PUSH1 0x24 DUP3 ADD MSTORE PUSH32 0x43616E6E6F7420736574206F776E657220746F207A65726F0000000000000000 PUSH1 0x44 DUP3 ADD MSTORE PUSH1 0x64 SWAP1 REVERT JUMPDEST PUSH1 0x0 DUP1 REVERT JUMPDEST PUSH4 0x4E487B71 PUSH1 0xE0 SHL PUSH1 0x0 MSTORE PUSH1 0x41 PUSH1 0x4 MSTORE PUSH1 0x24 PUSH1 0x0 REVERT JUMPDEST MLOAD SWAP1 PUSH1 0x1 PUSH1 0x1 PUSH1 0xA0 SHL SUB DUP3 AND DUP3 SUB PUSH3 0x1C8 JUMPI JUMP INVALID PUSH1 0x80 PUSH1 0x40 DUP2 DUP2 MSTORE PUSH1 0x4 SWAP2 DUP3 CALLDATASIZE LT ISZERO PUSH2 0x16 JUMPI PUSH1 0x0 DUP1 REVERT JUMPDEST PUSH1 0x0 SWAP3 DUP4 CALLDATALOAD PUSH1 0xE0 SHR SWAP2 DUP3 PUSH3 0x6D6CAE EQ PUSH2 0x13B7 JUMPI POP DUP2 PUSH4 0x89EA02E EQ PUSH2 0x1398 JUMPI DUP2 PUSH4 0x9C1BA2E EQ PUSH2 0x136F JUMPI DUP2 PUSH4 0x1243BCC3 EQ PUSH2 0x1347 JUMPI DUP2 PUSH4 0x1AA46F59 EQ PUSH2 0x1328 JUMPI DUP2 PUSH4 0x24B93E3E EQ PUSH2 0x1302 JUMPI DUP2 PUSH4 0x277E2213 EQ PUSH2 0x1202 JUMPI DUP2 PUSH4 0x338CDCA1 EQ PUSH2 0x1158 JUMPI DUP2 PUSH4 0x36E6A92F EQ PUSH2 0xFC3 JUMPI DUP2 PUSH4 0x381FC4B5 EQ PUSH2 0xFA4 JUMPI DUP2 PUSH4 0x3944EA3A EQ PUSH2 0xEFA JUMPI DUP2 PUSH4 0x43CD3D86 EQ PUSH2 0xEDB JUMPI DUP2 PUSH4 0x4585E33B EQ PUSH2 0xC79 JUMPI DUP2 PUSH4 0x48802B92 EQ PUSH2 0xC5A JUMPI DUP2 PUSH4 0x48BD6F05 EQ PUSH2 0xC3B JUMPI DUP2 PUSH4 0x4B0795A8 EQ PUSH2 0xB91 JUMPI DUP2 PUSH4 0x5D641DFC EQ PUSH2 0xB75 JUMPI DUP2 PUSH4 0x5E0611F1 EQ PUSH2 0xB4D JUMPI DUP2 PUSH4 0x688ECFD1 EQ PUSH2 0xB2F JUMPI DUP2 PUSH4 0x6BAA48FE EQ PUSH2 0xB07 JUMPI DUP2 PUSH4 0x6E04FF0D EQ PUSH2 0xA0C JUMPI DUP2 PUSH4 0x6E74336B EQ PUSH2 0x9ED JUMPI DUP2 PUSH4 0x79BA5097 EQ PUSH2 0x931 JUMPI DUP2 PUSH4 0x7B103999 EQ PUSH2 0x909 JUMPI DUP2 PUSH4 0x7D95F68A EQ PUSH2 0x781 JUMPI DUP2 PUSH4 0x8B7AFE2E EQ PUSH2 0x766 JUMPI DUP2 PUSH4 0x8DA5CB5B EQ PUSH2 0x73E JUMPI DUP2 PUSH4 0x947A36FB EQ PUSH2 0x71F JUMPI DUP2 PUSH4 0x9655E6D8 EQ PUSH2 0x5E3 JUMPI DUP2 PUSH4 0xA3097139 EQ PUSH2 0x5C5 JUMPI DUP2 PUSH4 0xA3D3C0D2 EQ PUSH2 0x5A6 JUMPI DUP2 PUSH4 0xB1E21749 EQ PUSH2 0x587 JUMPI DUP2 PUSH4 0xBD4CA97B EQ PUSH2 0x556 JUMPI DUP2 PUSH4 0xBEF3A2F0 EQ PUSH2 0x4AC JUMPI DUP2 PUSH4 0xD1384EB6 EQ PUSH2 0x484 JUMPI DUP2 PUSH4 0xD2AA789F EQ PUSH2 0x465 JUMPI DUP2 PUSH4 0xD811FCF0 EQ PUSH2 0x43D JUMPI DUP2 PUSH4 0xEBF14A55 EQ PUSH2 0x41E JUMPI DUP2 PUSH4 0xF2FDE38B EQ PUSH2 0x351 JUMPI POP DUP1 PUSH4 0xF5C1279B EQ PUSH2 0x333 JUMPI DUP1 PUSH4 0xF68016B7 EQ PUSH2 0x30F JUMPI DUP1 PUSH4 0xF887EA40 EQ PUSH2 0x2E8 JUMPI PUSH4 0xFFFEB84E EQ PUSH2 0x1FD JUMPI PUSH1 0x0 DUP1 REVERT JUMPDEST CALLVALUE PUSH2 0x2E4 JUMPI DUP2 PUSH1 0x3 NOT CALLDATASIZE ADD SLT PUSH2 0x2E4 JUMPI DUP1 MLOAD SWAP1 DUP3 PUSH1 0x8 SLOAD PUSH2 0x21D DUP2 PUSH2 0x13D1 JUMP JUMPDEST DUP1 DUP6 MSTORE SWAP2 PUSH1 0x1 SWAP2 DUP1 DUP4 AND SWAP1 DUP2 ISZERO PUSH2 0x2BC JUMPI POP PUSH1 0x1 EQ PUSH2 0x25F JUMPI JUMPDEST POP POP POP PUSH2 0x249 DUP3 PUSH2 0x25B SWAP5 SUB DUP4 PUSH2 0x140B JUMP JUMPDEST MLOAD SWAP2 DUP3 SWAP2 PUSH1 0x20 DUP4 MSTORE PUSH1 0x20 DUP4 ADD SWAP1 PUSH2 0x1443 JUMP JUMPDEST SUB SWAP1 RETURN JUMPDEST SWAP5 POP PUSH1 0x8 DUP6 MSTORE PUSH32 0xF3F7A9FE364FAAB93B216DA50A3214154F22A0A2B415B23A84C8169E8B636EE3 JUMPDEST DUP3 DUP7 LT PUSH2 0x2A4 JUMPI POP POP POP PUSH2 0x249 DUP3 PUSH1 0x20 PUSH2 0x25B SWAP6 DUP3 ADD ADD SWAP5 PUSH2 0x237 JUMP JUMPDEST DUP1 SLOAD PUSH1 0x20 DUP8 DUP8 ADD DUP2 ADD SWAP2 SWAP1 SWAP2 MSTORE SWAP1 SWAP6 ADD SWAP5 DUP2 ADD PUSH2 0x287 JUMP JUMPDEST PUSH2 0x25B SWAP8 POP DUP7 SWAP4 POP PUSH1 0x20 SWAP3 POP PUSH2 0x249 SWAP5 SWAP2 POP PUSH1 0xFF NOT AND DUP3 DUP5 ADD MSTORE ISZERO ISZERO PUSH1 0x5 SHL DUP3 ADD ADD SWAP5 PUSH2 0x237 JUMP JUMPDEST POP DUP1 REVERT JUMPDEST POP CALLVALUE PUSH2 0x2E4 JUMPI DUP2 PUSH1 0x3 NOT CALLDATASIZE ADD SLT PUSH2 0x2E4 JUMPI PUSH1 0x20 SWAP1 PUSH1 0x1 PUSH1 0x1 PUSH1 0xA0 SHL SUB PUSH1 0xC SLOAD AND SWAP1 MLOAD SWAP1 DUP2 MSTORE RETURN JUMPDEST POP CALLVALUE PUSH2 0x2E4 JUMPI DUP2 PUSH1 0x3 NOT CALLDATASIZE ADD SLT PUSH2 0x2E4 JUMPI PUSH1 0x20 SWAP1 PUSH4 0xFFFFFFFF PUSH1 0x10 SLOAD AND SWAP1 MLOAD SWAP1 DUP2 MSTORE RETURN JUMPDEST POP CALLVALUE PUSH2 0x2E4 JUMPI DUP2 PUSH1 0x3 NOT CALLDATASIZE ADD SLT PUSH2 0x2E4 JUMPI PUSH1 0x20 SWAP1 PUSH1 0x15 SLOAD SWAP1 MLOAD SWAP1 DUP2 MSTORE RETURN JUMPDEST SWAP2 SWAP1 POP CALLVALUE PUSH2 0x41A JUMPI PUSH1 0x20 CALLDATASIZE PUSH1 0x3 NOT ADD SLT PUSH2 0x41A JUMPI DUP2 CALLDATALOAD SWAP2 PUSH1 0x1 PUSH1 0x1 PUSH1 0xA0 SHL SUB SWAP2 DUP3 DUP5 AND DUP1 SWAP5 SUB PUSH2 0x416 JUMPI PUSH2 0x383 PUSH2 0x163F JUMP JUMPDEST CALLER DUP5 EQ PUSH2 0x3D3 JUMPI POP DUP3 PUSH20 0xFFFFFFFFFFFFFFFFFFFFFFFFFFFFFFFFFFFFFFFF NOT DUP3 SLOAD AND OR SWAP1 SSTORE PUSH1 0x3 SLOAD AND PUSH32 0xED8889F560326EB138920D842192F0EB3DD22B4F139C87A2C57538E05BAE1278 DUP4 DUP1 LOG3 DUP1 RETURN JUMPDEST SWAP1 PUSH1 0x20 PUSH1 0x64 SWAP3 MLOAD SWAP2 PUSH3 0x461BCD PUSH1 0xE5 SHL DUP4 MSTORE DUP3 ADD MSTORE PUSH1 0x17 PUSH1 0x24 DUP3 ADD MSTORE PUSH32 0x43616E6E6F74207472616E7366657220746F2073656C66000000000000000000 PUSH1 0x44 DUP3 ADD MSTORE REVERT JUMPDEST DUP5 DUP1 REVERT JUMPDEST DUP3 DUP1 REVERT JUMPDEST POP POP CALLVALUE PUSH2 0x2E4 JUMPI DUP2 PUSH1 0x3 NOT CALLDATASIZE ADD SLT PUSH2 0x2E4 JUMPI PUSH1 0x20 SWAP1 PUSH1 0x21 SLOAD SWAP1 MLOAD SWAP1 DUP2 MSTORE RETURN JUMPDEST POP POP CALLVALUE PUSH2 0x2E4 JUMPI DUP2 PUSH1 0x3 NOT CALLDATASIZE ADD SLT PUSH2 0x2E4 JUMPI PUSH1 0x20 SWAP1 PUSH1 0x1 PUSH1 0x1 PUSH1 0xA0 SHL SUB PUSH1 0x1D SLOAD AND SWAP1 MLOAD SWAP1 DUP2 MSTORE RETURN JUMPDEST POP POP CALLVALUE PUSH2 0x2E4 JUMPI DUP2 PUSH1 0x3 NOT CALLDATASIZE ADD SLT PUSH2 0x2E4 JUMPI PUSH1 0x20 SWAP1 PUSH1 0xE SLOAD SWAP1 MLOAD SWAP1 DUP2 MSTORE RETURN JUMPDEST POP POP CALLVALUE PUSH2 0x2E4 JUMPI DUP2 PUSH1 0x3 NOT CALLDATASIZE ADD SLT PUSH2 0x2E4 JUMPI PUSH1 0x20 SWAP1 PUSH1 0x1 PUSH1 0x1 PUSH1 0xA0 SHL SUB PUSH1 0x1C SLOAD AND SWAP1 MLOAD SWAP1 DUP2 MSTORE RETURN JUMPDEST POP POP CALLVALUE PUSH2 0x2E4 JUMPI DUP2 PUSH1 0x3 NOT CALLDATASIZE ADD SLT PUSH2 0x2E4 JUMPI DUP1 MLOAD SWAP1 DUP3 PUSH1 0x7 SLOAD PUSH2 0x4CE DUP2 PUSH2 0x13D1 JUMP JUMPDEST DUP1 DUP6 MSTORE SWAP2 PUSH1 0x1 SWAP2 DUP1 DUP4 AND SWAP1 DUP2 ISZERO PUSH2 0x2BC JUMPI POP PUSH1 0x1 EQ PUSH2 0x4F9 JUMPI POP POP POP PUSH2 0x249 DUP3 PUSH2 0x25B SWAP5 SUB DUP4 PUSH2 0x140B JUMP JUMPDEST SWAP5 POP PUSH1 0x7 DUP6 MSTORE PUSH32 0xA66CC928B5EDB82AF9BD49922954155AB7B0942694BEA4CE44661D9A8736C688 JUMPDEST DUP3 DUP7 LT PUSH2 0x53E JUMPI POP POP POP PUSH2 0x249 DUP3 PUSH1 0x20 PUSH2 0x25B SWAP6 DUP3 ADD ADD SWAP5 PUSH2 0x237 JUMP JUMPDEST DUP1 SLOAD PUSH1 0x20 DUP8 DUP8 ADD DUP2 ADD SWAP2 SWAP1 SWAP2 MSTORE SWAP1 SWAP6 ADD SWAP5 DUP2 ADD PUSH2 0x521 JUMP JUMPDEST POP POP CALLVALUE PUSH2 0x2E4 JUMPI DUP2 PUSH1 0x3 NOT CALLDATASIZE ADD SLT PUSH2 0x2E4 JUMPI PUSH2 0x25B SWAP1 PUSH2 0x574 PUSH2 0x1483 JUMP JUMPDEST SWAP1 MLOAD SWAP2 DUP3 SWAP2 PUSH1 0x20 DUP4 MSTORE PUSH1 0x20 DUP4 ADD SWAP1 PUSH2 0x1443 JUMP JUMPDEST POP POP CALLVALUE PUSH2 0x2E4 JUMPI DUP2 PUSH1 0x3 NOT CALLDATASIZE ADD SLT PUSH2 0x2E4 JUMPI PUSH1 0x20 SWAP1 PUSH1 0x12 SLOAD SWAP1 MLOAD SWAP1 DUP2 MSTORE RETURN JUMPDEST POP POP CALLVALUE PUSH2 0x2E4 JUMPI DUP2 PUSH1 0x3 NOT CALLDATASIZE ADD SLT PUSH2 0x2E4 JUMPI PUSH1 0x20 SWAP1 PUSH1 0x19 SLOAD SWAP1 MLOAD SWAP1 DUP2 MSTORE RETURN JUMPDEST POP POP CALLVALUE PUSH2 0x2E4 JUMPI DUP2 PUSH1 0x3 NOT CALLDATASIZE ADD SLT PUSH2 0x2E4 JUMPI PUSH1 0x20 SWAP1 DUP2 SLOAD SWAP1 MLOAD SWAP1 DUP2 MSTORE RETURN JUMPDEST DUP4 DUP4 CALLVALUE PUSH2 0x2E4 JUMPI DUP1 PUSH1 0x3 NOT CALLDATASIZE ADD SLT PUSH2 0x2E4 JUMPI PUSH1 0x24 CALLDATALOAD SWAP3 CALLDATALOAD DUP3 MSTORE PUSH1 0x20 SWAP3 PUSH1 0x2 DUP5 MSTORE DUP2 DUP4 KECCAK256 DUP1 SLOAD DUP3 LT ISZERO PUSH2 0x71B JUMPI SWAP1 PUSH2 0x619 SWAP2 PUSH2 0x160D JUMP JUMPDEST POP SWAP2 PUSH8 0xFFFFFFFFFFFFFFFF DUP4 SLOAD AND SWAP3 PUSH1 0x1 DUP1 DUP3 ADD SWAP3 DUP7 DUP6 MLOAD SWAP5 DUP6 SWAP4 DUP4 DUP3 SLOAD SWAP3 PUSH2 0x641 DUP5 PUSH2 0x13D1 JUMP JUMPDEST DUP1 DUP9 MSTORE SWAP4 DUP4 DUP2 AND SWAP1 DUP2 ISZERO PUSH2 0x6F5 JUMPI POP PUSH1 0x1 EQ PUSH2 0x6AF JUMPI JUMPDEST POP POP POP POP POP PUSH4 0xFFFFFFFF SWAP3 SWAP2 PUSH2 0x66F SWAP2 SUB DUP5 PUSH2 0x140B JUMP JUMPDEST PUSH2 0x693 PUSH1 0x3 PUSH1 0x2 DUP4 ADD SLOAD SWAP3 ADD SLOAD SWAP4 PUSH1 0xA0 DUP7 MLOAD SWAP9 DUP10 SWAP9 DUP10 MSTORE DUP9 ADD MSTORE PUSH1 0xA0 DUP8 ADD SWAP1 PUSH2 0x1443 JUMP JUMPDEST SWAP4 PUSH2 0xFFFF DUP3 AND SWAP1 DUP7 ADD MSTORE PUSH1 0x10 SHR AND PUSH1 0x60 DUP5 ADD MSTORE PUSH1 0x80 DUP4 ADD MSTORE SUB SWAP1 RETURN JUMPDEST DUP2 MSTORE DUP4 DUP2 KECCAK256 SWAP7 SWAP6 SWAP5 POP SWAP2 SWAP1 JUMPDEST DUP2 DUP4 LT PUSH2 0x6DD JUMPI POP SWAP4 SWAP5 POP SWAP2 SWAP3 POP SWAP1 DUP3 ADD ADD DUP7 PUSH2 0x66F PUSH4 0xFFFFFFFF DUP11 DUP1 PUSH2 0x658 JUMP JUMPDEST DUP7 SLOAD DUP9 DUP5 ADD DUP6 ADD MSTORE SWAP6 DUP7 ADD SWAP6 DUP8 SWAP5 POP SWAP2 DUP4 ADD SWAP2 PUSH2 0x6BB JUMP JUMPDEST PUSH1 0xFF NOT AND DUP7 DUP10 ADD MSTORE POP POP POP POP ISZERO ISZERO PUSH1 0x5 SHL DUP4 ADD ADD SWAP1 POP DUP7 PUSH2 0x66F PUSH4 0xFFFFFFFF DUP11 DUP1 PUSH2 0x658 JUMP JUMPDEST DUP4 DUP1 REVERT JUMPDEST POP POP CALLVALUE PUSH2 0x2E4 JUMPI DUP2 PUSH1 0x3 NOT CALLDATASIZE ADD SLT PUSH2 0x2E4 JUMPI PUSH1 0x20 SWAP1 PUSH1 0xA SLOAD SWAP1 MLOAD SWAP1 DUP2 MSTORE RETURN JUMPDEST POP POP CALLVALUE PUSH2 0x2E4 JUMPI DUP2 PUSH1 0x3 NOT CALLDATASIZE ADD SLT PUSH2 0x2E4 JUMPI PUSH1 0x20 SWAP1 PUSH1 0x1 PUSH1 0x1 PUSH1 0xA0 SHL SUB PUSH1 0x3 SLOAD AND SWAP1 MLOAD SWAP1 DUP2 MSTORE RETURN JUMPDEST POP POP CALLVALUE PUSH2 0x2E4 JUMPI DUP2 PUSH1 0x3 NOT CALLDATASIZE ADD SLT PUSH2 0x2E4 JUMPI MLOAD SELFBALANCE DUP2 MSTORE PUSH1 0x20 SWAP1 RETURN JUMPDEST DUP4 CALLVALUE PUSH2 0x906 JUMPI PUSH1 0x20 SWAP2 DUP3 PUSH1 0x3 NOT CALLDATASIZE ADD SLT PUSH2 0x2E4 JUMPI PUSH8 0xFFFFFFFFFFFFFFFF DUP2 CALLDATALOAD DUP2 DUP2 GT PUSH2 0x71B JUMPI PUSH2 0x7B4 SWAP1 CALLDATASIZE SWAP1 DUP5 ADD PUSH2 0x15DA JUMP JUMPDEST SWAP3 SWAP1 SWAP2 PUSH2 0x7BF PUSH2 0x163F JUMP JUMPDEST DUP4 GT PUSH2 0x8F3 JUMPI POP PUSH2 0x7D1 PUSH1 0x24 SLOAD PUSH2 0x13D1 JUMP JUMPDEST PUSH1 0x1F DUP2 GT PUSH2 0x895 JUMPI JUMPDEST POP DUP3 SWAP4 PUSH1 0x1F DUP4 GT PUSH1 0x1 EQ PUSH2 0x817 JUMPI POP SWAP3 DUP3 SWAP4 DUP3 SWAP4 SWAP3 PUSH2 0x80C JUMPI JUMPDEST POP POP DUP2 PUSH1 0x1 SHL SWAP2 PUSH1 0x0 NOT SWAP1 PUSH1 0x3 SHL SHR NOT AND OR PUSH1 0x24 SSTORE DUP1 RETURN JUMPDEST ADD CALLDATALOAD SWAP1 POP DUP4 DUP1 PUSH2 0x7F4 JUMP JUMPDEST PUSH1 0x1F NOT DUP4 AND SWAP5 PUSH32 0x7CD332D19B93BCABE3CCE7CA0C18A052F57E5FD03B4758A09F30F5DDC4B22EC4 SWAP3 SWAP2 DUP6 SWAP1 JUMPDEST DUP8 DUP3 LT PUSH2 0x87D JUMPI POP POP DUP4 PUSH1 0x1 SWAP6 SWAP7 LT PUSH2 0x863 JUMPI JUMPDEST POP POP POP DUP2 SHL ADD PUSH1 0x24 SSTORE DUP1 RETURN JUMPDEST ADD CALLDATALOAD PUSH1 0x0 NOT PUSH1 0x3 DUP5 SWAP1 SHL PUSH1 0xF8 AND SHR NOT AND SWAP1 SSTORE DUP4 DUP1 DUP1 PUSH2 0x857 JUMP JUMPDEST DUP1 PUSH1 0x1 DUP5 SWAP7 DUP3 SWAP5 SWAP6 DUP8 ADD CALLDATALOAD DUP2 SSTORE ADD SWAP6 ADD SWAP3 ADD SWAP1 PUSH2 0x843 JUMP JUMPDEST PUSH32 0x7CD332D19B93BCABE3CCE7CA0C18A052F57E5FD03B4758A09F30F5DDC4B22EC4 PUSH1 0x1F DUP5 ADD PUSH1 0x5 SHR DUP2 ADD SWAP2 DUP7 DUP6 LT PUSH2 0x8E9 JUMPI JUMPDEST PUSH1 0x1F ADD PUSH1 0x5 SHR ADD SWAP1 JUMPDEST DUP2 DUP2 LT PUSH2 0x8DE JUMPI POP PUSH2 0x7DA JUMP JUMPDEST DUP5 DUP2 SSTORE PUSH1 0x1 ADD PUSH2 0x8D1 JUMP JUMPDEST SWAP1 SWAP2 POP DUP2 SWAP1 PUSH2 0x8C8 JUMP JUMPDEST DUP4 PUSH1 0x41 PUSH1 0x24 SWAP3 PUSH4 0x4E487B71 PUSH1 0xE0 SHL DUP4 MSTORE MSTORE REVERT JUMPDEST DUP1 REVERT JUMPDEST POP POP CALLVALUE PUSH2 0x2E4 JUMPI DUP2 PUSH1 0x3 NOT CALLDATASIZE ADD SLT PUSH2 0x2E4 JUMPI PUSH1 0x20 SWAP1 PUSH1 0x1 PUSH1 0x1 PUSH1 0xA0 SHL SUB PUSH1 0xD SLOAD AND SWAP1 MLOAD SWAP1 DUP2 MSTORE RETURN JUMPDEST SWAP2 SWAP1 POP CALLVALUE PUSH2 0x41A JUMPI DUP3 PUSH1 0x3 NOT CALLDATASIZE ADD SLT PUSH2 0x41A JUMPI DUP2 SLOAD SWAP2 PUSH1 0x1 PUSH1 0x1 PUSH1 0xA0 SHL SUB SWAP2 DUP3 DUP5 AND CALLER SUB PUSH2 0x9AA JUMPI POP PUSH1 0x3 SLOAD SWAP3 PUSH20 0xFFFFFFFFFFFFFFFFFFFFFFFFFFFFFFFFFFFFFFFF NOT SWAP1 CALLER DUP3 DUP7 AND OR PUSH1 0x3 SSTORE AND SWAP1 SSTORE CALLER SWAP2 AND PUSH32 0x8BE0079C531659141344CD1FD0A4F28419497F9722A3DAAFE3B4186F6B6457E0 DUP4 DUP1 LOG3 DUP1 RETURN JUMPDEST SWAP1 PUSH1 0x20 PUSH1 0x64 SWAP3 MLOAD SWAP2 PUSH3 0x461BCD PUSH1 0xE5 SHL DUP4 MSTORE DUP3 ADD MSTORE PUSH1 0x16 PUSH1 0x24 DUP3 ADD MSTORE PUSH32 0x4D7573742062652070726F706F736564206F776E657200000000000000000000 PUSH1 0x44 DUP3 ADD MSTORE REVERT JUMPDEST POP POP CALLVALUE PUSH2 0x2E4 JUMPI DUP2 PUSH1 0x3 NOT CALLDATASIZE ADD SLT PUSH2 0x2E4 JUMPI PUSH1 0x20 SWAP1 PUSH1 0x11 SLOAD SWAP1 MLOAD SWAP1 DUP2 MSTORE RETURN JUMPDEST SWAP1 POP CALLVALUE PUSH2 0x41A JUMPI PUSH1 0x20 SWAP2 DUP3 PUSH1 0x3 NOT CALLDATASIZE ADD SLT PUSH2 0x71B JUMPI PUSH8 0xFFFFFFFFFFFFFFFF SWAP2 DUP1 CALLDATALOAD DUP4 DUP2 GT PUSH2 0xB03 JUMPI CALLDATASIZE PUSH1 0x23 DUP3 ADD SLT ISZERO PUSH2 0xB03 JUMPI DUP1 DUP3 ADD CALLDATALOAD SWAP4 DUP5 GT PUSH2 0xAF0 JUMPI DUP3 MLOAD PUSH1 0x1F NOT SWAP5 DUP8 SWAP3 SWAP2 PUSH2 0xA64 PUSH1 0x1F DUP4 ADD DUP9 AND DUP10 ADD DUP3 PUSH2 0x140B JUMP JUMPDEST DUP2 DUP2 MSTORE CALLDATASIZE PUSH1 0x24 DUP4 DUP6 ADD ADD GT PUSH2 0x71B JUMPI DUP2 PUSH1 0x24 DUP10 SWAP5 ADD DUP5 DUP4 ADD CALLDATACOPY ADD ADD MSTORE PUSH1 0x18 SLOAD TIMESTAMP SUB SWAP1 TIMESTAMP DUP3 GT PUSH2 0xADD JUMPI POP PUSH1 0xA SWAP3 SWAP2 SWAP3 SLOAD LT SWAP2 DUP1 MLOAD SWAP5 DUP6 SWAP4 DUP5 MSTORE DUP2 DUP6 DUP6 ADD MSTORE PUSH1 0x60 SWAP5 DUP6 MLOAD DUP1 SWAP4 DUP7 ADD MSTORE DUP2 JUMPDEST DUP4 DUP2 LT PUSH2 0xAC8 JUMPI POP POP DUP4 DUP3 ADD DUP6 ADD MSTORE PUSH1 0x1F ADD AND DUP2 ADD SUB ADD SWAP1 RETURN JUMPDEST PUSH1 0x80 DUP2 ADD MLOAD DUP9 DUP3 ADD DUP9 ADD MSTORE DUP8 SWAP6 POP DUP2 ADD PUSH2 0xAAE JUMP JUMPDEST DUP6 PUSH1 0x11 PUSH1 0x24 SWAP3 PUSH4 0x4E487B71 PUSH1 0xE0 SHL DUP4 MSTORE MSTORE REVERT JUMPDEST PUSH1 0x24 DUP7 PUSH1 0x41 DUP5 PUSH4 0x4E487B71 PUSH1 0xE0 SHL DUP4 MSTORE MSTORE REVERT JUMPDEST DUP6 DUP1 REVERT JUMPDEST POP POP CALLVALUE PUSH2 0x2E4 JUMPI DUP2 PUSH1 0x3 NOT CALLDATASIZE ADD SLT PUSH2 0x2E4 JUMPI PUSH1 0x20 SWAP1 PUSH1 0x1 PUSH1 0x1 PUSH1 0xA0 SHL SUB PUSH1 0x1B SLOAD AND SWAP1 MLOAD SWAP1 DUP2 MSTORE RETURN JUMPDEST POP POP CALLVALUE PUSH2 0x2E4 JUMPI DUP2 PUSH1 0x3 NOT CALLDATASIZE ADD SLT PUSH2 0x2E4 JUMPI PUSH2 0x25B SWAP1 PUSH2 0x574 PUSH2 0x1541 JUMP JUMPDEST POP POP CALLVALUE PUSH2 0x2E4 JUMPI DUP2 PUSH1 0x3 NOT CALLDATASIZE ADD SLT PUSH2 0x2E4 JUMPI PUSH1 0x20 SWAP1 PUSH1 0x1 PUSH1 0x1 PUSH1 0xA0 SHL SUB PUSH1 0x1E SLOAD AND SWAP1 MLOAD SWAP1 DUP2 MSTORE RETURN JUMPDEST POP POP CALLVALUE PUSH2 0x2E4 JUMPI DUP2 PUSH1 0x3 NOT CALLDATASIZE ADD SLT PUSH2 0x2E4 JUMPI PUSH1 0x20 SWAP1 MLOAD PUSH1 0x1 DUP2 MSTORE RETURN JUMPDEST POP POP CALLVALUE PUSH2 0x2E4 JUMPI DUP2 PUSH1 0x3 NOT CALLDATASIZE ADD SLT PUSH2 0x2E4 JUMPI DUP1 MLOAD SWAP1 DUP3 PUSH1 0x14 SLOAD PUSH2 0xBB3 DUP2 PUSH2 0x13D1 JUMP JUMPDEST DUP1 DUP6 MSTORE SWAP2 PUSH1 0x1 SWAP2 DUP1 DUP4 AND SWAP1 DUP2 ISZERO PUSH2 0x2BC JUMPI POP PUSH1 0x1 EQ PUSH2 0xBDE JUMPI POP POP POP PUSH2 0x249 DUP3 PUSH2 0x25B SWAP5 SUB DUP4 PUSH2 0x140B JUMP JUMPDEST SWAP5 POP PUSH1 0x14 DUP6 MSTORE PUSH32 0xCE6D7B5282BD9A3661AE061FEED1DBDA4E52AB073B1F9285BE6E155D9C38D4EC JUMPDEST DUP3 DUP7 LT PUSH2 0xC23 JUMPI POP POP POP PUSH2 0x249 DUP3 PUSH1 0x20 PUSH2 0x25B SWAP6 DUP3 ADD ADD SWAP5 PUSH2 0x237 JUMP JUMPDEST DUP1 SLOAD PUSH1 0x20 DUP8 DUP8 ADD DUP2 ADD SWAP2 SWAP1 SWAP2 MSTORE SWAP1 SWAP6 ADD SWAP5 DUP2 ADD PUSH2 0xC06 JUMP JUMPDEST POP POP CALLVALUE PUSH2 0x2E4 JUMPI DUP2 PUSH1 0x3 NOT CALLDATASIZE ADD SLT PUSH2 0x2E4 JUMPI PUSH1 0x20 SWAP1 PUSH1 0x1F SLOAD SWAP1 MLOAD SWAP1 DUP2 MSTORE RETURN JUMPDEST POP POP CALLVALUE PUSH2 0x2E4 JUMPI DUP2 PUSH1 0x3 NOT CALLDATASIZE ADD SLT PUSH2 0x2E4 JUMPI PUSH1 0x20 SWAP1 PUSH1 0x16 SLOAD SWAP1 MLOAD SWAP1 DUP2 MSTORE RETURN JUMPDEST SWAP2 SWAP1 POP CALLVALUE PUSH2 0x41A JUMPI PUSH1 0x20 CALLDATASIZE PUSH1 0x3 NOT ADD SLT PUSH2 0x41A JUMPI PUSH8 0xFFFFFFFFFFFFFFFF SWAP1 DUP3 CALLDATALOAD DUP3 DUP2 GT PUSH2 0x416 JUMPI PUSH2 0xCAD SWAP1 CALLDATASIZE SWAP1 DUP6 ADD PUSH2 0x15DA JUMP JUMPDEST POP POP PUSH1 0x1 PUSH1 0x1 PUSH1 0xA0 SHL SUB DUP1 PUSH1 0x3 SLOAD AND SWAP1 DUP2 CALLER EQ ISZERO DUP1 PUSH2 0xECD JUMPI JUMPDEST PUSH2 0xE8D JUMPI POP POP PUSH1 0xE SLOAD ISZERO PUSH2 0xE4B JUMPI DUP1 MLOAD PUSH1 0x20 DUP2 ADD DUP2 DUP2 LT DUP5 DUP3 GT OR PUSH2 0xE38 JUMPI SWAP1 DUP6 SWAP2 DUP4 MSTORE MSTORE PUSH1 0x18 SLOAD TIMESTAMP SUB TIMESTAMP DUP2 GT PUSH2 0xE25 JUMPI PUSH1 0xA SLOAD LT ISZERO PUSH2 0xDE3 JUMPI POP TIMESTAMP PUSH1 0x18 SSTORE PUSH1 0x19 SLOAD PUSH1 0x1 DUP2 ADD DUP1 SWAP2 GT PUSH2 0xDD0 JUMPI PUSH1 0x19 SSTORE PUSH1 0x21 SLOAD PUSH1 0x22 SLOAD LT ISZERO PUSH2 0xD74 JUMPI PUSH2 0xD45 SWAP1 PUSH1 0x9 SLOAD AND PUSH4 0xFFFFFFFF PUSH1 0x10 SLOAD AND PUSH1 0x11 SLOAD SWAP2 PUSH2 0xD40 PUSH2 0x1541 JUMP JUMPDEST PUSH2 0x1697 JUMP JUMPDEST DUP1 PUSH1 0x12 SSTORE DUP3 SSTORE PUSH1 0x16 SLOAD SWAP1 PUSH1 0x1 DUP3 ADD DUP1 SWAP3 GT PUSH2 0xD61 JUMPI POP PUSH1 0x16 SSTORE DUP1 RETURN JUMPDEST DUP3 PUSH1 0x11 PUSH1 0x24 SWAP3 PUSH4 0x4E487B71 PUSH1 0xE0 SHL DUP4 MSTORE MSTORE REVERT JUMPDEST PUSH2 0xD45 SWAP1 PUSH21 0x10000000000000000000000000000000000000000 PUSH32 0xFFFFFFFFFFFFFFFFFFFFFF00FFFFFFFFFFFFFFFFFFFFFFFFFFFFFFFFFFFFFFFF PUSH1 0x1E SLOAD AND OR PUSH1 0x1E SSTORE PUSH1 0x9 SLOAD AND PUSH4 0xFFFFFFFF PUSH1 0x10 SLOAD AND PUSH1 0x11 SLOAD SWAP2 PUSH2 0xD40 PUSH2 0x1483 JUMP JUMPDEST PUSH1 0x24 DUP5 PUSH1 0x11 DUP6 PUSH4 0x4E487B71 PUSH1 0xE0 SHL DUP4 MSTORE MSTORE REVERT JUMPDEST MLOAD PUSH3 0x461BCD PUSH1 0xE5 SHL DUP2 MSTORE PUSH1 0x20 DUP2 DUP5 ADD MSTORE PUSH1 0x15 PUSH1 0x24 DUP3 ADD MSTORE PUSH32 0x54696D6520696E74657276616C206E6F74206D65740000000000000000000000 PUSH1 0x44 DUP3 ADD MSTORE PUSH1 0x64 SWAP1 REVERT JUMPDEST PUSH1 0x24 DUP6 PUSH1 0x11 DUP7 PUSH4 0x4E487B71 PUSH1 0xE0 SHL DUP4 MSTORE MSTORE REVERT JUMPDEST PUSH1 0x24 DUP7 PUSH1 0x41 DUP8 PUSH4 0x4E487B71 PUSH1 0xE0 SHL DUP4 MSTORE MSTORE REVERT JUMPDEST MLOAD PUSH3 0x461BCD PUSH1 0xE5 SHL DUP2 MSTORE PUSH1 0x20 DUP2 DUP5 ADD MSTORE PUSH1 0x15 PUSH1 0x24 DUP3 ADD MSTORE PUSH32 0x55706B656570206E6F7420726567697374657265640000000000000000000000 PUSH1 0x44 DUP3 ADD MSTORE PUSH1 0x64 SWAP1 REVERT JUMPDEST PUSH1 0x64 SWAP5 SWAP4 POP PUSH1 0x1E SLOAD AND SWAP2 MLOAD SWAP3 PUSH32 0x426FBC7100000000000000000000000000000000000000000000000000000000 DUP5 MSTORE CALLER SWAP1 DUP5 ADD MSTORE PUSH1 0x24 DUP4 ADD MSTORE PUSH1 0x44 DUP3 ADD MSTORE REVERT JUMPDEST POP DUP1 PUSH1 0x1E SLOAD AND CALLER EQ ISZERO PUSH2 0xCC7 JUMP JUMPDEST POP POP CALLVALUE PUSH2 0x2E4 JUMPI DUP2 PUSH1 0x3 NOT CALLDATASIZE ADD SLT PUSH2 0x2E4 JUMPI PUSH1 0x20 SWAP1 PUSH1 0x17 SLOAD SWAP1 MLOAD SWAP1 DUP2 MSTORE RETURN JUMPDEST POP POP CALLVALUE PUSH2 0x2E4 JUMPI DUP2 PUSH1 0x3 NOT CALLDATASIZE ADD SLT PUSH2 0x2E4 JUMPI DUP1 MLOAD SWAP1 DUP3 PUSH1 0x13 SLOAD PUSH2 0xF1C DUP2 PUSH2 0x13D1 JUMP JUMPDEST DUP1 DUP6 MSTORE SWAP2 PUSH1 0x1 SWAP2 DUP1 DUP4 AND SWAP1 DUP2 ISZERO PUSH2 0x2BC JUMPI POP PUSH1 0x1 EQ PUSH2 0xF47 JUMPI POP POP POP PUSH2 0x249 DUP3 PUSH2 0x25B SWAP5 SUB DUP4 PUSH2 0x140B JUMP JUMPDEST SWAP5 POP PUSH1 0x13 DUP6 MSTORE PUSH32 0x66DE8FFDA797E3DE9C05E8FC57B3BF0EC28A930D40B0D285D93C06501CF6A090 JUMPDEST DUP3 DUP7 LT PUSH2 0xF8C JUMPI POP POP POP PUSH2 0x249 DUP3 PUSH1 0x20 PUSH2 0x25B SWAP6 DUP3 ADD ADD SWAP5 PUSH2 0x237 JUMP JUMPDEST DUP1 SLOAD PUSH1 0x20 DUP8 DUP8 ADD DUP2 ADD SWAP2 SWAP1 SWAP2 MSTORE SWAP1 SWAP6 ADD SWAP5 DUP2 ADD PUSH2 0xF6F JUMP JUMPDEST POP POP CALLVALUE PUSH2 0x2E4 JUMPI DUP2 PUSH1 0x3 NOT CALLDATASIZE ADD SLT PUSH2 0x2E4 JUMPI PUSH1 0x20 SWAP1 PUSH1 0xB SLOAD SWAP1 MLOAD SWAP1 DUP2 MSTORE RETURN JUMPDEST DUP4 CALLVALUE PUSH2 0x906 JUMPI PUSH1 0x60 CALLDATASIZE PUSH1 0x3 NOT ADD SLT PUSH2 0x906 JUMPI PUSH8 0xFFFFFFFFFFFFFFFF DUP3 CALLDATALOAD DUP2 DUP2 GT PUSH2 0x41A JUMPI PUSH2 0xFF4 SWAP1 CALLDATASIZE SWAP1 DUP6 ADD PUSH2 0x15DA JUMP JUMPDEST SWAP1 SWAP4 PUSH1 0x24 CALLDATALOAD SWAP3 DUP1 DUP5 AND DUP1 SWAP5 SUB PUSH2 0x416 JUMPI PUSH2 0x100C PUSH2 0x163F JUMP JUMPDEST DUP3 GT PUSH2 0x8F3 JUMPI POP PUSH2 0x101E PUSH1 0x5 SLOAD PUSH2 0x13D1 JUMP JUMPDEST PUSH1 0x1F DUP2 GT PUSH2 0x10F9 JUMPI JUMPDEST POP DUP3 PUSH1 0x1F DUP3 GT PUSH1 0x1 EQ PUSH2 0x107B JUMPI DUP4 SWAP5 DUP3 SWAP4 SWAP5 SWAP3 PUSH2 0x1070 JUMPI JUMPDEST POP POP DUP2 PUSH1 0x1 SHL SWAP2 PUSH1 0x0 NOT SWAP1 PUSH1 0x3 SHL SHR NOT AND OR PUSH1 0x5 SSTORE JUMPDEST PUSH8 0xFFFFFFFFFFFFFFFF NOT PUSH1 0x9 SLOAD AND OR PUSH1 0x9 SSTORE PUSH1 0x44 CALLDATALOAD PUSH1 0x11 SSTORE DUP1 RETURN JUMPDEST ADD CALLDATALOAD SWAP1 POP DUP5 DUP1 PUSH2 0x103F JUMP JUMPDEST PUSH1 0x1F NOT DUP3 AND SWAP5 PUSH32 0x36B6384B5ECA791C62761152D0C79BB0604C104A5FB6F4EB0703F3154BB3DB0 SWAP2 DUP6 JUMPDEST DUP8 DUP2 LT PUSH2 0x10E1 JUMPI POP DUP4 PUSH1 0x1 SWAP6 SWAP7 SWAP8 LT PUSH2 0x10C7 JUMPI JUMPDEST POP POP POP DUP2 SHL ADD PUSH1 0x5 SSTORE PUSH2 0x1055 JUMP JUMPDEST ADD CALLDATALOAD PUSH1 0x0 NOT PUSH1 0x3 DUP5 SWAP1 SHL PUSH1 0xF8 AND SHR NOT AND SWAP1 SSTORE DUP5 DUP1 DUP1 PUSH2 0x10B9 JUMP JUMPDEST SWAP1 SWAP3 PUSH1 0x20 PUSH1 0x1 DUP2 SWAP3 DUP7 DUP7 ADD CALLDATALOAD DUP2 SSTORE ADD SWAP5 ADD SWAP2 ADD PUSH2 0x10A5 JUMP JUMPDEST PUSH32 0x36B6384B5ECA791C62761152D0C79BB0604C104A5FB6F4EB0703F3154BB3DB0 PUSH1 0x1F DUP4 ADD PUSH1 0x5 SHR DUP2 ADD SWAP2 PUSH1 0x20 DUP5 LT PUSH2 0x114E JUMPI JUMPDEST PUSH1 0x1F ADD PUSH1 0x5 SHR ADD SWAP1 JUMPDEST DUP2 DUP2 LT PUSH2 0x1143 JUMPI POP PUSH2 0x1027 JUMP JUMPDEST DUP5 DUP2 SSTORE PUSH1 0x1 ADD PUSH2 0x1136 JUMP JUMPDEST SWAP1 SWAP2 POP DUP2 SWAP1 PUSH2 0x112D JUMP JUMPDEST POP POP CALLVALUE PUSH2 0x2E4 JUMPI DUP2 PUSH1 0x3 NOT CALLDATASIZE ADD SLT PUSH2 0x2E4 JUMPI DUP1 MLOAD SWAP1 DUP3 PUSH1 0xF SLOAD PUSH2 0x117A DUP2 PUSH2 0x13D1 JUMP JUMPDEST DUP1 DUP6 MSTORE SWAP2 PUSH1 0x1 SWAP2 DUP1 DUP4 AND SWAP1 DUP2 ISZERO PUSH2 0x2BC JUMPI POP PUSH1 0x1 EQ PUSH2 0x11A5 JUMPI POP POP POP PUSH2 0x249 DUP3 PUSH2 0x25B SWAP5 SUB DUP4 PUSH2 0x140B JUMP JUMPDEST SWAP5 POP PUSH1 0xF DUP6 MSTORE PUSH32 0x8D1108E10BCB7C27DDDFC02ED9D693A074039D026CF4EA4240B40F7D581AC802 JUMPDEST DUP3 DUP7 LT PUSH2 0x11EA JUMPI POP POP POP PUSH2 0x249 DUP3 PUSH1 0x20 PUSH2 0x25B SWAP6 DUP3 ADD ADD SWAP5 PUSH2 0x237 JUMP JUMPDEST DUP1 SLOAD PUSH1 0x20 DUP8 DUP8 ADD DUP2 ADD SWAP2 SWAP1 SWAP2 MSTORE SWAP1 SWAP6 ADD SWAP5 DUP2 ADD PUSH2 0x11CD JUMP JUMPDEST SWAP2 SWAP1 POP CALLVALUE PUSH2 0x41A JUMPI PUSH1 0x20 SWAP2 DUP3 PUSH1 0x3 NOT CALLDATASIZE ADD SLT PUSH2 0x71B JUMPI CALLDATALOAD PUSH1 0x22 SLOAD DUP2 LT ISZERO PUSH2 0x71B JUMPI PUSH1 0x22 DUP5 MSTORE PUSH32 0x61035B26E3E9EEE00E0D72FD1EE8DDCA6894550DCA6916EA2AC6BAA90D11E510 ADD DUP2 MLOAD SWAP4 DUP5 SWAP2 DUP2 DUP2 SLOAD SWAP1 PUSH2 0x125B DUP3 PUSH2 0x13D1 JUMP JUMPDEST SWAP3 DUP4 DUP7 MSTORE PUSH1 0x1 SWAP3 DUP9 DUP5 DUP3 AND SWAP2 DUP3 PUSH1 0x0 EQ PUSH2 0x12D8 JUMPI POP POP PUSH1 0x1 EQ PUSH2 0x129A JUMPI JUMPDEST DUP6 DUP9 PUSH2 0x25B DUP10 PUSH2 0x128B DUP5 DUP11 SUB DUP6 PUSH2 0x140B JUMP JUMPDEST MLOAD SWAP3 DUP3 DUP5 SWAP4 DUP5 MSTORE DUP4 ADD SWAP1 PUSH2 0x1443 JUMP JUMPDEST DUP8 SWAP5 POP DUP2 SWAP4 SWAP3 SWAP2 MSTORE DUP4 DUP4 KECCAK256 JUMPDEST DUP3 DUP5 LT PUSH2 0x12C0 JUMPI POP POP POP DUP3 ADD ADD DUP2 PUSH2 0x128B PUSH2 0x25B CODESIZE PUSH2 0x1279 JUMP JUMPDEST DUP1 SLOAD DUP5 DUP11 ADD DUP7 ADD MSTORE DUP9 SWAP6 POP DUP8 SWAP5 SWAP1 SWAP4 ADD SWAP3 DUP2 ADD PUSH2 0x12A6 JUMP JUMPDEST PUSH1 0xFF NOT AND DUP9 DUP3 ADD MSTORE SWAP5 ISZERO ISZERO PUSH1 0x5 SHL DUP8 ADD SWAP1 SWAP5 ADD SWAP5 POP DUP6 SWAP4 POP PUSH2 0x128B SWAP3 POP PUSH2 0x25B SWAP2 POP CODESIZE SWAP1 POP PUSH2 0x1279 JUMP JUMPDEST POP POP CALLVALUE PUSH2 0x2E4 JUMPI DUP2 PUSH1 0x3 NOT CALLDATASIZE ADD SLT PUSH2 0x2E4 JUMPI PUSH1 0x9 SLOAD DUP2 MLOAD SWAP2 SHR PUSH4 0xFFFFFFFF AND DUP2 MSTORE PUSH1 0x20 SWAP1 RETURN JUMPDEST POP POP CALLVALUE PUSH2 0x2E4 JUMPI DUP2 PUSH1 0x3 NOT CALLDATASIZE ADD SLT PUSH2 0x2E4 JUMPI PUSH1 0x20 SWAP1 PUSH1 0x6 SLOAD SWAP1 MLOAD SWAP1 DUP2 MSTORE RETURN JUMPDEST POP POP CALLVALUE PUSH2 0x2E4 JUMPI DUP2 PUSH1 0x3 NOT CALLDATASIZE ADD SLT PUSH2 0x2E4 JUMPI PUSH1 0x20 SWAP1 PUSH1 0x1 PUSH1 0x1 PUSH1 0xA0 SHL SUB PUSH1 0x1A SLOAD AND SWAP1 MLOAD SWAP1 DUP2 MSTORE RETURN JUMPDEST POP POP CALLVALUE PUSH2 0x2E4 JUMPI DUP2 PUSH1 0x3 NOT CALLDATASIZE ADD SLT PUSH2 0x2E4 JUMPI PUSH1 0x20 SWAP1 PUSH8 0xFFFFFFFFFFFFFFFF PUSH1 0x9 SLOAD AND SWAP1 MLOAD SWAP1 DUP2 MSTORE RETURN JUMPDEST POP POP CALLVALUE PUSH2 0x2E4 JUMPI DUP2 PUSH1 0x3 NOT CALLDATASIZE ADD SLT PUSH2 0x2E4 JUMPI PUSH1 0x20 SWAP1 PUSH1 0x18 SLOAD SWAP1 MLOAD SWAP1 DUP2 MSTORE RETURN JUMPDEST DUP5 SWAP1 CALLVALUE PUSH2 0x2E4 JUMPI DUP2 PUSH1 0x3 NOT CALLDATASIZE ADD SLT PUSH2 0x2E4 JUMPI PUSH1 0x20 SWAP2 SLOAD DUP2 MSTORE RETURN JUMPDEST SWAP1 PUSH1 0x1 DUP3 DUP2 SHR SWAP3 AND DUP1 ISZERO PUSH2 0x1401 JUMPI JUMPDEST PUSH1 0x20 DUP4 LT EQ PUSH2 0x13EB JUMPI JUMP JUMPDEST PUSH4 0x4E487B71 PUSH1 0xE0 SHL PUSH1 0x0 MSTORE PUSH1 0x22 PUSH1 0x4 MSTORE PUSH1 0x24 PUSH1 0x0 REVERT JUMPDEST SWAP2 PUSH1 0x7F AND SWAP2 PUSH2 0x13E0 JUMP JUMPDEST SWAP1 PUSH1 0x1F DUP1 NOT SWAP2 ADD AND DUP2 ADD SWAP1 DUP2 LT PUSH8 0xFFFFFFFFFFFFFFFF DUP3 GT OR PUSH2 0x142D JUMPI PUSH1 0x40 MSTORE JUMP JUMPDEST PUSH4 0x4E487B71 PUSH1 0xE0 SHL PUSH1 0x0 MSTORE PUSH1 0x41 PUSH1 0x4 MSTORE PUSH1 0x24 PUSH1 0x0 REVERT JUMPDEST SWAP2 SWAP1 DUP3 MLOAD SWAP3 DUP4 DUP3 MSTORE PUSH1 0x0 JUMPDEST DUP5 DUP2 LT PUSH2 0x146F JUMPI POP POP DUP3 PUSH1 0x0 PUSH1 0x20 DUP1 SWAP5 SWAP6 DUP5 ADD ADD MSTORE PUSH1 0x1F DUP1 NOT SWAP2 ADD AND ADD ADD SWAP1 JUMP JUMPDEST PUSH1 0x20 DUP2 DUP4 ADD DUP2 ADD MLOAD DUP5 DUP4 ADD DUP3 ADD MSTORE ADD PUSH2 0x144E JUMP JUMPDEST PUSH1 0x40 MLOAD SWAP1 PUSH1 0x0 DUP3 PUSH1 0x24 SLOAD SWAP2 PUSH2 0x1497 DUP4 PUSH2 0x13D1 JUMP JUMPDEST DUP1 DUP4 MSTORE SWAP3 PUSH1 0x1 SWAP1 DUP2 DUP2 AND SWAP1 DUP2 ISZERO PUSH2 0x151F JUMPI POP PUSH1 0x1 EQ PUSH2 0x14C0 JUMPI JUMPDEST POP PUSH2 0x14BE SWAP3 POP SUB DUP4 PUSH2 0x140B JUMP JUMPDEST JUMP JUMPDEST PUSH1 0x24 PUSH1 0x0 SWAP1 DUP2 MSTORE SWAP2 POP PUSH32 0x7CD332D19B93BCABE3CCE7CA0C18A052F57E5FD03B4758A09F30F5DDC4B22EC4 JUMPDEST DUP5 DUP4 LT PUSH2 0x1504 JUMPI POP PUSH2 0x14BE SWAP4 POP POP DUP2 ADD PUSH1 0x20 ADD CODESIZE PUSH2 0x14B1 JUMP JUMPDEST DUP2 SWAP4 POP SWAP1 DUP2 PUSH1 0x20 SWAP3 SLOAD DUP4 DUP6 DUP11 ADD ADD MSTORE ADD SWAP2 ADD SWAP1 SWAP2 DUP6 SWAP3 PUSH2 0x14EB JUMP JUMPDEST SWAP1 POP PUSH1 0x20 SWAP3 POP PUSH2 0x14BE SWAP5 SWAP2 POP PUSH1 0xFF NOT AND DUP3 DUP5 ADD MSTORE ISZERO ISZERO PUSH1 0x5 SHL DUP3 ADD ADD CODESIZE PUSH2 0x14B1 JUMP JUMPDEST PUSH1 0x40 MLOAD SWAP1 PUSH1 0x0 DUP3 PUSH1 0x5 SLOAD SWAP2 PUSH2 0x1555 DUP4 PUSH2 0x13D1 JUMP JUMPDEST DUP1 DUP4 MSTORE SWAP3 PUSH1 0x1 SWAP1 DUP2 DUP2 AND SWAP1 DUP2 ISZERO PUSH2 0x151F JUMPI POP PUSH1 0x1 EQ PUSH2 0x157B JUMPI POP PUSH2 0x14BE SWAP3 POP SUB DUP4 PUSH2 0x140B JUMP JUMPDEST PUSH1 0x5 PUSH1 0x0 SWAP1 DUP2 MSTORE SWAP2 POP PUSH32 0x36B6384B5ECA791C62761152D0C79BB0604C104A5FB6F4EB0703F3154BB3DB0 JUMPDEST DUP5 DUP4 LT PUSH2 0x15BF JUMPI POP PUSH2 0x14BE SWAP4 POP POP DUP2 ADD PUSH1 0x20 ADD CODESIZE PUSH2 0x14B1 JUMP JUMPDEST DUP2 SWAP4 POP SWAP1 DUP2 PUSH1 0x20 SWAP3 SLOAD DUP4 DUP6 DUP11 ADD ADD MSTORE ADD SWAP2 ADD SWAP1 SWAP2 DUP6 SWAP3 PUSH2 0x15A6 JUMP JUMPDEST SWAP2 DUP2 PUSH1 0x1F DUP5 ADD SLT ISZERO PUSH2 0x1608 JUMPI DUP3 CALLDATALOAD SWAP2 PUSH8 0xFFFFFFFFFFFFFFFF DUP4 GT PUSH2 0x1608 JUMPI PUSH1 0x20 DUP4 DUP2 DUP7 ADD SWAP6 ADD ADD GT PUSH2 0x1608 JUMPI JUMP JUMPDEST PUSH1 0x0 DUP1 REVERT JUMPDEST DUP1 SLOAD DUP3 LT ISZERO PUSH2 0x1629 JUMPI PUSH1 0x0 MSTORE PUSH1 0x20 PUSH1 0x0 KECCAK256 SWAP1 PUSH1 0x2 SHL ADD SWAP1 PUSH1 0x0 SWAP1 JUMP JUMPDEST PUSH4 0x4E487B71 PUSH1 0xE0 SHL PUSH1 0x0 MSTORE PUSH1 0x32 PUSH1 0x4 MSTORE PUSH1 0x24 PUSH1 0x0 REVERT JUMPDEST PUSH1 0x1 PUSH1 0x1 PUSH1 0xA0 SHL SUB PUSH1 0x3 SLOAD AND CALLER SUB PUSH2 0x1653 JUMPI JUMP JUMPDEST PUSH1 0x64 PUSH1 0x40 MLOAD PUSH3 0x461BCD PUSH1 0xE5 SHL DUP2 MSTORE PUSH1 0x20 PUSH1 0x4 DUP3 ADD MSTORE PUSH1 0x16 PUSH1 0x24 DUP3 ADD MSTORE PUSH32 0x4F6E6C792063616C6C61626C65206279206F776E657200000000000000000000 PUSH1 0x44 DUP3 ADD MSTORE REVERT JUMPDEST SWAP2 SWAP1 SWAP4 SWAP3 SWAP4 PUSH1 0x40 MLOAD SWAP2 PUSH1 0xA0 DUP4 ADD PUSH8 0xFFFFFFFFFFFFFFFF SWAP3 DUP5 DUP3 LT DUP5 DUP4 GT OR PUSH2 0x142D JUMPI DUP4 SWAP2 PUSH1 0x40 MSTORE AND DUP4 MSTORE PUSH1 0x20 SWAP4 DUP5 DUP5 ADD SWAP1 DUP2 MSTORE PUSH1 0x40 DUP5 ADD SWAP3 PUSH1 0x1 DUP1 DUP6 MSTORE PUSH4 0xFFFFFFFF PUSH1 0x60 DUP8 ADD SWAP5 AND DUP5 MSTORE PUSH1 0x80 DUP7 ADD SWAP9 DUP10 MSTORE DUP1 SLOAD SWAP7 PUSH1 0x0 SWAP8 DUP1 DUP10 SSTORE DUP3 DUP2 ADD DUP1 DUP3 GT PUSH2 0x1909 JUMPI DUP4 SSTORE DUP9 MSTORE PUSH1 0x2 DUP2 MSTORE PUSH1 0x40 DUP9 KECCAK256 DUP1 SLOAD SWAP1 PUSH9 0x10000000000000000 DUP3 LT ISZERO PUSH2 0x18F5 JUMPI SWAP1 PUSH2 0x172A SWAP2 DUP5 DUP3 ADD DUP2 SSTORE PUSH2 0x160D JUMP JUMPDEST SWAP8 SWAP1 SWAP8 PUSH2 0x18E2 JUMPI DUP4 SWAP1 MLOAD AND PUSH8 0xFFFFFFFFFFFFFFFF NOT DUP9 SLOAD AND OR DUP8 SSTORE DUP2 DUP8 ADD SWAP4 MLOAD DUP1 MLOAD SWAP4 DUP5 GT PUSH2 0x18CE JUMPI PUSH2 0x175D DUP6 SLOAD PUSH2 0x13D1 JUMP JUMPDEST PUSH1 0x1F DUP2 GT PUSH2 0x1888 JUMPI JUMPDEST POP DUP2 PUSH1 0x1F DUP6 GT PUSH1 0x1 EQ PUSH2 0x17FA JUMPI POP SWAP3 DUP1 PUSH1 0x3 SWAP8 SWAP6 SWAP4 DUP2 SWAP4 PUSH32 0x1131472297A800FEE664D1D89CFA8F7676FF07189ECC53F80BBB5F4969099DB8 SWAP13 SWAP14 SWAP9 SWAP7 DUP13 SWAP5 PUSH2 0x17EF JUMPI JUMPDEST POP POP SHL SWAP2 PUSH1 0x0 NOT SWAP1 DUP9 SHL SHR NOT AND OR SWAP1 SSTORE JUMPDEST PUSH2 0xFFFF PUSH1 0x2 DUP7 ADD SWAP3 MLOAD AND PUSH6 0xFFFFFFFF0000 DUP4 SLOAD SWAP3 MLOAD PUSH1 0x10 SHL AND SWAP2 PUSH6 0xFFFFFFFFFFFF NOT AND OR OR SWAP1 SSTORE MLOAD SWAP2 ADD SSTORE DUP1 SLOAD SWAP2 DUP2 DUP4 SWAP3 LOG2 SWAP1 JUMP JUMPDEST ADD MLOAD SWAP3 POP CODESIZE DUP1 PUSH2 0x17A9 JUMP JUMPDEST SWAP2 SWAP1 PUSH1 0x1F SWAP5 SWAP4 SWAP5 NOT DUP5 AND DUP7 DUP12 MSTORE DUP4 DUP12 KECCAK256 SWAP4 DUP12 SWAP1 JUMPDEST DUP3 DUP3 LT PUSH2 0x1871 JUMPI POP POP SWAP2 PUSH32 0x1131472297A800FEE664D1D89CFA8F7676FF07189ECC53F80BBB5F4969099DB8 SWAP12 SWAP13 SWAP8 SWAP6 SWAP4 SWAP2 DUP6 PUSH1 0x3 SWAP11 SWAP9 SWAP7 SWAP5 LT PUSH2 0x1859 JUMPI JUMPDEST POP POP POP DUP2 SHL ADD SWAP1 SSTORE PUSH2 0x17BA JUMP JUMPDEST ADD MLOAD PUSH1 0x0 NOT DUP4 DUP11 SHL PUSH1 0xF8 AND SHR NOT AND SWAP1 SSTORE CODESIZE DUP1 DUP1 PUSH2 0x184C JUMP JUMPDEST DUP1 DUP9 DUP7 SWAP8 DUP3 SWAP5 SWAP8 DUP8 ADD MLOAD DUP2 SSTORE ADD SWAP7 ADD SWAP5 ADD SWAP1 PUSH2 0x180E JUMP JUMPDEST DUP6 DUP11 MSTORE DUP3 DUP11 KECCAK256 PUSH1 0x1F DUP7 ADD PUSH1 0x5 SHR DUP2 ADD SWAP2 DUP5 DUP8 LT PUSH2 0x18C4 JUMPI JUMPDEST PUSH1 0x1F ADD PUSH1 0x5 SHR ADD SWAP1 DUP5 SWAP1 JUMPDEST DUP3 DUP2 LT PUSH2 0x18B9 JUMPI POP POP PUSH2 0x1766 JUMP JUMPDEST DUP12 DUP2 SSTORE ADD DUP5 SWAP1 PUSH2 0x18AB JUMP JUMPDEST SWAP1 SWAP2 POP DUP2 SWAP1 PUSH2 0x18A0 JUMP JUMPDEST PUSH1 0x24 DUP10 PUSH4 0x4E487B71 PUSH1 0xE0 SHL DUP2 MSTORE PUSH1 0x41 PUSH1 0x4 MSTORE REVERT JUMPDEST PUSH1 0x24 DUP10 PUSH4 0x4E487B71 PUSH1 0xE0 SHL DUP2 MSTORE DUP1 PUSH1 0x4 MSTORE REVERT JUMPDEST PUSH1 0x24 DUP11 PUSH4 0x4E487B71 PUSH1 0xE0 SHL DUP2 MSTORE PUSH1 0x41 PUSH1 0x4 MSTORE REVERT JUMPDEST PUSH1 0x24 DUP11 PUSH4 0x4E487B71 PUSH1 0xE0 SHL DUP2 MSTORE PUSH1 0x11 PUSH1 0x4 MSTORE REVERT INVALID LOG2 PUSH5 0x6970667358 0x22 SLT KECCAK256 BYTE BYTE BALANCE BYTE SWAP1 0x25 0xFC ORIGIN JUMP 0xCB PUSH6 0xE8B048C6CBCF 0xE8 SWAP6 0x5C MULMOD SWAP6 0xF DUP7 DUP2 0xCE 0xE1 SWAP15 DUP5 SWAP12 0xF8 DUP8 PUSH5 0x736F6C6343 STOP ADDMOD SGT STOP CALLER "},"methodIdentifiers":{"REQUEST_DATA_VERSION()":"5d641dfc","acceptOwnership()":"79ba5097","checkUpkeep(bytes)":"6e04ff0d","computationCBOR()":"bd4ca97b","contractBalance()":"8b7afe2e","donID()":"6e74336b","farmer()":"d811fcf0","fulfillGasLimit()":"24b93e3e","gasLimit()":"f68016b7","humidityLimit()":"a3097139","institution()":"d1384eb6","interval()":"947a36fb","lastUpkeepTimeStamp()":"089ea02e","latestError()":"fffeb84e","latestRequestId()":"1aa46f59","latestResponse()":"bef3a2f0","owner()":"8da5cb5b","performUpkeep(bytes)":"4585e33b","registry()":"7b103999","reparationValue()":"48bd6f05","request()":"338cdca1","requestCBOR()":"688ecfd1","requestId()":"006d6cae","requests(bytes32,uint256)":"9655e6d8","responseCounter()":"381fc4b5","router()":"f887ea40","s_lastError()":"4b0795a8","s_lastRequestId()":"b1e21749","s_lastResponse()":"3944ea3a","s_requestCounter()":"48802b92","s_responseCounter()":"43cd3d86","s_upkeepCounter()":"f5c1279b","sampleMaxSize()":"ebf14a55","sampleStorage(uint256)":"277e2213","sepoliaLINKAddress()":"1243bcc3","sepoliaRegistrarAddress()":"6baa48fe","setComputation(bytes)":"7d95f68a","setRequest(bytes,uint64,bytes32)":"36e6a92f","subscriptionId()":"09c1ba2e","transferOwnership(address)":"f2fde38b","upkeepContract()":"5e0611f1","upkeepCounter()":"a3d3c0d2","upkeepId()":"d2aa789f"}}}}}