{"contracts/AutomatedFunctionsConsumer.sol":{"AutomatedFunctionsConsumer":{"abi":[{"inputs":[{"internalType":"address","name":"_deployer","type":"address"},{"internalType":"address","name":"_farmer","type":"address"},{"internalType":"uint256","name":"_humidityLimit","type":"uint256"},{"internalType":"uint256","name":"_sampleMaxSize","type":"uint256"},{"internalType":"uint256","name":"_reparationValue","type":"uint256"},{"internalType":"uint256","name":"_updateInterval","type":"uint256"},{"internalType":"address","name":"router","type":"address"},{"internalType":"address","name":"_registry","type":"address"},{"internalType":"address","name":"_sepoliaLINKAddress","type":"address"},{"internalType":"address","name":"_sepoliaRegistrarAddress","type":"address"},{"internalType":"uint32","name":"_fulfillGasLimit","type":"uint32"},{"internalType":"bytes32","name":"_donID","type":"bytes32"}],"stateMutability":"payable","type":"constructor"},{"inputs":[],"name":"EmptyArgs","type":"error"},{"inputs":[],"name":"EmptySource","type":"error"},{"inputs":[],"name":"NoInlineSecrets","type":"error"},{"inputs":[{"internalType":"address","name":"caller","type":"address"},{"internalType":"address","name":"owner","type":"address"},{"internalType":"address","name":"automationRegistry","type":"address"}],"name":"NotAllowedCaller","type":"error"},{"inputs":[],"name":"OnlyRouterCanFulfill","type":"error"},{"inputs":[{"internalType":"bytes32","name":"requestId","type":"bytes32"}],"name":"UnexpectedRequestID","type":"error"},{"anonymous":false,"inputs":[{"indexed":false,"internalType":"uint96","name":"amountRetrieved","type":"uint96"}],"name":"LINKsRetrieved","type":"event"},{"anonymous":false,"inputs":[{"indexed":true,"internalType":"bytes32","name":"requestId","type":"bytes32"},{"indexed":false,"internalType":"bytes","name":"result","type":"bytes"},{"indexed":false,"internalType":"bytes","name":"err","type":"bytes"}],"name":"OCRResponse","type":"event"},{"anonymous":false,"inputs":[{"indexed":true,"internalType":"address","name":"from","type":"address"},{"indexed":true,"internalType":"address","name":"to","type":"address"}],"name":"OwnershipTransferRequested","type":"event"},{"anonymous":false,"inputs":[{"indexed":true,"internalType":"address","name":"from","type":"address"},{"indexed":true,"internalType":"address","name":"to","type":"address"}],"name":"OwnershipTransferred","type":"event"},{"anonymous":false,"inputs":[{"indexed":true,"internalType":"bytes32","name":"id","type":"bytes32"}],"name":"RequestFulfilled","type":"event"},{"anonymous":false,"inputs":[{"indexed":false,"internalType":"string","name":"reason","type":"string"}],"name":"RequestRevertedWithErrorMsg","type":"event"},{"anonymous":false,"inputs":[{"indexed":false,"internalType":"bytes","name":"data","type":"bytes"}],"name":"RequestRevertedWithoutErrorMsg","type":"event"},{"anonymous":false,"inputs":[{"indexed":true,"internalType":"bytes32","name":"id","type":"bytes32"}],"name":"RequestSent","type":"event"},{"anonymous":false,"inputs":[{"indexed":true,"internalType":"bytes32","name":"requestId","type":"bytes32"},{"indexed":false,"internalType":"bytes","name":"response","type":"bytes"},{"indexed":false,"internalType":"bytes","name":"err","type":"bytes"}],"name":"Response","type":"event"},{"anonymous":false,"inputs":[{"indexed":false,"internalType":"uint256","name":"counter","type":"uint256"}],"name":"performCalled","type":"event"},{"anonymous":false,"inputs":[{"indexed":false,"internalType":"string","name":"responseAsString","type":"string"}],"name":"responseString","type":"event"},{"anonymous":false,"inputs":[{"indexed":false,"internalType":"address","name":"sndr","type":"address"}],"name":"sender","type":"event"},{"anonymous":false,"inputs":[{"indexed":false,"internalType":"address","name":"upkeepAddress","type":"address"}],"name":"upkeepCreated","type":"event"},{"anonymous":false,"inputs":[{"indexed":false,"internalType":"uint256","name":"upkeepId","type":"uint256"}],"name":"upkeepRegistered","type":"event"},{"inputs":[],"name":"acceptOwnership","outputs":[],"stateMutability":"nonpayable","type":"function"},{"inputs":[{"internalType":"uint96","name":"amount","type":"uint96"}],"name":"approveLINK","outputs":[],"stateMutability":"nonpayable","type":"function"},{"inputs":[],"name":"c_upkeep","outputs":[{"internalType":"contract Upkeep","name":"","type":"address"}],"stateMutability":"view","type":"function"},{"inputs":[{"internalType":"bytes","name":"","type":"bytes"}],"name":"checkUpkeep","outputs":[{"internalType":"bool","name":"upkeepNeeded","type":"bool"},{"internalType":"bytes","name":"","type":"bytes"}],"stateMutability":"view","type":"function"},{"inputs":[],"name":"contractBalance","outputs":[{"internalType":"uint256","name":"","type":"uint256"}],"stateMutability":"view","type":"function"},{"inputs":[{"internalType":"uint96","name":"upkeepFundAmount","type":"uint96"}],"name":"createUpkeep","outputs":[],"stateMutability":"nonpayable","type":"function"},{"inputs":[],"name":"deployer","outputs":[{"internalType":"address","name":"","type":"address"}],"stateMutability":"view","type":"function"},{"inputs":[],"name":"donID","outputs":[{"internalType":"bytes32","name":"","type":"bytes32"}],"stateMutability":"view","type":"function"},{"inputs":[],"name":"farmer","outputs":[{"internalType":"address","name":"","type":"address"}],"stateMutability":"view","type":"function"},{"inputs":[],"name":"fulfillGasLimit","outputs":[{"internalType":"uint32","name":"","type":"uint32"}],"stateMutability":"view","type":"function"},{"inputs":[{"internalType":"bytes32","name":"requestId","type":"bytes32"},{"internalType":"bytes","name":"response","type":"bytes"},{"internalType":"bytes","name":"err","type":"bytes"}],"name":"handleOracleFulfillment","outputs":[],"stateMutability":"nonpayable","type":"function"},{"inputs":[],"name":"humidityLimit","outputs":[{"internalType":"uint256","name":"","type":"uint256"}],"stateMutability":"view","type":"function"},{"inputs":[],"name":"lastUpkeepTimeStamp","outputs":[{"internalType":"uint256","name":"","type":"uint256"}],"stateMutability":"view","type":"function"},{"inputs":[],"name":"latestError","outputs":[{"internalType":"bytes","name":"","type":"bytes"}],"stateMutability":"view","type":"function"},{"inputs":[],"name":"latestRequestId","outputs":[{"internalType":"bytes32","name":"","type":"bytes32"}],"stateMutability":"view","type":"function"},{"inputs":[],"name":"latestResponse","outputs":[{"internalType":"bytes","name":"","type":"bytes"}],"stateMutability":"view","type":"function"},{"inputs":[],"name":"owner","outputs":[{"internalType":"address","name":"","type":"address"}],"stateMutability":"view","type":"function"},{"inputs":[{"internalType":"bytes","name":"","type":"bytes"}],"name":"performUpkeep","outputs":[],"stateMutability":"nonpayable","type":"function"},{"inputs":[{"components":[{"internalType":"string","name":"name","type":"string"},{"internalType":"bytes","name":"encryptedEmail","type":"bytes"},{"internalType":"address","name":"upkeepContract","type":"address"},{"internalType":"uint32","name":"gasLimit","type":"uint32"},{"internalType":"address","name":"adminAddress","type":"address"},{"internalType":"uint8","name":"triggerType","type":"uint8"},{"internalType":"bytes","name":"checkData","type":"bytes"},{"internalType":"bytes","name":"triggerConfig","type":"bytes"},{"internalType":"bytes","name":"offchainConfig","type":"bytes"},{"internalType":"uint96","name":"amount","type":"uint96"}],"internalType":"struct RegistrationParams","name":"params","type":"tuple"}],"name":"registerUpkeep","outputs":[],"stateMutability":"nonpayable","type":"function"},{"inputs":[],"name":"registry","outputs":[{"internalType":"contract IAutomationRegistryConsumer","name":"","type":"address"}],"stateMutability":"view","type":"function"},{"inputs":[],"name":"reparationValue","outputs":[{"internalType":"uint256","name":"","type":"uint256"}],"stateMutability":"view","type":"function"},{"inputs":[],"name":"request","outputs":[{"internalType":"bytes","name":"","type":"bytes"}],"stateMutability":"view","type":"function"},{"inputs":[],"name":"requestCBOR","outputs":[{"internalType":"bytes","name":"","type":"bytes"}],"stateMutability":"view","type":"function"},{"inputs":[],"name":"responseCounter","outputs":[{"internalType":"uint256","name":"","type":"uint256"}],"stateMutability":"view","type":"function"},{"inputs":[],"name":"s_lastError","outputs":[{"internalType":"bytes","name":"","type":"bytes"}],"stateMutability":"view","type":"function"},{"inputs":[],"name":"s_lastRequestId","outputs":[{"internalType":"bytes32","name":"","type":"bytes32"}],"stateMutability":"view","type":"function"},{"inputs":[],"name":"s_lastResponse","outputs":[{"internalType":"bytes","name":"","type":"bytes"}],"stateMutability":"view","type":"function"},{"inputs":[],"name":"s_requestCounter","outputs":[{"internalType":"uint256","name":"","type":"uint256"}],"stateMutability":"view","type":"function"},{"inputs":[],"name":"s_responseCounter","outputs":[{"internalType":"uint256","name":"","type":"uint256"}],"stateMutability":"view","type":"function"},{"inputs":[],"name":"sampleMaxSize","outputs":[{"internalType":"uint256","name":"","type":"uint256"}],"stateMutability":"view","type":"function"},{"inputs":[{"internalType":"uint256","name":"","type":"uint256"}],"name":"sampleStorage","outputs":[{"internalType":"string","name":"","type":"string"}],"stateMutability":"view","type":"function"},{"inputs":[],"name":"sepoliaLINKAddress","outputs":[{"internalType":"address","name":"","type":"address"}],"stateMutability":"view","type":"function"},{"inputs":[],"name":"sepoliaRegistrarAddress","outputs":[{"internalType":"address","name":"","type":"address"}],"stateMutability":"view","type":"function"},{"inputs":[{"internalType":"bytes","name":"_requestCBOR","type":"bytes"},{"internalType":"uint64","name":"_subscriptionId","type":"uint64"}],"name":"setCBOR","outputs":[],"stateMutability":"nonpayable","type":"function"},{"inputs":[],"name":"subscriptionId","outputs":[{"internalType":"uint64","name":"","type":"uint64"}],"stateMutability":"view","type":"function"},{"inputs":[{"internalType":"address","name":"to","type":"address"}],"name":"transferOwnership","outputs":[],"stateMutability":"nonpayable","type":"function"},{"inputs":[],"name":"updateInterval","outputs":[{"internalType":"uint256","name":"","type":"uint256"}],"stateMutability":"view","type":"function"},{"inputs":[],"name":"upkeepCounter","outputs":[{"internalType":"uint256","name":"","type":"uint256"}],"stateMutability":"view","type":"function"},{"inputs":[],"name":"upkeepId","outputs":[{"internalType":"uint256","name":"","type":"uint256"}],"stateMutability":"view","type":"function"},{"stateMutability":"payable","type":"receive"}],"evm":{"bytecode":{"linkReferences":{},"object":"60c0601f62003b8d38819003918201601f19168301916001600160401b03831184841017620002855780849261018094604052833981010312620002805762000048816200029b565b62000056602083016200029b565b60408301519260608101519360808201519160a0810151906200007c60c082016200029b565b946200008b60e083016200029b565b6200009a61010084016200029b565b93620000aa61012085016200029b565b966101408501519463ffffffff86168603620002805761016001516001600160a01b03998a166080529a8a8a16156200023b57899788958660018060a01b03199d8e828216906000541617600055168d600254161760025560175490610100600160a81b039060081b1690610100600160a81b03191617601755601955601a556018556008551660a0526bffffffff00000000000000006007549160401b16906bffffffff0000000000000000191617600755168360095416176009551690600a541617600a5542600f55600e55601c546001908181811c9116801562000230575b60208210146200021a57601f8111620001ce575b6000601c556040516138dc9081620002b182396080518181816104770152610c64015260a051816111b50152f35b601c600052601f0160051c7f0e4562a10381dec21b205ed72637e6b1b523bdd0e4d4d50af5cd23dd4500a211908101905b8181106200020e5750620001a0565b600081558201620001ff565b634e487b7160e01b600052602260045260246000fd5b90607f16906200018c565b60405162461bcd60e51b815260206004820152601860248201527f43616e6e6f7420736574206f776e657220746f207a65726f00000000000000006044820152606490fd5b600080fd5b634e487b7160e01b600052604160045260246000fd5b51906001600160a01b0382168203620002805756fe608060405260043610156200001d575b36156200001b57600080fd5b005b60003560e01c8063089ea02e14620002da57806309c1ba2e14620002d45780630ca7617514620002ce5780631243bcc314620002c85780631aa46f5914620002c257806324b93e3e14620002bc578063277e221314620002b65780632fc2a7b914620002b0578063338cdca114620002aa578063381fc4b514620002a45780633944ea3a146200029e5780633f678e11146200029857806343cd3d8614620002925780634585e33b146200028c57806348802b92146200028657806348bd6f0514620002805780634b0795a8146200027a578063688ecfd114620002745780636baa48fe146200026e5780636e04ff0d14620002685780636e74336b146200026257806379ba5097146200025c5780637b10399914620002565780638b7afe2e14620002505780638d7e6d2d146200024a5780638da5cb5b1462000244578063a3097139146200023e578063a3d3c0d21462000238578063b1e217491462000232578063bef3a2f0146200022c578063c5e146881462000226578063d2aa789f1462000220578063d5f39488146200021a578063d6134eaf1462000214578063d811fcf0146200020e578063ebf14a551462000208578063f2fde38b1462000202578063fd2c80ae14620001fc5763fffeb84e036200000f57620019bb565b6200199b565b620018c2565b62001876565b6200184a565b620016da565b620016b1565b62001691565b620015e7565b62001532565b62001512565b620014f2565b620014d2565b620014a9565b6200122d565b620011d9565b62001193565b620010af565b6200108f565b62001011565b62000fe8565b62000f33565b62000e7e565b62000e5e565b62000e3e565b62000bc9565b62000b5a565b62000a24565b6200096f565b6200094f565b6200085c565b62000833565b620007c3565b6200058b565b6200056b565b62000542565b62000416565b62000311565b620002f1565b6000910312620002ec57565b600080fd5b34620002ec576000366003190112620002ec576020600f54604051908152f35b34620002ec576000366003190112620002ec57602067ffffffffffffffff60075416604051908152f35b634e487b7160e01b600052604160045260246000fd5b67ffffffffffffffff81116200036657604052565b6200033b565b6040810190811067ffffffffffffffff8211176200036657604052565b90601f8019910116810190811067ffffffffffffffff8211176200036657604052565b67ffffffffffffffff81116200036657601f01601f191660200190565b81601f82011215620002ec57803590620003e382620003ac565b92620003f3604051948562000389565b82845260208383010111620002ec57816000926020809301838601378301015290565b34620002ec576060366003190112620002ec5760043567ffffffffffffffff602435818111620002ec5762000450903690600401620003c9565b90604435908111620002ec576200046c903690600401620003c9565b906001600160a01b037f00000000000000000000000000000000000000000000000000000000000000001633036200051857620004df7f7bab0ec163b5c132c72b8146ac4d6e067e82ed58f8b131150aa71c925891156291620004ee85946040519384936040855260408501906200076b565b9083820360208501526200076b565b0390a27f85e1543bf2f84fe80c6badbce3648c8539ad1df4d2b3d822938ca0538be727e6600080a2005b60046040517fc6829f83000000000000000000000000000000000000000000000000000000008152fd5b34620002ec576000366003190112620002ec5760206001600160a01b0360095416604051908152f35b34620002ec576000366003190112620002ec576020600454604051908152f35b34620002ec576000366003190112620002ec57602060075463ffffffff6040519160401c168152f35b90600182811c92168015620005e6575b6020831014620005d057565b634e487b7160e01b600052602260045260246000fd5b91607f1691620005c4565b60405190600082601c54916200060783620005b4565b8083529260019081811690811562000697575060011462000634575b50620006329250038362000389565b565b601c600090815291507f0e4562a10381dec21b205ed72637e6b1b523bdd0e4d4d50af5cd23dd4500a2115b8483106200067b57506200063293505081016020013862000623565b81935090816020925483858a010152019101909185926200065f565b9050602092506200063294915060ff191682840152151560051b8201013862000623565b9060405191826000825492620006d184620005b4565b908184526001948581169081600014620007465750600114620006ff575b5050620006329250038362000389565b9093915060005260209081600020936000915b8183106200072d5750506200063293508201013880620006ef565b8554888401850152948501948794509183019162000712565b9150506200063294506020925060ff191682840152151560051b8201013880620006ef565b919082519283825260005b84811062000798575050826000602080949584010152601f8019910116010190565b60208183018101518483018201520162000776565b906020620007c09281815201906200076b565b90565b34620002ec576020366003190112620002ec57600435601b54811015620002ec576200081a6200082f91601b6000527f3ad8aa4f87544323a9d1e5dd902f40c356527a7955687113db5f9a85ad579dc101620006bb565b6040519182916020835260208301906200076b565b0390f35b34620002ec576000366003190112620002ec5760206001600160a01b03600b5416604051908152f35b34620002ec576000806003193601126200094c576040519080600d546200088381620005b4565b808552916001918083169081156200091f5750600114620008bf575b6200082f85620008b28187038262000389565b60405191829182620007ad565b9250600d83527fd7b6990105719101dabeb77144f2a3385c8033acd3af97e9423a695e81ad1eb55b82841062000906575050508101602001620008b2826200082f6200089f565b80546020858701810191909152909301928101620008e7565b8695506200082f96935060209250620008b294915060ff191682840152151560051b82010192936200089f565b80fd5b34620002ec576000366003190112620002ec576020601154604051908152f35b34620002ec576000806003193601126200094c5760405190806013546200099681620005b4565b808552916001918083169081156200091f5750600114620009c4576200082f85620008b28187038262000389565b9250601383527f66de8ffda797e3de9c05e8fc57b3bf0ec28a930d40b0d285d93c06501cf6a0905b82841062000a0b575050508101602001620008b2826200082f6200089f565b80546020858701810191909152909301928101620009ec565b34620002ec57600319602036820112620002ec576004359067ffffffffffffffff8211620002ec57610140908236030112620002ec57602062000acf60009262000a9362000a8762000a876001600160a01b03600b54166001600160a01b031690565b6001600160a01b031690565b906040519485809481937f24380aa800000000000000000000000000000000000000000000000000000000835230906004016004840162001bec565b03925af1801562000b545762000aee9160009162000b1f575b50600c55565b600c546040519081527f7623383a750b4166574a1b2dff61440ed0dfa3708cbe620c58339cca510d1af990602090a1005b62000b45915060203d811162000b4c575b62000b3c818362000389565b81019062001b65565b3862000ae8565b503d62000b30565b62001b59565b34620002ec576000366003190112620002ec576020601654604051908152f35b906020600319830112620002ec5760043567ffffffffffffffff92838211620002ec5780602383011215620002ec578160040135938411620002ec5760248483010111620002ec576024019190565b34620002ec5762000bda3662000b7a565b505062000beb600c54151562001d96565b62000bf542600f55565b62000c0b62000c0660105462001de2565b601055565b601a54601b54101562000daf5762000c566020600754600e5490604051938492839263230e93b160e11b845267ffffffffffffffff63ffffffff8260401c1691166004850162001fee565b038160006001600160a01b037f0000000000000000000000000000000000000000000000000000000000000000165af16000918162000d8a575b5062000d435750600162000ca362001f25565b6308c379a01462000cea575b62000cb657005b7f9c4bfa18304482256875c29fabb1a44a5ecd325f214ea17bab8f31e869faf4c862000ce5620008b262001fb9565b0390a1005b62000cf462001f44565b8062000d02575b5062000caf565b90507f2ba61e3733e7ac99181c22307780f651ec8fd92fe661a84dfbe711710b2dc36c62000d3960009260405191829182620007ad565b0390a13862000cfb565b62000d4d81601255565b62000d6362000d5e60155462001de2565b601555565b7f1131472297a800fee664d1d89cfa8f7676ff07189ecc53f80bbb5f4969099db8600080a2005b62000da791925060203d811162000b4c5762000b3c818362000389565b903862000c90565b62000dc2600160ff196017541617601755565b62000e0062000dd062001e0e565b62000de562000dde620005f1565b8262002526565b62000dfa62000df362001e59565b8262002568565b620022e9565b6020600754600e549262000c56604051948593849363230e93b160e11b855267ffffffffffffffff63ffffffff8360401c1692166004860162001ee3565b34620002ec576000366003190112620002ec576020601554604051908152f35b34620002ec576000366003190112620002ec576020601854604051908152f35b34620002ec576000806003193601126200094c57604051908060145462000ea581620005b4565b808552916001918083169081156200091f575060011462000ed3576200082f85620008b28187038262000389565b9250601483527fce6d7b5282bd9a3661ae061feed1dbda4e52ab073b1f9285be6e155d9c38d4ec5b82841062000f1a575050508101602001620008b2826200082f6200089f565b8054602085870181019190915290930192810162000efb565b34620002ec576000806003193601126200094c57604051908060035462000f5a81620005b4565b808552916001918083169081156200091f575060011462000f88576200082f85620008b28187038262000389565b9250600383527fc2575a0e9e593c00f959f8c92f12db2869c3395a3b0502d05e2516446f71f85b5b82841062000fcf575050508101602001620008b2826200082f6200089f565b8054602085870181019190915290930192810162000fb0565b34620002ec576000366003190112620002ec5760206001600160a01b03600a5416604051908152f35b34620002ec57620010223662000b7a565b5050600f54420342811162001089576008541060405190815260206040818301528160609182519081604084015260005b828110620010735750506000828201840152601f01601f19168101030190f35b6080810151868201860152859350810162001053565b62001d70565b34620002ec576000366003190112620002ec576020600e54604051908152f35b34620002ec576000806003193601126200094c576001600160a01b03806001541633036200114f5781546001600160a01b03166000805473ffffffffffffffffffffffffffffffffffffffff191633179055906200112573ffffffffffffffffffffffffffffffffffffffff1960015416600155565b3391167f8be0079c531659141344cd1fd0a4f28419497f9722a3daafe3b4186f6b6457e08380a380f35b606460405162461bcd60e51b815260206004820152601660248201527f4d7573742062652070726f706f736564206f776e6572000000000000000000006044820152fd5b34620002ec576000366003190112620002ec5760206040516001600160a01b037f0000000000000000000000000000000000000000000000000000000000000000168152f35b34620002ec576000366003190112620002ec57602047604051908152f35b600435906bffffffffffffffffffffffff82168203620002ec57565b35906bffffffffffffffffffffffff82168203620002ec57565b34620002ec576020366003190112620002ec576200124a620011f7565b6009546001600160a01b0316906200126a600a546001600160a01b031690565b91604051926107658085019185831067ffffffffffffffff84111762000366578593620012c89386936200314287396001600160a01b039182168152911660208201526bffffffffffffffffffffffff909116604082015260600190565b0360009283f0801562000b54576200137d916200130a6020926001600160a01b031673ffffffffffffffffffffffffffffffffffffffff19600b541617600b55565b6200132562000a8762000a876009546001600160a01b031690565b6200133c62000a87600b546001600160a01b031690565b8560405180968195829463095ea7b360e01b8452600484019092916bffffffffffffffffffffffff6020916001600160a01b03604085019616845216910152565b03925af1801562000b545762001474575b50620013a662000a87600b546001600160a01b031690565b803b1562001470576040517f230244080000000000000000000000000000000000000000000000000000000081523060048201529082908290602490829084905af1801562000b545762001452575b507f3583c1105fd29a46b4d92ceeaff8be03cba58a11cce44a3b7da77bbc3798edc46200144c6200143262000a87600b546001600160a01b031690565b6040516001600160a01b0390911681529081906020820190565b0390a180f35b8062001462620014699262000351565b80620002e0565b38620013f5565b5080fd5b620014999060203d8111620014a1575b62001490818362000389565b81019062001b3f565b50386200138e565b503d62001484565b34620002ec576000366003190112620002ec5760206001600160a01b0360005416604051908152f35b34620002ec576000366003190112620002ec576020601954604051908152f35b34620002ec576000366003190112620002ec576020601054604051908152f35b34620002ec576000366003190112620002ec576020601254604051908152f35b34620002ec576000806003193601126200094c5760405190806005546200155981620005b4565b808552916001918083169081156200091f575060011462001587576200082f85620008b28187038262000389565b9250600583527f036b6384b5eca791c62761152d0c79bb0604c104a5fb6f4eb0703f3154bb3db05b828410620015ce575050508101602001620008b2826200082f6200089f565b80546020858701810191909152909301928101620015af565b34620002ec576020366003190112620002ec5760006020620016646200160c620011f7565b6200161662001a70565b6001600160a01b03600954169060405194858094819363095ea7b360e01b835233600484019092916bffffffffffffffffffffffff6020916001600160a01b03604085019616845216910152565b03925af1801562000b54576200167657005b6200001b9060203d8111620014a15762001490818362000389565b34620002ec576000366003190112620002ec576020600c54604051908152f35b34620002ec576000366003190112620002ec5760206001600160a01b0360025416604051908152f35b34620002ec576040366003190112620002ec5767ffffffffffffffff600435818111620002ec5762001711903690600401620003c9565b90602435908082168203620002ec578251908111620003665762001742816200173c600354620005b4565b62001ac9565b602080601f8311600114620017a1575081906200001b9460009262001795575b50508160011b916000199060031b1c19161760035567ffffffffffffffff1667ffffffffffffffff196007541617600755565b01519050388062001762565b60036000529193601f1985167fc2575a0e9e593c00f959f8c92f12db2869c3395a3b0502d05e2516446f71f85b936000905b828210620018315750509160019391866200001b97941062001817575b505050811b0160035567ffffffffffffffff1667ffffffffffffffff196007541617600755565b015160001960f88460031b161c19169055388080620017f0565b80600186978294978701518155019601940190620017d3565b34620002ec576000366003190112620002ec5760206001600160a01b0360175460081c16604051908152f35b34620002ec576000366003190112620002ec576020601a54604051908152f35b600435906001600160a01b0382168203620002ec57565b35906001600160a01b0382168203620002ec57565b34620002ec576020366003190112620002ec576001600160a01b03620018e762001896565b620018f162001a70565b1633811462001957578073ffffffffffffffffffffffffffffffffffffffff1960015416176001556200193062000a876000546001600160a01b031690565b7fed8889f560326eb138920d842192f0eb3dd22b4f139c87a2c57538e05bae1278600080a3005b606460405162461bcd60e51b815260206004820152601760248201527f43616e6e6f74207472616e7366657220746f2073656c660000000000000000006044820152fd5b34620002ec576000366003190112620002ec576020600854604051908152f35b34620002ec576000806003193601126200094c576040519080600654620019e281620005b4565b808552916001918083169081156200091f575060011462001a10576200082f85620008b28187038262000389565b9250600683527ff652222313e28459528d920b65115c16c04f3efc82aaedc97be59f3f377c0d3f5b82841062001a57575050508101602001620008b2826200082f6200089f565b8054602085870181019190915290930192810162001a38565b6001600160a01b0360005416330362001a8557565b606460405162461bcd60e51b815260206004820152601660248201527f4f6e6c792063616c6c61626c65206279206f776e6572000000000000000000006044820152fd5b601f811162001ad6575050565b600090600382527fc2575a0e9e593c00f959f8c92f12db2869c3395a3b0502d05e2516446f71f85b906020601f850160051c8301941062001b34575b601f0160051c01915b82811062001b2857505050565b81815560010162001b1b565b909250829062001b12565b90816020910312620002ec57518015158103620002ec5790565b6040513d6000823e3d90fd5b90816020910312620002ec575190565b9035601e1982360301811215620002ec57016020813591019167ffffffffffffffff8211620002ec578136038313620002ec57565b908060209392818452848401376000828201840152601f01601f1916010190565b359063ffffffff82168203620002ec57565b359060ff82168203620002ec57565b9291602062000632926040865262001d6062001d4a62001c2e62001d428962001c16868062001b75565b93906101409485604085015261018084019162001baa565b9262001cfb62001c5a62001c458a8a018a62001b75565b603f1986890381016060880152979162001baa565b62001c7c62001c6c60408b01620018ad565b6001600160a01b03166080860152565b62001c9b62001c8e60608b0162001bcb565b63ffffffff1660a0860152565b62001cbd62001cad60808b01620018ad565b6001600160a01b031660c0860152565b62001cd962001ccf60a08b0162001bdd565b60ff1660e0860152565b62001ce860c08a018a62001b75565b8583038801610100968701529062001baa565b938c62001d3262001d2862001d1460e08c018c62001b75565b610120999186868403018b87015262001baa565b948a018a62001b75565b9390928286030191015262001baa565b930162001213565b6bffffffffffffffffffffffff16610160880152565b9401906001600160a01b03169052565b634e487b7160e01b600052601160045260246000fd5b601f198101919082116200108957565b1562001d9e57565b606460405162461bcd60e51b815260206004820152601560248201527f55706b656570206e6f74207265676973746572656400000000000000000000006044820152fd5b90600182018092116200108957565b90602082018092116200108957565b919082018092116200108957565b6040519060e0820182811067ffffffffffffffff8211176200036657604052606060c08360008152600060208201526000604082015282808201528260808201528260a08201520152565b601b549067ffffffffffffffff8211620003665760405191602062001e84818360051b018562000389565b81845280840190601b6000527f3ad8aa4f87544323a9d1e5dd902f40c356527a7955687113db5f9a85ad579dc16000925b84841062001ec4575050505050565b600183819262001ed485620006bb565b81520192019301929062001eb5565b9062001f1360809367ffffffffffffffff63ffffffff939897969816845260a0602085015260a08401906200076b565b95600160408401521660608201520152565b60009060033d1162001f3357565b905060046000803e60005160e01c90565b600060443d10620007c057604051600319913d83016004833e815167ffffffffffffffff918282113d60248401111762001fa85781840194855193841162001fb0573d8501016020848701011162001fa85750620007c09291016020019062000389565b949350505050565b50949350505050565b3d1562001fe9573d9062001fcd82620003ac565b9162001fdd604051938462000389565b82523d6000602084013e565b606090565b9067ffffffffffffffff909493929416815260209360a0858301526000600354956200201a87620005b4565b908160a08601526001978881169081600014620020b5575060011462002056575b5050604083019590955263ffffffff16606082015260800152565b600360009081529250877fc2575a0e9e593c00f959f8c92f12db2869c3395a3b0502d05e2516446f71f85b5b8385106200209f5750505050820160c0018163ffffffff6200203b565b805487860160c001529382019389910162002082565b60ff191660c08781019190915292151560051b8601909201925083915063ffffffff90506200203b565b60405190620020ee826200036c565b600c82527f636f64654c6f636174696f6e00000000000000000000000000000000000000006020830152565b634e487b7160e01b600052602160045260246000fd5b600311156200213b57565b6200211a565b6040519062002150826200036c565b600882527f6c616e67756167650000000000000000000000000000000000000000000000006020830152565b600111156200213b57565b6040519062002196826200036c565b600682527f736f7572636500000000000000000000000000000000000000000000000000006020830152565b60405190620021d1826200036c565b600482527f61726773000000000000000000000000000000000000000000000000000000006020830152565b6000198114620010895760010190565b8051821015620022225760209160051b010190565b634e487b7160e01b600052603260045260246000fd5b6040519062002247826200036c565b600f82527f736563726574734c6f636174696f6e00000000000000000000000000000000006020830152565b6040519062002282826200036c565b600782527f73656372657473000000000000000000000000000000000000000000000000006020830152565b60405190620022bd826200036c565b600982527f62797465734172677300000000000000000000000000000000000000000000006020830152565b620022f3620025bc565b906200230962002302620020df565b8362002db1565b6200232c81516200231a8162002130565b620023258162002130565b836200266c565b6200233a6200230262002141565b6200235960408201516200234e816200217c565b62002325816200217c565b620023676200230262002187565b6200237760608201518362002db1565b60a08101805151620024bd575b5060808101908151516200240f575b60c0915001805151620023a7575b50515190565b91620023b662002302620022ae565b620023c18262002e49565b60005b83518051821015620023f95790620023ed620023e582620023f3946200220d565b518562002ce2565b620021fd565b620023c4565b50509150620024088162002ee1565b38620023a1565b602081018051620024208162002130565b6200242b8162002130565b15620024935760c092620024706200248d92620024526200244b62002238565b8862002db1565b516200245e8162002130565b620024698162002130565b866200266c565b620024856200247e62002273565b8662002db1565b518462002ce2565b62002393565b60046040517fa80d31f7000000000000000000000000000000000000000000000000000000008152fd5b92620024d3620024cc620021c2565b8462002db1565b620024de8362002e49565b60005b84518051821015620025105790620023ed62002502826200250a946200220d565b518662002db1565b620024e1565b505092506200251f8262002ee1565b3862002384565b8151156200253e576000808252604082015260600152565b60046040517f22ce3edd000000000000000000000000000000000000000000000000000000008152fd5b815115620025765760a00152565b60046040517ffe936cb7000000000000000000000000000000000000000000000000000000008152fd5b60405190620025af826200036c565b6000602083606081520152565b604051620025ca816200036c565b620025d4620025a0565b8082526020820160008152620025e9620025a0565b506101006020830152604051809252600082526101208201918210620002ec576000916040525290565b906200261e620025a0565b50601f8116806200264f575b5080602083015260405190818352600082528101602001908110620002ec5760405290565b60200360208111620010895781018091116200108957386200262a565b908151916200267a620025a0565b50825151600181019081811162001089576020850151811015620026db575b60c26020620006329651928301015380518211620026d2575b505060405191602083015260208252620026cc826200036c565b62002ce2565b523880620026b2565b8160011b948286046002148315171562001089576020816200271362000632986200270b60c29551918462002613565b508262002c13565b509650505062002699565b908160011b91808304600214901517156200108957565b6200273f620025a0565b508051516001810190818111620010895760208301518110156200277b575b605b602084519283010153805182116200277757505090565b5290565b8160011b828104600214831517156200108957620027a990620027a18551918662002613565b508462002c13565b506200275e565b620027ba620025a0565b50805151600181019081811162001089576020830151811015620027f2575b605a602084519283010153805182116200277757505090565b8160011b8281046002148315171562001089576200281890620027a18551918662002613565b50620027d9565b62002829620025a0565b5080515160018101908181116200108957602083015181101562002861575b6059602084519283010153805182116200277757505090565b8160011b8281046002148315171562001089576200288790620027a18551918662002613565b5062002848565b62002898620025a0565b50805151600181019081811162001089576020830151811015620028d0575b6058602084519283010153805182116200277757505090565b8160011b828104600214831517156200108957620028f690620027a18551918662002613565b50620028b7565b62002907620025a0565b508051516001810190818111620010895760208301518110156200293f575b607b602084519283010153805182116200277757505090565b8160011b8281046002148315171562001089576200296590620027a18551918662002613565b5062002926565b62002976620025a0565b50805151600181019081811162001089576020830151811015620029ae575b607a602084519283010153805182116200277757505090565b8160011b828104600214831517156200108957620029d490620027a18551918662002613565b5062002995565b620029e5620025a0565b5080515160018101908181116200108957602083015181101562002a1d575b6079602084519283010153805182116200277757505090565b8160011b82810460021483151715620010895762002a4390620027a18551918662002613565b5062002a04565b62002a54620025a0565b5080515160018101908181116200108957602083015181101562002a8c575b6078602084519283010153805182116200277757505090565b8160011b82810460021483151715620010895762002ab290620027a18551918662002613565b5062002a73565b9062002ac4620025a0565b5081515160018101918282116200108957602084015182101562002afa575b602084519283010153805182116200277757505090565b8260011b83810460021484151715620010895762002b289062002b208651918762002613565b508562002c13565b5062002ae3565b9062002b3e8251918362002613565b5062002b49620025a0565b5080519062002b57620025a0565b5062002b67815183111562002cda565b8251519262002b77838562001e00565b91602092828480940151821162002bf7575b518381519782010196821162002bee575b505001915b8181101562002bc15760001991036101000a0190811990511690825116179052565b919262002be162002bda62002be8928651815262001df1565b9462001df1565b9262001d86565b62002b9f565b52388062002b9a565b62002c0d62002c06836200271e565b8262002b2f565b62002b89565b9062002c1e620025a0565b50805162002c2b620025a0565b5062002c3b825182111562002cda565b8251519162002c4b828462001e00565b602091829182870151811162002cbe575b86518381519782010196821162002cb5575b505001915b8181101562002c965760001991036101000a019081199051169082511617905290565b919262002be162002bda62002caf928651815262001df1565b62002c73565b52388062002c6e565b62002cd462002ccd826200271e565b8862002b2f565b62002c5c565b15620002ec57565b815162002d1f92919067ffffffffffffffff8116906017821162002d225762002d169150604060ff84519216179062002ab9565b505b5162002c13565b50565b5060ff811162002d4d5762002d469062002d3d83516200288e565b508251620030d2565b5062002d18565b61ffff811162002d715762002d469062002d6883516200281f565b50825162003062565b63ffffffff811162002d975762002d469062002d8e8351620027b0565b50825162002ff0565b62002d469062002da8835162002735565b50825162002f7a565b815162002d1f92919067ffffffffffffffff8116906017821162002de55762002d169150606060ff84519216179062002ab9565b5060ff811162002e005762002d469062002d3d835162002a4a565b61ffff811162002e1b5762002d469062002d688351620029db565b63ffffffff811162002e385762002d469062002d8e83516200296c565b62002d469062002da88351620028fd565b80519062002e56620025a0565b5081515160018101908181116200108957602084015181101562002ea9575b609f602080955192830101538051821162002ea0575b50500180519060018201809211620010895752565b52388062002e8b565b8160011b9382850460021483151715620010895760208162002ed682976200270b609f9551918462002613565b509550505062002e75565b80519062002eee620025a0565b5081515160018101908181116200108957602084015181101562002f42575b60ff602080955192830101538051821162002f39575b5050018051600019810191908211620010895752565b52388062002f23565b8160011b9382850460021483151715620010895760208162002f6f82976200270b60ff9551918462002613565b509550505062002f0d565b9062002f85620025a0565b5081515180600801918260081162001089576020840151831162002fcb575b60088451928301019067ffffffffffffffff19825116179052805182116200277757505090565b8260011b83810460021484151715620010895762002fea908562002b2f565b62002fa4565b9062002ffb620025a0565b508151518060040191826004116200108957602084015183116200303d575b60048451928301019063ffffffff19825116179052805182116200277757505090565b8260011b8381046002148415171562001089576200305c908562002b2f565b6200301a565b906200306d620025a0565b50815151806002019182600211620010895760208401518311620030ad575b60028451928301019061ffff19825116179052805182116200277757505090565b8260011b838104600214841517156200108957620030cc908562002b2f565b6200308c565b90620030dd620025a0565b508151518060010191826001116200108957602084015183116200311c575b60018451928301019060ff19825116179052805182116200277757505090565b8260011b8381046002148415171562001089576200313b908562002b2f565b620030fc56fe60c0346100ba57601f61076538819003918201601f19168301916001600160401b038311848410176100bf578084926060946040528339810103126100ba57610047816100d5565b906040610056602083016100d5565b9101516001600160601b03811692908390036100ba5760805260a052600180546001600160601b03191691909117905560405161067b90816100ea82396080518181816077015281816101c701526103a3015260a05181818160be015261036a0152f35b600080fd5b634e487b7160e01b600052604160045260246000fd5b51906001600160a01b03821682036100ba5756fe60806040818152600436101561001457600080fd5b600091823560e01c90816301619d3d1461022d57508063230244081461014a57806324380aa8146100e2578063442b12781461009f57637d253aff1461005957600080fd5b3461009b578160031936011261009b57602090516001600160a01b037f0000000000000000000000000000000000000000000000000000000000000000168152f35b5080fd5b503461009b578160031936011261009b57602090516001600160a01b037f0000000000000000000000000000000000000000000000000000000000000000168152f35b503461009b576003198181360112610142576004359067ffffffffffffffff82116101465761014090823603011261014257602435926001600160a01b038416840361013f575060209261013891600401610313565b9051908152f35b80fd5b8280fd5b8380fd5b503461009b57602036600319011261009b57600435906001600160a01b03918281168091036101465760209060646bffffffffffffffffffffffff600154169186855196879485937f23b872dd000000000000000000000000000000000000000000000000000000008552600485015230602485015260448401527f0000000000000000000000000000000000000000000000000000000000000000165af190811561022457506101f9575080f35b6102199060203d811161021d575b6102118183610270565b8101906102a8565b5080f35b503d610207565b513d84823e3d90fd5b83903461009b578160031936011261009b576020906bffffffffffffffffffffffff600154168152f35b35906001600160a01b038216820361026b57565b600080fd5b90601f8019910116810190811067ffffffffffffffff82111761029257604052565b634e487b7160e01b600052604160045260246000fd5b9081602091031261026b5751801515810361026b5790565b9035601e198236030181121561026b57016020813591019167ffffffffffffffff821161026b57813603831361026b57565b908060209392818452848401376000828201840152601f01601f1916010190565b9190916000926101208201356bffffffffffffffffffffffff8116809103610641576040908151927f095ea7b30000000000000000000000000000000000000000000000000000000084526001600160a01b0391827f0000000000000000000000000000000000000000000000000000000000000000169586600487015281602487015260209586816044818d897f0000000000000000000000000000000000000000000000000000000000000000165af180156106375761061a575b508451967f3f678e1100000000000000000000000000000000000000000000000000000000885286600489015261041d61040a83806102c0565b61014060248c01526101648b01916102f2565b8a61044161042d8a8601866102c0565b6023198d8603810160448f015294916102f2565b948761044e8a8701610257565b1660648c0152606085013563ffffffff81168091036101425760848c01528761047960808701610257565b1660a48c015260a08501359060ff8216809203610142576105018c9687956104f16104e58f9b6104c7908a9860c48a01526104b760c08701876102c0565b90868b84030160e48c01526102f2565b6104d460e08601866102c0565b90858a8403016101048b01526102f2565b926101008101906102c0565b91868403016101248701526102f2565b9061014483015203925af19485156106105787956105dd575b508415610580571685528482528420908154916801000000000000000083101561056c57600183018082558310156105585794839495815220015590565b602486634e487b7160e01b81526032600452fd5b602486634e487b7160e01b81526041600452fd5b6064848451907f08c379a00000000000000000000000000000000000000000000000000000000082526004820152601560248201527f6175746f2d617070726f76652064697361626c656400000000000000000000006044820152fd5b9094508381813d8311610609575b6105f58183610270565b810103126106055751933861051a565b8680fd5b503d6105eb565b83513d89823e3d90fd5b61063090873d891161021d576102118183610270565b50386103d0565b86513d8c823e3d90fd5b8480fdfea2646970667358221220b5d5e549faa0f06e6b4c0d541d8329af501ee63625d5b872cb2297c6dbd1556d64736f6c63430008130033a26469706673582212208bfe1b8a889ab5eafd5702bd9fd2d7a4e06736a0bbd741ba4a4ee4262e83c50a64736f6c63430008130033","opcodes":"PUSH1 0xC0 PUSH1 0x1F PUSH3 0x3B8D CODESIZE DUP2 SWAP1 SUB SWAP2 DUP3 ADD PUSH1 0x1F NOT AND DUP4 ADD SWAP2 PUSH1 0x1 PUSH1 0x1 PUSH1 0x40 SHL SUB DUP4 GT DUP5 DUP5 LT OR PUSH3 0x285 JUMPI DUP1 DUP5 SWAP3 PUSH2 0x180 SWAP5 PUSH1 0x40 MSTORE DUP4 CODECOPY DUP2 ADD SUB SLT PUSH3 0x280 JUMPI PUSH3 0x48 DUP2 PUSH3 0x29B JUMP JUMPDEST PUSH3 0x56 PUSH1 0x20 DUP4 ADD PUSH3 0x29B JUMP JUMPDEST PUSH1 0x40 DUP4 ADD MLOAD SWAP3 PUSH1 0x60 DUP2 ADD MLOAD SWAP4 PUSH1 0x80 DUP3 ADD MLOAD SWAP2 PUSH1 0xA0 DUP2 ADD MLOAD SWAP1 PUSH3 0x7C PUSH1 0xC0 DUP3 ADD PUSH3 0x29B JUMP JUMPDEST SWAP5 PUSH3 0x8B PUSH1 0xE0 DUP4 ADD PUSH3 0x29B JUMP JUMPDEST PUSH3 0x9A PUSH2 0x100 DUP5 ADD PUSH3 0x29B JUMP JUMPDEST SWAP4 PUSH3 0xAA PUSH2 0x120 DUP6 ADD PUSH3 0x29B JUMP JUMPDEST SWAP7 PUSH2 0x140 DUP6 ADD MLOAD SWAP5 PUSH4 0xFFFFFFFF DUP7 AND DUP7 SUB PUSH3 0x280 JUMPI PUSH2 0x160 ADD MLOAD PUSH1 0x1 PUSH1 0x1 PUSH1 0xA0 SHL SUB SWAP10 DUP11 AND PUSH1 0x80 MSTORE SWAP11 DUP11 DUP11 AND ISZERO PUSH3 0x23B JUMPI DUP10 SWAP8 DUP9 SWAP6 DUP7 PUSH1 0x1 DUP1 PUSH1 0xA0 SHL SUB NOT SWAP14 DUP15 DUP3 DUP3 AND SWAP1 PUSH1 0x0 SLOAD AND OR PUSH1 0x0 SSTORE AND DUP14 PUSH1 0x2 SLOAD AND OR PUSH1 0x2 SSTORE PUSH1 0x17 SLOAD SWAP1 PUSH2 0x100 PUSH1 0x1 PUSH1 0xA8 SHL SUB SWAP1 PUSH1 0x8 SHL AND SWAP1 PUSH2 0x100 PUSH1 0x1 PUSH1 0xA8 SHL SUB NOT AND OR PUSH1 0x17 SSTORE PUSH1 0x19 SSTORE PUSH1 0x1A SSTORE PUSH1 0x18 SSTORE PUSH1 0x8 SSTORE AND PUSH1 0xA0 MSTORE PUSH12 0xFFFFFFFF0000000000000000 PUSH1 0x7 SLOAD SWAP2 PUSH1 0x40 SHL AND SWAP1 PUSH12 0xFFFFFFFF0000000000000000 NOT AND OR PUSH1 0x7 SSTORE AND DUP4 PUSH1 0x9 SLOAD AND OR PUSH1 0x9 SSTORE AND SWAP1 PUSH1 0xA SLOAD AND OR PUSH1 0xA SSTORE TIMESTAMP PUSH1 0xF SSTORE PUSH1 0xE SSTORE PUSH1 0x1C SLOAD PUSH1 0x1 SWAP1 DUP2 DUP2 DUP2 SHR SWAP2 AND DUP1 ISZERO PUSH3 0x230 JUMPI JUMPDEST PUSH1 0x20 DUP3 LT EQ PUSH3 0x21A JUMPI PUSH1 0x1F DUP2 GT PUSH3 0x1CE JUMPI JUMPDEST PUSH1 0x0 PUSH1 0x1C SSTORE PUSH1 0x40 MLOAD PUSH2 0x38DC SWAP1 DUP2 PUSH3 0x2B1 DUP3 CODECOPY PUSH1 0x80 MLOAD DUP2 DUP2 DUP2 PUSH2 0x477 ADD MSTORE PUSH2 0xC64 ADD MSTORE PUSH1 0xA0 MLOAD DUP2 PUSH2 0x11B5 ADD MSTORE RETURN JUMPDEST PUSH1 0x1C PUSH1 0x0 MSTORE PUSH1 0x1F ADD PUSH1 0x5 SHR PUSH32 0xE4562A10381DEC21B205ED72637E6B1B523BDD0E4D4D50AF5CD23DD4500A211 SWAP1 DUP2 ADD SWAP1 JUMPDEST DUP2 DUP2 LT PUSH3 0x20E JUMPI POP PUSH3 0x1A0 JUMP JUMPDEST PUSH1 0x0 DUP2 SSTORE DUP3 ADD PUSH3 0x1FF JUMP JUMPDEST PUSH4 0x4E487B71 PUSH1 0xE0 SHL PUSH1 0x0 MSTORE PUSH1 0x22 PUSH1 0x4 MSTORE PUSH1 0x24 PUSH1 0x0 REVERT JUMPDEST SWAP1 PUSH1 0x7F AND SWAP1 PUSH3 0x18C JUMP JUMPDEST PUSH1 0x40 MLOAD PUSH3 0x461BCD PUSH1 0xE5 SHL DUP2 MSTORE PUSH1 0x20 PUSH1 0x4 DUP3 ADD MSTORE PUSH1 0x18 PUSH1 0x24 DUP3 ADD MSTORE PUSH32 0x43616E6E6F7420736574206F776E657220746F207A65726F0000000000000000 PUSH1 0x44 DUP3 ADD MSTORE PUSH1 0x64 SWAP1 REVERT JUMPDEST PUSH1 0x0 DUP1 REVERT JUMPDEST PUSH4 0x4E487B71 PUSH1 0xE0 SHL PUSH1 0x0 MSTORE PUSH1 0x41 PUSH1 0x4 MSTORE PUSH1 0x24 PUSH1 0x0 REVERT JUMPDEST MLOAD SWAP1 PUSH1 0x1 PUSH1 0x1 PUSH1 0xA0 SHL SUB DUP3 AND DUP3 SUB PUSH3 0x280 JUMPI JUMP INVALID PUSH1 0x80 PUSH1 0x40 MSTORE PUSH1 0x4 CALLDATASIZE LT ISZERO PUSH3 0x1D JUMPI JUMPDEST CALLDATASIZE ISZERO PUSH3 0x1B JUMPI PUSH1 0x0 DUP1 REVERT JUMPDEST STOP JUMPDEST PUSH1 0x0 CALLDATALOAD PUSH1 0xE0 SHR DUP1 PUSH4 0x89EA02E EQ PUSH3 0x2DA JUMPI DUP1 PUSH4 0x9C1BA2E EQ PUSH3 0x2D4 JUMPI DUP1 PUSH4 0xCA76175 EQ PUSH3 0x2CE JUMPI DUP1 PUSH4 0x1243BCC3 EQ PUSH3 0x2C8 JUMPI DUP1 PUSH4 0x1AA46F59 EQ PUSH3 0x2C2 JUMPI DUP1 PUSH4 0x24B93E3E EQ PUSH3 0x2BC JUMPI DUP1 PUSH4 0x277E2213 EQ PUSH3 0x2B6 JUMPI DUP1 PUSH4 0x2FC2A7B9 EQ PUSH3 0x2B0 JUMPI DUP1 PUSH4 0x338CDCA1 EQ PUSH3 0x2AA JUMPI DUP1 PUSH4 0x381FC4B5 EQ PUSH3 0x2A4 JUMPI DUP1 PUSH4 0x3944EA3A EQ PUSH3 0x29E JUMPI DUP1 PUSH4 0x3F678E11 EQ PUSH3 0x298 JUMPI DUP1 PUSH4 0x43CD3D86 EQ PUSH3 0x292 JUMPI DUP1 PUSH4 0x4585E33B EQ PUSH3 0x28C JUMPI DUP1 PUSH4 0x48802B92 EQ PUSH3 0x286 JUMPI DUP1 PUSH4 0x48BD6F05 EQ PUSH3 0x280 JUMPI DUP1 PUSH4 0x4B0795A8 EQ PUSH3 0x27A JUMPI DUP1 PUSH4 0x688ECFD1 EQ PUSH3 0x274 JUMPI DUP1 PUSH4 0x6BAA48FE EQ PUSH3 0x26E JUMPI DUP1 PUSH4 0x6E04FF0D EQ PUSH3 0x268 JUMPI DUP1 PUSH4 0x6E74336B EQ PUSH3 0x262 JUMPI DUP1 PUSH4 0x79BA5097 EQ PUSH3 0x25C JUMPI DUP1 PUSH4 0x7B103999 EQ PUSH3 0x256 JUMPI DUP1 PUSH4 0x8B7AFE2E EQ PUSH3 0x250 JUMPI DUP1 PUSH4 0x8D7E6D2D EQ PUSH3 0x24A JUMPI DUP1 PUSH4 0x8DA5CB5B EQ PUSH3 0x244 JUMPI DUP1 PUSH4 0xA3097139 EQ PUSH3 0x23E JUMPI DUP1 PUSH4 0xA3D3C0D2 EQ PUSH3 0x238 JUMPI DUP1 PUSH4 0xB1E21749 EQ PUSH3 0x232 JUMPI DUP1 PUSH4 0xBEF3A2F0 EQ PUSH3 0x22C JUMPI DUP1 PUSH4 0xC5E14688 EQ PUSH3 0x226 JUMPI DUP1 PUSH4 0xD2AA789F EQ PUSH3 0x220 JUMPI DUP1 PUSH4 0xD5F39488 EQ PUSH3 0x21A JUMPI DUP1 PUSH4 0xD6134EAF EQ PUSH3 0x214 JUMPI DUP1 PUSH4 0xD811FCF0 EQ PUSH3 0x20E JUMPI DUP1 PUSH4 0xEBF14A55 EQ PUSH3 0x208 JUMPI DUP1 PUSH4 0xF2FDE38B EQ PUSH3 0x202 JUMPI DUP1 PUSH4 0xFD2C80AE EQ PUSH3 0x1FC JUMPI PUSH4 0xFFFEB84E SUB PUSH3 0xF JUMPI PUSH3 0x19BB JUMP JUMPDEST PUSH3 0x199B JUMP JUMPDEST PUSH3 0x18C2 JUMP JUMPDEST PUSH3 0x1876 JUMP JUMPDEST PUSH3 0x184A JUMP JUMPDEST PUSH3 0x16DA JUMP JUMPDEST PUSH3 0x16B1 JUMP JUMPDEST PUSH3 0x1691 JUMP JUMPDEST PUSH3 0x15E7 JUMP JUMPDEST PUSH3 0x1532 JUMP JUMPDEST PUSH3 0x1512 JUMP JUMPDEST PUSH3 0x14F2 JUMP JUMPDEST PUSH3 0x14D2 JUMP JUMPDEST PUSH3 0x14A9 JUMP JUMPDEST PUSH3 0x122D JUMP JUMPDEST PUSH3 0x11D9 JUMP JUMPDEST PUSH3 0x1193 JUMP JUMPDEST PUSH3 0x10AF JUMP JUMPDEST PUSH3 0x108F JUMP JUMPDEST PUSH3 0x1011 JUMP JUMPDEST PUSH3 0xFE8 JUMP JUMPDEST PUSH3 0xF33 JUMP JUMPDEST PUSH3 0xE7E JUMP JUMPDEST PUSH3 0xE5E JUMP JUMPDEST PUSH3 0xE3E JUMP JUMPDEST PUSH3 0xBC9 JUMP JUMPDEST PUSH3 0xB5A JUMP JUMPDEST PUSH3 0xA24 JUMP JUMPDEST PUSH3 0x96F JUMP JUMPDEST PUSH3 0x94F JUMP JUMPDEST PUSH3 0x85C JUMP JUMPDEST PUSH3 0x833 JUMP JUMPDEST PUSH3 0x7C3 JUMP JUMPDEST PUSH3 0x58B JUMP JUMPDEST PUSH3 0x56B JUMP JUMPDEST PUSH3 0x542 JUMP JUMPDEST PUSH3 0x416 JUMP JUMPDEST PUSH3 0x311 JUMP JUMPDEST PUSH3 0x2F1 JUMP JUMPDEST PUSH1 0x0 SWAP2 SUB SLT PUSH3 0x2EC JUMPI JUMP JUMPDEST PUSH1 0x0 DUP1 REVERT JUMPDEST CALLVALUE PUSH3 0x2EC JUMPI PUSH1 0x0 CALLDATASIZE PUSH1 0x3 NOT ADD SLT PUSH3 0x2EC JUMPI PUSH1 0x20 PUSH1 0xF SLOAD PUSH1 0x40 MLOAD SWAP1 DUP2 MSTORE RETURN JUMPDEST CALLVALUE PUSH3 0x2EC JUMPI PUSH1 0x0 CALLDATASIZE PUSH1 0x3 NOT ADD SLT PUSH3 0x2EC JUMPI PUSH1 0x20 PUSH8 0xFFFFFFFFFFFFFFFF PUSH1 0x7 SLOAD AND PUSH1 0x40 MLOAD SWAP1 DUP2 MSTORE RETURN JUMPDEST PUSH4 0x4E487B71 PUSH1 0xE0 SHL PUSH1 0x0 MSTORE PUSH1 0x41 PUSH1 0x4 MSTORE PUSH1 0x24 PUSH1 0x0 REVERT JUMPDEST PUSH8 0xFFFFFFFFFFFFFFFF DUP2 GT PUSH3 0x366 JUMPI PUSH1 0x40 MSTORE JUMP JUMPDEST PUSH3 0x33B JUMP JUMPDEST PUSH1 0x40 DUP2 ADD SWAP1 DUP2 LT PUSH8 0xFFFFFFFFFFFFFFFF DUP3 GT OR PUSH3 0x366 JUMPI PUSH1 0x40 MSTORE JUMP JUMPDEST SWAP1 PUSH1 0x1F DUP1 NOT SWAP2 ADD AND DUP2 ADD SWAP1 DUP2 LT PUSH8 0xFFFFFFFFFFFFFFFF DUP3 GT OR PUSH3 0x366 JUMPI PUSH1 0x40 MSTORE JUMP JUMPDEST PUSH8 0xFFFFFFFFFFFFFFFF DUP2 GT PUSH3 0x366 JUMPI PUSH1 0x1F ADD PUSH1 0x1F NOT AND PUSH1 0x20 ADD SWAP1 JUMP JUMPDEST DUP2 PUSH1 0x1F DUP3 ADD SLT ISZERO PUSH3 0x2EC JUMPI DUP1 CALLDATALOAD SWAP1 PUSH3 0x3E3 DUP3 PUSH3 0x3AC JUMP JUMPDEST SWAP3 PUSH3 0x3F3 PUSH1 0x40 MLOAD SWAP5 DUP6 PUSH3 0x389 JUMP JUMPDEST DUP3 DUP5 MSTORE PUSH1 0x20 DUP4 DUP4 ADD ADD GT PUSH3 0x2EC JUMPI DUP2 PUSH1 0x0 SWAP3 PUSH1 0x20 DUP1 SWAP4 ADD DUP4 DUP7 ADD CALLDATACOPY DUP4 ADD ADD MSTORE SWAP1 JUMP JUMPDEST CALLVALUE PUSH3 0x2EC JUMPI PUSH1 0x60 CALLDATASIZE PUSH1 0x3 NOT ADD SLT PUSH3 0x2EC JUMPI PUSH1 0x4 CALLDATALOAD PUSH8 0xFFFFFFFFFFFFFFFF PUSH1 0x24 CALLDATALOAD DUP2 DUP2 GT PUSH3 0x2EC JUMPI PUSH3 0x450 SWAP1 CALLDATASIZE SWAP1 PUSH1 0x4 ADD PUSH3 0x3C9 JUMP JUMPDEST SWAP1 PUSH1 0x44 CALLDATALOAD SWAP1 DUP2 GT PUSH3 0x2EC JUMPI PUSH3 0x46C SWAP1 CALLDATASIZE SWAP1 PUSH1 0x4 ADD PUSH3 0x3C9 JUMP JUMPDEST SWAP1 PUSH1 0x1 PUSH1 0x1 PUSH1 0xA0 SHL SUB PUSH32 0x0 AND CALLER SUB PUSH3 0x518 JUMPI PUSH3 0x4DF PUSH32 0x7BAB0EC163B5C132C72B8146AC4D6E067E82ED58F8B131150AA71C9258911562 SWAP2 PUSH3 0x4EE DUP6 SWAP5 PUSH1 0x40 MLOAD SWAP4 DUP5 SWAP4 PUSH1 0x40 DUP6 MSTORE PUSH1 0x40 DUP6 ADD SWAP1 PUSH3 0x76B JUMP JUMPDEST SWAP1 DUP4 DUP3 SUB PUSH1 0x20 DUP6 ADD MSTORE PUSH3 0x76B JUMP JUMPDEST SUB SWAP1 LOG2 PUSH32 0x85E1543BF2F84FE80C6BADBCE3648C8539AD1DF4D2B3D822938CA0538BE727E6 PUSH1 0x0 DUP1 LOG2 STOP JUMPDEST PUSH1 0x4 PUSH1 0x40 MLOAD PUSH32 0xC6829F8300000000000000000000000000000000000000000000000000000000 DUP2 MSTORE REVERT JUMPDEST CALLVALUE PUSH3 0x2EC JUMPI PUSH1 0x0 CALLDATASIZE PUSH1 0x3 NOT ADD SLT PUSH3 0x2EC JUMPI PUSH1 0x20 PUSH1 0x1 PUSH1 0x1 PUSH1 0xA0 SHL SUB PUSH1 0x9 SLOAD AND PUSH1 0x40 MLOAD SWAP1 DUP2 MSTORE RETURN JUMPDEST CALLVALUE PUSH3 0x2EC JUMPI PUSH1 0x0 CALLDATASIZE PUSH1 0x3 NOT ADD SLT PUSH3 0x2EC JUMPI PUSH1 0x20 PUSH1 0x4 SLOAD PUSH1 0x40 MLOAD SWAP1 DUP2 MSTORE RETURN JUMPDEST CALLVALUE PUSH3 0x2EC JUMPI PUSH1 0x0 CALLDATASIZE PUSH1 0x3 NOT ADD SLT PUSH3 0x2EC JUMPI PUSH1 0x20 PUSH1 0x7 SLOAD PUSH4 0xFFFFFFFF PUSH1 0x40 MLOAD SWAP2 PUSH1 0x40 SHR AND DUP2 MSTORE RETURN JUMPDEST SWAP1 PUSH1 0x1 DUP3 DUP2 SHR SWAP3 AND DUP1 ISZERO PUSH3 0x5E6 JUMPI JUMPDEST PUSH1 0x20 DUP4 LT EQ PUSH3 0x5D0 JUMPI JUMP JUMPDEST PUSH4 0x4E487B71 PUSH1 0xE0 SHL PUSH1 0x0 MSTORE PUSH1 0x22 PUSH1 0x4 MSTORE PUSH1 0x24 PUSH1 0x0 REVERT JUMPDEST SWAP2 PUSH1 0x7F AND SWAP2 PUSH3 0x5C4 JUMP JUMPDEST PUSH1 0x40 MLOAD SWAP1 PUSH1 0x0 DUP3 PUSH1 0x1C SLOAD SWAP2 PUSH3 0x607 DUP4 PUSH3 0x5B4 JUMP JUMPDEST DUP1 DUP4 MSTORE SWAP3 PUSH1 0x1 SWAP1 DUP2 DUP2 AND SWAP1 DUP2 ISZERO PUSH3 0x697 JUMPI POP PUSH1 0x1 EQ PUSH3 0x634 JUMPI JUMPDEST POP PUSH3 0x632 SWAP3 POP SUB DUP4 PUSH3 0x389 JUMP JUMPDEST JUMP JUMPDEST PUSH1 0x1C PUSH1 0x0 SWAP1 DUP2 MSTORE SWAP2 POP PUSH32 0xE4562A10381DEC21B205ED72637E6B1B523BDD0E4D4D50AF5CD23DD4500A211 JUMPDEST DUP5 DUP4 LT PUSH3 0x67B JUMPI POP PUSH3 0x632 SWAP4 POP POP DUP2 ADD PUSH1 0x20 ADD CODESIZE PUSH3 0x623 JUMP JUMPDEST DUP2 SWAP4 POP SWAP1 DUP2 PUSH1 0x20 SWAP3 SLOAD DUP4 DUP6 DUP11 ADD ADD MSTORE ADD SWAP2 ADD SWAP1 SWAP2 DUP6 SWAP3 PUSH3 0x65F JUMP JUMPDEST SWAP1 POP PUSH1 0x20 SWAP3 POP PUSH3 0x632 SWAP5 SWAP2 POP PUSH1 0xFF NOT AND DUP3 DUP5 ADD MSTORE ISZERO ISZERO PUSH1 0x5 SHL DUP3 ADD ADD CODESIZE PUSH3 0x623 JUMP JUMPDEST SWAP1 PUSH1 0x40 MLOAD SWAP2 DUP3 PUSH1 0x0 DUP3 SLOAD SWAP3 PUSH3 0x6D1 DUP5 PUSH3 0x5B4 JUMP JUMPDEST SWAP1 DUP2 DUP5 MSTORE PUSH1 0x1 SWAP5 DUP6 DUP2 AND SWAP1 DUP2 PUSH1 0x0 EQ PUSH3 0x746 JUMPI POP PUSH1 0x1 EQ PUSH3 0x6FF JUMPI JUMPDEST POP POP PUSH3 0x632 SWAP3 POP SUB DUP4 PUSH3 0x389 JUMP JUMPDEST SWAP1 SWAP4 SWAP2 POP PUSH1 0x0 MSTORE PUSH1 0x20 SWAP1 DUP2 PUSH1 0x0 KECCAK256 SWAP4 PUSH1 0x0 SWAP2 JUMPDEST DUP2 DUP4 LT PUSH3 0x72D JUMPI POP POP PUSH3 0x632 SWAP4 POP DUP3 ADD ADD CODESIZE DUP1 PUSH3 0x6EF JUMP JUMPDEST DUP6 SLOAD DUP9 DUP5 ADD DUP6 ADD MSTORE SWAP5 DUP6 ADD SWAP5 DUP8 SWAP5 POP SWAP2 DUP4 ADD SWAP2 PUSH3 0x712 JUMP JUMPDEST SWAP2 POP POP PUSH3 0x632 SWAP5 POP PUSH1 0x20 SWAP3 POP PUSH1 0xFF NOT AND DUP3 DUP5 ADD MSTORE ISZERO ISZERO PUSH1 0x5 SHL DUP3 ADD ADD CODESIZE DUP1 PUSH3 0x6EF JUMP JUMPDEST SWAP2 SWAP1 DUP3 MLOAD SWAP3 DUP4 DUP3 MSTORE PUSH1 0x0 JUMPDEST DUP5 DUP2 LT PUSH3 0x798 JUMPI POP POP DUP3 PUSH1 0x0 PUSH1 0x20 DUP1 SWAP5 SWAP6 DUP5 ADD ADD MSTORE PUSH1 0x1F DUP1 NOT SWAP2 ADD AND ADD ADD SWAP1 JUMP JUMPDEST PUSH1 0x20 DUP2 DUP4 ADD DUP2 ADD MLOAD DUP5 DUP4 ADD DUP3 ADD MSTORE ADD PUSH3 0x776 JUMP JUMPDEST SWAP1 PUSH1 0x20 PUSH3 0x7C0 SWAP3 DUP2 DUP2 MSTORE ADD SWAP1 PUSH3 0x76B JUMP JUMPDEST SWAP1 JUMP JUMPDEST CALLVALUE PUSH3 0x2EC JUMPI PUSH1 0x20 CALLDATASIZE PUSH1 0x3 NOT ADD SLT PUSH3 0x2EC JUMPI PUSH1 0x4 CALLDATALOAD PUSH1 0x1B SLOAD DUP2 LT ISZERO PUSH3 0x2EC JUMPI PUSH3 0x81A PUSH3 0x82F SWAP2 PUSH1 0x1B PUSH1 0x0 MSTORE PUSH32 0x3AD8AA4F87544323A9D1E5DD902F40C356527A7955687113DB5F9A85AD579DC1 ADD PUSH3 0x6BB JUMP JUMPDEST PUSH1 0x40 MLOAD SWAP2 DUP3 SWAP2 PUSH1 0x20 DUP4 MSTORE PUSH1 0x20 DUP4 ADD SWAP1 PUSH3 0x76B JUMP JUMPDEST SUB SWAP1 RETURN JUMPDEST CALLVALUE PUSH3 0x2EC JUMPI PUSH1 0x0 CALLDATASIZE PUSH1 0x3 NOT ADD SLT PUSH3 0x2EC JUMPI PUSH1 0x20 PUSH1 0x1 PUSH1 0x1 PUSH1 0xA0 SHL SUB PUSH1 0xB SLOAD AND PUSH1 0x40 MLOAD SWAP1 DUP2 MSTORE RETURN JUMPDEST CALLVALUE PUSH3 0x2EC JUMPI PUSH1 0x0 DUP1 PUSH1 0x3 NOT CALLDATASIZE ADD SLT PUSH3 0x94C JUMPI PUSH1 0x40 MLOAD SWAP1 DUP1 PUSH1 0xD SLOAD PUSH3 0x883 DUP2 PUSH3 0x5B4 JUMP JUMPDEST DUP1 DUP6 MSTORE SWAP2 PUSH1 0x1 SWAP2 DUP1 DUP4 AND SWAP1 DUP2 ISZERO PUSH3 0x91F JUMPI POP PUSH1 0x1 EQ PUSH3 0x8BF JUMPI JUMPDEST PUSH3 0x82F DUP6 PUSH3 0x8B2 DUP2 DUP8 SUB DUP3 PUSH3 0x389 JUMP JUMPDEST PUSH1 0x40 MLOAD SWAP2 DUP3 SWAP2 DUP3 PUSH3 0x7AD JUMP JUMPDEST SWAP3 POP PUSH1 0xD DUP4 MSTORE PUSH32 0xD7B6990105719101DABEB77144F2A3385C8033ACD3AF97E9423A695E81AD1EB5 JUMPDEST DUP3 DUP5 LT PUSH3 0x906 JUMPI POP POP POP DUP2 ADD PUSH1 0x20 ADD PUSH3 0x8B2 DUP3 PUSH3 0x82F PUSH3 0x89F JUMP JUMPDEST DUP1 SLOAD PUSH1 0x20 DUP6 DUP8 ADD DUP2 ADD SWAP2 SWAP1 SWAP2 MSTORE SWAP1 SWAP4 ADD SWAP3 DUP2 ADD PUSH3 0x8E7 JUMP JUMPDEST DUP7 SWAP6 POP PUSH3 0x82F SWAP7 SWAP4 POP PUSH1 0x20 SWAP3 POP PUSH3 0x8B2 SWAP5 SWAP2 POP PUSH1 0xFF NOT AND DUP3 DUP5 ADD MSTORE ISZERO ISZERO PUSH1 0x5 SHL DUP3 ADD ADD SWAP3 SWAP4 PUSH3 0x89F JUMP JUMPDEST DUP1 REVERT JUMPDEST CALLVALUE PUSH3 0x2EC JUMPI PUSH1 0x0 CALLDATASIZE PUSH1 0x3 NOT ADD SLT PUSH3 0x2EC JUMPI PUSH1 0x20 PUSH1 0x11 SLOAD PUSH1 0x40 MLOAD SWAP1 DUP2 MSTORE RETURN JUMPDEST CALLVALUE PUSH3 0x2EC JUMPI PUSH1 0x0 DUP1 PUSH1 0x3 NOT CALLDATASIZE ADD SLT PUSH3 0x94C JUMPI PUSH1 0x40 MLOAD SWAP1 DUP1 PUSH1 0x13 SLOAD PUSH3 0x996 DUP2 PUSH3 0x5B4 JUMP JUMPDEST DUP1 DUP6 MSTORE SWAP2 PUSH1 0x1 SWAP2 DUP1 DUP4 AND SWAP1 DUP2 ISZERO PUSH3 0x91F JUMPI POP PUSH1 0x1 EQ PUSH3 0x9C4 JUMPI PUSH3 0x82F DUP6 PUSH3 0x8B2 DUP2 DUP8 SUB DUP3 PUSH3 0x389 JUMP JUMPDEST SWAP3 POP PUSH1 0x13 DUP4 MSTORE PUSH32 0x66DE8FFDA797E3DE9C05E8FC57B3BF0EC28A930D40B0D285D93C06501CF6A090 JUMPDEST DUP3 DUP5 LT PUSH3 0xA0B JUMPI POP POP POP DUP2 ADD PUSH1 0x20 ADD PUSH3 0x8B2 DUP3 PUSH3 0x82F PUSH3 0x89F JUMP JUMPDEST DUP1 SLOAD PUSH1 0x20 DUP6 DUP8 ADD DUP2 ADD SWAP2 SWAP1 SWAP2 MSTORE SWAP1 SWAP4 ADD SWAP3 DUP2 ADD PUSH3 0x9EC JUMP JUMPDEST CALLVALUE PUSH3 0x2EC JUMPI PUSH1 0x3 NOT PUSH1 0x20 CALLDATASIZE DUP3 ADD SLT PUSH3 0x2EC JUMPI PUSH1 0x4 CALLDATALOAD SWAP1 PUSH8 0xFFFFFFFFFFFFFFFF DUP3 GT PUSH3 0x2EC JUMPI PUSH2 0x140 SWAP1 DUP3 CALLDATASIZE SUB ADD SLT PUSH3 0x2EC JUMPI PUSH1 0x20 PUSH3 0xACF PUSH1 0x0 SWAP3 PUSH3 0xA93 PUSH3 0xA87 PUSH3 0xA87 PUSH1 0x1 PUSH1 0x1 PUSH1 0xA0 SHL SUB PUSH1 0xB SLOAD AND PUSH1 0x1 PUSH1 0x1 PUSH1 0xA0 SHL SUB AND SWAP1 JUMP JUMPDEST PUSH1 0x1 PUSH1 0x1 PUSH1 0xA0 SHL SUB AND SWAP1 JUMP JUMPDEST SWAP1 PUSH1 0x40 MLOAD SWAP5 DUP6 DUP1 SWAP5 DUP2 SWAP4 PUSH32 0x24380AA800000000000000000000000000000000000000000000000000000000 DUP4 MSTORE ADDRESS SWAP1 PUSH1 0x4 ADD PUSH1 0x4 DUP5 ADD PUSH3 0x1BEC JUMP JUMPDEST SUB SWAP3 GAS CALL DUP1 ISZERO PUSH3 0xB54 JUMPI PUSH3 0xAEE SWAP2 PUSH1 0x0 SWAP2 PUSH3 0xB1F JUMPI JUMPDEST POP PUSH1 0xC SSTORE JUMP JUMPDEST PUSH1 0xC SLOAD PUSH1 0x40 MLOAD SWAP1 DUP2 MSTORE PUSH32 0x7623383A750B4166574A1B2DFF61440ED0DFA3708CBE620C58339CCA510D1AF9 SWAP1 PUSH1 0x20 SWAP1 LOG1 STOP JUMPDEST PUSH3 0xB45 SWAP2 POP PUSH1 0x20 RETURNDATASIZE DUP2 GT PUSH3 0xB4C JUMPI JUMPDEST PUSH3 0xB3C DUP2 DUP4 PUSH3 0x389 JUMP JUMPDEST DUP2 ADD SWAP1 PUSH3 0x1B65 JUMP JUMPDEST CODESIZE PUSH3 0xAE8 JUMP JUMPDEST POP RETURNDATASIZE PUSH3 0xB30 JUMP JUMPDEST PUSH3 0x1B59 JUMP JUMPDEST CALLVALUE PUSH3 0x2EC JUMPI PUSH1 0x0 CALLDATASIZE PUSH1 0x3 NOT ADD SLT PUSH3 0x2EC JUMPI PUSH1 0x20 PUSH1 0x16 SLOAD PUSH1 0x40 MLOAD SWAP1 DUP2 MSTORE RETURN JUMPDEST SWAP1 PUSH1 0x20 PUSH1 0x3 NOT DUP4 ADD SLT PUSH3 0x2EC JUMPI PUSH1 0x4 CALLDATALOAD PUSH8 0xFFFFFFFFFFFFFFFF SWAP3 DUP4 DUP3 GT PUSH3 0x2EC JUMPI DUP1 PUSH1 0x23 DUP4 ADD SLT ISZERO PUSH3 0x2EC JUMPI DUP2 PUSH1 0x4 ADD CALLDATALOAD SWAP4 DUP5 GT PUSH3 0x2EC JUMPI PUSH1 0x24 DUP5 DUP4 ADD ADD GT PUSH3 0x2EC JUMPI PUSH1 0x24 ADD SWAP2 SWAP1 JUMP JUMPDEST CALLVALUE PUSH3 0x2EC JUMPI PUSH3 0xBDA CALLDATASIZE PUSH3 0xB7A JUMP JUMPDEST POP POP PUSH3 0xBEB PUSH1 0xC SLOAD ISZERO ISZERO PUSH3 0x1D96 JUMP JUMPDEST PUSH3 0xBF5 TIMESTAMP PUSH1 0xF SSTORE JUMP JUMPDEST PUSH3 0xC0B PUSH3 0xC06 PUSH1 0x10 SLOAD PUSH3 0x1DE2 JUMP JUMPDEST PUSH1 0x10 SSTORE JUMP JUMPDEST PUSH1 0x1A SLOAD PUSH1 0x1B SLOAD LT ISZERO PUSH3 0xDAF JUMPI PUSH3 0xC56 PUSH1 0x20 PUSH1 0x7 SLOAD PUSH1 0xE SLOAD SWAP1 PUSH1 0x40 MLOAD SWAP4 DUP5 SWAP3 DUP4 SWAP3 PUSH4 0x230E93B1 PUSH1 0xE1 SHL DUP5 MSTORE PUSH8 0xFFFFFFFFFFFFFFFF PUSH4 0xFFFFFFFF DUP3 PUSH1 0x40 SHR AND SWAP2 AND PUSH1 0x4 DUP6 ADD PUSH3 0x1FEE JUMP JUMPDEST SUB DUP2 PUSH1 0x0 PUSH1 0x1 PUSH1 0x1 PUSH1 0xA0 SHL SUB PUSH32 0x0 AND GAS CALL PUSH1 0x0 SWAP2 DUP2 PUSH3 0xD8A JUMPI JUMPDEST POP PUSH3 0xD43 JUMPI POP PUSH1 0x1 PUSH3 0xCA3 PUSH3 0x1F25 JUMP JUMPDEST PUSH4 0x8C379A0 EQ PUSH3 0xCEA JUMPI JUMPDEST PUSH3 0xCB6 JUMPI STOP JUMPDEST PUSH32 0x9C4BFA18304482256875C29FABB1A44A5ECD325F214EA17BAB8F31E869FAF4C8 PUSH3 0xCE5 PUSH3 0x8B2 PUSH3 0x1FB9 JUMP JUMPDEST SUB SWAP1 LOG1 STOP JUMPDEST PUSH3 0xCF4 PUSH3 0x1F44 JUMP JUMPDEST DUP1 PUSH3 0xD02 JUMPI JUMPDEST POP PUSH3 0xCAF JUMP JUMPDEST SWAP1 POP PUSH32 0x2BA61E3733E7AC99181C22307780F651EC8FD92FE661A84DFBE711710B2DC36C PUSH3 0xD39 PUSH1 0x0 SWAP3 PUSH1 0x40 MLOAD SWAP2 DUP3 SWAP2 DUP3 PUSH3 0x7AD JUMP JUMPDEST SUB SWAP1 LOG1 CODESIZE PUSH3 0xCFB JUMP JUMPDEST PUSH3 0xD4D DUP2 PUSH1 0x12 SSTORE JUMP JUMPDEST PUSH3 0xD63 PUSH3 0xD5E PUSH1 0x15 SLOAD PUSH3 0x1DE2 JUMP JUMPDEST PUSH1 0x15 SSTORE JUMP JUMPDEST PUSH32 0x1131472297A800FEE664D1D89CFA8F7676FF07189ECC53F80BBB5F4969099DB8 PUSH1 0x0 DUP1 LOG2 STOP JUMPDEST PUSH3 0xDA7 SWAP2 SWAP3 POP PUSH1 0x20 RETURNDATASIZE DUP2 GT PUSH3 0xB4C JUMPI PUSH3 0xB3C DUP2 DUP4 PUSH3 0x389 JUMP JUMPDEST SWAP1 CODESIZE PUSH3 0xC90 JUMP JUMPDEST PUSH3 0xDC2 PUSH1 0x1 PUSH1 0xFF NOT PUSH1 0x17 SLOAD AND OR PUSH1 0x17 SSTORE JUMP JUMPDEST PUSH3 0xE00 PUSH3 0xDD0 PUSH3 0x1E0E JUMP JUMPDEST PUSH3 0xDE5 PUSH3 0xDDE PUSH3 0x5F1 JUMP JUMPDEST DUP3 PUSH3 0x2526 JUMP JUMPDEST PUSH3 0xDFA PUSH3 0xDF3 PUSH3 0x1E59 JUMP JUMPDEST DUP3 PUSH3 0x2568 JUMP JUMPDEST PUSH3 0x22E9 JUMP JUMPDEST PUSH1 0x20 PUSH1 0x7 SLOAD PUSH1 0xE SLOAD SWAP3 PUSH3 0xC56 PUSH1 0x40 MLOAD SWAP5 DUP6 SWAP4 DUP5 SWAP4 PUSH4 0x230E93B1 PUSH1 0xE1 SHL DUP6 MSTORE PUSH8 0xFFFFFFFFFFFFFFFF PUSH4 0xFFFFFFFF DUP4 PUSH1 0x40 SHR AND SWAP3 AND PUSH1 0x4 DUP7 ADD PUSH3 0x1EE3 JUMP JUMPDEST CALLVALUE PUSH3 0x2EC JUMPI PUSH1 0x0 CALLDATASIZE PUSH1 0x3 NOT ADD SLT PUSH3 0x2EC JUMPI PUSH1 0x20 PUSH1 0x15 SLOAD PUSH1 0x40 MLOAD SWAP1 DUP2 MSTORE RETURN JUMPDEST CALLVALUE PUSH3 0x2EC JUMPI PUSH1 0x0 CALLDATASIZE PUSH1 0x3 NOT ADD SLT PUSH3 0x2EC JUMPI PUSH1 0x20 PUSH1 0x18 SLOAD PUSH1 0x40 MLOAD SWAP1 DUP2 MSTORE RETURN JUMPDEST CALLVALUE PUSH3 0x2EC JUMPI PUSH1 0x0 DUP1 PUSH1 0x3 NOT CALLDATASIZE ADD SLT PUSH3 0x94C JUMPI PUSH1 0x40 MLOAD SWAP1 DUP1 PUSH1 0x14 SLOAD PUSH3 0xEA5 DUP2 PUSH3 0x5B4 JUMP JUMPDEST DUP1 DUP6 MSTORE SWAP2 PUSH1 0x1 SWAP2 DUP1 DUP4 AND SWAP1 DUP2 ISZERO PUSH3 0x91F JUMPI POP PUSH1 0x1 EQ PUSH3 0xED3 JUMPI PUSH3 0x82F DUP6 PUSH3 0x8B2 DUP2 DUP8 SUB DUP3 PUSH3 0x389 JUMP JUMPDEST SWAP3 POP PUSH1 0x14 DUP4 MSTORE PUSH32 0xCE6D7B5282BD9A3661AE061FEED1DBDA4E52AB073B1F9285BE6E155D9C38D4EC JUMPDEST DUP3 DUP5 LT PUSH3 0xF1A JUMPI POP POP POP DUP2 ADD PUSH1 0x20 ADD PUSH3 0x8B2 DUP3 PUSH3 0x82F PUSH3 0x89F JUMP JUMPDEST DUP1 SLOAD PUSH1 0x20 DUP6 DUP8 ADD DUP2 ADD SWAP2 SWAP1 SWAP2 MSTORE SWAP1 SWAP4 ADD SWAP3 DUP2 ADD PUSH3 0xEFB JUMP JUMPDEST CALLVALUE PUSH3 0x2EC JUMPI PUSH1 0x0 DUP1 PUSH1 0x3 NOT CALLDATASIZE ADD SLT PUSH3 0x94C JUMPI PUSH1 0x40 MLOAD SWAP1 DUP1 PUSH1 0x3 SLOAD PUSH3 0xF5A DUP2 PUSH3 0x5B4 JUMP JUMPDEST DUP1 DUP6 MSTORE SWAP2 PUSH1 0x1 SWAP2 DUP1 DUP4 AND SWAP1 DUP2 ISZERO PUSH3 0x91F JUMPI POP PUSH1 0x1 EQ PUSH3 0xF88 JUMPI PUSH3 0x82F DUP6 PUSH3 0x8B2 DUP2 DUP8 SUB DUP3 PUSH3 0x389 JUMP JUMPDEST SWAP3 POP PUSH1 0x3 DUP4 MSTORE PUSH32 0xC2575A0E9E593C00F959F8C92F12DB2869C3395A3B0502D05E2516446F71F85B JUMPDEST DUP3 DUP5 LT PUSH3 0xFCF JUMPI POP POP POP DUP2 ADD PUSH1 0x20 ADD PUSH3 0x8B2 DUP3 PUSH3 0x82F PUSH3 0x89F JUMP JUMPDEST DUP1 SLOAD PUSH1 0x20 DUP6 DUP8 ADD DUP2 ADD SWAP2 SWAP1 SWAP2 MSTORE SWAP1 SWAP4 ADD SWAP3 DUP2 ADD PUSH3 0xFB0 JUMP JUMPDEST CALLVALUE PUSH3 0x2EC JUMPI PUSH1 0x0 CALLDATASIZE PUSH1 0x3 NOT ADD SLT PUSH3 0x2EC JUMPI PUSH1 0x20 PUSH1 0x1 PUSH1 0x1 PUSH1 0xA0 SHL SUB PUSH1 0xA SLOAD AND PUSH1 0x40 MLOAD SWAP1 DUP2 MSTORE RETURN JUMPDEST CALLVALUE PUSH3 0x2EC JUMPI PUSH3 0x1022 CALLDATASIZE PUSH3 0xB7A JUMP JUMPDEST POP POP PUSH1 0xF SLOAD TIMESTAMP SUB TIMESTAMP DUP2 GT PUSH3 0x1089 JUMPI PUSH1 0x8 SLOAD LT PUSH1 0x40 MLOAD SWAP1 DUP2 MSTORE PUSH1 0x20 PUSH1 0x40 DUP2 DUP4 ADD MSTORE DUP2 PUSH1 0x60 SWAP2 DUP3 MLOAD SWAP1 DUP2 PUSH1 0x40 DUP5 ADD MSTORE PUSH1 0x0 JUMPDEST DUP3 DUP2 LT PUSH3 0x1073 JUMPI POP POP PUSH1 0x0 DUP3 DUP3 ADD DUP5 ADD MSTORE PUSH1 0x1F ADD PUSH1 0x1F NOT AND DUP2 ADD SUB ADD SWAP1 RETURN JUMPDEST PUSH1 0x80 DUP2 ADD MLOAD DUP7 DUP3 ADD DUP7 ADD MSTORE DUP6 SWAP4 POP DUP2 ADD PUSH3 0x1053 JUMP JUMPDEST PUSH3 0x1D70 JUMP JUMPDEST CALLVALUE PUSH3 0x2EC JUMPI PUSH1 0x0 CALLDATASIZE PUSH1 0x3 NOT ADD SLT PUSH3 0x2EC JUMPI PUSH1 0x20 PUSH1 0xE SLOAD PUSH1 0x40 MLOAD SWAP1 DUP2 MSTORE RETURN JUMPDEST CALLVALUE PUSH3 0x2EC JUMPI PUSH1 0x0 DUP1 PUSH1 0x3 NOT CALLDATASIZE ADD SLT PUSH3 0x94C JUMPI PUSH1 0x1 PUSH1 0x1 PUSH1 0xA0 SHL SUB DUP1 PUSH1 0x1 SLOAD AND CALLER SUB PUSH3 0x114F JUMPI DUP2 SLOAD PUSH1 0x1 PUSH1 0x1 PUSH1 0xA0 SHL SUB AND PUSH1 0x0 DUP1 SLOAD PUSH20 0xFFFFFFFFFFFFFFFFFFFFFFFFFFFFFFFFFFFFFFFF NOT AND CALLER OR SWAP1 SSTORE SWAP1 PUSH3 0x1125 PUSH20 0xFFFFFFFFFFFFFFFFFFFFFFFFFFFFFFFFFFFFFFFF NOT PUSH1 0x1 SLOAD AND PUSH1 0x1 SSTORE JUMP JUMPDEST CALLER SWAP2 AND PUSH32 0x8BE0079C531659141344CD1FD0A4F28419497F9722A3DAAFE3B4186F6B6457E0 DUP4 DUP1 LOG3 DUP1 RETURN JUMPDEST PUSH1 0x64 PUSH1 0x40 MLOAD PUSH3 0x461BCD PUSH1 0xE5 SHL DUP2 MSTORE PUSH1 0x20 PUSH1 0x4 DUP3 ADD MSTORE PUSH1 0x16 PUSH1 0x24 DUP3 ADD MSTORE PUSH32 0x4D7573742062652070726F706F736564206F776E657200000000000000000000 PUSH1 0x44 DUP3 ADD MSTORE REVERT JUMPDEST CALLVALUE PUSH3 0x2EC JUMPI PUSH1 0x0 CALLDATASIZE PUSH1 0x3 NOT ADD SLT PUSH3 0x2EC JUMPI PUSH1 0x20 PUSH1 0x40 MLOAD PUSH1 0x1 PUSH1 0x1 PUSH1 0xA0 SHL SUB PUSH32 0x0 AND DUP2 MSTORE RETURN JUMPDEST CALLVALUE PUSH3 0x2EC JUMPI PUSH1 0x0 CALLDATASIZE PUSH1 0x3 NOT ADD SLT PUSH3 0x2EC JUMPI PUSH1 0x20 SELFBALANCE PUSH1 0x40 MLOAD SWAP1 DUP2 MSTORE RETURN JUMPDEST PUSH1 0x4 CALLDATALOAD SWAP1 PUSH12 0xFFFFFFFFFFFFFFFFFFFFFFFF DUP3 AND DUP3 SUB PUSH3 0x2EC JUMPI JUMP JUMPDEST CALLDATALOAD SWAP1 PUSH12 0xFFFFFFFFFFFFFFFFFFFFFFFF DUP3 AND DUP3 SUB PUSH3 0x2EC JUMPI JUMP JUMPDEST CALLVALUE PUSH3 0x2EC JUMPI PUSH1 0x20 CALLDATASIZE PUSH1 0x3 NOT ADD SLT PUSH3 0x2EC JUMPI PUSH3 0x124A PUSH3 0x11F7 JUMP JUMPDEST PUSH1 0x9 SLOAD PUSH1 0x1 PUSH1 0x1 PUSH1 0xA0 SHL SUB AND SWAP1 PUSH3 0x126A PUSH1 0xA SLOAD PUSH1 0x1 PUSH1 0x1 PUSH1 0xA0 SHL SUB AND SWAP1 JUMP JUMPDEST SWAP2 PUSH1 0x40 MLOAD SWAP3 PUSH2 0x765 DUP1 DUP6 ADD SWAP2 DUP6 DUP4 LT PUSH8 0xFFFFFFFFFFFFFFFF DUP5 GT OR PUSH3 0x366 JUMPI DUP6 SWAP4 PUSH3 0x12C8 SWAP4 DUP7 SWAP4 PUSH3 0x3142 DUP8 CODECOPY PUSH1 0x1 PUSH1 0x1 PUSH1 0xA0 SHL SUB SWAP2 DUP3 AND DUP2 MSTORE SWAP2 AND PUSH1 0x20 DUP3 ADD MSTORE PUSH12 0xFFFFFFFFFFFFFFFFFFFFFFFF SWAP1 SWAP2 AND PUSH1 0x40 DUP3 ADD MSTORE PUSH1 0x60 ADD SWAP1 JUMP JUMPDEST SUB PUSH1 0x0 SWAP3 DUP4 CREATE DUP1 ISZERO PUSH3 0xB54 JUMPI PUSH3 0x137D SWAP2 PUSH3 0x130A PUSH1 0x20 SWAP3 PUSH1 0x1 PUSH1 0x1 PUSH1 0xA0 SHL SUB AND PUSH20 0xFFFFFFFFFFFFFFFFFFFFFFFFFFFFFFFFFFFFFFFF NOT PUSH1 0xB SLOAD AND OR PUSH1 0xB SSTORE JUMP JUMPDEST PUSH3 0x1325 PUSH3 0xA87 PUSH3 0xA87 PUSH1 0x9 SLOAD PUSH1 0x1 PUSH1 0x1 PUSH1 0xA0 SHL SUB AND SWAP1 JUMP JUMPDEST PUSH3 0x133C PUSH3 0xA87 PUSH1 0xB SLOAD PUSH1 0x1 PUSH1 0x1 PUSH1 0xA0 SHL SUB AND SWAP1 JUMP JUMPDEST DUP6 PUSH1 0x40 MLOAD DUP1 SWAP7 DUP2 SWAP6 DUP3 SWAP5 PUSH4 0x95EA7B3 PUSH1 0xE0 SHL DUP5 MSTORE PUSH1 0x4 DUP5 ADD SWAP1 SWAP3 SWAP2 PUSH12 0xFFFFFFFFFFFFFFFFFFFFFFFF PUSH1 0x20 SWAP2 PUSH1 0x1 PUSH1 0x1 PUSH1 0xA0 SHL SUB PUSH1 0x40 DUP6 ADD SWAP7 AND DUP5 MSTORE AND SWAP2 ADD MSTORE JUMP JUMPDEST SUB SWAP3 GAS CALL DUP1 ISZERO PUSH3 0xB54 JUMPI PUSH3 0x1474 JUMPI JUMPDEST POP PUSH3 0x13A6 PUSH3 0xA87 PUSH1 0xB SLOAD PUSH1 0x1 PUSH1 0x1 PUSH1 0xA0 SHL SUB AND SWAP1 JUMP JUMPDEST DUP1 EXTCODESIZE ISZERO PUSH3 0x1470 JUMPI PUSH1 0x40 MLOAD PUSH32 0x2302440800000000000000000000000000000000000000000000000000000000 DUP2 MSTORE ADDRESS PUSH1 0x4 DUP3 ADD MSTORE SWAP1 DUP3 SWAP1 DUP3 SWAP1 PUSH1 0x24 SWAP1 DUP3 SWAP1 DUP5 SWAP1 GAS CALL DUP1 ISZERO PUSH3 0xB54 JUMPI PUSH3 0x1452 JUMPI JUMPDEST POP PUSH32 0x3583C1105FD29A46B4D92CEEAFF8BE03CBA58A11CCE44A3B7DA77BBC3798EDC4 PUSH3 0x144C PUSH3 0x1432 PUSH3 0xA87 PUSH1 0xB SLOAD PUSH1 0x1 PUSH1 0x1 PUSH1 0xA0 SHL SUB AND SWAP1 JUMP JUMPDEST PUSH1 0x40 MLOAD PUSH1 0x1 PUSH1 0x1 PUSH1 0xA0 SHL SUB SWAP1 SWAP2 AND DUP2 MSTORE SWAP1 DUP2 SWAP1 PUSH1 0x20 DUP3 ADD SWAP1 JUMP JUMPDEST SUB SWAP1 LOG1 DUP1 RETURN JUMPDEST DUP1 PUSH3 0x1462 PUSH3 0x1469 SWAP3 PUSH3 0x351 JUMP JUMPDEST DUP1 PUSH3 0x2E0 JUMP JUMPDEST CODESIZE PUSH3 0x13F5 JUMP JUMPDEST POP DUP1 REVERT JUMPDEST PUSH3 0x1499 SWAP1 PUSH1 0x20 RETURNDATASIZE DUP2 GT PUSH3 0x14A1 JUMPI JUMPDEST PUSH3 0x1490 DUP2 DUP4 PUSH3 0x389 JUMP JUMPDEST DUP2 ADD SWAP1 PUSH3 0x1B3F JUMP JUMPDEST POP CODESIZE PUSH3 0x138E JUMP JUMPDEST POP RETURNDATASIZE PUSH3 0x1484 JUMP JUMPDEST CALLVALUE PUSH3 0x2EC JUMPI PUSH1 0x0 CALLDATASIZE PUSH1 0x3 NOT ADD SLT PUSH3 0x2EC JUMPI PUSH1 0x20 PUSH1 0x1 PUSH1 0x1 PUSH1 0xA0 SHL SUB PUSH1 0x0 SLOAD AND PUSH1 0x40 MLOAD SWAP1 DUP2 MSTORE RETURN JUMPDEST CALLVALUE PUSH3 0x2EC JUMPI PUSH1 0x0 CALLDATASIZE PUSH1 0x3 NOT ADD SLT PUSH3 0x2EC JUMPI PUSH1 0x20 PUSH1 0x19 SLOAD PUSH1 0x40 MLOAD SWAP1 DUP2 MSTORE RETURN JUMPDEST CALLVALUE PUSH3 0x2EC JUMPI PUSH1 0x0 CALLDATASIZE PUSH1 0x3 NOT ADD SLT PUSH3 0x2EC JUMPI PUSH1 0x20 PUSH1 0x10 SLOAD PUSH1 0x40 MLOAD SWAP1 DUP2 MSTORE RETURN JUMPDEST CALLVALUE PUSH3 0x2EC JUMPI PUSH1 0x0 CALLDATASIZE PUSH1 0x3 NOT ADD SLT PUSH3 0x2EC JUMPI PUSH1 0x20 PUSH1 0x12 SLOAD PUSH1 0x40 MLOAD SWAP1 DUP2 MSTORE RETURN JUMPDEST CALLVALUE PUSH3 0x2EC JUMPI PUSH1 0x0 DUP1 PUSH1 0x3 NOT CALLDATASIZE ADD SLT PUSH3 0x94C JUMPI PUSH1 0x40 MLOAD SWAP1 DUP1 PUSH1 0x5 SLOAD PUSH3 0x1559 DUP2 PUSH3 0x5B4 JUMP JUMPDEST DUP1 DUP6 MSTORE SWAP2 PUSH1 0x1 SWAP2 DUP1 DUP4 AND SWAP1 DUP2 ISZERO PUSH3 0x91F JUMPI POP PUSH1 0x1 EQ PUSH3 0x1587 JUMPI PUSH3 0x82F DUP6 PUSH3 0x8B2 DUP2 DUP8 SUB DUP3 PUSH3 0x389 JUMP JUMPDEST SWAP3 POP PUSH1 0x5 DUP4 MSTORE PUSH32 0x36B6384B5ECA791C62761152D0C79BB0604C104A5FB6F4EB0703F3154BB3DB0 JUMPDEST DUP3 DUP5 LT PUSH3 0x15CE JUMPI POP POP POP DUP2 ADD PUSH1 0x20 ADD PUSH3 0x8B2 DUP3 PUSH3 0x82F PUSH3 0x89F JUMP JUMPDEST DUP1 SLOAD PUSH1 0x20 DUP6 DUP8 ADD DUP2 ADD SWAP2 SWAP1 SWAP2 MSTORE SWAP1 SWAP4 ADD SWAP3 DUP2 ADD PUSH3 0x15AF JUMP JUMPDEST CALLVALUE PUSH3 0x2EC JUMPI PUSH1 0x20 CALLDATASIZE PUSH1 0x3 NOT ADD SLT PUSH3 0x2EC JUMPI PUSH1 0x0 PUSH1 0x20 PUSH3 0x1664 PUSH3 0x160C PUSH3 0x11F7 JUMP JUMPDEST PUSH3 0x1616 PUSH3 0x1A70 JUMP JUMPDEST PUSH1 0x1 PUSH1 0x1 PUSH1 0xA0 SHL SUB PUSH1 0x9 SLOAD AND SWAP1 PUSH1 0x40 MLOAD SWAP5 DUP6 DUP1 SWAP5 DUP2 SWAP4 PUSH4 0x95EA7B3 PUSH1 0xE0 SHL DUP4 MSTORE CALLER PUSH1 0x4 DUP5 ADD SWAP1 SWAP3 SWAP2 PUSH12 0xFFFFFFFFFFFFFFFFFFFFFFFF PUSH1 0x20 SWAP2 PUSH1 0x1 PUSH1 0x1 PUSH1 0xA0 SHL SUB PUSH1 0x40 DUP6 ADD SWAP7 AND DUP5 MSTORE AND SWAP2 ADD MSTORE JUMP JUMPDEST SUB SWAP3 GAS CALL DUP1 ISZERO PUSH3 0xB54 JUMPI PUSH3 0x1676 JUMPI STOP JUMPDEST PUSH3 0x1B SWAP1 PUSH1 0x20 RETURNDATASIZE DUP2 GT PUSH3 0x14A1 JUMPI PUSH3 0x1490 DUP2 DUP4 PUSH3 0x389 JUMP JUMPDEST CALLVALUE PUSH3 0x2EC JUMPI PUSH1 0x0 CALLDATASIZE PUSH1 0x3 NOT ADD SLT PUSH3 0x2EC JUMPI PUSH1 0x20 PUSH1 0xC SLOAD PUSH1 0x40 MLOAD SWAP1 DUP2 MSTORE RETURN JUMPDEST CALLVALUE PUSH3 0x2EC JUMPI PUSH1 0x0 CALLDATASIZE PUSH1 0x3 NOT ADD SLT PUSH3 0x2EC JUMPI PUSH1 0x20 PUSH1 0x1 PUSH1 0x1 PUSH1 0xA0 SHL SUB PUSH1 0x2 SLOAD AND PUSH1 0x40 MLOAD SWAP1 DUP2 MSTORE RETURN JUMPDEST CALLVALUE PUSH3 0x2EC JUMPI PUSH1 0x40 CALLDATASIZE PUSH1 0x3 NOT ADD SLT PUSH3 0x2EC JUMPI PUSH8 0xFFFFFFFFFFFFFFFF PUSH1 0x4 CALLDATALOAD DUP2 DUP2 GT PUSH3 0x2EC JUMPI PUSH3 0x1711 SWAP1 CALLDATASIZE SWAP1 PUSH1 0x4 ADD PUSH3 0x3C9 JUMP JUMPDEST SWAP1 PUSH1 0x24 CALLDATALOAD SWAP1 DUP1 DUP3 AND DUP3 SUB PUSH3 0x2EC JUMPI DUP3 MLOAD SWAP1 DUP2 GT PUSH3 0x366 JUMPI PUSH3 0x1742 DUP2 PUSH3 0x173C PUSH1 0x3 SLOAD PUSH3 0x5B4 JUMP JUMPDEST PUSH3 0x1AC9 JUMP JUMPDEST PUSH1 0x20 DUP1 PUSH1 0x1F DUP4 GT PUSH1 0x1 EQ PUSH3 0x17A1 JUMPI POP DUP2 SWAP1 PUSH3 0x1B SWAP5 PUSH1 0x0 SWAP3 PUSH3 0x1795 JUMPI JUMPDEST POP POP DUP2 PUSH1 0x1 SHL SWAP2 PUSH1 0x0 NOT SWAP1 PUSH1 0x3 SHL SHR NOT AND OR PUSH1 0x3 SSTORE PUSH8 0xFFFFFFFFFFFFFFFF AND PUSH8 0xFFFFFFFFFFFFFFFF NOT PUSH1 0x7 SLOAD AND OR PUSH1 0x7 SSTORE JUMP JUMPDEST ADD MLOAD SWAP1 POP CODESIZE DUP1 PUSH3 0x1762 JUMP JUMPDEST PUSH1 0x3 PUSH1 0x0 MSTORE SWAP2 SWAP4 PUSH1 0x1F NOT DUP6 AND PUSH32 0xC2575A0E9E593C00F959F8C92F12DB2869C3395A3B0502D05E2516446F71F85B SWAP4 PUSH1 0x0 SWAP1 JUMPDEST DUP3 DUP3 LT PUSH3 0x1831 JUMPI POP POP SWAP2 PUSH1 0x1 SWAP4 SWAP2 DUP7 PUSH3 0x1B SWAP8 SWAP5 LT PUSH3 0x1817 JUMPI JUMPDEST POP POP POP DUP2 SHL ADD PUSH1 0x3 SSTORE PUSH8 0xFFFFFFFFFFFFFFFF AND PUSH8 0xFFFFFFFFFFFFFFFF NOT PUSH1 0x7 SLOAD AND OR PUSH1 0x7 SSTORE JUMP JUMPDEST ADD MLOAD PUSH1 0x0 NOT PUSH1 0xF8 DUP5 PUSH1 0x3 SHL AND SHR NOT AND SWAP1 SSTORE CODESIZE DUP1 DUP1 PUSH3 0x17F0 JUMP JUMPDEST DUP1 PUSH1 0x1 DUP7 SWAP8 DUP3 SWAP5 SWAP8 DUP8 ADD MLOAD DUP2 SSTORE ADD SWAP7 ADD SWAP5 ADD SWAP1 PUSH3 0x17D3 JUMP JUMPDEST CALLVALUE PUSH3 0x2EC JUMPI PUSH1 0x0 CALLDATASIZE PUSH1 0x3 NOT ADD SLT PUSH3 0x2EC JUMPI PUSH1 0x20 PUSH1 0x1 PUSH1 0x1 PUSH1 0xA0 SHL SUB PUSH1 0x17 SLOAD PUSH1 0x8 SHR AND PUSH1 0x40 MLOAD SWAP1 DUP2 MSTORE RETURN JUMPDEST CALLVALUE PUSH3 0x2EC JUMPI PUSH1 0x0 CALLDATASIZE PUSH1 0x3 NOT ADD SLT PUSH3 0x2EC JUMPI PUSH1 0x20 PUSH1 0x1A SLOAD PUSH1 0x40 MLOAD SWAP1 DUP2 MSTORE RETURN JUMPDEST PUSH1 0x4 CALLDATALOAD SWAP1 PUSH1 0x1 PUSH1 0x1 PUSH1 0xA0 SHL SUB DUP3 AND DUP3 SUB PUSH3 0x2EC JUMPI JUMP JUMPDEST CALLDATALOAD SWAP1 PUSH1 0x1 PUSH1 0x1 PUSH1 0xA0 SHL SUB DUP3 AND DUP3 SUB PUSH3 0x2EC JUMPI JUMP JUMPDEST CALLVALUE PUSH3 0x2EC JUMPI PUSH1 0x20 CALLDATASIZE PUSH1 0x3 NOT ADD SLT PUSH3 0x2EC JUMPI PUSH1 0x1 PUSH1 0x1 PUSH1 0xA0 SHL SUB PUSH3 0x18E7 PUSH3 0x1896 JUMP JUMPDEST PUSH3 0x18F1 PUSH3 0x1A70 JUMP JUMPDEST AND CALLER DUP2 EQ PUSH3 0x1957 JUMPI DUP1 PUSH20 0xFFFFFFFFFFFFFFFFFFFFFFFFFFFFFFFFFFFFFFFF NOT PUSH1 0x1 SLOAD AND OR PUSH1 0x1 SSTORE PUSH3 0x1930 PUSH3 0xA87 PUSH1 0x0 SLOAD PUSH1 0x1 PUSH1 0x1 PUSH1 0xA0 SHL SUB AND SWAP1 JUMP JUMPDEST PUSH32 0xED8889F560326EB138920D842192F0EB3DD22B4F139C87A2C57538E05BAE1278 PUSH1 0x0 DUP1 LOG3 STOP JUMPDEST PUSH1 0x64 PUSH1 0x40 MLOAD PUSH3 0x461BCD PUSH1 0xE5 SHL DUP2 MSTORE PUSH1 0x20 PUSH1 0x4 DUP3 ADD MSTORE PUSH1 0x17 PUSH1 0x24 DUP3 ADD MSTORE PUSH32 0x43616E6E6F74207472616E7366657220746F2073656C66000000000000000000 PUSH1 0x44 DUP3 ADD MSTORE REVERT JUMPDEST CALLVALUE PUSH3 0x2EC JUMPI PUSH1 0x0 CALLDATASIZE PUSH1 0x3 NOT ADD SLT PUSH3 0x2EC JUMPI PUSH1 0x20 PUSH1 0x8 SLOAD PUSH1 0x40 MLOAD SWAP1 DUP2 MSTORE RETURN JUMPDEST CALLVALUE PUSH3 0x2EC JUMPI PUSH1 0x0 DUP1 PUSH1 0x3 NOT CALLDATASIZE ADD SLT PUSH3 0x94C JUMPI PUSH1 0x40 MLOAD SWAP1 DUP1 PUSH1 0x6 SLOAD PUSH3 0x19E2 DUP2 PUSH3 0x5B4 JUMP JUMPDEST DUP1 DUP6 MSTORE SWAP2 PUSH1 0x1 SWAP2 DUP1 DUP4 AND SWAP1 DUP2 ISZERO PUSH3 0x91F JUMPI POP PUSH1 0x1 EQ PUSH3 0x1A10 JUMPI PUSH3 0x82F DUP6 PUSH3 0x8B2 DUP2 DUP8 SUB DUP3 PUSH3 0x389 JUMP JUMPDEST SWAP3 POP PUSH1 0x6 DUP4 MSTORE PUSH32 0xF652222313E28459528D920B65115C16C04F3EFC82AAEDC97BE59F3F377C0D3F JUMPDEST DUP3 DUP5 LT PUSH3 0x1A57 JUMPI POP POP POP DUP2 ADD PUSH1 0x20 ADD PUSH3 0x8B2 DUP3 PUSH3 0x82F PUSH3 0x89F JUMP JUMPDEST DUP1 SLOAD PUSH1 0x20 DUP6 DUP8 ADD DUP2 ADD SWAP2 SWAP1 SWAP2 MSTORE SWAP1 SWAP4 ADD SWAP3 DUP2 ADD PUSH3 0x1A38 JUMP JUMPDEST PUSH1 0x1 PUSH1 0x1 PUSH1 0xA0 SHL SUB PUSH1 0x0 SLOAD AND CALLER SUB PUSH3 0x1A85 JUMPI JUMP JUMPDEST PUSH1 0x64 PUSH1 0x40 MLOAD PUSH3 0x461BCD PUSH1 0xE5 SHL DUP2 MSTORE PUSH1 0x20 PUSH1 0x4 DUP3 ADD MSTORE PUSH1 0x16 PUSH1 0x24 DUP3 ADD MSTORE PUSH32 0x4F6E6C792063616C6C61626C65206279206F776E657200000000000000000000 PUSH1 0x44 DUP3 ADD MSTORE REVERT JUMPDEST PUSH1 0x1F DUP2 GT PUSH3 0x1AD6 JUMPI POP POP JUMP JUMPDEST PUSH1 0x0 SWAP1 PUSH1 0x3 DUP3 MSTORE PUSH32 0xC2575A0E9E593C00F959F8C92F12DB2869C3395A3B0502D05E2516446F71F85B SWAP1 PUSH1 0x20 PUSH1 0x1F DUP6 ADD PUSH1 0x5 SHR DUP4 ADD SWAP5 LT PUSH3 0x1B34 JUMPI JUMPDEST PUSH1 0x1F ADD PUSH1 0x5 SHR ADD SWAP2 JUMPDEST DUP3 DUP2 LT PUSH3 0x1B28 JUMPI POP POP POP JUMP JUMPDEST DUP2 DUP2 SSTORE PUSH1 0x1 ADD PUSH3 0x1B1B JUMP JUMPDEST SWAP1 SWAP3 POP DUP3 SWAP1 PUSH3 0x1B12 JUMP JUMPDEST SWAP1 DUP2 PUSH1 0x20 SWAP2 SUB SLT PUSH3 0x2EC JUMPI MLOAD DUP1 ISZERO ISZERO DUP2 SUB PUSH3 0x2EC JUMPI SWAP1 JUMP JUMPDEST PUSH1 0x40 MLOAD RETURNDATASIZE PUSH1 0x0 DUP3 RETURNDATACOPY RETURNDATASIZE SWAP1 REVERT JUMPDEST SWAP1 DUP2 PUSH1 0x20 SWAP2 SUB SLT PUSH3 0x2EC JUMPI MLOAD SWAP1 JUMP JUMPDEST SWAP1 CALLDATALOAD PUSH1 0x1E NOT DUP3 CALLDATASIZE SUB ADD DUP2 SLT ISZERO PUSH3 0x2EC JUMPI ADD PUSH1 0x20 DUP2 CALLDATALOAD SWAP2 ADD SWAP2 PUSH8 0xFFFFFFFFFFFFFFFF DUP3 GT PUSH3 0x2EC JUMPI DUP2 CALLDATASIZE SUB DUP4 SGT PUSH3 0x2EC JUMPI JUMP JUMPDEST SWAP1 DUP1 PUSH1 0x20 SWAP4 SWAP3 DUP2 DUP5 MSTORE DUP5 DUP5 ADD CALLDATACOPY PUSH1 0x0 DUP3 DUP3 ADD DUP5 ADD MSTORE PUSH1 0x1F ADD PUSH1 0x1F NOT AND ADD ADD SWAP1 JUMP JUMPDEST CALLDATALOAD SWAP1 PUSH4 0xFFFFFFFF DUP3 AND DUP3 SUB PUSH3 0x2EC JUMPI JUMP JUMPDEST CALLDATALOAD SWAP1 PUSH1 0xFF DUP3 AND DUP3 SUB PUSH3 0x2EC JUMPI JUMP JUMPDEST SWAP3 SWAP2 PUSH1 0x20 PUSH3 0x632 SWAP3 PUSH1 0x40 DUP7 MSTORE PUSH3 0x1D60 PUSH3 0x1D4A PUSH3 0x1C2E PUSH3 0x1D42 DUP10 PUSH3 0x1C16 DUP7 DUP1 PUSH3 0x1B75 JUMP JUMPDEST SWAP4 SWAP1 PUSH2 0x140 SWAP5 DUP6 PUSH1 0x40 DUP6 ADD MSTORE PUSH2 0x180 DUP5 ADD SWAP2 PUSH3 0x1BAA JUMP JUMPDEST SWAP3 PUSH3 0x1CFB PUSH3 0x1C5A PUSH3 0x1C45 DUP11 DUP11 ADD DUP11 PUSH3 0x1B75 JUMP JUMPDEST PUSH1 0x3F NOT DUP7 DUP10 SUB DUP2 ADD PUSH1 0x60 DUP9 ADD MSTORE SWAP8 SWAP2 PUSH3 0x1BAA JUMP JUMPDEST PUSH3 0x1C7C PUSH3 0x1C6C PUSH1 0x40 DUP12 ADD PUSH3 0x18AD JUMP JUMPDEST PUSH1 0x1 PUSH1 0x1 PUSH1 0xA0 SHL SUB AND PUSH1 0x80 DUP7 ADD MSTORE JUMP JUMPDEST PUSH3 0x1C9B PUSH3 0x1C8E PUSH1 0x60 DUP12 ADD PUSH3 0x1BCB JUMP JUMPDEST PUSH4 0xFFFFFFFF AND PUSH1 0xA0 DUP7 ADD MSTORE JUMP JUMPDEST PUSH3 0x1CBD PUSH3 0x1CAD PUSH1 0x80 DUP12 ADD PUSH3 0x18AD JUMP JUMPDEST PUSH1 0x1 PUSH1 0x1 PUSH1 0xA0 SHL SUB AND PUSH1 0xC0 DUP7 ADD MSTORE JUMP JUMPDEST PUSH3 0x1CD9 PUSH3 0x1CCF PUSH1 0xA0 DUP12 ADD PUSH3 0x1BDD JUMP JUMPDEST PUSH1 0xFF AND PUSH1 0xE0 DUP7 ADD MSTORE JUMP JUMPDEST PUSH3 0x1CE8 PUSH1 0xC0 DUP11 ADD DUP11 PUSH3 0x1B75 JUMP JUMPDEST DUP6 DUP4 SUB DUP9 ADD PUSH2 0x100 SWAP7 DUP8 ADD MSTORE SWAP1 PUSH3 0x1BAA JUMP JUMPDEST SWAP4 DUP13 PUSH3 0x1D32 PUSH3 0x1D28 PUSH3 0x1D14 PUSH1 0xE0 DUP13 ADD DUP13 PUSH3 0x1B75 JUMP JUMPDEST PUSH2 0x120 SWAP10 SWAP2 DUP7 DUP7 DUP5 SUB ADD DUP12 DUP8 ADD MSTORE PUSH3 0x1BAA JUMP JUMPDEST SWAP5 DUP11 ADD DUP11 PUSH3 0x1B75 JUMP JUMPDEST SWAP4 SWAP1 SWAP3 DUP3 DUP7 SUB ADD SWAP2 ADD MSTORE PUSH3 0x1BAA JUMP JUMPDEST SWAP4 ADD PUSH3 0x1213 JUMP JUMPDEST PUSH12 0xFFFFFFFFFFFFFFFFFFFFFFFF AND PUSH2 0x160 DUP9 ADD MSTORE JUMP JUMPDEST SWAP5 ADD SWAP1 PUSH1 0x1 PUSH1 0x1 PUSH1 0xA0 SHL SUB AND SWAP1 MSTORE JUMP JUMPDEST PUSH4 0x4E487B71 PUSH1 0xE0 SHL PUSH1 0x0 MSTORE PUSH1 0x11 PUSH1 0x4 MSTORE PUSH1 0x24 PUSH1 0x0 REVERT JUMPDEST PUSH1 0x1F NOT DUP2 ADD SWAP2 SWAP1 DUP3 GT PUSH3 0x1089 JUMPI JUMP JUMPDEST ISZERO PUSH3 0x1D9E JUMPI JUMP JUMPDEST PUSH1 0x64 PUSH1 0x40 MLOAD PUSH3 0x461BCD PUSH1 0xE5 SHL DUP2 MSTORE PUSH1 0x20 PUSH1 0x4 DUP3 ADD MSTORE PUSH1 0x15 PUSH1 0x24 DUP3 ADD MSTORE PUSH32 0x55706B656570206E6F7420726567697374657265640000000000000000000000 PUSH1 0x44 DUP3 ADD MSTORE REVERT JUMPDEST SWAP1 PUSH1 0x1 DUP3 ADD DUP1 SWAP3 GT PUSH3 0x1089 JUMPI JUMP JUMPDEST SWAP1 PUSH1 0x20 DUP3 ADD DUP1 SWAP3 GT PUSH3 0x1089 JUMPI JUMP JUMPDEST SWAP2 SWAP1 DUP3 ADD DUP1 SWAP3 GT PUSH3 0x1089 JUMPI JUMP JUMPDEST PUSH1 0x40 MLOAD SWAP1 PUSH1 0xE0 DUP3 ADD DUP3 DUP2 LT PUSH8 0xFFFFFFFFFFFFFFFF DUP3 GT OR PUSH3 0x366 JUMPI PUSH1 0x40 MSTORE PUSH1 0x60 PUSH1 0xC0 DUP4 PUSH1 0x0 DUP2 MSTORE PUSH1 0x0 PUSH1 0x20 DUP3 ADD MSTORE PUSH1 0x0 PUSH1 0x40 DUP3 ADD MSTORE DUP3 DUP1 DUP3 ADD MSTORE DUP3 PUSH1 0x80 DUP3 ADD MSTORE DUP3 PUSH1 0xA0 DUP3 ADD MSTORE ADD MSTORE JUMP JUMPDEST PUSH1 0x1B SLOAD SWAP1 PUSH8 0xFFFFFFFFFFFFFFFF DUP3 GT PUSH3 0x366 JUMPI PUSH1 0x40 MLOAD SWAP2 PUSH1 0x20 PUSH3 0x1E84 DUP2 DUP4 PUSH1 0x5 SHL ADD DUP6 PUSH3 0x389 JUMP JUMPDEST DUP2 DUP5 MSTORE DUP1 DUP5 ADD SWAP1 PUSH1 0x1B PUSH1 0x0 MSTORE PUSH32 0x3AD8AA4F87544323A9D1E5DD902F40C356527A7955687113DB5F9A85AD579DC1 PUSH1 0x0 SWAP3 JUMPDEST DUP5 DUP5 LT PUSH3 0x1EC4 JUMPI POP POP POP POP POP JUMP JUMPDEST PUSH1 0x1 DUP4 DUP2 SWAP3 PUSH3 0x1ED4 DUP6 PUSH3 0x6BB JUMP JUMPDEST DUP2 MSTORE ADD SWAP3 ADD SWAP4 ADD SWAP3 SWAP1 PUSH3 0x1EB5 JUMP JUMPDEST SWAP1 PUSH3 0x1F13 PUSH1 0x80 SWAP4 PUSH8 0xFFFFFFFFFFFFFFFF PUSH4 0xFFFFFFFF SWAP4 SWAP9 SWAP8 SWAP7 SWAP9 AND DUP5 MSTORE PUSH1 0xA0 PUSH1 0x20 DUP6 ADD MSTORE PUSH1 0xA0 DUP5 ADD SWAP1 PUSH3 0x76B JUMP JUMPDEST SWAP6 PUSH1 0x1 PUSH1 0x40 DUP5 ADD MSTORE AND PUSH1 0x60 DUP3 ADD MSTORE ADD MSTORE JUMP JUMPDEST PUSH1 0x0 SWAP1 PUSH1 0x3 RETURNDATASIZE GT PUSH3 0x1F33 JUMPI JUMP JUMPDEST SWAP1 POP PUSH1 0x4 PUSH1 0x0 DUP1 RETURNDATACOPY PUSH1 0x0 MLOAD PUSH1 0xE0 SHR SWAP1 JUMP JUMPDEST PUSH1 0x0 PUSH1 0x44 RETURNDATASIZE LT PUSH3 0x7C0 JUMPI PUSH1 0x40 MLOAD PUSH1 0x3 NOT SWAP2 RETURNDATASIZE DUP4 ADD PUSH1 0x4 DUP4 RETURNDATACOPY DUP2 MLOAD PUSH8 0xFFFFFFFFFFFFFFFF SWAP2 DUP3 DUP3 GT RETURNDATASIZE PUSH1 0x24 DUP5 ADD GT OR PUSH3 0x1FA8 JUMPI DUP2 DUP5 ADD SWAP5 DUP6 MLOAD SWAP4 DUP5 GT PUSH3 0x1FB0 JUMPI RETURNDATASIZE DUP6 ADD ADD PUSH1 0x20 DUP5 DUP8 ADD ADD GT PUSH3 0x1FA8 JUMPI POP PUSH3 0x7C0 SWAP3 SWAP2 ADD PUSH1 0x20 ADD SWAP1 PUSH3 0x389 JUMP JUMPDEST SWAP5 SWAP4 POP POP POP POP JUMP JUMPDEST POP SWAP5 SWAP4 POP POP POP POP JUMP JUMPDEST RETURNDATASIZE ISZERO PUSH3 0x1FE9 JUMPI RETURNDATASIZE SWAP1 PUSH3 0x1FCD DUP3 PUSH3 0x3AC JUMP JUMPDEST SWAP2 PUSH3 0x1FDD PUSH1 0x40 MLOAD SWAP4 DUP5 PUSH3 0x389 JUMP JUMPDEST DUP3 MSTORE RETURNDATASIZE PUSH1 0x0 PUSH1 0x20 DUP5 ADD RETURNDATACOPY JUMP JUMPDEST PUSH1 0x60 SWAP1 JUMP JUMPDEST SWAP1 PUSH8 0xFFFFFFFFFFFFFFFF SWAP1 SWAP5 SWAP4 SWAP3 SWAP5 AND DUP2 MSTORE PUSH1 0x20 SWAP4 PUSH1 0xA0 DUP6 DUP4 ADD MSTORE PUSH1 0x0 PUSH1 0x3 SLOAD SWAP6 PUSH3 0x201A DUP8 PUSH3 0x5B4 JUMP JUMPDEST SWAP1 DUP2 PUSH1 0xA0 DUP7 ADD MSTORE PUSH1 0x1 SWAP8 DUP9 DUP2 AND SWAP1 DUP2 PUSH1 0x0 EQ PUSH3 0x20B5 JUMPI POP PUSH1 0x1 EQ PUSH3 0x2056 JUMPI JUMPDEST POP POP PUSH1 0x40 DUP4 ADD SWAP6 SWAP1 SWAP6 MSTORE PUSH4 0xFFFFFFFF AND PUSH1 0x60 DUP3 ADD MSTORE PUSH1 0x80 ADD MSTORE JUMP JUMPDEST PUSH1 0x3 PUSH1 0x0 SWAP1 DUP2 MSTORE SWAP3 POP DUP8 PUSH32 0xC2575A0E9E593C00F959F8C92F12DB2869C3395A3B0502D05E2516446F71F85B JUMPDEST DUP4 DUP6 LT PUSH3 0x209F JUMPI POP POP POP POP DUP3 ADD PUSH1 0xC0 ADD DUP2 PUSH4 0xFFFFFFFF PUSH3 0x203B JUMP JUMPDEST DUP1 SLOAD DUP8 DUP7 ADD PUSH1 0xC0 ADD MSTORE SWAP4 DUP3 ADD SWAP4 DUP10 SWAP2 ADD PUSH3 0x2082 JUMP JUMPDEST PUSH1 0xFF NOT AND PUSH1 0xC0 DUP8 DUP2 ADD SWAP2 SWAP1 SWAP2 MSTORE SWAP3 ISZERO ISZERO PUSH1 0x5 SHL DUP7 ADD SWAP1 SWAP3 ADD SWAP3 POP DUP4 SWAP2 POP PUSH4 0xFFFFFFFF SWAP1 POP PUSH3 0x203B JUMP JUMPDEST PUSH1 0x40 MLOAD SWAP1 PUSH3 0x20EE DUP3 PUSH3 0x36C JUMP JUMPDEST PUSH1 0xC DUP3 MSTORE PUSH32 0x636F64654C6F636174696F6E0000000000000000000000000000000000000000 PUSH1 0x20 DUP4 ADD MSTORE JUMP JUMPDEST PUSH4 0x4E487B71 PUSH1 0xE0 SHL PUSH1 0x0 MSTORE PUSH1 0x21 PUSH1 0x4 MSTORE PUSH1 0x24 PUSH1 0x0 REVERT JUMPDEST PUSH1 0x3 GT ISZERO PUSH3 0x213B JUMPI JUMP JUMPDEST PUSH3 0x211A JUMP JUMPDEST PUSH1 0x40 MLOAD SWAP1 PUSH3 0x2150 DUP3 PUSH3 0x36C JUMP JUMPDEST PUSH1 0x8 DUP3 MSTORE PUSH32 0x6C616E6775616765000000000000000000000000000000000000000000000000 PUSH1 0x20 DUP4 ADD MSTORE JUMP JUMPDEST PUSH1 0x1 GT ISZERO PUSH3 0x213B JUMPI JUMP JUMPDEST PUSH1 0x40 MLOAD SWAP1 PUSH3 0x2196 DUP3 PUSH3 0x36C JUMP JUMPDEST PUSH1 0x6 DUP3 MSTORE PUSH32 0x736F757263650000000000000000000000000000000000000000000000000000 PUSH1 0x20 DUP4 ADD MSTORE JUMP JUMPDEST PUSH1 0x40 MLOAD SWAP1 PUSH3 0x21D1 DUP3 PUSH3 0x36C JUMP JUMPDEST PUSH1 0x4 DUP3 MSTORE PUSH32 0x6172677300000000000000000000000000000000000000000000000000000000 PUSH1 0x20 DUP4 ADD MSTORE JUMP JUMPDEST PUSH1 0x0 NOT DUP2 EQ PUSH3 0x1089 JUMPI PUSH1 0x1 ADD SWAP1 JUMP JUMPDEST DUP1 MLOAD DUP3 LT ISZERO PUSH3 0x2222 JUMPI PUSH1 0x20 SWAP2 PUSH1 0x5 SHL ADD ADD SWAP1 JUMP JUMPDEST PUSH4 0x4E487B71 PUSH1 0xE0 SHL PUSH1 0x0 MSTORE PUSH1 0x32 PUSH1 0x4 MSTORE PUSH1 0x24 PUSH1 0x0 REVERT JUMPDEST PUSH1 0x40 MLOAD SWAP1 PUSH3 0x2247 DUP3 PUSH3 0x36C JUMP JUMPDEST PUSH1 0xF DUP3 MSTORE PUSH32 0x736563726574734C6F636174696F6E0000000000000000000000000000000000 PUSH1 0x20 DUP4 ADD MSTORE JUMP JUMPDEST PUSH1 0x40 MLOAD SWAP1 PUSH3 0x2282 DUP3 PUSH3 0x36C JUMP JUMPDEST PUSH1 0x7 DUP3 MSTORE PUSH32 0x7365637265747300000000000000000000000000000000000000000000000000 PUSH1 0x20 DUP4 ADD MSTORE JUMP JUMPDEST PUSH1 0x40 MLOAD SWAP1 PUSH3 0x22BD DUP3 PUSH3 0x36C JUMP JUMPDEST PUSH1 0x9 DUP3 MSTORE PUSH32 0x6279746573417267730000000000000000000000000000000000000000000000 PUSH1 0x20 DUP4 ADD MSTORE JUMP JUMPDEST PUSH3 0x22F3 PUSH3 0x25BC JUMP JUMPDEST SWAP1 PUSH3 0x2309 PUSH3 0x2302 PUSH3 0x20DF JUMP JUMPDEST DUP4 PUSH3 0x2DB1 JUMP JUMPDEST PUSH3 0x232C DUP2 MLOAD PUSH3 0x231A DUP2 PUSH3 0x2130 JUMP JUMPDEST PUSH3 0x2325 DUP2 PUSH3 0x2130 JUMP JUMPDEST DUP4 PUSH3 0x266C JUMP JUMPDEST PUSH3 0x233A PUSH3 0x2302 PUSH3 0x2141 JUMP JUMPDEST PUSH3 0x2359 PUSH1 0x40 DUP3 ADD MLOAD PUSH3 0x234E DUP2 PUSH3 0x217C JUMP JUMPDEST PUSH3 0x2325 DUP2 PUSH3 0x217C JUMP JUMPDEST PUSH3 0x2367 PUSH3 0x2302 PUSH3 0x2187 JUMP JUMPDEST PUSH3 0x2377 PUSH1 0x60 DUP3 ADD MLOAD DUP4 PUSH3 0x2DB1 JUMP JUMPDEST PUSH1 0xA0 DUP2 ADD DUP1 MLOAD MLOAD PUSH3 0x24BD JUMPI JUMPDEST POP PUSH1 0x80 DUP2 ADD SWAP1 DUP2 MLOAD MLOAD PUSH3 0x240F JUMPI JUMPDEST PUSH1 0xC0 SWAP2 POP ADD DUP1 MLOAD MLOAD PUSH3 0x23A7 JUMPI JUMPDEST POP MLOAD MLOAD SWAP1 JUMP JUMPDEST SWAP2 PUSH3 0x23B6 PUSH3 0x2302 PUSH3 0x22AE JUMP JUMPDEST PUSH3 0x23C1 DUP3 PUSH3 0x2E49 JUMP JUMPDEST PUSH1 0x0 JUMPDEST DUP4 MLOAD DUP1 MLOAD DUP3 LT ISZERO PUSH3 0x23F9 JUMPI SWAP1 PUSH3 0x23ED PUSH3 0x23E5 DUP3 PUSH3 0x23F3 SWAP5 PUSH3 0x220D JUMP JUMPDEST MLOAD DUP6 PUSH3 0x2CE2 JUMP JUMPDEST PUSH3 0x21FD JUMP JUMPDEST PUSH3 0x23C4 JUMP JUMPDEST POP POP SWAP2 POP PUSH3 0x2408 DUP2 PUSH3 0x2EE1 JUMP JUMPDEST CODESIZE PUSH3 0x23A1 JUMP JUMPDEST PUSH1 0x20 DUP2 ADD DUP1 MLOAD PUSH3 0x2420 DUP2 PUSH3 0x2130 JUMP JUMPDEST PUSH3 0x242B DUP2 PUSH3 0x2130 JUMP JUMPDEST ISZERO PUSH3 0x2493 JUMPI PUSH1 0xC0 SWAP3 PUSH3 0x2470 PUSH3 0x248D SWAP3 PUSH3 0x2452 PUSH3 0x244B PUSH3 0x2238 JUMP JUMPDEST DUP9 PUSH3 0x2DB1 JUMP JUMPDEST MLOAD PUSH3 0x245E DUP2 PUSH3 0x2130 JUMP JUMPDEST PUSH3 0x2469 DUP2 PUSH3 0x2130 JUMP JUMPDEST DUP7 PUSH3 0x266C JUMP JUMPDEST PUSH3 0x2485 PUSH3 0x247E PUSH3 0x2273 JUMP JUMPDEST DUP7 PUSH3 0x2DB1 JUMP JUMPDEST MLOAD DUP5 PUSH3 0x2CE2 JUMP JUMPDEST PUSH3 0x2393 JUMP JUMPDEST PUSH1 0x4 PUSH1 0x40 MLOAD PUSH32 0xA80D31F700000000000000000000000000000000000000000000000000000000 DUP2 MSTORE REVERT JUMPDEST SWAP3 PUSH3 0x24D3 PUSH3 0x24CC PUSH3 0x21C2 JUMP JUMPDEST DUP5 PUSH3 0x2DB1 JUMP JUMPDEST PUSH3 0x24DE DUP4 PUSH3 0x2E49 JUMP JUMPDEST PUSH1 0x0 JUMPDEST DUP5 MLOAD DUP1 MLOAD DUP3 LT ISZERO PUSH3 0x2510 JUMPI SWAP1 PUSH3 0x23ED PUSH3 0x2502 DUP3 PUSH3 0x250A SWAP5 PUSH3 0x220D JUMP JUMPDEST MLOAD DUP7 PUSH3 0x2DB1 JUMP JUMPDEST PUSH3 0x24E1 JUMP JUMPDEST POP POP SWAP3 POP PUSH3 0x251F DUP3 PUSH3 0x2EE1 JUMP JUMPDEST CODESIZE PUSH3 0x2384 JUMP JUMPDEST DUP2 MLOAD ISZERO PUSH3 0x253E JUMPI PUSH1 0x0 DUP1 DUP3 MSTORE PUSH1 0x40 DUP3 ADD MSTORE PUSH1 0x60 ADD MSTORE JUMP JUMPDEST PUSH1 0x4 PUSH1 0x40 MLOAD PUSH32 0x22CE3EDD00000000000000000000000000000000000000000000000000000000 DUP2 MSTORE REVERT JUMPDEST DUP2 MLOAD ISZERO PUSH3 0x2576 JUMPI PUSH1 0xA0 ADD MSTORE JUMP JUMPDEST PUSH1 0x4 PUSH1 0x40 MLOAD PUSH32 0xFE936CB700000000000000000000000000000000000000000000000000000000 DUP2 MSTORE REVERT JUMPDEST PUSH1 0x40 MLOAD SWAP1 PUSH3 0x25AF DUP3 PUSH3 0x36C JUMP JUMPDEST PUSH1 0x0 PUSH1 0x20 DUP4 PUSH1 0x60 DUP2 MSTORE ADD MSTORE JUMP JUMPDEST PUSH1 0x40 MLOAD PUSH3 0x25CA DUP2 PUSH3 0x36C JUMP JUMPDEST PUSH3 0x25D4 PUSH3 0x25A0 JUMP JUMPDEST DUP1 DUP3 MSTORE PUSH1 0x20 DUP3 ADD PUSH1 0x0 DUP2 MSTORE PUSH3 0x25E9 PUSH3 0x25A0 JUMP JUMPDEST POP PUSH2 0x100 PUSH1 0x20 DUP4 ADD MSTORE PUSH1 0x40 MLOAD DUP1 SWAP3 MSTORE PUSH1 0x0 DUP3 MSTORE PUSH2 0x120 DUP3 ADD SWAP2 DUP3 LT PUSH3 0x2EC JUMPI PUSH1 0x0 SWAP2 PUSH1 0x40 MSTORE MSTORE SWAP1 JUMP JUMPDEST SWAP1 PUSH3 0x261E PUSH3 0x25A0 JUMP JUMPDEST POP PUSH1 0x1F DUP2 AND DUP1 PUSH3 0x264F JUMPI JUMPDEST POP DUP1 PUSH1 0x20 DUP4 ADD MSTORE PUSH1 0x40 MLOAD SWAP1 DUP2 DUP4 MSTORE PUSH1 0x0 DUP3 MSTORE DUP2 ADD PUSH1 0x20 ADD SWAP1 DUP2 LT PUSH3 0x2EC JUMPI PUSH1 0x40 MSTORE SWAP1 JUMP JUMPDEST PUSH1 0x20 SUB PUSH1 0x20 DUP2 GT PUSH3 0x1089 JUMPI DUP2 ADD DUP1 SWAP2 GT PUSH3 0x1089 JUMPI CODESIZE PUSH3 0x262A JUMP JUMPDEST SWAP1 DUP2 MLOAD SWAP2 PUSH3 0x267A PUSH3 0x25A0 JUMP JUMPDEST POP DUP3 MLOAD MLOAD PUSH1 0x1 DUP2 ADD SWAP1 DUP2 DUP2 GT PUSH3 0x1089 JUMPI PUSH1 0x20 DUP6 ADD MLOAD DUP2 LT ISZERO PUSH3 0x26DB JUMPI JUMPDEST PUSH1 0xC2 PUSH1 0x20 PUSH3 0x632 SWAP7 MLOAD SWAP3 DUP4 ADD ADD MSTORE8 DUP1 MLOAD DUP3 GT PUSH3 0x26D2 JUMPI JUMPDEST POP POP PUSH1 0x40 MLOAD SWAP2 PUSH1 0x20 DUP4 ADD MSTORE PUSH1 0x20 DUP3 MSTORE PUSH3 0x26CC DUP3 PUSH3 0x36C JUMP JUMPDEST PUSH3 0x2CE2 JUMP JUMPDEST MSTORE CODESIZE DUP1 PUSH3 0x26B2 JUMP JUMPDEST DUP2 PUSH1 0x1 SHL SWAP5 DUP3 DUP7 DIV PUSH1 0x2 EQ DUP4 ISZERO OR ISZERO PUSH3 0x1089 JUMPI PUSH1 0x20 DUP2 PUSH3 0x2713 PUSH3 0x632 SWAP9 PUSH3 0x270B PUSH1 0xC2 SWAP6 MLOAD SWAP2 DUP5 PUSH3 0x2613 JUMP JUMPDEST POP DUP3 PUSH3 0x2C13 JUMP JUMPDEST POP SWAP7 POP POP POP PUSH3 0x2699 JUMP JUMPDEST SWAP1 DUP2 PUSH1 0x1 SHL SWAP2 DUP1 DUP4 DIV PUSH1 0x2 EQ SWAP1 ISZERO OR ISZERO PUSH3 0x1089 JUMPI JUMP JUMPDEST PUSH3 0x273F PUSH3 0x25A0 JUMP JUMPDEST POP DUP1 MLOAD MLOAD PUSH1 0x1 DUP2 ADD SWAP1 DUP2 DUP2 GT PUSH3 0x1089 JUMPI PUSH1 0x20 DUP4 ADD MLOAD DUP2 LT ISZERO PUSH3 0x277B JUMPI JUMPDEST PUSH1 0x5B PUSH1 0x20 DUP5 MLOAD SWAP3 DUP4 ADD ADD MSTORE8 DUP1 MLOAD DUP3 GT PUSH3 0x2777 JUMPI POP POP SWAP1 JUMP JUMPDEST MSTORE SWAP1 JUMP JUMPDEST DUP2 PUSH1 0x1 SHL DUP3 DUP2 DIV PUSH1 0x2 EQ DUP4 ISZERO OR ISZERO PUSH3 0x1089 JUMPI PUSH3 0x27A9 SWAP1 PUSH3 0x27A1 DUP6 MLOAD SWAP2 DUP7 PUSH3 0x2613 JUMP JUMPDEST POP DUP5 PUSH3 0x2C13 JUMP JUMPDEST POP PUSH3 0x275E JUMP JUMPDEST PUSH3 0x27BA PUSH3 0x25A0 JUMP JUMPDEST POP DUP1 MLOAD MLOAD PUSH1 0x1 DUP2 ADD SWAP1 DUP2 DUP2 GT PUSH3 0x1089 JUMPI PUSH1 0x20 DUP4 ADD MLOAD DUP2 LT ISZERO PUSH3 0x27F2 JUMPI JUMPDEST PUSH1 0x5A PUSH1 0x20 DUP5 MLOAD SWAP3 DUP4 ADD ADD MSTORE8 DUP1 MLOAD DUP3 GT PUSH3 0x2777 JUMPI POP POP SWAP1 JUMP JUMPDEST DUP2 PUSH1 0x1 SHL DUP3 DUP2 DIV PUSH1 0x2 EQ DUP4 ISZERO OR ISZERO PUSH3 0x1089 JUMPI PUSH3 0x2818 SWAP1 PUSH3 0x27A1 DUP6 MLOAD SWAP2 DUP7 PUSH3 0x2613 JUMP JUMPDEST POP PUSH3 0x27D9 JUMP JUMPDEST PUSH3 0x2829 PUSH3 0x25A0 JUMP JUMPDEST POP DUP1 MLOAD MLOAD PUSH1 0x1 DUP2 ADD SWAP1 DUP2 DUP2 GT PUSH3 0x1089 JUMPI PUSH1 0x20 DUP4 ADD MLOAD DUP2 LT ISZERO PUSH3 0x2861 JUMPI JUMPDEST PUSH1 0x59 PUSH1 0x20 DUP5 MLOAD SWAP3 DUP4 ADD ADD MSTORE8 DUP1 MLOAD DUP3 GT PUSH3 0x2777 JUMPI POP POP SWAP1 JUMP JUMPDEST DUP2 PUSH1 0x1 SHL DUP3 DUP2 DIV PUSH1 0x2 EQ DUP4 ISZERO OR ISZERO PUSH3 0x1089 JUMPI PUSH3 0x2887 SWAP1 PUSH3 0x27A1 DUP6 MLOAD SWAP2 DUP7 PUSH3 0x2613 JUMP JUMPDEST POP PUSH3 0x2848 JUMP JUMPDEST PUSH3 0x2898 PUSH3 0x25A0 JUMP JUMPDEST POP DUP1 MLOAD MLOAD PUSH1 0x1 DUP2 ADD SWAP1 DUP2 DUP2 GT PUSH3 0x1089 JUMPI PUSH1 0x20 DUP4 ADD MLOAD DUP2 LT ISZERO PUSH3 0x28D0 JUMPI JUMPDEST PUSH1 0x58 PUSH1 0x20 DUP5 MLOAD SWAP3 DUP4 ADD ADD MSTORE8 DUP1 MLOAD DUP3 GT PUSH3 0x2777 JUMPI POP POP SWAP1 JUMP JUMPDEST DUP2 PUSH1 0x1 SHL DUP3 DUP2 DIV PUSH1 0x2 EQ DUP4 ISZERO OR ISZERO PUSH3 0x1089 JUMPI PUSH3 0x28F6 SWAP1 PUSH3 0x27A1 DUP6 MLOAD SWAP2 DUP7 PUSH3 0x2613 JUMP JUMPDEST POP PUSH3 0x28B7 JUMP JUMPDEST PUSH3 0x2907 PUSH3 0x25A0 JUMP JUMPDEST POP DUP1 MLOAD MLOAD PUSH1 0x1 DUP2 ADD SWAP1 DUP2 DUP2 GT PUSH3 0x1089 JUMPI PUSH1 0x20 DUP4 ADD MLOAD DUP2 LT ISZERO PUSH3 0x293F JUMPI JUMPDEST PUSH1 0x7B PUSH1 0x20 DUP5 MLOAD SWAP3 DUP4 ADD ADD MSTORE8 DUP1 MLOAD DUP3 GT PUSH3 0x2777 JUMPI POP POP SWAP1 JUMP JUMPDEST DUP2 PUSH1 0x1 SHL DUP3 DUP2 DIV PUSH1 0x2 EQ DUP4 ISZERO OR ISZERO PUSH3 0x1089 JUMPI PUSH3 0x2965 SWAP1 PUSH3 0x27A1 DUP6 MLOAD SWAP2 DUP7 PUSH3 0x2613 JUMP JUMPDEST POP PUSH3 0x2926 JUMP JUMPDEST PUSH3 0x2976 PUSH3 0x25A0 JUMP JUMPDEST POP DUP1 MLOAD MLOAD PUSH1 0x1 DUP2 ADD SWAP1 DUP2 DUP2 GT PUSH3 0x1089 JUMPI PUSH1 0x20 DUP4 ADD MLOAD DUP2 LT ISZERO PUSH3 0x29AE JUMPI JUMPDEST PUSH1 0x7A PUSH1 0x20 DUP5 MLOAD SWAP3 DUP4 ADD ADD MSTORE8 DUP1 MLOAD DUP3 GT PUSH3 0x2777 JUMPI POP POP SWAP1 JUMP JUMPDEST DUP2 PUSH1 0x1 SHL DUP3 DUP2 DIV PUSH1 0x2 EQ DUP4 ISZERO OR ISZERO PUSH3 0x1089 JUMPI PUSH3 0x29D4 SWAP1 PUSH3 0x27A1 DUP6 MLOAD SWAP2 DUP7 PUSH3 0x2613 JUMP JUMPDEST POP PUSH3 0x2995 JUMP JUMPDEST PUSH3 0x29E5 PUSH3 0x25A0 JUMP JUMPDEST POP DUP1 MLOAD MLOAD PUSH1 0x1 DUP2 ADD SWAP1 DUP2 DUP2 GT PUSH3 0x1089 JUMPI PUSH1 0x20 DUP4 ADD MLOAD DUP2 LT ISZERO PUSH3 0x2A1D JUMPI JUMPDEST PUSH1 0x79 PUSH1 0x20 DUP5 MLOAD SWAP3 DUP4 ADD ADD MSTORE8 DUP1 MLOAD DUP3 GT PUSH3 0x2777 JUMPI POP POP SWAP1 JUMP JUMPDEST DUP2 PUSH1 0x1 SHL DUP3 DUP2 DIV PUSH1 0x2 EQ DUP4 ISZERO OR ISZERO PUSH3 0x1089 JUMPI PUSH3 0x2A43 SWAP1 PUSH3 0x27A1 DUP6 MLOAD SWAP2 DUP7 PUSH3 0x2613 JUMP JUMPDEST POP PUSH3 0x2A04 JUMP JUMPDEST PUSH3 0x2A54 PUSH3 0x25A0 JUMP JUMPDEST POP DUP1 MLOAD MLOAD PUSH1 0x1 DUP2 ADD SWAP1 DUP2 DUP2 GT PUSH3 0x1089 JUMPI PUSH1 0x20 DUP4 ADD MLOAD DUP2 LT ISZERO PUSH3 0x2A8C JUMPI JUMPDEST PUSH1 0x78 PUSH1 0x20 DUP5 MLOAD SWAP3 DUP4 ADD ADD MSTORE8 DUP1 MLOAD DUP3 GT PUSH3 0x2777 JUMPI POP POP SWAP1 JUMP JUMPDEST DUP2 PUSH1 0x1 SHL DUP3 DUP2 DIV PUSH1 0x2 EQ DUP4 ISZERO OR ISZERO PUSH3 0x1089 JUMPI PUSH3 0x2AB2 SWAP1 PUSH3 0x27A1 DUP6 MLOAD SWAP2 DUP7 PUSH3 0x2613 JUMP JUMPDEST POP PUSH3 0x2A73 JUMP JUMPDEST SWAP1 PUSH3 0x2AC4 PUSH3 0x25A0 JUMP JUMPDEST POP DUP2 MLOAD MLOAD PUSH1 0x1 DUP2 ADD SWAP2 DUP3 DUP3 GT PUSH3 0x1089 JUMPI PUSH1 0x20 DUP5 ADD MLOAD DUP3 LT ISZERO PUSH3 0x2AFA JUMPI JUMPDEST PUSH1 0x20 DUP5 MLOAD SWAP3 DUP4 ADD ADD MSTORE8 DUP1 MLOAD DUP3 GT PUSH3 0x2777 JUMPI POP POP SWAP1 JUMP JUMPDEST DUP3 PUSH1 0x1 SHL DUP4 DUP2 DIV PUSH1 0x2 EQ DUP5 ISZERO OR ISZERO PUSH3 0x1089 JUMPI PUSH3 0x2B28 SWAP1 PUSH3 0x2B20 DUP7 MLOAD SWAP2 DUP8 PUSH3 0x2613 JUMP JUMPDEST POP DUP6 PUSH3 0x2C13 JUMP JUMPDEST POP PUSH3 0x2AE3 JUMP JUMPDEST SWAP1 PUSH3 0x2B3E DUP3 MLOAD SWAP2 DUP4 PUSH3 0x2613 JUMP JUMPDEST POP PUSH3 0x2B49 PUSH3 0x25A0 JUMP JUMPDEST POP DUP1 MLOAD SWAP1 PUSH3 0x2B57 PUSH3 0x25A0 JUMP JUMPDEST POP PUSH3 0x2B67 DUP2 MLOAD DUP4 GT ISZERO PUSH3 0x2CDA JUMP JUMPDEST DUP3 MLOAD MLOAD SWAP3 PUSH3 0x2B77 DUP4 DUP6 PUSH3 0x1E00 JUMP JUMPDEST SWAP2 PUSH1 0x20 SWAP3 DUP3 DUP5 DUP1 SWAP5 ADD MLOAD DUP3 GT PUSH3 0x2BF7 JUMPI JUMPDEST MLOAD DUP4 DUP2 MLOAD SWAP8 DUP3 ADD ADD SWAP7 DUP3 GT PUSH3 0x2BEE JUMPI JUMPDEST POP POP ADD SWAP2 JUMPDEST DUP2 DUP2 LT ISZERO PUSH3 0x2BC1 JUMPI PUSH1 0x0 NOT SWAP2 SUB PUSH2 0x100 EXP ADD SWAP1 DUP2 NOT SWAP1 MLOAD AND SWAP1 DUP3 MLOAD AND OR SWAP1 MSTORE JUMP JUMPDEST SWAP2 SWAP3 PUSH3 0x2BE1 PUSH3 0x2BDA PUSH3 0x2BE8 SWAP3 DUP7 MLOAD DUP2 MSTORE PUSH3 0x1DF1 JUMP JUMPDEST SWAP5 PUSH3 0x1DF1 JUMP JUMPDEST SWAP3 PUSH3 0x1D86 JUMP JUMPDEST PUSH3 0x2B9F JUMP JUMPDEST MSTORE CODESIZE DUP1 PUSH3 0x2B9A JUMP JUMPDEST PUSH3 0x2C0D PUSH3 0x2C06 DUP4 PUSH3 0x271E JUMP JUMPDEST DUP3 PUSH3 0x2B2F JUMP JUMPDEST PUSH3 0x2B89 JUMP JUMPDEST SWAP1 PUSH3 0x2C1E PUSH3 0x25A0 JUMP JUMPDEST POP DUP1 MLOAD PUSH3 0x2C2B PUSH3 0x25A0 JUMP JUMPDEST POP PUSH3 0x2C3B DUP3 MLOAD DUP3 GT ISZERO PUSH3 0x2CDA JUMP JUMPDEST DUP3 MLOAD MLOAD SWAP2 PUSH3 0x2C4B DUP3 DUP5 PUSH3 0x1E00 JUMP JUMPDEST PUSH1 0x20 SWAP2 DUP3 SWAP2 DUP3 DUP8 ADD MLOAD DUP2 GT PUSH3 0x2CBE JUMPI JUMPDEST DUP7 MLOAD DUP4 DUP2 MLOAD SWAP8 DUP3 ADD ADD SWAP7 DUP3 GT PUSH3 0x2CB5 JUMPI JUMPDEST POP POP ADD SWAP2 JUMPDEST DUP2 DUP2 LT ISZERO PUSH3 0x2C96 JUMPI PUSH1 0x0 NOT SWAP2 SUB PUSH2 0x100 EXP ADD SWAP1 DUP2 NOT SWAP1 MLOAD AND SWAP1 DUP3 MLOAD AND OR SWAP1 MSTORE SWAP1 JUMP JUMPDEST SWAP2 SWAP3 PUSH3 0x2BE1 PUSH3 0x2BDA PUSH3 0x2CAF SWAP3 DUP7 MLOAD DUP2 MSTORE PUSH3 0x1DF1 JUMP JUMPDEST PUSH3 0x2C73 JUMP JUMPDEST MSTORE CODESIZE DUP1 PUSH3 0x2C6E JUMP JUMPDEST PUSH3 0x2CD4 PUSH3 0x2CCD DUP3 PUSH3 0x271E JUMP JUMPDEST DUP9 PUSH3 0x2B2F JUMP JUMPDEST PUSH3 0x2C5C JUMP JUMPDEST ISZERO PUSH3 0x2EC JUMPI JUMP JUMPDEST DUP2 MLOAD PUSH3 0x2D1F SWAP3 SWAP2 SWAP1 PUSH8 0xFFFFFFFFFFFFFFFF DUP2 AND SWAP1 PUSH1 0x17 DUP3 GT PUSH3 0x2D22 JUMPI PUSH3 0x2D16 SWAP2 POP PUSH1 0x40 PUSH1 0xFF DUP5 MLOAD SWAP3 AND OR SWAP1 PUSH3 0x2AB9 JUMP JUMPDEST POP JUMPDEST MLOAD PUSH3 0x2C13 JUMP JUMPDEST POP JUMP JUMPDEST POP PUSH1 0xFF DUP2 GT PUSH3 0x2D4D JUMPI PUSH3 0x2D46 SWAP1 PUSH3 0x2D3D DUP4 MLOAD PUSH3 0x288E JUMP JUMPDEST POP DUP3 MLOAD PUSH3 0x30D2 JUMP JUMPDEST POP PUSH3 0x2D18 JUMP JUMPDEST PUSH2 0xFFFF DUP2 GT PUSH3 0x2D71 JUMPI PUSH3 0x2D46 SWAP1 PUSH3 0x2D68 DUP4 MLOAD PUSH3 0x281F JUMP JUMPDEST POP DUP3 MLOAD PUSH3 0x3062 JUMP JUMPDEST PUSH4 0xFFFFFFFF DUP2 GT PUSH3 0x2D97 JUMPI PUSH3 0x2D46 SWAP1 PUSH3 0x2D8E DUP4 MLOAD PUSH3 0x27B0 JUMP JUMPDEST POP DUP3 MLOAD PUSH3 0x2FF0 JUMP JUMPDEST PUSH3 0x2D46 SWAP1 PUSH3 0x2DA8 DUP4 MLOAD PUSH3 0x2735 JUMP JUMPDEST POP DUP3 MLOAD PUSH3 0x2F7A JUMP JUMPDEST DUP2 MLOAD PUSH3 0x2D1F SWAP3 SWAP2 SWAP1 PUSH8 0xFFFFFFFFFFFFFFFF DUP2 AND SWAP1 PUSH1 0x17 DUP3 GT PUSH3 0x2DE5 JUMPI PUSH3 0x2D16 SWAP2 POP PUSH1 0x60 PUSH1 0xFF DUP5 MLOAD SWAP3 AND OR SWAP1 PUSH3 0x2AB9 JUMP JUMPDEST POP PUSH1 0xFF DUP2 GT PUSH3 0x2E00 JUMPI PUSH3 0x2D46 SWAP1 PUSH3 0x2D3D DUP4 MLOAD PUSH3 0x2A4A JUMP JUMPDEST PUSH2 0xFFFF DUP2 GT PUSH3 0x2E1B JUMPI PUSH3 0x2D46 SWAP1 PUSH3 0x2D68 DUP4 MLOAD PUSH3 0x29DB JUMP JUMPDEST PUSH4 0xFFFFFFFF DUP2 GT PUSH3 0x2E38 JUMPI PUSH3 0x2D46 SWAP1 PUSH3 0x2D8E DUP4 MLOAD PUSH3 0x296C JUMP JUMPDEST PUSH3 0x2D46 SWAP1 PUSH3 0x2DA8 DUP4 MLOAD PUSH3 0x28FD JUMP JUMPDEST DUP1 MLOAD SWAP1 PUSH3 0x2E56 PUSH3 0x25A0 JUMP JUMPDEST POP DUP2 MLOAD MLOAD PUSH1 0x1 DUP2 ADD SWAP1 DUP2 DUP2 GT PUSH3 0x1089 JUMPI PUSH1 0x20 DUP5 ADD MLOAD DUP2 LT ISZERO PUSH3 0x2EA9 JUMPI JUMPDEST PUSH1 0x9F PUSH1 0x20 DUP1 SWAP6 MLOAD SWAP3 DUP4 ADD ADD MSTORE8 DUP1 MLOAD DUP3 GT PUSH3 0x2EA0 JUMPI JUMPDEST POP POP ADD DUP1 MLOAD SWAP1 PUSH1 0x1 DUP3 ADD DUP1 SWAP3 GT PUSH3 0x1089 JUMPI MSTORE JUMP JUMPDEST MSTORE CODESIZE DUP1 PUSH3 0x2E8B JUMP JUMPDEST DUP2 PUSH1 0x1 SHL SWAP4 DUP3 DUP6 DIV PUSH1 0x2 EQ DUP4 ISZERO OR ISZERO PUSH3 0x1089 JUMPI PUSH1 0x20 DUP2 PUSH3 0x2ED6 DUP3 SWAP8 PUSH3 0x270B PUSH1 0x9F SWAP6 MLOAD SWAP2 DUP5 PUSH3 0x2613 JUMP JUMPDEST POP SWAP6 POP POP POP PUSH3 0x2E75 JUMP JUMPDEST DUP1 MLOAD SWAP1 PUSH3 0x2EEE PUSH3 0x25A0 JUMP JUMPDEST POP DUP2 MLOAD MLOAD PUSH1 0x1 DUP2 ADD SWAP1 DUP2 DUP2 GT PUSH3 0x1089 JUMPI PUSH1 0x20 DUP5 ADD MLOAD DUP2 LT ISZERO PUSH3 0x2F42 JUMPI JUMPDEST PUSH1 0xFF PUSH1 0x20 DUP1 SWAP6 MLOAD SWAP3 DUP4 ADD ADD MSTORE8 DUP1 MLOAD DUP3 GT PUSH3 0x2F39 JUMPI JUMPDEST POP POP ADD DUP1 MLOAD PUSH1 0x0 NOT DUP2 ADD SWAP2 SWAP1 DUP3 GT PUSH3 0x1089 JUMPI MSTORE JUMP JUMPDEST MSTORE CODESIZE DUP1 PUSH3 0x2F23 JUMP JUMPDEST DUP2 PUSH1 0x1 SHL SWAP4 DUP3 DUP6 DIV PUSH1 0x2 EQ DUP4 ISZERO OR ISZERO PUSH3 0x1089 JUMPI PUSH1 0x20 DUP2 PUSH3 0x2F6F DUP3 SWAP8 PUSH3 0x270B PUSH1 0xFF SWAP6 MLOAD SWAP2 DUP5 PUSH3 0x2613 JUMP JUMPDEST POP SWAP6 POP POP POP PUSH3 0x2F0D JUMP JUMPDEST SWAP1 PUSH3 0x2F85 PUSH3 0x25A0 JUMP JUMPDEST POP DUP2 MLOAD MLOAD DUP1 PUSH1 0x8 ADD SWAP2 DUP3 PUSH1 0x8 GT PUSH3 0x1089 JUMPI PUSH1 0x20 DUP5 ADD MLOAD DUP4 GT PUSH3 0x2FCB JUMPI JUMPDEST PUSH1 0x8 DUP5 MLOAD SWAP3 DUP4 ADD ADD SWAP1 PUSH8 0xFFFFFFFFFFFFFFFF NOT DUP3 MLOAD AND OR SWAP1 MSTORE DUP1 MLOAD DUP3 GT PUSH3 0x2777 JUMPI POP POP SWAP1 JUMP JUMPDEST DUP3 PUSH1 0x1 SHL DUP4 DUP2 DIV PUSH1 0x2 EQ DUP5 ISZERO OR ISZERO PUSH3 0x1089 JUMPI PUSH3 0x2FEA SWAP1 DUP6 PUSH3 0x2B2F JUMP JUMPDEST PUSH3 0x2FA4 JUMP JUMPDEST SWAP1 PUSH3 0x2FFB PUSH3 0x25A0 JUMP JUMPDEST POP DUP2 MLOAD MLOAD DUP1 PUSH1 0x4 ADD SWAP2 DUP3 PUSH1 0x4 GT PUSH3 0x1089 JUMPI PUSH1 0x20 DUP5 ADD MLOAD DUP4 GT PUSH3 0x303D JUMPI JUMPDEST PUSH1 0x4 DUP5 MLOAD SWAP3 DUP4 ADD ADD SWAP1 PUSH4 0xFFFFFFFF NOT DUP3 MLOAD AND OR SWAP1 MSTORE DUP1 MLOAD DUP3 GT PUSH3 0x2777 JUMPI POP POP SWAP1 JUMP JUMPDEST DUP3 PUSH1 0x1 SHL DUP4 DUP2 DIV PUSH1 0x2 EQ DUP5 ISZERO OR ISZERO PUSH3 0x1089 JUMPI PUSH3 0x305C SWAP1 DUP6 PUSH3 0x2B2F JUMP JUMPDEST PUSH3 0x301A JUMP JUMPDEST SWAP1 PUSH3 0x306D PUSH3 0x25A0 JUMP JUMPDEST POP DUP2 MLOAD MLOAD DUP1 PUSH1 0x2 ADD SWAP2 DUP3 PUSH1 0x2 GT PUSH3 0x1089 JUMPI PUSH1 0x20 DUP5 ADD MLOAD DUP4 GT PUSH3 0x30AD JUMPI JUMPDEST PUSH1 0x2 DUP5 MLOAD SWAP3 DUP4 ADD ADD SWAP1 PUSH2 0xFFFF NOT DUP3 MLOAD AND OR SWAP1 MSTORE DUP1 MLOAD DUP3 GT PUSH3 0x2777 JUMPI POP POP SWAP1 JUMP JUMPDEST DUP3 PUSH1 0x1 SHL DUP4 DUP2 DIV PUSH1 0x2 EQ DUP5 ISZERO OR ISZERO PUSH3 0x1089 JUMPI PUSH3 0x30CC SWAP1 DUP6 PUSH3 0x2B2F JUMP JUMPDEST PUSH3 0x308C JUMP JUMPDEST SWAP1 PUSH3 0x30DD PUSH3 0x25A0 JUMP JUMPDEST POP DUP2 MLOAD MLOAD DUP1 PUSH1 0x1 ADD SWAP2 DUP3 PUSH1 0x1 GT PUSH3 0x1089 JUMPI PUSH1 0x20 DUP5 ADD MLOAD DUP4 GT PUSH3 0x311C JUMPI JUMPDEST PUSH1 0x1 DUP5 MLOAD SWAP3 DUP4 ADD ADD SWAP1 PUSH1 0xFF NOT DUP3 MLOAD AND OR SWAP1 MSTORE DUP1 MLOAD DUP3 GT PUSH3 0x2777 JUMPI POP POP SWAP1 JUMP JUMPDEST DUP3 PUSH1 0x1 SHL DUP4 DUP2 DIV PUSH1 0x2 EQ DUP5 ISZERO OR ISZERO PUSH3 0x1089 JUMPI PUSH3 0x313B SWAP1 DUP6 PUSH3 0x2B2F JUMP JUMPDEST PUSH3 0x30FC JUMP INVALID PUSH1 0xC0 CALLVALUE PUSH2 0xBA JUMPI PUSH1 0x1F PUSH2 0x765 CODESIZE DUP2 SWAP1 SUB SWAP2 DUP3 ADD PUSH1 0x1F NOT AND DUP4 ADD SWAP2 PUSH1 0x1 PUSH1 0x1 PUSH1 0x40 SHL SUB DUP4 GT DUP5 DUP5 LT OR PUSH2 0xBF JUMPI DUP1 DUP5 SWAP3 PUSH1 0x60 SWAP5 PUSH1 0x40 MSTORE DUP4 CODECOPY DUP2 ADD SUB SLT PUSH2 0xBA JUMPI PUSH2 0x47 DUP2 PUSH2 0xD5 JUMP JUMPDEST SWAP1 PUSH1 0x40 PUSH2 0x56 PUSH1 0x20 DUP4 ADD PUSH2 0xD5 JUMP JUMPDEST SWAP2 ADD MLOAD PUSH1 0x1 PUSH1 0x1 PUSH1 0x60 SHL SUB DUP2 AND SWAP3 SWAP1 DUP4 SWAP1 SUB PUSH2 0xBA JUMPI PUSH1 0x80 MSTORE PUSH1 0xA0 MSTORE PUSH1 0x1 DUP1 SLOAD PUSH1 0x1 PUSH1 0x1 PUSH1 0x60 SHL SUB NOT AND SWAP2 SWAP1 SWAP2 OR SWAP1 SSTORE PUSH1 0x40 MLOAD PUSH2 0x67B SWAP1 DUP2 PUSH2 0xEA DUP3 CODECOPY PUSH1 0x80 MLOAD DUP2 DUP2 DUP2 PUSH1 0x77 ADD MSTORE DUP2 DUP2 PUSH2 0x1C7 ADD MSTORE PUSH2 0x3A3 ADD MSTORE PUSH1 0xA0 MLOAD DUP2 DUP2 DUP2 PUSH1 0xBE ADD MSTORE PUSH2 0x36A ADD MSTORE RETURN JUMPDEST PUSH1 0x0 DUP1 REVERT JUMPDEST PUSH4 0x4E487B71 PUSH1 0xE0 SHL PUSH1 0x0 MSTORE PUSH1 0x41 PUSH1 0x4 MSTORE PUSH1 0x24 PUSH1 0x0 REVERT JUMPDEST MLOAD SWAP1 PUSH1 0x1 PUSH1 0x1 PUSH1 0xA0 SHL SUB DUP3 AND DUP3 SUB PUSH2 0xBA JUMPI JUMP INVALID PUSH1 0x80 PUSH1 0x40 DUP2 DUP2 MSTORE PUSH1 0x4 CALLDATASIZE LT ISZERO PUSH2 0x14 JUMPI PUSH1 0x0 DUP1 REVERT JUMPDEST PUSH1 0x0 SWAP2 DUP3 CALLDATALOAD PUSH1 0xE0 SHR SWAP1 DUP2 PUSH4 0x1619D3D EQ PUSH2 0x22D JUMPI POP DUP1 PUSH4 0x23024408 EQ PUSH2 0x14A JUMPI DUP1 PUSH4 0x24380AA8 EQ PUSH2 0xE2 JUMPI DUP1 PUSH4 0x442B1278 EQ PUSH2 0x9F JUMPI PUSH4 0x7D253AFF EQ PUSH2 0x59 JUMPI PUSH1 0x0 DUP1 REVERT JUMPDEST CALLVALUE PUSH2 0x9B JUMPI DUP2 PUSH1 0x3 NOT CALLDATASIZE ADD SLT PUSH2 0x9B JUMPI PUSH1 0x20 SWAP1 MLOAD PUSH1 0x1 PUSH1 0x1 PUSH1 0xA0 SHL SUB PUSH32 0x0 AND DUP2 MSTORE RETURN JUMPDEST POP DUP1 REVERT JUMPDEST POP CALLVALUE PUSH2 0x9B JUMPI DUP2 PUSH1 0x3 NOT CALLDATASIZE ADD SLT PUSH2 0x9B JUMPI PUSH1 0x20 SWAP1 MLOAD PUSH1 0x1 PUSH1 0x1 PUSH1 0xA0 SHL SUB PUSH32 0x0 AND DUP2 MSTORE RETURN JUMPDEST POP CALLVALUE PUSH2 0x9B JUMPI PUSH1 0x3 NOT DUP2 DUP2 CALLDATASIZE ADD SLT PUSH2 0x142 JUMPI PUSH1 0x4 CALLDATALOAD SWAP1 PUSH8 0xFFFFFFFFFFFFFFFF DUP3 GT PUSH2 0x146 JUMPI PUSH2 0x140 SWAP1 DUP3 CALLDATASIZE SUB ADD SLT PUSH2 0x142 JUMPI PUSH1 0x24 CALLDATALOAD SWAP3 PUSH1 0x1 PUSH1 0x1 PUSH1 0xA0 SHL SUB DUP5 AND DUP5 SUB PUSH2 0x13F JUMPI POP PUSH1 0x20 SWAP3 PUSH2 0x138 SWAP2 PUSH1 0x4 ADD PUSH2 0x313 JUMP JUMPDEST SWAP1 MLOAD SWAP1 DUP2 MSTORE RETURN JUMPDEST DUP1 REVERT JUMPDEST DUP3 DUP1 REVERT JUMPDEST DUP4 DUP1 REVERT JUMPDEST POP CALLVALUE PUSH2 0x9B JUMPI PUSH1 0x20 CALLDATASIZE PUSH1 0x3 NOT ADD SLT PUSH2 0x9B JUMPI PUSH1 0x4 CALLDATALOAD SWAP1 PUSH1 0x1 PUSH1 0x1 PUSH1 0xA0 SHL SUB SWAP2 DUP3 DUP2 AND DUP1 SWAP2 SUB PUSH2 0x146 JUMPI PUSH1 0x20 SWAP1 PUSH1 0x64 PUSH12 0xFFFFFFFFFFFFFFFFFFFFFFFF PUSH1 0x1 SLOAD AND SWAP2 DUP7 DUP6 MLOAD SWAP7 DUP8 SWAP5 DUP6 SWAP4 PUSH32 0x23B872DD00000000000000000000000000000000000000000000000000000000 DUP6 MSTORE PUSH1 0x4 DUP6 ADD MSTORE ADDRESS PUSH1 0x24 DUP6 ADD MSTORE PUSH1 0x44 DUP5 ADD MSTORE PUSH32 0x0 AND GAS CALL SWAP1 DUP2 ISZERO PUSH2 0x224 JUMPI POP PUSH2 0x1F9 JUMPI POP DUP1 RETURN JUMPDEST PUSH2 0x219 SWAP1 PUSH1 0x20 RETURNDATASIZE DUP2 GT PUSH2 0x21D JUMPI JUMPDEST PUSH2 0x211 DUP2 DUP4 PUSH2 0x270 JUMP JUMPDEST DUP2 ADD SWAP1 PUSH2 0x2A8 JUMP JUMPDEST POP DUP1 RETURN JUMPDEST POP RETURNDATASIZE PUSH2 0x207 JUMP JUMPDEST MLOAD RETURNDATASIZE DUP5 DUP3 RETURNDATACOPY RETURNDATASIZE SWAP1 REVERT JUMPDEST DUP4 SWAP1 CALLVALUE PUSH2 0x9B JUMPI DUP2 PUSH1 0x3 NOT CALLDATASIZE ADD SLT PUSH2 0x9B JUMPI PUSH1 0x20 SWAP1 PUSH12 0xFFFFFFFFFFFFFFFFFFFFFFFF PUSH1 0x1 SLOAD AND DUP2 MSTORE RETURN JUMPDEST CALLDATALOAD SWAP1 PUSH1 0x1 PUSH1 0x1 PUSH1 0xA0 SHL SUB DUP3 AND DUP3 SUB PUSH2 0x26B JUMPI JUMP JUMPDEST PUSH1 0x0 DUP1 REVERT JUMPDEST SWAP1 PUSH1 0x1F DUP1 NOT SWAP2 ADD AND DUP2 ADD SWAP1 DUP2 LT PUSH8 0xFFFFFFFFFFFFFFFF DUP3 GT OR PUSH2 0x292 JUMPI PUSH1 0x40 MSTORE JUMP JUMPDEST PUSH4 0x4E487B71 PUSH1 0xE0 SHL PUSH1 0x0 MSTORE PUSH1 0x41 PUSH1 0x4 MSTORE PUSH1 0x24 PUSH1 0x0 REVERT JUMPDEST SWAP1 DUP2 PUSH1 0x20 SWAP2 SUB SLT PUSH2 0x26B JUMPI MLOAD DUP1 ISZERO ISZERO DUP2 SUB PUSH2 0x26B JUMPI SWAP1 JUMP JUMPDEST SWAP1 CALLDATALOAD PUSH1 0x1E NOT DUP3 CALLDATASIZE SUB ADD DUP2 SLT ISZERO PUSH2 0x26B JUMPI ADD PUSH1 0x20 DUP2 CALLDATALOAD SWAP2 ADD SWAP2 PUSH8 0xFFFFFFFFFFFFFFFF DUP3 GT PUSH2 0x26B JUMPI DUP2 CALLDATASIZE SUB DUP4 SGT PUSH2 0x26B JUMPI JUMP JUMPDEST SWAP1 DUP1 PUSH1 0x20 SWAP4 SWAP3 DUP2 DUP5 MSTORE DUP5 DUP5 ADD CALLDATACOPY PUSH1 0x0 DUP3 DUP3 ADD DUP5 ADD MSTORE PUSH1 0x1F ADD PUSH1 0x1F NOT AND ADD ADD SWAP1 JUMP JUMPDEST SWAP2 SWAP1 SWAP2 PUSH1 0x0 SWAP3 PUSH2 0x120 DUP3 ADD CALLDATALOAD PUSH12 0xFFFFFFFFFFFFFFFFFFFFFFFF DUP2 AND DUP1 SWAP2 SUB PUSH2 0x641 JUMPI PUSH1 0x40 SWAP1 DUP2 MLOAD SWAP3 PUSH32 0x95EA7B300000000000000000000000000000000000000000000000000000000 DUP5 MSTORE PUSH1 0x1 PUSH1 0x1 PUSH1 0xA0 SHL SUB SWAP2 DUP3 PUSH32 0x0 AND SWAP6 DUP7 PUSH1 0x4 DUP8 ADD MSTORE DUP2 PUSH1 0x24 DUP8 ADD MSTORE PUSH1 0x20 SWAP6 DUP7 DUP2 PUSH1 0x44 DUP2 DUP14 DUP10 PUSH32 0x0 AND GAS CALL DUP1 ISZERO PUSH2 0x637 JUMPI PUSH2 0x61A JUMPI JUMPDEST POP DUP5 MLOAD SWAP7 PUSH32 0x3F678E1100000000000000000000000000000000000000000000000000000000 DUP9 MSTORE DUP7 PUSH1 0x4 DUP10 ADD MSTORE PUSH2 0x41D PUSH2 0x40A DUP4 DUP1 PUSH2 0x2C0 JUMP JUMPDEST PUSH2 0x140 PUSH1 0x24 DUP13 ADD MSTORE PUSH2 0x164 DUP12 ADD SWAP2 PUSH2 0x2F2 JUMP JUMPDEST DUP11 PUSH2 0x441 PUSH2 0x42D DUP11 DUP7 ADD DUP7 PUSH2 0x2C0 JUMP JUMPDEST PUSH1 0x23 NOT DUP14 DUP7 SUB DUP2 ADD PUSH1 0x44 DUP16 ADD MSTORE SWAP5 SWAP2 PUSH2 0x2F2 JUMP JUMPDEST SWAP5 DUP8 PUSH2 0x44E DUP11 DUP8 ADD PUSH2 0x257 JUMP JUMPDEST AND PUSH1 0x64 DUP13 ADD MSTORE PUSH1 0x60 DUP6 ADD CALLDATALOAD PUSH4 0xFFFFFFFF DUP2 AND DUP1 SWAP2 SUB PUSH2 0x142 JUMPI PUSH1 0x84 DUP13 ADD MSTORE DUP8 PUSH2 0x479 PUSH1 0x80 DUP8 ADD PUSH2 0x257 JUMP JUMPDEST AND PUSH1 0xA4 DUP13 ADD MSTORE PUSH1 0xA0 DUP6 ADD CALLDATALOAD SWAP1 PUSH1 0xFF DUP3 AND DUP1 SWAP3 SUB PUSH2 0x142 JUMPI PUSH2 0x501 DUP13 SWAP7 DUP8 SWAP6 PUSH2 0x4F1 PUSH2 0x4E5 DUP16 SWAP12 PUSH2 0x4C7 SWAP1 DUP11 SWAP9 PUSH1 0xC4 DUP11 ADD MSTORE PUSH2 0x4B7 PUSH1 0xC0 DUP8 ADD DUP8 PUSH2 0x2C0 JUMP JUMPDEST SWAP1 DUP7 DUP12 DUP5 SUB ADD PUSH1 0xE4 DUP13 ADD MSTORE PUSH2 0x2F2 JUMP JUMPDEST PUSH2 0x4D4 PUSH1 0xE0 DUP7 ADD DUP7 PUSH2 0x2C0 JUMP JUMPDEST SWAP1 DUP6 DUP11 DUP5 SUB ADD PUSH2 0x104 DUP12 ADD MSTORE PUSH2 0x2F2 JUMP JUMPDEST SWAP3 PUSH2 0x100 DUP2 ADD SWAP1 PUSH2 0x2C0 JUMP JUMPDEST SWAP2 DUP7 DUP5 SUB ADD PUSH2 0x124 DUP8 ADD MSTORE PUSH2 0x2F2 JUMP JUMPDEST SWAP1 PUSH2 0x144 DUP4 ADD MSTORE SUB SWAP3 GAS CALL SWAP5 DUP6 ISZERO PUSH2 0x610 JUMPI DUP8 SWAP6 PUSH2 0x5DD JUMPI JUMPDEST POP DUP5 ISZERO PUSH2 0x580 JUMPI AND DUP6 MSTORE DUP5 DUP3 MSTORE DUP5 KECCAK256 SWAP1 DUP2 SLOAD SWAP2 PUSH9 0x10000000000000000 DUP4 LT ISZERO PUSH2 0x56C JUMPI PUSH1 0x1 DUP4 ADD DUP1 DUP3 SSTORE DUP4 LT ISZERO PUSH2 0x558 JUMPI SWAP5 DUP4 SWAP5 SWAP6 DUP2 MSTORE KECCAK256 ADD SSTORE SWAP1 JUMP JUMPDEST PUSH1 0x24 DUP7 PUSH4 0x4E487B71 PUSH1 0xE0 SHL DUP2 MSTORE PUSH1 0x32 PUSH1 0x4 MSTORE REVERT JUMPDEST PUSH1 0x24 DUP7 PUSH4 0x4E487B71 PUSH1 0xE0 SHL DUP2 MSTORE PUSH1 0x41 PUSH1 0x4 MSTORE REVERT JUMPDEST PUSH1 0x64 DUP5 DUP5 MLOAD SWAP1 PUSH32 0x8C379A000000000000000000000000000000000000000000000000000000000 DUP3 MSTORE PUSH1 0x4 DUP3 ADD MSTORE PUSH1 0x15 PUSH1 0x24 DUP3 ADD MSTORE PUSH32 0x6175746F2D617070726F76652064697361626C65640000000000000000000000 PUSH1 0x44 DUP3 ADD MSTORE REVERT JUMPDEST SWAP1 SWAP5 POP DUP4 DUP2 DUP2 RETURNDATASIZE DUP4 GT PUSH2 0x609 JUMPI JUMPDEST PUSH2 0x5F5 DUP2 DUP4 PUSH2 0x270 JUMP JUMPDEST DUP2 ADD SUB SLT PUSH2 0x605 JUMPI MLOAD SWAP4 CODESIZE PUSH2 0x51A JUMP JUMPDEST DUP7 DUP1 REVERT JUMPDEST POP RETURNDATASIZE PUSH2 0x5EB JUMP JUMPDEST DUP4 MLOAD RETURNDATASIZE DUP10 DUP3 RETURNDATACOPY RETURNDATASIZE SWAP1 REVERT JUMPDEST PUSH2 0x630 SWAP1 DUP8 RETURNDATASIZE DUP10 GT PUSH2 0x21D JUMPI PUSH2 0x211 DUP2 DUP4 PUSH2 0x270 JUMP JUMPDEST POP CODESIZE PUSH2 0x3D0 JUMP JUMPDEST DUP7 MLOAD RETURNDATASIZE DUP13 DUP3 RETURNDATACOPY RETURNDATASIZE SWAP1 REVERT JUMPDEST DUP5 DUP1 REVERT INVALID LOG2 PUSH5 0x6970667358 0x22 SLT KECCAK256 0xB5 0xD5 0xE5 0x49 STATICCALL LOG0 CREATE PUSH15 0x6B4C0D541D8329AF501EE63625D5B8 PUSH19 0xCB2297C6DBD1556D64736F6C63430008130033 LOG2 PUSH5 0x6970667358 0x22 SLT KECCAK256 DUP12 INVALID SHL DUP11 DUP9 SWAP11 0xB5 0xEA REVERT JUMPI MUL 0xBD SWAP16 0xD2 0xD7 LOG4 0xE0 PUSH8 0x36A0BBD741BA4A4E 0xE4 0x26 0x2E DUP4 0xC5 EXP PUSH5 0x736F6C6343 STOP ADDMOD SGT STOP CALLER "},"methodIdentifiers":{"acceptOwnership()":"79ba5097","approveLINK(uint96)":"c5e14688","c_upkeep()":"2fc2a7b9","checkUpkeep(bytes)":"6e04ff0d","contractBalance()":"8b7afe2e","createUpkeep(uint96)":"8d7e6d2d","deployer()":"d5f39488","donID()":"6e74336b","farmer()":"d811fcf0","fulfillGasLimit()":"24b93e3e","handleOracleFulfillment(bytes32,bytes,bytes)":"0ca76175","humidityLimit()":"a3097139","lastUpkeepTimeStamp()":"089ea02e","latestError()":"fffeb84e","latestRequestId()":"1aa46f59","latestResponse()":"bef3a2f0","owner()":"8da5cb5b","performUpkeep(bytes)":"4585e33b","registerUpkeep((string,bytes,address,uint32,address,uint8,bytes,bytes,bytes,uint96))":"3f678e11","registry()":"7b103999","reparationValue()":"48bd6f05","request()":"338cdca1","requestCBOR()":"688ecfd1","responseCounter()":"381fc4b5","s_lastError()":"4b0795a8","s_lastRequestId()":"b1e21749","s_lastResponse()":"3944ea3a","s_requestCounter()":"48802b92","s_responseCounter()":"43cd3d86","sampleMaxSize()":"ebf14a55","sampleStorage(uint256)":"277e2213","sepoliaLINKAddress()":"1243bcc3","sepoliaRegistrarAddress()":"6baa48fe","setCBOR(bytes,uint64)":"d6134eaf","subscriptionId()":"09c1ba2e","transferOwnership(address)":"f2fde38b","updateInterval()":"fd2c80ae","upkeepCounter()":"a3d3c0d2","upkeepId()":"d2aa789f"}}}}}