{"contracts/mock/mockInstitution.sol":{"Institution":{"abi":[{"inputs":[{"internalType":"address","name":"_owner","type":"address"},{"internalType":"string","name":"_institutionName","type":"string"}],"stateMutability":"nonpayable","type":"constructor"},{"inputs":[],"name":"NotOwner","type":"error"},{"anonymous":false,"inputs":[{"indexed":false,"internalType":"address","name":"insuranceContractAddress","type":"address"}],"name":"InsuranceContractCreated","type":"event"},{"inputs":[{"internalType":"address","name":"_farmerAddr","type":"address"}],"name":"blacklistAddr","outputs":[],"stateMutability":"nonpayable","type":"function"},{"inputs":[],"name":"contractBalance","outputs":[{"internalType":"uint256","name":"","type":"uint256"}],"stateMutability":"view","type":"function"},{"inputs":[{"internalType":"address","name":"","type":"address"},{"internalType":"uint256","name":"","type":"uint256"}],"name":"contracts","outputs":[{"internalType":"contract AutomatedFunctionsConsumer","name":"","type":"address"}],"stateMutability":"view","type":"function"},{"inputs":[{"internalType":"address","name":"_deployer","type":"address"},{"internalType":"address","name":"_farmer","type":"address"},{"internalType":"uint256","name":"_humidityLimit","type":"uint256"},{"internalType":"uint256","name":"_sampleMaxSize","type":"uint256"},{"internalType":"uint256","name":"_reparationValue","type":"uint256"},{"internalType":"uint256","name":"_updateInterval","type":"uint256"},{"internalType":"address","name":"router","type":"address"},{"internalType":"uint64","name":"_subscriptionId","type":"uint64"},{"internalType":"address","name":"_registry","type":"address"},{"internalType":"address","name":"_sepoliaLINKAddress","type":"address"},{"internalType":"address","name":"_sepoliaRegistrarAddress","type":"address"},{"internalType":"uint32","name":"_fulfillGasLimit","type":"uint32"}],"name":"createInsuranceContract","outputs":[],"stateMutability":"nonpayable","type":"function"},{"inputs":[],"name":"im_owner","outputs":[{"internalType":"address","name":"","type":"address"}],"stateMutability":"view","type":"function"},{"inputs":[{"internalType":"string","name":"","type":"string"}],"name":"info","outputs":[{"internalType":"string","name":"","type":"string"}],"stateMutability":"view","type":"function"},{"inputs":[{"internalType":"uint256","name":"","type":"uint256"}],"name":"infoKeys","outputs":[{"internalType":"string","name":"","type":"string"}],"stateMutability":"view","type":"function"},{"inputs":[],"name":"institutionName","outputs":[{"internalType":"string","name":"","type":"string"}],"stateMutability":"view","type":"function"},{"inputs":[{"internalType":"string[2][]","name":"infoArray","type":"string[2][]"}],"name":"registerInfo","outputs":[],"stateMutability":"nonpayable","type":"function"},{"inputs":[{"internalType":"address","name":"","type":"address"}],"name":"whitelist","outputs":[{"internalType":"bool","name":"","type":"bool"}],"stateMutability":"view","type":"function"},{"inputs":[{"internalType":"address","name":"_farmerAddr","type":"address"}],"name":"whitelistAddr","outputs":[],"stateMutability":"nonpayable","type":"function"},{"inputs":[],"name":"withdraw","outputs":[],"stateMutability":"nonpayable","type":"function"},{"stateMutability":"payable","type":"receive"}],"evm":{"bytecode":{"linkReferences":{},"object":"60a06040523462000248576200311a803803806200001d816200024d565b928339810190604081830312620002485780516001600160a01b038116810362000248576020828101516001600160401b039391929184821162000248570193601f91818387011215620002485785518581116200021d57601f19966200008a828601891687016200024d565b938285528683830101116200024857859060005b838110620002335750506000918401015260805280519384116200021d57600054926001938481811c9116801562000212575b82821014620001fc57838111620001b1575b5080928511600114620001475750839450908392916000946200013b575b50501b916000199060031b1c1916176000555b604051612ea690816200027482396080518181816101b30152818161040601526108550152f35b01519250388062000101565b9294849081166000805284600020946000905b888383106200019657505050106200017c575b505050811b0160005562000114565b015160001960f88460031b161c191690553880806200016d565b8587015188559096019594850194879350908101906200015a565b60008052816000208480880160051c820192848910620001f2575b0160051c019085905b828110620001e5575050620000e3565b60008155018590620001d5565b92508192620001cc565b634e487b7160e01b600052602260045260246000fd5b90607f1690620000d1565b634e487b7160e01b600052604160045260246000fd5b8181018301518682018401528792016200009e565b600080fd5b6040519190601f01601f191682016001600160401b038111838210176200021d5760405256fe608060405260043610156200001d575b36156200001b57600080fd5b005b60003560e01c8063080a57f91462000ac057806317fab0a014620009e15780633a133e2c14620009075780633ccfd60b146200083857806377ad0b3414620005d05780638a699f0014620005925780638b7afe2e146200057457806390f6d378146200046d5780639b19251a146200042a578063af6081de14620003e4578063dfb50e6414620001185763ed23f8c3036200000f5734620001135760403660031901126200011357620000cf62000b01565b602435906001600160a01b038091166000526004602052604060002080548310156200011357602092620001039162000c83565b9190546040519260031b1c168152f35b600080fd5b3462000113576020366003190112620001135767ffffffffffffffff60043511620001135736602360043501121562000113576004356004013567ffffffffffffffff8111620003ce578060051b90604051906200017a602084018362000b18565b81526020810160249236848260043501011162000113578360043501915b848260043501018310620002f7575050506001600160a01b037f0000000000000000000000000000000000000000000000000000000000000000163303620002cd5760005b81518110156200001b57620002346020620001f9838562000c9c565b5101516200022460206200020e858762000c9c565b5151816040519382858094519384920162000ba5565b8101600281520301902062000cb1565b62000240818362000c9c565b51516001805468010000000000000000811015620002b8578162000268928201905562000c35565b919091620002a3576200027b9162000cb1565b60001981146200028e57600101620001dd565b82634e487b7160e01b60005260116004526000fd5b84634e487b7160e01b60005260006004526000fd5b85634e487b7160e01b60005260416004526000fd5b60046040517f30cd7471000000000000000000000000000000000000000000000000000000008152fd5b823567ffffffffffffffff8111620001135736604382600435010112156200011357604051906040820182811067ffffffffffffffff821117620003b95760405260043581016064019082368311620001135790889493929185826004350101905b83821062000377575050509082525060209384019301905062000198565b9091929394955067ffffffffffffffff823511620001135760208091620003a8368d86358860043501010162000b58565b815201910189959493929162000359565b87634e487b7160e01b60005260416004526000fd5b634e487b7160e01b600052604160045260246000fd5b3462000113576000366003190112620001135760206040516001600160a01b037f0000000000000000000000000000000000000000000000000000000000000000168152f35b346200011357602036600319011262000113576001600160a01b036200044f62000b01565b166000526003602052602060ff604060002054166040519015158152f35b346200011357602080600319360112620001135760043590600191825481101562000113576200049d9062000c35565b9190916200055e5760405191600093815491620004ba8362000bca565b80865292828116908115620005395750600114620004f7575b620004f385620004e68189038262000b18565b6040519182918262000c07565b0390f35b6000908152838120939550925b828410620005255750505081620004f393620004e6928201019385620004d3565b805485850187015292850192810162000504565b60ff191686860152505050151560051b8201019150620004e681620004f385620004d3565b634e487b7160e01b600052600060045260246000fd5b34620001135760003660031901126200011357602047604051908152f35b346200011357602036600319011262000113576001600160a01b03620005b762000b01565b166000908152600360205260409020805460ff19169055005b346200011357610180806003193601126200011357620005ef62000b01565b602435916001600160a01b039081841680940362000113576084359060c43590838216809203620001135760e4359467ffffffffffffffff808716809703620001135761010435868116809103620001135761012435878116809103620001135761014435908882168092036200011357610164359263ffffffff841680940362000113578b60005260209a60038c5260ff6040600020541615620007f457478a116200078a576040519861209f808b019788118b891017620003ce578a988d9162000dd28b391687528d8d880152604435604088015260643560608801528a608088015260a43560a088015260c087015260e0860152610100850152610120840152610140830152610160820152030191f09283156200077e5760005260048252604060002092835468010000000000000000811015620003ce576200075f817fa155a575082ecf596e5a22a44834be92670605d1d0832000305888ba02a462d9966001869401815562000c83565b939092169282549060031b9184831b921b1916179055604051908152a1005b6040513d6000823e3d90fd5b60848c6040519062461bcd60e51b82526004820152602e60248201527f4e6f7420656e6f7567682066756e647320746f2066696e616e636520496e737560448201527f72616e636520436f6e74726163740000000000000000000000000000000000006064820152fd5b60648c6040519062461bcd60e51b82526004820152601d60248201527f41646472657373206973206e6f7420696e207768697465206c6973742e0000006044820152fd5b346200011357600036600319011262000113576001600160a01b037f000000000000000000000000000000000000000000000000000000000000000016803303620002cd5760008080809347905af13d1562000901573d6200089a8162000b3b565b90620008aa604051928362000b18565b8152600060203d92013e5b15620008bd57005b606460405162461bcd60e51b815260206004820152601060248201527f5769746864726177206661696c65642e000000000000000000000000000000006044820152fd5b620008b5565b34620001135760003660031901126200011357604051600080546200092c8162000bca565b80845290600190818116908115620009b857506001146200095b575b620004f384620004e68186038262000b18565b600080805292507f290decd9548b62a8d60345a988386fc84ba6bc95484008f6362f93160ef3e5635b8284106200099f575050508101602001620004e68262000948565b8054602085870181019190915290930192810162000984565b60ff191660208087019190915292151560051b85019092019250620004e6915083905062000948565b346200011357602080600319360112620001135760043567ffffffffffffffff811162000113578162000a1d62000a3192369060040162000b58565b816040519382858094519384920162000ba5565b810160028152030190209060405190600092805462000a508162000bca565b8085529160019180831690811562000539575060011462000a7e57620004f385620004e68189038262000b18565b6000908152838120939550925b82841062000aac5750505081620004f393620004e6928201019385620004d3565b805485850187015292850192810162000a8b565b346200011357602036600319011262000113576001600160a01b0362000ae562000b01565b166000908152600360205260409020805460ff19166001179055005b600435906001600160a01b03821682036200011357565b90601f8019910116810190811067ffffffffffffffff821117620003ce57604052565b67ffffffffffffffff8111620003ce57601f01601f191660200190565b81601f82011215620001135780359062000b728262000b3b565b9262000b82604051948562000b18565b828452602083830101116200011357816000926020809301838601378301015290565b60005b83811062000bb95750506000910152565b818101518382015260200162000ba8565b90600182811c9216801562000bfc575b602083101462000be657565b634e487b7160e01b600052602260045260246000fd5b91607f169162000bda565b6040916020825262000c29815180928160208601526020868601910162000ba5565b601f01601f1916010190565b60015481101562000c6d5760016000527fb10e2d527612073b26eecdfd717e6a320cf44b4afac2b0732d9fcbe2b7fa0cf60190600090565b634e487b7160e01b600052603260045260246000fd5b805482101562000c6d5760005260206000200190600090565b805182101562000c6d5760209160051b010190565b919091825167ffffffffffffffff8111620003ce5762000cd2825462000bca565b601f811162000d84575b50602080601f831160011462000d1c57508192939460009262000d10575b50508160011b916000199060031b1c1916179055565b01519050388062000cfa565b90601f198316958460005282600020926000905b88821062000d6b5750508360019596971062000d51575b505050811b019055565b015160001960f88460031b161c1916905538808062000d47565b8060018596829496860151815501950193019062000d30565b600083815260208120601f840160051c8101926020851062000dc6575b601f0160051c01915b82811062000dba57505062000cdc565b81815560010162000daa565b909250829062000da156fe60806001600160401b03601f6200209f38819003918201601f191684019183831185841017620001d15780859261018094604052833981010312620001cc576200004982620001e7565b6200005760208401620001e7565b9260408101519060608101519260808201519160a0810151936200007e60c08301620001e7565b60e0830151978816809803620001cc576200009d6101008401620001e7565b98620000ad6101208501620001e7565b91610160620000c06101408701620001e7565b9501519763ffffffff89168903620001cc57600180556001600160a01b0396871697881562000187576bffffffff00000000000000009a88968780968c60018060a01b03199d8e60035416176003558d601c541617601c55168b601d541617601d55602055602155601f55600a551685600c541617600c5581600954991685600d541617600d551683601a541617601a551690601b541617601b5560401b169160018060601b0319161717600955426018556001600e55604051611ea29081620001fd8239f35b60405162461bcd60e51b815260206004820152601860248201527f43616e6e6f7420736574206f776e657220746f207a65726f00000000000000006044820152606490fd5b600080fd5b634e487b7160e01b600052604160045260246000fd5b51906001600160a01b0382168203620001cc5756fe6080604081815260049182361015610022575b505050361561002057600080fd5b005b600092833560e01c9182626d6cae146117bc57508163089ea02e1461179d57816309c1ba2e146117745781631243bcc31461174c5781631aa46f591461172d57816324b93e3e14611707578163277e2213146116b9578163338cdca11461160f57816336e6a92f1461147a578163381fc4b51461145b5781633944ea3a146113b157816339b0512214610f7857816343cd3d8614610f5957816348802b9214610f3a57816348bd6f0514610f1b5781634b0795a814610e715781635d641dfc14610e555781635e0611f114610e2d578163688ecfd114610e0f5781636baa48fe14610de75781636e04ff0d14610d425781636e74336b14610d2357816379ba509714610c675781637ae4e3fb14610c485781637b10399914610c205781637d95f68a14610a985781638b7afe2e14610a7d5781638da5cb5b14610a55578163947a36fb14610a365781639655e6d81461099f578163a309713914610981578163a3d3c0d214610962578163b1e2174914610943578163b8a4836e146106a4578163b997dcc21461058b578163bd4ca97b1461055a578163bef3a2f0146104b0578163d1384eb614610488578163d2aa789f14610469578163d811fcf014610441578163f2fde38b1461037457508063f5c1279b14610356578063f68016b714610332578063f887ea401461030b5763fffeb84e146102205780610012565b346103075781600319360112610307578051908260085461024081611823565b808552916001918083169081156102df5750600114610282575b50505061026c8261027e94038361185d565b51918291602083526020830190611a90565b0390f35b9450600885527ff3f7a9fe364faab93b216da50a3214154f22a0a2b415b23a84c8169e8b636ee35b8286106102c75750505061026c82602061027e958201019461025a565b805460208787018101919091529095019481016102aa565b61027e97508693506020925061026c94915060ff191682840152151560051b8201019461025a565b5080fd5b50346103075781600319360112610307576020906001600160a01b03600c54169051908152f35b503461030757816003193601126103075760209063ffffffff601054169051908152f35b50346103075781600319360112610307576020906015549051908152f35b9190503461043d57602036600319011261043d578135916001600160a01b0391828416809403610439576103a6611b82565b3384146103f657508273ffffffffffffffffffffffffffffffffffffffff19825416179055600354167fed8889f560326eb138920d842192f0eb3dd22b4f139c87a2c57538e05bae12788380a380f35b906020606492519162461bcd60e51b8352820152601760248201527f43616e6e6f74207472616e7366657220746f2073656c660000000000000000006044820152fd5b8480fd5b8280fd5b5050346103075781600319360112610307576020906001600160a01b03601d54169051908152f35b505034610307578160031936011261030757602090600e549051908152f35b5050346103075781600319360112610307576020906001600160a01b03601c54169051908152f35b505034610307578160031936011261030757805190826007546104d281611823565b808552916001918083169081156102df57506001146104fd5750505061026c8261027e94038361185d565b9450600785527fa66cc928b5edb82af9bd49922954155ab7b0942694bea4ce44661d9a8736c6885b8286106105425750505061026c82602061027e958201019461025a565b80546020878701810191909152909501948101610525565b50503461030757816003193601126103075761027e90610578611953565b9051918291602083526020830190611a90565b9190503461043d57602036600319011261043d576020548235101561061457828080806001600160a01b03601d541647905af16105c6611bda565b50156105d157505080f35b906020606492519162461bcd60e51b8352820152601b60248201527f4572726f20616f207061676172206120696e64656e697a6163616f00000000006044820152fd5b828080806001600160a01b03601c541647905af1610630611bda565b501561063b57505080f35b906020608492519162461bcd60e51b8352820152602d60248201527f4572726f20616f207265746f726e6172206f732066756e646f7320706172612060448201527f6120696e73746974756963616f000000000000000000000000000000000000006064820152fd5b83833461030757806003193601126103075767ffffffffffffffff90833582811161093f576106d69036908601611ad0565b50506001600160a01b038060035416908133141580610931575b6108f0575050600e54156108ae578051916020928381018181108382111761089b5790859184525260185442034281116107ea57600a5410156108595742601855601954600181018091116107ea57601955602435602154116000146107fd57610772906009541663ffffffff601054166011549161076d611895565b611d1a565b80601255808455601654600181018091116107ea577fd3faffad7ef1f2c31a43a6d3c3ca68805a12ad17c4e6d65ed29f86103c8a925f9495507f94d22f84ecc32bb8dd315dfdf3e823f4cb62c2eb803a2d4a470b57e7c42d5d769184916016558351908152a160ff601e5460a01c169051908152a180f35b602485601188634e487b7160e01b835252fd5b61077290740100000000000000000000000000000000000000007fffffffffffffffffffffff00ffffffffffffffffffffffffffffffffffffffff601e541617601e556009541663ffffffff601054166011549161076d611953565b6064858484519162461bcd60e51b8352820152601560248201527f54696d6520696e74657276616c206e6f74206d657400000000000000000000006044820152fd5b602486604189634e487b7160e01b835252fd5b5162461bcd60e51b8152602081850152601560248201527f55706b656570206e6f74207265676973746572656400000000000000000000006044820152606490fd5b918591606493601e54169151927f426fbc71000000000000000000000000000000000000000000000000000000008452339084015260248301526044820152fd5b5080601e54163314156106f0565b8380fd5b5050346103075781600319360112610307576020906012549051908152f35b5050346103075781600319360112610307576020906019549051908152f35b50503461030757816003193601126103075760209081549051908152f35b90503461043d578160031936011261043d57602435903583526002602052818320805482101561093f57906109d391611b66565b509067ffffffffffffffff825416906109ee600184016119ec565b9263ffffffff6003600283015492015491610a1a8451968796875260a0602088015260a0870190611a90565b9361ffff82169086015260101c16606084015260808301520390f35b505034610307578160031936011261030757602090600a549051908152f35b5050346103075781600319360112610307576020906001600160a01b03600354169051908152f35b50503461030757816003193601126103075751478152602090f35b8334610c1d57602091826003193601126103075767ffffffffffffffff813581811161093f57610acb9036908401611ad0565b929091610ad6611b82565b8311610c0a5750610ae8602454611823565b601f8111610bac575b508293601f8311600114610b2e5750928293829392610b23575b50508160011b916000199060031b1c19161760245580f35b013590508380610b0b565b601f198316947f7cd332d19b93bcabe3cce7ca0c18a052f57e5fd03b4758a09f30f5ddc4b22ec4929185905b878210610b94575050836001959610610b7a575b505050811b0160245580f35b0135600019600384901b60f8161c19169055838080610b6e565b80600184968294958701358155019501920190610b5a565b7f7cd332d19b93bcabe3cce7ca0c18a052f57e5fd03b4758a09f30f5ddc4b22ec4601f840160051c810191868510610c00575b601f0160051c01905b818110610bf55750610af1565b848155600101610be8565b9091508190610bdf565b836041602492634e487b7160e01b835252fd5b80fd5b5050346103075781600319360112610307576020906001600160a01b03600d54169051908152f35b5050346103075781600319360112610307576020906021549051908152f35b9190503461043d578260031936011261043d578154916001600160a01b03918284163303610ce057506003549273ffffffffffffffffffffffffffffffffffffffff199033828616176003551690553391167f8be0079c531659141344cd1fd0a4f28419497f9722a3daafe3b4186f6b6457e08380a380f35b906020606492519162461bcd60e51b8352820152601660248201527f4d7573742062652070726f706f736564206f776e6572000000000000000000006044820152fd5b5050346103075781600319360112610307576020906011549051908152f35b9190503461043d576020918260031936011261093f57803567ffffffffffffffff811161043957610d769036908301611b1f565b50601854420390428211610dd45750600a54109080519384928352818484015260609384518093850152815b838110610dbf575050828201840152601f01601f19168101030190f35b60808101518782018701528694508101610da2565b846011602492634e487b7160e01b835252fd5b5050346103075781600319360112610307576020906001600160a01b03601b54169051908152f35b50503461030757816003193601126103075761027e90610578611895565b5050346103075781600319360112610307576020906001600160a01b03601e54169051908152f35b5050346103075781600319360112610307576020905160018152f35b50503461030757816003193601126103075780519082601454610e9381611823565b808552916001918083169081156102df5750600114610ebe5750505061026c8261027e94038361185d565b9450601485527fce6d7b5282bd9a3661ae061feed1dbda4e52ab073b1f9285be6e155d9c38d4ec5b828610610f035750505061026c82602061027e958201019461025a565b80546020878701810191909152909501948101610ee6565b505034610307578160031936011261030757602090601f549051908152f35b5050346103075781600319360112610307576020906016549051908152f35b5050346103075781600319360112610307576020906017549051908152f35b83833461030757606036600319011261030757602480359167ffffffffffffffff9283811161043957610fae9036908701611b1f565b916044358481116113ad57610fc69036908801611b1f565b9383518181116112af57610fdb600754611823565b90601f9182811161134d575b508060208382116001146112cc5789916112c1575b508160011b916000199060031b1c1916176007555b85519182116112af578190611027600854611823565b818111611242575b5060209082116001146111c15787916111b6575b508160011b916000199060031b1c1916176008555b600b54600181018091116111a457600b55601e5460a01c60ff1661114b57602254680100000000000000008110156111395780600161109a92016022556117d6565b91909161112957507f7bab0ec163b5c132c72b8146ac4d6e067e82ed58f8b131150aa71c92589115629394956110d38461112393611c0a565b7fb8c1b3113292644df2bf7f437c82a485b897c95ec146ca6ca3dea2ec2f674ad960206022548551908152a15b6111138351948486958652850190611a90565b9083820360208501523595611a90565b0390a280f35b858088634e487b7160e01b825252fd5b5084604187634e487b7160e01b835252fd5b506111237f7bab0ec163b5c132c72b8146ac4d6e067e82ed58f8b131150aa71c92589115629394957fb8c1b3113292644df2bf7f437c82a485b897c95ec146ca6ca3dea2ec2f674ad960206021548551908152a1611100565b5084601187634e487b7160e01b835252fd5b905085015188611043565b600888527ff3f7a9fe364faab93b216da50a3214154f22a0a2b415b23a84c8169e8b636ee39150601f198316885b81811061122a57509083600194939210611211575b5050811b01600855611058565b87015160001960f88460031b161c191690558880611204565b9192602060018192868c0151815501940192016111ef565b909150600888527ff3f7a9fe364faab93b216da50a3214154f22a0a2b415b23a84c8169e8b636ee38280850160051c820192602086106112a6575b938594939291930160051c01905b818110611298575061102f565b89815584935060010161128b565b9250819261127d565b828760418a634e487b7160e01b835252fd5b90508601518a610ffc565b60078a527fa66cc928b5edb82af9bd49922954155ab7b0942694bea4ce44661d9a8736c6889150601f1983168a5b8181106113355750908360019493921061131c575b5050811b01600755611011565b88015160001960f88460031b161c191690558a8061130f565b9192602060018192868d0151815501940192016112fa565b600789527fa66cc928b5edb82af9bd49922954155ab7b0942694bea4ce44661d9a8736c6888380840160051c820192602085106113a4575b0160051c01905b8181106113995750610fe7565b89815560010161138c565b92508192611385565b8580fd5b505034610307578160031936011261030757805190826013546113d381611823565b808552916001918083169081156102df57506001146113fe5750505061026c8261027e94038361185d565b9450601385527f66de8ffda797e3de9c05e8fc57b3bf0ec28a930d40b0d285d93c06501cf6a0905b8286106114435750505061026c82602061027e958201019461025a565b80546020878701810191909152909501948101611426565b505034610307578160031936011261030757602090600b549051908152f35b8334610c1d576060366003190112610c1d5767ffffffffffffffff823581811161043d576114ab9036908501611ad0565b909360243592808416809403610439576114c3611b82565b8211610c0a57506114d5600554611823565b601f81116115b0575b5082601f821160011461153257839482939492611527575b50508160011b916000199060031b1c1916176005555b67ffffffffffffffff19600954161760095560443560115580f35b0135905084806114f6565b601f198216947f036b6384b5eca791c62761152d0c79bb0604c104a5fb6f4eb0703f3154bb3db091855b87811061159857508360019596971061157e575b505050811b0160055561150c565b0135600019600384901b60f8161c19169055848080611570565b9092602060018192868601358155019401910161155c565b7f036b6384b5eca791c62761152d0c79bb0604c104a5fb6f4eb0703f3154bb3db0601f830160051c81019160208410611605575b601f0160051c01905b8181106115fa57506114de565b8481556001016115ed565b90915081906115e4565b50503461030757816003193601126103075780519082600f5461163181611823565b808552916001918083169081156102df575060011461165c5750505061026c8261027e94038361185d565b9450600f85527f8d1108e10bcb7c27dddfc02ed9d693a074039d026cf4ea4240b40f7d581ac8025b8286106116a15750505061026c82602061027e958201019461025a565b80546020878701810191909152909501948101611684565b828434610c1d576020366003190112610c1d578235602254811015610307576116e1906117d6565b9390936116f55761027e83610578866119ec565b9080602492634e487b7160e01b825252fd5b5050346103075781600319360112610307576009548151911c63ffffffff168152602090f35b5050346103075781600319360112610307576020906006549051908152f35b5050346103075781600319360112610307576020906001600160a01b03601a54169051908152f35b50503461030757816003193601126103075760209067ffffffffffffffff600954169051908152f35b5050346103075781600319360112610307576020906018549051908152f35b849034610307578160031936011261030757602091548152f35b60225481101561180d5760226000527f61035b26e3e9eee00e0d72fd1ee8ddca6894550dca6916ea2ac6baa90d11e5100190600090565b634e487b7160e01b600052603260045260246000fd5b90600182811c92168015611853575b602083101461183d57565b634e487b7160e01b600052602260045260246000fd5b91607f1691611832565b90601f8019910116810190811067ffffffffffffffff82111761187f57604052565b634e487b7160e01b600052604160045260246000fd5b60405190600082600554916118a983611823565b8083529260019081811690811561193157506001146118d2575b506118d09250038361185d565b565b6005600090815291507f036b6384b5eca791c62761152d0c79bb0604c104a5fb6f4eb0703f3154bb3db05b84831061191657506118d09350508101602001386118c3565b81935090816020925483858a010152019101909185926118fd565b9050602092506118d094915060ff191682840152151560051b820101386118c3565b604051906000826024549161196783611823565b80835292600190818116908115611931575060011461198d57506118d09250038361185d565b6024600090815291507f7cd332d19b93bcabe3cce7ca0c18a052f57e5fd03b4758a09f30f5ddc4b22ec45b8483106119d157506118d09350508101602001386118c3565b81935090816020925483858a010152019101909185926119b8565b9060405191826000825492611a0084611823565b908184526001948581169081600014611a6d5750600114611a2a575b50506118d09250038361185d565b9093915060005260209081600020936000915b818310611a555750506118d093508201013880611a1c565b85548884018501529485019487945091830191611a3d565b9150506118d094506020925060ff191682840152151560051b8201013880611a1c565b919082519283825260005b848110611abc575050826000602080949584010152601f8019910116010190565b602081830181015184830182015201611a9b565b9181601f84011215611afe5782359167ffffffffffffffff8311611afe5760208381860195010111611afe57565b600080fd5b67ffffffffffffffff811161187f57601f01601f191660200190565b81601f82011215611afe57803590611b3682611b03565b92611b44604051948561185d565b82845260208383010111611afe57816000926020809301838601378301015290565b805482101561180d5760005260206000209060021b0190600090565b6001600160a01b03600354163303611b9657565b606460405162461bcd60e51b815260206004820152601660248201527f4f6e6c792063616c6c61626c65206279206f776e6572000000000000000000006044820152fd5b3d15611c05573d90611beb82611b03565b91611bf9604051938461185d565b82523d6000602084013e565b606090565b919091825167ffffffffffffffff811161187f57611c288254611823565b601f8111611cd2575b50602080601f8311600114611c6e575081929394600092611c63575b50508160011b916000199060031b1c1916179055565b015190503880611c4d565b90601f198316958460005282600020926000905b888210611cba57505083600195969710611ca1575b505050811b019055565b015160001960f88460031b161c19169055388080611c97565b80600185968294968601518155019501930190611c82565b600083815260208120601f840160051c81019260208510611d10575b601f0160051c01915b828110611d05575050611c31565b818155600101611cf7565b9092508290611cee565b9290926040519260a0840167ffffffffffffffff958582108783111761187f57869160405216845260208401918252604084019160019081845263ffffffff606087019316835260808601948552815496600097808955838101808211611e58578455885260026020526040882080549068010000000000000000821015611e445790611dab918582018155611b66565b979097611e3157927f1131472297a800fee664d1d89cfa8f7676ff07189ecc53f80bbb5f4969099db89897969492611dfc9260039795511667ffffffffffffffff1989541617885551908701611c0a565b61ffff6002860192511665ffffffff00008354925160101b169165ffffffffffff19161717905551910155805491818392a290565b602489634e487b7160e01b815280600452fd5b60248a634e487b7160e01b81526041600452fd5b60248a634e487b7160e01b81526011600452fdfea264697066735822122025defc40eca035afc320df3d9eff94354abf7baee6353e0756044fe8eee75e4764736f6c63430008130033a264697066735822122092951d17e87f7aff2f747c4d27f917511c426e513594bd42435b0f1fbe1ad92e64736f6c63430008130033","opcodes":"PUSH1 0xA0 PUSH1 0x40 MSTORE CALLVALUE PUSH3 0x248 JUMPI PUSH3 0x311A DUP1 CODESIZE SUB DUP1 PUSH3 0x1D DUP2 PUSH3 0x24D JUMP JUMPDEST SWAP3 DUP4 CODECOPY DUP2 ADD SWAP1 PUSH1 0x40 DUP2 DUP4 SUB SLT PUSH3 0x248 JUMPI DUP1 MLOAD PUSH1 0x1 PUSH1 0x1 PUSH1 0xA0 SHL SUB DUP2 AND DUP2 SUB PUSH3 0x248 JUMPI PUSH1 0x20 DUP3 DUP2 ADD MLOAD PUSH1 0x1 PUSH1 0x1 PUSH1 0x40 SHL SUB SWAP4 SWAP2 SWAP3 SWAP2 DUP5 DUP3 GT PUSH3 0x248 JUMPI ADD SWAP4 PUSH1 0x1F SWAP2 DUP2 DUP4 DUP8 ADD SLT ISZERO PUSH3 0x248 JUMPI DUP6 MLOAD DUP6 DUP2 GT PUSH3 0x21D JUMPI PUSH1 0x1F NOT SWAP7 PUSH3 0x8A DUP3 DUP7 ADD DUP10 AND DUP8 ADD PUSH3 0x24D JUMP JUMPDEST SWAP4 DUP3 DUP6 MSTORE DUP7 DUP4 DUP4 ADD ADD GT PUSH3 0x248 JUMPI DUP6 SWAP1 PUSH1 0x0 JUMPDEST DUP4 DUP2 LT PUSH3 0x233 JUMPI POP POP PUSH1 0x0 SWAP2 DUP5 ADD ADD MSTORE PUSH1 0x80 MSTORE DUP1 MLOAD SWAP4 DUP5 GT PUSH3 0x21D JUMPI PUSH1 0x0 SLOAD SWAP3 PUSH1 0x1 SWAP4 DUP5 DUP2 DUP2 SHR SWAP2 AND DUP1 ISZERO PUSH3 0x212 JUMPI JUMPDEST DUP3 DUP3 LT EQ PUSH3 0x1FC JUMPI DUP4 DUP2 GT PUSH3 0x1B1 JUMPI JUMPDEST POP DUP1 SWAP3 DUP6 GT PUSH1 0x1 EQ PUSH3 0x147 JUMPI POP DUP4 SWAP5 POP SWAP1 DUP4 SWAP3 SWAP2 PUSH1 0x0 SWAP5 PUSH3 0x13B JUMPI JUMPDEST POP POP SHL SWAP2 PUSH1 0x0 NOT SWAP1 PUSH1 0x3 SHL SHR NOT AND OR PUSH1 0x0 SSTORE JUMPDEST PUSH1 0x40 MLOAD PUSH2 0x2EA6 SWAP1 DUP2 PUSH3 0x274 DUP3 CODECOPY PUSH1 0x80 MLOAD DUP2 DUP2 DUP2 PUSH2 0x1B3 ADD MSTORE DUP2 DUP2 PUSH2 0x406 ADD MSTORE PUSH2 0x855 ADD MSTORE RETURN JUMPDEST ADD MLOAD SWAP3 POP CODESIZE DUP1 PUSH3 0x101 JUMP JUMPDEST SWAP3 SWAP5 DUP5 SWAP1 DUP2 AND PUSH1 0x0 DUP1 MSTORE DUP5 PUSH1 0x0 KECCAK256 SWAP5 PUSH1 0x0 SWAP1 JUMPDEST DUP9 DUP4 DUP4 LT PUSH3 0x196 JUMPI POP POP POP LT PUSH3 0x17C JUMPI JUMPDEST POP POP POP DUP2 SHL ADD PUSH1 0x0 SSTORE PUSH3 0x114 JUMP JUMPDEST ADD MLOAD PUSH1 0x0 NOT PUSH1 0xF8 DUP5 PUSH1 0x3 SHL AND SHR NOT AND SWAP1 SSTORE CODESIZE DUP1 DUP1 PUSH3 0x16D JUMP JUMPDEST DUP6 DUP8 ADD MLOAD DUP9 SSTORE SWAP1 SWAP7 ADD SWAP6 SWAP5 DUP6 ADD SWAP5 DUP8 SWAP4 POP SWAP1 DUP2 ADD SWAP1 PUSH3 0x15A JUMP JUMPDEST PUSH1 0x0 DUP1 MSTORE DUP2 PUSH1 0x0 KECCAK256 DUP5 DUP1 DUP9 ADD PUSH1 0x5 SHR DUP3 ADD SWAP3 DUP5 DUP10 LT PUSH3 0x1F2 JUMPI JUMPDEST ADD PUSH1 0x5 SHR ADD SWAP1 DUP6 SWAP1 JUMPDEST DUP3 DUP2 LT PUSH3 0x1E5 JUMPI POP POP PUSH3 0xE3 JUMP JUMPDEST PUSH1 0x0 DUP2 SSTORE ADD DUP6 SWAP1 PUSH3 0x1D5 JUMP JUMPDEST SWAP3 POP DUP2 SWAP3 PUSH3 0x1CC JUMP JUMPDEST PUSH4 0x4E487B71 PUSH1 0xE0 SHL PUSH1 0x0 MSTORE PUSH1 0x22 PUSH1 0x4 MSTORE PUSH1 0x24 PUSH1 0x0 REVERT JUMPDEST SWAP1 PUSH1 0x7F AND SWAP1 PUSH3 0xD1 JUMP JUMPDEST PUSH4 0x4E487B71 PUSH1 0xE0 SHL PUSH1 0x0 MSTORE PUSH1 0x41 PUSH1 0x4 MSTORE PUSH1 0x24 PUSH1 0x0 REVERT JUMPDEST DUP2 DUP2 ADD DUP4 ADD MLOAD DUP7 DUP3 ADD DUP5 ADD MSTORE DUP8 SWAP3 ADD PUSH3 0x9E JUMP JUMPDEST PUSH1 0x0 DUP1 REVERT JUMPDEST PUSH1 0x40 MLOAD SWAP2 SWAP1 PUSH1 0x1F ADD PUSH1 0x1F NOT AND DUP3 ADD PUSH1 0x1 PUSH1 0x1 PUSH1 0x40 SHL SUB DUP2 GT DUP4 DUP3 LT OR PUSH3 0x21D JUMPI PUSH1 0x40 MSTORE JUMP INVALID PUSH1 0x80 PUSH1 0x40 MSTORE PUSH1 0x4 CALLDATASIZE LT ISZERO PUSH3 0x1D JUMPI JUMPDEST CALLDATASIZE ISZERO PUSH3 0x1B JUMPI PUSH1 0x0 DUP1 REVERT JUMPDEST STOP JUMPDEST PUSH1 0x0 CALLDATALOAD PUSH1 0xE0 SHR DUP1 PUSH4 0x80A57F9 EQ PUSH3 0xAC0 JUMPI DUP1 PUSH4 0x17FAB0A0 EQ PUSH3 0x9E1 JUMPI DUP1 PUSH4 0x3A133E2C EQ PUSH3 0x907 JUMPI DUP1 PUSH4 0x3CCFD60B EQ PUSH3 0x838 JUMPI DUP1 PUSH4 0x77AD0B34 EQ PUSH3 0x5D0 JUMPI DUP1 PUSH4 0x8A699F00 EQ PUSH3 0x592 JUMPI DUP1 PUSH4 0x8B7AFE2E EQ PUSH3 0x574 JUMPI DUP1 PUSH4 0x90F6D378 EQ PUSH3 0x46D JUMPI DUP1 PUSH4 0x9B19251A EQ PUSH3 0x42A JUMPI DUP1 PUSH4 0xAF6081DE EQ PUSH3 0x3E4 JUMPI DUP1 PUSH4 0xDFB50E64 EQ PUSH3 0x118 JUMPI PUSH4 0xED23F8C3 SUB PUSH3 0xF JUMPI CALLVALUE PUSH3 0x113 JUMPI PUSH1 0x40 CALLDATASIZE PUSH1 0x3 NOT ADD SLT PUSH3 0x113 JUMPI PUSH3 0xCF PUSH3 0xB01 JUMP JUMPDEST PUSH1 0x24 CALLDATALOAD SWAP1 PUSH1 0x1 PUSH1 0x1 PUSH1 0xA0 SHL SUB DUP1 SWAP2 AND PUSH1 0x0 MSTORE PUSH1 0x4 PUSH1 0x20 MSTORE PUSH1 0x40 PUSH1 0x0 KECCAK256 DUP1 SLOAD DUP4 LT ISZERO PUSH3 0x113 JUMPI PUSH1 0x20 SWAP3 PUSH3 0x103 SWAP2 PUSH3 0xC83 JUMP JUMPDEST SWAP2 SWAP1 SLOAD PUSH1 0x40 MLOAD SWAP3 PUSH1 0x3 SHL SHR AND DUP2 MSTORE RETURN JUMPDEST PUSH1 0x0 DUP1 REVERT JUMPDEST CALLVALUE PUSH3 0x113 JUMPI PUSH1 0x20 CALLDATASIZE PUSH1 0x3 NOT ADD SLT PUSH3 0x113 JUMPI PUSH8 0xFFFFFFFFFFFFFFFF PUSH1 0x4 CALLDATALOAD GT PUSH3 0x113 JUMPI CALLDATASIZE PUSH1 0x23 PUSH1 0x4 CALLDATALOAD ADD SLT ISZERO PUSH3 0x113 JUMPI PUSH1 0x4 CALLDATALOAD PUSH1 0x4 ADD CALLDATALOAD PUSH8 0xFFFFFFFFFFFFFFFF DUP2 GT PUSH3 0x3CE JUMPI DUP1 PUSH1 0x5 SHL SWAP1 PUSH1 0x40 MLOAD SWAP1 PUSH3 0x17A PUSH1 0x20 DUP5 ADD DUP4 PUSH3 0xB18 JUMP JUMPDEST DUP2 MSTORE PUSH1 0x20 DUP2 ADD PUSH1 0x24 SWAP3 CALLDATASIZE DUP5 DUP3 PUSH1 0x4 CALLDATALOAD ADD ADD GT PUSH3 0x113 JUMPI DUP4 PUSH1 0x4 CALLDATALOAD ADD SWAP2 JUMPDEST DUP5 DUP3 PUSH1 0x4 CALLDATALOAD ADD ADD DUP4 LT PUSH3 0x2F7 JUMPI POP POP POP PUSH1 0x1 PUSH1 0x1 PUSH1 0xA0 SHL SUB PUSH32 0x0 AND CALLER SUB PUSH3 0x2CD JUMPI PUSH1 0x0 JUMPDEST DUP2 MLOAD DUP2 LT ISZERO PUSH3 0x1B JUMPI PUSH3 0x234 PUSH1 0x20 PUSH3 0x1F9 DUP4 DUP6 PUSH3 0xC9C JUMP JUMPDEST MLOAD ADD MLOAD PUSH3 0x224 PUSH1 0x20 PUSH3 0x20E DUP6 DUP8 PUSH3 0xC9C JUMP JUMPDEST MLOAD MLOAD DUP2 PUSH1 0x40 MLOAD SWAP4 DUP3 DUP6 DUP1 SWAP5 MLOAD SWAP4 DUP5 SWAP3 ADD PUSH3 0xBA5 JUMP JUMPDEST DUP2 ADD PUSH1 0x2 DUP2 MSTORE SUB ADD SWAP1 KECCAK256 PUSH3 0xCB1 JUMP JUMPDEST PUSH3 0x240 DUP2 DUP4 PUSH3 0xC9C JUMP JUMPDEST MLOAD MLOAD PUSH1 0x1 DUP1 SLOAD PUSH9 0x10000000000000000 DUP2 LT ISZERO PUSH3 0x2B8 JUMPI DUP2 PUSH3 0x268 SWAP3 DUP3 ADD SWAP1 SSTORE PUSH3 0xC35 JUMP JUMPDEST SWAP2 SWAP1 SWAP2 PUSH3 0x2A3 JUMPI PUSH3 0x27B SWAP2 PUSH3 0xCB1 JUMP JUMPDEST PUSH1 0x0 NOT DUP2 EQ PUSH3 0x28E JUMPI PUSH1 0x1 ADD PUSH3 0x1DD JUMP JUMPDEST DUP3 PUSH4 0x4E487B71 PUSH1 0xE0 SHL PUSH1 0x0 MSTORE PUSH1 0x11 PUSH1 0x4 MSTORE PUSH1 0x0 REVERT JUMPDEST DUP5 PUSH4 0x4E487B71 PUSH1 0xE0 SHL PUSH1 0x0 MSTORE PUSH1 0x0 PUSH1 0x4 MSTORE PUSH1 0x0 REVERT JUMPDEST DUP6 PUSH4 0x4E487B71 PUSH1 0xE0 SHL PUSH1 0x0 MSTORE PUSH1 0x41 PUSH1 0x4 MSTORE PUSH1 0x0 REVERT JUMPDEST PUSH1 0x4 PUSH1 0x40 MLOAD PUSH32 0x30CD747100000000000000000000000000000000000000000000000000000000 DUP2 MSTORE REVERT JUMPDEST DUP3 CALLDATALOAD PUSH8 0xFFFFFFFFFFFFFFFF DUP2 GT PUSH3 0x113 JUMPI CALLDATASIZE PUSH1 0x43 DUP3 PUSH1 0x4 CALLDATALOAD ADD ADD SLT ISZERO PUSH3 0x113 JUMPI PUSH1 0x40 MLOAD SWAP1 PUSH1 0x40 DUP3 ADD DUP3 DUP2 LT PUSH8 0xFFFFFFFFFFFFFFFF DUP3 GT OR PUSH3 0x3B9 JUMPI PUSH1 0x40 MSTORE PUSH1 0x4 CALLDATALOAD DUP2 ADD PUSH1 0x64 ADD SWAP1 DUP3 CALLDATASIZE DUP4 GT PUSH3 0x113 JUMPI SWAP1 DUP9 SWAP5 SWAP4 SWAP3 SWAP2 DUP6 DUP3 PUSH1 0x4 CALLDATALOAD ADD ADD SWAP1 JUMPDEST DUP4 DUP3 LT PUSH3 0x377 JUMPI POP POP POP SWAP1 DUP3 MSTORE POP PUSH1 0x20 SWAP4 DUP5 ADD SWAP4 ADD SWAP1 POP PUSH3 0x198 JUMP JUMPDEST SWAP1 SWAP2 SWAP3 SWAP4 SWAP5 SWAP6 POP PUSH8 0xFFFFFFFFFFFFFFFF DUP3 CALLDATALOAD GT PUSH3 0x113 JUMPI PUSH1 0x20 DUP1 SWAP2 PUSH3 0x3A8 CALLDATASIZE DUP14 DUP7 CALLDATALOAD DUP9 PUSH1 0x4 CALLDATALOAD ADD ADD ADD PUSH3 0xB58 JUMP JUMPDEST DUP2 MSTORE ADD SWAP2 ADD DUP10 SWAP6 SWAP5 SWAP4 SWAP3 SWAP2 PUSH3 0x359 JUMP JUMPDEST DUP8 PUSH4 0x4E487B71 PUSH1 0xE0 SHL PUSH1 0x0 MSTORE PUSH1 0x41 PUSH1 0x4 MSTORE PUSH1 0x0 REVERT JUMPDEST PUSH4 0x4E487B71 PUSH1 0xE0 SHL PUSH1 0x0 MSTORE PUSH1 0x41 PUSH1 0x4 MSTORE PUSH1 0x24 PUSH1 0x0 REVERT JUMPDEST CALLVALUE PUSH3 0x113 JUMPI PUSH1 0x0 CALLDATASIZE PUSH1 0x3 NOT ADD SLT PUSH3 0x113 JUMPI PUSH1 0x20 PUSH1 0x40 MLOAD PUSH1 0x1 PUSH1 0x1 PUSH1 0xA0 SHL SUB PUSH32 0x0 AND DUP2 MSTORE RETURN JUMPDEST CALLVALUE PUSH3 0x113 JUMPI PUSH1 0x20 CALLDATASIZE PUSH1 0x3 NOT ADD SLT PUSH3 0x113 JUMPI PUSH1 0x1 PUSH1 0x1 PUSH1 0xA0 SHL SUB PUSH3 0x44F PUSH3 0xB01 JUMP JUMPDEST AND PUSH1 0x0 MSTORE PUSH1 0x3 PUSH1 0x20 MSTORE PUSH1 0x20 PUSH1 0xFF PUSH1 0x40 PUSH1 0x0 KECCAK256 SLOAD AND PUSH1 0x40 MLOAD SWAP1 ISZERO ISZERO DUP2 MSTORE RETURN JUMPDEST CALLVALUE PUSH3 0x113 JUMPI PUSH1 0x20 DUP1 PUSH1 0x3 NOT CALLDATASIZE ADD SLT PUSH3 0x113 JUMPI PUSH1 0x4 CALLDATALOAD SWAP1 PUSH1 0x1 SWAP2 DUP3 SLOAD DUP2 LT ISZERO PUSH3 0x113 JUMPI PUSH3 0x49D SWAP1 PUSH3 0xC35 JUMP JUMPDEST SWAP2 SWAP1 SWAP2 PUSH3 0x55E JUMPI PUSH1 0x40 MLOAD SWAP2 PUSH1 0x0 SWAP4 DUP2 SLOAD SWAP2 PUSH3 0x4BA DUP4 PUSH3 0xBCA JUMP JUMPDEST DUP1 DUP7 MSTORE SWAP3 DUP3 DUP2 AND SWAP1 DUP2 ISZERO PUSH3 0x539 JUMPI POP PUSH1 0x1 EQ PUSH3 0x4F7 JUMPI JUMPDEST PUSH3 0x4F3 DUP6 PUSH3 0x4E6 DUP2 DUP10 SUB DUP3 PUSH3 0xB18 JUMP JUMPDEST PUSH1 0x40 MLOAD SWAP2 DUP3 SWAP2 DUP3 PUSH3 0xC07 JUMP JUMPDEST SUB SWAP1 RETURN JUMPDEST PUSH1 0x0 SWAP1 DUP2 MSTORE DUP4 DUP2 KECCAK256 SWAP4 SWAP6 POP SWAP3 JUMPDEST DUP3 DUP5 LT PUSH3 0x525 JUMPI POP POP POP DUP2 PUSH3 0x4F3 SWAP4 PUSH3 0x4E6 SWAP3 DUP3 ADD ADD SWAP4 DUP6 PUSH3 0x4D3 JUMP JUMPDEST DUP1 SLOAD DUP6 DUP6 ADD DUP8 ADD MSTORE SWAP3 DUP6 ADD SWAP3 DUP2 ADD PUSH3 0x504 JUMP JUMPDEST PUSH1 0xFF NOT AND DUP7 DUP7 ADD MSTORE POP POP POP ISZERO ISZERO PUSH1 0x5 SHL DUP3 ADD ADD SWAP2 POP PUSH3 0x4E6 DUP2 PUSH3 0x4F3 DUP6 PUSH3 0x4D3 JUMP JUMPDEST PUSH4 0x4E487B71 PUSH1 0xE0 SHL PUSH1 0x0 MSTORE PUSH1 0x0 PUSH1 0x4 MSTORE PUSH1 0x24 PUSH1 0x0 REVERT JUMPDEST CALLVALUE PUSH3 0x113 JUMPI PUSH1 0x0 CALLDATASIZE PUSH1 0x3 NOT ADD SLT PUSH3 0x113 JUMPI PUSH1 0x20 SELFBALANCE PUSH1 0x40 MLOAD SWAP1 DUP2 MSTORE RETURN JUMPDEST CALLVALUE PUSH3 0x113 JUMPI PUSH1 0x20 CALLDATASIZE PUSH1 0x3 NOT ADD SLT PUSH3 0x113 JUMPI PUSH1 0x1 PUSH1 0x1 PUSH1 0xA0 SHL SUB PUSH3 0x5B7 PUSH3 0xB01 JUMP JUMPDEST AND PUSH1 0x0 SWAP1 DUP2 MSTORE PUSH1 0x3 PUSH1 0x20 MSTORE PUSH1 0x40 SWAP1 KECCAK256 DUP1 SLOAD PUSH1 0xFF NOT AND SWAP1 SSTORE STOP JUMPDEST CALLVALUE PUSH3 0x113 JUMPI PUSH2 0x180 DUP1 PUSH1 0x3 NOT CALLDATASIZE ADD SLT PUSH3 0x113 JUMPI PUSH3 0x5EF PUSH3 0xB01 JUMP JUMPDEST PUSH1 0x24 CALLDATALOAD SWAP2 PUSH1 0x1 PUSH1 0x1 PUSH1 0xA0 SHL SUB SWAP1 DUP2 DUP5 AND DUP1 SWAP5 SUB PUSH3 0x113 JUMPI PUSH1 0x84 CALLDATALOAD SWAP1 PUSH1 0xC4 CALLDATALOAD SWAP1 DUP4 DUP3 AND DUP1 SWAP3 SUB PUSH3 0x113 JUMPI PUSH1 0xE4 CALLDATALOAD SWAP5 PUSH8 0xFFFFFFFFFFFFFFFF DUP1 DUP8 AND DUP1 SWAP8 SUB PUSH3 0x113 JUMPI PUSH2 0x104 CALLDATALOAD DUP7 DUP2 AND DUP1 SWAP2 SUB PUSH3 0x113 JUMPI PUSH2 0x124 CALLDATALOAD DUP8 DUP2 AND DUP1 SWAP2 SUB PUSH3 0x113 JUMPI PUSH2 0x144 CALLDATALOAD SWAP1 DUP9 DUP3 AND DUP1 SWAP3 SUB PUSH3 0x113 JUMPI PUSH2 0x164 CALLDATALOAD SWAP3 PUSH4 0xFFFFFFFF DUP5 AND DUP1 SWAP5 SUB PUSH3 0x113 JUMPI DUP12 PUSH1 0x0 MSTORE PUSH1 0x20 SWAP11 PUSH1 0x3 DUP13 MSTORE PUSH1 0xFF PUSH1 0x40 PUSH1 0x0 KECCAK256 SLOAD AND ISZERO PUSH3 0x7F4 JUMPI SELFBALANCE DUP11 GT PUSH3 0x78A JUMPI PUSH1 0x40 MLOAD SWAP9 PUSH2 0x209F DUP1 DUP12 ADD SWAP8 DUP9 GT DUP12 DUP10 LT OR PUSH3 0x3CE JUMPI DUP11 SWAP9 DUP14 SWAP2 PUSH3 0xDD2 DUP12 CODECOPY AND DUP8 MSTORE DUP14 DUP14 DUP9 ADD MSTORE PUSH1 0x44 CALLDATALOAD PUSH1 0x40 DUP9 ADD MSTORE PUSH1 0x64 CALLDATALOAD PUSH1 0x60 DUP9 ADD MSTORE DUP11 PUSH1 0x80 DUP9 ADD MSTORE PUSH1 0xA4 CALLDATALOAD PUSH1 0xA0 DUP9 ADD MSTORE PUSH1 0xC0 DUP8 ADD MSTORE PUSH1 0xE0 DUP7 ADD MSTORE PUSH2 0x100 DUP6 ADD MSTORE PUSH2 0x120 DUP5 ADD MSTORE PUSH2 0x140 DUP4 ADD MSTORE PUSH2 0x160 DUP3 ADD MSTORE SUB ADD SWAP2 CREATE SWAP3 DUP4 ISZERO PUSH3 0x77E JUMPI PUSH1 0x0 MSTORE PUSH1 0x4 DUP3 MSTORE PUSH1 0x40 PUSH1 0x0 KECCAK256 SWAP3 DUP4 SLOAD PUSH9 0x10000000000000000 DUP2 LT ISZERO PUSH3 0x3CE JUMPI PUSH3 0x75F DUP2 PUSH32 0xA155A575082ECF596E5A22A44834BE92670605D1D0832000305888BA02A462D9 SWAP7 PUSH1 0x1 DUP7 SWAP5 ADD DUP2 SSTORE PUSH3 0xC83 JUMP JUMPDEST SWAP4 SWAP1 SWAP3 AND SWAP3 DUP3 SLOAD SWAP1 PUSH1 0x3 SHL SWAP2 DUP5 DUP4 SHL SWAP3 SHL NOT AND OR SWAP1 SSTORE PUSH1 0x40 MLOAD SWAP1 DUP2 MSTORE LOG1 STOP JUMPDEST PUSH1 0x40 MLOAD RETURNDATASIZE PUSH1 0x0 DUP3 RETURNDATACOPY RETURNDATASIZE SWAP1 REVERT JUMPDEST PUSH1 0x84 DUP13 PUSH1 0x40 MLOAD SWAP1 PUSH3 0x461BCD PUSH1 0xE5 SHL DUP3 MSTORE PUSH1 0x4 DUP3 ADD MSTORE PUSH1 0x2E PUSH1 0x24 DUP3 ADD MSTORE PUSH32 0x4E6F7420656E6F7567682066756E647320746F2066696E616E636520496E7375 PUSH1 0x44 DUP3 ADD MSTORE PUSH32 0x72616E636520436F6E7472616374000000000000000000000000000000000000 PUSH1 0x64 DUP3 ADD MSTORE REVERT JUMPDEST PUSH1 0x64 DUP13 PUSH1 0x40 MLOAD SWAP1 PUSH3 0x461BCD PUSH1 0xE5 SHL DUP3 MSTORE PUSH1 0x4 DUP3 ADD MSTORE PUSH1 0x1D PUSH1 0x24 DUP3 ADD MSTORE PUSH32 0x41646472657373206973206E6F7420696E207768697465206C6973742E000000 PUSH1 0x44 DUP3 ADD MSTORE REVERT JUMPDEST CALLVALUE PUSH3 0x113 JUMPI PUSH1 0x0 CALLDATASIZE PUSH1 0x3 NOT ADD SLT PUSH3 0x113 JUMPI PUSH1 0x1 PUSH1 0x1 PUSH1 0xA0 SHL SUB PUSH32 0x0 AND DUP1 CALLER SUB PUSH3 0x2CD JUMPI PUSH1 0x0 DUP1 DUP1 DUP1 SWAP4 SELFBALANCE SWAP1 GAS CALL RETURNDATASIZE ISZERO PUSH3 0x901 JUMPI RETURNDATASIZE PUSH3 0x89A DUP2 PUSH3 0xB3B JUMP JUMPDEST SWAP1 PUSH3 0x8AA PUSH1 0x40 MLOAD SWAP3 DUP4 PUSH3 0xB18 JUMP JUMPDEST DUP2 MSTORE PUSH1 0x0 PUSH1 0x20 RETURNDATASIZE SWAP3 ADD RETURNDATACOPY JUMPDEST ISZERO PUSH3 0x8BD JUMPI STOP JUMPDEST PUSH1 0x64 PUSH1 0x40 MLOAD PUSH3 0x461BCD PUSH1 0xE5 SHL DUP2 MSTORE PUSH1 0x20 PUSH1 0x4 DUP3 ADD MSTORE PUSH1 0x10 PUSH1 0x24 DUP3 ADD MSTORE PUSH32 0x5769746864726177206661696C65642E00000000000000000000000000000000 PUSH1 0x44 DUP3 ADD MSTORE REVERT JUMPDEST PUSH3 0x8B5 JUMP JUMPDEST CALLVALUE PUSH3 0x113 JUMPI PUSH1 0x0 CALLDATASIZE PUSH1 0x3 NOT ADD SLT PUSH3 0x113 JUMPI PUSH1 0x40 MLOAD PUSH1 0x0 DUP1 SLOAD PUSH3 0x92C DUP2 PUSH3 0xBCA JUMP JUMPDEST DUP1 DUP5 MSTORE SWAP1 PUSH1 0x1 SWAP1 DUP2 DUP2 AND SWAP1 DUP2 ISZERO PUSH3 0x9B8 JUMPI POP PUSH1 0x1 EQ PUSH3 0x95B JUMPI JUMPDEST PUSH3 0x4F3 DUP5 PUSH3 0x4E6 DUP2 DUP7 SUB DUP3 PUSH3 0xB18 JUMP JUMPDEST PUSH1 0x0 DUP1 DUP1 MSTORE SWAP3 POP PUSH32 0x290DECD9548B62A8D60345A988386FC84BA6BC95484008F6362F93160EF3E563 JUMPDEST DUP3 DUP5 LT PUSH3 0x99F JUMPI POP POP POP DUP2 ADD PUSH1 0x20 ADD PUSH3 0x4E6 DUP3 PUSH3 0x948 JUMP JUMPDEST DUP1 SLOAD PUSH1 0x20 DUP6 DUP8 ADD DUP2 ADD SWAP2 SWAP1 SWAP2 MSTORE SWAP1 SWAP4 ADD SWAP3 DUP2 ADD PUSH3 0x984 JUMP JUMPDEST PUSH1 0xFF NOT AND PUSH1 0x20 DUP1 DUP8 ADD SWAP2 SWAP1 SWAP2 MSTORE SWAP3 ISZERO ISZERO PUSH1 0x5 SHL DUP6 ADD SWAP1 SWAP3 ADD SWAP3 POP PUSH3 0x4E6 SWAP2 POP DUP4 SWAP1 POP PUSH3 0x948 JUMP JUMPDEST CALLVALUE PUSH3 0x113 JUMPI PUSH1 0x20 DUP1 PUSH1 0x3 NOT CALLDATASIZE ADD SLT PUSH3 0x113 JUMPI PUSH1 0x4 CALLDATALOAD PUSH8 0xFFFFFFFFFFFFFFFF DUP2 GT PUSH3 0x113 JUMPI DUP2 PUSH3 0xA1D PUSH3 0xA31 SWAP3 CALLDATASIZE SWAP1 PUSH1 0x4 ADD PUSH3 0xB58 JUMP JUMPDEST DUP2 PUSH1 0x40 MLOAD SWAP4 DUP3 DUP6 DUP1 SWAP5 MLOAD SWAP4 DUP5 SWAP3 ADD PUSH3 0xBA5 JUMP JUMPDEST DUP2 ADD PUSH1 0x2 DUP2 MSTORE SUB ADD SWAP1 KECCAK256 SWAP1 PUSH1 0x40 MLOAD SWAP1 PUSH1 0x0 SWAP3 DUP1 SLOAD PUSH3 0xA50 DUP2 PUSH3 0xBCA JUMP JUMPDEST DUP1 DUP6 MSTORE SWAP2 PUSH1 0x1 SWAP2 DUP1 DUP4 AND SWAP1 DUP2 ISZERO PUSH3 0x539 JUMPI POP PUSH1 0x1 EQ PUSH3 0xA7E JUMPI PUSH3 0x4F3 DUP6 PUSH3 0x4E6 DUP2 DUP10 SUB DUP3 PUSH3 0xB18 JUMP JUMPDEST PUSH1 0x0 SWAP1 DUP2 MSTORE DUP4 DUP2 KECCAK256 SWAP4 SWAP6 POP SWAP3 JUMPDEST DUP3 DUP5 LT PUSH3 0xAAC JUMPI POP POP POP DUP2 PUSH3 0x4F3 SWAP4 PUSH3 0x4E6 SWAP3 DUP3 ADD ADD SWAP4 DUP6 PUSH3 0x4D3 JUMP JUMPDEST DUP1 SLOAD DUP6 DUP6 ADD DUP8 ADD MSTORE SWAP3 DUP6 ADD SWAP3 DUP2 ADD PUSH3 0xA8B JUMP JUMPDEST CALLVALUE PUSH3 0x113 JUMPI PUSH1 0x20 CALLDATASIZE PUSH1 0x3 NOT ADD SLT PUSH3 0x113 JUMPI PUSH1 0x1 PUSH1 0x1 PUSH1 0xA0 SHL SUB PUSH3 0xAE5 PUSH3 0xB01 JUMP JUMPDEST AND PUSH1 0x0 SWAP1 DUP2 MSTORE PUSH1 0x3 PUSH1 0x20 MSTORE PUSH1 0x40 SWAP1 KECCAK256 DUP1 SLOAD PUSH1 0xFF NOT AND PUSH1 0x1 OR SWAP1 SSTORE STOP JUMPDEST PUSH1 0x4 CALLDATALOAD SWAP1 PUSH1 0x1 PUSH1 0x1 PUSH1 0xA0 SHL SUB DUP3 AND DUP3 SUB PUSH3 0x113 JUMPI JUMP JUMPDEST SWAP1 PUSH1 0x1F DUP1 NOT SWAP2 ADD AND DUP2 ADD SWAP1 DUP2 LT PUSH8 0xFFFFFFFFFFFFFFFF DUP3 GT OR PUSH3 0x3CE JUMPI PUSH1 0x40 MSTORE JUMP JUMPDEST PUSH8 0xFFFFFFFFFFFFFFFF DUP2 GT PUSH3 0x3CE JUMPI PUSH1 0x1F ADD PUSH1 0x1F NOT AND PUSH1 0x20 ADD SWAP1 JUMP JUMPDEST DUP2 PUSH1 0x1F DUP3 ADD SLT ISZERO PUSH3 0x113 JUMPI DUP1 CALLDATALOAD SWAP1 PUSH3 0xB72 DUP3 PUSH3 0xB3B JUMP JUMPDEST SWAP3 PUSH3 0xB82 PUSH1 0x40 MLOAD SWAP5 DUP6 PUSH3 0xB18 JUMP JUMPDEST DUP3 DUP5 MSTORE PUSH1 0x20 DUP4 DUP4 ADD ADD GT PUSH3 0x113 JUMPI DUP2 PUSH1 0x0 SWAP3 PUSH1 0x20 DUP1 SWAP4 ADD DUP4 DUP7 ADD CALLDATACOPY DUP4 ADD ADD MSTORE SWAP1 JUMP JUMPDEST PUSH1 0x0 JUMPDEST DUP4 DUP2 LT PUSH3 0xBB9 JUMPI POP POP PUSH1 0x0 SWAP2 ADD MSTORE JUMP JUMPDEST DUP2 DUP2 ADD MLOAD DUP4 DUP3 ADD MSTORE PUSH1 0x20 ADD PUSH3 0xBA8 JUMP JUMPDEST SWAP1 PUSH1 0x1 DUP3 DUP2 SHR SWAP3 AND DUP1 ISZERO PUSH3 0xBFC JUMPI JUMPDEST PUSH1 0x20 DUP4 LT EQ PUSH3 0xBE6 JUMPI JUMP JUMPDEST PUSH4 0x4E487B71 PUSH1 0xE0 SHL PUSH1 0x0 MSTORE PUSH1 0x22 PUSH1 0x4 MSTORE PUSH1 0x24 PUSH1 0x0 REVERT JUMPDEST SWAP2 PUSH1 0x7F AND SWAP2 PUSH3 0xBDA JUMP JUMPDEST PUSH1 0x40 SWAP2 PUSH1 0x20 DUP3 MSTORE PUSH3 0xC29 DUP2 MLOAD DUP1 SWAP3 DUP2 PUSH1 0x20 DUP7 ADD MSTORE PUSH1 0x20 DUP7 DUP7 ADD SWAP2 ADD PUSH3 0xBA5 JUMP JUMPDEST PUSH1 0x1F ADD PUSH1 0x1F NOT AND ADD ADD SWAP1 JUMP JUMPDEST PUSH1 0x1 SLOAD DUP2 LT ISZERO PUSH3 0xC6D JUMPI PUSH1 0x1 PUSH1 0x0 MSTORE PUSH32 0xB10E2D527612073B26EECDFD717E6A320CF44B4AFAC2B0732D9FCBE2B7FA0CF6 ADD SWAP1 PUSH1 0x0 SWAP1 JUMP JUMPDEST PUSH4 0x4E487B71 PUSH1 0xE0 SHL PUSH1 0x0 MSTORE PUSH1 0x32 PUSH1 0x4 MSTORE PUSH1 0x24 PUSH1 0x0 REVERT JUMPDEST DUP1 SLOAD DUP3 LT ISZERO PUSH3 0xC6D JUMPI PUSH1 0x0 MSTORE PUSH1 0x20 PUSH1 0x0 KECCAK256 ADD SWAP1 PUSH1 0x0 SWAP1 JUMP JUMPDEST DUP1 MLOAD DUP3 LT ISZERO PUSH3 0xC6D JUMPI PUSH1 0x20 SWAP2 PUSH1 0x5 SHL ADD ADD SWAP1 JUMP JUMPDEST SWAP2 SWAP1 SWAP2 DUP3 MLOAD PUSH8 0xFFFFFFFFFFFFFFFF DUP2 GT PUSH3 0x3CE JUMPI PUSH3 0xCD2 DUP3 SLOAD PUSH3 0xBCA JUMP JUMPDEST PUSH1 0x1F DUP2 GT PUSH3 0xD84 JUMPI JUMPDEST POP PUSH1 0x20 DUP1 PUSH1 0x1F DUP4 GT PUSH1 0x1 EQ PUSH3 0xD1C JUMPI POP DUP2 SWAP3 SWAP4 SWAP5 PUSH1 0x0 SWAP3 PUSH3 0xD10 JUMPI JUMPDEST POP POP DUP2 PUSH1 0x1 SHL SWAP2 PUSH1 0x0 NOT SWAP1 PUSH1 0x3 SHL SHR NOT AND OR SWAP1 SSTORE JUMP JUMPDEST ADD MLOAD SWAP1 POP CODESIZE DUP1 PUSH3 0xCFA JUMP JUMPDEST SWAP1 PUSH1 0x1F NOT DUP4 AND SWAP6 DUP5 PUSH1 0x0 MSTORE DUP3 PUSH1 0x0 KECCAK256 SWAP3 PUSH1 0x0 SWAP1 JUMPDEST DUP9 DUP3 LT PUSH3 0xD6B JUMPI POP POP DUP4 PUSH1 0x1 SWAP6 SWAP7 SWAP8 LT PUSH3 0xD51 JUMPI JUMPDEST POP POP POP DUP2 SHL ADD SWAP1 SSTORE JUMP JUMPDEST ADD MLOAD PUSH1 0x0 NOT PUSH1 0xF8 DUP5 PUSH1 0x3 SHL AND SHR NOT AND SWAP1 SSTORE CODESIZE DUP1 DUP1 PUSH3 0xD47 JUMP JUMPDEST DUP1 PUSH1 0x1 DUP6 SWAP7 DUP3 SWAP5 SWAP7 DUP7 ADD MLOAD DUP2 SSTORE ADD SWAP6 ADD SWAP4 ADD SWAP1 PUSH3 0xD30 JUMP JUMPDEST PUSH1 0x0 DUP4 DUP2 MSTORE PUSH1 0x20 DUP2 KECCAK256 PUSH1 0x1F DUP5 ADD PUSH1 0x5 SHR DUP2 ADD SWAP3 PUSH1 0x20 DUP6 LT PUSH3 0xDC6 JUMPI JUMPDEST PUSH1 0x1F ADD PUSH1 0x5 SHR ADD SWAP2 JUMPDEST DUP3 DUP2 LT PUSH3 0xDBA JUMPI POP POP PUSH3 0xCDC JUMP JUMPDEST DUP2 DUP2 SSTORE PUSH1 0x1 ADD PUSH3 0xDAA JUMP JUMPDEST SWAP1 SWAP3 POP DUP3 SWAP1 PUSH3 0xDA1 JUMP INVALID PUSH1 0x80 PUSH1 0x1 PUSH1 0x1 PUSH1 0x40 SHL SUB PUSH1 0x1F PUSH3 0x209F CODESIZE DUP2 SWAP1 SUB SWAP2 DUP3 ADD PUSH1 0x1F NOT AND DUP5 ADD SWAP2 DUP4 DUP4 GT DUP6 DUP5 LT OR PUSH3 0x1D1 JUMPI DUP1 DUP6 SWAP3 PUSH2 0x180 SWAP5 PUSH1 0x40 MSTORE DUP4 CODECOPY DUP2 ADD SUB SLT PUSH3 0x1CC JUMPI PUSH3 0x49 DUP3 PUSH3 0x1E7 JUMP JUMPDEST PUSH3 0x57 PUSH1 0x20 DUP5 ADD PUSH3 0x1E7 JUMP JUMPDEST SWAP3 PUSH1 0x40 DUP2 ADD MLOAD SWAP1 PUSH1 0x60 DUP2 ADD MLOAD SWAP3 PUSH1 0x80 DUP3 ADD MLOAD SWAP2 PUSH1 0xA0 DUP2 ADD MLOAD SWAP4 PUSH3 0x7E PUSH1 0xC0 DUP4 ADD PUSH3 0x1E7 JUMP JUMPDEST PUSH1 0xE0 DUP4 ADD MLOAD SWAP8 DUP9 AND DUP1 SWAP9 SUB PUSH3 0x1CC JUMPI PUSH3 0x9D PUSH2 0x100 DUP5 ADD PUSH3 0x1E7 JUMP JUMPDEST SWAP9 PUSH3 0xAD PUSH2 0x120 DUP6 ADD PUSH3 0x1E7 JUMP JUMPDEST SWAP2 PUSH2 0x160 PUSH3 0xC0 PUSH2 0x140 DUP8 ADD PUSH3 0x1E7 JUMP JUMPDEST SWAP6 ADD MLOAD SWAP8 PUSH4 0xFFFFFFFF DUP10 AND DUP10 SUB PUSH3 0x1CC JUMPI PUSH1 0x1 DUP1 SSTORE PUSH1 0x1 PUSH1 0x1 PUSH1 0xA0 SHL SUB SWAP7 DUP8 AND SWAP8 DUP9 ISZERO PUSH3 0x187 JUMPI PUSH12 0xFFFFFFFF0000000000000000 SWAP11 DUP9 SWAP7 DUP8 DUP1 SWAP7 DUP13 PUSH1 0x1 DUP1 PUSH1 0xA0 SHL SUB NOT SWAP14 DUP15 PUSH1 0x3 SLOAD AND OR PUSH1 0x3 SSTORE DUP14 PUSH1 0x1C SLOAD AND OR PUSH1 0x1C SSTORE AND DUP12 PUSH1 0x1D SLOAD AND OR PUSH1 0x1D SSTORE PUSH1 0x20 SSTORE PUSH1 0x21 SSTORE PUSH1 0x1F SSTORE PUSH1 0xA SSTORE AND DUP6 PUSH1 0xC SLOAD AND OR PUSH1 0xC SSTORE DUP2 PUSH1 0x9 SLOAD SWAP10 AND DUP6 PUSH1 0xD SLOAD AND OR PUSH1 0xD SSTORE AND DUP4 PUSH1 0x1A SLOAD AND OR PUSH1 0x1A SSTORE AND SWAP1 PUSH1 0x1B SLOAD AND OR PUSH1 0x1B SSTORE PUSH1 0x40 SHL AND SWAP2 PUSH1 0x1 DUP1 PUSH1 0x60 SHL SUB NOT AND OR OR PUSH1 0x9 SSTORE TIMESTAMP PUSH1 0x18 SSTORE PUSH1 0x1 PUSH1 0xE SSTORE PUSH1 0x40 MLOAD PUSH2 0x1EA2 SWAP1 DUP2 PUSH3 0x1FD DUP3 CODECOPY RETURN JUMPDEST PUSH1 0x40 MLOAD PUSH3 0x461BCD PUSH1 0xE5 SHL DUP2 MSTORE PUSH1 0x20 PUSH1 0x4 DUP3 ADD MSTORE PUSH1 0x18 PUSH1 0x24 DUP3 ADD MSTORE PUSH32 0x43616E6E6F7420736574206F776E657220746F207A65726F0000000000000000 PUSH1 0x44 DUP3 ADD MSTORE PUSH1 0x64 SWAP1 REVERT JUMPDEST PUSH1 0x0 DUP1 REVERT JUMPDEST PUSH4 0x4E487B71 PUSH1 0xE0 SHL PUSH1 0x0 MSTORE PUSH1 0x41 PUSH1 0x4 MSTORE PUSH1 0x24 PUSH1 0x0 REVERT JUMPDEST MLOAD SWAP1 PUSH1 0x1 PUSH1 0x1 PUSH1 0xA0 SHL SUB DUP3 AND DUP3 SUB PUSH3 0x1CC JUMPI JUMP INVALID PUSH1 0x80 PUSH1 0x40 DUP2 DUP2 MSTORE PUSH1 0x4 SWAP2 DUP3 CALLDATASIZE LT ISZERO PUSH2 0x22 JUMPI JUMPDEST POP POP POP CALLDATASIZE ISZERO PUSH2 0x20 JUMPI PUSH1 0x0 DUP1 REVERT JUMPDEST STOP JUMPDEST PUSH1 0x0 SWAP3 DUP4 CALLDATALOAD PUSH1 0xE0 SHR SWAP2 DUP3 PUSH3 0x6D6CAE EQ PUSH2 0x17BC JUMPI POP DUP2 PUSH4 0x89EA02E EQ PUSH2 0x179D JUMPI DUP2 PUSH4 0x9C1BA2E EQ PUSH2 0x1774 JUMPI DUP2 PUSH4 0x1243BCC3 EQ PUSH2 0x174C JUMPI DUP2 PUSH4 0x1AA46F59 EQ PUSH2 0x172D JUMPI DUP2 PUSH4 0x24B93E3E EQ PUSH2 0x1707 JUMPI DUP2 PUSH4 0x277E2213 EQ PUSH2 0x16B9 JUMPI DUP2 PUSH4 0x338CDCA1 EQ PUSH2 0x160F JUMPI DUP2 PUSH4 0x36E6A92F EQ PUSH2 0x147A JUMPI DUP2 PUSH4 0x381FC4B5 EQ PUSH2 0x145B JUMPI DUP2 PUSH4 0x3944EA3A EQ PUSH2 0x13B1 JUMPI DUP2 PUSH4 0x39B05122 EQ PUSH2 0xF78 JUMPI DUP2 PUSH4 0x43CD3D86 EQ PUSH2 0xF59 JUMPI DUP2 PUSH4 0x48802B92 EQ PUSH2 0xF3A JUMPI DUP2 PUSH4 0x48BD6F05 EQ PUSH2 0xF1B JUMPI DUP2 PUSH4 0x4B0795A8 EQ PUSH2 0xE71 JUMPI DUP2 PUSH4 0x5D641DFC EQ PUSH2 0xE55 JUMPI DUP2 PUSH4 0x5E0611F1 EQ PUSH2 0xE2D JUMPI DUP2 PUSH4 0x688ECFD1 EQ PUSH2 0xE0F JUMPI DUP2 PUSH4 0x6BAA48FE EQ PUSH2 0xDE7 JUMPI DUP2 PUSH4 0x6E04FF0D EQ PUSH2 0xD42 JUMPI DUP2 PUSH4 0x6E74336B EQ PUSH2 0xD23 JUMPI DUP2 PUSH4 0x79BA5097 EQ PUSH2 0xC67 JUMPI DUP2 PUSH4 0x7AE4E3FB EQ PUSH2 0xC48 JUMPI DUP2 PUSH4 0x7B103999 EQ PUSH2 0xC20 JUMPI DUP2 PUSH4 0x7D95F68A EQ PUSH2 0xA98 JUMPI DUP2 PUSH4 0x8B7AFE2E EQ PUSH2 0xA7D JUMPI DUP2 PUSH4 0x8DA5CB5B EQ PUSH2 0xA55 JUMPI DUP2 PUSH4 0x947A36FB EQ PUSH2 0xA36 JUMPI DUP2 PUSH4 0x9655E6D8 EQ PUSH2 0x99F JUMPI DUP2 PUSH4 0xA3097139 EQ PUSH2 0x981 JUMPI DUP2 PUSH4 0xA3D3C0D2 EQ PUSH2 0x962 JUMPI DUP2 PUSH4 0xB1E21749 EQ PUSH2 0x943 JUMPI DUP2 PUSH4 0xB8A4836E EQ PUSH2 0x6A4 JUMPI DUP2 PUSH4 0xB997DCC2 EQ PUSH2 0x58B JUMPI DUP2 PUSH4 0xBD4CA97B EQ PUSH2 0x55A JUMPI DUP2 PUSH4 0xBEF3A2F0 EQ PUSH2 0x4B0 JUMPI DUP2 PUSH4 0xD1384EB6 EQ PUSH2 0x488 JUMPI DUP2 PUSH4 0xD2AA789F EQ PUSH2 0x469 JUMPI DUP2 PUSH4 0xD811FCF0 EQ PUSH2 0x441 JUMPI DUP2 PUSH4 0xF2FDE38B EQ PUSH2 0x374 JUMPI POP DUP1 PUSH4 0xF5C1279B EQ PUSH2 0x356 JUMPI DUP1 PUSH4 0xF68016B7 EQ PUSH2 0x332 JUMPI DUP1 PUSH4 0xF887EA40 EQ PUSH2 0x30B JUMPI PUSH4 0xFFFEB84E EQ PUSH2 0x220 JUMPI DUP1 PUSH2 0x12 JUMP JUMPDEST CALLVALUE PUSH2 0x307 JUMPI DUP2 PUSH1 0x3 NOT CALLDATASIZE ADD SLT PUSH2 0x307 JUMPI DUP1 MLOAD SWAP1 DUP3 PUSH1 0x8 SLOAD PUSH2 0x240 DUP2 PUSH2 0x1823 JUMP JUMPDEST DUP1 DUP6 MSTORE SWAP2 PUSH1 0x1 SWAP2 DUP1 DUP4 AND SWAP1 DUP2 ISZERO PUSH2 0x2DF JUMPI POP PUSH1 0x1 EQ PUSH2 0x282 JUMPI JUMPDEST POP POP POP PUSH2 0x26C DUP3 PUSH2 0x27E SWAP5 SUB DUP4 PUSH2 0x185D JUMP JUMPDEST MLOAD SWAP2 DUP3 SWAP2 PUSH1 0x20 DUP4 MSTORE PUSH1 0x20 DUP4 ADD SWAP1 PUSH2 0x1A90 JUMP JUMPDEST SUB SWAP1 RETURN JUMPDEST SWAP5 POP PUSH1 0x8 DUP6 MSTORE PUSH32 0xF3F7A9FE364FAAB93B216DA50A3214154F22A0A2B415B23A84C8169E8B636EE3 JUMPDEST DUP3 DUP7 LT PUSH2 0x2C7 JUMPI POP POP POP PUSH2 0x26C DUP3 PUSH1 0x20 PUSH2 0x27E SWAP6 DUP3 ADD ADD SWAP5 PUSH2 0x25A JUMP JUMPDEST DUP1 SLOAD PUSH1 0x20 DUP8 DUP8 ADD DUP2 ADD SWAP2 SWAP1 SWAP2 MSTORE SWAP1 SWAP6 ADD SWAP5 DUP2 ADD PUSH2 0x2AA JUMP JUMPDEST PUSH2 0x27E SWAP8 POP DUP7 SWAP4 POP PUSH1 0x20 SWAP3 POP PUSH2 0x26C SWAP5 SWAP2 POP PUSH1 0xFF NOT AND DUP3 DUP5 ADD MSTORE ISZERO ISZERO PUSH1 0x5 SHL DUP3 ADD ADD SWAP5 PUSH2 0x25A JUMP JUMPDEST POP DUP1 REVERT JUMPDEST POP CALLVALUE PUSH2 0x307 JUMPI DUP2 PUSH1 0x3 NOT CALLDATASIZE ADD SLT PUSH2 0x307 JUMPI PUSH1 0x20 SWAP1 PUSH1 0x1 PUSH1 0x1 PUSH1 0xA0 SHL SUB PUSH1 0xC SLOAD AND SWAP1 MLOAD SWAP1 DUP2 MSTORE RETURN JUMPDEST POP CALLVALUE PUSH2 0x307 JUMPI DUP2 PUSH1 0x3 NOT CALLDATASIZE ADD SLT PUSH2 0x307 JUMPI PUSH1 0x20 SWAP1 PUSH4 0xFFFFFFFF PUSH1 0x10 SLOAD AND SWAP1 MLOAD SWAP1 DUP2 MSTORE RETURN JUMPDEST POP CALLVALUE PUSH2 0x307 JUMPI DUP2 PUSH1 0x3 NOT CALLDATASIZE ADD SLT PUSH2 0x307 JUMPI PUSH1 0x20 SWAP1 PUSH1 0x15 SLOAD SWAP1 MLOAD SWAP1 DUP2 MSTORE RETURN JUMPDEST SWAP2 SWAP1 POP CALLVALUE PUSH2 0x43D JUMPI PUSH1 0x20 CALLDATASIZE PUSH1 0x3 NOT ADD SLT PUSH2 0x43D JUMPI DUP2 CALLDATALOAD SWAP2 PUSH1 0x1 PUSH1 0x1 PUSH1 0xA0 SHL SUB SWAP2 DUP3 DUP5 AND DUP1 SWAP5 SUB PUSH2 0x439 JUMPI PUSH2 0x3A6 PUSH2 0x1B82 JUMP JUMPDEST CALLER DUP5 EQ PUSH2 0x3F6 JUMPI POP DUP3 PUSH20 0xFFFFFFFFFFFFFFFFFFFFFFFFFFFFFFFFFFFFFFFF NOT DUP3 SLOAD AND OR SWAP1 SSTORE PUSH1 0x3 SLOAD AND PUSH32 0xED8889F560326EB138920D842192F0EB3DD22B4F139C87A2C57538E05BAE1278 DUP4 DUP1 LOG3 DUP1 RETURN JUMPDEST SWAP1 PUSH1 0x20 PUSH1 0x64 SWAP3 MLOAD SWAP2 PUSH3 0x461BCD PUSH1 0xE5 SHL DUP4 MSTORE DUP3 ADD MSTORE PUSH1 0x17 PUSH1 0x24 DUP3 ADD MSTORE PUSH32 0x43616E6E6F74207472616E7366657220746F2073656C66000000000000000000 PUSH1 0x44 DUP3 ADD MSTORE REVERT JUMPDEST DUP5 DUP1 REVERT JUMPDEST DUP3 DUP1 REVERT JUMPDEST POP POP CALLVALUE PUSH2 0x307 JUMPI DUP2 PUSH1 0x3 NOT CALLDATASIZE ADD SLT PUSH2 0x307 JUMPI PUSH1 0x20 SWAP1 PUSH1 0x1 PUSH1 0x1 PUSH1 0xA0 SHL SUB PUSH1 0x1D SLOAD AND SWAP1 MLOAD SWAP1 DUP2 MSTORE RETURN JUMPDEST POP POP CALLVALUE PUSH2 0x307 JUMPI DUP2 PUSH1 0x3 NOT CALLDATASIZE ADD SLT PUSH2 0x307 JUMPI PUSH1 0x20 SWAP1 PUSH1 0xE SLOAD SWAP1 MLOAD SWAP1 DUP2 MSTORE RETURN JUMPDEST POP POP CALLVALUE PUSH2 0x307 JUMPI DUP2 PUSH1 0x3 NOT CALLDATASIZE ADD SLT PUSH2 0x307 JUMPI PUSH1 0x20 SWAP1 PUSH1 0x1 PUSH1 0x1 PUSH1 0xA0 SHL SUB PUSH1 0x1C SLOAD AND SWAP1 MLOAD SWAP1 DUP2 MSTORE RETURN JUMPDEST POP POP CALLVALUE PUSH2 0x307 JUMPI DUP2 PUSH1 0x3 NOT CALLDATASIZE ADD SLT PUSH2 0x307 JUMPI DUP1 MLOAD SWAP1 DUP3 PUSH1 0x7 SLOAD PUSH2 0x4D2 DUP2 PUSH2 0x1823 JUMP JUMPDEST DUP1 DUP6 MSTORE SWAP2 PUSH1 0x1 SWAP2 DUP1 DUP4 AND SWAP1 DUP2 ISZERO PUSH2 0x2DF JUMPI POP PUSH1 0x1 EQ PUSH2 0x4FD JUMPI POP POP POP PUSH2 0x26C DUP3 PUSH2 0x27E SWAP5 SUB DUP4 PUSH2 0x185D JUMP JUMPDEST SWAP5 POP PUSH1 0x7 DUP6 MSTORE PUSH32 0xA66CC928B5EDB82AF9BD49922954155AB7B0942694BEA4CE44661D9A8736C688 JUMPDEST DUP3 DUP7 LT PUSH2 0x542 JUMPI POP POP POP PUSH2 0x26C DUP3 PUSH1 0x20 PUSH2 0x27E SWAP6 DUP3 ADD ADD SWAP5 PUSH2 0x25A JUMP JUMPDEST DUP1 SLOAD PUSH1 0x20 DUP8 DUP8 ADD DUP2 ADD SWAP2 SWAP1 SWAP2 MSTORE SWAP1 SWAP6 ADD SWAP5 DUP2 ADD PUSH2 0x525 JUMP JUMPDEST POP POP CALLVALUE PUSH2 0x307 JUMPI DUP2 PUSH1 0x3 NOT CALLDATASIZE ADD SLT PUSH2 0x307 JUMPI PUSH2 0x27E SWAP1 PUSH2 0x578 PUSH2 0x1953 JUMP JUMPDEST SWAP1 MLOAD SWAP2 DUP3 SWAP2 PUSH1 0x20 DUP4 MSTORE PUSH1 0x20 DUP4 ADD SWAP1 PUSH2 0x1A90 JUMP JUMPDEST SWAP2 SWAP1 POP CALLVALUE PUSH2 0x43D JUMPI PUSH1 0x20 CALLDATASIZE PUSH1 0x3 NOT ADD SLT PUSH2 0x43D JUMPI PUSH1 0x20 SLOAD DUP3 CALLDATALOAD LT ISZERO PUSH2 0x614 JUMPI DUP3 DUP1 DUP1 DUP1 PUSH1 0x1 PUSH1 0x1 PUSH1 0xA0 SHL SUB PUSH1 0x1D SLOAD AND SELFBALANCE SWAP1 GAS CALL PUSH2 0x5C6 PUSH2 0x1BDA JUMP JUMPDEST POP ISZERO PUSH2 0x5D1 JUMPI POP POP DUP1 RETURN JUMPDEST SWAP1 PUSH1 0x20 PUSH1 0x64 SWAP3 MLOAD SWAP2 PUSH3 0x461BCD PUSH1 0xE5 SHL DUP4 MSTORE DUP3 ADD MSTORE PUSH1 0x1B PUSH1 0x24 DUP3 ADD MSTORE PUSH32 0x4572726F20616F207061676172206120696E64656E697A6163616F0000000000 PUSH1 0x44 DUP3 ADD MSTORE REVERT JUMPDEST DUP3 DUP1 DUP1 DUP1 PUSH1 0x1 PUSH1 0x1 PUSH1 0xA0 SHL SUB PUSH1 0x1C SLOAD AND SELFBALANCE SWAP1 GAS CALL PUSH2 0x630 PUSH2 0x1BDA JUMP JUMPDEST POP ISZERO PUSH2 0x63B JUMPI POP POP DUP1 RETURN JUMPDEST SWAP1 PUSH1 0x20 PUSH1 0x84 SWAP3 MLOAD SWAP2 PUSH3 0x461BCD PUSH1 0xE5 SHL DUP4 MSTORE DUP3 ADD MSTORE PUSH1 0x2D PUSH1 0x24 DUP3 ADD MSTORE PUSH32 0x4572726F20616F207265746F726E6172206F732066756E646F73207061726120 PUSH1 0x44 DUP3 ADD MSTORE PUSH32 0x6120696E73746974756963616F00000000000000000000000000000000000000 PUSH1 0x64 DUP3 ADD MSTORE REVERT JUMPDEST DUP4 DUP4 CALLVALUE PUSH2 0x307 JUMPI DUP1 PUSH1 0x3 NOT CALLDATASIZE ADD SLT PUSH2 0x307 JUMPI PUSH8 0xFFFFFFFFFFFFFFFF SWAP1 DUP4 CALLDATALOAD DUP3 DUP2 GT PUSH2 0x93F JUMPI PUSH2 0x6D6 SWAP1 CALLDATASIZE SWAP1 DUP7 ADD PUSH2 0x1AD0 JUMP JUMPDEST POP POP PUSH1 0x1 PUSH1 0x1 PUSH1 0xA0 SHL SUB DUP1 PUSH1 0x3 SLOAD AND SWAP1 DUP2 CALLER EQ ISZERO DUP1 PUSH2 0x931 JUMPI JUMPDEST PUSH2 0x8F0 JUMPI POP POP PUSH1 0xE SLOAD ISZERO PUSH2 0x8AE JUMPI DUP1 MLOAD SWAP2 PUSH1 0x20 SWAP3 DUP4 DUP2 ADD DUP2 DUP2 LT DUP4 DUP3 GT OR PUSH2 0x89B JUMPI SWAP1 DUP6 SWAP2 DUP5 MSTORE MSTORE PUSH1 0x18 SLOAD TIMESTAMP SUB TIMESTAMP DUP2 GT PUSH2 0x7EA JUMPI PUSH1 0xA SLOAD LT ISZERO PUSH2 0x859 JUMPI TIMESTAMP PUSH1 0x18 SSTORE PUSH1 0x19 SLOAD PUSH1 0x1 DUP2 ADD DUP1 SWAP2 GT PUSH2 0x7EA JUMPI PUSH1 0x19 SSTORE PUSH1 0x24 CALLDATALOAD PUSH1 0x21 SLOAD GT PUSH1 0x0 EQ PUSH2 0x7FD JUMPI PUSH2 0x772 SWAP1 PUSH1 0x9 SLOAD AND PUSH4 0xFFFFFFFF PUSH1 0x10 SLOAD AND PUSH1 0x11 SLOAD SWAP2 PUSH2 0x76D PUSH2 0x1895 JUMP JUMPDEST PUSH2 0x1D1A JUMP JUMPDEST DUP1 PUSH1 0x12 SSTORE DUP1 DUP5 SSTORE PUSH1 0x16 SLOAD PUSH1 0x1 DUP2 ADD DUP1 SWAP2 GT PUSH2 0x7EA JUMPI PUSH32 0xD3FAFFAD7EF1F2C31A43A6D3C3CA68805A12AD17C4E6D65ED29F86103C8A925F SWAP5 SWAP6 POP PUSH32 0x94D22F84ECC32BB8DD315DFDF3E823F4CB62C2EB803A2D4A470B57E7C42D5D76 SWAP2 DUP5 SWAP2 PUSH1 0x16 SSTORE DUP4 MLOAD SWAP1 DUP2 MSTORE LOG1 PUSH1 0xFF PUSH1 0x1E SLOAD PUSH1 0xA0 SHR AND SWAP1 MLOAD SWAP1 DUP2 MSTORE LOG1 DUP1 RETURN JUMPDEST PUSH1 0x24 DUP6 PUSH1 0x11 DUP9 PUSH4 0x4E487B71 PUSH1 0xE0 SHL DUP4 MSTORE MSTORE REVERT JUMPDEST PUSH2 0x772 SWAP1 PUSH21 0x10000000000000000000000000000000000000000 PUSH32 0xFFFFFFFFFFFFFFFFFFFFFF00FFFFFFFFFFFFFFFFFFFFFFFFFFFFFFFFFFFFFFFF PUSH1 0x1E SLOAD AND OR PUSH1 0x1E SSTORE PUSH1 0x9 SLOAD AND PUSH4 0xFFFFFFFF PUSH1 0x10 SLOAD AND PUSH1 0x11 SLOAD SWAP2 PUSH2 0x76D PUSH2 0x1953 JUMP JUMPDEST PUSH1 0x64 DUP6 DUP5 DUP5 MLOAD SWAP2 PUSH3 0x461BCD PUSH1 0xE5 SHL DUP4 MSTORE DUP3 ADD MSTORE PUSH1 0x15 PUSH1 0x24 DUP3 ADD MSTORE PUSH32 0x54696D6520696E74657276616C206E6F74206D65740000000000000000000000 PUSH1 0x44 DUP3 ADD MSTORE REVERT JUMPDEST PUSH1 0x24 DUP7 PUSH1 0x41 DUP10 PUSH4 0x4E487B71 PUSH1 0xE0 SHL DUP4 MSTORE MSTORE REVERT JUMPDEST MLOAD PUSH3 0x461BCD PUSH1 0xE5 SHL DUP2 MSTORE PUSH1 0x20 DUP2 DUP6 ADD MSTORE PUSH1 0x15 PUSH1 0x24 DUP3 ADD MSTORE PUSH32 0x55706B656570206E6F7420726567697374657265640000000000000000000000 PUSH1 0x44 DUP3 ADD MSTORE PUSH1 0x64 SWAP1 REVERT JUMPDEST SWAP2 DUP6 SWAP2 PUSH1 0x64 SWAP4 PUSH1 0x1E SLOAD AND SWAP2 MLOAD SWAP3 PUSH32 0x426FBC7100000000000000000000000000000000000000000000000000000000 DUP5 MSTORE CALLER SWAP1 DUP5 ADD MSTORE PUSH1 0x24 DUP4 ADD MSTORE PUSH1 0x44 DUP3 ADD MSTORE REVERT JUMPDEST POP DUP1 PUSH1 0x1E SLOAD AND CALLER EQ ISZERO PUSH2 0x6F0 JUMP JUMPDEST DUP4 DUP1 REVERT JUMPDEST POP POP CALLVALUE PUSH2 0x307 JUMPI DUP2 PUSH1 0x3 NOT CALLDATASIZE ADD SLT PUSH2 0x307 JUMPI PUSH1 0x20 SWAP1 PUSH1 0x12 SLOAD SWAP1 MLOAD SWAP1 DUP2 MSTORE RETURN JUMPDEST POP POP CALLVALUE PUSH2 0x307 JUMPI DUP2 PUSH1 0x3 NOT CALLDATASIZE ADD SLT PUSH2 0x307 JUMPI PUSH1 0x20 SWAP1 PUSH1 0x19 SLOAD SWAP1 MLOAD SWAP1 DUP2 MSTORE RETURN JUMPDEST POP POP CALLVALUE PUSH2 0x307 JUMPI DUP2 PUSH1 0x3 NOT CALLDATASIZE ADD SLT PUSH2 0x307 JUMPI PUSH1 0x20 SWAP1 DUP2 SLOAD SWAP1 MLOAD SWAP1 DUP2 MSTORE RETURN JUMPDEST SWAP1 POP CALLVALUE PUSH2 0x43D JUMPI DUP2 PUSH1 0x3 NOT CALLDATASIZE ADD SLT PUSH2 0x43D JUMPI PUSH1 0x24 CALLDATALOAD SWAP1 CALLDATALOAD DUP4 MSTORE PUSH1 0x2 PUSH1 0x20 MSTORE DUP2 DUP4 KECCAK256 DUP1 SLOAD DUP3 LT ISZERO PUSH2 0x93F JUMPI SWAP1 PUSH2 0x9D3 SWAP2 PUSH2 0x1B66 JUMP JUMPDEST POP SWAP1 PUSH8 0xFFFFFFFFFFFFFFFF DUP3 SLOAD AND SWAP1 PUSH2 0x9EE PUSH1 0x1 DUP5 ADD PUSH2 0x19EC JUMP JUMPDEST SWAP3 PUSH4 0xFFFFFFFF PUSH1 0x3 PUSH1 0x2 DUP4 ADD SLOAD SWAP3 ADD SLOAD SWAP2 PUSH2 0xA1A DUP5 MLOAD SWAP7 DUP8 SWAP7 DUP8 MSTORE PUSH1 0xA0 PUSH1 0x20 DUP9 ADD MSTORE PUSH1 0xA0 DUP8 ADD SWAP1 PUSH2 0x1A90 JUMP JUMPDEST SWAP4 PUSH2 0xFFFF DUP3 AND SWAP1 DUP7 ADD MSTORE PUSH1 0x10 SHR AND PUSH1 0x60 DUP5 ADD MSTORE PUSH1 0x80 DUP4 ADD MSTORE SUB SWAP1 RETURN JUMPDEST POP POP CALLVALUE PUSH2 0x307 JUMPI DUP2 PUSH1 0x3 NOT CALLDATASIZE ADD SLT PUSH2 0x307 JUMPI PUSH1 0x20 SWAP1 PUSH1 0xA SLOAD SWAP1 MLOAD SWAP1 DUP2 MSTORE RETURN JUMPDEST POP POP CALLVALUE PUSH2 0x307 JUMPI DUP2 PUSH1 0x3 NOT CALLDATASIZE ADD SLT PUSH2 0x307 JUMPI PUSH1 0x20 SWAP1 PUSH1 0x1 PUSH1 0x1 PUSH1 0xA0 SHL SUB PUSH1 0x3 SLOAD AND SWAP1 MLOAD SWAP1 DUP2 MSTORE RETURN JUMPDEST POP POP CALLVALUE PUSH2 0x307 JUMPI DUP2 PUSH1 0x3 NOT CALLDATASIZE ADD SLT PUSH2 0x307 JUMPI MLOAD SELFBALANCE DUP2 MSTORE PUSH1 0x20 SWAP1 RETURN JUMPDEST DUP4 CALLVALUE PUSH2 0xC1D JUMPI PUSH1 0x20 SWAP2 DUP3 PUSH1 0x3 NOT CALLDATASIZE ADD SLT PUSH2 0x307 JUMPI PUSH8 0xFFFFFFFFFFFFFFFF DUP2 CALLDATALOAD DUP2 DUP2 GT PUSH2 0x93F JUMPI PUSH2 0xACB SWAP1 CALLDATASIZE SWAP1 DUP5 ADD PUSH2 0x1AD0 JUMP JUMPDEST SWAP3 SWAP1 SWAP2 PUSH2 0xAD6 PUSH2 0x1B82 JUMP JUMPDEST DUP4 GT PUSH2 0xC0A JUMPI POP PUSH2 0xAE8 PUSH1 0x24 SLOAD PUSH2 0x1823 JUMP JUMPDEST PUSH1 0x1F DUP2 GT PUSH2 0xBAC JUMPI JUMPDEST POP DUP3 SWAP4 PUSH1 0x1F DUP4 GT PUSH1 0x1 EQ PUSH2 0xB2E JUMPI POP SWAP3 DUP3 SWAP4 DUP3 SWAP4 SWAP3 PUSH2 0xB23 JUMPI JUMPDEST POP POP DUP2 PUSH1 0x1 SHL SWAP2 PUSH1 0x0 NOT SWAP1 PUSH1 0x3 SHL SHR NOT AND OR PUSH1 0x24 SSTORE DUP1 RETURN JUMPDEST ADD CALLDATALOAD SWAP1 POP DUP4 DUP1 PUSH2 0xB0B JUMP JUMPDEST PUSH1 0x1F NOT DUP4 AND SWAP5 PUSH32 0x7CD332D19B93BCABE3CCE7CA0C18A052F57E5FD03B4758A09F30F5DDC4B22EC4 SWAP3 SWAP2 DUP6 SWAP1 JUMPDEST DUP8 DUP3 LT PUSH2 0xB94 JUMPI POP POP DUP4 PUSH1 0x1 SWAP6 SWAP7 LT PUSH2 0xB7A JUMPI JUMPDEST POP POP POP DUP2 SHL ADD PUSH1 0x24 SSTORE DUP1 RETURN JUMPDEST ADD CALLDATALOAD PUSH1 0x0 NOT PUSH1 0x3 DUP5 SWAP1 SHL PUSH1 0xF8 AND SHR NOT AND SWAP1 SSTORE DUP4 DUP1 DUP1 PUSH2 0xB6E JUMP JUMPDEST DUP1 PUSH1 0x1 DUP5 SWAP7 DUP3 SWAP5 SWAP6 DUP8 ADD CALLDATALOAD DUP2 SSTORE ADD SWAP6 ADD SWAP3 ADD SWAP1 PUSH2 0xB5A JUMP JUMPDEST PUSH32 0x7CD332D19B93BCABE3CCE7CA0C18A052F57E5FD03B4758A09F30F5DDC4B22EC4 PUSH1 0x1F DUP5 ADD PUSH1 0x5 SHR DUP2 ADD SWAP2 DUP7 DUP6 LT PUSH2 0xC00 JUMPI JUMPDEST PUSH1 0x1F ADD PUSH1 0x5 SHR ADD SWAP1 JUMPDEST DUP2 DUP2 LT PUSH2 0xBF5 JUMPI POP PUSH2 0xAF1 JUMP JUMPDEST DUP5 DUP2 SSTORE PUSH1 0x1 ADD PUSH2 0xBE8 JUMP JUMPDEST SWAP1 SWAP2 POP DUP2 SWAP1 PUSH2 0xBDF JUMP JUMPDEST DUP4 PUSH1 0x41 PUSH1 0x24 SWAP3 PUSH4 0x4E487B71 PUSH1 0xE0 SHL DUP4 MSTORE MSTORE REVERT JUMPDEST DUP1 REVERT JUMPDEST POP POP CALLVALUE PUSH2 0x307 JUMPI DUP2 PUSH1 0x3 NOT CALLDATASIZE ADD SLT PUSH2 0x307 JUMPI PUSH1 0x20 SWAP1 PUSH1 0x1 PUSH1 0x1 PUSH1 0xA0 SHL SUB PUSH1 0xD SLOAD AND SWAP1 MLOAD SWAP1 DUP2 MSTORE RETURN JUMPDEST POP POP CALLVALUE PUSH2 0x307 JUMPI DUP2 PUSH1 0x3 NOT CALLDATASIZE ADD SLT PUSH2 0x307 JUMPI PUSH1 0x20 SWAP1 PUSH1 0x21 SLOAD SWAP1 MLOAD SWAP1 DUP2 MSTORE RETURN JUMPDEST SWAP2 SWAP1 POP CALLVALUE PUSH2 0x43D JUMPI DUP3 PUSH1 0x3 NOT CALLDATASIZE ADD SLT PUSH2 0x43D JUMPI DUP2 SLOAD SWAP2 PUSH1 0x1 PUSH1 0x1 PUSH1 0xA0 SHL SUB SWAP2 DUP3 DUP5 AND CALLER SUB PUSH2 0xCE0 JUMPI POP PUSH1 0x3 SLOAD SWAP3 PUSH20 0xFFFFFFFFFFFFFFFFFFFFFFFFFFFFFFFFFFFFFFFF NOT SWAP1 CALLER DUP3 DUP7 AND OR PUSH1 0x3 SSTORE AND SWAP1 SSTORE CALLER SWAP2 AND PUSH32 0x8BE0079C531659141344CD1FD0A4F28419497F9722A3DAAFE3B4186F6B6457E0 DUP4 DUP1 LOG3 DUP1 RETURN JUMPDEST SWAP1 PUSH1 0x20 PUSH1 0x64 SWAP3 MLOAD SWAP2 PUSH3 0x461BCD PUSH1 0xE5 SHL DUP4 MSTORE DUP3 ADD MSTORE PUSH1 0x16 PUSH1 0x24 DUP3 ADD MSTORE PUSH32 0x4D7573742062652070726F706F736564206F776E657200000000000000000000 PUSH1 0x44 DUP3 ADD MSTORE REVERT JUMPDEST POP POP CALLVALUE PUSH2 0x307 JUMPI DUP2 PUSH1 0x3 NOT CALLDATASIZE ADD SLT PUSH2 0x307 JUMPI PUSH1 0x20 SWAP1 PUSH1 0x11 SLOAD SWAP1 MLOAD SWAP1 DUP2 MSTORE RETURN JUMPDEST SWAP2 SWAP1 POP CALLVALUE PUSH2 0x43D JUMPI PUSH1 0x20 SWAP2 DUP3 PUSH1 0x3 NOT CALLDATASIZE ADD SLT PUSH2 0x93F JUMPI DUP1 CALLDATALOAD PUSH8 0xFFFFFFFFFFFFFFFF DUP2 GT PUSH2 0x439 JUMPI PUSH2 0xD76 SWAP1 CALLDATASIZE SWAP1 DUP4 ADD PUSH2 0x1B1F JUMP JUMPDEST POP PUSH1 0x18 SLOAD TIMESTAMP SUB SWAP1 TIMESTAMP DUP3 GT PUSH2 0xDD4 JUMPI POP PUSH1 0xA SLOAD LT SWAP1 DUP1 MLOAD SWAP4 DUP5 SWAP3 DUP4 MSTORE DUP2 DUP5 DUP5 ADD MSTORE PUSH1 0x60 SWAP4 DUP5 MLOAD DUP1 SWAP4 DUP6 ADD MSTORE DUP2 JUMPDEST DUP4 DUP2 LT PUSH2 0xDBF JUMPI POP POP DUP3 DUP3 ADD DUP5 ADD MSTORE PUSH1 0x1F ADD PUSH1 0x1F NOT AND DUP2 ADD SUB ADD SWAP1 RETURN JUMPDEST PUSH1 0x80 DUP2 ADD MLOAD DUP8 DUP3 ADD DUP8 ADD MSTORE DUP7 SWAP5 POP DUP2 ADD PUSH2 0xDA2 JUMP JUMPDEST DUP5 PUSH1 0x11 PUSH1 0x24 SWAP3 PUSH4 0x4E487B71 PUSH1 0xE0 SHL DUP4 MSTORE MSTORE REVERT JUMPDEST POP POP CALLVALUE PUSH2 0x307 JUMPI DUP2 PUSH1 0x3 NOT CALLDATASIZE ADD SLT PUSH2 0x307 JUMPI PUSH1 0x20 SWAP1 PUSH1 0x1 PUSH1 0x1 PUSH1 0xA0 SHL SUB PUSH1 0x1B SLOAD AND SWAP1 MLOAD SWAP1 DUP2 MSTORE RETURN JUMPDEST POP POP CALLVALUE PUSH2 0x307 JUMPI DUP2 PUSH1 0x3 NOT CALLDATASIZE ADD SLT PUSH2 0x307 JUMPI PUSH2 0x27E SWAP1 PUSH2 0x578 PUSH2 0x1895 JUMP JUMPDEST POP POP CALLVALUE PUSH2 0x307 JUMPI DUP2 PUSH1 0x3 NOT CALLDATASIZE ADD SLT PUSH2 0x307 JUMPI PUSH1 0x20 SWAP1 PUSH1 0x1 PUSH1 0x1 PUSH1 0xA0 SHL SUB PUSH1 0x1E SLOAD AND SWAP1 MLOAD SWAP1 DUP2 MSTORE RETURN JUMPDEST POP POP CALLVALUE PUSH2 0x307 JUMPI DUP2 PUSH1 0x3 NOT CALLDATASIZE ADD SLT PUSH2 0x307 JUMPI PUSH1 0x20 SWAP1 MLOAD PUSH1 0x1 DUP2 MSTORE RETURN JUMPDEST POP POP CALLVALUE PUSH2 0x307 JUMPI DUP2 PUSH1 0x3 NOT CALLDATASIZE ADD SLT PUSH2 0x307 JUMPI DUP1 MLOAD SWAP1 DUP3 PUSH1 0x14 SLOAD PUSH2 0xE93 DUP2 PUSH2 0x1823 JUMP JUMPDEST DUP1 DUP6 MSTORE SWAP2 PUSH1 0x1 SWAP2 DUP1 DUP4 AND SWAP1 DUP2 ISZERO PUSH2 0x2DF JUMPI POP PUSH1 0x1 EQ PUSH2 0xEBE JUMPI POP POP POP PUSH2 0x26C DUP3 PUSH2 0x27E SWAP5 SUB DUP4 PUSH2 0x185D JUMP JUMPDEST SWAP5 POP PUSH1 0x14 DUP6 MSTORE PUSH32 0xCE6D7B5282BD9A3661AE061FEED1DBDA4E52AB073B1F9285BE6E155D9C38D4EC JUMPDEST DUP3 DUP7 LT PUSH2 0xF03 JUMPI POP POP POP PUSH2 0x26C DUP3 PUSH1 0x20 PUSH2 0x27E SWAP6 DUP3 ADD ADD SWAP5 PUSH2 0x25A JUMP JUMPDEST DUP1 SLOAD PUSH1 0x20 DUP8 DUP8 ADD DUP2 ADD SWAP2 SWAP1 SWAP2 MSTORE SWAP1 SWAP6 ADD SWAP5 DUP2 ADD PUSH2 0xEE6 JUMP JUMPDEST POP POP CALLVALUE PUSH2 0x307 JUMPI DUP2 PUSH1 0x3 NOT CALLDATASIZE ADD SLT PUSH2 0x307 JUMPI PUSH1 0x20 SWAP1 PUSH1 0x1F SLOAD SWAP1 MLOAD SWAP1 DUP2 MSTORE RETURN JUMPDEST POP POP CALLVALUE PUSH2 0x307 JUMPI DUP2 PUSH1 0x3 NOT CALLDATASIZE ADD SLT PUSH2 0x307 JUMPI PUSH1 0x20 SWAP1 PUSH1 0x16 SLOAD SWAP1 MLOAD SWAP1 DUP2 MSTORE RETURN JUMPDEST POP POP CALLVALUE PUSH2 0x307 JUMPI DUP2 PUSH1 0x3 NOT CALLDATASIZE ADD SLT PUSH2 0x307 JUMPI PUSH1 0x20 SWAP1 PUSH1 0x17 SLOAD SWAP1 MLOAD SWAP1 DUP2 MSTORE RETURN JUMPDEST DUP4 DUP4 CALLVALUE PUSH2 0x307 JUMPI PUSH1 0x60 CALLDATASIZE PUSH1 0x3 NOT ADD SLT PUSH2 0x307 JUMPI PUSH1 0x24 DUP1 CALLDATALOAD SWAP2 PUSH8 0xFFFFFFFFFFFFFFFF SWAP3 DUP4 DUP2 GT PUSH2 0x439 JUMPI PUSH2 0xFAE SWAP1 CALLDATASIZE SWAP1 DUP8 ADD PUSH2 0x1B1F JUMP JUMPDEST SWAP2 PUSH1 0x44 CALLDATALOAD DUP5 DUP2 GT PUSH2 0x13AD JUMPI PUSH2 0xFC6 SWAP1 CALLDATASIZE SWAP1 DUP9 ADD PUSH2 0x1B1F JUMP JUMPDEST SWAP4 DUP4 MLOAD DUP2 DUP2 GT PUSH2 0x12AF JUMPI PUSH2 0xFDB PUSH1 0x7 SLOAD PUSH2 0x1823 JUMP JUMPDEST SWAP1 PUSH1 0x1F SWAP2 DUP3 DUP2 GT PUSH2 0x134D JUMPI JUMPDEST POP DUP1 PUSH1 0x20 DUP4 DUP3 GT PUSH1 0x1 EQ PUSH2 0x12CC JUMPI DUP10 SWAP2 PUSH2 0x12C1 JUMPI JUMPDEST POP DUP2 PUSH1 0x1 SHL SWAP2 PUSH1 0x0 NOT SWAP1 PUSH1 0x3 SHL SHR NOT AND OR PUSH1 0x7 SSTORE JUMPDEST DUP6 MLOAD SWAP2 DUP3 GT PUSH2 0x12AF JUMPI DUP2 SWAP1 PUSH2 0x1027 PUSH1 0x8 SLOAD PUSH2 0x1823 JUMP JUMPDEST DUP2 DUP2 GT PUSH2 0x1242 JUMPI JUMPDEST POP PUSH1 0x20 SWAP1 DUP3 GT PUSH1 0x1 EQ PUSH2 0x11C1 JUMPI DUP8 SWAP2 PUSH2 0x11B6 JUMPI JUMPDEST POP DUP2 PUSH1 0x1 SHL SWAP2 PUSH1 0x0 NOT SWAP1 PUSH1 0x3 SHL SHR NOT AND OR PUSH1 0x8 SSTORE JUMPDEST PUSH1 0xB SLOAD PUSH1 0x1 DUP2 ADD DUP1 SWAP2 GT PUSH2 0x11A4 JUMPI PUSH1 0xB SSTORE PUSH1 0x1E SLOAD PUSH1 0xA0 SHR PUSH1 0xFF AND PUSH2 0x114B JUMPI PUSH1 0x22 SLOAD PUSH9 0x10000000000000000 DUP2 LT ISZERO PUSH2 0x1139 JUMPI DUP1 PUSH1 0x1 PUSH2 0x109A SWAP3 ADD PUSH1 0x22 SSTORE PUSH2 0x17D6 JUMP JUMPDEST SWAP2 SWAP1 SWAP2 PUSH2 0x1129 JUMPI POP PUSH32 0x7BAB0EC163B5C132C72B8146AC4D6E067E82ED58F8B131150AA71C9258911562 SWAP4 SWAP5 SWAP6 PUSH2 0x10D3 DUP5 PUSH2 0x1123 SWAP4 PUSH2 0x1C0A JUMP JUMPDEST PUSH32 0xB8C1B3113292644DF2BF7F437C82A485B897C95EC146CA6CA3DEA2EC2F674AD9 PUSH1 0x20 PUSH1 0x22 SLOAD DUP6 MLOAD SWAP1 DUP2 MSTORE LOG1 JUMPDEST PUSH2 0x1113 DUP4 MLOAD SWAP5 DUP5 DUP7 SWAP6 DUP7 MSTORE DUP6 ADD SWAP1 PUSH2 0x1A90 JUMP JUMPDEST SWAP1 DUP4 DUP3 SUB PUSH1 0x20 DUP6 ADD MSTORE CALLDATALOAD SWAP6 PUSH2 0x1A90 JUMP JUMPDEST SUB SWAP1 LOG2 DUP1 RETURN JUMPDEST DUP6 DUP1 DUP9 PUSH4 0x4E487B71 PUSH1 0xE0 SHL DUP3 MSTORE MSTORE REVERT JUMPDEST POP DUP5 PUSH1 0x41 DUP8 PUSH4 0x4E487B71 PUSH1 0xE0 SHL DUP4 MSTORE MSTORE REVERT JUMPDEST POP PUSH2 0x1123 PUSH32 0x7BAB0EC163B5C132C72B8146AC4D6E067E82ED58F8B131150AA71C9258911562 SWAP4 SWAP5 SWAP6 PUSH32 0xB8C1B3113292644DF2BF7F437C82A485B897C95EC146CA6CA3DEA2EC2F674AD9 PUSH1 0x20 PUSH1 0x21 SLOAD DUP6 MLOAD SWAP1 DUP2 MSTORE LOG1 PUSH2 0x1100 JUMP JUMPDEST POP DUP5 PUSH1 0x11 DUP8 PUSH4 0x4E487B71 PUSH1 0xE0 SHL DUP4 MSTORE MSTORE REVERT JUMPDEST SWAP1 POP DUP6 ADD MLOAD DUP9 PUSH2 0x1043 JUMP JUMPDEST PUSH1 0x8 DUP9 MSTORE PUSH32 0xF3F7A9FE364FAAB93B216DA50A3214154F22A0A2B415B23A84C8169E8B636EE3 SWAP2 POP PUSH1 0x1F NOT DUP4 AND DUP9 JUMPDEST DUP2 DUP2 LT PUSH2 0x122A JUMPI POP SWAP1 DUP4 PUSH1 0x1 SWAP5 SWAP4 SWAP3 LT PUSH2 0x1211 JUMPI JUMPDEST POP POP DUP2 SHL ADD PUSH1 0x8 SSTORE PUSH2 0x1058 JUMP JUMPDEST DUP8 ADD MLOAD PUSH1 0x0 NOT PUSH1 0xF8 DUP5 PUSH1 0x3 SHL AND SHR NOT AND SWAP1 SSTORE DUP9 DUP1 PUSH2 0x1204 JUMP JUMPDEST SWAP2 SWAP3 PUSH1 0x20 PUSH1 0x1 DUP2 SWAP3 DUP7 DUP13 ADD MLOAD DUP2 SSTORE ADD SWAP5 ADD SWAP3 ADD PUSH2 0x11EF JUMP JUMPDEST SWAP1 SWAP2 POP PUSH1 0x8 DUP9 MSTORE PUSH32 0xF3F7A9FE364FAAB93B216DA50A3214154F22A0A2B415B23A84C8169E8B636EE3 DUP3 DUP1 DUP6 ADD PUSH1 0x5 SHR DUP3 ADD SWAP3 PUSH1 0x20 DUP7 LT PUSH2 0x12A6 JUMPI JUMPDEST SWAP4 DUP6 SWAP5 SWAP4 SWAP3 SWAP2 SWAP4 ADD PUSH1 0x5 SHR ADD SWAP1 JUMPDEST DUP2 DUP2 LT PUSH2 0x1298 JUMPI POP PUSH2 0x102F JUMP JUMPDEST DUP10 DUP2 SSTORE DUP5 SWAP4 POP PUSH1 0x1 ADD PUSH2 0x128B JUMP JUMPDEST SWAP3 POP DUP2 SWAP3 PUSH2 0x127D JUMP JUMPDEST DUP3 DUP8 PUSH1 0x41 DUP11 PUSH4 0x4E487B71 PUSH1 0xE0 SHL DUP4 MSTORE MSTORE REVERT JUMPDEST SWAP1 POP DUP7 ADD MLOAD DUP11 PUSH2 0xFFC JUMP JUMPDEST PUSH1 0x7 DUP11 MSTORE PUSH32 0xA66CC928B5EDB82AF9BD49922954155AB7B0942694BEA4CE44661D9A8736C688 SWAP2 POP PUSH1 0x1F NOT DUP4 AND DUP11 JUMPDEST DUP2 DUP2 LT PUSH2 0x1335 JUMPI POP SWAP1 DUP4 PUSH1 0x1 SWAP5 SWAP4 SWAP3 LT PUSH2 0x131C JUMPI JUMPDEST POP POP DUP2 SHL ADD PUSH1 0x7 SSTORE PUSH2 0x1011 JUMP JUMPDEST DUP9 ADD MLOAD PUSH1 0x0 NOT PUSH1 0xF8 DUP5 PUSH1 0x3 SHL AND SHR NOT AND SWAP1 SSTORE DUP11 DUP1 PUSH2 0x130F JUMP JUMPDEST SWAP2 SWAP3 PUSH1 0x20 PUSH1 0x1 DUP2 SWAP3 DUP7 DUP14 ADD MLOAD DUP2 SSTORE ADD SWAP5 ADD SWAP3 ADD PUSH2 0x12FA JUMP JUMPDEST PUSH1 0x7 DUP10 MSTORE PUSH32 0xA66CC928B5EDB82AF9BD49922954155AB7B0942694BEA4CE44661D9A8736C688 DUP4 DUP1 DUP5 ADD PUSH1 0x5 SHR DUP3 ADD SWAP3 PUSH1 0x20 DUP6 LT PUSH2 0x13A4 JUMPI JUMPDEST ADD PUSH1 0x5 SHR ADD SWAP1 JUMPDEST DUP2 DUP2 LT PUSH2 0x1399 JUMPI POP PUSH2 0xFE7 JUMP JUMPDEST DUP10 DUP2 SSTORE PUSH1 0x1 ADD PUSH2 0x138C JUMP JUMPDEST SWAP3 POP DUP2 SWAP3 PUSH2 0x1385 JUMP JUMPDEST DUP6 DUP1 REVERT JUMPDEST POP POP CALLVALUE PUSH2 0x307 JUMPI DUP2 PUSH1 0x3 NOT CALLDATASIZE ADD SLT PUSH2 0x307 JUMPI DUP1 MLOAD SWAP1 DUP3 PUSH1 0x13 SLOAD PUSH2 0x13D3 DUP2 PUSH2 0x1823 JUMP JUMPDEST DUP1 DUP6 MSTORE SWAP2 PUSH1 0x1 SWAP2 DUP1 DUP4 AND SWAP1 DUP2 ISZERO PUSH2 0x2DF JUMPI POP PUSH1 0x1 EQ PUSH2 0x13FE JUMPI POP POP POP PUSH2 0x26C DUP3 PUSH2 0x27E SWAP5 SUB DUP4 PUSH2 0x185D JUMP JUMPDEST SWAP5 POP PUSH1 0x13 DUP6 MSTORE PUSH32 0x66DE8FFDA797E3DE9C05E8FC57B3BF0EC28A930D40B0D285D93C06501CF6A090 JUMPDEST DUP3 DUP7 LT PUSH2 0x1443 JUMPI POP POP POP PUSH2 0x26C DUP3 PUSH1 0x20 PUSH2 0x27E SWAP6 DUP3 ADD ADD SWAP5 PUSH2 0x25A JUMP JUMPDEST DUP1 SLOAD PUSH1 0x20 DUP8 DUP8 ADD DUP2 ADD SWAP2 SWAP1 SWAP2 MSTORE SWAP1 SWAP6 ADD SWAP5 DUP2 ADD PUSH2 0x1426 JUMP JUMPDEST POP POP CALLVALUE PUSH2 0x307 JUMPI DUP2 PUSH1 0x3 NOT CALLDATASIZE ADD SLT PUSH2 0x307 JUMPI PUSH1 0x20 SWAP1 PUSH1 0xB SLOAD SWAP1 MLOAD SWAP1 DUP2 MSTORE RETURN JUMPDEST DUP4 CALLVALUE PUSH2 0xC1D JUMPI PUSH1 0x60 CALLDATASIZE PUSH1 0x3 NOT ADD SLT PUSH2 0xC1D JUMPI PUSH8 0xFFFFFFFFFFFFFFFF DUP3 CALLDATALOAD DUP2 DUP2 GT PUSH2 0x43D JUMPI PUSH2 0x14AB SWAP1 CALLDATASIZE SWAP1 DUP6 ADD PUSH2 0x1AD0 JUMP JUMPDEST SWAP1 SWAP4 PUSH1 0x24 CALLDATALOAD SWAP3 DUP1 DUP5 AND DUP1 SWAP5 SUB PUSH2 0x439 JUMPI PUSH2 0x14C3 PUSH2 0x1B82 JUMP JUMPDEST DUP3 GT PUSH2 0xC0A JUMPI POP PUSH2 0x14D5 PUSH1 0x5 SLOAD PUSH2 0x1823 JUMP JUMPDEST PUSH1 0x1F DUP2 GT PUSH2 0x15B0 JUMPI JUMPDEST POP DUP3 PUSH1 0x1F DUP3 GT PUSH1 0x1 EQ PUSH2 0x1532 JUMPI DUP4 SWAP5 DUP3 SWAP4 SWAP5 SWAP3 PUSH2 0x1527 JUMPI JUMPDEST POP POP DUP2 PUSH1 0x1 SHL SWAP2 PUSH1 0x0 NOT SWAP1 PUSH1 0x3 SHL SHR NOT AND OR PUSH1 0x5 SSTORE JUMPDEST PUSH8 0xFFFFFFFFFFFFFFFF NOT PUSH1 0x9 SLOAD AND OR PUSH1 0x9 SSTORE PUSH1 0x44 CALLDATALOAD PUSH1 0x11 SSTORE DUP1 RETURN JUMPDEST ADD CALLDATALOAD SWAP1 POP DUP5 DUP1 PUSH2 0x14F6 JUMP JUMPDEST PUSH1 0x1F NOT DUP3 AND SWAP5 PUSH32 0x36B6384B5ECA791C62761152D0C79BB0604C104A5FB6F4EB0703F3154BB3DB0 SWAP2 DUP6 JUMPDEST DUP8 DUP2 LT PUSH2 0x1598 JUMPI POP DUP4 PUSH1 0x1 SWAP6 SWAP7 SWAP8 LT PUSH2 0x157E JUMPI JUMPDEST POP POP POP DUP2 SHL ADD PUSH1 0x5 SSTORE PUSH2 0x150C JUMP JUMPDEST ADD CALLDATALOAD PUSH1 0x0 NOT PUSH1 0x3 DUP5 SWAP1 SHL PUSH1 0xF8 AND SHR NOT AND SWAP1 SSTORE DUP5 DUP1 DUP1 PUSH2 0x1570 JUMP JUMPDEST SWAP1 SWAP3 PUSH1 0x20 PUSH1 0x1 DUP2 SWAP3 DUP7 DUP7 ADD CALLDATALOAD DUP2 SSTORE ADD SWAP5 ADD SWAP2 ADD PUSH2 0x155C JUMP JUMPDEST PUSH32 0x36B6384B5ECA791C62761152D0C79BB0604C104A5FB6F4EB0703F3154BB3DB0 PUSH1 0x1F DUP4 ADD PUSH1 0x5 SHR DUP2 ADD SWAP2 PUSH1 0x20 DUP5 LT PUSH2 0x1605 JUMPI JUMPDEST PUSH1 0x1F ADD PUSH1 0x5 SHR ADD SWAP1 JUMPDEST DUP2 DUP2 LT PUSH2 0x15FA JUMPI POP PUSH2 0x14DE JUMP JUMPDEST DUP5 DUP2 SSTORE PUSH1 0x1 ADD PUSH2 0x15ED JUMP JUMPDEST SWAP1 SWAP2 POP DUP2 SWAP1 PUSH2 0x15E4 JUMP JUMPDEST POP POP CALLVALUE PUSH2 0x307 JUMPI DUP2 PUSH1 0x3 NOT CALLDATASIZE ADD SLT PUSH2 0x307 JUMPI DUP1 MLOAD SWAP1 DUP3 PUSH1 0xF SLOAD PUSH2 0x1631 DUP2 PUSH2 0x1823 JUMP JUMPDEST DUP1 DUP6 MSTORE SWAP2 PUSH1 0x1 SWAP2 DUP1 DUP4 AND SWAP1 DUP2 ISZERO PUSH2 0x2DF JUMPI POP PUSH1 0x1 EQ PUSH2 0x165C JUMPI POP POP POP PUSH2 0x26C DUP3 PUSH2 0x27E SWAP5 SUB DUP4 PUSH2 0x185D JUMP JUMPDEST SWAP5 POP PUSH1 0xF DUP6 MSTORE PUSH32 0x8D1108E10BCB7C27DDDFC02ED9D693A074039D026CF4EA4240B40F7D581AC802 JUMPDEST DUP3 DUP7 LT PUSH2 0x16A1 JUMPI POP POP POP PUSH2 0x26C DUP3 PUSH1 0x20 PUSH2 0x27E SWAP6 DUP3 ADD ADD SWAP5 PUSH2 0x25A JUMP JUMPDEST DUP1 SLOAD PUSH1 0x20 DUP8 DUP8 ADD DUP2 ADD SWAP2 SWAP1 SWAP2 MSTORE SWAP1 SWAP6 ADD SWAP5 DUP2 ADD PUSH2 0x1684 JUMP JUMPDEST DUP3 DUP5 CALLVALUE PUSH2 0xC1D JUMPI PUSH1 0x20 CALLDATASIZE PUSH1 0x3 NOT ADD SLT PUSH2 0xC1D JUMPI DUP3 CALLDATALOAD PUSH1 0x22 SLOAD DUP2 LT ISZERO PUSH2 0x307 JUMPI PUSH2 0x16E1 SWAP1 PUSH2 0x17D6 JUMP JUMPDEST SWAP4 SWAP1 SWAP4 PUSH2 0x16F5 JUMPI PUSH2 0x27E DUP4 PUSH2 0x578 DUP7 PUSH2 0x19EC JUMP JUMPDEST SWAP1 DUP1 PUSH1 0x24 SWAP3 PUSH4 0x4E487B71 PUSH1 0xE0 SHL DUP3 MSTORE MSTORE REVERT JUMPDEST POP POP CALLVALUE PUSH2 0x307 JUMPI DUP2 PUSH1 0x3 NOT CALLDATASIZE ADD SLT PUSH2 0x307 JUMPI PUSH1 0x9 SLOAD DUP2 MLOAD SWAP2 SHR PUSH4 0xFFFFFFFF AND DUP2 MSTORE PUSH1 0x20 SWAP1 RETURN JUMPDEST POP POP CALLVALUE PUSH2 0x307 JUMPI DUP2 PUSH1 0x3 NOT CALLDATASIZE ADD SLT PUSH2 0x307 JUMPI PUSH1 0x20 SWAP1 PUSH1 0x6 SLOAD SWAP1 MLOAD SWAP1 DUP2 MSTORE RETURN JUMPDEST POP POP CALLVALUE PUSH2 0x307 JUMPI DUP2 PUSH1 0x3 NOT CALLDATASIZE ADD SLT PUSH2 0x307 JUMPI PUSH1 0x20 SWAP1 PUSH1 0x1 PUSH1 0x1 PUSH1 0xA0 SHL SUB PUSH1 0x1A SLOAD AND SWAP1 MLOAD SWAP1 DUP2 MSTORE RETURN JUMPDEST POP POP CALLVALUE PUSH2 0x307 JUMPI DUP2 PUSH1 0x3 NOT CALLDATASIZE ADD SLT PUSH2 0x307 JUMPI PUSH1 0x20 SWAP1 PUSH8 0xFFFFFFFFFFFFFFFF PUSH1 0x9 SLOAD AND SWAP1 MLOAD SWAP1 DUP2 MSTORE RETURN JUMPDEST POP POP CALLVALUE PUSH2 0x307 JUMPI DUP2 PUSH1 0x3 NOT CALLDATASIZE ADD SLT PUSH2 0x307 JUMPI PUSH1 0x20 SWAP1 PUSH1 0x18 SLOAD SWAP1 MLOAD SWAP1 DUP2 MSTORE RETURN JUMPDEST DUP5 SWAP1 CALLVALUE PUSH2 0x307 JUMPI DUP2 PUSH1 0x3 NOT CALLDATASIZE ADD SLT PUSH2 0x307 JUMPI PUSH1 0x20 SWAP2 SLOAD DUP2 MSTORE RETURN JUMPDEST PUSH1 0x22 SLOAD DUP2 LT ISZERO PUSH2 0x180D JUMPI PUSH1 0x22 PUSH1 0x0 MSTORE PUSH32 0x61035B26E3E9EEE00E0D72FD1EE8DDCA6894550DCA6916EA2AC6BAA90D11E510 ADD SWAP1 PUSH1 0x0 SWAP1 JUMP JUMPDEST PUSH4 0x4E487B71 PUSH1 0xE0 SHL PUSH1 0x0 MSTORE PUSH1 0x32 PUSH1 0x4 MSTORE PUSH1 0x24 PUSH1 0x0 REVERT JUMPDEST SWAP1 PUSH1 0x1 DUP3 DUP2 SHR SWAP3 AND DUP1 ISZERO PUSH2 0x1853 JUMPI JUMPDEST PUSH1 0x20 DUP4 LT EQ PUSH2 0x183D JUMPI JUMP JUMPDEST PUSH4 0x4E487B71 PUSH1 0xE0 SHL PUSH1 0x0 MSTORE PUSH1 0x22 PUSH1 0x4 MSTORE PUSH1 0x24 PUSH1 0x0 REVERT JUMPDEST SWAP2 PUSH1 0x7F AND SWAP2 PUSH2 0x1832 JUMP JUMPDEST SWAP1 PUSH1 0x1F DUP1 NOT SWAP2 ADD AND DUP2 ADD SWAP1 DUP2 LT PUSH8 0xFFFFFFFFFFFFFFFF DUP3 GT OR PUSH2 0x187F JUMPI PUSH1 0x40 MSTORE JUMP JUMPDEST PUSH4 0x4E487B71 PUSH1 0xE0 SHL PUSH1 0x0 MSTORE PUSH1 0x41 PUSH1 0x4 MSTORE PUSH1 0x24 PUSH1 0x0 REVERT JUMPDEST PUSH1 0x40 MLOAD SWAP1 PUSH1 0x0 DUP3 PUSH1 0x5 SLOAD SWAP2 PUSH2 0x18A9 DUP4 PUSH2 0x1823 JUMP JUMPDEST DUP1 DUP4 MSTORE SWAP3 PUSH1 0x1 SWAP1 DUP2 DUP2 AND SWAP1 DUP2 ISZERO PUSH2 0x1931 JUMPI POP PUSH1 0x1 EQ PUSH2 0x18D2 JUMPI JUMPDEST POP PUSH2 0x18D0 SWAP3 POP SUB DUP4 PUSH2 0x185D JUMP JUMPDEST JUMP JUMPDEST PUSH1 0x5 PUSH1 0x0 SWAP1 DUP2 MSTORE SWAP2 POP PUSH32 0x36B6384B5ECA791C62761152D0C79BB0604C104A5FB6F4EB0703F3154BB3DB0 JUMPDEST DUP5 DUP4 LT PUSH2 0x1916 JUMPI POP PUSH2 0x18D0 SWAP4 POP POP DUP2 ADD PUSH1 0x20 ADD CODESIZE PUSH2 0x18C3 JUMP JUMPDEST DUP2 SWAP4 POP SWAP1 DUP2 PUSH1 0x20 SWAP3 SLOAD DUP4 DUP6 DUP11 ADD ADD MSTORE ADD SWAP2 ADD SWAP1 SWAP2 DUP6 SWAP3 PUSH2 0x18FD JUMP JUMPDEST SWAP1 POP PUSH1 0x20 SWAP3 POP PUSH2 0x18D0 SWAP5 SWAP2 POP PUSH1 0xFF NOT AND DUP3 DUP5 ADD MSTORE ISZERO ISZERO PUSH1 0x5 SHL DUP3 ADD ADD CODESIZE PUSH2 0x18C3 JUMP JUMPDEST PUSH1 0x40 MLOAD SWAP1 PUSH1 0x0 DUP3 PUSH1 0x24 SLOAD SWAP2 PUSH2 0x1967 DUP4 PUSH2 0x1823 JUMP JUMPDEST DUP1 DUP4 MSTORE SWAP3 PUSH1 0x1 SWAP1 DUP2 DUP2 AND SWAP1 DUP2 ISZERO PUSH2 0x1931 JUMPI POP PUSH1 0x1 EQ PUSH2 0x198D JUMPI POP PUSH2 0x18D0 SWAP3 POP SUB DUP4 PUSH2 0x185D JUMP JUMPDEST PUSH1 0x24 PUSH1 0x0 SWAP1 DUP2 MSTORE SWAP2 POP PUSH32 0x7CD332D19B93BCABE3CCE7CA0C18A052F57E5FD03B4758A09F30F5DDC4B22EC4 JUMPDEST DUP5 DUP4 LT PUSH2 0x19D1 JUMPI POP PUSH2 0x18D0 SWAP4 POP POP DUP2 ADD PUSH1 0x20 ADD CODESIZE PUSH2 0x18C3 JUMP JUMPDEST DUP2 SWAP4 POP SWAP1 DUP2 PUSH1 0x20 SWAP3 SLOAD DUP4 DUP6 DUP11 ADD ADD MSTORE ADD SWAP2 ADD SWAP1 SWAP2 DUP6 SWAP3 PUSH2 0x19B8 JUMP JUMPDEST SWAP1 PUSH1 0x40 MLOAD SWAP2 DUP3 PUSH1 0x0 DUP3 SLOAD SWAP3 PUSH2 0x1A00 DUP5 PUSH2 0x1823 JUMP JUMPDEST SWAP1 DUP2 DUP5 MSTORE PUSH1 0x1 SWAP5 DUP6 DUP2 AND SWAP1 DUP2 PUSH1 0x0 EQ PUSH2 0x1A6D JUMPI POP PUSH1 0x1 EQ PUSH2 0x1A2A JUMPI JUMPDEST POP POP PUSH2 0x18D0 SWAP3 POP SUB DUP4 PUSH2 0x185D JUMP JUMPDEST SWAP1 SWAP4 SWAP2 POP PUSH1 0x0 MSTORE PUSH1 0x20 SWAP1 DUP2 PUSH1 0x0 KECCAK256 SWAP4 PUSH1 0x0 SWAP2 JUMPDEST DUP2 DUP4 LT PUSH2 0x1A55 JUMPI POP POP PUSH2 0x18D0 SWAP4 POP DUP3 ADD ADD CODESIZE DUP1 PUSH2 0x1A1C JUMP JUMPDEST DUP6 SLOAD DUP9 DUP5 ADD DUP6 ADD MSTORE SWAP5 DUP6 ADD SWAP5 DUP8 SWAP5 POP SWAP2 DUP4 ADD SWAP2 PUSH2 0x1A3D JUMP JUMPDEST SWAP2 POP POP PUSH2 0x18D0 SWAP5 POP PUSH1 0x20 SWAP3 POP PUSH1 0xFF NOT AND DUP3 DUP5 ADD MSTORE ISZERO ISZERO PUSH1 0x5 SHL DUP3 ADD ADD CODESIZE DUP1 PUSH2 0x1A1C JUMP JUMPDEST SWAP2 SWAP1 DUP3 MLOAD SWAP3 DUP4 DUP3 MSTORE PUSH1 0x0 JUMPDEST DUP5 DUP2 LT PUSH2 0x1ABC JUMPI POP POP DUP3 PUSH1 0x0 PUSH1 0x20 DUP1 SWAP5 SWAP6 DUP5 ADD ADD MSTORE PUSH1 0x1F DUP1 NOT SWAP2 ADD AND ADD ADD SWAP1 JUMP JUMPDEST PUSH1 0x20 DUP2 DUP4 ADD DUP2 ADD MLOAD DUP5 DUP4 ADD DUP3 ADD MSTORE ADD PUSH2 0x1A9B JUMP JUMPDEST SWAP2 DUP2 PUSH1 0x1F DUP5 ADD SLT ISZERO PUSH2 0x1AFE JUMPI DUP3 CALLDATALOAD SWAP2 PUSH8 0xFFFFFFFFFFFFFFFF DUP4 GT PUSH2 0x1AFE JUMPI PUSH1 0x20 DUP4 DUP2 DUP7 ADD SWAP6 ADD ADD GT PUSH2 0x1AFE JUMPI JUMP JUMPDEST PUSH1 0x0 DUP1 REVERT JUMPDEST PUSH8 0xFFFFFFFFFFFFFFFF DUP2 GT PUSH2 0x187F JUMPI PUSH1 0x1F ADD PUSH1 0x1F NOT AND PUSH1 0x20 ADD SWAP1 JUMP JUMPDEST DUP2 PUSH1 0x1F DUP3 ADD SLT ISZERO PUSH2 0x1AFE JUMPI DUP1 CALLDATALOAD SWAP1 PUSH2 0x1B36 DUP3 PUSH2 0x1B03 JUMP JUMPDEST SWAP3 PUSH2 0x1B44 PUSH1 0x40 MLOAD SWAP5 DUP6 PUSH2 0x185D JUMP JUMPDEST DUP3 DUP5 MSTORE PUSH1 0x20 DUP4 DUP4 ADD ADD GT PUSH2 0x1AFE JUMPI DUP2 PUSH1 0x0 SWAP3 PUSH1 0x20 DUP1 SWAP4 ADD DUP4 DUP7 ADD CALLDATACOPY DUP4 ADD ADD MSTORE SWAP1 JUMP JUMPDEST DUP1 SLOAD DUP3 LT ISZERO PUSH2 0x180D JUMPI PUSH1 0x0 MSTORE PUSH1 0x20 PUSH1 0x0 KECCAK256 SWAP1 PUSH1 0x2 SHL ADD SWAP1 PUSH1 0x0 SWAP1 JUMP JUMPDEST PUSH1 0x1 PUSH1 0x1 PUSH1 0xA0 SHL SUB PUSH1 0x3 SLOAD AND CALLER SUB PUSH2 0x1B96 JUMPI JUMP JUMPDEST PUSH1 0x64 PUSH1 0x40 MLOAD PUSH3 0x461BCD PUSH1 0xE5 SHL DUP2 MSTORE PUSH1 0x20 PUSH1 0x4 DUP3 ADD MSTORE PUSH1 0x16 PUSH1 0x24 DUP3 ADD MSTORE PUSH32 0x4F6E6C792063616C6C61626C65206279206F776E657200000000000000000000 PUSH1 0x44 DUP3 ADD MSTORE REVERT JUMPDEST RETURNDATASIZE ISZERO PUSH2 0x1C05 JUMPI RETURNDATASIZE SWAP1 PUSH2 0x1BEB DUP3 PUSH2 0x1B03 JUMP JUMPDEST SWAP2 PUSH2 0x1BF9 PUSH1 0x40 MLOAD SWAP4 DUP5 PUSH2 0x185D JUMP JUMPDEST DUP3 MSTORE RETURNDATASIZE PUSH1 0x0 PUSH1 0x20 DUP5 ADD RETURNDATACOPY JUMP JUMPDEST PUSH1 0x60 SWAP1 JUMP JUMPDEST SWAP2 SWAP1 SWAP2 DUP3 MLOAD PUSH8 0xFFFFFFFFFFFFFFFF DUP2 GT PUSH2 0x187F JUMPI PUSH2 0x1C28 DUP3 SLOAD PUSH2 0x1823 JUMP JUMPDEST PUSH1 0x1F DUP2 GT PUSH2 0x1CD2 JUMPI JUMPDEST POP PUSH1 0x20 DUP1 PUSH1 0x1F DUP4 GT PUSH1 0x1 EQ PUSH2 0x1C6E JUMPI POP DUP2 SWAP3 SWAP4 SWAP5 PUSH1 0x0 SWAP3 PUSH2 0x1C63 JUMPI JUMPDEST POP POP DUP2 PUSH1 0x1 SHL SWAP2 PUSH1 0x0 NOT SWAP1 PUSH1 0x3 SHL SHR NOT AND OR SWAP1 SSTORE JUMP JUMPDEST ADD MLOAD SWAP1 POP CODESIZE DUP1 PUSH2 0x1C4D JUMP JUMPDEST SWAP1 PUSH1 0x1F NOT DUP4 AND SWAP6 DUP5 PUSH1 0x0 MSTORE DUP3 PUSH1 0x0 KECCAK256 SWAP3 PUSH1 0x0 SWAP1 JUMPDEST DUP9 DUP3 LT PUSH2 0x1CBA JUMPI POP POP DUP4 PUSH1 0x1 SWAP6 SWAP7 SWAP8 LT PUSH2 0x1CA1 JUMPI JUMPDEST POP POP POP DUP2 SHL ADD SWAP1 SSTORE JUMP JUMPDEST ADD MLOAD PUSH1 0x0 NOT PUSH1 0xF8 DUP5 PUSH1 0x3 SHL AND SHR NOT AND SWAP1 SSTORE CODESIZE DUP1 DUP1 PUSH2 0x1C97 JUMP JUMPDEST DUP1 PUSH1 0x1 DUP6 SWAP7 DUP3 SWAP5 SWAP7 DUP7 ADD MLOAD DUP2 SSTORE ADD SWAP6 ADD SWAP4 ADD SWAP1 PUSH2 0x1C82 JUMP JUMPDEST PUSH1 0x0 DUP4 DUP2 MSTORE PUSH1 0x20 DUP2 KECCAK256 PUSH1 0x1F DUP5 ADD PUSH1 0x5 SHR DUP2 ADD SWAP3 PUSH1 0x20 DUP6 LT PUSH2 0x1D10 JUMPI JUMPDEST PUSH1 0x1F ADD PUSH1 0x5 SHR ADD SWAP2 JUMPDEST DUP3 DUP2 LT PUSH2 0x1D05 JUMPI POP POP PUSH2 0x1C31 JUMP JUMPDEST DUP2 DUP2 SSTORE PUSH1 0x1 ADD PUSH2 0x1CF7 JUMP JUMPDEST SWAP1 SWAP3 POP DUP3 SWAP1 PUSH2 0x1CEE JUMP JUMPDEST SWAP3 SWAP1 SWAP3 PUSH1 0x40 MLOAD SWAP3 PUSH1 0xA0 DUP5 ADD PUSH8 0xFFFFFFFFFFFFFFFF SWAP6 DUP6 DUP3 LT DUP8 DUP4 GT OR PUSH2 0x187F JUMPI DUP7 SWAP2 PUSH1 0x40 MSTORE AND DUP5 MSTORE PUSH1 0x20 DUP5 ADD SWAP2 DUP3 MSTORE PUSH1 0x40 DUP5 ADD SWAP2 PUSH1 0x1 SWAP1 DUP2 DUP5 MSTORE PUSH4 0xFFFFFFFF PUSH1 0x60 DUP8 ADD SWAP4 AND DUP4 MSTORE PUSH1 0x80 DUP7 ADD SWAP5 DUP6 MSTORE DUP2 SLOAD SWAP7 PUSH1 0x0 SWAP8 DUP1 DUP10 SSTORE DUP4 DUP2 ADD DUP1 DUP3 GT PUSH2 0x1E58 JUMPI DUP5 SSTORE DUP9 MSTORE PUSH1 0x2 PUSH1 0x20 MSTORE PUSH1 0x40 DUP9 KECCAK256 DUP1 SLOAD SWAP1 PUSH9 0x10000000000000000 DUP3 LT ISZERO PUSH2 0x1E44 JUMPI SWAP1 PUSH2 0x1DAB SWAP2 DUP6 DUP3 ADD DUP2 SSTORE PUSH2 0x1B66 JUMP JUMPDEST SWAP8 SWAP1 SWAP8 PUSH2 0x1E31 JUMPI SWAP3 PUSH32 0x1131472297A800FEE664D1D89CFA8F7676FF07189ECC53F80BBB5F4969099DB8 SWAP9 SWAP8 SWAP7 SWAP5 SWAP3 PUSH2 0x1DFC SWAP3 PUSH1 0x3 SWAP8 SWAP6 MLOAD AND PUSH8 0xFFFFFFFFFFFFFFFF NOT DUP10 SLOAD AND OR DUP9 SSTORE MLOAD SWAP1 DUP8 ADD PUSH2 0x1C0A JUMP JUMPDEST PUSH2 0xFFFF PUSH1 0x2 DUP7 ADD SWAP3 MLOAD AND PUSH6 0xFFFFFFFF0000 DUP4 SLOAD SWAP3 MLOAD PUSH1 0x10 SHL AND SWAP2 PUSH6 0xFFFFFFFFFFFF NOT AND OR OR SWAP1 SSTORE MLOAD SWAP2 ADD SSTORE DUP1 SLOAD SWAP2 DUP2 DUP4 SWAP3 LOG2 SWAP1 JUMP JUMPDEST PUSH1 0x24 DUP10 PUSH4 0x4E487B71 PUSH1 0xE0 SHL DUP2 MSTORE DUP1 PUSH1 0x4 MSTORE REVERT JUMPDEST PUSH1 0x24 DUP11 PUSH4 0x4E487B71 PUSH1 0xE0 SHL DUP2 MSTORE PUSH1 0x41 PUSH1 0x4 MSTORE REVERT JUMPDEST PUSH1 0x24 DUP11 PUSH4 0x4E487B71 PUSH1 0xE0 SHL DUP2 MSTORE PUSH1 0x11 PUSH1 0x4 MSTORE REVERT INVALID LOG2 PUSH5 0x6970667358 0x22 SLT KECCAK256 0x25 0xDE 0xFC BLOCKHASH 0xEC LOG0 CALLDATALOAD 0xAF 0xC3 KECCAK256 0xDF RETURNDATASIZE SWAP15 SELFDESTRUCT SWAP5 CALLDATALOAD 0x4A 0xBF PUSH28 0xAEE6353E0756044FE8EEE75E4764736F6C63430008130033A2646970 PUSH7 0x73582212209295 SAR OR 0xE8 PUSH32 0x7AFF2F747C4D27F917511C426E513594BD42435B0F1FBE1AD92E64736F6C6343 STOP ADDMOD SGT STOP CALLER "},"methodIdentifiers":{"blacklistAddr(address)":"8a699f00","contractBalance()":"8b7afe2e","contracts(address,uint256)":"ed23f8c3","createInsuranceContract(address,address,uint256,uint256,uint256,uint256,address,uint64,address,address,address,uint32)":"77ad0b34","im_owner()":"af6081de","info(string)":"17fab0a0","infoKeys(uint256)":"90f6d378","institutionName()":"3a133e2c","registerInfo(string[2][])":"dfb50e64","whitelist(address)":"9b19251a","whitelistAddr(address)":"080a57f9","withdraw()":"3ccfd60b"}}}}}