{"contracts/Institution.sol":{"Institution":{"abi":[{"inputs":[{"internalType":"address","name":"_owner","type":"address"},{"internalType":"string[2][]","name":"infoArray","type":"string[2][]"}],"stateMutability":"nonpayable","type":"constructor"},{"inputs":[],"name":"NotOwner","type":"error"},{"anonymous":false,"inputs":[{"indexed":false,"internalType":"address","name":"insuranceContractAddress","type":"address"}],"name":"InsuranceContractCreated","type":"event"},{"inputs":[{"internalType":"address","name":"","type":"address"}],"name":"blacklist","outputs":[{"internalType":"bool","name":"","type":"bool"}],"stateMutability":"view","type":"function"},{"inputs":[{"internalType":"address","name":"_farmerAddr","type":"address"}],"name":"blacklistAddr","outputs":[],"stateMutability":"nonpayable","type":"function"},{"inputs":[],"name":"contractBalance","outputs":[{"internalType":"uint256","name":"","type":"uint256"}],"stateMutability":"view","type":"function"},{"inputs":[{"internalType":"address","name":"","type":"address"},{"internalType":"uint256","name":"","type":"uint256"}],"name":"contracts","outputs":[{"internalType":"contract AutomatedFunctionsConsumer","name":"","type":"address"}],"stateMutability":"view","type":"function"},{"inputs":[{"internalType":"address","name":"_deployer","type":"address"},{"internalType":"address","name":"_farmer","type":"address"},{"internalType":"uint256","name":"_humidityLimit","type":"uint256"},{"internalType":"uint256","name":"_sampleMaxSize","type":"uint256"},{"internalType":"uint256","name":"_reparationValue","type":"uint256"},{"internalType":"uint256","name":"_updateInterval","type":"uint256"},{"internalType":"address","name":"router","type":"address"},{"internalType":"address","name":"_registry","type":"address"},{"internalType":"address","name":"_sepoliaLINKAddress","type":"address"},{"internalType":"address","name":"_sepoliaRegistrarAddress","type":"address"},{"internalType":"uint32","name":"_fulfillGasLimit","type":"uint32"},{"internalType":"bytes32","name":"_donID","type":"bytes32"},{"internalType":"string","name":"_metricJS","type":"string"}],"name":"createInsuranceContract","outputs":[],"stateMutability":"nonpayable","type":"function"},{"inputs":[{"internalType":"address","name":"_farmerAddress","type":"address"}],"name":"getAllInsuranceContracts","outputs":[{"internalType":"contract AutomatedFunctionsConsumer[]","name":"","type":"address[]"}],"stateMutability":"view","type":"function"},{"inputs":[],"name":"im_owner","outputs":[{"internalType":"address","name":"","type":"address"}],"stateMutability":"view","type":"function"},{"inputs":[{"internalType":"string","name":"","type":"string"}],"name":"info","outputs":[{"internalType":"string","name":"","type":"string"}],"stateMutability":"view","type":"function"},{"inputs":[{"internalType":"uint256","name":"","type":"uint256"}],"name":"infoKeys","outputs":[{"internalType":"string","name":"","type":"string"}],"stateMutability":"view","type":"function"},{"inputs":[],"name":"institutionName","outputs":[{"internalType":"string","name":"","type":"string"}],"stateMutability":"view","type":"function"},{"inputs":[{"internalType":"string[2][]","name":"infoArray","type":"string[2][]"}],"name":"registerInfo","outputs":[],"stateMutability":"nonpayable","type":"function"},{"inputs":[{"internalType":"address","name":"","type":"address"}],"name":"whitelist","outputs":[{"internalType":"bool","name":"","type":"bool"}],"stateMutability":"view","type":"function"},{"inputs":[{"internalType":"address","name":"_farmerAddr","type":"address"}],"name":"whitelistAddr","outputs":[],"stateMutability":"nonpayable","type":"function"},{"inputs":[],"name":"withdraw","outputs":[],"stateMutability":"nonpayable","type":"function"},{"stateMutability":"payable","type":"receive"}],"evm":{"bytecode":{"linkReferences":{},"object":"60a060405234620002e1576200562d803803806200001d81620002fb565b9283396040828281010312620002e1578151906001600160a01b0382168203620002e1576020830151926001600160401b038411620002e157818101601f858301011215620002e15780840151936001600160401b038511620001a1578460051b9160206200008e818501620002fb565b809781520193808201602085858501010111620002e157602083830101945b60208585850101018610620001de57878760805260005b8151811015620001b7576200011b6020620000e0838562000346565b5101516200010b6020620000f5858762000346565b5151816040519382858094519384920162000321565b810160028152030190206200035b565b62000127818362000346565b5151600190815468010000000000000000811015620001a1578281018084558110156200018b5762000162926000526020600020016200035b565b60001981146200017557600101620000c4565b634e487b7160e01b600052601160045260246000fd5b634e487b7160e01b600052603260045260246000fd5b634e487b7160e01b600052604160045260246000fd5b6040516151839081620004aa823960805181818161020e0152818161046101526109690152f35b85516001600160401b038111620002e157828401603f8287870101011215620002e15760408051919082016001600160401b03811183821017620002e65760405281848601606083898901010111620002e1576020828888010101905b606083898901010182106200025c57505050815260209586019501620000ad565b81516001600160401b038111620002e15783898901010190868801603f83011215620002e1576020820151906001600160401b038211620002e657620002ac601f8301601f1916602001620002fb565b828152888a0160408486010111620002e157620002d56020949385946040868501910162000321565b8152019101906200023b565b600080fd5b60246000634e487b7160e01b81526041600452fd5b6040519190601f01601f191682016001600160401b03811183821017620001a157604052565b60005b838110620003355750506000910152565b818101518382015260200162000324565b80518210156200018b5760209160051b010190565b81519091906001600160401b038111620001a157825460019283821691841c8215620004a0575b602092838210146200048a57601f81116200043c575b5081601f8411600114620003d55750928293918392600094620003c9575b50501b916000199060031b1c1916179055565b015192503880620003b6565b919083601f1981168760005284600020946000905b8883831062000421575050501062000407575b505050811b019055565b015160001960f88460031b161c19169055388080620003fd565b858701518855909601959485019487935090810190620003ea565b8560005282600020601f850160051c8101918486106200047f575b601f0160051c019085905b8281106200047257505062000398565b6000815501859062000462565b909150819062000457565b634e487b7160e01b600052602260045260246000fd5b607f166200038256fe608060405260043610156200001d575b36156200001b57600080fd5b005b60003560e01c8063080a57f91462000beb57806317fab0a01462000b0a5780633a133e2c1462000a1b5780633ccfd60b146200094c5780633f0f912d146200088f5780638a699f00146200083a5780638b7afe2e146200081c57806390f6d378146200070d5780639b19251a14620006ca5780639c22a6dd1462000485578063af6081de146200043f578063dfb50e641462000173578063ed23f8c314620001125763f9f92be4036200000f57346200010d5760203660031901126200010d576001600160a01b03620000ef62000c40565b166000526004602052602060ff604060002054166040519015158152f35b600080fd5b346200010d5760403660031901126200010d576200012f62000c40565b602435906001600160a01b038091166000526005602052604060002080548310156200010d57602092620001639162000dbb565b9190546040519260031b1c168152f35b346200010d5760203660031901126200010d5767ffffffffffffffff600435116200010d573660236004350112156200010d576004356004013567ffffffffffffffff811162000429578060051b9060405190620001d5602084018362000c57565b8152602081016024923684826004350101116200010d578360043501915b84826004350101831062000352575050506001600160a01b037f0000000000000000000000000000000000000000000000000000000000000000163303620003285760005b81518110156200001b576200028f602062000254838562000dd4565b5101516200027f602062000269858762000dd4565b5151816040519382858094519384920162000ce4565b8101600281520301902062000de9565b6200029b818362000dd4565b51516001805468010000000000000000811015620003135781620002c3928201905562000d6d565b919091620002fe57620002d69162000de9565b6000198114620002e95760010162000238565b82634e487b7160e01b60005260116004526000fd5b84634e487b7160e01b60005260006004526000fd5b85634e487b7160e01b60005260416004526000fd5b60046040517f30cd7471000000000000000000000000000000000000000000000000000000008152fd5b823567ffffffffffffffff81116200010d5736604382600435010112156200010d57604051906040820182811067ffffffffffffffff8211176200041457604052600435810160640190823683116200010d5790889493929185826004350101905b838210620003d25750505090825250602093840193019050620001f3565b9091929394955067ffffffffffffffff8235116200010d576020809162000403368d86358860043501010162000c97565b8152019101899594939291620003b4565b87634e487b7160e01b60005260416004526000fd5b634e487b7160e01b600052604160045260246000fd5b346200010d5760003660031901126200010d5760206040516001600160a01b037f0000000000000000000000000000000000000000000000000000000000000000168152f35b346200010d576101a0806003193601126200010d57620004a462000c40565b90602435916001600160a01b03918284168094036200010d576084359160c435908482168092036200010d5760e435928584168094036200010d5761010435908682168092036200010d57610124358781168091036200010d576101443563ffffffff81168091036200010d5767ffffffffffffffff91610184358381116200010d576200053790369060040162000c97565b948b600052600360205260ff604060002054161562000660576040519861424498898b019586118b87101762000429578c620005d1998c9b62000f0a8d391686528d6020870152604435604087015260643560608701528b608087015260a43560a087015260c086015260e08501526101008401526101208301526101408201526101643561016082015281610180820152019062000d46565b0391f09182156200065457600052600560205260406000209081549268010000000000000000841015620004295781620006358560209560017fa155a575082ecf596e5a22a44834be92670605d1d0832000305888ba02a462d99801815562000dbb565b939092169282549060031b9184831b921b1916179055604051908152a1005b6040513d6000823e3d90fd5b608460405162461bcd60e51b815260206004820152602160248201527f456e64657265636f206e616f2065737461206e61206c69737461206272616e6360448201527f61000000000000000000000000000000000000000000000000000000000000006064820152fd5b346200010d5760203660031901126200010d576001600160a01b03620006ef62000c40565b166000526003602052602060ff604060002054166040519015158152f35b346200010d576020806003193601126200010d576004359060019182548110156200010d576200073d9062000d6d565b62000806576040518093600090835493620007588562000d09565b94858552868382169182600014620007e25750506001146200079f575b5050620007859250038362000c57565b6200079b60405192828493845283019062000d46565b0390f35b85925060005281600020906000915b858310620007c9575050620007859350820101858062000775565b80548389018501528794508693909201918101620007ae565b92509350506200078594915060ff191682840152151560051b820101858062000775565b634e487b7160e01b600052600060045260246000fd5b346200010d5760003660031901126200010d57602047604051908152f35b346200010d5760203660031901126200010d576001600160a01b036200085f62000c40565b166000526003602052604060002060ff199081815416905560046020526001604060002091825416179055600080f35b346200010d576020806003193601126200010d576001600160a01b039081620008b762000c40565b1660005260058152604060002060405191828183549182815201908193600052826000209060005b818110620009355750505083620008f891038462000c57565b60405192818401908285525180915260408401929160005b8281106200091e5785850386f35b835187168552938101939281019260010162000910565b8254881684529284019260019283019201620008df565b346200010d5760003660031901126200010d576001600160a01b037f000000000000000000000000000000000000000000000000000000000000000016803303620003285760008080809347905af13d1562000a15573d620009ae8162000c7a565b90620009be604051928362000c57565b8152600060203d92013e5b15620009d157005b606460405162461bcd60e51b815260206004820152601060248201527f5769746864726177206661696c65642e000000000000000000000000000000006044820152fd5b620009c9565b346200010d5760003660031901126200010d576040516000805462000a408162000d09565b8084529060019081811690811562000ae1575060011462000a84575b6200079b8462000a6f8186038262000c57565b60405191829160208352602083019062000d46565b600080805292507f290decd9548b62a8d60345a988386fc84ba6bc95484008f6362f93160ef3e5635b82841062000ac857505050810160200162000a6f8262000a5c565b8054602085870181019190915290930192810162000aad565b60ff191660208087019190915292151560051b8501909201925062000a6f915083905062000a5c565b346200010d576020806003193601126200010d5760043567ffffffffffffffff81116200010d578162000b4662000b5a92369060040162000c97565b816040519382858094519384920162000ce4565b810160028152030190209060405191826000825462000b798162000d09565b93848452600191868382169182600014620007e257505060011462000ba8575050620007859250038362000c57565b85925060005281600020906000915b85831062000bd2575050620007859350820101858062000775565b8054838901850152879450869390920191810162000bb7565b346200010d5760203660031901126200010d576001600160a01b0362000c1062000c40565b166000526003602052604060002060ff199060018282541617905560046020526040600020908154169055600080f35b600435906001600160a01b03821682036200010d57565b90601f8019910116810190811067ffffffffffffffff8211176200042957604052565b67ffffffffffffffff81116200042957601f01601f191660200190565b81601f820112156200010d5780359062000cb18262000c7a565b9262000cc1604051948562000c57565b828452602083830101116200010d57816000926020809301838601378301015290565b60005b83811062000cf85750506000910152565b818101518382015260200162000ce7565b90600182811c9216801562000d3b575b602083101462000d2557565b634e487b7160e01b600052602260045260246000fd5b91607f169162000d19565b9060209162000d618151809281855285808601910162000ce4565b601f01601f1916010190565b60015481101562000da55760016000527fb10e2d527612073b26eecdfd717e6a320cf44b4afac2b0732d9fcbe2b7fa0cf60190600090565b634e487b7160e01b600052603260045260246000fd5b805482101562000da55760005260206000200190600090565b805182101562000da55760209160051b010190565b919091825167ffffffffffffffff8111620004295762000e0a825462000d09565b601f811162000ebc575b50602080601f831160011462000e5457508192939460009262000e48575b50508160011b916000199060031b1c1916179055565b01519050388062000e32565b90601f198316958460005282600020926000905b88821062000ea35750508360019596971062000e89575b505050811b019055565b015160001960f88460031b161c1916905538808062000e7f565b8060018596829496860151815501950193019062000e68565b600083815260208120601f840160051c8101926020851062000efe575b601f0160051c01915b82811062000ef257505062000e14565b81815560010162000ee2565b909250829062000ed956fe610120604052620042448038039081620000198162000425565b9182396101a0818381010312620004205762000035816200044b565b9062000044602082016200044b565b60408201519260608301519160808401519460a0850151916200006a60c087016200044b565b966200007960e088016200044b565b916200008961010089016200044b565b92620000996101208a016200044b565b956101408a01519363ffffffff8516850362000420576101608b015160e0526101808b01519c6001600160401b038e116200042057808c018e8d01601f01121562000420578b8e015160c0819052906001600160401b038211620003c5578e916020918e916200011290601f01601f1916840162000425565b806101005260c051905281019260c0519101010111620004205760005b60c051811015620001545760208e8d018201810151610100518301820152016200012f565b5060c0516101005160009101602001526001600160a01b03808d16608052988916998a15620003db57899788958c60018060a01b03199d8e60005416176000558d600254161760025560175490610100600160a81b039060081b1690610100600160a81b03191617601755601955601a556018556008551660a0526bffffffff00000000000000006007549160401b16906bffffffff0000000000000000191617600755168360095416176009551690600a541617600a5542600f5560e051600e5561010051805160018060401b038111620003c557601c54916001928381811c91168015620003ba575b6020821014620003a457601f811162000337575b50602090601f8311600114620002cc575081928291600093620002bd575b501b916000199060031b1c191617601c555b60ff1960175416601755604051613de390816200046182396080518181816104740152610e1f015260a051818181611047015261156d0152f35b61010051015192508462000271565b90601f19831691601c6000528360206000209360005b878282106200031d5750501062000303575b505050811b01601c5562000283565b015160001960f88460031b161c19169055828080620002f4565b8486015187559095019460209485019487935001620002e2565b601c6000527f0e4562a10381dec21b205ed72637e6b1b523bdd0e4d4d50af5cd23dd4500a211601f840160051c8101916020851062000399575b601f0160051c019084905b8281106200038c57505062000253565b600081550184906200037c565b909150819062000371565b634e487b7160e01b600052602260045260246000fd5b90607f16906200023f565b634e487b7160e01b600052604160045260246000fd5b60405162461bcd60e51b815260206004820152601860248201527f43616e6e6f7420736574206f776e657220746f207a65726f00000000000000006044820152606490fd5b600080fd5b6040519190601f01601f191682016001600160401b03811183821017620003c557604052565b51906001600160a01b0382168203620004205756fe608060405260043610156200001d575b36156200001b57600080fd5b005b60003560e01c8063089ea02e14620002da57806309c1ba2e14620002d45780630ca7617514620002ce5780631243bcc314620002c85780631aa46f5914620002c257806324b93e3e14620002bc578063277e221314620002b65780632fc2a7b914620002b0578063338cdca114620002aa578063381fc4b514620002a45780633944ea3a146200029e5780633f678e11146200029857806343cd3d8614620002925780634585e33b146200028c57806348802b92146200028657806348bd6f0514620002805780634b0795a8146200027a57806362ed90361462000274578063688ecfd1146200026e5780636baa48fe14620002685780636e04ff0d14620002625780636e74336b146200025c57806379ba509714620002565780637b10399914620002505780638b7afe2e146200024a5780638d7e6d2d14620002445780638da5cb5b146200023e578063a30971391462000238578063a3d3c0d21462000232578063b1e21749146200022c578063bef3a2f01462000226578063d2aa789f1462000220578063d5f39488146200021a578063d811fcf01462000214578063ea7b4f77146200020e578063ebf14a551462000208578063f2fde38b1462000202578063fd2c80ae14620001fc5763fffeb84e036200000f5762001bc3565b62001ba3565b62001a98565b62001a4c565b62001a0c565b620019e0565b620019b7565b62001997565b620018e2565b620018c2565b620018a2565b62001882565b62001859565b620015e5565b62001591565b6200154b565b62001467565b62001447565b620013c9565b620013a0565b620012eb565b620011c5565b62001110565b620010f0565b620010d0565b62000d84565b62000d15565b62000beb565b62000b36565b62000b16565b62000a30565b62000a07565b62000997565b620006f5565b620006d5565b620006ac565b62000416565b62000311565b620002f1565b6000910312620002ec57565b600080fd5b34620002ec576000366003190112620002ec576020600f54604051908152f35b34620002ec576000366003190112620002ec57602067ffffffffffffffff60075416604051908152f35b634e487b7160e01b600052604160045260246000fd5b67ffffffffffffffff81116200036657604052565b6200033b565b6040810190811067ffffffffffffffff8211176200036657604052565b90601f8019910116810190811067ffffffffffffffff8211176200036657604052565b67ffffffffffffffff81116200036657601f01601f191660200190565b81601f82011215620002ec57803590620003e382620003ac565b92620003f3604051948562000389565b82845260208383010111620002ec57816000926020809301838601378301015290565b34620002ec576060366003190112620002ec5767ffffffffffffffff602435818111620002ec576200044d903690600401620003c9565b90604435908111620002ec5762000469903690600401620003c9565b506001600160a01b037f0000000000000000000000000000000000000000000000000000000000000000163303620006825760175460ff166200052657620004f8620004e0620004da7f5b3884247b2d692220a28e85c6452382a57294c08a90bce16e4978698181adb69362003330565b62003475565b620004eb8162003354565b6040519182918262000981565b0390a15b6004357f85e1543bf2f84fe80c6badbce3648c8539ad1df4d2b3d822938ca0538be727e6600080a2005b620005319062003330565b80601d557f5f45b8e77291dfc632c52ceb5f6e5b643b77e04e0a683db296eaf8d71e41e1656020604051838152a160195411156200061157620005b260008080806200059d62000591620005916017546001600160a01b039060081c1690565b6001600160a01b031690565b47905af1620005ab620021be565b50620035fc565b7fb42dbb74b29856930805877a4e3c62f2d7191b2c872bba1d7f7b2630334dc13562000608620005ee6017546001600160a01b039060081c1690565b6040516001600160a01b0390911681529081906020820190565b0390a1620004fc565b6200064a60008080806200063562000591620005916002546001600160a01b031690565b47905af162000643620021be565b506200358a565b7fb42dbb74b29856930805877a4e3c62f2d7191b2c872bba1d7f7b2630334dc13562000608620005ee6002546001600160a01b031690565b60046040517fc6829f83000000000000000000000000000000000000000000000000000000008152fd5b34620002ec576000366003190112620002ec5760206001600160a01b0360095416604051908152f35b34620002ec576000366003190112620002ec576020600454604051908152f35b34620002ec576000366003190112620002ec57602060075463ffffffff6040519160401c168152f35b634e487b7160e01b600052603260045260246000fd5b601b548110156200076c57601b6000527f3ad8aa4f87544323a9d1e5dd902f40c356527a7955687113db5f9a85ad579dc10190600090565b6200071e565b634e487b7160e01b600052600060045260246000fd5b90600182811c92168015620007ba575b6020831014620007a457565b634e487b7160e01b600052602260045260246000fd5b91607f169162000798565b60405190600082601c5491620007db8362000788565b808352926001908181169081156200086b575060011462000808575b50620008069250038362000389565b565b601c600090815291507f0e4562a10381dec21b205ed72637e6b1b523bdd0e4d4d50af5cd23dd4500a2115b8483106200084f575062000806935050810160200138620007f7565b81935090816020925483858a0101520191019091859262000833565b9050602092506200080694915060ff191682840152151560051b82010138620007f7565b9060405191826000825492620008a58462000788565b9081845260019485811690816000146200091a5750600114620008d3575b5050620008069250038362000389565b9093915060005260209081600020936000915b818310620009015750506200080693508201013880620008c3565b85548884018501529485019487945091830191620008e6565b9150506200080694506020925060ff191682840152151560051b8201013880620008c3565b919082519283825260005b8481106200096c575050826000602080949584010152601f8019910116010190565b6020818301810151848301820152016200094a565b906020620009949281815201906200093f565b90565b34620002ec576020366003190112620002ec57600435601b54811015620002ec57620009ee62000a0391601b6000527f3ad8aa4f87544323a9d1e5dd902f40c356527a7955687113db5f9a85ad579dc1016200088f565b6040519182916020835260208301906200093f565b0390f35b34620002ec576000366003190112620002ec5760206001600160a01b03600b5416604051908152f35b34620002ec5760008060031936011262000b13576040519080600d5462000a578162000788565b8085529160019180831690811562000ae6575060011462000a86575b62000a0385620004eb8187038262000389565b9250600d83527fd7b6990105719101dabeb77144f2a3385c8033acd3af97e9423a695e81ad1eb55b82841062000acd575050508101602001620004eb8262000a0362000a73565b8054602085870181019190915290930192810162000aae565b86955062000a0396935060209250620004eb94915060ff191682840152151560051b820101929362000a73565b80fd5b34620002ec576000366003190112620002ec576020601154604051908152f35b34620002ec5760008060031936011262000b1357604051908060135462000b5d8162000788565b8085529160019180831690811562000ae6575060011462000b8b5762000a0385620004eb8187038262000389565b9250601383527f66de8ffda797e3de9c05e8fc57b3bf0ec28a930d40b0d285d93c06501cf6a0905b82841062000bd2575050508101602001620004eb8262000a0362000a73565b8054602085870181019190915290930192810162000bb3565b34620002ec57600319602036820112620002ec576004359067ffffffffffffffff8211620002ec57610140908236030112620002ec57602062000c8a60009262000c4e62000591620005916001600160a01b03600b54166001600160a01b031690565b906040519485809481937f24380aa800000000000000000000000000000000000000000000000000000000835230906004016004840162001de2565b03925af1801562000d0f5762000ca99160009162000cda575b50600c55565b600c546040519081527f7623383a750b4166574a1b2dff61440ed0dfa3708cbe620c58339cca510d1af990602090a1005b62000d00915060203d811162000d07575b62000cf7818362000389565b81019062001d5b565b3862000ca3565b503d62000ceb565b62001d35565b34620002ec576000366003190112620002ec576020601654604051908152f35b906020600319830112620002ec5760043567ffffffffffffffff92838211620002ec5780602383011215620002ec578160040135938411620002ec5760248483010111620002ec576024019190565b34620002ec5762000d953662000d35565b505062000da6600c54151562001f8c565b62000db042600f55565b62000dc662000dc160105462001fd8565b601055565b601a54601b54101562000f6a5762000e116020600754600e5490604051938492839263230e93b160e11b845267ffffffffffffffff63ffffffff8260401c16911660048501620021f3565b038160006001600160a01b037f0000000000000000000000000000000000000000000000000000000000000000165af16000918162000f45575b5062000efe5750600162000e5e6200212a565b6308c379a01462000ea5575b62000e7157005b7f9c4bfa18304482256875c29fabb1a44a5ecd325f214ea17bab8f31e869faf4c862000ea0620004eb620021be565b0390a1005b62000eaf62002149565b8062000ebd575b5062000e6a565b90507f2ba61e3733e7ac99181c22307780f651ec8fd92fe661a84dfbe711710b2dc36c62000ef46000926040519182918262000981565b0390a13862000eb6565b62000f0881601255565b62000f1e62000f1960155462001fd8565b601555565b7f1131472297a800fee664d1d89cfa8f7676ff07189ecc53f80bbb5f4969099db8600080a2005b62000f6291925060203d811162000d075762000cf7818362000389565b903862000e4b565b60ff62000f7960175460ff1690565b166200100e5762000f92600160ff196017541617601755565b62000fd062000fa062002013565b62000fb562000fae620007c5565b8262002715565b62000fca62000fc36200205e565b8262002757565b620024d8565b6020600754600e549262000e11604051948593849363230e93b160e11b855267ffffffffffffffff63ffffffff8360401c16921660048601620020e8565b600c546040518181527f8b7f9ec922f0b687c5e247d2d3d200d803f027d886a5a0bdf49c6747b9c9ec4c90602090a16001600160a01b037f000000000000000000000000000000000000000000000000000000000000000016803b15620002ec576040517fc804802200000000000000000000000000000000000000000000000000000000815260048101929092526000908290602490829084905af1801562000d0f57620010b957005b80620010c96200001b9262000351565b80620002e0565b34620002ec576000366003190112620002ec576020601554604051908152f35b34620002ec576000366003190112620002ec576020601854604051908152f35b34620002ec5760008060031936011262000b13576040519080601454620011378162000788565b8085529160019180831690811562000ae65750600114620011655762000a0385620004eb8187038262000389565b9250601483527fce6d7b5282bd9a3661ae061feed1dbda4e52ab073b1f9285be6e155d9c38d4ec5b828410620011ac575050508101602001620004eb8262000a0362000a73565b805460208587018101919091529093019281016200118d565b34620002ec57602080600319360112620002ec5767ffffffffffffffff600435818111620002ec57620011fd903690600401620003c9565b918251918211620003665762001220826200121a60035462000788565b62001c91565b80601f83116001146200125f5750819260009262001253575b50508160011b916000199060031b1c191617600355600080f35b01519050388062001239565b90601f198316936200129360036000527fc2575a0e9e593c00f959f8c92f12db2869c3395a3b0502d05e2516446f71f85b90565b926000905b868210620012d25750508360019510620012b8575b505050811b01600355005b015160001960f88460031b161c19169055388080620012ad565b8060018596829496860151815501950193019062001298565b34620002ec5760008060031936011262000b13576040519080600354620013128162000788565b8085529160019180831690811562000ae65750600114620013405762000a0385620004eb8187038262000389565b9250600383527fc2575a0e9e593c00f959f8c92f12db2869c3395a3b0502d05e2516446f71f85b5b82841062001387575050508101602001620004eb8262000a0362000a73565b8054602085870181019190915290930192810162001368565b34620002ec576000366003190112620002ec5760206001600160a01b03600a5416604051908152f35b34620002ec57620013da3662000d35565b5050600f54420342811162001441576008541060405190815260206040818301528160609182519081604084015260005b8281106200142b5750506000828201840152601f01601f19168101030190f35b608081015186820186015285935081016200140b565b62001f66565b34620002ec576000366003190112620002ec576020600e54604051908152f35b34620002ec5760008060031936011262000b13576001600160a01b0380600154163303620015075781546001600160a01b03166000805473ffffffffffffffffffffffffffffffffffffffff19163317905590620014dd73ffffffffffffffffffffffffffffffffffffffff1960015416600155565b3391167f8be0079c531659141344cd1fd0a4f28419497f9722a3daafe3b4186f6b6457e08380a380f35b606460405162461bcd60e51b815260206004820152601660248201527f4d7573742062652070726f706f736564206f776e6572000000000000000000006044820152fd5b34620002ec576000366003190112620002ec5760206040516001600160a01b037f0000000000000000000000000000000000000000000000000000000000000000168152f35b34620002ec576000366003190112620002ec57602047604051908152f35b600435906bffffffffffffffffffffffff82168203620002ec57565b35906bffffffffffffffffffffffff82168203620002ec57565b34620002ec576020366003190112620002ec5762001602620015af565b6009546001600160a01b03169062001622600a546001600160a01b031690565b91604051926107658085019185831067ffffffffffffffff84111762000366578593620016809386936200364987396001600160a01b039182168152911660208201526bffffffffffffffffffffffff909116604082015260600190565b0360009283f0801562000d0f576200174e91620016c26020926001600160a01b031673ffffffffffffffffffffffffffffffffffffffff19600b541617600b55565b620016dd62000591620005916009546001600160a01b031690565b620016f462000591600b546001600160a01b031690565b856040518096819582947f095ea7b3000000000000000000000000000000000000000000000000000000008452600484019092916bffffffffffffffffffffffff6020916001600160a01b03604085019616845216910152565b03925af1801562000d0f5762001824575b506200177762000591600b546001600160a01b031690565b803b1562001820576040517f230244080000000000000000000000000000000000000000000000000000000081523060048201529082908290602490829084905af1801562000d0f5762001809575b507f3583c1105fd29a46b4d92ceeaff8be03cba58a11cce44a3b7da77bbc3798edc462001803620005ee62000591600b546001600160a01b031690565b0390a180f35b80620010c9620018199262000351565b38620017c6565b5080fd5b620018499060203d811162001851575b62001840818362000389565b81019062001d41565b50386200175f565b503d62001834565b34620002ec576000366003190112620002ec5760206001600160a01b0360005416604051908152f35b34620002ec576000366003190112620002ec576020601954604051908152f35b34620002ec576000366003190112620002ec576020601054604051908152f35b34620002ec576000366003190112620002ec576020601254604051908152f35b34620002ec5760008060031936011262000b13576040519080600554620019098162000788565b8085529160019180831690811562000ae65750600114620019375762000a0385620004eb8187038262000389565b9250600583527f036b6384b5eca791c62761152d0c79bb0604c104a5fb6f4eb0703f3154bb3db05b8284106200197e575050508101602001620004eb8262000a0362000a73565b805460208587018101919091529093019281016200195f565b34620002ec576000366003190112620002ec576020600c54604051908152f35b34620002ec576000366003190112620002ec5760206001600160a01b0360025416604051908152f35b34620002ec576000366003190112620002ec5760206001600160a01b0360175460081c16604051908152f35b34620002ec576020366003190112620002ec5760043567ffffffffffffffff8116809103620002ec5767ffffffffffffffff196007541617600755600080f35b34620002ec576000366003190112620002ec576020601a54604051908152f35b600435906001600160a01b0382168203620002ec57565b35906001600160a01b0382168203620002ec57565b34620002ec576020366003190112620002ec5762001ab562001a6c565b6001600160a01b0380600054169182330362001b5f57169033821462001b1b578173ffffffffffffffffffffffffffffffffffffffff1960015416176001557fed8889f560326eb138920d842192f0eb3dd22b4f139c87a2c57538e05bae1278600080a3005b606460405162461bcd60e51b815260206004820152601760248201527f43616e6e6f74207472616e7366657220746f2073656c660000000000000000006044820152fd5b606460405162461bcd60e51b815260206004820152601660248201527f4f6e6c792063616c6c61626c65206279206f776e6572000000000000000000006044820152fd5b34620002ec576000366003190112620002ec576020600854604051908152f35b34620002ec5760008060031936011262000b1357604051908060065462001bea8162000788565b8085529160019180831690811562000ae6575060011462001c185762000a0385620004eb8187038262000389565b9250600683527ff652222313e28459528d920b65115c16c04f3efc82aaedc97be59f3f377c0d3f5b82841062001c5f575050508101602001620004eb8262000a0362000a73565b8054602085870181019190915290930192810162001c40565b81811062001c84575050565b6000815560010162001c78565b90601f821162001c9f575050565b620008069160036000527fc2575a0e9e593c00f959f8c92f12db2869c3395a3b0502d05e2516446f71f85b906020601f840160051c8301931062001cec575b601f0160051c019062001c78565b909150819062001cde565b9190601f811162001d0757505050565b62000806926000526020600020906020601f840160051c8301931062001cec57601f0160051c019062001c78565b6040513d6000823e3d90fd5b90816020910312620002ec57518015158103620002ec5790565b90816020910312620002ec575190565b9035601e1982360301811215620002ec57016020813591019167ffffffffffffffff8211620002ec578136038313620002ec57565b908060209392818452848401376000828201840152601f01601f1916010190565b359063ffffffff82168203620002ec57565b359060ff82168203620002ec57565b9291602062000806926040865262001f5662001f4062001e2462001f388962001e0c868062001d6b565b93906101409485604085015261018084019162001da0565b9262001ef162001e5062001e3b8a8a018a62001d6b565b603f1986890381016060880152979162001da0565b62001e7262001e6260408b0162001a83565b6001600160a01b03166080860152565b62001e9162001e8460608b0162001dc1565b63ffffffff1660a0860152565b62001eb362001ea360808b0162001a83565b6001600160a01b031660c0860152565b62001ecf62001ec560a08b0162001dd3565b60ff1660e0860152565b62001ede60c08a018a62001d6b565b8583038801610100968701529062001da0565b938c62001f2862001f1e62001f0a60e08c018c62001d6b565b610120999186868403018b87015262001da0565b948a018a62001d6b565b9390928286030191015262001da0565b9301620015cb565b6bffffffffffffffffffffffff16610160880152565b9401906001600160a01b03169052565b634e487b7160e01b600052601160045260246000fd5b601f198101919082116200144157565b1562001f9457565b606460405162461bcd60e51b815260206004820152601560248201527f55706b656570206e6f74207265676973746572656400000000000000000000006044820152fd5b90600182018092116200144157565b90602082018092116200144157565b60300190816030116200144157565b919082018092116200144157565b6040519060e0820182811067ffffffffffffffff8211176200036657604052606060c08360008152600060208201526000604082015282808201528260808201528260a08201520152565b601b549067ffffffffffffffff8211620003665760405191602062002089818360051b018562000389565b81845280840190601b6000527f3ad8aa4f87544323a9d1e5dd902f40c356527a7955687113db5f9a85ad579dc16000925b848410620020c9575050505050565b6001838192620020d9856200088f565b815201920193019290620020ba565b906200211860809367ffffffffffffffff63ffffffff939897969816845260a0602085015260a08401906200093f565b95600160408401521660608201520152565b60009060033d116200213857565b905060046000803e60005160e01c90565b600060443d106200099457604051600319913d83016004833e815167ffffffffffffffff918282113d602484011117620021ad57818401948551938411620021b5573d85010160208487010111620021ad5750620009949291016020019062000389565b949350505050565b50949350505050565b3d15620021ee573d90620021d282620003ac565b91620021e2604051938462000389565b82523d6000602084013e565b606090565b9067ffffffffffffffff909493929416815260209360a0858301526000600354956200221f8762000788565b908160a08601526001978881169081600014620022ba57506001146200225b575b5050604083019590955263ffffffff16606082015260800152565b600360009081529250877fc2575a0e9e593c00f959f8c92f12db2869c3395a3b0502d05e2516446f71f85b5b838510620022a45750505050820160c0018163ffffffff62002240565b805487860160c001529382019389910162002287565b60ff191660c08781019190915292151560051b8601909201925083915063ffffffff905062002240565b60405190620022f3826200036c565b600c82527f636f64654c6f636174696f6e00000000000000000000000000000000000000006020830152565b634e487b7160e01b600052602160045260246000fd5b600311156200234057565b6200231f565b6040519062002355826200036c565b600882527f6c616e67756167650000000000000000000000000000000000000000000000006020830152565b600111156200234057565b604051906200239b826200036c565b600682527f736f7572636500000000000000000000000000000000000000000000000000006020830152565b60405190620023d6826200036c565b600482527f61726773000000000000000000000000000000000000000000000000000000006020830152565b6000198114620014415760010190565b80518210156200076c5760209160051b010190565b6040519062002436826200036c565b600f82527f736563726574734c6f636174696f6e00000000000000000000000000000000006020830152565b6040519062002471826200036c565b600782527f73656372657473000000000000000000000000000000000000000000000000006020830152565b60405190620024ac826200036c565b600982527f62797465734172677300000000000000000000000000000000000000000000006020830152565b620024e2620027ab565b90620024f8620024f1620022e4565b8362002fa0565b6200251b8151620025098162002335565b620025148162002335565b836200285b565b62002529620024f162002346565b6200254860408201516200253d8162002381565b620025148162002381565b62002556620024f16200238c565b6200256660608201518362002fa0565b60a08101805151620026ac575b506080810190815151620025fe575b60c091500180515162002596575b50515190565b91620025a5620024f16200249d565b620025b08262003038565b60005b83518051821015620025e85790620025dc620025d482620025e29462002412565b518562002ed1565b62002402565b620025b3565b50509150620025f781620030d0565b3862002590565b6020810180516200260f8162002335565b6200261a8162002335565b15620026825760c0926200265f6200267c92620026416200263a62002427565b8862002fa0565b516200264d8162002335565b620026588162002335565b866200285b565b620026746200266d62002462565b8662002fa0565b518462002ed1565b62002582565b60046040517fa80d31f7000000000000000000000000000000000000000000000000000000008152fd5b92620026c2620026bb620023c7565b8462002fa0565b620026cd8362003038565b60005b84518051821015620026ff5790620025dc620026f182620026f99462002412565b518662002fa0565b620026d0565b505092506200270e82620030d0565b3862002573565b8151156200272d576000808252604082015260600152565b60046040517f22ce3edd000000000000000000000000000000000000000000000000000000008152fd5b815115620027655760a00152565b60046040517ffe936cb7000000000000000000000000000000000000000000000000000000008152fd5b604051906200279e826200036c565b6000602083606081520152565b604051620027b9816200036c565b620027c36200278f565b8082526020820160008152620027d86200278f565b506101006020830152604051809252600082526101208201918210620002ec576000916040525290565b906200280d6200278f565b50601f8116806200283e575b5080602083015260405190818352600082528101602001908110620002ec5760405290565b602003602081116200144157810180911162001441573862002819565b90815191620028696200278f565b50825151600181019081811162001441576020850151811015620028ca575b60c26020620008069651928301015380518211620028c1575b505060405191602083015260208252620028bb826200036c565b62002ed1565b523880620028a1565b8160011b94828604600214831517156200144157602081620029026200080698620028fa60c29551918462002802565b508262002e02565b509650505062002888565b908160011b91808304600214901517156200144157565b6200292e6200278f565b508051516001810190818111620014415760208301518110156200296a575b605b602084519283010153805182116200296657505090565b5290565b8160011b8281046002148315171562001441576200299890620029908551918662002802565b508462002e02565b506200294d565b620029a96200278f565b50805151600181019081811162001441576020830151811015620029e1575b605a602084519283010153805182116200296657505090565b8160011b82810460021483151715620014415762002a0790620029908551918662002802565b50620029c8565b62002a186200278f565b5080515160018101908181116200144157602083015181101562002a50575b6059602084519283010153805182116200296657505090565b8160011b82810460021483151715620014415762002a7690620029908551918662002802565b5062002a37565b62002a876200278f565b5080515160018101908181116200144157602083015181101562002abf575b6058602084519283010153805182116200296657505090565b8160011b82810460021483151715620014415762002ae590620029908551918662002802565b5062002aa6565b62002af66200278f565b5080515160018101908181116200144157602083015181101562002b2e575b607b602084519283010153805182116200296657505090565b8160011b82810460021483151715620014415762002b5490620029908551918662002802565b5062002b15565b62002b656200278f565b5080515160018101908181116200144157602083015181101562002b9d575b607a602084519283010153805182116200296657505090565b8160011b82810460021483151715620014415762002bc390620029908551918662002802565b5062002b84565b62002bd46200278f565b5080515160018101908181116200144157602083015181101562002c0c575b6079602084519283010153805182116200296657505090565b8160011b82810460021483151715620014415762002c3290620029908551918662002802565b5062002bf3565b62002c436200278f565b5080515160018101908181116200144157602083015181101562002c7b575b6078602084519283010153805182116200296657505090565b8160011b82810460021483151715620014415762002ca190620029908551918662002802565b5062002c62565b9062002cb36200278f565b5081515160018101918282116200144157602084015182101562002ce9575b602084519283010153805182116200296657505090565b8260011b83810460021484151715620014415762002d179062002d0f8651918762002802565b508562002e02565b5062002cd2565b9062002d2d8251918362002802565b5062002d386200278f565b5080519062002d466200278f565b5062002d56815183111562002ec9565b8251519262002d66838562002005565b91602092828480940151821162002de6575b518381519782010196821162002ddd575b505001915b8181101562002db05760001991036101000a0190811990511690825116179052565b919262002dd062002dc962002dd7928651815262001fe7565b9462001fe7565b9262001f7c565b62002d8e565b52388062002d89565b62002dfc62002df5836200290d565b8262002d1e565b62002d78565b9062002e0d6200278f565b50805162002e1a6200278f565b5062002e2a825182111562002ec9565b8251519162002e3a828462002005565b602091829182870151811162002ead575b86518381519782010196821162002ea4575b505001915b8181101562002e855760001991036101000a019081199051169082511617905290565b919262002dd062002dc962002e9e928651815262001fe7565b62002e62565b52388062002e5d565b62002ec362002ebc826200290d565b8862002d1e565b62002e4b565b15620002ec57565b815162002f0e92919067ffffffffffffffff8116906017821162002f115762002f059150604060ff84519216179062002ca8565b505b5162002e02565b50565b5060ff811162002f3c5762002f359062002f2c835162002a7d565b508251620032c1565b5062002f07565b61ffff811162002f605762002f359062002f57835162002a0e565b50825162003251565b63ffffffff811162002f865762002f359062002f7d83516200299f565b508251620031df565b62002f359062002f97835162002924565b50825162003169565b815162002f0e92919067ffffffffffffffff8116906017821162002fd45762002f059150606060ff84519216179062002ca8565b5060ff811162002fef5762002f359062002f2c835162002c39565b61ffff81116200300a5762002f359062002f57835162002bca565b63ffffffff8111620030275762002f359062002f7d835162002b5b565b62002f359062002f97835162002aec565b805190620030456200278f565b5081515160018101908181116200144157602084015181101562003098575b609f60208095519283010153805182116200308f575b50500180519060018201809211620014415752565b5238806200307a565b8160011b93828504600214831517156200144157602081620030c58297620028fa609f9551918462002802565b509550505062003064565b805190620030dd6200278f565b5081515160018101908181116200144157602084015181101562003131575b60ff602080955192830101538051821162003128575b5050018051600019810191908211620014415752565b52388062003112565b8160011b938285046002148315171562001441576020816200315e8297620028fa60ff9551918462002802565b5095505050620030fc565b90620031746200278f565b50815151806008019182600811620014415760208401518311620031ba575b60088451928301019067ffffffffffffffff19825116179052805182116200296657505090565b8260011b838104600214841517156200144157620031d9908562002d1e565b62003193565b90620031ea6200278f565b508151518060040191826004116200144157602084015183116200322c575b60048451928301019063ffffffff19825116179052805182116200296657505090565b8260011b8381046002148415171562001441576200324b908562002d1e565b62003209565b906200325c6200278f565b508151518060020191826002116200144157602084015183116200329c575b60028451928301019061ffff19825116179052805182116200296657505090565b8260011b838104600214841517156200144157620032bb908562002d1e565b6200327b565b90620032cc6200278f565b508151518060010191826001116200144157602084015183116200330b575b60018451928301019060ff19825116179052805182116200296657505090565b8260011b8381046002148415171562001441576200332a908562002d1e565b620032eb565b60208151910151906020811062003345575090565b6000199060200360031b1b1690565b601b546801000000000000000081101562000366576200337c600191828101601b5562000734565b9290926200345d5780519067ffffffffffffffff82116200036657620033af82620033a8865462000788565b8662001cf7565b60209081601f8411600114620033ee5750928293918392600094620033e2575b50501b916000199060031b1c1916179055565b015192503880620033cf565b919083601f1981166200340688600052602060002090565b946000905b8883831062003442575050501062003428575b505050811b019055565b015160001960f88460031b161c191690553880806200341e565b8587015188559096019594850194879350908101906200340b565b62000772565b9081518110156200076c570160200190565b80156200354e57806000908282935b6200353757506200349583620003ac565b92620034a5604051948562000389565b80845281601f19620034b783620003ac565b013660208701375b620034ca5750505090565b600019810190811162001441578091600a916200352d62003523620034fb620034f586860662001ff6565b60ff1690565b60f81b7fff000000000000000000000000000000000000000000000000000000000000001690565b861a918762003463565b53049081620034bf565b9262003545600a9162002402565b93048062003484565b506040516200355d816200036c565b600181527f3000000000000000000000000000000000000000000000000000000000000000602082015290565b156200359257565b608460405162461bcd60e51b815260206004820152602d60248201527f4572726f20616f207265746f726e6172206f732066756e646f7320706172612060448201527f6120696e73746974756963616f000000000000000000000000000000000000006064820152fd5b156200360457565b606460405162461bcd60e51b815260206004820152601b60248201527f4572726f20616f207061676172206120696e64656e697a6163616f00000000006044820152fdfe60c0346100ba57601f61076538819003918201601f19168301916001600160401b038311848410176100bf578084926060946040528339810103126100ba57610047816100d5565b906040610056602083016100d5565b9101516001600160601b03811692908390036100ba5760805260a052600180546001600160601b03191691909117905560405161067b90816100ea82396080518181816077015281816101c701526103a3015260a05181818160be015261036a0152f35b600080fd5b634e487b7160e01b600052604160045260246000fd5b51906001600160a01b03821682036100ba5756fe60806040818152600436101561001457600080fd5b600091823560e01c90816301619d3d1461022d57508063230244081461014a57806324380aa8146100e2578063442b12781461009f57637d253aff1461005957600080fd5b3461009b578160031936011261009b57602090516001600160a01b037f0000000000000000000000000000000000000000000000000000000000000000168152f35b5080fd5b503461009b578160031936011261009b57602090516001600160a01b037f0000000000000000000000000000000000000000000000000000000000000000168152f35b503461009b576003198181360112610142576004359067ffffffffffffffff82116101465761014090823603011261014257602435926001600160a01b038416840361013f575060209261013891600401610313565b9051908152f35b80fd5b8280fd5b8380fd5b503461009b57602036600319011261009b57600435906001600160a01b03918281168091036101465760209060646bffffffffffffffffffffffff600154169186855196879485937f23b872dd000000000000000000000000000000000000000000000000000000008552600485015230602485015260448401527f0000000000000000000000000000000000000000000000000000000000000000165af190811561022457506101f9575080f35b6102199060203d811161021d575b6102118183610270565b8101906102a8565b5080f35b503d610207565b513d84823e3d90fd5b83903461009b578160031936011261009b576020906bffffffffffffffffffffffff600154168152f35b35906001600160a01b038216820361026b57565b600080fd5b90601f8019910116810190811067ffffffffffffffff82111761029257604052565b634e487b7160e01b600052604160045260246000fd5b9081602091031261026b5751801515810361026b5790565b9035601e198236030181121561026b57016020813591019167ffffffffffffffff821161026b57813603831361026b57565b908060209392818452848401376000828201840152601f01601f1916010190565b9190916000926101208201356bffffffffffffffffffffffff8116809103610641576040908151927f095ea7b30000000000000000000000000000000000000000000000000000000084526001600160a01b0391827f0000000000000000000000000000000000000000000000000000000000000000169586600487015281602487015260209586816044818d897f0000000000000000000000000000000000000000000000000000000000000000165af180156106375761061a575b508451967f3f678e1100000000000000000000000000000000000000000000000000000000885286600489015261041d61040a83806102c0565b61014060248c01526101648b01916102f2565b8a61044161042d8a8601866102c0565b6023198d8603810160448f015294916102f2565b948761044e8a8701610257565b1660648c0152606085013563ffffffff81168091036101425760848c01528761047960808701610257565b1660a48c015260a08501359060ff8216809203610142576105018c9687956104f16104e58f9b6104c7908a9860c48a01526104b760c08701876102c0565b90868b84030160e48c01526102f2565b6104d460e08601866102c0565b90858a8403016101048b01526102f2565b926101008101906102c0565b91868403016101248701526102f2565b9061014483015203925af19485156106105787956105dd575b508415610580571685528482528420908154916801000000000000000083101561056c57600183018082558310156105585794839495815220015590565b602486634e487b7160e01b81526032600452fd5b602486634e487b7160e01b81526041600452fd5b6064848451907f08c379a00000000000000000000000000000000000000000000000000000000082526004820152601560248201527f6175746f2d617070726f76652064697361626c656400000000000000000000006044820152fd5b9094508381813d8311610609575b6105f58183610270565b810103126106055751933861051a565b8680fd5b503d6105eb565b83513d89823e3d90fd5b61063090873d891161021d576102118183610270565b50386103d0565b86513d8c823e3d90fd5b8480fdfea2646970667358221220b5d5e549faa0f06e6b4c0d541d8329af501ee63625d5b872cb2297c6dbd1556d64736f6c63430008130033a2646970667358221220037d1bf594636c94b804c95295321689474f59773ef4bae67af6a1a8fbbe6b7164736f6c63430008130033a2646970667358221220e2ba6a93f31d618e07d0972127d6900c1f9fc12e65246284a0407aadcc78e2c664736f6c63430008130033","opcodes":"PUSH1 0xA0 PUSH1 0x40 MSTORE CALLVALUE PUSH3 0x2E1 JUMPI PUSH3 0x562D DUP1 CODESIZE SUB DUP1 PUSH3 0x1D DUP2 PUSH3 0x2FB JUMP JUMPDEST SWAP3 DUP4 CODECOPY PUSH1 0x40 DUP3 DUP3 DUP2 ADD SUB SLT PUSH3 0x2E1 JUMPI DUP2 MLOAD SWAP1 PUSH1 0x1 PUSH1 0x1 PUSH1 0xA0 SHL SUB DUP3 AND DUP3 SUB PUSH3 0x2E1 JUMPI PUSH1 0x20 DUP4 ADD MLOAD SWAP3 PUSH1 0x1 PUSH1 0x1 PUSH1 0x40 SHL SUB DUP5 GT PUSH3 0x2E1 JUMPI DUP2 DUP2 ADD PUSH1 0x1F DUP6 DUP4 ADD ADD SLT ISZERO PUSH3 0x2E1 JUMPI DUP1 DUP5 ADD MLOAD SWAP4 PUSH1 0x1 PUSH1 0x1 PUSH1 0x40 SHL SUB DUP6 GT PUSH3 0x1A1 JUMPI DUP5 PUSH1 0x5 SHL SWAP2 PUSH1 0x20 PUSH3 0x8E DUP2 DUP6 ADD PUSH3 0x2FB JUMP JUMPDEST DUP1 SWAP8 DUP2 MSTORE ADD SWAP4 DUP1 DUP3 ADD PUSH1 0x20 DUP6 DUP6 DUP6 ADD ADD ADD GT PUSH3 0x2E1 JUMPI PUSH1 0x20 DUP4 DUP4 ADD ADD SWAP5 JUMPDEST PUSH1 0x20 DUP6 DUP6 DUP6 ADD ADD ADD DUP7 LT PUSH3 0x1DE JUMPI DUP8 DUP8 PUSH1 0x80 MSTORE PUSH1 0x0 JUMPDEST DUP2 MLOAD DUP2 LT ISZERO PUSH3 0x1B7 JUMPI PUSH3 0x11B PUSH1 0x20 PUSH3 0xE0 DUP4 DUP6 PUSH3 0x346 JUMP JUMPDEST MLOAD ADD MLOAD PUSH3 0x10B PUSH1 0x20 PUSH3 0xF5 DUP6 DUP8 PUSH3 0x346 JUMP JUMPDEST MLOAD MLOAD DUP2 PUSH1 0x40 MLOAD SWAP4 DUP3 DUP6 DUP1 SWAP5 MLOAD SWAP4 DUP5 SWAP3 ADD PUSH3 0x321 JUMP JUMPDEST DUP2 ADD PUSH1 0x2 DUP2 MSTORE SUB ADD SWAP1 KECCAK256 PUSH3 0x35B JUMP JUMPDEST PUSH3 0x127 DUP2 DUP4 PUSH3 0x346 JUMP JUMPDEST MLOAD MLOAD PUSH1 0x1 SWAP1 DUP2 SLOAD PUSH9 0x10000000000000000 DUP2 LT ISZERO PUSH3 0x1A1 JUMPI DUP3 DUP2 ADD DUP1 DUP5 SSTORE DUP2 LT ISZERO PUSH3 0x18B JUMPI PUSH3 0x162 SWAP3 PUSH1 0x0 MSTORE PUSH1 0x20 PUSH1 0x0 KECCAK256 ADD PUSH3 0x35B JUMP JUMPDEST PUSH1 0x0 NOT DUP2 EQ PUSH3 0x175 JUMPI PUSH1 0x1 ADD PUSH3 0xC4 JUMP JUMPDEST PUSH4 0x4E487B71 PUSH1 0xE0 SHL PUSH1 0x0 MSTORE PUSH1 0x11 PUSH1 0x4 MSTORE PUSH1 0x24 PUSH1 0x0 REVERT JUMPDEST PUSH4 0x4E487B71 PUSH1 0xE0 SHL PUSH1 0x0 MSTORE PUSH1 0x32 PUSH1 0x4 MSTORE PUSH1 0x24 PUSH1 0x0 REVERT JUMPDEST PUSH4 0x4E487B71 PUSH1 0xE0 SHL PUSH1 0x0 MSTORE PUSH1 0x41 PUSH1 0x4 MSTORE PUSH1 0x24 PUSH1 0x0 REVERT JUMPDEST PUSH1 0x40 MLOAD PUSH2 0x5183 SWAP1 DUP2 PUSH3 0x4AA DUP3 CODECOPY PUSH1 0x80 MLOAD DUP2 DUP2 DUP2 PUSH2 0x20E ADD MSTORE DUP2 DUP2 PUSH2 0x461 ADD MSTORE PUSH2 0x969 ADD MSTORE RETURN JUMPDEST DUP6 MLOAD PUSH1 0x1 PUSH1 0x1 PUSH1 0x40 SHL SUB DUP2 GT PUSH3 0x2E1 JUMPI DUP3 DUP5 ADD PUSH1 0x3F DUP3 DUP8 DUP8 ADD ADD ADD SLT ISZERO PUSH3 0x2E1 JUMPI PUSH1 0x40 DUP1 MLOAD SWAP2 SWAP1 DUP3 ADD PUSH1 0x1 PUSH1 0x1 PUSH1 0x40 SHL SUB DUP2 GT DUP4 DUP3 LT OR PUSH3 0x2E6 JUMPI PUSH1 0x40 MSTORE DUP2 DUP5 DUP7 ADD PUSH1 0x60 DUP4 DUP10 DUP10 ADD ADD ADD GT PUSH3 0x2E1 JUMPI PUSH1 0x20 DUP3 DUP9 DUP9 ADD ADD ADD SWAP1 JUMPDEST PUSH1 0x60 DUP4 DUP10 DUP10 ADD ADD ADD DUP3 LT PUSH3 0x25C JUMPI POP POP POP DUP2 MSTORE PUSH1 0x20 SWAP6 DUP7 ADD SWAP6 ADD PUSH3 0xAD JUMP JUMPDEST DUP2 MLOAD PUSH1 0x1 PUSH1 0x1 PUSH1 0x40 SHL SUB DUP2 GT PUSH3 0x2E1 JUMPI DUP4 DUP10 DUP10 ADD ADD ADD SWAP1 DUP7 DUP9 ADD PUSH1 0x3F DUP4 ADD SLT ISZERO PUSH3 0x2E1 JUMPI PUSH1 0x20 DUP3 ADD MLOAD SWAP1 PUSH1 0x1 PUSH1 0x1 PUSH1 0x40 SHL SUB DUP3 GT PUSH3 0x2E6 JUMPI PUSH3 0x2AC PUSH1 0x1F DUP4 ADD PUSH1 0x1F NOT AND PUSH1 0x20 ADD PUSH3 0x2FB JUMP JUMPDEST DUP3 DUP2 MSTORE DUP9 DUP11 ADD PUSH1 0x40 DUP5 DUP7 ADD ADD GT PUSH3 0x2E1 JUMPI PUSH3 0x2D5 PUSH1 0x20 SWAP5 SWAP4 DUP6 SWAP5 PUSH1 0x40 DUP7 DUP6 ADD SWAP2 ADD PUSH3 0x321 JUMP JUMPDEST DUP2 MSTORE ADD SWAP2 ADD SWAP1 PUSH3 0x23B JUMP JUMPDEST PUSH1 0x0 DUP1 REVERT JUMPDEST PUSH1 0x24 PUSH1 0x0 PUSH4 0x4E487B71 PUSH1 0xE0 SHL DUP2 MSTORE PUSH1 0x41 PUSH1 0x4 MSTORE REVERT JUMPDEST PUSH1 0x40 MLOAD SWAP2 SWAP1 PUSH1 0x1F ADD PUSH1 0x1F NOT AND DUP3 ADD PUSH1 0x1 PUSH1 0x1 PUSH1 0x40 SHL SUB DUP2 GT DUP4 DUP3 LT OR PUSH3 0x1A1 JUMPI PUSH1 0x40 MSTORE JUMP JUMPDEST PUSH1 0x0 JUMPDEST DUP4 DUP2 LT PUSH3 0x335 JUMPI POP POP PUSH1 0x0 SWAP2 ADD MSTORE JUMP JUMPDEST DUP2 DUP2 ADD MLOAD DUP4 DUP3 ADD MSTORE PUSH1 0x20 ADD PUSH3 0x324 JUMP JUMPDEST DUP1 MLOAD DUP3 LT ISZERO PUSH3 0x18B JUMPI PUSH1 0x20 SWAP2 PUSH1 0x5 SHL ADD ADD SWAP1 JUMP JUMPDEST DUP2 MLOAD SWAP1 SWAP2 SWAP1 PUSH1 0x1 PUSH1 0x1 PUSH1 0x40 SHL SUB DUP2 GT PUSH3 0x1A1 JUMPI DUP3 SLOAD PUSH1 0x1 SWAP3 DUP4 DUP3 AND SWAP2 DUP5 SHR DUP3 ISZERO PUSH3 0x4A0 JUMPI JUMPDEST PUSH1 0x20 SWAP3 DUP4 DUP3 LT EQ PUSH3 0x48A JUMPI PUSH1 0x1F DUP2 GT PUSH3 0x43C JUMPI JUMPDEST POP DUP2 PUSH1 0x1F DUP5 GT PUSH1 0x1 EQ PUSH3 0x3D5 JUMPI POP SWAP3 DUP3 SWAP4 SWAP2 DUP4 SWAP3 PUSH1 0x0 SWAP5 PUSH3 0x3C9 JUMPI JUMPDEST POP POP SHL SWAP2 PUSH1 0x0 NOT SWAP1 PUSH1 0x3 SHL SHR NOT AND OR SWAP1 SSTORE JUMP JUMPDEST ADD MLOAD SWAP3 POP CODESIZE DUP1 PUSH3 0x3B6 JUMP JUMPDEST SWAP2 SWAP1 DUP4 PUSH1 0x1F NOT DUP2 AND DUP8 PUSH1 0x0 MSTORE DUP5 PUSH1 0x0 KECCAK256 SWAP5 PUSH1 0x0 SWAP1 JUMPDEST DUP9 DUP4 DUP4 LT PUSH3 0x421 JUMPI POP POP POP LT PUSH3 0x407 JUMPI JUMPDEST POP POP POP DUP2 SHL ADD SWAP1 SSTORE JUMP JUMPDEST ADD MLOAD PUSH1 0x0 NOT PUSH1 0xF8 DUP5 PUSH1 0x3 SHL AND SHR NOT AND SWAP1 SSTORE CODESIZE DUP1 DUP1 PUSH3 0x3FD JUMP JUMPDEST DUP6 DUP8 ADD MLOAD DUP9 SSTORE SWAP1 SWAP7 ADD SWAP6 SWAP5 DUP6 ADD SWAP5 DUP8 SWAP4 POP SWAP1 DUP2 ADD SWAP1 PUSH3 0x3EA JUMP JUMPDEST DUP6 PUSH1 0x0 MSTORE DUP3 PUSH1 0x0 KECCAK256 PUSH1 0x1F DUP6 ADD PUSH1 0x5 SHR DUP2 ADD SWAP2 DUP5 DUP7 LT PUSH3 0x47F JUMPI JUMPDEST PUSH1 0x1F ADD PUSH1 0x5 SHR ADD SWAP1 DUP6 SWAP1 JUMPDEST DUP3 DUP2 LT PUSH3 0x472 JUMPI POP POP PUSH3 0x398 JUMP JUMPDEST PUSH1 0x0 DUP2 SSTORE ADD DUP6 SWAP1 PUSH3 0x462 JUMP JUMPDEST SWAP1 SWAP2 POP DUP2 SWAP1 PUSH3 0x457 JUMP JUMPDEST PUSH4 0x4E487B71 PUSH1 0xE0 SHL PUSH1 0x0 MSTORE PUSH1 0x22 PUSH1 0x4 MSTORE PUSH1 0x24 PUSH1 0x0 REVERT JUMPDEST PUSH1 0x7F AND PUSH3 0x382 JUMP INVALID PUSH1 0x80 PUSH1 0x40 MSTORE PUSH1 0x4 CALLDATASIZE LT ISZERO PUSH3 0x1D JUMPI JUMPDEST CALLDATASIZE ISZERO PUSH3 0x1B JUMPI PUSH1 0x0 DUP1 REVERT JUMPDEST STOP JUMPDEST PUSH1 0x0 CALLDATALOAD PUSH1 0xE0 SHR DUP1 PUSH4 0x80A57F9 EQ PUSH3 0xBEB JUMPI DUP1 PUSH4 0x17FAB0A0 EQ PUSH3 0xB0A JUMPI DUP1 PUSH4 0x3A133E2C EQ PUSH3 0xA1B JUMPI DUP1 PUSH4 0x3CCFD60B EQ PUSH3 0x94C JUMPI DUP1 PUSH4 0x3F0F912D EQ PUSH3 0x88F JUMPI DUP1 PUSH4 0x8A699F00 EQ PUSH3 0x83A JUMPI DUP1 PUSH4 0x8B7AFE2E EQ PUSH3 0x81C JUMPI DUP1 PUSH4 0x90F6D378 EQ PUSH3 0x70D JUMPI DUP1 PUSH4 0x9B19251A EQ PUSH3 0x6CA JUMPI DUP1 PUSH4 0x9C22A6DD EQ PUSH3 0x485 JUMPI DUP1 PUSH4 0xAF6081DE EQ PUSH3 0x43F JUMPI DUP1 PUSH4 0xDFB50E64 EQ PUSH3 0x173 JUMPI DUP1 PUSH4 0xED23F8C3 EQ PUSH3 0x112 JUMPI PUSH4 0xF9F92BE4 SUB PUSH3 0xF JUMPI CALLVALUE PUSH3 0x10D JUMPI PUSH1 0x20 CALLDATASIZE PUSH1 0x3 NOT ADD SLT PUSH3 0x10D JUMPI PUSH1 0x1 PUSH1 0x1 PUSH1 0xA0 SHL SUB PUSH3 0xEF PUSH3 0xC40 JUMP JUMPDEST AND PUSH1 0x0 MSTORE PUSH1 0x4 PUSH1 0x20 MSTORE PUSH1 0x20 PUSH1 0xFF PUSH1 0x40 PUSH1 0x0 KECCAK256 SLOAD AND PUSH1 0x40 MLOAD SWAP1 ISZERO ISZERO DUP2 MSTORE RETURN JUMPDEST PUSH1 0x0 DUP1 REVERT JUMPDEST CALLVALUE PUSH3 0x10D JUMPI PUSH1 0x40 CALLDATASIZE PUSH1 0x3 NOT ADD SLT PUSH3 0x10D JUMPI PUSH3 0x12F PUSH3 0xC40 JUMP JUMPDEST PUSH1 0x24 CALLDATALOAD SWAP1 PUSH1 0x1 PUSH1 0x1 PUSH1 0xA0 SHL SUB DUP1 SWAP2 AND PUSH1 0x0 MSTORE PUSH1 0x5 PUSH1 0x20 MSTORE PUSH1 0x40 PUSH1 0x0 KECCAK256 DUP1 SLOAD DUP4 LT ISZERO PUSH3 0x10D JUMPI PUSH1 0x20 SWAP3 PUSH3 0x163 SWAP2 PUSH3 0xDBB JUMP JUMPDEST SWAP2 SWAP1 SLOAD PUSH1 0x40 MLOAD SWAP3 PUSH1 0x3 SHL SHR AND DUP2 MSTORE RETURN JUMPDEST CALLVALUE PUSH3 0x10D JUMPI PUSH1 0x20 CALLDATASIZE PUSH1 0x3 NOT ADD SLT PUSH3 0x10D JUMPI PUSH8 0xFFFFFFFFFFFFFFFF PUSH1 0x4 CALLDATALOAD GT PUSH3 0x10D JUMPI CALLDATASIZE PUSH1 0x23 PUSH1 0x4 CALLDATALOAD ADD SLT ISZERO PUSH3 0x10D JUMPI PUSH1 0x4 CALLDATALOAD PUSH1 0x4 ADD CALLDATALOAD PUSH8 0xFFFFFFFFFFFFFFFF DUP2 GT PUSH3 0x429 JUMPI DUP1 PUSH1 0x5 SHL SWAP1 PUSH1 0x40 MLOAD SWAP1 PUSH3 0x1D5 PUSH1 0x20 DUP5 ADD DUP4 PUSH3 0xC57 JUMP JUMPDEST DUP2 MSTORE PUSH1 0x20 DUP2 ADD PUSH1 0x24 SWAP3 CALLDATASIZE DUP5 DUP3 PUSH1 0x4 CALLDATALOAD ADD ADD GT PUSH3 0x10D JUMPI DUP4 PUSH1 0x4 CALLDATALOAD ADD SWAP2 JUMPDEST DUP5 DUP3 PUSH1 0x4 CALLDATALOAD ADD ADD DUP4 LT PUSH3 0x352 JUMPI POP POP POP PUSH1 0x1 PUSH1 0x1 PUSH1 0xA0 SHL SUB PUSH32 0x0 AND CALLER SUB PUSH3 0x328 JUMPI PUSH1 0x0 JUMPDEST DUP2 MLOAD DUP2 LT ISZERO PUSH3 0x1B JUMPI PUSH3 0x28F PUSH1 0x20 PUSH3 0x254 DUP4 DUP6 PUSH3 0xDD4 JUMP JUMPDEST MLOAD ADD MLOAD PUSH3 0x27F PUSH1 0x20 PUSH3 0x269 DUP6 DUP8 PUSH3 0xDD4 JUMP JUMPDEST MLOAD MLOAD DUP2 PUSH1 0x40 MLOAD SWAP4 DUP3 DUP6 DUP1 SWAP5 MLOAD SWAP4 DUP5 SWAP3 ADD PUSH3 0xCE4 JUMP JUMPDEST DUP2 ADD PUSH1 0x2 DUP2 MSTORE SUB ADD SWAP1 KECCAK256 PUSH3 0xDE9 JUMP JUMPDEST PUSH3 0x29B DUP2 DUP4 PUSH3 0xDD4 JUMP JUMPDEST MLOAD MLOAD PUSH1 0x1 DUP1 SLOAD PUSH9 0x10000000000000000 DUP2 LT ISZERO PUSH3 0x313 JUMPI DUP2 PUSH3 0x2C3 SWAP3 DUP3 ADD SWAP1 SSTORE PUSH3 0xD6D JUMP JUMPDEST SWAP2 SWAP1 SWAP2 PUSH3 0x2FE JUMPI PUSH3 0x2D6 SWAP2 PUSH3 0xDE9 JUMP JUMPDEST PUSH1 0x0 NOT DUP2 EQ PUSH3 0x2E9 JUMPI PUSH1 0x1 ADD PUSH3 0x238 JUMP JUMPDEST DUP3 PUSH4 0x4E487B71 PUSH1 0xE0 SHL PUSH1 0x0 MSTORE PUSH1 0x11 PUSH1 0x4 MSTORE PUSH1 0x0 REVERT JUMPDEST DUP5 PUSH4 0x4E487B71 PUSH1 0xE0 SHL PUSH1 0x0 MSTORE PUSH1 0x0 PUSH1 0x4 MSTORE PUSH1 0x0 REVERT JUMPDEST DUP6 PUSH4 0x4E487B71 PUSH1 0xE0 SHL PUSH1 0x0 MSTORE PUSH1 0x41 PUSH1 0x4 MSTORE PUSH1 0x0 REVERT JUMPDEST PUSH1 0x4 PUSH1 0x40 MLOAD PUSH32 0x30CD747100000000000000000000000000000000000000000000000000000000 DUP2 MSTORE REVERT JUMPDEST DUP3 CALLDATALOAD PUSH8 0xFFFFFFFFFFFFFFFF DUP2 GT PUSH3 0x10D JUMPI CALLDATASIZE PUSH1 0x43 DUP3 PUSH1 0x4 CALLDATALOAD ADD ADD SLT ISZERO PUSH3 0x10D JUMPI PUSH1 0x40 MLOAD SWAP1 PUSH1 0x40 DUP3 ADD DUP3 DUP2 LT PUSH8 0xFFFFFFFFFFFFFFFF DUP3 GT OR PUSH3 0x414 JUMPI PUSH1 0x40 MSTORE PUSH1 0x4 CALLDATALOAD DUP2 ADD PUSH1 0x64 ADD SWAP1 DUP3 CALLDATASIZE DUP4 GT PUSH3 0x10D JUMPI SWAP1 DUP9 SWAP5 SWAP4 SWAP3 SWAP2 DUP6 DUP3 PUSH1 0x4 CALLDATALOAD ADD ADD SWAP1 JUMPDEST DUP4 DUP3 LT PUSH3 0x3D2 JUMPI POP POP POP SWAP1 DUP3 MSTORE POP PUSH1 0x20 SWAP4 DUP5 ADD SWAP4 ADD SWAP1 POP PUSH3 0x1F3 JUMP JUMPDEST SWAP1 SWAP2 SWAP3 SWAP4 SWAP5 SWAP6 POP PUSH8 0xFFFFFFFFFFFFFFFF DUP3 CALLDATALOAD GT PUSH3 0x10D JUMPI PUSH1 0x20 DUP1 SWAP2 PUSH3 0x403 CALLDATASIZE DUP14 DUP7 CALLDATALOAD DUP9 PUSH1 0x4 CALLDATALOAD ADD ADD ADD PUSH3 0xC97 JUMP JUMPDEST DUP2 MSTORE ADD SWAP2 ADD DUP10 SWAP6 SWAP5 SWAP4 SWAP3 SWAP2 PUSH3 0x3B4 JUMP JUMPDEST DUP8 PUSH4 0x4E487B71 PUSH1 0xE0 SHL PUSH1 0x0 MSTORE PUSH1 0x41 PUSH1 0x4 MSTORE PUSH1 0x0 REVERT JUMPDEST PUSH4 0x4E487B71 PUSH1 0xE0 SHL PUSH1 0x0 MSTORE PUSH1 0x41 PUSH1 0x4 MSTORE PUSH1 0x24 PUSH1 0x0 REVERT JUMPDEST CALLVALUE PUSH3 0x10D JUMPI PUSH1 0x0 CALLDATASIZE PUSH1 0x3 NOT ADD SLT PUSH3 0x10D JUMPI PUSH1 0x20 PUSH1 0x40 MLOAD PUSH1 0x1 PUSH1 0x1 PUSH1 0xA0 SHL SUB PUSH32 0x0 AND DUP2 MSTORE RETURN JUMPDEST CALLVALUE PUSH3 0x10D JUMPI PUSH2 0x1A0 DUP1 PUSH1 0x3 NOT CALLDATASIZE ADD SLT PUSH3 0x10D JUMPI PUSH3 0x4A4 PUSH3 0xC40 JUMP JUMPDEST SWAP1 PUSH1 0x24 CALLDATALOAD SWAP2 PUSH1 0x1 PUSH1 0x1 PUSH1 0xA0 SHL SUB SWAP2 DUP3 DUP5 AND DUP1 SWAP5 SUB PUSH3 0x10D JUMPI PUSH1 0x84 CALLDATALOAD SWAP2 PUSH1 0xC4 CALLDATALOAD SWAP1 DUP5 DUP3 AND DUP1 SWAP3 SUB PUSH3 0x10D JUMPI PUSH1 0xE4 CALLDATALOAD SWAP3 DUP6 DUP5 AND DUP1 SWAP5 SUB PUSH3 0x10D JUMPI PUSH2 0x104 CALLDATALOAD SWAP1 DUP7 DUP3 AND DUP1 SWAP3 SUB PUSH3 0x10D JUMPI PUSH2 0x124 CALLDATALOAD DUP8 DUP2 AND DUP1 SWAP2 SUB PUSH3 0x10D JUMPI PUSH2 0x144 CALLDATALOAD PUSH4 0xFFFFFFFF DUP2 AND DUP1 SWAP2 SUB PUSH3 0x10D JUMPI PUSH8 0xFFFFFFFFFFFFFFFF SWAP2 PUSH2 0x184 CALLDATALOAD DUP4 DUP2 GT PUSH3 0x10D JUMPI PUSH3 0x537 SWAP1 CALLDATASIZE SWAP1 PUSH1 0x4 ADD PUSH3 0xC97 JUMP JUMPDEST SWAP5 DUP12 PUSH1 0x0 MSTORE PUSH1 0x3 PUSH1 0x20 MSTORE PUSH1 0xFF PUSH1 0x40 PUSH1 0x0 KECCAK256 SLOAD AND ISZERO PUSH3 0x660 JUMPI PUSH1 0x40 MLOAD SWAP9 PUSH2 0x4244 SWAP9 DUP10 DUP12 ADD SWAP6 DUP7 GT DUP12 DUP8 LT OR PUSH3 0x429 JUMPI DUP13 PUSH3 0x5D1 SWAP10 DUP13 SWAP12 PUSH3 0xF0A DUP14 CODECOPY AND DUP7 MSTORE DUP14 PUSH1 0x20 DUP8 ADD MSTORE PUSH1 0x44 CALLDATALOAD PUSH1 0x40 DUP8 ADD MSTORE PUSH1 0x64 CALLDATALOAD PUSH1 0x60 DUP8 ADD MSTORE DUP12 PUSH1 0x80 DUP8 ADD MSTORE PUSH1 0xA4 CALLDATALOAD PUSH1 0xA0 DUP8 ADD MSTORE PUSH1 0xC0 DUP7 ADD MSTORE PUSH1 0xE0 DUP6 ADD MSTORE PUSH2 0x100 DUP5 ADD MSTORE PUSH2 0x120 DUP4 ADD MSTORE PUSH2 0x140 DUP3 ADD MSTORE PUSH2 0x164 CALLDATALOAD PUSH2 0x160 DUP3 ADD MSTORE DUP2 PUSH2 0x180 DUP3 ADD MSTORE ADD SWAP1 PUSH3 0xD46 JUMP JUMPDEST SUB SWAP2 CREATE SWAP2 DUP3 ISZERO PUSH3 0x654 JUMPI PUSH1 0x0 MSTORE PUSH1 0x5 PUSH1 0x20 MSTORE PUSH1 0x40 PUSH1 0x0 KECCAK256 SWAP1 DUP2 SLOAD SWAP3 PUSH9 0x10000000000000000 DUP5 LT ISZERO PUSH3 0x429 JUMPI DUP2 PUSH3 0x635 DUP6 PUSH1 0x20 SWAP6 PUSH1 0x1 PUSH32 0xA155A575082ECF596E5A22A44834BE92670605D1D0832000305888BA02A462D9 SWAP9 ADD DUP2 SSTORE PUSH3 0xDBB JUMP JUMPDEST SWAP4 SWAP1 SWAP3 AND SWAP3 DUP3 SLOAD SWAP1 PUSH1 0x3 SHL SWAP2 DUP5 DUP4 SHL SWAP3 SHL NOT AND OR SWAP1 SSTORE PUSH1 0x40 MLOAD SWAP1 DUP2 MSTORE LOG1 STOP JUMPDEST PUSH1 0x40 MLOAD RETURNDATASIZE PUSH1 0x0 DUP3 RETURNDATACOPY RETURNDATASIZE SWAP1 REVERT JUMPDEST PUSH1 0x84 PUSH1 0x40 MLOAD PUSH3 0x461BCD PUSH1 0xE5 SHL DUP2 MSTORE PUSH1 0x20 PUSH1 0x4 DUP3 ADD MSTORE PUSH1 0x21 PUSH1 0x24 DUP3 ADD MSTORE PUSH32 0x456E64657265636F206E616F2065737461206E61206C69737461206272616E63 PUSH1 0x44 DUP3 ADD MSTORE PUSH32 0x6100000000000000000000000000000000000000000000000000000000000000 PUSH1 0x64 DUP3 ADD MSTORE REVERT JUMPDEST CALLVALUE PUSH3 0x10D JUMPI PUSH1 0x20 CALLDATASIZE PUSH1 0x3 NOT ADD SLT PUSH3 0x10D JUMPI PUSH1 0x1 PUSH1 0x1 PUSH1 0xA0 SHL SUB PUSH3 0x6EF PUSH3 0xC40 JUMP JUMPDEST AND PUSH1 0x0 MSTORE PUSH1 0x3 PUSH1 0x20 MSTORE PUSH1 0x20 PUSH1 0xFF PUSH1 0x40 PUSH1 0x0 KECCAK256 SLOAD AND PUSH1 0x40 MLOAD SWAP1 ISZERO ISZERO DUP2 MSTORE RETURN JUMPDEST CALLVALUE PUSH3 0x10D JUMPI PUSH1 0x20 DUP1 PUSH1 0x3 NOT CALLDATASIZE ADD SLT PUSH3 0x10D JUMPI PUSH1 0x4 CALLDATALOAD SWAP1 PUSH1 0x1 SWAP2 DUP3 SLOAD DUP2 LT ISZERO PUSH3 0x10D JUMPI PUSH3 0x73D SWAP1 PUSH3 0xD6D JUMP JUMPDEST PUSH3 0x806 JUMPI PUSH1 0x40 MLOAD DUP1 SWAP4 PUSH1 0x0 SWAP1 DUP4 SLOAD SWAP4 PUSH3 0x758 DUP6 PUSH3 0xD09 JUMP JUMPDEST SWAP5 DUP6 DUP6 MSTORE DUP7 DUP4 DUP3 AND SWAP2 DUP3 PUSH1 0x0 EQ PUSH3 0x7E2 JUMPI POP POP PUSH1 0x1 EQ PUSH3 0x79F JUMPI JUMPDEST POP POP PUSH3 0x785 SWAP3 POP SUB DUP4 PUSH3 0xC57 JUMP JUMPDEST PUSH3 0x79B PUSH1 0x40 MLOAD SWAP3 DUP3 DUP5 SWAP4 DUP5 MSTORE DUP4 ADD SWAP1 PUSH3 0xD46 JUMP JUMPDEST SUB SWAP1 RETURN JUMPDEST DUP6 SWAP3 POP PUSH1 0x0 MSTORE DUP2 PUSH1 0x0 KECCAK256 SWAP1 PUSH1 0x0 SWAP2 JUMPDEST DUP6 DUP4 LT PUSH3 0x7C9 JUMPI POP POP PUSH3 0x785 SWAP4 POP DUP3 ADD ADD DUP6 DUP1 PUSH3 0x775 JUMP JUMPDEST DUP1 SLOAD DUP4 DUP10 ADD DUP6 ADD MSTORE DUP8 SWAP5 POP DUP7 SWAP4 SWAP1 SWAP3 ADD SWAP2 DUP2 ADD PUSH3 0x7AE JUMP JUMPDEST SWAP3 POP SWAP4 POP POP PUSH3 0x785 SWAP5 SWAP2 POP PUSH1 0xFF NOT AND DUP3 DUP5 ADD MSTORE ISZERO ISZERO PUSH1 0x5 SHL DUP3 ADD ADD DUP6 DUP1 PUSH3 0x775 JUMP JUMPDEST PUSH4 0x4E487B71 PUSH1 0xE0 SHL PUSH1 0x0 MSTORE PUSH1 0x0 PUSH1 0x4 MSTORE PUSH1 0x24 PUSH1 0x0 REVERT JUMPDEST CALLVALUE PUSH3 0x10D JUMPI PUSH1 0x0 CALLDATASIZE PUSH1 0x3 NOT ADD SLT PUSH3 0x10D JUMPI PUSH1 0x20 SELFBALANCE PUSH1 0x40 MLOAD SWAP1 DUP2 MSTORE RETURN JUMPDEST CALLVALUE PUSH3 0x10D JUMPI PUSH1 0x20 CALLDATASIZE PUSH1 0x3 NOT ADD SLT PUSH3 0x10D JUMPI PUSH1 0x1 PUSH1 0x1 PUSH1 0xA0 SHL SUB PUSH3 0x85F PUSH3 0xC40 JUMP JUMPDEST AND PUSH1 0x0 MSTORE PUSH1 0x3 PUSH1 0x20 MSTORE PUSH1 0x40 PUSH1 0x0 KECCAK256 PUSH1 0xFF NOT SWAP1 DUP2 DUP2 SLOAD AND SWAP1 SSTORE PUSH1 0x4 PUSH1 0x20 MSTORE PUSH1 0x1 PUSH1 0x40 PUSH1 0x0 KECCAK256 SWAP2 DUP3 SLOAD AND OR SWAP1 SSTORE PUSH1 0x0 DUP1 RETURN JUMPDEST CALLVALUE PUSH3 0x10D JUMPI PUSH1 0x20 DUP1 PUSH1 0x3 NOT CALLDATASIZE ADD SLT PUSH3 0x10D JUMPI PUSH1 0x1 PUSH1 0x1 PUSH1 0xA0 SHL SUB SWAP1 DUP2 PUSH3 0x8B7 PUSH3 0xC40 JUMP JUMPDEST AND PUSH1 0x0 MSTORE PUSH1 0x5 DUP2 MSTORE PUSH1 0x40 PUSH1 0x0 KECCAK256 PUSH1 0x40 MLOAD SWAP2 DUP3 DUP2 DUP4 SLOAD SWAP2 DUP3 DUP2 MSTORE ADD SWAP1 DUP2 SWAP4 PUSH1 0x0 MSTORE DUP3 PUSH1 0x0 KECCAK256 SWAP1 PUSH1 0x0 JUMPDEST DUP2 DUP2 LT PUSH3 0x935 JUMPI POP POP POP DUP4 PUSH3 0x8F8 SWAP2 SUB DUP5 PUSH3 0xC57 JUMP JUMPDEST PUSH1 0x40 MLOAD SWAP3 DUP2 DUP5 ADD SWAP1 DUP3 DUP6 MSTORE MLOAD DUP1 SWAP2 MSTORE PUSH1 0x40 DUP5 ADD SWAP3 SWAP2 PUSH1 0x0 JUMPDEST DUP3 DUP2 LT PUSH3 0x91E JUMPI DUP6 DUP6 SUB DUP7 RETURN JUMPDEST DUP4 MLOAD DUP8 AND DUP6 MSTORE SWAP4 DUP2 ADD SWAP4 SWAP3 DUP2 ADD SWAP3 PUSH1 0x1 ADD PUSH3 0x910 JUMP JUMPDEST DUP3 SLOAD DUP9 AND DUP5 MSTORE SWAP3 DUP5 ADD SWAP3 PUSH1 0x1 SWAP3 DUP4 ADD SWAP3 ADD PUSH3 0x8DF JUMP JUMPDEST CALLVALUE PUSH3 0x10D JUMPI PUSH1 0x0 CALLDATASIZE PUSH1 0x3 NOT ADD SLT PUSH3 0x10D JUMPI PUSH1 0x1 PUSH1 0x1 PUSH1 0xA0 SHL SUB PUSH32 0x0 AND DUP1 CALLER SUB PUSH3 0x328 JUMPI PUSH1 0x0 DUP1 DUP1 DUP1 SWAP4 SELFBALANCE SWAP1 GAS CALL RETURNDATASIZE ISZERO PUSH3 0xA15 JUMPI RETURNDATASIZE PUSH3 0x9AE DUP2 PUSH3 0xC7A JUMP JUMPDEST SWAP1 PUSH3 0x9BE PUSH1 0x40 MLOAD SWAP3 DUP4 PUSH3 0xC57 JUMP JUMPDEST DUP2 MSTORE PUSH1 0x0 PUSH1 0x20 RETURNDATASIZE SWAP3 ADD RETURNDATACOPY JUMPDEST ISZERO PUSH3 0x9D1 JUMPI STOP JUMPDEST PUSH1 0x64 PUSH1 0x40 MLOAD PUSH3 0x461BCD PUSH1 0xE5 SHL DUP2 MSTORE PUSH1 0x20 PUSH1 0x4 DUP3 ADD MSTORE PUSH1 0x10 PUSH1 0x24 DUP3 ADD MSTORE PUSH32 0x5769746864726177206661696C65642E00000000000000000000000000000000 PUSH1 0x44 DUP3 ADD MSTORE REVERT JUMPDEST PUSH3 0x9C9 JUMP JUMPDEST CALLVALUE PUSH3 0x10D JUMPI PUSH1 0x0 CALLDATASIZE PUSH1 0x3 NOT ADD SLT PUSH3 0x10D JUMPI PUSH1 0x40 MLOAD PUSH1 0x0 DUP1 SLOAD PUSH3 0xA40 DUP2 PUSH3 0xD09 JUMP JUMPDEST DUP1 DUP5 MSTORE SWAP1 PUSH1 0x1 SWAP1 DUP2 DUP2 AND SWAP1 DUP2 ISZERO PUSH3 0xAE1 JUMPI POP PUSH1 0x1 EQ PUSH3 0xA84 JUMPI JUMPDEST PUSH3 0x79B DUP5 PUSH3 0xA6F DUP2 DUP7 SUB DUP3 PUSH3 0xC57 JUMP JUMPDEST PUSH1 0x40 MLOAD SWAP2 DUP3 SWAP2 PUSH1 0x20 DUP4 MSTORE PUSH1 0x20 DUP4 ADD SWAP1 PUSH3 0xD46 JUMP JUMPDEST PUSH1 0x0 DUP1 DUP1 MSTORE SWAP3 POP PUSH32 0x290DECD9548B62A8D60345A988386FC84BA6BC95484008F6362F93160EF3E563 JUMPDEST DUP3 DUP5 LT PUSH3 0xAC8 JUMPI POP POP POP DUP2 ADD PUSH1 0x20 ADD PUSH3 0xA6F DUP3 PUSH3 0xA5C JUMP JUMPDEST DUP1 SLOAD PUSH1 0x20 DUP6 DUP8 ADD DUP2 ADD SWAP2 SWAP1 SWAP2 MSTORE SWAP1 SWAP4 ADD SWAP3 DUP2 ADD PUSH3 0xAAD JUMP JUMPDEST PUSH1 0xFF NOT AND PUSH1 0x20 DUP1 DUP8 ADD SWAP2 SWAP1 SWAP2 MSTORE SWAP3 ISZERO ISZERO PUSH1 0x5 SHL DUP6 ADD SWAP1 SWAP3 ADD SWAP3 POP PUSH3 0xA6F SWAP2 POP DUP4 SWAP1 POP PUSH3 0xA5C JUMP JUMPDEST CALLVALUE PUSH3 0x10D JUMPI PUSH1 0x20 DUP1 PUSH1 0x3 NOT CALLDATASIZE ADD SLT PUSH3 0x10D JUMPI PUSH1 0x4 CALLDATALOAD PUSH8 0xFFFFFFFFFFFFFFFF DUP2 GT PUSH3 0x10D JUMPI DUP2 PUSH3 0xB46 PUSH3 0xB5A SWAP3 CALLDATASIZE SWAP1 PUSH1 0x4 ADD PUSH3 0xC97 JUMP JUMPDEST DUP2 PUSH1 0x40 MLOAD SWAP4 DUP3 DUP6 DUP1 SWAP5 MLOAD SWAP4 DUP5 SWAP3 ADD PUSH3 0xCE4 JUMP JUMPDEST DUP2 ADD PUSH1 0x2 DUP2 MSTORE SUB ADD SWAP1 KECCAK256 SWAP1 PUSH1 0x40 MLOAD SWAP2 DUP3 PUSH1 0x0 DUP3 SLOAD PUSH3 0xB79 DUP2 PUSH3 0xD09 JUMP JUMPDEST SWAP4 DUP5 DUP5 MSTORE PUSH1 0x1 SWAP2 DUP7 DUP4 DUP3 AND SWAP2 DUP3 PUSH1 0x0 EQ PUSH3 0x7E2 JUMPI POP POP PUSH1 0x1 EQ PUSH3 0xBA8 JUMPI POP POP PUSH3 0x785 SWAP3 POP SUB DUP4 PUSH3 0xC57 JUMP JUMPDEST DUP6 SWAP3 POP PUSH1 0x0 MSTORE DUP2 PUSH1 0x0 KECCAK256 SWAP1 PUSH1 0x0 SWAP2 JUMPDEST DUP6 DUP4 LT PUSH3 0xBD2 JUMPI POP POP PUSH3 0x785 SWAP4 POP DUP3 ADD ADD DUP6 DUP1 PUSH3 0x775 JUMP JUMPDEST DUP1 SLOAD DUP4 DUP10 ADD DUP6 ADD MSTORE DUP8 SWAP5 POP DUP7 SWAP4 SWAP1 SWAP3 ADD SWAP2 DUP2 ADD PUSH3 0xBB7 JUMP JUMPDEST CALLVALUE PUSH3 0x10D JUMPI PUSH1 0x20 CALLDATASIZE PUSH1 0x3 NOT ADD SLT PUSH3 0x10D JUMPI PUSH1 0x1 PUSH1 0x1 PUSH1 0xA0 SHL SUB PUSH3 0xC10 PUSH3 0xC40 JUMP JUMPDEST AND PUSH1 0x0 MSTORE PUSH1 0x3 PUSH1 0x20 MSTORE PUSH1 0x40 PUSH1 0x0 KECCAK256 PUSH1 0xFF NOT SWAP1 PUSH1 0x1 DUP3 DUP3 SLOAD AND OR SWAP1 SSTORE PUSH1 0x4 PUSH1 0x20 MSTORE PUSH1 0x40 PUSH1 0x0 KECCAK256 SWAP1 DUP2 SLOAD AND SWAP1 SSTORE PUSH1 0x0 DUP1 RETURN JUMPDEST PUSH1 0x4 CALLDATALOAD SWAP1 PUSH1 0x1 PUSH1 0x1 PUSH1 0xA0 SHL SUB DUP3 AND DUP3 SUB PUSH3 0x10D JUMPI JUMP JUMPDEST SWAP1 PUSH1 0x1F DUP1 NOT SWAP2 ADD AND DUP2 ADD SWAP1 DUP2 LT PUSH8 0xFFFFFFFFFFFFFFFF DUP3 GT OR PUSH3 0x429 JUMPI PUSH1 0x40 MSTORE JUMP JUMPDEST PUSH8 0xFFFFFFFFFFFFFFFF DUP2 GT PUSH3 0x429 JUMPI PUSH1 0x1F ADD PUSH1 0x1F NOT AND PUSH1 0x20 ADD SWAP1 JUMP JUMPDEST DUP2 PUSH1 0x1F DUP3 ADD SLT ISZERO PUSH3 0x10D JUMPI DUP1 CALLDATALOAD SWAP1 PUSH3 0xCB1 DUP3 PUSH3 0xC7A JUMP JUMPDEST SWAP3 PUSH3 0xCC1 PUSH1 0x40 MLOAD SWAP5 DUP6 PUSH3 0xC57 JUMP JUMPDEST DUP3 DUP5 MSTORE PUSH1 0x20 DUP4 DUP4 ADD ADD GT PUSH3 0x10D JUMPI DUP2 PUSH1 0x0 SWAP3 PUSH1 0x20 DUP1 SWAP4 ADD DUP4 DUP7 ADD CALLDATACOPY DUP4 ADD ADD MSTORE SWAP1 JUMP JUMPDEST PUSH1 0x0 JUMPDEST DUP4 DUP2 LT PUSH3 0xCF8 JUMPI POP POP PUSH1 0x0 SWAP2 ADD MSTORE JUMP JUMPDEST DUP2 DUP2 ADD MLOAD DUP4 DUP3 ADD MSTORE PUSH1 0x20 ADD PUSH3 0xCE7 JUMP JUMPDEST SWAP1 PUSH1 0x1 DUP3 DUP2 SHR SWAP3 AND DUP1 ISZERO PUSH3 0xD3B JUMPI JUMPDEST PUSH1 0x20 DUP4 LT EQ PUSH3 0xD25 JUMPI JUMP JUMPDEST PUSH4 0x4E487B71 PUSH1 0xE0 SHL PUSH1 0x0 MSTORE PUSH1 0x22 PUSH1 0x4 MSTORE PUSH1 0x24 PUSH1 0x0 REVERT JUMPDEST SWAP2 PUSH1 0x7F AND SWAP2 PUSH3 0xD19 JUMP JUMPDEST SWAP1 PUSH1 0x20 SWAP2 PUSH3 0xD61 DUP2 MLOAD DUP1 SWAP3 DUP2 DUP6 MSTORE DUP6 DUP1 DUP7 ADD SWAP2 ADD PUSH3 0xCE4 JUMP JUMPDEST PUSH1 0x1F ADD PUSH1 0x1F NOT AND ADD ADD SWAP1 JUMP JUMPDEST PUSH1 0x1 SLOAD DUP2 LT ISZERO PUSH3 0xDA5 JUMPI PUSH1 0x1 PUSH1 0x0 MSTORE PUSH32 0xB10E2D527612073B26EECDFD717E6A320CF44B4AFAC2B0732D9FCBE2B7FA0CF6 ADD SWAP1 PUSH1 0x0 SWAP1 JUMP JUMPDEST PUSH4 0x4E487B71 PUSH1 0xE0 SHL PUSH1 0x0 MSTORE PUSH1 0x32 PUSH1 0x4 MSTORE PUSH1 0x24 PUSH1 0x0 REVERT JUMPDEST DUP1 SLOAD DUP3 LT ISZERO PUSH3 0xDA5 JUMPI PUSH1 0x0 MSTORE PUSH1 0x20 PUSH1 0x0 KECCAK256 ADD SWAP1 PUSH1 0x0 SWAP1 JUMP JUMPDEST DUP1 MLOAD DUP3 LT ISZERO PUSH3 0xDA5 JUMPI PUSH1 0x20 SWAP2 PUSH1 0x5 SHL ADD ADD SWAP1 JUMP JUMPDEST SWAP2 SWAP1 SWAP2 DUP3 MLOAD PUSH8 0xFFFFFFFFFFFFFFFF DUP2 GT PUSH3 0x429 JUMPI PUSH3 0xE0A DUP3 SLOAD PUSH3 0xD09 JUMP JUMPDEST PUSH1 0x1F DUP2 GT PUSH3 0xEBC JUMPI JUMPDEST POP PUSH1 0x20 DUP1 PUSH1 0x1F DUP4 GT PUSH1 0x1 EQ PUSH3 0xE54 JUMPI POP DUP2 SWAP3 SWAP4 SWAP5 PUSH1 0x0 SWAP3 PUSH3 0xE48 JUMPI JUMPDEST POP POP DUP2 PUSH1 0x1 SHL SWAP2 PUSH1 0x0 NOT SWAP1 PUSH1 0x3 SHL SHR NOT AND OR SWAP1 SSTORE JUMP JUMPDEST ADD MLOAD SWAP1 POP CODESIZE DUP1 PUSH3 0xE32 JUMP JUMPDEST SWAP1 PUSH1 0x1F NOT DUP4 AND SWAP6 DUP5 PUSH1 0x0 MSTORE DUP3 PUSH1 0x0 KECCAK256 SWAP3 PUSH1 0x0 SWAP1 JUMPDEST DUP9 DUP3 LT PUSH3 0xEA3 JUMPI POP POP DUP4 PUSH1 0x1 SWAP6 SWAP7 SWAP8 LT PUSH3 0xE89 JUMPI JUMPDEST POP POP POP DUP2 SHL ADD SWAP1 SSTORE JUMP JUMPDEST ADD MLOAD PUSH1 0x0 NOT PUSH1 0xF8 DUP5 PUSH1 0x3 SHL AND SHR NOT AND SWAP1 SSTORE CODESIZE DUP1 DUP1 PUSH3 0xE7F JUMP JUMPDEST DUP1 PUSH1 0x1 DUP6 SWAP7 DUP3 SWAP5 SWAP7 DUP7 ADD MLOAD DUP2 SSTORE ADD SWAP6 ADD SWAP4 ADD SWAP1 PUSH3 0xE68 JUMP JUMPDEST PUSH1 0x0 DUP4 DUP2 MSTORE PUSH1 0x20 DUP2 KECCAK256 PUSH1 0x1F DUP5 ADD PUSH1 0x5 SHR DUP2 ADD SWAP3 PUSH1 0x20 DUP6 LT PUSH3 0xEFE JUMPI JUMPDEST PUSH1 0x1F ADD PUSH1 0x5 SHR ADD SWAP2 JUMPDEST DUP3 DUP2 LT PUSH3 0xEF2 JUMPI POP POP PUSH3 0xE14 JUMP JUMPDEST DUP2 DUP2 SSTORE PUSH1 0x1 ADD PUSH3 0xEE2 JUMP JUMPDEST SWAP1 SWAP3 POP DUP3 SWAP1 PUSH3 0xED9 JUMP INVALID PUSH2 0x120 PUSH1 0x40 MSTORE PUSH3 0x4244 DUP1 CODESIZE SUB SWAP1 DUP2 PUSH3 0x19 DUP2 PUSH3 0x425 JUMP JUMPDEST SWAP2 DUP3 CODECOPY PUSH2 0x1A0 DUP2 DUP4 DUP2 ADD SUB SLT PUSH3 0x420 JUMPI PUSH3 0x35 DUP2 PUSH3 0x44B JUMP JUMPDEST SWAP1 PUSH3 0x44 PUSH1 0x20 DUP3 ADD PUSH3 0x44B JUMP JUMPDEST PUSH1 0x40 DUP3 ADD MLOAD SWAP3 PUSH1 0x60 DUP4 ADD MLOAD SWAP2 PUSH1 0x80 DUP5 ADD MLOAD SWAP5 PUSH1 0xA0 DUP6 ADD MLOAD SWAP2 PUSH3 0x6A PUSH1 0xC0 DUP8 ADD PUSH3 0x44B JUMP JUMPDEST SWAP7 PUSH3 0x79 PUSH1 0xE0 DUP9 ADD PUSH3 0x44B JUMP JUMPDEST SWAP2 PUSH3 0x89 PUSH2 0x100 DUP10 ADD PUSH3 0x44B JUMP JUMPDEST SWAP3 PUSH3 0x99 PUSH2 0x120 DUP11 ADD PUSH3 0x44B JUMP JUMPDEST SWAP6 PUSH2 0x140 DUP11 ADD MLOAD SWAP4 PUSH4 0xFFFFFFFF DUP6 AND DUP6 SUB PUSH3 0x420 JUMPI PUSH2 0x160 DUP12 ADD MLOAD PUSH1 0xE0 MSTORE PUSH2 0x180 DUP12 ADD MLOAD SWAP13 PUSH1 0x1 PUSH1 0x1 PUSH1 0x40 SHL SUB DUP15 GT PUSH3 0x420 JUMPI DUP1 DUP13 ADD DUP15 DUP14 ADD PUSH1 0x1F ADD SLT ISZERO PUSH3 0x420 JUMPI DUP12 DUP15 ADD MLOAD PUSH1 0xC0 DUP2 SWAP1 MSTORE SWAP1 PUSH1 0x1 PUSH1 0x1 PUSH1 0x40 SHL SUB DUP3 GT PUSH3 0x3C5 JUMPI DUP15 SWAP2 PUSH1 0x20 SWAP2 DUP15 SWAP2 PUSH3 0x112 SWAP1 PUSH1 0x1F ADD PUSH1 0x1F NOT AND DUP5 ADD PUSH3 0x425 JUMP JUMPDEST DUP1 PUSH2 0x100 MSTORE PUSH1 0xC0 MLOAD SWAP1 MSTORE DUP2 ADD SWAP3 PUSH1 0xC0 MLOAD SWAP2 ADD ADD ADD GT PUSH3 0x420 JUMPI PUSH1 0x0 JUMPDEST PUSH1 0xC0 MLOAD DUP2 LT ISZERO PUSH3 0x154 JUMPI PUSH1 0x20 DUP15 DUP14 ADD DUP3 ADD DUP2 ADD MLOAD PUSH2 0x100 MLOAD DUP4 ADD DUP3 ADD MSTORE ADD PUSH3 0x12F JUMP JUMPDEST POP PUSH1 0xC0 MLOAD PUSH2 0x100 MLOAD PUSH1 0x0 SWAP2 ADD PUSH1 0x20 ADD MSTORE PUSH1 0x1 PUSH1 0x1 PUSH1 0xA0 SHL SUB DUP1 DUP14 AND PUSH1 0x80 MSTORE SWAP9 DUP10 AND SWAP10 DUP11 ISZERO PUSH3 0x3DB JUMPI DUP10 SWAP8 DUP9 SWAP6 DUP13 PUSH1 0x1 DUP1 PUSH1 0xA0 SHL SUB NOT SWAP14 DUP15 PUSH1 0x0 SLOAD AND OR PUSH1 0x0 SSTORE DUP14 PUSH1 0x2 SLOAD AND OR PUSH1 0x2 SSTORE PUSH1 0x17 SLOAD SWAP1 PUSH2 0x100 PUSH1 0x1 PUSH1 0xA8 SHL SUB SWAP1 PUSH1 0x8 SHL AND SWAP1 PUSH2 0x100 PUSH1 0x1 PUSH1 0xA8 SHL SUB NOT AND OR PUSH1 0x17 SSTORE PUSH1 0x19 SSTORE PUSH1 0x1A SSTORE PUSH1 0x18 SSTORE PUSH1 0x8 SSTORE AND PUSH1 0xA0 MSTORE PUSH12 0xFFFFFFFF0000000000000000 PUSH1 0x7 SLOAD SWAP2 PUSH1 0x40 SHL AND SWAP1 PUSH12 0xFFFFFFFF0000000000000000 NOT AND OR PUSH1 0x7 SSTORE AND DUP4 PUSH1 0x9 SLOAD AND OR PUSH1 0x9 SSTORE AND SWAP1 PUSH1 0xA SLOAD AND OR PUSH1 0xA SSTORE TIMESTAMP PUSH1 0xF SSTORE PUSH1 0xE0 MLOAD PUSH1 0xE SSTORE PUSH2 0x100 MLOAD DUP1 MLOAD PUSH1 0x1 DUP1 PUSH1 0x40 SHL SUB DUP2 GT PUSH3 0x3C5 JUMPI PUSH1 0x1C SLOAD SWAP2 PUSH1 0x1 SWAP3 DUP4 DUP2 DUP2 SHR SWAP2 AND DUP1 ISZERO PUSH3 0x3BA JUMPI JUMPDEST PUSH1 0x20 DUP3 LT EQ PUSH3 0x3A4 JUMPI PUSH1 0x1F DUP2 GT PUSH3 0x337 JUMPI JUMPDEST POP PUSH1 0x20 SWAP1 PUSH1 0x1F DUP4 GT PUSH1 0x1 EQ PUSH3 0x2CC JUMPI POP DUP2 SWAP3 DUP3 SWAP2 PUSH1 0x0 SWAP4 PUSH3 0x2BD JUMPI JUMPDEST POP SHL SWAP2 PUSH1 0x0 NOT SWAP1 PUSH1 0x3 SHL SHR NOT AND OR PUSH1 0x1C SSTORE JUMPDEST PUSH1 0xFF NOT PUSH1 0x17 SLOAD AND PUSH1 0x17 SSTORE PUSH1 0x40 MLOAD PUSH2 0x3DE3 SWAP1 DUP2 PUSH3 0x461 DUP3 CODECOPY PUSH1 0x80 MLOAD DUP2 DUP2 DUP2 PUSH2 0x474 ADD MSTORE PUSH2 0xE1F ADD MSTORE PUSH1 0xA0 MLOAD DUP2 DUP2 DUP2 PUSH2 0x1047 ADD MSTORE PUSH2 0x156D ADD MSTORE RETURN JUMPDEST PUSH2 0x100 MLOAD ADD MLOAD SWAP3 POP DUP5 PUSH3 0x271 JUMP JUMPDEST SWAP1 PUSH1 0x1F NOT DUP4 AND SWAP2 PUSH1 0x1C PUSH1 0x0 MSTORE DUP4 PUSH1 0x20 PUSH1 0x0 KECCAK256 SWAP4 PUSH1 0x0 JUMPDEST DUP8 DUP3 DUP3 LT PUSH3 0x31D JUMPI POP POP LT PUSH3 0x303 JUMPI JUMPDEST POP POP POP DUP2 SHL ADD PUSH1 0x1C SSTORE PUSH3 0x283 JUMP JUMPDEST ADD MLOAD PUSH1 0x0 NOT PUSH1 0xF8 DUP5 PUSH1 0x3 SHL AND SHR NOT AND SWAP1 SSTORE DUP3 DUP1 DUP1 PUSH3 0x2F4 JUMP JUMPDEST DUP5 DUP7 ADD MLOAD DUP8 SSTORE SWAP1 SWAP6 ADD SWAP5 PUSH1 0x20 SWAP5 DUP6 ADD SWAP5 DUP8 SWAP4 POP ADD PUSH3 0x2E2 JUMP JUMPDEST PUSH1 0x1C PUSH1 0x0 MSTORE PUSH32 0xE4562A10381DEC21B205ED72637E6B1B523BDD0E4D4D50AF5CD23DD4500A211 PUSH1 0x1F DUP5 ADD PUSH1 0x5 SHR DUP2 ADD SWAP2 PUSH1 0x20 DUP6 LT PUSH3 0x399 JUMPI JUMPDEST PUSH1 0x1F ADD PUSH1 0x5 SHR ADD SWAP1 DUP5 SWAP1 JUMPDEST DUP3 DUP2 LT PUSH3 0x38C JUMPI POP POP PUSH3 0x253 JUMP JUMPDEST PUSH1 0x0 DUP2 SSTORE ADD DUP5 SWAP1 PUSH3 0x37C JUMP JUMPDEST SWAP1 SWAP2 POP DUP2 SWAP1 PUSH3 0x371 JUMP JUMPDEST PUSH4 0x4E487B71 PUSH1 0xE0 SHL PUSH1 0x0 MSTORE PUSH1 0x22 PUSH1 0x4 MSTORE PUSH1 0x24 PUSH1 0x0 REVERT JUMPDEST SWAP1 PUSH1 0x7F AND SWAP1 PUSH3 0x23F JUMP JUMPDEST PUSH4 0x4E487B71 PUSH1 0xE0 SHL PUSH1 0x0 MSTORE PUSH1 0x41 PUSH1 0x4 MSTORE PUSH1 0x24 PUSH1 0x0 REVERT JUMPDEST PUSH1 0x40 MLOAD PUSH3 0x461BCD PUSH1 0xE5 SHL DUP2 MSTORE PUSH1 0x20 PUSH1 0x4 DUP3 ADD MSTORE PUSH1 0x18 PUSH1 0x24 DUP3 ADD MSTORE PUSH32 0x43616E6E6F7420736574206F776E657220746F207A65726F0000000000000000 PUSH1 0x44 DUP3 ADD MSTORE PUSH1 0x64 SWAP1 REVERT JUMPDEST PUSH1 0x0 DUP1 REVERT JUMPDEST PUSH1 0x40 MLOAD SWAP2 SWAP1 PUSH1 0x1F ADD PUSH1 0x1F NOT AND DUP3 ADD PUSH1 0x1 PUSH1 0x1 PUSH1 0x40 SHL SUB DUP2 GT DUP4 DUP3 LT OR PUSH3 0x3C5 JUMPI PUSH1 0x40 MSTORE JUMP JUMPDEST MLOAD SWAP1 PUSH1 0x1 PUSH1 0x1 PUSH1 0xA0 SHL SUB DUP3 AND DUP3 SUB PUSH3 0x420 JUMPI JUMP INVALID PUSH1 0x80 PUSH1 0x40 MSTORE PUSH1 0x4 CALLDATASIZE LT ISZERO PUSH3 0x1D JUMPI JUMPDEST CALLDATASIZE ISZERO PUSH3 0x1B JUMPI PUSH1 0x0 DUP1 REVERT JUMPDEST STOP JUMPDEST PUSH1 0x0 CALLDATALOAD PUSH1 0xE0 SHR DUP1 PUSH4 0x89EA02E EQ PUSH3 0x2DA JUMPI DUP1 PUSH4 0x9C1BA2E EQ PUSH3 0x2D4 JUMPI DUP1 PUSH4 0xCA76175 EQ PUSH3 0x2CE JUMPI DUP1 PUSH4 0x1243BCC3 EQ PUSH3 0x2C8 JUMPI DUP1 PUSH4 0x1AA46F59 EQ PUSH3 0x2C2 JUMPI DUP1 PUSH4 0x24B93E3E EQ PUSH3 0x2BC JUMPI DUP1 PUSH4 0x277E2213 EQ PUSH3 0x2B6 JUMPI DUP1 PUSH4 0x2FC2A7B9 EQ PUSH3 0x2B0 JUMPI DUP1 PUSH4 0x338CDCA1 EQ PUSH3 0x2AA JUMPI DUP1 PUSH4 0x381FC4B5 EQ PUSH3 0x2A4 JUMPI DUP1 PUSH4 0x3944EA3A EQ PUSH3 0x29E JUMPI DUP1 PUSH4 0x3F678E11 EQ PUSH3 0x298 JUMPI DUP1 PUSH4 0x43CD3D86 EQ PUSH3 0x292 JUMPI DUP1 PUSH4 0x4585E33B EQ PUSH3 0x28C JUMPI DUP1 PUSH4 0x48802B92 EQ PUSH3 0x286 JUMPI DUP1 PUSH4 0x48BD6F05 EQ PUSH3 0x280 JUMPI DUP1 PUSH4 0x4B0795A8 EQ PUSH3 0x27A JUMPI DUP1 PUSH4 0x62ED9036 EQ PUSH3 0x274 JUMPI DUP1 PUSH4 0x688ECFD1 EQ PUSH3 0x26E JUMPI DUP1 PUSH4 0x6BAA48FE EQ PUSH3 0x268 JUMPI DUP1 PUSH4 0x6E04FF0D EQ PUSH3 0x262 JUMPI DUP1 PUSH4 0x6E74336B EQ PUSH3 0x25C JUMPI DUP1 PUSH4 0x79BA5097 EQ PUSH3 0x256 JUMPI DUP1 PUSH4 0x7B103999 EQ PUSH3 0x250 JUMPI DUP1 PUSH4 0x8B7AFE2E EQ PUSH3 0x24A JUMPI DUP1 PUSH4 0x8D7E6D2D EQ PUSH3 0x244 JUMPI DUP1 PUSH4 0x8DA5CB5B EQ PUSH3 0x23E JUMPI DUP1 PUSH4 0xA3097139 EQ PUSH3 0x238 JUMPI DUP1 PUSH4 0xA3D3C0D2 EQ PUSH3 0x232 JUMPI DUP1 PUSH4 0xB1E21749 EQ PUSH3 0x22C JUMPI DUP1 PUSH4 0xBEF3A2F0 EQ PUSH3 0x226 JUMPI DUP1 PUSH4 0xD2AA789F EQ PUSH3 0x220 JUMPI DUP1 PUSH4 0xD5F39488 EQ PUSH3 0x21A JUMPI DUP1 PUSH4 0xD811FCF0 EQ PUSH3 0x214 JUMPI DUP1 PUSH4 0xEA7B4F77 EQ PUSH3 0x20E JUMPI DUP1 PUSH4 0xEBF14A55 EQ PUSH3 0x208 JUMPI DUP1 PUSH4 0xF2FDE38B EQ PUSH3 0x202 JUMPI DUP1 PUSH4 0xFD2C80AE EQ PUSH3 0x1FC JUMPI PUSH4 0xFFFEB84E SUB PUSH3 0xF JUMPI PUSH3 0x1BC3 JUMP JUMPDEST PUSH3 0x1BA3 JUMP JUMPDEST PUSH3 0x1A98 JUMP JUMPDEST PUSH3 0x1A4C JUMP JUMPDEST PUSH3 0x1A0C JUMP JUMPDEST PUSH3 0x19E0 JUMP JUMPDEST PUSH3 0x19B7 JUMP JUMPDEST PUSH3 0x1997 JUMP JUMPDEST PUSH3 0x18E2 JUMP JUMPDEST PUSH3 0x18C2 JUMP JUMPDEST PUSH3 0x18A2 JUMP JUMPDEST PUSH3 0x1882 JUMP JUMPDEST PUSH3 0x1859 JUMP JUMPDEST PUSH3 0x15E5 JUMP JUMPDEST PUSH3 0x1591 JUMP JUMPDEST PUSH3 0x154B JUMP JUMPDEST PUSH3 0x1467 JUMP JUMPDEST PUSH3 0x1447 JUMP JUMPDEST PUSH3 0x13C9 JUMP JUMPDEST PUSH3 0x13A0 JUMP JUMPDEST PUSH3 0x12EB JUMP JUMPDEST PUSH3 0x11C5 JUMP JUMPDEST PUSH3 0x1110 JUMP JUMPDEST PUSH3 0x10F0 JUMP JUMPDEST PUSH3 0x10D0 JUMP JUMPDEST PUSH3 0xD84 JUMP JUMPDEST PUSH3 0xD15 JUMP JUMPDEST PUSH3 0xBEB JUMP JUMPDEST PUSH3 0xB36 JUMP JUMPDEST PUSH3 0xB16 JUMP JUMPDEST PUSH3 0xA30 JUMP JUMPDEST PUSH3 0xA07 JUMP JUMPDEST PUSH3 0x997 JUMP JUMPDEST PUSH3 0x6F5 JUMP JUMPDEST PUSH3 0x6D5 JUMP JUMPDEST PUSH3 0x6AC JUMP JUMPDEST PUSH3 0x416 JUMP JUMPDEST PUSH3 0x311 JUMP JUMPDEST PUSH3 0x2F1 JUMP JUMPDEST PUSH1 0x0 SWAP2 SUB SLT PUSH3 0x2EC JUMPI JUMP JUMPDEST PUSH1 0x0 DUP1 REVERT JUMPDEST CALLVALUE PUSH3 0x2EC JUMPI PUSH1 0x0 CALLDATASIZE PUSH1 0x3 NOT ADD SLT PUSH3 0x2EC JUMPI PUSH1 0x20 PUSH1 0xF SLOAD PUSH1 0x40 MLOAD SWAP1 DUP2 MSTORE RETURN JUMPDEST CALLVALUE PUSH3 0x2EC JUMPI PUSH1 0x0 CALLDATASIZE PUSH1 0x3 NOT ADD SLT PUSH3 0x2EC JUMPI PUSH1 0x20 PUSH8 0xFFFFFFFFFFFFFFFF PUSH1 0x7 SLOAD AND PUSH1 0x40 MLOAD SWAP1 DUP2 MSTORE RETURN JUMPDEST PUSH4 0x4E487B71 PUSH1 0xE0 SHL PUSH1 0x0 MSTORE PUSH1 0x41 PUSH1 0x4 MSTORE PUSH1 0x24 PUSH1 0x0 REVERT JUMPDEST PUSH8 0xFFFFFFFFFFFFFFFF DUP2 GT PUSH3 0x366 JUMPI PUSH1 0x40 MSTORE JUMP JUMPDEST PUSH3 0x33B JUMP JUMPDEST PUSH1 0x40 DUP2 ADD SWAP1 DUP2 LT PUSH8 0xFFFFFFFFFFFFFFFF DUP3 GT OR PUSH3 0x366 JUMPI PUSH1 0x40 MSTORE JUMP JUMPDEST SWAP1 PUSH1 0x1F DUP1 NOT SWAP2 ADD AND DUP2 ADD SWAP1 DUP2 LT PUSH8 0xFFFFFFFFFFFFFFFF DUP3 GT OR PUSH3 0x366 JUMPI PUSH1 0x40 MSTORE JUMP JUMPDEST PUSH8 0xFFFFFFFFFFFFFFFF DUP2 GT PUSH3 0x366 JUMPI PUSH1 0x1F ADD PUSH1 0x1F NOT AND PUSH1 0x20 ADD SWAP1 JUMP JUMPDEST DUP2 PUSH1 0x1F DUP3 ADD SLT ISZERO PUSH3 0x2EC JUMPI DUP1 CALLDATALOAD SWAP1 PUSH3 0x3E3 DUP3 PUSH3 0x3AC JUMP JUMPDEST SWAP3 PUSH3 0x3F3 PUSH1 0x40 MLOAD SWAP5 DUP6 PUSH3 0x389 JUMP JUMPDEST DUP3 DUP5 MSTORE PUSH1 0x20 DUP4 DUP4 ADD ADD GT PUSH3 0x2EC JUMPI DUP2 PUSH1 0x0 SWAP3 PUSH1 0x20 DUP1 SWAP4 ADD DUP4 DUP7 ADD CALLDATACOPY DUP4 ADD ADD MSTORE SWAP1 JUMP JUMPDEST CALLVALUE PUSH3 0x2EC JUMPI PUSH1 0x60 CALLDATASIZE PUSH1 0x3 NOT ADD SLT PUSH3 0x2EC JUMPI PUSH8 0xFFFFFFFFFFFFFFFF PUSH1 0x24 CALLDATALOAD DUP2 DUP2 GT PUSH3 0x2EC JUMPI PUSH3 0x44D SWAP1 CALLDATASIZE SWAP1 PUSH1 0x4 ADD PUSH3 0x3C9 JUMP JUMPDEST SWAP1 PUSH1 0x44 CALLDATALOAD SWAP1 DUP2 GT PUSH3 0x2EC JUMPI PUSH3 0x469 SWAP1 CALLDATASIZE SWAP1 PUSH1 0x4 ADD PUSH3 0x3C9 JUMP JUMPDEST POP PUSH1 0x1 PUSH1 0x1 PUSH1 0xA0 SHL SUB PUSH32 0x0 AND CALLER SUB PUSH3 0x682 JUMPI PUSH1 0x17 SLOAD PUSH1 0xFF AND PUSH3 0x526 JUMPI PUSH3 0x4F8 PUSH3 0x4E0 PUSH3 0x4DA PUSH32 0x5B3884247B2D692220A28E85C6452382A57294C08A90BCE16E4978698181ADB6 SWAP4 PUSH3 0x3330 JUMP JUMPDEST PUSH3 0x3475 JUMP JUMPDEST PUSH3 0x4EB DUP2 PUSH3 0x3354 JUMP JUMPDEST PUSH1 0x40 MLOAD SWAP2 DUP3 SWAP2 DUP3 PUSH3 0x981 JUMP JUMPDEST SUB SWAP1 LOG1 JUMPDEST PUSH1 0x4 CALLDATALOAD PUSH32 0x85E1543BF2F84FE80C6BADBCE3648C8539AD1DF4D2B3D822938CA0538BE727E6 PUSH1 0x0 DUP1 LOG2 STOP JUMPDEST PUSH3 0x531 SWAP1 PUSH3 0x3330 JUMP JUMPDEST DUP1 PUSH1 0x1D SSTORE PUSH32 0x5F45B8E77291DFC632C52CEB5F6E5B643B77E04E0A683DB296EAF8D71E41E165 PUSH1 0x20 PUSH1 0x40 MLOAD DUP4 DUP2 MSTORE LOG1 PUSH1 0x19 SLOAD GT ISZERO PUSH3 0x611 JUMPI PUSH3 0x5B2 PUSH1 0x0 DUP1 DUP1 DUP1 PUSH3 0x59D PUSH3 0x591 PUSH3 0x591 PUSH1 0x17 SLOAD PUSH1 0x1 PUSH1 0x1 PUSH1 0xA0 SHL SUB SWAP1 PUSH1 0x8 SHR AND SWAP1 JUMP JUMPDEST PUSH1 0x1 PUSH1 0x1 PUSH1 0xA0 SHL SUB AND SWAP1 JUMP JUMPDEST SELFBALANCE SWAP1 GAS CALL PUSH3 0x5AB PUSH3 0x21BE JUMP JUMPDEST POP PUSH3 0x35FC JUMP JUMPDEST PUSH32 0xB42DBB74B29856930805877A4E3C62F2D7191B2C872BBA1D7F7B2630334DC135 PUSH3 0x608 PUSH3 0x5EE PUSH1 0x17 SLOAD PUSH1 0x1 PUSH1 0x1 PUSH1 0xA0 SHL SUB SWAP1 PUSH1 0x8 SHR AND SWAP1 JUMP JUMPDEST PUSH1 0x40 MLOAD PUSH1 0x1 PUSH1 0x1 PUSH1 0xA0 SHL SUB SWAP1 SWAP2 AND DUP2 MSTORE SWAP1 DUP2 SWAP1 PUSH1 0x20 DUP3 ADD SWAP1 JUMP JUMPDEST SUB SWAP1 LOG1 PUSH3 0x4FC JUMP JUMPDEST PUSH3 0x64A PUSH1 0x0 DUP1 DUP1 DUP1 PUSH3 0x635 PUSH3 0x591 PUSH3 0x591 PUSH1 0x2 SLOAD PUSH1 0x1 PUSH1 0x1 PUSH1 0xA0 SHL SUB AND SWAP1 JUMP JUMPDEST SELFBALANCE SWAP1 GAS CALL PUSH3 0x643 PUSH3 0x21BE JUMP JUMPDEST POP PUSH3 0x358A JUMP JUMPDEST PUSH32 0xB42DBB74B29856930805877A4E3C62F2D7191B2C872BBA1D7F7B2630334DC135 PUSH3 0x608 PUSH3 0x5EE PUSH1 0x2 SLOAD PUSH1 0x1 PUSH1 0x1 PUSH1 0xA0 SHL SUB AND SWAP1 JUMP JUMPDEST PUSH1 0x4 PUSH1 0x40 MLOAD PUSH32 0xC6829F8300000000000000000000000000000000000000000000000000000000 DUP2 MSTORE REVERT JUMPDEST CALLVALUE PUSH3 0x2EC JUMPI PUSH1 0x0 CALLDATASIZE PUSH1 0x3 NOT ADD SLT PUSH3 0x2EC JUMPI PUSH1 0x20 PUSH1 0x1 PUSH1 0x1 PUSH1 0xA0 SHL SUB PUSH1 0x9 SLOAD AND PUSH1 0x40 MLOAD SWAP1 DUP2 MSTORE RETURN JUMPDEST CALLVALUE PUSH3 0x2EC JUMPI PUSH1 0x0 CALLDATASIZE PUSH1 0x3 NOT ADD SLT PUSH3 0x2EC JUMPI PUSH1 0x20 PUSH1 0x4 SLOAD PUSH1 0x40 MLOAD SWAP1 DUP2 MSTORE RETURN JUMPDEST CALLVALUE PUSH3 0x2EC JUMPI PUSH1 0x0 CALLDATASIZE PUSH1 0x3 NOT ADD SLT PUSH3 0x2EC JUMPI PUSH1 0x20 PUSH1 0x7 SLOAD PUSH4 0xFFFFFFFF PUSH1 0x40 MLOAD SWAP2 PUSH1 0x40 SHR AND DUP2 MSTORE RETURN JUMPDEST PUSH4 0x4E487B71 PUSH1 0xE0 SHL PUSH1 0x0 MSTORE PUSH1 0x32 PUSH1 0x4 MSTORE PUSH1 0x24 PUSH1 0x0 REVERT JUMPDEST PUSH1 0x1B SLOAD DUP2 LT ISZERO PUSH3 0x76C JUMPI PUSH1 0x1B PUSH1 0x0 MSTORE PUSH32 0x3AD8AA4F87544323A9D1E5DD902F40C356527A7955687113DB5F9A85AD579DC1 ADD SWAP1 PUSH1 0x0 SWAP1 JUMP JUMPDEST PUSH3 0x71E JUMP JUMPDEST PUSH4 0x4E487B71 PUSH1 0xE0 SHL PUSH1 0x0 MSTORE PUSH1 0x0 PUSH1 0x4 MSTORE PUSH1 0x24 PUSH1 0x0 REVERT JUMPDEST SWAP1 PUSH1 0x1 DUP3 DUP2 SHR SWAP3 AND DUP1 ISZERO PUSH3 0x7BA JUMPI JUMPDEST PUSH1 0x20 DUP4 LT EQ PUSH3 0x7A4 JUMPI JUMP JUMPDEST PUSH4 0x4E487B71 PUSH1 0xE0 SHL PUSH1 0x0 MSTORE PUSH1 0x22 PUSH1 0x4 MSTORE PUSH1 0x24 PUSH1 0x0 REVERT JUMPDEST SWAP2 PUSH1 0x7F AND SWAP2 PUSH3 0x798 JUMP JUMPDEST PUSH1 0x40 MLOAD SWAP1 PUSH1 0x0 DUP3 PUSH1 0x1C SLOAD SWAP2 PUSH3 0x7DB DUP4 PUSH3 0x788 JUMP JUMPDEST DUP1 DUP4 MSTORE SWAP3 PUSH1 0x1 SWAP1 DUP2 DUP2 AND SWAP1 DUP2 ISZERO PUSH3 0x86B JUMPI POP PUSH1 0x1 EQ PUSH3 0x808 JUMPI JUMPDEST POP PUSH3 0x806 SWAP3 POP SUB DUP4 PUSH3 0x389 JUMP JUMPDEST JUMP JUMPDEST PUSH1 0x1C PUSH1 0x0 SWAP1 DUP2 MSTORE SWAP2 POP PUSH32 0xE4562A10381DEC21B205ED72637E6B1B523BDD0E4D4D50AF5CD23DD4500A211 JUMPDEST DUP5 DUP4 LT PUSH3 0x84F JUMPI POP PUSH3 0x806 SWAP4 POP POP DUP2 ADD PUSH1 0x20 ADD CODESIZE PUSH3 0x7F7 JUMP JUMPDEST DUP2 SWAP4 POP SWAP1 DUP2 PUSH1 0x20 SWAP3 SLOAD DUP4 DUP6 DUP11 ADD ADD MSTORE ADD SWAP2 ADD SWAP1 SWAP2 DUP6 SWAP3 PUSH3 0x833 JUMP JUMPDEST SWAP1 POP PUSH1 0x20 SWAP3 POP PUSH3 0x806 SWAP5 SWAP2 POP PUSH1 0xFF NOT AND DUP3 DUP5 ADD MSTORE ISZERO ISZERO PUSH1 0x5 SHL DUP3 ADD ADD CODESIZE PUSH3 0x7F7 JUMP JUMPDEST SWAP1 PUSH1 0x40 MLOAD SWAP2 DUP3 PUSH1 0x0 DUP3 SLOAD SWAP3 PUSH3 0x8A5 DUP5 PUSH3 0x788 JUMP JUMPDEST SWAP1 DUP2 DUP5 MSTORE PUSH1 0x1 SWAP5 DUP6 DUP2 AND SWAP1 DUP2 PUSH1 0x0 EQ PUSH3 0x91A JUMPI POP PUSH1 0x1 EQ PUSH3 0x8D3 JUMPI JUMPDEST POP POP PUSH3 0x806 SWAP3 POP SUB DUP4 PUSH3 0x389 JUMP JUMPDEST SWAP1 SWAP4 SWAP2 POP PUSH1 0x0 MSTORE PUSH1 0x20 SWAP1 DUP2 PUSH1 0x0 KECCAK256 SWAP4 PUSH1 0x0 SWAP2 JUMPDEST DUP2 DUP4 LT PUSH3 0x901 JUMPI POP POP PUSH3 0x806 SWAP4 POP DUP3 ADD ADD CODESIZE DUP1 PUSH3 0x8C3 JUMP JUMPDEST DUP6 SLOAD DUP9 DUP5 ADD DUP6 ADD MSTORE SWAP5 DUP6 ADD SWAP5 DUP8 SWAP5 POP SWAP2 DUP4 ADD SWAP2 PUSH3 0x8E6 JUMP JUMPDEST SWAP2 POP POP PUSH3 0x806 SWAP5 POP PUSH1 0x20 SWAP3 POP PUSH1 0xFF NOT AND DUP3 DUP5 ADD MSTORE ISZERO ISZERO PUSH1 0x5 SHL DUP3 ADD ADD CODESIZE DUP1 PUSH3 0x8C3 JUMP JUMPDEST SWAP2 SWAP1 DUP3 MLOAD SWAP3 DUP4 DUP3 MSTORE PUSH1 0x0 JUMPDEST DUP5 DUP2 LT PUSH3 0x96C JUMPI POP POP DUP3 PUSH1 0x0 PUSH1 0x20 DUP1 SWAP5 SWAP6 DUP5 ADD ADD MSTORE PUSH1 0x1F DUP1 NOT SWAP2 ADD AND ADD ADD SWAP1 JUMP JUMPDEST PUSH1 0x20 DUP2 DUP4 ADD DUP2 ADD MLOAD DUP5 DUP4 ADD DUP3 ADD MSTORE ADD PUSH3 0x94A JUMP JUMPDEST SWAP1 PUSH1 0x20 PUSH3 0x994 SWAP3 DUP2 DUP2 MSTORE ADD SWAP1 PUSH3 0x93F JUMP JUMPDEST SWAP1 JUMP JUMPDEST CALLVALUE PUSH3 0x2EC JUMPI PUSH1 0x20 CALLDATASIZE PUSH1 0x3 NOT ADD SLT PUSH3 0x2EC JUMPI PUSH1 0x4 CALLDATALOAD PUSH1 0x1B SLOAD DUP2 LT ISZERO PUSH3 0x2EC JUMPI PUSH3 0x9EE PUSH3 0xA03 SWAP2 PUSH1 0x1B PUSH1 0x0 MSTORE PUSH32 0x3AD8AA4F87544323A9D1E5DD902F40C356527A7955687113DB5F9A85AD579DC1 ADD PUSH3 0x88F JUMP JUMPDEST PUSH1 0x40 MLOAD SWAP2 DUP3 SWAP2 PUSH1 0x20 DUP4 MSTORE PUSH1 0x20 DUP4 ADD SWAP1 PUSH3 0x93F JUMP JUMPDEST SUB SWAP1 RETURN JUMPDEST CALLVALUE PUSH3 0x2EC JUMPI PUSH1 0x0 CALLDATASIZE PUSH1 0x3 NOT ADD SLT PUSH3 0x2EC JUMPI PUSH1 0x20 PUSH1 0x1 PUSH1 0x1 PUSH1 0xA0 SHL SUB PUSH1 0xB SLOAD AND PUSH1 0x40 MLOAD SWAP1 DUP2 MSTORE RETURN JUMPDEST CALLVALUE PUSH3 0x2EC JUMPI PUSH1 0x0 DUP1 PUSH1 0x3 NOT CALLDATASIZE ADD SLT PUSH3 0xB13 JUMPI PUSH1 0x40 MLOAD SWAP1 DUP1 PUSH1 0xD SLOAD PUSH3 0xA57 DUP2 PUSH3 0x788 JUMP JUMPDEST DUP1 DUP6 MSTORE SWAP2 PUSH1 0x1 SWAP2 DUP1 DUP4 AND SWAP1 DUP2 ISZERO PUSH3 0xAE6 JUMPI POP PUSH1 0x1 EQ PUSH3 0xA86 JUMPI JUMPDEST PUSH3 0xA03 DUP6 PUSH3 0x4EB DUP2 DUP8 SUB DUP3 PUSH3 0x389 JUMP JUMPDEST SWAP3 POP PUSH1 0xD DUP4 MSTORE PUSH32 0xD7B6990105719101DABEB77144F2A3385C8033ACD3AF97E9423A695E81AD1EB5 JUMPDEST DUP3 DUP5 LT PUSH3 0xACD JUMPI POP POP POP DUP2 ADD PUSH1 0x20 ADD PUSH3 0x4EB DUP3 PUSH3 0xA03 PUSH3 0xA73 JUMP JUMPDEST DUP1 SLOAD PUSH1 0x20 DUP6 DUP8 ADD DUP2 ADD SWAP2 SWAP1 SWAP2 MSTORE SWAP1 SWAP4 ADD SWAP3 DUP2 ADD PUSH3 0xAAE JUMP JUMPDEST DUP7 SWAP6 POP PUSH3 0xA03 SWAP7 SWAP4 POP PUSH1 0x20 SWAP3 POP PUSH3 0x4EB SWAP5 SWAP2 POP PUSH1 0xFF NOT AND DUP3 DUP5 ADD MSTORE ISZERO ISZERO PUSH1 0x5 SHL DUP3 ADD ADD SWAP3 SWAP4 PUSH3 0xA73 JUMP JUMPDEST DUP1 REVERT JUMPDEST CALLVALUE PUSH3 0x2EC JUMPI PUSH1 0x0 CALLDATASIZE PUSH1 0x3 NOT ADD SLT PUSH3 0x2EC JUMPI PUSH1 0x20 PUSH1 0x11 SLOAD PUSH1 0x40 MLOAD SWAP1 DUP2 MSTORE RETURN JUMPDEST CALLVALUE PUSH3 0x2EC JUMPI PUSH1 0x0 DUP1 PUSH1 0x3 NOT CALLDATASIZE ADD SLT PUSH3 0xB13 JUMPI PUSH1 0x40 MLOAD SWAP1 DUP1 PUSH1 0x13 SLOAD PUSH3 0xB5D DUP2 PUSH3 0x788 JUMP JUMPDEST DUP1 DUP6 MSTORE SWAP2 PUSH1 0x1 SWAP2 DUP1 DUP4 AND SWAP1 DUP2 ISZERO PUSH3 0xAE6 JUMPI POP PUSH1 0x1 EQ PUSH3 0xB8B JUMPI PUSH3 0xA03 DUP6 PUSH3 0x4EB DUP2 DUP8 SUB DUP3 PUSH3 0x389 JUMP JUMPDEST SWAP3 POP PUSH1 0x13 DUP4 MSTORE PUSH32 0x66DE8FFDA797E3DE9C05E8FC57B3BF0EC28A930D40B0D285D93C06501CF6A090 JUMPDEST DUP3 DUP5 LT PUSH3 0xBD2 JUMPI POP POP POP DUP2 ADD PUSH1 0x20 ADD PUSH3 0x4EB DUP3 PUSH3 0xA03 PUSH3 0xA73 JUMP JUMPDEST DUP1 SLOAD PUSH1 0x20 DUP6 DUP8 ADD DUP2 ADD SWAP2 SWAP1 SWAP2 MSTORE SWAP1 SWAP4 ADD SWAP3 DUP2 ADD PUSH3 0xBB3 JUMP JUMPDEST CALLVALUE PUSH3 0x2EC JUMPI PUSH1 0x3 NOT PUSH1 0x20 CALLDATASIZE DUP3 ADD SLT PUSH3 0x2EC JUMPI PUSH1 0x4 CALLDATALOAD SWAP1 PUSH8 0xFFFFFFFFFFFFFFFF DUP3 GT PUSH3 0x2EC JUMPI PUSH2 0x140 SWAP1 DUP3 CALLDATASIZE SUB ADD SLT PUSH3 0x2EC JUMPI PUSH1 0x20 PUSH3 0xC8A PUSH1 0x0 SWAP3 PUSH3 0xC4E PUSH3 0x591 PUSH3 0x591 PUSH1 0x1 PUSH1 0x1 PUSH1 0xA0 SHL SUB PUSH1 0xB SLOAD AND PUSH1 0x1 PUSH1 0x1 PUSH1 0xA0 SHL SUB AND SWAP1 JUMP JUMPDEST SWAP1 PUSH1 0x40 MLOAD SWAP5 DUP6 DUP1 SWAP5 DUP2 SWAP4 PUSH32 0x24380AA800000000000000000000000000000000000000000000000000000000 DUP4 MSTORE ADDRESS SWAP1 PUSH1 0x4 ADD PUSH1 0x4 DUP5 ADD PUSH3 0x1DE2 JUMP JUMPDEST SUB SWAP3 GAS CALL DUP1 ISZERO PUSH3 0xD0F JUMPI PUSH3 0xCA9 SWAP2 PUSH1 0x0 SWAP2 PUSH3 0xCDA JUMPI JUMPDEST POP PUSH1 0xC SSTORE JUMP JUMPDEST PUSH1 0xC SLOAD PUSH1 0x40 MLOAD SWAP1 DUP2 MSTORE PUSH32 0x7623383A750B4166574A1B2DFF61440ED0DFA3708CBE620C58339CCA510D1AF9 SWAP1 PUSH1 0x20 SWAP1 LOG1 STOP JUMPDEST PUSH3 0xD00 SWAP2 POP PUSH1 0x20 RETURNDATASIZE DUP2 GT PUSH3 0xD07 JUMPI JUMPDEST PUSH3 0xCF7 DUP2 DUP4 PUSH3 0x389 JUMP JUMPDEST DUP2 ADD SWAP1 PUSH3 0x1D5B JUMP JUMPDEST CODESIZE PUSH3 0xCA3 JUMP JUMPDEST POP RETURNDATASIZE PUSH3 0xCEB JUMP JUMPDEST PUSH3 0x1D35 JUMP JUMPDEST CALLVALUE PUSH3 0x2EC JUMPI PUSH1 0x0 CALLDATASIZE PUSH1 0x3 NOT ADD SLT PUSH3 0x2EC JUMPI PUSH1 0x20 PUSH1 0x16 SLOAD PUSH1 0x40 MLOAD SWAP1 DUP2 MSTORE RETURN JUMPDEST SWAP1 PUSH1 0x20 PUSH1 0x3 NOT DUP4 ADD SLT PUSH3 0x2EC JUMPI PUSH1 0x4 CALLDATALOAD PUSH8 0xFFFFFFFFFFFFFFFF SWAP3 DUP4 DUP3 GT PUSH3 0x2EC JUMPI DUP1 PUSH1 0x23 DUP4 ADD SLT ISZERO PUSH3 0x2EC JUMPI DUP2 PUSH1 0x4 ADD CALLDATALOAD SWAP4 DUP5 GT PUSH3 0x2EC JUMPI PUSH1 0x24 DUP5 DUP4 ADD ADD GT PUSH3 0x2EC JUMPI PUSH1 0x24 ADD SWAP2 SWAP1 JUMP JUMPDEST CALLVALUE PUSH3 0x2EC JUMPI PUSH3 0xD95 CALLDATASIZE PUSH3 0xD35 JUMP JUMPDEST POP POP PUSH3 0xDA6 PUSH1 0xC SLOAD ISZERO ISZERO PUSH3 0x1F8C JUMP JUMPDEST PUSH3 0xDB0 TIMESTAMP PUSH1 0xF SSTORE JUMP JUMPDEST PUSH3 0xDC6 PUSH3 0xDC1 PUSH1 0x10 SLOAD PUSH3 0x1FD8 JUMP JUMPDEST PUSH1 0x10 SSTORE JUMP JUMPDEST PUSH1 0x1A SLOAD PUSH1 0x1B SLOAD LT ISZERO PUSH3 0xF6A JUMPI PUSH3 0xE11 PUSH1 0x20 PUSH1 0x7 SLOAD PUSH1 0xE SLOAD SWAP1 PUSH1 0x40 MLOAD SWAP4 DUP5 SWAP3 DUP4 SWAP3 PUSH4 0x230E93B1 PUSH1 0xE1 SHL DUP5 MSTORE PUSH8 0xFFFFFFFFFFFFFFFF PUSH4 0xFFFFFFFF DUP3 PUSH1 0x40 SHR AND SWAP2 AND PUSH1 0x4 DUP6 ADD PUSH3 0x21F3 JUMP JUMPDEST SUB DUP2 PUSH1 0x0 PUSH1 0x1 PUSH1 0x1 PUSH1 0xA0 SHL SUB PUSH32 0x0 AND GAS CALL PUSH1 0x0 SWAP2 DUP2 PUSH3 0xF45 JUMPI JUMPDEST POP PUSH3 0xEFE JUMPI POP PUSH1 0x1 PUSH3 0xE5E PUSH3 0x212A JUMP JUMPDEST PUSH4 0x8C379A0 EQ PUSH3 0xEA5 JUMPI JUMPDEST PUSH3 0xE71 JUMPI STOP JUMPDEST PUSH32 0x9C4BFA18304482256875C29FABB1A44A5ECD325F214EA17BAB8F31E869FAF4C8 PUSH3 0xEA0 PUSH3 0x4EB PUSH3 0x21BE JUMP JUMPDEST SUB SWAP1 LOG1 STOP JUMPDEST PUSH3 0xEAF PUSH3 0x2149 JUMP JUMPDEST DUP1 PUSH3 0xEBD JUMPI JUMPDEST POP PUSH3 0xE6A JUMP JUMPDEST SWAP1 POP PUSH32 0x2BA61E3733E7AC99181C22307780F651EC8FD92FE661A84DFBE711710B2DC36C PUSH3 0xEF4 PUSH1 0x0 SWAP3 PUSH1 0x40 MLOAD SWAP2 DUP3 SWAP2 DUP3 PUSH3 0x981 JUMP JUMPDEST SUB SWAP1 LOG1 CODESIZE PUSH3 0xEB6 JUMP JUMPDEST PUSH3 0xF08 DUP2 PUSH1 0x12 SSTORE JUMP JUMPDEST PUSH3 0xF1E PUSH3 0xF19 PUSH1 0x15 SLOAD PUSH3 0x1FD8 JUMP JUMPDEST PUSH1 0x15 SSTORE JUMP JUMPDEST PUSH32 0x1131472297A800FEE664D1D89CFA8F7676FF07189ECC53F80BBB5F4969099DB8 PUSH1 0x0 DUP1 LOG2 STOP JUMPDEST PUSH3 0xF62 SWAP2 SWAP3 POP PUSH1 0x20 RETURNDATASIZE DUP2 GT PUSH3 0xD07 JUMPI PUSH3 0xCF7 DUP2 DUP4 PUSH3 0x389 JUMP JUMPDEST SWAP1 CODESIZE PUSH3 0xE4B JUMP JUMPDEST PUSH1 0xFF PUSH3 0xF79 PUSH1 0x17 SLOAD PUSH1 0xFF AND SWAP1 JUMP JUMPDEST AND PUSH3 0x100E JUMPI PUSH3 0xF92 PUSH1 0x1 PUSH1 0xFF NOT PUSH1 0x17 SLOAD AND OR PUSH1 0x17 SSTORE JUMP JUMPDEST PUSH3 0xFD0 PUSH3 0xFA0 PUSH3 0x2013 JUMP JUMPDEST PUSH3 0xFB5 PUSH3 0xFAE PUSH3 0x7C5 JUMP JUMPDEST DUP3 PUSH3 0x2715 JUMP JUMPDEST PUSH3 0xFCA PUSH3 0xFC3 PUSH3 0x205E JUMP JUMPDEST DUP3 PUSH3 0x2757 JUMP JUMPDEST PUSH3 0x24D8 JUMP JUMPDEST PUSH1 0x20 PUSH1 0x7 SLOAD PUSH1 0xE SLOAD SWAP3 PUSH3 0xE11 PUSH1 0x40 MLOAD SWAP5 DUP6 SWAP4 DUP5 SWAP4 PUSH4 0x230E93B1 PUSH1 0xE1 SHL DUP6 MSTORE PUSH8 0xFFFFFFFFFFFFFFFF PUSH4 0xFFFFFFFF DUP4 PUSH1 0x40 SHR AND SWAP3 AND PUSH1 0x4 DUP7 ADD PUSH3 0x20E8 JUMP JUMPDEST PUSH1 0xC SLOAD PUSH1 0x40 MLOAD DUP2 DUP2 MSTORE PUSH32 0x8B7F9EC922F0B687C5E247D2D3D200D803F027D886A5A0BDF49C6747B9C9EC4C SWAP1 PUSH1 0x20 SWAP1 LOG1 PUSH1 0x1 PUSH1 0x1 PUSH1 0xA0 SHL SUB PUSH32 0x0 AND DUP1 EXTCODESIZE ISZERO PUSH3 0x2EC JUMPI PUSH1 0x40 MLOAD PUSH32 0xC804802200000000000000000000000000000000000000000000000000000000 DUP2 MSTORE PUSH1 0x4 DUP2 ADD SWAP3 SWAP1 SWAP3 MSTORE PUSH1 0x0 SWAP1 DUP3 SWAP1 PUSH1 0x24 SWAP1 DUP3 SWAP1 DUP5 SWAP1 GAS CALL DUP1 ISZERO PUSH3 0xD0F JUMPI PUSH3 0x10B9 JUMPI STOP JUMPDEST DUP1 PUSH3 0x10C9 PUSH3 0x1B SWAP3 PUSH3 0x351 JUMP JUMPDEST DUP1 PUSH3 0x2E0 JUMP JUMPDEST CALLVALUE PUSH3 0x2EC JUMPI PUSH1 0x0 CALLDATASIZE PUSH1 0x3 NOT ADD SLT PUSH3 0x2EC JUMPI PUSH1 0x20 PUSH1 0x15 SLOAD PUSH1 0x40 MLOAD SWAP1 DUP2 MSTORE RETURN JUMPDEST CALLVALUE PUSH3 0x2EC JUMPI PUSH1 0x0 CALLDATASIZE PUSH1 0x3 NOT ADD SLT PUSH3 0x2EC JUMPI PUSH1 0x20 PUSH1 0x18 SLOAD PUSH1 0x40 MLOAD SWAP1 DUP2 MSTORE RETURN JUMPDEST CALLVALUE PUSH3 0x2EC JUMPI PUSH1 0x0 DUP1 PUSH1 0x3 NOT CALLDATASIZE ADD SLT PUSH3 0xB13 JUMPI PUSH1 0x40 MLOAD SWAP1 DUP1 PUSH1 0x14 SLOAD PUSH3 0x1137 DUP2 PUSH3 0x788 JUMP JUMPDEST DUP1 DUP6 MSTORE SWAP2 PUSH1 0x1 SWAP2 DUP1 DUP4 AND SWAP1 DUP2 ISZERO PUSH3 0xAE6 JUMPI POP PUSH1 0x1 EQ PUSH3 0x1165 JUMPI PUSH3 0xA03 DUP6 PUSH3 0x4EB DUP2 DUP8 SUB DUP3 PUSH3 0x389 JUMP JUMPDEST SWAP3 POP PUSH1 0x14 DUP4 MSTORE PUSH32 0xCE6D7B5282BD9A3661AE061FEED1DBDA4E52AB073B1F9285BE6E155D9C38D4EC JUMPDEST DUP3 DUP5 LT PUSH3 0x11AC JUMPI POP POP POP DUP2 ADD PUSH1 0x20 ADD PUSH3 0x4EB DUP3 PUSH3 0xA03 PUSH3 0xA73 JUMP JUMPDEST DUP1 SLOAD PUSH1 0x20 DUP6 DUP8 ADD DUP2 ADD SWAP2 SWAP1 SWAP2 MSTORE SWAP1 SWAP4 ADD SWAP3 DUP2 ADD PUSH3 0x118D JUMP JUMPDEST CALLVALUE PUSH3 0x2EC JUMPI PUSH1 0x20 DUP1 PUSH1 0x3 NOT CALLDATASIZE ADD SLT PUSH3 0x2EC JUMPI PUSH8 0xFFFFFFFFFFFFFFFF PUSH1 0x4 CALLDATALOAD DUP2 DUP2 GT PUSH3 0x2EC JUMPI PUSH3 0x11FD SWAP1 CALLDATASIZE SWAP1 PUSH1 0x4 ADD PUSH3 0x3C9 JUMP JUMPDEST SWAP2 DUP3 MLOAD SWAP2 DUP3 GT PUSH3 0x366 JUMPI PUSH3 0x1220 DUP3 PUSH3 0x121A PUSH1 0x3 SLOAD PUSH3 0x788 JUMP JUMPDEST PUSH3 0x1C91 JUMP JUMPDEST DUP1 PUSH1 0x1F DUP4 GT PUSH1 0x1 EQ PUSH3 0x125F JUMPI POP DUP2 SWAP3 PUSH1 0x0 SWAP3 PUSH3 0x1253 JUMPI JUMPDEST POP POP DUP2 PUSH1 0x1 SHL SWAP2 PUSH1 0x0 NOT SWAP1 PUSH1 0x3 SHL SHR NOT AND OR PUSH1 0x3 SSTORE PUSH1 0x0 DUP1 RETURN JUMPDEST ADD MLOAD SWAP1 POP CODESIZE DUP1 PUSH3 0x1239 JUMP JUMPDEST SWAP1 PUSH1 0x1F NOT DUP4 AND SWAP4 PUSH3 0x1293 PUSH1 0x3 PUSH1 0x0 MSTORE PUSH32 0xC2575A0E9E593C00F959F8C92F12DB2869C3395A3B0502D05E2516446F71F85B SWAP1 JUMP JUMPDEST SWAP3 PUSH1 0x0 SWAP1 JUMPDEST DUP7 DUP3 LT PUSH3 0x12D2 JUMPI POP POP DUP4 PUSH1 0x1 SWAP6 LT PUSH3 0x12B8 JUMPI JUMPDEST POP POP POP DUP2 SHL ADD PUSH1 0x3 SSTORE STOP JUMPDEST ADD MLOAD PUSH1 0x0 NOT PUSH1 0xF8 DUP5 PUSH1 0x3 SHL AND SHR NOT AND SWAP1 SSTORE CODESIZE DUP1 DUP1 PUSH3 0x12AD JUMP JUMPDEST DUP1 PUSH1 0x1 DUP6 SWAP7 DUP3 SWAP5 SWAP7 DUP7 ADD MLOAD DUP2 SSTORE ADD SWAP6 ADD SWAP4 ADD SWAP1 PUSH3 0x1298 JUMP JUMPDEST CALLVALUE PUSH3 0x2EC JUMPI PUSH1 0x0 DUP1 PUSH1 0x3 NOT CALLDATASIZE ADD SLT PUSH3 0xB13 JUMPI PUSH1 0x40 MLOAD SWAP1 DUP1 PUSH1 0x3 SLOAD PUSH3 0x1312 DUP2 PUSH3 0x788 JUMP JUMPDEST DUP1 DUP6 MSTORE SWAP2 PUSH1 0x1 SWAP2 DUP1 DUP4 AND SWAP1 DUP2 ISZERO PUSH3 0xAE6 JUMPI POP PUSH1 0x1 EQ PUSH3 0x1340 JUMPI PUSH3 0xA03 DUP6 PUSH3 0x4EB DUP2 DUP8 SUB DUP3 PUSH3 0x389 JUMP JUMPDEST SWAP3 POP PUSH1 0x3 DUP4 MSTORE PUSH32 0xC2575A0E9E593C00F959F8C92F12DB2869C3395A3B0502D05E2516446F71F85B JUMPDEST DUP3 DUP5 LT PUSH3 0x1387 JUMPI POP POP POP DUP2 ADD PUSH1 0x20 ADD PUSH3 0x4EB DUP3 PUSH3 0xA03 PUSH3 0xA73 JUMP JUMPDEST DUP1 SLOAD PUSH1 0x20 DUP6 DUP8 ADD DUP2 ADD SWAP2 SWAP1 SWAP2 MSTORE SWAP1 SWAP4 ADD SWAP3 DUP2 ADD PUSH3 0x1368 JUMP JUMPDEST CALLVALUE PUSH3 0x2EC JUMPI PUSH1 0x0 CALLDATASIZE PUSH1 0x3 NOT ADD SLT PUSH3 0x2EC JUMPI PUSH1 0x20 PUSH1 0x1 PUSH1 0x1 PUSH1 0xA0 SHL SUB PUSH1 0xA SLOAD AND PUSH1 0x40 MLOAD SWAP1 DUP2 MSTORE RETURN JUMPDEST CALLVALUE PUSH3 0x2EC JUMPI PUSH3 0x13DA CALLDATASIZE PUSH3 0xD35 JUMP JUMPDEST POP POP PUSH1 0xF SLOAD TIMESTAMP SUB TIMESTAMP DUP2 GT PUSH3 0x1441 JUMPI PUSH1 0x8 SLOAD LT PUSH1 0x40 MLOAD SWAP1 DUP2 MSTORE PUSH1 0x20 PUSH1 0x40 DUP2 DUP4 ADD MSTORE DUP2 PUSH1 0x60 SWAP2 DUP3 MLOAD SWAP1 DUP2 PUSH1 0x40 DUP5 ADD MSTORE PUSH1 0x0 JUMPDEST DUP3 DUP2 LT PUSH3 0x142B JUMPI POP POP PUSH1 0x0 DUP3 DUP3 ADD DUP5 ADD MSTORE PUSH1 0x1F ADD PUSH1 0x1F NOT AND DUP2 ADD SUB ADD SWAP1 RETURN JUMPDEST PUSH1 0x80 DUP2 ADD MLOAD DUP7 DUP3 ADD DUP7 ADD MSTORE DUP6 SWAP4 POP DUP2 ADD PUSH3 0x140B JUMP JUMPDEST PUSH3 0x1F66 JUMP JUMPDEST CALLVALUE PUSH3 0x2EC JUMPI PUSH1 0x0 CALLDATASIZE PUSH1 0x3 NOT ADD SLT PUSH3 0x2EC JUMPI PUSH1 0x20 PUSH1 0xE SLOAD PUSH1 0x40 MLOAD SWAP1 DUP2 MSTORE RETURN JUMPDEST CALLVALUE PUSH3 0x2EC JUMPI PUSH1 0x0 DUP1 PUSH1 0x3 NOT CALLDATASIZE ADD SLT PUSH3 0xB13 JUMPI PUSH1 0x1 PUSH1 0x1 PUSH1 0xA0 SHL SUB DUP1 PUSH1 0x1 SLOAD AND CALLER SUB PUSH3 0x1507 JUMPI DUP2 SLOAD PUSH1 0x1 PUSH1 0x1 PUSH1 0xA0 SHL SUB AND PUSH1 0x0 DUP1 SLOAD PUSH20 0xFFFFFFFFFFFFFFFFFFFFFFFFFFFFFFFFFFFFFFFF NOT AND CALLER OR SWAP1 SSTORE SWAP1 PUSH3 0x14DD PUSH20 0xFFFFFFFFFFFFFFFFFFFFFFFFFFFFFFFFFFFFFFFF NOT PUSH1 0x1 SLOAD AND PUSH1 0x1 SSTORE JUMP JUMPDEST CALLER SWAP2 AND PUSH32 0x8BE0079C531659141344CD1FD0A4F28419497F9722A3DAAFE3B4186F6B6457E0 DUP4 DUP1 LOG3 DUP1 RETURN JUMPDEST PUSH1 0x64 PUSH1 0x40 MLOAD PUSH3 0x461BCD PUSH1 0xE5 SHL DUP2 MSTORE PUSH1 0x20 PUSH1 0x4 DUP3 ADD MSTORE PUSH1 0x16 PUSH1 0x24 DUP3 ADD MSTORE PUSH32 0x4D7573742062652070726F706F736564206F776E657200000000000000000000 PUSH1 0x44 DUP3 ADD MSTORE REVERT JUMPDEST CALLVALUE PUSH3 0x2EC JUMPI PUSH1 0x0 CALLDATASIZE PUSH1 0x3 NOT ADD SLT PUSH3 0x2EC JUMPI PUSH1 0x20 PUSH1 0x40 MLOAD PUSH1 0x1 PUSH1 0x1 PUSH1 0xA0 SHL SUB PUSH32 0x0 AND DUP2 MSTORE RETURN JUMPDEST CALLVALUE PUSH3 0x2EC JUMPI PUSH1 0x0 CALLDATASIZE PUSH1 0x3 NOT ADD SLT PUSH3 0x2EC JUMPI PUSH1 0x20 SELFBALANCE PUSH1 0x40 MLOAD SWAP1 DUP2 MSTORE RETURN JUMPDEST PUSH1 0x4 CALLDATALOAD SWAP1 PUSH12 0xFFFFFFFFFFFFFFFFFFFFFFFF DUP3 AND DUP3 SUB PUSH3 0x2EC JUMPI JUMP JUMPDEST CALLDATALOAD SWAP1 PUSH12 0xFFFFFFFFFFFFFFFFFFFFFFFF DUP3 AND DUP3 SUB PUSH3 0x2EC JUMPI JUMP JUMPDEST CALLVALUE PUSH3 0x2EC JUMPI PUSH1 0x20 CALLDATASIZE PUSH1 0x3 NOT ADD SLT PUSH3 0x2EC JUMPI PUSH3 0x1602 PUSH3 0x15AF JUMP JUMPDEST PUSH1 0x9 SLOAD PUSH1 0x1 PUSH1 0x1 PUSH1 0xA0 SHL SUB AND SWAP1 PUSH3 0x1622 PUSH1 0xA SLOAD PUSH1 0x1 PUSH1 0x1 PUSH1 0xA0 SHL SUB AND SWAP1 JUMP JUMPDEST SWAP2 PUSH1 0x40 MLOAD SWAP3 PUSH2 0x765 DUP1 DUP6 ADD SWAP2 DUP6 DUP4 LT PUSH8 0xFFFFFFFFFFFFFFFF DUP5 GT OR PUSH3 0x366 JUMPI DUP6 SWAP4 PUSH3 0x1680 SWAP4 DUP7 SWAP4 PUSH3 0x3649 DUP8 CODECOPY PUSH1 0x1 PUSH1 0x1 PUSH1 0xA0 SHL SUB SWAP2 DUP3 AND DUP2 MSTORE SWAP2 AND PUSH1 0x20 DUP3 ADD MSTORE PUSH12 0xFFFFFFFFFFFFFFFFFFFFFFFF SWAP1 SWAP2 AND PUSH1 0x40 DUP3 ADD MSTORE PUSH1 0x60 ADD SWAP1 JUMP JUMPDEST SUB PUSH1 0x0 SWAP3 DUP4 CREATE DUP1 ISZERO PUSH3 0xD0F JUMPI PUSH3 0x174E SWAP2 PUSH3 0x16C2 PUSH1 0x20 SWAP3 PUSH1 0x1 PUSH1 0x1 PUSH1 0xA0 SHL SUB AND PUSH20 0xFFFFFFFFFFFFFFFFFFFFFFFFFFFFFFFFFFFFFFFF NOT PUSH1 0xB SLOAD AND OR PUSH1 0xB SSTORE JUMP JUMPDEST PUSH3 0x16DD PUSH3 0x591 PUSH3 0x591 PUSH1 0x9 SLOAD PUSH1 0x1 PUSH1 0x1 PUSH1 0xA0 SHL SUB AND SWAP1 JUMP JUMPDEST PUSH3 0x16F4 PUSH3 0x591 PUSH1 0xB SLOAD PUSH1 0x1 PUSH1 0x1 PUSH1 0xA0 SHL SUB AND SWAP1 JUMP JUMPDEST DUP6 PUSH1 0x40 MLOAD DUP1 SWAP7 DUP2 SWAP6 DUP3 SWAP5 PUSH32 0x95EA7B300000000000000000000000000000000000000000000000000000000 DUP5 MSTORE PUSH1 0x4 DUP5 ADD SWAP1 SWAP3 SWAP2 PUSH12 0xFFFFFFFFFFFFFFFFFFFFFFFF PUSH1 0x20 SWAP2 PUSH1 0x1 PUSH1 0x1 PUSH1 0xA0 SHL SUB PUSH1 0x40 DUP6 ADD SWAP7 AND DUP5 MSTORE AND SWAP2 ADD MSTORE JUMP JUMPDEST SUB SWAP3 GAS CALL DUP1 ISZERO PUSH3 0xD0F JUMPI PUSH3 0x1824 JUMPI JUMPDEST POP PUSH3 0x1777 PUSH3 0x591 PUSH1 0xB SLOAD PUSH1 0x1 PUSH1 0x1 PUSH1 0xA0 SHL SUB AND SWAP1 JUMP JUMPDEST DUP1 EXTCODESIZE ISZERO PUSH3 0x1820 JUMPI PUSH1 0x40 MLOAD PUSH32 0x2302440800000000000000000000000000000000000000000000000000000000 DUP2 MSTORE ADDRESS PUSH1 0x4 DUP3 ADD MSTORE SWAP1 DUP3 SWAP1 DUP3 SWAP1 PUSH1 0x24 SWAP1 DUP3 SWAP1 DUP5 SWAP1 GAS CALL DUP1 ISZERO PUSH3 0xD0F JUMPI PUSH3 0x1809 JUMPI JUMPDEST POP PUSH32 0x3583C1105FD29A46B4D92CEEAFF8BE03CBA58A11CCE44A3B7DA77BBC3798EDC4 PUSH3 0x1803 PUSH3 0x5EE PUSH3 0x591 PUSH1 0xB SLOAD PUSH1 0x1 PUSH1 0x1 PUSH1 0xA0 SHL SUB AND SWAP1 JUMP JUMPDEST SUB SWAP1 LOG1 DUP1 RETURN JUMPDEST DUP1 PUSH3 0x10C9 PUSH3 0x1819 SWAP3 PUSH3 0x351 JUMP JUMPDEST CODESIZE PUSH3 0x17C6 JUMP JUMPDEST POP DUP1 REVERT JUMPDEST PUSH3 0x1849 SWAP1 PUSH1 0x20 RETURNDATASIZE DUP2 GT PUSH3 0x1851 JUMPI JUMPDEST PUSH3 0x1840 DUP2 DUP4 PUSH3 0x389 JUMP JUMPDEST DUP2 ADD SWAP1 PUSH3 0x1D41 JUMP JUMPDEST POP CODESIZE PUSH3 0x175F JUMP JUMPDEST POP RETURNDATASIZE PUSH3 0x1834 JUMP JUMPDEST CALLVALUE PUSH3 0x2EC JUMPI PUSH1 0x0 CALLDATASIZE PUSH1 0x3 NOT ADD SLT PUSH3 0x2EC JUMPI PUSH1 0x20 PUSH1 0x1 PUSH1 0x1 PUSH1 0xA0 SHL SUB PUSH1 0x0 SLOAD AND PUSH1 0x40 MLOAD SWAP1 DUP2 MSTORE RETURN JUMPDEST CALLVALUE PUSH3 0x2EC JUMPI PUSH1 0x0 CALLDATASIZE PUSH1 0x3 NOT ADD SLT PUSH3 0x2EC JUMPI PUSH1 0x20 PUSH1 0x19 SLOAD PUSH1 0x40 MLOAD SWAP1 DUP2 MSTORE RETURN JUMPDEST CALLVALUE PUSH3 0x2EC JUMPI PUSH1 0x0 CALLDATASIZE PUSH1 0x3 NOT ADD SLT PUSH3 0x2EC JUMPI PUSH1 0x20 PUSH1 0x10 SLOAD PUSH1 0x40 MLOAD SWAP1 DUP2 MSTORE RETURN JUMPDEST CALLVALUE PUSH3 0x2EC JUMPI PUSH1 0x0 CALLDATASIZE PUSH1 0x3 NOT ADD SLT PUSH3 0x2EC JUMPI PUSH1 0x20 PUSH1 0x12 SLOAD PUSH1 0x40 MLOAD SWAP1 DUP2 MSTORE RETURN JUMPDEST CALLVALUE PUSH3 0x2EC JUMPI PUSH1 0x0 DUP1 PUSH1 0x3 NOT CALLDATASIZE ADD SLT PUSH3 0xB13 JUMPI PUSH1 0x40 MLOAD SWAP1 DUP1 PUSH1 0x5 SLOAD PUSH3 0x1909 DUP2 PUSH3 0x788 JUMP JUMPDEST DUP1 DUP6 MSTORE SWAP2 PUSH1 0x1 SWAP2 DUP1 DUP4 AND SWAP1 DUP2 ISZERO PUSH3 0xAE6 JUMPI POP PUSH1 0x1 EQ PUSH3 0x1937 JUMPI PUSH3 0xA03 DUP6 PUSH3 0x4EB DUP2 DUP8 SUB DUP3 PUSH3 0x389 JUMP JUMPDEST SWAP3 POP PUSH1 0x5 DUP4 MSTORE PUSH32 0x36B6384B5ECA791C62761152D0C79BB0604C104A5FB6F4EB0703F3154BB3DB0 JUMPDEST DUP3 DUP5 LT PUSH3 0x197E JUMPI POP POP POP DUP2 ADD PUSH1 0x20 ADD PUSH3 0x4EB DUP3 PUSH3 0xA03 PUSH3 0xA73 JUMP JUMPDEST DUP1 SLOAD PUSH1 0x20 DUP6 DUP8 ADD DUP2 ADD SWAP2 SWAP1 SWAP2 MSTORE SWAP1 SWAP4 ADD SWAP3 DUP2 ADD PUSH3 0x195F JUMP JUMPDEST CALLVALUE PUSH3 0x2EC JUMPI PUSH1 0x0 CALLDATASIZE PUSH1 0x3 NOT ADD SLT PUSH3 0x2EC JUMPI PUSH1 0x20 PUSH1 0xC SLOAD PUSH1 0x40 MLOAD SWAP1 DUP2 MSTORE RETURN JUMPDEST CALLVALUE PUSH3 0x2EC JUMPI PUSH1 0x0 CALLDATASIZE PUSH1 0x3 NOT ADD SLT PUSH3 0x2EC JUMPI PUSH1 0x20 PUSH1 0x1 PUSH1 0x1 PUSH1 0xA0 SHL SUB PUSH1 0x2 SLOAD AND PUSH1 0x40 MLOAD SWAP1 DUP2 MSTORE RETURN JUMPDEST CALLVALUE PUSH3 0x2EC JUMPI PUSH1 0x0 CALLDATASIZE PUSH1 0x3 NOT ADD SLT PUSH3 0x2EC JUMPI PUSH1 0x20 PUSH1 0x1 PUSH1 0x1 PUSH1 0xA0 SHL SUB PUSH1 0x17 SLOAD PUSH1 0x8 SHR AND PUSH1 0x40 MLOAD SWAP1 DUP2 MSTORE RETURN JUMPDEST CALLVALUE PUSH3 0x2EC JUMPI PUSH1 0x20 CALLDATASIZE PUSH1 0x3 NOT ADD SLT PUSH3 0x2EC JUMPI PUSH1 0x4 CALLDATALOAD PUSH8 0xFFFFFFFFFFFFFFFF DUP2 AND DUP1 SWAP2 SUB PUSH3 0x2EC JUMPI PUSH8 0xFFFFFFFFFFFFFFFF NOT PUSH1 0x7 SLOAD AND OR PUSH1 0x7 SSTORE PUSH1 0x0 DUP1 RETURN JUMPDEST CALLVALUE PUSH3 0x2EC JUMPI PUSH1 0x0 CALLDATASIZE PUSH1 0x3 NOT ADD SLT PUSH3 0x2EC JUMPI PUSH1 0x20 PUSH1 0x1A SLOAD PUSH1 0x40 MLOAD SWAP1 DUP2 MSTORE RETURN JUMPDEST PUSH1 0x4 CALLDATALOAD SWAP1 PUSH1 0x1 PUSH1 0x1 PUSH1 0xA0 SHL SUB DUP3 AND DUP3 SUB PUSH3 0x2EC JUMPI JUMP JUMPDEST CALLDATALOAD SWAP1 PUSH1 0x1 PUSH1 0x1 PUSH1 0xA0 SHL SUB DUP3 AND DUP3 SUB PUSH3 0x2EC JUMPI JUMP JUMPDEST CALLVALUE PUSH3 0x2EC JUMPI PUSH1 0x20 CALLDATASIZE PUSH1 0x3 NOT ADD SLT PUSH3 0x2EC JUMPI PUSH3 0x1AB5 PUSH3 0x1A6C JUMP JUMPDEST PUSH1 0x1 PUSH1 0x1 PUSH1 0xA0 SHL SUB DUP1 PUSH1 0x0 SLOAD AND SWAP2 DUP3 CALLER SUB PUSH3 0x1B5F JUMPI AND SWAP1 CALLER DUP3 EQ PUSH3 0x1B1B JUMPI DUP2 PUSH20 0xFFFFFFFFFFFFFFFFFFFFFFFFFFFFFFFFFFFFFFFF NOT PUSH1 0x1 SLOAD AND OR PUSH1 0x1 SSTORE PUSH32 0xED8889F560326EB138920D842192F0EB3DD22B4F139C87A2C57538E05BAE1278 PUSH1 0x0 DUP1 LOG3 STOP JUMPDEST PUSH1 0x64 PUSH1 0x40 MLOAD PUSH3 0x461BCD PUSH1 0xE5 SHL DUP2 MSTORE PUSH1 0x20 PUSH1 0x4 DUP3 ADD MSTORE PUSH1 0x17 PUSH1 0x24 DUP3 ADD MSTORE PUSH32 0x43616E6E6F74207472616E7366657220746F2073656C66000000000000000000 PUSH1 0x44 DUP3 ADD MSTORE REVERT JUMPDEST PUSH1 0x64 PUSH1 0x40 MLOAD PUSH3 0x461BCD PUSH1 0xE5 SHL DUP2 MSTORE PUSH1 0x20 PUSH1 0x4 DUP3 ADD MSTORE PUSH1 0x16 PUSH1 0x24 DUP3 ADD MSTORE PUSH32 0x4F6E6C792063616C6C61626C65206279206F776E657200000000000000000000 PUSH1 0x44 DUP3 ADD MSTORE REVERT JUMPDEST CALLVALUE PUSH3 0x2EC JUMPI PUSH1 0x0 CALLDATASIZE PUSH1 0x3 NOT ADD SLT PUSH3 0x2EC JUMPI PUSH1 0x20 PUSH1 0x8 SLOAD PUSH1 0x40 MLOAD SWAP1 DUP2 MSTORE RETURN JUMPDEST CALLVALUE PUSH3 0x2EC JUMPI PUSH1 0x0 DUP1 PUSH1 0x3 NOT CALLDATASIZE ADD SLT PUSH3 0xB13 JUMPI PUSH1 0x40 MLOAD SWAP1 DUP1 PUSH1 0x6 SLOAD PUSH3 0x1BEA DUP2 PUSH3 0x788 JUMP JUMPDEST DUP1 DUP6 MSTORE SWAP2 PUSH1 0x1 SWAP2 DUP1 DUP4 AND SWAP1 DUP2 ISZERO PUSH3 0xAE6 JUMPI POP PUSH1 0x1 EQ PUSH3 0x1C18 JUMPI PUSH3 0xA03 DUP6 PUSH3 0x4EB DUP2 DUP8 SUB DUP3 PUSH3 0x389 JUMP JUMPDEST SWAP3 POP PUSH1 0x6 DUP4 MSTORE PUSH32 0xF652222313E28459528D920B65115C16C04F3EFC82AAEDC97BE59F3F377C0D3F JUMPDEST DUP3 DUP5 LT PUSH3 0x1C5F JUMPI POP POP POP DUP2 ADD PUSH1 0x20 ADD PUSH3 0x4EB DUP3 PUSH3 0xA03 PUSH3 0xA73 JUMP JUMPDEST DUP1 SLOAD PUSH1 0x20 DUP6 DUP8 ADD DUP2 ADD SWAP2 SWAP1 SWAP2 MSTORE SWAP1 SWAP4 ADD SWAP3 DUP2 ADD PUSH3 0x1C40 JUMP JUMPDEST DUP2 DUP2 LT PUSH3 0x1C84 JUMPI POP POP JUMP JUMPDEST PUSH1 0x0 DUP2 SSTORE PUSH1 0x1 ADD PUSH3 0x1C78 JUMP JUMPDEST SWAP1 PUSH1 0x1F DUP3 GT PUSH3 0x1C9F JUMPI POP POP JUMP JUMPDEST PUSH3 0x806 SWAP2 PUSH1 0x3 PUSH1 0x0 MSTORE PUSH32 0xC2575A0E9E593C00F959F8C92F12DB2869C3395A3B0502D05E2516446F71F85B SWAP1 PUSH1 0x20 PUSH1 0x1F DUP5 ADD PUSH1 0x5 SHR DUP4 ADD SWAP4 LT PUSH3 0x1CEC JUMPI JUMPDEST PUSH1 0x1F ADD PUSH1 0x5 SHR ADD SWAP1 PUSH3 0x1C78 JUMP JUMPDEST SWAP1 SWAP2 POP DUP2 SWAP1 PUSH3 0x1CDE JUMP JUMPDEST SWAP2 SWAP1 PUSH1 0x1F DUP2 GT PUSH3 0x1D07 JUMPI POP POP POP JUMP JUMPDEST PUSH3 0x806 SWAP3 PUSH1 0x0 MSTORE PUSH1 0x20 PUSH1 0x0 KECCAK256 SWAP1 PUSH1 0x20 PUSH1 0x1F DUP5 ADD PUSH1 0x5 SHR DUP4 ADD SWAP4 LT PUSH3 0x1CEC JUMPI PUSH1 0x1F ADD PUSH1 0x5 SHR ADD SWAP1 PUSH3 0x1C78 JUMP JUMPDEST PUSH1 0x40 MLOAD RETURNDATASIZE PUSH1 0x0 DUP3 RETURNDATACOPY RETURNDATASIZE SWAP1 REVERT JUMPDEST SWAP1 DUP2 PUSH1 0x20 SWAP2 SUB SLT PUSH3 0x2EC JUMPI MLOAD DUP1 ISZERO ISZERO DUP2 SUB PUSH3 0x2EC JUMPI SWAP1 JUMP JUMPDEST SWAP1 DUP2 PUSH1 0x20 SWAP2 SUB SLT PUSH3 0x2EC JUMPI MLOAD SWAP1 JUMP JUMPDEST SWAP1 CALLDATALOAD PUSH1 0x1E NOT DUP3 CALLDATASIZE SUB ADD DUP2 SLT ISZERO PUSH3 0x2EC JUMPI ADD PUSH1 0x20 DUP2 CALLDATALOAD SWAP2 ADD SWAP2 PUSH8 0xFFFFFFFFFFFFFFFF DUP3 GT PUSH3 0x2EC JUMPI DUP2 CALLDATASIZE SUB DUP4 SGT PUSH3 0x2EC JUMPI JUMP JUMPDEST SWAP1 DUP1 PUSH1 0x20 SWAP4 SWAP3 DUP2 DUP5 MSTORE DUP5 DUP5 ADD CALLDATACOPY PUSH1 0x0 DUP3 DUP3 ADD DUP5 ADD MSTORE PUSH1 0x1F ADD PUSH1 0x1F NOT AND ADD ADD SWAP1 JUMP JUMPDEST CALLDATALOAD SWAP1 PUSH4 0xFFFFFFFF DUP3 AND DUP3 SUB PUSH3 0x2EC JUMPI JUMP JUMPDEST CALLDATALOAD SWAP1 PUSH1 0xFF DUP3 AND DUP3 SUB PUSH3 0x2EC JUMPI JUMP JUMPDEST SWAP3 SWAP2 PUSH1 0x20 PUSH3 0x806 SWAP3 PUSH1 0x40 DUP7 MSTORE PUSH3 0x1F56 PUSH3 0x1F40 PUSH3 0x1E24 PUSH3 0x1F38 DUP10 PUSH3 0x1E0C DUP7 DUP1 PUSH3 0x1D6B JUMP JUMPDEST SWAP4 SWAP1 PUSH2 0x140 SWAP5 DUP6 PUSH1 0x40 DUP6 ADD MSTORE PUSH2 0x180 DUP5 ADD SWAP2 PUSH3 0x1DA0 JUMP JUMPDEST SWAP3 PUSH3 0x1EF1 PUSH3 0x1E50 PUSH3 0x1E3B DUP11 DUP11 ADD DUP11 PUSH3 0x1D6B JUMP JUMPDEST PUSH1 0x3F NOT DUP7 DUP10 SUB DUP2 ADD PUSH1 0x60 DUP9 ADD MSTORE SWAP8 SWAP2 PUSH3 0x1DA0 JUMP JUMPDEST PUSH3 0x1E72 PUSH3 0x1E62 PUSH1 0x40 DUP12 ADD PUSH3 0x1A83 JUMP JUMPDEST PUSH1 0x1 PUSH1 0x1 PUSH1 0xA0 SHL SUB AND PUSH1 0x80 DUP7 ADD MSTORE JUMP JUMPDEST PUSH3 0x1E91 PUSH3 0x1E84 PUSH1 0x60 DUP12 ADD PUSH3 0x1DC1 JUMP JUMPDEST PUSH4 0xFFFFFFFF AND PUSH1 0xA0 DUP7 ADD MSTORE JUMP JUMPDEST PUSH3 0x1EB3 PUSH3 0x1EA3 PUSH1 0x80 DUP12 ADD PUSH3 0x1A83 JUMP JUMPDEST PUSH1 0x1 PUSH1 0x1 PUSH1 0xA0 SHL SUB AND PUSH1 0xC0 DUP7 ADD MSTORE JUMP JUMPDEST PUSH3 0x1ECF PUSH3 0x1EC5 PUSH1 0xA0 DUP12 ADD PUSH3 0x1DD3 JUMP JUMPDEST PUSH1 0xFF AND PUSH1 0xE0 DUP7 ADD MSTORE JUMP JUMPDEST PUSH3 0x1EDE PUSH1 0xC0 DUP11 ADD DUP11 PUSH3 0x1D6B JUMP JUMPDEST DUP6 DUP4 SUB DUP9 ADD PUSH2 0x100 SWAP7 DUP8 ADD MSTORE SWAP1 PUSH3 0x1DA0 JUMP JUMPDEST SWAP4 DUP13 PUSH3 0x1F28 PUSH3 0x1F1E PUSH3 0x1F0A PUSH1 0xE0 DUP13 ADD DUP13 PUSH3 0x1D6B JUMP JUMPDEST PUSH2 0x120 SWAP10 SWAP2 DUP7 DUP7 DUP5 SUB ADD DUP12 DUP8 ADD MSTORE PUSH3 0x1DA0 JUMP JUMPDEST SWAP5 DUP11 ADD DUP11 PUSH3 0x1D6B JUMP JUMPDEST SWAP4 SWAP1 SWAP3 DUP3 DUP7 SUB ADD SWAP2 ADD MSTORE PUSH3 0x1DA0 JUMP JUMPDEST SWAP4 ADD PUSH3 0x15CB JUMP JUMPDEST PUSH12 0xFFFFFFFFFFFFFFFFFFFFFFFF AND PUSH2 0x160 DUP9 ADD MSTORE JUMP JUMPDEST SWAP5 ADD SWAP1 PUSH1 0x1 PUSH1 0x1 PUSH1 0xA0 SHL SUB AND SWAP1 MSTORE JUMP JUMPDEST PUSH4 0x4E487B71 PUSH1 0xE0 SHL PUSH1 0x0 MSTORE PUSH1 0x11 PUSH1 0x4 MSTORE PUSH1 0x24 PUSH1 0x0 REVERT JUMPDEST PUSH1 0x1F NOT DUP2 ADD SWAP2 SWAP1 DUP3 GT PUSH3 0x1441 JUMPI JUMP JUMPDEST ISZERO PUSH3 0x1F94 JUMPI JUMP JUMPDEST PUSH1 0x64 PUSH1 0x40 MLOAD PUSH3 0x461BCD PUSH1 0xE5 SHL DUP2 MSTORE PUSH1 0x20 PUSH1 0x4 DUP3 ADD MSTORE PUSH1 0x15 PUSH1 0x24 DUP3 ADD MSTORE PUSH32 0x55706B656570206E6F7420726567697374657265640000000000000000000000 PUSH1 0x44 DUP3 ADD MSTORE REVERT JUMPDEST SWAP1 PUSH1 0x1 DUP3 ADD DUP1 SWAP3 GT PUSH3 0x1441 JUMPI JUMP JUMPDEST SWAP1 PUSH1 0x20 DUP3 ADD DUP1 SWAP3 GT PUSH3 0x1441 JUMPI JUMP JUMPDEST PUSH1 0x30 ADD SWAP1 DUP2 PUSH1 0x30 GT PUSH3 0x1441 JUMPI JUMP JUMPDEST SWAP2 SWAP1 DUP3 ADD DUP1 SWAP3 GT PUSH3 0x1441 JUMPI JUMP JUMPDEST PUSH1 0x40 MLOAD SWAP1 PUSH1 0xE0 DUP3 ADD DUP3 DUP2 LT PUSH8 0xFFFFFFFFFFFFFFFF DUP3 GT OR PUSH3 0x366 JUMPI PUSH1 0x40 MSTORE PUSH1 0x60 PUSH1 0xC0 DUP4 PUSH1 0x0 DUP2 MSTORE PUSH1 0x0 PUSH1 0x20 DUP3 ADD MSTORE PUSH1 0x0 PUSH1 0x40 DUP3 ADD MSTORE DUP3 DUP1 DUP3 ADD MSTORE DUP3 PUSH1 0x80 DUP3 ADD MSTORE DUP3 PUSH1 0xA0 DUP3 ADD MSTORE ADD MSTORE JUMP JUMPDEST PUSH1 0x1B SLOAD SWAP1 PUSH8 0xFFFFFFFFFFFFFFFF DUP3 GT PUSH3 0x366 JUMPI PUSH1 0x40 MLOAD SWAP2 PUSH1 0x20 PUSH3 0x2089 DUP2 DUP4 PUSH1 0x5 SHL ADD DUP6 PUSH3 0x389 JUMP JUMPDEST DUP2 DUP5 MSTORE DUP1 DUP5 ADD SWAP1 PUSH1 0x1B PUSH1 0x0 MSTORE PUSH32 0x3AD8AA4F87544323A9D1E5DD902F40C356527A7955687113DB5F9A85AD579DC1 PUSH1 0x0 SWAP3 JUMPDEST DUP5 DUP5 LT PUSH3 0x20C9 JUMPI POP POP POP POP POP JUMP JUMPDEST PUSH1 0x1 DUP4 DUP2 SWAP3 PUSH3 0x20D9 DUP6 PUSH3 0x88F JUMP JUMPDEST DUP2 MSTORE ADD SWAP3 ADD SWAP4 ADD SWAP3 SWAP1 PUSH3 0x20BA JUMP JUMPDEST SWAP1 PUSH3 0x2118 PUSH1 0x80 SWAP4 PUSH8 0xFFFFFFFFFFFFFFFF PUSH4 0xFFFFFFFF SWAP4 SWAP9 SWAP8 SWAP7 SWAP9 AND DUP5 MSTORE PUSH1 0xA0 PUSH1 0x20 DUP6 ADD MSTORE PUSH1 0xA0 DUP5 ADD SWAP1 PUSH3 0x93F JUMP JUMPDEST SWAP6 PUSH1 0x1 PUSH1 0x40 DUP5 ADD MSTORE AND PUSH1 0x60 DUP3 ADD MSTORE ADD MSTORE JUMP JUMPDEST PUSH1 0x0 SWAP1 PUSH1 0x3 RETURNDATASIZE GT PUSH3 0x2138 JUMPI JUMP JUMPDEST SWAP1 POP PUSH1 0x4 PUSH1 0x0 DUP1 RETURNDATACOPY PUSH1 0x0 MLOAD PUSH1 0xE0 SHR SWAP1 JUMP JUMPDEST PUSH1 0x0 PUSH1 0x44 RETURNDATASIZE LT PUSH3 0x994 JUMPI PUSH1 0x40 MLOAD PUSH1 0x3 NOT SWAP2 RETURNDATASIZE DUP4 ADD PUSH1 0x4 DUP4 RETURNDATACOPY DUP2 MLOAD PUSH8 0xFFFFFFFFFFFFFFFF SWAP2 DUP3 DUP3 GT RETURNDATASIZE PUSH1 0x24 DUP5 ADD GT OR PUSH3 0x21AD JUMPI DUP2 DUP5 ADD SWAP5 DUP6 MLOAD SWAP4 DUP5 GT PUSH3 0x21B5 JUMPI RETURNDATASIZE DUP6 ADD ADD PUSH1 0x20 DUP5 DUP8 ADD ADD GT PUSH3 0x21AD JUMPI POP PUSH3 0x994 SWAP3 SWAP2 ADD PUSH1 0x20 ADD SWAP1 PUSH3 0x389 JUMP JUMPDEST SWAP5 SWAP4 POP POP POP POP JUMP JUMPDEST POP SWAP5 SWAP4 POP POP POP POP JUMP JUMPDEST RETURNDATASIZE ISZERO PUSH3 0x21EE JUMPI RETURNDATASIZE SWAP1 PUSH3 0x21D2 DUP3 PUSH3 0x3AC JUMP JUMPDEST SWAP2 PUSH3 0x21E2 PUSH1 0x40 MLOAD SWAP4 DUP5 PUSH3 0x389 JUMP JUMPDEST DUP3 MSTORE RETURNDATASIZE PUSH1 0x0 PUSH1 0x20 DUP5 ADD RETURNDATACOPY JUMP JUMPDEST PUSH1 0x60 SWAP1 JUMP JUMPDEST SWAP1 PUSH8 0xFFFFFFFFFFFFFFFF SWAP1 SWAP5 SWAP4 SWAP3 SWAP5 AND DUP2 MSTORE PUSH1 0x20 SWAP4 PUSH1 0xA0 DUP6 DUP4 ADD MSTORE PUSH1 0x0 PUSH1 0x3 SLOAD SWAP6 PUSH3 0x221F DUP8 PUSH3 0x788 JUMP JUMPDEST SWAP1 DUP2 PUSH1 0xA0 DUP7 ADD MSTORE PUSH1 0x1 SWAP8 DUP9 DUP2 AND SWAP1 DUP2 PUSH1 0x0 EQ PUSH3 0x22BA JUMPI POP PUSH1 0x1 EQ PUSH3 0x225B JUMPI JUMPDEST POP POP PUSH1 0x40 DUP4 ADD SWAP6 SWAP1 SWAP6 MSTORE PUSH4 0xFFFFFFFF AND PUSH1 0x60 DUP3 ADD MSTORE PUSH1 0x80 ADD MSTORE JUMP JUMPDEST PUSH1 0x3 PUSH1 0x0 SWAP1 DUP2 MSTORE SWAP3 POP DUP8 PUSH32 0xC2575A0E9E593C00F959F8C92F12DB2869C3395A3B0502D05E2516446F71F85B JUMPDEST DUP4 DUP6 LT PUSH3 0x22A4 JUMPI POP POP POP POP DUP3 ADD PUSH1 0xC0 ADD DUP2 PUSH4 0xFFFFFFFF PUSH3 0x2240 JUMP JUMPDEST DUP1 SLOAD DUP8 DUP7 ADD PUSH1 0xC0 ADD MSTORE SWAP4 DUP3 ADD SWAP4 DUP10 SWAP2 ADD PUSH3 0x2287 JUMP JUMPDEST PUSH1 0xFF NOT AND PUSH1 0xC0 DUP8 DUP2 ADD SWAP2 SWAP1 SWAP2 MSTORE SWAP3 ISZERO ISZERO PUSH1 0x5 SHL DUP7 ADD SWAP1 SWAP3 ADD SWAP3 POP DUP4 SWAP2 POP PUSH4 0xFFFFFFFF SWAP1 POP PUSH3 0x2240 JUMP JUMPDEST PUSH1 0x40 MLOAD SWAP1 PUSH3 0x22F3 DUP3 PUSH3 0x36C JUMP JUMPDEST PUSH1 0xC DUP3 MSTORE PUSH32 0x636F64654C6F636174696F6E0000000000000000000000000000000000000000 PUSH1 0x20 DUP4 ADD MSTORE JUMP JUMPDEST PUSH4 0x4E487B71 PUSH1 0xE0 SHL PUSH1 0x0 MSTORE PUSH1 0x21 PUSH1 0x4 MSTORE PUSH1 0x24 PUSH1 0x0 REVERT JUMPDEST PUSH1 0x3 GT ISZERO PUSH3 0x2340 JUMPI JUMP JUMPDEST PUSH3 0x231F JUMP JUMPDEST PUSH1 0x40 MLOAD SWAP1 PUSH3 0x2355 DUP3 PUSH3 0x36C JUMP JUMPDEST PUSH1 0x8 DUP3 MSTORE PUSH32 0x6C616E6775616765000000000000000000000000000000000000000000000000 PUSH1 0x20 DUP4 ADD MSTORE JUMP JUMPDEST PUSH1 0x1 GT ISZERO PUSH3 0x2340 JUMPI JUMP JUMPDEST PUSH1 0x40 MLOAD SWAP1 PUSH3 0x239B DUP3 PUSH3 0x36C JUMP JUMPDEST PUSH1 0x6 DUP3 MSTORE PUSH32 0x736F757263650000000000000000000000000000000000000000000000000000 PUSH1 0x20 DUP4 ADD MSTORE JUMP JUMPDEST PUSH1 0x40 MLOAD SWAP1 PUSH3 0x23D6 DUP3 PUSH3 0x36C JUMP JUMPDEST PUSH1 0x4 DUP3 MSTORE PUSH32 0x6172677300000000000000000000000000000000000000000000000000000000 PUSH1 0x20 DUP4 ADD MSTORE JUMP JUMPDEST PUSH1 0x0 NOT DUP2 EQ PUSH3 0x1441 JUMPI PUSH1 0x1 ADD SWAP1 JUMP JUMPDEST DUP1 MLOAD DUP3 LT ISZERO PUSH3 0x76C JUMPI PUSH1 0x20 SWAP2 PUSH1 0x5 SHL ADD ADD SWAP1 JUMP JUMPDEST PUSH1 0x40 MLOAD SWAP1 PUSH3 0x2436 DUP3 PUSH3 0x36C JUMP JUMPDEST PUSH1 0xF DUP3 MSTORE PUSH32 0x736563726574734C6F636174696F6E0000000000000000000000000000000000 PUSH1 0x20 DUP4 ADD MSTORE JUMP JUMPDEST PUSH1 0x40 MLOAD SWAP1 PUSH3 0x2471 DUP3 PUSH3 0x36C JUMP JUMPDEST PUSH1 0x7 DUP3 MSTORE PUSH32 0x7365637265747300000000000000000000000000000000000000000000000000 PUSH1 0x20 DUP4 ADD MSTORE JUMP JUMPDEST PUSH1 0x40 MLOAD SWAP1 PUSH3 0x24AC DUP3 PUSH3 0x36C JUMP JUMPDEST PUSH1 0x9 DUP3 MSTORE PUSH32 0x6279746573417267730000000000000000000000000000000000000000000000 PUSH1 0x20 DUP4 ADD MSTORE JUMP JUMPDEST PUSH3 0x24E2 PUSH3 0x27AB JUMP JUMPDEST SWAP1 PUSH3 0x24F8 PUSH3 0x24F1 PUSH3 0x22E4 JUMP JUMPDEST DUP4 PUSH3 0x2FA0 JUMP JUMPDEST PUSH3 0x251B DUP2 MLOAD PUSH3 0x2509 DUP2 PUSH3 0x2335 JUMP JUMPDEST PUSH3 0x2514 DUP2 PUSH3 0x2335 JUMP JUMPDEST DUP4 PUSH3 0x285B JUMP JUMPDEST PUSH3 0x2529 PUSH3 0x24F1 PUSH3 0x2346 JUMP JUMPDEST PUSH3 0x2548 PUSH1 0x40 DUP3 ADD MLOAD PUSH3 0x253D DUP2 PUSH3 0x2381 JUMP JUMPDEST PUSH3 0x2514 DUP2 PUSH3 0x2381 JUMP JUMPDEST PUSH3 0x2556 PUSH3 0x24F1 PUSH3 0x238C JUMP JUMPDEST PUSH3 0x2566 PUSH1 0x60 DUP3 ADD MLOAD DUP4 PUSH3 0x2FA0 JUMP JUMPDEST PUSH1 0xA0 DUP2 ADD DUP1 MLOAD MLOAD PUSH3 0x26AC JUMPI JUMPDEST POP PUSH1 0x80 DUP2 ADD SWAP1 DUP2 MLOAD MLOAD PUSH3 0x25FE JUMPI JUMPDEST PUSH1 0xC0 SWAP2 POP ADD DUP1 MLOAD MLOAD PUSH3 0x2596 JUMPI JUMPDEST POP MLOAD MLOAD SWAP1 JUMP JUMPDEST SWAP2 PUSH3 0x25A5 PUSH3 0x24F1 PUSH3 0x249D JUMP JUMPDEST PUSH3 0x25B0 DUP3 PUSH3 0x3038 JUMP JUMPDEST PUSH1 0x0 JUMPDEST DUP4 MLOAD DUP1 MLOAD DUP3 LT ISZERO PUSH3 0x25E8 JUMPI SWAP1 PUSH3 0x25DC PUSH3 0x25D4 DUP3 PUSH3 0x25E2 SWAP5 PUSH3 0x2412 JUMP JUMPDEST MLOAD DUP6 PUSH3 0x2ED1 JUMP JUMPDEST PUSH3 0x2402 JUMP JUMPDEST PUSH3 0x25B3 JUMP JUMPDEST POP POP SWAP2 POP PUSH3 0x25F7 DUP2 PUSH3 0x30D0 JUMP JUMPDEST CODESIZE PUSH3 0x2590 JUMP JUMPDEST PUSH1 0x20 DUP2 ADD DUP1 MLOAD PUSH3 0x260F DUP2 PUSH3 0x2335 JUMP JUMPDEST PUSH3 0x261A DUP2 PUSH3 0x2335 JUMP JUMPDEST ISZERO PUSH3 0x2682 JUMPI PUSH1 0xC0 SWAP3 PUSH3 0x265F PUSH3 0x267C SWAP3 PUSH3 0x2641 PUSH3 0x263A PUSH3 0x2427 JUMP JUMPDEST DUP9 PUSH3 0x2FA0 JUMP JUMPDEST MLOAD PUSH3 0x264D DUP2 PUSH3 0x2335 JUMP JUMPDEST PUSH3 0x2658 DUP2 PUSH3 0x2335 JUMP JUMPDEST DUP7 PUSH3 0x285B JUMP JUMPDEST PUSH3 0x2674 PUSH3 0x266D PUSH3 0x2462 JUMP JUMPDEST DUP7 PUSH3 0x2FA0 JUMP JUMPDEST MLOAD DUP5 PUSH3 0x2ED1 JUMP JUMPDEST PUSH3 0x2582 JUMP JUMPDEST PUSH1 0x4 PUSH1 0x40 MLOAD PUSH32 0xA80D31F700000000000000000000000000000000000000000000000000000000 DUP2 MSTORE REVERT JUMPDEST SWAP3 PUSH3 0x26C2 PUSH3 0x26BB PUSH3 0x23C7 JUMP JUMPDEST DUP5 PUSH3 0x2FA0 JUMP JUMPDEST PUSH3 0x26CD DUP4 PUSH3 0x3038 JUMP JUMPDEST PUSH1 0x0 JUMPDEST DUP5 MLOAD DUP1 MLOAD DUP3 LT ISZERO PUSH3 0x26FF JUMPI SWAP1 PUSH3 0x25DC PUSH3 0x26F1 DUP3 PUSH3 0x26F9 SWAP5 PUSH3 0x2412 JUMP JUMPDEST MLOAD DUP7 PUSH3 0x2FA0 JUMP JUMPDEST PUSH3 0x26D0 JUMP JUMPDEST POP POP SWAP3 POP PUSH3 0x270E DUP3 PUSH3 0x30D0 JUMP JUMPDEST CODESIZE PUSH3 0x2573 JUMP JUMPDEST DUP2 MLOAD ISZERO PUSH3 0x272D JUMPI PUSH1 0x0 DUP1 DUP3 MSTORE PUSH1 0x40 DUP3 ADD MSTORE PUSH1 0x60 ADD MSTORE JUMP JUMPDEST PUSH1 0x4 PUSH1 0x40 MLOAD PUSH32 0x22CE3EDD00000000000000000000000000000000000000000000000000000000 DUP2 MSTORE REVERT JUMPDEST DUP2 MLOAD ISZERO PUSH3 0x2765 JUMPI PUSH1 0xA0 ADD MSTORE JUMP JUMPDEST PUSH1 0x4 PUSH1 0x40 MLOAD PUSH32 0xFE936CB700000000000000000000000000000000000000000000000000000000 DUP2 MSTORE REVERT JUMPDEST PUSH1 0x40 MLOAD SWAP1 PUSH3 0x279E DUP3 PUSH3 0x36C JUMP JUMPDEST PUSH1 0x0 PUSH1 0x20 DUP4 PUSH1 0x60 DUP2 MSTORE ADD MSTORE JUMP JUMPDEST PUSH1 0x40 MLOAD PUSH3 0x27B9 DUP2 PUSH3 0x36C JUMP JUMPDEST PUSH3 0x27C3 PUSH3 0x278F JUMP JUMPDEST DUP1 DUP3 MSTORE PUSH1 0x20 DUP3 ADD PUSH1 0x0 DUP2 MSTORE PUSH3 0x27D8 PUSH3 0x278F JUMP JUMPDEST POP PUSH2 0x100 PUSH1 0x20 DUP4 ADD MSTORE PUSH1 0x40 MLOAD DUP1 SWAP3 MSTORE PUSH1 0x0 DUP3 MSTORE PUSH2 0x120 DUP3 ADD SWAP2 DUP3 LT PUSH3 0x2EC JUMPI PUSH1 0x0 SWAP2 PUSH1 0x40 MSTORE MSTORE SWAP1 JUMP JUMPDEST SWAP1 PUSH3 0x280D PUSH3 0x278F JUMP JUMPDEST POP PUSH1 0x1F DUP2 AND DUP1 PUSH3 0x283E JUMPI JUMPDEST POP DUP1 PUSH1 0x20 DUP4 ADD MSTORE PUSH1 0x40 MLOAD SWAP1 DUP2 DUP4 MSTORE PUSH1 0x0 DUP3 MSTORE DUP2 ADD PUSH1 0x20 ADD SWAP1 DUP2 LT PUSH3 0x2EC JUMPI PUSH1 0x40 MSTORE SWAP1 JUMP JUMPDEST PUSH1 0x20 SUB PUSH1 0x20 DUP2 GT PUSH3 0x1441 JUMPI DUP2 ADD DUP1 SWAP2 GT PUSH3 0x1441 JUMPI CODESIZE PUSH3 0x2819 JUMP JUMPDEST SWAP1 DUP2 MLOAD SWAP2 PUSH3 0x2869 PUSH3 0x278F JUMP JUMPDEST POP DUP3 MLOAD MLOAD PUSH1 0x1 DUP2 ADD SWAP1 DUP2 DUP2 GT PUSH3 0x1441 JUMPI PUSH1 0x20 DUP6 ADD MLOAD DUP2 LT ISZERO PUSH3 0x28CA JUMPI JUMPDEST PUSH1 0xC2 PUSH1 0x20 PUSH3 0x806 SWAP7 MLOAD SWAP3 DUP4 ADD ADD MSTORE8 DUP1 MLOAD DUP3 GT PUSH3 0x28C1 JUMPI JUMPDEST POP POP PUSH1 0x40 MLOAD SWAP2 PUSH1 0x20 DUP4 ADD MSTORE PUSH1 0x20 DUP3 MSTORE PUSH3 0x28BB DUP3 PUSH3 0x36C JUMP JUMPDEST PUSH3 0x2ED1 JUMP JUMPDEST MSTORE CODESIZE DUP1 PUSH3 0x28A1 JUMP JUMPDEST DUP2 PUSH1 0x1 SHL SWAP5 DUP3 DUP7 DIV PUSH1 0x2 EQ DUP4 ISZERO OR ISZERO PUSH3 0x1441 JUMPI PUSH1 0x20 DUP2 PUSH3 0x2902 PUSH3 0x806 SWAP9 PUSH3 0x28FA PUSH1 0xC2 SWAP6 MLOAD SWAP2 DUP5 PUSH3 0x2802 JUMP JUMPDEST POP DUP3 PUSH3 0x2E02 JUMP JUMPDEST POP SWAP7 POP POP POP PUSH3 0x2888 JUMP JUMPDEST SWAP1 DUP2 PUSH1 0x1 SHL SWAP2 DUP1 DUP4 DIV PUSH1 0x2 EQ SWAP1 ISZERO OR ISZERO PUSH3 0x1441 JUMPI JUMP JUMPDEST PUSH3 0x292E PUSH3 0x278F JUMP JUMPDEST POP DUP1 MLOAD MLOAD PUSH1 0x1 DUP2 ADD SWAP1 DUP2 DUP2 GT PUSH3 0x1441 JUMPI PUSH1 0x20 DUP4 ADD MLOAD DUP2 LT ISZERO PUSH3 0x296A JUMPI JUMPDEST PUSH1 0x5B PUSH1 0x20 DUP5 MLOAD SWAP3 DUP4 ADD ADD MSTORE8 DUP1 MLOAD DUP3 GT PUSH3 0x2966 JUMPI POP POP SWAP1 JUMP JUMPDEST MSTORE SWAP1 JUMP JUMPDEST DUP2 PUSH1 0x1 SHL DUP3 DUP2 DIV PUSH1 0x2 EQ DUP4 ISZERO OR ISZERO PUSH3 0x1441 JUMPI PUSH3 0x2998 SWAP1 PUSH3 0x2990 DUP6 MLOAD SWAP2 DUP7 PUSH3 0x2802 JUMP JUMPDEST POP DUP5 PUSH3 0x2E02 JUMP JUMPDEST POP PUSH3 0x294D JUMP JUMPDEST PUSH3 0x29A9 PUSH3 0x278F JUMP JUMPDEST POP DUP1 MLOAD MLOAD PUSH1 0x1 DUP2 ADD SWAP1 DUP2 DUP2 GT PUSH3 0x1441 JUMPI PUSH1 0x20 DUP4 ADD MLOAD DUP2 LT ISZERO PUSH3 0x29E1 JUMPI JUMPDEST PUSH1 0x5A PUSH1 0x20 DUP5 MLOAD SWAP3 DUP4 ADD ADD MSTORE8 DUP1 MLOAD DUP3 GT PUSH3 0x2966 JUMPI POP POP SWAP1 JUMP JUMPDEST DUP2 PUSH1 0x1 SHL DUP3 DUP2 DIV PUSH1 0x2 EQ DUP4 ISZERO OR ISZERO PUSH3 0x1441 JUMPI PUSH3 0x2A07 SWAP1 PUSH3 0x2990 DUP6 MLOAD SWAP2 DUP7 PUSH3 0x2802 JUMP JUMPDEST POP PUSH3 0x29C8 JUMP JUMPDEST PUSH3 0x2A18 PUSH3 0x278F JUMP JUMPDEST POP DUP1 MLOAD MLOAD PUSH1 0x1 DUP2 ADD SWAP1 DUP2 DUP2 GT PUSH3 0x1441 JUMPI PUSH1 0x20 DUP4 ADD MLOAD DUP2 LT ISZERO PUSH3 0x2A50 JUMPI JUMPDEST PUSH1 0x59 PUSH1 0x20 DUP5 MLOAD SWAP3 DUP4 ADD ADD MSTORE8 DUP1 MLOAD DUP3 GT PUSH3 0x2966 JUMPI POP POP SWAP1 JUMP JUMPDEST DUP2 PUSH1 0x1 SHL DUP3 DUP2 DIV PUSH1 0x2 EQ DUP4 ISZERO OR ISZERO PUSH3 0x1441 JUMPI PUSH3 0x2A76 SWAP1 PUSH3 0x2990 DUP6 MLOAD SWAP2 DUP7 PUSH3 0x2802 JUMP JUMPDEST POP PUSH3 0x2A37 JUMP JUMPDEST PUSH3 0x2A87 PUSH3 0x278F JUMP JUMPDEST POP DUP1 MLOAD MLOAD PUSH1 0x1 DUP2 ADD SWAP1 DUP2 DUP2 GT PUSH3 0x1441 JUMPI PUSH1 0x20 DUP4 ADD MLOAD DUP2 LT ISZERO PUSH3 0x2ABF JUMPI JUMPDEST PUSH1 0x58 PUSH1 0x20 DUP5 MLOAD SWAP3 DUP4 ADD ADD MSTORE8 DUP1 MLOAD DUP3 GT PUSH3 0x2966 JUMPI POP POP SWAP1 JUMP JUMPDEST DUP2 PUSH1 0x1 SHL DUP3 DUP2 DIV PUSH1 0x2 EQ DUP4 ISZERO OR ISZERO PUSH3 0x1441 JUMPI PUSH3 0x2AE5 SWAP1 PUSH3 0x2990 DUP6 MLOAD SWAP2 DUP7 PUSH3 0x2802 JUMP JUMPDEST POP PUSH3 0x2AA6 JUMP JUMPDEST PUSH3 0x2AF6 PUSH3 0x278F JUMP JUMPDEST POP DUP1 MLOAD MLOAD PUSH1 0x1 DUP2 ADD SWAP1 DUP2 DUP2 GT PUSH3 0x1441 JUMPI PUSH1 0x20 DUP4 ADD MLOAD DUP2 LT ISZERO PUSH3 0x2B2E JUMPI JUMPDEST PUSH1 0x7B PUSH1 0x20 DUP5 MLOAD SWAP3 DUP4 ADD ADD MSTORE8 DUP1 MLOAD DUP3 GT PUSH3 0x2966 JUMPI POP POP SWAP1 JUMP JUMPDEST DUP2 PUSH1 0x1 SHL DUP3 DUP2 DIV PUSH1 0x2 EQ DUP4 ISZERO OR ISZERO PUSH3 0x1441 JUMPI PUSH3 0x2B54 SWAP1 PUSH3 0x2990 DUP6 MLOAD SWAP2 DUP7 PUSH3 0x2802 JUMP JUMPDEST POP PUSH3 0x2B15 JUMP JUMPDEST PUSH3 0x2B65 PUSH3 0x278F JUMP JUMPDEST POP DUP1 MLOAD MLOAD PUSH1 0x1 DUP2 ADD SWAP1 DUP2 DUP2 GT PUSH3 0x1441 JUMPI PUSH1 0x20 DUP4 ADD MLOAD DUP2 LT ISZERO PUSH3 0x2B9D JUMPI JUMPDEST PUSH1 0x7A PUSH1 0x20 DUP5 MLOAD SWAP3 DUP4 ADD ADD MSTORE8 DUP1 MLOAD DUP3 GT PUSH3 0x2966 JUMPI POP POP SWAP1 JUMP JUMPDEST DUP2 PUSH1 0x1 SHL DUP3 DUP2 DIV PUSH1 0x2 EQ DUP4 ISZERO OR ISZERO PUSH3 0x1441 JUMPI PUSH3 0x2BC3 SWAP1 PUSH3 0x2990 DUP6 MLOAD SWAP2 DUP7 PUSH3 0x2802 JUMP JUMPDEST POP PUSH3 0x2B84 JUMP JUMPDEST PUSH3 0x2BD4 PUSH3 0x278F JUMP JUMPDEST POP DUP1 MLOAD MLOAD PUSH1 0x1 DUP2 ADD SWAP1 DUP2 DUP2 GT PUSH3 0x1441 JUMPI PUSH1 0x20 DUP4 ADD MLOAD DUP2 LT ISZERO PUSH3 0x2C0C JUMPI JUMPDEST PUSH1 0x79 PUSH1 0x20 DUP5 MLOAD SWAP3 DUP4 ADD ADD MSTORE8 DUP1 MLOAD DUP3 GT PUSH3 0x2966 JUMPI POP POP SWAP1 JUMP JUMPDEST DUP2 PUSH1 0x1 SHL DUP3 DUP2 DIV PUSH1 0x2 EQ DUP4 ISZERO OR ISZERO PUSH3 0x1441 JUMPI PUSH3 0x2C32 SWAP1 PUSH3 0x2990 DUP6 MLOAD SWAP2 DUP7 PUSH3 0x2802 JUMP JUMPDEST POP PUSH3 0x2BF3 JUMP JUMPDEST PUSH3 0x2C43 PUSH3 0x278F JUMP JUMPDEST POP DUP1 MLOAD MLOAD PUSH1 0x1 DUP2 ADD SWAP1 DUP2 DUP2 GT PUSH3 0x1441 JUMPI PUSH1 0x20 DUP4 ADD MLOAD DUP2 LT ISZERO PUSH3 0x2C7B JUMPI JUMPDEST PUSH1 0x78 PUSH1 0x20 DUP5 MLOAD SWAP3 DUP4 ADD ADD MSTORE8 DUP1 MLOAD DUP3 GT PUSH3 0x2966 JUMPI POP POP SWAP1 JUMP JUMPDEST DUP2 PUSH1 0x1 SHL DUP3 DUP2 DIV PUSH1 0x2 EQ DUP4 ISZERO OR ISZERO PUSH3 0x1441 JUMPI PUSH3 0x2CA1 SWAP1 PUSH3 0x2990 DUP6 MLOAD SWAP2 DUP7 PUSH3 0x2802 JUMP JUMPDEST POP PUSH3 0x2C62 JUMP JUMPDEST SWAP1 PUSH3 0x2CB3 PUSH3 0x278F JUMP JUMPDEST POP DUP2 MLOAD MLOAD PUSH1 0x1 DUP2 ADD SWAP2 DUP3 DUP3 GT PUSH3 0x1441 JUMPI PUSH1 0x20 DUP5 ADD MLOAD DUP3 LT ISZERO PUSH3 0x2CE9 JUMPI JUMPDEST PUSH1 0x20 DUP5 MLOAD SWAP3 DUP4 ADD ADD MSTORE8 DUP1 MLOAD DUP3 GT PUSH3 0x2966 JUMPI POP POP SWAP1 JUMP JUMPDEST DUP3 PUSH1 0x1 SHL DUP4 DUP2 DIV PUSH1 0x2 EQ DUP5 ISZERO OR ISZERO PUSH3 0x1441 JUMPI PUSH3 0x2D17 SWAP1 PUSH3 0x2D0F DUP7 MLOAD SWAP2 DUP8 PUSH3 0x2802 JUMP JUMPDEST POP DUP6 PUSH3 0x2E02 JUMP JUMPDEST POP PUSH3 0x2CD2 JUMP JUMPDEST SWAP1 PUSH3 0x2D2D DUP3 MLOAD SWAP2 DUP4 PUSH3 0x2802 JUMP JUMPDEST POP PUSH3 0x2D38 PUSH3 0x278F JUMP JUMPDEST POP DUP1 MLOAD SWAP1 PUSH3 0x2D46 PUSH3 0x278F JUMP JUMPDEST POP PUSH3 0x2D56 DUP2 MLOAD DUP4 GT ISZERO PUSH3 0x2EC9 JUMP JUMPDEST DUP3 MLOAD MLOAD SWAP3 PUSH3 0x2D66 DUP4 DUP6 PUSH3 0x2005 JUMP JUMPDEST SWAP2 PUSH1 0x20 SWAP3 DUP3 DUP5 DUP1 SWAP5 ADD MLOAD DUP3 GT PUSH3 0x2DE6 JUMPI JUMPDEST MLOAD DUP4 DUP2 MLOAD SWAP8 DUP3 ADD ADD SWAP7 DUP3 GT PUSH3 0x2DDD JUMPI JUMPDEST POP POP ADD SWAP2 JUMPDEST DUP2 DUP2 LT ISZERO PUSH3 0x2DB0 JUMPI PUSH1 0x0 NOT SWAP2 SUB PUSH2 0x100 EXP ADD SWAP1 DUP2 NOT SWAP1 MLOAD AND SWAP1 DUP3 MLOAD AND OR SWAP1 MSTORE JUMP JUMPDEST SWAP2 SWAP3 PUSH3 0x2DD0 PUSH3 0x2DC9 PUSH3 0x2DD7 SWAP3 DUP7 MLOAD DUP2 MSTORE PUSH3 0x1FE7 JUMP JUMPDEST SWAP5 PUSH3 0x1FE7 JUMP JUMPDEST SWAP3 PUSH3 0x1F7C JUMP JUMPDEST PUSH3 0x2D8E JUMP JUMPDEST MSTORE CODESIZE DUP1 PUSH3 0x2D89 JUMP JUMPDEST PUSH3 0x2DFC PUSH3 0x2DF5 DUP4 PUSH3 0x290D JUMP JUMPDEST DUP3 PUSH3 0x2D1E JUMP JUMPDEST PUSH3 0x2D78 JUMP JUMPDEST SWAP1 PUSH3 0x2E0D PUSH3 0x278F JUMP JUMPDEST POP DUP1 MLOAD PUSH3 0x2E1A PUSH3 0x278F JUMP JUMPDEST POP PUSH3 0x2E2A DUP3 MLOAD DUP3 GT ISZERO PUSH3 0x2EC9 JUMP JUMPDEST DUP3 MLOAD MLOAD SWAP2 PUSH3 0x2E3A DUP3 DUP5 PUSH3 0x2005 JUMP JUMPDEST PUSH1 0x20 SWAP2 DUP3 SWAP2 DUP3 DUP8 ADD MLOAD DUP2 GT PUSH3 0x2EAD JUMPI JUMPDEST DUP7 MLOAD DUP4 DUP2 MLOAD SWAP8 DUP3 ADD ADD SWAP7 DUP3 GT PUSH3 0x2EA4 JUMPI JUMPDEST POP POP ADD SWAP2 JUMPDEST DUP2 DUP2 LT ISZERO PUSH3 0x2E85 JUMPI PUSH1 0x0 NOT SWAP2 SUB PUSH2 0x100 EXP ADD SWAP1 DUP2 NOT SWAP1 MLOAD AND SWAP1 DUP3 MLOAD AND OR SWAP1 MSTORE SWAP1 JUMP JUMPDEST SWAP2 SWAP3 PUSH3 0x2DD0 PUSH3 0x2DC9 PUSH3 0x2E9E SWAP3 DUP7 MLOAD DUP2 MSTORE PUSH3 0x1FE7 JUMP JUMPDEST PUSH3 0x2E62 JUMP JUMPDEST MSTORE CODESIZE DUP1 PUSH3 0x2E5D JUMP JUMPDEST PUSH3 0x2EC3 PUSH3 0x2EBC DUP3 PUSH3 0x290D JUMP JUMPDEST DUP9 PUSH3 0x2D1E JUMP JUMPDEST PUSH3 0x2E4B JUMP JUMPDEST ISZERO PUSH3 0x2EC JUMPI JUMP JUMPDEST DUP2 MLOAD PUSH3 0x2F0E SWAP3 SWAP2 SWAP1 PUSH8 0xFFFFFFFFFFFFFFFF DUP2 AND SWAP1 PUSH1 0x17 DUP3 GT PUSH3 0x2F11 JUMPI PUSH3 0x2F05 SWAP2 POP PUSH1 0x40 PUSH1 0xFF DUP5 MLOAD SWAP3 AND OR SWAP1 PUSH3 0x2CA8 JUMP JUMPDEST POP JUMPDEST MLOAD PUSH3 0x2E02 JUMP JUMPDEST POP JUMP JUMPDEST POP PUSH1 0xFF DUP2 GT PUSH3 0x2F3C JUMPI PUSH3 0x2F35 SWAP1 PUSH3 0x2F2C DUP4 MLOAD PUSH3 0x2A7D JUMP JUMPDEST POP DUP3 MLOAD PUSH3 0x32C1 JUMP JUMPDEST POP PUSH3 0x2F07 JUMP JUMPDEST PUSH2 0xFFFF DUP2 GT PUSH3 0x2F60 JUMPI PUSH3 0x2F35 SWAP1 PUSH3 0x2F57 DUP4 MLOAD PUSH3 0x2A0E JUMP JUMPDEST POP DUP3 MLOAD PUSH3 0x3251 JUMP JUMPDEST PUSH4 0xFFFFFFFF DUP2 GT PUSH3 0x2F86 JUMPI PUSH3 0x2F35 SWAP1 PUSH3 0x2F7D DUP4 MLOAD PUSH3 0x299F JUMP JUMPDEST POP DUP3 MLOAD PUSH3 0x31DF JUMP JUMPDEST PUSH3 0x2F35 SWAP1 PUSH3 0x2F97 DUP4 MLOAD PUSH3 0x2924 JUMP JUMPDEST POP DUP3 MLOAD PUSH3 0x3169 JUMP JUMPDEST DUP2 MLOAD PUSH3 0x2F0E SWAP3 SWAP2 SWAP1 PUSH8 0xFFFFFFFFFFFFFFFF DUP2 AND SWAP1 PUSH1 0x17 DUP3 GT PUSH3 0x2FD4 JUMPI PUSH3 0x2F05 SWAP2 POP PUSH1 0x60 PUSH1 0xFF DUP5 MLOAD SWAP3 AND OR SWAP1 PUSH3 0x2CA8 JUMP JUMPDEST POP PUSH1 0xFF DUP2 GT PUSH3 0x2FEF JUMPI PUSH3 0x2F35 SWAP1 PUSH3 0x2F2C DUP4 MLOAD PUSH3 0x2C39 JUMP JUMPDEST PUSH2 0xFFFF DUP2 GT PUSH3 0x300A JUMPI PUSH3 0x2F35 SWAP1 PUSH3 0x2F57 DUP4 MLOAD PUSH3 0x2BCA JUMP JUMPDEST PUSH4 0xFFFFFFFF DUP2 GT PUSH3 0x3027 JUMPI PUSH3 0x2F35 SWAP1 PUSH3 0x2F7D DUP4 MLOAD PUSH3 0x2B5B JUMP JUMPDEST PUSH3 0x2F35 SWAP1 PUSH3 0x2F97 DUP4 MLOAD PUSH3 0x2AEC JUMP JUMPDEST DUP1 MLOAD SWAP1 PUSH3 0x3045 PUSH3 0x278F JUMP JUMPDEST POP DUP2 MLOAD MLOAD PUSH1 0x1 DUP2 ADD SWAP1 DUP2 DUP2 GT PUSH3 0x1441 JUMPI PUSH1 0x20 DUP5 ADD MLOAD DUP2 LT ISZERO PUSH3 0x3098 JUMPI JUMPDEST PUSH1 0x9F PUSH1 0x20 DUP1 SWAP6 MLOAD SWAP3 DUP4 ADD ADD MSTORE8 DUP1 MLOAD DUP3 GT PUSH3 0x308F JUMPI JUMPDEST POP POP ADD DUP1 MLOAD SWAP1 PUSH1 0x1 DUP3 ADD DUP1 SWAP3 GT PUSH3 0x1441 JUMPI MSTORE JUMP JUMPDEST MSTORE CODESIZE DUP1 PUSH3 0x307A JUMP JUMPDEST DUP2 PUSH1 0x1 SHL SWAP4 DUP3 DUP6 DIV PUSH1 0x2 EQ DUP4 ISZERO OR ISZERO PUSH3 0x1441 JUMPI PUSH1 0x20 DUP2 PUSH3 0x30C5 DUP3 SWAP8 PUSH3 0x28FA PUSH1 0x9F SWAP6 MLOAD SWAP2 DUP5 PUSH3 0x2802 JUMP JUMPDEST POP SWAP6 POP POP POP PUSH3 0x3064 JUMP JUMPDEST DUP1 MLOAD SWAP1 PUSH3 0x30DD PUSH3 0x278F JUMP JUMPDEST POP DUP2 MLOAD MLOAD PUSH1 0x1 DUP2 ADD SWAP1 DUP2 DUP2 GT PUSH3 0x1441 JUMPI PUSH1 0x20 DUP5 ADD MLOAD DUP2 LT ISZERO PUSH3 0x3131 JUMPI JUMPDEST PUSH1 0xFF PUSH1 0x20 DUP1 SWAP6 MLOAD SWAP3 DUP4 ADD ADD MSTORE8 DUP1 MLOAD DUP3 GT PUSH3 0x3128 JUMPI JUMPDEST POP POP ADD DUP1 MLOAD PUSH1 0x0 NOT DUP2 ADD SWAP2 SWAP1 DUP3 GT PUSH3 0x1441 JUMPI MSTORE JUMP JUMPDEST MSTORE CODESIZE DUP1 PUSH3 0x3112 JUMP JUMPDEST DUP2 PUSH1 0x1 SHL SWAP4 DUP3 DUP6 DIV PUSH1 0x2 EQ DUP4 ISZERO OR ISZERO PUSH3 0x1441 JUMPI PUSH1 0x20 DUP2 PUSH3 0x315E DUP3 SWAP8 PUSH3 0x28FA PUSH1 0xFF SWAP6 MLOAD SWAP2 DUP5 PUSH3 0x2802 JUMP JUMPDEST POP SWAP6 POP POP POP PUSH3 0x30FC JUMP JUMPDEST SWAP1 PUSH3 0x3174 PUSH3 0x278F JUMP JUMPDEST POP DUP2 MLOAD MLOAD DUP1 PUSH1 0x8 ADD SWAP2 DUP3 PUSH1 0x8 GT PUSH3 0x1441 JUMPI PUSH1 0x20 DUP5 ADD MLOAD DUP4 GT PUSH3 0x31BA JUMPI JUMPDEST PUSH1 0x8 DUP5 MLOAD SWAP3 DUP4 ADD ADD SWAP1 PUSH8 0xFFFFFFFFFFFFFFFF NOT DUP3 MLOAD AND OR SWAP1 MSTORE DUP1 MLOAD DUP3 GT PUSH3 0x2966 JUMPI POP POP SWAP1 JUMP JUMPDEST DUP3 PUSH1 0x1 SHL DUP4 DUP2 DIV PUSH1 0x2 EQ DUP5 ISZERO OR ISZERO PUSH3 0x1441 JUMPI PUSH3 0x31D9 SWAP1 DUP6 PUSH3 0x2D1E JUMP JUMPDEST PUSH3 0x3193 JUMP JUMPDEST SWAP1 PUSH3 0x31EA PUSH3 0x278F JUMP JUMPDEST POP DUP2 MLOAD MLOAD DUP1 PUSH1 0x4 ADD SWAP2 DUP3 PUSH1 0x4 GT PUSH3 0x1441 JUMPI PUSH1 0x20 DUP5 ADD MLOAD DUP4 GT PUSH3 0x322C JUMPI JUMPDEST PUSH1 0x4 DUP5 MLOAD SWAP3 DUP4 ADD ADD SWAP1 PUSH4 0xFFFFFFFF NOT DUP3 MLOAD AND OR SWAP1 MSTORE DUP1 MLOAD DUP3 GT PUSH3 0x2966 JUMPI POP POP SWAP1 JUMP JUMPDEST DUP3 PUSH1 0x1 SHL DUP4 DUP2 DIV PUSH1 0x2 EQ DUP5 ISZERO OR ISZERO PUSH3 0x1441 JUMPI PUSH3 0x324B SWAP1 DUP6 PUSH3 0x2D1E JUMP JUMPDEST PUSH3 0x3209 JUMP JUMPDEST SWAP1 PUSH3 0x325C PUSH3 0x278F JUMP JUMPDEST POP DUP2 MLOAD MLOAD DUP1 PUSH1 0x2 ADD SWAP2 DUP3 PUSH1 0x2 GT PUSH3 0x1441 JUMPI PUSH1 0x20 DUP5 ADD MLOAD DUP4 GT PUSH3 0x329C JUMPI JUMPDEST PUSH1 0x2 DUP5 MLOAD SWAP3 DUP4 ADD ADD SWAP1 PUSH2 0xFFFF NOT DUP3 MLOAD AND OR SWAP1 MSTORE DUP1 MLOAD DUP3 GT PUSH3 0x2966 JUMPI POP POP SWAP1 JUMP JUMPDEST DUP3 PUSH1 0x1 SHL DUP4 DUP2 DIV PUSH1 0x2 EQ DUP5 ISZERO OR ISZERO PUSH3 0x1441 JUMPI PUSH3 0x32BB SWAP1 DUP6 PUSH3 0x2D1E JUMP JUMPDEST PUSH3 0x327B JUMP JUMPDEST SWAP1 PUSH3 0x32CC PUSH3 0x278F JUMP JUMPDEST POP DUP2 MLOAD MLOAD DUP1 PUSH1 0x1 ADD SWAP2 DUP3 PUSH1 0x1 GT PUSH3 0x1441 JUMPI PUSH1 0x20 DUP5 ADD MLOAD DUP4 GT PUSH3 0x330B JUMPI JUMPDEST PUSH1 0x1 DUP5 MLOAD SWAP3 DUP4 ADD ADD SWAP1 PUSH1 0xFF NOT DUP3 MLOAD AND OR SWAP1 MSTORE DUP1 MLOAD DUP3 GT PUSH3 0x2966 JUMPI POP POP SWAP1 JUMP JUMPDEST DUP3 PUSH1 0x1 SHL DUP4 DUP2 DIV PUSH1 0x2 EQ DUP5 ISZERO OR ISZERO PUSH3 0x1441 JUMPI PUSH3 0x332A SWAP1 DUP6 PUSH3 0x2D1E JUMP JUMPDEST PUSH3 0x32EB JUMP JUMPDEST PUSH1 0x20 DUP2 MLOAD SWAP2 ADD MLOAD SWAP1 PUSH1 0x20 DUP2 LT PUSH3 0x3345 JUMPI POP SWAP1 JUMP JUMPDEST PUSH1 0x0 NOT SWAP1 PUSH1 0x20 SUB PUSH1 0x3 SHL SHL AND SWAP1 JUMP JUMPDEST PUSH1 0x1B SLOAD PUSH9 0x10000000000000000 DUP2 LT ISZERO PUSH3 0x366 JUMPI PUSH3 0x337C PUSH1 0x1 SWAP2 DUP3 DUP2 ADD PUSH1 0x1B SSTORE PUSH3 0x734 JUMP JUMPDEST SWAP3 SWAP1 SWAP3 PUSH3 0x345D JUMPI DUP1 MLOAD SWAP1 PUSH8 0xFFFFFFFFFFFFFFFF DUP3 GT PUSH3 0x366 JUMPI PUSH3 0x33AF DUP3 PUSH3 0x33A8 DUP7 SLOAD PUSH3 0x788 JUMP JUMPDEST DUP7 PUSH3 0x1CF7 JUMP JUMPDEST PUSH1 0x20 SWAP1 DUP2 PUSH1 0x1F DUP5 GT PUSH1 0x1 EQ PUSH3 0x33EE JUMPI POP SWAP3 DUP3 SWAP4 SWAP2 DUP4 SWAP3 PUSH1 0x0 SWAP5 PUSH3 0x33E2 JUMPI JUMPDEST POP POP SHL SWAP2 PUSH1 0x0 NOT SWAP1 PUSH1 0x3 SHL SHR NOT AND OR SWAP1 SSTORE JUMP JUMPDEST ADD MLOAD SWAP3 POP CODESIZE DUP1 PUSH3 0x33CF JUMP JUMPDEST SWAP2 SWAP1 DUP4 PUSH1 0x1F NOT DUP2 AND PUSH3 0x3406 DUP9 PUSH1 0x0 MSTORE PUSH1 0x20 PUSH1 0x0 KECCAK256 SWAP1 JUMP JUMPDEST SWAP5 PUSH1 0x0 SWAP1 JUMPDEST DUP9 DUP4 DUP4 LT PUSH3 0x3442 JUMPI POP POP POP LT PUSH3 0x3428 JUMPI JUMPDEST POP POP POP DUP2 SHL ADD SWAP1 SSTORE JUMP JUMPDEST ADD MLOAD PUSH1 0x0 NOT PUSH1 0xF8 DUP5 PUSH1 0x3 SHL AND SHR NOT AND SWAP1 SSTORE CODESIZE DUP1 DUP1 PUSH3 0x341E JUMP JUMPDEST DUP6 DUP8 ADD MLOAD DUP9 SSTORE SWAP1 SWAP7 ADD SWAP6 SWAP5 DUP6 ADD SWAP5 DUP8 SWAP4 POP SWAP1 DUP2 ADD SWAP1 PUSH3 0x340B JUMP JUMPDEST PUSH3 0x772 JUMP JUMPDEST SWAP1 DUP2 MLOAD DUP2 LT ISZERO PUSH3 0x76C JUMPI ADD PUSH1 0x20 ADD SWAP1 JUMP JUMPDEST DUP1 ISZERO PUSH3 0x354E JUMPI DUP1 PUSH1 0x0 SWAP1 DUP3 DUP3 SWAP4 JUMPDEST PUSH3 0x3537 JUMPI POP PUSH3 0x3495 DUP4 PUSH3 0x3AC JUMP JUMPDEST SWAP3 PUSH3 0x34A5 PUSH1 0x40 MLOAD SWAP5 DUP6 PUSH3 0x389 JUMP JUMPDEST DUP1 DUP5 MSTORE DUP2 PUSH1 0x1F NOT PUSH3 0x34B7 DUP4 PUSH3 0x3AC JUMP JUMPDEST ADD CALLDATASIZE PUSH1 0x20 DUP8 ADD CALLDATACOPY JUMPDEST PUSH3 0x34CA JUMPI POP POP POP SWAP1 JUMP JUMPDEST PUSH1 0x0 NOT DUP2 ADD SWAP1 DUP2 GT PUSH3 0x1441 JUMPI DUP1 SWAP2 PUSH1 0xA SWAP2 PUSH3 0x352D PUSH3 0x3523 PUSH3 0x34FB PUSH3 0x34F5 DUP7 DUP7 MOD PUSH3 0x1FF6 JUMP JUMPDEST PUSH1 0xFF AND SWAP1 JUMP JUMPDEST PUSH1 0xF8 SHL PUSH32 0xFF00000000000000000000000000000000000000000000000000000000000000 AND SWAP1 JUMP JUMPDEST DUP7 BYTE SWAP2 DUP8 PUSH3 0x3463 JUMP JUMPDEST MSTORE8 DIV SWAP1 DUP2 PUSH3 0x34BF JUMP JUMPDEST SWAP3 PUSH3 0x3545 PUSH1 0xA SWAP2 PUSH3 0x2402 JUMP JUMPDEST SWAP4 DIV DUP1 PUSH3 0x3484 JUMP JUMPDEST POP PUSH1 0x40 MLOAD PUSH3 0x355D DUP2 PUSH3 0x36C JUMP JUMPDEST PUSH1 0x1 DUP2 MSTORE PUSH32 0x3000000000000000000000000000000000000000000000000000000000000000 PUSH1 0x20 DUP3 ADD MSTORE SWAP1 JUMP JUMPDEST ISZERO PUSH3 0x3592 JUMPI JUMP JUMPDEST PUSH1 0x84 PUSH1 0x40 MLOAD PUSH3 0x461BCD PUSH1 0xE5 SHL DUP2 MSTORE PUSH1 0x20 PUSH1 0x4 DUP3 ADD MSTORE PUSH1 0x2D PUSH1 0x24 DUP3 ADD MSTORE PUSH32 0x4572726F20616F207265746F726E6172206F732066756E646F73207061726120 PUSH1 0x44 DUP3 ADD MSTORE PUSH32 0x6120696E73746974756963616F00000000000000000000000000000000000000 PUSH1 0x64 DUP3 ADD MSTORE REVERT JUMPDEST ISZERO PUSH3 0x3604 JUMPI JUMP JUMPDEST PUSH1 0x64 PUSH1 0x40 MLOAD PUSH3 0x461BCD PUSH1 0xE5 SHL DUP2 MSTORE PUSH1 0x20 PUSH1 0x4 DUP3 ADD MSTORE PUSH1 0x1B PUSH1 0x24 DUP3 ADD MSTORE PUSH32 0x4572726F20616F207061676172206120696E64656E697A6163616F0000000000 PUSH1 0x44 DUP3 ADD MSTORE REVERT INVALID PUSH1 0xC0 CALLVALUE PUSH2 0xBA JUMPI PUSH1 0x1F PUSH2 0x765 CODESIZE DUP2 SWAP1 SUB SWAP2 DUP3 ADD PUSH1 0x1F NOT AND DUP4 ADD SWAP2 PUSH1 0x1 PUSH1 0x1 PUSH1 0x40 SHL SUB DUP4 GT DUP5 DUP5 LT OR PUSH2 0xBF JUMPI DUP1 DUP5 SWAP3 PUSH1 0x60 SWAP5 PUSH1 0x40 MSTORE DUP4 CODECOPY DUP2 ADD SUB SLT PUSH2 0xBA JUMPI PUSH2 0x47 DUP2 PUSH2 0xD5 JUMP JUMPDEST SWAP1 PUSH1 0x40 PUSH2 0x56 PUSH1 0x20 DUP4 ADD PUSH2 0xD5 JUMP JUMPDEST SWAP2 ADD MLOAD PUSH1 0x1 PUSH1 0x1 PUSH1 0x60 SHL SUB DUP2 AND SWAP3 SWAP1 DUP4 SWAP1 SUB PUSH2 0xBA JUMPI PUSH1 0x80 MSTORE PUSH1 0xA0 MSTORE PUSH1 0x1 DUP1 SLOAD PUSH1 0x1 PUSH1 0x1 PUSH1 0x60 SHL SUB NOT AND SWAP2 SWAP1 SWAP2 OR SWAP1 SSTORE PUSH1 0x40 MLOAD PUSH2 0x67B SWAP1 DUP2 PUSH2 0xEA DUP3 CODECOPY PUSH1 0x80 MLOAD DUP2 DUP2 DUP2 PUSH1 0x77 ADD MSTORE DUP2 DUP2 PUSH2 0x1C7 ADD MSTORE PUSH2 0x3A3 ADD MSTORE PUSH1 0xA0 MLOAD DUP2 DUP2 DUP2 PUSH1 0xBE ADD MSTORE PUSH2 0x36A ADD MSTORE RETURN JUMPDEST PUSH1 0x0 DUP1 REVERT JUMPDEST PUSH4 0x4E487B71 PUSH1 0xE0 SHL PUSH1 0x0 MSTORE PUSH1 0x41 PUSH1 0x4 MSTORE PUSH1 0x24 PUSH1 0x0 REVERT JUMPDEST MLOAD SWAP1 PUSH1 0x1 PUSH1 0x1 PUSH1 0xA0 SHL SUB DUP3 AND DUP3 SUB PUSH2 0xBA JUMPI JUMP INVALID PUSH1 0x80 PUSH1 0x40 DUP2 DUP2 MSTORE PUSH1 0x4 CALLDATASIZE LT ISZERO PUSH2 0x14 JUMPI PUSH1 0x0 DUP1 REVERT JUMPDEST PUSH1 0x0 SWAP2 DUP3 CALLDATALOAD PUSH1 0xE0 SHR SWAP1 DUP2 PUSH4 0x1619D3D EQ PUSH2 0x22D JUMPI POP DUP1 PUSH4 0x23024408 EQ PUSH2 0x14A JUMPI DUP1 PUSH4 0x24380AA8 EQ PUSH2 0xE2 JUMPI DUP1 PUSH4 0x442B1278 EQ PUSH2 0x9F JUMPI PUSH4 0x7D253AFF EQ PUSH2 0x59 JUMPI PUSH1 0x0 DUP1 REVERT JUMPDEST CALLVALUE PUSH2 0x9B JUMPI DUP2 PUSH1 0x3 NOT CALLDATASIZE ADD SLT PUSH2 0x9B JUMPI PUSH1 0x20 SWAP1 MLOAD PUSH1 0x1 PUSH1 0x1 PUSH1 0xA0 SHL SUB PUSH32 0x0 AND DUP2 MSTORE RETURN JUMPDEST POP DUP1 REVERT JUMPDEST POP CALLVALUE PUSH2 0x9B JUMPI DUP2 PUSH1 0x3 NOT CALLDATASIZE ADD SLT PUSH2 0x9B JUMPI PUSH1 0x20 SWAP1 MLOAD PUSH1 0x1 PUSH1 0x1 PUSH1 0xA0 SHL SUB PUSH32 0x0 AND DUP2 MSTORE RETURN JUMPDEST POP CALLVALUE PUSH2 0x9B JUMPI PUSH1 0x3 NOT DUP2 DUP2 CALLDATASIZE ADD SLT PUSH2 0x142 JUMPI PUSH1 0x4 CALLDATALOAD SWAP1 PUSH8 0xFFFFFFFFFFFFFFFF DUP3 GT PUSH2 0x146 JUMPI PUSH2 0x140 SWAP1 DUP3 CALLDATASIZE SUB ADD SLT PUSH2 0x142 JUMPI PUSH1 0x24 CALLDATALOAD SWAP3 PUSH1 0x1 PUSH1 0x1 PUSH1 0xA0 SHL SUB DUP5 AND DUP5 SUB PUSH2 0x13F JUMPI POP PUSH1 0x20 SWAP3 PUSH2 0x138 SWAP2 PUSH1 0x4 ADD PUSH2 0x313 JUMP JUMPDEST SWAP1 MLOAD SWAP1 DUP2 MSTORE RETURN JUMPDEST DUP1 REVERT JUMPDEST DUP3 DUP1 REVERT JUMPDEST DUP4 DUP1 REVERT JUMPDEST POP CALLVALUE PUSH2 0x9B JUMPI PUSH1 0x20 CALLDATASIZE PUSH1 0x3 NOT ADD SLT PUSH2 0x9B JUMPI PUSH1 0x4 CALLDATALOAD SWAP1 PUSH1 0x1 PUSH1 0x1 PUSH1 0xA0 SHL SUB SWAP2 DUP3 DUP2 AND DUP1 SWAP2 SUB PUSH2 0x146 JUMPI PUSH1 0x20 SWAP1 PUSH1 0x64 PUSH12 0xFFFFFFFFFFFFFFFFFFFFFFFF PUSH1 0x1 SLOAD AND SWAP2 DUP7 DUP6 MLOAD SWAP7 DUP8 SWAP5 DUP6 SWAP4 PUSH32 0x23B872DD00000000000000000000000000000000000000000000000000000000 DUP6 MSTORE PUSH1 0x4 DUP6 ADD MSTORE ADDRESS PUSH1 0x24 DUP6 ADD MSTORE PUSH1 0x44 DUP5 ADD MSTORE PUSH32 0x0 AND GAS CALL SWAP1 DUP2 ISZERO PUSH2 0x224 JUMPI POP PUSH2 0x1F9 JUMPI POP DUP1 RETURN JUMPDEST PUSH2 0x219 SWAP1 PUSH1 0x20 RETURNDATASIZE DUP2 GT PUSH2 0x21D JUMPI JUMPDEST PUSH2 0x211 DUP2 DUP4 PUSH2 0x270 JUMP JUMPDEST DUP2 ADD SWAP1 PUSH2 0x2A8 JUMP JUMPDEST POP DUP1 RETURN JUMPDEST POP RETURNDATASIZE PUSH2 0x207 JUMP JUMPDEST MLOAD RETURNDATASIZE DUP5 DUP3 RETURNDATACOPY RETURNDATASIZE SWAP1 REVERT JUMPDEST DUP4 SWAP1 CALLVALUE PUSH2 0x9B JUMPI DUP2 PUSH1 0x3 NOT CALLDATASIZE ADD SLT PUSH2 0x9B JUMPI PUSH1 0x20 SWAP1 PUSH12 0xFFFFFFFFFFFFFFFFFFFFFFFF PUSH1 0x1 SLOAD AND DUP2 MSTORE RETURN JUMPDEST CALLDATALOAD SWAP1 PUSH1 0x1 PUSH1 0x1 PUSH1 0xA0 SHL SUB DUP3 AND DUP3 SUB PUSH2 0x26B JUMPI JUMP JUMPDEST PUSH1 0x0 DUP1 REVERT JUMPDEST SWAP1 PUSH1 0x1F DUP1 NOT SWAP2 ADD AND DUP2 ADD SWAP1 DUP2 LT PUSH8 0xFFFFFFFFFFFFFFFF DUP3 GT OR PUSH2 0x292 JUMPI PUSH1 0x40 MSTORE JUMP JUMPDEST PUSH4 0x4E487B71 PUSH1 0xE0 SHL PUSH1 0x0 MSTORE PUSH1 0x41 PUSH1 0x4 MSTORE PUSH1 0x24 PUSH1 0x0 REVERT JUMPDEST SWAP1 DUP2 PUSH1 0x20 SWAP2 SUB SLT PUSH2 0x26B JUMPI MLOAD DUP1 ISZERO ISZERO DUP2 SUB PUSH2 0x26B JUMPI SWAP1 JUMP JUMPDEST SWAP1 CALLDATALOAD PUSH1 0x1E NOT DUP3 CALLDATASIZE SUB ADD DUP2 SLT ISZERO PUSH2 0x26B JUMPI ADD PUSH1 0x20 DUP2 CALLDATALOAD SWAP2 ADD SWAP2 PUSH8 0xFFFFFFFFFFFFFFFF DUP3 GT PUSH2 0x26B JUMPI DUP2 CALLDATASIZE SUB DUP4 SGT PUSH2 0x26B JUMPI JUMP JUMPDEST SWAP1 DUP1 PUSH1 0x20 SWAP4 SWAP3 DUP2 DUP5 MSTORE DUP5 DUP5 ADD CALLDATACOPY PUSH1 0x0 DUP3 DUP3 ADD DUP5 ADD MSTORE PUSH1 0x1F ADD PUSH1 0x1F NOT AND ADD ADD SWAP1 JUMP JUMPDEST SWAP2 SWAP1 SWAP2 PUSH1 0x0 SWAP3 PUSH2 0x120 DUP3 ADD CALLDATALOAD PUSH12 0xFFFFFFFFFFFFFFFFFFFFFFFF DUP2 AND DUP1 SWAP2 SUB PUSH2 0x641 JUMPI PUSH1 0x40 SWAP1 DUP2 MLOAD SWAP3 PUSH32 0x95EA7B300000000000000000000000000000000000000000000000000000000 DUP5 MSTORE PUSH1 0x1 PUSH1 0x1 PUSH1 0xA0 SHL SUB SWAP2 DUP3 PUSH32 0x0 AND SWAP6 DUP7 PUSH1 0x4 DUP8 ADD MSTORE DUP2 PUSH1 0x24 DUP8 ADD MSTORE PUSH1 0x20 SWAP6 DUP7 DUP2 PUSH1 0x44 DUP2 DUP14 DUP10 PUSH32 0x0 AND GAS CALL DUP1 ISZERO PUSH2 0x637 JUMPI PUSH2 0x61A JUMPI JUMPDEST POP DUP5 MLOAD SWAP7 PUSH32 0x3F678E1100000000000000000000000000000000000000000000000000000000 DUP9 MSTORE DUP7 PUSH1 0x4 DUP10 ADD MSTORE PUSH2 0x41D PUSH2 0x40A DUP4 DUP1 PUSH2 0x2C0 JUMP JUMPDEST PUSH2 0x140 PUSH1 0x24 DUP13 ADD MSTORE PUSH2 0x164 DUP12 ADD SWAP2 PUSH2 0x2F2 JUMP JUMPDEST DUP11 PUSH2 0x441 PUSH2 0x42D DUP11 DUP7 ADD DUP7 PUSH2 0x2C0 JUMP JUMPDEST PUSH1 0x23 NOT DUP14 DUP7 SUB DUP2 ADD PUSH1 0x44 DUP16 ADD MSTORE SWAP5 SWAP2 PUSH2 0x2F2 JUMP JUMPDEST SWAP5 DUP8 PUSH2 0x44E DUP11 DUP8 ADD PUSH2 0x257 JUMP JUMPDEST AND PUSH1 0x64 DUP13 ADD MSTORE PUSH1 0x60 DUP6 ADD CALLDATALOAD PUSH4 0xFFFFFFFF DUP2 AND DUP1 SWAP2 SUB PUSH2 0x142 JUMPI PUSH1 0x84 DUP13 ADD MSTORE DUP8 PUSH2 0x479 PUSH1 0x80 DUP8 ADD PUSH2 0x257 JUMP JUMPDEST AND PUSH1 0xA4 DUP13 ADD MSTORE PUSH1 0xA0 DUP6 ADD CALLDATALOAD SWAP1 PUSH1 0xFF DUP3 AND DUP1 SWAP3 SUB PUSH2 0x142 JUMPI PUSH2 0x501 DUP13 SWAP7 DUP8 SWAP6 PUSH2 0x4F1 PUSH2 0x4E5 DUP16 SWAP12 PUSH2 0x4C7 SWAP1 DUP11 SWAP9 PUSH1 0xC4 DUP11 ADD MSTORE PUSH2 0x4B7 PUSH1 0xC0 DUP8 ADD DUP8 PUSH2 0x2C0 JUMP JUMPDEST SWAP1 DUP7 DUP12 DUP5 SUB ADD PUSH1 0xE4 DUP13 ADD MSTORE PUSH2 0x2F2 JUMP JUMPDEST PUSH2 0x4D4 PUSH1 0xE0 DUP7 ADD DUP7 PUSH2 0x2C0 JUMP JUMPDEST SWAP1 DUP6 DUP11 DUP5 SUB ADD PUSH2 0x104 DUP12 ADD MSTORE PUSH2 0x2F2 JUMP JUMPDEST SWAP3 PUSH2 0x100 DUP2 ADD SWAP1 PUSH2 0x2C0 JUMP JUMPDEST SWAP2 DUP7 DUP5 SUB ADD PUSH2 0x124 DUP8 ADD MSTORE PUSH2 0x2F2 JUMP JUMPDEST SWAP1 PUSH2 0x144 DUP4 ADD MSTORE SUB SWAP3 GAS CALL SWAP5 DUP6 ISZERO PUSH2 0x610 JUMPI DUP8 SWAP6 PUSH2 0x5DD JUMPI JUMPDEST POP DUP5 ISZERO PUSH2 0x580 JUMPI AND DUP6 MSTORE DUP5 DUP3 MSTORE DUP5 KECCAK256 SWAP1 DUP2 SLOAD SWAP2 PUSH9 0x10000000000000000 DUP4 LT ISZERO PUSH2 0x56C JUMPI PUSH1 0x1 DUP4 ADD DUP1 DUP3 SSTORE DUP4 LT ISZERO PUSH2 0x558 JUMPI SWAP5 DUP4 SWAP5 SWAP6 DUP2 MSTORE KECCAK256 ADD SSTORE SWAP1 JUMP JUMPDEST PUSH1 0x24 DUP7 PUSH4 0x4E487B71 PUSH1 0xE0 SHL DUP2 MSTORE PUSH1 0x32 PUSH1 0x4 MSTORE REVERT JUMPDEST PUSH1 0x24 DUP7 PUSH4 0x4E487B71 PUSH1 0xE0 SHL DUP2 MSTORE PUSH1 0x41 PUSH1 0x4 MSTORE REVERT JUMPDEST PUSH1 0x64 DUP5 DUP5 MLOAD SWAP1 PUSH32 0x8C379A000000000000000000000000000000000000000000000000000000000 DUP3 MSTORE PUSH1 0x4 DUP3 ADD MSTORE PUSH1 0x15 PUSH1 0x24 DUP3 ADD MSTORE PUSH32 0x6175746F2D617070726F76652064697361626C65640000000000000000000000 PUSH1 0x44 DUP3 ADD MSTORE REVERT JUMPDEST SWAP1 SWAP5 POP DUP4 DUP2 DUP2 RETURNDATASIZE DUP4 GT PUSH2 0x609 JUMPI JUMPDEST PUSH2 0x5F5 DUP2 DUP4 PUSH2 0x270 JUMP JUMPDEST DUP2 ADD SUB SLT PUSH2 0x605 JUMPI MLOAD SWAP4 CODESIZE PUSH2 0x51A JUMP JUMPDEST DUP7 DUP1 REVERT JUMPDEST POP RETURNDATASIZE PUSH2 0x5EB JUMP JUMPDEST DUP4 MLOAD RETURNDATASIZE DUP10 DUP3 RETURNDATACOPY RETURNDATASIZE SWAP1 REVERT JUMPDEST PUSH2 0x630 SWAP1 DUP8 RETURNDATASIZE DUP10 GT PUSH2 0x21D JUMPI PUSH2 0x211 DUP2 DUP4 PUSH2 0x270 JUMP JUMPDEST POP CODESIZE PUSH2 0x3D0 JUMP JUMPDEST DUP7 MLOAD RETURNDATASIZE DUP13 DUP3 RETURNDATACOPY RETURNDATASIZE SWAP1 REVERT JUMPDEST DUP5 DUP1 REVERT INVALID LOG2 PUSH5 0x6970667358 0x22 SLT KECCAK256 0xB5 0xD5 0xE5 0x49 STATICCALL LOG0 CREATE PUSH15 0x6B4C0D541D8329AF501EE63625D5B8 PUSH19 0xCB2297C6DBD1556D64736F6C63430008130033 LOG2 PUSH5 0x6970667358 0x22 SLT KECCAK256 SUB PUSH30 0x1BF594636C94B804C95295321689474F59773EF4BAE67AF6A1A8FBBE6B71 PUSH5 0x736F6C6343 STOP ADDMOD SGT STOP CALLER LOG2 PUSH5 0x6970667358 0x22 SLT KECCAK256 0xE2 0xBA PUSH11 0x93F31D618E07D0972127D6 SWAP1 0xC 0x1F SWAP16 0xC1 0x2E PUSH6 0x246284A0407A 0xAD 0xCC PUSH25 0xE2C664736F6C63430008130033000000000000000000000000 "},"methodIdentifiers":{"blacklist(address)":"f9f92be4","blacklistAddr(address)":"8a699f00","contractBalance()":"8b7afe2e","contracts(address,uint256)":"ed23f8c3","createInsuranceContract(address,address,uint256,uint256,uint256,uint256,address,address,address,address,uint32,bytes32,string)":"9c22a6dd","getAllInsuranceContracts(address)":"3f0f912d","im_owner()":"af6081de","info(string)":"17fab0a0","infoKeys(uint256)":"90f6d378","institutionName()":"3a133e2c","registerInfo(string[2][])":"dfb50e64","whitelist(address)":"9b19251a","whitelistAddr(address)":"080a57f9","withdraw()":"3ccfd60b"}}}}}