{"contracts/AutomatedFunctionsConsumer.sol":{"AutomatedFunctionsConsumer":{"abi":[{"inputs":[{"internalType":"address","name":"_deployer","type":"address"},{"internalType":"address","name":"_farmer","type":"address"},{"internalType":"uint256","name":"_humidityLimit","type":"uint256"},{"internalType":"uint256","name":"_sampleMaxSize","type":"uint256"},{"internalType":"uint256","name":"_reparationValue","type":"uint256"},{"internalType":"uint256","name":"_updateInterval","type":"uint256"},{"internalType":"address","name":"router","type":"address"},{"internalType":"uint64","name":"_subscriptionId","type":"uint64"},{"internalType":"address","name":"_registry","type":"address"},{"internalType":"address","name":"sepoliaLINKAddress","type":"address"},{"internalType":"address","name":"sepoliaRegistrarAddress","type":"address"},{"internalType":"uint32","name":"_fulfillGasLimit","type":"uint32"}],"stateMutability":"payable","type":"constructor"},{"inputs":[],"name":"EmptyArgs","type":"error"},{"inputs":[],"name":"EmptySource","type":"error"},{"inputs":[],"name":"NoInlineSecrets","type":"error"},{"inputs":[{"internalType":"address","name":"caller","type":"address"},{"internalType":"address","name":"owner","type":"address"},{"internalType":"address","name":"automationRegistry","type":"address"}],"name":"NotAllowedCaller","type":"error"},{"inputs":[],"name":"OnlyRouterCanFulfill","type":"error"},{"inputs":[{"internalType":"bytes32","name":"requestId","type":"bytes32"}],"name":"UnexpectedRequestID","type":"error"},{"anonymous":false,"inputs":[{"indexed":true,"internalType":"bytes32","name":"requestId","type":"bytes32"},{"indexed":false,"internalType":"bytes","name":"result","type":"bytes"},{"indexed":false,"internalType":"bytes","name":"err","type":"bytes"}],"name":"OCRResponse","type":"event"},{"anonymous":false,"inputs":[{"indexed":true,"internalType":"address","name":"from","type":"address"},{"indexed":true,"internalType":"address","name":"to","type":"address"}],"name":"OwnershipTransferRequested","type":"event"},{"anonymous":false,"inputs":[{"indexed":true,"internalType":"address","name":"from","type":"address"},{"indexed":true,"internalType":"address","name":"to","type":"address"}],"name":"OwnershipTransferred","type":"event"},{"anonymous":false,"inputs":[{"indexed":true,"internalType":"bytes32","name":"id","type":"bytes32"}],"name":"RequestFulfilled","type":"event"},{"anonymous":false,"inputs":[{"indexed":false,"internalType":"string","name":"reason","type":"string"}],"name":"RequestRevertedWithErrorMsg","type":"event"},{"anonymous":false,"inputs":[{"indexed":false,"internalType":"bytes","name":"data","type":"bytes"}],"name":"RequestRevertedWithoutErrorMsg","type":"event"},{"anonymous":false,"inputs":[{"indexed":true,"internalType":"bytes32","name":"id","type":"bytes32"}],"name":"RequestSent","type":"event"},{"anonymous":false,"inputs":[{"indexed":true,"internalType":"bytes32","name":"requestId","type":"bytes32"},{"indexed":false,"internalType":"bytes","name":"response","type":"bytes"},{"indexed":false,"internalType":"bytes","name":"err","type":"bytes"}],"name":"Response","type":"event"},{"anonymous":false,"inputs":[{"indexed":false,"internalType":"address","name":"upkeepAddress","type":"address"}],"name":"upkeepCreated","type":"event"},{"anonymous":false,"inputs":[{"indexed":false,"internalType":"uint256","name":"upkeepId","type":"uint256"}],"name":"upkeepRegistered","type":"event"},{"inputs":[],"name":"acceptOwnership","outputs":[],"stateMutability":"nonpayable","type":"function"},{"inputs":[{"internalType":"bytes","name":"","type":"bytes"}],"name":"checkUpkeep","outputs":[{"internalType":"bool","name":"upkeepNeeded","type":"bool"},{"internalType":"bytes","name":"","type":"bytes"}],"stateMutability":"view","type":"function"},{"inputs":[],"name":"contractBalance","outputs":[{"internalType":"uint256","name":"","type":"uint256"}],"stateMutability":"view","type":"function"},{"inputs":[],"name":"donID","outputs":[{"internalType":"bytes32","name":"","type":"bytes32"}],"stateMutability":"view","type":"function"},{"inputs":[],"name":"farmer","outputs":[{"internalType":"address","name":"","type":"address"}],"stateMutability":"view","type":"function"},{"inputs":[],"name":"fulfillGasLimit","outputs":[{"internalType":"uint32","name":"","type":"uint32"}],"stateMutability":"view","type":"function"},{"inputs":[],"name":"gasLimit","outputs":[{"internalType":"uint32","name":"","type":"uint32"}],"stateMutability":"view","type":"function"},{"inputs":[{"internalType":"bytes32","name":"requestId","type":"bytes32"},{"internalType":"bytes","name":"response","type":"bytes"},{"internalType":"bytes","name":"err","type":"bytes"}],"name":"handleOracleFulfillment","outputs":[],"stateMutability":"nonpayable","type":"function"},{"inputs":[],"name":"humidityLimit","outputs":[{"internalType":"uint256","name":"","type":"uint256"}],"stateMutability":"view","type":"function"},{"inputs":[],"name":"i_upkeep","outputs":[{"internalType":"contract Upkeep","name":"","type":"address"}],"stateMutability":"view","type":"function"},{"inputs":[],"name":"institution","outputs":[{"internalType":"address","name":"","type":"address"}],"stateMutability":"view","type":"function"},{"inputs":[],"name":"lastUpkeepTimeStamp","outputs":[{"internalType":"uint256","name":"","type":"uint256"}],"stateMutability":"view","type":"function"},{"inputs":[],"name":"latestError","outputs":[{"internalType":"bytes","name":"","type":"bytes"}],"stateMutability":"view","type":"function"},{"inputs":[],"name":"latestRequestId","outputs":[{"internalType":"bytes32","name":"","type":"bytes32"}],"stateMutability":"view","type":"function"},{"inputs":[],"name":"latestResponse","outputs":[{"internalType":"bytes","name":"","type":"bytes"}],"stateMutability":"view","type":"function"},{"inputs":[],"name":"owner","outputs":[{"internalType":"address","name":"","type":"address"}],"stateMutability":"view","type":"function"},{"inputs":[{"internalType":"bytes","name":"","type":"bytes"}],"name":"performUpkeep","outputs":[],"stateMutability":"nonpayable","type":"function"},{"inputs":[],"name":"registry","outputs":[{"internalType":"contract IAutomationRegistryConsumer","name":"","type":"address"}],"stateMutability":"view","type":"function"},{"inputs":[],"name":"reparationValue","outputs":[{"internalType":"uint256","name":"","type":"uint256"}],"stateMutability":"view","type":"function"},{"inputs":[],"name":"request","outputs":[{"internalType":"bytes","name":"","type":"bytes"}],"stateMutability":"view","type":"function"},{"inputs":[],"name":"requestCBOR","outputs":[{"internalType":"bytes","name":"","type":"bytes"}],"stateMutability":"view","type":"function"},{"inputs":[],"name":"responseCounter","outputs":[{"internalType":"uint256","name":"","type":"uint256"}],"stateMutability":"view","type":"function"},{"inputs":[],"name":"s_lastError","outputs":[{"internalType":"bytes","name":"","type":"bytes"}],"stateMutability":"view","type":"function"},{"inputs":[],"name":"s_lastRequestId","outputs":[{"internalType":"bytes32","name":"","type":"bytes32"}],"stateMutability":"view","type":"function"},{"inputs":[],"name":"s_lastResponse","outputs":[{"internalType":"bytes","name":"","type":"bytes"}],"stateMutability":"view","type":"function"},{"inputs":[],"name":"s_requestCounter","outputs":[{"internalType":"uint256","name":"","type":"uint256"}],"stateMutability":"view","type":"function"},{"inputs":[],"name":"s_responseCounter","outputs":[{"internalType":"uint256","name":"","type":"uint256"}],"stateMutability":"view","type":"function"},{"inputs":[],"name":"s_upkeepCounter","outputs":[{"internalType":"uint256","name":"","type":"uint256"}],"stateMutability":"view","type":"function"},{"inputs":[],"name":"sampleMaxSize","outputs":[{"internalType":"uint256","name":"","type":"uint256"}],"stateMutability":"view","type":"function"},{"inputs":[{"internalType":"uint256","name":"","type":"uint256"}],"name":"sampleStorage","outputs":[{"internalType":"string","name":"","type":"string"}],"stateMutability":"view","type":"function"},{"inputs":[{"internalType":"bytes","name":"newRequestCBOR","type":"bytes"},{"internalType":"uint64","name":"_subscriptionId","type":"uint64"},{"internalType":"uint32","name":"_fulfillGasLimit","type":"uint32"},{"internalType":"bytes32","name":"_donID","type":"bytes32"},{"internalType":"uint256","name":"_updateInterval","type":"uint256"}],"name":"setRequest","outputs":[],"stateMutability":"nonpayable","type":"function"},{"inputs":[],"name":"subscriptionId","outputs":[{"internalType":"uint64","name":"","type":"uint64"}],"stateMutability":"view","type":"function"},{"inputs":[{"internalType":"address","name":"to","type":"address"}],"name":"transferOwnership","outputs":[],"stateMutability":"nonpayable","type":"function"},{"inputs":[],"name":"updateInterval","outputs":[{"internalType":"uint256","name":"","type":"uint256"}],"stateMutability":"view","type":"function"},{"inputs":[],"name":"upkeepContract","outputs":[{"internalType":"address","name":"","type":"address"}],"stateMutability":"view","type":"function"},{"inputs":[],"name":"upkeepCounter","outputs":[{"internalType":"uint256","name":"","type":"uint256"}],"stateMutability":"view","type":"function"},{"inputs":[],"name":"upkeepId","outputs":[{"internalType":"uint256","name":"","type":"uint256"}],"stateMutability":"view","type":"function"}],"evm":{"bytecode":{"linkReferences":{},"object":"6001600160401b0360c0601f620032fe38819003918201601f191683019184831184841017620001cc5780849261018094604052833981010312620001c7576200004981620001e2565b916200005860208301620001e2565b604083015160608401519160808501519360a0860151926200007d60c08801620001e2565b9260e0880151928316809303620001c757610160620000a06101008a01620001e2565b98620000b06101208201620001e2565b50620000c06101408201620001e2565b5001519363ffffffff85168503620001c7576001600160a01b039081166080529889169081156200018257899060018060a01b0319928084600054161760005583601654161760165516906017541617601755601a556bffffffff00000000000000006006549260401b169160018060601b0319161717600655600755601b556019551660a052426008556040516131069081620001f882396080518181816103eb01528181611b0c0152611cfe015260a0518181816110fc0152611d4a0152f35b60405162461bcd60e51b815260206004820152601860248201527f43616e6e6f7420736574206f776e657220746f207a65726f00000000000000006044820152606490fd5b600080fd5b634e487b7160e01b600052604160045260246000fd5b51906001600160a01b0382168203620001c75756fe6080604052600436101561001257600080fd5b60003560e01c8063089ea02e1461026757806309c1ba2e146102625780630ca761751461025d5780631aa46f591461025857806324b93e3e14610253578063277e22131461024e578063303b137c14610249578063338cdca114610244578063381fc4b51461023f5780633944ea3a1461023a57806343cd3d86146102355780634585e33b14610230578063472cbbb01461022b57806348802b921461022657806348bd6f05146102215780634b0795a81461021c5780635e0611f114610217578063688ecfd1146102125780636e04ff0d1461020d5780636e74336b1461020857806379ba5097146102035780637b103999146101fe5780638b7afe2e146101f95780638da5cb5b146101f4578063a3097139146101ef578063a3d3c0d2146101ea578063b1e21749146101e5578063bef3a2f0146101e0578063d1384eb6146101db578063d2aa789f146101d6578063d811fcf0146101d1578063ebf14a55146101cc578063f2fde38b146101c7578063f5c1279b146101c2578063f68016b7146101bd578063fd2c80ae146101b85763fffeb84e146101b357600080fd5b611421565b611403565b6113df565b6113c1565b6112ee565b6112d0565b6112a9565b61128b565b611264565b6111bd565b61119f565b611181565b611163565b61113c565b611120565b6110dc565b610ffc565b610fde565b610f65565b610ebe565b610e97565b610df0565b610dd2565b610db4565b610bfd565b610b31565b610ae5565b610a3e565b610a20565b61093f565b610915565b6108ac565b61060a565b6105ec565b610392565b61029a565b61027c565b600091031261027757565b600080fd5b34610277576000366003190112610277576020600854604051908152f35b3461027757600036600319011261027757602067ffffffffffffffff60065416604051908152f35b634e487b7160e01b600052604160045260246000fd5b67ffffffffffffffff81116102ec57604052565b6102c2565b6040810190811067ffffffffffffffff8211176102ec57604052565b90601f8019910116810190811067ffffffffffffffff8211176102ec57604052565b67ffffffffffffffff81116102ec57601f01601f191660200190565b81601f82011215610277578035906103628261032f565b92610370604051948561030d565b8284526020838301011161027757816000926020809301838601378301015290565b3461027757606036600319011261027757600480359067ffffffffffffffff90602435828111610277576103c9903690830161034b565b604435838111610277576103e0903690840161034b565b906001600160a01b037f00000000000000000000000000000000000000000000000000000000000000001633036105c35780519384116102ec578261042f8561042a889654610699565b611537565b602080601f8711600114610519575094807f7bab0ec163b5c132c72b8146ac4d6e067e82ed58f8b131150aa71c9258911562959660009161050e575b508160011b916000199060031b1c19161790555b61048882612d89565b61049b610496600a54611727565b600a55565b60ff6104a9600b5460ff1690565b166104f0576104b781612e96565b6104c660405192839283612f93565b0390a27f85e1543bf2f84fe80c6badbce3648c8539ad1df4d2b3d822938ca0538be727e6600080a2005b6105016104fc82612e73565b601e55565b610509613003565b6104b7565b90508301513861046b565b600460005290601f1987167f8a35acfbc15ff81a39ae7d344fd709f28e8600b4aa8c65c6b64bfe7fe36bd19b926000905b8282106105a75750509187917f7bab0ec163b5c132c72b8146ac4d6e067e82ed58f8b131150aa71c925891156297986001941061058e575b5050811b01905561047f565b85015160001960f88460031b161c191690553880610582565b8684015185558a9850600190940193928301929081019061054a565b826040517fc6829f83000000000000000000000000000000000000000000000000000000008152fd5b34610277576000366003190112610277576020600354604051908152f35b3461027757600036600319011261027757602060065463ffffffff6040519160401c168152f35b634e487b7160e01b600052603260045260246000fd5b601c5481101561067e57601c6000527f0e4562a10381dec21b205ed72637e6b1b523bdd0e4d4d50af5cd23dd4500a2110190600090565b610631565b634e487b7160e01b600052600060045260246000fd5b90600182811c921680156106c9575b60208310146106b357565b634e487b7160e01b600052602260045260246000fd5b91607f16916106a8565b60405190600082601d54916106e783610699565b8083529260019081811690811561076f5750600114610710575b5061070e9250038361030d565b565b601d600090815291507f6d4407e7be21f808e6509aa9fa9143369579dd7d760fe20a2c09680fc146134f5b848310610754575061070e935050810160200138610701565b81935090816020925483858a0101520191019091859261073b565b90506020925061070e94915060ff191682840152151560051b82010138610701565b90604051918260008254926107a584610699565b90818452600194858116908160001461081257506001146107cf575b505061070e9250038361030d565b9093915060005260209081600020936000915b8183106107fa57505061070e935082010138806107c1565b855488840185015294850194879450918301916107e2565b91505061070e94506020925060ff191682840152151560051b82010138806107c1565b60005b82811061084757506000910152565b608081015182820152602001610838565b919082519283825260005b848110610884575050826000602080949584010152601f8019910116010190565b602081830181015184830182015201610863565b9060206108a9928181520190610858565b90565b3461027757602036600319011261027757600435601c54811015610277576108fd61091191601c6000527f0e4562a10381dec21b205ed72637e6b1b523bdd0e4d4d50af5cd23dd4500a21101610791565b604051918291602083526020830190610858565b0390f35b346102775760003660031901126102775760206001600160a01b03600b5460081c16604051908152f35b3461027757600080600319360112610a1d576040519080600d5461096281610699565b808552916001918083169081156109f35750600114610998575b6109118561098c8187038261030d565b60405191829182610898565b9250600d83527fd7b6990105719101dabeb77144f2a3385c8033acd3af97e9423a695e81ad1eb55b8284106109db57505050810160200161098c8261091161097c565b805460208587018101919091529093019281016109c0565b8695506109119693506020925061098c94915060ff191682840152151560051b820101929361097c565b80fd5b34610277576000366003190112610277576020600a54604051908152f35b3461027757600080600319360112610a1d576040519080601154610a6181610699565b808552916001918083169081156109f35750600114610a8a576109118561098c8187038261030d565b9250601183527f31ecc21a745e3968a04e9570e4425bc18fa8019c68028196b546d1669c200c685b828410610acd57505050810160200161098c8261091161097c565b80546020858701810191909152909301928101610ab2565b34610277576000366003190112610277576020601554604051908152f35b9181601f840112156102775782359167ffffffffffffffff8311610277576020838186019501011161027757565b346102775760203660031901126102775760043567ffffffffffffffff811161027757610b62903690600401610b03565b50506000546001600160a01b03163381141580610bd3575b610b8857610b86611a69565b005b6018546040517f426fbc710000000000000000000000000000000000000000000000000000000081523360048201526001600160a01b03928316602482015291166044820152606490fd5b50610bf5610be96018546001600160a01b031690565b6001600160a01b031690565b331415610b7a565b346102775760a03660031901126102775767ffffffffffffffff60043581811161027757610c2f903690600401610b03565b60243592918383168403610277576044359263ffffffff8416840361027757610c566114c8565b82116102ec57610c7082610c6b600254610699565b611598565b600090601f8311600114610d10579180610cef9592610cc494600092610d05575b50508160011b916000199060031b1c19161760025567ffffffffffffffff1667ffffffffffffffff196006541617600655565b6bffffffff00000000000000006006549160401b16906bffffffff0000000000000000191617600655565b610cfa606435600f55565b610b86608435600755565b013590503880610c91565b60026000527f405787fa12a823e0f2b7631cc41b3ba8828b3321ca811111fa75cd3aa3bb5ace91601f198416815b818110610d9c5750926001928592610cc496610cef999610610d82575b505050811b0160025567ffffffffffffffff1667ffffffffffffffff196006541617600655565b0135600019600384901b60f8161c19169055388080610d5b565b91936020600181928787013581550195019201610d3e565b34610277576000366003190112610277576020601454604051908152f35b34610277576000366003190112610277576020601954604051908152f35b3461027757600080600319360112610a1d576040519080601254610e1381610699565b808552916001918083169081156109f35750600114610e3c576109118561098c8187038261030d565b9250601283527fbb8a6a4669ba250d26cd7a459eca9d215f8307e33aebe50379bc5a3617ec34445b828410610e7f57505050810160200161098c8261091161097c565b80546020858701810191909152909301928101610e64565b346102775760003660031901126102775760206001600160a01b0360185416604051908152f35b3461027757600080600319360112610a1d576040519080600254610ee181610699565b808552916001918083169081156109f35750600114610f0a576109118561098c8187038261030d565b9250600283527f405787fa12a823e0f2b7631cc41b3ba8828b3321ca811111fa75cd3aa3bb5ace5b828410610f4d57505050810160200161098c8261091161097c565b80546020858701810191909152909301928101610f32565b346102775760203660031901126102775760043567ffffffffffffffff811161027757610f9690369060040161034b565b506008544203428111610fd95760075410604051908152604060208201526060818151806040830152610fcb81848401610835565b601f01601f19168101030190f35b61167e565b34610277576000366003190112610277576020600f54604051908152f35b3461027757600080600319360112610a1d576001600160a01b03806001541633036110985781546001600160a01b03166000805473ffffffffffffffffffffffffffffffffffffffff1916331790559061106e73ffffffffffffffffffffffffffffffffffffffff1960015416600155565b3391167f8be0079c531659141344cd1fd0a4f28419497f9722a3daafe3b4186f6b6457e08380a380f35b606460405162461bcd60e51b815260206004820152601660248201527f4d7573742062652070726f706f736564206f776e6572000000000000000000006044820152fd5b346102775760003660031901126102775760206040516001600160a01b037f0000000000000000000000000000000000000000000000000000000000000000168152f35b3461027757600036600319011261027757602047604051908152f35b346102775760003660031901126102775760206001600160a01b0360005416604051908152f35b34610277576000366003190112610277576020601a54604051908152f35b34610277576000366003190112610277576020600954604051908152f35b34610277576000366003190112610277576020601054604051908152f35b3461027757600080600319360112610a1d5760405190806004546111e081610699565b808552916001918083169081156109f35750600114611209576109118561098c8187038261030d565b9250600483527f8a35acfbc15ff81a39ae7d344fd709f28e8600b4aa8c65c6b64bfe7fe36bd19b5b82841061124c57505050810160200161098c8261091161097c565b80546020858701810191909152909301928101611231565b346102775760003660031901126102775760206001600160a01b0360165416604051908152f35b34610277576000366003190112610277576020600c54604051908152f35b346102775760003660031901126102775760206001600160a01b0360175416604051908152f35b34610277576000366003190112610277576020601b54604051908152f35b34610277576020366003190112610277576004356001600160a01b0381168091036102775761131b6114c8565b33811461137d578073ffffffffffffffffffffffffffffffffffffffff196001541617600155611356610be96000546001600160a01b031690565b7fed8889f560326eb138920d842192f0eb3dd22b4f139c87a2c57538e05bae1278600080a3005b606460405162461bcd60e51b815260206004820152601760248201527f43616e6e6f74207472616e7366657220746f2073656c660000000000000000006044820152fd5b34610277576000366003190112610277576020601354604051908152f35b3461027757600036600319011261027757602063ffffffff600e5416604051908152f35b34610277576000366003190112610277576020600754604051908152f35b3461027757600080600319360112610a1d57604051908060055461144481610699565b808552916001918083169081156109f3575060011461146d576109118561098c8187038261030d565b9250600583527f036b6384b5eca791c62761152d0c79bb0604c104a5fb6f4eb0703f3154bb3db05b8284106114b057505050810160200161098c8261091161097c565b80546020858701810191909152909301928101611495565b6001600160a01b036000541633036114dc57565b606460405162461bcd60e51b815260206004820152601660248201527f4f6e6c792063616c6c61626c65206279206f776e6572000000000000000000006044820152fd5b81811061152b575050565b60008155600101611520565b90601f8211611544575050565b61070e9160046000527f8a35acfbc15ff81a39ae7d344fd709f28e8600b4aa8c65c6b64bfe7fe36bd19b906020601f840160051c8301931061158e575b601f0160051c0190611520565b9091508190611581565b90601f82116115a5575050565b61070e9160026000527f405787fa12a823e0f2b7631cc41b3ba8828b3321ca811111fa75cd3aa3bb5ace906020601f840160051c8301931061158e57601f0160051c0190611520565b90601f82116115fb575050565b61070e9160056000527f036b6384b5eca791c62761152d0c79bb0604c104a5fb6f4eb0703f3154bb3db0906020601f840160051c8301931061158e57601f0160051c0190611520565b9190601f811161165357505050565b61070e926000526020600020906020601f840160051c8301931061158e57601f0160051c0190611520565b634e487b7160e01b600052601160045260246000fd5b601f19810191908211610fd957565b60606008544203428111610fd9576007541091565b604051906020820182811067ffffffffffffffff8211176102ec5760405260008252565b156116e357565b606460405162461bcd60e51b815260206004820152601560248201527f54696d6520696e74657276616c206e6f74206d657400000000000000000000006044820152fd5b9060018201809211610fd957565b9060208201809211610fd957565b91908201809211610fd957565b1561175757565b606460405162461bcd60e51b815260206004820152601560248201527f55706b656570206e6f74207265676973746572656400000000000000000000006044820152fd5b6040519060e0820182811067ffffffffffffffff8211176102ec57604052606060c08360008152600060208201526000604082015282808201528260808201528260a08201520152565b601c549067ffffffffffffffff82116102ec5760405191602061180d818360051b018561030d565b81845280840190601c6000527f0e4562a10381dec21b205ed72637e6b1b523bdd0e4d4d50af5cd23dd4500a2116000925b84841061184c575050505050565b600183819261185a85610791565b81520192019301929061183e565b90816020910312610277575190565b906118a560809367ffffffffffffffff63ffffffff939897969816845260a0602085015260a0840190610858565b95600160408401521660608201520152565b6040513d6000823e3d90fd5b60009060033d116118d057565b905060046000803e60005160e01c90565b600060443d106108a957604051600319913d83016004833e815167ffffffffffffffff918282113d60248401111761193f57818401948551938411611947573d8501016020848701011161193f57506108a99291016020019061030d565b949350505050565b50949350505050565b3d1561197b573d906119618261032f565b9161196f604051938461030d565b82523d6000602084013e565b606090565b9067ffffffffffffffff909493929416815260209360a0858301526000600254956119aa87610699565b908160a08601526001978881169081600014611a4057506001146119e4575b5050604083019590955263ffffffff16606082015260800152565b600260009081529250877f405787fa12a823e0f2b7631cc41b3ba8828b3321ca811111fa75cd3aa3bb5ace5b838510611a2b5750505050820160c0018163ffffffff6119c9565b805487860160c0015293820193899101611a10565b60ff191660c08781019190915292151560051b8601909201925083915063ffffffff90506119c9565b611a716116b8565b50611a83611a7d6116a3565b506116dc565b611a8c42600855565b611a9f611a9a600954611727565b600955565b601b54601c541015611c4e57611abe611ab9601354611727565b601355565b60065467ffffffffffffffff166020611adc600e5463ffffffff1690565b600f5492611afe604051948593849363230e93b160e11b855260048501611980565b038160006001600160a01b037f0000000000000000000000000000000000000000000000000000000000000000165af160009181611c1e575b50611bdb57506001611b476118c3565b6308c379a014611b89575b611b5857565b7f9c4bfa18304482256875c29fabb1a44a5ecd325f214ea17bab8f31e869faf4c8611b8461098c611950565b0390a1565b611b916118e1565b80611b9d575b50611b52565b90507f2ba61e3733e7ac99181c22307780f651ec8fd92fe661a84dfbe711710b2dc36c611bd260009260405191829182610898565b0390a138611b97565b611be481601055565b611bf7611bf2601454611727565b601455565b7f1131472297a800fee664d1d89cfa8f7676ff07189ecc53f80bbb5f4969099db8600080a2565b611c4091925060203d8111611c47575b611c38818361030d565b810190611868565b9038611b37565b503d611c2e565b611c5b600c541515611750565b611c6d600160ff19600b541617600b55565b611c9f611c7861179b565b611c89611c836106d3565b8261228a565b611c9a611c946117e5565b826122cb565b61209f565b611cad611ab9601354611727565b60065467ffffffffffffffff16611ce9611ccc600e5463ffffffff1690565b600f549060405194859463230e93b160e11b865260048601611877565b036000916020816001600160a01b03938186867f0000000000000000000000000000000000000000000000000000000000000000165af1839181611e9e575b50611e5e57506001611d386118c3565b6308c379a014611e0d575b611dd9575b7f000000000000000000000000000000000000000000000000000000000000000016600c54813b15611dd5576040517f8765ecbe000000000000000000000000000000000000000000000000000000008152600481019190915291908290602490829084905af18015611dd057611dbd575b50565b80611dca61070e926102d8565b8061026c565b6118b7565b8280fd5b7f9c4bfa18304482256875c29fabb1a44a5ecd325f214ea17bab8f31e869faf4c8611e0561098c611950565b0390a1611d48565b611e156118e1565b80611e21575b50611d43565b90507f2ba61e3733e7ac99181c22307780f651ec8fd92fe661a84dfbe711710b2dc36c611e55849260405191829182610898565b0390a138611e1b565b611e6781601055565b611e75611bf2601454611727565b7f1131472297a800fee664d1d89cfa8f7676ff07189ecc53f80bbb5f4969099db88380a2611d48565b611eb791925060203d8111611c4757611c38818361030d565b9038611d28565b60405190611ecb826102f1565b600c82527f636f64654c6f636174696f6e00000000000000000000000000000000000000006020830152565b634e487b7160e01b600052602160045260246000fd5b60031115611f1757565b611ef7565b60405190611f29826102f1565b600882527f6c616e67756167650000000000000000000000000000000000000000000000006020830152565b60011115611f1757565b60405190611f6c826102f1565b600682527f736f7572636500000000000000000000000000000000000000000000000000006020830152565b60405190611fa5826102f1565b600482527f61726773000000000000000000000000000000000000000000000000000000006020830152565b6000198114610fd95760010190565b805182101561067e5760209160051b010190565b60405190612001826102f1565b600f82527f736563726574734c6f636174696f6e00000000000000000000000000000000006020830152565b6040519061203a826102f1565b600782527f73656372657473000000000000000000000000000000000000000000000000006020830152565b60405190612073826102f1565b600982527f62797465734172677300000000000000000000000000000000000000000000006020830152565b6120a761231c565b906120b96120b3611ebe565b83612a48565b6120d681516120c781611f0d565b6120d081611f0d565b836123be565b6120e16120b3611f1c565b6120fb60408201516120f281611f55565b6120d081611f55565b6121066120b3611f5f565b612114606082015183612a48565b60a08101805151612231575b506080810190815151612199575b60c0915001805151612141575b50515190565b9161214d6120b3612066565b61215682612acd565b60005b83518051821015612186579061217c6121758261218194611fe0565b5185612995565b611fd1565b612159565b5050915061219381612b59565b3861213b565b6020810180516121a881611f0d565b6121b181611f0d565b156122075760c0926121ea612202926121d16121cb611ff4565b88612a48565b516121db81611f0d565b6121e481611f0d565b866123be565b6121fb6121f561202d565b86612a48565b5184612995565b61212e565b60046040517fa80d31f7000000000000000000000000000000000000000000000000000000008152fd5b9261224361223d611f98565b84612a48565b61224c83612acd565b60005b84518051821015612277579061217c61226b8261227294611fe0565b5186612a48565b61224f565b5050925061228482612b59565b38612120565b8151156122a1576000808252604082015260600152565b60046040517f22ce3edd000000000000000000000000000000000000000000000000000000008152fd5b8151156122d85760a00152565b60046040517ffe936cb7000000000000000000000000000000000000000000000000000000008152fd5b6040519061230f826102f1565b6000602083606081520152565b604051612328816102f1565b612330612302565b8082526020820160008152612343612302565b506101006020830152604051809252600082526101208201918210610277576000916040525290565b90612375612302565b50601f8116806123a4575b50806020830152604051908183526000825281016020019081106102775760405290565b60200360208111610fd9578101809111610fd95738612380565b908151916123ca612302565b508251516001810190818111610fd9576020850151811015612423575b60c2602061070e965192830101538051821161241b575b505060405191602083015260208252612416826102f1565b612995565b5238806123fe565b8160011b9482860460021483151715610fd95760208161245561070e9861244e60c29551918461236c565b50826128dd565b50965050506123e7565b908160011b9180830460021490151715610fd957565b61247d612302565b508051516001810190818111610fd95760208301518110156124b6575b605b602084519283010153805182116124b257505090565b5290565b8160011b82810460021483151715610fd9576124df906124d88551918661236c565b50846128dd565b5061249a565b6124ed612302565b508051516001810190818111610fd9576020830151811015612522575b605a602084519283010153805182116124b257505090565b8160011b82810460021483151715610fd957612544906124d88551918661236c565b5061250a565b612552612302565b508051516001810190818111610fd9576020830151811015612587575b6059602084519283010153805182116124b257505090565b8160011b82810460021483151715610fd9576125a9906124d88551918661236c565b5061256f565b6125b7612302565b508051516001810190818111610fd95760208301518110156125ec575b6058602084519283010153805182116124b257505090565b8160011b82810460021483151715610fd95761260e906124d88551918661236c565b506125d4565b61261c612302565b508051516001810190818111610fd9576020830151811015612651575b607b602084519283010153805182116124b257505090565b8160011b82810460021483151715610fd957612673906124d88551918661236c565b50612639565b612681612302565b508051516001810190818111610fd95760208301518110156126b6575b607a602084519283010153805182116124b257505090565b8160011b82810460021483151715610fd9576126d8906124d88551918661236c565b5061269e565b6126e6612302565b508051516001810190818111610fd957602083015181101561271b575b6079602084519283010153805182116124b257505090565b8160011b82810460021483151715610fd95761273d906124d88551918661236c565b50612703565b61274b612302565b508051516001810190818111610fd9576020830151811015612780575b6078602084519283010153805182116124b257505090565b8160011b82810460021483151715610fd9576127a2906124d88551918661236c565b50612768565b906127b1612302565b508151516001810191828211610fd95760208401518210156127e4575b602084519283010153805182116124b257505090565b8260011b83810460021484151715610fd95761280d906128068651918761236c565b50856128dd565b506127ce565b906128208251918361236c565b50612829612302565b50805190612835612302565b50612843815183111561298e565b825151926128518385611743565b9160209282848094015182116128c6575b51838151978201019682116128be575b505001915b818110156128985760001991036101000a0190811990511690825116179052565b91926128b36128ad6128b99286518152611735565b94611735565b92611694565b612877565b523880612872565b6128d86128d28361245f565b82612813565b612862565b906128e6612302565b5080516128f1612302565b506128ff825182111561298e565b8251519161290d8284611743565b6020918291828701518111612977575b86518381519782010196821161296f575b505001915b818110156129555760001991036101000a019081199051169082511617905290565b91926128b36128ad61296a9286518152611735565b612933565b52388061292e565b6129896129838261245f565b88612813565b61291d565b1561027757565b8151611dba92919067ffffffffffffffff811690601782116129cd576129c59150604060ff8451921617906127a8565b505b516128dd565b5060ff81116129f2576129ec906129e483516125af565b508251612d23565b506129c7565b61ffff8111612a11576129ec90612a09835161254a565b508251612cbc565b63ffffffff8111612a32576129ec90612a2a83516124e5565b508251612c53565b6129ec90612a408351612475565b508251612be6565b8151611dba92919067ffffffffffffffff81169060178211612a78576129c59150606060ff8451921617906127a8565b5060ff8111612a8f576129ec906129e48351612743565b61ffff8111612aa6576129ec90612a0983516126de565b63ffffffff8111612abf576129ec90612a2a8351612679565b6129ec90612a408351612614565b805190612ad8612302565b508151516001810190818111610fd9576020840151811015612b26575b609f6020809551928301015380518211612b1e575b50500180519060018201809211610fd95752565b523880612b0a565b8160011b9382850460021483151715610fd957602081612b4f829761244e609f9551918461236c565b5095505050612af5565b805190612b64612302565b508151516001810190818111610fd9576020840151811015612bb3575b60ff6020809551928301015380518211612bab575b5050018051600019810191908211610fd95752565b523880612b96565b8160011b9382850460021483151715610fd957602081612bdc829761244e60ff9551918461236c565b5095505050612b81565b90612bef612302565b50815151806008019182600811610fd95760208401518311612c32575b60088451928301019067ffffffffffffffff19825116179052805182116124b257505090565b8260011b83810460021484151715610fd957612c4e9085612813565b612c0c565b90612c5c612302565b50815151806004019182600411610fd95760208401518311612c9b575b60048451928301019063ffffffff19825116179052805182116124b257505090565b8260011b83810460021484151715610fd957612cb79085612813565b612c79565b90612cc5612302565b50815151806002019182600211610fd95760208401518311612d02575b60028451928301019061ffff19825116179052805182116124b257505090565b8260011b83810460021484151715610fd957612d1e9085612813565b612ce2565b90612d2c612302565b50815151806001019182600111610fd95760208401518311612d68575b60018451928301019060ff19825116179052805182116124b257505090565b8260011b83810460021484151715610fd957612d849085612813565b612d49565b90815167ffffffffffffffff81116102ec57612daf81612daa600554610699565b6115ee565b602080601f8311600114612deb5750819293600092612de0575b50508160011b916000199060031b1c191617600555565b015190503880612dc9565b90601f19831694612e1e60056000527f036b6384b5eca791c62761152d0c79bb0604c104a5fb6f4eb0703f3154bb3db090565b926000905b878210612e5b575050836001959610612e42575b505050811b01600555565b015160001960f88460031b161c19169055388080612e37565b80600185968294968601518155019501930190612e23565b602081519101519060208110612e87575090565b6000199060200360031b1b1690565b601c54680100000000000000008110156102ec57612ebb600191828101601c55610647565b929092612f8e5780519067ffffffffffffffff82116102ec57612ee882612ee28654610699565b86611644565b60209081601f8411600114612f245750928293918392600094612f19575b50501b916000199060031b1c1916179055565b015192503880612f06565b919083601f198116612f3b88600052602060002090565b946000905b88838310612f745750505010612f5b575b505050811b019055565b015160001960f88460031b161c19169055388080612f51565b858701518855909601959485019487935090810190612f40565b610683565b9091612faa6108a993604084526040840190610858565b916020818403910152610858565b15612fbf57565b606460405162461bcd60e51b815260206004820152601b60248201527f4572726f20616f207061676172206120696e64656e697a6163616f00000000006044820152fd5b601e54601a5411156130415761070e600080808061302f610be9610be96017546001600160a01b031690565b47905af161303b611950565b50612fb8565b60008080806001600160a01b036016541647905af161305e611950565b501561306657565b608460405162461bcd60e51b815260206004820152602d60248201527f4572726f20616f207265746f726e6172206f732066756e646f7320706172612060448201527f6120696e73746974756963616f000000000000000000000000000000000000006064820152fdfea26469706673582212200756746e5c73c22bd732bf4095f5d64b7ac9481ebaba8f8e016f3c3fd4d563ee64736f6c63430008130033","opcodes":"PUSH1 0x1 PUSH1 0x1 PUSH1 0x40 SHL SUB PUSH1 0xC0 PUSH1 0x1F PUSH3 0x32FE CODESIZE DUP2 SWAP1 SUB SWAP2 DUP3 ADD PUSH1 0x1F NOT AND DUP4 ADD SWAP2 DUP5 DUP4 GT DUP5 DUP5 LT OR PUSH3 0x1CC JUMPI DUP1 DUP5 SWAP3 PUSH2 0x180 SWAP5 PUSH1 0x40 MSTORE DUP4 CODECOPY DUP2 ADD SUB SLT PUSH3 0x1C7 JUMPI PUSH3 0x49 DUP2 PUSH3 0x1E2 JUMP JUMPDEST SWAP2 PUSH3 0x58 PUSH1 0x20 DUP4 ADD PUSH3 0x1E2 JUMP JUMPDEST PUSH1 0x40 DUP4 ADD MLOAD PUSH1 0x60 DUP5 ADD MLOAD SWAP2 PUSH1 0x80 DUP6 ADD MLOAD SWAP4 PUSH1 0xA0 DUP7 ADD MLOAD SWAP3 PUSH3 0x7D PUSH1 0xC0 DUP9 ADD PUSH3 0x1E2 JUMP JUMPDEST SWAP3 PUSH1 0xE0 DUP9 ADD MLOAD SWAP3 DUP4 AND DUP1 SWAP4 SUB PUSH3 0x1C7 JUMPI PUSH2 0x160 PUSH3 0xA0 PUSH2 0x100 DUP11 ADD PUSH3 0x1E2 JUMP JUMPDEST SWAP9 PUSH3 0xB0 PUSH2 0x120 DUP3 ADD PUSH3 0x1E2 JUMP JUMPDEST POP PUSH3 0xC0 PUSH2 0x140 DUP3 ADD PUSH3 0x1E2 JUMP JUMPDEST POP ADD MLOAD SWAP4 PUSH4 0xFFFFFFFF DUP6 AND DUP6 SUB PUSH3 0x1C7 JUMPI PUSH1 0x1 PUSH1 0x1 PUSH1 0xA0 SHL SUB SWAP1 DUP2 AND PUSH1 0x80 MSTORE SWAP9 DUP10 AND SWAP1 DUP2 ISZERO PUSH3 0x182 JUMPI DUP10 SWAP1 PUSH1 0x1 DUP1 PUSH1 0xA0 SHL SUB NOT SWAP3 DUP1 DUP5 PUSH1 0x0 SLOAD AND OR PUSH1 0x0 SSTORE DUP4 PUSH1 0x16 SLOAD AND OR PUSH1 0x16 SSTORE AND SWAP1 PUSH1 0x17 SLOAD AND OR PUSH1 0x17 SSTORE PUSH1 0x1A SSTORE PUSH12 0xFFFFFFFF0000000000000000 PUSH1 0x6 SLOAD SWAP3 PUSH1 0x40 SHL AND SWAP2 PUSH1 0x1 DUP1 PUSH1 0x60 SHL SUB NOT AND OR OR PUSH1 0x6 SSTORE PUSH1 0x7 SSTORE PUSH1 0x1B SSTORE PUSH1 0x19 SSTORE AND PUSH1 0xA0 MSTORE TIMESTAMP PUSH1 0x8 SSTORE PUSH1 0x40 MLOAD PUSH2 0x3106 SWAP1 DUP2 PUSH3 0x1F8 DUP3 CODECOPY PUSH1 0x80 MLOAD DUP2 DUP2 DUP2 PUSH2 0x3EB ADD MSTORE DUP2 DUP2 PUSH2 0x1B0C ADD MSTORE PUSH2 0x1CFE ADD MSTORE PUSH1 0xA0 MLOAD DUP2 DUP2 DUP2 PUSH2 0x10FC ADD MSTORE PUSH2 0x1D4A ADD MSTORE RETURN JUMPDEST PUSH1 0x40 MLOAD PUSH3 0x461BCD PUSH1 0xE5 SHL DUP2 MSTORE PUSH1 0x20 PUSH1 0x4 DUP3 ADD MSTORE PUSH1 0x18 PUSH1 0x24 DUP3 ADD MSTORE PUSH32 0x43616E6E6F7420736574206F776E657220746F207A65726F0000000000000000 PUSH1 0x44 DUP3 ADD MSTORE PUSH1 0x64 SWAP1 REVERT JUMPDEST PUSH1 0x0 DUP1 REVERT JUMPDEST PUSH4 0x4E487B71 PUSH1 0xE0 SHL PUSH1 0x0 MSTORE PUSH1 0x41 PUSH1 0x4 MSTORE PUSH1 0x24 PUSH1 0x0 REVERT JUMPDEST MLOAD SWAP1 PUSH1 0x1 PUSH1 0x1 PUSH1 0xA0 SHL SUB DUP3 AND DUP3 SUB PUSH3 0x1C7 JUMPI JUMP INVALID PUSH1 0x80 PUSH1 0x40 MSTORE PUSH1 0x4 CALLDATASIZE LT ISZERO PUSH2 0x12 JUMPI PUSH1 0x0 DUP1 REVERT JUMPDEST PUSH1 0x0 CALLDATALOAD PUSH1 0xE0 SHR DUP1 PUSH4 0x89EA02E EQ PUSH2 0x267 JUMPI DUP1 PUSH4 0x9C1BA2E EQ PUSH2 0x262 JUMPI DUP1 PUSH4 0xCA76175 EQ PUSH2 0x25D JUMPI DUP1 PUSH4 0x1AA46F59 EQ PUSH2 0x258 JUMPI DUP1 PUSH4 0x24B93E3E EQ PUSH2 0x253 JUMPI DUP1 PUSH4 0x277E2213 EQ PUSH2 0x24E JUMPI DUP1 PUSH4 0x303B137C EQ PUSH2 0x249 JUMPI DUP1 PUSH4 0x338CDCA1 EQ PUSH2 0x244 JUMPI DUP1 PUSH4 0x381FC4B5 EQ PUSH2 0x23F JUMPI DUP1 PUSH4 0x3944EA3A EQ PUSH2 0x23A JUMPI DUP1 PUSH4 0x43CD3D86 EQ PUSH2 0x235 JUMPI DUP1 PUSH4 0x4585E33B EQ PUSH2 0x230 JUMPI DUP1 PUSH4 0x472CBBB0 EQ PUSH2 0x22B JUMPI DUP1 PUSH4 0x48802B92 EQ PUSH2 0x226 JUMPI DUP1 PUSH4 0x48BD6F05 EQ PUSH2 0x221 JUMPI DUP1 PUSH4 0x4B0795A8 EQ PUSH2 0x21C JUMPI DUP1 PUSH4 0x5E0611F1 EQ PUSH2 0x217 JUMPI DUP1 PUSH4 0x688ECFD1 EQ PUSH2 0x212 JUMPI DUP1 PUSH4 0x6E04FF0D EQ PUSH2 0x20D JUMPI DUP1 PUSH4 0x6E74336B EQ PUSH2 0x208 JUMPI DUP1 PUSH4 0x79BA5097 EQ PUSH2 0x203 JUMPI DUP1 PUSH4 0x7B103999 EQ PUSH2 0x1FE JUMPI DUP1 PUSH4 0x8B7AFE2E EQ PUSH2 0x1F9 JUMPI DUP1 PUSH4 0x8DA5CB5B EQ PUSH2 0x1F4 JUMPI DUP1 PUSH4 0xA3097139 EQ PUSH2 0x1EF JUMPI DUP1 PUSH4 0xA3D3C0D2 EQ PUSH2 0x1EA JUMPI DUP1 PUSH4 0xB1E21749 EQ PUSH2 0x1E5 JUMPI DUP1 PUSH4 0xBEF3A2F0 EQ PUSH2 0x1E0 JUMPI DUP1 PUSH4 0xD1384EB6 EQ PUSH2 0x1DB JUMPI DUP1 PUSH4 0xD2AA789F EQ PUSH2 0x1D6 JUMPI DUP1 PUSH4 0xD811FCF0 EQ PUSH2 0x1D1 JUMPI DUP1 PUSH4 0xEBF14A55 EQ PUSH2 0x1CC JUMPI DUP1 PUSH4 0xF2FDE38B EQ PUSH2 0x1C7 JUMPI DUP1 PUSH4 0xF5C1279B EQ PUSH2 0x1C2 JUMPI DUP1 PUSH4 0xF68016B7 EQ PUSH2 0x1BD JUMPI DUP1 PUSH4 0xFD2C80AE EQ PUSH2 0x1B8 JUMPI PUSH4 0xFFFEB84E EQ PUSH2 0x1B3 JUMPI PUSH1 0x0 DUP1 REVERT JUMPDEST PUSH2 0x1421 JUMP JUMPDEST PUSH2 0x1403 JUMP JUMPDEST PUSH2 0x13DF JUMP JUMPDEST PUSH2 0x13C1 JUMP JUMPDEST PUSH2 0x12EE JUMP JUMPDEST PUSH2 0x12D0 JUMP JUMPDEST PUSH2 0x12A9 JUMP JUMPDEST PUSH2 0x128B JUMP JUMPDEST PUSH2 0x1264 JUMP JUMPDEST PUSH2 0x11BD JUMP JUMPDEST PUSH2 0x119F JUMP JUMPDEST PUSH2 0x1181 JUMP JUMPDEST PUSH2 0x1163 JUMP JUMPDEST PUSH2 0x113C JUMP JUMPDEST PUSH2 0x1120 JUMP JUMPDEST PUSH2 0x10DC JUMP JUMPDEST PUSH2 0xFFC JUMP JUMPDEST PUSH2 0xFDE JUMP JUMPDEST PUSH2 0xF65 JUMP JUMPDEST PUSH2 0xEBE JUMP JUMPDEST PUSH2 0xE97 JUMP JUMPDEST PUSH2 0xDF0 JUMP JUMPDEST PUSH2 0xDD2 JUMP JUMPDEST PUSH2 0xDB4 JUMP JUMPDEST PUSH2 0xBFD JUMP JUMPDEST PUSH2 0xB31 JUMP JUMPDEST PUSH2 0xAE5 JUMP JUMPDEST PUSH2 0xA3E JUMP JUMPDEST PUSH2 0xA20 JUMP JUMPDEST PUSH2 0x93F JUMP JUMPDEST PUSH2 0x915 JUMP JUMPDEST PUSH2 0x8AC JUMP JUMPDEST PUSH2 0x60A JUMP JUMPDEST PUSH2 0x5EC JUMP JUMPDEST PUSH2 0x392 JUMP JUMPDEST PUSH2 0x29A JUMP JUMPDEST PUSH2 0x27C JUMP JUMPDEST PUSH1 0x0 SWAP2 SUB SLT PUSH2 0x277 JUMPI JUMP JUMPDEST PUSH1 0x0 DUP1 REVERT JUMPDEST CALLVALUE PUSH2 0x277 JUMPI PUSH1 0x0 CALLDATASIZE PUSH1 0x3 NOT ADD SLT PUSH2 0x277 JUMPI PUSH1 0x20 PUSH1 0x8 SLOAD PUSH1 0x40 MLOAD SWAP1 DUP2 MSTORE RETURN JUMPDEST CALLVALUE PUSH2 0x277 JUMPI PUSH1 0x0 CALLDATASIZE PUSH1 0x3 NOT ADD SLT PUSH2 0x277 JUMPI PUSH1 0x20 PUSH8 0xFFFFFFFFFFFFFFFF PUSH1 0x6 SLOAD AND PUSH1 0x40 MLOAD SWAP1 DUP2 MSTORE RETURN JUMPDEST PUSH4 0x4E487B71 PUSH1 0xE0 SHL PUSH1 0x0 MSTORE PUSH1 0x41 PUSH1 0x4 MSTORE PUSH1 0x24 PUSH1 0x0 REVERT JUMPDEST PUSH8 0xFFFFFFFFFFFFFFFF DUP2 GT PUSH2 0x2EC JUMPI PUSH1 0x40 MSTORE JUMP JUMPDEST PUSH2 0x2C2 JUMP JUMPDEST PUSH1 0x40 DUP2 ADD SWAP1 DUP2 LT PUSH8 0xFFFFFFFFFFFFFFFF DUP3 GT OR PUSH2 0x2EC JUMPI PUSH1 0x40 MSTORE JUMP JUMPDEST SWAP1 PUSH1 0x1F DUP1 NOT SWAP2 ADD AND DUP2 ADD SWAP1 DUP2 LT PUSH8 0xFFFFFFFFFFFFFFFF DUP3 GT OR PUSH2 0x2EC JUMPI PUSH1 0x40 MSTORE JUMP JUMPDEST PUSH8 0xFFFFFFFFFFFFFFFF DUP2 GT PUSH2 0x2EC JUMPI PUSH1 0x1F ADD PUSH1 0x1F NOT AND PUSH1 0x20 ADD SWAP1 JUMP JUMPDEST DUP2 PUSH1 0x1F DUP3 ADD SLT ISZERO PUSH2 0x277 JUMPI DUP1 CALLDATALOAD SWAP1 PUSH2 0x362 DUP3 PUSH2 0x32F JUMP JUMPDEST SWAP3 PUSH2 0x370 PUSH1 0x40 MLOAD SWAP5 DUP6 PUSH2 0x30D JUMP JUMPDEST DUP3 DUP5 MSTORE PUSH1 0x20 DUP4 DUP4 ADD ADD GT PUSH2 0x277 JUMPI DUP2 PUSH1 0x0 SWAP3 PUSH1 0x20 DUP1 SWAP4 ADD DUP4 DUP7 ADD CALLDATACOPY DUP4 ADD ADD MSTORE SWAP1 JUMP JUMPDEST CALLVALUE PUSH2 0x277 JUMPI PUSH1 0x60 CALLDATASIZE PUSH1 0x3 NOT ADD SLT PUSH2 0x277 JUMPI PUSH1 0x4 DUP1 CALLDATALOAD SWAP1 PUSH8 0xFFFFFFFFFFFFFFFF SWAP1 PUSH1 0x24 CALLDATALOAD DUP3 DUP2 GT PUSH2 0x277 JUMPI PUSH2 0x3C9 SWAP1 CALLDATASIZE SWAP1 DUP4 ADD PUSH2 0x34B JUMP JUMPDEST PUSH1 0x44 CALLDATALOAD DUP4 DUP2 GT PUSH2 0x277 JUMPI PUSH2 0x3E0 SWAP1 CALLDATASIZE SWAP1 DUP5 ADD PUSH2 0x34B JUMP JUMPDEST SWAP1 PUSH1 0x1 PUSH1 0x1 PUSH1 0xA0 SHL SUB PUSH32 0x0 AND CALLER SUB PUSH2 0x5C3 JUMPI DUP1 MLOAD SWAP4 DUP5 GT PUSH2 0x2EC JUMPI DUP3 PUSH2 0x42F DUP6 PUSH2 0x42A DUP9 SWAP7 SLOAD PUSH2 0x699 JUMP JUMPDEST PUSH2 0x1537 JUMP JUMPDEST PUSH1 0x20 DUP1 PUSH1 0x1F DUP8 GT PUSH1 0x1 EQ PUSH2 0x519 JUMPI POP SWAP5 DUP1 PUSH32 0x7BAB0EC163B5C132C72B8146AC4D6E067E82ED58F8B131150AA71C9258911562 SWAP6 SWAP7 PUSH1 0x0 SWAP2 PUSH2 0x50E JUMPI JUMPDEST POP DUP2 PUSH1 0x1 SHL SWAP2 PUSH1 0x0 NOT SWAP1 PUSH1 0x3 SHL SHR NOT AND OR SWAP1 SSTORE JUMPDEST PUSH2 0x488 DUP3 PUSH2 0x2D89 JUMP JUMPDEST PUSH2 0x49B PUSH2 0x496 PUSH1 0xA SLOAD PUSH2 0x1727 JUMP JUMPDEST PUSH1 0xA SSTORE JUMP JUMPDEST PUSH1 0xFF PUSH2 0x4A9 PUSH1 0xB SLOAD PUSH1 0xFF AND SWAP1 JUMP JUMPDEST AND PUSH2 0x4F0 JUMPI PUSH2 0x4B7 DUP2 PUSH2 0x2E96 JUMP JUMPDEST PUSH2 0x4C6 PUSH1 0x40 MLOAD SWAP3 DUP4 SWAP3 DUP4 PUSH2 0x2F93 JUMP JUMPDEST SUB SWAP1 LOG2 PUSH32 0x85E1543BF2F84FE80C6BADBCE3648C8539AD1DF4D2B3D822938CA0538BE727E6 PUSH1 0x0 DUP1 LOG2 STOP JUMPDEST PUSH2 0x501 PUSH2 0x4FC DUP3 PUSH2 0x2E73 JUMP JUMPDEST PUSH1 0x1E SSTORE JUMP JUMPDEST PUSH2 0x509 PUSH2 0x3003 JUMP JUMPDEST PUSH2 0x4B7 JUMP JUMPDEST SWAP1 POP DUP4 ADD MLOAD CODESIZE PUSH2 0x46B JUMP JUMPDEST PUSH1 0x4 PUSH1 0x0 MSTORE SWAP1 PUSH1 0x1F NOT DUP8 AND PUSH32 0x8A35ACFBC15FF81A39AE7D344FD709F28E8600B4AA8C65C6B64BFE7FE36BD19B SWAP3 PUSH1 0x0 SWAP1 JUMPDEST DUP3 DUP3 LT PUSH2 0x5A7 JUMPI POP POP SWAP2 DUP8 SWAP2 PUSH32 0x7BAB0EC163B5C132C72B8146AC4D6E067E82ED58F8B131150AA71C9258911562 SWAP8 SWAP9 PUSH1 0x1 SWAP5 LT PUSH2 0x58E JUMPI JUMPDEST POP POP DUP2 SHL ADD SWAP1 SSTORE PUSH2 0x47F JUMP JUMPDEST DUP6 ADD MLOAD PUSH1 0x0 NOT PUSH1 0xF8 DUP5 PUSH1 0x3 SHL AND SHR NOT AND SWAP1 SSTORE CODESIZE DUP1 PUSH2 0x582 JUMP JUMPDEST DUP7 DUP5 ADD MLOAD DUP6 SSTORE DUP11 SWAP9 POP PUSH1 0x1 SWAP1 SWAP5 ADD SWAP4 SWAP3 DUP4 ADD SWAP3 SWAP1 DUP2 ADD SWAP1 PUSH2 0x54A JUMP JUMPDEST DUP3 PUSH1 0x40 MLOAD PUSH32 0xC6829F8300000000000000000000000000000000000000000000000000000000 DUP2 MSTORE REVERT JUMPDEST CALLVALUE PUSH2 0x277 JUMPI PUSH1 0x0 CALLDATASIZE PUSH1 0x3 NOT ADD SLT PUSH2 0x277 JUMPI PUSH1 0x20 PUSH1 0x3 SLOAD PUSH1 0x40 MLOAD SWAP1 DUP2 MSTORE RETURN JUMPDEST CALLVALUE PUSH2 0x277 JUMPI PUSH1 0x0 CALLDATASIZE PUSH1 0x3 NOT ADD SLT PUSH2 0x277 JUMPI PUSH1 0x20 PUSH1 0x6 SLOAD PUSH4 0xFFFFFFFF PUSH1 0x40 MLOAD SWAP2 PUSH1 0x40 SHR AND DUP2 MSTORE RETURN JUMPDEST PUSH4 0x4E487B71 PUSH1 0xE0 SHL PUSH1 0x0 MSTORE PUSH1 0x32 PUSH1 0x4 MSTORE PUSH1 0x24 PUSH1 0x0 REVERT JUMPDEST PUSH1 0x1C SLOAD DUP2 LT ISZERO PUSH2 0x67E JUMPI PUSH1 0x1C PUSH1 0x0 MSTORE PUSH32 0xE4562A10381DEC21B205ED72637E6B1B523BDD0E4D4D50AF5CD23DD4500A211 ADD SWAP1 PUSH1 0x0 SWAP1 JUMP JUMPDEST PUSH2 0x631 JUMP JUMPDEST PUSH4 0x4E487B71 PUSH1 0xE0 SHL PUSH1 0x0 MSTORE PUSH1 0x0 PUSH1 0x4 MSTORE PUSH1 0x24 PUSH1 0x0 REVERT JUMPDEST SWAP1 PUSH1 0x1 DUP3 DUP2 SHR SWAP3 AND DUP1 ISZERO PUSH2 0x6C9 JUMPI JUMPDEST PUSH1 0x20 DUP4 LT EQ PUSH2 0x6B3 JUMPI JUMP JUMPDEST PUSH4 0x4E487B71 PUSH1 0xE0 SHL PUSH1 0x0 MSTORE PUSH1 0x22 PUSH1 0x4 MSTORE PUSH1 0x24 PUSH1 0x0 REVERT JUMPDEST SWAP2 PUSH1 0x7F AND SWAP2 PUSH2 0x6A8 JUMP JUMPDEST PUSH1 0x40 MLOAD SWAP1 PUSH1 0x0 DUP3 PUSH1 0x1D SLOAD SWAP2 PUSH2 0x6E7 DUP4 PUSH2 0x699 JUMP JUMPDEST DUP1 DUP4 MSTORE SWAP3 PUSH1 0x1 SWAP1 DUP2 DUP2 AND SWAP1 DUP2 ISZERO PUSH2 0x76F JUMPI POP PUSH1 0x1 EQ PUSH2 0x710 JUMPI JUMPDEST POP PUSH2 0x70E SWAP3 POP SUB DUP4 PUSH2 0x30D JUMP JUMPDEST JUMP JUMPDEST PUSH1 0x1D PUSH1 0x0 SWAP1 DUP2 MSTORE SWAP2 POP PUSH32 0x6D4407E7BE21F808E6509AA9FA9143369579DD7D760FE20A2C09680FC146134F JUMPDEST DUP5 DUP4 LT PUSH2 0x754 JUMPI POP PUSH2 0x70E SWAP4 POP POP DUP2 ADD PUSH1 0x20 ADD CODESIZE PUSH2 0x701 JUMP JUMPDEST DUP2 SWAP4 POP SWAP1 DUP2 PUSH1 0x20 SWAP3 SLOAD DUP4 DUP6 DUP11 ADD ADD MSTORE ADD SWAP2 ADD SWAP1 SWAP2 DUP6 SWAP3 PUSH2 0x73B JUMP JUMPDEST SWAP1 POP PUSH1 0x20 SWAP3 POP PUSH2 0x70E SWAP5 SWAP2 POP PUSH1 0xFF NOT AND DUP3 DUP5 ADD MSTORE ISZERO ISZERO PUSH1 0x5 SHL DUP3 ADD ADD CODESIZE PUSH2 0x701 JUMP JUMPDEST SWAP1 PUSH1 0x40 MLOAD SWAP2 DUP3 PUSH1 0x0 DUP3 SLOAD SWAP3 PUSH2 0x7A5 DUP5 PUSH2 0x699 JUMP JUMPDEST SWAP1 DUP2 DUP5 MSTORE PUSH1 0x1 SWAP5 DUP6 DUP2 AND SWAP1 DUP2 PUSH1 0x0 EQ PUSH2 0x812 JUMPI POP PUSH1 0x1 EQ PUSH2 0x7CF JUMPI JUMPDEST POP POP PUSH2 0x70E SWAP3 POP SUB DUP4 PUSH2 0x30D JUMP JUMPDEST SWAP1 SWAP4 SWAP2 POP PUSH1 0x0 MSTORE PUSH1 0x20 SWAP1 DUP2 PUSH1 0x0 KECCAK256 SWAP4 PUSH1 0x0 SWAP2 JUMPDEST DUP2 DUP4 LT PUSH2 0x7FA JUMPI POP POP PUSH2 0x70E SWAP4 POP DUP3 ADD ADD CODESIZE DUP1 PUSH2 0x7C1 JUMP JUMPDEST DUP6 SLOAD DUP9 DUP5 ADD DUP6 ADD MSTORE SWAP5 DUP6 ADD SWAP5 DUP8 SWAP5 POP SWAP2 DUP4 ADD SWAP2 PUSH2 0x7E2 JUMP JUMPDEST SWAP2 POP POP PUSH2 0x70E SWAP5 POP PUSH1 0x20 SWAP3 POP PUSH1 0xFF NOT AND DUP3 DUP5 ADD MSTORE ISZERO ISZERO PUSH1 0x5 SHL DUP3 ADD ADD CODESIZE DUP1 PUSH2 0x7C1 JUMP JUMPDEST PUSH1 0x0 JUMPDEST DUP3 DUP2 LT PUSH2 0x847 JUMPI POP PUSH1 0x0 SWAP2 ADD MSTORE JUMP JUMPDEST PUSH1 0x80 DUP2 ADD MLOAD DUP3 DUP3 ADD MSTORE PUSH1 0x20 ADD PUSH2 0x838 JUMP JUMPDEST SWAP2 SWAP1 DUP3 MLOAD SWAP3 DUP4 DUP3 MSTORE PUSH1 0x0 JUMPDEST DUP5 DUP2 LT PUSH2 0x884 JUMPI POP POP DUP3 PUSH1 0x0 PUSH1 0x20 DUP1 SWAP5 SWAP6 DUP5 ADD ADD MSTORE PUSH1 0x1F DUP1 NOT SWAP2 ADD AND ADD ADD SWAP1 JUMP JUMPDEST PUSH1 0x20 DUP2 DUP4 ADD DUP2 ADD MLOAD DUP5 DUP4 ADD DUP3 ADD MSTORE ADD PUSH2 0x863 JUMP JUMPDEST SWAP1 PUSH1 0x20 PUSH2 0x8A9 SWAP3 DUP2 DUP2 MSTORE ADD SWAP1 PUSH2 0x858 JUMP JUMPDEST SWAP1 JUMP JUMPDEST CALLVALUE PUSH2 0x277 JUMPI PUSH1 0x20 CALLDATASIZE PUSH1 0x3 NOT ADD SLT PUSH2 0x277 JUMPI PUSH1 0x4 CALLDATALOAD PUSH1 0x1C SLOAD DUP2 LT ISZERO PUSH2 0x277 JUMPI PUSH2 0x8FD PUSH2 0x911 SWAP2 PUSH1 0x1C PUSH1 0x0 MSTORE PUSH32 0xE4562A10381DEC21B205ED72637E6B1B523BDD0E4D4D50AF5CD23DD4500A211 ADD PUSH2 0x791 JUMP JUMPDEST PUSH1 0x40 MLOAD SWAP2 DUP3 SWAP2 PUSH1 0x20 DUP4 MSTORE PUSH1 0x20 DUP4 ADD SWAP1 PUSH2 0x858 JUMP JUMPDEST SUB SWAP1 RETURN JUMPDEST CALLVALUE PUSH2 0x277 JUMPI PUSH1 0x0 CALLDATASIZE PUSH1 0x3 NOT ADD SLT PUSH2 0x277 JUMPI PUSH1 0x20 PUSH1 0x1 PUSH1 0x1 PUSH1 0xA0 SHL SUB PUSH1 0xB SLOAD PUSH1 0x8 SHR AND PUSH1 0x40 MLOAD SWAP1 DUP2 MSTORE RETURN JUMPDEST CALLVALUE PUSH2 0x277 JUMPI PUSH1 0x0 DUP1 PUSH1 0x3 NOT CALLDATASIZE ADD SLT PUSH2 0xA1D JUMPI PUSH1 0x40 MLOAD SWAP1 DUP1 PUSH1 0xD SLOAD PUSH2 0x962 DUP2 PUSH2 0x699 JUMP JUMPDEST DUP1 DUP6 MSTORE SWAP2 PUSH1 0x1 SWAP2 DUP1 DUP4 AND SWAP1 DUP2 ISZERO PUSH2 0x9F3 JUMPI POP PUSH1 0x1 EQ PUSH2 0x998 JUMPI JUMPDEST PUSH2 0x911 DUP6 PUSH2 0x98C DUP2 DUP8 SUB DUP3 PUSH2 0x30D JUMP JUMPDEST PUSH1 0x40 MLOAD SWAP2 DUP3 SWAP2 DUP3 PUSH2 0x898 JUMP JUMPDEST SWAP3 POP PUSH1 0xD DUP4 MSTORE PUSH32 0xD7B6990105719101DABEB77144F2A3385C8033ACD3AF97E9423A695E81AD1EB5 JUMPDEST DUP3 DUP5 LT PUSH2 0x9DB JUMPI POP POP POP DUP2 ADD PUSH1 0x20 ADD PUSH2 0x98C DUP3 PUSH2 0x911 PUSH2 0x97C JUMP JUMPDEST DUP1 SLOAD PUSH1 0x20 DUP6 DUP8 ADD DUP2 ADD SWAP2 SWAP1 SWAP2 MSTORE SWAP1 SWAP4 ADD SWAP3 DUP2 ADD PUSH2 0x9C0 JUMP JUMPDEST DUP7 SWAP6 POP PUSH2 0x911 SWAP7 SWAP4 POP PUSH1 0x20 SWAP3 POP PUSH2 0x98C SWAP5 SWAP2 POP PUSH1 0xFF NOT AND DUP3 DUP5 ADD MSTORE ISZERO ISZERO PUSH1 0x5 SHL DUP3 ADD ADD SWAP3 SWAP4 PUSH2 0x97C JUMP JUMPDEST DUP1 REVERT JUMPDEST CALLVALUE PUSH2 0x277 JUMPI PUSH1 0x0 CALLDATASIZE PUSH1 0x3 NOT ADD SLT PUSH2 0x277 JUMPI PUSH1 0x20 PUSH1 0xA SLOAD PUSH1 0x40 MLOAD SWAP1 DUP2 MSTORE RETURN JUMPDEST CALLVALUE PUSH2 0x277 JUMPI PUSH1 0x0 DUP1 PUSH1 0x3 NOT CALLDATASIZE ADD SLT PUSH2 0xA1D JUMPI PUSH1 0x40 MLOAD SWAP1 DUP1 PUSH1 0x11 SLOAD PUSH2 0xA61 DUP2 PUSH2 0x699 JUMP JUMPDEST DUP1 DUP6 MSTORE SWAP2 PUSH1 0x1 SWAP2 DUP1 DUP4 AND SWAP1 DUP2 ISZERO PUSH2 0x9F3 JUMPI POP PUSH1 0x1 EQ PUSH2 0xA8A JUMPI PUSH2 0x911 DUP6 PUSH2 0x98C DUP2 DUP8 SUB DUP3 PUSH2 0x30D JUMP JUMPDEST SWAP3 POP PUSH1 0x11 DUP4 MSTORE PUSH32 0x31ECC21A745E3968A04E9570E4425BC18FA8019C68028196B546D1669C200C68 JUMPDEST DUP3 DUP5 LT PUSH2 0xACD JUMPI POP POP POP DUP2 ADD PUSH1 0x20 ADD PUSH2 0x98C DUP3 PUSH2 0x911 PUSH2 0x97C JUMP JUMPDEST DUP1 SLOAD PUSH1 0x20 DUP6 DUP8 ADD DUP2 ADD SWAP2 SWAP1 SWAP2 MSTORE SWAP1 SWAP4 ADD SWAP3 DUP2 ADD PUSH2 0xAB2 JUMP JUMPDEST CALLVALUE PUSH2 0x277 JUMPI PUSH1 0x0 CALLDATASIZE PUSH1 0x3 NOT ADD SLT PUSH2 0x277 JUMPI PUSH1 0x20 PUSH1 0x15 SLOAD PUSH1 0x40 MLOAD SWAP1 DUP2 MSTORE RETURN JUMPDEST SWAP2 DUP2 PUSH1 0x1F DUP5 ADD SLT ISZERO PUSH2 0x277 JUMPI DUP3 CALLDATALOAD SWAP2 PUSH8 0xFFFFFFFFFFFFFFFF DUP4 GT PUSH2 0x277 JUMPI PUSH1 0x20 DUP4 DUP2 DUP7 ADD SWAP6 ADD ADD GT PUSH2 0x277 JUMPI JUMP JUMPDEST CALLVALUE PUSH2 0x277 JUMPI PUSH1 0x20 CALLDATASIZE PUSH1 0x3 NOT ADD SLT PUSH2 0x277 JUMPI PUSH1 0x4 CALLDATALOAD PUSH8 0xFFFFFFFFFFFFFFFF DUP2 GT PUSH2 0x277 JUMPI PUSH2 0xB62 SWAP1 CALLDATASIZE SWAP1 PUSH1 0x4 ADD PUSH2 0xB03 JUMP JUMPDEST POP POP PUSH1 0x0 SLOAD PUSH1 0x1 PUSH1 0x1 PUSH1 0xA0 SHL SUB AND CALLER DUP2 EQ ISZERO DUP1 PUSH2 0xBD3 JUMPI JUMPDEST PUSH2 0xB88 JUMPI PUSH2 0xB86 PUSH2 0x1A69 JUMP JUMPDEST STOP JUMPDEST PUSH1 0x18 SLOAD PUSH1 0x40 MLOAD PUSH32 0x426FBC7100000000000000000000000000000000000000000000000000000000 DUP2 MSTORE CALLER PUSH1 0x4 DUP3 ADD MSTORE PUSH1 0x1 PUSH1 0x1 PUSH1 0xA0 SHL SUB SWAP3 DUP4 AND PUSH1 0x24 DUP3 ADD MSTORE SWAP2 AND PUSH1 0x44 DUP3 ADD MSTORE PUSH1 0x64 SWAP1 REVERT JUMPDEST POP PUSH2 0xBF5 PUSH2 0xBE9 PUSH1 0x18 SLOAD PUSH1 0x1 PUSH1 0x1 PUSH1 0xA0 SHL SUB AND SWAP1 JUMP JUMPDEST PUSH1 0x1 PUSH1 0x1 PUSH1 0xA0 SHL SUB AND SWAP1 JUMP JUMPDEST CALLER EQ ISZERO PUSH2 0xB7A JUMP JUMPDEST CALLVALUE PUSH2 0x277 JUMPI PUSH1 0xA0 CALLDATASIZE PUSH1 0x3 NOT ADD SLT PUSH2 0x277 JUMPI PUSH8 0xFFFFFFFFFFFFFFFF PUSH1 0x4 CALLDATALOAD DUP2 DUP2 GT PUSH2 0x277 JUMPI PUSH2 0xC2F SWAP1 CALLDATASIZE SWAP1 PUSH1 0x4 ADD PUSH2 0xB03 JUMP JUMPDEST PUSH1 0x24 CALLDATALOAD SWAP3 SWAP2 DUP4 DUP4 AND DUP5 SUB PUSH2 0x277 JUMPI PUSH1 0x44 CALLDATALOAD SWAP3 PUSH4 0xFFFFFFFF DUP5 AND DUP5 SUB PUSH2 0x277 JUMPI PUSH2 0xC56 PUSH2 0x14C8 JUMP JUMPDEST DUP3 GT PUSH2 0x2EC JUMPI PUSH2 0xC70 DUP3 PUSH2 0xC6B PUSH1 0x2 SLOAD PUSH2 0x699 JUMP JUMPDEST PUSH2 0x1598 JUMP JUMPDEST PUSH1 0x0 SWAP1 PUSH1 0x1F DUP4 GT PUSH1 0x1 EQ PUSH2 0xD10 JUMPI SWAP2 DUP1 PUSH2 0xCEF SWAP6 SWAP3 PUSH2 0xCC4 SWAP5 PUSH1 0x0 SWAP3 PUSH2 0xD05 JUMPI JUMPDEST POP POP DUP2 PUSH1 0x1 SHL SWAP2 PUSH1 0x0 NOT SWAP1 PUSH1 0x3 SHL SHR NOT AND OR PUSH1 0x2 SSTORE PUSH8 0xFFFFFFFFFFFFFFFF AND PUSH8 0xFFFFFFFFFFFFFFFF NOT PUSH1 0x6 SLOAD AND OR PUSH1 0x6 SSTORE JUMP JUMPDEST PUSH12 0xFFFFFFFF0000000000000000 PUSH1 0x6 SLOAD SWAP2 PUSH1 0x40 SHL AND SWAP1 PUSH12 0xFFFFFFFF0000000000000000 NOT AND OR PUSH1 0x6 SSTORE JUMP JUMPDEST PUSH2 0xCFA PUSH1 0x64 CALLDATALOAD PUSH1 0xF SSTORE JUMP JUMPDEST PUSH2 0xB86 PUSH1 0x84 CALLDATALOAD PUSH1 0x7 SSTORE JUMP JUMPDEST ADD CALLDATALOAD SWAP1 POP CODESIZE DUP1 PUSH2 0xC91 JUMP JUMPDEST PUSH1 0x2 PUSH1 0x0 MSTORE PUSH32 0x405787FA12A823E0F2B7631CC41B3BA8828B3321CA811111FA75CD3AA3BB5ACE SWAP2 PUSH1 0x1F NOT DUP5 AND DUP2 JUMPDEST DUP2 DUP2 LT PUSH2 0xD9C JUMPI POP SWAP3 PUSH1 0x1 SWAP3 DUP6 SWAP3 PUSH2 0xCC4 SWAP7 PUSH2 0xCEF SWAP10 SWAP7 LT PUSH2 0xD82 JUMPI JUMPDEST POP POP POP DUP2 SHL ADD PUSH1 0x2 SSTORE PUSH8 0xFFFFFFFFFFFFFFFF AND PUSH8 0xFFFFFFFFFFFFFFFF NOT PUSH1 0x6 SLOAD AND OR PUSH1 0x6 SSTORE JUMP JUMPDEST ADD CALLDATALOAD PUSH1 0x0 NOT PUSH1 0x3 DUP5 SWAP1 SHL PUSH1 0xF8 AND SHR NOT AND SWAP1 SSTORE CODESIZE DUP1 DUP1 PUSH2 0xD5B JUMP JUMPDEST SWAP2 SWAP4 PUSH1 0x20 PUSH1 0x1 DUP2 SWAP3 DUP8 DUP8 ADD CALLDATALOAD DUP2 SSTORE ADD SWAP6 ADD SWAP3 ADD PUSH2 0xD3E JUMP JUMPDEST CALLVALUE PUSH2 0x277 JUMPI PUSH1 0x0 CALLDATASIZE PUSH1 0x3 NOT ADD SLT PUSH2 0x277 JUMPI PUSH1 0x20 PUSH1 0x14 SLOAD PUSH1 0x40 MLOAD SWAP1 DUP2 MSTORE RETURN JUMPDEST CALLVALUE PUSH2 0x277 JUMPI PUSH1 0x0 CALLDATASIZE PUSH1 0x3 NOT ADD SLT PUSH2 0x277 JUMPI PUSH1 0x20 PUSH1 0x19 SLOAD PUSH1 0x40 MLOAD SWAP1 DUP2 MSTORE RETURN JUMPDEST CALLVALUE PUSH2 0x277 JUMPI PUSH1 0x0 DUP1 PUSH1 0x3 NOT CALLDATASIZE ADD SLT PUSH2 0xA1D JUMPI PUSH1 0x40 MLOAD SWAP1 DUP1 PUSH1 0x12 SLOAD PUSH2 0xE13 DUP2 PUSH2 0x699 JUMP JUMPDEST DUP1 DUP6 MSTORE SWAP2 PUSH1 0x1 SWAP2 DUP1 DUP4 AND SWAP1 DUP2 ISZERO PUSH2 0x9F3 JUMPI POP PUSH1 0x1 EQ PUSH2 0xE3C JUMPI PUSH2 0x911 DUP6 PUSH2 0x98C DUP2 DUP8 SUB DUP3 PUSH2 0x30D JUMP JUMPDEST SWAP3 POP PUSH1 0x12 DUP4 MSTORE PUSH32 0xBB8A6A4669BA250D26CD7A459ECA9D215F8307E33AEBE50379BC5A3617EC3444 JUMPDEST DUP3 DUP5 LT PUSH2 0xE7F JUMPI POP POP POP DUP2 ADD PUSH1 0x20 ADD PUSH2 0x98C DUP3 PUSH2 0x911 PUSH2 0x97C JUMP JUMPDEST DUP1 SLOAD PUSH1 0x20 DUP6 DUP8 ADD DUP2 ADD SWAP2 SWAP1 SWAP2 MSTORE SWAP1 SWAP4 ADD SWAP3 DUP2 ADD PUSH2 0xE64 JUMP JUMPDEST CALLVALUE PUSH2 0x277 JUMPI PUSH1 0x0 CALLDATASIZE PUSH1 0x3 NOT ADD SLT PUSH2 0x277 JUMPI PUSH1 0x20 PUSH1 0x1 PUSH1 0x1 PUSH1 0xA0 SHL SUB PUSH1 0x18 SLOAD AND PUSH1 0x40 MLOAD SWAP1 DUP2 MSTORE RETURN JUMPDEST CALLVALUE PUSH2 0x277 JUMPI PUSH1 0x0 DUP1 PUSH1 0x3 NOT CALLDATASIZE ADD SLT PUSH2 0xA1D JUMPI PUSH1 0x40 MLOAD SWAP1 DUP1 PUSH1 0x2 SLOAD PUSH2 0xEE1 DUP2 PUSH2 0x699 JUMP JUMPDEST DUP1 DUP6 MSTORE SWAP2 PUSH1 0x1 SWAP2 DUP1 DUP4 AND SWAP1 DUP2 ISZERO PUSH2 0x9F3 JUMPI POP PUSH1 0x1 EQ PUSH2 0xF0A JUMPI PUSH2 0x911 DUP6 PUSH2 0x98C DUP2 DUP8 SUB DUP3 PUSH2 0x30D JUMP JUMPDEST SWAP3 POP PUSH1 0x2 DUP4 MSTORE PUSH32 0x405787FA12A823E0F2B7631CC41B3BA8828B3321CA811111FA75CD3AA3BB5ACE JUMPDEST DUP3 DUP5 LT PUSH2 0xF4D JUMPI POP POP POP DUP2 ADD PUSH1 0x20 ADD PUSH2 0x98C DUP3 PUSH2 0x911 PUSH2 0x97C JUMP JUMPDEST DUP1 SLOAD PUSH1 0x20 DUP6 DUP8 ADD DUP2 ADD SWAP2 SWAP1 SWAP2 MSTORE SWAP1 SWAP4 ADD SWAP3 DUP2 ADD PUSH2 0xF32 JUMP JUMPDEST CALLVALUE PUSH2 0x277 JUMPI PUSH1 0x20 CALLDATASIZE PUSH1 0x3 NOT ADD SLT PUSH2 0x277 JUMPI PUSH1 0x4 CALLDATALOAD PUSH8 0xFFFFFFFFFFFFFFFF DUP2 GT PUSH2 0x277 JUMPI PUSH2 0xF96 SWAP1 CALLDATASIZE SWAP1 PUSH1 0x4 ADD PUSH2 0x34B JUMP JUMPDEST POP PUSH1 0x8 SLOAD TIMESTAMP SUB TIMESTAMP DUP2 GT PUSH2 0xFD9 JUMPI PUSH1 0x7 SLOAD LT PUSH1 0x40 MLOAD SWAP1 DUP2 MSTORE PUSH1 0x40 PUSH1 0x20 DUP3 ADD MSTORE PUSH1 0x60 DUP2 DUP2 MLOAD DUP1 PUSH1 0x40 DUP4 ADD MSTORE PUSH2 0xFCB DUP2 DUP5 DUP5 ADD PUSH2 0x835 JUMP JUMPDEST PUSH1 0x1F ADD PUSH1 0x1F NOT AND DUP2 ADD SUB ADD SWAP1 RETURN JUMPDEST PUSH2 0x167E JUMP JUMPDEST CALLVALUE PUSH2 0x277 JUMPI PUSH1 0x0 CALLDATASIZE PUSH1 0x3 NOT ADD SLT PUSH2 0x277 JUMPI PUSH1 0x20 PUSH1 0xF SLOAD PUSH1 0x40 MLOAD SWAP1 DUP2 MSTORE RETURN JUMPDEST CALLVALUE PUSH2 0x277 JUMPI PUSH1 0x0 DUP1 PUSH1 0x3 NOT CALLDATASIZE ADD SLT PUSH2 0xA1D JUMPI PUSH1 0x1 PUSH1 0x1 PUSH1 0xA0 SHL SUB DUP1 PUSH1 0x1 SLOAD AND CALLER SUB PUSH2 0x1098 JUMPI DUP2 SLOAD PUSH1 0x1 PUSH1 0x1 PUSH1 0xA0 SHL SUB AND PUSH1 0x0 DUP1 SLOAD PUSH20 0xFFFFFFFFFFFFFFFFFFFFFFFFFFFFFFFFFFFFFFFF NOT AND CALLER OR SWAP1 SSTORE SWAP1 PUSH2 0x106E PUSH20 0xFFFFFFFFFFFFFFFFFFFFFFFFFFFFFFFFFFFFFFFF NOT PUSH1 0x1 SLOAD AND PUSH1 0x1 SSTORE JUMP JUMPDEST CALLER SWAP2 AND PUSH32 0x8BE0079C531659141344CD1FD0A4F28419497F9722A3DAAFE3B4186F6B6457E0 DUP4 DUP1 LOG3 DUP1 RETURN JUMPDEST PUSH1 0x64 PUSH1 0x40 MLOAD PUSH3 0x461BCD PUSH1 0xE5 SHL DUP2 MSTORE PUSH1 0x20 PUSH1 0x4 DUP3 ADD MSTORE PUSH1 0x16 PUSH1 0x24 DUP3 ADD MSTORE PUSH32 0x4D7573742062652070726F706F736564206F776E657200000000000000000000 PUSH1 0x44 DUP3 ADD MSTORE REVERT JUMPDEST CALLVALUE PUSH2 0x277 JUMPI PUSH1 0x0 CALLDATASIZE PUSH1 0x3 NOT ADD SLT PUSH2 0x277 JUMPI PUSH1 0x20 PUSH1 0x40 MLOAD PUSH1 0x1 PUSH1 0x1 PUSH1 0xA0 SHL SUB PUSH32 0x0 AND DUP2 MSTORE RETURN JUMPDEST CALLVALUE PUSH2 0x277 JUMPI PUSH1 0x0 CALLDATASIZE PUSH1 0x3 NOT ADD SLT PUSH2 0x277 JUMPI PUSH1 0x20 SELFBALANCE PUSH1 0x40 MLOAD SWAP1 DUP2 MSTORE RETURN JUMPDEST CALLVALUE PUSH2 0x277 JUMPI PUSH1 0x0 CALLDATASIZE PUSH1 0x3 NOT ADD SLT PUSH2 0x277 JUMPI PUSH1 0x20 PUSH1 0x1 PUSH1 0x1 PUSH1 0xA0 SHL SUB PUSH1 0x0 SLOAD AND PUSH1 0x40 MLOAD SWAP1 DUP2 MSTORE RETURN JUMPDEST CALLVALUE PUSH2 0x277 JUMPI PUSH1 0x0 CALLDATASIZE PUSH1 0x3 NOT ADD SLT PUSH2 0x277 JUMPI PUSH1 0x20 PUSH1 0x1A SLOAD PUSH1 0x40 MLOAD SWAP1 DUP2 MSTORE RETURN JUMPDEST CALLVALUE PUSH2 0x277 JUMPI PUSH1 0x0 CALLDATASIZE PUSH1 0x3 NOT ADD SLT PUSH2 0x277 JUMPI PUSH1 0x20 PUSH1 0x9 SLOAD PUSH1 0x40 MLOAD SWAP1 DUP2 MSTORE RETURN JUMPDEST CALLVALUE PUSH2 0x277 JUMPI PUSH1 0x0 CALLDATASIZE PUSH1 0x3 NOT ADD SLT PUSH2 0x277 JUMPI PUSH1 0x20 PUSH1 0x10 SLOAD PUSH1 0x40 MLOAD SWAP1 DUP2 MSTORE RETURN JUMPDEST CALLVALUE PUSH2 0x277 JUMPI PUSH1 0x0 DUP1 PUSH1 0x3 NOT CALLDATASIZE ADD SLT PUSH2 0xA1D JUMPI PUSH1 0x40 MLOAD SWAP1 DUP1 PUSH1 0x4 SLOAD PUSH2 0x11E0 DUP2 PUSH2 0x699 JUMP JUMPDEST DUP1 DUP6 MSTORE SWAP2 PUSH1 0x1 SWAP2 DUP1 DUP4 AND SWAP1 DUP2 ISZERO PUSH2 0x9F3 JUMPI POP PUSH1 0x1 EQ PUSH2 0x1209 JUMPI PUSH2 0x911 DUP6 PUSH2 0x98C DUP2 DUP8 SUB DUP3 PUSH2 0x30D JUMP JUMPDEST SWAP3 POP PUSH1 0x4 DUP4 MSTORE PUSH32 0x8A35ACFBC15FF81A39AE7D344FD709F28E8600B4AA8C65C6B64BFE7FE36BD19B JUMPDEST DUP3 DUP5 LT PUSH2 0x124C JUMPI POP POP POP DUP2 ADD PUSH1 0x20 ADD PUSH2 0x98C DUP3 PUSH2 0x911 PUSH2 0x97C JUMP JUMPDEST DUP1 SLOAD PUSH1 0x20 DUP6 DUP8 ADD DUP2 ADD SWAP2 SWAP1 SWAP2 MSTORE SWAP1 SWAP4 ADD SWAP3 DUP2 ADD PUSH2 0x1231 JUMP JUMPDEST CALLVALUE PUSH2 0x277 JUMPI PUSH1 0x0 CALLDATASIZE PUSH1 0x3 NOT ADD SLT PUSH2 0x277 JUMPI PUSH1 0x20 PUSH1 0x1 PUSH1 0x1 PUSH1 0xA0 SHL SUB PUSH1 0x16 SLOAD AND PUSH1 0x40 MLOAD SWAP1 DUP2 MSTORE RETURN JUMPDEST CALLVALUE PUSH2 0x277 JUMPI PUSH1 0x0 CALLDATASIZE PUSH1 0x3 NOT ADD SLT PUSH2 0x277 JUMPI PUSH1 0x20 PUSH1 0xC SLOAD PUSH1 0x40 MLOAD SWAP1 DUP2 MSTORE RETURN JUMPDEST CALLVALUE PUSH2 0x277 JUMPI PUSH1 0x0 CALLDATASIZE PUSH1 0x3 NOT ADD SLT PUSH2 0x277 JUMPI PUSH1 0x20 PUSH1 0x1 PUSH1 0x1 PUSH1 0xA0 SHL SUB PUSH1 0x17 SLOAD AND PUSH1 0x40 MLOAD SWAP1 DUP2 MSTORE RETURN JUMPDEST CALLVALUE PUSH2 0x277 JUMPI PUSH1 0x0 CALLDATASIZE PUSH1 0x3 NOT ADD SLT PUSH2 0x277 JUMPI PUSH1 0x20 PUSH1 0x1B SLOAD PUSH1 0x40 MLOAD SWAP1 DUP2 MSTORE RETURN JUMPDEST CALLVALUE PUSH2 0x277 JUMPI PUSH1 0x20 CALLDATASIZE PUSH1 0x3 NOT ADD SLT PUSH2 0x277 JUMPI PUSH1 0x4 CALLDATALOAD PUSH1 0x1 PUSH1 0x1 PUSH1 0xA0 SHL SUB DUP2 AND DUP1 SWAP2 SUB PUSH2 0x277 JUMPI PUSH2 0x131B PUSH2 0x14C8 JUMP JUMPDEST CALLER DUP2 EQ PUSH2 0x137D JUMPI DUP1 PUSH20 0xFFFFFFFFFFFFFFFFFFFFFFFFFFFFFFFFFFFFFFFF NOT PUSH1 0x1 SLOAD AND OR PUSH1 0x1 SSTORE PUSH2 0x1356 PUSH2 0xBE9 PUSH1 0x0 SLOAD PUSH1 0x1 PUSH1 0x1 PUSH1 0xA0 SHL SUB AND SWAP1 JUMP JUMPDEST PUSH32 0xED8889F560326EB138920D842192F0EB3DD22B4F139C87A2C57538E05BAE1278 PUSH1 0x0 DUP1 LOG3 STOP JUMPDEST PUSH1 0x64 PUSH1 0x40 MLOAD PUSH3 0x461BCD PUSH1 0xE5 SHL DUP2 MSTORE PUSH1 0x20 PUSH1 0x4 DUP3 ADD MSTORE PUSH1 0x17 PUSH1 0x24 DUP3 ADD MSTORE PUSH32 0x43616E6E6F74207472616E7366657220746F2073656C66000000000000000000 PUSH1 0x44 DUP3 ADD MSTORE REVERT JUMPDEST CALLVALUE PUSH2 0x277 JUMPI PUSH1 0x0 CALLDATASIZE PUSH1 0x3 NOT ADD SLT PUSH2 0x277 JUMPI PUSH1 0x20 PUSH1 0x13 SLOAD PUSH1 0x40 MLOAD SWAP1 DUP2 MSTORE RETURN JUMPDEST CALLVALUE PUSH2 0x277 JUMPI PUSH1 0x0 CALLDATASIZE PUSH1 0x3 NOT ADD SLT PUSH2 0x277 JUMPI PUSH1 0x20 PUSH4 0xFFFFFFFF PUSH1 0xE SLOAD AND PUSH1 0x40 MLOAD SWAP1 DUP2 MSTORE RETURN JUMPDEST CALLVALUE PUSH2 0x277 JUMPI PUSH1 0x0 CALLDATASIZE PUSH1 0x3 NOT ADD SLT PUSH2 0x277 JUMPI PUSH1 0x20 PUSH1 0x7 SLOAD PUSH1 0x40 MLOAD SWAP1 DUP2 MSTORE RETURN JUMPDEST CALLVALUE PUSH2 0x277 JUMPI PUSH1 0x0 DUP1 PUSH1 0x3 NOT CALLDATASIZE ADD SLT PUSH2 0xA1D JUMPI PUSH1 0x40 MLOAD SWAP1 DUP1 PUSH1 0x5 SLOAD PUSH2 0x1444 DUP2 PUSH2 0x699 JUMP JUMPDEST DUP1 DUP6 MSTORE SWAP2 PUSH1 0x1 SWAP2 DUP1 DUP4 AND SWAP1 DUP2 ISZERO PUSH2 0x9F3 JUMPI POP PUSH1 0x1 EQ PUSH2 0x146D JUMPI PUSH2 0x911 DUP6 PUSH2 0x98C DUP2 DUP8 SUB DUP3 PUSH2 0x30D JUMP JUMPDEST SWAP3 POP PUSH1 0x5 DUP4 MSTORE PUSH32 0x36B6384B5ECA791C62761152D0C79BB0604C104A5FB6F4EB0703F3154BB3DB0 JUMPDEST DUP3 DUP5 LT PUSH2 0x14B0 JUMPI POP POP POP DUP2 ADD PUSH1 0x20 ADD PUSH2 0x98C DUP3 PUSH2 0x911 PUSH2 0x97C JUMP JUMPDEST DUP1 SLOAD PUSH1 0x20 DUP6 DUP8 ADD DUP2 ADD SWAP2 SWAP1 SWAP2 MSTORE SWAP1 SWAP4 ADD SWAP3 DUP2 ADD PUSH2 0x1495 JUMP JUMPDEST PUSH1 0x1 PUSH1 0x1 PUSH1 0xA0 SHL SUB PUSH1 0x0 SLOAD AND CALLER SUB PUSH2 0x14DC JUMPI JUMP JUMPDEST PUSH1 0x64 PUSH1 0x40 MLOAD PUSH3 0x461BCD PUSH1 0xE5 SHL DUP2 MSTORE PUSH1 0x20 PUSH1 0x4 DUP3 ADD MSTORE PUSH1 0x16 PUSH1 0x24 DUP3 ADD MSTORE PUSH32 0x4F6E6C792063616C6C61626C65206279206F776E657200000000000000000000 PUSH1 0x44 DUP3 ADD MSTORE REVERT JUMPDEST DUP2 DUP2 LT PUSH2 0x152B JUMPI POP POP JUMP JUMPDEST PUSH1 0x0 DUP2 SSTORE PUSH1 0x1 ADD PUSH2 0x1520 JUMP JUMPDEST SWAP1 PUSH1 0x1F DUP3 GT PUSH2 0x1544 JUMPI POP POP JUMP JUMPDEST PUSH2 0x70E SWAP2 PUSH1 0x4 PUSH1 0x0 MSTORE PUSH32 0x8A35ACFBC15FF81A39AE7D344FD709F28E8600B4AA8C65C6B64BFE7FE36BD19B SWAP1 PUSH1 0x20 PUSH1 0x1F DUP5 ADD PUSH1 0x5 SHR DUP4 ADD SWAP4 LT PUSH2 0x158E JUMPI JUMPDEST PUSH1 0x1F ADD PUSH1 0x5 SHR ADD SWAP1 PUSH2 0x1520 JUMP JUMPDEST SWAP1 SWAP2 POP DUP2 SWAP1 PUSH2 0x1581 JUMP JUMPDEST SWAP1 PUSH1 0x1F DUP3 GT PUSH2 0x15A5 JUMPI POP POP JUMP JUMPDEST PUSH2 0x70E SWAP2 PUSH1 0x2 PUSH1 0x0 MSTORE PUSH32 0x405787FA12A823E0F2B7631CC41B3BA8828B3321CA811111FA75CD3AA3BB5ACE SWAP1 PUSH1 0x20 PUSH1 0x1F DUP5 ADD PUSH1 0x5 SHR DUP4 ADD SWAP4 LT PUSH2 0x158E JUMPI PUSH1 0x1F ADD PUSH1 0x5 SHR ADD SWAP1 PUSH2 0x1520 JUMP JUMPDEST SWAP1 PUSH1 0x1F DUP3 GT PUSH2 0x15FB JUMPI POP POP JUMP JUMPDEST PUSH2 0x70E SWAP2 PUSH1 0x5 PUSH1 0x0 MSTORE PUSH32 0x36B6384B5ECA791C62761152D0C79BB0604C104A5FB6F4EB0703F3154BB3DB0 SWAP1 PUSH1 0x20 PUSH1 0x1F DUP5 ADD PUSH1 0x5 SHR DUP4 ADD SWAP4 LT PUSH2 0x158E JUMPI PUSH1 0x1F ADD PUSH1 0x5 SHR ADD SWAP1 PUSH2 0x1520 JUMP JUMPDEST SWAP2 SWAP1 PUSH1 0x1F DUP2 GT PUSH2 0x1653 JUMPI POP POP POP JUMP JUMPDEST PUSH2 0x70E SWAP3 PUSH1 0x0 MSTORE PUSH1 0x20 PUSH1 0x0 KECCAK256 SWAP1 PUSH1 0x20 PUSH1 0x1F DUP5 ADD PUSH1 0x5 SHR DUP4 ADD SWAP4 LT PUSH2 0x158E JUMPI PUSH1 0x1F ADD PUSH1 0x5 SHR ADD SWAP1 PUSH2 0x1520 JUMP JUMPDEST PUSH4 0x4E487B71 PUSH1 0xE0 SHL PUSH1 0x0 MSTORE PUSH1 0x11 PUSH1 0x4 MSTORE PUSH1 0x24 PUSH1 0x0 REVERT JUMPDEST PUSH1 0x1F NOT DUP2 ADD SWAP2 SWAP1 DUP3 GT PUSH2 0xFD9 JUMPI JUMP JUMPDEST PUSH1 0x60 PUSH1 0x8 SLOAD TIMESTAMP SUB TIMESTAMP DUP2 GT PUSH2 0xFD9 JUMPI PUSH1 0x7 SLOAD LT SWAP2 JUMP JUMPDEST PUSH1 0x40 MLOAD SWAP1 PUSH1 0x20 DUP3 ADD DUP3 DUP2 LT PUSH8 0xFFFFFFFFFFFFFFFF DUP3 GT OR PUSH2 0x2EC JUMPI PUSH1 0x40 MSTORE PUSH1 0x0 DUP3 MSTORE JUMP JUMPDEST ISZERO PUSH2 0x16E3 JUMPI JUMP JUMPDEST PUSH1 0x64 PUSH1 0x40 MLOAD PUSH3 0x461BCD PUSH1 0xE5 SHL DUP2 MSTORE PUSH1 0x20 PUSH1 0x4 DUP3 ADD MSTORE PUSH1 0x15 PUSH1 0x24 DUP3 ADD MSTORE PUSH32 0x54696D6520696E74657276616C206E6F74206D65740000000000000000000000 PUSH1 0x44 DUP3 ADD MSTORE REVERT JUMPDEST SWAP1 PUSH1 0x1 DUP3 ADD DUP1 SWAP3 GT PUSH2 0xFD9 JUMPI JUMP JUMPDEST SWAP1 PUSH1 0x20 DUP3 ADD DUP1 SWAP3 GT PUSH2 0xFD9 JUMPI JUMP JUMPDEST SWAP2 SWAP1 DUP3 ADD DUP1 SWAP3 GT PUSH2 0xFD9 JUMPI JUMP JUMPDEST ISZERO PUSH2 0x1757 JUMPI JUMP JUMPDEST PUSH1 0x64 PUSH1 0x40 MLOAD PUSH3 0x461BCD PUSH1 0xE5 SHL DUP2 MSTORE PUSH1 0x20 PUSH1 0x4 DUP3 ADD MSTORE PUSH1 0x15 PUSH1 0x24 DUP3 ADD MSTORE PUSH32 0x55706B656570206E6F7420726567697374657265640000000000000000000000 PUSH1 0x44 DUP3 ADD MSTORE REVERT JUMPDEST PUSH1 0x40 MLOAD SWAP1 PUSH1 0xE0 DUP3 ADD DUP3 DUP2 LT PUSH8 0xFFFFFFFFFFFFFFFF DUP3 GT OR PUSH2 0x2EC JUMPI PUSH1 0x40 MSTORE PUSH1 0x60 PUSH1 0xC0 DUP4 PUSH1 0x0 DUP2 MSTORE PUSH1 0x0 PUSH1 0x20 DUP3 ADD MSTORE PUSH1 0x0 PUSH1 0x40 DUP3 ADD MSTORE DUP3 DUP1 DUP3 ADD MSTORE DUP3 PUSH1 0x80 DUP3 ADD MSTORE DUP3 PUSH1 0xA0 DUP3 ADD MSTORE ADD MSTORE JUMP JUMPDEST PUSH1 0x1C SLOAD SWAP1 PUSH8 0xFFFFFFFFFFFFFFFF DUP3 GT PUSH2 0x2EC JUMPI PUSH1 0x40 MLOAD SWAP2 PUSH1 0x20 PUSH2 0x180D DUP2 DUP4 PUSH1 0x5 SHL ADD DUP6 PUSH2 0x30D JUMP JUMPDEST DUP2 DUP5 MSTORE DUP1 DUP5 ADD SWAP1 PUSH1 0x1C PUSH1 0x0 MSTORE PUSH32 0xE4562A10381DEC21B205ED72637E6B1B523BDD0E4D4D50AF5CD23DD4500A211 PUSH1 0x0 SWAP3 JUMPDEST DUP5 DUP5 LT PUSH2 0x184C JUMPI POP POP POP POP POP JUMP JUMPDEST PUSH1 0x1 DUP4 DUP2 SWAP3 PUSH2 0x185A DUP6 PUSH2 0x791 JUMP JUMPDEST DUP2 MSTORE ADD SWAP3 ADD SWAP4 ADD SWAP3 SWAP1 PUSH2 0x183E JUMP JUMPDEST SWAP1 DUP2 PUSH1 0x20 SWAP2 SUB SLT PUSH2 0x277 JUMPI MLOAD SWAP1 JUMP JUMPDEST SWAP1 PUSH2 0x18A5 PUSH1 0x80 SWAP4 PUSH8 0xFFFFFFFFFFFFFFFF PUSH4 0xFFFFFFFF SWAP4 SWAP9 SWAP8 SWAP7 SWAP9 AND DUP5 MSTORE PUSH1 0xA0 PUSH1 0x20 DUP6 ADD MSTORE PUSH1 0xA0 DUP5 ADD SWAP1 PUSH2 0x858 JUMP JUMPDEST SWAP6 PUSH1 0x1 PUSH1 0x40 DUP5 ADD MSTORE AND PUSH1 0x60 DUP3 ADD MSTORE ADD MSTORE JUMP JUMPDEST PUSH1 0x40 MLOAD RETURNDATASIZE PUSH1 0x0 DUP3 RETURNDATACOPY RETURNDATASIZE SWAP1 REVERT JUMPDEST PUSH1 0x0 SWAP1 PUSH1 0x3 RETURNDATASIZE GT PUSH2 0x18D0 JUMPI JUMP JUMPDEST SWAP1 POP PUSH1 0x4 PUSH1 0x0 DUP1 RETURNDATACOPY PUSH1 0x0 MLOAD PUSH1 0xE0 SHR SWAP1 JUMP JUMPDEST PUSH1 0x0 PUSH1 0x44 RETURNDATASIZE LT PUSH2 0x8A9 JUMPI PUSH1 0x40 MLOAD PUSH1 0x3 NOT SWAP2 RETURNDATASIZE DUP4 ADD PUSH1 0x4 DUP4 RETURNDATACOPY DUP2 MLOAD PUSH8 0xFFFFFFFFFFFFFFFF SWAP2 DUP3 DUP3 GT RETURNDATASIZE PUSH1 0x24 DUP5 ADD GT OR PUSH2 0x193F JUMPI DUP2 DUP5 ADD SWAP5 DUP6 MLOAD SWAP4 DUP5 GT PUSH2 0x1947 JUMPI RETURNDATASIZE DUP6 ADD ADD PUSH1 0x20 DUP5 DUP8 ADD ADD GT PUSH2 0x193F JUMPI POP PUSH2 0x8A9 SWAP3 SWAP2 ADD PUSH1 0x20 ADD SWAP1 PUSH2 0x30D JUMP JUMPDEST SWAP5 SWAP4 POP POP POP POP JUMP JUMPDEST POP SWAP5 SWAP4 POP POP POP POP JUMP JUMPDEST RETURNDATASIZE ISZERO PUSH2 0x197B JUMPI RETURNDATASIZE SWAP1 PUSH2 0x1961 DUP3 PUSH2 0x32F JUMP JUMPDEST SWAP2 PUSH2 0x196F PUSH1 0x40 MLOAD SWAP4 DUP5 PUSH2 0x30D JUMP JUMPDEST DUP3 MSTORE RETURNDATASIZE PUSH1 0x0 PUSH1 0x20 DUP5 ADD RETURNDATACOPY JUMP JUMPDEST PUSH1 0x60 SWAP1 JUMP JUMPDEST SWAP1 PUSH8 0xFFFFFFFFFFFFFFFF SWAP1 SWAP5 SWAP4 SWAP3 SWAP5 AND DUP2 MSTORE PUSH1 0x20 SWAP4 PUSH1 0xA0 DUP6 DUP4 ADD MSTORE PUSH1 0x0 PUSH1 0x2 SLOAD SWAP6 PUSH2 0x19AA DUP8 PUSH2 0x699 JUMP JUMPDEST SWAP1 DUP2 PUSH1 0xA0 DUP7 ADD MSTORE PUSH1 0x1 SWAP8 DUP9 DUP2 AND SWAP1 DUP2 PUSH1 0x0 EQ PUSH2 0x1A40 JUMPI POP PUSH1 0x1 EQ PUSH2 0x19E4 JUMPI JUMPDEST POP POP PUSH1 0x40 DUP4 ADD SWAP6 SWAP1 SWAP6 MSTORE PUSH4 0xFFFFFFFF AND PUSH1 0x60 DUP3 ADD MSTORE PUSH1 0x80 ADD MSTORE JUMP JUMPDEST PUSH1 0x2 PUSH1 0x0 SWAP1 DUP2 MSTORE SWAP3 POP DUP8 PUSH32 0x405787FA12A823E0F2B7631CC41B3BA8828B3321CA811111FA75CD3AA3BB5ACE JUMPDEST DUP4 DUP6 LT PUSH2 0x1A2B JUMPI POP POP POP POP DUP3 ADD PUSH1 0xC0 ADD DUP2 PUSH4 0xFFFFFFFF PUSH2 0x19C9 JUMP JUMPDEST DUP1 SLOAD DUP8 DUP7 ADD PUSH1 0xC0 ADD MSTORE SWAP4 DUP3 ADD SWAP4 DUP10 SWAP2 ADD PUSH2 0x1A10 JUMP JUMPDEST PUSH1 0xFF NOT AND PUSH1 0xC0 DUP8 DUP2 ADD SWAP2 SWAP1 SWAP2 MSTORE SWAP3 ISZERO ISZERO PUSH1 0x5 SHL DUP7 ADD SWAP1 SWAP3 ADD SWAP3 POP DUP4 SWAP2 POP PUSH4 0xFFFFFFFF SWAP1 POP PUSH2 0x19C9 JUMP JUMPDEST PUSH2 0x1A71 PUSH2 0x16B8 JUMP JUMPDEST POP PUSH2 0x1A83 PUSH2 0x1A7D PUSH2 0x16A3 JUMP JUMPDEST POP PUSH2 0x16DC JUMP JUMPDEST PUSH2 0x1A8C TIMESTAMP PUSH1 0x8 SSTORE JUMP JUMPDEST PUSH2 0x1A9F PUSH2 0x1A9A PUSH1 0x9 SLOAD PUSH2 0x1727 JUMP JUMPDEST PUSH1 0x9 SSTORE JUMP JUMPDEST PUSH1 0x1B SLOAD PUSH1 0x1C SLOAD LT ISZERO PUSH2 0x1C4E JUMPI PUSH2 0x1ABE PUSH2 0x1AB9 PUSH1 0x13 SLOAD PUSH2 0x1727 JUMP JUMPDEST PUSH1 0x13 SSTORE JUMP JUMPDEST PUSH1 0x6 SLOAD PUSH8 0xFFFFFFFFFFFFFFFF AND PUSH1 0x20 PUSH2 0x1ADC PUSH1 0xE SLOAD PUSH4 0xFFFFFFFF AND SWAP1 JUMP JUMPDEST PUSH1 0xF SLOAD SWAP3 PUSH2 0x1AFE PUSH1 0x40 MLOAD SWAP5 DUP6 SWAP4 DUP5 SWAP4 PUSH4 0x230E93B1 PUSH1 0xE1 SHL DUP6 MSTORE PUSH1 0x4 DUP6 ADD PUSH2 0x1980 JUMP JUMPDEST SUB DUP2 PUSH1 0x0 PUSH1 0x1 PUSH1 0x1 PUSH1 0xA0 SHL SUB PUSH32 0x0 AND GAS CALL PUSH1 0x0 SWAP2 DUP2 PUSH2 0x1C1E JUMPI JUMPDEST POP PUSH2 0x1BDB JUMPI POP PUSH1 0x1 PUSH2 0x1B47 PUSH2 0x18C3 JUMP JUMPDEST PUSH4 0x8C379A0 EQ PUSH2 0x1B89 JUMPI JUMPDEST PUSH2 0x1B58 JUMPI JUMP JUMPDEST PUSH32 0x9C4BFA18304482256875C29FABB1A44A5ECD325F214EA17BAB8F31E869FAF4C8 PUSH2 0x1B84 PUSH2 0x98C PUSH2 0x1950 JUMP JUMPDEST SUB SWAP1 LOG1 JUMP JUMPDEST PUSH2 0x1B91 PUSH2 0x18E1 JUMP JUMPDEST DUP1 PUSH2 0x1B9D JUMPI JUMPDEST POP PUSH2 0x1B52 JUMP JUMPDEST SWAP1 POP PUSH32 0x2BA61E3733E7AC99181C22307780F651EC8FD92FE661A84DFBE711710B2DC36C PUSH2 0x1BD2 PUSH1 0x0 SWAP3 PUSH1 0x40 MLOAD SWAP2 DUP3 SWAP2 DUP3 PUSH2 0x898 JUMP JUMPDEST SUB SWAP1 LOG1 CODESIZE PUSH2 0x1B97 JUMP JUMPDEST PUSH2 0x1BE4 DUP2 PUSH1 0x10 SSTORE JUMP JUMPDEST PUSH2 0x1BF7 PUSH2 0x1BF2 PUSH1 0x14 SLOAD PUSH2 0x1727 JUMP JUMPDEST PUSH1 0x14 SSTORE JUMP JUMPDEST PUSH32 0x1131472297A800FEE664D1D89CFA8F7676FF07189ECC53F80BBB5F4969099DB8 PUSH1 0x0 DUP1 LOG2 JUMP JUMPDEST PUSH2 0x1C40 SWAP2 SWAP3 POP PUSH1 0x20 RETURNDATASIZE DUP2 GT PUSH2 0x1C47 JUMPI JUMPDEST PUSH2 0x1C38 DUP2 DUP4 PUSH2 0x30D JUMP JUMPDEST DUP2 ADD SWAP1 PUSH2 0x1868 JUMP JUMPDEST SWAP1 CODESIZE PUSH2 0x1B37 JUMP JUMPDEST POP RETURNDATASIZE PUSH2 0x1C2E JUMP JUMPDEST PUSH2 0x1C5B PUSH1 0xC SLOAD ISZERO ISZERO PUSH2 0x1750 JUMP JUMPDEST PUSH2 0x1C6D PUSH1 0x1 PUSH1 0xFF NOT PUSH1 0xB SLOAD AND OR PUSH1 0xB SSTORE JUMP JUMPDEST PUSH2 0x1C9F PUSH2 0x1C78 PUSH2 0x179B JUMP JUMPDEST PUSH2 0x1C89 PUSH2 0x1C83 PUSH2 0x6D3 JUMP JUMPDEST DUP3 PUSH2 0x228A JUMP JUMPDEST PUSH2 0x1C9A PUSH2 0x1C94 PUSH2 0x17E5 JUMP JUMPDEST DUP3 PUSH2 0x22CB JUMP JUMPDEST PUSH2 0x209F JUMP JUMPDEST PUSH2 0x1CAD PUSH2 0x1AB9 PUSH1 0x13 SLOAD PUSH2 0x1727 JUMP JUMPDEST PUSH1 0x6 SLOAD PUSH8 0xFFFFFFFFFFFFFFFF AND PUSH2 0x1CE9 PUSH2 0x1CCC PUSH1 0xE SLOAD PUSH4 0xFFFFFFFF AND SWAP1 JUMP JUMPDEST PUSH1 0xF SLOAD SWAP1 PUSH1 0x40 MLOAD SWAP5 DUP6 SWAP5 PUSH4 0x230E93B1 PUSH1 0xE1 SHL DUP7 MSTORE PUSH1 0x4 DUP7 ADD PUSH2 0x1877 JUMP JUMPDEST SUB PUSH1 0x0 SWAP2 PUSH1 0x20 DUP2 PUSH1 0x1 PUSH1 0x1 PUSH1 0xA0 SHL SUB SWAP4 DUP2 DUP7 DUP7 PUSH32 0x0 AND GAS CALL DUP4 SWAP2 DUP2 PUSH2 0x1E9E JUMPI JUMPDEST POP PUSH2 0x1E5E JUMPI POP PUSH1 0x1 PUSH2 0x1D38 PUSH2 0x18C3 JUMP JUMPDEST PUSH4 0x8C379A0 EQ PUSH2 0x1E0D JUMPI JUMPDEST PUSH2 0x1DD9 JUMPI JUMPDEST PUSH32 0x0 AND PUSH1 0xC SLOAD DUP2 EXTCODESIZE ISZERO PUSH2 0x1DD5 JUMPI PUSH1 0x40 MLOAD PUSH32 0x8765ECBE00000000000000000000000000000000000000000000000000000000 DUP2 MSTORE PUSH1 0x4 DUP2 ADD SWAP2 SWAP1 SWAP2 MSTORE SWAP2 SWAP1 DUP3 SWAP1 PUSH1 0x24 SWAP1 DUP3 SWAP1 DUP5 SWAP1 GAS CALL DUP1 ISZERO PUSH2 0x1DD0 JUMPI PUSH2 0x1DBD JUMPI JUMPDEST POP JUMP JUMPDEST DUP1 PUSH2 0x1DCA PUSH2 0x70E SWAP3 PUSH2 0x2D8 JUMP JUMPDEST DUP1 PUSH2 0x26C JUMP JUMPDEST PUSH2 0x18B7 JUMP JUMPDEST DUP3 DUP1 REVERT JUMPDEST PUSH32 0x9C4BFA18304482256875C29FABB1A44A5ECD325F214EA17BAB8F31E869FAF4C8 PUSH2 0x1E05 PUSH2 0x98C PUSH2 0x1950 JUMP JUMPDEST SUB SWAP1 LOG1 PUSH2 0x1D48 JUMP JUMPDEST PUSH2 0x1E15 PUSH2 0x18E1 JUMP JUMPDEST DUP1 PUSH2 0x1E21 JUMPI JUMPDEST POP PUSH2 0x1D43 JUMP JUMPDEST SWAP1 POP PUSH32 0x2BA61E3733E7AC99181C22307780F651EC8FD92FE661A84DFBE711710B2DC36C PUSH2 0x1E55 DUP5 SWAP3 PUSH1 0x40 MLOAD SWAP2 DUP3 SWAP2 DUP3 PUSH2 0x898 JUMP JUMPDEST SUB SWAP1 LOG1 CODESIZE PUSH2 0x1E1B JUMP JUMPDEST PUSH2 0x1E67 DUP2 PUSH1 0x10 SSTORE JUMP JUMPDEST PUSH2 0x1E75 PUSH2 0x1BF2 PUSH1 0x14 SLOAD PUSH2 0x1727 JUMP JUMPDEST PUSH32 0x1131472297A800FEE664D1D89CFA8F7676FF07189ECC53F80BBB5F4969099DB8 DUP4 DUP1 LOG2 PUSH2 0x1D48 JUMP JUMPDEST PUSH2 0x1EB7 SWAP2 SWAP3 POP PUSH1 0x20 RETURNDATASIZE DUP2 GT PUSH2 0x1C47 JUMPI PUSH2 0x1C38 DUP2 DUP4 PUSH2 0x30D JUMP JUMPDEST SWAP1 CODESIZE PUSH2 0x1D28 JUMP JUMPDEST PUSH1 0x40 MLOAD SWAP1 PUSH2 0x1ECB DUP3 PUSH2 0x2F1 JUMP JUMPDEST PUSH1 0xC DUP3 MSTORE PUSH32 0x636F64654C6F636174696F6E0000000000000000000000000000000000000000 PUSH1 0x20 DUP4 ADD MSTORE JUMP JUMPDEST PUSH4 0x4E487B71 PUSH1 0xE0 SHL PUSH1 0x0 MSTORE PUSH1 0x21 PUSH1 0x4 MSTORE PUSH1 0x24 PUSH1 0x0 REVERT JUMPDEST PUSH1 0x3 GT ISZERO PUSH2 0x1F17 JUMPI JUMP JUMPDEST PUSH2 0x1EF7 JUMP JUMPDEST PUSH1 0x40 MLOAD SWAP1 PUSH2 0x1F29 DUP3 PUSH2 0x2F1 JUMP JUMPDEST PUSH1 0x8 DUP3 MSTORE PUSH32 0x6C616E6775616765000000000000000000000000000000000000000000000000 PUSH1 0x20 DUP4 ADD MSTORE JUMP JUMPDEST PUSH1 0x1 GT ISZERO PUSH2 0x1F17 JUMPI JUMP JUMPDEST PUSH1 0x40 MLOAD SWAP1 PUSH2 0x1F6C DUP3 PUSH2 0x2F1 JUMP JUMPDEST PUSH1 0x6 DUP3 MSTORE PUSH32 0x736F757263650000000000000000000000000000000000000000000000000000 PUSH1 0x20 DUP4 ADD MSTORE JUMP JUMPDEST PUSH1 0x40 MLOAD SWAP1 PUSH2 0x1FA5 DUP3 PUSH2 0x2F1 JUMP JUMPDEST PUSH1 0x4 DUP3 MSTORE PUSH32 0x6172677300000000000000000000000000000000000000000000000000000000 PUSH1 0x20 DUP4 ADD MSTORE JUMP JUMPDEST PUSH1 0x0 NOT DUP2 EQ PUSH2 0xFD9 JUMPI PUSH1 0x1 ADD SWAP1 JUMP JUMPDEST DUP1 MLOAD DUP3 LT ISZERO PUSH2 0x67E JUMPI PUSH1 0x20 SWAP2 PUSH1 0x5 SHL ADD ADD SWAP1 JUMP JUMPDEST PUSH1 0x40 MLOAD SWAP1 PUSH2 0x2001 DUP3 PUSH2 0x2F1 JUMP JUMPDEST PUSH1 0xF DUP3 MSTORE PUSH32 0x736563726574734C6F636174696F6E0000000000000000000000000000000000 PUSH1 0x20 DUP4 ADD MSTORE JUMP JUMPDEST PUSH1 0x40 MLOAD SWAP1 PUSH2 0x203A DUP3 PUSH2 0x2F1 JUMP JUMPDEST PUSH1 0x7 DUP3 MSTORE PUSH32 0x7365637265747300000000000000000000000000000000000000000000000000 PUSH1 0x20 DUP4 ADD MSTORE JUMP JUMPDEST PUSH1 0x40 MLOAD SWAP1 PUSH2 0x2073 DUP3 PUSH2 0x2F1 JUMP JUMPDEST PUSH1 0x9 DUP3 MSTORE PUSH32 0x6279746573417267730000000000000000000000000000000000000000000000 PUSH1 0x20 DUP4 ADD MSTORE JUMP JUMPDEST PUSH2 0x20A7 PUSH2 0x231C JUMP JUMPDEST SWAP1 PUSH2 0x20B9 PUSH2 0x20B3 PUSH2 0x1EBE JUMP JUMPDEST DUP4 PUSH2 0x2A48 JUMP JUMPDEST PUSH2 0x20D6 DUP2 MLOAD PUSH2 0x20C7 DUP2 PUSH2 0x1F0D JUMP JUMPDEST PUSH2 0x20D0 DUP2 PUSH2 0x1F0D JUMP JUMPDEST DUP4 PUSH2 0x23BE JUMP JUMPDEST PUSH2 0x20E1 PUSH2 0x20B3 PUSH2 0x1F1C JUMP JUMPDEST PUSH2 0x20FB PUSH1 0x40 DUP3 ADD MLOAD PUSH2 0x20F2 DUP2 PUSH2 0x1F55 JUMP JUMPDEST PUSH2 0x20D0 DUP2 PUSH2 0x1F55 JUMP JUMPDEST PUSH2 0x2106 PUSH2 0x20B3 PUSH2 0x1F5F JUMP JUMPDEST PUSH2 0x2114 PUSH1 0x60 DUP3 ADD MLOAD DUP4 PUSH2 0x2A48 JUMP JUMPDEST PUSH1 0xA0 DUP2 ADD DUP1 MLOAD MLOAD PUSH2 0x2231 JUMPI JUMPDEST POP PUSH1 0x80 DUP2 ADD SWAP1 DUP2 MLOAD MLOAD PUSH2 0x2199 JUMPI JUMPDEST PUSH1 0xC0 SWAP2 POP ADD DUP1 MLOAD MLOAD PUSH2 0x2141 JUMPI JUMPDEST POP MLOAD MLOAD SWAP1 JUMP JUMPDEST SWAP2 PUSH2 0x214D PUSH2 0x20B3 PUSH2 0x2066 JUMP JUMPDEST PUSH2 0x2156 DUP3 PUSH2 0x2ACD JUMP JUMPDEST PUSH1 0x0 JUMPDEST DUP4 MLOAD DUP1 MLOAD DUP3 LT ISZERO PUSH2 0x2186 JUMPI SWAP1 PUSH2 0x217C PUSH2 0x2175 DUP3 PUSH2 0x2181 SWAP5 PUSH2 0x1FE0 JUMP JUMPDEST MLOAD DUP6 PUSH2 0x2995 JUMP JUMPDEST PUSH2 0x1FD1 JUMP JUMPDEST PUSH2 0x2159 JUMP JUMPDEST POP POP SWAP2 POP PUSH2 0x2193 DUP2 PUSH2 0x2B59 JUMP JUMPDEST CODESIZE PUSH2 0x213B JUMP JUMPDEST PUSH1 0x20 DUP2 ADD DUP1 MLOAD PUSH2 0x21A8 DUP2 PUSH2 0x1F0D JUMP JUMPDEST PUSH2 0x21B1 DUP2 PUSH2 0x1F0D JUMP JUMPDEST ISZERO PUSH2 0x2207 JUMPI PUSH1 0xC0 SWAP3 PUSH2 0x21EA PUSH2 0x2202 SWAP3 PUSH2 0x21D1 PUSH2 0x21CB PUSH2 0x1FF4 JUMP JUMPDEST DUP9 PUSH2 0x2A48 JUMP JUMPDEST MLOAD PUSH2 0x21DB DUP2 PUSH2 0x1F0D JUMP JUMPDEST PUSH2 0x21E4 DUP2 PUSH2 0x1F0D JUMP JUMPDEST DUP7 PUSH2 0x23BE JUMP JUMPDEST PUSH2 0x21FB PUSH2 0x21F5 PUSH2 0x202D JUMP JUMPDEST DUP7 PUSH2 0x2A48 JUMP JUMPDEST MLOAD DUP5 PUSH2 0x2995 JUMP JUMPDEST PUSH2 0x212E JUMP JUMPDEST PUSH1 0x4 PUSH1 0x40 MLOAD PUSH32 0xA80D31F700000000000000000000000000000000000000000000000000000000 DUP2 MSTORE REVERT JUMPDEST SWAP3 PUSH2 0x2243 PUSH2 0x223D PUSH2 0x1F98 JUMP JUMPDEST DUP5 PUSH2 0x2A48 JUMP JUMPDEST PUSH2 0x224C DUP4 PUSH2 0x2ACD JUMP JUMPDEST PUSH1 0x0 JUMPDEST DUP5 MLOAD DUP1 MLOAD DUP3 LT ISZERO PUSH2 0x2277 JUMPI SWAP1 PUSH2 0x217C PUSH2 0x226B DUP3 PUSH2 0x2272 SWAP5 PUSH2 0x1FE0 JUMP JUMPDEST MLOAD DUP7 PUSH2 0x2A48 JUMP JUMPDEST PUSH2 0x224F JUMP JUMPDEST POP POP SWAP3 POP PUSH2 0x2284 DUP3 PUSH2 0x2B59 JUMP JUMPDEST CODESIZE PUSH2 0x2120 JUMP JUMPDEST DUP2 MLOAD ISZERO PUSH2 0x22A1 JUMPI PUSH1 0x0 DUP1 DUP3 MSTORE PUSH1 0x40 DUP3 ADD MSTORE PUSH1 0x60 ADD MSTORE JUMP JUMPDEST PUSH1 0x4 PUSH1 0x40 MLOAD PUSH32 0x22CE3EDD00000000000000000000000000000000000000000000000000000000 DUP2 MSTORE REVERT JUMPDEST DUP2 MLOAD ISZERO PUSH2 0x22D8 JUMPI PUSH1 0xA0 ADD MSTORE JUMP JUMPDEST PUSH1 0x4 PUSH1 0x40 MLOAD PUSH32 0xFE936CB700000000000000000000000000000000000000000000000000000000 DUP2 MSTORE REVERT JUMPDEST PUSH1 0x40 MLOAD SWAP1 PUSH2 0x230F DUP3 PUSH2 0x2F1 JUMP JUMPDEST PUSH1 0x0 PUSH1 0x20 DUP4 PUSH1 0x60 DUP2 MSTORE ADD MSTORE JUMP JUMPDEST PUSH1 0x40 MLOAD PUSH2 0x2328 DUP2 PUSH2 0x2F1 JUMP JUMPDEST PUSH2 0x2330 PUSH2 0x2302 JUMP JUMPDEST DUP1 DUP3 MSTORE PUSH1 0x20 DUP3 ADD PUSH1 0x0 DUP2 MSTORE PUSH2 0x2343 PUSH2 0x2302 JUMP JUMPDEST POP PUSH2 0x100 PUSH1 0x20 DUP4 ADD MSTORE PUSH1 0x40 MLOAD DUP1 SWAP3 MSTORE PUSH1 0x0 DUP3 MSTORE PUSH2 0x120 DUP3 ADD SWAP2 DUP3 LT PUSH2 0x277 JUMPI PUSH1 0x0 SWAP2 PUSH1 0x40 MSTORE MSTORE SWAP1 JUMP JUMPDEST SWAP1 PUSH2 0x2375 PUSH2 0x2302 JUMP JUMPDEST POP PUSH1 0x1F DUP2 AND DUP1 PUSH2 0x23A4 JUMPI JUMPDEST POP DUP1 PUSH1 0x20 DUP4 ADD MSTORE PUSH1 0x40 MLOAD SWAP1 DUP2 DUP4 MSTORE PUSH1 0x0 DUP3 MSTORE DUP2 ADD PUSH1 0x20 ADD SWAP1 DUP2 LT PUSH2 0x277 JUMPI PUSH1 0x40 MSTORE SWAP1 JUMP JUMPDEST PUSH1 0x20 SUB PUSH1 0x20 DUP2 GT PUSH2 0xFD9 JUMPI DUP2 ADD DUP1 SWAP2 GT PUSH2 0xFD9 JUMPI CODESIZE PUSH2 0x2380 JUMP JUMPDEST SWAP1 DUP2 MLOAD SWAP2 PUSH2 0x23CA PUSH2 0x2302 JUMP JUMPDEST POP DUP3 MLOAD MLOAD PUSH1 0x1 DUP2 ADD SWAP1 DUP2 DUP2 GT PUSH2 0xFD9 JUMPI PUSH1 0x20 DUP6 ADD MLOAD DUP2 LT ISZERO PUSH2 0x2423 JUMPI JUMPDEST PUSH1 0xC2 PUSH1 0x20 PUSH2 0x70E SWAP7 MLOAD SWAP3 DUP4 ADD ADD MSTORE8 DUP1 MLOAD DUP3 GT PUSH2 0x241B JUMPI JUMPDEST POP POP PUSH1 0x40 MLOAD SWAP2 PUSH1 0x20 DUP4 ADD MSTORE PUSH1 0x20 DUP3 MSTORE PUSH2 0x2416 DUP3 PUSH2 0x2F1 JUMP JUMPDEST PUSH2 0x2995 JUMP JUMPDEST MSTORE CODESIZE DUP1 PUSH2 0x23FE JUMP JUMPDEST DUP2 PUSH1 0x1 SHL SWAP5 DUP3 DUP7 DIV PUSH1 0x2 EQ DUP4 ISZERO OR ISZERO PUSH2 0xFD9 JUMPI PUSH1 0x20 DUP2 PUSH2 0x2455 PUSH2 0x70E SWAP9 PUSH2 0x244E PUSH1 0xC2 SWAP6 MLOAD SWAP2 DUP5 PUSH2 0x236C JUMP JUMPDEST POP DUP3 PUSH2 0x28DD JUMP JUMPDEST POP SWAP7 POP POP POP PUSH2 0x23E7 JUMP JUMPDEST SWAP1 DUP2 PUSH1 0x1 SHL SWAP2 DUP1 DUP4 DIV PUSH1 0x2 EQ SWAP1 ISZERO OR ISZERO PUSH2 0xFD9 JUMPI JUMP JUMPDEST PUSH2 0x247D PUSH2 0x2302 JUMP JUMPDEST POP DUP1 MLOAD MLOAD PUSH1 0x1 DUP2 ADD SWAP1 DUP2 DUP2 GT PUSH2 0xFD9 JUMPI PUSH1 0x20 DUP4 ADD MLOAD DUP2 LT ISZERO PUSH2 0x24B6 JUMPI JUMPDEST PUSH1 0x5B PUSH1 0x20 DUP5 MLOAD SWAP3 DUP4 ADD ADD MSTORE8 DUP1 MLOAD DUP3 GT PUSH2 0x24B2 JUMPI POP POP SWAP1 JUMP JUMPDEST MSTORE SWAP1 JUMP JUMPDEST DUP2 PUSH1 0x1 SHL DUP3 DUP2 DIV PUSH1 0x2 EQ DUP4 ISZERO OR ISZERO PUSH2 0xFD9 JUMPI PUSH2 0x24DF SWAP1 PUSH2 0x24D8 DUP6 MLOAD SWAP2 DUP7 PUSH2 0x236C JUMP JUMPDEST POP DUP5 PUSH2 0x28DD JUMP JUMPDEST POP PUSH2 0x249A JUMP JUMPDEST PUSH2 0x24ED PUSH2 0x2302 JUMP JUMPDEST POP DUP1 MLOAD MLOAD PUSH1 0x1 DUP2 ADD SWAP1 DUP2 DUP2 GT PUSH2 0xFD9 JUMPI PUSH1 0x20 DUP4 ADD MLOAD DUP2 LT ISZERO PUSH2 0x2522 JUMPI JUMPDEST PUSH1 0x5A PUSH1 0x20 DUP5 MLOAD SWAP3 DUP4 ADD ADD MSTORE8 DUP1 MLOAD DUP3 GT PUSH2 0x24B2 JUMPI POP POP SWAP1 JUMP JUMPDEST DUP2 PUSH1 0x1 SHL DUP3 DUP2 DIV PUSH1 0x2 EQ DUP4 ISZERO OR ISZERO PUSH2 0xFD9 JUMPI PUSH2 0x2544 SWAP1 PUSH2 0x24D8 DUP6 MLOAD SWAP2 DUP7 PUSH2 0x236C JUMP JUMPDEST POP PUSH2 0x250A JUMP JUMPDEST PUSH2 0x2552 PUSH2 0x2302 JUMP JUMPDEST POP DUP1 MLOAD MLOAD PUSH1 0x1 DUP2 ADD SWAP1 DUP2 DUP2 GT PUSH2 0xFD9 JUMPI PUSH1 0x20 DUP4 ADD MLOAD DUP2 LT ISZERO PUSH2 0x2587 JUMPI JUMPDEST PUSH1 0x59 PUSH1 0x20 DUP5 MLOAD SWAP3 DUP4 ADD ADD MSTORE8 DUP1 MLOAD DUP3 GT PUSH2 0x24B2 JUMPI POP POP SWAP1 JUMP JUMPDEST DUP2 PUSH1 0x1 SHL DUP3 DUP2 DIV PUSH1 0x2 EQ DUP4 ISZERO OR ISZERO PUSH2 0xFD9 JUMPI PUSH2 0x25A9 SWAP1 PUSH2 0x24D8 DUP6 MLOAD SWAP2 DUP7 PUSH2 0x236C JUMP JUMPDEST POP PUSH2 0x256F JUMP JUMPDEST PUSH2 0x25B7 PUSH2 0x2302 JUMP JUMPDEST POP DUP1 MLOAD MLOAD PUSH1 0x1 DUP2 ADD SWAP1 DUP2 DUP2 GT PUSH2 0xFD9 JUMPI PUSH1 0x20 DUP4 ADD MLOAD DUP2 LT ISZERO PUSH2 0x25EC JUMPI JUMPDEST PUSH1 0x58 PUSH1 0x20 DUP5 MLOAD SWAP3 DUP4 ADD ADD MSTORE8 DUP1 MLOAD DUP3 GT PUSH2 0x24B2 JUMPI POP POP SWAP1 JUMP JUMPDEST DUP2 PUSH1 0x1 SHL DUP3 DUP2 DIV PUSH1 0x2 EQ DUP4 ISZERO OR ISZERO PUSH2 0xFD9 JUMPI PUSH2 0x260E SWAP1 PUSH2 0x24D8 DUP6 MLOAD SWAP2 DUP7 PUSH2 0x236C JUMP JUMPDEST POP PUSH2 0x25D4 JUMP JUMPDEST PUSH2 0x261C PUSH2 0x2302 JUMP JUMPDEST POP DUP1 MLOAD MLOAD PUSH1 0x1 DUP2 ADD SWAP1 DUP2 DUP2 GT PUSH2 0xFD9 JUMPI PUSH1 0x20 DUP4 ADD MLOAD DUP2 LT ISZERO PUSH2 0x2651 JUMPI JUMPDEST PUSH1 0x7B PUSH1 0x20 DUP5 MLOAD SWAP3 DUP4 ADD ADD MSTORE8 DUP1 MLOAD DUP3 GT PUSH2 0x24B2 JUMPI POP POP SWAP1 JUMP JUMPDEST DUP2 PUSH1 0x1 SHL DUP3 DUP2 DIV PUSH1 0x2 EQ DUP4 ISZERO OR ISZERO PUSH2 0xFD9 JUMPI PUSH2 0x2673 SWAP1 PUSH2 0x24D8 DUP6 MLOAD SWAP2 DUP7 PUSH2 0x236C JUMP JUMPDEST POP PUSH2 0x2639 JUMP JUMPDEST PUSH2 0x2681 PUSH2 0x2302 JUMP JUMPDEST POP DUP1 MLOAD MLOAD PUSH1 0x1 DUP2 ADD SWAP1 DUP2 DUP2 GT PUSH2 0xFD9 JUMPI PUSH1 0x20 DUP4 ADD MLOAD DUP2 LT ISZERO PUSH2 0x26B6 JUMPI JUMPDEST PUSH1 0x7A PUSH1 0x20 DUP5 MLOAD SWAP3 DUP4 ADD ADD MSTORE8 DUP1 MLOAD DUP3 GT PUSH2 0x24B2 JUMPI POP POP SWAP1 JUMP JUMPDEST DUP2 PUSH1 0x1 SHL DUP3 DUP2 DIV PUSH1 0x2 EQ DUP4 ISZERO OR ISZERO PUSH2 0xFD9 JUMPI PUSH2 0x26D8 SWAP1 PUSH2 0x24D8 DUP6 MLOAD SWAP2 DUP7 PUSH2 0x236C JUMP JUMPDEST POP PUSH2 0x269E JUMP JUMPDEST PUSH2 0x26E6 PUSH2 0x2302 JUMP JUMPDEST POP DUP1 MLOAD MLOAD PUSH1 0x1 DUP2 ADD SWAP1 DUP2 DUP2 GT PUSH2 0xFD9 JUMPI PUSH1 0x20 DUP4 ADD MLOAD DUP2 LT ISZERO PUSH2 0x271B JUMPI JUMPDEST PUSH1 0x79 PUSH1 0x20 DUP5 MLOAD SWAP3 DUP4 ADD ADD MSTORE8 DUP1 MLOAD DUP3 GT PUSH2 0x24B2 JUMPI POP POP SWAP1 JUMP JUMPDEST DUP2 PUSH1 0x1 SHL DUP3 DUP2 DIV PUSH1 0x2 EQ DUP4 ISZERO OR ISZERO PUSH2 0xFD9 JUMPI PUSH2 0x273D SWAP1 PUSH2 0x24D8 DUP6 MLOAD SWAP2 DUP7 PUSH2 0x236C JUMP JUMPDEST POP PUSH2 0x2703 JUMP JUMPDEST PUSH2 0x274B PUSH2 0x2302 JUMP JUMPDEST POP DUP1 MLOAD MLOAD PUSH1 0x1 DUP2 ADD SWAP1 DUP2 DUP2 GT PUSH2 0xFD9 JUMPI PUSH1 0x20 DUP4 ADD MLOAD DUP2 LT ISZERO PUSH2 0x2780 JUMPI JUMPDEST PUSH1 0x78 PUSH1 0x20 DUP5 MLOAD SWAP3 DUP4 ADD ADD MSTORE8 DUP1 MLOAD DUP3 GT PUSH2 0x24B2 JUMPI POP POP SWAP1 JUMP JUMPDEST DUP2 PUSH1 0x1 SHL DUP3 DUP2 DIV PUSH1 0x2 EQ DUP4 ISZERO OR ISZERO PUSH2 0xFD9 JUMPI PUSH2 0x27A2 SWAP1 PUSH2 0x24D8 DUP6 MLOAD SWAP2 DUP7 PUSH2 0x236C JUMP JUMPDEST POP PUSH2 0x2768 JUMP JUMPDEST SWAP1 PUSH2 0x27B1 PUSH2 0x2302 JUMP JUMPDEST POP DUP2 MLOAD MLOAD PUSH1 0x1 DUP2 ADD SWAP2 DUP3 DUP3 GT PUSH2 0xFD9 JUMPI PUSH1 0x20 DUP5 ADD MLOAD DUP3 LT ISZERO PUSH2 0x27E4 JUMPI JUMPDEST PUSH1 0x20 DUP5 MLOAD SWAP3 DUP4 ADD ADD MSTORE8 DUP1 MLOAD DUP3 GT PUSH2 0x24B2 JUMPI POP POP SWAP1 JUMP JUMPDEST DUP3 PUSH1 0x1 SHL DUP4 DUP2 DIV PUSH1 0x2 EQ DUP5 ISZERO OR ISZERO PUSH2 0xFD9 JUMPI PUSH2 0x280D SWAP1 PUSH2 0x2806 DUP7 MLOAD SWAP2 DUP8 PUSH2 0x236C JUMP JUMPDEST POP DUP6 PUSH2 0x28DD JUMP JUMPDEST POP PUSH2 0x27CE JUMP JUMPDEST SWAP1 PUSH2 0x2820 DUP3 MLOAD SWAP2 DUP4 PUSH2 0x236C JUMP JUMPDEST POP PUSH2 0x2829 PUSH2 0x2302 JUMP JUMPDEST POP DUP1 MLOAD SWAP1 PUSH2 0x2835 PUSH2 0x2302 JUMP JUMPDEST POP PUSH2 0x2843 DUP2 MLOAD DUP4 GT ISZERO PUSH2 0x298E JUMP JUMPDEST DUP3 MLOAD MLOAD SWAP3 PUSH2 0x2851 DUP4 DUP6 PUSH2 0x1743 JUMP JUMPDEST SWAP2 PUSH1 0x20 SWAP3 DUP3 DUP5 DUP1 SWAP5 ADD MLOAD DUP3 GT PUSH2 0x28C6 JUMPI JUMPDEST MLOAD DUP4 DUP2 MLOAD SWAP8 DUP3 ADD ADD SWAP7 DUP3 GT PUSH2 0x28BE JUMPI JUMPDEST POP POP ADD SWAP2 JUMPDEST DUP2 DUP2 LT ISZERO PUSH2 0x2898 JUMPI PUSH1 0x0 NOT SWAP2 SUB PUSH2 0x100 EXP ADD SWAP1 DUP2 NOT SWAP1 MLOAD AND SWAP1 DUP3 MLOAD AND OR SWAP1 MSTORE JUMP JUMPDEST SWAP2 SWAP3 PUSH2 0x28B3 PUSH2 0x28AD PUSH2 0x28B9 SWAP3 DUP7 MLOAD DUP2 MSTORE PUSH2 0x1735 JUMP JUMPDEST SWAP5 PUSH2 0x1735 JUMP JUMPDEST SWAP3 PUSH2 0x1694 JUMP JUMPDEST PUSH2 0x2877 JUMP JUMPDEST MSTORE CODESIZE DUP1 PUSH2 0x2872 JUMP JUMPDEST PUSH2 0x28D8 PUSH2 0x28D2 DUP4 PUSH2 0x245F JUMP JUMPDEST DUP3 PUSH2 0x2813 JUMP JUMPDEST PUSH2 0x2862 JUMP JUMPDEST SWAP1 PUSH2 0x28E6 PUSH2 0x2302 JUMP JUMPDEST POP DUP1 MLOAD PUSH2 0x28F1 PUSH2 0x2302 JUMP JUMPDEST POP PUSH2 0x28FF DUP3 MLOAD DUP3 GT ISZERO PUSH2 0x298E JUMP JUMPDEST DUP3 MLOAD MLOAD SWAP2 PUSH2 0x290D DUP3 DUP5 PUSH2 0x1743 JUMP JUMPDEST PUSH1 0x20 SWAP2 DUP3 SWAP2 DUP3 DUP8 ADD MLOAD DUP2 GT PUSH2 0x2977 JUMPI JUMPDEST DUP7 MLOAD DUP4 DUP2 MLOAD SWAP8 DUP3 ADD ADD SWAP7 DUP3 GT PUSH2 0x296F JUMPI JUMPDEST POP POP ADD SWAP2 JUMPDEST DUP2 DUP2 LT ISZERO PUSH2 0x2955 JUMPI PUSH1 0x0 NOT SWAP2 SUB PUSH2 0x100 EXP ADD SWAP1 DUP2 NOT SWAP1 MLOAD AND SWAP1 DUP3 MLOAD AND OR SWAP1 MSTORE SWAP1 JUMP JUMPDEST SWAP2 SWAP3 PUSH2 0x28B3 PUSH2 0x28AD PUSH2 0x296A SWAP3 DUP7 MLOAD DUP2 MSTORE PUSH2 0x1735 JUMP JUMPDEST PUSH2 0x2933 JUMP JUMPDEST MSTORE CODESIZE DUP1 PUSH2 0x292E JUMP JUMPDEST PUSH2 0x2989 PUSH2 0x2983 DUP3 PUSH2 0x245F JUMP JUMPDEST DUP9 PUSH2 0x2813 JUMP JUMPDEST PUSH2 0x291D JUMP JUMPDEST ISZERO PUSH2 0x277 JUMPI JUMP JUMPDEST DUP2 MLOAD PUSH2 0x1DBA SWAP3 SWAP2 SWAP1 PUSH8 0xFFFFFFFFFFFFFFFF DUP2 AND SWAP1 PUSH1 0x17 DUP3 GT PUSH2 0x29CD JUMPI PUSH2 0x29C5 SWAP2 POP PUSH1 0x40 PUSH1 0xFF DUP5 MLOAD SWAP3 AND OR SWAP1 PUSH2 0x27A8 JUMP JUMPDEST POP JUMPDEST MLOAD PUSH2 0x28DD JUMP JUMPDEST POP PUSH1 0xFF DUP2 GT PUSH2 0x29F2 JUMPI PUSH2 0x29EC SWAP1 PUSH2 0x29E4 DUP4 MLOAD PUSH2 0x25AF JUMP JUMPDEST POP DUP3 MLOAD PUSH2 0x2D23 JUMP JUMPDEST POP PUSH2 0x29C7 JUMP JUMPDEST PUSH2 0xFFFF DUP2 GT PUSH2 0x2A11 JUMPI PUSH2 0x29EC SWAP1 PUSH2 0x2A09 DUP4 MLOAD PUSH2 0x254A JUMP JUMPDEST POP DUP3 MLOAD PUSH2 0x2CBC JUMP JUMPDEST PUSH4 0xFFFFFFFF DUP2 GT PUSH2 0x2A32 JUMPI PUSH2 0x29EC SWAP1 PUSH2 0x2A2A DUP4 MLOAD PUSH2 0x24E5 JUMP JUMPDEST POP DUP3 MLOAD PUSH2 0x2C53 JUMP JUMPDEST PUSH2 0x29EC SWAP1 PUSH2 0x2A40 DUP4 MLOAD PUSH2 0x2475 JUMP JUMPDEST POP DUP3 MLOAD PUSH2 0x2BE6 JUMP JUMPDEST DUP2 MLOAD PUSH2 0x1DBA SWAP3 SWAP2 SWAP1 PUSH8 0xFFFFFFFFFFFFFFFF DUP2 AND SWAP1 PUSH1 0x17 DUP3 GT PUSH2 0x2A78 JUMPI PUSH2 0x29C5 SWAP2 POP PUSH1 0x60 PUSH1 0xFF DUP5 MLOAD SWAP3 AND OR SWAP1 PUSH2 0x27A8 JUMP JUMPDEST POP PUSH1 0xFF DUP2 GT PUSH2 0x2A8F JUMPI PUSH2 0x29EC SWAP1 PUSH2 0x29E4 DUP4 MLOAD PUSH2 0x2743 JUMP JUMPDEST PUSH2 0xFFFF DUP2 GT PUSH2 0x2AA6 JUMPI PUSH2 0x29EC SWAP1 PUSH2 0x2A09 DUP4 MLOAD PUSH2 0x26DE JUMP JUMPDEST PUSH4 0xFFFFFFFF DUP2 GT PUSH2 0x2ABF JUMPI PUSH2 0x29EC SWAP1 PUSH2 0x2A2A DUP4 MLOAD PUSH2 0x2679 JUMP JUMPDEST PUSH2 0x29EC SWAP1 PUSH2 0x2A40 DUP4 MLOAD PUSH2 0x2614 JUMP JUMPDEST DUP1 MLOAD SWAP1 PUSH2 0x2AD8 PUSH2 0x2302 JUMP JUMPDEST POP DUP2 MLOAD MLOAD PUSH1 0x1 DUP2 ADD SWAP1 DUP2 DUP2 GT PUSH2 0xFD9 JUMPI PUSH1 0x20 DUP5 ADD MLOAD DUP2 LT ISZERO PUSH2 0x2B26 JUMPI JUMPDEST PUSH1 0x9F PUSH1 0x20 DUP1 SWAP6 MLOAD SWAP3 DUP4 ADD ADD MSTORE8 DUP1 MLOAD DUP3 GT PUSH2 0x2B1E JUMPI JUMPDEST POP POP ADD DUP1 MLOAD SWAP1 PUSH1 0x1 DUP3 ADD DUP1 SWAP3 GT PUSH2 0xFD9 JUMPI MSTORE JUMP JUMPDEST MSTORE CODESIZE DUP1 PUSH2 0x2B0A JUMP JUMPDEST DUP2 PUSH1 0x1 SHL SWAP4 DUP3 DUP6 DIV PUSH1 0x2 EQ DUP4 ISZERO OR ISZERO PUSH2 0xFD9 JUMPI PUSH1 0x20 DUP2 PUSH2 0x2B4F DUP3 SWAP8 PUSH2 0x244E PUSH1 0x9F SWAP6 MLOAD SWAP2 DUP5 PUSH2 0x236C JUMP JUMPDEST POP SWAP6 POP POP POP PUSH2 0x2AF5 JUMP JUMPDEST DUP1 MLOAD SWAP1 PUSH2 0x2B64 PUSH2 0x2302 JUMP JUMPDEST POP DUP2 MLOAD MLOAD PUSH1 0x1 DUP2 ADD SWAP1 DUP2 DUP2 GT PUSH2 0xFD9 JUMPI PUSH1 0x20 DUP5 ADD MLOAD DUP2 LT ISZERO PUSH2 0x2BB3 JUMPI JUMPDEST PUSH1 0xFF PUSH1 0x20 DUP1 SWAP6 MLOAD SWAP3 DUP4 ADD ADD MSTORE8 DUP1 MLOAD DUP3 GT PUSH2 0x2BAB JUMPI JUMPDEST POP POP ADD DUP1 MLOAD PUSH1 0x0 NOT DUP2 ADD SWAP2 SWAP1 DUP3 GT PUSH2 0xFD9 JUMPI MSTORE JUMP JUMPDEST MSTORE CODESIZE DUP1 PUSH2 0x2B96 JUMP JUMPDEST DUP2 PUSH1 0x1 SHL SWAP4 DUP3 DUP6 DIV PUSH1 0x2 EQ DUP4 ISZERO OR ISZERO PUSH2 0xFD9 JUMPI PUSH1 0x20 DUP2 PUSH2 0x2BDC DUP3 SWAP8 PUSH2 0x244E PUSH1 0xFF SWAP6 MLOAD SWAP2 DUP5 PUSH2 0x236C JUMP JUMPDEST POP SWAP6 POP POP POP PUSH2 0x2B81 JUMP JUMPDEST SWAP1 PUSH2 0x2BEF PUSH2 0x2302 JUMP JUMPDEST POP DUP2 MLOAD MLOAD DUP1 PUSH1 0x8 ADD SWAP2 DUP3 PUSH1 0x8 GT PUSH2 0xFD9 JUMPI PUSH1 0x20 DUP5 ADD MLOAD DUP4 GT PUSH2 0x2C32 JUMPI JUMPDEST PUSH1 0x8 DUP5 MLOAD SWAP3 DUP4 ADD ADD SWAP1 PUSH8 0xFFFFFFFFFFFFFFFF NOT DUP3 MLOAD AND OR SWAP1 MSTORE DUP1 MLOAD DUP3 GT PUSH2 0x24B2 JUMPI POP POP SWAP1 JUMP JUMPDEST DUP3 PUSH1 0x1 SHL DUP4 DUP2 DIV PUSH1 0x2 EQ DUP5 ISZERO OR ISZERO PUSH2 0xFD9 JUMPI PUSH2 0x2C4E SWAP1 DUP6 PUSH2 0x2813 JUMP JUMPDEST PUSH2 0x2C0C JUMP JUMPDEST SWAP1 PUSH2 0x2C5C PUSH2 0x2302 JUMP JUMPDEST POP DUP2 MLOAD MLOAD DUP1 PUSH1 0x4 ADD SWAP2 DUP3 PUSH1 0x4 GT PUSH2 0xFD9 JUMPI PUSH1 0x20 DUP5 ADD MLOAD DUP4 GT PUSH2 0x2C9B JUMPI JUMPDEST PUSH1 0x4 DUP5 MLOAD SWAP3 DUP4 ADD ADD SWAP1 PUSH4 0xFFFFFFFF NOT DUP3 MLOAD AND OR SWAP1 MSTORE DUP1 MLOAD DUP3 GT PUSH2 0x24B2 JUMPI POP POP SWAP1 JUMP JUMPDEST DUP3 PUSH1 0x1 SHL DUP4 DUP2 DIV PUSH1 0x2 EQ DUP5 ISZERO OR ISZERO PUSH2 0xFD9 JUMPI PUSH2 0x2CB7 SWAP1 DUP6 PUSH2 0x2813 JUMP JUMPDEST PUSH2 0x2C79 JUMP JUMPDEST SWAP1 PUSH2 0x2CC5 PUSH2 0x2302 JUMP JUMPDEST POP DUP2 MLOAD MLOAD DUP1 PUSH1 0x2 ADD SWAP2 DUP3 PUSH1 0x2 GT PUSH2 0xFD9 JUMPI PUSH1 0x20 DUP5 ADD MLOAD DUP4 GT PUSH2 0x2D02 JUMPI JUMPDEST PUSH1 0x2 DUP5 MLOAD SWAP3 DUP4 ADD ADD SWAP1 PUSH2 0xFFFF NOT DUP3 MLOAD AND OR SWAP1 MSTORE DUP1 MLOAD DUP3 GT PUSH2 0x24B2 JUMPI POP POP SWAP1 JUMP JUMPDEST DUP3 PUSH1 0x1 SHL DUP4 DUP2 DIV PUSH1 0x2 EQ DUP5 ISZERO OR ISZERO PUSH2 0xFD9 JUMPI PUSH2 0x2D1E SWAP1 DUP6 PUSH2 0x2813 JUMP JUMPDEST PUSH2 0x2CE2 JUMP JUMPDEST SWAP1 PUSH2 0x2D2C PUSH2 0x2302 JUMP JUMPDEST POP DUP2 MLOAD MLOAD DUP1 PUSH1 0x1 ADD SWAP2 DUP3 PUSH1 0x1 GT PUSH2 0xFD9 JUMPI PUSH1 0x20 DUP5 ADD MLOAD DUP4 GT PUSH2 0x2D68 JUMPI JUMPDEST PUSH1 0x1 DUP5 MLOAD SWAP3 DUP4 ADD ADD SWAP1 PUSH1 0xFF NOT DUP3 MLOAD AND OR SWAP1 MSTORE DUP1 MLOAD DUP3 GT PUSH2 0x24B2 JUMPI POP POP SWAP1 JUMP JUMPDEST DUP3 PUSH1 0x1 SHL DUP4 DUP2 DIV PUSH1 0x2 EQ DUP5 ISZERO OR ISZERO PUSH2 0xFD9 JUMPI PUSH2 0x2D84 SWAP1 DUP6 PUSH2 0x2813 JUMP JUMPDEST PUSH2 0x2D49 JUMP JUMPDEST SWAP1 DUP2 MLOAD PUSH8 0xFFFFFFFFFFFFFFFF DUP2 GT PUSH2 0x2EC JUMPI PUSH2 0x2DAF DUP2 PUSH2 0x2DAA PUSH1 0x5 SLOAD PUSH2 0x699 JUMP JUMPDEST PUSH2 0x15EE JUMP JUMPDEST PUSH1 0x20 DUP1 PUSH1 0x1F DUP4 GT PUSH1 0x1 EQ PUSH2 0x2DEB JUMPI POP DUP2 SWAP3 SWAP4 PUSH1 0x0 SWAP3 PUSH2 0x2DE0 JUMPI JUMPDEST POP POP DUP2 PUSH1 0x1 SHL SWAP2 PUSH1 0x0 NOT SWAP1 PUSH1 0x3 SHL SHR NOT AND OR PUSH1 0x5 SSTORE JUMP JUMPDEST ADD MLOAD SWAP1 POP CODESIZE DUP1 PUSH2 0x2DC9 JUMP JUMPDEST SWAP1 PUSH1 0x1F NOT DUP4 AND SWAP5 PUSH2 0x2E1E PUSH1 0x5 PUSH1 0x0 MSTORE PUSH32 0x36B6384B5ECA791C62761152D0C79BB0604C104A5FB6F4EB0703F3154BB3DB0 SWAP1 JUMP JUMPDEST SWAP3 PUSH1 0x0 SWAP1 JUMPDEST DUP8 DUP3 LT PUSH2 0x2E5B JUMPI POP POP DUP4 PUSH1 0x1 SWAP6 SWAP7 LT PUSH2 0x2E42 JUMPI JUMPDEST POP POP POP DUP2 SHL ADD PUSH1 0x5 SSTORE JUMP JUMPDEST ADD MLOAD PUSH1 0x0 NOT PUSH1 0xF8 DUP5 PUSH1 0x3 SHL AND SHR NOT AND SWAP1 SSTORE CODESIZE DUP1 DUP1 PUSH2 0x2E37 JUMP JUMPDEST DUP1 PUSH1 0x1 DUP6 SWAP7 DUP3 SWAP5 SWAP7 DUP7 ADD MLOAD DUP2 SSTORE ADD SWAP6 ADD SWAP4 ADD SWAP1 PUSH2 0x2E23 JUMP JUMPDEST PUSH1 0x20 DUP2 MLOAD SWAP2 ADD MLOAD SWAP1 PUSH1 0x20 DUP2 LT PUSH2 0x2E87 JUMPI POP SWAP1 JUMP JUMPDEST PUSH1 0x0 NOT SWAP1 PUSH1 0x20 SUB PUSH1 0x3 SHL SHL AND SWAP1 JUMP JUMPDEST PUSH1 0x1C SLOAD PUSH9 0x10000000000000000 DUP2 LT ISZERO PUSH2 0x2EC JUMPI PUSH2 0x2EBB PUSH1 0x1 SWAP2 DUP3 DUP2 ADD PUSH1 0x1C SSTORE PUSH2 0x647 JUMP JUMPDEST SWAP3 SWAP1 SWAP3 PUSH2 0x2F8E JUMPI DUP1 MLOAD SWAP1 PUSH8 0xFFFFFFFFFFFFFFFF DUP3 GT PUSH2 0x2EC JUMPI PUSH2 0x2EE8 DUP3 PUSH2 0x2EE2 DUP7 SLOAD PUSH2 0x699 JUMP JUMPDEST DUP7 PUSH2 0x1644 JUMP JUMPDEST PUSH1 0x20 SWAP1 DUP2 PUSH1 0x1F DUP5 GT PUSH1 0x1 EQ PUSH2 0x2F24 JUMPI POP SWAP3 DUP3 SWAP4 SWAP2 DUP4 SWAP3 PUSH1 0x0 SWAP5 PUSH2 0x2F19 JUMPI JUMPDEST POP POP SHL SWAP2 PUSH1 0x0 NOT SWAP1 PUSH1 0x3 SHL SHR NOT AND OR SWAP1 SSTORE JUMP JUMPDEST ADD MLOAD SWAP3 POP CODESIZE DUP1 PUSH2 0x2F06 JUMP JUMPDEST SWAP2 SWAP1 DUP4 PUSH1 0x1F NOT DUP2 AND PUSH2 0x2F3B DUP9 PUSH1 0x0 MSTORE PUSH1 0x20 PUSH1 0x0 KECCAK256 SWAP1 JUMP JUMPDEST SWAP5 PUSH1 0x0 SWAP1 JUMPDEST DUP9 DUP4 DUP4 LT PUSH2 0x2F74 JUMPI POP POP POP LT PUSH2 0x2F5B JUMPI JUMPDEST POP POP POP DUP2 SHL ADD SWAP1 SSTORE JUMP JUMPDEST ADD MLOAD PUSH1 0x0 NOT PUSH1 0xF8 DUP5 PUSH1 0x3 SHL AND SHR NOT AND SWAP1 SSTORE CODESIZE DUP1 DUP1 PUSH2 0x2F51 JUMP JUMPDEST DUP6 DUP8 ADD MLOAD DUP9 SSTORE SWAP1 SWAP7 ADD SWAP6 SWAP5 DUP6 ADD SWAP5 DUP8 SWAP4 POP SWAP1 DUP2 ADD SWAP1 PUSH2 0x2F40 JUMP JUMPDEST PUSH2 0x683 JUMP JUMPDEST SWAP1 SWAP2 PUSH2 0x2FAA PUSH2 0x8A9 SWAP4 PUSH1 0x40 DUP5 MSTORE PUSH1 0x40 DUP5 ADD SWAP1 PUSH2 0x858 JUMP JUMPDEST SWAP2 PUSH1 0x20 DUP2 DUP5 SUB SWAP2 ADD MSTORE PUSH2 0x858 JUMP JUMPDEST ISZERO PUSH2 0x2FBF JUMPI JUMP JUMPDEST PUSH1 0x64 PUSH1 0x40 MLOAD PUSH3 0x461BCD PUSH1 0xE5 SHL DUP2 MSTORE PUSH1 0x20 PUSH1 0x4 DUP3 ADD MSTORE PUSH1 0x1B PUSH1 0x24 DUP3 ADD MSTORE PUSH32 0x4572726F20616F207061676172206120696E64656E697A6163616F0000000000 PUSH1 0x44 DUP3 ADD MSTORE REVERT JUMPDEST PUSH1 0x1E SLOAD PUSH1 0x1A SLOAD GT ISZERO PUSH2 0x3041 JUMPI PUSH2 0x70E PUSH1 0x0 DUP1 DUP1 DUP1 PUSH2 0x302F PUSH2 0xBE9 PUSH2 0xBE9 PUSH1 0x17 SLOAD PUSH1 0x1 PUSH1 0x1 PUSH1 0xA0 SHL SUB AND SWAP1 JUMP JUMPDEST SELFBALANCE SWAP1 GAS CALL PUSH2 0x303B PUSH2 0x1950 JUMP JUMPDEST POP PUSH2 0x2FB8 JUMP JUMPDEST PUSH1 0x0 DUP1 DUP1 DUP1 PUSH1 0x1 PUSH1 0x1 PUSH1 0xA0 SHL SUB PUSH1 0x16 SLOAD AND SELFBALANCE SWAP1 GAS CALL PUSH2 0x305E PUSH2 0x1950 JUMP JUMPDEST POP ISZERO PUSH2 0x3066 JUMPI JUMP JUMPDEST PUSH1 0x84 PUSH1 0x40 MLOAD PUSH3 0x461BCD PUSH1 0xE5 SHL DUP2 MSTORE PUSH1 0x20 PUSH1 0x4 DUP3 ADD MSTORE PUSH1 0x2D PUSH1 0x24 DUP3 ADD MSTORE PUSH32 0x4572726F20616F207265746F726E6172206F732066756E646F73207061726120 PUSH1 0x44 DUP3 ADD MSTORE PUSH32 0x6120696E73746974756963616F00000000000000000000000000000000000000 PUSH1 0x64 DUP3 ADD MSTORE REVERT INVALID LOG2 PUSH5 0x6970667358 0x22 SLT KECCAK256 SMOD JUMP PUSH21 0x6E5C73C22BD732BF4095F5D64B7AC9481EBABA8F8E ADD PUSH16 0x3C3FD4D563EE64736F6C634300081300 CALLER "},"methodIdentifiers":{"acceptOwnership()":"79ba5097","checkUpkeep(bytes)":"6e04ff0d","contractBalance()":"8b7afe2e","donID()":"6e74336b","farmer()":"d811fcf0","fulfillGasLimit()":"24b93e3e","gasLimit()":"f68016b7","handleOracleFulfillment(bytes32,bytes,bytes)":"0ca76175","humidityLimit()":"a3097139","i_upkeep()":"303b137c","institution()":"d1384eb6","lastUpkeepTimeStamp()":"089ea02e","latestError()":"fffeb84e","latestRequestId()":"1aa46f59","latestResponse()":"bef3a2f0","owner()":"8da5cb5b","performUpkeep(bytes)":"4585e33b","registry()":"7b103999","reparationValue()":"48bd6f05","request()":"338cdca1","requestCBOR()":"688ecfd1","responseCounter()":"381fc4b5","s_lastError()":"4b0795a8","s_lastRequestId()":"b1e21749","s_lastResponse()":"3944ea3a","s_requestCounter()":"48802b92","s_responseCounter()":"43cd3d86","s_upkeepCounter()":"f5c1279b","sampleMaxSize()":"ebf14a55","sampleStorage(uint256)":"277e2213","setRequest(bytes,uint64,uint32,bytes32,uint256)":"472cbbb0","subscriptionId()":"09c1ba2e","transferOwnership(address)":"f2fde38b","updateInterval()":"fd2c80ae","upkeepContract()":"5e0611f1","upkeepCounter()":"a3d3c0d2","upkeepId()":"d2aa789f"}}}}}