{"contracts/Upkeep.sol":{"Upkeep":{"abi":[{"inputs":[{"internalType":"address","name":"link","type":"address"},{"internalType":"address","name":"registrar","type":"address"},{"internalType":"uint96","name":"amount","type":"uint96"}],"stateMutability":"nonpayable","type":"constructor"},{"inputs":[],"name":"fund","outputs":[],"stateMutability":"nonpayable","type":"function"},{"inputs":[],"name":"i_amount","outputs":[{"internalType":"uint96","name":"","type":"uint96"}],"stateMutability":"view","type":"function"},{"inputs":[],"name":"i_link","outputs":[{"internalType":"address","name":"","type":"address"}],"stateMutability":"view","type":"function"},{"inputs":[],"name":"i_registrar","outputs":[{"internalType":"address","name":"","type":"address"}],"stateMutability":"view","type":"function"},{"inputs":[{"components":[{"internalType":"string","name":"name","type":"string"},{"internalType":"bytes","name":"encryptedEmail","type":"bytes"},{"internalType":"address","name":"upkeepContract","type":"address"},{"internalType":"uint32","name":"gasLimit","type":"uint32"},{"internalType":"address","name":"adminAddress","type":"address"},{"internalType":"uint8","name":"triggerType","type":"uint8"},{"internalType":"bytes","name":"checkData","type":"bytes"},{"internalType":"bytes","name":"triggerConfig","type":"bytes"},{"internalType":"bytes","name":"offchainConfig","type":"bytes"},{"internalType":"uint96","name":"amount","type":"uint96"}],"internalType":"struct RegistrationParams","name":"params","type":"tuple"}],"name":"register","outputs":[{"internalType":"uint256","name":"","type":"uint256"}],"stateMutability":"nonpayable","type":"function"}],"evm":{"bytecode":{"linkReferences":{},"object":"60c0346100bc57601f61073a38819003918201601f19168301916001600160401b038311848410176100c1578084926060946040528339810103126100bc57610047816100d7565b906040610056602083016100d7565b9101516001600160601b03811692908390036100bc5760805260a052600180546001600160601b03191691909117905560405161064e90816100ec8239608051818181610114015281816101990152610373015260a0518181816101dc015261033b0152f35b600080fd5b634e487b7160e01b600052604160045260246000fd5b51906001600160a01b03821682036100bc5756fe60806040818152600436101561001457600080fd5b600091823560e01c90816301619d3d1461020057508063442b1278146101bd5780637d253aff1461017a578063b60d4288146100a95763bc61a4731461005957600080fd5b346100a557600319916020368401126100a2576004359267ffffffffffffffff84116100a5576101409084360301126100a2575061009b6020926004016102e6565b9051908152f35b80fd5b5080fd5b50346100a557816003193601126100a5576bffffffffffffffffffffffff60015416908051917f23b872dd0000000000000000000000000000000000000000000000000000000083523360048401523060248401526044830152602082606481866001600160a01b037f0000000000000000000000000000000000000000000000000000000000000000165af19081156101715750610146575080f35b6101669060203d811161016a575b61015e818361022a565b810190610262565b5080f35b503d610154565b513d84823e3d90fd5b50346100a557816003193601126100a557602090516001600160a01b037f0000000000000000000000000000000000000000000000000000000000000000168152f35b50346100a557816003193601126100a557602090516001600160a01b037f0000000000000000000000000000000000000000000000000000000000000000168152f35b8390346100a557816003193601126100a5576020906bffffffffffffffffffffffff600154168152f35b90601f8019910116810190811067ffffffffffffffff82111761024c57604052565b634e487b7160e01b600052604160045260246000fd5b9081602091031261027a5751801515810361027a5790565b600080fd5b9035601e198236030181121561027a57016020813591019167ffffffffffffffff821161027a57813603831361027a57565b908060209392818452848401376000828201840152601f01601f1916010190565b35906001600160a01b038216820361027a57565b90600091610120810135906bffffffffffffffffffffffff82168092036105ed5760408051917f095ea7b30000000000000000000000000000000000000000000000000000000083526001600160a01b0390817f00000000000000000000000000000000000000000000000000000000000000001680600486015285602486015260209485816044818c887f0000000000000000000000000000000000000000000000000000000000000000165af1801561060e576105f1575b508351957f3f678e11000000000000000000000000000000000000000000000000000000008752856004880152886103ee6103db858061027f565b61014060248c01526101648b01916102b1565b916104126103fe8987018761027f565b6023198c8703810160448e015295916102b1565b958061041f8988016102d2565b1660648b0152606086013563ffffffff81168091036105ed5760848b0152610449608087016102d2565b1660a48a015260a08501359060ff82168092036105e9576104d08a9687956104c06104b46104968e9c8a9860c48a015261048660c087018761027f565b90868b84030160e48c01526102b1565b6104a360e086018661027f565b90858a8403016101048b01526102b1565b9261010081019061027f565b91868403016101248701526102b1565b9061014483015203925af19283156105df5785936105ac575b50821561054f573385528482528420908154916801000000000000000083101561053b57600183018082558310156105275794839495815220015590565b602486634e487b7160e01b81526032600452fd5b602486634e487b7160e01b81526041600452fd5b6064925051907f08c379a00000000000000000000000000000000000000000000000000000000082526004820152601560248201527f6175746f2d617070726f76652064697361626c656400000000000000000000006044820152fd5b9092508181813d83116105d8575b6105c4818361022a565b810103126105d4575191386104e9565b8480fd5b503d6105ba565b81513d87823e3d90fd5b8280fd5b8380fd5b61060790863d881161016a5761015e818361022a565b50386103a0565b85513d8b823e3d90fdfea264697066735822122042d59ee4237b1ae05c2a5600fbfc250181d66f5dca9907f9cb39dd0c7ba96ebe64736f6c63430008130033","opcodes":"PUSH1 0xC0 CALLVALUE PUSH2 0xBC JUMPI PUSH1 0x1F PUSH2 0x73A CODESIZE DUP2 SWAP1 SUB SWAP2 DUP3 ADD PUSH1 0x1F NOT AND DUP4 ADD SWAP2 PUSH1 0x1 PUSH1 0x1 PUSH1 0x40 SHL SUB DUP4 GT DUP5 DUP5 LT OR PUSH2 0xC1 JUMPI DUP1 DUP5 SWAP3 PUSH1 0x60 SWAP5 PUSH1 0x40 MSTORE DUP4 CODECOPY DUP2 ADD SUB SLT PUSH2 0xBC JUMPI PUSH2 0x47 DUP2 PUSH2 0xD7 JUMP JUMPDEST SWAP1 PUSH1 0x40 PUSH2 0x56 PUSH1 0x20 DUP4 ADD PUSH2 0xD7 JUMP JUMPDEST SWAP2 ADD MLOAD PUSH1 0x1 PUSH1 0x1 PUSH1 0x60 SHL SUB DUP2 AND SWAP3 SWAP1 DUP4 SWAP1 SUB PUSH2 0xBC JUMPI PUSH1 0x80 MSTORE PUSH1 0xA0 MSTORE PUSH1 0x1 DUP1 SLOAD PUSH1 0x1 PUSH1 0x1 PUSH1 0x60 SHL SUB NOT AND SWAP2 SWAP1 SWAP2 OR SWAP1 SSTORE PUSH1 0x40 MLOAD PUSH2 0x64E SWAP1 DUP2 PUSH2 0xEC DUP3 CODECOPY PUSH1 0x80 MLOAD DUP2 DUP2 DUP2 PUSH2 0x114 ADD MSTORE DUP2 DUP2 PUSH2 0x199 ADD MSTORE PUSH2 0x373 ADD MSTORE PUSH1 0xA0 MLOAD DUP2 DUP2 DUP2 PUSH2 0x1DC ADD MSTORE PUSH2 0x33B ADD MSTORE RETURN JUMPDEST PUSH1 0x0 DUP1 REVERT JUMPDEST PUSH4 0x4E487B71 PUSH1 0xE0 SHL PUSH1 0x0 MSTORE PUSH1 0x41 PUSH1 0x4 MSTORE PUSH1 0x24 PUSH1 0x0 REVERT JUMPDEST MLOAD SWAP1 PUSH1 0x1 PUSH1 0x1 PUSH1 0xA0 SHL SUB DUP3 AND DUP3 SUB PUSH2 0xBC JUMPI JUMP INVALID PUSH1 0x80 PUSH1 0x40 DUP2 DUP2 MSTORE PUSH1 0x4 CALLDATASIZE LT ISZERO PUSH2 0x14 JUMPI PUSH1 0x0 DUP1 REVERT JUMPDEST PUSH1 0x0 SWAP2 DUP3 CALLDATALOAD PUSH1 0xE0 SHR SWAP1 DUP2 PUSH4 0x1619D3D EQ PUSH2 0x200 JUMPI POP DUP1 PUSH4 0x442B1278 EQ PUSH2 0x1BD JUMPI DUP1 PUSH4 0x7D253AFF EQ PUSH2 0x17A JUMPI DUP1 PUSH4 0xB60D4288 EQ PUSH2 0xA9 JUMPI PUSH4 0xBC61A473 EQ PUSH2 0x59 JUMPI PUSH1 0x0 DUP1 REVERT JUMPDEST CALLVALUE PUSH2 0xA5 JUMPI PUSH1 0x3 NOT SWAP2 PUSH1 0x20 CALLDATASIZE DUP5 ADD SLT PUSH2 0xA2 JUMPI PUSH1 0x4 CALLDATALOAD SWAP3 PUSH8 0xFFFFFFFFFFFFFFFF DUP5 GT PUSH2 0xA5 JUMPI PUSH2 0x140 SWAP1 DUP5 CALLDATASIZE SUB ADD SLT PUSH2 0xA2 JUMPI POP PUSH2 0x9B PUSH1 0x20 SWAP3 PUSH1 0x4 ADD PUSH2 0x2E6 JUMP JUMPDEST SWAP1 MLOAD SWAP1 DUP2 MSTORE RETURN JUMPDEST DUP1 REVERT JUMPDEST POP DUP1 REVERT JUMPDEST POP CALLVALUE PUSH2 0xA5 JUMPI DUP2 PUSH1 0x3 NOT CALLDATASIZE ADD SLT PUSH2 0xA5 JUMPI PUSH12 0xFFFFFFFFFFFFFFFFFFFFFFFF PUSH1 0x1 SLOAD AND SWAP1 DUP1 MLOAD SWAP2 PUSH32 0x23B872DD00000000000000000000000000000000000000000000000000000000 DUP4 MSTORE CALLER PUSH1 0x4 DUP5 ADD MSTORE ADDRESS PUSH1 0x24 DUP5 ADD MSTORE PUSH1 0x44 DUP4 ADD MSTORE PUSH1 0x20 DUP3 PUSH1 0x64 DUP2 DUP7 PUSH1 0x1 PUSH1 0x1 PUSH1 0xA0 SHL SUB PUSH32 0x0 AND GAS CALL SWAP1 DUP2 ISZERO PUSH2 0x171 JUMPI POP PUSH2 0x146 JUMPI POP DUP1 RETURN JUMPDEST PUSH2 0x166 SWAP1 PUSH1 0x20 RETURNDATASIZE DUP2 GT PUSH2 0x16A JUMPI JUMPDEST PUSH2 0x15E DUP2 DUP4 PUSH2 0x22A JUMP JUMPDEST DUP2 ADD SWAP1 PUSH2 0x262 JUMP JUMPDEST POP DUP1 RETURN JUMPDEST POP RETURNDATASIZE PUSH2 0x154 JUMP JUMPDEST MLOAD RETURNDATASIZE DUP5 DUP3 RETURNDATACOPY RETURNDATASIZE SWAP1 REVERT JUMPDEST POP CALLVALUE PUSH2 0xA5 JUMPI DUP2 PUSH1 0x3 NOT CALLDATASIZE ADD SLT PUSH2 0xA5 JUMPI PUSH1 0x20 SWAP1 MLOAD PUSH1 0x1 PUSH1 0x1 PUSH1 0xA0 SHL SUB PUSH32 0x0 AND DUP2 MSTORE RETURN JUMPDEST POP CALLVALUE PUSH2 0xA5 JUMPI DUP2 PUSH1 0x3 NOT CALLDATASIZE ADD SLT PUSH2 0xA5 JUMPI PUSH1 0x20 SWAP1 MLOAD PUSH1 0x1 PUSH1 0x1 PUSH1 0xA0 SHL SUB PUSH32 0x0 AND DUP2 MSTORE RETURN JUMPDEST DUP4 SWAP1 CALLVALUE PUSH2 0xA5 JUMPI DUP2 PUSH1 0x3 NOT CALLDATASIZE ADD SLT PUSH2 0xA5 JUMPI PUSH1 0x20 SWAP1 PUSH12 0xFFFFFFFFFFFFFFFFFFFFFFFF PUSH1 0x1 SLOAD AND DUP2 MSTORE RETURN JUMPDEST SWAP1 PUSH1 0x1F DUP1 NOT SWAP2 ADD AND DUP2 ADD SWAP1 DUP2 LT PUSH8 0xFFFFFFFFFFFFFFFF DUP3 GT OR PUSH2 0x24C JUMPI PUSH1 0x40 MSTORE JUMP JUMPDEST PUSH4 0x4E487B71 PUSH1 0xE0 SHL PUSH1 0x0 MSTORE PUSH1 0x41 PUSH1 0x4 MSTORE PUSH1 0x24 PUSH1 0x0 REVERT JUMPDEST SWAP1 DUP2 PUSH1 0x20 SWAP2 SUB SLT PUSH2 0x27A JUMPI MLOAD DUP1 ISZERO ISZERO DUP2 SUB PUSH2 0x27A JUMPI SWAP1 JUMP JUMPDEST PUSH1 0x0 DUP1 REVERT JUMPDEST SWAP1 CALLDATALOAD PUSH1 0x1E NOT DUP3 CALLDATASIZE SUB ADD DUP2 SLT ISZERO PUSH2 0x27A JUMPI ADD PUSH1 0x20 DUP2 CALLDATALOAD SWAP2 ADD SWAP2 PUSH8 0xFFFFFFFFFFFFFFFF DUP3 GT PUSH2 0x27A JUMPI DUP2 CALLDATASIZE SUB DUP4 SGT PUSH2 0x27A JUMPI JUMP JUMPDEST SWAP1 DUP1 PUSH1 0x20 SWAP4 SWAP3 DUP2 DUP5 MSTORE DUP5 DUP5 ADD CALLDATACOPY PUSH1 0x0 DUP3 DUP3 ADD DUP5 ADD MSTORE PUSH1 0x1F ADD PUSH1 0x1F NOT AND ADD ADD SWAP1 JUMP JUMPDEST CALLDATALOAD SWAP1 PUSH1 0x1 PUSH1 0x1 PUSH1 0xA0 SHL SUB DUP3 AND DUP3 SUB PUSH2 0x27A JUMPI JUMP JUMPDEST SWAP1 PUSH1 0x0 SWAP2 PUSH2 0x120 DUP2 ADD CALLDATALOAD SWAP1 PUSH12 0xFFFFFFFFFFFFFFFFFFFFFFFF DUP3 AND DUP1 SWAP3 SUB PUSH2 0x5ED JUMPI PUSH1 0x40 DUP1 MLOAD SWAP2 PUSH32 0x95EA7B300000000000000000000000000000000000000000000000000000000 DUP4 MSTORE PUSH1 0x1 PUSH1 0x1 PUSH1 0xA0 SHL SUB SWAP1 DUP2 PUSH32 0x0 AND DUP1 PUSH1 0x4 DUP7 ADD MSTORE DUP6 PUSH1 0x24 DUP7 ADD MSTORE PUSH1 0x20 SWAP5 DUP6 DUP2 PUSH1 0x44 DUP2 DUP13 DUP9 PUSH32 0x0 AND GAS CALL DUP1 ISZERO PUSH2 0x60E JUMPI PUSH2 0x5F1 JUMPI JUMPDEST POP DUP4 MLOAD SWAP6 PUSH32 0x3F678E1100000000000000000000000000000000000000000000000000000000 DUP8 MSTORE DUP6 PUSH1 0x4 DUP9 ADD MSTORE DUP9 PUSH2 0x3EE PUSH2 0x3DB DUP6 DUP1 PUSH2 0x27F JUMP JUMPDEST PUSH2 0x140 PUSH1 0x24 DUP13 ADD MSTORE PUSH2 0x164 DUP12 ADD SWAP2 PUSH2 0x2B1 JUMP JUMPDEST SWAP2 PUSH2 0x412 PUSH2 0x3FE DUP10 DUP8 ADD DUP8 PUSH2 0x27F JUMP JUMPDEST PUSH1 0x23 NOT DUP13 DUP8 SUB DUP2 ADD PUSH1 0x44 DUP15 ADD MSTORE SWAP6 SWAP2 PUSH2 0x2B1 JUMP JUMPDEST SWAP6 DUP1 PUSH2 0x41F DUP10 DUP9 ADD PUSH2 0x2D2 JUMP JUMPDEST AND PUSH1 0x64 DUP12 ADD MSTORE PUSH1 0x60 DUP7 ADD CALLDATALOAD PUSH4 0xFFFFFFFF DUP2 AND DUP1 SWAP2 SUB PUSH2 0x5ED JUMPI PUSH1 0x84 DUP12 ADD MSTORE PUSH2 0x449 PUSH1 0x80 DUP8 ADD PUSH2 0x2D2 JUMP JUMPDEST AND PUSH1 0xA4 DUP11 ADD MSTORE PUSH1 0xA0 DUP6 ADD CALLDATALOAD SWAP1 PUSH1 0xFF DUP3 AND DUP1 SWAP3 SUB PUSH2 0x5E9 JUMPI PUSH2 0x4D0 DUP11 SWAP7 DUP8 SWAP6 PUSH2 0x4C0 PUSH2 0x4B4 PUSH2 0x496 DUP15 SWAP13 DUP11 SWAP9 PUSH1 0xC4 DUP11 ADD MSTORE PUSH2 0x486 PUSH1 0xC0 DUP8 ADD DUP8 PUSH2 0x27F JUMP JUMPDEST SWAP1 DUP7 DUP12 DUP5 SUB ADD PUSH1 0xE4 DUP13 ADD MSTORE PUSH2 0x2B1 JUMP JUMPDEST PUSH2 0x4A3 PUSH1 0xE0 DUP7 ADD DUP7 PUSH2 0x27F JUMP JUMPDEST SWAP1 DUP6 DUP11 DUP5 SUB ADD PUSH2 0x104 DUP12 ADD MSTORE PUSH2 0x2B1 JUMP JUMPDEST SWAP3 PUSH2 0x100 DUP2 ADD SWAP1 PUSH2 0x27F JUMP JUMPDEST SWAP2 DUP7 DUP5 SUB ADD PUSH2 0x124 DUP8 ADD MSTORE PUSH2 0x2B1 JUMP JUMPDEST SWAP1 PUSH2 0x144 DUP4 ADD MSTORE SUB SWAP3 GAS CALL SWAP3 DUP4 ISZERO PUSH2 0x5DF JUMPI DUP6 SWAP4 PUSH2 0x5AC JUMPI JUMPDEST POP DUP3 ISZERO PUSH2 0x54F JUMPI CALLER DUP6 MSTORE DUP5 DUP3 MSTORE DUP5 KECCAK256 SWAP1 DUP2 SLOAD SWAP2 PUSH9 0x10000000000000000 DUP4 LT ISZERO PUSH2 0x53B JUMPI PUSH1 0x1 DUP4 ADD DUP1 DUP3 SSTORE DUP4 LT ISZERO PUSH2 0x527 JUMPI SWAP5 DUP4 SWAP5 SWAP6 DUP2 MSTORE KECCAK256 ADD SSTORE SWAP1 JUMP JUMPDEST PUSH1 0x24 DUP7 PUSH4 0x4E487B71 PUSH1 0xE0 SHL DUP2 MSTORE PUSH1 0x32 PUSH1 0x4 MSTORE REVERT JUMPDEST PUSH1 0x24 DUP7 PUSH4 0x4E487B71 PUSH1 0xE0 SHL DUP2 MSTORE PUSH1 0x41 PUSH1 0x4 MSTORE REVERT JUMPDEST PUSH1 0x64 SWAP3 POP MLOAD SWAP1 PUSH32 0x8C379A000000000000000000000000000000000000000000000000000000000 DUP3 MSTORE PUSH1 0x4 DUP3 ADD MSTORE PUSH1 0x15 PUSH1 0x24 DUP3 ADD MSTORE PUSH32 0x6175746F2D617070726F76652064697361626C65640000000000000000000000 PUSH1 0x44 DUP3 ADD MSTORE REVERT JUMPDEST SWAP1 SWAP3 POP DUP2 DUP2 DUP2 RETURNDATASIZE DUP4 GT PUSH2 0x5D8 JUMPI JUMPDEST PUSH2 0x5C4 DUP2 DUP4 PUSH2 0x22A JUMP JUMPDEST DUP2 ADD SUB SLT PUSH2 0x5D4 JUMPI MLOAD SWAP2 CODESIZE PUSH2 0x4E9 JUMP JUMPDEST DUP5 DUP1 REVERT JUMPDEST POP RETURNDATASIZE PUSH2 0x5BA JUMP JUMPDEST DUP2 MLOAD RETURNDATASIZE DUP8 DUP3 RETURNDATACOPY RETURNDATASIZE SWAP1 REVERT JUMPDEST DUP3 DUP1 REVERT JUMPDEST DUP4 DUP1 REVERT JUMPDEST PUSH2 0x607 SWAP1 DUP7 RETURNDATASIZE DUP9 GT PUSH2 0x16A JUMPI PUSH2 0x15E DUP2 DUP4 PUSH2 0x22A JUMP JUMPDEST POP CODESIZE PUSH2 0x3A0 JUMP JUMPDEST DUP6 MLOAD RETURNDATASIZE DUP12 DUP3 RETURNDATACOPY RETURNDATASIZE SWAP1 REVERT INVALID LOG2 PUSH5 0x6970667358 0x22 SLT KECCAK256 TIMESTAMP 0xD5 SWAP15 0xE4 0x23 PUSH28 0x1AE05C2A5600FBFC250181D66F5DCA9907F9CB39DD0C7BA96EBE6473 PUSH16 0x6C634300081300330000000000000000 "},"methodIdentifiers":{"fund()":"b60d4288","i_amount()":"01619d3d","i_link()":"7d253aff","i_registrar()":"442b1278","register((string,bytes,address,uint32,address,uint8,bytes,bytes,bytes,uint96))":"bc61a473"}}}}}