{"contracts/mock/mockAutomatedFunctionsConsumer.sol":{"AutomatedFunctionsConsumer":{"abi":[{"inputs":[{"internalType":"address","name":"_deployer","type":"address"},{"internalType":"address","name":"_farmer","type":"address"},{"internalType":"uint256","name":"_humidityLimit","type":"uint256"},{"internalType":"uint256","name":"_sampleMaxSize","type":"uint256"},{"internalType":"uint256","name":"_reparationValue","type":"uint256"},{"internalType":"uint256","name":"_interval","type":"uint256"},{"internalType":"address","name":"_router","type":"address"},{"internalType":"uint64","name":"_subscriptionId","type":"uint64"},{"internalType":"address","name":"_registry","type":"address"},{"internalType":"address","name":"_sepoliaLINKAddress","type":"address"},{"internalType":"address","name":"_sepoliaRegistrarAddress","type":"address"},{"internalType":"uint32","name":"_fulfillGasLimit","type":"uint32"}],"stateMutability":"payable","type":"constructor"},{"inputs":[{"internalType":"address","name":"caller","type":"address"},{"internalType":"address","name":"owner","type":"address"},{"internalType":"address","name":"automationRegistry","type":"address"}],"name":"NotAllowedCaller","type":"error"},{"inputs":[{"internalType":"bytes32","name":"requestId","type":"bytes32"}],"name":"UnexpectedRequestID","type":"error"},{"anonymous":false,"inputs":[{"indexed":false,"internalType":"uint8","name":"controlFlag","type":"uint8"}],"name":"ControlFlagValue","type":"event"},{"anonymous":false,"inputs":[{"indexed":true,"internalType":"bytes32","name":"requestId","type":"bytes32"},{"indexed":false,"internalType":"bytes","name":"result","type":"bytes"},{"indexed":false,"internalType":"bytes","name":"err","type":"bytes"}],"name":"OCRResponse","type":"event"},{"anonymous":false,"inputs":[{"indexed":true,"internalType":"address","name":"from","type":"address"},{"indexed":true,"internalType":"address","name":"to","type":"address"}],"name":"OwnershipTransferRequested","type":"event"},{"anonymous":false,"inputs":[{"indexed":true,"internalType":"address","name":"from","type":"address"},{"indexed":true,"internalType":"address","name":"to","type":"address"}],"name":"OwnershipTransferred","type":"event"},{"anonymous":false,"inputs":[{"indexed":false,"internalType":"bytes32","name":"requestId","type":"bytes32"}],"name":"RequestIdUpdated","type":"event"},{"anonymous":false,"inputs":[{"indexed":false,"internalType":"string","name":"reason","type":"string"}],"name":"RequestRevertedWithErrorMsg","type":"event"},{"anonymous":false,"inputs":[{"indexed":false,"internalType":"bytes","name":"data","type":"bytes"}],"name":"RequestRevertedWithoutErrorMsg","type":"event"},{"anonymous":false,"inputs":[{"indexed":true,"internalType":"bytes32","name":"id","type":"bytes32"}],"name":"RequestSent","type":"event"},{"anonymous":false,"inputs":[{"indexed":true,"internalType":"bytes32","name":"requestId","type":"bytes32"},{"indexed":false,"internalType":"bytes","name":"response","type":"bytes"},{"indexed":false,"internalType":"bytes","name":"err","type":"bytes"}],"name":"Response","type":"event"},{"anonymous":false,"inputs":[{"indexed":false,"internalType":"uint256","name":"length","type":"uint256"}],"name":"sampleStorageLength","type":"event"},{"anonymous":false,"inputs":[{"indexed":false,"internalType":"address","name":"upkeepAddress","type":"address"}],"name":"upkeepCreated","type":"event"},{"anonymous":false,"inputs":[{"indexed":false,"internalType":"uint256","name":"upkeepId","type":"uint256"}],"name":"upkeepRegistered","type":"event"},{"inputs":[],"name":"REQUEST_DATA_VERSION","outputs":[{"internalType":"uint16","name":"","type":"uint16"}],"stateMutability":"view","type":"function"},{"inputs":[],"name":"acceptOwnership","outputs":[],"stateMutability":"nonpayable","type":"function"},{"inputs":[{"internalType":"bytes","name":"","type":"bytes"}],"name":"checkUpkeep","outputs":[{"internalType":"bool","name":"upkeepNeeded","type":"bool"},{"internalType":"bytes","name":"performData","type":"bytes"}],"stateMutability":"view","type":"function"},{"inputs":[],"name":"computationCBOR","outputs":[{"internalType":"bytes","name":"","type":"bytes"}],"stateMutability":"view","type":"function"},{"inputs":[],"name":"contractBalance","outputs":[{"internalType":"uint256","name":"","type":"uint256"}],"stateMutability":"view","type":"function"},{"inputs":[],"name":"donID","outputs":[{"internalType":"bytes32","name":"","type":"bytes32"}],"stateMutability":"view","type":"function"},{"inputs":[],"name":"farmer","outputs":[{"internalType":"address","name":"","type":"address"}],"stateMutability":"view","type":"function"},{"inputs":[],"name":"fulfillGasLimit","outputs":[{"internalType":"uint32","name":"","type":"uint32"}],"stateMutability":"view","type":"function"},{"inputs":[{"internalType":"bytes32","name":"requestId","type":"bytes32"},{"internalType":"bytes","name":"response","type":"bytes"},{"internalType":"bytes","name":"err","type":"bytes"}],"name":"fulfillRequest","outputs":[],"stateMutability":"nonpayable","type":"function"},{"inputs":[],"name":"gasLimit","outputs":[{"internalType":"uint32","name":"","type":"uint32"}],"stateMutability":"view","type":"function"},{"inputs":[],"name":"humidityLimit","outputs":[{"internalType":"uint256","name":"","type":"uint256"}],"stateMutability":"view","type":"function"},{"inputs":[],"name":"institution","outputs":[{"internalType":"address","name":"","type":"address"}],"stateMutability":"view","type":"function"},{"inputs":[],"name":"interval","outputs":[{"internalType":"uint256","name":"","type":"uint256"}],"stateMutability":"view","type":"function"},{"inputs":[],"name":"lastUpkeepTimeStamp","outputs":[{"internalType":"uint256","name":"","type":"uint256"}],"stateMutability":"view","type":"function"},{"inputs":[],"name":"latestError","outputs":[{"internalType":"bytes","name":"","type":"bytes"}],"stateMutability":"view","type":"function"},{"inputs":[],"name":"latestRequestId","outputs":[{"internalType":"bytes32","name":"","type":"bytes32"}],"stateMutability":"view","type":"function"},{"inputs":[],"name":"latestResponse","outputs":[{"internalType":"bytes","name":"","type":"bytes"}],"stateMutability":"view","type":"function"},{"inputs":[],"name":"owner","outputs":[{"internalType":"address","name":"","type":"address"}],"stateMutability":"view","type":"function"},{"inputs":[{"internalType":"bytes","name":"","type":"bytes"},{"internalType":"uint256","name":"mockSampleStorageLength","type":"uint256"}],"name":"performUpkeep","outputs":[],"stateMutability":"nonpayable","type":"function"},{"inputs":[],"name":"registry","outputs":[{"internalType":"address","name":"","type":"address"}],"stateMutability":"view","type":"function"},{"inputs":[],"name":"reparationValue","outputs":[{"internalType":"uint256","name":"","type":"uint256"}],"stateMutability":"view","type":"function"},{"inputs":[],"name":"request","outputs":[{"internalType":"bytes","name":"","type":"bytes"}],"stateMutability":"view","type":"function"},{"inputs":[],"name":"requestCBOR","outputs":[{"internalType":"bytes","name":"","type":"bytes"}],"stateMutability":"view","type":"function"},{"inputs":[],"name":"requestId","outputs":[{"internalType":"bytes32","name":"","type":"bytes32"}],"stateMutability":"view","type":"function"},{"inputs":[{"internalType":"bytes32","name":"","type":"bytes32"},{"internalType":"uint256","name":"","type":"uint256"}],"name":"requests","outputs":[{"internalType":"uint64","name":"subscriptionId","type":"uint64"},{"internalType":"bytes","name":"data","type":"bytes"},{"internalType":"uint16","name":"DATA_VERSION","type":"uint16"},{"internalType":"uint32","name":"callbackGasLimit","type":"uint32"},{"internalType":"bytes32","name":"donId","type":"bytes32"}],"stateMutability":"view","type":"function"},{"inputs":[],"name":"responseCounter","outputs":[{"internalType":"uint256","name":"","type":"uint256"}],"stateMutability":"view","type":"function"},{"inputs":[],"name":"router","outputs":[{"internalType":"address","name":"","type":"address"}],"stateMutability":"view","type":"function"},{"inputs":[],"name":"s_lastError","outputs":[{"internalType":"bytes","name":"","type":"bytes"}],"stateMutability":"view","type":"function"},{"inputs":[],"name":"s_lastRequestId","outputs":[{"internalType":"bytes32","name":"","type":"bytes32"}],"stateMutability":"view","type":"function"},{"inputs":[],"name":"s_lastResponse","outputs":[{"internalType":"bytes","name":"","type":"bytes"}],"stateMutability":"view","type":"function"},{"inputs":[],"name":"s_requestCounter","outputs":[{"internalType":"uint256","name":"","type":"uint256"}],"stateMutability":"view","type":"function"},{"inputs":[],"name":"s_responseCounter","outputs":[{"internalType":"uint256","name":"","type":"uint256"}],"stateMutability":"view","type":"function"},{"inputs":[],"name":"s_upkeepCounter","outputs":[{"internalType":"uint256","name":"","type":"uint256"}],"stateMutability":"view","type":"function"},{"inputs":[],"name":"sampleMaxSize","outputs":[{"internalType":"uint256","name":"","type":"uint256"}],"stateMutability":"view","type":"function"},{"inputs":[{"internalType":"uint256","name":"","type":"uint256"}],"name":"sampleStorage","outputs":[{"internalType":"string","name":"","type":"string"}],"stateMutability":"view","type":"function"},{"inputs":[],"name":"sepoliaLINKAddress","outputs":[{"internalType":"address","name":"","type":"address"}],"stateMutability":"view","type":"function"},{"inputs":[],"name":"sepoliaRegistrarAddress","outputs":[{"internalType":"address","name":"","type":"address"}],"stateMutability":"view","type":"function"},{"inputs":[{"internalType":"bytes","name":"receivedCBOR","type":"bytes"}],"name":"setComputation","outputs":[],"stateMutability":"nonpayable","type":"function"},{"inputs":[{"internalType":"bytes","name":"newRequestCBOR","type":"bytes"},{"internalType":"uint64","name":"_subscriptionId","type":"uint64"},{"internalType":"bytes32","name":"_donID","type":"bytes32"}],"name":"setRequest","outputs":[],"stateMutability":"nonpayable","type":"function"},{"inputs":[],"name":"subscriptionId","outputs":[{"internalType":"uint64","name":"","type":"uint64"}],"stateMutability":"view","type":"function"},{"inputs":[{"internalType":"address","name":"to","type":"address"}],"name":"transferOwnership","outputs":[],"stateMutability":"nonpayable","type":"function"},{"inputs":[],"name":"upkeepContract","outputs":[{"internalType":"address","name":"","type":"address"}],"stateMutability":"view","type":"function"},{"inputs":[],"name":"upkeepCounter","outputs":[{"internalType":"uint256","name":"","type":"uint256"}],"stateMutability":"view","type":"function"},{"inputs":[],"name":"upkeepId","outputs":[{"internalType":"uint256","name":"","type":"uint256"}],"stateMutability":"view","type":"function"}],"evm":{"bytecode":{"linkReferences":{},"object":"60806001600160401b03601f620025a538819003918201601f191684019183831185841017620001d15780859261018094604052833981010312620001cc576200004982620001e7565b6200005760208401620001e7565b9260408101519060608101519260808201519160a0810151936200007e60c08301620001e7565b60e0830151978816809803620001cc576200009d6101008401620001e7565b98620000ad6101208501620001e7565b91610160620000c06101408701620001e7565b9501519763ffffffff89168903620001cc57600180556001600160a01b0396871697881562000187576bffffffff00000000000000009a88968780968c60018060a01b03199d8e60035416176003558d601c541617601c55168b601d541617601d55602055602155601f55600a551685600c541617600c5581600954991685600d541617600d551683601a541617601a551690601b541617601b5560401b169160018060601b0319161717600955426018556001600e556040516123a89081620001fd8239f35b60405162461bcd60e51b815260206004820152601860248201527f43616e6e6f7420736574206f776e657220746f207a65726f00000000000000006044820152606490fd5b600080fd5b634e487b7160e01b600052604160045260246000fd5b51906001600160a01b0382168203620001cc5756fe6080604052600436101561001257600080fd5b60003560e01c80626d6cae146102d6578063089ea02e146102d157806309c1ba2e146102cc5780631243bcc3146102c75780631aa46f59146102c257806324b93e3e146102bd578063277e2213146102b8578063338cdca1146102b357806336e6a92f146102ae578063381fc4b5146102a95780633944ea3a146102a457806339b051221461029f57806343cd3d861461029a57806348802b921461029557806348bd6f05146102905780634b0795a81461028b5780635d641dfc146102865780635e0611f114610281578063688ecfd11461027c5780636baa48fe146102775780636e04ff0d146102725780636e74336b1461026d57806379ba5097146102685780637b103999146102635780637d95f68a1461025e5780638b7afe2e146102595780638da5cb5b14610254578063947a36fb1461024f5780639655e6d81461024a578063a309713914610245578063a3d3c0d214610240578063b1e217491461023b578063b8a4836e14610236578063bd4ca97b14610231578063bef3a2f01461022c578063d1384eb614610227578063d2aa789f14610222578063d811fcf01461021d578063ebf14a5514610218578063f2fde38b14610213578063f5c1279b1461020e578063f68016b714610209578063f887ea40146102045763fffeb84e146101ff57600080fd5b611609565b6115e2565b6115be565b6115a0565b6114c1565b6114a3565b61147c565b61145e565b611437565b611390565b611374565b6112cd565b6112af565b611291565b611274565b6111f8565b61117c565b611155565b611139565b61101e565b610ff7565b610f16565b610ef8565b610e7f565b610e58565b610e28565b610e01565b610de5565b610d3e565b610d20565b610d02565b610ce4565b610b83565b610a79565b610a5b565b6108f1565b6107ee565b610501565b610384565b610366565b61033f565b610317565b6102f9565b346102f45760003660031901126102f4576020600054604051908152f35b600080fd5b346102f45760003660031901126102f4576020601854604051908152f35b346102f45760003660031901126102f457602067ffffffffffffffff60095416604051908152f35b346102f45760003660031901126102f45760206001600160a01b03601a5416604051908152f35b346102f45760003660031901126102f4576020600654604051908152f35b346102f45760003660031901126102f457602060095463ffffffff6040519160401c168152f35b634e487b7160e01b600052603260045260246000fd5b6022548110156103f85760226000527f61035b26e3e9eee00e0d72fd1ee8ddca6894550dca6916ea2ac6baa90d11e5100190600090565b6103ab565b634e487b7160e01b600052600060045260246000fd5b90600182811c92168015610443575b602083101461042d57565b634e487b7160e01b600052602260045260246000fd5b91607f1691610422565b634e487b7160e01b600052604160045260246000fd5b90601f8019910116810190811067ffffffffffffffff82111761048557604052565b61044d565b60005b82811061049c57506000910152565b60808101518282015260200161048d565b919082519283825260005b8481106104d9575050826000602080949584010152601f8019910116010190565b6020818301810151848301820152016104b8565b9060206104fe9281815201906104ad565b90565b346102f4576020806003193601126102f4576004356022548110156102f45760226000527f61035b26e3e9eee00e0d72fd1ee8ddca6894550dca6916ea2ac6baa90d11e510019060405190600092805461055a81610413565b808552916001918083169081156105d15750600114610594575b6105908561058481890382610463565b604051918291826104ed565b0390f35b6000908152838120939550925b8284106105be575050508161059093610584928201019338610574565b80548585018701529285019281016105a1565b60ff191686860152505050151560051b82010191506105848161059038610574565b604051906000826005549161060783610413565b8083529260019081811690811561068f5750600114610630575b5061062e92500383610463565b565b6005600090815291507f036b6384b5eca791c62761152d0c79bb0604c104a5fb6f4eb0703f3154bb3db05b848310610674575061062e935050810160200138610621565b81935090816020925483858a0101520191019091859261065b565b90506020925061062e94915060ff191682840152151560051b82010138610621565b60405190600082602454916106c583610413565b8083529260019081811690811561068f57506001146106eb575061062e92500383610463565b6024600090815291507f7cd332d19b93bcabe3cce7ca0c18a052f57e5fd03b4758a09f30f5ddc4b22ec45b84831061072f575061062e935050810160200138610621565b81935090816020925483858a01015201910190918592610716565b906040519182600082549261075e84610413565b9081845260019485811690816000146107cb5750600114610788575b505061062e92500383610463565b9093915060005260209081600020936000915b8183106107b357505061062e9350820101388061077a565b8554888401850152948501948794509183019161079b565b91505061062e94506020925060ff191682840152151560051b820101388061077a565b346102f4576000806003193601126108c0576040519080600f5461081181610413565b80855291600191808316908115610896575060011461083b575b6105908561058481870382610463565b9250600f83527f8d1108e10bcb7c27dddfc02ed9d693a074039d026cf4ea4240b40f7d581ac8025b82841061087e5750505081016020016105848261059061082b565b80546020858701810191909152909301928101610863565b8695506105909693506020925061058494915060ff191682840152151560051b820101929361082b565b80fd5b9181601f840112156102f45782359167ffffffffffffffff83116102f457602083818601950101116102f457565b346102f45760603660031901126102f45767ffffffffffffffff6004358181116102f4576109239036906004016108c3565b91906024359180831683036102f45761093a6116b0565b8311610485576109548361094f600554610413565b61171f565b600090601f84116001146109bb576109a39391600091836109b0575b50508160011b916000199060031b1c19161760055567ffffffffffffffff1667ffffffffffffffff196009541617600955565b6109ae604435601155565b005b013590503880610970565b60056000527f036b6384b5eca791c62761152d0c79bb0604c104a5fb6f4eb0703f3154bb3db091601f198516815b818110610a4357509160019391866109a3979410610a29575b505050811b0160055567ffffffffffffffff1667ffffffffffffffff196009541617600955565b0135600019600384901b60f8161c19169055388080610a02565b919360206001819287870135815501950192016109e9565b346102f45760003660031901126102f4576020600b54604051908152f35b346102f4576000806003193601126108c0576040519080601354610a9c81610413565b808552916001918083169081156108965750600114610ac5576105908561058481870382610463565b9250601383527f66de8ffda797e3de9c05e8fc57b3bf0ec28a930d40b0d285d93c06501cf6a0905b828410610b085750505081016020016105848261059061082b565b80546020858701810191909152909301928101610aed565b67ffffffffffffffff811161048557601f01601f191660200190565b81601f820112156102f457803590610b5382610b20565b92610b616040519485610463565b828452602083830101116102f457816000926020809301838601378301015290565b346102f45760603660031901126102f45767ffffffffffffffff6024358181116102f457610bb5903690600401610b3c565b906044359081116102f457610cc1610bf27f7bab0ec163b5c132c72b8146ac4d6e067e82ed58f8b131150aa71c9258911562923690600401610b3c565b610bfb84611b3b565b610c0481611c25565b610c17610c12600b546119a2565b600b55565b601e5460a01c60ff16610cc657610c2d8461222c565b610c67610c62610c3c86611d32565b517fff000000000000000000000000000000000000000000000000000000000000001690565b61229c565b610c7884610c73611d3f565b612315565b610c8184611d89565b6022546040519081527fb8c1b3113292644df2bf7f437c82a485b897c95ec146ca6ca3dea2ec2f674ad990602090a15b6040519182916004359583611e86565b0390a2005b610cd7610cd285611d0f565b602555565b610cdf611f26565b610cb1565b346102f45760003660031901126102f4576020601754604051908152f35b346102f45760003660031901126102f4576020601654604051908152f35b346102f45760003660031901126102f4576020601f54604051908152f35b346102f4576000806003193601126108c0576040519080601454610d6181610413565b808552916001918083169081156108965750600114610d8a576105908561058481870382610463565b9250601483527fce6d7b5282bd9a3661ae061feed1dbda4e52ab073b1f9285be6e155d9c38d4ec5b828410610dcd5750505081016020016105848261059061082b565b80546020858701810191909152909301928101610db2565b346102f45760003660031901126102f457602060405160018152f35b346102f45760003660031901126102f45760206001600160a01b03601e5416604051908152f35b346102f45760003660031901126102f457610590610e446105f3565b6040519182916020835260208301906104ad565b346102f45760003660031901126102f45760206001600160a01b03601b5416604051908152f35b346102f45760203660031901126102f45760043567ffffffffffffffff81116102f457610eb0903690600401610b3c565b506018544203428111610ef357600a5410604051908152604060208201526060818151806040830152610ee58184840161048a565b601f01601f19168101030190f35b6118bc565b346102f45760003660031901126102f4576020601154604051908152f35b346102f4576000806003193601126108c0576001600160a01b0380600454163303610fb3576003546001600160a01b03166003805473ffffffffffffffffffffffffffffffffffffffff19163317905590610f8973ffffffffffffffffffffffffffffffffffffffff1960045416600455565b3391167f8be0079c531659141344cd1fd0a4f28419497f9722a3daafe3b4186f6b6457e08380a380f35b606460405162461bcd60e51b815260206004820152601660248201527f4d7573742062652070726f706f736564206f776e6572000000000000000000006044820152fd5b346102f45760003660031901126102f45760206001600160a01b03600d5416604051908152f35b346102f4576020806003193601126102f45767ffffffffffffffff6004358181116102f4576110519036906004016108c3565b9161105a6116b0565b8211610485576110748261106f602454610413565b611780565b600092601f83116001146110b257509181926000926110a7575b5050600019600383901b1c191660019190911b17602455005b01359050388061108e565b90601f198316936110e560246000527f7cd332d19b93bcabe3cce7ca0c18a052f57e5fd03b4758a09f30f5ddc4b22ec490565b9281905b8682106111215750508360019510611107575b505050811b01602455005b0135600019600384901b60f8161c191690553880806110fc565b806001849682949587013581550195019201906110e9565b346102f45760003660031901126102f457602047604051908152f35b346102f45760003660031901126102f45760206001600160a01b0360035416604051908152f35b346102f45760003660031901126102f4576020600a54604051908152f35b80548210156103f85760005260206000209060021b0190600090565b919361ffff6111e760809598979667ffffffffffffffff63ffffffff9516865260a0602087015260a08601906104ad565b971660408401521660608201520152565b346102f45760403660031901126102f457602435600435600052600260205260406000209081548110156102f45761122f9161119a565b5067ffffffffffffffff8154169061059061124c6001830161074a565b91600360028201549101549060405194859461ffff63ffffffff8460101c16931691866111b6565b346102f45760003660031901126102f45760208054604051908152f35b346102f45760003660031901126102f4576020601954604051908152f35b346102f45760003660031901126102f4576020601254604051908152f35b346102f45760403660031901126102f45760043567ffffffffffffffff81116102f4576112fe9036906004016108c3565b50506001600160a01b0380600354168033141580611366575b611326576109ae6024356119b0565b606491601e5416604051917f426fbc7100000000000000000000000000000000000000000000000000000000835233600484015260248301526044820152fd5b5081601e5416331415611317565b346102f45760003660031901126102f457610590610e446106b1565b346102f4576000806003193601126108c05760405190806007546113b381610413565b8085529160019180831690811561089657506001146113dc576105908561058481870382610463565b9250600783527fa66cc928b5edb82af9bd49922954155ab7b0942694bea4ce44661d9a8736c6885b82841061141f5750505081016020016105848261059061082b565b80546020858701810191909152909301928101611404565b346102f45760003660031901126102f45760206001600160a01b03601c5416604051908152f35b346102f45760003660031901126102f4576020600e54604051908152f35b346102f45760003660031901126102f45760206001600160a01b03601d5416604051908152f35b346102f45760003660031901126102f4576020602154604051908152f35b346102f45760203660031901126102f4576004356001600160a01b0381168091036102f4576114ee6116b0565b33811461155c578073ffffffffffffffffffffffffffffffffffffffff1960045416176004556115356115296003546001600160a01b031690565b6001600160a01b031690565b7fed8889f560326eb138920d842192f0eb3dd22b4f139c87a2c57538e05bae1278600080a3005b606460405162461bcd60e51b815260206004820152601760248201527f43616e6e6f74207472616e7366657220746f2073656c660000000000000000006044820152fd5b346102f45760003660031901126102f4576020601554604051908152f35b346102f45760003660031901126102f457602063ffffffff60105416604051908152f35b346102f45760003660031901126102f45760206001600160a01b03600c5416604051908152f35b346102f4576000806003193601126108c057604051908060085461162c81610413565b808552916001918083169081156108965750600114611655576105908561058481870382610463565b9250600883527ff3f7a9fe364faab93b216da50a3214154f22a0a2b415b23a84c8169e8b636ee35b8284106116985750505081016020016105848261059061082b565b8054602085870181019190915290930192810161167d565b6001600160a01b036003541633036116c457565b606460405162461bcd60e51b815260206004820152601660248201527f4f6e6c792063616c6c61626c65206279206f776e6572000000000000000000006044820152fd5b818110611713575050565b60008155600101611708565b90601f821161172c575050565b61062e9160056000527f036b6384b5eca791c62761152d0c79bb0604c104a5fb6f4eb0703f3154bb3db0906020601f840160051c83019310611776575b601f0160051c0190611708565b9091508190611769565b90601f821161178d575050565b61062e9160246000527f7cd332d19b93bcabe3cce7ca0c18a052f57e5fd03b4758a09f30f5ddc4b22ec4906020601f840160051c8301931061177657601f0160051c0190611708565b90601f82116117e3575050565b61062e9160076000527fa66cc928b5edb82af9bd49922954155ab7b0942694bea4ce44661d9a8736c688906020601f840160051c8301931061177657601f0160051c0190611708565b90601f8211611839575050565b61062e9160086000527ff3f7a9fe364faab93b216da50a3214154f22a0a2b415b23a84c8169e8b636ee3906020601f840160051c8301931061177657601f0160051c0190611708565b9190601f811161189157505050565b61062e926000526020600020906020601f840160051c8301931061177657601f0160051c0190611708565b634e487b7160e01b600052601160045260246000fd5b6018544203428111610ef357600a541090606090565b156118ef57565b606460405162461bcd60e51b815260206004820152601560248201527f55706b656570206e6f74207265676973746572656400000000000000000000006044820152fd5b604051906020820182811067ffffffffffffffff8211176104855760405260008252565b1561195e57565b606460405162461bcd60e51b815260206004820152601560248201527f54696d6520696e74657276616c206e6f74206d657400000000000000000000006044820152fd5b9060018201809211610ef357565b6119bd600e5415156118e8565b6119c5611933565b506119d76119d16118d2565b50611957565b6119e042601855565b6119f36119ee6019546119a2565b601955565b6021541115611ac957611a34611a2f611a1560095467ffffffffffffffff1690565b60105463ffffffff1660115491611a2a6105f3565b611ff3565b601255565b601254600055611a4d611a486016546119a2565b601655565b6000546040519081527f94d22f84ecc32bb8dd315dfdf3e823f4cb62c2eb803a2d4a470b57e7c42d5d7690602090a17fd3faffad7ef1f2c31a43a6d3c3ca68805a12ad17c4e6d65ed29f86103c8a925f611ac4611ab0601e5460ff9060a01c1690565b60405160ff90911681529081906020820190565b0390a1565b611b0d740100000000000000000000000000000000000000007fffffffffffffffffffffff00ffffffffffffffffffffffffffffffffffffffff601e541617601e55565b611a34611a2f611b2660095467ffffffffffffffff1690565b60105463ffffffff1660115491611a2a6106b1565b90815167ffffffffffffffff811161048557611b6181611b5c600754610413565b6117d6565b602080601f8311600114611b9d5750819293600092611b92575b50508160011b916000199060031b1c191617600755565b015190503880611b7b565b90601f19831694611bd060076000527fa66cc928b5edb82af9bd49922954155ab7b0942694bea4ce44661d9a8736c68890565b926000905b878210611c0d575050836001959610611bf4575b505050811b01600755565b015160001960f88460031b161c19169055388080611be9565b80600185968294968601518155019501930190611bd5565b90815167ffffffffffffffff811161048557611c4b81611c46600854610413565b61182c565b602080601f8311600114611c875750819293600092611c7c575b50508160011b916000199060031b1c191617600855565b015190503880611c65565b90601f19831694611cba60086000527ff3f7a9fe364faab93b216da50a3214154f22a0a2b415b23a84c8169e8b636ee390565b926000905b878210611cf7575050836001959610611cde575b505050811b01600855565b015160001960f88460031b161c19169055388080611cd3565b80600185968294968601518155019501930190611cbf565b602081519101519060208110611d23575090565b6000199060200360031b1b1690565b8051156103f85760200190565b604051906040820182811067ffffffffffffffff82111761048557604052601082527f726573706f6e736520737472696e673a000000000000000000000000000000006020830152565b6022546801000000000000000081101561048557611dae6001918281016022556103c1565b929092611e815780519067ffffffffffffffff821161048557611ddb82611dd58654610413565b86611882565b60209081601f8411600114611e175750928293918392600094611e0c575b50501b916000199060031b1c1916179055565b015192503880611df9565b919083601f198116611e2e88600052602060002090565b946000905b88838310611e675750505010611e4e575b505050811b019055565b015160001960f88460031b161c19169055388080611e44565b858701518855909601959485019487935090810190611e33565b6103fd565b9091611e9d6104fe936040845260408401906104ad565b9160208184039101526104ad565b3d15611ed6573d90611ebc82610b20565b91611eca6040519384610463565b82523d6000602084013e565b606090565b15611ee257565b606460405162461bcd60e51b815260206004820152601b60248201527f4572726f20616f207061676172206120696e64656e697a6163616f00000000006044820152fd5b6025546020541115611f645761062e6000808080611f52611529611529601d546001600160a01b031690565b47905af1611f5e611eab565b50611edb565b60008080806001600160a01b03601c541647905af1611f81611eab565b5015611f8957565b608460405162461bcd60e51b815260206004820152602d60248201527f4572726f20616f207265746f726e6172206f732066756e646f7320706172612060448201527f6120696e73746974756963616f000000000000000000000000000000000000006064820152fd5b91909392936040519160a0830167ffffffffffffffff92848210848311176104855783916040521683526020938484019081526040840192600180855263ffffffff606087019416845260808601988952805496600097808955612056816119a2565b8355885260028152604088208054680100000000000000008110156104855761208391848201815561119a565b979097611e8157836120af915116889067ffffffffffffffff1667ffffffffffffffff19825416179055565b81870193518051938411610485576120d1846120cb8754610413565b87611882565b81601f851160011461218f575093838060039895612159957f1131472297a800fee664d1d89cfa8f7676ff07189ecc53f80bbb5f4969099db89d9e9995612176998e94612184575b50501b91600019908a1b1c19161790555b61214f61213d60028901945161ffff1690565b845461ffff191661ffff909116178455565b5163ffffffff1690565b65ffffffff000082549160101b169065ffffffff00001916179055565b51910155805491818392a290565b015192503880612119565b9190601f9493941984166121a887600052602060002090565b938b905b828210612215575050937f1131472297a800fee664d1d89cfa8f7676ff07189ecc53f80bbb5f4969099db89b9c9793612176979360039a97938361215998106121fd575b505050811b01905561212a565b0151600019838c1b60f8161c191690553880806121f0565b8088869782949787015181550196019401906121ac565b61227361228161062e926040519283917f0be77f560000000000000000000000000000000000000000000000000000000060208401526020602484015260448301906104ad565b03601f198101835282610463565b600080916020815191016a636f6e736f6c652e6c6f675afa50565b7fff00000000000000000000000000000000000000000000000000000000000000604051917f6e18a12800000000000000000000000000000000000000000000000000000000602084015216602482015260248152606081019080821067ffffffffffffffff8311176104855761062e91604052612281565b6122816123609161227361062e946040519485937f4b5c42770000000000000000000000000000000000000000000000000000000060208601526040602486015260648501906104ad565b838103602319016044850152906104ad56fea2646970667358221220abea7425c9a604b5b6db3db15de022214a1a59268d1b34ecf240a8f32f31610864736f6c63430008130033","opcodes":"PUSH1 0x80 PUSH1 0x1 PUSH1 0x1 PUSH1 0x40 SHL SUB PUSH1 0x1F PUSH3 0x25A5 CODESIZE DUP2 SWAP1 SUB SWAP2 DUP3 ADD PUSH1 0x1F NOT AND DUP5 ADD SWAP2 DUP4 DUP4 GT DUP6 DUP5 LT OR PUSH3 0x1D1 JUMPI DUP1 DUP6 SWAP3 PUSH2 0x180 SWAP5 PUSH1 0x40 MSTORE DUP4 CODECOPY DUP2 ADD SUB SLT PUSH3 0x1CC JUMPI PUSH3 0x49 DUP3 PUSH3 0x1E7 JUMP JUMPDEST PUSH3 0x57 PUSH1 0x20 DUP5 ADD PUSH3 0x1E7 JUMP JUMPDEST SWAP3 PUSH1 0x40 DUP2 ADD MLOAD SWAP1 PUSH1 0x60 DUP2 ADD MLOAD SWAP3 PUSH1 0x80 DUP3 ADD MLOAD SWAP2 PUSH1 0xA0 DUP2 ADD MLOAD SWAP4 PUSH3 0x7E PUSH1 0xC0 DUP4 ADD PUSH3 0x1E7 JUMP JUMPDEST PUSH1 0xE0 DUP4 ADD MLOAD SWAP8 DUP9 AND DUP1 SWAP9 SUB PUSH3 0x1CC JUMPI PUSH3 0x9D PUSH2 0x100 DUP5 ADD PUSH3 0x1E7 JUMP JUMPDEST SWAP9 PUSH3 0xAD PUSH2 0x120 DUP6 ADD PUSH3 0x1E7 JUMP JUMPDEST SWAP2 PUSH2 0x160 PUSH3 0xC0 PUSH2 0x140 DUP8 ADD PUSH3 0x1E7 JUMP JUMPDEST SWAP6 ADD MLOAD SWAP8 PUSH4 0xFFFFFFFF DUP10 AND DUP10 SUB PUSH3 0x1CC JUMPI PUSH1 0x1 DUP1 SSTORE PUSH1 0x1 PUSH1 0x1 PUSH1 0xA0 SHL SUB SWAP7 DUP8 AND SWAP8 DUP9 ISZERO PUSH3 0x187 JUMPI PUSH12 0xFFFFFFFF0000000000000000 SWAP11 DUP9 SWAP7 DUP8 DUP1 SWAP7 DUP13 PUSH1 0x1 DUP1 PUSH1 0xA0 SHL SUB NOT SWAP14 DUP15 PUSH1 0x3 SLOAD AND OR PUSH1 0x3 SSTORE DUP14 PUSH1 0x1C SLOAD AND OR PUSH1 0x1C SSTORE AND DUP12 PUSH1 0x1D SLOAD AND OR PUSH1 0x1D SSTORE PUSH1 0x20 SSTORE PUSH1 0x21 SSTORE PUSH1 0x1F SSTORE PUSH1 0xA SSTORE AND DUP6 PUSH1 0xC SLOAD AND OR PUSH1 0xC SSTORE DUP2 PUSH1 0x9 SLOAD SWAP10 AND DUP6 PUSH1 0xD SLOAD AND OR PUSH1 0xD SSTORE AND DUP4 PUSH1 0x1A SLOAD AND OR PUSH1 0x1A SSTORE AND SWAP1 PUSH1 0x1B SLOAD AND OR PUSH1 0x1B SSTORE PUSH1 0x40 SHL AND SWAP2 PUSH1 0x1 DUP1 PUSH1 0x60 SHL SUB NOT AND OR OR PUSH1 0x9 SSTORE TIMESTAMP PUSH1 0x18 SSTORE PUSH1 0x1 PUSH1 0xE SSTORE PUSH1 0x40 MLOAD PUSH2 0x23A8 SWAP1 DUP2 PUSH3 0x1FD DUP3 CODECOPY RETURN JUMPDEST PUSH1 0x40 MLOAD PUSH3 0x461BCD PUSH1 0xE5 SHL DUP2 MSTORE PUSH1 0x20 PUSH1 0x4 DUP3 ADD MSTORE PUSH1 0x18 PUSH1 0x24 DUP3 ADD MSTORE PUSH32 0x43616E6E6F7420736574206F776E657220746F207A65726F0000000000000000 PUSH1 0x44 DUP3 ADD MSTORE PUSH1 0x64 SWAP1 REVERT JUMPDEST PUSH1 0x0 DUP1 REVERT JUMPDEST PUSH4 0x4E487B71 PUSH1 0xE0 SHL PUSH1 0x0 MSTORE PUSH1 0x41 PUSH1 0x4 MSTORE PUSH1 0x24 PUSH1 0x0 REVERT JUMPDEST MLOAD SWAP1 PUSH1 0x1 PUSH1 0x1 PUSH1 0xA0 SHL SUB DUP3 AND DUP3 SUB PUSH3 0x1CC JUMPI JUMP INVALID PUSH1 0x80 PUSH1 0x40 MSTORE PUSH1 0x4 CALLDATASIZE LT ISZERO PUSH2 0x12 JUMPI PUSH1 0x0 DUP1 REVERT JUMPDEST PUSH1 0x0 CALLDATALOAD PUSH1 0xE0 SHR DUP1 PUSH3 0x6D6CAE EQ PUSH2 0x2D6 JUMPI DUP1 PUSH4 0x89EA02E EQ PUSH2 0x2D1 JUMPI DUP1 PUSH4 0x9C1BA2E EQ PUSH2 0x2CC JUMPI DUP1 PUSH4 0x1243BCC3 EQ PUSH2 0x2C7 JUMPI DUP1 PUSH4 0x1AA46F59 EQ PUSH2 0x2C2 JUMPI DUP1 PUSH4 0x24B93E3E EQ PUSH2 0x2BD JUMPI DUP1 PUSH4 0x277E2213 EQ PUSH2 0x2B8 JUMPI DUP1 PUSH4 0x338CDCA1 EQ PUSH2 0x2B3 JUMPI DUP1 PUSH4 0x36E6A92F EQ PUSH2 0x2AE JUMPI DUP1 PUSH4 0x381FC4B5 EQ PUSH2 0x2A9 JUMPI DUP1 PUSH4 0x3944EA3A EQ PUSH2 0x2A4 JUMPI DUP1 PUSH4 0x39B05122 EQ PUSH2 0x29F JUMPI DUP1 PUSH4 0x43CD3D86 EQ PUSH2 0x29A JUMPI DUP1 PUSH4 0x48802B92 EQ PUSH2 0x295 JUMPI DUP1 PUSH4 0x48BD6F05 EQ PUSH2 0x290 JUMPI DUP1 PUSH4 0x4B0795A8 EQ PUSH2 0x28B JUMPI DUP1 PUSH4 0x5D641DFC EQ PUSH2 0x286 JUMPI DUP1 PUSH4 0x5E0611F1 EQ PUSH2 0x281 JUMPI DUP1 PUSH4 0x688ECFD1 EQ PUSH2 0x27C JUMPI DUP1 PUSH4 0x6BAA48FE EQ PUSH2 0x277 JUMPI DUP1 PUSH4 0x6E04FF0D EQ PUSH2 0x272 JUMPI DUP1 PUSH4 0x6E74336B EQ PUSH2 0x26D JUMPI DUP1 PUSH4 0x79BA5097 EQ PUSH2 0x268 JUMPI DUP1 PUSH4 0x7B103999 EQ PUSH2 0x263 JUMPI DUP1 PUSH4 0x7D95F68A EQ PUSH2 0x25E JUMPI DUP1 PUSH4 0x8B7AFE2E EQ PUSH2 0x259 JUMPI DUP1 PUSH4 0x8DA5CB5B EQ PUSH2 0x254 JUMPI DUP1 PUSH4 0x947A36FB EQ PUSH2 0x24F JUMPI DUP1 PUSH4 0x9655E6D8 EQ PUSH2 0x24A JUMPI DUP1 PUSH4 0xA3097139 EQ PUSH2 0x245 JUMPI DUP1 PUSH4 0xA3D3C0D2 EQ PUSH2 0x240 JUMPI DUP1 PUSH4 0xB1E21749 EQ PUSH2 0x23B JUMPI DUP1 PUSH4 0xB8A4836E EQ PUSH2 0x236 JUMPI DUP1 PUSH4 0xBD4CA97B EQ PUSH2 0x231 JUMPI DUP1 PUSH4 0xBEF3A2F0 EQ PUSH2 0x22C JUMPI DUP1 PUSH4 0xD1384EB6 EQ PUSH2 0x227 JUMPI DUP1 PUSH4 0xD2AA789F EQ PUSH2 0x222 JUMPI DUP1 PUSH4 0xD811FCF0 EQ PUSH2 0x21D JUMPI DUP1 PUSH4 0xEBF14A55 EQ PUSH2 0x218 JUMPI DUP1 PUSH4 0xF2FDE38B EQ PUSH2 0x213 JUMPI DUP1 PUSH4 0xF5C1279B EQ PUSH2 0x20E JUMPI DUP1 PUSH4 0xF68016B7 EQ PUSH2 0x209 JUMPI DUP1 PUSH4 0xF887EA40 EQ PUSH2 0x204 JUMPI PUSH4 0xFFFEB84E EQ PUSH2 0x1FF JUMPI PUSH1 0x0 DUP1 REVERT JUMPDEST PUSH2 0x1609 JUMP JUMPDEST PUSH2 0x15E2 JUMP JUMPDEST PUSH2 0x15BE JUMP JUMPDEST PUSH2 0x15A0 JUMP JUMPDEST PUSH2 0x14C1 JUMP JUMPDEST PUSH2 0x14A3 JUMP JUMPDEST PUSH2 0x147C JUMP JUMPDEST PUSH2 0x145E JUMP JUMPDEST PUSH2 0x1437 JUMP JUMPDEST PUSH2 0x1390 JUMP JUMPDEST PUSH2 0x1374 JUMP JUMPDEST PUSH2 0x12CD JUMP JUMPDEST PUSH2 0x12AF JUMP JUMPDEST PUSH2 0x1291 JUMP JUMPDEST PUSH2 0x1274 JUMP JUMPDEST PUSH2 0x11F8 JUMP JUMPDEST PUSH2 0x117C JUMP JUMPDEST PUSH2 0x1155 JUMP JUMPDEST PUSH2 0x1139 JUMP JUMPDEST PUSH2 0x101E JUMP JUMPDEST PUSH2 0xFF7 JUMP JUMPDEST PUSH2 0xF16 JUMP JUMPDEST PUSH2 0xEF8 JUMP JUMPDEST PUSH2 0xE7F JUMP JUMPDEST PUSH2 0xE58 JUMP JUMPDEST PUSH2 0xE28 JUMP JUMPDEST PUSH2 0xE01 JUMP JUMPDEST PUSH2 0xDE5 JUMP JUMPDEST PUSH2 0xD3E JUMP JUMPDEST PUSH2 0xD20 JUMP JUMPDEST PUSH2 0xD02 JUMP JUMPDEST PUSH2 0xCE4 JUMP JUMPDEST PUSH2 0xB83 JUMP JUMPDEST PUSH2 0xA79 JUMP JUMPDEST PUSH2 0xA5B JUMP JUMPDEST PUSH2 0x8F1 JUMP JUMPDEST PUSH2 0x7EE JUMP JUMPDEST PUSH2 0x501 JUMP JUMPDEST PUSH2 0x384 JUMP JUMPDEST PUSH2 0x366 JUMP JUMPDEST PUSH2 0x33F JUMP JUMPDEST PUSH2 0x317 JUMP JUMPDEST PUSH2 0x2F9 JUMP JUMPDEST CALLVALUE PUSH2 0x2F4 JUMPI PUSH1 0x0 CALLDATASIZE PUSH1 0x3 NOT ADD SLT PUSH2 0x2F4 JUMPI PUSH1 0x20 PUSH1 0x0 SLOAD PUSH1 0x40 MLOAD SWAP1 DUP2 MSTORE RETURN JUMPDEST PUSH1 0x0 DUP1 REVERT JUMPDEST CALLVALUE PUSH2 0x2F4 JUMPI PUSH1 0x0 CALLDATASIZE PUSH1 0x3 NOT ADD SLT PUSH2 0x2F4 JUMPI PUSH1 0x20 PUSH1 0x18 SLOAD PUSH1 0x40 MLOAD SWAP1 DUP2 MSTORE RETURN JUMPDEST CALLVALUE PUSH2 0x2F4 JUMPI PUSH1 0x0 CALLDATASIZE PUSH1 0x3 NOT ADD SLT PUSH2 0x2F4 JUMPI PUSH1 0x20 PUSH8 0xFFFFFFFFFFFFFFFF PUSH1 0x9 SLOAD AND PUSH1 0x40 MLOAD SWAP1 DUP2 MSTORE RETURN JUMPDEST CALLVALUE PUSH2 0x2F4 JUMPI PUSH1 0x0 CALLDATASIZE PUSH1 0x3 NOT ADD SLT PUSH2 0x2F4 JUMPI PUSH1 0x20 PUSH1 0x1 PUSH1 0x1 PUSH1 0xA0 SHL SUB PUSH1 0x1A SLOAD AND PUSH1 0x40 MLOAD SWAP1 DUP2 MSTORE RETURN JUMPDEST CALLVALUE PUSH2 0x2F4 JUMPI PUSH1 0x0 CALLDATASIZE PUSH1 0x3 NOT ADD SLT PUSH2 0x2F4 JUMPI PUSH1 0x20 PUSH1 0x6 SLOAD PUSH1 0x40 MLOAD SWAP1 DUP2 MSTORE RETURN JUMPDEST CALLVALUE PUSH2 0x2F4 JUMPI PUSH1 0x0 CALLDATASIZE PUSH1 0x3 NOT ADD SLT PUSH2 0x2F4 JUMPI PUSH1 0x20 PUSH1 0x9 SLOAD PUSH4 0xFFFFFFFF PUSH1 0x40 MLOAD SWAP2 PUSH1 0x40 SHR AND DUP2 MSTORE RETURN JUMPDEST PUSH4 0x4E487B71 PUSH1 0xE0 SHL PUSH1 0x0 MSTORE PUSH1 0x32 PUSH1 0x4 MSTORE PUSH1 0x24 PUSH1 0x0 REVERT JUMPDEST PUSH1 0x22 SLOAD DUP2 LT ISZERO PUSH2 0x3F8 JUMPI PUSH1 0x22 PUSH1 0x0 MSTORE PUSH32 0x61035B26E3E9EEE00E0D72FD1EE8DDCA6894550DCA6916EA2AC6BAA90D11E510 ADD SWAP1 PUSH1 0x0 SWAP1 JUMP JUMPDEST PUSH2 0x3AB JUMP JUMPDEST PUSH4 0x4E487B71 PUSH1 0xE0 SHL PUSH1 0x0 MSTORE PUSH1 0x0 PUSH1 0x4 MSTORE PUSH1 0x24 PUSH1 0x0 REVERT JUMPDEST SWAP1 PUSH1 0x1 DUP3 DUP2 SHR SWAP3 AND DUP1 ISZERO PUSH2 0x443 JUMPI JUMPDEST PUSH1 0x20 DUP4 LT EQ PUSH2 0x42D JUMPI JUMP JUMPDEST PUSH4 0x4E487B71 PUSH1 0xE0 SHL PUSH1 0x0 MSTORE PUSH1 0x22 PUSH1 0x4 MSTORE PUSH1 0x24 PUSH1 0x0 REVERT JUMPDEST SWAP2 PUSH1 0x7F AND SWAP2 PUSH2 0x422 JUMP JUMPDEST PUSH4 0x4E487B71 PUSH1 0xE0 SHL PUSH1 0x0 MSTORE PUSH1 0x41 PUSH1 0x4 MSTORE PUSH1 0x24 PUSH1 0x0 REVERT JUMPDEST SWAP1 PUSH1 0x1F DUP1 NOT SWAP2 ADD AND DUP2 ADD SWAP1 DUP2 LT PUSH8 0xFFFFFFFFFFFFFFFF DUP3 GT OR PUSH2 0x485 JUMPI PUSH1 0x40 MSTORE JUMP JUMPDEST PUSH2 0x44D JUMP JUMPDEST PUSH1 0x0 JUMPDEST DUP3 DUP2 LT PUSH2 0x49C JUMPI POP PUSH1 0x0 SWAP2 ADD MSTORE JUMP JUMPDEST PUSH1 0x80 DUP2 ADD MLOAD DUP3 DUP3 ADD MSTORE PUSH1 0x20 ADD PUSH2 0x48D JUMP JUMPDEST SWAP2 SWAP1 DUP3 MLOAD SWAP3 DUP4 DUP3 MSTORE PUSH1 0x0 JUMPDEST DUP5 DUP2 LT PUSH2 0x4D9 JUMPI POP POP DUP3 PUSH1 0x0 PUSH1 0x20 DUP1 SWAP5 SWAP6 DUP5 ADD ADD MSTORE PUSH1 0x1F DUP1 NOT SWAP2 ADD AND ADD ADD SWAP1 JUMP JUMPDEST PUSH1 0x20 DUP2 DUP4 ADD DUP2 ADD MLOAD DUP5 DUP4 ADD DUP3 ADD MSTORE ADD PUSH2 0x4B8 JUMP JUMPDEST SWAP1 PUSH1 0x20 PUSH2 0x4FE SWAP3 DUP2 DUP2 MSTORE ADD SWAP1 PUSH2 0x4AD JUMP JUMPDEST SWAP1 JUMP JUMPDEST CALLVALUE PUSH2 0x2F4 JUMPI PUSH1 0x20 DUP1 PUSH1 0x3 NOT CALLDATASIZE ADD SLT PUSH2 0x2F4 JUMPI PUSH1 0x4 CALLDATALOAD PUSH1 0x22 SLOAD DUP2 LT ISZERO PUSH2 0x2F4 JUMPI PUSH1 0x22 PUSH1 0x0 MSTORE PUSH32 0x61035B26E3E9EEE00E0D72FD1EE8DDCA6894550DCA6916EA2AC6BAA90D11E510 ADD SWAP1 PUSH1 0x40 MLOAD SWAP1 PUSH1 0x0 SWAP3 DUP1 SLOAD PUSH2 0x55A DUP2 PUSH2 0x413 JUMP JUMPDEST DUP1 DUP6 MSTORE SWAP2 PUSH1 0x1 SWAP2 DUP1 DUP4 AND SWAP1 DUP2 ISZERO PUSH2 0x5D1 JUMPI POP PUSH1 0x1 EQ PUSH2 0x594 JUMPI JUMPDEST PUSH2 0x590 DUP6 PUSH2 0x584 DUP2 DUP10 SUB DUP3 PUSH2 0x463 JUMP JUMPDEST PUSH1 0x40 MLOAD SWAP2 DUP3 SWAP2 DUP3 PUSH2 0x4ED JUMP JUMPDEST SUB SWAP1 RETURN JUMPDEST PUSH1 0x0 SWAP1 DUP2 MSTORE DUP4 DUP2 KECCAK256 SWAP4 SWAP6 POP SWAP3 JUMPDEST DUP3 DUP5 LT PUSH2 0x5BE JUMPI POP POP POP DUP2 PUSH2 0x590 SWAP4 PUSH2 0x584 SWAP3 DUP3 ADD ADD SWAP4 CODESIZE PUSH2 0x574 JUMP JUMPDEST DUP1 SLOAD DUP6 DUP6 ADD DUP8 ADD MSTORE SWAP3 DUP6 ADD SWAP3 DUP2 ADD PUSH2 0x5A1 JUMP JUMPDEST PUSH1 0xFF NOT AND DUP7 DUP7 ADD MSTORE POP POP POP ISZERO ISZERO PUSH1 0x5 SHL DUP3 ADD ADD SWAP2 POP PUSH2 0x584 DUP2 PUSH2 0x590 CODESIZE PUSH2 0x574 JUMP JUMPDEST PUSH1 0x40 MLOAD SWAP1 PUSH1 0x0 DUP3 PUSH1 0x5 SLOAD SWAP2 PUSH2 0x607 DUP4 PUSH2 0x413 JUMP JUMPDEST DUP1 DUP4 MSTORE SWAP3 PUSH1 0x1 SWAP1 DUP2 DUP2 AND SWAP1 DUP2 ISZERO PUSH2 0x68F JUMPI POP PUSH1 0x1 EQ PUSH2 0x630 JUMPI JUMPDEST POP PUSH2 0x62E SWAP3 POP SUB DUP4 PUSH2 0x463 JUMP JUMPDEST JUMP JUMPDEST PUSH1 0x5 PUSH1 0x0 SWAP1 DUP2 MSTORE SWAP2 POP PUSH32 0x36B6384B5ECA791C62761152D0C79BB0604C104A5FB6F4EB0703F3154BB3DB0 JUMPDEST DUP5 DUP4 LT PUSH2 0x674 JUMPI POP PUSH2 0x62E SWAP4 POP POP DUP2 ADD PUSH1 0x20 ADD CODESIZE PUSH2 0x621 JUMP JUMPDEST DUP2 SWAP4 POP SWAP1 DUP2 PUSH1 0x20 SWAP3 SLOAD DUP4 DUP6 DUP11 ADD ADD MSTORE ADD SWAP2 ADD SWAP1 SWAP2 DUP6 SWAP3 PUSH2 0x65B JUMP JUMPDEST SWAP1 POP PUSH1 0x20 SWAP3 POP PUSH2 0x62E SWAP5 SWAP2 POP PUSH1 0xFF NOT AND DUP3 DUP5 ADD MSTORE ISZERO ISZERO PUSH1 0x5 SHL DUP3 ADD ADD CODESIZE PUSH2 0x621 JUMP JUMPDEST PUSH1 0x40 MLOAD SWAP1 PUSH1 0x0 DUP3 PUSH1 0x24 SLOAD SWAP2 PUSH2 0x6C5 DUP4 PUSH2 0x413 JUMP JUMPDEST DUP1 DUP4 MSTORE SWAP3 PUSH1 0x1 SWAP1 DUP2 DUP2 AND SWAP1 DUP2 ISZERO PUSH2 0x68F JUMPI POP PUSH1 0x1 EQ PUSH2 0x6EB JUMPI POP PUSH2 0x62E SWAP3 POP SUB DUP4 PUSH2 0x463 JUMP JUMPDEST PUSH1 0x24 PUSH1 0x0 SWAP1 DUP2 MSTORE SWAP2 POP PUSH32 0x7CD332D19B93BCABE3CCE7CA0C18A052F57E5FD03B4758A09F30F5DDC4B22EC4 JUMPDEST DUP5 DUP4 LT PUSH2 0x72F JUMPI POP PUSH2 0x62E SWAP4 POP POP DUP2 ADD PUSH1 0x20 ADD CODESIZE PUSH2 0x621 JUMP JUMPDEST DUP2 SWAP4 POP SWAP1 DUP2 PUSH1 0x20 SWAP3 SLOAD DUP4 DUP6 DUP11 ADD ADD MSTORE ADD SWAP2 ADD SWAP1 SWAP2 DUP6 SWAP3 PUSH2 0x716 JUMP JUMPDEST SWAP1 PUSH1 0x40 MLOAD SWAP2 DUP3 PUSH1 0x0 DUP3 SLOAD SWAP3 PUSH2 0x75E DUP5 PUSH2 0x413 JUMP JUMPDEST SWAP1 DUP2 DUP5 MSTORE PUSH1 0x1 SWAP5 DUP6 DUP2 AND SWAP1 DUP2 PUSH1 0x0 EQ PUSH2 0x7CB JUMPI POP PUSH1 0x1 EQ PUSH2 0x788 JUMPI JUMPDEST POP POP PUSH2 0x62E SWAP3 POP SUB DUP4 PUSH2 0x463 JUMP JUMPDEST SWAP1 SWAP4 SWAP2 POP PUSH1 0x0 MSTORE PUSH1 0x20 SWAP1 DUP2 PUSH1 0x0 KECCAK256 SWAP4 PUSH1 0x0 SWAP2 JUMPDEST DUP2 DUP4 LT PUSH2 0x7B3 JUMPI POP POP PUSH2 0x62E SWAP4 POP DUP3 ADD ADD CODESIZE DUP1 PUSH2 0x77A JUMP JUMPDEST DUP6 SLOAD DUP9 DUP5 ADD DUP6 ADD MSTORE SWAP5 DUP6 ADD SWAP5 DUP8 SWAP5 POP SWAP2 DUP4 ADD SWAP2 PUSH2 0x79B JUMP JUMPDEST SWAP2 POP POP PUSH2 0x62E SWAP5 POP PUSH1 0x20 SWAP3 POP PUSH1 0xFF NOT AND DUP3 DUP5 ADD MSTORE ISZERO ISZERO PUSH1 0x5 SHL DUP3 ADD ADD CODESIZE DUP1 PUSH2 0x77A JUMP JUMPDEST CALLVALUE PUSH2 0x2F4 JUMPI PUSH1 0x0 DUP1 PUSH1 0x3 NOT CALLDATASIZE ADD SLT PUSH2 0x8C0 JUMPI PUSH1 0x40 MLOAD SWAP1 DUP1 PUSH1 0xF SLOAD PUSH2 0x811 DUP2 PUSH2 0x413 JUMP JUMPDEST DUP1 DUP6 MSTORE SWAP2 PUSH1 0x1 SWAP2 DUP1 DUP4 AND SWAP1 DUP2 ISZERO PUSH2 0x896 JUMPI POP PUSH1 0x1 EQ PUSH2 0x83B JUMPI JUMPDEST PUSH2 0x590 DUP6 PUSH2 0x584 DUP2 DUP8 SUB DUP3 PUSH2 0x463 JUMP JUMPDEST SWAP3 POP PUSH1 0xF DUP4 MSTORE PUSH32 0x8D1108E10BCB7C27DDDFC02ED9D693A074039D026CF4EA4240B40F7D581AC802 JUMPDEST DUP3 DUP5 LT PUSH2 0x87E JUMPI POP POP POP DUP2 ADD PUSH1 0x20 ADD PUSH2 0x584 DUP3 PUSH2 0x590 PUSH2 0x82B JUMP JUMPDEST DUP1 SLOAD PUSH1 0x20 DUP6 DUP8 ADD DUP2 ADD SWAP2 SWAP1 SWAP2 MSTORE SWAP1 SWAP4 ADD SWAP3 DUP2 ADD PUSH2 0x863 JUMP JUMPDEST DUP7 SWAP6 POP PUSH2 0x590 SWAP7 SWAP4 POP PUSH1 0x20 SWAP3 POP PUSH2 0x584 SWAP5 SWAP2 POP PUSH1 0xFF NOT AND DUP3 DUP5 ADD MSTORE ISZERO ISZERO PUSH1 0x5 SHL DUP3 ADD ADD SWAP3 SWAP4 PUSH2 0x82B JUMP JUMPDEST DUP1 REVERT JUMPDEST SWAP2 DUP2 PUSH1 0x1F DUP5 ADD SLT ISZERO PUSH2 0x2F4 JUMPI DUP3 CALLDATALOAD SWAP2 PUSH8 0xFFFFFFFFFFFFFFFF DUP4 GT PUSH2 0x2F4 JUMPI PUSH1 0x20 DUP4 DUP2 DUP7 ADD SWAP6 ADD ADD GT PUSH2 0x2F4 JUMPI JUMP JUMPDEST CALLVALUE PUSH2 0x2F4 JUMPI PUSH1 0x60 CALLDATASIZE PUSH1 0x3 NOT ADD SLT PUSH2 0x2F4 JUMPI PUSH8 0xFFFFFFFFFFFFFFFF PUSH1 0x4 CALLDATALOAD DUP2 DUP2 GT PUSH2 0x2F4 JUMPI PUSH2 0x923 SWAP1 CALLDATASIZE SWAP1 PUSH1 0x4 ADD PUSH2 0x8C3 JUMP JUMPDEST SWAP2 SWAP1 PUSH1 0x24 CALLDATALOAD SWAP2 DUP1 DUP4 AND DUP4 SUB PUSH2 0x2F4 JUMPI PUSH2 0x93A PUSH2 0x16B0 JUMP JUMPDEST DUP4 GT PUSH2 0x485 JUMPI PUSH2 0x954 DUP4 PUSH2 0x94F PUSH1 0x5 SLOAD PUSH2 0x413 JUMP JUMPDEST PUSH2 0x171F JUMP JUMPDEST PUSH1 0x0 SWAP1 PUSH1 0x1F DUP5 GT PUSH1 0x1 EQ PUSH2 0x9BB JUMPI PUSH2 0x9A3 SWAP4 SWAP2 PUSH1 0x0 SWAP2 DUP4 PUSH2 0x9B0 JUMPI JUMPDEST POP POP DUP2 PUSH1 0x1 SHL SWAP2 PUSH1 0x0 NOT SWAP1 PUSH1 0x3 SHL SHR NOT AND OR PUSH1 0x5 SSTORE PUSH8 0xFFFFFFFFFFFFFFFF AND PUSH8 0xFFFFFFFFFFFFFFFF NOT PUSH1 0x9 SLOAD AND OR PUSH1 0x9 SSTORE JUMP JUMPDEST PUSH2 0x9AE PUSH1 0x44 CALLDATALOAD PUSH1 0x11 SSTORE JUMP JUMPDEST STOP JUMPDEST ADD CALLDATALOAD SWAP1 POP CODESIZE DUP1 PUSH2 0x970 JUMP JUMPDEST PUSH1 0x5 PUSH1 0x0 MSTORE PUSH32 0x36B6384B5ECA791C62761152D0C79BB0604C104A5FB6F4EB0703F3154BB3DB0 SWAP2 PUSH1 0x1F NOT DUP6 AND DUP2 JUMPDEST DUP2 DUP2 LT PUSH2 0xA43 JUMPI POP SWAP2 PUSH1 0x1 SWAP4 SWAP2 DUP7 PUSH2 0x9A3 SWAP8 SWAP5 LT PUSH2 0xA29 JUMPI JUMPDEST POP POP POP DUP2 SHL ADD PUSH1 0x5 SSTORE PUSH8 0xFFFFFFFFFFFFFFFF AND PUSH8 0xFFFFFFFFFFFFFFFF NOT PUSH1 0x9 SLOAD AND OR PUSH1 0x9 SSTORE JUMP JUMPDEST ADD CALLDATALOAD PUSH1 0x0 NOT PUSH1 0x3 DUP5 SWAP1 SHL PUSH1 0xF8 AND SHR NOT AND SWAP1 SSTORE CODESIZE DUP1 DUP1 PUSH2 0xA02 JUMP JUMPDEST SWAP2 SWAP4 PUSH1 0x20 PUSH1 0x1 DUP2 SWAP3 DUP8 DUP8 ADD CALLDATALOAD DUP2 SSTORE ADD SWAP6 ADD SWAP3 ADD PUSH2 0x9E9 JUMP JUMPDEST CALLVALUE PUSH2 0x2F4 JUMPI PUSH1 0x0 CALLDATASIZE PUSH1 0x3 NOT ADD SLT PUSH2 0x2F4 JUMPI PUSH1 0x20 PUSH1 0xB SLOAD PUSH1 0x40 MLOAD SWAP1 DUP2 MSTORE RETURN JUMPDEST CALLVALUE PUSH2 0x2F4 JUMPI PUSH1 0x0 DUP1 PUSH1 0x3 NOT CALLDATASIZE ADD SLT PUSH2 0x8C0 JUMPI PUSH1 0x40 MLOAD SWAP1 DUP1 PUSH1 0x13 SLOAD PUSH2 0xA9C DUP2 PUSH2 0x413 JUMP JUMPDEST DUP1 DUP6 MSTORE SWAP2 PUSH1 0x1 SWAP2 DUP1 DUP4 AND SWAP1 DUP2 ISZERO PUSH2 0x896 JUMPI POP PUSH1 0x1 EQ PUSH2 0xAC5 JUMPI PUSH2 0x590 DUP6 PUSH2 0x584 DUP2 DUP8 SUB DUP3 PUSH2 0x463 JUMP JUMPDEST SWAP3 POP PUSH1 0x13 DUP4 MSTORE PUSH32 0x66DE8FFDA797E3DE9C05E8FC57B3BF0EC28A930D40B0D285D93C06501CF6A090 JUMPDEST DUP3 DUP5 LT PUSH2 0xB08 JUMPI POP POP POP DUP2 ADD PUSH1 0x20 ADD PUSH2 0x584 DUP3 PUSH2 0x590 PUSH2 0x82B JUMP JUMPDEST DUP1 SLOAD PUSH1 0x20 DUP6 DUP8 ADD DUP2 ADD SWAP2 SWAP1 SWAP2 MSTORE SWAP1 SWAP4 ADD SWAP3 DUP2 ADD PUSH2 0xAED JUMP JUMPDEST PUSH8 0xFFFFFFFFFFFFFFFF DUP2 GT PUSH2 0x485 JUMPI PUSH1 0x1F ADD PUSH1 0x1F NOT AND PUSH1 0x20 ADD SWAP1 JUMP JUMPDEST DUP2 PUSH1 0x1F DUP3 ADD SLT ISZERO PUSH2 0x2F4 JUMPI DUP1 CALLDATALOAD SWAP1 PUSH2 0xB53 DUP3 PUSH2 0xB20 JUMP JUMPDEST SWAP3 PUSH2 0xB61 PUSH1 0x40 MLOAD SWAP5 DUP6 PUSH2 0x463 JUMP JUMPDEST DUP3 DUP5 MSTORE PUSH1 0x20 DUP4 DUP4 ADD ADD GT PUSH2 0x2F4 JUMPI DUP2 PUSH1 0x0 SWAP3 PUSH1 0x20 DUP1 SWAP4 ADD DUP4 DUP7 ADD CALLDATACOPY DUP4 ADD ADD MSTORE SWAP1 JUMP JUMPDEST CALLVALUE PUSH2 0x2F4 JUMPI PUSH1 0x60 CALLDATASIZE PUSH1 0x3 NOT ADD SLT PUSH2 0x2F4 JUMPI PUSH8 0xFFFFFFFFFFFFFFFF PUSH1 0x24 CALLDATALOAD DUP2 DUP2 GT PUSH2 0x2F4 JUMPI PUSH2 0xBB5 SWAP1 CALLDATASIZE SWAP1 PUSH1 0x4 ADD PUSH2 0xB3C JUMP JUMPDEST SWAP1 PUSH1 0x44 CALLDATALOAD SWAP1 DUP2 GT PUSH2 0x2F4 JUMPI PUSH2 0xCC1 PUSH2 0xBF2 PUSH32 0x7BAB0EC163B5C132C72B8146AC4D6E067E82ED58F8B131150AA71C9258911562 SWAP3 CALLDATASIZE SWAP1 PUSH1 0x4 ADD PUSH2 0xB3C JUMP JUMPDEST PUSH2 0xBFB DUP5 PUSH2 0x1B3B JUMP JUMPDEST PUSH2 0xC04 DUP2 PUSH2 0x1C25 JUMP JUMPDEST PUSH2 0xC17 PUSH2 0xC12 PUSH1 0xB SLOAD PUSH2 0x19A2 JUMP JUMPDEST PUSH1 0xB SSTORE JUMP JUMPDEST PUSH1 0x1E SLOAD PUSH1 0xA0 SHR PUSH1 0xFF AND PUSH2 0xCC6 JUMPI PUSH2 0xC2D DUP5 PUSH2 0x222C JUMP JUMPDEST PUSH2 0xC67 PUSH2 0xC62 PUSH2 0xC3C DUP7 PUSH2 0x1D32 JUMP JUMPDEST MLOAD PUSH32 0xFF00000000000000000000000000000000000000000000000000000000000000 AND SWAP1 JUMP JUMPDEST PUSH2 0x229C JUMP JUMPDEST PUSH2 0xC78 DUP5 PUSH2 0xC73 PUSH2 0x1D3F JUMP JUMPDEST PUSH2 0x2315 JUMP JUMPDEST PUSH2 0xC81 DUP5 PUSH2 0x1D89 JUMP JUMPDEST PUSH1 0x22 SLOAD PUSH1 0x40 MLOAD SWAP1 DUP2 MSTORE PUSH32 0xB8C1B3113292644DF2BF7F437C82A485B897C95EC146CA6CA3DEA2EC2F674AD9 SWAP1 PUSH1 0x20 SWAP1 LOG1 JUMPDEST PUSH1 0x40 MLOAD SWAP2 DUP3 SWAP2 PUSH1 0x4 CALLDATALOAD SWAP6 DUP4 PUSH2 0x1E86 JUMP JUMPDEST SUB SWAP1 LOG2 STOP JUMPDEST PUSH2 0xCD7 PUSH2 0xCD2 DUP6 PUSH2 0x1D0F JUMP JUMPDEST PUSH1 0x25 SSTORE JUMP JUMPDEST PUSH2 0xCDF PUSH2 0x1F26 JUMP JUMPDEST PUSH2 0xCB1 JUMP JUMPDEST CALLVALUE PUSH2 0x2F4 JUMPI PUSH1 0x0 CALLDATASIZE PUSH1 0x3 NOT ADD SLT PUSH2 0x2F4 JUMPI PUSH1 0x20 PUSH1 0x17 SLOAD PUSH1 0x40 MLOAD SWAP1 DUP2 MSTORE RETURN JUMPDEST CALLVALUE PUSH2 0x2F4 JUMPI PUSH1 0x0 CALLDATASIZE PUSH1 0x3 NOT ADD SLT PUSH2 0x2F4 JUMPI PUSH1 0x20 PUSH1 0x16 SLOAD PUSH1 0x40 MLOAD SWAP1 DUP2 MSTORE RETURN JUMPDEST CALLVALUE PUSH2 0x2F4 JUMPI PUSH1 0x0 CALLDATASIZE PUSH1 0x3 NOT ADD SLT PUSH2 0x2F4 JUMPI PUSH1 0x20 PUSH1 0x1F SLOAD PUSH1 0x40 MLOAD SWAP1 DUP2 MSTORE RETURN JUMPDEST CALLVALUE PUSH2 0x2F4 JUMPI PUSH1 0x0 DUP1 PUSH1 0x3 NOT CALLDATASIZE ADD SLT PUSH2 0x8C0 JUMPI PUSH1 0x40 MLOAD SWAP1 DUP1 PUSH1 0x14 SLOAD PUSH2 0xD61 DUP2 PUSH2 0x413 JUMP JUMPDEST DUP1 DUP6 MSTORE SWAP2 PUSH1 0x1 SWAP2 DUP1 DUP4 AND SWAP1 DUP2 ISZERO PUSH2 0x896 JUMPI POP PUSH1 0x1 EQ PUSH2 0xD8A JUMPI PUSH2 0x590 DUP6 PUSH2 0x584 DUP2 DUP8 SUB DUP3 PUSH2 0x463 JUMP JUMPDEST SWAP3 POP PUSH1 0x14 DUP4 MSTORE PUSH32 0xCE6D7B5282BD9A3661AE061FEED1DBDA4E52AB073B1F9285BE6E155D9C38D4EC JUMPDEST DUP3 DUP5 LT PUSH2 0xDCD JUMPI POP POP POP DUP2 ADD PUSH1 0x20 ADD PUSH2 0x584 DUP3 PUSH2 0x590 PUSH2 0x82B JUMP JUMPDEST DUP1 SLOAD PUSH1 0x20 DUP6 DUP8 ADD DUP2 ADD SWAP2 SWAP1 SWAP2 MSTORE SWAP1 SWAP4 ADD SWAP3 DUP2 ADD PUSH2 0xDB2 JUMP JUMPDEST CALLVALUE PUSH2 0x2F4 JUMPI PUSH1 0x0 CALLDATASIZE PUSH1 0x3 NOT ADD SLT PUSH2 0x2F4 JUMPI PUSH1 0x20 PUSH1 0x40 MLOAD PUSH1 0x1 DUP2 MSTORE RETURN JUMPDEST CALLVALUE PUSH2 0x2F4 JUMPI PUSH1 0x0 CALLDATASIZE PUSH1 0x3 NOT ADD SLT PUSH2 0x2F4 JUMPI PUSH1 0x20 PUSH1 0x1 PUSH1 0x1 PUSH1 0xA0 SHL SUB PUSH1 0x1E SLOAD AND PUSH1 0x40 MLOAD SWAP1 DUP2 MSTORE RETURN JUMPDEST CALLVALUE PUSH2 0x2F4 JUMPI PUSH1 0x0 CALLDATASIZE PUSH1 0x3 NOT ADD SLT PUSH2 0x2F4 JUMPI PUSH2 0x590 PUSH2 0xE44 PUSH2 0x5F3 JUMP JUMPDEST PUSH1 0x40 MLOAD SWAP2 DUP3 SWAP2 PUSH1 0x20 DUP4 MSTORE PUSH1 0x20 DUP4 ADD SWAP1 PUSH2 0x4AD JUMP JUMPDEST CALLVALUE PUSH2 0x2F4 JUMPI PUSH1 0x0 CALLDATASIZE PUSH1 0x3 NOT ADD SLT PUSH2 0x2F4 JUMPI PUSH1 0x20 PUSH1 0x1 PUSH1 0x1 PUSH1 0xA0 SHL SUB PUSH1 0x1B SLOAD AND PUSH1 0x40 MLOAD SWAP1 DUP2 MSTORE RETURN JUMPDEST CALLVALUE PUSH2 0x2F4 JUMPI PUSH1 0x20 CALLDATASIZE PUSH1 0x3 NOT ADD SLT PUSH2 0x2F4 JUMPI PUSH1 0x4 CALLDATALOAD PUSH8 0xFFFFFFFFFFFFFFFF DUP2 GT PUSH2 0x2F4 JUMPI PUSH2 0xEB0 SWAP1 CALLDATASIZE SWAP1 PUSH1 0x4 ADD PUSH2 0xB3C JUMP JUMPDEST POP PUSH1 0x18 SLOAD TIMESTAMP SUB TIMESTAMP DUP2 GT PUSH2 0xEF3 JUMPI PUSH1 0xA SLOAD LT PUSH1 0x40 MLOAD SWAP1 DUP2 MSTORE PUSH1 0x40 PUSH1 0x20 DUP3 ADD MSTORE PUSH1 0x60 DUP2 DUP2 MLOAD DUP1 PUSH1 0x40 DUP4 ADD MSTORE PUSH2 0xEE5 DUP2 DUP5 DUP5 ADD PUSH2 0x48A JUMP JUMPDEST PUSH1 0x1F ADD PUSH1 0x1F NOT AND DUP2 ADD SUB ADD SWAP1 RETURN JUMPDEST PUSH2 0x18BC JUMP JUMPDEST CALLVALUE PUSH2 0x2F4 JUMPI PUSH1 0x0 CALLDATASIZE PUSH1 0x3 NOT ADD SLT PUSH2 0x2F4 JUMPI PUSH1 0x20 PUSH1 0x11 SLOAD PUSH1 0x40 MLOAD SWAP1 DUP2 MSTORE RETURN JUMPDEST CALLVALUE PUSH2 0x2F4 JUMPI PUSH1 0x0 DUP1 PUSH1 0x3 NOT CALLDATASIZE ADD SLT PUSH2 0x8C0 JUMPI PUSH1 0x1 PUSH1 0x1 PUSH1 0xA0 SHL SUB DUP1 PUSH1 0x4 SLOAD AND CALLER SUB PUSH2 0xFB3 JUMPI PUSH1 0x3 SLOAD PUSH1 0x1 PUSH1 0x1 PUSH1 0xA0 SHL SUB AND PUSH1 0x3 DUP1 SLOAD PUSH20 0xFFFFFFFFFFFFFFFFFFFFFFFFFFFFFFFFFFFFFFFF NOT AND CALLER OR SWAP1 SSTORE SWAP1 PUSH2 0xF89 PUSH20 0xFFFFFFFFFFFFFFFFFFFFFFFFFFFFFFFFFFFFFFFF NOT PUSH1 0x4 SLOAD AND PUSH1 0x4 SSTORE JUMP JUMPDEST CALLER SWAP2 AND PUSH32 0x8BE0079C531659141344CD1FD0A4F28419497F9722A3DAAFE3B4186F6B6457E0 DUP4 DUP1 LOG3 DUP1 RETURN JUMPDEST PUSH1 0x64 PUSH1 0x40 MLOAD PUSH3 0x461BCD PUSH1 0xE5 SHL DUP2 MSTORE PUSH1 0x20 PUSH1 0x4 DUP3 ADD MSTORE PUSH1 0x16 PUSH1 0x24 DUP3 ADD MSTORE PUSH32 0x4D7573742062652070726F706F736564206F776E657200000000000000000000 PUSH1 0x44 DUP3 ADD MSTORE REVERT JUMPDEST CALLVALUE PUSH2 0x2F4 JUMPI PUSH1 0x0 CALLDATASIZE PUSH1 0x3 NOT ADD SLT PUSH2 0x2F4 JUMPI PUSH1 0x20 PUSH1 0x1 PUSH1 0x1 PUSH1 0xA0 SHL SUB PUSH1 0xD SLOAD AND PUSH1 0x40 MLOAD SWAP1 DUP2 MSTORE RETURN JUMPDEST CALLVALUE PUSH2 0x2F4 JUMPI PUSH1 0x20 DUP1 PUSH1 0x3 NOT CALLDATASIZE ADD SLT PUSH2 0x2F4 JUMPI PUSH8 0xFFFFFFFFFFFFFFFF PUSH1 0x4 CALLDATALOAD DUP2 DUP2 GT PUSH2 0x2F4 JUMPI PUSH2 0x1051 SWAP1 CALLDATASIZE SWAP1 PUSH1 0x4 ADD PUSH2 0x8C3 JUMP JUMPDEST SWAP2 PUSH2 0x105A PUSH2 0x16B0 JUMP JUMPDEST DUP3 GT PUSH2 0x485 JUMPI PUSH2 0x1074 DUP3 PUSH2 0x106F PUSH1 0x24 SLOAD PUSH2 0x413 JUMP JUMPDEST PUSH2 0x1780 JUMP JUMPDEST PUSH1 0x0 SWAP3 PUSH1 0x1F DUP4 GT PUSH1 0x1 EQ PUSH2 0x10B2 JUMPI POP SWAP2 DUP2 SWAP3 PUSH1 0x0 SWAP3 PUSH2 0x10A7 JUMPI JUMPDEST POP POP PUSH1 0x0 NOT PUSH1 0x3 DUP4 SWAP1 SHL SHR NOT AND PUSH1 0x1 SWAP2 SWAP1 SWAP2 SHL OR PUSH1 0x24 SSTORE STOP JUMPDEST ADD CALLDATALOAD SWAP1 POP CODESIZE DUP1 PUSH2 0x108E JUMP JUMPDEST SWAP1 PUSH1 0x1F NOT DUP4 AND SWAP4 PUSH2 0x10E5 PUSH1 0x24 PUSH1 0x0 MSTORE PUSH32 0x7CD332D19B93BCABE3CCE7CA0C18A052F57E5FD03B4758A09F30F5DDC4B22EC4 SWAP1 JUMP JUMPDEST SWAP3 DUP2 SWAP1 JUMPDEST DUP7 DUP3 LT PUSH2 0x1121 JUMPI POP POP DUP4 PUSH1 0x1 SWAP6 LT PUSH2 0x1107 JUMPI JUMPDEST POP POP POP DUP2 SHL ADD PUSH1 0x24 SSTORE STOP JUMPDEST ADD CALLDATALOAD PUSH1 0x0 NOT PUSH1 0x3 DUP5 SWAP1 SHL PUSH1 0xF8 AND SHR NOT AND SWAP1 SSTORE CODESIZE DUP1 DUP1 PUSH2 0x10FC JUMP JUMPDEST DUP1 PUSH1 0x1 DUP5 SWAP7 DUP3 SWAP5 SWAP6 DUP8 ADD CALLDATALOAD DUP2 SSTORE ADD SWAP6 ADD SWAP3 ADD SWAP1 PUSH2 0x10E9 JUMP JUMPDEST CALLVALUE PUSH2 0x2F4 JUMPI PUSH1 0x0 CALLDATASIZE PUSH1 0x3 NOT ADD SLT PUSH2 0x2F4 JUMPI PUSH1 0x20 SELFBALANCE PUSH1 0x40 MLOAD SWAP1 DUP2 MSTORE RETURN JUMPDEST CALLVALUE PUSH2 0x2F4 JUMPI PUSH1 0x0 CALLDATASIZE PUSH1 0x3 NOT ADD SLT PUSH2 0x2F4 JUMPI PUSH1 0x20 PUSH1 0x1 PUSH1 0x1 PUSH1 0xA0 SHL SUB PUSH1 0x3 SLOAD AND PUSH1 0x40 MLOAD SWAP1 DUP2 MSTORE RETURN JUMPDEST CALLVALUE PUSH2 0x2F4 JUMPI PUSH1 0x0 CALLDATASIZE PUSH1 0x3 NOT ADD SLT PUSH2 0x2F4 JUMPI PUSH1 0x20 PUSH1 0xA SLOAD PUSH1 0x40 MLOAD SWAP1 DUP2 MSTORE RETURN JUMPDEST DUP1 SLOAD DUP3 LT ISZERO PUSH2 0x3F8 JUMPI PUSH1 0x0 MSTORE PUSH1 0x20 PUSH1 0x0 KECCAK256 SWAP1 PUSH1 0x2 SHL ADD SWAP1 PUSH1 0x0 SWAP1 JUMP JUMPDEST SWAP2 SWAP4 PUSH2 0xFFFF PUSH2 0x11E7 PUSH1 0x80 SWAP6 SWAP9 SWAP8 SWAP7 PUSH8 0xFFFFFFFFFFFFFFFF PUSH4 0xFFFFFFFF SWAP6 AND DUP7 MSTORE PUSH1 0xA0 PUSH1 0x20 DUP8 ADD MSTORE PUSH1 0xA0 DUP7 ADD SWAP1 PUSH2 0x4AD JUMP JUMPDEST SWAP8 AND PUSH1 0x40 DUP5 ADD MSTORE AND PUSH1 0x60 DUP3 ADD MSTORE ADD MSTORE JUMP JUMPDEST CALLVALUE PUSH2 0x2F4 JUMPI PUSH1 0x40 CALLDATASIZE PUSH1 0x3 NOT ADD SLT PUSH2 0x2F4 JUMPI PUSH1 0x24 CALLDATALOAD PUSH1 0x4 CALLDATALOAD PUSH1 0x0 MSTORE PUSH1 0x2 PUSH1 0x20 MSTORE PUSH1 0x40 PUSH1 0x0 KECCAK256 SWAP1 DUP2 SLOAD DUP2 LT ISZERO PUSH2 0x2F4 JUMPI PUSH2 0x122F SWAP2 PUSH2 0x119A JUMP JUMPDEST POP PUSH8 0xFFFFFFFFFFFFFFFF DUP2 SLOAD AND SWAP1 PUSH2 0x590 PUSH2 0x124C PUSH1 0x1 DUP4 ADD PUSH2 0x74A JUMP JUMPDEST SWAP2 PUSH1 0x3 PUSH1 0x2 DUP3 ADD SLOAD SWAP2 ADD SLOAD SWAP1 PUSH1 0x40 MLOAD SWAP5 DUP6 SWAP5 PUSH2 0xFFFF PUSH4 0xFFFFFFFF DUP5 PUSH1 0x10 SHR AND SWAP4 AND SWAP2 DUP7 PUSH2 0x11B6 JUMP JUMPDEST CALLVALUE PUSH2 0x2F4 JUMPI PUSH1 0x0 CALLDATASIZE PUSH1 0x3 NOT ADD SLT PUSH2 0x2F4 JUMPI PUSH1 0x20 DUP1 SLOAD PUSH1 0x40 MLOAD SWAP1 DUP2 MSTORE RETURN JUMPDEST CALLVALUE PUSH2 0x2F4 JUMPI PUSH1 0x0 CALLDATASIZE PUSH1 0x3 NOT ADD SLT PUSH2 0x2F4 JUMPI PUSH1 0x20 PUSH1 0x19 SLOAD PUSH1 0x40 MLOAD SWAP1 DUP2 MSTORE RETURN JUMPDEST CALLVALUE PUSH2 0x2F4 JUMPI PUSH1 0x0 CALLDATASIZE PUSH1 0x3 NOT ADD SLT PUSH2 0x2F4 JUMPI PUSH1 0x20 PUSH1 0x12 SLOAD PUSH1 0x40 MLOAD SWAP1 DUP2 MSTORE RETURN JUMPDEST CALLVALUE PUSH2 0x2F4 JUMPI PUSH1 0x40 CALLDATASIZE PUSH1 0x3 NOT ADD SLT PUSH2 0x2F4 JUMPI PUSH1 0x4 CALLDATALOAD PUSH8 0xFFFFFFFFFFFFFFFF DUP2 GT PUSH2 0x2F4 JUMPI PUSH2 0x12FE SWAP1 CALLDATASIZE SWAP1 PUSH1 0x4 ADD PUSH2 0x8C3 JUMP JUMPDEST POP POP PUSH1 0x1 PUSH1 0x1 PUSH1 0xA0 SHL SUB DUP1 PUSH1 0x3 SLOAD AND DUP1 CALLER EQ ISZERO DUP1 PUSH2 0x1366 JUMPI JUMPDEST PUSH2 0x1326 JUMPI PUSH2 0x9AE PUSH1 0x24 CALLDATALOAD PUSH2 0x19B0 JUMP JUMPDEST PUSH1 0x64 SWAP2 PUSH1 0x1E SLOAD AND PUSH1 0x40 MLOAD SWAP2 PUSH32 0x426FBC7100000000000000000000000000000000000000000000000000000000 DUP4 MSTORE CALLER PUSH1 0x4 DUP5 ADD MSTORE PUSH1 0x24 DUP4 ADD MSTORE PUSH1 0x44 DUP3 ADD MSTORE REVERT JUMPDEST POP DUP2 PUSH1 0x1E SLOAD AND CALLER EQ ISZERO PUSH2 0x1317 JUMP JUMPDEST CALLVALUE PUSH2 0x2F4 JUMPI PUSH1 0x0 CALLDATASIZE PUSH1 0x3 NOT ADD SLT PUSH2 0x2F4 JUMPI PUSH2 0x590 PUSH2 0xE44 PUSH2 0x6B1 JUMP JUMPDEST CALLVALUE PUSH2 0x2F4 JUMPI PUSH1 0x0 DUP1 PUSH1 0x3 NOT CALLDATASIZE ADD SLT PUSH2 0x8C0 JUMPI PUSH1 0x40 MLOAD SWAP1 DUP1 PUSH1 0x7 SLOAD PUSH2 0x13B3 DUP2 PUSH2 0x413 JUMP JUMPDEST DUP1 DUP6 MSTORE SWAP2 PUSH1 0x1 SWAP2 DUP1 DUP4 AND SWAP1 DUP2 ISZERO PUSH2 0x896 JUMPI POP PUSH1 0x1 EQ PUSH2 0x13DC JUMPI PUSH2 0x590 DUP6 PUSH2 0x584 DUP2 DUP8 SUB DUP3 PUSH2 0x463 JUMP JUMPDEST SWAP3 POP PUSH1 0x7 DUP4 MSTORE PUSH32 0xA66CC928B5EDB82AF9BD49922954155AB7B0942694BEA4CE44661D9A8736C688 JUMPDEST DUP3 DUP5 LT PUSH2 0x141F JUMPI POP POP POP DUP2 ADD PUSH1 0x20 ADD PUSH2 0x584 DUP3 PUSH2 0x590 PUSH2 0x82B JUMP JUMPDEST DUP1 SLOAD PUSH1 0x20 DUP6 DUP8 ADD DUP2 ADD SWAP2 SWAP1 SWAP2 MSTORE SWAP1 SWAP4 ADD SWAP3 DUP2 ADD PUSH2 0x1404 JUMP JUMPDEST CALLVALUE PUSH2 0x2F4 JUMPI PUSH1 0x0 CALLDATASIZE PUSH1 0x3 NOT ADD SLT PUSH2 0x2F4 JUMPI PUSH1 0x20 PUSH1 0x1 PUSH1 0x1 PUSH1 0xA0 SHL SUB PUSH1 0x1C SLOAD AND PUSH1 0x40 MLOAD SWAP1 DUP2 MSTORE RETURN JUMPDEST CALLVALUE PUSH2 0x2F4 JUMPI PUSH1 0x0 CALLDATASIZE PUSH1 0x3 NOT ADD SLT PUSH2 0x2F4 JUMPI PUSH1 0x20 PUSH1 0xE SLOAD PUSH1 0x40 MLOAD SWAP1 DUP2 MSTORE RETURN JUMPDEST CALLVALUE PUSH2 0x2F4 JUMPI PUSH1 0x0 CALLDATASIZE PUSH1 0x3 NOT ADD SLT PUSH2 0x2F4 JUMPI PUSH1 0x20 PUSH1 0x1 PUSH1 0x1 PUSH1 0xA0 SHL SUB PUSH1 0x1D SLOAD AND PUSH1 0x40 MLOAD SWAP1 DUP2 MSTORE RETURN JUMPDEST CALLVALUE PUSH2 0x2F4 JUMPI PUSH1 0x0 CALLDATASIZE PUSH1 0x3 NOT ADD SLT PUSH2 0x2F4 JUMPI PUSH1 0x20 PUSH1 0x21 SLOAD PUSH1 0x40 MLOAD SWAP1 DUP2 MSTORE RETURN JUMPDEST CALLVALUE PUSH2 0x2F4 JUMPI PUSH1 0x20 CALLDATASIZE PUSH1 0x3 NOT ADD SLT PUSH2 0x2F4 JUMPI PUSH1 0x4 CALLDATALOAD PUSH1 0x1 PUSH1 0x1 PUSH1 0xA0 SHL SUB DUP2 AND DUP1 SWAP2 SUB PUSH2 0x2F4 JUMPI PUSH2 0x14EE PUSH2 0x16B0 JUMP JUMPDEST CALLER DUP2 EQ PUSH2 0x155C JUMPI DUP1 PUSH20 0xFFFFFFFFFFFFFFFFFFFFFFFFFFFFFFFFFFFFFFFF NOT PUSH1 0x4 SLOAD AND OR PUSH1 0x4 SSTORE PUSH2 0x1535 PUSH2 0x1529 PUSH1 0x3 SLOAD PUSH1 0x1 PUSH1 0x1 PUSH1 0xA0 SHL SUB AND SWAP1 JUMP JUMPDEST PUSH1 0x1 PUSH1 0x1 PUSH1 0xA0 SHL SUB AND SWAP1 JUMP JUMPDEST PUSH32 0xED8889F560326EB138920D842192F0EB3DD22B4F139C87A2C57538E05BAE1278 PUSH1 0x0 DUP1 LOG3 STOP JUMPDEST PUSH1 0x64 PUSH1 0x40 MLOAD PUSH3 0x461BCD PUSH1 0xE5 SHL DUP2 MSTORE PUSH1 0x20 PUSH1 0x4 DUP3 ADD MSTORE PUSH1 0x17 PUSH1 0x24 DUP3 ADD MSTORE PUSH32 0x43616E6E6F74207472616E7366657220746F2073656C66000000000000000000 PUSH1 0x44 DUP3 ADD MSTORE REVERT JUMPDEST CALLVALUE PUSH2 0x2F4 JUMPI PUSH1 0x0 CALLDATASIZE PUSH1 0x3 NOT ADD SLT PUSH2 0x2F4 JUMPI PUSH1 0x20 PUSH1 0x15 SLOAD PUSH1 0x40 MLOAD SWAP1 DUP2 MSTORE RETURN JUMPDEST CALLVALUE PUSH2 0x2F4 JUMPI PUSH1 0x0 CALLDATASIZE PUSH1 0x3 NOT ADD SLT PUSH2 0x2F4 JUMPI PUSH1 0x20 PUSH4 0xFFFFFFFF PUSH1 0x10 SLOAD AND PUSH1 0x40 MLOAD SWAP1 DUP2 MSTORE RETURN JUMPDEST CALLVALUE PUSH2 0x2F4 JUMPI PUSH1 0x0 CALLDATASIZE PUSH1 0x3 NOT ADD SLT PUSH2 0x2F4 JUMPI PUSH1 0x20 PUSH1 0x1 PUSH1 0x1 PUSH1 0xA0 SHL SUB PUSH1 0xC SLOAD AND PUSH1 0x40 MLOAD SWAP1 DUP2 MSTORE RETURN JUMPDEST CALLVALUE PUSH2 0x2F4 JUMPI PUSH1 0x0 DUP1 PUSH1 0x3 NOT CALLDATASIZE ADD SLT PUSH2 0x8C0 JUMPI PUSH1 0x40 MLOAD SWAP1 DUP1 PUSH1 0x8 SLOAD PUSH2 0x162C DUP2 PUSH2 0x413 JUMP JUMPDEST DUP1 DUP6 MSTORE SWAP2 PUSH1 0x1 SWAP2 DUP1 DUP4 AND SWAP1 DUP2 ISZERO PUSH2 0x896 JUMPI POP PUSH1 0x1 EQ PUSH2 0x1655 JUMPI PUSH2 0x590 DUP6 PUSH2 0x584 DUP2 DUP8 SUB DUP3 PUSH2 0x463 JUMP JUMPDEST SWAP3 POP PUSH1 0x8 DUP4 MSTORE PUSH32 0xF3F7A9FE364FAAB93B216DA50A3214154F22A0A2B415B23A84C8169E8B636EE3 JUMPDEST DUP3 DUP5 LT PUSH2 0x1698 JUMPI POP POP POP DUP2 ADD PUSH1 0x20 ADD PUSH2 0x584 DUP3 PUSH2 0x590 PUSH2 0x82B JUMP JUMPDEST DUP1 SLOAD PUSH1 0x20 DUP6 DUP8 ADD DUP2 ADD SWAP2 SWAP1 SWAP2 MSTORE SWAP1 SWAP4 ADD SWAP3 DUP2 ADD PUSH2 0x167D JUMP JUMPDEST PUSH1 0x1 PUSH1 0x1 PUSH1 0xA0 SHL SUB PUSH1 0x3 SLOAD AND CALLER SUB PUSH2 0x16C4 JUMPI JUMP JUMPDEST PUSH1 0x64 PUSH1 0x40 MLOAD PUSH3 0x461BCD PUSH1 0xE5 SHL DUP2 MSTORE PUSH1 0x20 PUSH1 0x4 DUP3 ADD MSTORE PUSH1 0x16 PUSH1 0x24 DUP3 ADD MSTORE PUSH32 0x4F6E6C792063616C6C61626C65206279206F776E657200000000000000000000 PUSH1 0x44 DUP3 ADD MSTORE REVERT JUMPDEST DUP2 DUP2 LT PUSH2 0x1713 JUMPI POP POP JUMP JUMPDEST PUSH1 0x0 DUP2 SSTORE PUSH1 0x1 ADD PUSH2 0x1708 JUMP JUMPDEST SWAP1 PUSH1 0x1F DUP3 GT PUSH2 0x172C JUMPI POP POP JUMP JUMPDEST PUSH2 0x62E SWAP2 PUSH1 0x5 PUSH1 0x0 MSTORE PUSH32 0x36B6384B5ECA791C62761152D0C79BB0604C104A5FB6F4EB0703F3154BB3DB0 SWAP1 PUSH1 0x20 PUSH1 0x1F DUP5 ADD PUSH1 0x5 SHR DUP4 ADD SWAP4 LT PUSH2 0x1776 JUMPI JUMPDEST PUSH1 0x1F ADD PUSH1 0x5 SHR ADD SWAP1 PUSH2 0x1708 JUMP JUMPDEST SWAP1 SWAP2 POP DUP2 SWAP1 PUSH2 0x1769 JUMP JUMPDEST SWAP1 PUSH1 0x1F DUP3 GT PUSH2 0x178D JUMPI POP POP JUMP JUMPDEST PUSH2 0x62E SWAP2 PUSH1 0x24 PUSH1 0x0 MSTORE PUSH32 0x7CD332D19B93BCABE3CCE7CA0C18A052F57E5FD03B4758A09F30F5DDC4B22EC4 SWAP1 PUSH1 0x20 PUSH1 0x1F DUP5 ADD PUSH1 0x5 SHR DUP4 ADD SWAP4 LT PUSH2 0x1776 JUMPI PUSH1 0x1F ADD PUSH1 0x5 SHR ADD SWAP1 PUSH2 0x1708 JUMP JUMPDEST SWAP1 PUSH1 0x1F DUP3 GT PUSH2 0x17E3 JUMPI POP POP JUMP JUMPDEST PUSH2 0x62E SWAP2 PUSH1 0x7 PUSH1 0x0 MSTORE PUSH32 0xA66CC928B5EDB82AF9BD49922954155AB7B0942694BEA4CE44661D9A8736C688 SWAP1 PUSH1 0x20 PUSH1 0x1F DUP5 ADD PUSH1 0x5 SHR DUP4 ADD SWAP4 LT PUSH2 0x1776 JUMPI PUSH1 0x1F ADD PUSH1 0x5 SHR ADD SWAP1 PUSH2 0x1708 JUMP JUMPDEST SWAP1 PUSH1 0x1F DUP3 GT PUSH2 0x1839 JUMPI POP POP JUMP JUMPDEST PUSH2 0x62E SWAP2 PUSH1 0x8 PUSH1 0x0 MSTORE PUSH32 0xF3F7A9FE364FAAB93B216DA50A3214154F22A0A2B415B23A84C8169E8B636EE3 SWAP1 PUSH1 0x20 PUSH1 0x1F DUP5 ADD PUSH1 0x5 SHR DUP4 ADD SWAP4 LT PUSH2 0x1776 JUMPI PUSH1 0x1F ADD PUSH1 0x5 SHR ADD SWAP1 PUSH2 0x1708 JUMP JUMPDEST SWAP2 SWAP1 PUSH1 0x1F DUP2 GT PUSH2 0x1891 JUMPI POP POP POP JUMP JUMPDEST PUSH2 0x62E SWAP3 PUSH1 0x0 MSTORE PUSH1 0x20 PUSH1 0x0 KECCAK256 SWAP1 PUSH1 0x20 PUSH1 0x1F DUP5 ADD PUSH1 0x5 SHR DUP4 ADD SWAP4 LT PUSH2 0x1776 JUMPI PUSH1 0x1F ADD PUSH1 0x5 SHR ADD SWAP1 PUSH2 0x1708 JUMP JUMPDEST PUSH4 0x4E487B71 PUSH1 0xE0 SHL PUSH1 0x0 MSTORE PUSH1 0x11 PUSH1 0x4 MSTORE PUSH1 0x24 PUSH1 0x0 REVERT JUMPDEST PUSH1 0x18 SLOAD TIMESTAMP SUB TIMESTAMP DUP2 GT PUSH2 0xEF3 JUMPI PUSH1 0xA SLOAD LT SWAP1 PUSH1 0x60 SWAP1 JUMP JUMPDEST ISZERO PUSH2 0x18EF JUMPI JUMP JUMPDEST PUSH1 0x64 PUSH1 0x40 MLOAD PUSH3 0x461BCD PUSH1 0xE5 SHL DUP2 MSTORE PUSH1 0x20 PUSH1 0x4 DUP3 ADD MSTORE PUSH1 0x15 PUSH1 0x24 DUP3 ADD MSTORE PUSH32 0x55706B656570206E6F7420726567697374657265640000000000000000000000 PUSH1 0x44 DUP3 ADD MSTORE REVERT JUMPDEST PUSH1 0x40 MLOAD SWAP1 PUSH1 0x20 DUP3 ADD DUP3 DUP2 LT PUSH8 0xFFFFFFFFFFFFFFFF DUP3 GT OR PUSH2 0x485 JUMPI PUSH1 0x40 MSTORE PUSH1 0x0 DUP3 MSTORE JUMP JUMPDEST ISZERO PUSH2 0x195E JUMPI JUMP JUMPDEST PUSH1 0x64 PUSH1 0x40 MLOAD PUSH3 0x461BCD PUSH1 0xE5 SHL DUP2 MSTORE PUSH1 0x20 PUSH1 0x4 DUP3 ADD MSTORE PUSH1 0x15 PUSH1 0x24 DUP3 ADD MSTORE PUSH32 0x54696D6520696E74657276616C206E6F74206D65740000000000000000000000 PUSH1 0x44 DUP3 ADD MSTORE REVERT JUMPDEST SWAP1 PUSH1 0x1 DUP3 ADD DUP1 SWAP3 GT PUSH2 0xEF3 JUMPI JUMP JUMPDEST PUSH2 0x19BD PUSH1 0xE SLOAD ISZERO ISZERO PUSH2 0x18E8 JUMP JUMPDEST PUSH2 0x19C5 PUSH2 0x1933 JUMP JUMPDEST POP PUSH2 0x19D7 PUSH2 0x19D1 PUSH2 0x18D2 JUMP JUMPDEST POP PUSH2 0x1957 JUMP JUMPDEST PUSH2 0x19E0 TIMESTAMP PUSH1 0x18 SSTORE JUMP JUMPDEST PUSH2 0x19F3 PUSH2 0x19EE PUSH1 0x19 SLOAD PUSH2 0x19A2 JUMP JUMPDEST PUSH1 0x19 SSTORE JUMP JUMPDEST PUSH1 0x21 SLOAD GT ISZERO PUSH2 0x1AC9 JUMPI PUSH2 0x1A34 PUSH2 0x1A2F PUSH2 0x1A15 PUSH1 0x9 SLOAD PUSH8 0xFFFFFFFFFFFFFFFF AND SWAP1 JUMP JUMPDEST PUSH1 0x10 SLOAD PUSH4 0xFFFFFFFF AND PUSH1 0x11 SLOAD SWAP2 PUSH2 0x1A2A PUSH2 0x5F3 JUMP JUMPDEST PUSH2 0x1FF3 JUMP JUMPDEST PUSH1 0x12 SSTORE JUMP JUMPDEST PUSH1 0x12 SLOAD PUSH1 0x0 SSTORE PUSH2 0x1A4D PUSH2 0x1A48 PUSH1 0x16 SLOAD PUSH2 0x19A2 JUMP JUMPDEST PUSH1 0x16 SSTORE JUMP JUMPDEST PUSH1 0x0 SLOAD PUSH1 0x40 MLOAD SWAP1 DUP2 MSTORE PUSH32 0x94D22F84ECC32BB8DD315DFDF3E823F4CB62C2EB803A2D4A470B57E7C42D5D76 SWAP1 PUSH1 0x20 SWAP1 LOG1 PUSH32 0xD3FAFFAD7EF1F2C31A43A6D3C3CA68805A12AD17C4E6D65ED29F86103C8A925F PUSH2 0x1AC4 PUSH2 0x1AB0 PUSH1 0x1E SLOAD PUSH1 0xFF SWAP1 PUSH1 0xA0 SHR AND SWAP1 JUMP JUMPDEST PUSH1 0x40 MLOAD PUSH1 0xFF SWAP1 SWAP2 AND DUP2 MSTORE SWAP1 DUP2 SWAP1 PUSH1 0x20 DUP3 ADD SWAP1 JUMP JUMPDEST SUB SWAP1 LOG1 JUMP JUMPDEST PUSH2 0x1B0D PUSH21 0x10000000000000000000000000000000000000000 PUSH32 0xFFFFFFFFFFFFFFFFFFFFFF00FFFFFFFFFFFFFFFFFFFFFFFFFFFFFFFFFFFFFFFF PUSH1 0x1E SLOAD AND OR PUSH1 0x1E SSTORE JUMP JUMPDEST PUSH2 0x1A34 PUSH2 0x1A2F PUSH2 0x1B26 PUSH1 0x9 SLOAD PUSH8 0xFFFFFFFFFFFFFFFF AND SWAP1 JUMP JUMPDEST PUSH1 0x10 SLOAD PUSH4 0xFFFFFFFF AND PUSH1 0x11 SLOAD SWAP2 PUSH2 0x1A2A PUSH2 0x6B1 JUMP JUMPDEST SWAP1 DUP2 MLOAD PUSH8 0xFFFFFFFFFFFFFFFF DUP2 GT PUSH2 0x485 JUMPI PUSH2 0x1B61 DUP2 PUSH2 0x1B5C PUSH1 0x7 SLOAD PUSH2 0x413 JUMP JUMPDEST PUSH2 0x17D6 JUMP JUMPDEST PUSH1 0x20 DUP1 PUSH1 0x1F DUP4 GT PUSH1 0x1 EQ PUSH2 0x1B9D JUMPI POP DUP2 SWAP3 SWAP4 PUSH1 0x0 SWAP3 PUSH2 0x1B92 JUMPI JUMPDEST POP POP DUP2 PUSH1 0x1 SHL SWAP2 PUSH1 0x0 NOT SWAP1 PUSH1 0x3 SHL SHR NOT AND OR PUSH1 0x7 SSTORE JUMP JUMPDEST ADD MLOAD SWAP1 POP CODESIZE DUP1 PUSH2 0x1B7B JUMP JUMPDEST SWAP1 PUSH1 0x1F NOT DUP4 AND SWAP5 PUSH2 0x1BD0 PUSH1 0x7 PUSH1 0x0 MSTORE PUSH32 0xA66CC928B5EDB82AF9BD49922954155AB7B0942694BEA4CE44661D9A8736C688 SWAP1 JUMP JUMPDEST SWAP3 PUSH1 0x0 SWAP1 JUMPDEST DUP8 DUP3 LT PUSH2 0x1C0D JUMPI POP POP DUP4 PUSH1 0x1 SWAP6 SWAP7 LT PUSH2 0x1BF4 JUMPI JUMPDEST POP POP POP DUP2 SHL ADD PUSH1 0x7 SSTORE JUMP JUMPDEST ADD MLOAD PUSH1 0x0 NOT PUSH1 0xF8 DUP5 PUSH1 0x3 SHL AND SHR NOT AND SWAP1 SSTORE CODESIZE DUP1 DUP1 PUSH2 0x1BE9 JUMP JUMPDEST DUP1 PUSH1 0x1 DUP6 SWAP7 DUP3 SWAP5 SWAP7 DUP7 ADD MLOAD DUP2 SSTORE ADD SWAP6 ADD SWAP4 ADD SWAP1 PUSH2 0x1BD5 JUMP JUMPDEST SWAP1 DUP2 MLOAD PUSH8 0xFFFFFFFFFFFFFFFF DUP2 GT PUSH2 0x485 JUMPI PUSH2 0x1C4B DUP2 PUSH2 0x1C46 PUSH1 0x8 SLOAD PUSH2 0x413 JUMP JUMPDEST PUSH2 0x182C JUMP JUMPDEST PUSH1 0x20 DUP1 PUSH1 0x1F DUP4 GT PUSH1 0x1 EQ PUSH2 0x1C87 JUMPI POP DUP2 SWAP3 SWAP4 PUSH1 0x0 SWAP3 PUSH2 0x1C7C JUMPI JUMPDEST POP POP DUP2 PUSH1 0x1 SHL SWAP2 PUSH1 0x0 NOT SWAP1 PUSH1 0x3 SHL SHR NOT AND OR PUSH1 0x8 SSTORE JUMP JUMPDEST ADD MLOAD SWAP1 POP CODESIZE DUP1 PUSH2 0x1C65 JUMP JUMPDEST SWAP1 PUSH1 0x1F NOT DUP4 AND SWAP5 PUSH2 0x1CBA PUSH1 0x8 PUSH1 0x0 MSTORE PUSH32 0xF3F7A9FE364FAAB93B216DA50A3214154F22A0A2B415B23A84C8169E8B636EE3 SWAP1 JUMP JUMPDEST SWAP3 PUSH1 0x0 SWAP1 JUMPDEST DUP8 DUP3 LT PUSH2 0x1CF7 JUMPI POP POP DUP4 PUSH1 0x1 SWAP6 SWAP7 LT PUSH2 0x1CDE JUMPI JUMPDEST POP POP POP DUP2 SHL ADD PUSH1 0x8 SSTORE JUMP JUMPDEST ADD MLOAD PUSH1 0x0 NOT PUSH1 0xF8 DUP5 PUSH1 0x3 SHL AND SHR NOT AND SWAP1 SSTORE CODESIZE DUP1 DUP1 PUSH2 0x1CD3 JUMP JUMPDEST DUP1 PUSH1 0x1 DUP6 SWAP7 DUP3 SWAP5 SWAP7 DUP7 ADD MLOAD DUP2 SSTORE ADD SWAP6 ADD SWAP4 ADD SWAP1 PUSH2 0x1CBF JUMP JUMPDEST PUSH1 0x20 DUP2 MLOAD SWAP2 ADD MLOAD SWAP1 PUSH1 0x20 DUP2 LT PUSH2 0x1D23 JUMPI POP SWAP1 JUMP JUMPDEST PUSH1 0x0 NOT SWAP1 PUSH1 0x20 SUB PUSH1 0x3 SHL SHL AND SWAP1 JUMP JUMPDEST DUP1 MLOAD ISZERO PUSH2 0x3F8 JUMPI PUSH1 0x20 ADD SWAP1 JUMP JUMPDEST PUSH1 0x40 MLOAD SWAP1 PUSH1 0x40 DUP3 ADD DUP3 DUP2 LT PUSH8 0xFFFFFFFFFFFFFFFF DUP3 GT OR PUSH2 0x485 JUMPI PUSH1 0x40 MSTORE PUSH1 0x10 DUP3 MSTORE PUSH32 0x726573706F6E736520737472696E673A00000000000000000000000000000000 PUSH1 0x20 DUP4 ADD MSTORE JUMP JUMPDEST PUSH1 0x22 SLOAD PUSH9 0x10000000000000000 DUP2 LT ISZERO PUSH2 0x485 JUMPI PUSH2 0x1DAE PUSH1 0x1 SWAP2 DUP3 DUP2 ADD PUSH1 0x22 SSTORE PUSH2 0x3C1 JUMP JUMPDEST SWAP3 SWAP1 SWAP3 PUSH2 0x1E81 JUMPI DUP1 MLOAD SWAP1 PUSH8 0xFFFFFFFFFFFFFFFF DUP3 GT PUSH2 0x485 JUMPI PUSH2 0x1DDB DUP3 PUSH2 0x1DD5 DUP7 SLOAD PUSH2 0x413 JUMP JUMPDEST DUP7 PUSH2 0x1882 JUMP JUMPDEST PUSH1 0x20 SWAP1 DUP2 PUSH1 0x1F DUP5 GT PUSH1 0x1 EQ PUSH2 0x1E17 JUMPI POP SWAP3 DUP3 SWAP4 SWAP2 DUP4 SWAP3 PUSH1 0x0 SWAP5 PUSH2 0x1E0C JUMPI JUMPDEST POP POP SHL SWAP2 PUSH1 0x0 NOT SWAP1 PUSH1 0x3 SHL SHR NOT AND OR SWAP1 SSTORE JUMP JUMPDEST ADD MLOAD SWAP3 POP CODESIZE DUP1 PUSH2 0x1DF9 JUMP JUMPDEST SWAP2 SWAP1 DUP4 PUSH1 0x1F NOT DUP2 AND PUSH2 0x1E2E DUP9 PUSH1 0x0 MSTORE PUSH1 0x20 PUSH1 0x0 KECCAK256 SWAP1 JUMP JUMPDEST SWAP5 PUSH1 0x0 SWAP1 JUMPDEST DUP9 DUP4 DUP4 LT PUSH2 0x1E67 JUMPI POP POP POP LT PUSH2 0x1E4E JUMPI JUMPDEST POP POP POP DUP2 SHL ADD SWAP1 SSTORE JUMP JUMPDEST ADD MLOAD PUSH1 0x0 NOT PUSH1 0xF8 DUP5 PUSH1 0x3 SHL AND SHR NOT AND SWAP1 SSTORE CODESIZE DUP1 DUP1 PUSH2 0x1E44 JUMP JUMPDEST DUP6 DUP8 ADD MLOAD DUP9 SSTORE SWAP1 SWAP7 ADD SWAP6 SWAP5 DUP6 ADD SWAP5 DUP8 SWAP4 POP SWAP1 DUP2 ADD SWAP1 PUSH2 0x1E33 JUMP JUMPDEST PUSH2 0x3FD JUMP JUMPDEST SWAP1 SWAP2 PUSH2 0x1E9D PUSH2 0x4FE SWAP4 PUSH1 0x40 DUP5 MSTORE PUSH1 0x40 DUP5 ADD SWAP1 PUSH2 0x4AD JUMP JUMPDEST SWAP2 PUSH1 0x20 DUP2 DUP5 SUB SWAP2 ADD MSTORE PUSH2 0x4AD JUMP JUMPDEST RETURNDATASIZE ISZERO PUSH2 0x1ED6 JUMPI RETURNDATASIZE SWAP1 PUSH2 0x1EBC DUP3 PUSH2 0xB20 JUMP JUMPDEST SWAP2 PUSH2 0x1ECA PUSH1 0x40 MLOAD SWAP4 DUP5 PUSH2 0x463 JUMP JUMPDEST DUP3 MSTORE RETURNDATASIZE PUSH1 0x0 PUSH1 0x20 DUP5 ADD RETURNDATACOPY JUMP JUMPDEST PUSH1 0x60 SWAP1 JUMP JUMPDEST ISZERO PUSH2 0x1EE2 JUMPI JUMP JUMPDEST PUSH1 0x64 PUSH1 0x40 MLOAD PUSH3 0x461BCD PUSH1 0xE5 SHL DUP2 MSTORE PUSH1 0x20 PUSH1 0x4 DUP3 ADD MSTORE PUSH1 0x1B PUSH1 0x24 DUP3 ADD MSTORE PUSH32 0x4572726F20616F207061676172206120696E64656E697A6163616F0000000000 PUSH1 0x44 DUP3 ADD MSTORE REVERT JUMPDEST PUSH1 0x25 SLOAD PUSH1 0x20 SLOAD GT ISZERO PUSH2 0x1F64 JUMPI PUSH2 0x62E PUSH1 0x0 DUP1 DUP1 DUP1 PUSH2 0x1F52 PUSH2 0x1529 PUSH2 0x1529 PUSH1 0x1D SLOAD PUSH1 0x1 PUSH1 0x1 PUSH1 0xA0 SHL SUB AND SWAP1 JUMP JUMPDEST SELFBALANCE SWAP1 GAS CALL PUSH2 0x1F5E PUSH2 0x1EAB JUMP JUMPDEST POP PUSH2 0x1EDB JUMP JUMPDEST PUSH1 0x0 DUP1 DUP1 DUP1 PUSH1 0x1 PUSH1 0x1 PUSH1 0xA0 SHL SUB PUSH1 0x1C SLOAD AND SELFBALANCE SWAP1 GAS CALL PUSH2 0x1F81 PUSH2 0x1EAB JUMP JUMPDEST POP ISZERO PUSH2 0x1F89 JUMPI JUMP JUMPDEST PUSH1 0x84 PUSH1 0x40 MLOAD PUSH3 0x461BCD PUSH1 0xE5 SHL DUP2 MSTORE PUSH1 0x20 PUSH1 0x4 DUP3 ADD MSTORE PUSH1 0x2D PUSH1 0x24 DUP3 ADD MSTORE PUSH32 0x4572726F20616F207265746F726E6172206F732066756E646F73207061726120 PUSH1 0x44 DUP3 ADD MSTORE PUSH32 0x6120696E73746974756963616F00000000000000000000000000000000000000 PUSH1 0x64 DUP3 ADD MSTORE REVERT JUMPDEST SWAP2 SWAP1 SWAP4 SWAP3 SWAP4 PUSH1 0x40 MLOAD SWAP2 PUSH1 0xA0 DUP4 ADD PUSH8 0xFFFFFFFFFFFFFFFF SWAP3 DUP5 DUP3 LT DUP5 DUP4 GT OR PUSH2 0x485 JUMPI DUP4 SWAP2 PUSH1 0x40 MSTORE AND DUP4 MSTORE PUSH1 0x20 SWAP4 DUP5 DUP5 ADD SWAP1 DUP2 MSTORE PUSH1 0x40 DUP5 ADD SWAP3 PUSH1 0x1 DUP1 DUP6 MSTORE PUSH4 0xFFFFFFFF PUSH1 0x60 DUP8 ADD SWAP5 AND DUP5 MSTORE PUSH1 0x80 DUP7 ADD SWAP9 DUP10 MSTORE DUP1 SLOAD SWAP7 PUSH1 0x0 SWAP8 DUP1 DUP10 SSTORE PUSH2 0x2056 DUP2 PUSH2 0x19A2 JUMP JUMPDEST DUP4 SSTORE DUP9 MSTORE PUSH1 0x2 DUP2 MSTORE PUSH1 0x40 DUP9 KECCAK256 DUP1 SLOAD PUSH9 0x10000000000000000 DUP2 LT ISZERO PUSH2 0x485 JUMPI PUSH2 0x2083 SWAP2 DUP5 DUP3 ADD DUP2 SSTORE PUSH2 0x119A JUMP JUMPDEST SWAP8 SWAP1 SWAP8 PUSH2 0x1E81 JUMPI DUP4 PUSH2 0x20AF SWAP2 MLOAD AND DUP9 SWAP1 PUSH8 0xFFFFFFFFFFFFFFFF AND PUSH8 0xFFFFFFFFFFFFFFFF NOT DUP3 SLOAD AND OR SWAP1 SSTORE JUMP JUMPDEST DUP2 DUP8 ADD SWAP4 MLOAD DUP1 MLOAD SWAP4 DUP5 GT PUSH2 0x485 JUMPI PUSH2 0x20D1 DUP5 PUSH2 0x20CB DUP8 SLOAD PUSH2 0x413 JUMP JUMPDEST DUP8 PUSH2 0x1882 JUMP JUMPDEST DUP2 PUSH1 0x1F DUP6 GT PUSH1 0x1 EQ PUSH2 0x218F JUMPI POP SWAP4 DUP4 DUP1 PUSH1 0x3 SWAP9 SWAP6 PUSH2 0x2159 SWAP6 PUSH32 0x1131472297A800FEE664D1D89CFA8F7676FF07189ECC53F80BBB5F4969099DB8 SWAP14 SWAP15 SWAP10 SWAP6 PUSH2 0x2176 SWAP10 DUP15 SWAP5 PUSH2 0x2184 JUMPI JUMPDEST POP POP SHL SWAP2 PUSH1 0x0 NOT SWAP1 DUP11 SHL SHR NOT AND OR SWAP1 SSTORE JUMPDEST PUSH2 0x214F PUSH2 0x213D PUSH1 0x2 DUP10 ADD SWAP5 MLOAD PUSH2 0xFFFF AND SWAP1 JUMP JUMPDEST DUP5 SLOAD PUSH2 0xFFFF NOT AND PUSH2 0xFFFF SWAP1 SWAP2 AND OR DUP5 SSTORE JUMP JUMPDEST MLOAD PUSH4 0xFFFFFFFF AND SWAP1 JUMP JUMPDEST PUSH6 0xFFFFFFFF0000 DUP3 SLOAD SWAP2 PUSH1 0x10 SHL AND SWAP1 PUSH6 0xFFFFFFFF0000 NOT AND OR SWAP1 SSTORE JUMP JUMPDEST MLOAD SWAP2 ADD SSTORE DUP1 SLOAD SWAP2 DUP2 DUP4 SWAP3 LOG2 SWAP1 JUMP JUMPDEST ADD MLOAD SWAP3 POP CODESIZE DUP1 PUSH2 0x2119 JUMP JUMPDEST SWAP2 SWAP1 PUSH1 0x1F SWAP5 SWAP4 SWAP5 NOT DUP5 AND PUSH2 0x21A8 DUP8 PUSH1 0x0 MSTORE PUSH1 0x20 PUSH1 0x0 KECCAK256 SWAP1 JUMP JUMPDEST SWAP4 DUP12 SWAP1 JUMPDEST DUP3 DUP3 LT PUSH2 0x2215 JUMPI POP POP SWAP4 PUSH32 0x1131472297A800FEE664D1D89CFA8F7676FF07189ECC53F80BBB5F4969099DB8 SWAP12 SWAP13 SWAP8 SWAP4 PUSH2 0x2176 SWAP8 SWAP4 PUSH1 0x3 SWAP11 SWAP8 SWAP4 DUP4 PUSH2 0x2159 SWAP9 LT PUSH2 0x21FD JUMPI JUMPDEST POP POP POP DUP2 SHL ADD SWAP1 SSTORE PUSH2 0x212A JUMP JUMPDEST ADD MLOAD PUSH1 0x0 NOT DUP4 DUP13 SHL PUSH1 0xF8 AND SHR NOT AND SWAP1 SSTORE CODESIZE DUP1 DUP1 PUSH2 0x21F0 JUMP JUMPDEST DUP1 DUP9 DUP7 SWAP8 DUP3 SWAP5 SWAP8 DUP8 ADD MLOAD DUP2 SSTORE ADD SWAP7 ADD SWAP5 ADD SWAP1 PUSH2 0x21AC JUMP JUMPDEST PUSH2 0x2273 PUSH2 0x2281 PUSH2 0x62E SWAP3 PUSH1 0x40 MLOAD SWAP3 DUP4 SWAP2 PUSH32 0xBE77F5600000000000000000000000000000000000000000000000000000000 PUSH1 0x20 DUP5 ADD MSTORE PUSH1 0x20 PUSH1 0x24 DUP5 ADD MSTORE PUSH1 0x44 DUP4 ADD SWAP1 PUSH2 0x4AD JUMP JUMPDEST SUB PUSH1 0x1F NOT DUP2 ADD DUP4 MSTORE DUP3 PUSH2 0x463 JUMP JUMPDEST PUSH1 0x0 DUP1 SWAP2 PUSH1 0x20 DUP2 MLOAD SWAP2 ADD PUSH11 0x636F6E736F6C652E6C6F67 GAS STATICCALL POP JUMP JUMPDEST PUSH32 0xFF00000000000000000000000000000000000000000000000000000000000000 PUSH1 0x40 MLOAD SWAP2 PUSH32 0x6E18A12800000000000000000000000000000000000000000000000000000000 PUSH1 0x20 DUP5 ADD MSTORE AND PUSH1 0x24 DUP3 ADD MSTORE PUSH1 0x24 DUP2 MSTORE PUSH1 0x60 DUP2 ADD SWAP1 DUP1 DUP3 LT PUSH8 0xFFFFFFFFFFFFFFFF DUP4 GT OR PUSH2 0x485 JUMPI PUSH2 0x62E SWAP2 PUSH1 0x40 MSTORE PUSH2 0x2281 JUMP JUMPDEST PUSH2 0x2281 PUSH2 0x2360 SWAP2 PUSH2 0x2273 PUSH2 0x62E SWAP5 PUSH1 0x40 MLOAD SWAP5 DUP6 SWAP4 PUSH32 0x4B5C427700000000000000000000000000000000000000000000000000000000 PUSH1 0x20 DUP7 ADD MSTORE PUSH1 0x40 PUSH1 0x24 DUP7 ADD MSTORE PUSH1 0x64 DUP6 ADD SWAP1 PUSH2 0x4AD JUMP JUMPDEST DUP4 DUP2 SUB PUSH1 0x23 NOT ADD PUSH1 0x44 DUP6 ADD MSTORE SWAP1 PUSH2 0x4AD JUMP INVALID LOG2 PUSH5 0x6970667358 0x22 SLT KECCAK256 0xAB 0xEA PUSH21 0x25C9A604B5B6DB3DB15DE022214A1A59268D1B34EC CALLCODE BLOCKHASH 0xA8 RETURN 0x2F BALANCE PUSH2 0x864 PUSH20 0x6F6C634300081300330000000000000000000000 "},"methodIdentifiers":{"REQUEST_DATA_VERSION()":"5d641dfc","acceptOwnership()":"79ba5097","checkUpkeep(bytes)":"6e04ff0d","computationCBOR()":"bd4ca97b","contractBalance()":"8b7afe2e","donID()":"6e74336b","farmer()":"d811fcf0","fulfillGasLimit()":"24b93e3e","fulfillRequest(bytes32,bytes,bytes)":"39b05122","gasLimit()":"f68016b7","humidityLimit()":"a3097139","institution()":"d1384eb6","interval()":"947a36fb","lastUpkeepTimeStamp()":"089ea02e","latestError()":"fffeb84e","latestRequestId()":"1aa46f59","latestResponse()":"bef3a2f0","owner()":"8da5cb5b","performUpkeep(bytes,uint256)":"b8a4836e","registry()":"7b103999","reparationValue()":"48bd6f05","request()":"338cdca1","requestCBOR()":"688ecfd1","requestId()":"006d6cae","requests(bytes32,uint256)":"9655e6d8","responseCounter()":"381fc4b5","router()":"f887ea40","s_lastError()":"4b0795a8","s_lastRequestId()":"b1e21749","s_lastResponse()":"3944ea3a","s_requestCounter()":"48802b92","s_responseCounter()":"43cd3d86","s_upkeepCounter()":"f5c1279b","sampleMaxSize()":"ebf14a55","sampleStorage(uint256)":"277e2213","sepoliaLINKAddress()":"1243bcc3","sepoliaRegistrarAddress()":"6baa48fe","setComputation(bytes)":"7d95f68a","setRequest(bytes,uint64,bytes32)":"36e6a92f","subscriptionId()":"09c1ba2e","transferOwnership(address)":"f2fde38b","upkeepContract()":"5e0611f1","upkeepCounter()":"a3d3c0d2","upkeepId()":"d2aa789f"}}}}}