{"contracts/Institution.sol":{"Institution":{"abi":[{"inputs":[{"internalType":"address","name":"_owner","type":"address"},{"internalType":"string","name":"_institutionName","type":"string"}],"stateMutability":"nonpayable","type":"constructor"},{"inputs":[],"name":"NotOwner","type":"error"},{"anonymous":false,"inputs":[{"indexed":false,"internalType":"address","name":"insuranceContractAddress","type":"address"}],"name":"InsuranceContractCreated","type":"event"},{"inputs":[{"internalType":"address","name":"_farmerAddr","type":"address"}],"name":"blacklistAddr","outputs":[],"stateMutability":"nonpayable","type":"function"},{"inputs":[],"name":"contractBalance","outputs":[{"internalType":"uint256","name":"","type":"uint256"}],"stateMutability":"view","type":"function"},{"inputs":[{"internalType":"address","name":"","type":"address"},{"internalType":"uint256","name":"","type":"uint256"}],"name":"contracts","outputs":[{"internalType":"contract AutomatedFunctionsConsumer","name":"","type":"address"}],"stateMutability":"view","type":"function"},{"inputs":[{"internalType":"address","name":"_deployer","type":"address"},{"internalType":"address","name":"_farmer","type":"address"},{"internalType":"uint256","name":"_humidityLimit","type":"uint256"},{"internalType":"uint256","name":"_sampleMaxSize","type":"uint256"},{"internalType":"uint256","name":"_reparationValue","type":"uint256"},{"internalType":"uint256","name":"_updateInterval","type":"uint256"},{"internalType":"address","name":"router","type":"address"},{"internalType":"uint64","name":"_subscriptionId","type":"uint64"},{"internalType":"address","name":"_registry","type":"address"},{"internalType":"address","name":"_sepoliaLINKAddress","type":"address"},{"internalType":"address","name":"_sepoliaRegistrarAddress","type":"address"},{"internalType":"uint96","name":"_upkeepFundAmount","type":"uint96"},{"internalType":"uint32","name":"_fulfillGasLimit","type":"uint32"}],"name":"createInsuranceContract","outputs":[],"stateMutability":"nonpayable","type":"function"},{"inputs":[{"internalType":"uint256","name":"_index","type":"uint256"}],"name":"getInsurance","outputs":[{"internalType":"contract AutomatedFunctionsConsumer","name":"","type":"address"}],"stateMutability":"view","type":"function"},{"inputs":[],"name":"i_owner","outputs":[{"internalType":"address","name":"","type":"address"}],"stateMutability":"view","type":"function"},{"inputs":[],"name":"id","outputs":[{"internalType":"string","name":"","type":"string"}],"stateMutability":"view","type":"function"},{"inputs":[],"name":"institutionName","outputs":[{"internalType":"string","name":"","type":"string"}],"stateMutability":"view","type":"function"},{"inputs":[{"internalType":"address","name":"_farmerAddr","type":"address"}],"name":"isWhiteListed","outputs":[{"internalType":"bool","name":"","type":"bool"}],"stateMutability":"view","type":"function"},{"inputs":[{"internalType":"string","name":"_name","type":"string"},{"internalType":"string","name":"_description","type":"string"}],"name":"registerInfo","outputs":[],"stateMutability":"nonpayable","type":"function"},{"inputs":[{"internalType":"address","name":"","type":"address"}],"name":"whitelist","outputs":[{"internalType":"bool","name":"","type":"bool"}],"stateMutability":"view","type":"function"},{"inputs":[{"internalType":"address","name":"_farmerAddr","type":"address"}],"name":"whitelistAddr","outputs":[],"stateMutability":"nonpayable","type":"function"},{"inputs":[],"name":"withdraw","outputs":[],"stateMutability":"nonpayable","type":"function"},{"stateMutability":"payable","type":"receive"}],"evm":{"bytecode":{"linkReferences":{},"object":"60a0604052346200024857620053e9803803806200001d816200024d565b928339810190604081830312620002485780516001600160a01b038116810362000248576020828101516001600160401b039391929184821162000248570193601f91818387011215620002485785518581116200021d57601f19966200008a828601891687016200024d565b938285528683830101116200024857859060005b838110620002335750506000918401015260805280519384116200021d57600054926001938481811c9116801562000212575b82821014620001fc57838111620001b1575b5080928511600114620001475750839450908392916000946200013b575b50501b916000199060031b1c1916176000555b60405161517590816200027482396080518181816103aa0152818161054c01526108cd0152f35b01519250388062000101565b9294849081166000805284600020946000905b888383106200019657505050106200017c575b505050811b0160005562000114565b015160001960f88460031b161c191690553880806200016d565b8587015188559096019594850194879350908101906200015a565b60008052816000208480880160051c820192848910620001f2575b0160051c019085905b828110620001e5575050620000e3565b60008155018590620001d5565b92508192620001cc565b634e487b7160e01b600052602260045260246000fd5b90607f1690620000d1565b634e487b7160e01b600052604160045260246000fd5b8181018301518682018401528792016200009e565b600080fd5b6040519190601f01601f191682016001600160401b038111838210176200021d5760405256fe608060405260043610156200001d575b36156200001b57600080fd5b005b60003560e01c8063080a57f914620001065780633a133e2c14620001005780633ccfd60b14620000fa5780636a4ac97914620000f45780636f9170f614620000ee57806385fae60214620000e85780638a699f0014620000e25780638b7afe2e14620000dc5780639b19251a14620000d6578063af640d0f14620000d0578063dba6335f14620000ca578063de5e5b7b14620000c45763ed23f8c3036200000f57620009f8565b62000923565b620008ab565b620007f8565b620007b5565b62000797565b62000759565b62000711565b62000667565b620004ef565b6200038c565b62000297565b62000187565b600435906001600160a01b03821682036200012357565b600080fd5b60c435906001600160a01b03821682036200012357565b61010435906001600160a01b03821682036200012357565b61012435906001600160a01b03821682036200012357565b61014435906001600160a01b03821682036200012357565b346200012357602036600319011262000123576001600160a01b03620001ac6200010c565b166000908152600360205260409020805460ff19166001179055005b90600182811c92168015620001fa575b6020831014620001e457565b634e487b7160e01b600052602260045260246000fd5b91607f1691620001d8565b634e487b7160e01b600052604160045260246000fd5b90601f8019910116810190811067ffffffffffffffff8211176200023e57604052565b62000205565b60005b838110620002585750506000910152565b818101518382015260200162000247565b604091602082526200028b815180928160208601526020868601910162000244565b601f01601f1916010190565b346200012357600080600319360112620003895760405190808054620002bd81620001c8565b808552916001918083169081156200035c5750600114620002fd575b620002f985620002ec818703826200021b565b6040519182918262000269565b0390f35b80809450527f290decd9548b62a8d60345a988386fc84ba6bc95484008f6362f93160ef3e5635b82841062000343575050508101602001620002ec82620002f9620002d9565b8054602085870181019190915290930192810162000324565b869550620002f996935060209250620002ec94915060ff191682840152151560051b8201019293620002d9565b80fd5b34620001235760008060031936011262000389576001600160a01b037f0000000000000000000000000000000000000000000000000000000000000000168033036200045b57818080809347905af13d1562000455573d620003ee8162000485565b90620003fe60405192836200021b565b81528260203d92013e5b15620004115780f35b606460405162461bcd60e51b815260206004820152600f60248201527f4f2073617175652066616c686f752e00000000000000000000000000000000006044820152fd5b62000408565b60046040517f30cd7471000000000000000000000000000000000000000000000000000000008152fd5b67ffffffffffffffff81116200023e57601f01601f191660200190565b81601f820112156200012357803590620004bc8262000485565b92620004cc60405194856200021b565b828452602083830101116200012357816000926020809301838601378301015290565b3462000123576040366003190112620001235767ffffffffffffffff600435818111620001235762000526903690600401620004a2565b602435828111620001235762000541903690600401620004a2565b916001600160a01b037f00000000000000000000000000000000000000000000000000000000000000001633036200045b5760405182818094516200058d816020978880960162000244565b810160028152030190209183519182116200023e57620005ba82620005b38554620001c8565b8562000a49565b80601f8311600114620005f85750819293600092620005ec575b5050600019600383901b1c191660019190911b179055005b015190503880620005d4565b90601f198316946200060f85600052602060002090565b926000905b8782106200064e57505083600195961062000634575b505050811b019055005b015160001960f88460031b161c191690553880806200062a565b8060018596829496860151815501950193019062000614565b346200012357602036600319011262000123576001600160a01b036200068c6200010c565b16600052600360205260ff6040600020541660405160208101917f32458eed000000000000000000000000000000000000000000000000000000008352151590816024820152602481526060810181811067ffffffffffffffff8211176200023e576040525160209260009182916a636f6e736f6c652e6c6f675afa50604051908152f35b3462000123576020366003190112620001235733600052600460205260206001600160a01b03620007496004356040600020620009c9565b9190546040519260031b1c168152f35b346200012357602036600319011262000123576001600160a01b036200077e6200010c565b166000908152600360205260409020805460ff19169055005b34620001235760003660031901126200012357602047604051908152f35b346200012357602036600319011262000123576001600160a01b03620007da6200010c565b166000526003602052602060ff604060002054166040519015158152f35b3462000123576000806003193601126200038957604051908060018054916200082183620001c8565b808652928281169081156200035c57506001146200084c57620002f985620002ec818703826200021b565b92508083527fb10e2d527612073b26eecdfd717e6a320cf44b4afac2b0732d9fcbe2b7fa0cf65b82841062000892575050508101602001620002ec82620002f9620002d9565b8054602085870181019190915290930192810162000873565b3462000123576000366003190112620001235760206040516001600160a01b037f0000000000000000000000000000000000000000000000000000000000000000168152f35b61016435906bffffffffffffffffffffffff821682036200012357565b610184359063ffffffff821682036200012357565b3462000123576101a03660031901126200012357620009416200010c565b602435906001600160a01b038216820362000123576200096062000128565b9160e4359267ffffffffffffffff8416840362000123576200001b93620009866200013f565b906200099162000157565b926200099c6200016f565b94620009a7620008f1565b50620009b26200090e565b9660a4359160843591606435916044359162000af2565b8054821015620009e25760005260206000200190600090565b634e487b7160e01b600052603260045260246000fd5b3462000123576040366003190112620001235762000a156200010c565b602435906001600160a01b0380911660005260046020526040600020805483101562000123576020926200074991620009c9565b90601f811162000a5857505050565b600091825260208220906020601f850160051c8301941062000a97575b601f0160051c01915b82811062000a8b57505050565b81815560010162000a7e565b909250829062000a75565b6040513d6000823e3d90fd5b8054680100000000000000008110156200023e5762000ad391600182018155620009c9565b819291549060031b916001600160a01b03809116831b921b1916179055565b96909a94999398929791956001600160a01b039a8b8d16600052600360205260ff604060002054161562000c3c576040519961449990818c01998c8b1067ffffffffffffffff8c11176200023e578f8d9c8f949c62000bcc9d8f62000ca790399a979296909194958b99949d9c9a966101808b019e6001600160a01b039b8c9a8b809a81809916845216602083015260408201526060015260808d015260a08c01521660c08a015267ffffffffffffffff1660e089015216610100870152166101208501521661014083015263ffffffff16906101600152565b0391f0801562000c365762000c208162000c1a7fa155a575082ecf596e5a22a44834be92670605d1d0832000305888ba02a462d9956001600160a01b03166000526004602052604060002090565b62000aae565b60405191166001600160a01b03168152602090a1565b62000aa2565b608460405162461bcd60e51b815260206004820152602160248201527f456e64657265636f206e616f2065737461206e61206c69737461206272616e6360448201527f61000000000000000000000000000000000000000000000000000000000000006064820152fdfe601f6200449938819003918201601f191660c0908101926001600160401b039283851183861017620002395781610180928492604097885283398101031262000234576200004d816200024f565b906200005c602082016200024f565b92848201519060608301519060808401519560a08501516200008160c087016200024f565b9760e08701519384168094036200023457620000a161010088016200024f565b94620000b161012089016200024f565b96610160620000c46101408b016200024f565b9901519463ffffffff8616860362000234576001600160a01b039b8c166080528a8c169a8b15620001f057918c809b9a98969492819a989694600160a01b60019003199e8f600054161760005560185490600160a81b61010090039060081b1690600160a81b6101009003191617601855168c6019541617601955601c55601d55601b5560075584600654931660a052891b6bffffffff00000000000000001691600160601b60019003191617176006551683600854161760085516906009541617600955600a5416815190815260207f3583c1105fd29a46b4d92ceeaff8be03cba58a11cce44a3b7da77bbc3798edc491a142600f5551614234908162000265823960805181818161049b0152818161232a015261252b015260a05181818161140c015261257d0152f35b8d5162461bcd60e51b815260206004820152601860248201527f43616e6e6f7420736574206f776e657220746f207a65726f00000000000000006044820152606490fd5b600080fd5b634e487b7160e01b600052604160045260246000fd5b51906001600160a01b0382168203620002345756fe608060405260043610156200001d575b36156200001b57600080fd5b005b60003560e01c8063089ea02e14620002fe57806309c1ba2e14620002f85780630ca7617514620002f25780631243bcc314620002ec5780631aa46f5914620002e657806324b93e3e14620002e0578063277e221314620002da5780632fc2a7b914620002d4578063338cdca114620002ce578063381fc4b514620002c85780633944ea3a14620002c25780633f678e1114620002bc57806343cd3d8614620002b65780634585e33b14620002b0578063472cbbb014620002aa57806348802b9214620002a457806348bd6f05146200029e5780634b0795a814620002985780635e0611f11462000292578063688ecfd1146200028c5780636baa48fe14620002865780636e04ff0d14620002805780636e74336b146200027a57806379ba509714620002745780637b103999146200026e5780638b7afe2e14620002685780638d7e6d2d14620002625780638da5cb5b146200025c578063a30971391462000256578063a3d3c0d21462000250578063b1e21749146200024a578063bef3a2f01462000244578063d1384eb6146200023e578063d2aa789f1462000238578063d811fcf01462000232578063ebf14a55146200022c578063f2fde38b1462000226578063f5c1279b1462000220578063f68016b7146200021a578063fd2c80ae14620002145763fffeb84e036200000f57620019ef565b620019cf565b620019a9565b62001989565b620018b0565b62001864565b6200183b565b6200181b565b620017ef565b6200173a565b6200171a565b620016fa565b620016da565b620016b1565b62001484565b62001430565b620013ea565b62001306565b620012e6565b62001264565b6200123b565b62001186565b6200115d565b620010a8565b62001088565b62001068565b62000e9d565b62000dad565b62000d5c565b62000c2c565b62000b77565b62000b57565b62000a64565b62000a3b565b620009cb565b62000704565b620006e4565b620006bb565b6200043a565b62000335565b62000315565b60009103126200031057565b600080fd5b346200031057600036600319011262000310576020600f54604051908152f35b34620003105760003660031901126200031057602067ffffffffffffffff60065416604051908152f35b634e487b7160e01b600052604160045260246000fd5b67ffffffffffffffff81116200038a57604052565b6200035f565b6040810190811067ffffffffffffffff8211176200038a57604052565b90601f8019910116810190811067ffffffffffffffff8211176200038a57604052565b67ffffffffffffffff81116200038a57601f01601f191660200190565b81601f8201121562000310578035906200040782620003d0565b92620004176040519485620003ad565b828452602083830101116200031057816000926020809301838601378301015290565b34620003105760603660031901126200031057600480359067ffffffffffffffff906024358281116200031057620004769036908301620003ed565b6044358381116200031057620004909036908401620003ed565b906001600160a01b037f0000000000000000000000000000000000000000000000000000000000000000163303620006925780519384116200038a5782620004e585620004df88965462000797565b62001d18565b602080601f8711600114620005e3575094807f7bab0ec163b5c132c72b8146ac4d6e067e82ed58f8b131150aa71c92589115629596600091620005d7575b508160011b916000199060031b1c19161790555b62000542826200374a565b620005586200055360115462001f6a565b601155565b60ff6200056760185460ff1690565b16620005b357620005788162003865565b620005896040519283928362003974565b0390a27f85e1543bf2f84fe80c6badbce3648c8539ad1df4d2b3d822938ca0538be727e6600080a2005b620005c7620005c28262003841565b602055565b620005d1620039e9565b62000578565b90508301513862000523565b600460005290601f1987167f8a35acfbc15ff81a39ae7d344fd709f28e8600b4aa8c65c6b64bfe7fe36bd19b926000905b828210620006755750509187917f7bab0ec163b5c132c72b8146ac4d6e067e82ed58f8b131150aa71c92589115629798600194106200065b575b5050811b01905562000537565b85015160001960f88460031b161c1916905538806200064e565b8684015185558a9850600190940193928301929081019062000614565b826040517fc6829f83000000000000000000000000000000000000000000000000000000008152fd5b3462000310576000366003190112620003105760206001600160a01b0360085416604051908152f35b346200031057600036600319011262000310576020600354604051908152f35b34620003105760003660031901126200031057602060065463ffffffff6040519160401c168152f35b634e487b7160e01b600052603260045260246000fd5b601e548110156200077b57601e6000527f50bb669a95c7b50b7e8a6f09454034b2b14cf2b85c730dca9a539ca82cb6e3500190600090565b6200072d565b634e487b7160e01b600052600060045260246000fd5b90600182811c92168015620007c9575b6020831014620007b357565b634e487b7160e01b600052602260045260246000fd5b91607f1691620007a7565b60405190600082601f5491620007ea8362000797565b808352926001908181169081156200087a575060011462000817575b506200081592500383620003ad565b565b601f600090815291507fa03837a25210ee280c2113ff4b77ca23440b19d4866cca721c801278fd08d8075b8483106200085e57506200081593505081016020013862000806565b81935090816020925483858a0101520191019091859262000842565b9050602092506200081594915060ff191682840152151560051b8201013862000806565b9060405191826000825492620008b48462000797565b908184526001948581169081600014620009295750600114620008e2575b50506200081592500383620003ad565b9093915060005260209081600020936000915b818310620009105750506200081593508201013880620008d2565b85548884018501529485019487945091830191620008f5565b9150506200081594506020925060ff191682840152151560051b8201013880620008d2565b60005b8281106200096157506000910152565b60808101518282015260200162000951565b919082519283825260005b848110620009a0575050826000602080949584010152601f8019910116010190565b6020818301810151848301820152016200097e565b906020620009c892818152019062000973565b90565b34620003105760203660031901126200031057600435601e54811015620003105762000a2262000a3791601e6000527f50bb669a95c7b50b7e8a6f09454034b2b14cf2b85c730dca9a539ca82cb6e350016200089e565b60405191829160208352602083019062000973565b0390f35b3462000310576000366003190112620003105760206001600160a01b03600a5416604051908152f35b34620003105760008060031936011262000b54576040519080600c5462000a8b8162000797565b8085529160019180831690811562000b27575060011462000ac7575b62000a378562000aba81870382620003ad565b60405191829182620009b5565b9250600c83527fdf6966c971051c3d54ec59162606531493a51404a002842f56009d7e5cf4a8c75b82841062000b0e57505050810160200162000aba8262000a3762000aa7565b8054602085870181019190915290930192810162000aef565b86955062000a379693506020925062000aba94915060ff191682840152151560051b820101929362000aa7565b80fd5b346200031057600036600319011262000310576020601154604051908152f35b34620003105760008060031936011262000b5457604051908060135462000b9e8162000797565b8085529160019180831690811562000b27575060011462000bcc5762000a378562000aba81870382620003ad565b9250601383527f66de8ffda797e3de9c05e8fc57b3bf0ec28a930d40b0d285d93c06501cf6a0905b82841062000c1357505050810160200162000aba8262000a3762000aa7565b8054602085870181019190915290930192810162000bf4565b34620003105760031960203682011262000310576004359067ffffffffffffffff821162000310576101409082360301126200031057602062000cd160009262000c9762000c8b6001600160a01b03600a54166001600160a01b031690565b6001600160a01b031690565b906040519485809481937fbc61a4730000000000000000000000000000000000000000000000000000000083526004016004830162001b98565b03925af1801562000d565762000cf09160009162000d21575b50600b55565b600b546040519081527f7623383a750b4166574a1b2dff61440ed0dfa3708cbe620c58339cca510d1af990602090a1005b62000d47915060203d811162000d4e575b62000d3e8183620003ad565b81019062001b23565b3862000cea565b503d62000d32565b62001afd565b346200031057600036600319011262000310576020601754604051908152f35b9181601f84011215620003105782359167ffffffffffffffff83116200031057602083818601950101116200031057565b3462000310576020366003190112620003105760043567ffffffffffffffff8111620003105762000de390369060040162000d7c565b50506000546001600160a01b0316338114158062000e56575b62000e0b576200001b62002267565b601a546040517f426fbc710000000000000000000000000000000000000000000000000000000081523360048201526001600160a01b03928316602482015291166044820152606490fd5b5062000e6e62000c8b601a546001600160a01b031690565b33141562000dfc565b6044359063ffffffff821682036200031057565b359063ffffffff821682036200031057565b34620003105760a0366003190112620003105767ffffffffffffffff600435818111620003105762000ed490369060040162000d7c565b60243592918383168403620003105762000eed62000e77565b9262000ef862001aa4565b82116200038a5762000f178262000f1160025462000797565b62001d7e565b600090601f831160011462000fbe57918062000f9a959262000f6f9460009262000fb2575b50508160011b916000199060031b1c19161760025567ffffffffffffffff1667ffffffffffffffff196006541617600655565b6bffffffff00000000000000006006549160401b16906bffffffff0000000000000000191617600655565b62000fa6606435600e55565b6200001b608435600755565b01359050388062000f3c565b60026000527f405787fa12a823e0f2b7631cc41b3ba8828b3321ca811111fa75cd3aa3bb5ace91601f198416815b8181106200104f575092600192859262000f6f9662000f9a99961062001034575b505050811b0160025567ffffffffffffffff1667ffffffffffffffff196006541617600655565b0135600019600384901b60f8161c191690553880806200100d565b9193602060018192878701358155019501920162000fec565b346200031057600036600319011262000310576020601654604051908152f35b346200031057600036600319011262000310576020601b54604051908152f35b34620003105760008060031936011262000b54576040519080601454620010cf8162000797565b8085529160019180831690811562000b275750600114620010fd5762000a378562000aba81870382620003ad565b9250601483527fce6d7b5282bd9a3661ae061feed1dbda4e52ab073b1f9285be6e155d9c38d4ec5b8284106200114457505050810160200162000aba8262000a3762000aa7565b8054602085870181019190915290930192810162001125565b3462000310576000366003190112620003105760206001600160a01b03601a5416604051908152f35b34620003105760008060031936011262000b54576040519080600254620011ad8162000797565b8085529160019180831690811562000b275750600114620011db5762000a378562000aba81870382620003ad565b9250600283527f405787fa12a823e0f2b7631cc41b3ba8828b3321ca811111fa75cd3aa3bb5ace5b8284106200122257505050810160200162000aba8262000a3762000aa7565b8054602085870181019190915290930192810162001203565b3462000310576000366003190112620003105760206001600160a01b0360095416604051908152f35b3462000310576020366003190112620003105760043567ffffffffffffffff811162000310576200129a903690600401620003ed565b50600f544203428111620012e05760075410604051908152604060208201526060818151806040830152620012d2818484016200094e565b601f01601f19168101030190f35b62001e70565b346200031057600036600319011262000310576020600e54604051908152f35b34620003105760008060031936011262000b54576001600160a01b0380600154163303620013a65781546001600160a01b03166000805473ffffffffffffffffffffffffffffffffffffffff191633179055906200137c73ffffffffffffffffffffffffffffffffffffffff1960015416600155565b3391167f8be0079c531659141344cd1fd0a4f28419497f9722a3daafe3b4186f6b6457e08380a380f35b606460405162461bcd60e51b815260206004820152601660248201527f4d7573742062652070726f706f736564206f776e6572000000000000000000006044820152fd5b3462000310576000366003190112620003105760206040516001600160a01b037f0000000000000000000000000000000000000000000000000000000000000000168152f35b34620003105760003660031901126200031057602047604051908152f35b600435906bffffffffffffffffffffffff821682036200031057565b35906bffffffffffffffffffffffff821682036200031057565b34620003105760203660031901126200031057620014a16200144e565b6008546001600160a01b031690620014c16009546001600160a01b031690565b916040519261073a8085019185831067ffffffffffffffff8411176200038a5785936200151f93869362003ac587396001600160a01b039182168152911660208201526bffffffffffffffffffffffff909116604082015260600190565b0360009283f0801562000d5657620015ed91620015616020926001600160a01b031673ffffffffffffffffffffffffffffffffffffffff19600a541617600a55565b6200157c62000c8b62000c8b6008546001600160a01b031690565b6200159362000c8b600a546001600160a01b031690565b856040518096819582947f095ea7b3000000000000000000000000000000000000000000000000000000008452600484019092916bffffffffffffffffffffffff6020916001600160a01b03604085019616845216910152565b03925af1801562000d56576200167c575b50806200161762000c8b600a546001600160a01b031690565b803b15620016795781906004604051809481937fb60d42880000000000000000000000000000000000000000000000000000000083525af1801562000d56576200165f575080f35b806200166f620016769262000375565b8062000304565b80f35b50fd5b620016a19060203d8111620016a9575b620016988183620003ad565b81019062001b09565b5038620015fe565b503d6200168c565b3462000310576000366003190112620003105760206001600160a01b0360005416604051908152f35b346200031057600036600319011262000310576020601c54604051908152f35b346200031057600036600319011262000310576020601054604051908152f35b346200031057600036600319011262000310576020601254604051908152f35b34620003105760008060031936011262000b54576040519080600454620017618162000797565b8085529160019180831690811562000b2757506001146200178f5762000a378562000aba81870382620003ad565b9250600483527f8a35acfbc15ff81a39ae7d344fd709f28e8600b4aa8c65c6b64bfe7fe36bd19b5b828410620017d657505050810160200162000aba8262000a3762000aa7565b80546020858701810191909152909301928101620017b7565b3462000310576000366003190112620003105760206001600160a01b0360185460081c16604051908152f35b346200031057600036600319011262000310576020600b54604051908152f35b3462000310576000366003190112620003105760206001600160a01b0360195416604051908152f35b346200031057600036600319011262000310576020601d54604051908152f35b600435906001600160a01b03821682036200031057565b35906001600160a01b03821682036200031057565b346200031057602036600319011262000310576001600160a01b03620018d562001884565b620018df62001aa4565b1633811462001945578073ffffffffffffffffffffffffffffffffffffffff1960015416176001556200191e62000c8b6000546001600160a01b031690565b7fed8889f560326eb138920d842192f0eb3dd22b4f139c87a2c57538e05bae1278600080a3005b606460405162461bcd60e51b815260206004820152601760248201527f43616e6e6f74207472616e7366657220746f2073656c660000000000000000006044820152fd5b346200031057600036600319011262000310576020601554604051908152f35b34620003105760003660031901126200031057602063ffffffff600d5416604051908152f35b346200031057600036600319011262000310576020600754604051908152f35b34620003105760008060031936011262000b5457604051908060055462001a168162000797565b8085529160019180831690811562000b27575060011462001a445762000a378562000aba81870382620003ad565b9250600583527f036b6384b5eca791c62761152d0c79bb0604c104a5fb6f4eb0703f3154bb3db05b82841062001a8b57505050810160200162000aba8262000a3762000aa7565b8054602085870181019190915290930192810162001a6c565b6001600160a01b0360005416330362001ab957565b606460405162461bcd60e51b815260206004820152601660248201527f4f6e6c792063616c6c61626c65206279206f776e6572000000000000000000006044820152fd5b6040513d6000823e3d90fd5b908160209103126200031057518015158103620003105790565b9081602091031262000310575190565b9035601e19823603018112156200031057016020813591019167ffffffffffffffff8211620003105781360383136200031057565b908060209392818452848401376000828201840152601f01601f1916010190565b359060ff821682036200031057565b620009c8906020815262001bcd62001cec62001bb5858062001b33565b92906101409384602087015261016086019162001b68565b62001ce462001c9c62001bfd62001be860208a018a62001b33565b601f19898703810160408b0152959162001b68565b62001c1f62001c0f60408b016200189b565b6001600160a01b03166060890152565b62001c3e62001c3160608b0162000e8b565b63ffffffff166080890152565b62001c6062001c5060808b016200189b565b6001600160a01b031660a0890152565b62001c7c62001c7260a08b0162001b89565b60ff1660c0890152565b62001c8b60c08a018a62001b33565b90858984030160e08a015262001b68565b62001cd162001cc762001cb360e08b018b62001b33565b6101009491878b840301868c015262001b68565b9189018962001b33565b9061012094888403018589015262001b68565b95016200146a565b6bffffffffffffffffffffffff16910152565b81811062001d0b575050565b6000815560010162001cff565b90601f821162001d26575050565b620008159160046000527f8a35acfbc15ff81a39ae7d344fd709f28e8600b4aa8c65c6b64bfe7fe36bd19b906020601f840160051c8301931062001d73575b601f0160051c019062001cff565b909150819062001d65565b90601f821162001d8c575050565b620008159160026000527f405787fa12a823e0f2b7631cc41b3ba8828b3321ca811111fa75cd3aa3bb5ace906020601f840160051c8301931062001d7357601f0160051c019062001cff565b90601f821162001de6575050565b620008159160056000527f036b6384b5eca791c62761152d0c79bb0604c104a5fb6f4eb0703f3154bb3db0906020601f840160051c8301931062001d7357601f0160051c019062001cff565b9190601f811162001e4257505050565b62000815926000526020600020906020601f840160051c8301931062001d7357601f0160051c019062001cff565b634e487b7160e01b600052601160045260246000fd5b601f19810191908211620012e057565b600f544203428111620012e0576007541090606090565b1562001eb557565b606460405162461bcd60e51b815260206004820152601560248201527f55706b656570206e6f74207265676973746572656400000000000000000000006044820152fd5b604051906020820182811067ffffffffffffffff8211176200038a5760405260008252565b1562001f2657565b606460405162461bcd60e51b815260206004820152601560248201527f54696d6520696e74657276616c206e6f74206d657400000000000000000000006044820152fd5b9060018201809211620012e057565b9060208201809211620012e057565b91908201809211620012e057565b6040519060e0820182811067ffffffffffffffff8211176200038a57604052606060c08360008152600060208201526000604082015282808201528260808201528260a08201520152565b601e549067ffffffffffffffff82116200038a576040519160206200200c818360051b0185620003ad565b81845280840190601e6000527f50bb669a95c7b50b7e8a6f09454034b2b14cf2b85c730dca9a539ca82cb6e3506000925b8484106200204c575050505050565b60018381926200205c856200089e565b8152019201930192906200203d565b906200209b60809367ffffffffffffffff63ffffffff939897969816845260a0602085015260a084019062000973565b95600160408401521660608201520152565b60009060033d11620020bb57565b905060046000803e60005160e01c90565b600060443d10620009c857604051600319913d83016004833e815167ffffffffffffffff918282113d602484011117620021305781840194855193841162002138573d85010160208487010111620021305750620009c892910160200190620003ad565b949350505050565b50949350505050565b3d1562002171573d906200215582620003d0565b91620021656040519384620003ad565b82523d6000602084013e565b606090565b9067ffffffffffffffff909493929416815260209360a085830152600060025495620021a28762000797565b908160a086015260019788811690816000146200223d5750600114620021de575b5050604083019590955263ffffffff16606082015260800152565b600260009081529250877f405787fa12a823e0f2b7631cc41b3ba8828b3321ca811111fa75cd3aa3bb5ace5b838510620022275750505050820160c0018163ffffffff620021c3565b805487860160c00152938201938991016200220a565b60ff191660c08781019190915292151560051b8601909201925083915063ffffffff9050620021c3565b62002276600b54151562001ead565b6200228062001ef9565b50620022966200228f62001e96565b5062001f1e565b620022a042600f55565b620022b6620022b160105462001f6a565b601055565b601d54601e5410156200247557620022d9620022d460155462001f6a565b601555565b60065467ffffffffffffffff166020620022f8600d5463ffffffff1690565b600e54926200231c604051948593849363230e93b160e11b85526004850162002176565b038160006001600160a01b037f0000000000000000000000000000000000000000000000000000000000000000165af16000918162002450575b50620024095750600162002369620020ad565b6308c379a014620023b0575b6200237c57565b7f9c4bfa18304482256875c29fabb1a44a5ecd325f214ea17bab8f31e869faf4c8620023ab62000aba62002141565b0390a1565b620023ba620020cc565b80620023c8575b5062002375565b90507f2ba61e3733e7ac99181c22307780f651ec8fd92fe661a84dfbe711710b2dc36c620023ff60009260405191829182620009b5565b0390a138620023c1565b6200241381601255565b620024296200242460165462001f6a565b601655565b7f1131472297a800fee664d1d89cfa8f7676ff07189ecc53f80bbb5f4969099db8600080a2565b6200246d91925060203d811162000d4e5762000d3e8183620003ad565b903862002356565b62002488600160ff196018541617601855565b620024c66200249662001f96565b620024ab620024a4620007d4565b8262002b32565b620024c0620024b962001fe1565b8262002b74565b620028f5565b620024d7620022d460155462001f6a565b60065467ffffffffffffffff1662002516620024f8600d5463ffffffff1690565b600e549060405194859463230e93b160e11b8652600486016200206b565b036000916020816001600160a01b03938186867f0000000000000000000000000000000000000000000000000000000000000000165af1839181620026dc575b50620026975750600162002569620020ad565b6308c379a0146200263f575b62002607575b7f000000000000000000000000000000000000000000000000000000000000000016600b54813b1562002603576040517f8765ecbe000000000000000000000000000000000000000000000000000000008152600481019190915291908290602490829084905af1801562000d5657620025f3575b50565b806200166f620008159262000375565b8280fd5b7f9c4bfa18304482256875c29fabb1a44a5ecd325f214ea17bab8f31e869faf4c86200263662000aba62002141565b0390a16200257b565b62002649620020cc565b8062002657575b5062002575565b90507f2ba61e3733e7ac99181c22307780f651ec8fd92fe661a84dfbe711710b2dc36c6200268d849260405191829182620009b5565b0390a13862002650565b620026a181601255565b620026b26200242460165462001f6a565b7f1131472297a800fee664d1d89cfa8f7676ff07189ecc53f80bbb5f4969099db88380a26200257b565b620026f991925060203d811162000d4e5762000d3e8183620003ad565b903862002556565b60405190620027108262000390565b600c82527f636f64654c6f636174696f6e00000000000000000000000000000000000000006020830152565b634e487b7160e01b600052602160045260246000fd5b600311156200275d57565b6200273c565b60405190620027728262000390565b600882527f6c616e67756167650000000000000000000000000000000000000000000000006020830152565b600111156200275d57565b60405190620027b88262000390565b600682527f736f7572636500000000000000000000000000000000000000000000000000006020830152565b60405190620027f38262000390565b600482527f61726773000000000000000000000000000000000000000000000000000000006020830152565b6000198114620012e05760010190565b80518210156200077b5760209160051b010190565b60405190620028538262000390565b600f82527f736563726574734c6f636174696f6e00000000000000000000000000000000006020830152565b604051906200288e8262000390565b600782527f73656372657473000000000000000000000000000000000000000000000000006020830152565b60405190620028c98262000390565b600982527f62797465734172677300000000000000000000000000000000000000000000006020830152565b620028ff62002bc8565b90620029156200290e62002701565b83620033ba565b620029388151620029268162002752565b620029318162002752565b8362002c78565b620029466200290e62002763565b6200296560408201516200295a816200279e565b62002931816200279e565b620029736200290e620027a9565b62002983606082015183620033ba565b60a0810180515162002ac9575b50608081019081515162002a1b575b60c0915001805151620029b3575b50515190565b91620029c26200290e620028ba565b620029cd8262003452565b60005b8351805182101562002a055790620029f9620029f182620029ff946200282f565b5185620032ee565b6200281f565b620029d0565b5050915062002a1481620034ea565b38620029ad565b60208101805162002a2c8162002752565b62002a378162002752565b1562002a9f5760c09262002a7c62002a999262002a5e62002a5762002844565b88620033ba565b5162002a6a8162002752565b62002a758162002752565b8662002c78565b62002a9162002a8a6200287f565b86620033ba565b5184620032ee565b6200299f565b60046040517fa80d31f7000000000000000000000000000000000000000000000000000000008152fd5b9262002adf62002ad8620027e4565b84620033ba565b62002aea8362003452565b60005b8451805182101562002b1c5790620029f962002b0e8262002b16946200282f565b5186620033ba565b62002aed565b5050925062002b2b82620034ea565b3862002990565b81511562002b4a576000808252604082015260600152565b60046040517f22ce3edd000000000000000000000000000000000000000000000000000000008152fd5b81511562002b825760a00152565b60046040517ffe936cb7000000000000000000000000000000000000000000000000000000008152fd5b6040519062002bbb8262000390565b6000602083606081520152565b60405162002bd68162000390565b62002be062002bac565b808252602082016000815262002bf562002bac565b50610100602083015260405180925260008252610120820191821062000310576000916040525290565b9062002c2a62002bac565b50601f81168062002c5b575b5080602083015260405190818352600082528101602001908110620003105760405290565b60200360208111620012e0578101809111620012e0573862002c36565b9081519162002c8662002bac565b508251516001810190818111620012e057602085015181101562002ce7575b60c2602062000815965192830101538051821162002cde575b50506040519160208301526020825262002cd88262000390565b620032ee565b52388062002cbe565b8160011b9482860460021483151715620012e05760208162002d1f620008159862002d1760c29551918462002c1f565b50826200321f565b509650505062002ca5565b908160011b9180830460021490151715620012e057565b62002d4b62002bac565b508051516001810190818111620012e057602083015181101562002d87575b605b6020845192830101538051821162002d8357505090565b5290565b8160011b82810460021483151715620012e05762002db59062002dad8551918662002c1f565b50846200321f565b5062002d6a565b62002dc662002bac565b508051516001810190818111620012e057602083015181101562002dfe575b605a6020845192830101538051821162002d8357505090565b8160011b82810460021483151715620012e05762002e249062002dad8551918662002c1f565b5062002de5565b62002e3562002bac565b508051516001810190818111620012e057602083015181101562002e6d575b60596020845192830101538051821162002d8357505090565b8160011b82810460021483151715620012e05762002e939062002dad8551918662002c1f565b5062002e54565b62002ea462002bac565b508051516001810190818111620012e057602083015181101562002edc575b60586020845192830101538051821162002d8357505090565b8160011b82810460021483151715620012e05762002f029062002dad8551918662002c1f565b5062002ec3565b62002f1362002bac565b508051516001810190818111620012e057602083015181101562002f4b575b607b6020845192830101538051821162002d8357505090565b8160011b82810460021483151715620012e05762002f719062002dad8551918662002c1f565b5062002f32565b62002f8262002bac565b508051516001810190818111620012e057602083015181101562002fba575b607a6020845192830101538051821162002d8357505090565b8160011b82810460021483151715620012e05762002fe09062002dad8551918662002c1f565b5062002fa1565b62002ff162002bac565b508051516001810190818111620012e057602083015181101562003029575b60796020845192830101538051821162002d8357505090565b8160011b82810460021483151715620012e0576200304f9062002dad8551918662002c1f565b5062003010565b6200306062002bac565b508051516001810190818111620012e057602083015181101562003098575b60786020845192830101538051821162002d8357505090565b8160011b82810460021483151715620012e057620030be9062002dad8551918662002c1f565b506200307f565b90620030d062002bac565b508151516001810191828211620012e057602084015182101562003106575b6020845192830101538051821162002d8357505090565b8260011b83810460021484151715620012e05762003134906200312c8651918762002c1f565b50856200321f565b50620030ef565b906200314a8251918362002c1f565b506200315562002bac565b508051906200316362002bac565b50620031738151831115620032e6565b8251519262003183838562001f88565b91602092828480940151821162003203575b5183815197820101968211620031fa575b505001915b81811015620031cd5760001991036101000a0190811990511690825116179052565b9192620031ed620031e6620031f4928651815262001f79565b9462001f79565b9262001e86565b620031ab565b523880620031a6565b62003219620032128362002d2a565b826200313b565b62003195565b906200322a62002bac565b5080516200323762002bac565b50620032478251821115620032e6565b8251519162003257828462001f88565b6020918291828701518111620032ca575b865183815197820101968211620032c1575b505001915b81811015620032a25760001991036101000a019081199051169082511617905290565b9192620031ed620031e6620032bb928651815262001f79565b6200327f565b5238806200327a565b620032e0620032d98262002d2a565b886200313b565b62003268565b156200031057565b8151620025f092919067ffffffffffffffff811690601782116200332b57620033229150604060ff845192161790620030c5565b505b516200321f565b5060ff811162003356576200334f9062003346835162002e9a565b508251620036db565b5062003324565b61ffff81116200337a576200334f9062003371835162002e2b565b5082516200366b565b63ffffffff8111620033a0576200334f9062003397835162002dbc565b508251620035f9565b6200334f90620033b1835162002d41565b50825162003583565b8151620025f092919067ffffffffffffffff81169060178211620033ee57620033229150606060ff845192161790620030c5565b5060ff811162003409576200334f9062003346835162003056565b61ffff811162003424576200334f9062003371835162002fe7565b63ffffffff811162003441576200334f9062003397835162002f78565b6200334f90620033b1835162002f09565b8051906200345f62002bac565b508151516001810190818111620012e0576020840151811015620034b2575b609f6020809551928301015380518211620034a9575b50500180519060018201809211620012e05752565b52388062003494565b8160011b9382850460021483151715620012e057602081620034df829762002d17609f9551918462002c1f565b50955050506200347e565b805190620034f762002bac565b508151516001810190818111620012e05760208401518110156200354b575b60ff602080955192830101538051821162003542575b5050018051600019810191908211620012e05752565b5238806200352c565b8160011b9382850460021483151715620012e05760208162003578829762002d1760ff9551918462002c1f565b509550505062003516565b906200358e62002bac565b50815151806008019182600811620012e05760208401518311620035d4575b60088451928301019067ffffffffffffffff198251161790528051821162002d8357505090565b8260011b83810460021484151715620012e057620035f390856200313b565b620035ad565b906200360462002bac565b50815151806004019182600411620012e0576020840151831162003646575b60048451928301019063ffffffff198251161790528051821162002d8357505090565b8260011b83810460021484151715620012e0576200366590856200313b565b62003623565b906200367662002bac565b50815151806002019182600211620012e05760208401518311620036b6575b60028451928301019061ffff198251161790528051821162002d8357505090565b8260011b83810460021484151715620012e057620036d590856200313b565b62003695565b90620036e662002bac565b50815151806001019182600111620012e0576020840151831162003725575b60018451928301019060ff198251161790528051821162002d8357505090565b8260011b83810460021484151715620012e0576200374490856200313b565b62003705565b90815167ffffffffffffffff81116200038a5762003775816200376f60055462000797565b62001dd8565b602080601f8311600114620037b45750819293600092620037a8575b50508160011b916000199060031b1c191617600555565b01519050388062003791565b90601f19831694620037e860056000527f036b6384b5eca791c62761152d0c79bb0604c104a5fb6f4eb0703f3154bb3db090565b926000905b878210620038285750508360019596106200380e575b505050811b01600555565b015160001960f88460031b161c1916905538808062003803565b80600185968294968601518155019501930190620037ed565b60208151910151906020811062003856575090565b6000199060200360031b1b1690565b601e54680100000000000000008110156200038a576200388d600191828101601e5562000743565b9290926200396e5780519067ffffffffffffffff82116200038a57620038c082620038b9865462000797565b8662001e32565b60209081601f8411600114620038ff5750928293918392600094620038f3575b50501b916000199060031b1c1916179055565b015192503880620038e0565b919083601f1981166200391788600052602060002090565b946000905b8883831062003953575050501062003939575b505050811b019055565b015160001960f88460031b161c191690553880806200392f565b8587015188559096019594850194879350908101906200391c565b62000781565b90916200398e620009c89360408452604084019062000973565b91602081840391015262000973565b15620039a557565b606460405162461bcd60e51b815260206004820152601b60248201527f4572726f20616f207061676172206120696e64656e697a6163616f00000000006044820152fd5b602054601c54111562003a2f5762000815600080808062003a1a62000c8b62000c8b6019546001600160a01b031690565b47905af162003a2862002141565b506200399d565b60008080806001600160a01b0360185460081c1647905af162003a5162002141565b501562003a5a57565b608460405162461bcd60e51b815260206004820152602d60248201527f4572726f20616f207265746f726e6172206f732066756e646f7320706172612060448201527f6120696e73746974756963616f000000000000000000000000000000000000006064820152fdfe60c0346100bc57601f61073a38819003918201601f19168301916001600160401b038311848410176100c1578084926060946040528339810103126100bc57610047816100d7565b906040610056602083016100d7565b9101516001600160601b03811692908390036100bc5760805260a052600180546001600160601b03191691909117905560405161064e90816100ec8239608051818181610114015281816101990152610373015260a0518181816101dc015261033b0152f35b600080fd5b634e487b7160e01b600052604160045260246000fd5b51906001600160a01b03821682036100bc5756fe60806040818152600436101561001457600080fd5b600091823560e01c90816301619d3d1461020057508063442b1278146101bd5780637d253aff1461017a578063b60d4288146100a95763bc61a4731461005957600080fd5b346100a557600319916020368401126100a2576004359267ffffffffffffffff84116100a5576101409084360301126100a2575061009b6020926004016102e6565b9051908152f35b80fd5b5080fd5b50346100a557816003193601126100a5576bffffffffffffffffffffffff60015416908051917f23b872dd0000000000000000000000000000000000000000000000000000000083523360048401523060248401526044830152602082606481866001600160a01b037f0000000000000000000000000000000000000000000000000000000000000000165af19081156101715750610146575080f35b6101669060203d811161016a575b61015e818361022a565b810190610262565b5080f35b503d610154565b513d84823e3d90fd5b50346100a557816003193601126100a557602090516001600160a01b037f0000000000000000000000000000000000000000000000000000000000000000168152f35b50346100a557816003193601126100a557602090516001600160a01b037f0000000000000000000000000000000000000000000000000000000000000000168152f35b8390346100a557816003193601126100a5576020906bffffffffffffffffffffffff600154168152f35b90601f8019910116810190811067ffffffffffffffff82111761024c57604052565b634e487b7160e01b600052604160045260246000fd5b9081602091031261027a5751801515810361027a5790565b600080fd5b9035601e198236030181121561027a57016020813591019167ffffffffffffffff821161027a57813603831361027a57565b908060209392818452848401376000828201840152601f01601f1916010190565b35906001600160a01b038216820361027a57565b90600091610120810135906bffffffffffffffffffffffff82168092036105ed5760408051917f095ea7b30000000000000000000000000000000000000000000000000000000083526001600160a01b0390817f00000000000000000000000000000000000000000000000000000000000000001680600486015285602486015260209485816044818c887f0000000000000000000000000000000000000000000000000000000000000000165af1801561060e576105f1575b508351957f3f678e11000000000000000000000000000000000000000000000000000000008752856004880152886103ee6103db858061027f565b61014060248c01526101648b01916102b1565b916104126103fe8987018761027f565b6023198c8703810160448e015295916102b1565b958061041f8988016102d2565b1660648b0152606086013563ffffffff81168091036105ed5760848b0152610449608087016102d2565b1660a48a015260a08501359060ff82168092036105e9576104d08a9687956104c06104b46104968e9c8a9860c48a015261048660c087018761027f565b90868b84030160e48c01526102b1565b6104a360e086018661027f565b90858a8403016101048b01526102b1565b9261010081019061027f565b91868403016101248701526102b1565b9061014483015203925af19283156105df5785936105ac575b50821561054f573385528482528420908154916801000000000000000083101561053b57600183018082558310156105275794839495815220015590565b602486634e487b7160e01b81526032600452fd5b602486634e487b7160e01b81526041600452fd5b6064925051907f08c379a00000000000000000000000000000000000000000000000000000000082526004820152601560248201527f6175746f2d617070726f76652064697361626c656400000000000000000000006044820152fd5b9092508181813d83116105d8575b6105c4818361022a565b810103126105d4575191386104e9565b8480fd5b503d6105ba565b81513d87823e3d90fd5b8280fd5b8380fd5b61060790863d881161016a5761015e818361022a565b50386103a0565b85513d8b823e3d90fdfea26469706673582212209ca455be61c45d9c7e515967f303b8ab4a822792fd7267d08664d38b1d82e42764736f6c63430008130033a26469706673582212207caf9916e989fd42f3e6166b7694ffdbdae44454849483182c2a3d7a5bb95ae464736f6c63430008130033a26469706673582212202aab9058e96a2e0dfb5a0a3a48cb14270ed43b81d22d2f83a8b52ac95a6ba96464736f6c63430008130033","opcodes":"PUSH1 0xA0 PUSH1 0x40 MSTORE CALLVALUE PUSH3 0x248 JUMPI PUSH3 0x53E9 DUP1 CODESIZE SUB DUP1 PUSH3 0x1D DUP2 PUSH3 0x24D JUMP JUMPDEST SWAP3 DUP4 CODECOPY DUP2 ADD SWAP1 PUSH1 0x40 DUP2 DUP4 SUB SLT PUSH3 0x248 JUMPI DUP1 MLOAD PUSH1 0x1 PUSH1 0x1 PUSH1 0xA0 SHL SUB DUP2 AND DUP2 SUB PUSH3 0x248 JUMPI PUSH1 0x20 DUP3 DUP2 ADD MLOAD PUSH1 0x1 PUSH1 0x1 PUSH1 0x40 SHL SUB SWAP4 SWAP2 SWAP3 SWAP2 DUP5 DUP3 GT PUSH3 0x248 JUMPI ADD SWAP4 PUSH1 0x1F SWAP2 DUP2 DUP4 DUP8 ADD SLT ISZERO PUSH3 0x248 JUMPI DUP6 MLOAD DUP6 DUP2 GT PUSH3 0x21D JUMPI PUSH1 0x1F NOT SWAP7 PUSH3 0x8A DUP3 DUP7 ADD DUP10 AND DUP8 ADD PUSH3 0x24D JUMP JUMPDEST SWAP4 DUP3 DUP6 MSTORE DUP7 DUP4 DUP4 ADD ADD GT PUSH3 0x248 JUMPI DUP6 SWAP1 PUSH1 0x0 JUMPDEST DUP4 DUP2 LT PUSH3 0x233 JUMPI POP POP PUSH1 0x0 SWAP2 DUP5 ADD ADD MSTORE PUSH1 0x80 MSTORE DUP1 MLOAD SWAP4 DUP5 GT PUSH3 0x21D JUMPI PUSH1 0x0 SLOAD SWAP3 PUSH1 0x1 SWAP4 DUP5 DUP2 DUP2 SHR SWAP2 AND DUP1 ISZERO PUSH3 0x212 JUMPI JUMPDEST DUP3 DUP3 LT EQ PUSH3 0x1FC JUMPI DUP4 DUP2 GT PUSH3 0x1B1 JUMPI JUMPDEST POP DUP1 SWAP3 DUP6 GT PUSH1 0x1 EQ PUSH3 0x147 JUMPI POP DUP4 SWAP5 POP SWAP1 DUP4 SWAP3 SWAP2 PUSH1 0x0 SWAP5 PUSH3 0x13B JUMPI JUMPDEST POP POP SHL SWAP2 PUSH1 0x0 NOT SWAP1 PUSH1 0x3 SHL SHR NOT AND OR PUSH1 0x0 SSTORE JUMPDEST PUSH1 0x40 MLOAD PUSH2 0x5175 SWAP1 DUP2 PUSH3 0x274 DUP3 CODECOPY PUSH1 0x80 MLOAD DUP2 DUP2 DUP2 PUSH2 0x3AA ADD MSTORE DUP2 DUP2 PUSH2 0x54C ADD MSTORE PUSH2 0x8CD ADD MSTORE RETURN JUMPDEST ADD MLOAD SWAP3 POP CODESIZE DUP1 PUSH3 0x101 JUMP JUMPDEST SWAP3 SWAP5 DUP5 SWAP1 DUP2 AND PUSH1 0x0 DUP1 MSTORE DUP5 PUSH1 0x0 KECCAK256 SWAP5 PUSH1 0x0 SWAP1 JUMPDEST DUP9 DUP4 DUP4 LT PUSH3 0x196 JUMPI POP POP POP LT PUSH3 0x17C JUMPI JUMPDEST POP POP POP DUP2 SHL ADD PUSH1 0x0 SSTORE PUSH3 0x114 JUMP JUMPDEST ADD MLOAD PUSH1 0x0 NOT PUSH1 0xF8 DUP5 PUSH1 0x3 SHL AND SHR NOT AND SWAP1 SSTORE CODESIZE DUP1 DUP1 PUSH3 0x16D JUMP JUMPDEST DUP6 DUP8 ADD MLOAD DUP9 SSTORE SWAP1 SWAP7 ADD SWAP6 SWAP5 DUP6 ADD SWAP5 DUP8 SWAP4 POP SWAP1 DUP2 ADD SWAP1 PUSH3 0x15A JUMP JUMPDEST PUSH1 0x0 DUP1 MSTORE DUP2 PUSH1 0x0 KECCAK256 DUP5 DUP1 DUP9 ADD PUSH1 0x5 SHR DUP3 ADD SWAP3 DUP5 DUP10 LT PUSH3 0x1F2 JUMPI JUMPDEST ADD PUSH1 0x5 SHR ADD SWAP1 DUP6 SWAP1 JUMPDEST DUP3 DUP2 LT PUSH3 0x1E5 JUMPI POP POP PUSH3 0xE3 JUMP JUMPDEST PUSH1 0x0 DUP2 SSTORE ADD DUP6 SWAP1 PUSH3 0x1D5 JUMP JUMPDEST SWAP3 POP DUP2 SWAP3 PUSH3 0x1CC JUMP JUMPDEST PUSH4 0x4E487B71 PUSH1 0xE0 SHL PUSH1 0x0 MSTORE PUSH1 0x22 PUSH1 0x4 MSTORE PUSH1 0x24 PUSH1 0x0 REVERT JUMPDEST SWAP1 PUSH1 0x7F AND SWAP1 PUSH3 0xD1 JUMP JUMPDEST PUSH4 0x4E487B71 PUSH1 0xE0 SHL PUSH1 0x0 MSTORE PUSH1 0x41 PUSH1 0x4 MSTORE PUSH1 0x24 PUSH1 0x0 REVERT JUMPDEST DUP2 DUP2 ADD DUP4 ADD MLOAD DUP7 DUP3 ADD DUP5 ADD MSTORE DUP8 SWAP3 ADD PUSH3 0x9E JUMP JUMPDEST PUSH1 0x0 DUP1 REVERT JUMPDEST PUSH1 0x40 MLOAD SWAP2 SWAP1 PUSH1 0x1F ADD PUSH1 0x1F NOT AND DUP3 ADD PUSH1 0x1 PUSH1 0x1 PUSH1 0x40 SHL SUB DUP2 GT DUP4 DUP3 LT OR PUSH3 0x21D JUMPI PUSH1 0x40 MSTORE JUMP INVALID PUSH1 0x80 PUSH1 0x40 MSTORE PUSH1 0x4 CALLDATASIZE LT ISZERO PUSH3 0x1D JUMPI JUMPDEST CALLDATASIZE ISZERO PUSH3 0x1B JUMPI PUSH1 0x0 DUP1 REVERT JUMPDEST STOP JUMPDEST PUSH1 0x0 CALLDATALOAD PUSH1 0xE0 SHR DUP1 PUSH4 0x80A57F9 EQ PUSH3 0x106 JUMPI DUP1 PUSH4 0x3A133E2C EQ PUSH3 0x100 JUMPI DUP1 PUSH4 0x3CCFD60B EQ PUSH3 0xFA JUMPI DUP1 PUSH4 0x6A4AC979 EQ PUSH3 0xF4 JUMPI DUP1 PUSH4 0x6F9170F6 EQ PUSH3 0xEE JUMPI DUP1 PUSH4 0x85FAE602 EQ PUSH3 0xE8 JUMPI DUP1 PUSH4 0x8A699F00 EQ PUSH3 0xE2 JUMPI DUP1 PUSH4 0x8B7AFE2E EQ PUSH3 0xDC JUMPI DUP1 PUSH4 0x9B19251A EQ PUSH3 0xD6 JUMPI DUP1 PUSH4 0xAF640D0F EQ PUSH3 0xD0 JUMPI DUP1 PUSH4 0xDBA6335F EQ PUSH3 0xCA JUMPI DUP1 PUSH4 0xDE5E5B7B EQ PUSH3 0xC4 JUMPI PUSH4 0xED23F8C3 SUB PUSH3 0xF JUMPI PUSH3 0x9F8 JUMP JUMPDEST PUSH3 0x923 JUMP JUMPDEST PUSH3 0x8AB JUMP JUMPDEST PUSH3 0x7F8 JUMP JUMPDEST PUSH3 0x7B5 JUMP JUMPDEST PUSH3 0x797 JUMP JUMPDEST PUSH3 0x759 JUMP JUMPDEST PUSH3 0x711 JUMP JUMPDEST PUSH3 0x667 JUMP JUMPDEST PUSH3 0x4EF JUMP JUMPDEST PUSH3 0x38C JUMP JUMPDEST PUSH3 0x297 JUMP JUMPDEST PUSH3 0x187 JUMP JUMPDEST PUSH1 0x4 CALLDATALOAD SWAP1 PUSH1 0x1 PUSH1 0x1 PUSH1 0xA0 SHL SUB DUP3 AND DUP3 SUB PUSH3 0x123 JUMPI JUMP JUMPDEST PUSH1 0x0 DUP1 REVERT JUMPDEST PUSH1 0xC4 CALLDATALOAD SWAP1 PUSH1 0x1 PUSH1 0x1 PUSH1 0xA0 SHL SUB DUP3 AND DUP3 SUB PUSH3 0x123 JUMPI JUMP JUMPDEST PUSH2 0x104 CALLDATALOAD SWAP1 PUSH1 0x1 PUSH1 0x1 PUSH1 0xA0 SHL SUB DUP3 AND DUP3 SUB PUSH3 0x123 JUMPI JUMP JUMPDEST PUSH2 0x124 CALLDATALOAD SWAP1 PUSH1 0x1 PUSH1 0x1 PUSH1 0xA0 SHL SUB DUP3 AND DUP3 SUB PUSH3 0x123 JUMPI JUMP JUMPDEST PUSH2 0x144 CALLDATALOAD SWAP1 PUSH1 0x1 PUSH1 0x1 PUSH1 0xA0 SHL SUB DUP3 AND DUP3 SUB PUSH3 0x123 JUMPI JUMP JUMPDEST CALLVALUE PUSH3 0x123 JUMPI PUSH1 0x20 CALLDATASIZE PUSH1 0x3 NOT ADD SLT PUSH3 0x123 JUMPI PUSH1 0x1 PUSH1 0x1 PUSH1 0xA0 SHL SUB PUSH3 0x1AC PUSH3 0x10C JUMP JUMPDEST AND PUSH1 0x0 SWAP1 DUP2 MSTORE PUSH1 0x3 PUSH1 0x20 MSTORE PUSH1 0x40 SWAP1 KECCAK256 DUP1 SLOAD PUSH1 0xFF NOT AND PUSH1 0x1 OR SWAP1 SSTORE STOP JUMPDEST SWAP1 PUSH1 0x1 DUP3 DUP2 SHR SWAP3 AND DUP1 ISZERO PUSH3 0x1FA JUMPI JUMPDEST PUSH1 0x20 DUP4 LT EQ PUSH3 0x1E4 JUMPI JUMP JUMPDEST PUSH4 0x4E487B71 PUSH1 0xE0 SHL PUSH1 0x0 MSTORE PUSH1 0x22 PUSH1 0x4 MSTORE PUSH1 0x24 PUSH1 0x0 REVERT JUMPDEST SWAP2 PUSH1 0x7F AND SWAP2 PUSH3 0x1D8 JUMP JUMPDEST PUSH4 0x4E487B71 PUSH1 0xE0 SHL PUSH1 0x0 MSTORE PUSH1 0x41 PUSH1 0x4 MSTORE PUSH1 0x24 PUSH1 0x0 REVERT JUMPDEST SWAP1 PUSH1 0x1F DUP1 NOT SWAP2 ADD AND DUP2 ADD SWAP1 DUP2 LT PUSH8 0xFFFFFFFFFFFFFFFF DUP3 GT OR PUSH3 0x23E JUMPI PUSH1 0x40 MSTORE JUMP JUMPDEST PUSH3 0x205 JUMP JUMPDEST PUSH1 0x0 JUMPDEST DUP4 DUP2 LT PUSH3 0x258 JUMPI POP POP PUSH1 0x0 SWAP2 ADD MSTORE JUMP JUMPDEST DUP2 DUP2 ADD MLOAD DUP4 DUP3 ADD MSTORE PUSH1 0x20 ADD PUSH3 0x247 JUMP JUMPDEST PUSH1 0x40 SWAP2 PUSH1 0x20 DUP3 MSTORE PUSH3 0x28B DUP2 MLOAD DUP1 SWAP3 DUP2 PUSH1 0x20 DUP7 ADD MSTORE PUSH1 0x20 DUP7 DUP7 ADD SWAP2 ADD PUSH3 0x244 JUMP JUMPDEST PUSH1 0x1F ADD PUSH1 0x1F NOT AND ADD ADD SWAP1 JUMP JUMPDEST CALLVALUE PUSH3 0x123 JUMPI PUSH1 0x0 DUP1 PUSH1 0x3 NOT CALLDATASIZE ADD SLT PUSH3 0x389 JUMPI PUSH1 0x40 MLOAD SWAP1 DUP1 DUP1 SLOAD PUSH3 0x2BD DUP2 PUSH3 0x1C8 JUMP JUMPDEST DUP1 DUP6 MSTORE SWAP2 PUSH1 0x1 SWAP2 DUP1 DUP4 AND SWAP1 DUP2 ISZERO PUSH3 0x35C JUMPI POP PUSH1 0x1 EQ PUSH3 0x2FD JUMPI JUMPDEST PUSH3 0x2F9 DUP6 PUSH3 0x2EC DUP2 DUP8 SUB DUP3 PUSH3 0x21B JUMP JUMPDEST PUSH1 0x40 MLOAD SWAP2 DUP3 SWAP2 DUP3 PUSH3 0x269 JUMP JUMPDEST SUB SWAP1 RETURN JUMPDEST DUP1 DUP1 SWAP5 POP MSTORE PUSH32 0x290DECD9548B62A8D60345A988386FC84BA6BC95484008F6362F93160EF3E563 JUMPDEST DUP3 DUP5 LT PUSH3 0x343 JUMPI POP POP POP DUP2 ADD PUSH1 0x20 ADD PUSH3 0x2EC DUP3 PUSH3 0x2F9 PUSH3 0x2D9 JUMP JUMPDEST DUP1 SLOAD PUSH1 0x20 DUP6 DUP8 ADD DUP2 ADD SWAP2 SWAP1 SWAP2 MSTORE SWAP1 SWAP4 ADD SWAP3 DUP2 ADD PUSH3 0x324 JUMP JUMPDEST DUP7 SWAP6 POP PUSH3 0x2F9 SWAP7 SWAP4 POP PUSH1 0x20 SWAP3 POP PUSH3 0x2EC SWAP5 SWAP2 POP PUSH1 0xFF NOT AND DUP3 DUP5 ADD MSTORE ISZERO ISZERO PUSH1 0x5 SHL DUP3 ADD ADD SWAP3 SWAP4 PUSH3 0x2D9 JUMP JUMPDEST DUP1 REVERT JUMPDEST CALLVALUE PUSH3 0x123 JUMPI PUSH1 0x0 DUP1 PUSH1 0x3 NOT CALLDATASIZE ADD SLT PUSH3 0x389 JUMPI PUSH1 0x1 PUSH1 0x1 PUSH1 0xA0 SHL SUB PUSH32 0x0 AND DUP1 CALLER SUB PUSH3 0x45B JUMPI DUP2 DUP1 DUP1 DUP1 SWAP4 SELFBALANCE SWAP1 GAS CALL RETURNDATASIZE ISZERO PUSH3 0x455 JUMPI RETURNDATASIZE PUSH3 0x3EE DUP2 PUSH3 0x485 JUMP JUMPDEST SWAP1 PUSH3 0x3FE PUSH1 0x40 MLOAD SWAP3 DUP4 PUSH3 0x21B JUMP JUMPDEST DUP2 MSTORE DUP3 PUSH1 0x20 RETURNDATASIZE SWAP3 ADD RETURNDATACOPY JUMPDEST ISZERO PUSH3 0x411 JUMPI DUP1 RETURN JUMPDEST PUSH1 0x64 PUSH1 0x40 MLOAD PUSH3 0x461BCD PUSH1 0xE5 SHL DUP2 MSTORE PUSH1 0x20 PUSH1 0x4 DUP3 ADD MSTORE PUSH1 0xF PUSH1 0x24 DUP3 ADD MSTORE PUSH32 0x4F2073617175652066616C686F752E0000000000000000000000000000000000 PUSH1 0x44 DUP3 ADD MSTORE REVERT JUMPDEST PUSH3 0x408 JUMP JUMPDEST PUSH1 0x4 PUSH1 0x40 MLOAD PUSH32 0x30CD747100000000000000000000000000000000000000000000000000000000 DUP2 MSTORE REVERT JUMPDEST PUSH8 0xFFFFFFFFFFFFFFFF DUP2 GT PUSH3 0x23E JUMPI PUSH1 0x1F ADD PUSH1 0x1F NOT AND PUSH1 0x20 ADD SWAP1 JUMP JUMPDEST DUP2 PUSH1 0x1F DUP3 ADD SLT ISZERO PUSH3 0x123 JUMPI DUP1 CALLDATALOAD SWAP1 PUSH3 0x4BC DUP3 PUSH3 0x485 JUMP JUMPDEST SWAP3 PUSH3 0x4CC PUSH1 0x40 MLOAD SWAP5 DUP6 PUSH3 0x21B JUMP JUMPDEST DUP3 DUP5 MSTORE PUSH1 0x20 DUP4 DUP4 ADD ADD GT PUSH3 0x123 JUMPI DUP2 PUSH1 0x0 SWAP3 PUSH1 0x20 DUP1 SWAP4 ADD DUP4 DUP7 ADD CALLDATACOPY DUP4 ADD ADD MSTORE SWAP1 JUMP JUMPDEST CALLVALUE PUSH3 0x123 JUMPI PUSH1 0x40 CALLDATASIZE PUSH1 0x3 NOT ADD SLT PUSH3 0x123 JUMPI PUSH8 0xFFFFFFFFFFFFFFFF PUSH1 0x4 CALLDATALOAD DUP2 DUP2 GT PUSH3 0x123 JUMPI PUSH3 0x526 SWAP1 CALLDATASIZE SWAP1 PUSH1 0x4 ADD PUSH3 0x4A2 JUMP JUMPDEST PUSH1 0x24 CALLDATALOAD DUP3 DUP2 GT PUSH3 0x123 JUMPI PUSH3 0x541 SWAP1 CALLDATASIZE SWAP1 PUSH1 0x4 ADD PUSH3 0x4A2 JUMP JUMPDEST SWAP2 PUSH1 0x1 PUSH1 0x1 PUSH1 0xA0 SHL SUB PUSH32 0x0 AND CALLER SUB PUSH3 0x45B JUMPI PUSH1 0x40 MLOAD DUP3 DUP2 DUP1 SWAP5 MLOAD PUSH3 0x58D DUP2 PUSH1 0x20 SWAP8 DUP9 DUP1 SWAP7 ADD PUSH3 0x244 JUMP JUMPDEST DUP2 ADD PUSH1 0x2 DUP2 MSTORE SUB ADD SWAP1 KECCAK256 SWAP2 DUP4 MLOAD SWAP2 DUP3 GT PUSH3 0x23E JUMPI PUSH3 0x5BA DUP3 PUSH3 0x5B3 DUP6 SLOAD PUSH3 0x1C8 JUMP JUMPDEST DUP6 PUSH3 0xA49 JUMP JUMPDEST DUP1 PUSH1 0x1F DUP4 GT PUSH1 0x1 EQ PUSH3 0x5F8 JUMPI POP DUP2 SWAP3 SWAP4 PUSH1 0x0 SWAP3 PUSH3 0x5EC JUMPI JUMPDEST POP POP PUSH1 0x0 NOT PUSH1 0x3 DUP4 SWAP1 SHL SHR NOT AND PUSH1 0x1 SWAP2 SWAP1 SWAP2 SHL OR SWAP1 SSTORE STOP JUMPDEST ADD MLOAD SWAP1 POP CODESIZE DUP1 PUSH3 0x5D4 JUMP JUMPDEST SWAP1 PUSH1 0x1F NOT DUP4 AND SWAP5 PUSH3 0x60F DUP6 PUSH1 0x0 MSTORE PUSH1 0x20 PUSH1 0x0 KECCAK256 SWAP1 JUMP JUMPDEST SWAP3 PUSH1 0x0 SWAP1 JUMPDEST DUP8 DUP3 LT PUSH3 0x64E JUMPI POP POP DUP4 PUSH1 0x1 SWAP6 SWAP7 LT PUSH3 0x634 JUMPI JUMPDEST POP POP POP DUP2 SHL ADD SWAP1 SSTORE STOP JUMPDEST ADD MLOAD PUSH1 0x0 NOT PUSH1 0xF8 DUP5 PUSH1 0x3 SHL AND SHR NOT AND SWAP1 SSTORE CODESIZE DUP1 DUP1 PUSH3 0x62A JUMP JUMPDEST DUP1 PUSH1 0x1 DUP6 SWAP7 DUP3 SWAP5 SWAP7 DUP7 ADD MLOAD DUP2 SSTORE ADD SWAP6 ADD SWAP4 ADD SWAP1 PUSH3 0x614 JUMP JUMPDEST CALLVALUE PUSH3 0x123 JUMPI PUSH1 0x20 CALLDATASIZE PUSH1 0x3 NOT ADD SLT PUSH3 0x123 JUMPI PUSH1 0x1 PUSH1 0x1 PUSH1 0xA0 SHL SUB PUSH3 0x68C PUSH3 0x10C JUMP JUMPDEST AND PUSH1 0x0 MSTORE PUSH1 0x3 PUSH1 0x20 MSTORE PUSH1 0xFF PUSH1 0x40 PUSH1 0x0 KECCAK256 SLOAD AND PUSH1 0x40 MLOAD PUSH1 0x20 DUP2 ADD SWAP2 PUSH32 0x32458EED00000000000000000000000000000000000000000000000000000000 DUP4 MSTORE ISZERO ISZERO SWAP1 DUP2 PUSH1 0x24 DUP3 ADD MSTORE PUSH1 0x24 DUP2 MSTORE PUSH1 0x60 DUP2 ADD DUP2 DUP2 LT PUSH8 0xFFFFFFFFFFFFFFFF DUP3 GT OR PUSH3 0x23E JUMPI PUSH1 0x40 MSTORE MLOAD PUSH1 0x20 SWAP3 PUSH1 0x0 SWAP2 DUP3 SWAP2 PUSH11 0x636F6E736F6C652E6C6F67 GAS STATICCALL POP PUSH1 0x40 MLOAD SWAP1 DUP2 MSTORE RETURN JUMPDEST CALLVALUE PUSH3 0x123 JUMPI PUSH1 0x20 CALLDATASIZE PUSH1 0x3 NOT ADD SLT PUSH3 0x123 JUMPI CALLER PUSH1 0x0 MSTORE PUSH1 0x4 PUSH1 0x20 MSTORE PUSH1 0x20 PUSH1 0x1 PUSH1 0x1 PUSH1 0xA0 SHL SUB PUSH3 0x749 PUSH1 0x4 CALLDATALOAD PUSH1 0x40 PUSH1 0x0 KECCAK256 PUSH3 0x9C9 JUMP JUMPDEST SWAP2 SWAP1 SLOAD PUSH1 0x40 MLOAD SWAP3 PUSH1 0x3 SHL SHR AND DUP2 MSTORE RETURN JUMPDEST CALLVALUE PUSH3 0x123 JUMPI PUSH1 0x20 CALLDATASIZE PUSH1 0x3 NOT ADD SLT PUSH3 0x123 JUMPI PUSH1 0x1 PUSH1 0x1 PUSH1 0xA0 SHL SUB PUSH3 0x77E PUSH3 0x10C JUMP JUMPDEST AND PUSH1 0x0 SWAP1 DUP2 MSTORE PUSH1 0x3 PUSH1 0x20 MSTORE PUSH1 0x40 SWAP1 KECCAK256 DUP1 SLOAD PUSH1 0xFF NOT AND SWAP1 SSTORE STOP JUMPDEST CALLVALUE PUSH3 0x123 JUMPI PUSH1 0x0 CALLDATASIZE PUSH1 0x3 NOT ADD SLT PUSH3 0x123 JUMPI PUSH1 0x20 SELFBALANCE PUSH1 0x40 MLOAD SWAP1 DUP2 MSTORE RETURN JUMPDEST CALLVALUE PUSH3 0x123 JUMPI PUSH1 0x20 CALLDATASIZE PUSH1 0x3 NOT ADD SLT PUSH3 0x123 JUMPI PUSH1 0x1 PUSH1 0x1 PUSH1 0xA0 SHL SUB PUSH3 0x7DA PUSH3 0x10C JUMP JUMPDEST AND PUSH1 0x0 MSTORE PUSH1 0x3 PUSH1 0x20 MSTORE PUSH1 0x20 PUSH1 0xFF PUSH1 0x40 PUSH1 0x0 KECCAK256 SLOAD AND PUSH1 0x40 MLOAD SWAP1 ISZERO ISZERO DUP2 MSTORE RETURN JUMPDEST CALLVALUE PUSH3 0x123 JUMPI PUSH1 0x0 DUP1 PUSH1 0x3 NOT CALLDATASIZE ADD SLT PUSH3 0x389 JUMPI PUSH1 0x40 MLOAD SWAP1 DUP1 PUSH1 0x1 DUP1 SLOAD SWAP2 PUSH3 0x821 DUP4 PUSH3 0x1C8 JUMP JUMPDEST DUP1 DUP7 MSTORE SWAP3 DUP3 DUP2 AND SWAP1 DUP2 ISZERO PUSH3 0x35C JUMPI POP PUSH1 0x1 EQ PUSH3 0x84C JUMPI PUSH3 0x2F9 DUP6 PUSH3 0x2EC DUP2 DUP8 SUB DUP3 PUSH3 0x21B JUMP JUMPDEST SWAP3 POP DUP1 DUP4 MSTORE PUSH32 0xB10E2D527612073B26EECDFD717E6A320CF44B4AFAC2B0732D9FCBE2B7FA0CF6 JUMPDEST DUP3 DUP5 LT PUSH3 0x892 JUMPI POP POP POP DUP2 ADD PUSH1 0x20 ADD PUSH3 0x2EC DUP3 PUSH3 0x2F9 PUSH3 0x2D9 JUMP JUMPDEST DUP1 SLOAD PUSH1 0x20 DUP6 DUP8 ADD DUP2 ADD SWAP2 SWAP1 SWAP2 MSTORE SWAP1 SWAP4 ADD SWAP3 DUP2 ADD PUSH3 0x873 JUMP JUMPDEST CALLVALUE PUSH3 0x123 JUMPI PUSH1 0x0 CALLDATASIZE PUSH1 0x3 NOT ADD SLT PUSH3 0x123 JUMPI PUSH1 0x20 PUSH1 0x40 MLOAD PUSH1 0x1 PUSH1 0x1 PUSH1 0xA0 SHL SUB PUSH32 0x0 AND DUP2 MSTORE RETURN JUMPDEST PUSH2 0x164 CALLDATALOAD SWAP1 PUSH12 0xFFFFFFFFFFFFFFFFFFFFFFFF DUP3 AND DUP3 SUB PUSH3 0x123 JUMPI JUMP JUMPDEST PUSH2 0x184 CALLDATALOAD SWAP1 PUSH4 0xFFFFFFFF DUP3 AND DUP3 SUB PUSH3 0x123 JUMPI JUMP JUMPDEST CALLVALUE PUSH3 0x123 JUMPI PUSH2 0x1A0 CALLDATASIZE PUSH1 0x3 NOT ADD SLT PUSH3 0x123 JUMPI PUSH3 0x941 PUSH3 0x10C JUMP JUMPDEST PUSH1 0x24 CALLDATALOAD SWAP1 PUSH1 0x1 PUSH1 0x1 PUSH1 0xA0 SHL SUB DUP3 AND DUP3 SUB PUSH3 0x123 JUMPI PUSH3 0x960 PUSH3 0x128 JUMP JUMPDEST SWAP2 PUSH1 0xE4 CALLDATALOAD SWAP3 PUSH8 0xFFFFFFFFFFFFFFFF DUP5 AND DUP5 SUB PUSH3 0x123 JUMPI PUSH3 0x1B SWAP4 PUSH3 0x986 PUSH3 0x13F JUMP JUMPDEST SWAP1 PUSH3 0x991 PUSH3 0x157 JUMP JUMPDEST SWAP3 PUSH3 0x99C PUSH3 0x16F JUMP JUMPDEST SWAP5 PUSH3 0x9A7 PUSH3 0x8F1 JUMP JUMPDEST POP PUSH3 0x9B2 PUSH3 0x90E JUMP JUMPDEST SWAP7 PUSH1 0xA4 CALLDATALOAD SWAP2 PUSH1 0x84 CALLDATALOAD SWAP2 PUSH1 0x64 CALLDATALOAD SWAP2 PUSH1 0x44 CALLDATALOAD SWAP2 PUSH3 0xAF2 JUMP JUMPDEST DUP1 SLOAD DUP3 LT ISZERO PUSH3 0x9E2 JUMPI PUSH1 0x0 MSTORE PUSH1 0x20 PUSH1 0x0 KECCAK256 ADD SWAP1 PUSH1 0x0 SWAP1 JUMP JUMPDEST PUSH4 0x4E487B71 PUSH1 0xE0 SHL PUSH1 0x0 MSTORE PUSH1 0x32 PUSH1 0x4 MSTORE PUSH1 0x24 PUSH1 0x0 REVERT JUMPDEST CALLVALUE PUSH3 0x123 JUMPI PUSH1 0x40 CALLDATASIZE PUSH1 0x3 NOT ADD SLT PUSH3 0x123 JUMPI PUSH3 0xA15 PUSH3 0x10C JUMP JUMPDEST PUSH1 0x24 CALLDATALOAD SWAP1 PUSH1 0x1 PUSH1 0x1 PUSH1 0xA0 SHL SUB DUP1 SWAP2 AND PUSH1 0x0 MSTORE PUSH1 0x4 PUSH1 0x20 MSTORE PUSH1 0x40 PUSH1 0x0 KECCAK256 DUP1 SLOAD DUP4 LT ISZERO PUSH3 0x123 JUMPI PUSH1 0x20 SWAP3 PUSH3 0x749 SWAP2 PUSH3 0x9C9 JUMP JUMPDEST SWAP1 PUSH1 0x1F DUP2 GT PUSH3 0xA58 JUMPI POP POP POP JUMP JUMPDEST PUSH1 0x0 SWAP2 DUP3 MSTORE PUSH1 0x20 DUP3 KECCAK256 SWAP1 PUSH1 0x20 PUSH1 0x1F DUP6 ADD PUSH1 0x5 SHR DUP4 ADD SWAP5 LT PUSH3 0xA97 JUMPI JUMPDEST PUSH1 0x1F ADD PUSH1 0x5 SHR ADD SWAP2 JUMPDEST DUP3 DUP2 LT PUSH3 0xA8B JUMPI POP POP POP JUMP JUMPDEST DUP2 DUP2 SSTORE PUSH1 0x1 ADD PUSH3 0xA7E JUMP JUMPDEST SWAP1 SWAP3 POP DUP3 SWAP1 PUSH3 0xA75 JUMP JUMPDEST PUSH1 0x40 MLOAD RETURNDATASIZE PUSH1 0x0 DUP3 RETURNDATACOPY RETURNDATASIZE SWAP1 REVERT JUMPDEST DUP1 SLOAD PUSH9 0x10000000000000000 DUP2 LT ISZERO PUSH3 0x23E JUMPI PUSH3 0xAD3 SWAP2 PUSH1 0x1 DUP3 ADD DUP2 SSTORE PUSH3 0x9C9 JUMP JUMPDEST DUP2 SWAP3 SWAP2 SLOAD SWAP1 PUSH1 0x3 SHL SWAP2 PUSH1 0x1 PUSH1 0x1 PUSH1 0xA0 SHL SUB DUP1 SWAP2 AND DUP4 SHL SWAP3 SHL NOT AND OR SWAP1 SSTORE JUMP JUMPDEST SWAP7 SWAP1 SWAP11 SWAP5 SWAP10 SWAP4 SWAP9 SWAP3 SWAP8 SWAP2 SWAP6 PUSH1 0x1 PUSH1 0x1 PUSH1 0xA0 SHL SUB SWAP11 DUP12 DUP14 AND PUSH1 0x0 MSTORE PUSH1 0x3 PUSH1 0x20 MSTORE PUSH1 0xFF PUSH1 0x40 PUSH1 0x0 KECCAK256 SLOAD AND ISZERO PUSH3 0xC3C JUMPI PUSH1 0x40 MLOAD SWAP10 PUSH2 0x4499 SWAP1 DUP2 DUP13 ADD SWAP10 DUP13 DUP12 LT PUSH8 0xFFFFFFFFFFFFFFFF DUP13 GT OR PUSH3 0x23E JUMPI DUP16 DUP14 SWAP13 DUP16 SWAP5 SWAP13 PUSH3 0xBCC SWAP14 DUP16 PUSH3 0xCA7 SWAP1 CODECOPY SWAP11 SWAP8 SWAP3 SWAP7 SWAP1 SWAP2 SWAP5 SWAP6 DUP12 SWAP10 SWAP5 SWAP14 SWAP13 SWAP11 SWAP7 PUSH2 0x180 DUP12 ADD SWAP15 PUSH1 0x1 PUSH1 0x1 PUSH1 0xA0 SHL SUB SWAP12 DUP13 SWAP11 DUP12 DUP1 SWAP11 DUP2 DUP1 SWAP10 AND DUP5 MSTORE AND PUSH1 0x20 DUP4 ADD MSTORE PUSH1 0x40 DUP3 ADD MSTORE PUSH1 0x60 ADD MSTORE PUSH1 0x80 DUP14 ADD MSTORE PUSH1 0xA0 DUP13 ADD MSTORE AND PUSH1 0xC0 DUP11 ADD MSTORE PUSH8 0xFFFFFFFFFFFFFFFF AND PUSH1 0xE0 DUP10 ADD MSTORE AND PUSH2 0x100 DUP8 ADD MSTORE AND PUSH2 0x120 DUP6 ADD MSTORE AND PUSH2 0x140 DUP4 ADD MSTORE PUSH4 0xFFFFFFFF AND SWAP1 PUSH2 0x160 ADD MSTORE JUMP JUMPDEST SUB SWAP2 CREATE DUP1 ISZERO PUSH3 0xC36 JUMPI PUSH3 0xC20 DUP2 PUSH3 0xC1A PUSH32 0xA155A575082ECF596E5A22A44834BE92670605D1D0832000305888BA02A462D9 SWAP6 PUSH1 0x1 PUSH1 0x1 PUSH1 0xA0 SHL SUB AND PUSH1 0x0 MSTORE PUSH1 0x4 PUSH1 0x20 MSTORE PUSH1 0x40 PUSH1 0x0 KECCAK256 SWAP1 JUMP JUMPDEST PUSH3 0xAAE JUMP JUMPDEST PUSH1 0x40 MLOAD SWAP2 AND PUSH1 0x1 PUSH1 0x1 PUSH1 0xA0 SHL SUB AND DUP2 MSTORE PUSH1 0x20 SWAP1 LOG1 JUMP JUMPDEST PUSH3 0xAA2 JUMP JUMPDEST PUSH1 0x84 PUSH1 0x40 MLOAD PUSH3 0x461BCD PUSH1 0xE5 SHL DUP2 MSTORE PUSH1 0x20 PUSH1 0x4 DUP3 ADD MSTORE PUSH1 0x21 PUSH1 0x24 DUP3 ADD MSTORE PUSH32 0x456E64657265636F206E616F2065737461206E61206C69737461206272616E63 PUSH1 0x44 DUP3 ADD MSTORE PUSH32 0x6100000000000000000000000000000000000000000000000000000000000000 PUSH1 0x64 DUP3 ADD MSTORE REVERT INVALID PUSH1 0x1F PUSH3 0x4499 CODESIZE DUP2 SWAP1 SUB SWAP2 DUP3 ADD PUSH1 0x1F NOT AND PUSH1 0xC0 SWAP1 DUP2 ADD SWAP3 PUSH1 0x1 PUSH1 0x1 PUSH1 0x40 SHL SUB SWAP3 DUP4 DUP6 GT DUP4 DUP7 LT OR PUSH3 0x239 JUMPI DUP2 PUSH2 0x180 SWAP3 DUP5 SWAP3 PUSH1 0x40 SWAP8 DUP9 MSTORE DUP4 CODECOPY DUP2 ADD SUB SLT PUSH3 0x234 JUMPI PUSH3 0x4D DUP2 PUSH3 0x24F JUMP JUMPDEST SWAP1 PUSH3 0x5C PUSH1 0x20 DUP3 ADD PUSH3 0x24F JUMP JUMPDEST SWAP3 DUP5 DUP3 ADD MLOAD SWAP1 PUSH1 0x60 DUP4 ADD MLOAD SWAP1 PUSH1 0x80 DUP5 ADD MLOAD SWAP6 PUSH1 0xA0 DUP6 ADD MLOAD PUSH3 0x81 PUSH1 0xC0 DUP8 ADD PUSH3 0x24F JUMP JUMPDEST SWAP8 PUSH1 0xE0 DUP8 ADD MLOAD SWAP4 DUP5 AND DUP1 SWAP5 SUB PUSH3 0x234 JUMPI PUSH3 0xA1 PUSH2 0x100 DUP9 ADD PUSH3 0x24F JUMP JUMPDEST SWAP5 PUSH3 0xB1 PUSH2 0x120 DUP10 ADD PUSH3 0x24F JUMP JUMPDEST SWAP7 PUSH2 0x160 PUSH3 0xC4 PUSH2 0x140 DUP12 ADD PUSH3 0x24F JUMP JUMPDEST SWAP10 ADD MLOAD SWAP5 PUSH4 0xFFFFFFFF DUP7 AND DUP7 SUB PUSH3 0x234 JUMPI PUSH1 0x1 PUSH1 0x1 PUSH1 0xA0 SHL SUB SWAP12 DUP13 AND PUSH1 0x80 MSTORE DUP11 DUP13 AND SWAP11 DUP12 ISZERO PUSH3 0x1F0 JUMPI SWAP2 DUP13 DUP1 SWAP12 SWAP11 SWAP9 SWAP7 SWAP5 SWAP3 DUP2 SWAP11 SWAP9 SWAP7 SWAP5 PUSH1 0x1 PUSH1 0xA0 SHL PUSH1 0x1 SWAP1 SUB NOT SWAP15 DUP16 PUSH1 0x0 SLOAD AND OR PUSH1 0x0 SSTORE PUSH1 0x18 SLOAD SWAP1 PUSH1 0x1 PUSH1 0xA8 SHL PUSH2 0x100 SWAP1 SUB SWAP1 PUSH1 0x8 SHL AND SWAP1 PUSH1 0x1 PUSH1 0xA8 SHL PUSH2 0x100 SWAP1 SUB NOT AND OR PUSH1 0x18 SSTORE AND DUP13 PUSH1 0x19 SLOAD AND OR PUSH1 0x19 SSTORE PUSH1 0x1C SSTORE PUSH1 0x1D SSTORE PUSH1 0x1B SSTORE PUSH1 0x7 SSTORE DUP5 PUSH1 0x6 SLOAD SWAP4 AND PUSH1 0xA0 MSTORE DUP10 SHL PUSH12 0xFFFFFFFF0000000000000000 AND SWAP2 PUSH1 0x1 PUSH1 0x60 SHL PUSH1 0x1 SWAP1 SUB NOT AND OR OR PUSH1 0x6 SSTORE AND DUP4 PUSH1 0x8 SLOAD AND OR PUSH1 0x8 SSTORE AND SWAP1 PUSH1 0x9 SLOAD AND OR PUSH1 0x9 SSTORE PUSH1 0xA SLOAD AND DUP2 MLOAD SWAP1 DUP2 MSTORE PUSH1 0x20 PUSH32 0x3583C1105FD29A46B4D92CEEAFF8BE03CBA58A11CCE44A3B7DA77BBC3798EDC4 SWAP2 LOG1 TIMESTAMP PUSH1 0xF SSTORE MLOAD PUSH2 0x4234 SWAP1 DUP2 PUSH3 0x265 DUP3 CODECOPY PUSH1 0x80 MLOAD DUP2 DUP2 DUP2 PUSH2 0x49B ADD MSTORE DUP2 DUP2 PUSH2 0x232A ADD MSTORE PUSH2 0x252B ADD MSTORE PUSH1 0xA0 MLOAD DUP2 DUP2 DUP2 PUSH2 0x140C ADD MSTORE PUSH2 0x257D ADD MSTORE RETURN JUMPDEST DUP14 MLOAD PUSH3 0x461BCD PUSH1 0xE5 SHL DUP2 MSTORE PUSH1 0x20 PUSH1 0x4 DUP3 ADD MSTORE PUSH1 0x18 PUSH1 0x24 DUP3 ADD MSTORE PUSH32 0x43616E6E6F7420736574206F776E657220746F207A65726F0000000000000000 PUSH1 0x44 DUP3 ADD MSTORE PUSH1 0x64 SWAP1 REVERT JUMPDEST PUSH1 0x0 DUP1 REVERT JUMPDEST PUSH4 0x4E487B71 PUSH1 0xE0 SHL PUSH1 0x0 MSTORE PUSH1 0x41 PUSH1 0x4 MSTORE PUSH1 0x24 PUSH1 0x0 REVERT JUMPDEST MLOAD SWAP1 PUSH1 0x1 PUSH1 0x1 PUSH1 0xA0 SHL SUB DUP3 AND DUP3 SUB PUSH3 0x234 JUMPI JUMP INVALID PUSH1 0x80 PUSH1 0x40 MSTORE PUSH1 0x4 CALLDATASIZE LT ISZERO PUSH3 0x1D JUMPI JUMPDEST CALLDATASIZE ISZERO PUSH3 0x1B JUMPI PUSH1 0x0 DUP1 REVERT JUMPDEST STOP JUMPDEST PUSH1 0x0 CALLDATALOAD PUSH1 0xE0 SHR DUP1 PUSH4 0x89EA02E EQ PUSH3 0x2FE JUMPI DUP1 PUSH4 0x9C1BA2E EQ PUSH3 0x2F8 JUMPI DUP1 PUSH4 0xCA76175 EQ PUSH3 0x2F2 JUMPI DUP1 PUSH4 0x1243BCC3 EQ PUSH3 0x2EC JUMPI DUP1 PUSH4 0x1AA46F59 EQ PUSH3 0x2E6 JUMPI DUP1 PUSH4 0x24B93E3E EQ PUSH3 0x2E0 JUMPI DUP1 PUSH4 0x277E2213 EQ PUSH3 0x2DA JUMPI DUP1 PUSH4 0x2FC2A7B9 EQ PUSH3 0x2D4 JUMPI DUP1 PUSH4 0x338CDCA1 EQ PUSH3 0x2CE JUMPI DUP1 PUSH4 0x381FC4B5 EQ PUSH3 0x2C8 JUMPI DUP1 PUSH4 0x3944EA3A EQ PUSH3 0x2C2 JUMPI DUP1 PUSH4 0x3F678E11 EQ PUSH3 0x2BC JUMPI DUP1 PUSH4 0x43CD3D86 EQ PUSH3 0x2B6 JUMPI DUP1 PUSH4 0x4585E33B EQ PUSH3 0x2B0 JUMPI DUP1 PUSH4 0x472CBBB0 EQ PUSH3 0x2AA JUMPI DUP1 PUSH4 0x48802B92 EQ PUSH3 0x2A4 JUMPI DUP1 PUSH4 0x48BD6F05 EQ PUSH3 0x29E JUMPI DUP1 PUSH4 0x4B0795A8 EQ PUSH3 0x298 JUMPI DUP1 PUSH4 0x5E0611F1 EQ PUSH3 0x292 JUMPI DUP1 PUSH4 0x688ECFD1 EQ PUSH3 0x28C JUMPI DUP1 PUSH4 0x6BAA48FE EQ PUSH3 0x286 JUMPI DUP1 PUSH4 0x6E04FF0D EQ PUSH3 0x280 JUMPI DUP1 PUSH4 0x6E74336B EQ PUSH3 0x27A JUMPI DUP1 PUSH4 0x79BA5097 EQ PUSH3 0x274 JUMPI DUP1 PUSH4 0x7B103999 EQ PUSH3 0x26E JUMPI DUP1 PUSH4 0x8B7AFE2E EQ PUSH3 0x268 JUMPI DUP1 PUSH4 0x8D7E6D2D EQ PUSH3 0x262 JUMPI DUP1 PUSH4 0x8DA5CB5B EQ PUSH3 0x25C JUMPI DUP1 PUSH4 0xA3097139 EQ PUSH3 0x256 JUMPI DUP1 PUSH4 0xA3D3C0D2 EQ PUSH3 0x250 JUMPI DUP1 PUSH4 0xB1E21749 EQ PUSH3 0x24A JUMPI DUP1 PUSH4 0xBEF3A2F0 EQ PUSH3 0x244 JUMPI DUP1 PUSH4 0xD1384EB6 EQ PUSH3 0x23E JUMPI DUP1 PUSH4 0xD2AA789F EQ PUSH3 0x238 JUMPI DUP1 PUSH4 0xD811FCF0 EQ PUSH3 0x232 JUMPI DUP1 PUSH4 0xEBF14A55 EQ PUSH3 0x22C JUMPI DUP1 PUSH4 0xF2FDE38B EQ PUSH3 0x226 JUMPI DUP1 PUSH4 0xF5C1279B EQ PUSH3 0x220 JUMPI DUP1 PUSH4 0xF68016B7 EQ PUSH3 0x21A JUMPI DUP1 PUSH4 0xFD2C80AE EQ PUSH3 0x214 JUMPI PUSH4 0xFFFEB84E SUB PUSH3 0xF JUMPI PUSH3 0x19EF JUMP JUMPDEST PUSH3 0x19CF JUMP JUMPDEST PUSH3 0x19A9 JUMP JUMPDEST PUSH3 0x1989 JUMP JUMPDEST PUSH3 0x18B0 JUMP JUMPDEST PUSH3 0x1864 JUMP JUMPDEST PUSH3 0x183B JUMP JUMPDEST PUSH3 0x181B JUMP JUMPDEST PUSH3 0x17EF JUMP JUMPDEST PUSH3 0x173A JUMP JUMPDEST PUSH3 0x171A JUMP JUMPDEST PUSH3 0x16FA JUMP JUMPDEST PUSH3 0x16DA JUMP JUMPDEST PUSH3 0x16B1 JUMP JUMPDEST PUSH3 0x1484 JUMP JUMPDEST PUSH3 0x1430 JUMP JUMPDEST PUSH3 0x13EA JUMP JUMPDEST PUSH3 0x1306 JUMP JUMPDEST PUSH3 0x12E6 JUMP JUMPDEST PUSH3 0x1264 JUMP JUMPDEST PUSH3 0x123B JUMP JUMPDEST PUSH3 0x1186 JUMP JUMPDEST PUSH3 0x115D JUMP JUMPDEST PUSH3 0x10A8 JUMP JUMPDEST PUSH3 0x1088 JUMP JUMPDEST PUSH3 0x1068 JUMP JUMPDEST PUSH3 0xE9D JUMP JUMPDEST PUSH3 0xDAD JUMP JUMPDEST PUSH3 0xD5C JUMP JUMPDEST PUSH3 0xC2C JUMP JUMPDEST PUSH3 0xB77 JUMP JUMPDEST PUSH3 0xB57 JUMP JUMPDEST PUSH3 0xA64 JUMP JUMPDEST PUSH3 0xA3B JUMP JUMPDEST PUSH3 0x9CB JUMP JUMPDEST PUSH3 0x704 JUMP JUMPDEST PUSH3 0x6E4 JUMP JUMPDEST PUSH3 0x6BB JUMP JUMPDEST PUSH3 0x43A JUMP JUMPDEST PUSH3 0x335 JUMP JUMPDEST PUSH3 0x315 JUMP JUMPDEST PUSH1 0x0 SWAP2 SUB SLT PUSH3 0x310 JUMPI JUMP JUMPDEST PUSH1 0x0 DUP1 REVERT JUMPDEST CALLVALUE PUSH3 0x310 JUMPI PUSH1 0x0 CALLDATASIZE PUSH1 0x3 NOT ADD SLT PUSH3 0x310 JUMPI PUSH1 0x20 PUSH1 0xF SLOAD PUSH1 0x40 MLOAD SWAP1 DUP2 MSTORE RETURN JUMPDEST CALLVALUE PUSH3 0x310 JUMPI PUSH1 0x0 CALLDATASIZE PUSH1 0x3 NOT ADD SLT PUSH3 0x310 JUMPI PUSH1 0x20 PUSH8 0xFFFFFFFFFFFFFFFF PUSH1 0x6 SLOAD AND PUSH1 0x40 MLOAD SWAP1 DUP2 MSTORE RETURN JUMPDEST PUSH4 0x4E487B71 PUSH1 0xE0 SHL PUSH1 0x0 MSTORE PUSH1 0x41 PUSH1 0x4 MSTORE PUSH1 0x24 PUSH1 0x0 REVERT JUMPDEST PUSH8 0xFFFFFFFFFFFFFFFF DUP2 GT PUSH3 0x38A JUMPI PUSH1 0x40 MSTORE JUMP JUMPDEST PUSH3 0x35F JUMP JUMPDEST PUSH1 0x40 DUP2 ADD SWAP1 DUP2 LT PUSH8 0xFFFFFFFFFFFFFFFF DUP3 GT OR PUSH3 0x38A JUMPI PUSH1 0x40 MSTORE JUMP JUMPDEST SWAP1 PUSH1 0x1F DUP1 NOT SWAP2 ADD AND DUP2 ADD SWAP1 DUP2 LT PUSH8 0xFFFFFFFFFFFFFFFF DUP3 GT OR PUSH3 0x38A JUMPI PUSH1 0x40 MSTORE JUMP JUMPDEST PUSH8 0xFFFFFFFFFFFFFFFF DUP2 GT PUSH3 0x38A JUMPI PUSH1 0x1F ADD PUSH1 0x1F NOT AND PUSH1 0x20 ADD SWAP1 JUMP JUMPDEST DUP2 PUSH1 0x1F DUP3 ADD SLT ISZERO PUSH3 0x310 JUMPI DUP1 CALLDATALOAD SWAP1 PUSH3 0x407 DUP3 PUSH3 0x3D0 JUMP JUMPDEST SWAP3 PUSH3 0x417 PUSH1 0x40 MLOAD SWAP5 DUP6 PUSH3 0x3AD JUMP JUMPDEST DUP3 DUP5 MSTORE PUSH1 0x20 DUP4 DUP4 ADD ADD GT PUSH3 0x310 JUMPI DUP2 PUSH1 0x0 SWAP3 PUSH1 0x20 DUP1 SWAP4 ADD DUP4 DUP7 ADD CALLDATACOPY DUP4 ADD ADD MSTORE SWAP1 JUMP JUMPDEST CALLVALUE PUSH3 0x310 JUMPI PUSH1 0x60 CALLDATASIZE PUSH1 0x3 NOT ADD SLT PUSH3 0x310 JUMPI PUSH1 0x4 DUP1 CALLDATALOAD SWAP1 PUSH8 0xFFFFFFFFFFFFFFFF SWAP1 PUSH1 0x24 CALLDATALOAD DUP3 DUP2 GT PUSH3 0x310 JUMPI PUSH3 0x476 SWAP1 CALLDATASIZE SWAP1 DUP4 ADD PUSH3 0x3ED JUMP JUMPDEST PUSH1 0x44 CALLDATALOAD DUP4 DUP2 GT PUSH3 0x310 JUMPI PUSH3 0x490 SWAP1 CALLDATASIZE SWAP1 DUP5 ADD PUSH3 0x3ED JUMP JUMPDEST SWAP1 PUSH1 0x1 PUSH1 0x1 PUSH1 0xA0 SHL SUB PUSH32 0x0 AND CALLER SUB PUSH3 0x692 JUMPI DUP1 MLOAD SWAP4 DUP5 GT PUSH3 0x38A JUMPI DUP3 PUSH3 0x4E5 DUP6 PUSH3 0x4DF DUP9 SWAP7 SLOAD PUSH3 0x797 JUMP JUMPDEST PUSH3 0x1D18 JUMP JUMPDEST PUSH1 0x20 DUP1 PUSH1 0x1F DUP8 GT PUSH1 0x1 EQ PUSH3 0x5E3 JUMPI POP SWAP5 DUP1 PUSH32 0x7BAB0EC163B5C132C72B8146AC4D6E067E82ED58F8B131150AA71C9258911562 SWAP6 SWAP7 PUSH1 0x0 SWAP2 PUSH3 0x5D7 JUMPI JUMPDEST POP DUP2 PUSH1 0x1 SHL SWAP2 PUSH1 0x0 NOT SWAP1 PUSH1 0x3 SHL SHR NOT AND OR SWAP1 SSTORE JUMPDEST PUSH3 0x542 DUP3 PUSH3 0x374A JUMP JUMPDEST PUSH3 0x558 PUSH3 0x553 PUSH1 0x11 SLOAD PUSH3 0x1F6A JUMP JUMPDEST PUSH1 0x11 SSTORE JUMP JUMPDEST PUSH1 0xFF PUSH3 0x567 PUSH1 0x18 SLOAD PUSH1 0xFF AND SWAP1 JUMP JUMPDEST AND PUSH3 0x5B3 JUMPI PUSH3 0x578 DUP2 PUSH3 0x3865 JUMP JUMPDEST PUSH3 0x589 PUSH1 0x40 MLOAD SWAP3 DUP4 SWAP3 DUP4 PUSH3 0x3974 JUMP JUMPDEST SUB SWAP1 LOG2 PUSH32 0x85E1543BF2F84FE80C6BADBCE3648C8539AD1DF4D2B3D822938CA0538BE727E6 PUSH1 0x0 DUP1 LOG2 STOP JUMPDEST PUSH3 0x5C7 PUSH3 0x5C2 DUP3 PUSH3 0x3841 JUMP JUMPDEST PUSH1 0x20 SSTORE JUMP JUMPDEST PUSH3 0x5D1 PUSH3 0x39E9 JUMP JUMPDEST PUSH3 0x578 JUMP JUMPDEST SWAP1 POP DUP4 ADD MLOAD CODESIZE PUSH3 0x523 JUMP JUMPDEST PUSH1 0x4 PUSH1 0x0 MSTORE SWAP1 PUSH1 0x1F NOT DUP8 AND PUSH32 0x8A35ACFBC15FF81A39AE7D344FD709F28E8600B4AA8C65C6B64BFE7FE36BD19B SWAP3 PUSH1 0x0 SWAP1 JUMPDEST DUP3 DUP3 LT PUSH3 0x675 JUMPI POP POP SWAP2 DUP8 SWAP2 PUSH32 0x7BAB0EC163B5C132C72B8146AC4D6E067E82ED58F8B131150AA71C9258911562 SWAP8 SWAP9 PUSH1 0x1 SWAP5 LT PUSH3 0x65B JUMPI JUMPDEST POP POP DUP2 SHL ADD SWAP1 SSTORE PUSH3 0x537 JUMP JUMPDEST DUP6 ADD MLOAD PUSH1 0x0 NOT PUSH1 0xF8 DUP5 PUSH1 0x3 SHL AND SHR NOT AND SWAP1 SSTORE CODESIZE DUP1 PUSH3 0x64E JUMP JUMPDEST DUP7 DUP5 ADD MLOAD DUP6 SSTORE DUP11 SWAP9 POP PUSH1 0x1 SWAP1 SWAP5 ADD SWAP4 SWAP3 DUP4 ADD SWAP3 SWAP1 DUP2 ADD SWAP1 PUSH3 0x614 JUMP JUMPDEST DUP3 PUSH1 0x40 MLOAD PUSH32 0xC6829F8300000000000000000000000000000000000000000000000000000000 DUP2 MSTORE REVERT JUMPDEST CALLVALUE PUSH3 0x310 JUMPI PUSH1 0x0 CALLDATASIZE PUSH1 0x3 NOT ADD SLT PUSH3 0x310 JUMPI PUSH1 0x20 PUSH1 0x1 PUSH1 0x1 PUSH1 0xA0 SHL SUB PUSH1 0x8 SLOAD AND PUSH1 0x40 MLOAD SWAP1 DUP2 MSTORE RETURN JUMPDEST CALLVALUE PUSH3 0x310 JUMPI PUSH1 0x0 CALLDATASIZE PUSH1 0x3 NOT ADD SLT PUSH3 0x310 JUMPI PUSH1 0x20 PUSH1 0x3 SLOAD PUSH1 0x40 MLOAD SWAP1 DUP2 MSTORE RETURN JUMPDEST CALLVALUE PUSH3 0x310 JUMPI PUSH1 0x0 CALLDATASIZE PUSH1 0x3 NOT ADD SLT PUSH3 0x310 JUMPI PUSH1 0x20 PUSH1 0x6 SLOAD PUSH4 0xFFFFFFFF PUSH1 0x40 MLOAD SWAP2 PUSH1 0x40 SHR AND DUP2 MSTORE RETURN JUMPDEST PUSH4 0x4E487B71 PUSH1 0xE0 SHL PUSH1 0x0 MSTORE PUSH1 0x32 PUSH1 0x4 MSTORE PUSH1 0x24 PUSH1 0x0 REVERT JUMPDEST PUSH1 0x1E SLOAD DUP2 LT ISZERO PUSH3 0x77B JUMPI PUSH1 0x1E PUSH1 0x0 MSTORE PUSH32 0x50BB669A95C7B50B7E8A6F09454034B2B14CF2B85C730DCA9A539CA82CB6E350 ADD SWAP1 PUSH1 0x0 SWAP1 JUMP JUMPDEST PUSH3 0x72D JUMP JUMPDEST PUSH4 0x4E487B71 PUSH1 0xE0 SHL PUSH1 0x0 MSTORE PUSH1 0x0 PUSH1 0x4 MSTORE PUSH1 0x24 PUSH1 0x0 REVERT JUMPDEST SWAP1 PUSH1 0x1 DUP3 DUP2 SHR SWAP3 AND DUP1 ISZERO PUSH3 0x7C9 JUMPI JUMPDEST PUSH1 0x20 DUP4 LT EQ PUSH3 0x7B3 JUMPI JUMP JUMPDEST PUSH4 0x4E487B71 PUSH1 0xE0 SHL PUSH1 0x0 MSTORE PUSH1 0x22 PUSH1 0x4 MSTORE PUSH1 0x24 PUSH1 0x0 REVERT JUMPDEST SWAP2 PUSH1 0x7F AND SWAP2 PUSH3 0x7A7 JUMP JUMPDEST PUSH1 0x40 MLOAD SWAP1 PUSH1 0x0 DUP3 PUSH1 0x1F SLOAD SWAP2 PUSH3 0x7EA DUP4 PUSH3 0x797 JUMP JUMPDEST DUP1 DUP4 MSTORE SWAP3 PUSH1 0x1 SWAP1 DUP2 DUP2 AND SWAP1 DUP2 ISZERO PUSH3 0x87A JUMPI POP PUSH1 0x1 EQ PUSH3 0x817 JUMPI JUMPDEST POP PUSH3 0x815 SWAP3 POP SUB DUP4 PUSH3 0x3AD JUMP JUMPDEST JUMP JUMPDEST PUSH1 0x1F PUSH1 0x0 SWAP1 DUP2 MSTORE SWAP2 POP PUSH32 0xA03837A25210EE280C2113FF4B77CA23440B19D4866CCA721C801278FD08D807 JUMPDEST DUP5 DUP4 LT PUSH3 0x85E JUMPI POP PUSH3 0x815 SWAP4 POP POP DUP2 ADD PUSH1 0x20 ADD CODESIZE PUSH3 0x806 JUMP JUMPDEST DUP2 SWAP4 POP SWAP1 DUP2 PUSH1 0x20 SWAP3 SLOAD DUP4 DUP6 DUP11 ADD ADD MSTORE ADD SWAP2 ADD SWAP1 SWAP2 DUP6 SWAP3 PUSH3 0x842 JUMP JUMPDEST SWAP1 POP PUSH1 0x20 SWAP3 POP PUSH3 0x815 SWAP5 SWAP2 POP PUSH1 0xFF NOT AND DUP3 DUP5 ADD MSTORE ISZERO ISZERO PUSH1 0x5 SHL DUP3 ADD ADD CODESIZE PUSH3 0x806 JUMP JUMPDEST SWAP1 PUSH1 0x40 MLOAD SWAP2 DUP3 PUSH1 0x0 DUP3 SLOAD SWAP3 PUSH3 0x8B4 DUP5 PUSH3 0x797 JUMP JUMPDEST SWAP1 DUP2 DUP5 MSTORE PUSH1 0x1 SWAP5 DUP6 DUP2 AND SWAP1 DUP2 PUSH1 0x0 EQ PUSH3 0x929 JUMPI POP PUSH1 0x1 EQ PUSH3 0x8E2 JUMPI JUMPDEST POP POP PUSH3 0x815 SWAP3 POP SUB DUP4 PUSH3 0x3AD JUMP JUMPDEST SWAP1 SWAP4 SWAP2 POP PUSH1 0x0 MSTORE PUSH1 0x20 SWAP1 DUP2 PUSH1 0x0 KECCAK256 SWAP4 PUSH1 0x0 SWAP2 JUMPDEST DUP2 DUP4 LT PUSH3 0x910 JUMPI POP POP PUSH3 0x815 SWAP4 POP DUP3 ADD ADD CODESIZE DUP1 PUSH3 0x8D2 JUMP JUMPDEST DUP6 SLOAD DUP9 DUP5 ADD DUP6 ADD MSTORE SWAP5 DUP6 ADD SWAP5 DUP8 SWAP5 POP SWAP2 DUP4 ADD SWAP2 PUSH3 0x8F5 JUMP JUMPDEST SWAP2 POP POP PUSH3 0x815 SWAP5 POP PUSH1 0x20 SWAP3 POP PUSH1 0xFF NOT AND DUP3 DUP5 ADD MSTORE ISZERO ISZERO PUSH1 0x5 SHL DUP3 ADD ADD CODESIZE DUP1 PUSH3 0x8D2 JUMP JUMPDEST PUSH1 0x0 JUMPDEST DUP3 DUP2 LT PUSH3 0x961 JUMPI POP PUSH1 0x0 SWAP2 ADD MSTORE JUMP JUMPDEST PUSH1 0x80 DUP2 ADD MLOAD DUP3 DUP3 ADD MSTORE PUSH1 0x20 ADD PUSH3 0x951 JUMP JUMPDEST SWAP2 SWAP1 DUP3 MLOAD SWAP3 DUP4 DUP3 MSTORE PUSH1 0x0 JUMPDEST DUP5 DUP2 LT PUSH3 0x9A0 JUMPI POP POP DUP3 PUSH1 0x0 PUSH1 0x20 DUP1 SWAP5 SWAP6 DUP5 ADD ADD MSTORE PUSH1 0x1F DUP1 NOT SWAP2 ADD AND ADD ADD SWAP1 JUMP JUMPDEST PUSH1 0x20 DUP2 DUP4 ADD DUP2 ADD MLOAD DUP5 DUP4 ADD DUP3 ADD MSTORE ADD PUSH3 0x97E JUMP JUMPDEST SWAP1 PUSH1 0x20 PUSH3 0x9C8 SWAP3 DUP2 DUP2 MSTORE ADD SWAP1 PUSH3 0x973 JUMP JUMPDEST SWAP1 JUMP JUMPDEST CALLVALUE PUSH3 0x310 JUMPI PUSH1 0x20 CALLDATASIZE PUSH1 0x3 NOT ADD SLT PUSH3 0x310 JUMPI PUSH1 0x4 CALLDATALOAD PUSH1 0x1E SLOAD DUP2 LT ISZERO PUSH3 0x310 JUMPI PUSH3 0xA22 PUSH3 0xA37 SWAP2 PUSH1 0x1E PUSH1 0x0 MSTORE PUSH32 0x50BB669A95C7B50B7E8A6F09454034B2B14CF2B85C730DCA9A539CA82CB6E350 ADD PUSH3 0x89E JUMP JUMPDEST PUSH1 0x40 MLOAD SWAP2 DUP3 SWAP2 PUSH1 0x20 DUP4 MSTORE PUSH1 0x20 DUP4 ADD SWAP1 PUSH3 0x973 JUMP JUMPDEST SUB SWAP1 RETURN JUMPDEST CALLVALUE PUSH3 0x310 JUMPI PUSH1 0x0 CALLDATASIZE PUSH1 0x3 NOT ADD SLT PUSH3 0x310 JUMPI PUSH1 0x20 PUSH1 0x1 PUSH1 0x1 PUSH1 0xA0 SHL SUB PUSH1 0xA SLOAD AND PUSH1 0x40 MLOAD SWAP1 DUP2 MSTORE RETURN JUMPDEST CALLVALUE PUSH3 0x310 JUMPI PUSH1 0x0 DUP1 PUSH1 0x3 NOT CALLDATASIZE ADD SLT PUSH3 0xB54 JUMPI PUSH1 0x40 MLOAD SWAP1 DUP1 PUSH1 0xC SLOAD PUSH3 0xA8B DUP2 PUSH3 0x797 JUMP JUMPDEST DUP1 DUP6 MSTORE SWAP2 PUSH1 0x1 SWAP2 DUP1 DUP4 AND SWAP1 DUP2 ISZERO PUSH3 0xB27 JUMPI POP PUSH1 0x1 EQ PUSH3 0xAC7 JUMPI JUMPDEST PUSH3 0xA37 DUP6 PUSH3 0xABA DUP2 DUP8 SUB DUP3 PUSH3 0x3AD JUMP JUMPDEST PUSH1 0x40 MLOAD SWAP2 DUP3 SWAP2 DUP3 PUSH3 0x9B5 JUMP JUMPDEST SWAP3 POP PUSH1 0xC DUP4 MSTORE PUSH32 0xDF6966C971051C3D54EC59162606531493A51404A002842F56009D7E5CF4A8C7 JUMPDEST DUP3 DUP5 LT PUSH3 0xB0E JUMPI POP POP POP DUP2 ADD PUSH1 0x20 ADD PUSH3 0xABA DUP3 PUSH3 0xA37 PUSH3 0xAA7 JUMP JUMPDEST DUP1 SLOAD PUSH1 0x20 DUP6 DUP8 ADD DUP2 ADD SWAP2 SWAP1 SWAP2 MSTORE SWAP1 SWAP4 ADD SWAP3 DUP2 ADD PUSH3 0xAEF JUMP JUMPDEST DUP7 SWAP6 POP PUSH3 0xA37 SWAP7 SWAP4 POP PUSH1 0x20 SWAP3 POP PUSH3 0xABA SWAP5 SWAP2 POP PUSH1 0xFF NOT AND DUP3 DUP5 ADD MSTORE ISZERO ISZERO PUSH1 0x5 SHL DUP3 ADD ADD SWAP3 SWAP4 PUSH3 0xAA7 JUMP JUMPDEST DUP1 REVERT JUMPDEST CALLVALUE PUSH3 0x310 JUMPI PUSH1 0x0 CALLDATASIZE PUSH1 0x3 NOT ADD SLT PUSH3 0x310 JUMPI PUSH1 0x20 PUSH1 0x11 SLOAD PUSH1 0x40 MLOAD SWAP1 DUP2 MSTORE RETURN JUMPDEST CALLVALUE PUSH3 0x310 JUMPI PUSH1 0x0 DUP1 PUSH1 0x3 NOT CALLDATASIZE ADD SLT PUSH3 0xB54 JUMPI PUSH1 0x40 MLOAD SWAP1 DUP1 PUSH1 0x13 SLOAD PUSH3 0xB9E DUP2 PUSH3 0x797 JUMP JUMPDEST DUP1 DUP6 MSTORE SWAP2 PUSH1 0x1 SWAP2 DUP1 DUP4 AND SWAP1 DUP2 ISZERO PUSH3 0xB27 JUMPI POP PUSH1 0x1 EQ PUSH3 0xBCC JUMPI PUSH3 0xA37 DUP6 PUSH3 0xABA DUP2 DUP8 SUB DUP3 PUSH3 0x3AD JUMP JUMPDEST SWAP3 POP PUSH1 0x13 DUP4 MSTORE PUSH32 0x66DE8FFDA797E3DE9C05E8FC57B3BF0EC28A930D40B0D285D93C06501CF6A090 JUMPDEST DUP3 DUP5 LT PUSH3 0xC13 JUMPI POP POP POP DUP2 ADD PUSH1 0x20 ADD PUSH3 0xABA DUP3 PUSH3 0xA37 PUSH3 0xAA7 JUMP JUMPDEST DUP1 SLOAD PUSH1 0x20 DUP6 DUP8 ADD DUP2 ADD SWAP2 SWAP1 SWAP2 MSTORE SWAP1 SWAP4 ADD SWAP3 DUP2 ADD PUSH3 0xBF4 JUMP JUMPDEST CALLVALUE PUSH3 0x310 JUMPI PUSH1 0x3 NOT PUSH1 0x20 CALLDATASIZE DUP3 ADD SLT PUSH3 0x310 JUMPI PUSH1 0x4 CALLDATALOAD SWAP1 PUSH8 0xFFFFFFFFFFFFFFFF DUP3 GT PUSH3 0x310 JUMPI PUSH2 0x140 SWAP1 DUP3 CALLDATASIZE SUB ADD SLT PUSH3 0x310 JUMPI PUSH1 0x20 PUSH3 0xCD1 PUSH1 0x0 SWAP3 PUSH3 0xC97 PUSH3 0xC8B PUSH1 0x1 PUSH1 0x1 PUSH1 0xA0 SHL SUB PUSH1 0xA SLOAD AND PUSH1 0x1 PUSH1 0x1 PUSH1 0xA0 SHL SUB AND SWAP1 JUMP JUMPDEST PUSH1 0x1 PUSH1 0x1 PUSH1 0xA0 SHL SUB AND SWAP1 JUMP JUMPDEST SWAP1 PUSH1 0x40 MLOAD SWAP5 DUP6 DUP1 SWAP5 DUP2 SWAP4 PUSH32 0xBC61A47300000000000000000000000000000000000000000000000000000000 DUP4 MSTORE PUSH1 0x4 ADD PUSH1 0x4 DUP4 ADD PUSH3 0x1B98 JUMP JUMPDEST SUB SWAP3 GAS CALL DUP1 ISZERO PUSH3 0xD56 JUMPI PUSH3 0xCF0 SWAP2 PUSH1 0x0 SWAP2 PUSH3 0xD21 JUMPI JUMPDEST POP PUSH1 0xB SSTORE JUMP JUMPDEST PUSH1 0xB SLOAD PUSH1 0x40 MLOAD SWAP1 DUP2 MSTORE PUSH32 0x7623383A750B4166574A1B2DFF61440ED0DFA3708CBE620C58339CCA510D1AF9 SWAP1 PUSH1 0x20 SWAP1 LOG1 STOP JUMPDEST PUSH3 0xD47 SWAP2 POP PUSH1 0x20 RETURNDATASIZE DUP2 GT PUSH3 0xD4E JUMPI JUMPDEST PUSH3 0xD3E DUP2 DUP4 PUSH3 0x3AD JUMP JUMPDEST DUP2 ADD SWAP1 PUSH3 0x1B23 JUMP JUMPDEST CODESIZE PUSH3 0xCEA JUMP JUMPDEST POP RETURNDATASIZE PUSH3 0xD32 JUMP JUMPDEST PUSH3 0x1AFD JUMP JUMPDEST CALLVALUE PUSH3 0x310 JUMPI PUSH1 0x0 CALLDATASIZE PUSH1 0x3 NOT ADD SLT PUSH3 0x310 JUMPI PUSH1 0x20 PUSH1 0x17 SLOAD PUSH1 0x40 MLOAD SWAP1 DUP2 MSTORE RETURN JUMPDEST SWAP2 DUP2 PUSH1 0x1F DUP5 ADD SLT ISZERO PUSH3 0x310 JUMPI DUP3 CALLDATALOAD SWAP2 PUSH8 0xFFFFFFFFFFFFFFFF DUP4 GT PUSH3 0x310 JUMPI PUSH1 0x20 DUP4 DUP2 DUP7 ADD SWAP6 ADD ADD GT PUSH3 0x310 JUMPI JUMP JUMPDEST CALLVALUE PUSH3 0x310 JUMPI PUSH1 0x20 CALLDATASIZE PUSH1 0x3 NOT ADD SLT PUSH3 0x310 JUMPI PUSH1 0x4 CALLDATALOAD PUSH8 0xFFFFFFFFFFFFFFFF DUP2 GT PUSH3 0x310 JUMPI PUSH3 0xDE3 SWAP1 CALLDATASIZE SWAP1 PUSH1 0x4 ADD PUSH3 0xD7C JUMP JUMPDEST POP POP PUSH1 0x0 SLOAD PUSH1 0x1 PUSH1 0x1 PUSH1 0xA0 SHL SUB AND CALLER DUP2 EQ ISZERO DUP1 PUSH3 0xE56 JUMPI JUMPDEST PUSH3 0xE0B JUMPI PUSH3 0x1B PUSH3 0x2267 JUMP JUMPDEST PUSH1 0x1A SLOAD PUSH1 0x40 MLOAD PUSH32 0x426FBC7100000000000000000000000000000000000000000000000000000000 DUP2 MSTORE CALLER PUSH1 0x4 DUP3 ADD MSTORE PUSH1 0x1 PUSH1 0x1 PUSH1 0xA0 SHL SUB SWAP3 DUP4 AND PUSH1 0x24 DUP3 ADD MSTORE SWAP2 AND PUSH1 0x44 DUP3 ADD MSTORE PUSH1 0x64 SWAP1 REVERT JUMPDEST POP PUSH3 0xE6E PUSH3 0xC8B PUSH1 0x1A SLOAD PUSH1 0x1 PUSH1 0x1 PUSH1 0xA0 SHL SUB AND SWAP1 JUMP JUMPDEST CALLER EQ ISZERO PUSH3 0xDFC JUMP JUMPDEST PUSH1 0x44 CALLDATALOAD SWAP1 PUSH4 0xFFFFFFFF DUP3 AND DUP3 SUB PUSH3 0x310 JUMPI JUMP JUMPDEST CALLDATALOAD SWAP1 PUSH4 0xFFFFFFFF DUP3 AND DUP3 SUB PUSH3 0x310 JUMPI JUMP JUMPDEST CALLVALUE PUSH3 0x310 JUMPI PUSH1 0xA0 CALLDATASIZE PUSH1 0x3 NOT ADD SLT PUSH3 0x310 JUMPI PUSH8 0xFFFFFFFFFFFFFFFF PUSH1 0x4 CALLDATALOAD DUP2 DUP2 GT PUSH3 0x310 JUMPI PUSH3 0xED4 SWAP1 CALLDATASIZE SWAP1 PUSH1 0x4 ADD PUSH3 0xD7C JUMP JUMPDEST PUSH1 0x24 CALLDATALOAD SWAP3 SWAP2 DUP4 DUP4 AND DUP5 SUB PUSH3 0x310 JUMPI PUSH3 0xEED PUSH3 0xE77 JUMP JUMPDEST SWAP3 PUSH3 0xEF8 PUSH3 0x1AA4 JUMP JUMPDEST DUP3 GT PUSH3 0x38A JUMPI PUSH3 0xF17 DUP3 PUSH3 0xF11 PUSH1 0x2 SLOAD PUSH3 0x797 JUMP JUMPDEST PUSH3 0x1D7E JUMP JUMPDEST PUSH1 0x0 SWAP1 PUSH1 0x1F DUP4 GT PUSH1 0x1 EQ PUSH3 0xFBE JUMPI SWAP2 DUP1 PUSH3 0xF9A SWAP6 SWAP3 PUSH3 0xF6F SWAP5 PUSH1 0x0 SWAP3 PUSH3 0xFB2 JUMPI JUMPDEST POP POP DUP2 PUSH1 0x1 SHL SWAP2 PUSH1 0x0 NOT SWAP1 PUSH1 0x3 SHL SHR NOT AND OR PUSH1 0x2 SSTORE PUSH8 0xFFFFFFFFFFFFFFFF AND PUSH8 0xFFFFFFFFFFFFFFFF NOT PUSH1 0x6 SLOAD AND OR PUSH1 0x6 SSTORE JUMP JUMPDEST PUSH12 0xFFFFFFFF0000000000000000 PUSH1 0x6 SLOAD SWAP2 PUSH1 0x40 SHL AND SWAP1 PUSH12 0xFFFFFFFF0000000000000000 NOT AND OR PUSH1 0x6 SSTORE JUMP JUMPDEST PUSH3 0xFA6 PUSH1 0x64 CALLDATALOAD PUSH1 0xE SSTORE JUMP JUMPDEST PUSH3 0x1B PUSH1 0x84 CALLDATALOAD PUSH1 0x7 SSTORE JUMP JUMPDEST ADD CALLDATALOAD SWAP1 POP CODESIZE DUP1 PUSH3 0xF3C JUMP JUMPDEST PUSH1 0x2 PUSH1 0x0 MSTORE PUSH32 0x405787FA12A823E0F2B7631CC41B3BA8828B3321CA811111FA75CD3AA3BB5ACE SWAP2 PUSH1 0x1F NOT DUP5 AND DUP2 JUMPDEST DUP2 DUP2 LT PUSH3 0x104F JUMPI POP SWAP3 PUSH1 0x1 SWAP3 DUP6 SWAP3 PUSH3 0xF6F SWAP7 PUSH3 0xF9A SWAP10 SWAP7 LT PUSH3 0x1034 JUMPI JUMPDEST POP POP POP DUP2 SHL ADD PUSH1 0x2 SSTORE PUSH8 0xFFFFFFFFFFFFFFFF AND PUSH8 0xFFFFFFFFFFFFFFFF NOT PUSH1 0x6 SLOAD AND OR PUSH1 0x6 SSTORE JUMP JUMPDEST ADD CALLDATALOAD PUSH1 0x0 NOT PUSH1 0x3 DUP5 SWAP1 SHL PUSH1 0xF8 AND SHR NOT AND SWAP1 SSTORE CODESIZE DUP1 DUP1 PUSH3 0x100D JUMP JUMPDEST SWAP2 SWAP4 PUSH1 0x20 PUSH1 0x1 DUP2 SWAP3 DUP8 DUP8 ADD CALLDATALOAD DUP2 SSTORE ADD SWAP6 ADD SWAP3 ADD PUSH3 0xFEC JUMP JUMPDEST CALLVALUE PUSH3 0x310 JUMPI PUSH1 0x0 CALLDATASIZE PUSH1 0x3 NOT ADD SLT PUSH3 0x310 JUMPI PUSH1 0x20 PUSH1 0x16 SLOAD PUSH1 0x40 MLOAD SWAP1 DUP2 MSTORE RETURN JUMPDEST CALLVALUE PUSH3 0x310 JUMPI PUSH1 0x0 CALLDATASIZE PUSH1 0x3 NOT ADD SLT PUSH3 0x310 JUMPI PUSH1 0x20 PUSH1 0x1B SLOAD PUSH1 0x40 MLOAD SWAP1 DUP2 MSTORE RETURN JUMPDEST CALLVALUE PUSH3 0x310 JUMPI PUSH1 0x0 DUP1 PUSH1 0x3 NOT CALLDATASIZE ADD SLT PUSH3 0xB54 JUMPI PUSH1 0x40 MLOAD SWAP1 DUP1 PUSH1 0x14 SLOAD PUSH3 0x10CF DUP2 PUSH3 0x797 JUMP JUMPDEST DUP1 DUP6 MSTORE SWAP2 PUSH1 0x1 SWAP2 DUP1 DUP4 AND SWAP1 DUP2 ISZERO PUSH3 0xB27 JUMPI POP PUSH1 0x1 EQ PUSH3 0x10FD JUMPI PUSH3 0xA37 DUP6 PUSH3 0xABA DUP2 DUP8 SUB DUP3 PUSH3 0x3AD JUMP JUMPDEST SWAP3 POP PUSH1 0x14 DUP4 MSTORE PUSH32 0xCE6D7B5282BD9A3661AE061FEED1DBDA4E52AB073B1F9285BE6E155D9C38D4EC JUMPDEST DUP3 DUP5 LT PUSH3 0x1144 JUMPI POP POP POP DUP2 ADD PUSH1 0x20 ADD PUSH3 0xABA DUP3 PUSH3 0xA37 PUSH3 0xAA7 JUMP JUMPDEST DUP1 SLOAD PUSH1 0x20 DUP6 DUP8 ADD DUP2 ADD SWAP2 SWAP1 SWAP2 MSTORE SWAP1 SWAP4 ADD SWAP3 DUP2 ADD PUSH3 0x1125 JUMP JUMPDEST CALLVALUE PUSH3 0x310 JUMPI PUSH1 0x0 CALLDATASIZE PUSH1 0x3 NOT ADD SLT PUSH3 0x310 JUMPI PUSH1 0x20 PUSH1 0x1 PUSH1 0x1 PUSH1 0xA0 SHL SUB PUSH1 0x1A SLOAD AND PUSH1 0x40 MLOAD SWAP1 DUP2 MSTORE RETURN JUMPDEST CALLVALUE PUSH3 0x310 JUMPI PUSH1 0x0 DUP1 PUSH1 0x3 NOT CALLDATASIZE ADD SLT PUSH3 0xB54 JUMPI PUSH1 0x40 MLOAD SWAP1 DUP1 PUSH1 0x2 SLOAD PUSH3 0x11AD DUP2 PUSH3 0x797 JUMP JUMPDEST DUP1 DUP6 MSTORE SWAP2 PUSH1 0x1 SWAP2 DUP1 DUP4 AND SWAP1 DUP2 ISZERO PUSH3 0xB27 JUMPI POP PUSH1 0x1 EQ PUSH3 0x11DB JUMPI PUSH3 0xA37 DUP6 PUSH3 0xABA DUP2 DUP8 SUB DUP3 PUSH3 0x3AD JUMP JUMPDEST SWAP3 POP PUSH1 0x2 DUP4 MSTORE PUSH32 0x405787FA12A823E0F2B7631CC41B3BA8828B3321CA811111FA75CD3AA3BB5ACE JUMPDEST DUP3 DUP5 LT PUSH3 0x1222 JUMPI POP POP POP DUP2 ADD PUSH1 0x20 ADD PUSH3 0xABA DUP3 PUSH3 0xA37 PUSH3 0xAA7 JUMP JUMPDEST DUP1 SLOAD PUSH1 0x20 DUP6 DUP8 ADD DUP2 ADD SWAP2 SWAP1 SWAP2 MSTORE SWAP1 SWAP4 ADD SWAP3 DUP2 ADD PUSH3 0x1203 JUMP JUMPDEST CALLVALUE PUSH3 0x310 JUMPI PUSH1 0x0 CALLDATASIZE PUSH1 0x3 NOT ADD SLT PUSH3 0x310 JUMPI PUSH1 0x20 PUSH1 0x1 PUSH1 0x1 PUSH1 0xA0 SHL SUB PUSH1 0x9 SLOAD AND PUSH1 0x40 MLOAD SWAP1 DUP2 MSTORE RETURN JUMPDEST CALLVALUE PUSH3 0x310 JUMPI PUSH1 0x20 CALLDATASIZE PUSH1 0x3 NOT ADD SLT PUSH3 0x310 JUMPI PUSH1 0x4 CALLDATALOAD PUSH8 0xFFFFFFFFFFFFFFFF DUP2 GT PUSH3 0x310 JUMPI PUSH3 0x129A SWAP1 CALLDATASIZE SWAP1 PUSH1 0x4 ADD PUSH3 0x3ED JUMP JUMPDEST POP PUSH1 0xF SLOAD TIMESTAMP SUB TIMESTAMP DUP2 GT PUSH3 0x12E0 JUMPI PUSH1 0x7 SLOAD LT PUSH1 0x40 MLOAD SWAP1 DUP2 MSTORE PUSH1 0x40 PUSH1 0x20 DUP3 ADD MSTORE PUSH1 0x60 DUP2 DUP2 MLOAD DUP1 PUSH1 0x40 DUP4 ADD MSTORE PUSH3 0x12D2 DUP2 DUP5 DUP5 ADD PUSH3 0x94E JUMP JUMPDEST PUSH1 0x1F ADD PUSH1 0x1F NOT AND DUP2 ADD SUB ADD SWAP1 RETURN JUMPDEST PUSH3 0x1E70 JUMP JUMPDEST CALLVALUE PUSH3 0x310 JUMPI PUSH1 0x0 CALLDATASIZE PUSH1 0x3 NOT ADD SLT PUSH3 0x310 JUMPI PUSH1 0x20 PUSH1 0xE SLOAD PUSH1 0x40 MLOAD SWAP1 DUP2 MSTORE RETURN JUMPDEST CALLVALUE PUSH3 0x310 JUMPI PUSH1 0x0 DUP1 PUSH1 0x3 NOT CALLDATASIZE ADD SLT PUSH3 0xB54 JUMPI PUSH1 0x1 PUSH1 0x1 PUSH1 0xA0 SHL SUB DUP1 PUSH1 0x1 SLOAD AND CALLER SUB PUSH3 0x13A6 JUMPI DUP2 SLOAD PUSH1 0x1 PUSH1 0x1 PUSH1 0xA0 SHL SUB AND PUSH1 0x0 DUP1 SLOAD PUSH20 0xFFFFFFFFFFFFFFFFFFFFFFFFFFFFFFFFFFFFFFFF NOT AND CALLER OR SWAP1 SSTORE SWAP1 PUSH3 0x137C PUSH20 0xFFFFFFFFFFFFFFFFFFFFFFFFFFFFFFFFFFFFFFFF NOT PUSH1 0x1 SLOAD AND PUSH1 0x1 SSTORE JUMP JUMPDEST CALLER SWAP2 AND PUSH32 0x8BE0079C531659141344CD1FD0A4F28419497F9722A3DAAFE3B4186F6B6457E0 DUP4 DUP1 LOG3 DUP1 RETURN JUMPDEST PUSH1 0x64 PUSH1 0x40 MLOAD PUSH3 0x461BCD PUSH1 0xE5 SHL DUP2 MSTORE PUSH1 0x20 PUSH1 0x4 DUP3 ADD MSTORE PUSH1 0x16 PUSH1 0x24 DUP3 ADD MSTORE PUSH32 0x4D7573742062652070726F706F736564206F776E657200000000000000000000 PUSH1 0x44 DUP3 ADD MSTORE REVERT JUMPDEST CALLVALUE PUSH3 0x310 JUMPI PUSH1 0x0 CALLDATASIZE PUSH1 0x3 NOT ADD SLT PUSH3 0x310 JUMPI PUSH1 0x20 PUSH1 0x40 MLOAD PUSH1 0x1 PUSH1 0x1 PUSH1 0xA0 SHL SUB PUSH32 0x0 AND DUP2 MSTORE RETURN JUMPDEST CALLVALUE PUSH3 0x310 JUMPI PUSH1 0x0 CALLDATASIZE PUSH1 0x3 NOT ADD SLT PUSH3 0x310 JUMPI PUSH1 0x20 SELFBALANCE PUSH1 0x40 MLOAD SWAP1 DUP2 MSTORE RETURN JUMPDEST PUSH1 0x4 CALLDATALOAD SWAP1 PUSH12 0xFFFFFFFFFFFFFFFFFFFFFFFF DUP3 AND DUP3 SUB PUSH3 0x310 JUMPI JUMP JUMPDEST CALLDATALOAD SWAP1 PUSH12 0xFFFFFFFFFFFFFFFFFFFFFFFF DUP3 AND DUP3 SUB PUSH3 0x310 JUMPI JUMP JUMPDEST CALLVALUE PUSH3 0x310 JUMPI PUSH1 0x20 CALLDATASIZE PUSH1 0x3 NOT ADD SLT PUSH3 0x310 JUMPI PUSH3 0x14A1 PUSH3 0x144E JUMP JUMPDEST PUSH1 0x8 SLOAD PUSH1 0x1 PUSH1 0x1 PUSH1 0xA0 SHL SUB AND SWAP1 PUSH3 0x14C1 PUSH1 0x9 SLOAD PUSH1 0x1 PUSH1 0x1 PUSH1 0xA0 SHL SUB AND SWAP1 JUMP JUMPDEST SWAP2 PUSH1 0x40 MLOAD SWAP3 PUSH2 0x73A DUP1 DUP6 ADD SWAP2 DUP6 DUP4 LT PUSH8 0xFFFFFFFFFFFFFFFF DUP5 GT OR PUSH3 0x38A JUMPI DUP6 SWAP4 PUSH3 0x151F SWAP4 DUP7 SWAP4 PUSH3 0x3AC5 DUP8 CODECOPY PUSH1 0x1 PUSH1 0x1 PUSH1 0xA0 SHL SUB SWAP2 DUP3 AND DUP2 MSTORE SWAP2 AND PUSH1 0x20 DUP3 ADD MSTORE PUSH12 0xFFFFFFFFFFFFFFFFFFFFFFFF SWAP1 SWAP2 AND PUSH1 0x40 DUP3 ADD MSTORE PUSH1 0x60 ADD SWAP1 JUMP JUMPDEST SUB PUSH1 0x0 SWAP3 DUP4 CREATE DUP1 ISZERO PUSH3 0xD56 JUMPI PUSH3 0x15ED SWAP2 PUSH3 0x1561 PUSH1 0x20 SWAP3 PUSH1 0x1 PUSH1 0x1 PUSH1 0xA0 SHL SUB AND PUSH20 0xFFFFFFFFFFFFFFFFFFFFFFFFFFFFFFFFFFFFFFFF NOT PUSH1 0xA SLOAD AND OR PUSH1 0xA SSTORE JUMP JUMPDEST PUSH3 0x157C PUSH3 0xC8B PUSH3 0xC8B PUSH1 0x8 SLOAD PUSH1 0x1 PUSH1 0x1 PUSH1 0xA0 SHL SUB AND SWAP1 JUMP JUMPDEST PUSH3 0x1593 PUSH3 0xC8B PUSH1 0xA SLOAD PUSH1 0x1 PUSH1 0x1 PUSH1 0xA0 SHL SUB AND SWAP1 JUMP JUMPDEST DUP6 PUSH1 0x40 MLOAD DUP1 SWAP7 DUP2 SWAP6 DUP3 SWAP5 PUSH32 0x95EA7B300000000000000000000000000000000000000000000000000000000 DUP5 MSTORE PUSH1 0x4 DUP5 ADD SWAP1 SWAP3 SWAP2 PUSH12 0xFFFFFFFFFFFFFFFFFFFFFFFF PUSH1 0x20 SWAP2 PUSH1 0x1 PUSH1 0x1 PUSH1 0xA0 SHL SUB PUSH1 0x40 DUP6 ADD SWAP7 AND DUP5 MSTORE AND SWAP2 ADD MSTORE JUMP JUMPDEST SUB SWAP3 GAS CALL DUP1 ISZERO PUSH3 0xD56 JUMPI PUSH3 0x167C JUMPI JUMPDEST POP DUP1 PUSH3 0x1617 PUSH3 0xC8B PUSH1 0xA SLOAD PUSH1 0x1 PUSH1 0x1 PUSH1 0xA0 SHL SUB AND SWAP1 JUMP JUMPDEST DUP1 EXTCODESIZE ISZERO PUSH3 0x1679 JUMPI DUP2 SWAP1 PUSH1 0x4 PUSH1 0x40 MLOAD DUP1 SWAP5 DUP2 SWAP4 PUSH32 0xB60D428800000000000000000000000000000000000000000000000000000000 DUP4 MSTORE GAS CALL DUP1 ISZERO PUSH3 0xD56 JUMPI PUSH3 0x165F JUMPI POP DUP1 RETURN JUMPDEST DUP1 PUSH3 0x166F PUSH3 0x1676 SWAP3 PUSH3 0x375 JUMP JUMPDEST DUP1 PUSH3 0x304 JUMP JUMPDEST DUP1 RETURN JUMPDEST POP REVERT JUMPDEST PUSH3 0x16A1 SWAP1 PUSH1 0x20 RETURNDATASIZE DUP2 GT PUSH3 0x16A9 JUMPI JUMPDEST PUSH3 0x1698 DUP2 DUP4 PUSH3 0x3AD JUMP JUMPDEST DUP2 ADD SWAP1 PUSH3 0x1B09 JUMP JUMPDEST POP CODESIZE PUSH3 0x15FE JUMP JUMPDEST POP RETURNDATASIZE PUSH3 0x168C JUMP JUMPDEST CALLVALUE PUSH3 0x310 JUMPI PUSH1 0x0 CALLDATASIZE PUSH1 0x3 NOT ADD SLT PUSH3 0x310 JUMPI PUSH1 0x20 PUSH1 0x1 PUSH1 0x1 PUSH1 0xA0 SHL SUB PUSH1 0x0 SLOAD AND PUSH1 0x40 MLOAD SWAP1 DUP2 MSTORE RETURN JUMPDEST CALLVALUE PUSH3 0x310 JUMPI PUSH1 0x0 CALLDATASIZE PUSH1 0x3 NOT ADD SLT PUSH3 0x310 JUMPI PUSH1 0x20 PUSH1 0x1C SLOAD PUSH1 0x40 MLOAD SWAP1 DUP2 MSTORE RETURN JUMPDEST CALLVALUE PUSH3 0x310 JUMPI PUSH1 0x0 CALLDATASIZE PUSH1 0x3 NOT ADD SLT PUSH3 0x310 JUMPI PUSH1 0x20 PUSH1 0x10 SLOAD PUSH1 0x40 MLOAD SWAP1 DUP2 MSTORE RETURN JUMPDEST CALLVALUE PUSH3 0x310 JUMPI PUSH1 0x0 CALLDATASIZE PUSH1 0x3 NOT ADD SLT PUSH3 0x310 JUMPI PUSH1 0x20 PUSH1 0x12 SLOAD PUSH1 0x40 MLOAD SWAP1 DUP2 MSTORE RETURN JUMPDEST CALLVALUE PUSH3 0x310 JUMPI PUSH1 0x0 DUP1 PUSH1 0x3 NOT CALLDATASIZE ADD SLT PUSH3 0xB54 JUMPI PUSH1 0x40 MLOAD SWAP1 DUP1 PUSH1 0x4 SLOAD PUSH3 0x1761 DUP2 PUSH3 0x797 JUMP JUMPDEST DUP1 DUP6 MSTORE SWAP2 PUSH1 0x1 SWAP2 DUP1 DUP4 AND SWAP1 DUP2 ISZERO PUSH3 0xB27 JUMPI POP PUSH1 0x1 EQ PUSH3 0x178F JUMPI PUSH3 0xA37 DUP6 PUSH3 0xABA DUP2 DUP8 SUB DUP3 PUSH3 0x3AD JUMP JUMPDEST SWAP3 POP PUSH1 0x4 DUP4 MSTORE PUSH32 0x8A35ACFBC15FF81A39AE7D344FD709F28E8600B4AA8C65C6B64BFE7FE36BD19B JUMPDEST DUP3 DUP5 LT PUSH3 0x17D6 JUMPI POP POP POP DUP2 ADD PUSH1 0x20 ADD PUSH3 0xABA DUP3 PUSH3 0xA37 PUSH3 0xAA7 JUMP JUMPDEST DUP1 SLOAD PUSH1 0x20 DUP6 DUP8 ADD DUP2 ADD SWAP2 SWAP1 SWAP2 MSTORE SWAP1 SWAP4 ADD SWAP3 DUP2 ADD PUSH3 0x17B7 JUMP JUMPDEST CALLVALUE PUSH3 0x310 JUMPI PUSH1 0x0 CALLDATASIZE PUSH1 0x3 NOT ADD SLT PUSH3 0x310 JUMPI PUSH1 0x20 PUSH1 0x1 PUSH1 0x1 PUSH1 0xA0 SHL SUB PUSH1 0x18 SLOAD PUSH1 0x8 SHR AND PUSH1 0x40 MLOAD SWAP1 DUP2 MSTORE RETURN JUMPDEST CALLVALUE PUSH3 0x310 JUMPI PUSH1 0x0 CALLDATASIZE PUSH1 0x3 NOT ADD SLT PUSH3 0x310 JUMPI PUSH1 0x20 PUSH1 0xB SLOAD PUSH1 0x40 MLOAD SWAP1 DUP2 MSTORE RETURN JUMPDEST CALLVALUE PUSH3 0x310 JUMPI PUSH1 0x0 CALLDATASIZE PUSH1 0x3 NOT ADD SLT PUSH3 0x310 JUMPI PUSH1 0x20 PUSH1 0x1 PUSH1 0x1 PUSH1 0xA0 SHL SUB PUSH1 0x19 SLOAD AND PUSH1 0x40 MLOAD SWAP1 DUP2 MSTORE RETURN JUMPDEST CALLVALUE PUSH3 0x310 JUMPI PUSH1 0x0 CALLDATASIZE PUSH1 0x3 NOT ADD SLT PUSH3 0x310 JUMPI PUSH1 0x20 PUSH1 0x1D SLOAD PUSH1 0x40 MLOAD SWAP1 DUP2 MSTORE RETURN JUMPDEST PUSH1 0x4 CALLDATALOAD SWAP1 PUSH1 0x1 PUSH1 0x1 PUSH1 0xA0 SHL SUB DUP3 AND DUP3 SUB PUSH3 0x310 JUMPI JUMP JUMPDEST CALLDATALOAD SWAP1 PUSH1 0x1 PUSH1 0x1 PUSH1 0xA0 SHL SUB DUP3 AND DUP3 SUB PUSH3 0x310 JUMPI JUMP JUMPDEST CALLVALUE PUSH3 0x310 JUMPI PUSH1 0x20 CALLDATASIZE PUSH1 0x3 NOT ADD SLT PUSH3 0x310 JUMPI PUSH1 0x1 PUSH1 0x1 PUSH1 0xA0 SHL SUB PUSH3 0x18D5 PUSH3 0x1884 JUMP JUMPDEST PUSH3 0x18DF PUSH3 0x1AA4 JUMP JUMPDEST AND CALLER DUP2 EQ PUSH3 0x1945 JUMPI DUP1 PUSH20 0xFFFFFFFFFFFFFFFFFFFFFFFFFFFFFFFFFFFFFFFF NOT PUSH1 0x1 SLOAD AND OR PUSH1 0x1 SSTORE PUSH3 0x191E PUSH3 0xC8B PUSH1 0x0 SLOAD PUSH1 0x1 PUSH1 0x1 PUSH1 0xA0 SHL SUB AND SWAP1 JUMP JUMPDEST PUSH32 0xED8889F560326EB138920D842192F0EB3DD22B4F139C87A2C57538E05BAE1278 PUSH1 0x0 DUP1 LOG3 STOP JUMPDEST PUSH1 0x64 PUSH1 0x40 MLOAD PUSH3 0x461BCD PUSH1 0xE5 SHL DUP2 MSTORE PUSH1 0x20 PUSH1 0x4 DUP3 ADD MSTORE PUSH1 0x17 PUSH1 0x24 DUP3 ADD MSTORE PUSH32 0x43616E6E6F74207472616E7366657220746F2073656C66000000000000000000 PUSH1 0x44 DUP3 ADD MSTORE REVERT JUMPDEST CALLVALUE PUSH3 0x310 JUMPI PUSH1 0x0 CALLDATASIZE PUSH1 0x3 NOT ADD SLT PUSH3 0x310 JUMPI PUSH1 0x20 PUSH1 0x15 SLOAD PUSH1 0x40 MLOAD SWAP1 DUP2 MSTORE RETURN JUMPDEST CALLVALUE PUSH3 0x310 JUMPI PUSH1 0x0 CALLDATASIZE PUSH1 0x3 NOT ADD SLT PUSH3 0x310 JUMPI PUSH1 0x20 PUSH4 0xFFFFFFFF PUSH1 0xD SLOAD AND PUSH1 0x40 MLOAD SWAP1 DUP2 MSTORE RETURN JUMPDEST CALLVALUE PUSH3 0x310 JUMPI PUSH1 0x0 CALLDATASIZE PUSH1 0x3 NOT ADD SLT PUSH3 0x310 JUMPI PUSH1 0x20 PUSH1 0x7 SLOAD PUSH1 0x40 MLOAD SWAP1 DUP2 MSTORE RETURN JUMPDEST CALLVALUE PUSH3 0x310 JUMPI PUSH1 0x0 DUP1 PUSH1 0x3 NOT CALLDATASIZE ADD SLT PUSH3 0xB54 JUMPI PUSH1 0x40 MLOAD SWAP1 DUP1 PUSH1 0x5 SLOAD PUSH3 0x1A16 DUP2 PUSH3 0x797 JUMP JUMPDEST DUP1 DUP6 MSTORE SWAP2 PUSH1 0x1 SWAP2 DUP1 DUP4 AND SWAP1 DUP2 ISZERO PUSH3 0xB27 JUMPI POP PUSH1 0x1 EQ PUSH3 0x1A44 JUMPI PUSH3 0xA37 DUP6 PUSH3 0xABA DUP2 DUP8 SUB DUP3 PUSH3 0x3AD JUMP JUMPDEST SWAP3 POP PUSH1 0x5 DUP4 MSTORE PUSH32 0x36B6384B5ECA791C62761152D0C79BB0604C104A5FB6F4EB0703F3154BB3DB0 JUMPDEST DUP3 DUP5 LT PUSH3 0x1A8B JUMPI POP POP POP DUP2 ADD PUSH1 0x20 ADD PUSH3 0xABA DUP3 PUSH3 0xA37 PUSH3 0xAA7 JUMP JUMPDEST DUP1 SLOAD PUSH1 0x20 DUP6 DUP8 ADD DUP2 ADD SWAP2 SWAP1 SWAP2 MSTORE SWAP1 SWAP4 ADD SWAP3 DUP2 ADD PUSH3 0x1A6C JUMP JUMPDEST PUSH1 0x1 PUSH1 0x1 PUSH1 0xA0 SHL SUB PUSH1 0x0 SLOAD AND CALLER SUB PUSH3 0x1AB9 JUMPI JUMP JUMPDEST PUSH1 0x64 PUSH1 0x40 MLOAD PUSH3 0x461BCD PUSH1 0xE5 SHL DUP2 MSTORE PUSH1 0x20 PUSH1 0x4 DUP3 ADD MSTORE PUSH1 0x16 PUSH1 0x24 DUP3 ADD MSTORE PUSH32 0x4F6E6C792063616C6C61626C65206279206F776E657200000000000000000000 PUSH1 0x44 DUP3 ADD MSTORE REVERT JUMPDEST PUSH1 0x40 MLOAD RETURNDATASIZE PUSH1 0x0 DUP3 RETURNDATACOPY RETURNDATASIZE SWAP1 REVERT JUMPDEST SWAP1 DUP2 PUSH1 0x20 SWAP2 SUB SLT PUSH3 0x310 JUMPI MLOAD DUP1 ISZERO ISZERO DUP2 SUB PUSH3 0x310 JUMPI SWAP1 JUMP JUMPDEST SWAP1 DUP2 PUSH1 0x20 SWAP2 SUB SLT PUSH3 0x310 JUMPI MLOAD SWAP1 JUMP JUMPDEST SWAP1 CALLDATALOAD PUSH1 0x1E NOT DUP3 CALLDATASIZE SUB ADD DUP2 SLT ISZERO PUSH3 0x310 JUMPI ADD PUSH1 0x20 DUP2 CALLDATALOAD SWAP2 ADD SWAP2 PUSH8 0xFFFFFFFFFFFFFFFF DUP3 GT PUSH3 0x310 JUMPI DUP2 CALLDATASIZE SUB DUP4 SGT PUSH3 0x310 JUMPI JUMP JUMPDEST SWAP1 DUP1 PUSH1 0x20 SWAP4 SWAP3 DUP2 DUP5 MSTORE DUP5 DUP5 ADD CALLDATACOPY PUSH1 0x0 DUP3 DUP3 ADD DUP5 ADD MSTORE PUSH1 0x1F ADD PUSH1 0x1F NOT AND ADD ADD SWAP1 JUMP JUMPDEST CALLDATALOAD SWAP1 PUSH1 0xFF DUP3 AND DUP3 SUB PUSH3 0x310 JUMPI JUMP JUMPDEST PUSH3 0x9C8 SWAP1 PUSH1 0x20 DUP2 MSTORE PUSH3 0x1BCD PUSH3 0x1CEC PUSH3 0x1BB5 DUP6 DUP1 PUSH3 0x1B33 JUMP JUMPDEST SWAP3 SWAP1 PUSH2 0x140 SWAP4 DUP5 PUSH1 0x20 DUP8 ADD MSTORE PUSH2 0x160 DUP7 ADD SWAP2 PUSH3 0x1B68 JUMP JUMPDEST PUSH3 0x1CE4 PUSH3 0x1C9C PUSH3 0x1BFD PUSH3 0x1BE8 PUSH1 0x20 DUP11 ADD DUP11 PUSH3 0x1B33 JUMP JUMPDEST PUSH1 0x1F NOT DUP10 DUP8 SUB DUP2 ADD PUSH1 0x40 DUP12 ADD MSTORE SWAP6 SWAP2 PUSH3 0x1B68 JUMP JUMPDEST PUSH3 0x1C1F PUSH3 0x1C0F PUSH1 0x40 DUP12 ADD PUSH3 0x189B JUMP JUMPDEST PUSH1 0x1 PUSH1 0x1 PUSH1 0xA0 SHL SUB AND PUSH1 0x60 DUP10 ADD MSTORE JUMP JUMPDEST PUSH3 0x1C3E PUSH3 0x1C31 PUSH1 0x60 DUP12 ADD PUSH3 0xE8B JUMP JUMPDEST PUSH4 0xFFFFFFFF AND PUSH1 0x80 DUP10 ADD MSTORE JUMP JUMPDEST PUSH3 0x1C60 PUSH3 0x1C50 PUSH1 0x80 DUP12 ADD PUSH3 0x189B JUMP JUMPDEST PUSH1 0x1 PUSH1 0x1 PUSH1 0xA0 SHL SUB AND PUSH1 0xA0 DUP10 ADD MSTORE JUMP JUMPDEST PUSH3 0x1C7C PUSH3 0x1C72 PUSH1 0xA0 DUP12 ADD PUSH3 0x1B89 JUMP JUMPDEST PUSH1 0xFF AND PUSH1 0xC0 DUP10 ADD MSTORE JUMP JUMPDEST PUSH3 0x1C8B PUSH1 0xC0 DUP11 ADD DUP11 PUSH3 0x1B33 JUMP JUMPDEST SWAP1 DUP6 DUP10 DUP5 SUB ADD PUSH1 0xE0 DUP11 ADD MSTORE PUSH3 0x1B68 JUMP JUMPDEST PUSH3 0x1CD1 PUSH3 0x1CC7 PUSH3 0x1CB3 PUSH1 0xE0 DUP12 ADD DUP12 PUSH3 0x1B33 JUMP JUMPDEST PUSH2 0x100 SWAP5 SWAP2 DUP8 DUP12 DUP5 SUB ADD DUP7 DUP13 ADD MSTORE PUSH3 0x1B68 JUMP JUMPDEST SWAP2 DUP10 ADD DUP10 PUSH3 0x1B33 JUMP JUMPDEST SWAP1 PUSH2 0x120 SWAP5 DUP9 DUP5 SUB ADD DUP6 DUP10 ADD MSTORE PUSH3 0x1B68 JUMP JUMPDEST SWAP6 ADD PUSH3 0x146A JUMP JUMPDEST PUSH12 0xFFFFFFFFFFFFFFFFFFFFFFFF AND SWAP2 ADD MSTORE JUMP JUMPDEST DUP2 DUP2 LT PUSH3 0x1D0B JUMPI POP POP JUMP JUMPDEST PUSH1 0x0 DUP2 SSTORE PUSH1 0x1 ADD PUSH3 0x1CFF JUMP JUMPDEST SWAP1 PUSH1 0x1F DUP3 GT PUSH3 0x1D26 JUMPI POP POP JUMP JUMPDEST PUSH3 0x815 SWAP2 PUSH1 0x4 PUSH1 0x0 MSTORE PUSH32 0x8A35ACFBC15FF81A39AE7D344FD709F28E8600B4AA8C65C6B64BFE7FE36BD19B SWAP1 PUSH1 0x20 PUSH1 0x1F DUP5 ADD PUSH1 0x5 SHR DUP4 ADD SWAP4 LT PUSH3 0x1D73 JUMPI JUMPDEST PUSH1 0x1F ADD PUSH1 0x5 SHR ADD SWAP1 PUSH3 0x1CFF JUMP JUMPDEST SWAP1 SWAP2 POP DUP2 SWAP1 PUSH3 0x1D65 JUMP JUMPDEST SWAP1 PUSH1 0x1F DUP3 GT PUSH3 0x1D8C JUMPI POP POP JUMP JUMPDEST PUSH3 0x815 SWAP2 PUSH1 0x2 PUSH1 0x0 MSTORE PUSH32 0x405787FA12A823E0F2B7631CC41B3BA8828B3321CA811111FA75CD3AA3BB5ACE SWAP1 PUSH1 0x20 PUSH1 0x1F DUP5 ADD PUSH1 0x5 SHR DUP4 ADD SWAP4 LT PUSH3 0x1D73 JUMPI PUSH1 0x1F ADD PUSH1 0x5 SHR ADD SWAP1 PUSH3 0x1CFF JUMP JUMPDEST SWAP1 PUSH1 0x1F DUP3 GT PUSH3 0x1DE6 JUMPI POP POP JUMP JUMPDEST PUSH3 0x815 SWAP2 PUSH1 0x5 PUSH1 0x0 MSTORE PUSH32 0x36B6384B5ECA791C62761152D0C79BB0604C104A5FB6F4EB0703F3154BB3DB0 SWAP1 PUSH1 0x20 PUSH1 0x1F DUP5 ADD PUSH1 0x5 SHR DUP4 ADD SWAP4 LT PUSH3 0x1D73 JUMPI PUSH1 0x1F ADD PUSH1 0x5 SHR ADD SWAP1 PUSH3 0x1CFF JUMP JUMPDEST SWAP2 SWAP1 PUSH1 0x1F DUP2 GT PUSH3 0x1E42 JUMPI POP POP POP JUMP JUMPDEST PUSH3 0x815 SWAP3 PUSH1 0x0 MSTORE PUSH1 0x20 PUSH1 0x0 KECCAK256 SWAP1 PUSH1 0x20 PUSH1 0x1F DUP5 ADD PUSH1 0x5 SHR DUP4 ADD SWAP4 LT PUSH3 0x1D73 JUMPI PUSH1 0x1F ADD PUSH1 0x5 SHR ADD SWAP1 PUSH3 0x1CFF JUMP JUMPDEST PUSH4 0x4E487B71 PUSH1 0xE0 SHL PUSH1 0x0 MSTORE PUSH1 0x11 PUSH1 0x4 MSTORE PUSH1 0x24 PUSH1 0x0 REVERT JUMPDEST PUSH1 0x1F NOT DUP2 ADD SWAP2 SWAP1 DUP3 GT PUSH3 0x12E0 JUMPI JUMP JUMPDEST PUSH1 0xF SLOAD TIMESTAMP SUB TIMESTAMP DUP2 GT PUSH3 0x12E0 JUMPI PUSH1 0x7 SLOAD LT SWAP1 PUSH1 0x60 SWAP1 JUMP JUMPDEST ISZERO PUSH3 0x1EB5 JUMPI JUMP JUMPDEST PUSH1 0x64 PUSH1 0x40 MLOAD PUSH3 0x461BCD PUSH1 0xE5 SHL DUP2 MSTORE PUSH1 0x20 PUSH1 0x4 DUP3 ADD MSTORE PUSH1 0x15 PUSH1 0x24 DUP3 ADD MSTORE PUSH32 0x55706B656570206E6F7420726567697374657265640000000000000000000000 PUSH1 0x44 DUP3 ADD MSTORE REVERT JUMPDEST PUSH1 0x40 MLOAD SWAP1 PUSH1 0x20 DUP3 ADD DUP3 DUP2 LT PUSH8 0xFFFFFFFFFFFFFFFF DUP3 GT OR PUSH3 0x38A JUMPI PUSH1 0x40 MSTORE PUSH1 0x0 DUP3 MSTORE JUMP JUMPDEST ISZERO PUSH3 0x1F26 JUMPI JUMP JUMPDEST PUSH1 0x64 PUSH1 0x40 MLOAD PUSH3 0x461BCD PUSH1 0xE5 SHL DUP2 MSTORE PUSH1 0x20 PUSH1 0x4 DUP3 ADD MSTORE PUSH1 0x15 PUSH1 0x24 DUP3 ADD MSTORE PUSH32 0x54696D6520696E74657276616C206E6F74206D65740000000000000000000000 PUSH1 0x44 DUP3 ADD MSTORE REVERT JUMPDEST SWAP1 PUSH1 0x1 DUP3 ADD DUP1 SWAP3 GT PUSH3 0x12E0 JUMPI JUMP JUMPDEST SWAP1 PUSH1 0x20 DUP3 ADD DUP1 SWAP3 GT PUSH3 0x12E0 JUMPI JUMP JUMPDEST SWAP2 SWAP1 DUP3 ADD DUP1 SWAP3 GT PUSH3 0x12E0 JUMPI JUMP JUMPDEST PUSH1 0x40 MLOAD SWAP1 PUSH1 0xE0 DUP3 ADD DUP3 DUP2 LT PUSH8 0xFFFFFFFFFFFFFFFF DUP3 GT OR PUSH3 0x38A JUMPI PUSH1 0x40 MSTORE PUSH1 0x60 PUSH1 0xC0 DUP4 PUSH1 0x0 DUP2 MSTORE PUSH1 0x0 PUSH1 0x20 DUP3 ADD MSTORE PUSH1 0x0 PUSH1 0x40 DUP3 ADD MSTORE DUP3 DUP1 DUP3 ADD MSTORE DUP3 PUSH1 0x80 DUP3 ADD MSTORE DUP3 PUSH1 0xA0 DUP3 ADD MSTORE ADD MSTORE JUMP JUMPDEST PUSH1 0x1E SLOAD SWAP1 PUSH8 0xFFFFFFFFFFFFFFFF DUP3 GT PUSH3 0x38A JUMPI PUSH1 0x40 MLOAD SWAP2 PUSH1 0x20 PUSH3 0x200C DUP2 DUP4 PUSH1 0x5 SHL ADD DUP6 PUSH3 0x3AD JUMP JUMPDEST DUP2 DUP5 MSTORE DUP1 DUP5 ADD SWAP1 PUSH1 0x1E PUSH1 0x0 MSTORE PUSH32 0x50BB669A95C7B50B7E8A6F09454034B2B14CF2B85C730DCA9A539CA82CB6E350 PUSH1 0x0 SWAP3 JUMPDEST DUP5 DUP5 LT PUSH3 0x204C JUMPI POP POP POP POP POP JUMP JUMPDEST PUSH1 0x1 DUP4 DUP2 SWAP3 PUSH3 0x205C DUP6 PUSH3 0x89E JUMP JUMPDEST DUP2 MSTORE ADD SWAP3 ADD SWAP4 ADD SWAP3 SWAP1 PUSH3 0x203D JUMP JUMPDEST SWAP1 PUSH3 0x209B PUSH1 0x80 SWAP4 PUSH8 0xFFFFFFFFFFFFFFFF PUSH4 0xFFFFFFFF SWAP4 SWAP9 SWAP8 SWAP7 SWAP9 AND DUP5 MSTORE PUSH1 0xA0 PUSH1 0x20 DUP6 ADD MSTORE PUSH1 0xA0 DUP5 ADD SWAP1 PUSH3 0x973 JUMP JUMPDEST SWAP6 PUSH1 0x1 PUSH1 0x40 DUP5 ADD MSTORE AND PUSH1 0x60 DUP3 ADD MSTORE ADD MSTORE JUMP JUMPDEST PUSH1 0x0 SWAP1 PUSH1 0x3 RETURNDATASIZE GT PUSH3 0x20BB JUMPI JUMP JUMPDEST SWAP1 POP PUSH1 0x4 PUSH1 0x0 DUP1 RETURNDATACOPY PUSH1 0x0 MLOAD PUSH1 0xE0 SHR SWAP1 JUMP JUMPDEST PUSH1 0x0 PUSH1 0x44 RETURNDATASIZE LT PUSH3 0x9C8 JUMPI PUSH1 0x40 MLOAD PUSH1 0x3 NOT SWAP2 RETURNDATASIZE DUP4 ADD PUSH1 0x4 DUP4 RETURNDATACOPY DUP2 MLOAD PUSH8 0xFFFFFFFFFFFFFFFF SWAP2 DUP3 DUP3 GT RETURNDATASIZE PUSH1 0x24 DUP5 ADD GT OR PUSH3 0x2130 JUMPI DUP2 DUP5 ADD SWAP5 DUP6 MLOAD SWAP4 DUP5 GT PUSH3 0x2138 JUMPI RETURNDATASIZE DUP6 ADD ADD PUSH1 0x20 DUP5 DUP8 ADD ADD GT PUSH3 0x2130 JUMPI POP PUSH3 0x9C8 SWAP3 SWAP2 ADD PUSH1 0x20 ADD SWAP1 PUSH3 0x3AD JUMP JUMPDEST SWAP5 SWAP4 POP POP POP POP JUMP JUMPDEST POP SWAP5 SWAP4 POP POP POP POP JUMP JUMPDEST RETURNDATASIZE ISZERO PUSH3 0x2171 JUMPI RETURNDATASIZE SWAP1 PUSH3 0x2155 DUP3 PUSH3 0x3D0 JUMP JUMPDEST SWAP2 PUSH3 0x2165 PUSH1 0x40 MLOAD SWAP4 DUP5 PUSH3 0x3AD JUMP JUMPDEST DUP3 MSTORE RETURNDATASIZE PUSH1 0x0 PUSH1 0x20 DUP5 ADD RETURNDATACOPY JUMP JUMPDEST PUSH1 0x60 SWAP1 JUMP JUMPDEST SWAP1 PUSH8 0xFFFFFFFFFFFFFFFF SWAP1 SWAP5 SWAP4 SWAP3 SWAP5 AND DUP2 MSTORE PUSH1 0x20 SWAP4 PUSH1 0xA0 DUP6 DUP4 ADD MSTORE PUSH1 0x0 PUSH1 0x2 SLOAD SWAP6 PUSH3 0x21A2 DUP8 PUSH3 0x797 JUMP JUMPDEST SWAP1 DUP2 PUSH1 0xA0 DUP7 ADD MSTORE PUSH1 0x1 SWAP8 DUP9 DUP2 AND SWAP1 DUP2 PUSH1 0x0 EQ PUSH3 0x223D JUMPI POP PUSH1 0x1 EQ PUSH3 0x21DE JUMPI JUMPDEST POP POP PUSH1 0x40 DUP4 ADD SWAP6 SWAP1 SWAP6 MSTORE PUSH4 0xFFFFFFFF AND PUSH1 0x60 DUP3 ADD MSTORE PUSH1 0x80 ADD MSTORE JUMP JUMPDEST PUSH1 0x2 PUSH1 0x0 SWAP1 DUP2 MSTORE SWAP3 POP DUP8 PUSH32 0x405787FA12A823E0F2B7631CC41B3BA8828B3321CA811111FA75CD3AA3BB5ACE JUMPDEST DUP4 DUP6 LT PUSH3 0x2227 JUMPI POP POP POP POP DUP3 ADD PUSH1 0xC0 ADD DUP2 PUSH4 0xFFFFFFFF PUSH3 0x21C3 JUMP JUMPDEST DUP1 SLOAD DUP8 DUP7 ADD PUSH1 0xC0 ADD MSTORE SWAP4 DUP3 ADD SWAP4 DUP10 SWAP2 ADD PUSH3 0x220A JUMP JUMPDEST PUSH1 0xFF NOT AND PUSH1 0xC0 DUP8 DUP2 ADD SWAP2 SWAP1 SWAP2 MSTORE SWAP3 ISZERO ISZERO PUSH1 0x5 SHL DUP7 ADD SWAP1 SWAP3 ADD SWAP3 POP DUP4 SWAP2 POP PUSH4 0xFFFFFFFF SWAP1 POP PUSH3 0x21C3 JUMP JUMPDEST PUSH3 0x2276 PUSH1 0xB SLOAD ISZERO ISZERO PUSH3 0x1EAD JUMP JUMPDEST PUSH3 0x2280 PUSH3 0x1EF9 JUMP JUMPDEST POP PUSH3 0x2296 PUSH3 0x228F PUSH3 0x1E96 JUMP JUMPDEST POP PUSH3 0x1F1E JUMP JUMPDEST PUSH3 0x22A0 TIMESTAMP PUSH1 0xF SSTORE JUMP JUMPDEST PUSH3 0x22B6 PUSH3 0x22B1 PUSH1 0x10 SLOAD PUSH3 0x1F6A JUMP JUMPDEST PUSH1 0x10 SSTORE JUMP JUMPDEST PUSH1 0x1D SLOAD PUSH1 0x1E SLOAD LT ISZERO PUSH3 0x2475 JUMPI PUSH3 0x22D9 PUSH3 0x22D4 PUSH1 0x15 SLOAD PUSH3 0x1F6A JUMP JUMPDEST PUSH1 0x15 SSTORE JUMP JUMPDEST PUSH1 0x6 SLOAD PUSH8 0xFFFFFFFFFFFFFFFF AND PUSH1 0x20 PUSH3 0x22F8 PUSH1 0xD SLOAD PUSH4 0xFFFFFFFF AND SWAP1 JUMP JUMPDEST PUSH1 0xE SLOAD SWAP3 PUSH3 0x231C PUSH1 0x40 MLOAD SWAP5 DUP6 SWAP4 DUP5 SWAP4 PUSH4 0x230E93B1 PUSH1 0xE1 SHL DUP6 MSTORE PUSH1 0x4 DUP6 ADD PUSH3 0x2176 JUMP JUMPDEST SUB DUP2 PUSH1 0x0 PUSH1 0x1 PUSH1 0x1 PUSH1 0xA0 SHL SUB PUSH32 0x0 AND GAS CALL PUSH1 0x0 SWAP2 DUP2 PUSH3 0x2450 JUMPI JUMPDEST POP PUSH3 0x2409 JUMPI POP PUSH1 0x1 PUSH3 0x2369 PUSH3 0x20AD JUMP JUMPDEST PUSH4 0x8C379A0 EQ PUSH3 0x23B0 JUMPI JUMPDEST PUSH3 0x237C JUMPI JUMP JUMPDEST PUSH32 0x9C4BFA18304482256875C29FABB1A44A5ECD325F214EA17BAB8F31E869FAF4C8 PUSH3 0x23AB PUSH3 0xABA PUSH3 0x2141 JUMP JUMPDEST SUB SWAP1 LOG1 JUMP JUMPDEST PUSH3 0x23BA PUSH3 0x20CC JUMP JUMPDEST DUP1 PUSH3 0x23C8 JUMPI JUMPDEST POP PUSH3 0x2375 JUMP JUMPDEST SWAP1 POP PUSH32 0x2BA61E3733E7AC99181C22307780F651EC8FD92FE661A84DFBE711710B2DC36C PUSH3 0x23FF PUSH1 0x0 SWAP3 PUSH1 0x40 MLOAD SWAP2 DUP3 SWAP2 DUP3 PUSH3 0x9B5 JUMP JUMPDEST SUB SWAP1 LOG1 CODESIZE PUSH3 0x23C1 JUMP JUMPDEST PUSH3 0x2413 DUP2 PUSH1 0x12 SSTORE JUMP JUMPDEST PUSH3 0x2429 PUSH3 0x2424 PUSH1 0x16 SLOAD PUSH3 0x1F6A JUMP JUMPDEST PUSH1 0x16 SSTORE JUMP JUMPDEST PUSH32 0x1131472297A800FEE664D1D89CFA8F7676FF07189ECC53F80BBB5F4969099DB8 PUSH1 0x0 DUP1 LOG2 JUMP JUMPDEST PUSH3 0x246D SWAP2 SWAP3 POP PUSH1 0x20 RETURNDATASIZE DUP2 GT PUSH3 0xD4E JUMPI PUSH3 0xD3E DUP2 DUP4 PUSH3 0x3AD JUMP JUMPDEST SWAP1 CODESIZE PUSH3 0x2356 JUMP JUMPDEST PUSH3 0x2488 PUSH1 0x1 PUSH1 0xFF NOT PUSH1 0x18 SLOAD AND OR PUSH1 0x18 SSTORE JUMP JUMPDEST PUSH3 0x24C6 PUSH3 0x2496 PUSH3 0x1F96 JUMP JUMPDEST PUSH3 0x24AB PUSH3 0x24A4 PUSH3 0x7D4 JUMP JUMPDEST DUP3 PUSH3 0x2B32 JUMP JUMPDEST PUSH3 0x24C0 PUSH3 0x24B9 PUSH3 0x1FE1 JUMP JUMPDEST DUP3 PUSH3 0x2B74 JUMP JUMPDEST PUSH3 0x28F5 JUMP JUMPDEST PUSH3 0x24D7 PUSH3 0x22D4 PUSH1 0x15 SLOAD PUSH3 0x1F6A JUMP JUMPDEST PUSH1 0x6 SLOAD PUSH8 0xFFFFFFFFFFFFFFFF AND PUSH3 0x2516 PUSH3 0x24F8 PUSH1 0xD SLOAD PUSH4 0xFFFFFFFF AND SWAP1 JUMP JUMPDEST PUSH1 0xE SLOAD SWAP1 PUSH1 0x40 MLOAD SWAP5 DUP6 SWAP5 PUSH4 0x230E93B1 PUSH1 0xE1 SHL DUP7 MSTORE PUSH1 0x4 DUP7 ADD PUSH3 0x206B JUMP JUMPDEST SUB PUSH1 0x0 SWAP2 PUSH1 0x20 DUP2 PUSH1 0x1 PUSH1 0x1 PUSH1 0xA0 SHL SUB SWAP4 DUP2 DUP7 DUP7 PUSH32 0x0 AND GAS CALL DUP4 SWAP2 DUP2 PUSH3 0x26DC JUMPI JUMPDEST POP PUSH3 0x2697 JUMPI POP PUSH1 0x1 PUSH3 0x2569 PUSH3 0x20AD JUMP JUMPDEST PUSH4 0x8C379A0 EQ PUSH3 0x263F JUMPI JUMPDEST PUSH3 0x2607 JUMPI JUMPDEST PUSH32 0x0 AND PUSH1 0xB SLOAD DUP2 EXTCODESIZE ISZERO PUSH3 0x2603 JUMPI PUSH1 0x40 MLOAD PUSH32 0x8765ECBE00000000000000000000000000000000000000000000000000000000 DUP2 MSTORE PUSH1 0x4 DUP2 ADD SWAP2 SWAP1 SWAP2 MSTORE SWAP2 SWAP1 DUP3 SWAP1 PUSH1 0x24 SWAP1 DUP3 SWAP1 DUP5 SWAP1 GAS CALL DUP1 ISZERO PUSH3 0xD56 JUMPI PUSH3 0x25F3 JUMPI JUMPDEST POP JUMP JUMPDEST DUP1 PUSH3 0x166F PUSH3 0x815 SWAP3 PUSH3 0x375 JUMP JUMPDEST DUP3 DUP1 REVERT JUMPDEST PUSH32 0x9C4BFA18304482256875C29FABB1A44A5ECD325F214EA17BAB8F31E869FAF4C8 PUSH3 0x2636 PUSH3 0xABA PUSH3 0x2141 JUMP JUMPDEST SUB SWAP1 LOG1 PUSH3 0x257B JUMP JUMPDEST PUSH3 0x2649 PUSH3 0x20CC JUMP JUMPDEST DUP1 PUSH3 0x2657 JUMPI JUMPDEST POP PUSH3 0x2575 JUMP JUMPDEST SWAP1 POP PUSH32 0x2BA61E3733E7AC99181C22307780F651EC8FD92FE661A84DFBE711710B2DC36C PUSH3 0x268D DUP5 SWAP3 PUSH1 0x40 MLOAD SWAP2 DUP3 SWAP2 DUP3 PUSH3 0x9B5 JUMP JUMPDEST SUB SWAP1 LOG1 CODESIZE PUSH3 0x2650 JUMP JUMPDEST PUSH3 0x26A1 DUP2 PUSH1 0x12 SSTORE JUMP JUMPDEST PUSH3 0x26B2 PUSH3 0x2424 PUSH1 0x16 SLOAD PUSH3 0x1F6A JUMP JUMPDEST PUSH32 0x1131472297A800FEE664D1D89CFA8F7676FF07189ECC53F80BBB5F4969099DB8 DUP4 DUP1 LOG2 PUSH3 0x257B JUMP JUMPDEST PUSH3 0x26F9 SWAP2 SWAP3 POP PUSH1 0x20 RETURNDATASIZE DUP2 GT PUSH3 0xD4E JUMPI PUSH3 0xD3E DUP2 DUP4 PUSH3 0x3AD JUMP JUMPDEST SWAP1 CODESIZE PUSH3 0x2556 JUMP JUMPDEST PUSH1 0x40 MLOAD SWAP1 PUSH3 0x2710 DUP3 PUSH3 0x390 JUMP JUMPDEST PUSH1 0xC DUP3 MSTORE PUSH32 0x636F64654C6F636174696F6E0000000000000000000000000000000000000000 PUSH1 0x20 DUP4 ADD MSTORE JUMP JUMPDEST PUSH4 0x4E487B71 PUSH1 0xE0 SHL PUSH1 0x0 MSTORE PUSH1 0x21 PUSH1 0x4 MSTORE PUSH1 0x24 PUSH1 0x0 REVERT JUMPDEST PUSH1 0x3 GT ISZERO PUSH3 0x275D JUMPI JUMP JUMPDEST PUSH3 0x273C JUMP JUMPDEST PUSH1 0x40 MLOAD SWAP1 PUSH3 0x2772 DUP3 PUSH3 0x390 JUMP JUMPDEST PUSH1 0x8 DUP3 MSTORE PUSH32 0x6C616E6775616765000000000000000000000000000000000000000000000000 PUSH1 0x20 DUP4 ADD MSTORE JUMP JUMPDEST PUSH1 0x1 GT ISZERO PUSH3 0x275D JUMPI JUMP JUMPDEST PUSH1 0x40 MLOAD SWAP1 PUSH3 0x27B8 DUP3 PUSH3 0x390 JUMP JUMPDEST PUSH1 0x6 DUP3 MSTORE PUSH32 0x736F757263650000000000000000000000000000000000000000000000000000 PUSH1 0x20 DUP4 ADD MSTORE JUMP JUMPDEST PUSH1 0x40 MLOAD SWAP1 PUSH3 0x27F3 DUP3 PUSH3 0x390 JUMP JUMPDEST PUSH1 0x4 DUP3 MSTORE PUSH32 0x6172677300000000000000000000000000000000000000000000000000000000 PUSH1 0x20 DUP4 ADD MSTORE JUMP JUMPDEST PUSH1 0x0 NOT DUP2 EQ PUSH3 0x12E0 JUMPI PUSH1 0x1 ADD SWAP1 JUMP JUMPDEST DUP1 MLOAD DUP3 LT ISZERO PUSH3 0x77B JUMPI PUSH1 0x20 SWAP2 PUSH1 0x5 SHL ADD ADD SWAP1 JUMP JUMPDEST PUSH1 0x40 MLOAD SWAP1 PUSH3 0x2853 DUP3 PUSH3 0x390 JUMP JUMPDEST PUSH1 0xF DUP3 MSTORE PUSH32 0x736563726574734C6F636174696F6E0000000000000000000000000000000000 PUSH1 0x20 DUP4 ADD MSTORE JUMP JUMPDEST PUSH1 0x40 MLOAD SWAP1 PUSH3 0x288E DUP3 PUSH3 0x390 JUMP JUMPDEST PUSH1 0x7 DUP3 MSTORE PUSH32 0x7365637265747300000000000000000000000000000000000000000000000000 PUSH1 0x20 DUP4 ADD MSTORE JUMP JUMPDEST PUSH1 0x40 MLOAD SWAP1 PUSH3 0x28C9 DUP3 PUSH3 0x390 JUMP JUMPDEST PUSH1 0x9 DUP3 MSTORE PUSH32 0x6279746573417267730000000000000000000000000000000000000000000000 PUSH1 0x20 DUP4 ADD MSTORE JUMP JUMPDEST PUSH3 0x28FF PUSH3 0x2BC8 JUMP JUMPDEST SWAP1 PUSH3 0x2915 PUSH3 0x290E PUSH3 0x2701 JUMP JUMPDEST DUP4 PUSH3 0x33BA JUMP JUMPDEST PUSH3 0x2938 DUP2 MLOAD PUSH3 0x2926 DUP2 PUSH3 0x2752 JUMP JUMPDEST PUSH3 0x2931 DUP2 PUSH3 0x2752 JUMP JUMPDEST DUP4 PUSH3 0x2C78 JUMP JUMPDEST PUSH3 0x2946 PUSH3 0x290E PUSH3 0x2763 JUMP JUMPDEST PUSH3 0x2965 PUSH1 0x40 DUP3 ADD MLOAD PUSH3 0x295A DUP2 PUSH3 0x279E JUMP JUMPDEST PUSH3 0x2931 DUP2 PUSH3 0x279E JUMP JUMPDEST PUSH3 0x2973 PUSH3 0x290E PUSH3 0x27A9 JUMP JUMPDEST PUSH3 0x2983 PUSH1 0x60 DUP3 ADD MLOAD DUP4 PUSH3 0x33BA JUMP JUMPDEST PUSH1 0xA0 DUP2 ADD DUP1 MLOAD MLOAD PUSH3 0x2AC9 JUMPI JUMPDEST POP PUSH1 0x80 DUP2 ADD SWAP1 DUP2 MLOAD MLOAD PUSH3 0x2A1B JUMPI JUMPDEST PUSH1 0xC0 SWAP2 POP ADD DUP1 MLOAD MLOAD PUSH3 0x29B3 JUMPI JUMPDEST POP MLOAD MLOAD SWAP1 JUMP JUMPDEST SWAP2 PUSH3 0x29C2 PUSH3 0x290E PUSH3 0x28BA JUMP JUMPDEST PUSH3 0x29CD DUP3 PUSH3 0x3452 JUMP JUMPDEST PUSH1 0x0 JUMPDEST DUP4 MLOAD DUP1 MLOAD DUP3 LT ISZERO PUSH3 0x2A05 JUMPI SWAP1 PUSH3 0x29F9 PUSH3 0x29F1 DUP3 PUSH3 0x29FF SWAP5 PUSH3 0x282F JUMP JUMPDEST MLOAD DUP6 PUSH3 0x32EE JUMP JUMPDEST PUSH3 0x281F JUMP JUMPDEST PUSH3 0x29D0 JUMP JUMPDEST POP POP SWAP2 POP PUSH3 0x2A14 DUP2 PUSH3 0x34EA JUMP JUMPDEST CODESIZE PUSH3 0x29AD JUMP JUMPDEST PUSH1 0x20 DUP2 ADD DUP1 MLOAD PUSH3 0x2A2C DUP2 PUSH3 0x2752 JUMP JUMPDEST PUSH3 0x2A37 DUP2 PUSH3 0x2752 JUMP JUMPDEST ISZERO PUSH3 0x2A9F JUMPI PUSH1 0xC0 SWAP3 PUSH3 0x2A7C PUSH3 0x2A99 SWAP3 PUSH3 0x2A5E PUSH3 0x2A57 PUSH3 0x2844 JUMP JUMPDEST DUP9 PUSH3 0x33BA JUMP JUMPDEST MLOAD PUSH3 0x2A6A DUP2 PUSH3 0x2752 JUMP JUMPDEST PUSH3 0x2A75 DUP2 PUSH3 0x2752 JUMP JUMPDEST DUP7 PUSH3 0x2C78 JUMP JUMPDEST PUSH3 0x2A91 PUSH3 0x2A8A PUSH3 0x287F JUMP JUMPDEST DUP7 PUSH3 0x33BA JUMP JUMPDEST MLOAD DUP5 PUSH3 0x32EE JUMP JUMPDEST PUSH3 0x299F JUMP JUMPDEST PUSH1 0x4 PUSH1 0x40 MLOAD PUSH32 0xA80D31F700000000000000000000000000000000000000000000000000000000 DUP2 MSTORE REVERT JUMPDEST SWAP3 PUSH3 0x2ADF PUSH3 0x2AD8 PUSH3 0x27E4 JUMP JUMPDEST DUP5 PUSH3 0x33BA JUMP JUMPDEST PUSH3 0x2AEA DUP4 PUSH3 0x3452 JUMP JUMPDEST PUSH1 0x0 JUMPDEST DUP5 MLOAD DUP1 MLOAD DUP3 LT ISZERO PUSH3 0x2B1C JUMPI SWAP1 PUSH3 0x29F9 PUSH3 0x2B0E DUP3 PUSH3 0x2B16 SWAP5 PUSH3 0x282F JUMP JUMPDEST MLOAD DUP7 PUSH3 0x33BA JUMP JUMPDEST PUSH3 0x2AED JUMP JUMPDEST POP POP SWAP3 POP PUSH3 0x2B2B DUP3 PUSH3 0x34EA JUMP JUMPDEST CODESIZE PUSH3 0x2990 JUMP JUMPDEST DUP2 MLOAD ISZERO PUSH3 0x2B4A JUMPI PUSH1 0x0 DUP1 DUP3 MSTORE PUSH1 0x40 DUP3 ADD MSTORE PUSH1 0x60 ADD MSTORE JUMP JUMPDEST PUSH1 0x4 PUSH1 0x40 MLOAD PUSH32 0x22CE3EDD00000000000000000000000000000000000000000000000000000000 DUP2 MSTORE REVERT JUMPDEST DUP2 MLOAD ISZERO PUSH3 0x2B82 JUMPI PUSH1 0xA0 ADD MSTORE JUMP JUMPDEST PUSH1 0x4 PUSH1 0x40 MLOAD PUSH32 0xFE936CB700000000000000000000000000000000000000000000000000000000 DUP2 MSTORE REVERT JUMPDEST PUSH1 0x40 MLOAD SWAP1 PUSH3 0x2BBB DUP3 PUSH3 0x390 JUMP JUMPDEST PUSH1 0x0 PUSH1 0x20 DUP4 PUSH1 0x60 DUP2 MSTORE ADD MSTORE JUMP JUMPDEST PUSH1 0x40 MLOAD PUSH3 0x2BD6 DUP2 PUSH3 0x390 JUMP JUMPDEST PUSH3 0x2BE0 PUSH3 0x2BAC JUMP JUMPDEST DUP1 DUP3 MSTORE PUSH1 0x20 DUP3 ADD PUSH1 0x0 DUP2 MSTORE PUSH3 0x2BF5 PUSH3 0x2BAC JUMP JUMPDEST POP PUSH2 0x100 PUSH1 0x20 DUP4 ADD MSTORE PUSH1 0x40 MLOAD DUP1 SWAP3 MSTORE PUSH1 0x0 DUP3 MSTORE PUSH2 0x120 DUP3 ADD SWAP2 DUP3 LT PUSH3 0x310 JUMPI PUSH1 0x0 SWAP2 PUSH1 0x40 MSTORE MSTORE SWAP1 JUMP JUMPDEST SWAP1 PUSH3 0x2C2A PUSH3 0x2BAC JUMP JUMPDEST POP PUSH1 0x1F DUP2 AND DUP1 PUSH3 0x2C5B JUMPI JUMPDEST POP DUP1 PUSH1 0x20 DUP4 ADD MSTORE PUSH1 0x40 MLOAD SWAP1 DUP2 DUP4 MSTORE PUSH1 0x0 DUP3 MSTORE DUP2 ADD PUSH1 0x20 ADD SWAP1 DUP2 LT PUSH3 0x310 JUMPI PUSH1 0x40 MSTORE SWAP1 JUMP JUMPDEST PUSH1 0x20 SUB PUSH1 0x20 DUP2 GT PUSH3 0x12E0 JUMPI DUP2 ADD DUP1 SWAP2 GT PUSH3 0x12E0 JUMPI CODESIZE PUSH3 0x2C36 JUMP JUMPDEST SWAP1 DUP2 MLOAD SWAP2 PUSH3 0x2C86 PUSH3 0x2BAC JUMP JUMPDEST POP DUP3 MLOAD MLOAD PUSH1 0x1 DUP2 ADD SWAP1 DUP2 DUP2 GT PUSH3 0x12E0 JUMPI PUSH1 0x20 DUP6 ADD MLOAD DUP2 LT ISZERO PUSH3 0x2CE7 JUMPI JUMPDEST PUSH1 0xC2 PUSH1 0x20 PUSH3 0x815 SWAP7 MLOAD SWAP3 DUP4 ADD ADD MSTORE8 DUP1 MLOAD DUP3 GT PUSH3 0x2CDE JUMPI JUMPDEST POP POP PUSH1 0x40 MLOAD SWAP2 PUSH1 0x20 DUP4 ADD MSTORE PUSH1 0x20 DUP3 MSTORE PUSH3 0x2CD8 DUP3 PUSH3 0x390 JUMP JUMPDEST PUSH3 0x32EE JUMP JUMPDEST MSTORE CODESIZE DUP1 PUSH3 0x2CBE JUMP JUMPDEST DUP2 PUSH1 0x1 SHL SWAP5 DUP3 DUP7 DIV PUSH1 0x2 EQ DUP4 ISZERO OR ISZERO PUSH3 0x12E0 JUMPI PUSH1 0x20 DUP2 PUSH3 0x2D1F PUSH3 0x815 SWAP9 PUSH3 0x2D17 PUSH1 0xC2 SWAP6 MLOAD SWAP2 DUP5 PUSH3 0x2C1F JUMP JUMPDEST POP DUP3 PUSH3 0x321F JUMP JUMPDEST POP SWAP7 POP POP POP PUSH3 0x2CA5 JUMP JUMPDEST SWAP1 DUP2 PUSH1 0x1 SHL SWAP2 DUP1 DUP4 DIV PUSH1 0x2 EQ SWAP1 ISZERO OR ISZERO PUSH3 0x12E0 JUMPI JUMP JUMPDEST PUSH3 0x2D4B PUSH3 0x2BAC JUMP JUMPDEST POP DUP1 MLOAD MLOAD PUSH1 0x1 DUP2 ADD SWAP1 DUP2 DUP2 GT PUSH3 0x12E0 JUMPI PUSH1 0x20 DUP4 ADD MLOAD DUP2 LT ISZERO PUSH3 0x2D87 JUMPI JUMPDEST PUSH1 0x5B PUSH1 0x20 DUP5 MLOAD SWAP3 DUP4 ADD ADD MSTORE8 DUP1 MLOAD DUP3 GT PUSH3 0x2D83 JUMPI POP POP SWAP1 JUMP JUMPDEST MSTORE SWAP1 JUMP JUMPDEST DUP2 PUSH1 0x1 SHL DUP3 DUP2 DIV PUSH1 0x2 EQ DUP4 ISZERO OR ISZERO PUSH3 0x12E0 JUMPI PUSH3 0x2DB5 SWAP1 PUSH3 0x2DAD DUP6 MLOAD SWAP2 DUP7 PUSH3 0x2C1F JUMP JUMPDEST POP DUP5 PUSH3 0x321F JUMP JUMPDEST POP PUSH3 0x2D6A JUMP JUMPDEST PUSH3 0x2DC6 PUSH3 0x2BAC JUMP JUMPDEST POP DUP1 MLOAD MLOAD PUSH1 0x1 DUP2 ADD SWAP1 DUP2 DUP2 GT PUSH3 0x12E0 JUMPI PUSH1 0x20 DUP4 ADD MLOAD DUP2 LT ISZERO PUSH3 0x2DFE JUMPI JUMPDEST PUSH1 0x5A PUSH1 0x20 DUP5 MLOAD SWAP3 DUP4 ADD ADD MSTORE8 DUP1 MLOAD DUP3 GT PUSH3 0x2D83 JUMPI POP POP SWAP1 JUMP JUMPDEST DUP2 PUSH1 0x1 SHL DUP3 DUP2 DIV PUSH1 0x2 EQ DUP4 ISZERO OR ISZERO PUSH3 0x12E0 JUMPI PUSH3 0x2E24 SWAP1 PUSH3 0x2DAD DUP6 MLOAD SWAP2 DUP7 PUSH3 0x2C1F JUMP JUMPDEST POP PUSH3 0x2DE5 JUMP JUMPDEST PUSH3 0x2E35 PUSH3 0x2BAC JUMP JUMPDEST POP DUP1 MLOAD MLOAD PUSH1 0x1 DUP2 ADD SWAP1 DUP2 DUP2 GT PUSH3 0x12E0 JUMPI PUSH1 0x20 DUP4 ADD MLOAD DUP2 LT ISZERO PUSH3 0x2E6D JUMPI JUMPDEST PUSH1 0x59 PUSH1 0x20 DUP5 MLOAD SWAP3 DUP4 ADD ADD MSTORE8 DUP1 MLOAD DUP3 GT PUSH3 0x2D83 JUMPI POP POP SWAP1 JUMP JUMPDEST DUP2 PUSH1 0x1 SHL DUP3 DUP2 DIV PUSH1 0x2 EQ DUP4 ISZERO OR ISZERO PUSH3 0x12E0 JUMPI PUSH3 0x2E93 SWAP1 PUSH3 0x2DAD DUP6 MLOAD SWAP2 DUP7 PUSH3 0x2C1F JUMP JUMPDEST POP PUSH3 0x2E54 JUMP JUMPDEST PUSH3 0x2EA4 PUSH3 0x2BAC JUMP JUMPDEST POP DUP1 MLOAD MLOAD PUSH1 0x1 DUP2 ADD SWAP1 DUP2 DUP2 GT PUSH3 0x12E0 JUMPI PUSH1 0x20 DUP4 ADD MLOAD DUP2 LT ISZERO PUSH3 0x2EDC JUMPI JUMPDEST PUSH1 0x58 PUSH1 0x20 DUP5 MLOAD SWAP3 DUP4 ADD ADD MSTORE8 DUP1 MLOAD DUP3 GT PUSH3 0x2D83 JUMPI POP POP SWAP1 JUMP JUMPDEST DUP2 PUSH1 0x1 SHL DUP3 DUP2 DIV PUSH1 0x2 EQ DUP4 ISZERO OR ISZERO PUSH3 0x12E0 JUMPI PUSH3 0x2F02 SWAP1 PUSH3 0x2DAD DUP6 MLOAD SWAP2 DUP7 PUSH3 0x2C1F JUMP JUMPDEST POP PUSH3 0x2EC3 JUMP JUMPDEST PUSH3 0x2F13 PUSH3 0x2BAC JUMP JUMPDEST POP DUP1 MLOAD MLOAD PUSH1 0x1 DUP2 ADD SWAP1 DUP2 DUP2 GT PUSH3 0x12E0 JUMPI PUSH1 0x20 DUP4 ADD MLOAD DUP2 LT ISZERO PUSH3 0x2F4B JUMPI JUMPDEST PUSH1 0x7B PUSH1 0x20 DUP5 MLOAD SWAP3 DUP4 ADD ADD MSTORE8 DUP1 MLOAD DUP3 GT PUSH3 0x2D83 JUMPI POP POP SWAP1 JUMP JUMPDEST DUP2 PUSH1 0x1 SHL DUP3 DUP2 DIV PUSH1 0x2 EQ DUP4 ISZERO OR ISZERO PUSH3 0x12E0 JUMPI PUSH3 0x2F71 SWAP1 PUSH3 0x2DAD DUP6 MLOAD SWAP2 DUP7 PUSH3 0x2C1F JUMP JUMPDEST POP PUSH3 0x2F32 JUMP JUMPDEST PUSH3 0x2F82 PUSH3 0x2BAC JUMP JUMPDEST POP DUP1 MLOAD MLOAD PUSH1 0x1 DUP2 ADD SWAP1 DUP2 DUP2 GT PUSH3 0x12E0 JUMPI PUSH1 0x20 DUP4 ADD MLOAD DUP2 LT ISZERO PUSH3 0x2FBA JUMPI JUMPDEST PUSH1 0x7A PUSH1 0x20 DUP5 MLOAD SWAP3 DUP4 ADD ADD MSTORE8 DUP1 MLOAD DUP3 GT PUSH3 0x2D83 JUMPI POP POP SWAP1 JUMP JUMPDEST DUP2 PUSH1 0x1 SHL DUP3 DUP2 DIV PUSH1 0x2 EQ DUP4 ISZERO OR ISZERO PUSH3 0x12E0 JUMPI PUSH3 0x2FE0 SWAP1 PUSH3 0x2DAD DUP6 MLOAD SWAP2 DUP7 PUSH3 0x2C1F JUMP JUMPDEST POP PUSH3 0x2FA1 JUMP JUMPDEST PUSH3 0x2FF1 PUSH3 0x2BAC JUMP JUMPDEST POP DUP1 MLOAD MLOAD PUSH1 0x1 DUP2 ADD SWAP1 DUP2 DUP2 GT PUSH3 0x12E0 JUMPI PUSH1 0x20 DUP4 ADD MLOAD DUP2 LT ISZERO PUSH3 0x3029 JUMPI JUMPDEST PUSH1 0x79 PUSH1 0x20 DUP5 MLOAD SWAP3 DUP4 ADD ADD MSTORE8 DUP1 MLOAD DUP3 GT PUSH3 0x2D83 JUMPI POP POP SWAP1 JUMP JUMPDEST DUP2 PUSH1 0x1 SHL DUP3 DUP2 DIV PUSH1 0x2 EQ DUP4 ISZERO OR ISZERO PUSH3 0x12E0 JUMPI PUSH3 0x304F SWAP1 PUSH3 0x2DAD DUP6 MLOAD SWAP2 DUP7 PUSH3 0x2C1F JUMP JUMPDEST POP PUSH3 0x3010 JUMP JUMPDEST PUSH3 0x3060 PUSH3 0x2BAC JUMP JUMPDEST POP DUP1 MLOAD MLOAD PUSH1 0x1 DUP2 ADD SWAP1 DUP2 DUP2 GT PUSH3 0x12E0 JUMPI PUSH1 0x20 DUP4 ADD MLOAD DUP2 LT ISZERO PUSH3 0x3098 JUMPI JUMPDEST PUSH1 0x78 PUSH1 0x20 DUP5 MLOAD SWAP3 DUP4 ADD ADD MSTORE8 DUP1 MLOAD DUP3 GT PUSH3 0x2D83 JUMPI POP POP SWAP1 JUMP JUMPDEST DUP2 PUSH1 0x1 SHL DUP3 DUP2 DIV PUSH1 0x2 EQ DUP4 ISZERO OR ISZERO PUSH3 0x12E0 JUMPI PUSH3 0x30BE SWAP1 PUSH3 0x2DAD DUP6 MLOAD SWAP2 DUP7 PUSH3 0x2C1F JUMP JUMPDEST POP PUSH3 0x307F JUMP JUMPDEST SWAP1 PUSH3 0x30D0 PUSH3 0x2BAC JUMP JUMPDEST POP DUP2 MLOAD MLOAD PUSH1 0x1 DUP2 ADD SWAP2 DUP3 DUP3 GT PUSH3 0x12E0 JUMPI PUSH1 0x20 DUP5 ADD MLOAD DUP3 LT ISZERO PUSH3 0x3106 JUMPI JUMPDEST PUSH1 0x20 DUP5 MLOAD SWAP3 DUP4 ADD ADD MSTORE8 DUP1 MLOAD DUP3 GT PUSH3 0x2D83 JUMPI POP POP SWAP1 JUMP JUMPDEST DUP3 PUSH1 0x1 SHL DUP4 DUP2 DIV PUSH1 0x2 EQ DUP5 ISZERO OR ISZERO PUSH3 0x12E0 JUMPI PUSH3 0x3134 SWAP1 PUSH3 0x312C DUP7 MLOAD SWAP2 DUP8 PUSH3 0x2C1F JUMP JUMPDEST POP DUP6 PUSH3 0x321F JUMP JUMPDEST POP PUSH3 0x30EF JUMP JUMPDEST SWAP1 PUSH3 0x314A DUP3 MLOAD SWAP2 DUP4 PUSH3 0x2C1F JUMP JUMPDEST POP PUSH3 0x3155 PUSH3 0x2BAC JUMP JUMPDEST POP DUP1 MLOAD SWAP1 PUSH3 0x3163 PUSH3 0x2BAC JUMP JUMPDEST POP PUSH3 0x3173 DUP2 MLOAD DUP4 GT ISZERO PUSH3 0x32E6 JUMP JUMPDEST DUP3 MLOAD MLOAD SWAP3 PUSH3 0x3183 DUP4 DUP6 PUSH3 0x1F88 JUMP JUMPDEST SWAP2 PUSH1 0x20 SWAP3 DUP3 DUP5 DUP1 SWAP5 ADD MLOAD DUP3 GT PUSH3 0x3203 JUMPI JUMPDEST MLOAD DUP4 DUP2 MLOAD SWAP8 DUP3 ADD ADD SWAP7 DUP3 GT PUSH3 0x31FA JUMPI JUMPDEST POP POP ADD SWAP2 JUMPDEST DUP2 DUP2 LT ISZERO PUSH3 0x31CD JUMPI PUSH1 0x0 NOT SWAP2 SUB PUSH2 0x100 EXP ADD SWAP1 DUP2 NOT SWAP1 MLOAD AND SWAP1 DUP3 MLOAD AND OR SWAP1 MSTORE JUMP JUMPDEST SWAP2 SWAP3 PUSH3 0x31ED PUSH3 0x31E6 PUSH3 0x31F4 SWAP3 DUP7 MLOAD DUP2 MSTORE PUSH3 0x1F79 JUMP JUMPDEST SWAP5 PUSH3 0x1F79 JUMP JUMPDEST SWAP3 PUSH3 0x1E86 JUMP JUMPDEST PUSH3 0x31AB JUMP JUMPDEST MSTORE CODESIZE DUP1 PUSH3 0x31A6 JUMP JUMPDEST PUSH3 0x3219 PUSH3 0x3212 DUP4 PUSH3 0x2D2A JUMP JUMPDEST DUP3 PUSH3 0x313B JUMP JUMPDEST PUSH3 0x3195 JUMP JUMPDEST SWAP1 PUSH3 0x322A PUSH3 0x2BAC JUMP JUMPDEST POP DUP1 MLOAD PUSH3 0x3237 PUSH3 0x2BAC JUMP JUMPDEST POP PUSH3 0x3247 DUP3 MLOAD DUP3 GT ISZERO PUSH3 0x32E6 JUMP JUMPDEST DUP3 MLOAD MLOAD SWAP2 PUSH3 0x3257 DUP3 DUP5 PUSH3 0x1F88 JUMP JUMPDEST PUSH1 0x20 SWAP2 DUP3 SWAP2 DUP3 DUP8 ADD MLOAD DUP2 GT PUSH3 0x32CA JUMPI JUMPDEST DUP7 MLOAD DUP4 DUP2 MLOAD SWAP8 DUP3 ADD ADD SWAP7 DUP3 GT PUSH3 0x32C1 JUMPI JUMPDEST POP POP ADD SWAP2 JUMPDEST DUP2 DUP2 LT ISZERO PUSH3 0x32A2 JUMPI PUSH1 0x0 NOT SWAP2 SUB PUSH2 0x100 EXP ADD SWAP1 DUP2 NOT SWAP1 MLOAD AND SWAP1 DUP3 MLOAD AND OR SWAP1 MSTORE SWAP1 JUMP JUMPDEST SWAP2 SWAP3 PUSH3 0x31ED PUSH3 0x31E6 PUSH3 0x32BB SWAP3 DUP7 MLOAD DUP2 MSTORE PUSH3 0x1F79 JUMP JUMPDEST PUSH3 0x327F JUMP JUMPDEST MSTORE CODESIZE DUP1 PUSH3 0x327A JUMP JUMPDEST PUSH3 0x32E0 PUSH3 0x32D9 DUP3 PUSH3 0x2D2A JUMP JUMPDEST DUP9 PUSH3 0x313B JUMP JUMPDEST PUSH3 0x3268 JUMP JUMPDEST ISZERO PUSH3 0x310 JUMPI JUMP JUMPDEST DUP2 MLOAD PUSH3 0x25F0 SWAP3 SWAP2 SWAP1 PUSH8 0xFFFFFFFFFFFFFFFF DUP2 AND SWAP1 PUSH1 0x17 DUP3 GT PUSH3 0x332B JUMPI PUSH3 0x3322 SWAP2 POP PUSH1 0x40 PUSH1 0xFF DUP5 MLOAD SWAP3 AND OR SWAP1 PUSH3 0x30C5 JUMP JUMPDEST POP JUMPDEST MLOAD PUSH3 0x321F JUMP JUMPDEST POP PUSH1 0xFF DUP2 GT PUSH3 0x3356 JUMPI PUSH3 0x334F SWAP1 PUSH3 0x3346 DUP4 MLOAD PUSH3 0x2E9A JUMP JUMPDEST POP DUP3 MLOAD PUSH3 0x36DB JUMP JUMPDEST POP PUSH3 0x3324 JUMP JUMPDEST PUSH2 0xFFFF DUP2 GT PUSH3 0x337A JUMPI PUSH3 0x334F SWAP1 PUSH3 0x3371 DUP4 MLOAD PUSH3 0x2E2B JUMP JUMPDEST POP DUP3 MLOAD PUSH3 0x366B JUMP JUMPDEST PUSH4 0xFFFFFFFF DUP2 GT PUSH3 0x33A0 JUMPI PUSH3 0x334F SWAP1 PUSH3 0x3397 DUP4 MLOAD PUSH3 0x2DBC JUMP JUMPDEST POP DUP3 MLOAD PUSH3 0x35F9 JUMP JUMPDEST PUSH3 0x334F SWAP1 PUSH3 0x33B1 DUP4 MLOAD PUSH3 0x2D41 JUMP JUMPDEST POP DUP3 MLOAD PUSH3 0x3583 JUMP JUMPDEST DUP2 MLOAD PUSH3 0x25F0 SWAP3 SWAP2 SWAP1 PUSH8 0xFFFFFFFFFFFFFFFF DUP2 AND SWAP1 PUSH1 0x17 DUP3 GT PUSH3 0x33EE JUMPI PUSH3 0x3322 SWAP2 POP PUSH1 0x60 PUSH1 0xFF DUP5 MLOAD SWAP3 AND OR SWAP1 PUSH3 0x30C5 JUMP JUMPDEST POP PUSH1 0xFF DUP2 GT PUSH3 0x3409 JUMPI PUSH3 0x334F SWAP1 PUSH3 0x3346 DUP4 MLOAD PUSH3 0x3056 JUMP JUMPDEST PUSH2 0xFFFF DUP2 GT PUSH3 0x3424 JUMPI PUSH3 0x334F SWAP1 PUSH3 0x3371 DUP4 MLOAD PUSH3 0x2FE7 JUMP JUMPDEST PUSH4 0xFFFFFFFF DUP2 GT PUSH3 0x3441 JUMPI PUSH3 0x334F SWAP1 PUSH3 0x3397 DUP4 MLOAD PUSH3 0x2F78 JUMP JUMPDEST PUSH3 0x334F SWAP1 PUSH3 0x33B1 DUP4 MLOAD PUSH3 0x2F09 JUMP JUMPDEST DUP1 MLOAD SWAP1 PUSH3 0x345F PUSH3 0x2BAC JUMP JUMPDEST POP DUP2 MLOAD MLOAD PUSH1 0x1 DUP2 ADD SWAP1 DUP2 DUP2 GT PUSH3 0x12E0 JUMPI PUSH1 0x20 DUP5 ADD MLOAD DUP2 LT ISZERO PUSH3 0x34B2 JUMPI JUMPDEST PUSH1 0x9F PUSH1 0x20 DUP1 SWAP6 MLOAD SWAP3 DUP4 ADD ADD MSTORE8 DUP1 MLOAD DUP3 GT PUSH3 0x34A9 JUMPI JUMPDEST POP POP ADD DUP1 MLOAD SWAP1 PUSH1 0x1 DUP3 ADD DUP1 SWAP3 GT PUSH3 0x12E0 JUMPI MSTORE JUMP JUMPDEST MSTORE CODESIZE DUP1 PUSH3 0x3494 JUMP JUMPDEST DUP2 PUSH1 0x1 SHL SWAP4 DUP3 DUP6 DIV PUSH1 0x2 EQ DUP4 ISZERO OR ISZERO PUSH3 0x12E0 JUMPI PUSH1 0x20 DUP2 PUSH3 0x34DF DUP3 SWAP8 PUSH3 0x2D17 PUSH1 0x9F SWAP6 MLOAD SWAP2 DUP5 PUSH3 0x2C1F JUMP JUMPDEST POP SWAP6 POP POP POP PUSH3 0x347E JUMP JUMPDEST DUP1 MLOAD SWAP1 PUSH3 0x34F7 PUSH3 0x2BAC JUMP JUMPDEST POP DUP2 MLOAD MLOAD PUSH1 0x1 DUP2 ADD SWAP1 DUP2 DUP2 GT PUSH3 0x12E0 JUMPI PUSH1 0x20 DUP5 ADD MLOAD DUP2 LT ISZERO PUSH3 0x354B JUMPI JUMPDEST PUSH1 0xFF PUSH1 0x20 DUP1 SWAP6 MLOAD SWAP3 DUP4 ADD ADD MSTORE8 DUP1 MLOAD DUP3 GT PUSH3 0x3542 JUMPI JUMPDEST POP POP ADD DUP1 MLOAD PUSH1 0x0 NOT DUP2 ADD SWAP2 SWAP1 DUP3 GT PUSH3 0x12E0 JUMPI MSTORE JUMP JUMPDEST MSTORE CODESIZE DUP1 PUSH3 0x352C JUMP JUMPDEST DUP2 PUSH1 0x1 SHL SWAP4 DUP3 DUP6 DIV PUSH1 0x2 EQ DUP4 ISZERO OR ISZERO PUSH3 0x12E0 JUMPI PUSH1 0x20 DUP2 PUSH3 0x3578 DUP3 SWAP8 PUSH3 0x2D17 PUSH1 0xFF SWAP6 MLOAD SWAP2 DUP5 PUSH3 0x2C1F JUMP JUMPDEST POP SWAP6 POP POP POP PUSH3 0x3516 JUMP JUMPDEST SWAP1 PUSH3 0x358E PUSH3 0x2BAC JUMP JUMPDEST POP DUP2 MLOAD MLOAD DUP1 PUSH1 0x8 ADD SWAP2 DUP3 PUSH1 0x8 GT PUSH3 0x12E0 JUMPI PUSH1 0x20 DUP5 ADD MLOAD DUP4 GT PUSH3 0x35D4 JUMPI JUMPDEST PUSH1 0x8 DUP5 MLOAD SWAP3 DUP4 ADD ADD SWAP1 PUSH8 0xFFFFFFFFFFFFFFFF NOT DUP3 MLOAD AND OR SWAP1 MSTORE DUP1 MLOAD DUP3 GT PUSH3 0x2D83 JUMPI POP POP SWAP1 JUMP JUMPDEST DUP3 PUSH1 0x1 SHL DUP4 DUP2 DIV PUSH1 0x2 EQ DUP5 ISZERO OR ISZERO PUSH3 0x12E0 JUMPI PUSH3 0x35F3 SWAP1 DUP6 PUSH3 0x313B JUMP JUMPDEST PUSH3 0x35AD JUMP JUMPDEST SWAP1 PUSH3 0x3604 PUSH3 0x2BAC JUMP JUMPDEST POP DUP2 MLOAD MLOAD DUP1 PUSH1 0x4 ADD SWAP2 DUP3 PUSH1 0x4 GT PUSH3 0x12E0 JUMPI PUSH1 0x20 DUP5 ADD MLOAD DUP4 GT PUSH3 0x3646 JUMPI JUMPDEST PUSH1 0x4 DUP5 MLOAD SWAP3 DUP4 ADD ADD SWAP1 PUSH4 0xFFFFFFFF NOT DUP3 MLOAD AND OR SWAP1 MSTORE DUP1 MLOAD DUP3 GT PUSH3 0x2D83 JUMPI POP POP SWAP1 JUMP JUMPDEST DUP3 PUSH1 0x1 SHL DUP4 DUP2 DIV PUSH1 0x2 EQ DUP5 ISZERO OR ISZERO PUSH3 0x12E0 JUMPI PUSH3 0x3665 SWAP1 DUP6 PUSH3 0x313B JUMP JUMPDEST PUSH3 0x3623 JUMP JUMPDEST SWAP1 PUSH3 0x3676 PUSH3 0x2BAC JUMP JUMPDEST POP DUP2 MLOAD MLOAD DUP1 PUSH1 0x2 ADD SWAP2 DUP3 PUSH1 0x2 GT PUSH3 0x12E0 JUMPI PUSH1 0x20 DUP5 ADD MLOAD DUP4 GT PUSH3 0x36B6 JUMPI JUMPDEST PUSH1 0x2 DUP5 MLOAD SWAP3 DUP4 ADD ADD SWAP1 PUSH2 0xFFFF NOT DUP3 MLOAD AND OR SWAP1 MSTORE DUP1 MLOAD DUP3 GT PUSH3 0x2D83 JUMPI POP POP SWAP1 JUMP JUMPDEST DUP3 PUSH1 0x1 SHL DUP4 DUP2 DIV PUSH1 0x2 EQ DUP5 ISZERO OR ISZERO PUSH3 0x12E0 JUMPI PUSH3 0x36D5 SWAP1 DUP6 PUSH3 0x313B JUMP JUMPDEST PUSH3 0x3695 JUMP JUMPDEST SWAP1 PUSH3 0x36E6 PUSH3 0x2BAC JUMP JUMPDEST POP DUP2 MLOAD MLOAD DUP1 PUSH1 0x1 ADD SWAP2 DUP3 PUSH1 0x1 GT PUSH3 0x12E0 JUMPI PUSH1 0x20 DUP5 ADD MLOAD DUP4 GT PUSH3 0x3725 JUMPI JUMPDEST PUSH1 0x1 DUP5 MLOAD SWAP3 DUP4 ADD ADD SWAP1 PUSH1 0xFF NOT DUP3 MLOAD AND OR SWAP1 MSTORE DUP1 MLOAD DUP3 GT PUSH3 0x2D83 JUMPI POP POP SWAP1 JUMP JUMPDEST DUP3 PUSH1 0x1 SHL DUP4 DUP2 DIV PUSH1 0x2 EQ DUP5 ISZERO OR ISZERO PUSH3 0x12E0 JUMPI PUSH3 0x3744 SWAP1 DUP6 PUSH3 0x313B JUMP JUMPDEST PUSH3 0x3705 JUMP JUMPDEST SWAP1 DUP2 MLOAD PUSH8 0xFFFFFFFFFFFFFFFF DUP2 GT PUSH3 0x38A JUMPI PUSH3 0x3775 DUP2 PUSH3 0x376F PUSH1 0x5 SLOAD PUSH3 0x797 JUMP JUMPDEST PUSH3 0x1DD8 JUMP JUMPDEST PUSH1 0x20 DUP1 PUSH1 0x1F DUP4 GT PUSH1 0x1 EQ PUSH3 0x37B4 JUMPI POP DUP2 SWAP3 SWAP4 PUSH1 0x0 SWAP3 PUSH3 0x37A8 JUMPI JUMPDEST POP POP DUP2 PUSH1 0x1 SHL SWAP2 PUSH1 0x0 NOT SWAP1 PUSH1 0x3 SHL SHR NOT AND OR PUSH1 0x5 SSTORE JUMP JUMPDEST ADD MLOAD SWAP1 POP CODESIZE DUP1 PUSH3 0x3791 JUMP JUMPDEST SWAP1 PUSH1 0x1F NOT DUP4 AND SWAP5 PUSH3 0x37E8 PUSH1 0x5 PUSH1 0x0 MSTORE PUSH32 0x36B6384B5ECA791C62761152D0C79BB0604C104A5FB6F4EB0703F3154BB3DB0 SWAP1 JUMP JUMPDEST SWAP3 PUSH1 0x0 SWAP1 JUMPDEST DUP8 DUP3 LT PUSH3 0x3828 JUMPI POP POP DUP4 PUSH1 0x1 SWAP6 SWAP7 LT PUSH3 0x380E JUMPI JUMPDEST POP POP POP DUP2 SHL ADD PUSH1 0x5 SSTORE JUMP JUMPDEST ADD MLOAD PUSH1 0x0 NOT PUSH1 0xF8 DUP5 PUSH1 0x3 SHL AND SHR NOT AND SWAP1 SSTORE CODESIZE DUP1 DUP1 PUSH3 0x3803 JUMP JUMPDEST DUP1 PUSH1 0x1 DUP6 SWAP7 DUP3 SWAP5 SWAP7 DUP7 ADD MLOAD DUP2 SSTORE ADD SWAP6 ADD SWAP4 ADD SWAP1 PUSH3 0x37ED JUMP JUMPDEST PUSH1 0x20 DUP2 MLOAD SWAP2 ADD MLOAD SWAP1 PUSH1 0x20 DUP2 LT PUSH3 0x3856 JUMPI POP SWAP1 JUMP JUMPDEST PUSH1 0x0 NOT SWAP1 PUSH1 0x20 SUB PUSH1 0x3 SHL SHL AND SWAP1 JUMP JUMPDEST PUSH1 0x1E SLOAD PUSH9 0x10000000000000000 DUP2 LT ISZERO PUSH3 0x38A JUMPI PUSH3 0x388D PUSH1 0x1 SWAP2 DUP3 DUP2 ADD PUSH1 0x1E SSTORE PUSH3 0x743 JUMP JUMPDEST SWAP3 SWAP1 SWAP3 PUSH3 0x396E JUMPI DUP1 MLOAD SWAP1 PUSH8 0xFFFFFFFFFFFFFFFF DUP3 GT PUSH3 0x38A JUMPI PUSH3 0x38C0 DUP3 PUSH3 0x38B9 DUP7 SLOAD PUSH3 0x797 JUMP JUMPDEST DUP7 PUSH3 0x1E32 JUMP JUMPDEST PUSH1 0x20 SWAP1 DUP2 PUSH1 0x1F DUP5 GT PUSH1 0x1 EQ PUSH3 0x38FF JUMPI POP SWAP3 DUP3 SWAP4 SWAP2 DUP4 SWAP3 PUSH1 0x0 SWAP5 PUSH3 0x38F3 JUMPI JUMPDEST POP POP SHL SWAP2 PUSH1 0x0 NOT SWAP1 PUSH1 0x3 SHL SHR NOT AND OR SWAP1 SSTORE JUMP JUMPDEST ADD MLOAD SWAP3 POP CODESIZE DUP1 PUSH3 0x38E0 JUMP JUMPDEST SWAP2 SWAP1 DUP4 PUSH1 0x1F NOT DUP2 AND PUSH3 0x3917 DUP9 PUSH1 0x0 MSTORE PUSH1 0x20 PUSH1 0x0 KECCAK256 SWAP1 JUMP JUMPDEST SWAP5 PUSH1 0x0 SWAP1 JUMPDEST DUP9 DUP4 DUP4 LT PUSH3 0x3953 JUMPI POP POP POP LT PUSH3 0x3939 JUMPI JUMPDEST POP POP POP DUP2 SHL ADD SWAP1 SSTORE JUMP JUMPDEST ADD MLOAD PUSH1 0x0 NOT PUSH1 0xF8 DUP5 PUSH1 0x3 SHL AND SHR NOT AND SWAP1 SSTORE CODESIZE DUP1 DUP1 PUSH3 0x392F JUMP JUMPDEST DUP6 DUP8 ADD MLOAD DUP9 SSTORE SWAP1 SWAP7 ADD SWAP6 SWAP5 DUP6 ADD SWAP5 DUP8 SWAP4 POP SWAP1 DUP2 ADD SWAP1 PUSH3 0x391C JUMP JUMPDEST PUSH3 0x781 JUMP JUMPDEST SWAP1 SWAP2 PUSH3 0x398E PUSH3 0x9C8 SWAP4 PUSH1 0x40 DUP5 MSTORE PUSH1 0x40 DUP5 ADD SWAP1 PUSH3 0x973 JUMP JUMPDEST SWAP2 PUSH1 0x20 DUP2 DUP5 SUB SWAP2 ADD MSTORE PUSH3 0x973 JUMP JUMPDEST ISZERO PUSH3 0x39A5 JUMPI JUMP JUMPDEST PUSH1 0x64 PUSH1 0x40 MLOAD PUSH3 0x461BCD PUSH1 0xE5 SHL DUP2 MSTORE PUSH1 0x20 PUSH1 0x4 DUP3 ADD MSTORE PUSH1 0x1B PUSH1 0x24 DUP3 ADD MSTORE PUSH32 0x4572726F20616F207061676172206120696E64656E697A6163616F0000000000 PUSH1 0x44 DUP3 ADD MSTORE REVERT JUMPDEST PUSH1 0x20 SLOAD PUSH1 0x1C SLOAD GT ISZERO PUSH3 0x3A2F JUMPI PUSH3 0x815 PUSH1 0x0 DUP1 DUP1 DUP1 PUSH3 0x3A1A PUSH3 0xC8B PUSH3 0xC8B PUSH1 0x19 SLOAD PUSH1 0x1 PUSH1 0x1 PUSH1 0xA0 SHL SUB AND SWAP1 JUMP JUMPDEST SELFBALANCE SWAP1 GAS CALL PUSH3 0x3A28 PUSH3 0x2141 JUMP JUMPDEST POP PUSH3 0x399D JUMP JUMPDEST PUSH1 0x0 DUP1 DUP1 DUP1 PUSH1 0x1 PUSH1 0x1 PUSH1 0xA0 SHL SUB PUSH1 0x18 SLOAD PUSH1 0x8 SHR AND SELFBALANCE SWAP1 GAS CALL PUSH3 0x3A51 PUSH3 0x2141 JUMP JUMPDEST POP ISZERO PUSH3 0x3A5A JUMPI JUMP JUMPDEST PUSH1 0x84 PUSH1 0x40 MLOAD PUSH3 0x461BCD PUSH1 0xE5 SHL DUP2 MSTORE PUSH1 0x20 PUSH1 0x4 DUP3 ADD MSTORE PUSH1 0x2D PUSH1 0x24 DUP3 ADD MSTORE PUSH32 0x4572726F20616F207265746F726E6172206F732066756E646F73207061726120 PUSH1 0x44 DUP3 ADD MSTORE PUSH32 0x6120696E73746974756963616F00000000000000000000000000000000000000 PUSH1 0x64 DUP3 ADD MSTORE REVERT INVALID PUSH1 0xC0 CALLVALUE PUSH2 0xBC JUMPI PUSH1 0x1F PUSH2 0x73A CODESIZE DUP2 SWAP1 SUB SWAP2 DUP3 ADD PUSH1 0x1F NOT AND DUP4 ADD SWAP2 PUSH1 0x1 PUSH1 0x1 PUSH1 0x40 SHL SUB DUP4 GT DUP5 DUP5 LT OR PUSH2 0xC1 JUMPI DUP1 DUP5 SWAP3 PUSH1 0x60 SWAP5 PUSH1 0x40 MSTORE DUP4 CODECOPY DUP2 ADD SUB SLT PUSH2 0xBC JUMPI PUSH2 0x47 DUP2 PUSH2 0xD7 JUMP JUMPDEST SWAP1 PUSH1 0x40 PUSH2 0x56 PUSH1 0x20 DUP4 ADD PUSH2 0xD7 JUMP JUMPDEST SWAP2 ADD MLOAD PUSH1 0x1 PUSH1 0x1 PUSH1 0x60 SHL SUB DUP2 AND SWAP3 SWAP1 DUP4 SWAP1 SUB PUSH2 0xBC JUMPI PUSH1 0x80 MSTORE PUSH1 0xA0 MSTORE PUSH1 0x1 DUP1 SLOAD PUSH1 0x1 PUSH1 0x1 PUSH1 0x60 SHL SUB NOT AND SWAP2 SWAP1 SWAP2 OR SWAP1 SSTORE PUSH1 0x40 MLOAD PUSH2 0x64E SWAP1 DUP2 PUSH2 0xEC DUP3 CODECOPY PUSH1 0x80 MLOAD DUP2 DUP2 DUP2 PUSH2 0x114 ADD MSTORE DUP2 DUP2 PUSH2 0x199 ADD MSTORE PUSH2 0x373 ADD MSTORE PUSH1 0xA0 MLOAD DUP2 DUP2 DUP2 PUSH2 0x1DC ADD MSTORE PUSH2 0x33B ADD MSTORE RETURN JUMPDEST PUSH1 0x0 DUP1 REVERT JUMPDEST PUSH4 0x4E487B71 PUSH1 0xE0 SHL PUSH1 0x0 MSTORE PUSH1 0x41 PUSH1 0x4 MSTORE PUSH1 0x24 PUSH1 0x0 REVERT JUMPDEST MLOAD SWAP1 PUSH1 0x1 PUSH1 0x1 PUSH1 0xA0 SHL SUB DUP3 AND DUP3 SUB PUSH2 0xBC JUMPI JUMP INVALID PUSH1 0x80 PUSH1 0x40 DUP2 DUP2 MSTORE PUSH1 0x4 CALLDATASIZE LT ISZERO PUSH2 0x14 JUMPI PUSH1 0x0 DUP1 REVERT JUMPDEST PUSH1 0x0 SWAP2 DUP3 CALLDATALOAD PUSH1 0xE0 SHR SWAP1 DUP2 PUSH4 0x1619D3D EQ PUSH2 0x200 JUMPI POP DUP1 PUSH4 0x442B1278 EQ PUSH2 0x1BD JUMPI DUP1 PUSH4 0x7D253AFF EQ PUSH2 0x17A JUMPI DUP1 PUSH4 0xB60D4288 EQ PUSH2 0xA9 JUMPI PUSH4 0xBC61A473 EQ PUSH2 0x59 JUMPI PUSH1 0x0 DUP1 REVERT JUMPDEST CALLVALUE PUSH2 0xA5 JUMPI PUSH1 0x3 NOT SWAP2 PUSH1 0x20 CALLDATASIZE DUP5 ADD SLT PUSH2 0xA2 JUMPI PUSH1 0x4 CALLDATALOAD SWAP3 PUSH8 0xFFFFFFFFFFFFFFFF DUP5 GT PUSH2 0xA5 JUMPI PUSH2 0x140 SWAP1 DUP5 CALLDATASIZE SUB ADD SLT PUSH2 0xA2 JUMPI POP PUSH2 0x9B PUSH1 0x20 SWAP3 PUSH1 0x4 ADD PUSH2 0x2E6 JUMP JUMPDEST SWAP1 MLOAD SWAP1 DUP2 MSTORE RETURN JUMPDEST DUP1 REVERT JUMPDEST POP DUP1 REVERT JUMPDEST POP CALLVALUE PUSH2 0xA5 JUMPI DUP2 PUSH1 0x3 NOT CALLDATASIZE ADD SLT PUSH2 0xA5 JUMPI PUSH12 0xFFFFFFFFFFFFFFFFFFFFFFFF PUSH1 0x1 SLOAD AND SWAP1 DUP1 MLOAD SWAP2 PUSH32 0x23B872DD00000000000000000000000000000000000000000000000000000000 DUP4 MSTORE CALLER PUSH1 0x4 DUP5 ADD MSTORE ADDRESS PUSH1 0x24 DUP5 ADD MSTORE PUSH1 0x44 DUP4 ADD MSTORE PUSH1 0x20 DUP3 PUSH1 0x64 DUP2 DUP7 PUSH1 0x1 PUSH1 0x1 PUSH1 0xA0 SHL SUB PUSH32 0x0 AND GAS CALL SWAP1 DUP2 ISZERO PUSH2 0x171 JUMPI POP PUSH2 0x146 JUMPI POP DUP1 RETURN JUMPDEST PUSH2 0x166 SWAP1 PUSH1 0x20 RETURNDATASIZE DUP2 GT PUSH2 0x16A JUMPI JUMPDEST PUSH2 0x15E DUP2 DUP4 PUSH2 0x22A JUMP JUMPDEST DUP2 ADD SWAP1 PUSH2 0x262 JUMP JUMPDEST POP DUP1 RETURN JUMPDEST POP RETURNDATASIZE PUSH2 0x154 JUMP JUMPDEST MLOAD RETURNDATASIZE DUP5 DUP3 RETURNDATACOPY RETURNDATASIZE SWAP1 REVERT JUMPDEST POP CALLVALUE PUSH2 0xA5 JUMPI DUP2 PUSH1 0x3 NOT CALLDATASIZE ADD SLT PUSH2 0xA5 JUMPI PUSH1 0x20 SWAP1 MLOAD PUSH1 0x1 PUSH1 0x1 PUSH1 0xA0 SHL SUB PUSH32 0x0 AND DUP2 MSTORE RETURN JUMPDEST POP CALLVALUE PUSH2 0xA5 JUMPI DUP2 PUSH1 0x3 NOT CALLDATASIZE ADD SLT PUSH2 0xA5 JUMPI PUSH1 0x20 SWAP1 MLOAD PUSH1 0x1 PUSH1 0x1 PUSH1 0xA0 SHL SUB PUSH32 0x0 AND DUP2 MSTORE RETURN JUMPDEST DUP4 SWAP1 CALLVALUE PUSH2 0xA5 JUMPI DUP2 PUSH1 0x3 NOT CALLDATASIZE ADD SLT PUSH2 0xA5 JUMPI PUSH1 0x20 SWAP1 PUSH12 0xFFFFFFFFFFFFFFFFFFFFFFFF PUSH1 0x1 SLOAD AND DUP2 MSTORE RETURN JUMPDEST SWAP1 PUSH1 0x1F DUP1 NOT SWAP2 ADD AND DUP2 ADD SWAP1 DUP2 LT PUSH8 0xFFFFFFFFFFFFFFFF DUP3 GT OR PUSH2 0x24C JUMPI PUSH1 0x40 MSTORE JUMP JUMPDEST PUSH4 0x4E487B71 PUSH1 0xE0 SHL PUSH1 0x0 MSTORE PUSH1 0x41 PUSH1 0x4 MSTORE PUSH1 0x24 PUSH1 0x0 REVERT JUMPDEST SWAP1 DUP2 PUSH1 0x20 SWAP2 SUB SLT PUSH2 0x27A JUMPI MLOAD DUP1 ISZERO ISZERO DUP2 SUB PUSH2 0x27A JUMPI SWAP1 JUMP JUMPDEST PUSH1 0x0 DUP1 REVERT JUMPDEST SWAP1 CALLDATALOAD PUSH1 0x1E NOT DUP3 CALLDATASIZE SUB ADD DUP2 SLT ISZERO PUSH2 0x27A JUMPI ADD PUSH1 0x20 DUP2 CALLDATALOAD SWAP2 ADD SWAP2 PUSH8 0xFFFFFFFFFFFFFFFF DUP3 GT PUSH2 0x27A JUMPI DUP2 CALLDATASIZE SUB DUP4 SGT PUSH2 0x27A JUMPI JUMP JUMPDEST SWAP1 DUP1 PUSH1 0x20 SWAP4 SWAP3 DUP2 DUP5 MSTORE DUP5 DUP5 ADD CALLDATACOPY PUSH1 0x0 DUP3 DUP3 ADD DUP5 ADD MSTORE PUSH1 0x1F ADD PUSH1 0x1F NOT AND ADD ADD SWAP1 JUMP JUMPDEST CALLDATALOAD SWAP1 PUSH1 0x1 PUSH1 0x1 PUSH1 0xA0 SHL SUB DUP3 AND DUP3 SUB PUSH2 0x27A JUMPI JUMP JUMPDEST SWAP1 PUSH1 0x0 SWAP2 PUSH2 0x120 DUP2 ADD CALLDATALOAD SWAP1 PUSH12 0xFFFFFFFFFFFFFFFFFFFFFFFF DUP3 AND DUP1 SWAP3 SUB PUSH2 0x5ED JUMPI PUSH1 0x40 DUP1 MLOAD SWAP2 PUSH32 0x95EA7B300000000000000000000000000000000000000000000000000000000 DUP4 MSTORE PUSH1 0x1 PUSH1 0x1 PUSH1 0xA0 SHL SUB SWAP1 DUP2 PUSH32 0x0 AND DUP1 PUSH1 0x4 DUP7 ADD MSTORE DUP6 PUSH1 0x24 DUP7 ADD MSTORE PUSH1 0x20 SWAP5 DUP6 DUP2 PUSH1 0x44 DUP2 DUP13 DUP9 PUSH32 0x0 AND GAS CALL DUP1 ISZERO PUSH2 0x60E JUMPI PUSH2 0x5F1 JUMPI JUMPDEST POP DUP4 MLOAD SWAP6 PUSH32 0x3F678E1100000000000000000000000000000000000000000000000000000000 DUP8 MSTORE DUP6 PUSH1 0x4 DUP9 ADD MSTORE DUP9 PUSH2 0x3EE PUSH2 0x3DB DUP6 DUP1 PUSH2 0x27F JUMP JUMPDEST PUSH2 0x140 PUSH1 0x24 DUP13 ADD MSTORE PUSH2 0x164 DUP12 ADD SWAP2 PUSH2 0x2B1 JUMP JUMPDEST SWAP2 PUSH2 0x412 PUSH2 0x3FE DUP10 DUP8 ADD DUP8 PUSH2 0x27F JUMP JUMPDEST PUSH1 0x23 NOT DUP13 DUP8 SUB DUP2 ADD PUSH1 0x44 DUP15 ADD MSTORE SWAP6 SWAP2 PUSH2 0x2B1 JUMP JUMPDEST SWAP6 DUP1 PUSH2 0x41F DUP10 DUP9 ADD PUSH2 0x2D2 JUMP JUMPDEST AND PUSH1 0x64 DUP12 ADD MSTORE PUSH1 0x60 DUP7 ADD CALLDATALOAD PUSH4 0xFFFFFFFF DUP2 AND DUP1 SWAP2 SUB PUSH2 0x5ED JUMPI PUSH1 0x84 DUP12 ADD MSTORE PUSH2 0x449 PUSH1 0x80 DUP8 ADD PUSH2 0x2D2 JUMP JUMPDEST AND PUSH1 0xA4 DUP11 ADD MSTORE PUSH1 0xA0 DUP6 ADD CALLDATALOAD SWAP1 PUSH1 0xFF DUP3 AND DUP1 SWAP3 SUB PUSH2 0x5E9 JUMPI PUSH2 0x4D0 DUP11 SWAP7 DUP8 SWAP6 PUSH2 0x4C0 PUSH2 0x4B4 PUSH2 0x496 DUP15 SWAP13 DUP11 SWAP9 PUSH1 0xC4 DUP11 ADD MSTORE PUSH2 0x486 PUSH1 0xC0 DUP8 ADD DUP8 PUSH2 0x27F JUMP JUMPDEST SWAP1 DUP7 DUP12 DUP5 SUB ADD PUSH1 0xE4 DUP13 ADD MSTORE PUSH2 0x2B1 JUMP JUMPDEST PUSH2 0x4A3 PUSH1 0xE0 DUP7 ADD DUP7 PUSH2 0x27F JUMP JUMPDEST SWAP1 DUP6 DUP11 DUP5 SUB ADD PUSH2 0x104 DUP12 ADD MSTORE PUSH2 0x2B1 JUMP JUMPDEST SWAP3 PUSH2 0x100 DUP2 ADD SWAP1 PUSH2 0x27F JUMP JUMPDEST SWAP2 DUP7 DUP5 SUB ADD PUSH2 0x124 DUP8 ADD MSTORE PUSH2 0x2B1 JUMP JUMPDEST SWAP1 PUSH2 0x144 DUP4 ADD MSTORE SUB SWAP3 GAS CALL SWAP3 DUP4 ISZERO PUSH2 0x5DF JUMPI DUP6 SWAP4 PUSH2 0x5AC JUMPI JUMPDEST POP DUP3 ISZERO PUSH2 0x54F JUMPI CALLER DUP6 MSTORE DUP5 DUP3 MSTORE DUP5 KECCAK256 SWAP1 DUP2 SLOAD SWAP2 PUSH9 0x10000000000000000 DUP4 LT ISZERO PUSH2 0x53B JUMPI PUSH1 0x1 DUP4 ADD DUP1 DUP3 SSTORE DUP4 LT ISZERO PUSH2 0x527 JUMPI SWAP5 DUP4 SWAP5 SWAP6 DUP2 MSTORE KECCAK256 ADD SSTORE SWAP1 JUMP JUMPDEST PUSH1 0x24 DUP7 PUSH4 0x4E487B71 PUSH1 0xE0 SHL DUP2 MSTORE PUSH1 0x32 PUSH1 0x4 MSTORE REVERT JUMPDEST PUSH1 0x24 DUP7 PUSH4 0x4E487B71 PUSH1 0xE0 SHL DUP2 MSTORE PUSH1 0x41 PUSH1 0x4 MSTORE REVERT JUMPDEST PUSH1 0x64 SWAP3 POP MLOAD SWAP1 PUSH32 0x8C379A000000000000000000000000000000000000000000000000000000000 DUP3 MSTORE PUSH1 0x4 DUP3 ADD MSTORE PUSH1 0x15 PUSH1 0x24 DUP3 ADD MSTORE PUSH32 0x6175746F2D617070726F76652064697361626C65640000000000000000000000 PUSH1 0x44 DUP3 ADD MSTORE REVERT JUMPDEST SWAP1 SWAP3 POP DUP2 DUP2 DUP2 RETURNDATASIZE DUP4 GT PUSH2 0x5D8 JUMPI JUMPDEST PUSH2 0x5C4 DUP2 DUP4 PUSH2 0x22A JUMP JUMPDEST DUP2 ADD SUB SLT PUSH2 0x5D4 JUMPI MLOAD SWAP2 CODESIZE PUSH2 0x4E9 JUMP JUMPDEST DUP5 DUP1 REVERT JUMPDEST POP RETURNDATASIZE PUSH2 0x5BA JUMP JUMPDEST DUP2 MLOAD RETURNDATASIZE DUP8 DUP3 RETURNDATACOPY RETURNDATASIZE SWAP1 REVERT JUMPDEST DUP3 DUP1 REVERT JUMPDEST DUP4 DUP1 REVERT JUMPDEST PUSH2 0x607 SWAP1 DUP7 RETURNDATASIZE DUP9 GT PUSH2 0x16A JUMPI PUSH2 0x15E DUP2 DUP4 PUSH2 0x22A JUMP JUMPDEST POP CODESIZE PUSH2 0x3A0 JUMP JUMPDEST DUP6 MLOAD RETURNDATASIZE DUP12 DUP3 RETURNDATACOPY RETURNDATASIZE SWAP1 REVERT INVALID LOG2 PUSH5 0x6970667358 0x22 SLT KECCAK256 SWAP13 LOG4 SSTORE 0xBE PUSH2 0xC45D SWAP13 PUSH31 0x515967F303B8AB4A822792FD7267D08664D38B1D82E42764736F6C63430008 SGT STOP CALLER LOG2 PUSH5 0x6970667358 0x22 SLT KECCAK256 PUSH29 0xAF9916E989FD42F3E6166B7694FFDBDAE44454849483182C2A3D7A5BB9 GAS 0xE4 PUSH5 0x736F6C6343 STOP ADDMOD SGT STOP CALLER LOG2 PUSH5 0x6970667358 0x22 SLT KECCAK256 0x2A 0xAB SWAP1 PC 0xE9 PUSH11 0x2E0DFB5A0A3A48CB14270E 0xD4 EXTCODESIZE DUP2 0xD2 0x2D 0x2F DUP4 0xA8 0xB5 0x2A 0xC9 GAS PUSH12 0xA96464736F6C634300081300 CALLER "},"methodIdentifiers":{"blacklistAddr(address)":"8a699f00","contractBalance()":"8b7afe2e","contracts(address,uint256)":"ed23f8c3","createInsuranceContract(address,address,uint256,uint256,uint256,uint256,address,uint64,address,address,address,uint96,uint32)":"de5e5b7b","getInsurance(uint256)":"85fae602","i_owner()":"dba6335f","id()":"af640d0f","institutionName()":"3a133e2c","isWhiteListed(address)":"6f9170f6","registerInfo(string,string)":"6a4ac979","whitelist(address)":"9b19251a","whitelistAddr(address)":"080a57f9","withdraw()":"3ccfd60b"}}}}}