{"contracts/mock/mockAutomatedFunctionsConsumer.sol":{"AutomatedFunctionsConsumer":{"abi":[{"inputs":[{"internalType":"address","name":"_deployer","type":"address"},{"internalType":"address","name":"_farmer","type":"address"},{"internalType":"uint256","name":"_humidityLimit","type":"uint256"},{"internalType":"uint256","name":"_maxSampleQuantity","type":"uint256"},{"internalType":"uint256","name":"_reparationValue","type":"uint256"},{"internalType":"uint256","name":"_interval","type":"uint256"},{"internalType":"address","name":"_router","type":"address"},{"internalType":"uint64","name":"_subscriptionId","type":"uint64"},{"internalType":"address","name":"_registry","type":"address"},{"internalType":"address","name":"_sepoliaLINKAddress","type":"address"},{"internalType":"address","name":"_sepoliaRegistrarAddress","type":"address"},{"internalType":"uint32","name":"_fulfillGasLimit","type":"uint32"}],"stateMutability":"payable","type":"constructor"},{"inputs":[{"internalType":"address","name":"caller","type":"address"},{"internalType":"address","name":"owner","type":"address"},{"internalType":"address","name":"automationRegistry","type":"address"}],"name":"NotAllowedCaller","type":"error"},{"inputs":[{"internalType":"bytes32","name":"requestId","type":"bytes32"}],"name":"UnexpectedRequestID","type":"error"},{"anonymous":false,"inputs":[{"indexed":false,"internalType":"uint8","name":"controlFlag","type":"uint8"}],"name":"ControlFlagValue","type":"event"},{"anonymous":false,"inputs":[{"indexed":true,"internalType":"bytes32","name":"requestId","type":"bytes32"},{"indexed":false,"internalType":"bytes","name":"result","type":"bytes"},{"indexed":false,"internalType":"bytes","name":"err","type":"bytes"}],"name":"OCRResponse","type":"event"},{"anonymous":false,"inputs":[{"indexed":true,"internalType":"address","name":"from","type":"address"},{"indexed":true,"internalType":"address","name":"to","type":"address"}],"name":"OwnershipTransferRequested","type":"event"},{"anonymous":false,"inputs":[{"indexed":true,"internalType":"address","name":"from","type":"address"},{"indexed":true,"internalType":"address","name":"to","type":"address"}],"name":"OwnershipTransferred","type":"event"},{"anonymous":false,"inputs":[{"indexed":false,"internalType":"bytes32","name":"requestId","type":"bytes32"}],"name":"RequestIdUpdated","type":"event"},{"anonymous":false,"inputs":[{"indexed":false,"internalType":"string","name":"reason","type":"string"}],"name":"RequestRevertedWithErrorMsg","type":"event"},{"anonymous":false,"inputs":[{"indexed":false,"internalType":"bytes","name":"data","type":"bytes"}],"name":"RequestRevertedWithoutErrorMsg","type":"event"},{"anonymous":false,"inputs":[{"indexed":true,"internalType":"bytes32","name":"id","type":"bytes32"}],"name":"RequestSent","type":"event"},{"anonymous":false,"inputs":[{"indexed":true,"internalType":"bytes32","name":"requestId","type":"bytes32"},{"indexed":false,"internalType":"bytes","name":"response","type":"bytes"},{"indexed":false,"internalType":"bytes","name":"err","type":"bytes"}],"name":"Response","type":"event"},{"anonymous":false,"inputs":[{"indexed":false,"internalType":"uint256","name":"length","type":"uint256"}],"name":"sampleStorageLength","type":"event"},{"anonymous":false,"inputs":[{"indexed":false,"internalType":"address","name":"upkeepAddress","type":"address"}],"name":"upkeepCreated","type":"event"},{"anonymous":false,"inputs":[{"indexed":false,"internalType":"uint256","name":"upkeepId","type":"uint256"}],"name":"upkeepRegistered","type":"event"},{"inputs":[],"name":"REQUEST_DATA_VERSION","outputs":[{"internalType":"uint16","name":"","type":"uint16"}],"stateMutability":"view","type":"function"},{"inputs":[],"name":"acceptOwnership","outputs":[],"stateMutability":"nonpayable","type":"function"},{"inputs":[{"internalType":"bytes","name":"","type":"bytes"}],"name":"checkUpkeep","outputs":[{"internalType":"bool","name":"upkeepNeeded","type":"bool"},{"internalType":"bytes","name":"performData","type":"bytes"}],"stateMutability":"view","type":"function"},{"inputs":[],"name":"computationCBOR","outputs":[{"internalType":"bytes","name":"","type":"bytes"}],"stateMutability":"view","type":"function"},{"inputs":[],"name":"contractBalance","outputs":[{"internalType":"uint256","name":"","type":"uint256"}],"stateMutability":"view","type":"function"},{"inputs":[],"name":"donID","outputs":[{"internalType":"bytes32","name":"","type":"bytes32"}],"stateMutability":"view","type":"function"},{"inputs":[],"name":"farmer","outputs":[{"internalType":"address","name":"","type":"address"}],"stateMutability":"view","type":"function"},{"inputs":[],"name":"fulfillGasLimit","outputs":[{"internalType":"uint32","name":"","type":"uint32"}],"stateMutability":"view","type":"function"},{"inputs":[{"internalType":"bytes32","name":"requestId","type":"bytes32"},{"internalType":"bytes","name":"response","type":"bytes"},{"internalType":"bytes","name":"err","type":"bytes"}],"name":"fulfillRequest","outputs":[],"stateMutability":"nonpayable","type":"function"},{"inputs":[],"name":"gasLimit","outputs":[{"internalType":"uint32","name":"","type":"uint32"}],"stateMutability":"view","type":"function"},{"inputs":[],"name":"humidityLimit","outputs":[{"internalType":"uint256","name":"","type":"uint256"}],"stateMutability":"view","type":"function"},{"inputs":[],"name":"institution","outputs":[{"internalType":"address","name":"","type":"address"}],"stateMutability":"view","type":"function"},{"inputs":[],"name":"interval","outputs":[{"internalType":"uint256","name":"","type":"uint256"}],"stateMutability":"view","type":"function"},{"inputs":[],"name":"lastUpkeepTimeStamp","outputs":[{"internalType":"uint256","name":"","type":"uint256"}],"stateMutability":"view","type":"function"},{"inputs":[],"name":"latestError","outputs":[{"internalType":"bytes","name":"","type":"bytes"}],"stateMutability":"view","type":"function"},{"inputs":[],"name":"latestRequestId","outputs":[{"internalType":"bytes32","name":"","type":"bytes32"}],"stateMutability":"view","type":"function"},{"inputs":[],"name":"latestResponse","outputs":[{"internalType":"bytes","name":"","type":"bytes"}],"stateMutability":"view","type":"function"},{"inputs":[],"name":"maxSampleQuantity","outputs":[{"internalType":"uint256","name":"","type":"uint256"}],"stateMutability":"view","type":"function"},{"inputs":[],"name":"owner","outputs":[{"internalType":"address","name":"","type":"address"}],"stateMutability":"view","type":"function"},{"inputs":[{"internalType":"bytes","name":"","type":"bytes"},{"internalType":"uint256","name":"mockSampleStorageLength","type":"uint256"}],"name":"performUpkeep","outputs":[],"stateMutability":"nonpayable","type":"function"},{"inputs":[],"name":"registry","outputs":[{"internalType":"address","name":"","type":"address"}],"stateMutability":"view","type":"function"},{"inputs":[],"name":"reparationValue","outputs":[{"internalType":"uint256","name":"","type":"uint256"}],"stateMutability":"view","type":"function"},{"inputs":[],"name":"request","outputs":[{"internalType":"bytes","name":"","type":"bytes"}],"stateMutability":"view","type":"function"},{"inputs":[],"name":"requestCBOR","outputs":[{"internalType":"bytes","name":"","type":"bytes"}],"stateMutability":"view","type":"function"},{"inputs":[],"name":"requestId","outputs":[{"internalType":"bytes32","name":"","type":"bytes32"}],"stateMutability":"view","type":"function"},{"inputs":[{"internalType":"bytes32","name":"","type":"bytes32"},{"internalType":"uint256","name":"","type":"uint256"}],"name":"requests","outputs":[{"internalType":"uint64","name":"subscriptionId","type":"uint64"},{"internalType":"bytes","name":"data","type":"bytes"},{"internalType":"uint16","name":"DATA_VERSION","type":"uint16"},{"internalType":"uint32","name":"callbackGasLimit","type":"uint32"},{"internalType":"bytes32","name":"donId","type":"bytes32"}],"stateMutability":"view","type":"function"},{"inputs":[],"name":"responseCounter","outputs":[{"internalType":"uint256","name":"","type":"uint256"}],"stateMutability":"view","type":"function"},{"inputs":[],"name":"router","outputs":[{"internalType":"address","name":"","type":"address"}],"stateMutability":"view","type":"function"},{"inputs":[],"name":"s_lastError","outputs":[{"internalType":"bytes","name":"","type":"bytes"}],"stateMutability":"view","type":"function"},{"inputs":[],"name":"s_lastRequestId","outputs":[{"internalType":"bytes32","name":"","type":"bytes32"}],"stateMutability":"view","type":"function"},{"inputs":[],"name":"s_lastResponse","outputs":[{"internalType":"bytes","name":"","type":"bytes"}],"stateMutability":"view","type":"function"},{"inputs":[],"name":"s_requestCounter","outputs":[{"internalType":"uint256","name":"","type":"uint256"}],"stateMutability":"view","type":"function"},{"inputs":[],"name":"s_responseCounter","outputs":[{"internalType":"uint256","name":"","type":"uint256"}],"stateMutability":"view","type":"function"},{"inputs":[],"name":"s_upkeepCounter","outputs":[{"internalType":"uint256","name":"","type":"uint256"}],"stateMutability":"view","type":"function"},{"inputs":[{"internalType":"uint256","name":"","type":"uint256"}],"name":"sampleStorage","outputs":[{"internalType":"bytes","name":"","type":"bytes"}],"stateMutability":"view","type":"function"},{"inputs":[],"name":"sepoliaLINKAddress","outputs":[{"internalType":"address","name":"","type":"address"}],"stateMutability":"view","type":"function"},{"inputs":[],"name":"sepoliaRegistrarAddress","outputs":[{"internalType":"address","name":"","type":"address"}],"stateMutability":"view","type":"function"},{"inputs":[{"internalType":"bytes","name":"receivedCBOR","type":"bytes"}],"name":"setComputation","outputs":[],"stateMutability":"nonpayable","type":"function"},{"inputs":[{"internalType":"bytes","name":"newRequestCBOR","type":"bytes"},{"internalType":"uint64","name":"_subscriptionId","type":"uint64"},{"internalType":"bytes32","name":"_donID","type":"bytes32"}],"name":"setRequest","outputs":[],"stateMutability":"nonpayable","type":"function"},{"inputs":[],"name":"subscriptionId","outputs":[{"internalType":"uint64","name":"","type":"uint64"}],"stateMutability":"view","type":"function"},{"inputs":[{"internalType":"address","name":"to","type":"address"}],"name":"transferOwnership","outputs":[],"stateMutability":"nonpayable","type":"function"},{"inputs":[],"name":"upkeepContract","outputs":[{"internalType":"address","name":"","type":"address"}],"stateMutability":"view","type":"function"},{"inputs":[],"name":"upkeepCounter","outputs":[{"internalType":"uint256","name":"","type":"uint256"}],"stateMutability":"view","type":"function"},{"inputs":[],"name":"upkeepId","outputs":[{"internalType":"uint256","name":"","type":"uint256"}],"stateMutability":"view","type":"function"}],"evm":{"bytecode":{"linkReferences":{},"object":"60806001600160401b03601f62001f3238819003918201601f191684019183831185841017620001d15780859261018094604052833981010312620001cc576200004982620001e7565b6200005760208401620001e7565b9260408101519060608101519260808201519160a0810151936200007e60c08301620001e7565b60e0830151978816809803620001cc576200009d6101008401620001e7565b98620000ad6101208501620001e7565b91610160620000c06101408701620001e7565b9501519763ffffffff89168903620001cc57600180556001600160a01b0396871697881562000187576bffffffff00000000000000009a88968780968c60018060a01b03199d8e60035416176003558d601c541617601c55168b601d541617601d55602055602155601f55600a551685600c541617600c5581600954991685600d541617600d551683601a541617601a551690601b541617601b5560401b169160018060601b0319161717600955426018556001600e55604051611d359081620001fd8239f35b60405162461bcd60e51b815260206004820152601860248201527f43616e6e6f7420736574206f776e657220746f207a65726f00000000000000006044820152606490fd5b600080fd5b634e487b7160e01b600052604160045260246000fd5b51906001600160a01b0382168203620001cc5756fe608060408181526004918236101561001657600080fd5b600092833560e01c9182626d6cae1461168b57508163089ea02e1461166c57816309c1ba2e146116435781631243bcc31461161b5781631aa46f59146115fc57816324b93e3e146115d6578163277e221314611588578163338cdca1146114de57816336e6a92f14611349578163381fc4b51461132a5781633944ea3a1461128057816339b0512214610e4757816343cd3d8614610e2857816348802b9214610e0957816348bd6f0514610dea5781634b0795a814610d405781635d641dfc14610d245781635e0611f114610cfc578163688ecfd114610cde5781636baa48fe14610cb65781636e04ff0d14610c115781636e74336b14610bf257816379ba509714610b365781637ae4e3fb14610b175781637b10399914610aef5781637d95f68a146109675781638b7afe2e1461094c5781638da5cb5b14610924578163947a36fb146109055781639655e6d81461086e578163a309713914610850578163a3d3c0d214610831578163b1e2174914610812578163b8a4836e14610573578163bd4ca97b14610542578163bef3a2f014610498578163d1384eb614610470578163d2aa789f14610451578163d811fcf014610429578163f2fde38b1461035c57508063f5c1279b1461033e578063f68016b71461031a578063f887ea40146102f35763fffeb84e1461020857600080fd5b346102ef57816003193601126102ef5780519082600854610228816116f2565b808552916001918083169081156102c7575060011461026a575b5050506102548261026694038361172c565b5191829160208352602083019061195f565b0390f35b9450600885527ff3f7a9fe364faab93b216da50a3214154f22a0a2b415b23a84c8169e8b636ee35b8286106102af575050506102548260206102669582010194610242565b80546020878701810191909152909501948101610292565b61026697508693506020925061025494915060ff191682840152151560051b82010194610242565b5080fd5b50346102ef57816003193601126102ef576020906001600160a01b03600c54169051908152f35b50346102ef57816003193601126102ef5760209063ffffffff601054169051908152f35b50346102ef57816003193601126102ef576020906015549051908152f35b91905034610425576020366003190112610425578135916001600160a01b03918284168094036104215761038e611a45565b3384146103de57508273ffffffffffffffffffffffffffffffffffffffff19825416179055600354167fed8889f560326eb138920d842192f0eb3dd22b4f139c87a2c57538e05bae12788380a380f35b906020606492519162461bcd60e51b8352820152601760248201527f43616e6e6f74207472616e7366657220746f2073656c660000000000000000006044820152fd5b8480fd5b8280fd5b5050346102ef57816003193601126102ef576020906001600160a01b03601d54169051908152f35b5050346102ef57816003193601126102ef57602090600e549051908152f35b5050346102ef57816003193601126102ef576020906001600160a01b03601c54169051908152f35b5050346102ef57816003193601126102ef57805190826007546104ba816116f2565b808552916001918083169081156102c757506001146104e5575050506102548261026694038361172c565b9450600785527fa66cc928b5edb82af9bd49922954155ab7b0942694bea4ce44661d9a8736c6885b82861061052a575050506102548260206102669582010194610242565b8054602087870181019190915290950194810161050d565b5050346102ef57816003193601126102ef5761026690610560611822565b905191829160208352602083019061195f565b8383346102ef57806003193601126102ef5767ffffffffffffffff90833582811161080e576105a5903690860161199f565b50506001600160a01b038060035416908133141580610800575b6107bf575050600e541561077d578051916020928381018181108382111761076a5790859184525260185442034281116106b957600a5410156107285742601855601954600181018091116106b957601955602435602154116000146106cc57610641906009541663ffffffff601054166011549161063c611764565b611bad565b80601255808455601654600181018091116106b9577fd3faffad7ef1f2c31a43a6d3c3ca68805a12ad17c4e6d65ed29f86103c8a925f9495507f94d22f84ecc32bb8dd315dfdf3e823f4cb62c2eb803a2d4a470b57e7c42d5d769184916016558351908152a160ff601e5460a01c169051908152a180f35b602485601188634e487b7160e01b835252fd5b61064190740100000000000000000000000000000000000000007fffffffffffffffffffffff00ffffffffffffffffffffffffffffffffffffffff601e541617601e556009541663ffffffff601054166011549161063c611822565b6064858484519162461bcd60e51b8352820152601560248201527f54696d6520696e74657276616c206e6f74206d657400000000000000000000006044820152fd5b602486604189634e487b7160e01b835252fd5b5162461bcd60e51b8152602081850152601560248201527f55706b656570206e6f74207265676973746572656400000000000000000000006044820152606490fd5b918591606493601e54169151927f426fbc71000000000000000000000000000000000000000000000000000000008452339084015260248301526044820152fd5b5080601e54163314156105bf565b8380fd5b5050346102ef57816003193601126102ef576020906012549051908152f35b5050346102ef57816003193601126102ef576020906019549051908152f35b5050346102ef57816003193601126102ef5760209081549051908152f35b905034610425578160031936011261042557602435903583526002602052818320805482101561080e57906108a291611a29565b509067ffffffffffffffff825416906108bd600184016118bb565b9263ffffffff60036002830154920154916108e98451968796875260a0602088015260a087019061195f565b9361ffff82169086015260101c16606084015260808301520390f35b5050346102ef57816003193601126102ef57602090600a549051908152f35b5050346102ef57816003193601126102ef576020906001600160a01b03600354169051908152f35b5050346102ef57816003193601126102ef5751478152602090f35b8334610aec57602091826003193601126102ef5767ffffffffffffffff813581811161080e5761099a903690840161199f565b9290916109a5611a45565b8311610ad957506109b76024546116f2565b601f8111610a7b575b508293601f83116001146109fd57509282938293926109f2575b50508160011b916000199060031b1c19161760245580f35b0135905083806109da565b601f198316947f7cd332d19b93bcabe3cce7ca0c18a052f57e5fd03b4758a09f30f5ddc4b22ec4929185905b878210610a63575050836001959610610a49575b505050811b0160245580f35b0135600019600384901b60f8161c19169055838080610a3d565b80600184968294958701358155019501920190610a29565b7f7cd332d19b93bcabe3cce7ca0c18a052f57e5fd03b4758a09f30f5ddc4b22ec4601f840160051c810191868510610acf575b601f0160051c01905b818110610ac457506109c0565b848155600101610ab7565b9091508190610aae565b836041602492634e487b7160e01b835252fd5b80fd5b5050346102ef57816003193601126102ef576020906001600160a01b03600d54169051908152f35b5050346102ef57816003193601126102ef576020906021549051908152f35b919050346104255782600319360112610425578154916001600160a01b03918284163303610baf57506003549273ffffffffffffffffffffffffffffffffffffffff199033828616176003551690553391167f8be0079c531659141344cd1fd0a4f28419497f9722a3daafe3b4186f6b6457e08380a380f35b906020606492519162461bcd60e51b8352820152601660248201527f4d7573742062652070726f706f736564206f776e6572000000000000000000006044820152fd5b5050346102ef57816003193601126102ef576020906011549051908152f35b91905034610425576020918260031936011261080e57803567ffffffffffffffff811161042157610c4590369083016119d2565b50601854420390428211610ca35750600a54109080519384928352818484015260609384518093850152815b838110610c8e575050828201840152601f01601f19168101030190f35b60808101518782018701528694508101610c71565b846011602492634e487b7160e01b835252fd5b5050346102ef57816003193601126102ef576020906001600160a01b03601b54169051908152f35b5050346102ef57816003193601126102ef5761026690610560611764565b5050346102ef57816003193601126102ef576020906001600160a01b03601e54169051908152f35b5050346102ef57816003193601126102ef576020905160018152f35b5050346102ef57816003193601126102ef5780519082601454610d62816116f2565b808552916001918083169081156102c75750600114610d8d575050506102548261026694038361172c565b9450601485527fce6d7b5282bd9a3661ae061feed1dbda4e52ab073b1f9285be6e155d9c38d4ec5b828610610dd2575050506102548260206102669582010194610242565b80546020878701810191909152909501948101610db5565b5050346102ef57816003193601126102ef57602090601f549051908152f35b5050346102ef57816003193601126102ef576020906016549051908152f35b5050346102ef57816003193601126102ef576020906017549051908152f35b8383346102ef5760603660031901126102ef57602480359167ffffffffffffffff9283811161042157610e7d90369087016119d2565b9160443584811161127c57610e9590369088016119d2565b93835181811161117e57610eaa6007546116f2565b90601f9182811161121c575b5080602083821160011461119b578991611190575b508160011b916000199060031b1c1916176007555b855191821161117e578190610ef66008546116f2565b818111611111575b506020908211600114611090578791611085575b508160011b916000199060031b1c1916176008555b600b546001810180911161107357600b55601e5460a01c60ff1661101a576022546801000000000000000081101561100857806001610f6992016022556116a5565b919091610ff857507f7bab0ec163b5c132c72b8146ac4d6e067e82ed58f8b131150aa71c9258911562939495610fa284610ff293611a9d565b7fb8c1b3113292644df2bf7f437c82a485b897c95ec146ca6ca3dea2ec2f674ad960206022548551908152a15b610fe2835194848695865285019061195f565b908382036020850152359561195f565b0390a280f35b858088634e487b7160e01b825252fd5b5084604187634e487b7160e01b835252fd5b50610ff27f7bab0ec163b5c132c72b8146ac4d6e067e82ed58f8b131150aa71c92589115629394957fb8c1b3113292644df2bf7f437c82a485b897c95ec146ca6ca3dea2ec2f674ad960206021548551908152a1610fcf565b5084601187634e487b7160e01b835252fd5b905085015188610f12565b600888527ff3f7a9fe364faab93b216da50a3214154f22a0a2b415b23a84c8169e8b636ee39150601f198316885b8181106110f9575090836001949392106110e0575b5050811b01600855610f27565b87015160001960f88460031b161c1916905588806110d3565b9192602060018192868c0151815501940192016110be565b909150600888527ff3f7a9fe364faab93b216da50a3214154f22a0a2b415b23a84c8169e8b636ee38280850160051c82019260208610611175575b938594939291930160051c01905b8181106111675750610efe565b89815584935060010161115a565b9250819261114c565b828760418a634e487b7160e01b835252fd5b90508601518a610ecb565b60078a527fa66cc928b5edb82af9bd49922954155ab7b0942694bea4ce44661d9a8736c6889150601f1983168a5b818110611204575090836001949392106111eb575b5050811b01600755610ee0565b88015160001960f88460031b161c191690558a806111de565b9192602060018192868d0151815501940192016111c9565b600789527fa66cc928b5edb82af9bd49922954155ab7b0942694bea4ce44661d9a8736c6888380840160051c82019260208510611273575b0160051c01905b8181106112685750610eb6565b89815560010161125b565b92508192611254565b8580fd5b5050346102ef57816003193601126102ef57805190826013546112a2816116f2565b808552916001918083169081156102c757506001146112cd575050506102548261026694038361172c565b9450601385527f66de8ffda797e3de9c05e8fc57b3bf0ec28a930d40b0d285d93c06501cf6a0905b828610611312575050506102548260206102669582010194610242565b805460208787018101919091529095019481016112f5565b5050346102ef57816003193601126102ef57602090600b549051908152f35b8334610aec576060366003190112610aec5767ffffffffffffffff82358181116104255761137a903690850161199f565b90936024359280841680940361042157611392611a45565b8211610ad957506113a46005546116f2565b601f811161147f575b5082601f8211600114611401578394829394926113f6575b50508160011b916000199060031b1c1916176005555b67ffffffffffffffff19600954161760095560443560115580f35b0135905084806113c5565b601f198216947f036b6384b5eca791c62761152d0c79bb0604c104a5fb6f4eb0703f3154bb3db091855b87811061146757508360019596971061144d575b505050811b016005556113db565b0135600019600384901b60f8161c1916905584808061143f565b9092602060018192868601358155019401910161142b565b7f036b6384b5eca791c62761152d0c79bb0604c104a5fb6f4eb0703f3154bb3db0601f830160051c810191602084106114d4575b601f0160051c01905b8181106114c957506113ad565b8481556001016114bc565b90915081906114b3565b5050346102ef57816003193601126102ef5780519082600f54611500816116f2565b808552916001918083169081156102c7575060011461152b575050506102548261026694038361172c565b9450600f85527f8d1108e10bcb7c27dddfc02ed9d693a074039d026cf4ea4240b40f7d581ac8025b828610611570575050506102548260206102669582010194610242565b80546020878701810191909152909501948101611553565b828434610aec576020366003190112610aec5782356022548110156102ef576115b0906116a5565b9390936115c45761026683610560866118bb565b9080602492634e487b7160e01b825252fd5b5050346102ef57816003193601126102ef576009548151911c63ffffffff168152602090f35b5050346102ef57816003193601126102ef576020906006549051908152f35b5050346102ef57816003193601126102ef576020906001600160a01b03601a54169051908152f35b5050346102ef57816003193601126102ef5760209067ffffffffffffffff600954169051908152f35b5050346102ef57816003193601126102ef576020906018549051908152f35b8490346102ef57816003193601126102ef57602091548152f35b6022548110156116dc5760226000527f61035b26e3e9eee00e0d72fd1ee8ddca6894550dca6916ea2ac6baa90d11e5100190600090565b634e487b7160e01b600052603260045260246000fd5b90600182811c92168015611722575b602083101461170c57565b634e487b7160e01b600052602260045260246000fd5b91607f1691611701565b90601f8019910116810190811067ffffffffffffffff82111761174e57604052565b634e487b7160e01b600052604160045260246000fd5b6040519060008260055491611778836116f2565b8083529260019081811690811561180057506001146117a1575b5061179f9250038361172c565b565b6005600090815291507f036b6384b5eca791c62761152d0c79bb0604c104a5fb6f4eb0703f3154bb3db05b8483106117e5575061179f935050810160200138611792565b81935090816020925483858a010152019101909185926117cc565b90506020925061179f94915060ff191682840152151560051b82010138611792565b6040519060008260245491611836836116f2565b80835292600190818116908115611800575060011461185c575061179f9250038361172c565b6024600090815291507f7cd332d19b93bcabe3cce7ca0c18a052f57e5fd03b4758a09f30f5ddc4b22ec45b8483106118a0575061179f935050810160200138611792565b81935090816020925483858a01015201910190918592611887565b90604051918260008254926118cf846116f2565b90818452600194858116908160001461193c57506001146118f9575b505061179f9250038361172c565b9093915060005260209081600020936000915b81831061192457505061179f935082010138806118eb565b8554888401850152948501948794509183019161190c565b91505061179f94506020925060ff191682840152151560051b82010138806118eb565b919082519283825260005b84811061198b575050826000602080949584010152601f8019910116010190565b60208183018101518483018201520161196a565b9181601f840112156119cd5782359167ffffffffffffffff83116119cd57602083818601950101116119cd57565b600080fd5b81601f820112156119cd5780359067ffffffffffffffff821161174e5760405192611a07601f8401601f19166020018561172c565b828452602083830101116119cd57816000926020809301838601378301015290565b80548210156116dc5760005260206000209060021b0190600090565b6001600160a01b03600354163303611a5957565b606460405162461bcd60e51b815260206004820152601660248201527f4f6e6c792063616c6c61626c65206279206f776e6572000000000000000000006044820152fd5b919091825167ffffffffffffffff811161174e57611abb82546116f2565b601f8111611b65575b50602080601f8311600114611b01575081929394600092611af6575b50508160011b916000199060031b1c1916179055565b015190503880611ae0565b90601f198316958460005282600020926000905b888210611b4d57505083600195969710611b34575b505050811b019055565b015160001960f88460031b161c19169055388080611b2a565b80600185968294968601518155019501930190611b15565b600083815260208120601f840160051c81019260208510611ba3575b601f0160051c01915b828110611b98575050611ac4565b818155600101611b8a565b9092508290611b81565b9290926040519260a0840167ffffffffffffffff958582108783111761174e57869160405216845260208401918252604084019160019081845263ffffffff606087019316835260808601948552815496600097808955838101808211611ceb578455885260026020526040882080549068010000000000000000821015611cd75790611c3e918582018155611a29565b979097611cc457927f1131472297a800fee664d1d89cfa8f7676ff07189ecc53f80bbb5f4969099db89897969492611c8f9260039795511667ffffffffffffffff1989541617885551908701611a9d565b61ffff6002860192511665ffffffff00008354925160101b169165ffffffffffff19161717905551910155805491818392a290565b602489634e487b7160e01b815280600452fd5b60248a634e487b7160e01b81526041600452fd5b60248a634e487b7160e01b81526011600452fdfea2646970667358221220ee4e94de7366525c2ae673b6f5ed823efd6f043d48f7ab3bf3f711fca9f46c5d64736f6c63430008130033","opcodes":"PUSH1 0x80 PUSH1 0x1 PUSH1 0x1 PUSH1 0x40 SHL SUB PUSH1 0x1F PUSH3 0x1F32 CODESIZE DUP2 SWAP1 SUB SWAP2 DUP3 ADD PUSH1 0x1F NOT AND DUP5 ADD SWAP2 DUP4 DUP4 GT DUP6 DUP5 LT OR PUSH3 0x1D1 JUMPI DUP1 DUP6 SWAP3 PUSH2 0x180 SWAP5 PUSH1 0x40 MSTORE DUP4 CODECOPY DUP2 ADD SUB SLT PUSH3 0x1CC JUMPI PUSH3 0x49 DUP3 PUSH3 0x1E7 JUMP JUMPDEST PUSH3 0x57 PUSH1 0x20 DUP5 ADD PUSH3 0x1E7 JUMP JUMPDEST SWAP3 PUSH1 0x40 DUP2 ADD MLOAD SWAP1 PUSH1 0x60 DUP2 ADD MLOAD SWAP3 PUSH1 0x80 DUP3 ADD MLOAD SWAP2 PUSH1 0xA0 DUP2 ADD MLOAD SWAP4 PUSH3 0x7E PUSH1 0xC0 DUP4 ADD PUSH3 0x1E7 JUMP JUMPDEST PUSH1 0xE0 DUP4 ADD MLOAD SWAP8 DUP9 AND DUP1 SWAP9 SUB PUSH3 0x1CC JUMPI PUSH3 0x9D PUSH2 0x100 DUP5 ADD PUSH3 0x1E7 JUMP JUMPDEST SWAP9 PUSH3 0xAD PUSH2 0x120 DUP6 ADD PUSH3 0x1E7 JUMP JUMPDEST SWAP2 PUSH2 0x160 PUSH3 0xC0 PUSH2 0x140 DUP8 ADD PUSH3 0x1E7 JUMP JUMPDEST SWAP6 ADD MLOAD SWAP8 PUSH4 0xFFFFFFFF DUP10 AND DUP10 SUB PUSH3 0x1CC JUMPI PUSH1 0x1 DUP1 SSTORE PUSH1 0x1 PUSH1 0x1 PUSH1 0xA0 SHL SUB SWAP7 DUP8 AND SWAP8 DUP9 ISZERO PUSH3 0x187 JUMPI PUSH12 0xFFFFFFFF0000000000000000 SWAP11 DUP9 SWAP7 DUP8 DUP1 SWAP7 DUP13 PUSH1 0x1 DUP1 PUSH1 0xA0 SHL SUB NOT SWAP14 DUP15 PUSH1 0x3 SLOAD AND OR PUSH1 0x3 SSTORE DUP14 PUSH1 0x1C SLOAD AND OR PUSH1 0x1C SSTORE AND DUP12 PUSH1 0x1D SLOAD AND OR PUSH1 0x1D SSTORE PUSH1 0x20 SSTORE PUSH1 0x21 SSTORE PUSH1 0x1F SSTORE PUSH1 0xA SSTORE AND DUP6 PUSH1 0xC SLOAD AND OR PUSH1 0xC SSTORE DUP2 PUSH1 0x9 SLOAD SWAP10 AND DUP6 PUSH1 0xD SLOAD AND OR PUSH1 0xD SSTORE AND DUP4 PUSH1 0x1A SLOAD AND OR PUSH1 0x1A SSTORE AND SWAP1 PUSH1 0x1B SLOAD AND OR PUSH1 0x1B SSTORE PUSH1 0x40 SHL AND SWAP2 PUSH1 0x1 DUP1 PUSH1 0x60 SHL SUB NOT AND OR OR PUSH1 0x9 SSTORE TIMESTAMP PUSH1 0x18 SSTORE PUSH1 0x1 PUSH1 0xE SSTORE PUSH1 0x40 MLOAD PUSH2 0x1D35 SWAP1 DUP2 PUSH3 0x1FD DUP3 CODECOPY RETURN JUMPDEST PUSH1 0x40 MLOAD PUSH3 0x461BCD PUSH1 0xE5 SHL DUP2 MSTORE PUSH1 0x20 PUSH1 0x4 DUP3 ADD MSTORE PUSH1 0x18 PUSH1 0x24 DUP3 ADD MSTORE PUSH32 0x43616E6E6F7420736574206F776E657220746F207A65726F0000000000000000 PUSH1 0x44 DUP3 ADD MSTORE PUSH1 0x64 SWAP1 REVERT JUMPDEST PUSH1 0x0 DUP1 REVERT JUMPDEST PUSH4 0x4E487B71 PUSH1 0xE0 SHL PUSH1 0x0 MSTORE PUSH1 0x41 PUSH1 0x4 MSTORE PUSH1 0x24 PUSH1 0x0 REVERT JUMPDEST MLOAD SWAP1 PUSH1 0x1 PUSH1 0x1 PUSH1 0xA0 SHL SUB DUP3 AND DUP3 SUB PUSH3 0x1CC JUMPI JUMP INVALID PUSH1 0x80 PUSH1 0x40 DUP2 DUP2 MSTORE PUSH1 0x4 SWAP2 DUP3 CALLDATASIZE LT ISZERO PUSH2 0x16 JUMPI PUSH1 0x0 DUP1 REVERT JUMPDEST PUSH1 0x0 SWAP3 DUP4 CALLDATALOAD PUSH1 0xE0 SHR SWAP2 DUP3 PUSH3 0x6D6CAE EQ PUSH2 0x168B JUMPI POP DUP2 PUSH4 0x89EA02E EQ PUSH2 0x166C JUMPI DUP2 PUSH4 0x9C1BA2E EQ PUSH2 0x1643 JUMPI DUP2 PUSH4 0x1243BCC3 EQ PUSH2 0x161B JUMPI DUP2 PUSH4 0x1AA46F59 EQ PUSH2 0x15FC JUMPI DUP2 PUSH4 0x24B93E3E EQ PUSH2 0x15D6 JUMPI DUP2 PUSH4 0x277E2213 EQ PUSH2 0x1588 JUMPI DUP2 PUSH4 0x338CDCA1 EQ PUSH2 0x14DE JUMPI DUP2 PUSH4 0x36E6A92F EQ PUSH2 0x1349 JUMPI DUP2 PUSH4 0x381FC4B5 EQ PUSH2 0x132A JUMPI DUP2 PUSH4 0x3944EA3A EQ PUSH2 0x1280 JUMPI DUP2 PUSH4 0x39B05122 EQ PUSH2 0xE47 JUMPI DUP2 PUSH4 0x43CD3D86 EQ PUSH2 0xE28 JUMPI DUP2 PUSH4 0x48802B92 EQ PUSH2 0xE09 JUMPI DUP2 PUSH4 0x48BD6F05 EQ PUSH2 0xDEA JUMPI DUP2 PUSH4 0x4B0795A8 EQ PUSH2 0xD40 JUMPI DUP2 PUSH4 0x5D641DFC EQ PUSH2 0xD24 JUMPI DUP2 PUSH4 0x5E0611F1 EQ PUSH2 0xCFC JUMPI DUP2 PUSH4 0x688ECFD1 EQ PUSH2 0xCDE JUMPI DUP2 PUSH4 0x6BAA48FE EQ PUSH2 0xCB6 JUMPI DUP2 PUSH4 0x6E04FF0D EQ PUSH2 0xC11 JUMPI DUP2 PUSH4 0x6E74336B EQ PUSH2 0xBF2 JUMPI DUP2 PUSH4 0x79BA5097 EQ PUSH2 0xB36 JUMPI DUP2 PUSH4 0x7AE4E3FB EQ PUSH2 0xB17 JUMPI DUP2 PUSH4 0x7B103999 EQ PUSH2 0xAEF JUMPI DUP2 PUSH4 0x7D95F68A EQ PUSH2 0x967 JUMPI DUP2 PUSH4 0x8B7AFE2E EQ PUSH2 0x94C JUMPI DUP2 PUSH4 0x8DA5CB5B EQ PUSH2 0x924 JUMPI DUP2 PUSH4 0x947A36FB EQ PUSH2 0x905 JUMPI DUP2 PUSH4 0x9655E6D8 EQ PUSH2 0x86E JUMPI DUP2 PUSH4 0xA3097139 EQ PUSH2 0x850 JUMPI DUP2 PUSH4 0xA3D3C0D2 EQ PUSH2 0x831 JUMPI DUP2 PUSH4 0xB1E21749 EQ PUSH2 0x812 JUMPI DUP2 PUSH4 0xB8A4836E EQ PUSH2 0x573 JUMPI DUP2 PUSH4 0xBD4CA97B EQ PUSH2 0x542 JUMPI DUP2 PUSH4 0xBEF3A2F0 EQ PUSH2 0x498 JUMPI DUP2 PUSH4 0xD1384EB6 EQ PUSH2 0x470 JUMPI DUP2 PUSH4 0xD2AA789F EQ PUSH2 0x451 JUMPI DUP2 PUSH4 0xD811FCF0 EQ PUSH2 0x429 JUMPI DUP2 PUSH4 0xF2FDE38B EQ PUSH2 0x35C JUMPI POP DUP1 PUSH4 0xF5C1279B EQ PUSH2 0x33E JUMPI DUP1 PUSH4 0xF68016B7 EQ PUSH2 0x31A JUMPI DUP1 PUSH4 0xF887EA40 EQ PUSH2 0x2F3 JUMPI PUSH4 0xFFFEB84E EQ PUSH2 0x208 JUMPI PUSH1 0x0 DUP1 REVERT JUMPDEST CALLVALUE PUSH2 0x2EF JUMPI DUP2 PUSH1 0x3 NOT CALLDATASIZE ADD SLT PUSH2 0x2EF JUMPI DUP1 MLOAD SWAP1 DUP3 PUSH1 0x8 SLOAD PUSH2 0x228 DUP2 PUSH2 0x16F2 JUMP JUMPDEST DUP1 DUP6 MSTORE SWAP2 PUSH1 0x1 SWAP2 DUP1 DUP4 AND SWAP1 DUP2 ISZERO PUSH2 0x2C7 JUMPI POP PUSH1 0x1 EQ PUSH2 0x26A JUMPI JUMPDEST POP POP POP PUSH2 0x254 DUP3 PUSH2 0x266 SWAP5 SUB DUP4 PUSH2 0x172C JUMP JUMPDEST MLOAD SWAP2 DUP3 SWAP2 PUSH1 0x20 DUP4 MSTORE PUSH1 0x20 DUP4 ADD SWAP1 PUSH2 0x195F JUMP JUMPDEST SUB SWAP1 RETURN JUMPDEST SWAP5 POP PUSH1 0x8 DUP6 MSTORE PUSH32 0xF3F7A9FE364FAAB93B216DA50A3214154F22A0A2B415B23A84C8169E8B636EE3 JUMPDEST DUP3 DUP7 LT PUSH2 0x2AF JUMPI POP POP POP PUSH2 0x254 DUP3 PUSH1 0x20 PUSH2 0x266 SWAP6 DUP3 ADD ADD SWAP5 PUSH2 0x242 JUMP JUMPDEST DUP1 SLOAD PUSH1 0x20 DUP8 DUP8 ADD DUP2 ADD SWAP2 SWAP1 SWAP2 MSTORE SWAP1 SWAP6 ADD SWAP5 DUP2 ADD PUSH2 0x292 JUMP JUMPDEST PUSH2 0x266 SWAP8 POP DUP7 SWAP4 POP PUSH1 0x20 SWAP3 POP PUSH2 0x254 SWAP5 SWAP2 POP PUSH1 0xFF NOT AND DUP3 DUP5 ADD MSTORE ISZERO ISZERO PUSH1 0x5 SHL DUP3 ADD ADD SWAP5 PUSH2 0x242 JUMP JUMPDEST POP DUP1 REVERT JUMPDEST POP CALLVALUE PUSH2 0x2EF JUMPI DUP2 PUSH1 0x3 NOT CALLDATASIZE ADD SLT PUSH2 0x2EF JUMPI PUSH1 0x20 SWAP1 PUSH1 0x1 PUSH1 0x1 PUSH1 0xA0 SHL SUB PUSH1 0xC SLOAD AND SWAP1 MLOAD SWAP1 DUP2 MSTORE RETURN JUMPDEST POP CALLVALUE PUSH2 0x2EF JUMPI DUP2 PUSH1 0x3 NOT CALLDATASIZE ADD SLT PUSH2 0x2EF JUMPI PUSH1 0x20 SWAP1 PUSH4 0xFFFFFFFF PUSH1 0x10 SLOAD AND SWAP1 MLOAD SWAP1 DUP2 MSTORE RETURN JUMPDEST POP CALLVALUE PUSH2 0x2EF JUMPI DUP2 PUSH1 0x3 NOT CALLDATASIZE ADD SLT PUSH2 0x2EF JUMPI PUSH1 0x20 SWAP1 PUSH1 0x15 SLOAD SWAP1 MLOAD SWAP1 DUP2 MSTORE RETURN JUMPDEST SWAP2 SWAP1 POP CALLVALUE PUSH2 0x425 JUMPI PUSH1 0x20 CALLDATASIZE PUSH1 0x3 NOT ADD SLT PUSH2 0x425 JUMPI DUP2 CALLDATALOAD SWAP2 PUSH1 0x1 PUSH1 0x1 PUSH1 0xA0 SHL SUB SWAP2 DUP3 DUP5 AND DUP1 SWAP5 SUB PUSH2 0x421 JUMPI PUSH2 0x38E PUSH2 0x1A45 JUMP JUMPDEST CALLER DUP5 EQ PUSH2 0x3DE JUMPI POP DUP3 PUSH20 0xFFFFFFFFFFFFFFFFFFFFFFFFFFFFFFFFFFFFFFFF NOT DUP3 SLOAD AND OR SWAP1 SSTORE PUSH1 0x3 SLOAD AND PUSH32 0xED8889F560326EB138920D842192F0EB3DD22B4F139C87A2C57538E05BAE1278 DUP4 DUP1 LOG3 DUP1 RETURN JUMPDEST SWAP1 PUSH1 0x20 PUSH1 0x64 SWAP3 MLOAD SWAP2 PUSH3 0x461BCD PUSH1 0xE5 SHL DUP4 MSTORE DUP3 ADD MSTORE PUSH1 0x17 PUSH1 0x24 DUP3 ADD MSTORE PUSH32 0x43616E6E6F74207472616E7366657220746F2073656C66000000000000000000 PUSH1 0x44 DUP3 ADD MSTORE REVERT JUMPDEST DUP5 DUP1 REVERT JUMPDEST DUP3 DUP1 REVERT JUMPDEST POP POP CALLVALUE PUSH2 0x2EF JUMPI DUP2 PUSH1 0x3 NOT CALLDATASIZE ADD SLT PUSH2 0x2EF JUMPI PUSH1 0x20 SWAP1 PUSH1 0x1 PUSH1 0x1 PUSH1 0xA0 SHL SUB PUSH1 0x1D SLOAD AND SWAP1 MLOAD SWAP1 DUP2 MSTORE RETURN JUMPDEST POP POP CALLVALUE PUSH2 0x2EF JUMPI DUP2 PUSH1 0x3 NOT CALLDATASIZE ADD SLT PUSH2 0x2EF JUMPI PUSH1 0x20 SWAP1 PUSH1 0xE SLOAD SWAP1 MLOAD SWAP1 DUP2 MSTORE RETURN JUMPDEST POP POP CALLVALUE PUSH2 0x2EF JUMPI DUP2 PUSH1 0x3 NOT CALLDATASIZE ADD SLT PUSH2 0x2EF JUMPI PUSH1 0x20 SWAP1 PUSH1 0x1 PUSH1 0x1 PUSH1 0xA0 SHL SUB PUSH1 0x1C SLOAD AND SWAP1 MLOAD SWAP1 DUP2 MSTORE RETURN JUMPDEST POP POP CALLVALUE PUSH2 0x2EF JUMPI DUP2 PUSH1 0x3 NOT CALLDATASIZE ADD SLT PUSH2 0x2EF JUMPI DUP1 MLOAD SWAP1 DUP3 PUSH1 0x7 SLOAD PUSH2 0x4BA DUP2 PUSH2 0x16F2 JUMP JUMPDEST DUP1 DUP6 MSTORE SWAP2 PUSH1 0x1 SWAP2 DUP1 DUP4 AND SWAP1 DUP2 ISZERO PUSH2 0x2C7 JUMPI POP PUSH1 0x1 EQ PUSH2 0x4E5 JUMPI POP POP POP PUSH2 0x254 DUP3 PUSH2 0x266 SWAP5 SUB DUP4 PUSH2 0x172C JUMP JUMPDEST SWAP5 POP PUSH1 0x7 DUP6 MSTORE PUSH32 0xA66CC928B5EDB82AF9BD49922954155AB7B0942694BEA4CE44661D9A8736C688 JUMPDEST DUP3 DUP7 LT PUSH2 0x52A JUMPI POP POP POP PUSH2 0x254 DUP3 PUSH1 0x20 PUSH2 0x266 SWAP6 DUP3 ADD ADD SWAP5 PUSH2 0x242 JUMP JUMPDEST DUP1 SLOAD PUSH1 0x20 DUP8 DUP8 ADD DUP2 ADD SWAP2 SWAP1 SWAP2 MSTORE SWAP1 SWAP6 ADD SWAP5 DUP2 ADD PUSH2 0x50D JUMP JUMPDEST POP POP CALLVALUE PUSH2 0x2EF JUMPI DUP2 PUSH1 0x3 NOT CALLDATASIZE ADD SLT PUSH2 0x2EF JUMPI PUSH2 0x266 SWAP1 PUSH2 0x560 PUSH2 0x1822 JUMP JUMPDEST SWAP1 MLOAD SWAP2 DUP3 SWAP2 PUSH1 0x20 DUP4 MSTORE PUSH1 0x20 DUP4 ADD SWAP1 PUSH2 0x195F JUMP JUMPDEST DUP4 DUP4 CALLVALUE PUSH2 0x2EF JUMPI DUP1 PUSH1 0x3 NOT CALLDATASIZE ADD SLT PUSH2 0x2EF JUMPI PUSH8 0xFFFFFFFFFFFFFFFF SWAP1 DUP4 CALLDATALOAD DUP3 DUP2 GT PUSH2 0x80E JUMPI PUSH2 0x5A5 SWAP1 CALLDATASIZE SWAP1 DUP7 ADD PUSH2 0x199F JUMP JUMPDEST POP POP PUSH1 0x1 PUSH1 0x1 PUSH1 0xA0 SHL SUB DUP1 PUSH1 0x3 SLOAD AND SWAP1 DUP2 CALLER EQ ISZERO DUP1 PUSH2 0x800 JUMPI JUMPDEST PUSH2 0x7BF JUMPI POP POP PUSH1 0xE SLOAD ISZERO PUSH2 0x77D JUMPI DUP1 MLOAD SWAP2 PUSH1 0x20 SWAP3 DUP4 DUP2 ADD DUP2 DUP2 LT DUP4 DUP3 GT OR PUSH2 0x76A JUMPI SWAP1 DUP6 SWAP2 DUP5 MSTORE MSTORE PUSH1 0x18 SLOAD TIMESTAMP SUB TIMESTAMP DUP2 GT PUSH2 0x6B9 JUMPI PUSH1 0xA SLOAD LT ISZERO PUSH2 0x728 JUMPI TIMESTAMP PUSH1 0x18 SSTORE PUSH1 0x19 SLOAD PUSH1 0x1 DUP2 ADD DUP1 SWAP2 GT PUSH2 0x6B9 JUMPI PUSH1 0x19 SSTORE PUSH1 0x24 CALLDATALOAD PUSH1 0x21 SLOAD GT PUSH1 0x0 EQ PUSH2 0x6CC JUMPI PUSH2 0x641 SWAP1 PUSH1 0x9 SLOAD AND PUSH4 0xFFFFFFFF PUSH1 0x10 SLOAD AND PUSH1 0x11 SLOAD SWAP2 PUSH2 0x63C PUSH2 0x1764 JUMP JUMPDEST PUSH2 0x1BAD JUMP JUMPDEST DUP1 PUSH1 0x12 SSTORE DUP1 DUP5 SSTORE PUSH1 0x16 SLOAD PUSH1 0x1 DUP2 ADD DUP1 SWAP2 GT PUSH2 0x6B9 JUMPI PUSH32 0xD3FAFFAD7EF1F2C31A43A6D3C3CA68805A12AD17C4E6D65ED29F86103C8A925F SWAP5 SWAP6 POP PUSH32 0x94D22F84ECC32BB8DD315DFDF3E823F4CB62C2EB803A2D4A470B57E7C42D5D76 SWAP2 DUP5 SWAP2 PUSH1 0x16 SSTORE DUP4 MLOAD SWAP1 DUP2 MSTORE LOG1 PUSH1 0xFF PUSH1 0x1E SLOAD PUSH1 0xA0 SHR AND SWAP1 MLOAD SWAP1 DUP2 MSTORE LOG1 DUP1 RETURN JUMPDEST PUSH1 0x24 DUP6 PUSH1 0x11 DUP9 PUSH4 0x4E487B71 PUSH1 0xE0 SHL DUP4 MSTORE MSTORE REVERT JUMPDEST PUSH2 0x641 SWAP1 PUSH21 0x10000000000000000000000000000000000000000 PUSH32 0xFFFFFFFFFFFFFFFFFFFFFF00FFFFFFFFFFFFFFFFFFFFFFFFFFFFFFFFFFFFFFFF PUSH1 0x1E SLOAD AND OR PUSH1 0x1E SSTORE PUSH1 0x9 SLOAD AND PUSH4 0xFFFFFFFF PUSH1 0x10 SLOAD AND PUSH1 0x11 SLOAD SWAP2 PUSH2 0x63C PUSH2 0x1822 JUMP JUMPDEST PUSH1 0x64 DUP6 DUP5 DUP5 MLOAD SWAP2 PUSH3 0x461BCD PUSH1 0xE5 SHL DUP4 MSTORE DUP3 ADD MSTORE PUSH1 0x15 PUSH1 0x24 DUP3 ADD MSTORE PUSH32 0x54696D6520696E74657276616C206E6F74206D65740000000000000000000000 PUSH1 0x44 DUP3 ADD MSTORE REVERT JUMPDEST PUSH1 0x24 DUP7 PUSH1 0x41 DUP10 PUSH4 0x4E487B71 PUSH1 0xE0 SHL DUP4 MSTORE MSTORE REVERT JUMPDEST MLOAD PUSH3 0x461BCD PUSH1 0xE5 SHL DUP2 MSTORE PUSH1 0x20 DUP2 DUP6 ADD MSTORE PUSH1 0x15 PUSH1 0x24 DUP3 ADD MSTORE PUSH32 0x55706B656570206E6F7420726567697374657265640000000000000000000000 PUSH1 0x44 DUP3 ADD MSTORE PUSH1 0x64 SWAP1 REVERT JUMPDEST SWAP2 DUP6 SWAP2 PUSH1 0x64 SWAP4 PUSH1 0x1E SLOAD AND SWAP2 MLOAD SWAP3 PUSH32 0x426FBC7100000000000000000000000000000000000000000000000000000000 DUP5 MSTORE CALLER SWAP1 DUP5 ADD MSTORE PUSH1 0x24 DUP4 ADD MSTORE PUSH1 0x44 DUP3 ADD MSTORE REVERT JUMPDEST POP DUP1 PUSH1 0x1E SLOAD AND CALLER EQ ISZERO PUSH2 0x5BF JUMP JUMPDEST DUP4 DUP1 REVERT JUMPDEST POP POP CALLVALUE PUSH2 0x2EF JUMPI DUP2 PUSH1 0x3 NOT CALLDATASIZE ADD SLT PUSH2 0x2EF JUMPI PUSH1 0x20 SWAP1 PUSH1 0x12 SLOAD SWAP1 MLOAD SWAP1 DUP2 MSTORE RETURN JUMPDEST POP POP CALLVALUE PUSH2 0x2EF JUMPI DUP2 PUSH1 0x3 NOT CALLDATASIZE ADD SLT PUSH2 0x2EF JUMPI PUSH1 0x20 SWAP1 PUSH1 0x19 SLOAD SWAP1 MLOAD SWAP1 DUP2 MSTORE RETURN JUMPDEST POP POP CALLVALUE PUSH2 0x2EF JUMPI DUP2 PUSH1 0x3 NOT CALLDATASIZE ADD SLT PUSH2 0x2EF JUMPI PUSH1 0x20 SWAP1 DUP2 SLOAD SWAP1 MLOAD SWAP1 DUP2 MSTORE RETURN JUMPDEST SWAP1 POP CALLVALUE PUSH2 0x425 JUMPI DUP2 PUSH1 0x3 NOT CALLDATASIZE ADD SLT PUSH2 0x425 JUMPI PUSH1 0x24 CALLDATALOAD SWAP1 CALLDATALOAD DUP4 MSTORE PUSH1 0x2 PUSH1 0x20 MSTORE DUP2 DUP4 KECCAK256 DUP1 SLOAD DUP3 LT ISZERO PUSH2 0x80E JUMPI SWAP1 PUSH2 0x8A2 SWAP2 PUSH2 0x1A29 JUMP JUMPDEST POP SWAP1 PUSH8 0xFFFFFFFFFFFFFFFF DUP3 SLOAD AND SWAP1 PUSH2 0x8BD PUSH1 0x1 DUP5 ADD PUSH2 0x18BB JUMP JUMPDEST SWAP3 PUSH4 0xFFFFFFFF PUSH1 0x3 PUSH1 0x2 DUP4 ADD SLOAD SWAP3 ADD SLOAD SWAP2 PUSH2 0x8E9 DUP5 MLOAD SWAP7 DUP8 SWAP7 DUP8 MSTORE PUSH1 0xA0 PUSH1 0x20 DUP9 ADD MSTORE PUSH1 0xA0 DUP8 ADD SWAP1 PUSH2 0x195F JUMP JUMPDEST SWAP4 PUSH2 0xFFFF DUP3 AND SWAP1 DUP7 ADD MSTORE PUSH1 0x10 SHR AND PUSH1 0x60 DUP5 ADD MSTORE PUSH1 0x80 DUP4 ADD MSTORE SUB SWAP1 RETURN JUMPDEST POP POP CALLVALUE PUSH2 0x2EF JUMPI DUP2 PUSH1 0x3 NOT CALLDATASIZE ADD SLT PUSH2 0x2EF JUMPI PUSH1 0x20 SWAP1 PUSH1 0xA SLOAD SWAP1 MLOAD SWAP1 DUP2 MSTORE RETURN JUMPDEST POP POP CALLVALUE PUSH2 0x2EF JUMPI DUP2 PUSH1 0x3 NOT CALLDATASIZE ADD SLT PUSH2 0x2EF JUMPI PUSH1 0x20 SWAP1 PUSH1 0x1 PUSH1 0x1 PUSH1 0xA0 SHL SUB PUSH1 0x3 SLOAD AND SWAP1 MLOAD SWAP1 DUP2 MSTORE RETURN JUMPDEST POP POP CALLVALUE PUSH2 0x2EF JUMPI DUP2 PUSH1 0x3 NOT CALLDATASIZE ADD SLT PUSH2 0x2EF JUMPI MLOAD SELFBALANCE DUP2 MSTORE PUSH1 0x20 SWAP1 RETURN JUMPDEST DUP4 CALLVALUE PUSH2 0xAEC JUMPI PUSH1 0x20 SWAP2 DUP3 PUSH1 0x3 NOT CALLDATASIZE ADD SLT PUSH2 0x2EF JUMPI PUSH8 0xFFFFFFFFFFFFFFFF DUP2 CALLDATALOAD DUP2 DUP2 GT PUSH2 0x80E JUMPI PUSH2 0x99A SWAP1 CALLDATASIZE SWAP1 DUP5 ADD PUSH2 0x199F JUMP JUMPDEST SWAP3 SWAP1 SWAP2 PUSH2 0x9A5 PUSH2 0x1A45 JUMP JUMPDEST DUP4 GT PUSH2 0xAD9 JUMPI POP PUSH2 0x9B7 PUSH1 0x24 SLOAD PUSH2 0x16F2 JUMP JUMPDEST PUSH1 0x1F DUP2 GT PUSH2 0xA7B JUMPI JUMPDEST POP DUP3 SWAP4 PUSH1 0x1F DUP4 GT PUSH1 0x1 EQ PUSH2 0x9FD JUMPI POP SWAP3 DUP3 SWAP4 DUP3 SWAP4 SWAP3 PUSH2 0x9F2 JUMPI JUMPDEST POP POP DUP2 PUSH1 0x1 SHL SWAP2 PUSH1 0x0 NOT SWAP1 PUSH1 0x3 SHL SHR NOT AND OR PUSH1 0x24 SSTORE DUP1 RETURN JUMPDEST ADD CALLDATALOAD SWAP1 POP DUP4 DUP1 PUSH2 0x9DA JUMP JUMPDEST PUSH1 0x1F NOT DUP4 AND SWAP5 PUSH32 0x7CD332D19B93BCABE3CCE7CA0C18A052F57E5FD03B4758A09F30F5DDC4B22EC4 SWAP3 SWAP2 DUP6 SWAP1 JUMPDEST DUP8 DUP3 LT PUSH2 0xA63 JUMPI POP POP DUP4 PUSH1 0x1 SWAP6 SWAP7 LT PUSH2 0xA49 JUMPI JUMPDEST POP POP POP DUP2 SHL ADD PUSH1 0x24 SSTORE DUP1 RETURN JUMPDEST ADD CALLDATALOAD PUSH1 0x0 NOT PUSH1 0x3 DUP5 SWAP1 SHL PUSH1 0xF8 AND SHR NOT AND SWAP1 SSTORE DUP4 DUP1 DUP1 PUSH2 0xA3D JUMP JUMPDEST DUP1 PUSH1 0x1 DUP5 SWAP7 DUP3 SWAP5 SWAP6 DUP8 ADD CALLDATALOAD DUP2 SSTORE ADD SWAP6 ADD SWAP3 ADD SWAP1 PUSH2 0xA29 JUMP JUMPDEST PUSH32 0x7CD332D19B93BCABE3CCE7CA0C18A052F57E5FD03B4758A09F30F5DDC4B22EC4 PUSH1 0x1F DUP5 ADD PUSH1 0x5 SHR DUP2 ADD SWAP2 DUP7 DUP6 LT PUSH2 0xACF JUMPI JUMPDEST PUSH1 0x1F ADD PUSH1 0x5 SHR ADD SWAP1 JUMPDEST DUP2 DUP2 LT PUSH2 0xAC4 JUMPI POP PUSH2 0x9C0 JUMP JUMPDEST DUP5 DUP2 SSTORE PUSH1 0x1 ADD PUSH2 0xAB7 JUMP JUMPDEST SWAP1 SWAP2 POP DUP2 SWAP1 PUSH2 0xAAE JUMP JUMPDEST DUP4 PUSH1 0x41 PUSH1 0x24 SWAP3 PUSH4 0x4E487B71 PUSH1 0xE0 SHL DUP4 MSTORE MSTORE REVERT JUMPDEST DUP1 REVERT JUMPDEST POP POP CALLVALUE PUSH2 0x2EF JUMPI DUP2 PUSH1 0x3 NOT CALLDATASIZE ADD SLT PUSH2 0x2EF JUMPI PUSH1 0x20 SWAP1 PUSH1 0x1 PUSH1 0x1 PUSH1 0xA0 SHL SUB PUSH1 0xD SLOAD AND SWAP1 MLOAD SWAP1 DUP2 MSTORE RETURN JUMPDEST POP POP CALLVALUE PUSH2 0x2EF JUMPI DUP2 PUSH1 0x3 NOT CALLDATASIZE ADD SLT PUSH2 0x2EF JUMPI PUSH1 0x20 SWAP1 PUSH1 0x21 SLOAD SWAP1 MLOAD SWAP1 DUP2 MSTORE RETURN JUMPDEST SWAP2 SWAP1 POP CALLVALUE PUSH2 0x425 JUMPI DUP3 PUSH1 0x3 NOT CALLDATASIZE ADD SLT PUSH2 0x425 JUMPI DUP2 SLOAD SWAP2 PUSH1 0x1 PUSH1 0x1 PUSH1 0xA0 SHL SUB SWAP2 DUP3 DUP5 AND CALLER SUB PUSH2 0xBAF JUMPI POP PUSH1 0x3 SLOAD SWAP3 PUSH20 0xFFFFFFFFFFFFFFFFFFFFFFFFFFFFFFFFFFFFFFFF NOT SWAP1 CALLER DUP3 DUP7 AND OR PUSH1 0x3 SSTORE AND SWAP1 SSTORE CALLER SWAP2 AND PUSH32 0x8BE0079C531659141344CD1FD0A4F28419497F9722A3DAAFE3B4186F6B6457E0 DUP4 DUP1 LOG3 DUP1 RETURN JUMPDEST SWAP1 PUSH1 0x20 PUSH1 0x64 SWAP3 MLOAD SWAP2 PUSH3 0x461BCD PUSH1 0xE5 SHL DUP4 MSTORE DUP3 ADD MSTORE PUSH1 0x16 PUSH1 0x24 DUP3 ADD MSTORE PUSH32 0x4D7573742062652070726F706F736564206F776E657200000000000000000000 PUSH1 0x44 DUP3 ADD MSTORE REVERT JUMPDEST POP POP CALLVALUE PUSH2 0x2EF JUMPI DUP2 PUSH1 0x3 NOT CALLDATASIZE ADD SLT PUSH2 0x2EF JUMPI PUSH1 0x20 SWAP1 PUSH1 0x11 SLOAD SWAP1 MLOAD SWAP1 DUP2 MSTORE RETURN JUMPDEST SWAP2 SWAP1 POP CALLVALUE PUSH2 0x425 JUMPI PUSH1 0x20 SWAP2 DUP3 PUSH1 0x3 NOT CALLDATASIZE ADD SLT PUSH2 0x80E JUMPI DUP1 CALLDATALOAD PUSH8 0xFFFFFFFFFFFFFFFF DUP2 GT PUSH2 0x421 JUMPI PUSH2 0xC45 SWAP1 CALLDATASIZE SWAP1 DUP4 ADD PUSH2 0x19D2 JUMP JUMPDEST POP PUSH1 0x18 SLOAD TIMESTAMP SUB SWAP1 TIMESTAMP DUP3 GT PUSH2 0xCA3 JUMPI POP PUSH1 0xA SLOAD LT SWAP1 DUP1 MLOAD SWAP4 DUP5 SWAP3 DUP4 MSTORE DUP2 DUP5 DUP5 ADD MSTORE PUSH1 0x60 SWAP4 DUP5 MLOAD DUP1 SWAP4 DUP6 ADD MSTORE DUP2 JUMPDEST DUP4 DUP2 LT PUSH2 0xC8E JUMPI POP POP DUP3 DUP3 ADD DUP5 ADD MSTORE PUSH1 0x1F ADD PUSH1 0x1F NOT AND DUP2 ADD SUB ADD SWAP1 RETURN JUMPDEST PUSH1 0x80 DUP2 ADD MLOAD DUP8 DUP3 ADD DUP8 ADD MSTORE DUP7 SWAP5 POP DUP2 ADD PUSH2 0xC71 JUMP JUMPDEST DUP5 PUSH1 0x11 PUSH1 0x24 SWAP3 PUSH4 0x4E487B71 PUSH1 0xE0 SHL DUP4 MSTORE MSTORE REVERT JUMPDEST POP POP CALLVALUE PUSH2 0x2EF JUMPI DUP2 PUSH1 0x3 NOT CALLDATASIZE ADD SLT PUSH2 0x2EF JUMPI PUSH1 0x20 SWAP1 PUSH1 0x1 PUSH1 0x1 PUSH1 0xA0 SHL SUB PUSH1 0x1B SLOAD AND SWAP1 MLOAD SWAP1 DUP2 MSTORE RETURN JUMPDEST POP POP CALLVALUE PUSH2 0x2EF JUMPI DUP2 PUSH1 0x3 NOT CALLDATASIZE ADD SLT PUSH2 0x2EF JUMPI PUSH2 0x266 SWAP1 PUSH2 0x560 PUSH2 0x1764 JUMP JUMPDEST POP POP CALLVALUE PUSH2 0x2EF JUMPI DUP2 PUSH1 0x3 NOT CALLDATASIZE ADD SLT PUSH2 0x2EF JUMPI PUSH1 0x20 SWAP1 PUSH1 0x1 PUSH1 0x1 PUSH1 0xA0 SHL SUB PUSH1 0x1E SLOAD AND SWAP1 MLOAD SWAP1 DUP2 MSTORE RETURN JUMPDEST POP POP CALLVALUE PUSH2 0x2EF JUMPI DUP2 PUSH1 0x3 NOT CALLDATASIZE ADD SLT PUSH2 0x2EF JUMPI PUSH1 0x20 SWAP1 MLOAD PUSH1 0x1 DUP2 MSTORE RETURN JUMPDEST POP POP CALLVALUE PUSH2 0x2EF JUMPI DUP2 PUSH1 0x3 NOT CALLDATASIZE ADD SLT PUSH2 0x2EF JUMPI DUP1 MLOAD SWAP1 DUP3 PUSH1 0x14 SLOAD PUSH2 0xD62 DUP2 PUSH2 0x16F2 JUMP JUMPDEST DUP1 DUP6 MSTORE SWAP2 PUSH1 0x1 SWAP2 DUP1 DUP4 AND SWAP1 DUP2 ISZERO PUSH2 0x2C7 JUMPI POP PUSH1 0x1 EQ PUSH2 0xD8D JUMPI POP POP POP PUSH2 0x254 DUP3 PUSH2 0x266 SWAP5 SUB DUP4 PUSH2 0x172C JUMP JUMPDEST SWAP5 POP PUSH1 0x14 DUP6 MSTORE PUSH32 0xCE6D7B5282BD9A3661AE061FEED1DBDA4E52AB073B1F9285BE6E155D9C38D4EC JUMPDEST DUP3 DUP7 LT PUSH2 0xDD2 JUMPI POP POP POP PUSH2 0x254 DUP3 PUSH1 0x20 PUSH2 0x266 SWAP6 DUP3 ADD ADD SWAP5 PUSH2 0x242 JUMP JUMPDEST DUP1 SLOAD PUSH1 0x20 DUP8 DUP8 ADD DUP2 ADD SWAP2 SWAP1 SWAP2 MSTORE SWAP1 SWAP6 ADD SWAP5 DUP2 ADD PUSH2 0xDB5 JUMP JUMPDEST POP POP CALLVALUE PUSH2 0x2EF JUMPI DUP2 PUSH1 0x3 NOT CALLDATASIZE ADD SLT PUSH2 0x2EF JUMPI PUSH1 0x20 SWAP1 PUSH1 0x1F SLOAD SWAP1 MLOAD SWAP1 DUP2 MSTORE RETURN JUMPDEST POP POP CALLVALUE PUSH2 0x2EF JUMPI DUP2 PUSH1 0x3 NOT CALLDATASIZE ADD SLT PUSH2 0x2EF JUMPI PUSH1 0x20 SWAP1 PUSH1 0x16 SLOAD SWAP1 MLOAD SWAP1 DUP2 MSTORE RETURN JUMPDEST POP POP CALLVALUE PUSH2 0x2EF JUMPI DUP2 PUSH1 0x3 NOT CALLDATASIZE ADD SLT PUSH2 0x2EF JUMPI PUSH1 0x20 SWAP1 PUSH1 0x17 SLOAD SWAP1 MLOAD SWAP1 DUP2 MSTORE RETURN JUMPDEST DUP4 DUP4 CALLVALUE PUSH2 0x2EF JUMPI PUSH1 0x60 CALLDATASIZE PUSH1 0x3 NOT ADD SLT PUSH2 0x2EF JUMPI PUSH1 0x24 DUP1 CALLDATALOAD SWAP2 PUSH8 0xFFFFFFFFFFFFFFFF SWAP3 DUP4 DUP2 GT PUSH2 0x421 JUMPI PUSH2 0xE7D SWAP1 CALLDATASIZE SWAP1 DUP8 ADD PUSH2 0x19D2 JUMP JUMPDEST SWAP2 PUSH1 0x44 CALLDATALOAD DUP5 DUP2 GT PUSH2 0x127C JUMPI PUSH2 0xE95 SWAP1 CALLDATASIZE SWAP1 DUP9 ADD PUSH2 0x19D2 JUMP JUMPDEST SWAP4 DUP4 MLOAD DUP2 DUP2 GT PUSH2 0x117E JUMPI PUSH2 0xEAA PUSH1 0x7 SLOAD PUSH2 0x16F2 JUMP JUMPDEST SWAP1 PUSH1 0x1F SWAP2 DUP3 DUP2 GT PUSH2 0x121C JUMPI JUMPDEST POP DUP1 PUSH1 0x20 DUP4 DUP3 GT PUSH1 0x1 EQ PUSH2 0x119B JUMPI DUP10 SWAP2 PUSH2 0x1190 JUMPI JUMPDEST POP DUP2 PUSH1 0x1 SHL SWAP2 PUSH1 0x0 NOT SWAP1 PUSH1 0x3 SHL SHR NOT AND OR PUSH1 0x7 SSTORE JUMPDEST DUP6 MLOAD SWAP2 DUP3 GT PUSH2 0x117E JUMPI DUP2 SWAP1 PUSH2 0xEF6 PUSH1 0x8 SLOAD PUSH2 0x16F2 JUMP JUMPDEST DUP2 DUP2 GT PUSH2 0x1111 JUMPI JUMPDEST POP PUSH1 0x20 SWAP1 DUP3 GT PUSH1 0x1 EQ PUSH2 0x1090 JUMPI DUP8 SWAP2 PUSH2 0x1085 JUMPI JUMPDEST POP DUP2 PUSH1 0x1 SHL SWAP2 PUSH1 0x0 NOT SWAP1 PUSH1 0x3 SHL SHR NOT AND OR PUSH1 0x8 SSTORE JUMPDEST PUSH1 0xB SLOAD PUSH1 0x1 DUP2 ADD DUP1 SWAP2 GT PUSH2 0x1073 JUMPI PUSH1 0xB SSTORE PUSH1 0x1E SLOAD PUSH1 0xA0 SHR PUSH1 0xFF AND PUSH2 0x101A JUMPI PUSH1 0x22 SLOAD PUSH9 0x10000000000000000 DUP2 LT ISZERO PUSH2 0x1008 JUMPI DUP1 PUSH1 0x1 PUSH2 0xF69 SWAP3 ADD PUSH1 0x22 SSTORE PUSH2 0x16A5 JUMP JUMPDEST SWAP2 SWAP1 SWAP2 PUSH2 0xFF8 JUMPI POP PUSH32 0x7BAB0EC163B5C132C72B8146AC4D6E067E82ED58F8B131150AA71C9258911562 SWAP4 SWAP5 SWAP6 PUSH2 0xFA2 DUP5 PUSH2 0xFF2 SWAP4 PUSH2 0x1A9D JUMP JUMPDEST PUSH32 0xB8C1B3113292644DF2BF7F437C82A485B897C95EC146CA6CA3DEA2EC2F674AD9 PUSH1 0x20 PUSH1 0x22 SLOAD DUP6 MLOAD SWAP1 DUP2 MSTORE LOG1 JUMPDEST PUSH2 0xFE2 DUP4 MLOAD SWAP5 DUP5 DUP7 SWAP6 DUP7 MSTORE DUP6 ADD SWAP1 PUSH2 0x195F JUMP JUMPDEST SWAP1 DUP4 DUP3 SUB PUSH1 0x20 DUP6 ADD MSTORE CALLDATALOAD SWAP6 PUSH2 0x195F JUMP JUMPDEST SUB SWAP1 LOG2 DUP1 RETURN JUMPDEST DUP6 DUP1 DUP9 PUSH4 0x4E487B71 PUSH1 0xE0 SHL DUP3 MSTORE MSTORE REVERT JUMPDEST POP DUP5 PUSH1 0x41 DUP8 PUSH4 0x4E487B71 PUSH1 0xE0 SHL DUP4 MSTORE MSTORE REVERT JUMPDEST POP PUSH2 0xFF2 PUSH32 0x7BAB0EC163B5C132C72B8146AC4D6E067E82ED58F8B131150AA71C9258911562 SWAP4 SWAP5 SWAP6 PUSH32 0xB8C1B3113292644DF2BF7F437C82A485B897C95EC146CA6CA3DEA2EC2F674AD9 PUSH1 0x20 PUSH1 0x21 SLOAD DUP6 MLOAD SWAP1 DUP2 MSTORE LOG1 PUSH2 0xFCF JUMP JUMPDEST POP DUP5 PUSH1 0x11 DUP8 PUSH4 0x4E487B71 PUSH1 0xE0 SHL DUP4 MSTORE MSTORE REVERT JUMPDEST SWAP1 POP DUP6 ADD MLOAD DUP9 PUSH2 0xF12 JUMP JUMPDEST PUSH1 0x8 DUP9 MSTORE PUSH32 0xF3F7A9FE364FAAB93B216DA50A3214154F22A0A2B415B23A84C8169E8B636EE3 SWAP2 POP PUSH1 0x1F NOT DUP4 AND DUP9 JUMPDEST DUP2 DUP2 LT PUSH2 0x10F9 JUMPI POP SWAP1 DUP4 PUSH1 0x1 SWAP5 SWAP4 SWAP3 LT PUSH2 0x10E0 JUMPI JUMPDEST POP POP DUP2 SHL ADD PUSH1 0x8 SSTORE PUSH2 0xF27 JUMP JUMPDEST DUP8 ADD MLOAD PUSH1 0x0 NOT PUSH1 0xF8 DUP5 PUSH1 0x3 SHL AND SHR NOT AND SWAP1 SSTORE DUP9 DUP1 PUSH2 0x10D3 JUMP JUMPDEST SWAP2 SWAP3 PUSH1 0x20 PUSH1 0x1 DUP2 SWAP3 DUP7 DUP13 ADD MLOAD DUP2 SSTORE ADD SWAP5 ADD SWAP3 ADD PUSH2 0x10BE JUMP JUMPDEST SWAP1 SWAP2 POP PUSH1 0x8 DUP9 MSTORE PUSH32 0xF3F7A9FE364FAAB93B216DA50A3214154F22A0A2B415B23A84C8169E8B636EE3 DUP3 DUP1 DUP6 ADD PUSH1 0x5 SHR DUP3 ADD SWAP3 PUSH1 0x20 DUP7 LT PUSH2 0x1175 JUMPI JUMPDEST SWAP4 DUP6 SWAP5 SWAP4 SWAP3 SWAP2 SWAP4 ADD PUSH1 0x5 SHR ADD SWAP1 JUMPDEST DUP2 DUP2 LT PUSH2 0x1167 JUMPI POP PUSH2 0xEFE JUMP JUMPDEST DUP10 DUP2 SSTORE DUP5 SWAP4 POP PUSH1 0x1 ADD PUSH2 0x115A JUMP JUMPDEST SWAP3 POP DUP2 SWAP3 PUSH2 0x114C JUMP JUMPDEST DUP3 DUP8 PUSH1 0x41 DUP11 PUSH4 0x4E487B71 PUSH1 0xE0 SHL DUP4 MSTORE MSTORE REVERT JUMPDEST SWAP1 POP DUP7 ADD MLOAD DUP11 PUSH2 0xECB JUMP JUMPDEST PUSH1 0x7 DUP11 MSTORE PUSH32 0xA66CC928B5EDB82AF9BD49922954155AB7B0942694BEA4CE44661D9A8736C688 SWAP2 POP PUSH1 0x1F NOT DUP4 AND DUP11 JUMPDEST DUP2 DUP2 LT PUSH2 0x1204 JUMPI POP SWAP1 DUP4 PUSH1 0x1 SWAP5 SWAP4 SWAP3 LT PUSH2 0x11EB JUMPI JUMPDEST POP POP DUP2 SHL ADD PUSH1 0x7 SSTORE PUSH2 0xEE0 JUMP JUMPDEST DUP9 ADD MLOAD PUSH1 0x0 NOT PUSH1 0xF8 DUP5 PUSH1 0x3 SHL AND SHR NOT AND SWAP1 SSTORE DUP11 DUP1 PUSH2 0x11DE JUMP JUMPDEST SWAP2 SWAP3 PUSH1 0x20 PUSH1 0x1 DUP2 SWAP3 DUP7 DUP14 ADD MLOAD DUP2 SSTORE ADD SWAP5 ADD SWAP3 ADD PUSH2 0x11C9 JUMP JUMPDEST PUSH1 0x7 DUP10 MSTORE PUSH32 0xA66CC928B5EDB82AF9BD49922954155AB7B0942694BEA4CE44661D9A8736C688 DUP4 DUP1 DUP5 ADD PUSH1 0x5 SHR DUP3 ADD SWAP3 PUSH1 0x20 DUP6 LT PUSH2 0x1273 JUMPI JUMPDEST ADD PUSH1 0x5 SHR ADD SWAP1 JUMPDEST DUP2 DUP2 LT PUSH2 0x1268 JUMPI POP PUSH2 0xEB6 JUMP JUMPDEST DUP10 DUP2 SSTORE PUSH1 0x1 ADD PUSH2 0x125B JUMP JUMPDEST SWAP3 POP DUP2 SWAP3 PUSH2 0x1254 JUMP JUMPDEST DUP6 DUP1 REVERT JUMPDEST POP POP CALLVALUE PUSH2 0x2EF JUMPI DUP2 PUSH1 0x3 NOT CALLDATASIZE ADD SLT PUSH2 0x2EF JUMPI DUP1 MLOAD SWAP1 DUP3 PUSH1 0x13 SLOAD PUSH2 0x12A2 DUP2 PUSH2 0x16F2 JUMP JUMPDEST DUP1 DUP6 MSTORE SWAP2 PUSH1 0x1 SWAP2 DUP1 DUP4 AND SWAP1 DUP2 ISZERO PUSH2 0x2C7 JUMPI POP PUSH1 0x1 EQ PUSH2 0x12CD JUMPI POP POP POP PUSH2 0x254 DUP3 PUSH2 0x266 SWAP5 SUB DUP4 PUSH2 0x172C JUMP JUMPDEST SWAP5 POP PUSH1 0x13 DUP6 MSTORE PUSH32 0x66DE8FFDA797E3DE9C05E8FC57B3BF0EC28A930D40B0D285D93C06501CF6A090 JUMPDEST DUP3 DUP7 LT PUSH2 0x1312 JUMPI POP POP POP PUSH2 0x254 DUP3 PUSH1 0x20 PUSH2 0x266 SWAP6 DUP3 ADD ADD SWAP5 PUSH2 0x242 JUMP JUMPDEST DUP1 SLOAD PUSH1 0x20 DUP8 DUP8 ADD DUP2 ADD SWAP2 SWAP1 SWAP2 MSTORE SWAP1 SWAP6 ADD SWAP5 DUP2 ADD PUSH2 0x12F5 JUMP JUMPDEST POP POP CALLVALUE PUSH2 0x2EF JUMPI DUP2 PUSH1 0x3 NOT CALLDATASIZE ADD SLT PUSH2 0x2EF JUMPI PUSH1 0x20 SWAP1 PUSH1 0xB SLOAD SWAP1 MLOAD SWAP1 DUP2 MSTORE RETURN JUMPDEST DUP4 CALLVALUE PUSH2 0xAEC JUMPI PUSH1 0x60 CALLDATASIZE PUSH1 0x3 NOT ADD SLT PUSH2 0xAEC JUMPI PUSH8 0xFFFFFFFFFFFFFFFF DUP3 CALLDATALOAD DUP2 DUP2 GT PUSH2 0x425 JUMPI PUSH2 0x137A SWAP1 CALLDATASIZE SWAP1 DUP6 ADD PUSH2 0x199F JUMP JUMPDEST SWAP1 SWAP4 PUSH1 0x24 CALLDATALOAD SWAP3 DUP1 DUP5 AND DUP1 SWAP5 SUB PUSH2 0x421 JUMPI PUSH2 0x1392 PUSH2 0x1A45 JUMP JUMPDEST DUP3 GT PUSH2 0xAD9 JUMPI POP PUSH2 0x13A4 PUSH1 0x5 SLOAD PUSH2 0x16F2 JUMP JUMPDEST PUSH1 0x1F DUP2 GT PUSH2 0x147F JUMPI JUMPDEST POP DUP3 PUSH1 0x1F DUP3 GT PUSH1 0x1 EQ PUSH2 0x1401 JUMPI DUP4 SWAP5 DUP3 SWAP4 SWAP5 SWAP3 PUSH2 0x13F6 JUMPI JUMPDEST POP POP DUP2 PUSH1 0x1 SHL SWAP2 PUSH1 0x0 NOT SWAP1 PUSH1 0x3 SHL SHR NOT AND OR PUSH1 0x5 SSTORE JUMPDEST PUSH8 0xFFFFFFFFFFFFFFFF NOT PUSH1 0x9 SLOAD AND OR PUSH1 0x9 SSTORE PUSH1 0x44 CALLDATALOAD PUSH1 0x11 SSTORE DUP1 RETURN JUMPDEST ADD CALLDATALOAD SWAP1 POP DUP5 DUP1 PUSH2 0x13C5 JUMP JUMPDEST PUSH1 0x1F NOT DUP3 AND SWAP5 PUSH32 0x36B6384B5ECA791C62761152D0C79BB0604C104A5FB6F4EB0703F3154BB3DB0 SWAP2 DUP6 JUMPDEST DUP8 DUP2 LT PUSH2 0x1467 JUMPI POP DUP4 PUSH1 0x1 SWAP6 SWAP7 SWAP8 LT PUSH2 0x144D JUMPI JUMPDEST POP POP POP DUP2 SHL ADD PUSH1 0x5 SSTORE PUSH2 0x13DB JUMP JUMPDEST ADD CALLDATALOAD PUSH1 0x0 NOT PUSH1 0x3 DUP5 SWAP1 SHL PUSH1 0xF8 AND SHR NOT AND SWAP1 SSTORE DUP5 DUP1 DUP1 PUSH2 0x143F JUMP JUMPDEST SWAP1 SWAP3 PUSH1 0x20 PUSH1 0x1 DUP2 SWAP3 DUP7 DUP7 ADD CALLDATALOAD DUP2 SSTORE ADD SWAP5 ADD SWAP2 ADD PUSH2 0x142B JUMP JUMPDEST PUSH32 0x36B6384B5ECA791C62761152D0C79BB0604C104A5FB6F4EB0703F3154BB3DB0 PUSH1 0x1F DUP4 ADD PUSH1 0x5 SHR DUP2 ADD SWAP2 PUSH1 0x20 DUP5 LT PUSH2 0x14D4 JUMPI JUMPDEST PUSH1 0x1F ADD PUSH1 0x5 SHR ADD SWAP1 JUMPDEST DUP2 DUP2 LT PUSH2 0x14C9 JUMPI POP PUSH2 0x13AD JUMP JUMPDEST DUP5 DUP2 SSTORE PUSH1 0x1 ADD PUSH2 0x14BC JUMP JUMPDEST SWAP1 SWAP2 POP DUP2 SWAP1 PUSH2 0x14B3 JUMP JUMPDEST POP POP CALLVALUE PUSH2 0x2EF JUMPI DUP2 PUSH1 0x3 NOT CALLDATASIZE ADD SLT PUSH2 0x2EF JUMPI DUP1 MLOAD SWAP1 DUP3 PUSH1 0xF SLOAD PUSH2 0x1500 DUP2 PUSH2 0x16F2 JUMP JUMPDEST DUP1 DUP6 MSTORE SWAP2 PUSH1 0x1 SWAP2 DUP1 DUP4 AND SWAP1 DUP2 ISZERO PUSH2 0x2C7 JUMPI POP PUSH1 0x1 EQ PUSH2 0x152B JUMPI POP POP POP PUSH2 0x254 DUP3 PUSH2 0x266 SWAP5 SUB DUP4 PUSH2 0x172C JUMP JUMPDEST SWAP5 POP PUSH1 0xF DUP6 MSTORE PUSH32 0x8D1108E10BCB7C27DDDFC02ED9D693A074039D026CF4EA4240B40F7D581AC802 JUMPDEST DUP3 DUP7 LT PUSH2 0x1570 JUMPI POP POP POP PUSH2 0x254 DUP3 PUSH1 0x20 PUSH2 0x266 SWAP6 DUP3 ADD ADD SWAP5 PUSH2 0x242 JUMP JUMPDEST DUP1 SLOAD PUSH1 0x20 DUP8 DUP8 ADD DUP2 ADD SWAP2 SWAP1 SWAP2 MSTORE SWAP1 SWAP6 ADD SWAP5 DUP2 ADD PUSH2 0x1553 JUMP JUMPDEST DUP3 DUP5 CALLVALUE PUSH2 0xAEC JUMPI PUSH1 0x20 CALLDATASIZE PUSH1 0x3 NOT ADD SLT PUSH2 0xAEC JUMPI DUP3 CALLDATALOAD PUSH1 0x22 SLOAD DUP2 LT ISZERO PUSH2 0x2EF JUMPI PUSH2 0x15B0 SWAP1 PUSH2 0x16A5 JUMP JUMPDEST SWAP4 SWAP1 SWAP4 PUSH2 0x15C4 JUMPI PUSH2 0x266 DUP4 PUSH2 0x560 DUP7 PUSH2 0x18BB JUMP JUMPDEST SWAP1 DUP1 PUSH1 0x24 SWAP3 PUSH4 0x4E487B71 PUSH1 0xE0 SHL DUP3 MSTORE MSTORE REVERT JUMPDEST POP POP CALLVALUE PUSH2 0x2EF JUMPI DUP2 PUSH1 0x3 NOT CALLDATASIZE ADD SLT PUSH2 0x2EF JUMPI PUSH1 0x9 SLOAD DUP2 MLOAD SWAP2 SHR PUSH4 0xFFFFFFFF AND DUP2 MSTORE PUSH1 0x20 SWAP1 RETURN JUMPDEST POP POP CALLVALUE PUSH2 0x2EF JUMPI DUP2 PUSH1 0x3 NOT CALLDATASIZE ADD SLT PUSH2 0x2EF JUMPI PUSH1 0x20 SWAP1 PUSH1 0x6 SLOAD SWAP1 MLOAD SWAP1 DUP2 MSTORE RETURN JUMPDEST POP POP CALLVALUE PUSH2 0x2EF JUMPI DUP2 PUSH1 0x3 NOT CALLDATASIZE ADD SLT PUSH2 0x2EF JUMPI PUSH1 0x20 SWAP1 PUSH1 0x1 PUSH1 0x1 PUSH1 0xA0 SHL SUB PUSH1 0x1A SLOAD AND SWAP1 MLOAD SWAP1 DUP2 MSTORE RETURN JUMPDEST POP POP CALLVALUE PUSH2 0x2EF JUMPI DUP2 PUSH1 0x3 NOT CALLDATASIZE ADD SLT PUSH2 0x2EF JUMPI PUSH1 0x20 SWAP1 PUSH8 0xFFFFFFFFFFFFFFFF PUSH1 0x9 SLOAD AND SWAP1 MLOAD SWAP1 DUP2 MSTORE RETURN JUMPDEST POP POP CALLVALUE PUSH2 0x2EF JUMPI DUP2 PUSH1 0x3 NOT CALLDATASIZE ADD SLT PUSH2 0x2EF JUMPI PUSH1 0x20 SWAP1 PUSH1 0x18 SLOAD SWAP1 MLOAD SWAP1 DUP2 MSTORE RETURN JUMPDEST DUP5 SWAP1 CALLVALUE PUSH2 0x2EF JUMPI DUP2 PUSH1 0x3 NOT CALLDATASIZE ADD SLT PUSH2 0x2EF JUMPI PUSH1 0x20 SWAP2 SLOAD DUP2 MSTORE RETURN JUMPDEST PUSH1 0x22 SLOAD DUP2 LT ISZERO PUSH2 0x16DC JUMPI PUSH1 0x22 PUSH1 0x0 MSTORE PUSH32 0x61035B26E3E9EEE00E0D72FD1EE8DDCA6894550DCA6916EA2AC6BAA90D11E510 ADD SWAP1 PUSH1 0x0 SWAP1 JUMP JUMPDEST PUSH4 0x4E487B71 PUSH1 0xE0 SHL PUSH1 0x0 MSTORE PUSH1 0x32 PUSH1 0x4 MSTORE PUSH1 0x24 PUSH1 0x0 REVERT JUMPDEST SWAP1 PUSH1 0x1 DUP3 DUP2 SHR SWAP3 AND DUP1 ISZERO PUSH2 0x1722 JUMPI JUMPDEST PUSH1 0x20 DUP4 LT EQ PUSH2 0x170C JUMPI JUMP JUMPDEST PUSH4 0x4E487B71 PUSH1 0xE0 SHL PUSH1 0x0 MSTORE PUSH1 0x22 PUSH1 0x4 MSTORE PUSH1 0x24 PUSH1 0x0 REVERT JUMPDEST SWAP2 PUSH1 0x7F AND SWAP2 PUSH2 0x1701 JUMP JUMPDEST SWAP1 PUSH1 0x1F DUP1 NOT SWAP2 ADD AND DUP2 ADD SWAP1 DUP2 LT PUSH8 0xFFFFFFFFFFFFFFFF DUP3 GT OR PUSH2 0x174E JUMPI PUSH1 0x40 MSTORE JUMP JUMPDEST PUSH4 0x4E487B71 PUSH1 0xE0 SHL PUSH1 0x0 MSTORE PUSH1 0x41 PUSH1 0x4 MSTORE PUSH1 0x24 PUSH1 0x0 REVERT JUMPDEST PUSH1 0x40 MLOAD SWAP1 PUSH1 0x0 DUP3 PUSH1 0x5 SLOAD SWAP2 PUSH2 0x1778 DUP4 PUSH2 0x16F2 JUMP JUMPDEST DUP1 DUP4 MSTORE SWAP3 PUSH1 0x1 SWAP1 DUP2 DUP2 AND SWAP1 DUP2 ISZERO PUSH2 0x1800 JUMPI POP PUSH1 0x1 EQ PUSH2 0x17A1 JUMPI JUMPDEST POP PUSH2 0x179F SWAP3 POP SUB DUP4 PUSH2 0x172C JUMP JUMPDEST JUMP JUMPDEST PUSH1 0x5 PUSH1 0x0 SWAP1 DUP2 MSTORE SWAP2 POP PUSH32 0x36B6384B5ECA791C62761152D0C79BB0604C104A5FB6F4EB0703F3154BB3DB0 JUMPDEST DUP5 DUP4 LT PUSH2 0x17E5 JUMPI POP PUSH2 0x179F SWAP4 POP POP DUP2 ADD PUSH1 0x20 ADD CODESIZE PUSH2 0x1792 JUMP JUMPDEST DUP2 SWAP4 POP SWAP1 DUP2 PUSH1 0x20 SWAP3 SLOAD DUP4 DUP6 DUP11 ADD ADD MSTORE ADD SWAP2 ADD SWAP1 SWAP2 DUP6 SWAP3 PUSH2 0x17CC JUMP JUMPDEST SWAP1 POP PUSH1 0x20 SWAP3 POP PUSH2 0x179F SWAP5 SWAP2 POP PUSH1 0xFF NOT AND DUP3 DUP5 ADD MSTORE ISZERO ISZERO PUSH1 0x5 SHL DUP3 ADD ADD CODESIZE PUSH2 0x1792 JUMP JUMPDEST PUSH1 0x40 MLOAD SWAP1 PUSH1 0x0 DUP3 PUSH1 0x24 SLOAD SWAP2 PUSH2 0x1836 DUP4 PUSH2 0x16F2 JUMP JUMPDEST DUP1 DUP4 MSTORE SWAP3 PUSH1 0x1 SWAP1 DUP2 DUP2 AND SWAP1 DUP2 ISZERO PUSH2 0x1800 JUMPI POP PUSH1 0x1 EQ PUSH2 0x185C JUMPI POP PUSH2 0x179F SWAP3 POP SUB DUP4 PUSH2 0x172C JUMP JUMPDEST PUSH1 0x24 PUSH1 0x0 SWAP1 DUP2 MSTORE SWAP2 POP PUSH32 0x7CD332D19B93BCABE3CCE7CA0C18A052F57E5FD03B4758A09F30F5DDC4B22EC4 JUMPDEST DUP5 DUP4 LT PUSH2 0x18A0 JUMPI POP PUSH2 0x179F SWAP4 POP POP DUP2 ADD PUSH1 0x20 ADD CODESIZE PUSH2 0x1792 JUMP JUMPDEST DUP2 SWAP4 POP SWAP1 DUP2 PUSH1 0x20 SWAP3 SLOAD DUP4 DUP6 DUP11 ADD ADD MSTORE ADD SWAP2 ADD SWAP1 SWAP2 DUP6 SWAP3 PUSH2 0x1887 JUMP JUMPDEST SWAP1 PUSH1 0x40 MLOAD SWAP2 DUP3 PUSH1 0x0 DUP3 SLOAD SWAP3 PUSH2 0x18CF DUP5 PUSH2 0x16F2 JUMP JUMPDEST SWAP1 DUP2 DUP5 MSTORE PUSH1 0x1 SWAP5 DUP6 DUP2 AND SWAP1 DUP2 PUSH1 0x0 EQ PUSH2 0x193C JUMPI POP PUSH1 0x1 EQ PUSH2 0x18F9 JUMPI JUMPDEST POP POP PUSH2 0x179F SWAP3 POP SUB DUP4 PUSH2 0x172C JUMP JUMPDEST SWAP1 SWAP4 SWAP2 POP PUSH1 0x0 MSTORE PUSH1 0x20 SWAP1 DUP2 PUSH1 0x0 KECCAK256 SWAP4 PUSH1 0x0 SWAP2 JUMPDEST DUP2 DUP4 LT PUSH2 0x1924 JUMPI POP POP PUSH2 0x179F SWAP4 POP DUP3 ADD ADD CODESIZE DUP1 PUSH2 0x18EB JUMP JUMPDEST DUP6 SLOAD DUP9 DUP5 ADD DUP6 ADD MSTORE SWAP5 DUP6 ADD SWAP5 DUP8 SWAP5 POP SWAP2 DUP4 ADD SWAP2 PUSH2 0x190C JUMP JUMPDEST SWAP2 POP POP PUSH2 0x179F SWAP5 POP PUSH1 0x20 SWAP3 POP PUSH1 0xFF NOT AND DUP3 DUP5 ADD MSTORE ISZERO ISZERO PUSH1 0x5 SHL DUP3 ADD ADD CODESIZE DUP1 PUSH2 0x18EB JUMP JUMPDEST SWAP2 SWAP1 DUP3 MLOAD SWAP3 DUP4 DUP3 MSTORE PUSH1 0x0 JUMPDEST DUP5 DUP2 LT PUSH2 0x198B JUMPI POP POP DUP3 PUSH1 0x0 PUSH1 0x20 DUP1 SWAP5 SWAP6 DUP5 ADD ADD MSTORE PUSH1 0x1F DUP1 NOT SWAP2 ADD AND ADD ADD SWAP1 JUMP JUMPDEST PUSH1 0x20 DUP2 DUP4 ADD DUP2 ADD MLOAD DUP5 DUP4 ADD DUP3 ADD MSTORE ADD PUSH2 0x196A JUMP JUMPDEST SWAP2 DUP2 PUSH1 0x1F DUP5 ADD SLT ISZERO PUSH2 0x19CD JUMPI DUP3 CALLDATALOAD SWAP2 PUSH8 0xFFFFFFFFFFFFFFFF DUP4 GT PUSH2 0x19CD JUMPI PUSH1 0x20 DUP4 DUP2 DUP7 ADD SWAP6 ADD ADD GT PUSH2 0x19CD JUMPI JUMP JUMPDEST PUSH1 0x0 DUP1 REVERT JUMPDEST DUP2 PUSH1 0x1F DUP3 ADD SLT ISZERO PUSH2 0x19CD JUMPI DUP1 CALLDATALOAD SWAP1 PUSH8 0xFFFFFFFFFFFFFFFF DUP3 GT PUSH2 0x174E JUMPI PUSH1 0x40 MLOAD SWAP3 PUSH2 0x1A07 PUSH1 0x1F DUP5 ADD PUSH1 0x1F NOT AND PUSH1 0x20 ADD DUP6 PUSH2 0x172C JUMP JUMPDEST DUP3 DUP5 MSTORE PUSH1 0x20 DUP4 DUP4 ADD ADD GT PUSH2 0x19CD JUMPI DUP2 PUSH1 0x0 SWAP3 PUSH1 0x20 DUP1 SWAP4 ADD DUP4 DUP7 ADD CALLDATACOPY DUP4 ADD ADD MSTORE SWAP1 JUMP JUMPDEST DUP1 SLOAD DUP3 LT ISZERO PUSH2 0x16DC JUMPI PUSH1 0x0 MSTORE PUSH1 0x20 PUSH1 0x0 KECCAK256 SWAP1 PUSH1 0x2 SHL ADD SWAP1 PUSH1 0x0 SWAP1 JUMP JUMPDEST PUSH1 0x1 PUSH1 0x1 PUSH1 0xA0 SHL SUB PUSH1 0x3 SLOAD AND CALLER SUB PUSH2 0x1A59 JUMPI JUMP JUMPDEST PUSH1 0x64 PUSH1 0x40 MLOAD PUSH3 0x461BCD PUSH1 0xE5 SHL DUP2 MSTORE PUSH1 0x20 PUSH1 0x4 DUP3 ADD MSTORE PUSH1 0x16 PUSH1 0x24 DUP3 ADD MSTORE PUSH32 0x4F6E6C792063616C6C61626C65206279206F776E657200000000000000000000 PUSH1 0x44 DUP3 ADD MSTORE REVERT JUMPDEST SWAP2 SWAP1 SWAP2 DUP3 MLOAD PUSH8 0xFFFFFFFFFFFFFFFF DUP2 GT PUSH2 0x174E JUMPI PUSH2 0x1ABB DUP3 SLOAD PUSH2 0x16F2 JUMP JUMPDEST PUSH1 0x1F DUP2 GT PUSH2 0x1B65 JUMPI JUMPDEST POP PUSH1 0x20 DUP1 PUSH1 0x1F DUP4 GT PUSH1 0x1 EQ PUSH2 0x1B01 JUMPI POP DUP2 SWAP3 SWAP4 SWAP5 PUSH1 0x0 SWAP3 PUSH2 0x1AF6 JUMPI JUMPDEST POP POP DUP2 PUSH1 0x1 SHL SWAP2 PUSH1 0x0 NOT SWAP1 PUSH1 0x3 SHL SHR NOT AND OR SWAP1 SSTORE JUMP JUMPDEST ADD MLOAD SWAP1 POP CODESIZE DUP1 PUSH2 0x1AE0 JUMP JUMPDEST SWAP1 PUSH1 0x1F NOT DUP4 AND SWAP6 DUP5 PUSH1 0x0 MSTORE DUP3 PUSH1 0x0 KECCAK256 SWAP3 PUSH1 0x0 SWAP1 JUMPDEST DUP9 DUP3 LT PUSH2 0x1B4D JUMPI POP POP DUP4 PUSH1 0x1 SWAP6 SWAP7 SWAP8 LT PUSH2 0x1B34 JUMPI JUMPDEST POP POP POP DUP2 SHL ADD SWAP1 SSTORE JUMP JUMPDEST ADD MLOAD PUSH1 0x0 NOT PUSH1 0xF8 DUP5 PUSH1 0x3 SHL AND SHR NOT AND SWAP1 SSTORE CODESIZE DUP1 DUP1 PUSH2 0x1B2A JUMP JUMPDEST DUP1 PUSH1 0x1 DUP6 SWAP7 DUP3 SWAP5 SWAP7 DUP7 ADD MLOAD DUP2 SSTORE ADD SWAP6 ADD SWAP4 ADD SWAP1 PUSH2 0x1B15 JUMP JUMPDEST PUSH1 0x0 DUP4 DUP2 MSTORE PUSH1 0x20 DUP2 KECCAK256 PUSH1 0x1F DUP5 ADD PUSH1 0x5 SHR DUP2 ADD SWAP3 PUSH1 0x20 DUP6 LT PUSH2 0x1BA3 JUMPI JUMPDEST PUSH1 0x1F ADD PUSH1 0x5 SHR ADD SWAP2 JUMPDEST DUP3 DUP2 LT PUSH2 0x1B98 JUMPI POP POP PUSH2 0x1AC4 JUMP JUMPDEST DUP2 DUP2 SSTORE PUSH1 0x1 ADD PUSH2 0x1B8A JUMP JUMPDEST SWAP1 SWAP3 POP DUP3 SWAP1 PUSH2 0x1B81 JUMP JUMPDEST SWAP3 SWAP1 SWAP3 PUSH1 0x40 MLOAD SWAP3 PUSH1 0xA0 DUP5 ADD PUSH8 0xFFFFFFFFFFFFFFFF SWAP6 DUP6 DUP3 LT DUP8 DUP4 GT OR PUSH2 0x174E JUMPI DUP7 SWAP2 PUSH1 0x40 MSTORE AND DUP5 MSTORE PUSH1 0x20 DUP5 ADD SWAP2 DUP3 MSTORE PUSH1 0x40 DUP5 ADD SWAP2 PUSH1 0x1 SWAP1 DUP2 DUP5 MSTORE PUSH4 0xFFFFFFFF PUSH1 0x60 DUP8 ADD SWAP4 AND DUP4 MSTORE PUSH1 0x80 DUP7 ADD SWAP5 DUP6 MSTORE DUP2 SLOAD SWAP7 PUSH1 0x0 SWAP8 DUP1 DUP10 SSTORE DUP4 DUP2 ADD DUP1 DUP3 GT PUSH2 0x1CEB JUMPI DUP5 SSTORE DUP9 MSTORE PUSH1 0x2 PUSH1 0x20 MSTORE PUSH1 0x40 DUP9 KECCAK256 DUP1 SLOAD SWAP1 PUSH9 0x10000000000000000 DUP3 LT ISZERO PUSH2 0x1CD7 JUMPI SWAP1 PUSH2 0x1C3E SWAP2 DUP6 DUP3 ADD DUP2 SSTORE PUSH2 0x1A29 JUMP JUMPDEST SWAP8 SWAP1 SWAP8 PUSH2 0x1CC4 JUMPI SWAP3 PUSH32 0x1131472297A800FEE664D1D89CFA8F7676FF07189ECC53F80BBB5F4969099DB8 SWAP9 SWAP8 SWAP7 SWAP5 SWAP3 PUSH2 0x1C8F SWAP3 PUSH1 0x3 SWAP8 SWAP6 MLOAD AND PUSH8 0xFFFFFFFFFFFFFFFF NOT DUP10 SLOAD AND OR DUP9 SSTORE MLOAD SWAP1 DUP8 ADD PUSH2 0x1A9D JUMP JUMPDEST PUSH2 0xFFFF PUSH1 0x2 DUP7 ADD SWAP3 MLOAD AND PUSH6 0xFFFFFFFF0000 DUP4 SLOAD SWAP3 MLOAD PUSH1 0x10 SHL AND SWAP2 PUSH6 0xFFFFFFFFFFFF NOT AND OR OR SWAP1 SSTORE MLOAD SWAP2 ADD SSTORE DUP1 SLOAD SWAP2 DUP2 DUP4 SWAP3 LOG2 SWAP1 JUMP JUMPDEST PUSH1 0x24 DUP10 PUSH4 0x4E487B71 PUSH1 0xE0 SHL DUP2 MSTORE DUP1 PUSH1 0x4 MSTORE REVERT JUMPDEST PUSH1 0x24 DUP11 PUSH4 0x4E487B71 PUSH1 0xE0 SHL DUP2 MSTORE PUSH1 0x41 PUSH1 0x4 MSTORE REVERT JUMPDEST PUSH1 0x24 DUP11 PUSH4 0x4E487B71 PUSH1 0xE0 SHL DUP2 MSTORE PUSH1 0x11 PUSH1 0x4 MSTORE REVERT INVALID LOG2 PUSH5 0x6970667358 0x22 SLT KECCAK256 0xEE 0x4E SWAP5 0xDE PUSH20 0x66525C2AE673B6F5ED823EFD6F043D48F7AB3BF3 0xF7 GT 0xFC 0xA9 DELEGATECALL PUSH13 0x5D64736F6C6343000813003300 "},"methodIdentifiers":{"REQUEST_DATA_VERSION()":"5d641dfc","acceptOwnership()":"79ba5097","checkUpkeep(bytes)":"6e04ff0d","computationCBOR()":"bd4ca97b","contractBalance()":"8b7afe2e","donID()":"6e74336b","farmer()":"d811fcf0","fulfillGasLimit()":"24b93e3e","fulfillRequest(bytes32,bytes,bytes)":"39b05122","gasLimit()":"f68016b7","humidityLimit()":"a3097139","institution()":"d1384eb6","interval()":"947a36fb","lastUpkeepTimeStamp()":"089ea02e","latestError()":"fffeb84e","latestRequestId()":"1aa46f59","latestResponse()":"bef3a2f0","maxSampleQuantity()":"7ae4e3fb","owner()":"8da5cb5b","performUpkeep(bytes,uint256)":"b8a4836e","registry()":"7b103999","reparationValue()":"48bd6f05","request()":"338cdca1","requestCBOR()":"688ecfd1","requestId()":"006d6cae","requests(bytes32,uint256)":"9655e6d8","responseCounter()":"381fc4b5","router()":"f887ea40","s_lastError()":"4b0795a8","s_lastRequestId()":"b1e21749","s_lastResponse()":"3944ea3a","s_requestCounter()":"48802b92","s_responseCounter()":"43cd3d86","s_upkeepCounter()":"f5c1279b","sampleStorage(uint256)":"277e2213","sepoliaLINKAddress()":"1243bcc3","sepoliaRegistrarAddress()":"6baa48fe","setComputation(bytes)":"7d95f68a","setRequest(bytes,uint64,bytes32)":"36e6a92f","subscriptionId()":"09c1ba2e","transferOwnership(address)":"f2fde38b","upkeepContract()":"5e0611f1","upkeepCounter()":"a3d3c0d2","upkeepId()":"d2aa789f"}}}}}