{
  "_format": "hh-sol-artifact-1",
  "contractName": "FunctionsClient",
  "sourceName": "contracts/mock/mockChainlink/mockFunctionsClient.sol",
  "abi": [
    {
      "anonymous": false,
      "inputs": [
        {
          "indexed": true,
          "internalType": "bytes32",
          "name": "id",
          "type": "bytes32"
        }
      ],
      "name": "RequestSent",
      "type": "event"
    },
    {
      "inputs": [],
      "name": "REQUEST_DATA_VERSION",
      "outputs": [
        {
          "internalType": "uint16",
          "name": "",
          "type": "uint16"
        }
      ],
      "stateMutability": "view",
      "type": "function"
    },
    {
      "inputs": [],
      "name": "requestId",
      "outputs": [
        {
          "internalType": "bytes32",
          "name": "",
          "type": "bytes32"
        }
      ],
      "stateMutability": "view",
      "type": "function"
    },
    {
      "inputs": [
        {
          "internalType": "bytes32",
          "name": "",
          "type": "bytes32"
        },
        {
          "internalType": "uint256",
          "name": "",
          "type": "uint256"
        }
      ],
      "name": "requests",
      "outputs": [
        {
          "internalType": "uint64",
          "name": "subscriptionId",
          "type": "uint64"
        },
        {
          "internalType": "bytes",
          "name": "data",
          "type": "bytes"
        },
        {
          "internalType": "uint16",
          "name": "DATA_VERSION",
          "type": "uint16"
        },
        {
          "internalType": "uint32",
          "name": "callbackGasLimit",
          "type": "uint32"
        },
        {
          "internalType": "bytes32",
          "name": "donId",
          "type": "bytes32"
        }
      ],
      "stateMutability": "view",
      "type": "function"
    }
  ],
  "bytecode": "0x6080806040523461001a576001805561025c90816100208239f35b600080fdfe60806040818152600436101561001457600080fd5b600091823560e01c9081626d6cae1461020c575080635d641dfc146101f157639655e6d81461004257600080fd5b346101ed57806003193601126101ed576024359160043581526020926002845282822080548210156101e95782528382209060021b019167ffffffffffffffff92838154169160019384830196825195829089549081811c9181811680156101df575b85841081146101cb57838b529081156101aa5750600114610171575b5050869003601f01601f19908116870198509688118689101761015d5792909187959694928682526003600284015493015493875260a0858801528751948560a0890152815b86811061014657505060c097509163ffffffff9185949389601f978a01015261ffff82169088015260101c166060860152608085015201168101030190f35b808a018201518b820160c001528a98508101610107565b602482634e487b7160e01b81526041600452fd5b9990915083528183209883995b828b1061019757505050808697988701018897386100c1565b8054898c0185015299830199810161017e565b60ff1916858b015250989950899850151560051b87018201905086386100c1565b602487634e487b7160e01b81526022600452fd5b92607f16926100a5565b8280fd5b5080fd5b50346101ed57816003193601126101ed576020905160018152f35b8390346101ed57816003193601126101ed57602091548152f3fea264697066735822122063f1f39981065009274c4810bafe00089807c5bc7efd2df1f0bbffbef527262e64736f6c63430008130033",
  "linkReferences": {},
  "deployedLinkReferences": {}
}