{
  "_format": "hh-sol-artifact-1",
  "contractName": "InsuranceAPI",
  "sourceName": "contracts/mock/mockInsuranceAPI.sol",
  "abi": [
    {
      "inputs": [
        {
          "internalType": "address",
          "name": "_owner",
          "type": "address"
        }
      ],
      "stateMutability": "nonpayable",
      "type": "constructor"
    },
    {
      "inputs": [],
      "name": "NotOwner",
      "type": "error"
    },
    {
      "anonymous": false,
      "inputs": [
        {
          "indexed": false,
          "internalType": "address",
          "name": "institutionAddress",
          "type": "address"
        }
      ],
      "name": "InstitutionCreated",
      "type": "event"
    },
    {
      "stateMutability": "payable",
      "type": "fallback"
    },
    {
      "inputs": [
        {
          "internalType": "string",
          "name": "_institutionName",
          "type": "string"
        }
      ],
      "name": "createInstitution",
      "outputs": [],
      "stateMutability": "nonpayable",
      "type": "function"
    },
    {
      "inputs": [],
      "name": "donate",
      "outputs": [],
      "stateMutability": "payable",
      "type": "function"
    },
    {
      "inputs": [
        {
          "internalType": "address",
          "name": "",
          "type": "address"
        }
      ],
      "name": "donators",
      "outputs": [
        {
          "internalType": "uint256",
          "name": "",
          "type": "uint256"
        }
      ],
      "stateMutability": "view",
      "type": "function"
    },
    {
      "inputs": [
        {
          "internalType": "uint256",
          "name": "_index",
          "type": "uint256"
        }
      ],
      "name": "getInstitution",
      "outputs": [
        {
          "internalType": "contract Institution",
          "name": "",
          "type": "address"
        }
      ],
      "stateMutability": "view",
      "type": "function"
    },
    {
      "inputs": [],
      "name": "i_owner",
      "outputs": [
        {
          "internalType": "address",
          "name": "",
          "type": "address"
        }
      ],
      "stateMutability": "view",
      "type": "function"
    },
    {
      "inputs": [],
      "name": "withdraw",
      "outputs": [],
      "stateMutability": "nonpayable",
      "type": "function"
    },
    {
      "stateMutability": "payable",
      "type": "receive"
    }
  ],
  "bytecode": "0x60a03461007057601f6130f638819003918201601f19168301916001600160401b038311848410176100755780849260209460405283398101031261007057516001600160a01b03811681036100705760805260405161306a908161008c823960805181818160b501526101780152f35b600080fd5b634e487b7160e01b600052604160045260246000fdfe60406080815260048036101561002a575b5050361561002257610020610464565b005b610020610464565b600091823560e01c918263029bf7011461025d5782633ccfd60b1461015c578263c047b6541461011b578263d24f8cdd146100dd57508163dba6335f14610095575063ed88c68e1461007c5780610010565b806003193601126100925761008f610464565b80f35b80fd5b9050346100d957816003193601126100d957602090516001600160a01b037f0000000000000000000000000000000000000000000000000000000000000000168152f35b5080fd5b9091503461011757602036600319011261011757356001600160a01b03811680910361011757828291602094526001845220549051908152f35b8280fd5b909150346101175760203660031901126101175761014d602093836001600160a01b0393338352828752359120610436565b92905490519260031b1c168152f35b9150346101175782600319360112610117576001600160a01b037f00000000000000000000000000000000000000000000000000000000000000001680330361023657838080809347905af13d15610231573d6101c06101bb8261041a565b6103de565b9081528460203d92013e5b156101d4578280f35b90602060649251917f08c379a0000000000000000000000000000000000000000000000000000000008352820152600f60248201527f4f2073617175652066616c686f752e00000000000000000000000000000000006044820152fd5b6101cb565b50517f30cd7471000000000000000000000000000000000000000000000000000000008152fd5b8382346100d9576020908160031936011261011757833567ffffffffffffffff8082116103da57366023830112156103da578186013561029f6101bb8261041a565b9281845236602483830101116103d65781879260248893018387013784010152825191612b9c808401928311848410176103c35791839192610499833933815284868201528251808683015287935b878286106103aa5750506060935087848284010152601f80199101160103019084f09081156103a1573384528383528084208054906801000000000000000082101561038e577fea999c661f6c9b8cb04b763224104e50ffebeb622f731f760a183d91fdf869989596509061036891600182018155610436565b926001600160a01b038091169382549060031b9185831b921b191617905551908152a180f35b602486604189634e487b7160e01b835252fd5b513d84823e3d90fd5b85820181015160608588010152909401938593506102ee565b60248760418a634e487b7160e01b835252fd5b8680fd5b8480fd5b6040519190601f01601f1916820167ffffffffffffffff81118382101761040457604052565b634e487b7160e01b600052604160045260246000fd5b67ffffffffffffffff811161040457601f01601f191660200190565b805482101561044e5760005260206000200190600090565b634e487b7160e01b600052603260045260246000fd5b33600052600160205260406000208054903482018092116104825755565b634e487b7160e01b600052601160045260246000fdfe60a060405234620002485762002b9c803803806200001d816200024d565b928339810190604081830312620002485780516001600160a01b038116810362000248576020828101516001600160401b039391929184821162000248570193601f91818387011215620002485785518581116200021d57601f19966200008a828601891687016200024d565b938285528683830101116200024857859060005b838110620002335750506000918401015260805280519384116200021d57600054926001938481811c9116801562000212575b82821014620001fc57838111620001b1575b5080928511600114620001475750839450908392916000946200013b575b50501b916000199060031b1c1916176000555b60405161292890816200027482396080518181816103aa0152818161054c015261097d0152f35b01519250388062000101565b9294849081166000805284600020946000905b888383106200019657505050106200017c575b505050811b0160005562000114565b015160001960f88460031b161c191690553880806200016d565b8587015188559096019594850194879350908101906200015a565b60008052816000208480880160051c820192848910620001f2575b0160051c019085905b828110620001e5575050620000e3565b60008155018590620001d5565b92508192620001cc565b634e487b7160e01b600052602260045260246000fd5b90607f1690620000d1565b634e487b7160e01b600052604160045260246000fd5b8181018301518682018401528792016200009e565b600080fd5b6040519190601f01601f191682016001600160401b038111838210176200021d5760405256fe608060405260043610156200001d575b36156200001b57600080fd5b005b60003560e01c8063080a57f914620001065780633a133e2c14620001005780633ccfd60b14620000fa5780636a4ac97914620000f45780636f9170f614620000ee57806377ad0b3414620000e857806385fae60214620000e25780638a699f0014620000dc5780638b7afe2e14620000d65780639b19251a14620000d0578063af640d0f14620000ca578063dba6335f14620000c45763ed23f8c3036200000f57620009d0565b6200095b565b620008a8565b62000865565b62000847565b62000809565b620007c1565b62000726565b62000667565b620004ef565b6200038c565b62000297565b62000187565b600435906001600160a01b03821682036200012357565b600080fd5b60c435906001600160a01b03821682036200012357565b61010435906001600160a01b03821682036200012357565b61012435906001600160a01b03821682036200012357565b61014435906001600160a01b03821682036200012357565b346200012357602036600319011262000123576001600160a01b03620001ac6200010c565b166000908152600360205260409020805460ff19166001179055005b90600182811c92168015620001fa575b6020831014620001e457565b634e487b7160e01b600052602260045260246000fd5b91607f1691620001d8565b634e487b7160e01b600052604160045260246000fd5b90601f8019910116810190811067ffffffffffffffff8211176200023e57604052565b62000205565b60005b838110620002585750506000910152565b818101518382015260200162000247565b604091602082526200028b815180928160208601526020868601910162000244565b601f01601f1916010190565b346200012357600080600319360112620003895760405190808054620002bd81620001c8565b808552916001918083169081156200035c5750600114620002fd575b620002f985620002ec818703826200021b565b6040519182918262000269565b0390f35b80809450527f290decd9548b62a8d60345a988386fc84ba6bc95484008f6362f93160ef3e5635b82841062000343575050508101602001620002ec82620002f9620002d9565b8054602085870181019190915290930192810162000324565b869550620002f996935060209250620002ec94915060ff191682840152151560051b8201019293620002d9565b80fd5b34620001235760008060031936011262000389576001600160a01b037f0000000000000000000000000000000000000000000000000000000000000000168033036200045b57818080809347905af13d1562000455573d620003ee8162000485565b90620003fe60405192836200021b565b81528260203d92013e5b15620004115780f35b606460405162461bcd60e51b815260206004820152600f60248201527f4f2073617175652066616c686f752e00000000000000000000000000000000006044820152fd5b62000408565b60046040517f30cd7471000000000000000000000000000000000000000000000000000000008152fd5b67ffffffffffffffff81116200023e57601f01601f191660200190565b81601f820112156200012357803590620004bc8262000485565b92620004cc60405194856200021b565b828452602083830101116200012357816000926020809301838601378301015290565b3462000123576040366003190112620001235767ffffffffffffffff600435818111620001235762000526903690600401620004a2565b602435828111620001235762000541903690600401620004a2565b916001600160a01b037f00000000000000000000000000000000000000000000000000000000000000001633036200045b5760405182818094516200058d816020978880960162000244565b810160028152030190209183519182116200023e57620005ba82620005b38554620001c8565b8562000a21565b80601f8311600114620005f85750819293600092620005ec575b5050600019600383901b1c191660019190911b179055005b015190503880620005d4565b90601f198316946200060f85600052602060002090565b926000905b8782106200064e57505083600195961062000634575b505050811b019055005b015160001960f88460031b161c191690553880806200062a565b8060018596829496860151815501950193019062000614565b346200012357602036600319011262000123576001600160a01b036200068c6200010c565b16600052600360205260ff6040600020541660405160208101917f32458eed000000000000000000000000000000000000000000000000000000008352151590816024820152602481526060810181811067ffffffffffffffff8211176200023e576040525160209260009182916a636f6e736f6c652e6c6f675afa50604051908152f35b610164359063ffffffff821682036200012357565b3462000123576101803660031901126200012357620007446200010c565b602435906001600160a01b038216820362000123576200076362000128565b9160e4359267ffffffffffffffff8416840362000123576200001b93620007896200013f565b906200079462000157565b926200079f6200016f565b94620007aa62000711565b9660a4359160843591606435916044359162000aca565b3462000123576020366003190112620001235733600052600460205260206001600160a01b03620007f96004356040600020620009a1565b9190546040519260031b1c168152f35b346200012357602036600319011262000123576001600160a01b036200082e6200010c565b166000908152600360205260409020805460ff19169055005b34620001235760003660031901126200012357602047604051908152f35b346200012357602036600319011262000123576001600160a01b036200088a6200010c565b166000526003602052602060ff604060002054166040519015158152f35b346200012357600080600319360112620003895760405190806001805491620008d183620001c8565b808652928281169081156200035c5750600114620008fc57620002f985620002ec818703826200021b565b92508083527fb10e2d527612073b26eecdfd717e6a320cf44b4afac2b0732d9fcbe2b7fa0cf65b82841062000942575050508101602001620002ec82620002f9620002d9565b8054602085870181019190915290930192810162000923565b3462000123576000366003190112620001235760206040516001600160a01b037f0000000000000000000000000000000000000000000000000000000000000000168152f35b8054821015620009ba5760005260206000200190600090565b634e487b7160e01b600052603260045260246000fd5b34620001235760403660031901126200012357620009ed6200010c565b602435906001600160a01b038091166000526004602052604060002080548310156200012357602092620007f991620009a1565b90601f811162000a3057505050565b600091825260208220906020601f850160051c8301941062000a6f575b601f0160051c01915b82811062000a6357505050565b81815560010162000a56565b909250829062000a4d565b6040513d6000823e3d90fd5b8054680100000000000000008110156200023e5762000aab91600182018155620009a1565b819291549060031b916001600160a01b03809116831b921b1916179055565b96909a94999398929791956001600160a01b039a8b8d16600052600360205260ff604060002054161562000c145760405199611c7490818c01998c8b1067ffffffffffffffff8c11176200023e578f8d9c8f949c62000ba49d8f62000c7f90399a979296909194958b99949d9c9a966101808b019e6001600160a01b039b8c9a8b809a81809916845216602083015260408201526060015260808d015260a08c01521660c08a015267ffffffffffffffff1660e089015216610100870152166101208501521661014083015263ffffffff16906101600152565b0391f0801562000c0e5762000bf88162000bf27fa155a575082ecf596e5a22a44834be92670605d1d0832000305888ba02a462d9956001600160a01b03166000526004602052604060002090565b62000a86565b60405191166001600160a01b03168152602090a1565b62000a7a565b608460405162461bcd60e51b815260206004820152602160248201527f456e64657265636f206e616f2065737461206e61206c69737461206272616e6360448201527f61000000000000000000000000000000000000000000000000000000000000006064820152fdfe60806001600160401b03601f62001c7438819003918201601f191684019183831185841017620001cd5780859261018094604052833981010312620001c8576200004982620001e3565b6200005760208401620001e3565b9260408101519060608101519260808201519160a0810151936200007e60c08301620001e3565b60e0830151978816809803620001c8576200009d6101008401620001e3565b98620000ad6101208501620001e3565b91610160620000c06101408701620001e3565b9501519763ffffffff89168903620001c85760006001556001600160a01b0396871697881562000183576bffffffff00000000000000009a88968780968c60018060a01b03199d8e60035416176003558d601c541617601c55168b601d541617601d55602055602155601f55600a551685600c541617600c5581600954991685600d541617600d551683601a541617601a551690601b541617601b5560401b169160018060601b031916171760095542601855604051611a7b9081620001f98239f35b60405162461bcd60e51b815260206004820152601860248201527f43616e6e6f7420736574206f776e657220746f207a65726f00000000000000006044820152606490fd5b600080fd5b634e487b7160e01b600052604160045260246000fd5b51906001600160a01b0382168203620001c85756fe608060408181526004918236101561001657600080fd5b600092833560e01c9182626d6cae1461163657508163089ea02e1461161757816309c1ba2e146115ee5781631243bcc3146115c65781631aa46f59146115a757816324b93e3e14611581578163277e221314611481578163338cdca1146113d7578163381fc4b5146113b85781633944ea3a1461130e57816343cd3d86146112ef5781634585e33b14610f6b578163472cbbb014610d7e57816348802b9214610d5f57816348bd6f0514610d405781634b0795a814610c965781635d641dfc14610c7a5781635e0611f114610c52578163688ecfd114610ba85781636baa48fe14610b805781636e04ff0d14610a855781636e74336b14610a6657816379ba5097146109aa5781637b103999146109825781637d95f68a146107fa5781638b7afe2e146107df5781638da5cb5b146107b7578163947a36fb146107985781639655e6d81461065c578163a30971391461063e578163a3d3c0d21461061f578163b1e2174914610600578163bd4ca97b14610556578163bef3a2f0146104ac578163d1384eb614610484578163d2aa789f14610465578163d811fcf01461043d578163ebf14a551461041e578163f2fde38b1461035157508063f5c1279b14610333578063f68016b71461030f578063f887ea40146102e85763fffeb84e146101fd57600080fd5b346102e457816003193601126102e4578051908260085461021d81611650565b808552916001918083169081156102bc575060011461025f575b5050506102498261025b94038361168a565b519182916020835260208301906116c2565b0390f35b9450600885527ff3f7a9fe364faab93b216da50a3214154f22a0a2b415b23a84c8169e8b636ee35b8286106102a45750505061024982602061025b9582010194610237565b80546020878701810191909152909501948101610287565b61025b97508693506020925061024994915060ff191682840152151560051b82010194610237565b5080fd5b50346102e457816003193601126102e4576020906001600160a01b03600c54169051908152f35b50346102e457816003193601126102e45760209063ffffffff601054169051908152f35b50346102e457816003193601126102e4576020906015549051908152f35b9190503461041a57602036600319011261041a578135916001600160a01b039182841680940361041657610383611767565b3384146103d357508273ffffffffffffffffffffffffffffffffffffffff19825416179055600354167fed8889f560326eb138920d842192f0eb3dd22b4f139c87a2c57538e05bae12788380a380f35b906020606492519162461bcd60e51b8352820152601760248201527f43616e6e6f74207472616e7366657220746f2073656c660000000000000000006044820152fd5b8480fd5b8280fd5b5050346102e457816003193601126102e4576020906021549051908152f35b5050346102e457816003193601126102e4576020906001600160a01b03601d54169051908152f35b5050346102e457816003193601126102e457602090600e549051908152f35b5050346102e457816003193601126102e4576020906001600160a01b03601c54169051908152f35b5050346102e457816003193601126102e457805190826007546104ce81611650565b808552916001918083169081156102bc57506001146104f9575050506102498261025b94038361168a565b9450600785527fa66cc928b5edb82af9bd49922954155ab7b0942694bea4ce44661d9a8736c6885b82861061053e5750505061024982602061025b9582010194610237565b80546020878701810191909152909501948101610521565b5050346102e457816003193601126102e4578051908260245461057881611650565b808552916001918083169081156102bc57506001146105a3575050506102498261025b94038361168a565b9450602485527f7cd332d19b93bcabe3cce7ca0c18a052f57e5fd03b4758a09f30f5ddc4b22ec45b8286106105e85750505061024982602061025b9582010194610237565b805460208787018101919091529095019481016105cb565b5050346102e457816003193601126102e4576020906012549051908152f35b5050346102e457816003193601126102e4576020906019549051908152f35b5050346102e457816003193601126102e45760209081549051908152f35b8383346102e457806003193601126102e45760243592358252602092600284528183208054821015610794579061069291611735565b509167ffffffffffffffff83541692600180820192868551948593838254926106ba84611650565b8088529383811690811561076e5750600114610728575b505050505063ffffffff92916106e891038461168a565b61070c600360028301549201549360a08651988998895288015260a08701906116c2565b9361ffff82169086015260101c16606084015260808301520390f35b81528381209695945091905b818310610756575093945091925090820101866106e863ffffffff8a806106d1565b86548884018501529586019587945091830191610734565b60ff19168689015250505050151560051b8301019050866106e863ffffffff8a806106d1565b8380fd5b5050346102e457816003193601126102e457602090600a549051908152f35b5050346102e457816003193601126102e4576020906001600160a01b03600354169051908152f35b5050346102e457816003193601126102e45751478152602090f35b833461097f57602091826003193601126102e45767ffffffffffffffff81358181116107945761082d9036908401611702565b929091610838611767565b831161096c575061084a602454611650565b601f811161090e575b508293601f83116001146108905750928293829392610885575b50508160011b916000199060031b1c19161760245580f35b01359050838061086d565b601f198316947f7cd332d19b93bcabe3cce7ca0c18a052f57e5fd03b4758a09f30f5ddc4b22ec4929185905b8782106108f65750508360019596106108dc575b505050811b0160245580f35b0135600019600384901b60f8161c191690558380806108d0565b806001849682949587013581550195019201906108bc565b7f7cd332d19b93bcabe3cce7ca0c18a052f57e5fd03b4758a09f30f5ddc4b22ec4601f840160051c810191868510610962575b601f0160051c01905b8181106109575750610853565b84815560010161094a565b9091508190610941565b836041602492634e487b7160e01b835252fd5b80fd5b5050346102e457816003193601126102e4576020906001600160a01b03600d54169051908152f35b9190503461041a578260031936011261041a578154916001600160a01b03918284163303610a2357506003549273ffffffffffffffffffffffffffffffffffffffff199033828616176003551690553391167f8be0079c531659141344cd1fd0a4f28419497f9722a3daafe3b4186f6b6457e08380a380f35b906020606492519162461bcd60e51b8352820152601660248201527f4d7573742062652070726f706f736564206f776e6572000000000000000000006044820152fd5b5050346102e457816003193601126102e4576020906011549051908152f35b90503461041a57602091826003193601126107945767ffffffffffffffff918035838111610b7c5736602382011215610b7c5780820135938411610b69578251601f1994879291610add601f8301881689018261168a565b81815236602483850101116107945781602489940184830137010152601854420390428211610b565750600a92919254109180519485938452818585015260609485518093860152815b838110610b41575050838201850152601f01168101030190f35b60808101518882018801528795508101610b27565b856011602492634e487b7160e01b835252fd5b602486604184634e487b7160e01b835252fd5b8580fd5b5050346102e457816003193601126102e4576020906001600160a01b03601b54169051908152f35b5050346102e457816003193601126102e45780519082600554610bca81611650565b808552916001918083169081156102bc5750600114610bf5575050506102498261025b94038361168a565b9450600585527f036b6384b5eca791c62761152d0c79bb0604c104a5fb6f4eb0703f3154bb3db05b828610610c3a5750505061024982602061025b9582010194610237565b80546020878701810191909152909501948101610c1d565b5050346102e457816003193601126102e4576020906001600160a01b03601e54169051908152f35b5050346102e457816003193601126102e4576020905160018152f35b5050346102e457816003193601126102e45780519082601454610cb881611650565b808552916001918083169081156102bc5750600114610ce3575050506102498261025b94038361168a565b9450601485527fce6d7b5282bd9a3661ae061feed1dbda4e52ab073b1f9285be6e155d9c38d4ec5b828610610d285750505061024982602061025b9582010194610237565b80546020878701810191909152909501948101610d0b565b5050346102e457816003193601126102e457602090601f549051908152f35b5050346102e457816003193601126102e4576020906016549051908152f35b90503461041a5760a036600319011261041a5767ffffffffffffffff813581811161041657610db09036908401611702565b9060243593838516809503610f67576044359363ffffffff85168503610f6357610dd8611767565b8311610f505750610dea600554611650565b601f8111610ef1575b508590601f8311600114610e64576bffffffff0000000000000000939291879183610e59575b50508160011b916000199060031b1c1916176005555b600954931b16916bffffffffffffffffffffffff19161717600955606435601155608435600a5580f35b013590503880610e19565b7f036b6384b5eca791c62761152d0c79bb0604c104a5fb6f4eb0703f3154bb3db091601f198416885b818110610ed957509160019391856bffffffff000000000000000097969410610ebf575b505050811b01600555610e2f565b0135600019600384901b60f8161c19169055388080610eb1565b91936020600181928787013581550195019201610e8d565b7f036b6384b5eca791c62761152d0c79bb0604c104a5fb6f4eb0703f3154bb3db0601f840160051c81019160208510610f46575b601f0160051c01905b818110610f3b5750610df3565b878155600101610f2e565b9091508190610f25565b866041602492634e487b7160e01b835252fd5b8780fd5b8680fd5b8383346102e4576020928360031936011261041a5767ffffffffffffffff91813583811161041657610fa09036908401611702565b50506001600160a01b0380600354169081331415806112e1575b6112a2575050600e54156112605780518581018181108582111761124d57908591835252601854420342811161123a57600a5410156111f85742601855601954926001938481018091116111e5576019556021546022541015611106576009541663ffffffff60105416906011549251869760055461103881611650565b808452908881169081156110ea5750600114611095575b50506110638161106896979899038261168a565b6117bf565b806012558355601654918201809211611082575060165580f35b826011602492634e487b7160e01b835252fd5b600589527f036b6384b5eca791c62761152d0c79bb0604c104a5fb6f4eb0703f3154bb3db0995088905b8082106110d5575082010197506110638161104f565b8a5484830184015299880199908201906110bf565b60ff19168484015250151560051b82010197506110638161104f565b740100000000000000000000000000000000000000007fffffffffffffffffffffff00ffffffffffffffffffffffffffffffffffffffff601e541617601e556009541663ffffffff60105416906011549251869760245461116681611650565b808452908881169081156110ea57506001146111905750506110638161106896979899038261168a565b602489527f7cd332d19b93bcabe3cce7ca0c18a052f57e5fd03b4758a09f30f5ddc4b22ec4995088905b8082106111d0575082010197506110638161104f565b8a5484830184015299880199908201906111ba565b602486601186634e487b7160e01b835252fd5b9084606492519162461bcd60e51b8352820152601560248201527f54696d6520696e74657276616c206e6f74206d657400000000000000000000006044820152fd5b602485601185634e487b7160e01b835252fd5b602486604186634e487b7160e01b835252fd5b9084606492519162461bcd60e51b8352820152601560248201527f55706b656570206e6f74207265676973746572656400000000000000000000006044820152fd5b60649450601e54169151927f426fbc71000000000000000000000000000000000000000000000000000000008452339084015260248301526044820152fd5b5080601e5416331415610fba565b5050346102e457816003193601126102e4576020906017549051908152f35b5050346102e457816003193601126102e4578051908260135461133081611650565b808552916001918083169081156102bc575060011461135b575050506102498261025b94038361168a565b9450601385527f66de8ffda797e3de9c05e8fc57b3bf0ec28a930d40b0d285d93c06501cf6a0905b8286106113a05750505061024982602061025b9582010194610237565b80546020878701810191909152909501948101611383565b5050346102e457816003193601126102e457602090600b549051908152f35b5050346102e457816003193601126102e45780519082600f546113f981611650565b808552916001918083169081156102bc5750600114611424575050506102498261025b94038361168a565b9450600f85527f8d1108e10bcb7c27dddfc02ed9d693a074039d026cf4ea4240b40f7d581ac8025b8286106114695750505061024982602061025b9582010194610237565b8054602087870181019190915290950194810161144c565b9190503461041a5760209182600319360112610794573560225481101561079457602284527f61035b26e3e9eee00e0d72fd1ee8ddca6894550dca6916ea2ac6baa90d11e510018151938491818154906114da82611650565b92838652600192888482169182600014611557575050600114611519575b858861025b8961150a848a038561168a565b519282849384528301906116c2565b87945081939291528383205b82841061153f575050508201018161150a61025b386114f8565b8054848a018601528895508794909301928101611525565b60ff19168882015294151560051b8701909401945085935061150a925061025b91503890506114f8565b5050346102e457816003193601126102e4576009548151911c63ffffffff168152602090f35b5050346102e457816003193601126102e4576020906006549051908152f35b5050346102e457816003193601126102e4576020906001600160a01b03601a54169051908152f35b5050346102e457816003193601126102e45760209067ffffffffffffffff600954169051908152f35b5050346102e457816003193601126102e4576020906018549051908152f35b8490346102e457816003193601126102e457602091548152f35b90600182811c92168015611680575b602083101461166a57565b634e487b7160e01b600052602260045260246000fd5b91607f169161165f565b90601f8019910116810190811067ffffffffffffffff8211176116ac57604052565b634e487b7160e01b600052604160045260246000fd5b919082519283825260005b8481106116ee575050826000602080949584010152601f8019910116010190565b6020818301810151848301820152016116cd565b9181601f840112156117305782359167ffffffffffffffff8311611730576020838186019501011161173057565b600080fd5b80548210156117515760005260206000209060021b0190600090565b634e487b7160e01b600052603260045260246000fd5b6001600160a01b0360035416330361177b57565b606460405162461bcd60e51b815260206004820152601660248201527f4f6e6c792063616c6c61626c65206279206f776e6572000000000000000000006044820152fd5b91909392936040519160a0830167ffffffffffffffff92848210848311176116ac5783916040521683526020938484019081526040840192600180855263ffffffff606087019416845260808601988952805496600097808955828101808211611a315783558852600281526040882080549068010000000000000000821015611a1d5790611852918482018155611735565b979097611a0a578390511667ffffffffffffffff19885416178755818701935180519384116119f6576118858554611650565b601f81116119b0575b5081601f851160011461192257509280600397959381937f1131472297a800fee664d1d89cfa8f7676ff07189ecc53f80bbb5f4969099db89c9d98968c94611917575b50501b9160001990881b1c19161790555b61ffff6002860192511665ffffffff00008354925160101b169165ffffffffffff19161717905551910155805491818392a290565b0151925038806118d1565b9190601f949394198416868b52838b20938b905b828210611999575050917f1131472297a800fee664d1d89cfa8f7676ff07189ecc53f80bbb5f4969099db89b9c979593918560039a98969410611981575b505050811b0190556118e2565b0151600019838a1b60f8161c19169055388080611974565b808886978294978701518155019601940190611936565b858a52828a20601f860160051c8101918487106119ec575b601f0160051c019084905b8281106119e157505061188e565b8b81550184906119d3565b90915081906119c8565b602489634e487b7160e01b81526041600452fd5b602489634e487b7160e01b815280600452fd5b60248a634e487b7160e01b81526041600452fd5b60248a634e487b7160e01b81526011600452fdfea264697066735822122070740fdca3e73e3331663b6df196b8c0b07d9fdb42e4b22bfd700f72a79dd04564736f6c63430008130033a2646970667358221220f3adb774bcfca25ba8d4d41cccd46b6d34efe220d97478ee66b334e4db3a8e0964736f6c63430008130033a26469706673582212207cb481440f089dcae95685b96fa72a8ebe890e885ccebc0317f7763b9c9bac9364736f6c63430008130033",
  "linkReferences": {},
  "deployedLinkReferences": {}
}